{
  "abi": [
    {
      "anonymous": false,
      "inputs": [
        {
          "indexed": true,
          "internalType": "address",
          "name": "owner",
          "type": "address"
        },
        {
          "indexed": true,
          "internalType": "address",
          "name": "spender",
          "type": "address"
        },
        {
          "indexed": false,
          "internalType": "uint256",
          "name": "value",
          "type": "uint256"
        }
      ],
      "name": "Approval",
      "type": "event"
    },
    {
      "anonymous": false,
      "inputs": [
        {
          "indexed": true,
          "internalType": "address",
          "name": "by",
          "type": "address"
        },
        {
          "indexed": false,
          "internalType": "uint256",
          "name": "fundsDistributed",
          "type": "uint256"
        }
      ],
      "name": "FundsDistributed",
      "type": "event"
    },
    {
      "anonymous": false,
      "inputs": [
        {
          "indexed": true,
          "internalType": "address",
          "name": "by",
          "type": "address"
        },
        {
          "indexed": false,
          "internalType": "uint256",
          "name": "fundsWithdrawn",
          "type": "uint256"
        }
      ],
      "name": "FundsWithdrawn",
      "type": "event"
    },
    {
      "anonymous": false,
      "inputs": [
        {
          "indexed": true,
          "internalType": "address",
          "name": "previousOwner",
          "type": "address"
        },
        {
          "indexed": true,
          "internalType": "address",
          "name": "newOwner",
          "type": "address"
        }
      ],
      "name": "OwnershipTransferred",
      "type": "event"
    },
    {
      "anonymous": false,
      "inputs": [
        {
          "indexed": true,
          "internalType": "address",
          "name": "from",
          "type": "address"
        },
        {
          "indexed": true,
          "internalType": "address",
          "name": "to",
          "type": "address"
        },
        {
          "indexed": false,
          "internalType": "uint256",
          "name": "value",
          "type": "uint256"
        }
      ],
      "name": "Transfer",
      "type": "event"
    },
    {
      "inputs": [
        {
          "internalType": "address",
          "name": "_owner",
          "type": "address"
        }
      ],
      "name": "accumulativeFundsOf",
      "outputs": [
        {
          "internalType": "uint256",
          "name": "",
          "type": "uint256"
        }
      ],
      "stateMutability": "view",
      "type": "function"
    },
    {
      "inputs": [
        {
          "internalType": "address",
          "name": "owner",
          "type": "address"
        },
        {
          "internalType": "address",
          "name": "spender",
          "type": "address"
        }
      ],
      "name": "allowance",
      "outputs": [
        {
          "internalType": "uint256",
          "name": "",
          "type": "uint256"
        }
      ],
      "stateMutability": "view",
      "type": "function"
    },
    {
      "inputs": [
        {
          "internalType": "address",
          "name": "spender",
          "type": "address"
        },
        {
          "internalType": "uint256",
          "name": "amount",
          "type": "uint256"
        }
      ],
      "name": "approve",
      "outputs": [
        {
          "internalType": "bool",
          "name": "",
          "type": "bool"
        }
      ],
      "stateMutability": "nonpayable",
      "type": "function"
    },
    {
      "inputs": [
        {
          "internalType": "address",
          "name": "account",
          "type": "address"
        }
      ],
      "name": "balanceOf",
      "outputs": [
        {
          "internalType": "uint256",
          "name": "",
          "type": "uint256"
        }
      ],
      "stateMutability": "view",
      "type": "function"
    },
    {
      "inputs": [
        {
          "internalType": "address",
          "name": "account",
          "type": "address"
        },
        {
          "internalType": "uint256",
          "name": "amount",
          "type": "uint256"
        }
      ],
      "name": "burn",
      "outputs": [
        {
          "internalType": "bool",
          "name": "",
          "type": "bool"
        }
      ],
      "stateMutability": "nonpayable",
      "type": "function"
    },
    {
      "inputs": [],
      "name": "decimals",
      "outputs": [
        {
          "internalType": "uint8",
          "name": "",
          "type": "uint8"
        }
      ],
      "stateMutability": "view",
      "type": "function"
    },
    {
      "inputs": [
        {
          "internalType": "address",
          "name": "spender",
          "type": "address"
        },
        {
          "internalType": "uint256",
          "name": "subtractedValue",
          "type": "uint256"
        }
      ],
      "name": "decreaseAllowance",
      "outputs": [
        {
          "internalType": "bool",
          "name": "",
          "type": "bool"
        }
      ],
      "stateMutability": "nonpayable",
      "type": "function"
    },
    {
      "inputs": [],
      "name": "fundsToken",
      "outputs": [
        {
          "internalType": "contract IERC20",
          "name": "",
          "type": "address"
        }
      ],
      "stateMutability": "view",
      "type": "function"
    },
    {
      "inputs": [],
      "name": "fundsTokenBalance",
      "outputs": [
        {
          "internalType": "uint256",
          "name": "",
          "type": "uint256"
        }
      ],
      "stateMutability": "view",
      "type": "function"
    },
    {
      "inputs": [
        {
          "internalType": "address",
          "name": "spender",
          "type": "address"
        },
        {
          "internalType": "uint256",
          "name": "addedValue",
          "type": "uint256"
        }
      ],
      "name": "increaseAllowance",
      "outputs": [
        {
          "internalType": "bool",
          "name": "",
          "type": "bool"
        }
      ],
      "stateMutability": "nonpayable",
      "type": "function"
    },
    {
      "inputs": [
        {
          "internalType": "string",
          "name": "name",
          "type": "string"
        },
        {
          "internalType": "string",
          "name": "symbol",
          "type": "string"
        },
        {
          "internalType": "contract IERC20",
          "name": "_fundsToken",
          "type": "address"
        },
        {
          "internalType": "address",
          "name": "owner",
          "type": "address"
        },
        {
          "internalType": "uint256",
          "name": "initialAmount",
          "type": "uint256"
        }
      ],
      "name": "initialize",
      "outputs": [],
      "stateMutability": "nonpayable",
      "type": "function"
    },
    {
      "inputs": [
        {
          "internalType": "address",
          "name": "account",
          "type": "address"
        },
        {
          "internalType": "uint256",
          "name": "amount",
          "type": "uint256"
        }
      ],
      "name": "mint",
      "outputs": [
        {
          "internalType": "bool",
          "name": "",
          "type": "bool"
        }
      ],
      "stateMutability": "nonpayable",
      "type": "function"
    },
    {
      "inputs": [],
      "name": "name",
      "outputs": [
        {
          "internalType": "string",
          "name": "",
          "type": "string"
        }
      ],
      "stateMutability": "view",
      "type": "function"
    },
    {
      "inputs": [],
      "name": "owner",
      "outputs": [
        {
          "internalType": "address",
          "name": "",
          "type": "address"
        }
      ],
      "stateMutability": "view",
      "type": "function"
    },
    {
      "inputs": [
        {
          "internalType": "address[]",
          "name": "owners",
          "type": "address[]"
        }
      ],
      "name": "pushFunds",
      "outputs": [],
      "stateMutability": "nonpayable",
      "type": "function"
    },
    {
      "inputs": [],
      "name": "renounceOwnership",
      "outputs": [],
      "stateMutability": "nonpayable",
      "type": "function"
    },
    {
      "inputs": [],
      "name": "symbol",
      "outputs": [
        {
          "internalType": "string",
          "name": "",
          "type": "string"
        }
      ],
      "stateMutability": "view",
      "type": "function"
    },
    {
      "inputs": [],
      "name": "totalSupply",
      "outputs": [
        {
          "internalType": "uint256",
          "name": "",
          "type": "uint256"
        }
      ],
      "stateMutability": "view",
      "type": "function"
    },
    {
      "inputs": [
        {
          "internalType": "address",
          "name": "to",
          "type": "address"
        },
        {
          "internalType": "uint256",
          "name": "value",
          "type": "uint256"
        }
      ],
      "name": "transfer",
      "outputs": [
        {
          "internalType": "bool",
          "name": "",
          "type": "bool"
        }
      ],
      "stateMutability": "nonpayable",
      "type": "function"
    },
    {
      "inputs": [
        {
          "internalType": "address",
          "name": "from",
          "type": "address"
        },
        {
          "internalType": "address",
          "name": "to",
          "type": "address"
        },
        {
          "internalType": "uint256",
          "name": "value",
          "type": "uint256"
        }
      ],
      "name": "transferFrom",
      "outputs": [
        {
          "internalType": "bool",
          "name": "",
          "type": "bool"
        }
      ],
      "stateMutability": "nonpayable",
      "type": "function"
    },
    {
      "inputs": [
        {
          "internalType": "address",
          "name": "newOwner",
          "type": "address"
        }
      ],
      "name": "transferOwnership",
      "outputs": [],
      "stateMutability": "nonpayable",
      "type": "function"
    },
    {
      "inputs": [],
      "name": "updateFundsReceived",
      "outputs": [],
      "stateMutability": "nonpayable",
      "type": "function"
    },
    {
      "inputs": [],
      "name": "withdrawFunds",
      "outputs": [],
      "stateMutability": "nonpayable",
      "type": "function"
    },
    {
      "inputs": [
        {
          "internalType": "address",
          "name": "_owner",
          "type": "address"
        }
      ],
      "name": "withdrawableFundsOf",
      "outputs": [
        {
          "internalType": "uint256",
          "name": "",
          "type": "uint256"
        }
      ],
      "stateMutability": "view",
      "type": "function"
    },
    {
      "inputs": [
        {
          "internalType": "address",
          "name": "_owner",
          "type": "address"
        }
      ],
      "name": "withdrawnFundsOf",
      "outputs": [
        {
          "internalType": "uint256",
          "name": "",
          "type": "uint256"
        }
      ],
      "stateMutability": "view",
      "type": "function"
    }
  ],
  "address": "0x1313f4100e68D0d6b96B1924Bff65aF6Bdd7d11D",
  "args": [],
  "solcInputHash": "0x23714ef0ce68403b3db1dbf40e73964dbe28e5db644d25bf49f7a82ed1307387",
  "bytecode": "0x608060405234801561001057600080fd5b50612003806100206000396000f3fe608060405234801561001057600080fd5b50600436106101725760003560e01c80634e97415f116100de5780639dc29fac11610097578063a9691f3f11610071578063a9691f3f14610507578063c9aba0aa1461050f578063dd62ed3e14610654578063f2fde38b1461068257610172565b80639dc29fac14610483578063a457c2d7146104af578063a9059cbb146104db57610172565b80634e97415f146103fb57806363f04b151461042157806370a0823114610445578063715018a61461046b5780638da5cb5b1461047357806395d89b411461047b57610172565b8063313ce56711610130578063313ce567146102b457806339509351146102d257806340c10f19146102fe578063443bb2931461032a57806345f634f21461035057806346c162de146103f357610172565b806241c52c1461017757806306fdde03146101af578063095ea7b31461022c57806318160ddd1461026c57806323b872dd1461027457806324600fc3146102aa575b600080fd5b61019d6004803603602081101561018d57600080fd5b50356001600160a01b03166106a8565b60408051918252519081900360200190f35b6101b76106c3565b6040805160208082528351818301528351919283929083019185019080838360005b838110156101f15781810151838201526020016101d9565b50505050905090810190601f16801561021e5780820380516001836020036101000a031916815260200191505b509250505060405180910390f35b6102586004803603604081101561024257600080fd5b506001600160a01b03813516906020013561075a565b604080519115158252519081900360200190f35b61019d610778565b6102586004803603606081101561028a57600080fd5b506001600160a01b0381358116916020810135909116906040013561077e565b6102b2610793565b005b6102bc61079e565b6040805160ff9092168252519081900360200190f35b610258600480360360408110156102e857600080fd5b506001600160a01b0381351690602001356107a7565b6102586004803603604081101561031457600080fd5b506001600160a01b038135169060200135610800565b61019d6004803603602081101561034057600080fd5b50356001600160a01b0316610864565b6102b26004803603602081101561036657600080fd5b81019060208101813564010000000081111561038157600080fd5b82018360208201111561039357600080fd5b803590602001918460208302840111640100000000831117156103b557600080fd5b919080806020026020016040519081016040528093929190818152602001838360200280828437600092019190915250929550610896945050505050565b6102b26108ca565b61019d6004803603602081101561041157600080fd5b50356001600160a01b03166108f3565b61042961095c565b604080516001600160a01b039092168252519081900360200190f35b61019d6004803603602081101561045b57600080fd5b50356001600160a01b031661096b565b6102b2610986565b610429610a28565b6101b7610a37565b6102586004803603604081101561049957600080fd5b506001600160a01b038135169060200135610a98565b610258600480360360408110156104c557600080fd5b506001600160a01b038135169060200135610afc565b610258600480360360408110156104f157600080fd5b506001600160a01b038135169060200135610b6a565b61019d610b7d565b6102b2600480360360a081101561052557600080fd5b81019060208101813564010000000081111561054057600080fd5b82018360208201111561055257600080fd5b8035906020019184600183028401116401000000008311171561057457600080fd5b91908080601f01602080910402602001604051908101604052809392919081815260200183838082843760009201919091525092959493602081019350359150506401000000008111156105c757600080fd5b8201836020820111156105d957600080fd5b803590602001918460018302840111640100000000831117156105fb57600080fd5b91908080601f016020809104026020016040519081016040528093929190818152602001838380828437600092019190915250929550506001600160a01b0383358116945060208401351692604001359150610b839050565b61019d6004803603604081101561066a57600080fd5b506001600160a01b0381358116916020013516610caf565b6102b26004803603602081101561069857600080fd5b50356001600160a01b0316610cda565b6001600160a01b031660009081526099602052604090205490565b60688054604080516020601f600260001961010060018816150201909516949094049384018190048102820181019092528281526060939092909183018282801561074f5780601f106107245761010080835404028352916020019161074f565b820191906000526020600020905b81548152906001019060200180831161073257829003601f168201915b505050505090505b90565b600061076e610767610dd3565b8484610dd7565b5060015b92915050565b60675490565b600061078b848484610ec3565b949350505050565b61079c33610f4b565b565b606a5460ff1690565b600061076e6107b4610dd3565b846107fb85606660006107c5610dd3565b6001600160a01b03908116825260208083019390935260409182016000908120918c16815292529020549063ffffffff61102216565b610dd7565b600061080a610dd3565b609a546001600160a01b0390811691161461085a576040805162461bcd60e51b81526020600482018190526024820152600080516020611ea1833981519152604482015290519081900360640190fd5b61076e838361107c565b6001600160a01b0381166000908152609960205260408120546107729061088a846108f3565b9063ffffffff6110e616565b60005b81518110156108c6576108be8282815181106108b157fe5b6020026020010151610f4b565b600101610899565b5050565b60006108d4611128565b905060008113156108f0576108f06108eb826111be565b6111d1565b50565b6001600160a01b038116600090815260986020526040812054600160801b9061094e906109499061093d6109386109298861096b565b6097549063ffffffff61129016565b6112e9565b9063ffffffff6112f916565b6111be565b8161095557fe5b0492915050565b60cc546001600160a01b031681565b6001600160a01b031660009081526065602052604090205490565b61098e610dd3565b609a546001600160a01b039081169116146109de576040805162461bcd60e51b81526020600482018190526024820152600080516020611ea1833981519152604482015290519081900360640190fd5b609a546040516000916001600160a01b0316907f8be0079c531659141344cd1fd0a4f28419497f9722a3daafe3b4186f6b6457e0908390a3609a80546001600160a01b0319169055565b609a546001600160a01b031690565b60698054604080516020601f600260001961010060018816150201909516949094049384018190048102820181019092528281526060939092909183018282801561074f5780601f106107245761010080835404028352916020019161074f565b6000610aa2610dd3565b609a546001600160a01b03908116911614610af2576040805162461bcd60e51b81526020600482018190526024820152600080516020611ea1833981519152604482015290519081900360640190fd5b61076e838361132c565b600061076e610b09610dd3565b846107fb85604051806060016040528060258152602001611fa96025913960666000610b33610dd3565b6001600160a01b03908116825260208083019390935260409182016000908120918d1681529252902054919063ffffffff61137616565b6000610b76838361140d565b9392505050565b60cd5481565b600054610100900460ff1680610b9c5750610b9c611421565b80610baa575060005460ff16155b610be55760405162461bcd60e51b815260040180806020018281038252602e815260200180611ec1602e913960400191505060405180910390fd5b600054610100900460ff16158015610c10576000805460ff1961ff0019909116610100171660011790555b6001600160a01b038416610c555760405162461bcd60e51b8152600401808060200182810382526027815260200180611f826027913960400191505060405180910390fd5b610c5f8686611427565b610c676114dc565b60cc80546001600160a01b0319166001600160a01b038616179055610c8b83610cda565b610c95838361107c565b8015610ca7576000805461ff00191690555b505050505050565b6001600160a01b03918216600090815260666020908152604080832093909416825291909152205490565b610ce2610dd3565b609a546001600160a01b03908116911614610d32576040805162461bcd60e51b81526020600482018190526024820152600080516020611ea1833981519152604482015290519081900360640190fd5b6001600160a01b038116610d775760405162461bcd60e51b8152600401808060200182810382526026815260200180611db36026913960400191505060405180910390fd5b609a546040516001600160a01b038084169216907f8be0079c531659141344cd1fd0a4f28419497f9722a3daafe3b4186f6b6457e090600090a3609a80546001600160a01b0319166001600160a01b0392909216919091179055565b3390565b6001600160a01b038316610e1c5760405162461bcd60e51b8152600401808060200182810382526024815260200180611f356024913960400191505060405180910390fd5b6001600160a01b038216610e615760405162461bcd60e51b8152600401808060200182810382526022815260200180611dd96022913960400191505060405180910390fd5b6001600160a01b03808416600081815260666020908152604080832094871680845294825291829020859055815185815291517f8c5be1e5ebec7d5bd14f71427d1e84f3dd0314c0f7b2291e5b200ac8c7c3b9259281900390910190a3505050565b6000610ed084848461158d565b610f4184610edc610dd3565b6107fb85604051806060016040528060288152602001611e79602891396001600160a01b038a16600090815260666020526040812090610f1a610dd3565b6001600160a01b03168152602081019190915260400160002054919063ffffffff61137616565b5060019392505050565b6000610f5682611635565b60cc546040805163a9059cbb60e01b81526001600160a01b03868116600483015260248201859052915193945091169163a9059cbb916044808201926020929091908290030181600087803b158015610fae57600080fd5b505af1158015610fc2573d6000803e3d6000fd5b505050506040513d6020811015610fd857600080fd5b50516110155760405162461bcd60e51b8152600401808060200182810382526029815260200180611f596029913960400191505060405180910390fd5b61101d611128565b505050565b600082820183811015610b76576040805162461bcd60e51b815260206004820152601b60248201527f536166654d6174683a206164646974696f6e206f766572666c6f770000000000604482015290519081900360640190fd5b61108682826116c5565b6110c66110a16109388360975461129090919063ffffffff16565b6001600160a01b0384166000908152609860205260409020549063ffffffff6117c316565b6001600160a01b0390921660009081526098602052604090209190915550565b6000610b7683836040518060400160405280601e81526020017f536166654d6174683a207375627472616374696f6e206f766572666c6f770000815250611376565b60cd5460cc54604080516370a0823160e01b81523060048201529051600093926001600160a01b0316916370a08231916024808301926020929190829003018186803b15801561117757600080fd5b505afa15801561118b573d6000803e3d6000fd5b505050506040513d60208110156111a157600080fd5b505160cd8190556111b8908263ffffffff6117c316565b91505090565b6000808212156111cd57600080fd5b5090565b60006111db610778565b116112175760405162461bcd60e51b8152600401808060200182810382526037815260200180611e216037913960400191505060405180910390fd5b80156108f057611254611228610778565b61123c83600160801b63ffffffff61129016565b8161124357fe5b60975491900463ffffffff61102216565b60975560408051828152905133917f26536799ace2c3dbe12e638ec3ade6b4173dcf1289be0a58d51a5003015649bd919081900360200190a250565b60008261129f57506000610772565b828202828482816112ac57fe5b0414610b765760405162461bcd60e51b8152600401808060200182810382526021815260200180611e586021913960400191505060405180910390fd5b6000818181121561077257600080fd5b600082820181831280159061130e5750838112155b80611323575060008312801561132357508381125b610b7657600080fd5b61133682826117fd565b6110c66113516109388360975461129090919063ffffffff16565b6001600160a01b0384166000908152609860205260409020549063ffffffff6112f916565b600081848411156114055760405162461bcd60e51b81526004018080602001828103825283818151815260200191508051906020019080838360005b838110156113ca5781810151838201526020016113b2565b50505050905090810190601f1680156113f75780820380516001836020036101000a031916815260200191505b509250505060405180910390fd5b505050900390565b600061076e61141a610dd3565b848461158d565b303b1590565b600054610100900460ff16806114405750611440611421565b8061144e575060005460ff16155b6114895760405162461bcd60e51b815260040180806020018281038252602e815260200180611ec1602e913960400191505060405180910390fd5b600054610100900460ff161580156114b4576000805460ff1961ff0019909116610100171660011790555b6114bc611905565b6114c683836119a5565b801561101d576000805461ff0019169055505050565b600054610100900460ff16806114f557506114f5611421565b80611503575060005460ff16155b61153e5760405162461bcd60e51b815260040180806020018281038252602e815260200180611ec1602e913960400191505060405180910390fd5b600054610100900460ff16158015611569576000805460ff1961ff0019909116610100171660011790555b611571611905565b611579611a7d565b80156108f0576000805461ff001916905550565b611598838383611b76565b60006115b26109388360975461129090919063ffffffff16565b6001600160a01b0385166000908152609860205260409020549091506115de908263ffffffff6112f916565b6001600160a01b038086166000908152609860205260408082209390935590851681522054611613908263ffffffff6117c316565b6001600160a01b03909316600090815260986020526040902092909255505050565b60008061164183610864565b6001600160a01b03841660009081526099602052604090205490915061166d908263ffffffff61102216565b6001600160a01b038416600081815260996020908152604091829020939093558051848152905191927feaff4b37086828766ad3268786972c0cd24259d4c87a80f9d3963a3c3d999b0d92918290030190a292915050565b6001600160a01b038216611720576040805162461bcd60e51b815260206004820152601f60248201527f45524332303a206d696e7420746f20746865207a65726f206164647265737300604482015290519081900360640190fd5b61172c6000838361101d565b60675461173f908263ffffffff61102216565b6067556001600160a01b03821660009081526065602052604090205461176b908263ffffffff61102216565b6001600160a01b03831660008181526065602090815260408083209490945583518581529351929391927fddf252ad1be2c89b69c2b068fc378daa952ba7f163c4a11628f55a4df523b3ef9281900390910190a35050565b60008082121580156117d757508282840313155b806117ee57506000821280156117ee575082828403135b6117f757600080fd5b50900390565b6001600160a01b0382166118425760405162461bcd60e51b8152600401808060200182810382526021815260200180611eef6021913960400191505060405180910390fd5b61184e8260008361101d565b61189181604051806060016040528060228152602001611d91602291396001600160a01b038516600090815260656020526040902054919063ffffffff61137616565b6001600160a01b0383166000908152606560205260409020556067546118bd908263ffffffff6110e616565b6067556040805182815290516000916001600160a01b038516917fddf252ad1be2c89b69c2b068fc378daa952ba7f163c4a11628f55a4df523b3ef9181900360200190a35050565b600054610100900460ff168061191e575061191e611421565b8061192c575060005460ff16155b6119675760405162461bcd60e51b815260040180806020018281038252602e815260200180611ec1602e913960400191505060405180910390fd5b600054610100900460ff16158015611579576000805460ff1961ff00199091166101001716600117905580156108f0576000805461ff001916905550565b600054610100900460ff16806119be57506119be611421565b806119cc575060005460ff16155b611a075760405162461bcd60e51b815260040180806020018281038252602e815260200180611ec1602e913960400191505060405180910390fd5b600054610100900460ff16158015611a32576000805460ff1961ff0019909116610100171660011790555b8251611a45906068906020860190611cdf565b508151611a59906069906020850190611cdf565b50606a805460ff19166012179055801561101d576000805461ff0019169055505050565b600054610100900460ff1680611a965750611a96611421565b80611aa4575060005460ff16155b611adf5760405162461bcd60e51b815260040180806020018281038252602e815260200180611ec1602e913960400191505060405180910390fd5b600054610100900460ff16158015611b0a576000805460ff1961ff0019909116610100171660011790555b6000611b14610dd3565b609a80546001600160a01b0319166001600160a01b038316908117909155604051919250906000907f8be0079c531659141344cd1fd0a4f28419497f9722a3daafe3b4186f6b6457e0908290a35080156108f0576000805461ff001916905550565b6001600160a01b038316611bbb5760405162461bcd60e51b8152600401808060200182810382526025815260200180611f106025913960400191505060405180910390fd5b6001600160a01b038216611c005760405162461bcd60e51b8152600401808060200182810382526023815260200180611d6e6023913960400191505060405180910390fd5b611c0b83838361101d565b611c4e81604051806060016040528060268152602001611dfb602691396001600160a01b038616600090815260656020526040902054919063ffffffff61137616565b6001600160a01b038085166000908152606560205260408082209390935590841681522054611c83908263ffffffff61102216565b6001600160a01b0380841660008181526065602090815260409182902094909455805185815290519193928716927fddf252ad1be2c89b69c2b068fc378daa952ba7f163c4a11628f55a4df523b3ef92918290030190a3505050565b828054600181600116156101000203166002900490600052602060002090601f016020900481019282601f10611d2057805160ff1916838001178555611d4d565b82800160010185558215611d4d579182015b82811115611d4d578251825591602001919060010190611d32565b506111cd926107579250905b808211156111cd5760008155600101611d5956fe45524332303a207472616e7366657220746f20746865207a65726f206164647265737345524332303a206275726e20616d6f756e7420657863656564732062616c616e63654f776e61626c653a206e6577206f776e657220697320746865207a65726f206164647265737345524332303a20617070726f766520746f20746865207a65726f206164647265737345524332303a207472616e7366657220616d6f756e7420657863656564732062616c616e636546756e6473446973747269627574696f6e546f6b656e2e5f6469737472696275746546756e64733a20535550504c595f49535f5a45524f536166654d6174683a206d756c7469706c69636174696f6e206f766572666c6f7745524332303a207472616e7366657220616d6f756e74206578636565647320616c6c6f77616e63654f776e61626c653a2063616c6c6572206973206e6f7420746865206f776e6572436f6e747261637420696e7374616e63652068617320616c7265616479206265656e20696e697469616c697a656445524332303a206275726e2066726f6d20746865207a65726f206164647265737345524332303a207472616e736665722066726f6d20746865207a65726f206164647265737345524332303a20617070726f76652066726f6d20746865207a65726f206164647265737356616e696c6c614644542e776974686472617746756e64733a205452414e534645525f4641494c454456616e696c6c614644543a20494e56414c49445f46554e44535f544f4b454e5f4144445245535345524332303a2064656372656173656420616c6c6f77616e63652062656c6f77207a65726fa26469706673582212200a80daa3910ff1ff4727bdef39e3a9cdf05b6802982d63620240ea24e9f7d44264736f6c634300060b0033",
  "devdoc": {
    "kind": "dev",
    "methods": {
      "accumulativeFundsOf(address)": {
        "details": "accumulativeFundsOf(_owner) = withdrawableFundsOf(_owner) + withdrawnFundsOf(_owner) = (pointsPerShare * balanceOf(_owner) + pointsCorrection[_owner]) / pointsMultiplier",
        "params": {
          "_owner": "The address of a token holder."
        },
        "returns": {
          "_0": "The amount of funds that `_owner` has earned in total."
        }
      },
      "allowance(address,address)": {
        "details": "See {IERC20-allowance}."
      },
      "approve(address,uint256)": {
        "details": "See {IERC20-approve}. Requirements: - `spender` cannot be the zero address."
      },
      "balanceOf(address)": {
        "details": "See {IERC20-balanceOf}."
      },
      "decimals()": {
        "details": "Returns the number of decimals used to get its user representation. For example, if `decimals` equals `2`, a balance of `505` tokens should be displayed to a user as `5,05` (`505 / 10 ** 2`). Tokens usually opt for a value of 18, imitating the relationship between Ether and Wei. This is the value {ERC20} uses, unless {_setupDecimals} is called. NOTE: This information is only used for _display_ purposes: it in no way affects any of the arithmetic of the contract, including {IERC20-balanceOf} and {IERC20-transfer}."
      },
      "decreaseAllowance(address,uint256)": {
        "details": "Atomically decreases the allowance granted to `spender` by the caller. This is an alternative to {approve} that can be used as a mitigation for problems described in {IERC20-approve}. Emits an {Approval} event indicating the updated allowance. Requirements: - `spender` cannot be the zero address. - `spender` must have allowance for the caller of at least `subtractedValue`."
      },
      "increaseAllowance(address,uint256)": {
        "details": "Atomically increases the allowance granted to `spender` by the caller. This is an alternative to {approve} that can be used as a mitigation for problems described in {IERC20-approve}. Emits an {Approval} event indicating the updated allowance. Requirements: - `spender` cannot be the zero address."
      },
      "initialize(string,string,address,address,uint256)": {
        "details": "\"constructor\" to be called on deployment"
      },
      "name()": {
        "details": "Returns the name of the token."
      },
      "owner()": {
        "details": "Returns the address of the current owner."
      },
      "renounceOwnership()": {
        "details": "Leaves the contract without owner. It will not be possible to call `onlyOwner` functions anymore. Can only be called by the current owner. NOTE: Renouncing ownership will leave the contract without an owner, thereby removing any functionality that is only available to the owner."
      },
      "symbol()": {
        "details": "Returns the symbol of the token, usually a shorter version of the name."
      },
      "totalSupply()": {
        "details": "See {IERC20-totalSupply}."
      },
      "transferOwnership(address)": {
        "details": "Transfers ownership of the contract to a new account (`newOwner`). Can only be called by the current owner."
      },
      "updateFundsReceived()": {
        "details": "Calls _updateFundsTokenBalance(), whereby the contract computes the delta of the previous and the new funds token balance and increments the total received funds (cumulative) by delta by calling _registerFunds()"
      },
      "withdrawableFundsOf(address)": {
        "params": {
          "_owner": "The address of a token holder."
        },
        "returns": {
          "_0": "The amount funds that `_owner` can withdraw."
        }
      },
      "withdrawnFundsOf(address)": {
        "params": {
          "_owner": "The address of a token holder."
        },
        "returns": {
          "_0": "The amount of funds that `_owner` has withdrawn."
        }
      }
    },
    "version": 1
  },
  "userdoc": {
    "kind": "user",
    "methods": {
      "accumulativeFundsOf(address)": {
        "notice": "prev. accumulativeDividendOfView the amount of funds that an address has earned in total."
      },
      "burn(address,uint256)": {
        "notice": "Exposes the ability to burn exisiting FDTs for a given account. Caller has to be the owner of the FDT."
      },
      "initialize(string,string,address,address,uint256)": {
        "notice": "Initialize a new instance storage"
      },
      "mint(address,uint256)": {
        "notice": "Exposes the ability to mint new FDTs for a given account. Caller has to be the owner of the FDT."
      },
      "pushFunds(address[])": {
        "notice": "Withdraws funds for a set of token holders"
      },
      "transfer(address,uint256)": {
        "notice": "Overrides the parent class token transfer function to enforce restrictions."
      },
      "transferFrom(address,address,uint256)": {
        "notice": "Overrides the parent class token transferFrom function to enforce restrictions."
      },
      "updateFundsReceived()": {
        "notice": "Register a payment of funds in tokens. May be called directly after a deposit is made."
      },
      "withdrawFunds()": {
        "notice": "Withdraws all available funds for a token holder"
      },
      "withdrawableFundsOf(address)": {
        "notice": "prev. withdrawableDividendOfView the amount of funds that an address can withdraw."
      },
      "withdrawnFundsOf(address)": {
        "notice": "prev. withdrawnDividendOfView the amount of funds that an address has withdrawn."
      }
    },
    "version": 1
  },
  "storageLayout": {
    "storage": [
      {
        "astId": 14895,
        "contract": "contracts/FDT/VanillaFDT/ProxySafeVanillaFDT.sol:ProxySafeVanillaFDT",
        "label": "initialized",
        "offset": 0,
        "slot": "0",
        "type": "t_bool"
      },
      {
        "astId": 14898,
        "contract": "contracts/FDT/VanillaFDT/ProxySafeVanillaFDT.sol:ProxySafeVanillaFDT",
        "label": "initializing",
        "offset": 1,
        "slot": "0",
        "type": "t_bool"
      },
      {
        "astId": 14963,
        "contract": "contracts/FDT/VanillaFDT/ProxySafeVanillaFDT.sol:ProxySafeVanillaFDT",
        "label": "______gap",
        "offset": 0,
        "slot": "1",
        "type": "t_array(t_uint256)50_storage"
      },
      {
        "astId": 14888,
        "contract": "contracts/FDT/VanillaFDT/ProxySafeVanillaFDT.sol:ProxySafeVanillaFDT",
        "label": "__gap",
        "offset": 0,
        "slot": "51",
        "type": "t_array(t_uint256)50_storage"
      },
      {
        "astId": 15314,
        "contract": "contracts/FDT/VanillaFDT/ProxySafeVanillaFDT.sol:ProxySafeVanillaFDT",
        "label": "_balances",
        "offset": 0,
        "slot": "101",
        "type": "t_mapping(t_address,t_uint256)"
      },
      {
        "astId": 15320,
        "contract": "contracts/FDT/VanillaFDT/ProxySafeVanillaFDT.sol:ProxySafeVanillaFDT",
        "label": "_allowances",
        "offset": 0,
        "slot": "102",
        "type": "t_mapping(t_address,t_mapping(t_address,t_uint256))"
      },
      {
        "astId": 15322,
        "contract": "contracts/FDT/VanillaFDT/ProxySafeVanillaFDT.sol:ProxySafeVanillaFDT",
        "label": "_totalSupply",
        "offset": 0,
        "slot": "103",
        "type": "t_uint256"
      },
      {
        "astId": 15324,
        "contract": "contracts/FDT/VanillaFDT/ProxySafeVanillaFDT.sol:ProxySafeVanillaFDT",
        "label": "_name",
        "offset": 0,
        "slot": "104",
        "type": "t_string_storage"
      },
      {
        "astId": 15326,
        "contract": "contracts/FDT/VanillaFDT/ProxySafeVanillaFDT.sol:ProxySafeVanillaFDT",
        "label": "_symbol",
        "offset": 0,
        "slot": "105",
        "type": "t_string_storage"
      },
      {
        "astId": 15328,
        "contract": "contracts/FDT/VanillaFDT/ProxySafeVanillaFDT.sol:ProxySafeVanillaFDT",
        "label": "_decimals",
        "offset": 0,
        "slot": "106",
        "type": "t_uint8"
      },
      {
        "astId": 15823,
        "contract": "contracts/FDT/VanillaFDT/ProxySafeVanillaFDT.sol:ProxySafeVanillaFDT",
        "label": "__gap",
        "offset": 0,
        "slot": "107",
        "type": "t_array(t_uint256)44_storage"
      },
      {
        "astId": 35628,
        "contract": "contracts/FDT/VanillaFDT/ProxySafeVanillaFDT.sol:ProxySafeVanillaFDT",
        "label": "pointsPerShare",
        "offset": 0,
        "slot": "151",
        "type": "t_uint256"
      },
      {
        "astId": 35632,
        "contract": "contracts/FDT/VanillaFDT/ProxySafeVanillaFDT.sol:ProxySafeVanillaFDT",
        "label": "pointsCorrection",
        "offset": 0,
        "slot": "152",
        "type": "t_mapping(t_address,t_int256)"
      },
      {
        "astId": 35636,
        "contract": "contracts/FDT/VanillaFDT/ProxySafeVanillaFDT.sol:ProxySafeVanillaFDT",
        "label": "withdrawnFunds",
        "offset": 0,
        "slot": "153",
        "type": "t_mapping(t_address,t_uint256)"
      },
      {
        "astId": 14975,
        "contract": "contracts/FDT/VanillaFDT/ProxySafeVanillaFDT.sol:ProxySafeVanillaFDT",
        "label": "_owner",
        "offset": 0,
        "slot": "154",
        "type": "t_address"
      },
      {
        "astId": 15093,
        "contract": "contracts/FDT/VanillaFDT/ProxySafeVanillaFDT.sol:ProxySafeVanillaFDT",
        "label": "__gap",
        "offset": 0,
        "slot": "155",
        "type": "t_array(t_uint256)49_storage"
      },
      {
        "astId": 36782,
        "contract": "contracts/FDT/VanillaFDT/ProxySafeVanillaFDT.sol:ProxySafeVanillaFDT",
        "label": "fundsToken",
        "offset": 0,
        "slot": "204",
        "type": "t_contract(IERC20)15902"
      },
      {
        "astId": 36784,
        "contract": "contracts/FDT/VanillaFDT/ProxySafeVanillaFDT.sol:ProxySafeVanillaFDT",
        "label": "fundsTokenBalance",
        "offset": 0,
        "slot": "205",
        "type": "t_uint256"
      }
    ],
    "types": {
      "t_address": {
        "encoding": "inplace",
        "label": "address",
        "numberOfBytes": "20"
      },
      "t_array(t_uint256)44_storage": {
        "base": "t_uint256",
        "encoding": "inplace",
        "label": "uint256[44]",
        "numberOfBytes": "1408"
      },
      "t_array(t_uint256)49_storage": {
        "base": "t_uint256",
        "encoding": "inplace",
        "label": "uint256[49]",
        "numberOfBytes": "1568"
      },
      "t_array(t_uint256)50_storage": {
        "base": "t_uint256",
        "encoding": "inplace",
        "label": "uint256[50]",
        "numberOfBytes": "1600"
      },
      "t_bool": {
        "encoding": "inplace",
        "label": "bool",
        "numberOfBytes": "1"
      },
      "t_contract(IERC20)15902": {
        "encoding": "inplace",
        "label": "contract IERC20",
        "numberOfBytes": "20"
      },
      "t_int256": {
        "encoding": "inplace",
        "label": "int256",
        "numberOfBytes": "32"
      },
      "t_mapping(t_address,t_int256)": {
        "encoding": "mapping",
        "key": "t_address",
        "label": "mapping(address => int256)",
        "numberOfBytes": "32",
        "value": "t_int256"
      },
      "t_mapping(t_address,t_mapping(t_address,t_uint256))": {
        "encoding": "mapping",
        "key": "t_address",
        "label": "mapping(address => mapping(address => uint256))",
        "numberOfBytes": "32",
        "value": "t_mapping(t_address,t_uint256)"
      },
      "t_mapping(t_address,t_uint256)": {
        "encoding": "mapping",
        "key": "t_address",
        "label": "mapping(address => uint256)",
        "numberOfBytes": "32",
        "value": "t_uint256"
      },
      "t_string_storage": {
        "encoding": "bytes",
        "label": "string",
        "numberOfBytes": "32"
      },
      "t_uint256": {
        "encoding": "inplace",
        "label": "uint256",
        "numberOfBytes": "32"
      },
      "t_uint8": {
        "encoding": "inplace",
        "label": "uint8",
        "numberOfBytes": "1"
      }
    }
  },
  "gasEstimates": {
    "creation": {
      "codeDepositCost": "1639000",
      "executionCost": "1722",
      "totalCost": "1640722"
    },
    "external": {
      "accumulativeFundsOf(address)": "infinite",
      "allowance(address,address)": "1338",
      "approve(address,uint256)": "infinite",
      "balanceOf(address)": "1209",
      "burn(address,uint256)": "infinite",
      "decimals()": "1036",
      "decreaseAllowance(address,uint256)": "infinite",
      "fundsToken()": "1082",
      "fundsTokenBalance()": "1042",
      "increaseAllowance(address,uint256)": "infinite",
      "initialize(string,string,address,address,uint256)": "infinite",
      "mint(address,uint256)": "infinite",
      "name()": "infinite",
      "owner()": "1148",
      "pushFunds(address[])": "infinite",
      "renounceOwnership()": "infinite",
      "symbol()": "infinite",
      "totalSupply()": "1088",
      "transfer(address,uint256)": "infinite",
      "transferFrom(address,address,uint256)": "infinite",
      "transferOwnership(address)": "infinite",
      "updateFundsReceived()": "infinite",
      "withdrawFunds()": "infinite",
      "withdrawableFundsOf(address)": "infinite",
      "withdrawnFundsOf(address)": "1166"
    },
    "internal": {
      "_updateFundsTokenBalance()": "infinite",
      "_withdrawFundsFor(address)": "infinite"
    }
  }
}