{
  "_format": "hh-sol-artifact-1",
  "contractName": "OwnershipRegistry",
  "sourceName": "contracts/Core/Base/AssetRegistry/Ownership/OwnershipRegistry.sol",
  "abi": [
    {
      "anonymous": false,
      "inputs": [
        {
          "indexed": true,
          "internalType": "bytes32",
          "name": "assetId",
          "type": "bytes32"
        },
        {
          "indexed": true,
          "internalType": "address",
          "name": "account",
          "type": "address"
        },
        {
          "indexed": false,
          "internalType": "bytes4",
          "name": "methodSignature",
          "type": "bytes4"
        }
      ],
      "name": "GrantedAccess",
      "type": "event"
    },
    {
      "anonymous": false,
      "inputs": [
        {
          "indexed": true,
          "internalType": "bytes32",
          "name": "assetId",
          "type": "bytes32"
        },
        {
          "indexed": true,
          "internalType": "address",
          "name": "account",
          "type": "address"
        },
        {
          "indexed": false,
          "internalType": "bytes4",
          "name": "methodSignature",
          "type": "bytes4"
        }
      ],
      "name": "RevokedAccess",
      "type": "event"
    },
    {
      "anonymous": false,
      "inputs": [
        {
          "indexed": false,
          "internalType": "bytes32",
          "name": "assetId",
          "type": "bytes32"
        },
        {
          "indexed": false,
          "internalType": "address",
          "name": "prevBeneficiary",
          "type": "address"
        },
        {
          "indexed": false,
          "internalType": "address",
          "name": "newBeneficiary",
          "type": "address"
        }
      ],
      "name": "UpdatedBeneficiary",
      "type": "event"
    },
    {
      "anonymous": false,
      "inputs": [
        {
          "indexed": false,
          "internalType": "bytes32",
          "name": "assetId",
          "type": "bytes32"
        },
        {
          "indexed": false,
          "internalType": "address",
          "name": "prevObligor",
          "type": "address"
        },
        {
          "indexed": false,
          "internalType": "address",
          "name": "newObligor",
          "type": "address"
        }
      ],
      "name": "UpdatedObligor",
      "type": "event"
    },
    {
      "inputs": [
        {
          "internalType": "bytes32",
          "name": "assetId",
          "type": "bytes32"
        }
      ],
      "name": "getOwnership",
      "outputs": [
        {
          "components": [
            {
              "internalType": "address",
              "name": "creatorObligor",
              "type": "address"
            },
            {
              "internalType": "address",
              "name": "creatorBeneficiary",
              "type": "address"
            },
            {
              "internalType": "address",
              "name": "counterpartyObligor",
              "type": "address"
            },
            {
              "internalType": "address",
              "name": "counterpartyBeneficiary",
              "type": "address"
            }
          ],
          "internalType": "struct AssetOwnership",
          "name": "",
          "type": "tuple"
        }
      ],
      "stateMutability": "view",
      "type": "function"
    },
    {
      "inputs": [
        {
          "internalType": "bytes32",
          "name": "assetId",
          "type": "bytes32"
        },
        {
          "internalType": "bytes4",
          "name": "methodSignature",
          "type": "bytes4"
        },
        {
          "internalType": "address",
          "name": "account",
          "type": "address"
        }
      ],
      "name": "grantAccess",
      "outputs": [],
      "stateMutability": "nonpayable",
      "type": "function"
    },
    {
      "inputs": [
        {
          "internalType": "bytes32",
          "name": "assetId",
          "type": "bytes32"
        },
        {
          "internalType": "bytes4",
          "name": "methodSignature",
          "type": "bytes4"
        },
        {
          "internalType": "address",
          "name": "account",
          "type": "address"
        }
      ],
      "name": "hasAccess",
      "outputs": [
        {
          "internalType": "bool",
          "name": "",
          "type": "bool"
        }
      ],
      "stateMutability": "view",
      "type": "function"
    },
    {
      "inputs": [
        {
          "internalType": "bytes32",
          "name": "assetId",
          "type": "bytes32"
        },
        {
          "internalType": "address",
          "name": "account",
          "type": "address"
        }
      ],
      "name": "hasRootAccess",
      "outputs": [
        {
          "internalType": "bool",
          "name": "",
          "type": "bool"
        }
      ],
      "stateMutability": "view",
      "type": "function"
    },
    {
      "inputs": [
        {
          "internalType": "bytes32",
          "name": "assetId",
          "type": "bytes32"
        },
        {
          "internalType": "bytes4",
          "name": "methodSignature",
          "type": "bytes4"
        },
        {
          "internalType": "address",
          "name": "account",
          "type": "address"
        }
      ],
      "name": "revokeAccess",
      "outputs": [],
      "stateMutability": "nonpayable",
      "type": "function"
    },
    {
      "inputs": [
        {
          "internalType": "bytes32",
          "name": "assetId",
          "type": "bytes32"
        },
        {
          "internalType": "address",
          "name": "newCounterpartyBeneficiary",
          "type": "address"
        }
      ],
      "name": "setCounterpartyBeneficiary",
      "outputs": [],
      "stateMutability": "nonpayable",
      "type": "function"
    },
    {
      "inputs": [
        {
          "internalType": "bytes32",
          "name": "assetId",
          "type": "bytes32"
        },
        {
          "internalType": "address",
          "name": "newCounterpartyObligor",
          "type": "address"
        }
      ],
      "name": "setCounterpartyObligor",
      "outputs": [],
      "stateMutability": "nonpayable",
      "type": "function"
    },
    {
      "inputs": [
        {
          "internalType": "bytes32",
          "name": "assetId",
          "type": "bytes32"
        },
        {
          "internalType": "address",
          "name": "newCreatorBeneficiary",
          "type": "address"
        }
      ],
      "name": "setCreatorBeneficiary",
      "outputs": [],
      "stateMutability": "nonpayable",
      "type": "function"
    },
    {
      "inputs": [
        {
          "internalType": "bytes32",
          "name": "assetId",
          "type": "bytes32"
        },
        {
          "internalType": "address",
          "name": "newCreatorObligor",
          "type": "address"
        }
      ],
      "name": "setCreatorObligor",
      "outputs": [],
      "stateMutability": "nonpayable",
      "type": "function"
    }
  ],
  "bytecode": "0x608060405234801561001057600080fd5b50610ab2806100206000396000f3fe608060405234801561001057600080fd5b50600436106100935760003560e01c806339262e871161006657806339262e87146100fc5780636031a0941461010f578063bd1f0a6c14610122578063e50e0ef714610135578063e8f7ca3e1461015557610093565b80630d62037a146100985780631717e867146100ad5780631b126815146100c05780633549d08d146100e9575b600080fd5b6100ab6100a636600461071a565b610168565b005b6100ab6100bb366004610745565b610216565b6100d36100ce366004610745565b6102c9565b6040516100e0919061078e565b60405180910390f35b6100ab6100f736600461071a565b610340565b6100ab61010a366004610745565b61041b565b6100ab61011d36600461071a565b6104be565b6100ab61013036600461071a565b610599565b610148610143366004610702565b610631565b6040516100e09190610a41565b6100d361016336600461071a565b610690565b61017f826000356001600160e01b031916336102c9565b6101a45760405162461bcd60e51b815260040161019b906109ed565b60405180910390fd5b6000828152602081905260409081902060080180546001600160a01b038481166001600160a01b031983161790925591519116907fa7f38588f02421aa73988ed359aee27363c896e7cc3b6e634e4357f7ee408e259061020990859084908690610799565b60405180910390a1505050565b61022d836000356001600160e01b031916336102c9565b6102495760405162461bcd60e51b815260040161019b9061099e565b6000838152602081815260408083206001600160e01b031986168452600d0182528083206001600160a01b038516808552925291829020805460ff19166001179055905184907face25d271ad11ee299595b3021629bae0349e370d7c2eb7c2dced6e4edb47865906102bc9086906107b8565b60405180910390a3505050565b6000838152602081815260408083206001600160e01b031986168452600d0182528083206001600160a01b038516845290915281205460ff16806103385750600084815260208181526040808320838052600d0182528083206001600160a01b038616845290915290205460ff165b949350505050565b6000828152602081905260409020600b01546001600160a01b0316806103785760405162461bcd60e51b815260040161019b906107cd565b336001600160a01b03821614806103a157506103a1836000356001600160e01b031916336102c9565b6103bd5760405162461bcd60e51b815260040161019b9061082a565b60008381526020819052604090819020600b0180546001600160a01b0319166001600160a01b038516179055517f66808241563a07166fd47b523591fa432148706dc0ddd255d49b69e71f1721ce9061020990859084908690610799565b610432836000356001600160e01b031916336102c9565b61044e5760405162461bcd60e51b815260040161019b9061099e565b6000838152602081815260408083206001600160e01b031986168452600d0182528083206001600160a01b038516808552925291829020805460ff19169055905184907f42b1b0e7392ad606bb4f5b003296aba62f16e43aa9372f1f40c1522fa2655ffa906102bc9086906107b8565b6000828152602081905260409020600901546001600160a01b0316806104f65760405162461bcd60e51b815260040161019b90610941565b336001600160a01b038216148061051f575061051f836000356001600160e01b031916336102c9565b61053b5760405162461bcd60e51b815260040161019b906108e4565b6000838152602081905260409081902060090180546001600160a01b0319166001600160a01b038516179055517f66808241563a07166fd47b523591fa432148706dc0ddd255d49b69e71f1721ce9061020990859084908690610799565b6105b0826000356001600160e01b031916336102c9565b6105cc5760405162461bcd60e51b815260040161019b90610887565b60008281526020819052604090819020600a0180546001600160a01b038481166001600160a01b031983161790925591519116907fa7f38588f02421aa73988ed359aee27363c896e7cc3b6e634e4357f7ee408e259061020990859084908690610799565b6106396106c4565b5060008181526020818152604091829020825160808101845260088201546001600160a01b0390811682526009830154811693820193909352600a820154831693810193909352600b01541660608201525b919050565b600091825260208281526040808420848052600d0182528084206001600160a01b0393909316845291905290205460ff1690565b60408051608081018252600080825260208201819052918101829052606081019190915290565b80356001600160a01b038116811461068b57600080fd5b600060208284031215610713578081fd5b5035919050565b6000806040838503121561072c578081fd5b8235915061073c602084016106eb565b90509250929050565b600080600060608486031215610759578081fd5b8335925060208401356001600160e01b031981168114610777578182fd5b9150610785604085016106eb565b90509250925092565b901515815260200190565b9283526001600160a01b03918216602084015216604082015260600190565b6001600160e01b031991909116815260200190565b6020808252603e908201527f417373657452656769737472792e736574436f756e746572706172747942656e60408201527f65666963696172793a20454e5452595f444f45535f4e4f545f45584953540000606082015260800190565b6020808252603d908201527f417373657452656769737472792e736574436f756e746572706172747942656e60408201527f65666963696172793a20554e415554484f52495a45445f53454e444552000000606082015260800190565b60208082526039908201527f417373657452656769737472792e736574436f756e74657270617274794f626c60408201527f69676f723a20554e415554484f52495a45445f53454e44455200000000000000606082015260800190565b60208082526038908201527f417373657452656769737472792e73657443726561746f7242656e656669636960408201527f6172793a20554e415554484f52495a45445f53454e4445520000000000000000606082015260800190565b60208082526039908201527f417373657452656769737472792e73657443726561746f7242656e656669636960408201527f6172793a20454e5452595f444f45535f4e4f545f455849535400000000000000606082015260800190565b6020808252602f908201527f416363657373436f6e74726f6c2e7265766f6b654163636573733a20554e415560408201526e2a2427a924ad22a22fa9a2a72222a960891b606082015260800190565b60208082526034908201527f417373657452656769737472792e73657443726561746f724f626c69676f723a604082015273102aa720aaaa2427a924ad22a22fa9a2a72222a960611b606082015260800190565b81516001600160a01b03908116825260208084015182169083015260408084015182169083015260609283015116918101919091526080019056fea2646970667358221220a0d3198495576b469f5b8f0f76e3eec468e27b6ebe7e5807e6ddb12815b8007164736f6c63430007040033",
  "linkReferences": {},
  "deployedLinkReferences": {}
}