{
  "_format": "hh-sol-artifact-1",
  "contractName": "CMTA20FDT",
  "sourceName": "contracts/Extensions/FDT/CMTA20FDT/CMTA20FDT.sol",
  "abi": [
    {
      "inputs": [
        {
          "internalType": "string",
          "name": "name",
          "type": "string"
        },
        {
          "internalType": "string",
          "name": "symbol",
          "type": "string"
        },
        {
          "internalType": "contract IERC20",
          "name": "_fundsToken",
          "type": "address"
        },
        {
          "internalType": "address",
          "name": "owner",
          "type": "address"
        },
        {
          "internalType": "uint256",
          "name": "initialAmount",
          "type": "uint256"
        }
      ],
      "stateMutability": "nonpayable",
      "type": "constructor"
    },
    {
      "anonymous": false,
      "inputs": [
        {
          "indexed": true,
          "internalType": "address",
          "name": "owner",
          "type": "address"
        },
        {
          "indexed": true,
          "internalType": "address",
          "name": "spender",
          "type": "address"
        },
        {
          "indexed": false,
          "internalType": "uint256",
          "name": "value",
          "type": "uint256"
        }
      ],
      "name": "Approval",
      "type": "event"
    },
    {
      "anonymous": false,
      "inputs": [
        {
          "indexed": true,
          "internalType": "address",
          "name": "by",
          "type": "address"
        },
        {
          "indexed": false,
          "internalType": "uint256",
          "name": "fundsDistributed",
          "type": "uint256"
        }
      ],
      "name": "FundsDistributed",
      "type": "event"
    },
    {
      "anonymous": false,
      "inputs": [
        {
          "indexed": true,
          "internalType": "address",
          "name": "by",
          "type": "address"
        },
        {
          "indexed": false,
          "internalType": "uint256",
          "name": "fundsWithdrawn",
          "type": "uint256"
        }
      ],
      "name": "FundsWithdrawn",
      "type": "event"
    },
    {
      "anonymous": false,
      "inputs": [
        {
          "indexed": false,
          "internalType": "string",
          "name": "contact",
          "type": "string"
        }
      ],
      "name": "LogContactSet",
      "type": "event"
    },
    {
      "anonymous": false,
      "inputs": [
        {
          "indexed": false,
          "internalType": "address[]",
          "name": "shareholders",
          "type": "address[]"
        }
      ],
      "name": "LogDestroyed",
      "type": "event"
    },
    {
      "anonymous": false,
      "inputs": [
        {
          "indexed": false,
          "internalType": "uint256",
          "name": "value",
          "type": "uint256"
        }
      ],
      "name": "LogIssued",
      "type": "event"
    },
    {
      "anonymous": false,
      "inputs": [
        {
          "indexed": true,
          "internalType": "address",
          "name": "original",
          "type": "address"
        },
        {
          "indexed": true,
          "internalType": "address",
          "name": "replacement",
          "type": "address"
        },
        {
          "indexed": false,
          "internalType": "uint256",
          "name": "value",
          "type": "uint256"
        }
      ],
      "name": "LogReassigned",
      "type": "event"
    },
    {
      "anonymous": false,
      "inputs": [
        {
          "indexed": false,
          "internalType": "uint256",
          "name": "value",
          "type": "uint256"
        }
      ],
      "name": "LogRedeemed",
      "type": "event"
    },
    {
      "anonymous": false,
      "inputs": [
        {
          "indexed": true,
          "internalType": "address",
          "name": "newRuleEngine",
          "type": "address"
        }
      ],
      "name": "LogRuleEngineSet",
      "type": "event"
    },
    {
      "anonymous": false,
      "inputs": [
        {
          "indexed": true,
          "internalType": "address",
          "name": "previousOwner",
          "type": "address"
        },
        {
          "indexed": true,
          "internalType": "address",
          "name": "newOwner",
          "type": "address"
        }
      ],
      "name": "OwnershipTransferred",
      "type": "event"
    },
    {
      "anonymous": false,
      "inputs": [
        {
          "indexed": false,
          "internalType": "address",
          "name": "account",
          "type": "address"
        }
      ],
      "name": "Paused",
      "type": "event"
    },
    {
      "anonymous": false,
      "inputs": [
        {
          "indexed": true,
          "internalType": "address",
          "name": "from",
          "type": "address"
        },
        {
          "indexed": true,
          "internalType": "address",
          "name": "to",
          "type": "address"
        },
        {
          "indexed": false,
          "internalType": "uint256",
          "name": "value",
          "type": "uint256"
        }
      ],
      "name": "Transfer",
      "type": "event"
    },
    {
      "anonymous": false,
      "inputs": [
        {
          "indexed": false,
          "internalType": "address",
          "name": "account",
          "type": "address"
        }
      ],
      "name": "Unpaused",
      "type": "event"
    },
    {
      "inputs": [
        {
          "internalType": "address",
          "name": "_owner",
          "type": "address"
        }
      ],
      "name": "accumulativeFundsOf",
      "outputs": [
        {
          "internalType": "uint256",
          "name": "",
          "type": "uint256"
        }
      ],
      "stateMutability": "view",
      "type": "function"
    },
    {
      "inputs": [
        {
          "internalType": "address",
          "name": "owner",
          "type": "address"
        },
        {
          "internalType": "address",
          "name": "spender",
          "type": "address"
        }
      ],
      "name": "allowance",
      "outputs": [
        {
          "internalType": "uint256",
          "name": "",
          "type": "uint256"
        }
      ],
      "stateMutability": "view",
      "type": "function"
    },
    {
      "inputs": [
        {
          "internalType": "address",
          "name": "_spender",
          "type": "address"
        },
        {
          "internalType": "uint256",
          "name": "_value",
          "type": "uint256"
        }
      ],
      "name": "approve",
      "outputs": [
        {
          "internalType": "bool",
          "name": "",
          "type": "bool"
        }
      ],
      "stateMutability": "nonpayable",
      "type": "function"
    },
    {
      "inputs": [
        {
          "internalType": "address",
          "name": "account",
          "type": "address"
        }
      ],
      "name": "balanceOf",
      "outputs": [
        {
          "internalType": "uint256",
          "name": "",
          "type": "uint256"
        }
      ],
      "stateMutability": "view",
      "type": "function"
    },
    {
      "inputs": [
        {
          "internalType": "address",
          "name": "account",
          "type": "address"
        },
        {
          "internalType": "uint256",
          "name": "amount",
          "type": "uint256"
        }
      ],
      "name": "burn",
      "outputs": [
        {
          "internalType": "bool",
          "name": "",
          "type": "bool"
        }
      ],
      "stateMutability": "nonpayable",
      "type": "function"
    },
    {
      "inputs": [
        {
          "internalType": "address",
          "name": "_from",
          "type": "address"
        },
        {
          "internalType": "address",
          "name": "_to",
          "type": "address"
        },
        {
          "internalType": "uint256",
          "name": "_value",
          "type": "uint256"
        }
      ],
      "name": "canTransfer",
      "outputs": [
        {
          "internalType": "bool",
          "name": "",
          "type": "bool"
        }
      ],
      "stateMutability": "view",
      "type": "function"
    },
    {
      "inputs": [],
      "name": "contact",
      "outputs": [
        {
          "internalType": "string",
          "name": "",
          "type": "string"
        }
      ],
      "stateMutability": "view",
      "type": "function"
    },
    {
      "inputs": [],
      "name": "decimals",
      "outputs": [
        {
          "internalType": "uint8",
          "name": "",
          "type": "uint8"
        }
      ],
      "stateMutability": "view",
      "type": "function"
    },
    {
      "inputs": [
        {
          "internalType": "address",
          "name": "_spender",
          "type": "address"
        },
        {
          "internalType": "uint256",
          "name": "_subtractedValue",
          "type": "uint256"
        }
      ],
      "name": "decreaseAllowance",
      "outputs": [
        {
          "internalType": "bool",
          "name": "",
          "type": "bool"
        }
      ],
      "stateMutability": "nonpayable",
      "type": "function"
    },
    {
      "inputs": [
        {
          "internalType": "address[]",
          "name": "shareholders",
          "type": "address[]"
        }
      ],
      "name": "destroy",
      "outputs": [],
      "stateMutability": "nonpayable",
      "type": "function"
    },
    {
      "inputs": [
        {
          "internalType": "address",
          "name": "_from",
          "type": "address"
        },
        {
          "internalType": "address",
          "name": "_to",
          "type": "address"
        },
        {
          "internalType": "uint256",
          "name": "_value",
          "type": "uint256"
        }
      ],
      "name": "detectTransferRestriction",
      "outputs": [
        {
          "internalType": "uint8",
          "name": "",
          "type": "uint8"
        }
      ],
      "stateMutability": "view",
      "type": "function"
    },
    {
      "inputs": [],
      "name": "fundsToken",
      "outputs": [
        {
          "internalType": "contract IERC20",
          "name": "",
          "type": "address"
        }
      ],
      "stateMutability": "view",
      "type": "function"
    },
    {
      "inputs": [],
      "name": "fundsTokenBalance",
      "outputs": [
        {
          "internalType": "uint256",
          "name": "",
          "type": "uint256"
        }
      ],
      "stateMutability": "view",
      "type": "function"
    },
    {
      "inputs": [
        {
          "internalType": "address",
          "name": "shareholder",
          "type": "address"
        }
      ],
      "name": "identity",
      "outputs": [
        {
          "internalType": "bytes",
          "name": "",
          "type": "bytes"
        }
      ],
      "stateMutability": "view",
      "type": "function"
    },
    {
      "inputs": [
        {
          "internalType": "address",
          "name": "_spender",
          "type": "address"
        },
        {
          "internalType": "uint256",
          "name": "_addedValue",
          "type": "uint256"
        }
      ],
      "name": "increaseAllowance",
      "outputs": [
        {
          "internalType": "bool",
          "name": "",
          "type": "bool"
        }
      ],
      "stateMutability": "nonpayable",
      "type": "function"
    },
    {
      "inputs": [
        {
          "internalType": "uint256",
          "name": "_value",
          "type": "uint256"
        }
      ],
      "name": "issue",
      "outputs": [],
      "stateMutability": "nonpayable",
      "type": "function"
    },
    {
      "inputs": [
        {
          "internalType": "uint8",
          "name": "_restrictionCode",
          "type": "uint8"
        }
      ],
      "name": "messageForTransferRestriction",
      "outputs": [
        {
          "internalType": "string",
          "name": "",
          "type": "string"
        }
      ],
      "stateMutability": "view",
      "type": "function"
    },
    {
      "inputs": [
        {
          "internalType": "address",
          "name": "account",
          "type": "address"
        },
        {
          "internalType": "uint256",
          "name": "amount",
          "type": "uint256"
        }
      ],
      "name": "mint",
      "outputs": [
        {
          "internalType": "bool",
          "name": "",
          "type": "bool"
        }
      ],
      "stateMutability": "nonpayable",
      "type": "function"
    },
    {
      "inputs": [],
      "name": "name",
      "outputs": [
        {
          "internalType": "string",
          "name": "",
          "type": "string"
        }
      ],
      "stateMutability": "view",
      "type": "function"
    },
    {
      "inputs": [],
      "name": "owner",
      "outputs": [
        {
          "internalType": "address",
          "name": "",
          "type": "address"
        }
      ],
      "stateMutability": "view",
      "type": "function"
    },
    {
      "inputs": [],
      "name": "pause",
      "outputs": [],
      "stateMutability": "nonpayable",
      "type": "function"
    },
    {
      "inputs": [],
      "name": "paused",
      "outputs": [
        {
          "internalType": "bool",
          "name": "",
          "type": "bool"
        }
      ],
      "stateMutability": "view",
      "type": "function"
    },
    {
      "inputs": [
        {
          "internalType": "address[]",
          "name": "owners",
          "type": "address[]"
        }
      ],
      "name": "pushFunds",
      "outputs": [],
      "stateMutability": "nonpayable",
      "type": "function"
    },
    {
      "inputs": [
        {
          "internalType": "address",
          "name": "original",
          "type": "address"
        },
        {
          "internalType": "address",
          "name": "replacement",
          "type": "address"
        }
      ],
      "name": "reassign",
      "outputs": [],
      "stateMutability": "nonpayable",
      "type": "function"
    },
    {
      "inputs": [
        {
          "internalType": "uint256",
          "name": "_value",
          "type": "uint256"
        }
      ],
      "name": "redeem",
      "outputs": [],
      "stateMutability": "nonpayable",
      "type": "function"
    },
    {
      "inputs": [],
      "name": "renounceOwnership",
      "outputs": [],
      "stateMutability": "nonpayable",
      "type": "function"
    },
    {
      "inputs": [],
      "name": "ruleEngine",
      "outputs": [
        {
          "internalType": "contract IRuleEngine",
          "name": "",
          "type": "address"
        }
      ],
      "stateMutability": "view",
      "type": "function"
    },
    {
      "inputs": [
        {
          "internalType": "string",
          "name": "_contact",
          "type": "string"
        }
      ],
      "name": "setContact",
      "outputs": [],
      "stateMutability": "nonpayable",
      "type": "function"
    },
    {
      "inputs": [
        {
          "internalType": "bytes",
          "name": "_identity",
          "type": "bytes"
        }
      ],
      "name": "setMyIdentity",
      "outputs": [],
      "stateMutability": "nonpayable",
      "type": "function"
    },
    {
      "inputs": [
        {
          "internalType": "contract IRuleEngine",
          "name": "_ruleEngine",
          "type": "address"
        }
      ],
      "name": "setRuleEngine",
      "outputs": [],
      "stateMutability": "nonpayable",
      "type": "function"
    },
    {
      "inputs": [],
      "name": "symbol",
      "outputs": [
        {
          "internalType": "string",
          "name": "",
          "type": "string"
        }
      ],
      "stateMutability": "view",
      "type": "function"
    },
    {
      "inputs": [],
      "name": "totalSupply",
      "outputs": [
        {
          "internalType": "uint256",
          "name": "",
          "type": "uint256"
        }
      ],
      "stateMutability": "view",
      "type": "function"
    },
    {
      "inputs": [
        {
          "internalType": "address",
          "name": "to",
          "type": "address"
        },
        {
          "internalType": "uint256",
          "name": "value",
          "type": "uint256"
        }
      ],
      "name": "transfer",
      "outputs": [
        {
          "internalType": "bool",
          "name": "",
          "type": "bool"
        }
      ],
      "stateMutability": "nonpayable",
      "type": "function"
    },
    {
      "inputs": [
        {
          "internalType": "address",
          "name": "from",
          "type": "address"
        },
        {
          "internalType": "address",
          "name": "to",
          "type": "address"
        },
        {
          "internalType": "uint256",
          "name": "value",
          "type": "uint256"
        }
      ],
      "name": "transferFrom",
      "outputs": [
        {
          "internalType": "bool",
          "name": "",
          "type": "bool"
        }
      ],
      "stateMutability": "nonpayable",
      "type": "function"
    },
    {
      "inputs": [
        {
          "internalType": "address",
          "name": "newOwner",
          "type": "address"
        }
      ],
      "name": "transferOwnership",
      "outputs": [],
      "stateMutability": "nonpayable",
      "type": "function"
    },
    {
      "inputs": [],
      "name": "unpause",
      "outputs": [],
      "stateMutability": "nonpayable",
      "type": "function"
    },
    {
      "inputs": [],
      "name": "updateFundsReceived",
      "outputs": [],
      "stateMutability": "nonpayable",
      "type": "function"
    },
    {
      "inputs": [],
      "name": "withdrawFunds",
      "outputs": [],
      "stateMutability": "nonpayable",
      "type": "function"
    },
    {
      "inputs": [
        {
          "internalType": "address",
          "name": "_owner",
          "type": "address"
        }
      ],
      "name": "withdrawableFundsOf",
      "outputs": [
        {
          "internalType": "uint256",
          "name": "",
          "type": "uint256"
        }
      ],
      "stateMutability": "view",
      "type": "function"
    },
    {
      "inputs": [
        {
          "internalType": "address",
          "name": "_owner",
          "type": "address"
        }
      ],
      "name": "withdrawnFundsOf",
      "outputs": [
        {
          "internalType": "uint256",
          "name": "",
          "type": "uint256"
        }
      ],
      "stateMutability": "view",
      "type": "function"
    }
  ],
  "bytecode": "0x60806040523480156200001157600080fd5b5060405162003a2038038062003a20833981810160405260a08110156200003757600080fd5b81019080805160405193929190846401000000008211156200005857600080fd5b9083019060208201858111156200006e57600080fd5b82516401000000008111828201881017156200008957600080fd5b82525081516020918201929091019080838360005b83811015620000b85781810151838201526020016200009e565b50505050905090810190601f168015620000e65780820380516001836020036101000a031916815260200191505b50604052602001805160405193929190846401000000008211156200010a57600080fd5b9083019060208201858111156200012057600080fd5b82516401000000008111828201881017156200013b57600080fd5b82525081516020918201929091019080838360005b838110156200016a57818101518382015260200162000150565b50505050905090810190601f168015620001985780820380516001836020036101000a031916815260200191505b5060409081526020828101519183015160609093015187519295509293508691869183918391620001cf91600391850190620006c0565b508051620001e5906004906020840190620006c0565b50506005805460ff191660121790555060009150620002059050620002d3565b600980546001600160a01b0319166001600160a01b03831690811790915560405191925090600090600080516020620039dc833981519152908290a3506009805460ff60a01b191690556001600160a01b038316620002965760405162461bcd60e51b81526004018080602001828103825260268152602001806200396f6026913960400191505060405180910390fd5b600a80546001600160a01b0319166001600160a01b038516179055620002bc82620002d7565b620002c88282620003d6565b50505050506200076c565b3390565b620002e1620002d3565b6009546001600160a01b0390811691161462000344576040805162461bcd60e51b815260206004820181905260248201527f4f776e61626c653a2063616c6c6572206973206e6f7420746865206f776e6572604482015290519081900360640190fd5b6001600160a01b0381166200038b5760405162461bcd60e51b8152600401808060200182810382526026815260200180620039956026913960400191505060405180910390fd5b6009546040516001600160a01b03808416921690600080516020620039dc83398151915290600090a3600980546001600160a01b0319166001600160a01b0392909216919091179055565b620003ed82826200046f60201b6200216c1760201c565b6200044f6200042262000411836006546200057e60201b6200224a1790919060201c565b620005e560201b620022a31760201c565b6001600160a01b0384166000908152600760209081526040909120549190620022b3620005f6821b17901c565b6001600160a01b0390921660009081526007602052604090209190915550565b6001600160a01b038216620004cb576040805162461bcd60e51b815260206004820152601f60248201527f45524332303a206d696e7420746f20746865207a65726f206164647265737300604482015290519081900360640190fd5b620004d96000838362000660565b620004f5816002546200066560201b620023181790919060201c565b6002556001600160a01b03821660009081526020818152604090912054620005289183906200231862000665821b17901c565b6001600160a01b0383166000818152602081815260408083209490945583518581529351929391927fddf252ad1be2c89b69c2b068fc378daa952ba7f163c4a11628f55a4df523b3ef9281900390910190a35050565b6000826200058f57506000620005df565b828202828482816200059d57fe5b0414620005dc5760405162461bcd60e51b8152600401808060200182810382526021815260200180620039bb6021913960400191505060405180910390fd5b90505b92915050565b60008181811215620005df57600080fd5b60008183038183128015906200060c5750838113155b806200062357506000831280156200062357508381135b620005dc5760405162461bcd60e51b8152600401808060200182810382526024815260200180620039fc6024913960400191505060405180910390fd5b505050565b600082820183811015620005dc576040805162461bcd60e51b815260206004820152601b60248201527f536166654d6174683a206164646974696f6e206f766572666c6f770000000000604482015290519081900360640190fd5b828054600181600116156101000203166002900490600052602060002090601f016020900481019282620006f8576000855562000743565b82601f106200071357805160ff191683800117855562000743565b8280016001018555821562000743579182015b828111156200074357825182559160200191906001019062000726565b506200075192915062000755565b5090565b5b8082111562000751576000815560010162000756565b6131f3806200077c6000396000f3fe608060405234801561001057600080fd5b50600436106102475760003560e01c8063715018a61161013b578063a9691f3f116100b8578063dd62ed3e1161007c578063dd62ed3e14610830578063e46638e61461085e578063f0eb5e5414610894578063f2fde38b146108ba578063fcf196b4146108e057610247565b8063a9691f3f1461074a578063c6786e5a14610752578063cc872b66146107c0578063d4ce1415146107dd578063db006a751461081357610247565b806395d89b41116100ff57806395d89b41146106985780639dc29fac146106a0578063a457c2d7146106cc578063a4a0a301146106f8578063a9059cbb1461071e57610247565b8063715018a6146105f25780637f4ab1dd146105fa5780638140d0dc1461061a5780638456cb59146106885780638da5cb5b1461069057610247565b806340c10f19116101c95780635c975abb1161018d5780635c975abb146105045780635fff8cd31461050c578063630e327d1461053a57806363f04b15146105a857806370a08231146105cc57610247565b806340c10f19146103e3578063443bb2931461040f57806345f634f21461043557806346c162de146104d65780634e97415f146104de57610247565b806324600fc31161021057806324600fc31461037f578063313ce5671461038957806333a8c45a146103a757806339509351146103af5780633f4ba83a146103db57610247565b806241c52c1461024c57806306fdde0314610284578063095ea7b31461030157806318160ddd1461034157806323b872dd14610349575b600080fd5b6102726004803603602081101561026257600080fd5b50356001600160a01b03166108e8565b60408051918252519081900360200190f35b61028c610907565b6040805160208082528351818301528351919283929083019185019080838360005b838110156102c65781810151838201526020016102ae565b50505050905090810190601f1680156102f35780820380516001836020036101000a031916815260200191505b509250505060405180910390f35b61032d6004803603604081101561031757600080fd5b506001600160a01b03813516906020013561099d565b604080519115158252519081900360200190f35b610272610a00565b61032d6004803603606081101561035f57600080fd5b506001600160a01b03813581169160208101359091169060400135610a06565b610387610b3e565b005b610391610b96565b6040805160ff9092168252519081900360200190f35b61028c610b9f565b61032d600480360360408110156103c557600080fd5b506001600160a01b038135169060200135610c2d565b610387610c87565b61032d600480360360408110156103f957600080fd5b506001600160a01b038135169060200135610d3c565b6102726004803603602081101561042557600080fd5b50356001600160a01b0316610df7565b6103876004803603602081101561044b57600080fd5b810190602081018135600160201b81111561046557600080fd5b82018360208201111561047757600080fd5b803590602001918460208302840111600160201b8311171561049857600080fd5b919080806020026020016040519081016040528093929190818152602001838360200280828437600092019190915250929550610e23945050505050565b610387610ea4565b610272600480360360208110156104f457600080fd5b50356001600160a01b0316610f1a565b61032d610f77565b6103876004803603604081101561052257600080fd5b506001600160a01b0381358116916020013516610f87565b6103876004803603602081101561055057600080fd5b810190602081018135600160201b81111561056a57600080fd5b82018360208201111561057c57600080fd5b803590602001918460018302840111600160201b8311171561059d57600080fd5b5090925090506111e9565b6105b0611208565b604080516001600160a01b039092168252519081900360200190f35b610272600480360360208110156105e257600080fd5b50356001600160a01b0316611217565b610387611232565b61028c6004803603602081101561061057600080fd5b503560ff166112d4565b6103876004803603602081101561063057600080fd5b810190602081018135600160201b81111561064a57600080fd5b82018360208201111561065c57600080fd5b803590602001918460018302840111600160201b8311171561067d57600080fd5b5090925090506114ce565b610387611597565b6105b0611644565b61028c611653565b61032d600480360360408110156106b657600080fd5b506001600160a01b0381351690602001356116b4565b61032d600480360360408110156106e257600080fd5b506001600160a01b038135169060200135611766565b6103876004803603602081101561070e57600080fd5b50356001600160a01b03166117c0565b61032d6004803603604081101561073457600080fd5b506001600160a01b038135169060200135611862565b610272611994565b6103876004803603602081101561076857600080fd5b810190602081018135600160201b81111561078257600080fd5b82018360208201111561079457600080fd5b803590602001918460208302840111600160201b831117156107b557600080fd5b50909250905061199a565b610387600480360360208110156107d657600080fd5b5035611bf4565b610391600480360360608110156107f357600080fd5b506001600160a01b03813581169160208101359091169060400135611d1b565b6103876004803603602081101561082957600080fd5b5035611ddc565b6102726004803603604081101561084657600080fd5b506001600160a01b0381358116916020013516611f00565b61032d6004803603606081101561087457600080fd5b506001600160a01b03813581169160208101359091169060400135611f2b565b61028c600480360360208110156108aa57600080fd5b50356001600160a01b0316611fb9565b610387600480360360208110156108d057600080fd5b50356001600160a01b0316612064565b6105b061215d565b6001600160a01b0381166000908152600860205260409020545b919050565b60038054604080516020601f60026000196101006001881615020190951694909404938401819004810282018101909252828152606093909290918301828280156109935780601f1061096857610100808354040283529160200191610993565b820191906000526020600020905b81548152906001019060200180831161097657829003601f168201915b5050505050905090565b600954600090600160a01b900460ff16156109ed576040805162461bcd60e51b815260206004820152601060248201526000805160206130c8833981519152604482015290519081900360640190fd5b6109f78383612372565b90505b92915050565b60025490565b600954600090600160a01b900460ff1615610a56576040805162461bcd60e51b815260206004820152601060248201526000805160206130c8833981519152604482015290519081900360640190fd5b600e546001600160a01b031615610b2957600e546040805163634a350960e11b81526001600160a01b0387811660048301528681166024830152604482018690529151919092169163c6946a12916064808301926020929190829003018186803b158015610ac357600080fd5b505afa158015610ad7573d6000803e3d6000fd5b505050506040513d6020811015610aed57600080fd5b5051610b29576040805162461bcd60e51b8152602060048083019190915260248201526310d34c0d60e21b604482015290519081900360640190fd5b610b34848484612386565b90505b9392505050565b600954600160a01b900460ff1615610b8b576040805162461bcd60e51b815260206004820152601060248201526000805160206130c8833981519152604482015290519081900360640190fd5b610b9433612403565b565b60055460ff1690565b600c805460408051602060026001851615610100026000190190941693909304601f81018490048402820184019092528181529291830182828015610c255780601f10610bfa57610100808354040283529160200191610c25565b820191906000526020600020905b815481529060010190602001808311610c0857829003601f168201915b505050505081565b600954600090600160a01b900460ff1615610c7d576040805162461bcd60e51b815260206004820152601060248201526000805160206130c8833981519152604482015290519081900360640190fd5b6109f783836124d5565b600954600160a01b900460ff16610cdc576040805162461bcd60e51b815260206004820152601460248201527314185d5cd8589b194e881b9bdd081c185d5cd95960621b604482015290519081900360640190fd5b610ce4612523565b6009546001600160a01b03908116911614610d34576040805162461bcd60e51b81526020600482018190526024820152600080516020613042833981519152604482015290519081900360640190fd5b610b94612527565b600954600090600160a01b900460ff1615610d8c576040805162461bcd60e51b815260206004820152601060248201526000805160206130c8833981519152604482015290519081900360640190fd5b610d94612523565b6009546001600160a01b03908116911614610de4576040805162461bcd60e51b81526020600482018190526024820152600080516020613042833981519152604482015290519081900360640190fd5b610dee83836125cf565b50600192915050565b6001600160a01b0381166000908152600860205260408120546109fa90610e1d84610f1a565b90612633565b600954600160a01b900460ff1615610e70576040805162461bcd60e51b815260206004820152601060248201526000805160206130c8833981519152604482015290519081900360640190fd5b60005b8151811015610ea057610e98828281518110610e8b57fe5b6020026020010151612403565b600101610e73565b5050565b600954600160a01b900460ff1615610ef1576040805162461bcd60e51b815260206004820152601060248201526000805160206130c8833981519152604482015290519081900360640190fd5b6000610efb612675565b90506000811315610f1757610f17610f1282612705565b612718565b50565b6001600160a01b038116600090815260076020526040812054600160801b90610f6990610f6490610f5e610f59610f5088611217565b6006549061224a565b6122a3565b906127cb565b612705565b81610f7057fe5b0492915050565b600954600160a01b900460ff1690565b610f8f612523565b6009546001600160a01b03908116911614610fdf576040805162461bcd60e51b81526020600482018190526024820152600080516020613042833981519152604482015290519081900360640190fd5b600954600160a01b900460ff161561102c576040805162461bcd60e51b815260206004820152601060248201526000805160206130c8833981519152604482015290519081900360640190fd5b6001600160a01b038216611070576040805162461bcd60e51b81526020600480830191909152602482015263434d303160e01b604482015290519081900360640190fd5b6001600160a01b0381166110b4576040805162461bcd60e51b8152602060048083019190915260248201526321a6981960e11b604482015290519081900360640190fd5b806001600160a01b0316826001600160a01b03161415611104576040805162461bcd60e51b81526020600480830191909152602482015263434d303360e01b604482015290519081900360640190fd5b600061110f83611217565b90508061114c576040805162461bcd60e51b81526020600480830191909152602482015263434d303560e01b604482015290519081900360640190fd5b6111568382612830565b61116082826125cf565b816001600160a01b0316836001600160a01b03167f9b50bb42c2f723a111ed2b4a02d7963b78fcef409123755e32db36acf004c721836040518082815260200191505060405180910390a3816001600160a01b0316836001600160a01b0316600080516020613062833981519152836040518082815260200191505060405180910390a3505050565b336000908152600d60205260409020611203908383612e55565b505050565b600a546001600160a01b031681565b6001600160a01b031660009081526020819052604090205490565b61123a612523565b6009546001600160a01b0390811691161461128a576040805162461bcd60e51b81526020600482018190526024820152600080516020613042833981519152604482015290519081900360640190fd5b6009546040516000916001600160a01b0316907f8be0079c531659141344cd1fd0a4f28419497f9722a3daafe3b4186f6b6457e0908390a3600980546001600160a01b0319169055565b606060ff8216611309575060408051808201909152600e81526d2737903932b9ba3934b1ba34b7b760911b6020820152610902565b60ff8216600114156113465750604080518082019091526014815273105b1b081d1c985b9cd9995c9cc81c185d5cd95960621b6020820152610902565b600e546001600160a01b03161561149757600e5460408051637f4ab1dd60e01b815260ff8516600482015290516001600160a01b0390921691637f4ab1dd91602480820192600092909190829003018186803b1580156113a557600080fd5b505afa1580156113b9573d6000803e3d6000fd5b505050506040513d6000823e601f3d908101601f1916820160405260208110156113e257600080fd5b8101908080516040519392919084600160201b82111561140157600080fd5b90830190602082018581111561141657600080fd5b8251600160201b81118282018810171561142f57600080fd5b82525081516020918201929091019080838360005b8381101561145c578181015183820152602001611444565b50505050905090810190601f1680156114895780820380516001836020036101000a031916815260200191505b506040525050509050610902565b60405162461bcd60e51b81526004018080602001828103825260418152602001806130e86041913960600191505060405180910390fd5b6114d6612523565b6009546001600160a01b03908116911614611526576040805162461bcd60e51b81526020600482018190526024820152600080516020613042833981519152604482015290519081900360640190fd5b611532600c8383612e55565b507f188bad42ea723dd12513086ade62bd9d922818bd71ec4761f9b66c171c17dd0d828260405180806020018281038252848482818152602001925080828437600083820152604051601f909101601f19169092018290039550909350505050a15050565b600954600160a01b900460ff16156115e4576040805162461bcd60e51b815260206004820152601060248201526000805160206130c8833981519152604482015290519081900360640190fd5b6115ec612523565b6009546001600160a01b0390811691161461163c576040805162461bcd60e51b81526020600482018190526024820152600080516020613042833981519152604482015290519081900360640190fd5b610b94612874565b6009546001600160a01b031690565b60048054604080516020601f60026000196101006001881615020190951694909404938401819004810282018101909252828152606093909290918301828280156109935780601f1061096857610100808354040283529160200191610993565b600954600090600160a01b900460ff1615611704576040805162461bcd60e51b815260206004820152601060248201526000805160206130c8833981519152604482015290519081900360640190fd5b61170c612523565b6009546001600160a01b0390811691161461175c576040805162461bcd60e51b81526020600482018190526024820152600080516020613042833981519152604482015290519081900360640190fd5b610dee8383612830565b600954600090600160a01b900460ff16156117b6576040805162461bcd60e51b815260206004820152601060248201526000805160206130c8833981519152604482015290519081900360640190fd5b6109f783836128fd565b6117c8612523565b6009546001600160a01b03908116911614611818576040805162461bcd60e51b81526020600482018190526024820152600080516020613042833981519152604482015290519081900360640190fd5b600e80546001600160a01b0319166001600160a01b0383169081179091556040517fc821fee57f621fad293a6960b94de2653a70bcc62506ea4f85149777b45901fe90600090a250565b600954600090600160a01b900460ff16156118b2576040805162461bcd60e51b815260206004820152601060248201526000805160206130c8833981519152604482015290519081900360640190fd5b600e546001600160a01b03161561198357600e546040805163634a350960e11b81523360048201526001600160a01b038681166024830152604482018690529151919092169163c6946a12916064808301926020929190829003018186803b15801561191d57600080fd5b505afa158015611931573d6000803e3d6000fd5b505050506040513d602081101561194757600080fd5b5051611983576040805162461bcd60e51b8152602060048083019190915260248201526310d34c0d60e21b604482015290519081900360640190fd5b61198d8383612965565b90506109fa565b600b5481565b600954600160a01b900460ff16156119e7576040805162461bcd60e51b815260206004820152601060248201526000805160206130c8833981519152604482015290519081900360640190fd5b6119ef612523565b6009546001600160a01b03908116911614611a3f576040805162461bcd60e51b81526020600482018190526024820152600080516020613042833981519152604482015290519081900360640190fd5b60005b81811015611b8c57611a52611644565b6001600160a01b0316838383818110611a6757fe5b905060200201356001600160a01b03166001600160a01b03161415611abc576040805162461bcd60e51b8152602060048083019190915260248201526321a6981b60e11b604482015290519081900360640190fd5b6000611ae2848484818110611acd57fe5b905060200201356001600160a01b0316611217565b9050611b17848484818110611af357fe5b905060200201356001600160a01b0316611b12868686818110611acd57fe5b612830565b611b28611b22611644565b826125cf565b611b30611644565b6001600160a01b0316848484818110611b4557fe5b905060200201356001600160a01b03166001600160a01b0316600080516020613062833981519152836040518082815260200191505060405180910390a350600101611a42565b507fef8a7d1d9ed56b75ba2d074c0443d09a07e60674f3f6d4e992e9bda38efe5880828260405180806020018281038252848482818152602001925060200280828437600083820152604051601f909101601f19169092018290039550909350505050a15050565b600954600160a01b900460ff1615611c41576040805162461bcd60e51b815260206004820152601060248201526000805160206130c8833981519152604482015290519081900360640190fd5b611c49612523565b6009546001600160a01b03908116911614611c99576040805162461bcd60e51b81526020600482018190526024820152600080516020613042833981519152604482015290519081900360640190fd5b611ca4611b22611644565b611cac611644565b6001600160a01b031660006001600160a01b0316600080516020613062833981519152836040518082815260200191505060405180910390a36040805182815290517f5aa5d4dbb3bdc35fe42446ba12fc59cdd56ee008d5a8159ba5e5fb5834734f629181900360200190a150565b6000611d25610f77565b15611d3257506001610b37565b600e546001600160a01b031615611dd257600e546040805163d4ce141560e01b81526001600160a01b0387811660048301528681166024830152604482018690529151919092169163d4ce1415916064808301926020929190829003018186803b158015611d9f57600080fd5b505afa158015611db3573d6000803e3d6000fd5b505050506040513d6020811015611dc957600080fd5b50519050610b37565b5060009392505050565b600954600160a01b900460ff1615611e29576040805162461bcd60e51b815260206004820152601060248201526000805160206130c8833981519152604482015290519081900360640190fd5b611e31612523565b6009546001600160a01b03908116911614611e81576040805162461bcd60e51b81526020600482018190526024820152600080516020613042833981519152604482015290519081900360640190fd5b611e92611e8c611644565b82612830565b6000611e9c611644565b6001600160a01b0316600080516020613062833981519152836040518082815260200191505060405180910390a36040805182815290517fe3dd692f7e5c129a26d85142bf6118f2ecf7722a79a4507ac05ad7bb7aaab1529181900360200190a150565b6001600160a01b03918216600090815260016020908152604080832093909416825291909152205490565b6000611f35610f77565b15611f4257506000610b37565b600e546001600160a01b031615611faf57600e546040805163634a350960e11b81526001600160a01b0387811660048301528681166024830152604482018690529151919092169163c6946a12916064808301926020929190829003018186803b158015611d9f57600080fd5b5060019392505050565b6001600160a01b0381166000908152600d602090815260409182902080548351601f60026000196101006001861615020190931692909204918201849004840281018401909452808452606093928301828280156120585780601f1061202d57610100808354040283529160200191612058565b820191906000526020600020905b81548152906001019060200180831161203b57829003601f168201915b50505050509050919050565b61206c612523565b6009546001600160a01b039081169116146120bc576040805162461bcd60e51b81526020600482018190526024820152600080516020613042833981519152604482015290519081900360640190fd5b6001600160a01b0381166121015760405162461bcd60e51b8152600401808060200182810382526026815260200180612f336026913960400191505060405180910390fd5b6009546040516001600160a01b038084169216907f8be0079c531659141344cd1fd0a4f28419497f9722a3daafe3b4186f6b6457e090600090a3600980546001600160a01b0319166001600160a01b0392909216919091179055565b600e546001600160a01b031681565b6001600160a01b0382166121c7576040805162461bcd60e51b815260206004820152601f60248201527f45524332303a206d696e7420746f20746865207a65726f206164647265737300604482015290519081900360640190fd5b6121d360008383611203565b6002546121e09082612318565b6002556001600160a01b0382166000908152602081905260409020546122069082612318565b6001600160a01b0383166000818152602081815260408083209490945583518581529351929391926000805160206130628339815191529281900390910190a35050565b600082612259575060006109fa565b8282028284828161226657fe5b04146109f75760405162461bcd60e51b8152600401808060200182810382526021815260200180612ff96021913960400191505060405180910390fd5b600081818112156109fa57600080fd5b60008183038183128015906122c85750838113155b806122dd57506000831280156122dd57508381135b6109f75760405162461bcd60e51b815260040180806020018281038252602481526020018061314d6024913960400191505060405180910390fd5b6000828201838110156109f7576040805162461bcd60e51b815260206004820152601b60248201527f536166654d6174683a206164646974696f6e206f766572666c6f770000000000604482015290519081900360640190fd5b6000610dee61237f612523565b8484612979565b6000612393848484612a65565b611faf8461239f612523565b6123fe8560405180606001604052806028815260200161301a602891396001600160a01b038a166000908152600160205260408120906123dd612523565b6001600160a01b031681526020810191909152604001600020549190612b01565b612979565b600061240e82612b98565b600a546040805163a9059cbb60e01b81526001600160a01b03868116600483015260248201859052915193945091169163a9059cbb916044808201926020929091908290030181600087803b15801561246657600080fd5b505af115801561247a573d6000803e3d6000fd5b505050506040513d602081101561249057600080fd5b50516124cd5760405162461bcd60e51b81526004018080602001828103825260288152602001806131716028913960400191505060405180910390fd5b611203612675565b6000610dee6124e2612523565b846123fe85600160006124f3612523565b6001600160a01b03908116825260208083019390935260409182016000908120918c168152925290205490612318565b3390565b600954600160a01b900460ff1661257c576040805162461bcd60e51b815260206004820152601460248201527314185d5cd8589b194e881b9bdd081c185d5cd95960621b604482015290519081900360640190fd5b6009805460ff60a01b191690557f5db9ee0a495bf2e6ff9c91a7834c1ba4fdd244a5e8aa4e537bd38aeae4b073aa6125b2612523565b604080516001600160a01b039092168252519081900360200190a1565b6125d9828261216c565b6126136125f4610f598360065461224a90919063ffffffff16565b6001600160a01b038416600090815260076020526040902054906122b3565b6001600160a01b0390921660009081526007602052604090209190915550565b60006109f783836040518060400160405280601e81526020017f536166654d6174683a207375627472616374696f6e206f766572666c6f770000815250612b01565b600b54600a54604080516370a0823160e01b81523060048201529051600093926001600160a01b0316916370a08231916024808301926020929190829003018186803b1580156126c457600080fd5b505afa1580156126d8573d6000803e3d6000fd5b505050506040513d60208110156126ee57600080fd5b5051600b8190556126ff90826122b3565b91505090565b60008082121561271457600080fd5b5090565b6000612722610a00565b1161275e5760405162461bcd60e51b8152600401808060200182810382526037815260200180612fc26037913960400191505060405180910390fd5b8015610f175761278f61276f610a00565b61277d83600160801b61224a565b8161278457fe5b600654919004612318565b60065560408051828152905133917f26536799ace2c3dbe12e638ec3ade6b4173dcf1289be0a58d51a5003015649bd919081900360200190a250565b60008282018183128015906127e05750838112155b806127f557506000831280156127f557508381125b6109f75760405162461bcd60e51b8152600401808060200182810382526021815260200180612fa16021913960400191505060405180910390fd5b61283a8282612c22565b612613612855610f598360065461224a90919063ffffffff16565b6001600160a01b038416600090815260076020526040902054906127cb565b600954600160a01b900460ff16156128c1576040805162461bcd60e51b815260206004820152601060248201526000805160206130c8833981519152604482015290519081900360640190fd5b6009805460ff60a01b1916600160a01b1790557f62e78cea01bee320cd4e420270b5ea74000d11b0c9f74754ebdbfc544b05a2586125b2612523565b6000610dee61290a612523565b846123fe856040518060600160405280602581526020016131996025913960016000612934612523565b6001600160a01b03908116825260208083019390935260409182016000908120918d16815292529020549190612b01565b6000610dee612972612523565b8484612a65565b6001600160a01b0383166129be5760405162461bcd60e51b81526004018080602001828103825260248152602001806131296024913960400191505060405180910390fd5b6001600160a01b038216612a035760405162461bcd60e51b8152600401808060200182810382526022815260200180612f596022913960400191505060405180910390fd5b6001600160a01b03808416600081815260016020908152604080832094871680845294825291829020859055815185815291517f8c5be1e5ebec7d5bd14f71427d1e84f3dd0314c0f7b2291e5b200ac8c7c3b9259281900390910190a3505050565b612a70838383612d0c565b6000612a8a610f598360065461224a90919063ffffffff16565b6001600160a01b038516600090815260076020526040902054909150612ab090826127cb565b6001600160a01b038086166000908152600760205260408082209390935590851681522054612adf90826122b3565b6001600160a01b03909316600090815260076020526040902092909255505050565b60008184841115612b905760405162461bcd60e51b81526004018080602001828103825283818151815260200191508051906020019080838360005b83811015612b55578181015183820152602001612b3d565b50505050905090810190601f168015612b825780820380516001836020036101000a031916815260200191505b509250505060405180910390fd5b505050900390565b600080612ba483610df7565b6001600160a01b038416600090815260086020526040902054909150612bca9082612318565b6001600160a01b038416600081815260086020908152604091829020939093558051848152905191927feaff4b37086828766ad3268786972c0cd24259d4c87a80f9d3963a3c3d999b0d92918290030190a292915050565b6001600160a01b038216612c675760405162461bcd60e51b81526004018080602001828103825260218152602001806130826021913960400191505060405180910390fd5b612c7382600083611203565b612cb081604051806060016040528060228152602001612f11602291396001600160a01b0385166000908152602081905260409020549190612b01565b6001600160a01b038316600090815260208190526040902055600254612cd69082612633565b6002556040805182815290516000916001600160a01b038516916000805160206130628339815191529181900360200190a35050565b6001600160a01b038316612d515760405162461bcd60e51b81526004018080602001828103825260258152602001806130a36025913960400191505060405180910390fd5b6001600160a01b038216612d965760405162461bcd60e51b8152600401808060200182810382526023815260200180612eee6023913960400191505060405180910390fd5b612da1838383611203565b612dde81604051806060016040528060268152602001612f7b602691396001600160a01b0386166000908152602081905260409020549190612b01565b6001600160a01b038085166000908152602081905260408082209390935590841681522054612e0d9082612318565b6001600160a01b0380841660008181526020818152604091829020949094558051858152905191939287169260008051602061306283398151915292918290030190a3505050565b828054600181600116156101000203166002900490600052602060002090601f016020900481019282612e8b5760008555612ed1565b82601f10612ea45782800160ff19823516178555612ed1565b82800160010185558215612ed1579182015b82811115612ed1578235825591602001919060010190612eb6565b506127149291505b808211156127145760008155600101612ed956fe45524332303a207472616e7366657220746f20746865207a65726f206164647265737345524332303a206275726e20616d6f756e7420657863656564732062616c616e63654f776e61626c653a206e6577206f776e657220697320746865207a65726f206164647265737345524332303a20617070726f766520746f20746865207a65726f206164647265737345524332303a207472616e7366657220616d6f756e7420657863656564732062616c616e63655369676e6564536166654d6174683a206164646974696f6e206f766572666c6f7746756e6473446973747269627574696f6e546f6b656e2e5f6469737472696275746546756e64733a20535550504c595f49535f5a45524f536166654d6174683a206d756c7469706c69636174696f6e206f766572666c6f7745524332303a207472616e7366657220616d6f756e74206578636565647320616c6c6f77616e63654f776e61626c653a2063616c6c6572206973206e6f7420746865206f776e6572ddf252ad1be2c89b69c2b068fc378daa952ba7f163c4a11628f55a4df523b3ef45524332303a206275726e2066726f6d20746865207a65726f206164647265737345524332303a207472616e736665722066726f6d20746865207a65726f20616464726573735061757361626c653a2070617573656400000000000000000000000000000000434d544132304644542e6d657373616765466f725472616e736665725265737472696374696f6e3a20494e56414c49445f5245535452494354494f4e5f434f444545524332303a20617070726f76652066726f6d20746865207a65726f20616464726573735369676e6564536166654d6174683a207375627472616374696f6e206f766572666c6f77434d544132304644542e776974686472617746756e64733a205452414e534645525f4641494c454445524332303a2064656372656173656420616c6c6f77616e63652062656c6f77207a65726fa2646970667358221220a69b1c0e268ee3aee541fc8735bede5d2a4fa3b141e2ed8a2d856a0372d98ae864736f6c63430007040033434d544132304644543a20494e56414c49445f46554e44535f544f4b454e5f414444524553534f776e61626c653a206e6577206f776e657220697320746865207a65726f2061646472657373536166654d6174683a206d756c7469706c69636174696f6e206f766572666c6f778be0079c531659141344cd1fd0a4f28419497f9722a3daafe3b4186f6b6457e05369676e6564536166654d6174683a207375627472616374696f6e206f766572666c6f77",
  "linkReferences": {},
  "deployedLinkReferences": {}
}