{
  "_format": "hh-sol-artifact-1",
  "contractName": "TestCore",
  "sourceName": "contracts/ACTUS/test/TestCore.sol",
  "abi": [
    {
      "inputs": [],
      "name": "MAX_CYCLE_SIZE",
      "outputs": [
        {
          "internalType": "uint256",
          "name": "",
          "type": "uint256"
        }
      ],
      "stateMutability": "view",
      "type": "function"
    },
    {
      "inputs": [],
      "name": "MAX_EVENT_SCHEDULE_SIZE",
      "outputs": [
        {
          "internalType": "uint256",
          "name": "",
          "type": "uint256"
        }
      ],
      "stateMutability": "view",
      "type": "function"
    },
    {
      "inputs": [],
      "name": "ONE_POINT_ZERO",
      "outputs": [
        {
          "internalType": "int256",
          "name": "",
          "type": "int256"
        }
      ],
      "stateMutability": "view",
      "type": "function"
    },
    {
      "inputs": [],
      "name": "PRECISION",
      "outputs": [
        {
          "internalType": "uint256",
          "name": "",
          "type": "uint256"
        }
      ],
      "stateMutability": "view",
      "type": "function"
    },
    {
      "inputs": [
        {
          "internalType": "uint256",
          "name": "cycleStart",
          "type": "uint256"
        },
        {
          "internalType": "uint256",
          "name": "cycleEnd",
          "type": "uint256"
        },
        {
          "components": [
            {
              "internalType": "uint256",
              "name": "i",
              "type": "uint256"
            },
            {
              "internalType": "enum P",
              "name": "p",
              "type": "uint8"
            },
            {
              "internalType": "enum S",
              "name": "s",
              "type": "uint8"
            },
            {
              "internalType": "bool",
              "name": "isSet",
              "type": "bool"
            }
          ],
          "internalType": "struct IPS",
          "name": "cycle",
          "type": "tuple"
        },
        {
          "internalType": "enum EndOfMonthConvention",
          "name": "eomc",
          "type": "uint8"
        },
        {
          "internalType": "bool",
          "name": "addEndTime",
          "type": "bool"
        },
        {
          "internalType": "uint256",
          "name": "segmentStart",
          "type": "uint256"
        },
        {
          "internalType": "uint256",
          "name": "segmentEnd",
          "type": "uint256"
        }
      ],
      "name": "_computeDatesFromCycleSegment",
      "outputs": [
        {
          "internalType": "uint256[120]",
          "name": "",
          "type": "uint256[120]"
        }
      ],
      "stateMutability": "pure",
      "type": "function"
    },
    {
      "inputs": [
        {
          "components": [
            {
              "internalType": "uint256",
              "name": "i",
              "type": "uint256"
            },
            {
              "internalType": "enum P",
              "name": "p",
              "type": "uint8"
            },
            {
              "internalType": "enum S",
              "name": "s",
              "type": "uint8"
            },
            {
              "internalType": "bool",
              "name": "isSet",
              "type": "bool"
            }
          ],
          "internalType": "struct IPS",
          "name": "cycle",
          "type": "tuple"
        },
        {
          "internalType": "uint256",
          "name": "cycleStart",
          "type": "uint256"
        },
        {
          "internalType": "uint256",
          "name": "cycleIndex",
          "type": "uint256"
        }
      ],
      "name": "_getNextCycleDate",
      "outputs": [
        {
          "internalType": "uint256",
          "name": "",
          "type": "uint256"
        }
      ],
      "stateMutability": "pure",
      "type": "function"
    },
    {
      "inputs": [
        {
          "components": [
            {
              "internalType": "uint256",
              "name": "i",
              "type": "uint256"
            },
            {
              "internalType": "enum P",
              "name": "p",
              "type": "uint8"
            },
            {
              "internalType": "bool",
              "name": "isSet",
              "type": "bool"
            }
          ],
          "internalType": "struct IP",
          "name": "period",
          "type": "tuple"
        },
        {
          "internalType": "uint256",
          "name": "timestamp",
          "type": "uint256"
        }
      ],
      "name": "_getTimestampPlusPeriod",
      "outputs": [
        {
          "internalType": "uint256",
          "name": "",
          "type": "uint256"
        }
      ],
      "stateMutability": "pure",
      "type": "function"
    },
    {
      "inputs": [
        {
          "internalType": "uint256",
          "name": "timestamp",
          "type": "uint256"
        },
        {
          "internalType": "uint256",
          "name": "startTimestamp",
          "type": "uint256"
        },
        {
          "internalType": "uint256",
          "name": "endTimestamp",
          "type": "uint256"
        }
      ],
      "name": "_isInSegment",
      "outputs": [
        {
          "internalType": "bool",
          "name": "",
          "type": "bool"
        }
      ],
      "stateMutability": "pure",
      "type": "function"
    },
    {
      "inputs": [
        {
          "internalType": "enum ContractRole",
          "name": "contractRole",
          "type": "uint8"
        }
      ],
      "name": "_roleSign",
      "outputs": [
        {
          "internalType": "int8",
          "name": "",
          "type": "int8"
        }
      ],
      "stateMutability": "pure",
      "type": "function"
    },
    {
      "inputs": [
        {
          "internalType": "uint256",
          "name": "startTimestamp",
          "type": "uint256"
        },
        {
          "internalType": "uint256",
          "name": "endTimestamp",
          "type": "uint256"
        },
        {
          "internalType": "enum DayCountConvention",
          "name": "ipdc",
          "type": "uint8"
        },
        {
          "internalType": "uint256",
          "name": "maturityDate",
          "type": "uint256"
        }
      ],
      "name": "_yearFraction",
      "outputs": [
        {
          "internalType": "int256",
          "name": "",
          "type": "int256"
        }
      ],
      "stateMutability": "pure",
      "type": "function"
    },
    {
      "inputs": [
        {
          "internalType": "enum EndOfMonthConvention",
          "name": "eomc",
          "type": "uint8"
        },
        {
          "internalType": "uint256",
          "name": "startTime",
          "type": "uint256"
        },
        {
          "components": [
            {
              "internalType": "uint256",
              "name": "i",
              "type": "uint256"
            },
            {
              "internalType": "enum P",
              "name": "p",
              "type": "uint8"
            },
            {
              "internalType": "enum S",
              "name": "s",
              "type": "uint8"
            },
            {
              "internalType": "bool",
              "name": "isSet",
              "type": "bool"
            }
          ],
          "internalType": "struct IPS",
          "name": "cycle",
          "type": "tuple"
        }
      ],
      "name": "adjustEndOfMonthConvention",
      "outputs": [
        {
          "internalType": "enum EndOfMonthConvention",
          "name": "",
          "type": "uint8"
        }
      ],
      "stateMutability": "pure",
      "type": "function"
    },
    {
      "inputs": [
        {
          "internalType": "bytes32",
          "name": "_event",
          "type": "bytes32"
        },
        {
          "internalType": "enum BusinessDayConvention",
          "name": "bdc",
          "type": "uint8"
        },
        {
          "internalType": "enum Calendar",
          "name": "calendar",
          "type": "uint8"
        },
        {
          "internalType": "uint256",
          "name": "maturityDate",
          "type": "uint256"
        }
      ],
      "name": "computeEventTimeForEvent",
      "outputs": [
        {
          "internalType": "uint256",
          "name": "",
          "type": "uint256"
        }
      ],
      "stateMutability": "pure",
      "type": "function"
    },
    {
      "inputs": [
        {
          "internalType": "bytes32",
          "name": "_event",
          "type": "bytes32"
        }
      ],
      "name": "decodeEvent",
      "outputs": [
        {
          "internalType": "enum EventType",
          "name": "",
          "type": "uint8"
        },
        {
          "internalType": "uint256",
          "name": "",
          "type": "uint256"
        }
      ],
      "stateMutability": "pure",
      "type": "function"
    },
    {
      "inputs": [
        {
          "internalType": "enum EventType",
          "name": "eventType",
          "type": "uint8"
        },
        {
          "internalType": "uint256",
          "name": "scheduleTime",
          "type": "uint256"
        }
      ],
      "name": "encodeEvent",
      "outputs": [
        {
          "internalType": "bytes32",
          "name": "",
          "type": "bytes32"
        }
      ],
      "stateMutability": "pure",
      "type": "function"
    },
    {
      "inputs": [
        {
          "internalType": "enum EventType",
          "name": "eventType",
          "type": "uint8"
        }
      ],
      "name": "getEpochOffset",
      "outputs": [
        {
          "internalType": "uint256",
          "name": "",
          "type": "uint256"
        }
      ],
      "stateMutability": "pure",
      "type": "function"
    },
    {
      "inputs": [
        {
          "internalType": "uint256",
          "name": "timestamp",
          "type": "uint256"
        },
        {
          "internalType": "enum BusinessDayConvention",
          "name": "convention",
          "type": "uint8"
        },
        {
          "internalType": "enum Calendar",
          "name": "calendar",
          "type": "uint8"
        },
        {
          "internalType": "uint256",
          "name": "maturityDate",
          "type": "uint256"
        }
      ],
      "name": "shiftCalcTime",
      "outputs": [
        {
          "internalType": "uint256",
          "name": "",
          "type": "uint256"
        }
      ],
      "stateMutability": "pure",
      "type": "function"
    },
    {
      "inputs": [
        {
          "internalType": "uint256",
          "name": "timestamp",
          "type": "uint256"
        },
        {
          "internalType": "enum BusinessDayConvention",
          "name": "convention",
          "type": "uint8"
        },
        {
          "internalType": "enum Calendar",
          "name": "calendar",
          "type": "uint8"
        },
        {
          "internalType": "uint256",
          "name": "maturityDate",
          "type": "uint256"
        }
      ],
      "name": "shiftEventTime",
      "outputs": [
        {
          "internalType": "uint256",
          "name": "",
          "type": "uint256"
        }
      ],
      "stateMutability": "pure",
      "type": "function"
    }
  ],
  "bytecode": "0x608060405234801561001057600080fd5b50611fe2806100206000396000f3fe608060405234801561001057600080fd5b506004361061010b5760003560e01c8063a8859e2c116100a2578063dbbbe12a11610071578063dbbbe12a1461022b578063e05a66e01461023e578063e726d68014610251578063edc0465f14610223578063f5586e05146102645761010b565b8063a8859e2c146101e8578063aaf5eb6814610208578063b548f50914610210578063c40c5a98146102235761010b565b80632c303671116100de5780632c3036711461018c5780636f37e55b146101ac57806372540003146101b4578063811322fb146101d55761010b565b80630347427514610110578063179331f3146101395780631a2e165d146101595780631c8a05ec14610179575b600080fd5b61012361011e366004611b40565b610277565b6040516101309190611bda565b60405180910390f35b61014c6101473660046119d2565b61029c565b6040516101309190611c20565b61016c61016736600461196e565b61036c565b6040516101309190611c17565b61016c610187366004611a53565b610393565b61019f61019a3660046119b3565b6103a0565b6040516101309190611c4c565b61016c6103b3565b6101c76101c2366004611956565b6103bf565b604051610130929190611c34565b61016c6101e3366004611a10565b6103e8565b6101fb6101f6366004611baf565b6103f6565b6040516101309190611c0c565b61016c610403565b61016c61021e366004611b12565b610408565b61016c61041f565b61016c610239366004611a86565b610424565b61016c61024c366004611a2a565b610439565b61016c61025f366004611afd565b610457565b61016c610272366004611afd565b6105aa565b61027f611893565b61028e88888888888888610615565b90505b979650505050505050565b600060018460018111156102ac57fe5b1415610328576102bb83610809565b6102c48461082b565b14801561031357506002826020015160058111156102de57fe5b14806102f957506003826020015160058111156102f757fe5b145b80610313575060048260200151600581111561031157fe5b145b1561032057506001610365565b506000610365565b600084600181111561033657fe5b141561034457506000610365565b60405162461bcd60e51b815260040161035c90611d53565b60405180910390fd5b9392505050565b600080610378866103bf565b91505061038781868686610457565b9150505b949350505050565b600061038b84848461083a565b60006103ab82610974565b90505b919050565b670de0b6b3a764000081565b6000808060f884901c60218111156103d357fe5b92505067ffffffffffffffff83169050915091565b60008160218111156103ab57fe5b600061038b848484610a57565b601281565b600061041685858585610a90565b95945050505050565b607881565b60006104308383610bea565b90505b92915050565b60008160f884602181111561044a57fe5b60ff16901b179392505050565b60008185141561046857508361038b565b600184600881111561047657fe5b148061048d5750600384600881111561048b57fe5b145b156104a35761049c8584610d03565b905061038b565b60028460088111156104b157fe5b14806104c8575060048460088111156104c657fe5b145b1561050c5760006104d98685610d03565b90506104e486610d5f565b6104ed82610d5f565b14156104fa57905061038b565b6105048685610d76565b91505061038b565b600584600881111561051a57fe5b14806105315750600784600881111561052f57fe5b145b156105405761049c8584610d76565b600684600881111561054e57fe5b14806105655750600884600881111561056357fe5b145b156105a15760006105768685610d76565b905061058186610d5f565b61058a82610d5f565b141561059757905061038b565b6105048685610d03565b50929392505050565b600060038460088111156105ba57fe5b14806105d1575060048460088111156105cf57fe5b145b806105e7575060078460088111156105e557fe5b145b806105fd575060088460088111156105fb57fe5b145b1561060957508361038b565b61041685858585610457565b61061d611893565b610625611893565b606087015160009061068d5761063c8a8686610a57565b15610657578982826078811061064e57fe5b60200201526001015b610662898686610a57565b156106855760018615151415610685578882826078811061067f57fe5b60200201525b509050610291565b8960008061069c8a848d61029c565b90505b8b831015610731576106b2838989610a57565b156106f057607684106106d75760405162461bcd60e51b815260040161035c90611c5a565b828585607881106106e457fe5b60200201526001909301925b60019182019181600181111561070257fe5b14610717576107128b8e8461083a565b61072a565b61072a6107258c8f8561083a565b610dc4565b925061069f565b6001891515141561075f576107478c8989610a57565b1561075f578b85856078811061075957fe5b60200201525b600084118015610788575061078885600186036078811061077c57fe5b60200201518989610a57565b156107f85760008b60400151600181111561079f57fe5b1480156107ac5750600184115b80156107b85750828c14155b156107f8578484607881106107c957fe5b60200201518560018603607881106107dd57fe5b60200201528484607881106107ee57fe5b6020020160008152505b50929b9a5050505050505050505050565b6000808061081c62015180855b04610dfd565b509150915061038b8282610e93565b600061038b6201518083610816565b600080808560200151600581111561084e57fe5b141561086b57845161049c906108649085610f19565b8590610f72565b60018560200151600581111561087d57fe5b14156108a057845161049c9061086490859061089a906007610f19565b90610f19565b6002856020015160058111156108b257fe5b14156108cf57845161049c906108c89085610f19565b8590610f87565b6003856020015160058111156108e157fe5b14156108fe57845161049c906108c890859061089a906003610f19565b60048560200151600581111561091057fe5b141561092d57845161049c906108c890859061089a906006610f19565b60058560200151600581111561093f57fe5b141561095c57845161049c906109559085610f19565b8590611001565b60405162461bcd60e51b815260040161035c90611ca8565b60008082600c81111561098357fe5b1415610991575060016103ae565b600182600c81111561099f57fe5b14156109ae57506000196103ae565b600682600c8111156109bc57fe5b14156109ca575060016103ae565b600782600c8111156109d857fe5b14156109e757506000196103ae565b600282600c8111156109f557fe5b1415610a03575060016103ae565b600382600c811115610a1157fe5b1415610a2057506000196103ae565b60405162461bcd60e51b8152600401808060200182810382526034815260200180611e326034913960400191505060405180910390fd5b600081831115610a6957506000610365565b838311158015610a795750818411155b15610a8657506001610365565b5060009392505050565b600084841015610ad15760405162461bcd60e51b8152600401808060200182810382526027815260200180611ed06027913960400191505060405180910390fd5b6000836005811115610adf57fe5b1415610aef5761049c8585611028565b6001836005811115610afd57fe5b1415610b0d5761049c8585611124565b6002836005811115610b1b57fe5b1415610b2b5761049c8585611143565b6004836005811115610b3957fe5b1415610b495761049c858561115c565b6003836005811115610b5757fe5b1415610b685761049c8585846111ff565b6005836005811115610b7657fe5b1415610bb35760405162461bcd60e51b8152600401808060200182810382526039815260200180611e666039913960400191505060405180910390fd5b60405162461bcd60e51b8152600401808060200182810382526035815260200180611ddc6035913960400191505060405180910390fd5b6000808084602001516005811115610bfe57fe5b1415610c18578351610c11908490610f72565b9050610430565b600184602001516005811115610c2a57fe5b1415610c48578351610c1190610c41906007610f19565b8490610f72565b600284602001516005811115610c5a57fe5b1415610c6d578351610c11908490610f87565b600384602001516005811115610c7f57fe5b1415610c9d578351610c1190610c96906003610f19565b8490610f87565b600484602001516005811115610caf57fe5b1415610cc6578351610c1190610c96906006610f19565b600584602001516005811115610cd857fe5b1415610ceb578351610c11908490611001565b60405162461bcd60e51b815260040161035c90611cf6565b60006001826001811115610d1357fe5b1415610d5857610d22836112bd565b60061415610d3c57610d35836002610f72565b9050610433565b610d45836112bd565b60071415610d5857610d35836001610f72565b5090919050565b6000610d6e6201518083610816565b509392505050565b60006001826001811115610d8657fe5b1415610d5857610d95836112bd565b60061415610da857610d358360016112d0565b610db1836112bd565b60071415610d5857610d358360026112d0565b600080600080610dd3856112e5565b919450925090506000610de68484610e93565b9050610df3848483611303565b9695505050505050565b60008080836226496581018262023ab1600483020590506004600362023ab18302010590910390600062164b09610fa0600185010205905060046105b58202058303601f019250600061098f8460500281610e5457fe5b0590506000605061098f83020585039050600b820560301994909401606402929092018301996002600c90940290910392909201975095509350505050565b60008160011480610ea45750816003145b80610eaf5750816005145b80610eba5750816007145b80610ec55750816008145b80610ed0575081600a145b80610edb575081600c145b15610ee85750601f610433565b81600214610ef85750601e610433565b610f018361131d565b610f0c57601c610f0f565b601d5b60ff169392505050565b600082610f2857506000610433565b82820282848281610f3557fe5b04146104305760405162461bcd60e51b8152600401808060200182810382526021815260200180611ef76021913960400191505060405180910390fd5b62015180810282018281101561043357600080fd5b6000808080610f996201518087610816565b600c918801600019810183810494909401965094509250900660010191506000610fc38484610e93565b905080821115610fd1578091505b62015180870662015180610fe6868686611342565b0201945086851015610ff757600080fd5b5050505092915050565b60008080806110136201518087610816565b9187019450925090506000610fc38484610e93565b600080611034846113be565b90506000611041846113be565b9050600061104e866113d6565b61105a5761016d61105e565b61016e5b61ffff1690508183141561108a576110808161107a88886113f3565b9061140e565b9350505050610433565b6000611095866113d6565b6110a15761016d6110a5565b61016e5b61ffff16905060006110d08361107a8a6110cb6110c38a6001611546565b600180611303565b6113f3565b905060006110ed8361107a6110e788600180611303565b8b6113f3565b90506111176111076001611101888a6115a0565b906115a0565b61111184846115e2565b906115e2565b9998505050505050505050565b600061043061016861107a6201518061113d86886115a0565b90611647565b600061043061016d61107a6201518061113d86886115a0565b6000806000806000806000611170896112e5565b97509550935061117f886112e5565b945092509050601f86141561119357601e95505b82601f14156111a157601e92505b60006111ad8488611689565b905060006111bb8488611689565b905060006111c98488611689565b90506111ef61016861107a856111116111e387601e6116ee565b611111876101686116ee565b9c9b505050505050505050505050565b60008060008060008060006112138a6112e5565b975095509350611222896112e5565b9450925090506112318a610809565b86141561123d57601e95505b878914801561124c5750816002145b158015611260575061125d89610809565b83145b1561126a57601e92505b60006112768488611689565b905060006112848488611689565b905060006112928488611689565b90506112ac61016861107a856111116111e387601e6116ee565b9d9c50505050505050505050505050565b6007620151809091046003010660010190565b62015180810282038281111561043357600080fd5b600080806112f66201518085610816565b9196909550909350915050565b600062015180611314858585611342565b02949350505050565b60006004820615801561133257506064820615155b806103ab57505061019090061590565b60006107b284101561135357600080fd5b838383600062253d8c600460036064611324600c600d19890105890101050205600c80600d19870105600c02600287030361016f028161138f57fe5b0560046105b5600c600d1989010589016112c0010205617d4b8603010103039050809450505050509392505050565b60006113cd6201518083610816565b50909392505050565b6000806113e66201518084610816565b505090506103658161131d565b60008183111561140257600080fd5b50620151809190030490565b60008161144c5760405162461bcd60e51b8152600401808060200182810382526024815260200180611f896024913960400191505060405180910390fd5b8261145957506000610433565b670de0b6b3a76400008381029084828161146f57fe5b05146114ac5760405162461bcd60e51b8152600401808060200182810382526026815260200180611f3f6026913960400191505060405180910390fd5b826000191480156114c05750600160ff1b84145b156114fc5760405162461bcd60e51b8152600401808060200182810382526026815260200180611f3f6026913960400191505060405180910390fd5b600083828161150757fe5b0590508061038b5760405162461bcd60e51b8152600401808060200182810382526031815260200180611e9f6031913960400191505060405180910390fd5b600082820183811015610430576040805162461bcd60e51b815260206004820152601b60248201527f536166654d6174683a206164646974696f6e206f766572666c6f770000000000604482015290519081900360640190fd5b600061043083836040518060400160405280601e81526020017f536166654d6174683a207375627472616374696f6e206f766572666c6f770000815250611797565b60008282018183128015906115f75750838112155b8061160c575060008312801561160c57508381125b6104305760405162461bcd60e51b8152600401808060200182810382526021815260200180611e116021913960400191505060405180910390fd5b600061043083836040518060400160405280601a81526020017f536166654d6174683a206469766973696f6e206279207a65726f00000000000081525061182e565b600081830381831280159061169e5750838113155b806116b357506000831280156116b357508381135b6104305760405162461bcd60e51b8152600401808060200182810382526024815260200180611f656024913960400191505060405180910390fd5b6000826116fd57506000610433565b826000191480156117115750600160ff1b82145b1561174d5760405162461bcd60e51b8152600401808060200182810382526027815260200180611f186027913960400191505060405180910390fd5b8282028284828161175a57fe5b05146104305760405162461bcd60e51b8152600401808060200182810382526027815260200180611f186027913960400191505060405180910390fd5b600081848411156118265760405162461bcd60e51b81526004018080602001828103825283818151815260200191508051906020019080838360005b838110156117eb5781810151838201526020016117d3565b50505050905090810190601f1680156118185780820380516001836020036101000a031916815260200191505b509250505060405180910390fd5b505050900390565b6000818361187d5760405162461bcd60e51b81526020600482018181528351602484015283519092839260449091019190850190808383600083156117eb5781810151838201526020016117d3565b50600083858161188957fe5b0495945050505050565b60405180610f0001604052806078906020820280368337509192915050565b803580151581146103ae57600080fd5b8035600981106103ae57600080fd5b8035602281106103ae57600080fd5b6000608082840312156118f1578081fd5b6040516080810181811067ffffffffffffffff8211171561190e57fe5b60405282358152905080602083013561192681611dce565b6020820152604083013561193981611dbe565b604082015261194a606084016118b2565b60608201525092915050565b600060208284031215611967578081fd5b5035919050565b60008060008060808587031215611983578283fd5b84359350611993602086016118c2565b925060408501356119a381611dbe565b9396929550929360600135925050565b6000602082840312156119c4578081fd5b8135600d8110610430578182fd5b600080600060c084860312156119e6578283fd5b83356119f181611dbe565b925060208401359150611a0785604086016118e0565b90509250925092565b600060208284031215611a21578081fd5b610430826118d1565b60008060408385031215611a3c578182fd5b611a45836118d1565b946020939093013593505050565b600080600060c08486031215611a67578283fd5b611a7185856118e0565b956080850135955060a0909401359392505050565b6000808284036080811215611a99578283fd5b6060811215611aa6578283fd5b506040516060810181811067ffffffffffffffff82111715611ac457fe5b604052833581526020840135611ad981611dce565b6020820152611aea604085016118b2565b6040820152946060939093013593505050565b60008060008060808587031215611983578384fd5b60008060008060808587031215611b27578182fd5b843593506020850135925060408501356119a381611dce565b6000806000806000806000610140888a031215611b5b578485fd5b8735965060208801359550611b738960408a016118e0565b945060c0880135611b8381611dbe565b9350611b9160e089016118b2565b92506101008801359150610120880135905092959891949750929550565b600080600060608486031215611bc3578081fd5b505081359360208301359350604090920135919050565b610f008101818360005b6078811015611c03578151835260209283019290910190600101611be4565b50505092915050565b901515815260200190565b90815260200190565b6020810160028310611c2e57fe5b91905290565b6040810160228410611c4257fe5b9281526020015290565b60009190910b815260200190565b6020808252602e908201527f5363686564756c652e636f6d70757465446174657346726f6d4379636c653a2060408201526d4d41585f4359434c455f53495a4560901b606082015260800190565b6020808252602e908201527f5363686564756c652e6765744e6578744379636c65446174653a20415454524960408201526d1095551157d393d517d193d5539160921b606082015260800190565b60208082526037908201527f506572696f645574696c732e67657454696d657374616d70506c75735065726960408201527f6f643a204154545249425554455f4e4f545f464f554e44000000000000000000606082015260800190565b60208082526045908201527f456e644f664d6f6e7468436f6e76656e74696f6e2e61646a757374456e644f6660408201527f4d6f6e7468436f6e76656e74696f6e3a204154545249425554455f4e4f545f4660608201526427aaa7221760d91b608082015260a00190565b60028110611dcb57600080fd5b50565b60068110611dcb57600080fdfe446179436f756e74436f6e76656e74696f6e2e796561724672616374696f6e3a204154545249425554455f4e4f545f464f554e442e5369676e6564536166654d6174683a206164646974696f6e206f766572666c6f77436f6e7472616374526f6c65436f6e76656e74696f6e2e726f6c655369676e3a204154545249425554455f4e4f545f464f554e44446179436f756e74436f6e76656e74696f6e2e796561724672616374696f6e3a204154545249425554455f4e4f545f535550504f525445442e5369676e65644d6174682e666c6f61744469763a2043414e4e4f545f524550524553454e545f4752414e554c4152495459436f72652e796561724672616374696f6e3a2053544152545f4e4f545f4245464f52455f454e44536166654d6174683a206d756c7469706c69636174696f6e206f766572666c6f775369676e6564536166654d6174683a206d756c7469706c69636174696f6e206f766572666c6f775369676e65644d6174682e666c6f61744469763a204f564552464c4f575f44455445435445445369676e6564536166654d6174683a207375627472616374696f6e206f766572666c6f775369676e65644d6174682e666c6f61744469763a20444956494445445f42595f5a45524fa264697066735822122002bec7c12556f40ab8741bb95e2ce221d575ade4fe5c8c75ccc3a751b332767164736f6c63430007040033",
  "linkReferences": {},
  "deployedLinkReferences": {}
}