{
  "_format": "hh-sol-artifact-1",
  "contractName": "ANNActor",
  "sourceName": "contracts/Core/ANN/ANNActor.sol",
  "abi": [
    {
      "inputs": [
        {
          "internalType": "contract IAssetRegistry",
          "name": "assetRegistry",
          "type": "address"
        },
        {
          "internalType": "contract IOracleProxy",
          "name": "defaultOracleProxy",
          "type": "address"
        }
      ],
      "stateMutability": "nonpayable",
      "type": "constructor"
    },
    {
      "anonymous": false,
      "inputs": [
        {
          "indexed": true,
          "internalType": "bytes32",
          "name": "assetId",
          "type": "bytes32"
        },
        {
          "indexed": false,
          "internalType": "enum ContractType",
          "name": "contractType",
          "type": "uint8"
        },
        {
          "indexed": false,
          "internalType": "address",
          "name": "creator",
          "type": "address"
        },
        {
          "indexed": false,
          "internalType": "address",
          "name": "counterparty",
          "type": "address"
        }
      ],
      "name": "InitializedAsset",
      "type": "event"
    },
    {
      "anonymous": false,
      "inputs": [
        {
          "indexed": true,
          "internalType": "address",
          "name": "previousOwner",
          "type": "address"
        },
        {
          "indexed": true,
          "internalType": "address",
          "name": "newOwner",
          "type": "address"
        }
      ],
      "name": "OwnershipTransferred",
      "type": "event"
    },
    {
      "anonymous": false,
      "inputs": [
        {
          "indexed": true,
          "internalType": "bytes32",
          "name": "assetId",
          "type": "bytes32"
        },
        {
          "indexed": false,
          "internalType": "enum EventType",
          "name": "eventType",
          "type": "uint8"
        },
        {
          "indexed": false,
          "internalType": "uint256",
          "name": "scheduleTime",
          "type": "uint256"
        },
        {
          "indexed": false,
          "internalType": "int256",
          "name": "payoff",
          "type": "int256"
        }
      ],
      "name": "ProgressedAsset",
      "type": "event"
    },
    {
      "anonymous": false,
      "inputs": [
        {
          "indexed": true,
          "internalType": "bytes32",
          "name": "assetId",
          "type": "bytes32"
        },
        {
          "indexed": false,
          "internalType": "bytes32",
          "name": "statusMessage",
          "type": "bytes32"
        }
      ],
      "name": "Status",
      "type": "event"
    },
    {
      "inputs": [],
      "name": "assetRegistry",
      "outputs": [
        {
          "internalType": "contract IAssetRegistry",
          "name": "",
          "type": "address"
        }
      ],
      "stateMutability": "view",
      "type": "function"
    },
    {
      "inputs": [
        {
          "internalType": "bytes32",
          "name": "object",
          "type": "bytes32"
        }
      ],
      "name": "decodeCollateralObject",
      "outputs": [
        {
          "internalType": "address",
          "name": "",
          "type": "address"
        },
        {
          "internalType": "uint256",
          "name": "",
          "type": "uint256"
        }
      ],
      "stateMutability": "pure",
      "type": "function"
    },
    {
      "inputs": [
        {
          "internalType": "bytes32",
          "name": "_event",
          "type": "bytes32"
        }
      ],
      "name": "decodeEvent",
      "outputs": [
        {
          "internalType": "enum EventType",
          "name": "",
          "type": "uint8"
        },
        {
          "internalType": "uint256",
          "name": "",
          "type": "uint256"
        }
      ],
      "stateMutability": "pure",
      "type": "function"
    },
    {
      "inputs": [],
      "name": "defaultOracleProxy",
      "outputs": [
        {
          "internalType": "contract IOracleProxy",
          "name": "",
          "type": "address"
        }
      ],
      "stateMutability": "view",
      "type": "function"
    },
    {
      "inputs": [
        {
          "internalType": "address",
          "name": "collateralToken",
          "type": "address"
        },
        {
          "internalType": "uint256",
          "name": "collateralAmount",
          "type": "uint256"
        }
      ],
      "name": "encodeCollateralAsObject",
      "outputs": [
        {
          "internalType": "bytes32",
          "name": "",
          "type": "bytes32"
        }
      ],
      "stateMutability": "pure",
      "type": "function"
    },
    {
      "inputs": [
        {
          "internalType": "enum EventType",
          "name": "eventType",
          "type": "uint8"
        },
        {
          "internalType": "uint256",
          "name": "scheduleTime",
          "type": "uint256"
        }
      ],
      "name": "encodeEvent",
      "outputs": [
        {
          "internalType": "bytes32",
          "name": "",
          "type": "bytes32"
        }
      ],
      "stateMutability": "pure",
      "type": "function"
    },
    {
      "inputs": [
        {
          "internalType": "enum EventType",
          "name": "eventType",
          "type": "uint8"
        }
      ],
      "name": "getEpochOffset",
      "outputs": [
        {
          "internalType": "uint256",
          "name": "",
          "type": "uint256"
        }
      ],
      "stateMutability": "pure",
      "type": "function"
    },
    {
      "inputs": [
        {
          "components": [
            {
              "internalType": "enum ContractType",
              "name": "contractType",
              "type": "uint8"
            },
            {
              "internalType": "enum Calendar",
              "name": "calendar",
              "type": "uint8"
            },
            {
              "internalType": "enum ContractRole",
              "name": "contractRole",
              "type": "uint8"
            },
            {
              "internalType": "enum DayCountConvention",
              "name": "dayCountConvention",
              "type": "uint8"
            },
            {
              "internalType": "enum BusinessDayConvention",
              "name": "businessDayConvention",
              "type": "uint8"
            },
            {
              "internalType": "enum EndOfMonthConvention",
              "name": "endOfMonthConvention",
              "type": "uint8"
            },
            {
              "internalType": "enum ScalingEffect",
              "name": "scalingEffect",
              "type": "uint8"
            },
            {
              "internalType": "enum PenaltyType",
              "name": "penaltyType",
              "type": "uint8"
            },
            {
              "internalType": "enum FeeBasis",
              "name": "feeBasis",
              "type": "uint8"
            },
            {
              "internalType": "address",
              "name": "currency",
              "type": "address"
            },
            {
              "internalType": "address",
              "name": "settlementCurrency",
              "type": "address"
            },
            {
              "internalType": "bytes32",
              "name": "marketObjectCodeRateReset",
              "type": "bytes32"
            },
            {
              "internalType": "uint256",
              "name": "contractDealDate",
              "type": "uint256"
            },
            {
              "internalType": "uint256",
              "name": "statusDate",
              "type": "uint256"
            },
            {
              "internalType": "uint256",
              "name": "initialExchangeDate",
              "type": "uint256"
            },
            {
              "internalType": "uint256",
              "name": "maturityDate",
              "type": "uint256"
            },
            {
              "internalType": "uint256",
              "name": "issueDate",
              "type": "uint256"
            },
            {
              "internalType": "uint256",
              "name": "purchaseDate",
              "type": "uint256"
            },
            {
              "internalType": "uint256",
              "name": "capitalizationEndDate",
              "type": "uint256"
            },
            {
              "internalType": "uint256",
              "name": "cycleAnchorDateOfInterestPayment",
              "type": "uint256"
            },
            {
              "internalType": "uint256",
              "name": "cycleAnchorDateOfRateReset",
              "type": "uint256"
            },
            {
              "internalType": "uint256",
              "name": "cycleAnchorDateOfScalingIndex",
              "type": "uint256"
            },
            {
              "internalType": "uint256",
              "name": "cycleAnchorDateOfFee",
              "type": "uint256"
            },
            {
              "internalType": "uint256",
              "name": "cycleAnchorDateOfPrincipalRedemption",
              "type": "uint256"
            },
            {
              "internalType": "int256",
              "name": "notionalPrincipal",
              "type": "int256"
            },
            {
              "internalType": "int256",
              "name": "nominalInterestRate",
              "type": "int256"
            },
            {
              "internalType": "int256",
              "name": "accruedInterest",
              "type": "int256"
            },
            {
              "internalType": "int256",
              "name": "rateMultiplier",
              "type": "int256"
            },
            {
              "internalType": "int256",
              "name": "rateSpread",
              "type": "int256"
            },
            {
              "internalType": "int256",
              "name": "nextResetRate",
              "type": "int256"
            },
            {
              "internalType": "int256",
              "name": "feeRate",
              "type": "int256"
            },
            {
              "internalType": "int256",
              "name": "feeAccrued",
              "type": "int256"
            },
            {
              "internalType": "int256",
              "name": "penaltyRate",
              "type": "int256"
            },
            {
              "internalType": "int256",
              "name": "delinquencyRate",
              "type": "int256"
            },
            {
              "internalType": "int256",
              "name": "premiumDiscountAtIED",
              "type": "int256"
            },
            {
              "internalType": "int256",
              "name": "priceAtPurchaseDate",
              "type": "int256"
            },
            {
              "internalType": "int256",
              "name": "priceAtTerminationDate",
              "type": "int256"
            },
            {
              "internalType": "int256",
              "name": "nextPrincipalRedemptionPayment",
              "type": "int256"
            },
            {
              "internalType": "int256",
              "name": "lifeCap",
              "type": "int256"
            },
            {
              "internalType": "int256",
              "name": "lifeFloor",
              "type": "int256"
            },
            {
              "internalType": "int256",
              "name": "periodCap",
              "type": "int256"
            },
            {
              "internalType": "int256",
              "name": "periodFloor",
              "type": "int256"
            },
            {
              "components": [
                {
                  "internalType": "uint256",
                  "name": "i",
                  "type": "uint256"
                },
                {
                  "internalType": "enum P",
                  "name": "p",
                  "type": "uint8"
                },
                {
                  "internalType": "bool",
                  "name": "isSet",
                  "type": "bool"
                }
              ],
              "internalType": "struct IP",
              "name": "gracePeriod",
              "type": "tuple"
            },
            {
              "components": [
                {
                  "internalType": "uint256",
                  "name": "i",
                  "type": "uint256"
                },
                {
                  "internalType": "enum P",
                  "name": "p",
                  "type": "uint8"
                },
                {
                  "internalType": "bool",
                  "name": "isSet",
                  "type": "bool"
                }
              ],
              "internalType": "struct IP",
              "name": "delinquencyPeriod",
              "type": "tuple"
            },
            {
              "components": [
                {
                  "internalType": "uint256",
                  "name": "i",
                  "type": "uint256"
                },
                {
                  "internalType": "enum P",
                  "name": "p",
                  "type": "uint8"
                },
                {
                  "internalType": "enum S",
                  "name": "s",
                  "type": "uint8"
                },
                {
                  "internalType": "bool",
                  "name": "isSet",
                  "type": "bool"
                }
              ],
              "internalType": "struct IPS",
              "name": "cycleOfInterestPayment",
              "type": "tuple"
            },
            {
              "components": [
                {
                  "internalType": "uint256",
                  "name": "i",
                  "type": "uint256"
                },
                {
                  "internalType": "enum P",
                  "name": "p",
                  "type": "uint8"
                },
                {
                  "internalType": "enum S",
                  "name": "s",
                  "type": "uint8"
                },
                {
                  "internalType": "bool",
                  "name": "isSet",
                  "type": "bool"
                }
              ],
              "internalType": "struct IPS",
              "name": "cycleOfRateReset",
              "type": "tuple"
            },
            {
              "components": [
                {
                  "internalType": "uint256",
                  "name": "i",
                  "type": "uint256"
                },
                {
                  "internalType": "enum P",
                  "name": "p",
                  "type": "uint8"
                },
                {
                  "internalType": "enum S",
                  "name": "s",
                  "type": "uint8"
                },
                {
                  "internalType": "bool",
                  "name": "isSet",
                  "type": "bool"
                }
              ],
              "internalType": "struct IPS",
              "name": "cycleOfScalingIndex",
              "type": "tuple"
            },
            {
              "components": [
                {
                  "internalType": "uint256",
                  "name": "i",
                  "type": "uint256"
                },
                {
                  "internalType": "enum P",
                  "name": "p",
                  "type": "uint8"
                },
                {
                  "internalType": "enum S",
                  "name": "s",
                  "type": "uint8"
                },
                {
                  "internalType": "bool",
                  "name": "isSet",
                  "type": "bool"
                }
              ],
              "internalType": "struct IPS",
              "name": "cycleOfFee",
              "type": "tuple"
            },
            {
              "components": [
                {
                  "internalType": "uint256",
                  "name": "i",
                  "type": "uint256"
                },
                {
                  "internalType": "enum P",
                  "name": "p",
                  "type": "uint8"
                },
                {
                  "internalType": "enum S",
                  "name": "s",
                  "type": "uint8"
                },
                {
                  "internalType": "bool",
                  "name": "isSet",
                  "type": "bool"
                }
              ],
              "internalType": "struct IPS",
              "name": "cycleOfPrincipalRedemption",
              "type": "tuple"
            }
          ],
          "internalType": "struct ANNTerms",
          "name": "terms",
          "type": "tuple"
        },
        {
          "internalType": "bytes32[]",
          "name": "schedule",
          "type": "bytes32[]"
        },
        {
          "components": [
            {
              "internalType": "address",
              "name": "creatorObligor",
              "type": "address"
            },
            {
              "internalType": "address",
              "name": "creatorBeneficiary",
              "type": "address"
            },
            {
              "internalType": "address",
              "name": "counterpartyObligor",
              "type": "address"
            },
            {
              "internalType": "address",
              "name": "counterpartyBeneficiary",
              "type": "address"
            }
          ],
          "internalType": "struct AssetOwnership",
          "name": "ownership",
          "type": "tuple"
        },
        {
          "internalType": "address",
          "name": "engine",
          "type": "address"
        },
        {
          "internalType": "address",
          "name": "admin",
          "type": "address"
        }
      ],
      "name": "initialize",
      "outputs": [],
      "stateMutability": "nonpayable",
      "type": "function"
    },
    {
      "inputs": [],
      "name": "owner",
      "outputs": [
        {
          "internalType": "address",
          "name": "",
          "type": "address"
        }
      ],
      "stateMutability": "view",
      "type": "function"
    },
    {
      "inputs": [
        {
          "internalType": "bytes32",
          "name": "assetId",
          "type": "bytes32"
        }
      ],
      "name": "progress",
      "outputs": [],
      "stateMutability": "nonpayable",
      "type": "function"
    },
    {
      "inputs": [
        {
          "internalType": "bytes32",
          "name": "assetId",
          "type": "bytes32"
        },
        {
          "internalType": "bytes32",
          "name": "_event",
          "type": "bytes32"
        }
      ],
      "name": "progressWith",
      "outputs": [],
      "stateMutability": "nonpayable",
      "type": "function"
    },
    {
      "inputs": [],
      "name": "renounceOwnership",
      "outputs": [],
      "stateMutability": "nonpayable",
      "type": "function"
    },
    {
      "inputs": [
        {
          "internalType": "uint256",
          "name": "timestamp",
          "type": "uint256"
        },
        {
          "internalType": "enum BusinessDayConvention",
          "name": "convention",
          "type": "uint8"
        },
        {
          "internalType": "enum Calendar",
          "name": "calendar",
          "type": "uint8"
        },
        {
          "internalType": "uint256",
          "name": "maturityDate",
          "type": "uint256"
        }
      ],
      "name": "shiftCalcTime",
      "outputs": [
        {
          "internalType": "uint256",
          "name": "",
          "type": "uint256"
        }
      ],
      "stateMutability": "pure",
      "type": "function"
    },
    {
      "inputs": [
        {
          "internalType": "uint256",
          "name": "timestamp",
          "type": "uint256"
        },
        {
          "internalType": "enum BusinessDayConvention",
          "name": "convention",
          "type": "uint8"
        },
        {
          "internalType": "enum Calendar",
          "name": "calendar",
          "type": "uint8"
        },
        {
          "internalType": "uint256",
          "name": "maturityDate",
          "type": "uint256"
        }
      ],
      "name": "shiftEventTime",
      "outputs": [
        {
          "internalType": "uint256",
          "name": "",
          "type": "uint256"
        }
      ],
      "stateMutability": "pure",
      "type": "function"
    },
    {
      "inputs": [
        {
          "internalType": "address",
          "name": "newOwner",
          "type": "address"
        }
      ],
      "name": "transferOwnership",
      "outputs": [],
      "stateMutability": "nonpayable",
      "type": "function"
    }
  ],
  "bytecode": "0x60806040523480156200001157600080fd5b5060405162003d0f38038062003d0f8339810160408190526200003491620000c9565b8181600062000042620000c5565b600080546001600160a01b0319166001600160a01b0383169081178255604051929350917f8be0079c531659141344cd1fd0a4f28419497f9722a3daafe3b4186f6b6457e0908290a35060018055600280546001600160a01b039384166001600160a01b0319918216179091556003805492909316911617905550620001209050565b3390565b60008060408385031215620000dc578182fd5b8251620000e98162000107565b6020840151909250620000fc8162000107565b809150509250929050565b6001600160a01b03811681146200011d57600080fd5b50565b613bdf80620001306000396000f3fe608060405234801561001057600080fd5b50600436106100f55760003560e01c80638da5cb5b11610097578063e05a66e011610066578063e05a66e0146101e0578063e726d680146101f3578063f2fde38b14610206578063f5586e0514610219576100f5565b80638da5cb5b146101a8578063979d7e86146101bd57806398172dd8146101c5578063d31f8ef4146101cd576100f5565b8063715018a6116100d3578063715018a61461015957806372540003146101615780637aebd2a814610182578063811322fb14610195576100f5565b8063645a26bd146100fa5780636778e0e9146101245780636b6ba66414610144575b600080fd5b61010d6101083660046125a2565b61022c565b60405161011b9291906131c6565b60405180910390f35b61013761013236600461255b565b610245565b60405161011b91906131df565b6101576101523660046125d2565b610270565b005b610157610525565b61017461016f3660046125a2565b6105d9565b60405161011b929190613449565b6101576101903660046125a2565b610602565b6101376101a336600461260f565b610983565b6101b0610999565b60405161011b9190613174565b6101b06109a8565b6101b06109b7565b6101576101db366004612673565b6109c6565b6101376101ee366004612629565b610bff565b610137610201366004612be9565b610c1d565b610157610214366004612523565b610d72565b610137610227366004612be9565b610e7c565b606081901c6bffffffffffffffffffffffff8216915091565b6bffffffffffffffffffffffff19606083901b166bffffffffffffffffffffffff8216175b92915050565b60025460405163747be51f60e11b81526001600160a01b039091169063e8f7ca3e906102a290859033906004016131e8565b602060405180830381600087803b1580156102bc57600080fd5b505af11580156102d0573d6000803e3d6000fd5b505050506040513d601f19601f820116820180604052508101906102f49190612586565b6103195760405162461bcd60e51b8152600401610310906135d8565b60405180910390fd5b60025460405163f52f84e160e01b81526000916001600160a01b03169063f52f84e19061034a9086906004016131df565b60206040518083038186803b15801561036257600080fd5b505afa158015610376573d6000803e3d6000fd5b505050506040513d601f19601f8201168201806040525081019061039a91906125ba565b146103b75760405162461bcd60e51b81526004016103109061371c565b600254604051631d7a1ab960e21b81526000916001600160a01b0316906375e86ae4906103e89086906004016131df565b60206040518083038186803b15801561040057600080fd5b505afa158015610414573d6000803e3d6000fd5b505050506040513d601f19601f8201168201806040525081019061043891906125ba565b146104555760405162461bcd60e51b81526004016103109061358a565b60025460405163b828204160e01b81526000916104dc916001600160a01b039091169063b82820419061048c9087906004016131df565b60206040518083038186803b1580156104a457600080fd5b505afa1580156104b8573d6000803e3d6000fd5b505050506040513d601f19601f8201168201806040525081019061016f91906125ba565b91505060006104ea836105d9565b9150508115806104f957508181105b6105155760405162461bcd60e51b8152600401610310906134e0565b61051f8484610ef0565b50505050565b61052d6114fa565b6000546001600160a01b0390811691161461058f576040805162461bcd60e51b815260206004820181905260248201527f4f776e61626c653a2063616c6c6572206973206e6f7420746865206f776e6572604482015290519081900360640190fd5b600080546040516001600160a01b03909116907f8be0079c531659141344cd1fd0a4f28419497f9722a3daafe3b4186f6b6457e0908390a3600080546001600160a01b0319169055565b6000808060f884901c60218111156105ed57fe5b92505067ffffffffffffffff83169050915091565b600254604051631392c59160e11b81526001600160a01b03909116906327258b22906106329084906004016131df565b60206040518083038186803b15801561064a57600080fd5b505afa15801561065e573d6000803e3d6000fd5b505050506040513d601f19601f820116820180604052508101906106829190612586565b61069e5760405162461bcd60e51b815260040161031090613623565b60025460405163c139626b60e01b81526000916001600160a01b03169063c139626b906106cf9085906004016131df565b60206040518083038186803b1580156106e757600080fd5b505afa1580156106fb573d6000803e3d6000fd5b505050506040513d601f19601f8201168201806040525081019061071f919061253f565b600254604051630316dd6960e21b81529192506000916001600160a01b0390911690630c5b75a4906107559086906004016131df565b602060405180830381600087803b15801561076f57600080fd5b505af1158015610783573d6000803e3d6000fd5b505050506040513d601f19601f820116820180604052508101906107a791906125ba565b90508061083157600254604051631d7a1ab960e21b81526001600160a01b03909116906375e86ae4906107de9086906004016131df565b60206040518083038186803b1580156107f657600080fd5b505afa15801561080a573d6000803e3d6000fd5b505050506040513d601f19601f8201168201806040525081019061082e91906125ba565b90505b8015801561084757506001600160a01b03821615155b156108cd5760405163019ad70360e41b81526001600160a01b038316906319ad7030906108789086906004016131df565b602060405180830381600087803b15801561089257600080fd5b505af11580156108a6573d6000803e3d6000fd5b505050506040513d601f19601f820116820180604052508101906108ca91906125ba565b90505b80610957576002546040516361db73e160e11b81526001600160a01b039091169063c3b6e7c2906109029086906004016131df565b602060405180830381600087803b15801561091c57600080fd5b505af1158015610930573d6000803e3d6000fd5b505050506040513d601f19601f8201168201806040525081019061095491906125ba565b90505b806109745760405162461bcd60e51b815260040161031090613549565b61097e8382610ef0565b505050565b600081602181111561099157fe5b90505b919050565b6000546001600160a01b031690565b6002546001600160a01b031681565b6003546001600160a01b031681565b6001600160a01b03821615801590610a5957506001826001600160a01b031663cb2ef6f76040518163ffffffff1660e01b815260040160206040518083038186803b158015610a1457600080fd5b505afa158015610a28573d6000803e3d6000fd5b505050506040513d601f19601f82011682018060405250810190610a4c91906125f3565b6012811115610a5757fe5b145b610a755760405162461bcd60e51b815260040161031090613483565b60008642604051602001610a8a9291906137c7565b604051602081830303815290604052805190602001209050610aaa61209c565b60405163f7660d0760e01b81526001600160a01b0385169063f7660d0790610ad6908b906004016137b8565b6102e06040518083038186803b158015610aef57600080fd5b505afa158015610b03573d6000803e3d6000fd5b505050506040513d601f19601f82011682018060405250810190610b279190612acc565b60025460405163649ece9360e01b81529192506001600160a01b03169063649ece9390610b689085908c9086908d908d908d908d9030908e90600401613314565b600060405180830381600087803b158015610b8257600080fd5b505af1158015610b96573d6000803e3d6000fd5b508492507fc5df678b84aa92f5f59981df8c9997b366d886de25771c5f753015c2e14e907a915060019050610bce6020890189612523565b610bde60608a0160408b01612523565b604051610bed93929190613419565b60405180910390a25050505050505050565b60008160f8846021811115610c1057fe5b60ff16901b179392505050565b600081851415610c2e575083610d6a565b6001846008811115610c3c57fe5b1480610c5357506003846008811115610c5157fe5b145b15610c6957610c6285846114fe565b9050610d6a565b6002846008811115610c7757fe5b1480610c8e57506004846008811115610c8c57fe5b145b15610cd2576000610c9f86856114fe565b9050610caa8661155a565b610cb38261155a565b1415610cc0579050610d6a565b610cca8685611572565b915050610d6a565b6005846008811115610ce057fe5b1480610cf757506007846008811115610cf557fe5b145b15610d0657610c628584611572565b6006846008811115610d1457fe5b1480610d2b57506008846008811115610d2957fe5b145b15610d67576000610d3c8685611572565b9050610d478661155a565b610d508261155a565b1415610d5d579050610d6a565b610cca86856114fe565b50835b949350505050565b610d7a6114fa565b6000546001600160a01b03908116911614610ddc576040805162461bcd60e51b815260206004820181905260248201527f4f776e61626c653a2063616c6c6572206973206e6f7420746865206f776e6572604482015290519081900360640190fd5b6001600160a01b038116610e215760405162461bcd60e51b8152600401808060200182810382526026815260200180613b846026913960400191505060405180910390fd5b600080546040516001600160a01b03808516939216917f8be0079c531659141344cd1fd0a4f28419497f9722a3daafe3b4186f6b6457e091a3600080546001600160a01b0319166001600160a01b0392909216919091179055565b60006003846008811115610e8c57fe5b1480610ea357506004846008811115610ea157fe5b145b80610eb957506007846008811115610eb757fe5b145b80610ecf57506008846008811115610ecd57fe5b145b15610edb575083610d6a565b610ee785858585610c1d565b95945050505050565b60026001541415610f48576040805162461bcd60e51b815260206004820152601f60248201527f5265656e7472616e637947756172643a207265656e7472616e742063616c6c00604482015290519081900360640190fd5b6002600155610f5561209c565b6002546040516309648a9d60e01b81526001600160a01b03909116906309648a9d90610f859086906004016131df565b6102e06040518083038186803b158015610f9e57600080fd5b505afa158015610fb2573d6000803e3d6000fd5b505050506040513d601f19601f82011682018060405250810190610fd69190612acc565b9050600081516005811115610fe757fe5b1480610fff5750600181516005811115610ffd57fe5b145b80611016575060028151600581111561101457fe5b145b6110325760405162461bcd60e51b815260040161031090613767565b60008151600581111561104157fe5b146110ca57600254604051631ba316dd60e11b81526001600160a01b03909116906337462dba906110769086906004016131df565b6102e06040518083038186803b15801561108f57600080fd5b505afa1580156110a3573d6000803e3d6000fd5b505050506040513d601f19601f820116820180604052508101906110c79190612acc565b90505b6000806110d6846105d9565b60025460405163ecef557760e01b815292945090925042916112809184916001600160a01b039091169063ecef557790611114908b906004016132b5565b60206040518083038186803b15801561112c57600080fd5b505afa158015611140573d6000803e3d6000fd5b505050506040513d601f19601f820116820180604052508101906111649190612c30565b60ff16600881111561117257fe5b60025460405163ecef557760e01b81526001600160a01b039091169063ecef5577906111a2908c906004016132fa565b60206040518083038186803b1580156111ba57600080fd5b505afa1580156111ce573d6000803e3d6000fd5b505050506040513d601f19601f820116820180604052508101906111f29190612c30565b60ff16600181111561120057fe5b60025460405163135b9f4d60e01b81526001600160a01b039091169063135b9f4d90611230908d906004016132dc565b60206040518083038186803b15801561124857600080fd5b505afa15801561125c573d6000803e3d6000fd5b505050506040513d601f19601f8201168201806040525081019061020191906125ba565b111561129e5760405162461bcd60e51b8152600401610310906136c8565b6112a661209c565b60006112b38786886115c0565b9150915060006112c4888884611846565b9050806113c8576000865160058111156112da57fe5b14156113455760025460405163842962d560e01b81526001600160a01b039091169063842962d590611312908b908a90600401613404565b600060405180830381600087803b15801561132c57600080fd5b505af1158015611340573d6000803e3d6000fd5b505050505b60025460405163d981e77360e01b81526001600160a01b039091169063d981e77390611377908b908b906004016131ff565b600060405180830381600087803b15801561139157600080fd5b505af11580156113a5573d6000803e3d6000fd5b5050505060006113b6600186610bff565b90506113c38985836115c0565b509350505b600254604051631d306b7f60e11b81526001600160a01b0390911690633a60d6fe906113fa908b908790600401613404565b600060405180830381600087803b15801561141457600080fd5b505af1158015611428573d6000803e3d6000fd5b505050508015156001141561149e5760025460405163de07a17360e01b81526001600160a01b039091169063de07a1739061146b908b908b90879060040161320d565b600060405180830381600087803b15801561148557600080fd5b505af1158015611499573d6000803e3d6000fd5b505050505b877fd255be8589971f117e0e4377177282fb7cce66e378bfb1b7eafddd05e4f181e96001831515146114d15760016114d3565b865b86856040516114e493929190613464565b60405180910390a2505060018055505050505050565b3390565b6000600182600181111561150e57fe5b14156115535761151d83611c7c565b6006141561153757611530836002611c8f565b905061026a565b61154083611c7c565b6007141561155357611530836001611c8f565b5090919050565b600061156a620151808304611ca4565b509392505050565b6000600182600181111561158257fe5b14156115535761159183611c7c565b600614156115a457611530836001611d3a565b6115ad83611c7c565b6007141561155357611530836002611d3a565b6115c861209c565b60025460405163ee43eda160e01b815260009182916001600160a01b039091169063ee43eda1906115fd9089906004016131df565b60206040518083038186803b15801561161557600080fd5b505afa158015611629573d6000803e3d6000fd5b505050506040513d601f19601f8201168201806040525081019061164d919061253f565b905061165761214b565b6002546040516335f1cded60e11b81526001600160a01b0390911690636be39bda90611687908a906004016131df565b6108806040518083038186803b1580156116a057600080fd5b505afa1580156116b4573d6000803e3d6000fd5b505050506040513d601f19601f820116820180604052508101906116d89190612731565b90506000806116e6876105d9565b915091506000846001600160a01b031663d79ed615858b8b6117218f8961171c8a8d608001518e602001518f6101e00151610e7c565b611d4f565b6040518563ffffffff1660e01b815260040161174094939291906137e4565b60206040518083038186803b15801561175857600080fd5b505afa15801561176c573d6000803e3d6000fd5b505050506040513d601f19601f8201168201806040525081019061179091906125ba565b9050846001600160a01b0316633891585b858b8b6117c78f896117c28a8d608001518e602001518f6101e00151610e7c565b611f49565b6040518563ffffffff1660e01b81526004016117e694939291906137e4565b6102e06040518083038186803b1580156117ff57600080fd5b505afa158015611813573d6000803e3d6000fd5b505050506040513d601f19601f820116820180604052508101906118379190612acc565b9a909950975050505050505050565b6000831580159061185657508215155b6118725760405162461bcd60e51b81526004016103109061366b565b8161187f57506001611c75565b60025460405163eb01255960e01b81526000916001600160a01b03169063eb012559906118b0908890600401613248565b60206040518083038186803b1580156118c857600080fd5b505afa1580156118dc573d6000803e3d6000fd5b505050506040513d601f19601f82011682018060405250810190611900919061253f565b905061190a6122ee565b600254604051635e353ebb60e11b81526001600160a01b039091169063bc6a7d769061193a908990600401613223565b60806040518083038186803b15801561195257600080fd5b505afa158015611966573d6000803e3d6000fd5b505050506040513d601f19601f8201168201806040525081019061198a9190612a6a565b905060048160600151600481111561199e57fe5b14156119b35780516119af9061022c565b5091505b6119bb612315565b60025460405163e50e0ef760e01b81526001600160a01b039091169063e50e0ef7906119eb908a906004016131df565b60806040518083038186803b158015611a0357600080fd5b505afa158015611a17573d6000803e3d6000fd5b505050506040513d601f19601f82011682018060405250810190611a3b91906129ec565b90506000806000871315611a6a575060408201516001600160a01b038216611a6557826020015191505b611a83565b5081516001600160a01b038216611a8357826060015191505b6000808813611a96578760001902611a98565b875b905080866001600160a01b031663dd62ed3e84306040518363ffffffff1660e01b8152600401611ac9929190613188565b60206040518083038186803b158015611ae157600080fd5b505afa158015611af5573d6000803e3d6000fd5b505050506040513d601f19601f82011682018060405250810190611b1991906125ba565b1080611ba057506040516370a0823160e01b815281906001600160a01b038816906370a0823190611b4e908690600401613174565b60206040518083038186803b158015611b6657600080fd5b505afa158015611b7a573d6000803e3d6000fd5b505050506040513d601f19601f82011682018060405250810190611b9e91906125ba565b105b15611bea57897f4f269a19b64cfff0bdee7fd3cdaec44e1fe38ce2ff55d3009a89fac6ecbe9f2c604051611bd39061352b565b60405180910390a260009650505050505050611c75565b6040516323b872dd60e01b81526001600160a01b038716906323b872dd90611c1a908590879086906004016131a2565b602060405180830381600087803b158015611c3457600080fd5b505af1158015611c48573d6000803e3d6000fd5b505050506040513d601f19601f82011682018060405250810190611c6c9190612586565b96505050505050505b9392505050565b6007620151809091046003010660010190565b62015180810282018281101561026a57600080fd5b60008080836226496581018262023ab1600483020590506004600362023ab18302010590910390600062164b09610fa0600185010205905060046105b58202058303601f019250600061098f8460500281611cfb57fe5b0590506000605061098f83020585039050600b820560301994909401606402929092018301996002600c90940290910392909201975095509350505050565b62015180810282038281111561026a57600080fd5b60025460405163eb01255960e01b815260009182916001600160a01b039091169063eb01255990611d84908890600401613248565b60206040518083038186803b158015611d9c57600080fd5b505afa158015611db0573d6000803e3d6000fd5b505050506040513d601f19601f82011682018060405250810190611dd4919061253f565b60025460405163eb01255960e01b81529192506000916001600160a01b039091169063eb01255990611e0a908990600401613291565b60206040518083038186803b158015611e2257600080fd5b505afa158015611e36573d6000803e3d6000fd5b505050506040513d601f19601f82011682018060405250810190611e5a919061253f565b9050806001600160a01b0316826001600160a01b031614611f3d5760035460405160009182916001600160a01b03909116906308a4ec1090611ea29087908790602001613188565b60405160208183030381529060405280519060200120886040518363ffffffff1660e01b8152600401611ed69291906131ff565b604080518083038186803b158015611eed57600080fd5b505afa158015611f01573d6000803e3d6000fd5b505050506040513d601f19601f82011682018060405250810190611f259190612644565b915091508015611f3a57509250611c75915050565b50505b50600095945050505050565b6000600d836021811115611f5957fe5b14156120775760035460025460405163354770f760e21b815260009283926001600160a01b03918216926308a4ec10929091169063d51dc3dc90611fa1908b90600401613262565b60206040518083038186803b158015611fb957600080fd5b505afa158015611fcd573d6000803e3d6000fd5b505050506040513d601f19601f82011682018060405250810190611ff191906125ba565b866040518363ffffffff1660e01b815260040161200f9291906131ff565b604080518083038186803b15801561202657600080fd5b505afa15801561203a573d6000803e3d6000fd5b505050506040513d601f19601f8201168201806040525081019061205e9190612644565b91509150801561207057509050611c75565b5050612092565b600183602181111561208557fe5b1415612092575042611c75565b5060009392505050565b604080516102e081019091528060008152602001600081526020016000815260200160008152602001600081526020016000815260200160008152602001600081526020016000815260200160008152602001600081526020016000815260200160008152602001600081526020016000815260200160008152602001600081526020016000815260200160008152602001600081526020016000815260200160008152602001600081525090565b6040805161062081019091528060008152602001600081526020016000815260200160008152602001600081526020016000815260200160008152602001600081526020016000815260200160006001600160a01b0316815260200160006001600160a01b031681526020016000801916815260200160008152602001600081526020016000815260200160008152602001600081526020016000815260200160008152602001600081526020016000815260200160008152602001600081526020016000815260200160008152602001600081526020016000815260200160008152602001600081526020016000815260200160008152602001600081526020016000815260200160008152602001600081526020016000815260200160008152602001600081526020016000815260200160008152602001600081526020016000815260200161229b61233c565b81526020016122a861233c565b81526020016122b561235f565b81526020016122c261235f565b81526020016122cf61235f565b81526020016122dc61235f565b81526020016122e961235f565b905290565b604080516080810182526000808252602082018190529091820190815260200160006122e9565b60408051608081018252600080825260208201819052918101829052606081019190915290565b6040805160608101909152600080825260208201905b8152600060209091015290565b60408051608081019091526000808252602082019081526020016000612352565b803561099481613b05565b805161099481613b05565b803561099481613b28565b805161099481613b28565b803561099481613b35565b805161099481613b35565b805161099481613b42565b803561099481613b5c565b805161099481613b5c565b803561099481613b69565b805161099481613b69565b803561099481613b42565b80356022811061099457600080fd5b803561099481613b76565b805161099481613b76565b60006080828403121561243a578081fd5b50919050565b600060808284031215612451578081fd5b6040516080810181811067ffffffffffffffff8211171561246e57fe5b806040525080915082518152602083015161248881613b42565b6020820152604083015161249b81613b35565b604082015260608301516124ae81613b1a565b6060919091015292915050565b6000606082840312156124cc578081fd5b6040516060810181811067ffffffffffffffff821117156124e957fe5b806040525080915082518152602083015161250381613b42565b6020820152604083015161251681613b1a565b6040919091015292915050565b600060208284031215612534578081fd5b8135611c7581613b05565b600060208284031215612550578081fd5b8151611c7581613b05565b6000806040838503121561256d578081fd5b823561257881613b05565b946020939093013593505050565b600060208284031215612597578081fd5b8151611c7581613b1a565b6000602082840312156125b3578081fd5b5035919050565b6000602082840312156125cb578081fd5b5051919050565b600080604083850312156125e4578182fd5b50508035926020909101359150565b600060208284031215612604578081fd5b8151611c7581613b69565b600060208284031215612620578081fd5b611c7582612404565b6000806040838503121561263b578182fd5b61257883612404565b60008060408385031215612656578182fd5b82519150602083015161266881613b1a565b809150509250929050565b60008060008060008086880361096081121561268d578283fd5b6108808082121561269c578384fd5b889750870135905067ffffffffffffffff808211156126b9578384fd5b818901915089601f8301126126cc578384fd5b8135818111156126da578485fd5b8a602080830285010111156126ed578485fd5b602083019750809650505050612707886108a08901612429565b92506127166109208801612380565b91506127256109408801612380565b90509295509295509295565b60006108808284031215612743578081fd5b61274e610620613aca565b612757836123ee565b8152612765602084016123b7565b6020820152612776604084016123d8565b6040820152612787606084016123c2565b6060820152612798608084016123a1565b60808201526127a960a084016123b7565b60a08201526127ba60c0840161241e565b60c08201526127cb60e0840161241e565b60e08201526101006127de8185016123b7565b908201526101206127f084820161238b565b9082015261014061280284820161238b565b90820152610160838101519082015261018080840151908201526101a080840151908201526101c080840151908201526101e08084015190820152610200808401519082015261022080840151908201526102408084015190820152610260808401519082015261028080840151908201526102a080840151908201526102c080840151908201526102e08084015190820152610300808401519082015261032080840151908201526103408084015190820152610360808401519082015261038080840151908201526103a080840151908201526103c080840151908201526103e08084015190820152610400808401519082015261042080840151908201526104408084015190820152610460808401519082015261048080840151908201526104a080840151908201526104c080840151908201526104e080840151908201526105008084015190820152610520808401519082015261054061296a858286016124bb565b908201526105a061297d858583016124bb565b61056083015261060061299286828701612440565b6105808401526129a6866106808701612440565b828401526129b8866107008701612440565b6105c08401526129cc866107808701612440565b6105e08401526129e0866108008701612440565b90830152509392505050565b6000608082840312156129fd578081fd5b6040516080810181811067ffffffffffffffff82111715612a1a57fe5b6040528251612a2881613b05565b81526020830151612a3881613b05565b60208201526040830151612a4b81613b05565b60408201526060830151612a5e81613b05565b60608201529392505050565b600060808284031215612a7b578081fd5b6040516080810181811067ffffffffffffffff82111715612a9857fe5b806040525082518152602083015160208201526040830151612ab981613b4f565b60408201526060830151612a5e81613b4f565b60006102e0808385031215612adf578182fd5b612ae881613aca565b9050612af3836123c2565b81526020838101519082015260408084015190820152606080840151908201526080808401519082015260a0808401519082015260c0808401519082015260e08084015190820152610100808401519082015261012080840151908201526101408084015190820152610160808401519082015261018080840151908201526101a080840151908201526101c080840151908201526101e08084015190820152610200808401519082015261022080840151908201526102408084015190820152610260808401519082015261028080840151908201526102a080840151908201526102c0928301519281019290925250919050565b60008060008060808587031215612bfe578182fd5b843593506020850135612c1081613b28565b92506040850135612c2081613b35565b9396929550929360600135925050565b600060208284031215612c41578081fd5b815160ff81168114611c75578182fd5b6001600160a01b03169052565b60098110612c6857fe5b9052565b612c6881613aee565b612c6881613afb565b600d8110612c6857fe5b60138110612c6857fe5b60228110612c6857fe5b60048110612c6857fe5b612cb882612cb3836123e3565b612c88565b612cc4602082016123ac565b612cd16020840182612c6c565b50612cde604082016123cd565b612ceb6040840182612c7e565b50612cf8606082016123f9565b612d056060840182612c75565b50612d1260808201612396565b612d1f6080840182612c5e565b50612d2c60a082016123ac565b612d3960a0840182612c6c565b50612d4660c08201612413565b612d5360c0840182612c9c565b50612d6060e08201612413565b612d6d60e0840182612c9c565b50610100612d7c8183016123ac565b612d8882850182612c6c565b5050610120612d98818301612380565b612da482850182612c51565b5050610140612db4818301612380565b612dc082850182612c51565b5050610160818101359083015261018080820135908301526101a080820135908301526101c080820135908301526101e08082013590830152610200808201359083015261022080820135908301526102408082013590830152610260808201359083015261028080820135908301526102a080820135908301526102c080820135908301526102e08082013590830152610300808201359083015261032080820135908301526103408082013590830152610360808201359083015261038080820135908301526103a080820135908301526103c080820135908301526103e08082013590830152610400808201359083015261042080820135908301526104408082013590830152610460808201359083015261048080820135908301526104a080820135908301526104c080820135908301526104e0808201359083015261050080820135908301526105208082013590830152610540612f2881840182840161301e565b506105a0612f3a81840182840161301e565b50610600612f4c818401828401612f90565b50610680612f5e818401828401612f90565b50610700612f70818401828401612f90565b50610780612f82818401828401612f90565b5061080061097e8184018284015b803582526020810135612fa281613b42565b612fab81613afb565b60208301526040810135612fbe81613b35565b612fc781613aee565b60408301526060810135612fda81613b1a565b8015156060840152505050565b805182526020810151612ff981613afb565b6020830152604081015161300c81613aee565b60408301526060908101511515910152565b80358252602081013561303081613b42565b61303981613afb565b6020830152604081013561304c81613b1a565b8015156040840152505050565b80518252602081015161306b81613afb565b60208301526040908101511515910152565b613088828251612c75565b6020818101519083015260408082015190830152606080820151908301526080808201519083015260a0808201519083015260c0808201519083015260e08082015190830152610100808201519083015261012080820151908301526101408082015190830152610160808201519083015261018080820151908301526101a080820151908301526101c080820151908301526101e08082015190830152610200808201519083015261022080820151908301526102408082015190830152610260808201519083015261028080820151908301526102a080820151908301526102c090810151910152565b6001600160a01b0391909116815260200190565b6001600160a01b0392831681529116602082015260400190565b6001600160a01b039384168152919092166020820152604081019190915260600190565b6001600160a01b03929092168252602082015260400190565b90815260200190565b9182526001600160a01b0316602082015260400190565b918252602082015260400190565b9283526020830191909152604082015260600190565b9081527231b7b73a3930b1ba2932b332b932b731b2af9960691b602082015260400190565b9081526763757272656e637960c01b602082015260400190565b9081527f6d61726b65744f626a656374436f646552617465526573657400000000000000602082015260400190565b90815271736574746c656d656e7443757272656e637960701b602082015260400190565b90815274313ab9b4b732b9b9a230bca1b7b73b32b73a34b7b760591b602082015260400190565b9081526b6d617475726974794461746560a01b602082015260400190565b9081526731b0b632b73230b960c11b602082015260400190565b6000610c808b8352613329602084018c612ca6565b6133376108a084018b61307d565b610b8083018190528201879052610ca06001600160fb1b0388111561335a578182fd5b60208802808a83860137830101908152853561337581613b05565b6001600160a01b03908116610ba084015260208701359061339582613b05565b908116610bc08401526040870135906133ad82613b05565b908116610be08401526060870135906133c582613b05565b16610c008301526133da610c20830186612c51565b6133e8610c40830185612c51565b6133f6610c60830184612c51565b9a9950505050505050505050565b8281526103008101611c75602083018461307d565b606081016134278286612c88565b6001600160a01b03938416602083015291909216604090920191909152919050565b604081016134578285612c92565b8260208301529392505050565b606081016134728286612c92565b602082019390935260400152919050565b60208082526038908201527f414e4e4163746f722e696e697469616c697a653a20434f4e54524143545f545960408201527f50455f4f465f454e47494e455f554e535550504f525445440000000000000000606082015260800190565b6020808252602b908201527f426173654163746f722e70726f6772657373576974683a20464f554e445f454160408201526a149312515497d15591539560aa1b606082015260800190565b71494e53554646494349454e545f46554e445360701b815260200190565b60208082526021908201527f426173654163746f722e70726f67726573733a204e4f5f4e4558545f4556454e6040820152601560fa1b606082015260800190565b6020808252602e908201527f426173654163746f722e70726f6772657373576974683a20464f554e445f554e60408201526d1111549316525391d7d15591539560921b606082015260800190565b6020808252602b908201527f426173654163746f722e70726f6772657373576974683a20554e415554484f5260408201526a24ad22a22fa9a2a72222a960a91b606082015260800190565b60208082526028908201527f426173654163746f722e70726f67726573733a2041535345545f444f45535f4e60408201526713d517d1561254d560c21b606082015260800190565b6020808252603b908201527f426173654163746f722e736574746c655061796f6666466f724576656e743a2060408201527f494e56414c49445f46554e4354494f4e5f504152414d45544552530000000000606082015260800190565b60208082526034908201527f426173654163746f722e70726f636573734576656e743a204e4558545f455645604082015273139517d393d517d6515517d4d0d211511553115160621b606082015260800190565b6020808252602b908201527f426173654163746f722e70726f6772657373576974683a20464f554e445f504560408201526a1391125391d7d15591539560aa1b606082015260800190565b60208082526031908201527f426173654163746f722e70726f636573734576656e743a2041535345545f524560408201527041434845445f46494e414c5f535441544560781b606082015260800190565b610880810161026a8284612ca6565b6108a081016137d68285612ca6565b826108808301529392505050565b6000610ba0820190506137f8828751612c88565b602086015161380a6020840182612c6c565b50604086015161381d6040840182612c7e565b5060608601516138306060840182612c75565b5060808601516138436080840182612c5e565b5060a086015161385660a0840182612c6c565b5060c086015161386960c0840182612c9c565b5060e086015161387c60e0840182612c9c565b506101008087015161389082850182612c6c565b5050610120808701516138a582850182612c51565b5050610140808701516138ba82850182612c51565b5050610160868101519083015261018080870151908301526101a080870151908301526101c080870151908301526101e08087015190830152610200808701519083015261022080870151908301526102408087015190830152610260808701519083015261028080870151908301526102a080870151908301526102c080870151908301526102e08087015190830152610300808701519083015261032080870151908301526103408087015190830152610360808701519083015261038080870151908301526103a080870151908301526103c080870151908301526103e08087015190830152610400808701519083015261042080870151908301526104408087015190830152610460808701519083015261048080870151908301526104a080870151908301526104c080870151908301526104e080870151908301526105008087015190830152610520808701519083015261054080870151613a2482850182613059565b50506105608601516105a0613a3b81850183613059565b6105808801519150610600613a5281860184612fe7565b818901519250613a66610680860184612fe7565b6105c08901519250613a7c610700860184612fe7565b6105e08901519250613a92610780860184612fe7565b8801519150613aa79050610800840182612fe7565b50613ab661088083018661307d565b610b60820193909352610b80015292915050565b60405181810167ffffffffffffffff81118282101715613ae657fe5b604052919050565b60028110613af857fe5b50565b60068110613af857fe5b6001600160a01b0381168114613af857600080fd5b8015158114613af857600080fd5b60098110613af857600080fd5b60028110613af857600080fd5b60068110613af857600080fd5b60058110613af857600080fd5b600d8110613af857600080fd5b60138110613af857600080fd5b60048110613af857600080fdfe4f776e61626c653a206e6577206f776e657220697320746865207a65726f2061646472657373a2646970667358221220d937e4f5067b35462503b04d07f2e2db2555e49ba22552b4c52daf9223c045ac64736f6c63430007040033",
  "linkReferences": {},
  "deployedLinkReferences": {}
}