{
  "abi": [
    {
      "inputs": [
        {
          "internalType": "contract IAssetRegistry",
          "name": "assetRegistry",
          "type": "address"
        },
        {
          "internalType": "contract IDataRegistry",
          "name": "dataRegistry",
          "type": "address"
        }
      ],
      "stateMutability": "nonpayable",
      "type": "constructor"
    },
    {
      "anonymous": false,
      "inputs": [
        {
          "indexed": true,
          "internalType": "bytes32",
          "name": "assetId",
          "type": "bytes32"
        },
        {
          "indexed": false,
          "internalType": "enum ContractType",
          "name": "contractType",
          "type": "uint8"
        },
        {
          "indexed": false,
          "internalType": "address",
          "name": "creator",
          "type": "address"
        },
        {
          "indexed": false,
          "internalType": "address",
          "name": "counterparty",
          "type": "address"
        }
      ],
      "name": "InitializedAsset",
      "type": "event"
    },
    {
      "anonymous": false,
      "inputs": [
        {
          "indexed": true,
          "internalType": "address",
          "name": "previousOwner",
          "type": "address"
        },
        {
          "indexed": true,
          "internalType": "address",
          "name": "newOwner",
          "type": "address"
        }
      ],
      "name": "OwnershipTransferred",
      "type": "event"
    },
    {
      "anonymous": false,
      "inputs": [
        {
          "indexed": true,
          "internalType": "bytes32",
          "name": "assetId",
          "type": "bytes32"
        },
        {
          "indexed": false,
          "internalType": "enum EventType",
          "name": "eventType",
          "type": "uint8"
        },
        {
          "indexed": false,
          "internalType": "uint256",
          "name": "scheduleTime",
          "type": "uint256"
        },
        {
          "indexed": false,
          "internalType": "int256",
          "name": "payoff",
          "type": "int256"
        }
      ],
      "name": "ProgressedAsset",
      "type": "event"
    },
    {
      "anonymous": false,
      "inputs": [
        {
          "indexed": true,
          "internalType": "bytes32",
          "name": "assetId",
          "type": "bytes32"
        },
        {
          "indexed": false,
          "internalType": "bytes32",
          "name": "statusMessage",
          "type": "bytes32"
        }
      ],
      "name": "Status",
      "type": "event"
    },
    {
      "inputs": [],
      "name": "assetRegistry",
      "outputs": [
        {
          "internalType": "contract IAssetRegistry",
          "name": "",
          "type": "address"
        }
      ],
      "stateMutability": "view",
      "type": "function"
    },
    {
      "inputs": [],
      "name": "dataRegistry",
      "outputs": [
        {
          "internalType": "contract IDataRegistry",
          "name": "",
          "type": "address"
        }
      ],
      "stateMutability": "view",
      "type": "function"
    },
    {
      "inputs": [
        {
          "internalType": "bytes32",
          "name": "object",
          "type": "bytes32"
        }
      ],
      "name": "decodeCollateralObject",
      "outputs": [
        {
          "internalType": "address",
          "name": "",
          "type": "address"
        },
        {
          "internalType": "uint256",
          "name": "",
          "type": "uint256"
        }
      ],
      "stateMutability": "pure",
      "type": "function"
    },
    {
      "inputs": [
        {
          "internalType": "address",
          "name": "collateralToken",
          "type": "address"
        },
        {
          "internalType": "uint256",
          "name": "collateralAmount",
          "type": "uint256"
        }
      ],
      "name": "encodeCollateralAsObject",
      "outputs": [
        {
          "internalType": "bytes32",
          "name": "",
          "type": "bytes32"
        }
      ],
      "stateMutability": "pure",
      "type": "function"
    },
    {
      "inputs": [
        {
          "components": [
            {
              "internalType": "enum ContractType",
              "name": "contractType",
              "type": "uint8"
            },
            {
              "internalType": "enum Calendar",
              "name": "calendar",
              "type": "uint8"
            },
            {
              "internalType": "enum ContractRole",
              "name": "contractRole",
              "type": "uint8"
            },
            {
              "internalType": "enum DayCountConvention",
              "name": "dayCountConvention",
              "type": "uint8"
            },
            {
              "internalType": "enum BusinessDayConvention",
              "name": "businessDayConvention",
              "type": "uint8"
            },
            {
              "internalType": "enum EndOfMonthConvention",
              "name": "endOfMonthConvention",
              "type": "uint8"
            },
            {
              "internalType": "enum FeeBasis",
              "name": "feeBasis",
              "type": "uint8"
            },
            {
              "internalType": "enum ContractPerformance",
              "name": "creditEventTypeCovered",
              "type": "uint8"
            },
            {
              "internalType": "address",
              "name": "currency",
              "type": "address"
            },
            {
              "internalType": "address",
              "name": "settlementCurrency",
              "type": "address"
            },
            {
              "internalType": "uint256",
              "name": "contractDealDate",
              "type": "uint256"
            },
            {
              "internalType": "uint256",
              "name": "statusDate",
              "type": "uint256"
            },
            {
              "internalType": "uint256",
              "name": "maturityDate",
              "type": "uint256"
            },
            {
              "internalType": "uint256",
              "name": "purchaseDate",
              "type": "uint256"
            },
            {
              "internalType": "uint256",
              "name": "cycleAnchorDateOfFee",
              "type": "uint256"
            },
            {
              "internalType": "int256",
              "name": "notionalPrincipal",
              "type": "int256"
            },
            {
              "internalType": "int256",
              "name": "delinquencyRate",
              "type": "int256"
            },
            {
              "internalType": "int256",
              "name": "feeAccrued",
              "type": "int256"
            },
            {
              "internalType": "int256",
              "name": "feeRate",
              "type": "int256"
            },
            {
              "internalType": "int256",
              "name": "priceAtPurchaseDate",
              "type": "int256"
            },
            {
              "internalType": "int256",
              "name": "coverageOfCreditEnhancement",
              "type": "int256"
            },
            {
              "components": [
                {
                  "internalType": "uint256",
                  "name": "i",
                  "type": "uint256"
                },
                {
                  "internalType": "enum P",
                  "name": "p",
                  "type": "uint8"
                },
                {
                  "internalType": "bool",
                  "name": "isSet",
                  "type": "bool"
                }
              ],
              "internalType": "struct IP",
              "name": "gracePeriod",
              "type": "tuple"
            },
            {
              "components": [
                {
                  "internalType": "uint256",
                  "name": "i",
                  "type": "uint256"
                },
                {
                  "internalType": "enum P",
                  "name": "p",
                  "type": "uint8"
                },
                {
                  "internalType": "bool",
                  "name": "isSet",
                  "type": "bool"
                }
              ],
              "internalType": "struct IP",
              "name": "delinquencyPeriod",
              "type": "tuple"
            },
            {
              "components": [
                {
                  "internalType": "uint256",
                  "name": "i",
                  "type": "uint256"
                },
                {
                  "internalType": "enum P",
                  "name": "p",
                  "type": "uint8"
                },
                {
                  "internalType": "enum S",
                  "name": "s",
                  "type": "uint8"
                },
                {
                  "internalType": "bool",
                  "name": "isSet",
                  "type": "bool"
                }
              ],
              "internalType": "struct IPS",
              "name": "cycleOfFee",
              "type": "tuple"
            },
            {
              "components": [
                {
                  "internalType": "bytes32",
                  "name": "object",
                  "type": "bytes32"
                },
                {
                  "internalType": "bytes32",
                  "name": "object2",
                  "type": "bytes32"
                },
                {
                  "internalType": "enum ContractReferenceType",
                  "name": "_type",
                  "type": "uint8"
                },
                {
                  "internalType": "enum ContractReferenceRole",
                  "name": "role",
                  "type": "uint8"
                }
              ],
              "internalType": "struct ContractReference",
              "name": "contractReference_1",
              "type": "tuple"
            },
            {
              "components": [
                {
                  "internalType": "bytes32",
                  "name": "object",
                  "type": "bytes32"
                },
                {
                  "internalType": "bytes32",
                  "name": "object2",
                  "type": "bytes32"
                },
                {
                  "internalType": "enum ContractReferenceType",
                  "name": "_type",
                  "type": "uint8"
                },
                {
                  "internalType": "enum ContractReferenceRole",
                  "name": "role",
                  "type": "uint8"
                }
              ],
              "internalType": "struct ContractReference",
              "name": "contractReference_2",
              "type": "tuple"
            }
          ],
          "internalType": "struct CEGTerms",
          "name": "terms",
          "type": "tuple"
        },
        {
          "internalType": "bytes32[]",
          "name": "schedule",
          "type": "bytes32[]"
        },
        {
          "components": [
            {
              "internalType": "address",
              "name": "creatorObligor",
              "type": "address"
            },
            {
              "internalType": "address",
              "name": "creatorBeneficiary",
              "type": "address"
            },
            {
              "internalType": "address",
              "name": "counterpartyObligor",
              "type": "address"
            },
            {
              "internalType": "address",
              "name": "counterpartyBeneficiary",
              "type": "address"
            }
          ],
          "internalType": "struct AssetOwnership",
          "name": "ownership",
          "type": "tuple"
        },
        {
          "internalType": "address",
          "name": "engine",
          "type": "address"
        },
        {
          "internalType": "address",
          "name": "admin",
          "type": "address"
        }
      ],
      "name": "initialize",
      "outputs": [],
      "stateMutability": "nonpayable",
      "type": "function"
    },
    {
      "inputs": [],
      "name": "owner",
      "outputs": [
        {
          "internalType": "address",
          "name": "",
          "type": "address"
        }
      ],
      "stateMutability": "view",
      "type": "function"
    },
    {
      "inputs": [
        {
          "internalType": "bytes32",
          "name": "assetId",
          "type": "bytes32"
        }
      ],
      "name": "progress",
      "outputs": [],
      "stateMutability": "nonpayable",
      "type": "function"
    },
    {
      "inputs": [
        {
          "internalType": "bytes32",
          "name": "assetId",
          "type": "bytes32"
        },
        {
          "internalType": "bytes32",
          "name": "_event",
          "type": "bytes32"
        }
      ],
      "name": "progressWith",
      "outputs": [],
      "stateMutability": "nonpayable",
      "type": "function"
    },
    {
      "inputs": [],
      "name": "renounceOwnership",
      "outputs": [],
      "stateMutability": "nonpayable",
      "type": "function"
    },
    {
      "inputs": [
        {
          "internalType": "uint256",
          "name": "timestamp",
          "type": "uint256"
        },
        {
          "internalType": "enum BusinessDayConvention",
          "name": "convention",
          "type": "uint8"
        },
        {
          "internalType": "enum Calendar",
          "name": "calendar",
          "type": "uint8"
        },
        {
          "internalType": "uint256",
          "name": "maturityDate",
          "type": "uint256"
        }
      ],
      "name": "shiftCalcTime",
      "outputs": [
        {
          "internalType": "uint256",
          "name": "",
          "type": "uint256"
        }
      ],
      "stateMutability": "pure",
      "type": "function"
    },
    {
      "inputs": [
        {
          "internalType": "uint256",
          "name": "timestamp",
          "type": "uint256"
        },
        {
          "internalType": "enum BusinessDayConvention",
          "name": "convention",
          "type": "uint8"
        },
        {
          "internalType": "enum Calendar",
          "name": "calendar",
          "type": "uint8"
        },
        {
          "internalType": "uint256",
          "name": "maturityDate",
          "type": "uint256"
        }
      ],
      "name": "shiftEventTime",
      "outputs": [
        {
          "internalType": "uint256",
          "name": "",
          "type": "uint256"
        }
      ],
      "stateMutability": "pure",
      "type": "function"
    },
    {
      "inputs": [
        {
          "internalType": "address",
          "name": "newOwner",
          "type": "address"
        }
      ],
      "name": "transferOwnership",
      "outputs": [],
      "stateMutability": "nonpayable",
      "type": "function"
    }
  ],
  "address": "0x5DB04e348C343027993618A15Ae7Ba285dda1708",
  "args": [
    "0x89E5C5d824F63add4Bb7E17cA7B9BA462CD51A70",
    "0xf8a1BfCC2d1d5FaD14B04BE317bf84C272560a62"
  ],
  "solcInputHash": "0x641332b4189abe50474574ba46977bd7f0a689fca4e1c1910dccc48384971409",
  "bytecode": "0x60806040523480156200001157600080fd5b5060405162003ffc38038062003ffc8339810160408190526200003491620000c5565b8181600062000042620000c1565b600080546001600160a01b0319166001600160a01b0383169081178255604051929350917f8be0079c531659141344cd1fd0a4f28419497f9722a3daafe3b4186f6b6457e0908290a350600180546001600160a01b039384166001600160a01b03199182161790915560028054929093169116179055506200011c9050565b3390565b60008060408385031215620000d8578182fd5b8251620000e58162000103565b6020840151909250620000f88162000103565b809150509250929050565b6001600160a01b03811681146200011957600080fd5b50565b613ed0806200012c6000396000f3fe608060405234801561001057600080fd5b50600436106100b45760003560e01c8063979d7e8611610071578063979d7e8614610148578063a39c1d6b14610150578063ce892c9714610158578063e726d6801461016b578063f2fde38b1461017e578063f5586e0514610191576100b4565b8063645a26bd146100b95780636778e0e9146100e35780636b6ba66414610103578063715018a6146101185780637aebd2a8146101205780638da5cb5b14610133575b600080fd5b6100cc6100c7366004612a5f565b6101a4565b6040516100da929190613461565b60405180910390f35b6100f66100f1366004612a18565b6101bd565b6040516100da919061347a565b610116610111366004612a8f565b6101e8565b005b6101166104a2565b61011661012e366004612a5f565b610556565b61013b6107b4565b6040516100da919061340f565b61013b6107c3565b61013b6107d2565b610116610166366004612b95565b6107e1565b6100f6610179366004612f30565b610a63565b61011661018c3660046129e0565b610bb8565b6100f661019f366004612f30565b610cc2565b606081901c6bffffffffffffffffffffffff8216915091565b6bffffffffffffffffffffffff19606083901b166bffffffffffffffffffffffff8216175b92915050565b60015460405163747be51f60e11b81526001600160a01b039091169063e8f7ca3e9061021a9085903390600401613483565b602060405180830381600087803b15801561023457600080fd5b505af1158015610248573d6000803e3d6000fd5b505050506040513d601f19601f8201168201806040525081019061026c9190612a43565b6102915760405162461bcd60e51b815260040161028890613970565b60405180910390fd5b60015460405163f52f84e160e01b81526000916001600160a01b03169063f52f84e1906102c290869060040161347a565b60206040518083038186803b1580156102da57600080fd5b505afa1580156102ee573d6000803e3d6000fd5b505050506040513d601f19601f820116820180604052508101906103129190612a77565b1461032f5760405162461bcd60e51b815260040161028890613ab4565b600154604051631d7a1ab960e21b81526000916001600160a01b0316906375e86ae49061036090869060040161347a565b60206040518083038186803b15801561037857600080fd5b505afa15801561038c573d6000803e3d6000fd5b505050506040513d601f19601f820116820180604052508101906103b09190612a77565b146103cd5760405162461bcd60e51b815260040161028890613922565b60015460405163b828204160e01b8152600091610459916001600160a01b039091169063b82820419061040490879060040161347a565b60206040518083038186803b15801561041c57600080fd5b505afa158015610430573d6000803e3d6000fd5b505050506040513d601f19601f820116820180604052508101906104549190612a77565b610d36565b915050600061046783610d36565b91505081158061047657508181105b6104925760405162461bcd60e51b815260040161028890613823565b61049c8484610d5f565b50505050565b6104aa6112f6565b6000546001600160a01b0390811691161461050c576040805162461bcd60e51b815260206004820181905260248201527f4f776e61626c653a2063616c6c6572206973206e6f7420746865206f776e6572604482015290519081900360640190fd5b600080546040516001600160a01b03909116907f8be0079c531659141344cd1fd0a4f28419497f9722a3daafe3b4186f6b6457e0908390a3600080546001600160a01b0319169055565b600154604051631392c59160e11b81526001600160a01b03909116906327258b229061058690849060040161347a565b60206040518083038186803b15801561059e57600080fd5b505afa1580156105b2573d6000803e3d6000fd5b505050506040513d601f19601f820116820180604052508101906105d69190612a43565b6105f25760405162461bcd60e51b8152600401610288906139bb565b600154604051630316dd6960e21b81526000916001600160a01b031690630c5b75a49061062390859060040161347a565b602060405180830381600087803b15801561063d57600080fd5b505af1158015610651573d6000803e3d6000fd5b505050506040513d601f19601f820116820180604052508101906106759190612a77565b9050806106ff57600154604051631d7a1ab960e21b81526001600160a01b03909116906375e86ae4906106ac90859060040161347a565b60206040518083038186803b1580156106c457600080fd5b505afa1580156106d8573d6000803e3d6000fd5b505050506040513d601f19601f820116820180604052508101906106fc9190612a77565b90505b80610789576001546040516361db73e160e11b81526001600160a01b039091169063c3b6e7c29061073490859060040161347a565b602060405180830381600087803b15801561074e57600080fd5b505af1158015610762573d6000803e3d6000fd5b505050506040513d601f19601f820116820180604052508101906107869190612a77565b90505b806107a65760405162461bcd60e51b81526004016102889061388c565b6107b08282610d5f565b5050565b6000546001600160a01b031690565b6001546001600160a01b031681565b6002546001600160a01b031681565b6001600160a01b0382161580159061087457506010826001600160a01b031663cb2ef6f76040518163ffffffff1660e01b815260040160206040518083038186803b15801561082f57600080fd5b505afa158015610843573d6000803e3d6000fd5b505050506040513d601f19601f820116820180604052508101906108679190612acc565b601281111561087257fe5b145b6108905760405162461bcd60e51b815260040161028890613769565b600086426040516020016108a5929190613b5f565b60408051601f198184030181529190528051602090910120905060036108d361046089016104408a01612ab0565b60048111156108de57fe5b1415610906576103e08701356109065760405162461bcd60e51b8152600401610288906137c6565b61090e6125c4565b6040516367b5811760e01b81526001600160a01b038516906367b581179061093a908b90600401613b50565b6102e06040518083038186803b15801561095357600080fd5b505afa158015610967573d6000803e3d6000fd5b505050506040513d601f19601f8201168201806040525081019061098b9190612e13565b60015460405163af3c5d2560e01b81529192506001600160a01b03169063af3c5d25906109cc9085908c9086908d908d908d908d9030908e90600401613612565b600060405180830381600087803b1580156109e657600080fd5b505af11580156109fa573d6000803e3d6000fd5b508492507fc5df678b84aa92f5f59981df8c9997b366d886de25771c5f753015c2e14e907a915060109050610a3260208901896129e0565b610a4260608a0160408b016129e0565b604051610a5193929190613717565b60405180910390a25050505050505050565b600081851415610a74575083610bb0565b6001846008811115610a8257fe5b1480610a9957506003846008811115610a9757fe5b145b15610aaf57610aa885846112fa565b9050610bb0565b6002846008811115610abd57fe5b1480610ad457506004846008811115610ad257fe5b145b15610b18576000610ae586856112fa565b9050610af086611356565b610af982611356565b1415610b06579050610bb0565b610b10868561136e565b915050610bb0565b6005846008811115610b2657fe5b1480610b3d57506007846008811115610b3b57fe5b145b15610b4c57610aa8858461136e565b6006846008811115610b5a57fe5b1480610b7157506008846008811115610b6f57fe5b145b15610bad576000610b82868561136e565b9050610b8d86611356565b610b9682611356565b1415610ba3579050610bb0565b610b1086856112fa565b50835b949350505050565b610bc06112f6565b6000546001600160a01b03908116911614610c22576040805162461bcd60e51b815260206004820181905260248201527f4f776e61626c653a2063616c6c6572206973206e6f7420746865206f776e6572604482015290519081900360640190fd5b6001600160a01b038116610c675760405162461bcd60e51b8152600401808060200182810382526026815260200180613dfa6026913960400191505060405180910390fd5b600080546040516001600160a01b03808516939216917f8be0079c531659141344cd1fd0a4f28419497f9722a3daafe3b4186f6b6457e091a3600080546001600160a01b0319166001600160a01b0392909216919091179055565b60006003846008811115610cd257fe5b1480610ce957506004846008811115610ce757fe5b145b80610cff57506007846008811115610cfd57fe5b145b80610d1557506008846008811115610d1357fe5b145b15610d21575083610bb0565b610d2d85858585610a63565b95945050505050565b6000808060f884901c6021811115610d4a57fe5b92505067ffffffffffffffff83169050915091565b610d676125c4565b6001546040516309648a9d60e01b81526001600160a01b03909116906309648a9d90610d9790869060040161347a565b6102e06040518083038186803b158015610db057600080fd5b505afa158015610dc4573d6000803e3d6000fd5b505050506040513d601f19601f82011682018060405250810190610de89190612e13565b9050600081516005811115610df957fe5b1480610e115750600181516005811115610e0f57fe5b145b80610e285750600281516005811115610e2657fe5b145b610e445760405162461bcd60e51b815260040161028890613aff565b600081516005811115610e5357fe5b14610edc57600154604051631ba316dd60e11b81526001600160a01b03909116906337462dba90610e8890869060040161347a565b6102e06040518083038186803b158015610ea157600080fd5b505afa158015610eb5573d6000803e3d6000fd5b505050506040513d601f19601f82011682018060405250810190610ed99190612e13565b90505b600080610ee884610d36565b60015460405163ecef557760e01b815292945090925042916110929184916001600160a01b039091169063ecef557790610f26908b9060040161356b565b60206040518083038186803b158015610f3e57600080fd5b505afa158015610f52573d6000803e3d6000fd5b505050506040513d601f19601f82011682018060405250810190610f769190612f77565b60ff166008811115610f8457fe5b60015460405163ecef557760e01b81526001600160a01b039091169063ecef557790610fb4908c906004016135d3565b60206040518083038186803b158015610fcc57600080fd5b505afa158015610fe0573d6000803e3d6000fd5b505050506040513d601f19601f820116820180604052508101906110049190612f77565b60ff16600181111561101257fe5b60015460405163135b9f4d60e01b81526001600160a01b039091169063135b9f4d90611042908d90600401613592565b60206040518083038186803b15801561105a57600080fd5b505afa15801561106e573d6000803e3d6000fd5b505050506040513d601f19601f820116820180604052508101906101799190612a77565b11156110b05760405162461bcd60e51b815260040161028890613a60565b6110b86125c4565b60006110c58786886113bc565b9150915060006110d6888884611642565b9050806111da576000865160058111156110ec57fe5b14156111575760015460405163842962d560e01b81526001600160a01b039091169063842962d590611124908b908a90600401613702565b600060405180830381600087803b15801561113e57600080fd5b505af1158015611152573d6000803e3d6000fd5b505050505b60015460405163d981e77360e01b81526001600160a01b039091169063d981e77390611189908b908b9060040161349a565b600060405180830381600087803b1580156111a357600080fd5b505af11580156111b7573d6000803e3d6000fd5b5050505060006111c8600186611a78565b90506111d58985836113bc565b509350505b600154604051631d306b7f60e11b81526001600160a01b0390911690633a60d6fe9061120c908b908790600401613702565b600060405180830381600087803b15801561122657600080fd5b505af115801561123a573d6000803e3d6000fd5b50505050801515600114156112b05760015460405163de07a17360e01b81526001600160a01b039091169063de07a1739061127d908b908b9087906004016134a8565b600060405180830381600087803b15801561129757600080fd5b505af11580156112ab573d6000803e3d6000fd5b505050505b877fd255be8589971f117e0e4377177282fb7cce66e378bfb1b7eafddd05e4f181e96001831515146112e35760016112e5565b865b8685604051610a5193929190613747565b3390565b6000600182600181111561130a57fe5b141561134f5761131983611a96565b600614156113335761132c836002611aa9565b90506101e2565b61133c83611a96565b6007141561134f5761132c836001611aa9565b5090919050565b6000611366620151808304611abe565b509392505050565b6000600182600181111561137e57fe5b141561134f5761138d83611a96565b600614156113a05761132c836001611b54565b6113a983611a96565b6007141561134f5761132c836002611b54565b6113c46125c4565b60015460405163ee43eda160e01b815260009182916001600160a01b039091169063ee43eda1906113f990899060040161347a565b60206040518083038186803b15801561141157600080fd5b505afa158015611425573d6000803e3d6000fd5b505050506040513d601f19601f8201168201806040525081019061144991906129fc565b9050611453612673565b6001546040516335f1cded60e11b81526001600160a01b0390911690636be39bda90611483908a9060040161347a565b6104e06040518083038186803b15801561149c57600080fd5b505afa1580156114b0573d6000803e3d6000fd5b505050506040513d601f19601f820116820180604052508101906114d49190612c53565b90506000806114e287610d36565b915091506000846001600160a01b0316639d2f2e54858b8b61151d8f896115188a8d608001518e602001518f6101800151610cc2565b611b69565b6040518563ffffffff1660e01b815260040161153c9493929190613b7c565b60206040518083038186803b15801561155457600080fd5b505afa158015611568573d6000803e3d6000fd5b505050506040513d601f19601f8201168201806040525081019061158c9190612a77565b9050846001600160a01b031663de4d3fa1858b8b6115c38f896115be8a8d608001518e602001518f6101800151610cc2565b611d63565b6040518563ffffffff1660e01b81526004016115e29493929190613b7c565b6102e06040518083038186803b1580156115fb57600080fd5b505afa15801561160f573d6000803e3d6000fd5b505050506040513d601f19601f820116820180604052508101906116339190612e13565b9a909950975050505050505050565b6000831580159061165257508215155b61166e5760405162461bcd60e51b815260040161028890613a03565b8161167b57506001611a71565b60015460405163eb01255960e01b81526000916001600160a01b03169063eb012559906116ac9088906004016134e3565b60206040518083038186803b1580156116c457600080fd5b505afa1580156116d8573d6000803e3d6000fd5b505050506040513d601f19601f820116820180604052508101906116fc91906129fc565b9050611706612766565b600154604051635e353ebb60e11b81526001600160a01b039091169063bc6a7d76906117369089906004016134be565b60806040518083038186803b15801561174e57600080fd5b505afa158015611762573d6000803e3d6000fd5b505050506040513d601f19601f820116820180604052508101906117869190612df8565b905060048160600151600481111561179a57fe5b14156117af5780516117ab906101a4565b5091505b6117b761278d565b60015460405163e50e0ef760e01b81526001600160a01b039091169063e50e0ef7906117e7908a9060040161347a565b60806040518083038186803b1580156117ff57600080fd5b505afa158015611813573d6000803e3d6000fd5b505050506040513d601f19601f820116820180604052508101906118379190612b17565b90506000806000871315611866575060408201516001600160a01b03821661186157826020015191505b61187f565b5081516001600160a01b03821661187f57826060015191505b6000808813611892578760001902611894565b875b905080866001600160a01b031663dd62ed3e84306040518363ffffffff1660e01b81526004016118c5929190613423565b60206040518083038186803b1580156118dd57600080fd5b505afa1580156118f1573d6000803e3d6000fd5b505050506040513d601f19601f820116820180604052508101906119159190612a77565b108061199c57506040516370a0823160e01b815281906001600160a01b038816906370a082319061194a90869060040161340f565b60206040518083038186803b15801561196257600080fd5b505afa158015611976573d6000803e3d6000fd5b505050506040513d601f19601f8201168201806040525081019061199a9190612a77565b105b156119e657897f4f269a19b64cfff0bdee7fd3cdaec44e1fe38ce2ff55d3009a89fac6ecbe9f2c6040516119cf9061386e565b60405180910390a260009650505050505050611a71565b6040516323b872dd60e01b81526001600160a01b038716906323b872dd90611a169085908790869060040161343d565b602060405180830381600087803b158015611a3057600080fd5b505af1158015611a44573d6000803e3d6000fd5b505050506040513d601f19601f82011682018060405250810190611a689190612a43565b96505050505050505b9392505050565b60008160f8846021811115611a8957fe5b60ff16901b179392505050565b6007620151809091046003010660010190565b6201518081028201828110156101e257600080fd5b60008080836226496581018262023ab1600483020590506004600362023ab18302010590910390600062164b09610fa0600185010205905060046105b58202058303601f019250600061098f8460500281611b1557fe5b0590506000605061098f83020585039050600b820560301994909401606402929092018301996002600c90940290910392909201975095509350505050565b6201518081028203828111156101e257600080fd5b60015460405163eb01255960e01b815260009182916001600160a01b039091169063eb01255990611b9e9088906004016134e3565b60206040518083038186803b158015611bb657600080fd5b505afa158015611bca573d6000803e3d6000fd5b505050506040513d601f19601f82011682018060405250810190611bee91906129fc565b60015460405163eb01255960e01b81529192506000916001600160a01b039091169063eb01255990611c24908990600401613547565b60206040518083038186803b158015611c3c57600080fd5b505afa158015611c50573d6000803e3d6000fd5b505050506040513d601f19601f82011682018060405250810190611c7491906129fc565b9050806001600160a01b0316826001600160a01b031614611d575760025460405160009182916001600160a01b03909116906308a4ec1090611cbc9087908790602001613423565b60405160208183030381529060405280519060200120886040518363ffffffff1660e01b8152600401611cf092919061349a565b604080518083038186803b158015611d0757600080fd5b505afa158015611d1b573d6000803e3d6000fd5b505050506040513d601f19601f82011682018060405250810190611d3f9190612ae8565b915091508015611d5457509250611a71915050565b50505b50600095945050505050565b6000600d836021811115611d7357fe5b1415611e915760025460015460405163354770f760e21b815260009283926001600160a01b03918216926308a4ec10929091169063d51dc3dc90611dbb908b90600401613518565b60206040518083038186803b158015611dd357600080fd5b505afa158015611de7573d6000803e3d6000fd5b505050506040513d601f19601f82011682018060405250810190611e0b9190612a77565b866040518363ffffffff1660e01b8152600401611e2992919061349a565b604080518083038186803b158015611e4057600080fd5b505afa158015611e54573d6000803e3d6000fd5b505050506040513d601f19601f82011682018060405250810190611e789190612ae8565b915091508015611e8a57509050611a71565b5050612482565b6001836021811115611e9f57fe5b1415611eac575042611a71565b6019836021811115611eba57fe5b14156121ed57611ec8612766565b600154604051635e353ebb60e11b81526001600160a01b039091169063bc6a7d7690611ef89088906004016135ed565b60806040518083038186803b158015611f1057600080fd5b505afa158015611f24573d6000803e3d6000fd5b505050506040513d601f19601f82011682018060405250810190611f489190612df8565b9050600381606001516004811115611f5c57fe5b141561208d5780516020820151604051631392c59160e11b81526001600160a01b038216906327258b2290611f9590859060040161347a565b60206040518083038186803b158015611fad57600080fd5b505afa158015611fc1573d6000803e3d6000fd5b505050506040513d601f19601f82011682018060405250810190611fe59190612a43565b15156001146120065760405162461bcd60e51b8152600401610288906138cd565b604051636a899b9b60e01b81526001600160a01b03821690636a899b9b906120329085906004016135b0565b60206040518083038186803b15801561204a57600080fd5b505afa15801561205e573d6000803e3d6000fd5b505050506040513d601f19601f820116820180604052508101906120829190612a77565b9350611a7192505050565b612095612766565b600154604051635e353ebb60e11b81526001600160a01b039091169063bc6a7d76906120c59089906004016134be565b60806040518083038186803b1580156120dd57600080fd5b505afa1580156120f1573d6000803e3d6000fd5b505050506040513d601f19601f820116820180604052508101906121159190612df8565b905060028160400151600481111561212957fe5b148015612145575060008160600151600481111561214357fe5b145b15611e8a576002548151604051628a4ec160e41b815260009283926001600160a01b03909116916308a4ec1091612180918a9060040161349a565b604080518083038186803b15801561219757600080fd5b505afa1580156121ab573d6000803e3d6000fd5b505050506040513d601f19601f820116820180604052508101906121cf9190612ae8565b9150915080156121e457509250611a71915050565b50505050612482565b60138360218111156121fb57fe5b141561248257612209612766565b600154604051635e353ebb60e11b81526001600160a01b039091169063bc6a7d76906122399088906004016135ed565b60806040518083038186803b15801561225157600080fd5b505afa158015612265573d6000803e3d6000fd5b505050506040513d601f19601f820116820180604052508101906122899190612df8565b905060028160400151600481111561229d57fe5b1480156122b957506000816060015160048111156122b757fe5b145b15612478576002548151604051628a4ec160e41b815260009283926001600160a01b03909116916308a4ec10916122f491899060040161349a565b604080518083038186803b15801561230b57600080fd5b505afa15801561231f573d6000803e3d6000fd5b505050506040513d601f19601f820116820180604052508101906123439190612ae8565b600254855160015460405163135b9f4d60e01b815294965092945060009384936001600160a01b03938416936308a4ec10939291169063135b9f4d9061238d908f906004016134fd565b60206040518083038186803b1580156123a557600080fd5b505afa1580156123b9573d6000803e3d6000fd5b505050506040513d601f19601f820116820180604052508101906123dd9190612a77565b6040518363ffffffff1660e01b81526004016123fa92919061349a565b604080518083038186803b15801561241157600080fd5b505afa158015612425573d6000803e3d6000fd5b505050506040513d601f19601f820116820180604052508101906124499190612ae8565b915091508280156124575750805b1561247357612466848361248c565b9550611a71945050505050565b505050505b5060009050611a71565b5060009392505050565b6000816124ca5760405162461bcd60e51b8152600401808060200182810382526024815260200180613e776024913960400191505060405180910390fd5b826124d7575060006101e2565b670de0b6b3a7640000838102908482816124ed57fe5b051461252a5760405162461bcd60e51b8152600401808060200182810382526026815260200180613e516026913960400191505060405180910390fd5b8260001914801561253e5750600160ff1b84145b1561257a5760405162461bcd60e51b8152600401808060200182810382526026815260200180613e516026913960400191505060405180910390fd5b600083828161258557fe5b05905080610bb05760405162461bcd60e51b8152600401808060200182810382526031815260200180613e206031913960400191505060405180910390fd5b604080516102e081019091528060008152602001600081526020016000815260200160008152602001600081526020016000815260200160008152602001600081526020016000815260200160008152602001600081526020016000815260200160008152602001600081526020016000815260200160008152602001600081526020016000815260200160008152602001600081526020016000815260200160008152602001600081525090565b60408051610340810190915280600081526020016000815260200160008152602001600081526020016000815260200160008152602001600081526020016000815260200160006001600160a01b0316815260200160006001600160a01b03168152602001600081526020016000815260200160008152602001600081526020016000815260200160008152602001600081526020016000815260200160008152602001600081526020016000815260200161272d6127b4565b815260200161273a6127b4565b81526020016127476127d7565b8152602001612754612766565b8152602001612761612766565b905290565b60408051608081018252600080825260208201819052909182019081526020016000612761565b60408051608081018252600080825260208201819052918101829052606081019190915290565b6040805160608101909152600080825260208201905b8152600060209091015290565b604080516080810190915260008082526020820190815260200160006127ca565b803561280381613d88565b919050565b805161280381613d88565b803561280381613dab565b805161280381613dab565b803561280381613db8565b805161280381613db8565b803561280381613dc5565b805161280381613dc5565b803561280381613ddf565b805161280381613ddf565b803561280381613dec565b805161280381613dec565b600060808284031215612892578081fd5b50919050565b6000608082840312156128a9578081fd5b6040516080810181811067ffffffffffffffff821117156128c657fe5b8060405250809150825181526020830151602082015260408301516128ea81613dd2565b604082015260608301516128fd81613dd2565b6060919091015292915050565b60006080828403121561291b578081fd5b6040516080810181811067ffffffffffffffff8211171561293857fe5b806040525080915082518152602083015161295281613dc5565b6020820152604083015161296581613db8565b604082015260608301516128fd81613d9d565b600060608284031215612989578081fd5b6040516060810181811067ffffffffffffffff821117156129a657fe5b80604052508091508251815260208301516129c081613dc5565b602082015260408301516129d381613d9d565b6040919091015292915050565b6000602082840312156129f1578081fd5b8135611a7181613d88565b600060208284031215612a0d578081fd5b8151611a7181613d88565b60008060408385031215612a2a578081fd5b8235612a3581613d88565b946020939093013593505050565b600060208284031215612a54578081fd5b8151611a7181613d9d565b600060208284031215612a70578081fd5b5035919050565b600060208284031215612a88578081fd5b5051919050565b60008060408385031215612aa1578182fd5b50508035926020909101359150565b600060208284031215612ac1578081fd5b8135611a7181613dd2565b600060208284031215612add578081fd5b8151611a7181613dec565b60008060408385031215612afa578182fd5b825191506020830151612b0c81613d9d565b809150509250929050565b600060808284031215612b28578081fd5b6040516080810181811067ffffffffffffffff82111715612b4557fe5b6040528251612b5381613d88565b81526020830151612b6381613d88565b60208201526040830151612b7681613d88565b60408201526060830151612b8981613d88565b60608201529392505050565b6000806000806000808688036105c0811215612baf578283fd5b6104e080821215612bbe578384fd5b889750870135905067ffffffffffffffff80821115612bdb578384fd5b818901915089601f830112612bee578384fd5b813581811115612bfc578485fd5b8a60208083028501011115612c0f578485fd5b602083019750809650505050612c29886105008901612881565b9250612c3861058088016127f8565b9150612c476105a088016127f8565b90509295509295509295565b60006104e08284031215612c65578081fd5b612c70610340613d43565b612c7983612876565b8152612c8760208401612834565b6020820152612c9860408401612860565b6040820152612ca96060840161284a565b6060820152612cba6080840161281e565b6080820152612ccb60a08401612834565b60a0820152612cdc60c08401612834565b60c0820152612ced60e0840161284a565b60e0820152610100612d00818501612808565b90820152610120612d12848201612808565b908201526101408381015190820152610160808401519082015261018080840151908201526101a080840151908201526101c080840151908201526101e08084015190820152610200808401519082015261022080840151908201526102408084015190820152610260808401519082015261028080840151908201526102a0612d9e85828601612978565b90820152610300612db185858301612978565b6102c0830152612dc585610360860161290a565b6102e0830152612dd9856103e08601612898565b90820152612deb846104608501612898565b6103208201529392505050565b600060808284031215612e09578081fd5b611a718383612898565b60006102e0808385031215612e26578182fd5b612e2f81613d43565b9050612e3a8361284a565b81526020838101519082015260408084015190820152606080840151908201526080808401519082015260a0808401519082015260c0808401519082015260e08084015190820152610100808401519082015261012080840151908201526101408084015190820152610160808401519082015261018080840151908201526101a080840151908201526101c080840151908201526101e08084015190820152610200808401519082015261022080840151908201526102408084015190820152610260808401519082015261028080840151908201526102a080840151908201526102c0928301519281019290925250919050565b60008060008060808587031215612f45578182fd5b843593506020850135612f5781613dab565b92506040850135612f6781613db8565b9396929550929360600135925050565b600060208284031215612f88578081fd5b815160ff81168114611a71578182fd5b6001600160a01b03169052565b60098110612faf57fe5b9052565b612faf81613d67565b612faf81613d74565b600d8110612faf57fe5b60138110612faf57fe5b612feb82612fe68361286b565b612fcf565b612ff760208201612829565b6130046020840182612fb3565b5061301160408201612855565b61301e6040840182612fc5565b5061302b6060820161283f565b6130386060840182612fbc565b5061304560808201612813565b6130526080840182612fa5565b5061305f60a08201612829565b61306c60a0840182612fb3565b5061307960c08201612829565b61308660c0840182612fb3565b5061309360e0820161283f565b6130a060e0840182612fbc565b506101006130af8183016127f8565b6130bb82850182612f98565b50506101206130cb8183016127f8565b6130d782850182612f98565b50506101408181013590830152610160808201359083015261018080820135908301526101a080820135908301526101c080820135908301526101e08082013590830152610200808201359083015261022080820135908301526102408082013590830152610260808201359083015261028080820135908301526102a06131638184018284016132b9565b506103006131758184018284016132b9565b5061036061318781840182840161322b565b506103e06131998184018284016131b0565b506104606131ab8184018284016131b0565b505050565b803582526020810135602083015260408101356131cc81613dd2565b6131d581613d7e565b604083015260608101356131e881613dd2565b6131f181613d7e565b806060840152505050565b8051825260208101516020830152604081015161321881613d7e565b604083015260608101516131f181613d7e565b80358252602081013561323d81613dc5565b61324681613d74565b6020830152604081013561325981613db8565b61326281613d67565b6040830152606081013561327581613d9d565b8015156060840152505050565b80518252602081015161329481613d74565b602083015260408101516132a781613d67565b60408301526060908101511515910152565b8035825260208101356132cb81613dc5565b6132d481613d74565b602083015260408101356132e781613d9d565b8015156040840152505050565b80518252602081015161330681613d74565b60208301526040908101511515910152565b613323828251612fbc565b6020818101519083015260408082015190830152606080820151908301526080808201519083015260a0808201519083015260c0808201519083015260e08082015190830152610100808201519083015261012080820151908301526101408082015190830152610160808201519083015261018080820151908301526101a080820151908301526101c080820151908301526101e08082015190830152610200808201519083015261022080820151908301526102408082015190830152610260808201519083015261028080820151908301526102a080820151908301526102c090810151910152565b6001600160a01b0391909116815260200190565b6001600160a01b0392831681529116602082015260400190565b6001600160a01b039384168152919092166020820152604081019190915260600190565b6001600160a01b03929092168252602082015260400190565b90815260200190565b9182526001600160a01b0316602082015260400190565b918252602082015260400190565b9283526020830191909152604082015260600190565b9081527231b7b73a3930b1ba2932b332b932b731b2af9960691b602082015260400190565b9081526763757272656e637960c01b602082015260400190565b9081526869737375654461746560b81b602082015260400190565b9081527f6d61726b65744f626a656374436f646552617465526573657400000000000000602082015260400190565b90815271736574746c656d656e7443757272656e637960701b602082015260400190565b90815274313ab9b4b732b9b9a230bca1b7b73b32b73a34b7b760591b602082015260400190565b9081526b6d617475726974794461746560a01b602082015260400190565b908152701b9bdd1a5bdb985b141c9a5b98da5c185b607a1b602082015260400190565b9081526731b0b632b73230b960c11b602082015260400190565b90815272636f6e74726163745265666572656e63655f3160681b602082015260400190565b60006108e08b8352613627602084018c612fd9565b61363561050084018b613318565b6107e0830181905282018790526109006001600160fb1b03881115613658578182fd5b60208802808a83860137830101908152853561367381613d88565b6001600160a01b0390811661080084015260208701359061369382613d88565b9081166108208401526040870135906136ab82613d88565b9081166108408401526060870135906136c382613d88565b166108608301526136d8610880830186612f98565b6136e66108a0830185612f98565b6136f46108c0830184612f98565b9a9950505050505050505050565b8281526103008101611a716020830184613318565b606081016137258286612fcf565b6001600160a01b03938416602083015291909216604090920191909152919050565b606081016022851061375557fe5b938152602081019290925260409091015290565b60208082526038908201527f414e4e4163746f722e696e697469616c697a653a20434f4e54524143545f545960408201527f50455f4f465f454e47494e455f554e535550504f525445440000000000000000606082015260800190565b60208082526038908201527f4345474143746f722e696e697469616c697a653a20494e56414c49445f434f4e60408201527f54524143545f5245464552454e43455f315f4f424a4543540000000000000000606082015260800190565b6020808252602b908201527f426173654163746f722e70726f6772657373576974683a20464f554e445f454160408201526a149312515497d15591539560aa1b606082015260800190565b71494e53554646494349454e545f46554e445360701b815260200190565b60208082526021908201527f426173654163746f722e70726f67726573733a204e4f5f4e4558545f4556454e6040820152601560fa1b606082015260800190565b60208082526035908201527f426173654163746f722e67657445787465726e616c44617461466f725354463a604082015274081054d4d15517d113d154d7d393d517d1561254d5605a1b606082015260800190565b6020808252602e908201527f426173654163746f722e70726f6772657373576974683a20464f554e445f554e60408201526d1111549316525391d7d15591539560921b606082015260800190565b6020808252602b908201527f426173654163746f722e70726f6772657373576974683a20554e415554484f5260408201526a24ad22a22fa9a2a72222a960a91b606082015260800190565b60208082526028908201527f426173654163746f722e70726f67726573733a2041535345545f444f45535f4e60408201526713d517d1561254d560c21b606082015260800190565b6020808252603b908201527f426173654163746f722e736574746c655061796f6666466f724576656e743a2060408201527f494e56414c49445f46554e4354494f4e5f504152414d45544552530000000000606082015260800190565b60208082526034908201527f426173654163746f722e70726f636573734576656e743a204e4558545f455645604082015273139517d393d517d6515517d4d0d211511553115160621b606082015260800190565b6020808252602b908201527f426173654163746f722e70726f6772657373576974683a20464f554e445f504560408201526a1391125391d7d15591539560aa1b606082015260800190565b60208082526031908201527f426173654163746f722e70726f636573734576656e743a2041535345545f524560408201527041434845445f46494e414c5f535441544560781b606082015260800190565b6104e081016101e28284612fd9565b6105008101613b6e8285612fd9565b826104e08301529392505050565b600061080082019050613b90828751612fcf565b6020860151613ba26020840182612fb3565b506040860151613bb56040840182612fc5565b506060860151613bc86060840182612fbc565b506080860151613bdb6080840182612fa5565b5060a0860151613bee60a0840182612fb3565b5060c0860151613c0160c0840182612fb3565b5060e0860151613c1460e0840182612fbc565b5061010080870151613c2882850182612f98565b505061012080870151613c3d82850182612f98565b50506101408681015190830152610160808701519083015261018080870151908301526101a080870151908301526101c080870151908301526101e08087015190830152610200808701519083015261022080870151908301526102408087015190830152610260808701519083015261028080870151908301526102a080870151613ccb828501826132f4565b50506102c0860151610300613ce2818501836132f4565b6102e08801519150613cf8610360850183613282565b8701519050613d0b6103e08401826131fc565b50610320860151613d206104608401826131fc565b50613d2f6104e0830186613318565b6107c08201939093526107e0015292915050565b60405181810167ffffffffffffffff81118282101715613d5f57fe5b604052919050565b60028110613d7157fe5b50565b60068110613d7157fe5b60058110613d7157fe5b6001600160a01b0381168114613d7157600080fd5b8015158114613d7157600080fd5b60098110613d7157600080fd5b60028110613d7157600080fd5b60068110613d7157600080fd5b60058110613d7157600080fd5b600d8110613d7157600080fd5b60138110613d7157600080fdfe4f776e61626c653a206e6577206f776e657220697320746865207a65726f20616464726573735369676e65644d6174682e666c6f61744469763a2043414e4e4f545f524550524553454e545f4752414e554c41524954595369676e65644d6174682e666c6f61744469763a204f564552464c4f575f44455445435445445369676e65644d6174682e666c6f61744469763a20444956494445445f42595f5a45524fa264697066735822122028b872303305ac31d7c04618b91b595a9186c79a6dae0c1b49a4d1c35f56369464736f6c63430007040033",
  "devdoc": {
    "kind": "dev",
    "methods": {
      "initialize((uint8,uint8,uint8,uint8,uint8,uint8,uint8,uint8,address,address,uint256,uint256,uint256,uint256,uint256,int256,int256,int256,int256,int256,int256,(uint256,uint8,bool),(uint256,uint8,bool),(uint256,uint8,uint8,bool),(bytes32,bytes32,uint8,uint8),(bytes32,bytes32,uint8,uint8)),bytes32[],(address,address,address,address),address,address)": {
        "params": {
          "admin": "address of the admin of the asset (optional)",
          "engine": "address of the ACTUS engine used for the spec. ContractType",
          "ownership": "ownership of the asset",
          "schedule": "schedule of the asset",
          "terms": "asset specific terms"
        }
      },
      "owner()": {
        "details": "Returns the address of the current owner."
      },
      "progress(bytes32)": {
        "details": "Emits ProgressedAsset if the state of the asset was updated.",
        "params": {
          "assetId": "id of the asset"
        }
      },
      "progressWith(bytes32,bytes32)": {
        "details": "Emits ProgressedAsset if the state of the asset was updated.",
        "params": {
          "_event": "the unscheduled event",
          "assetId": "id of the asset"
        }
      },
      "renounceOwnership()": {
        "details": "Leaves the contract without owner. It will not be possible to call `onlyOwner` functions anymore. Can only be called by the current owner. NOTE: Renouncing ownership will leave the contract without an owner, thereby removing any functionality that is only available to the owner."
      },
      "transferOwnership(address)": {
        "details": "Transfers ownership of the contract to a new account (`newOwner`). Can only be called by the current owner."
      }
    },
    "title": "CEGActor",
    "version": 1
  },
  "userdoc": {
    "kind": "user",
    "methods": {
      "initialize((uint8,uint8,uint8,uint8,uint8,uint8,uint8,uint8,address,address,uint256,uint256,uint256,uint256,uint256,int256,int256,int256,int256,int256,int256,(uint256,uint8,bool),(uint256,uint8,bool),(uint256,uint8,uint8,bool),(bytes32,bytes32,uint8,uint8),(bytes32,bytes32,uint8,uint8)),bytes32[],(address,address,address,address),address,address)": {
        "notice": "Derives initial state of the asset terms and stores together with terms, schedule, ownership, engine, admin of the asset in the contract types specific AssetRegistry."
      },
      "progress(bytes32)": {
        "notice": "Proceeds with the next state of the asset based on the terms, the last state, market object data and the settlement status of current obligation, derived from either a prev. pending event, an event generated based on the current state of an underlying asset or the assets schedule."
      },
      "progressWith(bytes32,bytes32)": {
        "notice": "Proceeds with the next state of the asset based on the terms, the last state, market object data and the settlement status of current obligation, derived from a provided (unscheduled) event Reverts if the provided event violates the order of events."
      },
      "shiftCalcTime(uint256,uint8,uint8,uint256)": {
        "notice": "Used in POFs and STFs for DCFs. No shifting is applied if a Calc/Shift instead of Shift/Calc BDC is provided."
      }
    },
    "notice": "TODO",
    "version": 1
  },
  "storageLayout": {
    "storage": [
      {
        "astId": 30,
        "contract": "contracts/Core/CEG/CEGActor.sol:CEGActor",
        "label": "_owner",
        "offset": 0,
        "slot": "0",
        "type": "t_address"
      },
      {
        "astId": 22128,
        "contract": "contracts/Core/CEG/CEGActor.sol:CEGActor",
        "label": "assetRegistry",
        "offset": 0,
        "slot": "1",
        "type": "t_contract(IAssetRegistry)23616"
      },
      {
        "astId": 22130,
        "contract": "contracts/Core/CEG/CEGActor.sol:CEGActor",
        "label": "dataRegistry",
        "offset": 0,
        "slot": "2",
        "type": "t_contract(IDataRegistry)32977"
      }
    ],
    "types": {
      "t_address": {
        "encoding": "inplace",
        "label": "address",
        "numberOfBytes": "20"
      },
      "t_contract(IAssetRegistry)23616": {
        "encoding": "inplace",
        "label": "contract IAssetRegistry",
        "numberOfBytes": "20"
      },
      "t_contract(IDataRegistry)32977": {
        "encoding": "inplace",
        "label": "contract IDataRegistry",
        "numberOfBytes": "20"
      }
    }
  },
  "gasEstimates": {
    "creation": {
      "codeDepositCost": "3216000",
      "executionCost": "infinite",
      "totalCost": "infinite"
    },
    "external": {
      "assetRegistry()": "1070",
      "dataRegistry()": "1092",
      "decodeCollateralObject(bytes32)": "371",
      "encodeCollateralAsObject(address,uint256)": "462",
      "initialize((uint8,uint8,uint8,uint8,uint8,uint8,uint8,uint8,address,address,uint256,uint256,uint256,uint256,uint256,int256,int256,int256,int256,int256,int256,(uint256,uint8,bool),(uint256,uint8,bool),(uint256,uint8,uint8,bool),(bytes32,bytes32,uint8,uint8),(bytes32,bytes32,uint8,uint8)),bytes32[],(address,address,address,address),address,address)": "infinite",
      "owner()": "1181",
      "progress(bytes32)": "infinite",
      "progressWith(bytes32,bytes32)": "infinite",
      "renounceOwnership()": "24271",
      "shiftCalcTime(uint256,uint8,uint8,uint256)": "infinite",
      "shiftEventTime(uint256,uint8,uint8,uint256)": "infinite",
      "transferOwnership(address)": "infinite"
    },
    "internal": {
      "computeStateAndPayoffForEvent(bytes32,struct State memory,bytes32)": "infinite"
    }
  }
}