{
  "abi": [
    {
      "inputs": [
        {
          "internalType": "address",
          "name": "_cecActor",
          "type": "address"
        },
        {
          "internalType": "contract ICECRegistry",
          "name": "_cecRegistry",
          "type": "address"
        }
      ],
      "stateMutability": "nonpayable",
      "type": "constructor"
    },
    {
      "anonymous": false,
      "inputs": [
        {
          "indexed": true,
          "internalType": "bytes32",
          "name": "assetId",
          "type": "bytes32"
        },
        {
          "indexed": false,
          "internalType": "address",
          "name": "collateralizer",
          "type": "address"
        },
        {
          "indexed": false,
          "internalType": "uint256",
          "name": "collateralAmount",
          "type": "uint256"
        }
      ],
      "name": "LockedCollateral",
      "type": "event"
    },
    {
      "anonymous": false,
      "inputs": [
        {
          "indexed": true,
          "internalType": "bytes32",
          "name": "assetId",
          "type": "bytes32"
        },
        {
          "indexed": false,
          "internalType": "address",
          "name": "collateralizer",
          "type": "address"
        },
        {
          "indexed": false,
          "internalType": "uint256",
          "name": "returnedAmount",
          "type": "uint256"
        }
      ],
      "name": "ReturnedCollateral",
      "type": "event"
    },
    {
      "inputs": [],
      "name": "cecActor",
      "outputs": [
        {
          "internalType": "address",
          "name": "",
          "type": "address"
        }
      ],
      "stateMutability": "view",
      "type": "function"
    },
    {
      "inputs": [],
      "name": "cecRegistry",
      "outputs": [
        {
          "internalType": "contract ICECRegistry",
          "name": "",
          "type": "address"
        }
      ],
      "stateMutability": "view",
      "type": "function"
    },
    {
      "inputs": [
        {
          "internalType": "bytes32",
          "name": "object",
          "type": "bytes32"
        }
      ],
      "name": "decodeCollateralObject",
      "outputs": [
        {
          "internalType": "address",
          "name": "",
          "type": "address"
        },
        {
          "internalType": "uint256",
          "name": "",
          "type": "uint256"
        }
      ],
      "stateMutability": "pure",
      "type": "function"
    },
    {
      "inputs": [
        {
          "internalType": "address",
          "name": "collateralToken",
          "type": "address"
        },
        {
          "internalType": "uint256",
          "name": "collateralAmount",
          "type": "uint256"
        }
      ],
      "name": "encodeCollateralAsObject",
      "outputs": [
        {
          "internalType": "bytes32",
          "name": "",
          "type": "bytes32"
        }
      ],
      "stateMutability": "pure",
      "type": "function"
    },
    {
      "inputs": [
        {
          "internalType": "bytes32",
          "name": "assetId",
          "type": "bytes32"
        },
        {
          "components": [
            {
              "internalType": "enum ContractType",
              "name": "contractType",
              "type": "uint8"
            },
            {
              "internalType": "enum Calendar",
              "name": "calendar",
              "type": "uint8"
            },
            {
              "internalType": "enum ContractRole",
              "name": "contractRole",
              "type": "uint8"
            },
            {
              "internalType": "enum DayCountConvention",
              "name": "dayCountConvention",
              "type": "uint8"
            },
            {
              "internalType": "enum BusinessDayConvention",
              "name": "businessDayConvention",
              "type": "uint8"
            },
            {
              "internalType": "enum EndOfMonthConvention",
              "name": "endOfMonthConvention",
              "type": "uint8"
            },
            {
              "internalType": "enum ContractPerformance",
              "name": "creditEventTypeCovered",
              "type": "uint8"
            },
            {
              "internalType": "enum FeeBasis",
              "name": "feeBasis",
              "type": "uint8"
            },
            {
              "internalType": "uint256",
              "name": "statusDate",
              "type": "uint256"
            },
            {
              "internalType": "uint256",
              "name": "maturityDate",
              "type": "uint256"
            },
            {
              "internalType": "int256",
              "name": "notionalPrincipal",
              "type": "int256"
            },
            {
              "internalType": "int256",
              "name": "feeRate",
              "type": "int256"
            },
            {
              "internalType": "int256",
              "name": "coverageOfCreditEnhancement",
              "type": "int256"
            },
            {
              "components": [
                {
                  "internalType": "bytes32",
                  "name": "object",
                  "type": "bytes32"
                },
                {
                  "internalType": "bytes32",
                  "name": "object2",
                  "type": "bytes32"
                },
                {
                  "internalType": "enum ContractReferenceType",
                  "name": "_type",
                  "type": "uint8"
                },
                {
                  "internalType": "enum ContractReferenceRole",
                  "name": "role",
                  "type": "uint8"
                }
              ],
              "internalType": "struct ContractReference",
              "name": "contractReference_1",
              "type": "tuple"
            },
            {
              "components": [
                {
                  "internalType": "bytes32",
                  "name": "object",
                  "type": "bytes32"
                },
                {
                  "internalType": "bytes32",
                  "name": "object2",
                  "type": "bytes32"
                },
                {
                  "internalType": "enum ContractReferenceType",
                  "name": "_type",
                  "type": "uint8"
                },
                {
                  "internalType": "enum ContractReferenceRole",
                  "name": "role",
                  "type": "uint8"
                }
              ],
              "internalType": "struct ContractReference",
              "name": "contractReference_2",
              "type": "tuple"
            }
          ],
          "internalType": "struct CECTerms",
          "name": "terms",
          "type": "tuple"
        },
        {
          "components": [
            {
              "internalType": "address",
              "name": "creatorObligor",
              "type": "address"
            },
            {
              "internalType": "address",
              "name": "creatorBeneficiary",
              "type": "address"
            },
            {
              "internalType": "address",
              "name": "counterpartyObligor",
              "type": "address"
            },
            {
              "internalType": "address",
              "name": "counterpartyBeneficiary",
              "type": "address"
            }
          ],
          "internalType": "struct AssetOwnership",
          "name": "ownership",
          "type": "tuple"
        }
      ],
      "name": "lockCollateral",
      "outputs": [
        {
          "internalType": "bool",
          "name": "",
          "type": "bool"
        }
      ],
      "stateMutability": "nonpayable",
      "type": "function"
    },
    {
      "inputs": [
        {
          "internalType": "bytes32",
          "name": "assetId",
          "type": "bytes32"
        }
      ],
      "name": "returnCollateral",
      "outputs": [
        {
          "internalType": "bool",
          "name": "",
          "type": "bool"
        }
      ],
      "stateMutability": "nonpayable",
      "type": "function"
    }
  ],
  "address": "0xf14A0c05b13767BC4b4C831bdf7D2a391292a7F2",
  "args": [
    "0x5f1bC4808153b95aed8537C0ba57bc1034a97196",
    "0xA240Ee48f8dD44CdEeAC513C6fd6739F0C6bE46c"
  ],
  "solcInputHash": "0x641332b4189abe50474574ba46977bd7f0a689fca4e1c1910dccc48384971409",
  "bytecode": "0x608060405234801561001057600080fd5b5060405161151038038061151083398101604081905261002f91610065565b6001600081905580546001600160a01b039384166001600160a01b031991821617909155600280549290931691161790556100b6565b60008060408385031215610077578182fd5b82516100828161009e565b60208401519092506100938161009e565b809150509250929050565b6001600160a01b03811681146100b357600080fd5b50565b61144b806100c56000396000f3fe608060405234801561001057600080fd5b50600436106100625760003560e01c806344c4ea9514610067578063645a26bd146100905780636778e0e9146100b1578063b5b904ab146100d1578063bceeadb9146100e6578063f1acef64146100ee575b600080fd5b61007a610075366004610d74565b610101565b604051610087919061109f565b60405180910390f35b6100a361009e366004610d74565b61065f565b604051610087929190611086565b6100c46100bf366004610d29565b610678565b60405161008791906110aa565b6100d961069f565b6040516100879190611034565b6100d96106ae565b61007a6100fc366004610d8c565b6106bd565b60008181526003602052604081205460ff16151560011461013d5760405162461bcd60e51b81526004016101349061122f565b60405180910390fd5b60025460405163ecef557760e01b81526000916001600160a01b03169063ecef55779061016e9086906004016110d8565b60206040518083038186803b15801561018657600080fd5b505afa15801561019a573d6000803e3d6000fd5b505050506040513d601f19601f820116820180604052508101906101be9190611013565b60ff16600c8111156101cc57fe5b90506101d6610c01565b600254604051635e353ebb60e11b81526001600160a01b039091169063bc6a7d76906102069087906004016110b3565b60806040518083038186803b15801561021e57600080fd5b505afa158015610232573d6000803e3d6000fd5b505050506040513d601f19601f820116820180604052508101906102569190610e7c565b9050610260610c28565b6002546040516309648a9d60e01b81526001600160a01b03909116906309648a9d906102909088906004016110aa565b6102e06040518083038186803b1580156102a957600080fd5b505afa1580156102bd573d6000803e3d6000fd5b505050506040513d601f19601f820116820180604052508101906102e19190610ede565b90506102eb610cd7565b60025460405163e50e0ef760e01b81526001600160a01b039091169063e50e0ef79061031b9089906004016110aa565b60806040518083038186803b15801561033357600080fd5b505afa158015610347573d6000803e3d6000fd5b505050506040513d601f19601f8201168201806040525081019061036b9190610dfe565b90506000600685600c81111561037d57fe5b1461038c578160200151610392565b81606001515b90506000806103a4866000015161065f565b915091506000808660800151146103ea576103e36000876101e0015112156103d557866101e00151600019026103dc565b866101e001515b8390610ac7565b9050610442565b608086015115801561041e575060048651600581111561040657fe5b148061041e575060058651600581111561041c57fe5b145b1561042a575080610442565b60405162461bcd60e51b815260040161013490611324565b600154604051636eb1769f60e11b81526000916001600160a01b038087169263dd62ed3e92610478923092911690600401611048565b60206040518083038186803b15801561049057600080fd5b505afa1580156104a4573d6000803e3d6000fd5b505050506040513d601f19601f820116820180604052508101906104c89190610ffb565b6001549091506001600160a01b038086169163095ea7b391166104eb8486610ac7565b6040518363ffffffff1660e01b8152600401610508929190611086565b602060405180830381600087803b15801561052257600080fd5b505af1158015610536573d6000803e3d6000fd5b505050506040513d601f19601f8201168201806040525081019061055a9190610d54565b6105765760405162461bcd60e51b81526004016101349061127f565b60405163a9059cbb60e01b81526001600160a01b0385169063a9059cbb906105a49088908690600401611086565b602060405180830381600087803b1580156105be57600080fd5b505af11580156105d2573d6000803e3d6000fd5b505050506040513d601f19601f820116820180604052508101906105f69190610d54565b6106125760405162461bcd60e51b8152600401610134906110f6565b8a7f4131d43c7bc220691dd088c228cd19fcafb66a0d9abeab4d8893e3db4e480ca28684604051610644929190611086565b60405180910390a2600199505050505050505050505b919050565b606081901c6bffffffffffffffffffffffff8216915091565b6bffffffffffffffffffffffff1660609190911b6bffffffffffffffffffffffff19161790565b6002546001600160a01b031681565b6001546001600160a01b031681565b600060066106d16060850160408601610ddf565b600c8111156106dc57fe5b1480610702575060076106f56060850160408601610ddf565b600c81111561070057fe5b145b61071e5760405162461bcd60e51b8152600401610134906112d5565b60066107306060850160408601610ddf565b600c81111561073b57fe5b1461075d573061074e6020840184610d0d565b6001600160a01b031614610779565b3061076e6060840160408501610d0d565b6001600160a01b0316145b6107955760405162461bcd60e51b815260040161013490611381565b600060066107a96060860160408701610ddf565b600c8111156107b457fe5b146107ce576107c96040840160208501610d0d565b6107de565b6107de6080840160608501610d0d565b90506000806107f161022087013561065f565b9150915080826001600160a01b031663dd62ed3e85306040518363ffffffff1660e01b8152600401610824929190611048565b60206040518083038186803b15801561083c57600080fd5b505afa158015610850573d6000803e3d6000fd5b505050506040513d601f19601f820116820180604052508101906108749190610ffb565b10156108925760405162461bcd60e51b815260040161013490611196565b6040516323b872dd60e01b81526001600160a01b038316906323b872dd906108c290869030908690600401611062565b602060405180830381600087803b1580156108dc57600080fd5b505af11580156108f0573d6000803e3d6000fd5b505050506040513d601f19601f820116820180604052508101906109149190610d54565b6109305760405162461bcd60e51b8152600401610134906111e6565b600154604051636eb1769f60e11b81526000916001600160a01b038086169263dd62ed3e92610966923092911690600401611048565b60206040518083038186803b15801561097e57600080fd5b505afa158015610992573d6000803e3d6000fd5b505050506040513d601f19601f820116820180604052508101906109b69190610ffb565b6001549091506001600160a01b038085169163095ea7b391166109d98486610b10565b6040518363ffffffff1660e01b81526004016109f6929190611086565b602060405180830381600087803b158015610a1057600080fd5b505af1158015610a24573d6000803e3d6000fd5b505050506040513d601f19601f82011682018060405250810190610a489190610d54565b610a645760405162461bcd60e51b815260040161013490611141565b60008881526003602052604090819020805460ff191660011790555188907ffe470e985a95a6aaad262a20cf968addf9489c083d8659cde642f329d561a4e490610ab19087908690611086565b60405180910390a2506001979650505050505050565b6000610b0983836040518060400160405280601e81526020017f536166654d6174683a207375627472616374696f6e206f766572666c6f770000815250610b6a565b9392505050565b600082820183811015610b09576040805162461bcd60e51b815260206004820152601b60248201527f536166654d6174683a206164646974696f6e206f766572666c6f770000000000604482015290519081900360640190fd5b60008184841115610bf95760405162461bcd60e51b81526004018080602001828103825283818151815260200191508051906020019080838360005b83811015610bbe578181015183820152602001610ba6565b50505050905090810190601f168015610beb5780820380516001836020036101000a031916815260200191505b509250505060405180910390fd5b505050900390565b60408051608081018252600080825260208201819052909182019081526020016000905290565b604080516102e081019091528060008152602001600081526020016000815260200160008152602001600081526020016000815260200160008152602001600081526020016000815260200160008152602001600081526020016000815260200160008152602001600081526020016000815260200160008152602001600081526020016000815260200160008152602001600081526020016000815260200160008152602001600081525090565b60408051608081018252600080825260208201819052918101829052606081019190915290565b80516006811061065a57600080fd5b600060208284031215610d1e578081fd5b8135610b09816113f0565b60008060408385031215610d3b578081fd5b8235610d46816113f0565b946020939093013593505050565b600060208284031215610d65578081fd5b81518015158114610b09578182fd5b600060208284031215610d85578081fd5b5035919050565b6000806000838503610340811215610da2578182fd5b843593506102a0601f1982011215610db8578182fd5b60208501925060806102bf1982011215610dd0578182fd5b506102c0840190509250925092565b600060208284031215610df0578081fd5b8135600d8110610b09578182fd5b600060808284031215610e0f578081fd5b6040516080810181811067ffffffffffffffff82111715610e2c57fe5b6040528251610e3a816113f0565b81526020830151610e4a816113f0565b60208201526040830151610e5d816113f0565b60408201526060830151610e70816113f0565b60608201529392505050565b600060808284031215610e8d578081fd5b6040516080810181811067ffffffffffffffff82111715610eaa57fe5b806040525082518152602083015160208201526040830151610ecb81611408565b60408201526060830151610e7081611408565b60006102e0808385031215610ef1578182fd5b610efa816113cc565b9050610f0583610cfe565b81526020838101519082015260408084015190820152606080840151908201526080808401519082015260a0808401519082015260c0808401519082015260e08084015190820152610100808401519082015261012080840151908201526101408084015190820152610160808401519082015261018080840151908201526101a080840151908201526101c080840151908201526101e08084015190820152610200808401519082015261022080840151908201526102408084015190820152610260808401519082015261028080840151908201526102a080840151908201526102c0928301519281019290925250919050565b60006020828403121561100c578081fd5b5051919050565b600060208284031215611024578081fd5b815160ff81168114610b09578182fd5b6001600160a01b0391909116815260200190565b6001600160a01b0392831681529116602082015260400190565b6001600160a01b039384168152919092166020820152604081019190915260600190565b6001600160a01b03929092168252602082015260400190565b901515815260200190565b90815260200190565b9081527231b7b73a3930b1ba2932b332b932b731b2af9960691b602082015260400190565b9081526b636f6e7472616374526f6c6560a01b602082015260400190565b6020808252602b908201527f437573746f6469616e2e72657475726e436f6c6c61746572616c3a205452414e60408201526a14d1915497d1905253115160aa1b606082015260800190565b60208082526035908201527f437573746f6469616e2e6c6f636b436f6c6c61746572616c3a20494e4352454160408201527414d25391d7d0531313d5d05390d157d19052531151605a1b606082015260800190565b60208082526030908201527f437573746f6469616e2e6c6f636b436f6c6c61746572616c3a20494e5355464660408201526f494349454e545f414c4c4f57414e434560801b606082015260800190565b60208082526029908201527f437573746f6469616e2e6c6f636b436f6c6c61746572616c3a205452414e5346604082015268115497d1905253115160ba1b606082015260800190565b60208082526030908201527f437573746f6469616e2e72657475726e436f6c6c61746572616c3a20454e545260408201526f1657d113d154d7d393d517d1561254d560821b606082015260800190565b60208082526036908201527f437573746f6469616e2e72657475726e436f6c6c61746572616c3a2044454352604082015275115054d25391d7d0531313d5d05390d157d19052531160521b606082015260800190565b6020808252602f908201527f437573746f6469616e2e6c6f636b436f6c6c61746572616c3a20494e56414c4960408201526e445f434f4e54524143545f524f4c4560881b606082015260800190565b6020808252603a908201527f437573746f6469616e2e72657475726e436f6c6c61746572616c3a20434f4c4c60408201527f41544552414c5f43414e5f4e4f545f42455f52455455524e4544000000000000606082015260800190565b6020808252602b908201527f437573746f6469616e2e6c6f636b436f6c6c61746572616c3a20494e56414c4960408201526a0445f4f574e4552534849560ac1b606082015260800190565b60405181810167ffffffffffffffff811182821017156113e857fe5b604052919050565b6001600160a01b038116811461140557600080fd5b50565b6005811061140557600080fdfea26469706673582212200bf4b06be5071dbcc464bf144003fb13db4f9c149b100ef54940bfb78963384b64736f6c63430007040033",
  "devdoc": {
    "kind": "dev",
    "methods": {
      "lockCollateral(bytes32,(uint8,uint8,uint8,uint8,uint8,uint8,uint8,uint8,uint256,uint256,int256,int256,int256,(bytes32,bytes32,uint8,uint8),(bytes32,bytes32,uint8,uint8)),(address,address,address,address))": {
        "details": "The collateralizer has to set allowance beforehand. The custodian increases allowance for the AssetActor by amount of collateral",
        "params": {
          "assetId": "id of the asset with collateral requirements",
          "ownership": "ownership of the asset",
          "terms": "terms of the asset containing the collateral requirements"
        },
        "returns": {
          "_0": "true if the collateral was locked by the Custodian"
        }
      },
      "returnCollateral(bytes32)": {
        "details": "resets allowance for the Asset Actor, reverts if state of the asset does not allow unlocking the collateral",
        "params": {
          "assetId": "id of the asset for which to return the collateral,"
        },
        "returns": {
          "_0": "true if the collateral was returned to the collateralizer"
        }
      }
    },
    "title": "Custodian",
    "version": 1
  },
  "userdoc": {
    "kind": "user",
    "methods": {
      "lockCollateral(bytes32,(uint8,uint8,uint8,uint8,uint8,uint8,uint8,uint8,uint256,uint256,int256,int256,int256,(bytes32,bytes32,uint8,uint8),(bytes32,bytes32,uint8,uint8)),(address,address,address,address))": {
        "notice": "Locks the required collateral amount encoded in the second contract reference in the terms."
      },
      "returnCollateral(bytes32)": {
        "notice": "Returns the entire collateral back to the collateralizer if collateral was not executed before the asset reached maturity or it returns the remaining collateral (not executed amount) after collateral was executed and settled"
      }
    },
    "notice": "Contract which holds the collateral of CEC (Credit Enhancement Collateral) assets.",
    "version": 1
  },
  "storageLayout": {
    "storage": [
      {
        "astId": 1446,
        "contract": "contracts/Core/Base/Custodian/Custodian.sol:Custodian",
        "label": "_status",
        "offset": 0,
        "slot": "0",
        "type": "t_uint256"
      },
      {
        "astId": 32303,
        "contract": "contracts/Core/Base/Custodian/Custodian.sol:Custodian",
        "label": "cecActor",
        "offset": 0,
        "slot": "1",
        "type": "t_address"
      },
      {
        "astId": 32305,
        "contract": "contracts/Core/Base/Custodian/Custodian.sol:Custodian",
        "label": "cecRegistry",
        "offset": 0,
        "slot": "2",
        "type": "t_contract(ICECRegistry)34780"
      },
      {
        "astId": 32309,
        "contract": "contracts/Core/Base/Custodian/Custodian.sol:Custodian",
        "label": "collateral",
        "offset": 0,
        "slot": "3",
        "type": "t_mapping(t_bytes32,t_bool)"
      }
    ],
    "types": {
      "t_address": {
        "encoding": "inplace",
        "label": "address",
        "numberOfBytes": "20"
      },
      "t_bool": {
        "encoding": "inplace",
        "label": "bool",
        "numberOfBytes": "1"
      },
      "t_bytes32": {
        "encoding": "inplace",
        "label": "bytes32",
        "numberOfBytes": "32"
      },
      "t_contract(ICECRegistry)34780": {
        "encoding": "inplace",
        "label": "contract ICECRegistry",
        "numberOfBytes": "20"
      },
      "t_mapping(t_bytes32,t_bool)": {
        "encoding": "mapping",
        "key": "t_bytes32",
        "label": "mapping(bytes32 => bool)",
        "numberOfBytes": "32",
        "value": "t_bool"
      },
      "t_uint256": {
        "encoding": "inplace",
        "label": "uint256",
        "numberOfBytes": "32"
      }
    }
  },
  "gasEstimates": {
    "creation": {
      "codeDepositCost": "1039000",
      "executionCost": "infinite",
      "totalCost": "infinite"
    },
    "external": {
      "cecActor()": "1136",
      "cecRegistry()": "1114",
      "decodeCollateralObject(bytes32)": "370",
      "encodeCollateralAsObject(address,uint256)": "453",
      "lockCollateral(bytes32,(uint8,uint8,uint8,uint8,uint8,uint8,uint8,uint8,uint256,uint256,int256,int256,int256,(bytes32,bytes32,uint8,uint8),(bytes32,bytes32,uint8,uint8)),(address,address,address,address))": "infinite",
      "returnCollateral(bytes32)": "infinite"
    }
  }
}