{
  "abi": [
    {
      "inputs": [
        {
          "internalType": "bytes32",
          "name": "assetId",
          "type": "bytes32"
        },
        {
          "internalType": "uint256",
          "name": "index",
          "type": "uint256"
        }
      ],
      "name": "getEventAtIndex",
      "outputs": [
        {
          "internalType": "bytes32",
          "name": "",
          "type": "bytes32"
        }
      ],
      "stateMutability": "view",
      "type": "function"
    },
    {
      "inputs": [
        {
          "internalType": "bytes32",
          "name": "assetId",
          "type": "bytes32"
        }
      ],
      "name": "getNextScheduleIndex",
      "outputs": [
        {
          "internalType": "uint256",
          "name": "",
          "type": "uint256"
        }
      ],
      "stateMutability": "view",
      "type": "function"
    },
    {
      "inputs": [
        {
          "internalType": "bytes32",
          "name": "assetId",
          "type": "bytes32"
        }
      ],
      "name": "getNextScheduledEvent",
      "outputs": [
        {
          "internalType": "bytes32",
          "name": "",
          "type": "bytes32"
        }
      ],
      "stateMutability": "view",
      "type": "function"
    },
    {
      "inputs": [
        {
          "internalType": "bytes32",
          "name": "assetId",
          "type": "bytes32"
        }
      ],
      "name": "getNextUnderlyingEvent",
      "outputs": [
        {
          "internalType": "bytes32",
          "name": "",
          "type": "bytes32"
        }
      ],
      "stateMutability": "view",
      "type": "function"
    },
    {
      "inputs": [
        {
          "internalType": "bytes32",
          "name": "assetId",
          "type": "bytes32"
        }
      ],
      "name": "getPendingEvent",
      "outputs": [
        {
          "internalType": "bytes32",
          "name": "",
          "type": "bytes32"
        }
      ],
      "stateMutability": "view",
      "type": "function"
    },
    {
      "inputs": [
        {
          "internalType": "bytes32",
          "name": "assetId",
          "type": "bytes32"
        }
      ],
      "name": "getSchedule",
      "outputs": [
        {
          "internalType": "bytes32[]",
          "name": "",
          "type": "bytes32[]"
        }
      ],
      "stateMutability": "view",
      "type": "function"
    },
    {
      "inputs": [
        {
          "internalType": "bytes32",
          "name": "assetId",
          "type": "bytes32"
        }
      ],
      "name": "getScheduleLength",
      "outputs": [
        {
          "internalType": "uint256",
          "name": "",
          "type": "uint256"
        }
      ],
      "stateMutability": "view",
      "type": "function"
    },
    {
      "inputs": [
        {
          "internalType": "bytes32",
          "name": "assetId",
          "type": "bytes32"
        },
        {
          "internalType": "bytes32",
          "name": "_event",
          "type": "bytes32"
        }
      ],
      "name": "isEventSettled",
      "outputs": [
        {
          "internalType": "bool",
          "name": "",
          "type": "bool"
        },
        {
          "internalType": "int256",
          "name": "",
          "type": "int256"
        }
      ],
      "stateMutability": "view",
      "type": "function"
    },
    {
      "inputs": [
        {
          "internalType": "bytes32",
          "name": "assetId",
          "type": "bytes32"
        },
        {
          "internalType": "bytes32",
          "name": "_event",
          "type": "bytes32"
        },
        {
          "internalType": "int256",
          "name": "_payoff",
          "type": "int256"
        }
      ],
      "name": "markEventAsSettled",
      "outputs": [],
      "stateMutability": "nonpayable",
      "type": "function"
    },
    {
      "inputs": [
        {
          "internalType": "bytes32",
          "name": "assetId",
          "type": "bytes32"
        }
      ],
      "name": "popNextScheduledEvent",
      "outputs": [
        {
          "internalType": "bytes32",
          "name": "",
          "type": "bytes32"
        }
      ],
      "stateMutability": "nonpayable",
      "type": "function"
    },
    {
      "inputs": [
        {
          "internalType": "bytes32",
          "name": "assetId",
          "type": "bytes32"
        }
      ],
      "name": "popPendingEvent",
      "outputs": [
        {
          "internalType": "bytes32",
          "name": "",
          "type": "bytes32"
        }
      ],
      "stateMutability": "nonpayable",
      "type": "function"
    },
    {
      "inputs": [
        {
          "internalType": "bytes32",
          "name": "assetId",
          "type": "bytes32"
        },
        {
          "internalType": "bytes32",
          "name": "pendingEvent",
          "type": "bytes32"
        }
      ],
      "name": "pushPendingEvent",
      "outputs": [],
      "stateMutability": "nonpayable",
      "type": "function"
    }
  ],
  "address": "0x53Af5187298c0EAA21F9E68fFA36385f2Ad7cbAd",
  "args": [],
  "solcInputHash": "0x641332b4189abe50474574ba46977bd7f0a689fca4e1c1910dccc48384971409",
  "bytecode": "0x608060405234801561001057600080fd5b506117e1806100206000396000f3fe608060405234801561001057600080fd5b50600436106100b45760003560e01c8063b828204111610071578063b82820411461014e578063ba4d2d2814610161578063c3b6e7c214610182578063d981e77314610195578063de07a173146101aa578063f52f84e1146101bd576100b4565b80630c5b75a4146100b957806328e0f8a9146100e25780633adc277a146100f557806375e86ae414610115578063a17b75b514610128578063b02ca0c01461013b575b600080fd5b6100cc6100c7366004611350565b6101d0565b6040516100d9919061153d565b60405180910390f35b6100cc6100f0366004611350565b6102ec565b610108610103366004611350565b610311565b6040516100d991906114e9565b6100cc610123366004611350565b610338565b6100cc610136366004611350565b610811565b6100cc610149366004611393565b61082f565b6100cc61015c366004611350565b610859565b61017461016f366004611393565b610936565b6040516100d992919061152d565b6100cc610190366004611350565b61098f565b6101a86101a3366004611393565b610bb9565b005b6101a86101b83660046113b4565b610ca8565b6100cc6101cb366004611350565b610dd0565b6000816101db610dee565b600082815260209190915260409020600101546001600160a01b03163314806102845750604051631b12681560e01b81523090631b126815906102329084906001600160e01b031960003516903390600401611546565b602060405180830381600087803b15801561024c57600080fd5b505af1158015610260573d6000803e3d6000fd5b505050506040513d601f19601f820116820180604052508101906102849190611336565b6102a95760405162461bcd60e51b81526004016102a090611662565b60405180910390fd5b60006102b3610dee565b6000858152602091909152604081206006015491506102d0610dee565b6000868152602091909152604090206006015591505b50919050565b60006102f6610dee565b6000838152602091909152604090206005015490505b919050565b606061033261031e610dee565b600084815260209190915260409020610e12565b92915050565b60006103426112dd565b604051635e353ebb60e11b8152309063bc6a7d769061036590869060040161163d565b60806040518083038186803b15801561037d57600080fd5b505afa158015610391573d6000803e3d6000fd5b505050506040513d601f19601f820116820180604052508101906103b591906113df565b8051909150158015906103d757506003816060015160048111156103d557fe5b145b156108085780516020820151604051631392c59160e11b81526001600160a01b038216906327258b229061040f90859060040161153d565b60206040518083038186803b15801561042757600080fd5b505afa15801561043b573d6000803e3d6000fd5b505050506040513d601f19601f8201168201806040525081019061045f9190611336565b61047b5760405162461bcd60e51b81526004016102a090611712565b604051633035503f60e11b8152600090309063606aa07e906104a190899060040161158c565b60206040518083038186803b1580156104b957600080fd5b505afa1580156104cd573d6000803e3d6000fd5b505050506040513d601f19601f820116820180604052508101906104f191906114b0565b60405163ecef557760e01b8152909150600090309063ecef55779061051a908a90600401611615565b60206040518083038186803b15801561053257600080fd5b505afa158015610546573d6000803e3d6000fd5b505050506040513d601f19601f8201168201806040525081019061056a91906114c8565b60ff16600581111561057857fe5b90506000836001600160a01b031663cf5aed12866040518263ffffffff1660e01b81526004016105a891906115f0565b60206040518083038186803b1580156105c057600080fd5b505afa1580156105d4573d6000803e3d6000fd5b505050506040513d601f19601f820116820180604052508101906105f891906114c8565b60ff16600581111561060657fe5b90506000846001600160a01b031663606aa07e876040518263ffffffff1660e01b815260040161063691906115cd565b60206040518083038186803b15801561064e57600080fd5b505afa158015610662573d6000803e3d6000fd5b505050506040513d601f19601f8201168201806040525081019061068691906114b0565b905083156106a757610699601a42610ea8565b97505050505050505061030c565b60008360058111156106b557fe5b141580156106d857508260058111156106ca57fe5b8260058111156106d657fe5b145b156108015760018260058111156106eb57fe5b14156106fc57610699601982610ea8565b600282600581111561070a57fe5b14156107b957610718611304565b6040516337f2add560e11b81526001600160a01b03871690636fe55baa90610744908a9060040161156f565b60606040518083038186803b15801561075c57600080fd5b505afa158015610770573d6000803e3d6000fd5b505050506040513d601f19601f82011682018060405250810190610794919061144d565b90506107aa60196107a58385610ec6565b610ea8565b9850505050505050505061030c565b60038260058111156107c757fe5b1415610801576107d5611304565b6040516337f2add560e11b81526001600160a01b03871690636fe55baa90610744908a906004016115aa565b5050505050505b50600092915050565b600061081b610dee565b600092835260205250604090206004015490565b6000610839610dee565b600093845260209081526040808520938552600390930190525090205490565b600080610864610dee565b6000848152602091909152604090206004810154909150156108b85760048101546005820154141561089a57506000905061030c565b6005810154600090815260039091016020526040902054905061030c565b604051630952f1b760e21b8152600090309063254bc6dc906108de90879060040161153d565b604080518083038186803b1580156108f557600080fd5b505afa158015610909573d6000803e3d6000fd5b505050506040513d601f19601f8201168201806040525081019061092d9190611368565b50949350505050565b600080610941610dee565b600085815260209182526040808220868352601001909252205460ff16610966610dee565b600086815260209182526040808220878352601001909252206001015490925090509250929050565b60008161099a610dee565b600082815260209190915260409020600101546001600160a01b0316331480610a435750604051631b12681560e01b81523090631b126815906109f19084906001600160e01b031960003516903390600401611546565b602060405180830381600087803b158015610a0b57600080fd5b505af1158015610a1f573d6000803e3d6000fd5b505050506040513d601f19601f82011682018060405250810190610a439190611336565b610a5f5760405162461bcd60e51b81526004016102a090611662565b6000610a69610dee565b600085815260209190915260409020600481015490915015610ac75760058101546000818152600383016020526040902054600483015490911415610ab45750600092506102e69050565b60059091018054600101905591506102e6565b604051630952f1b760e21b81526000908190309063254bc6dc90610aef90899060040161153d565b604080518083038186803b158015610b0657600080fd5b505afa158015610b1a573d6000803e3d6000fd5b505050506040513d601f19601f82011682018060405250810190610b3e9190611368565b909250905081610b555750600093506102e6915050565b600080610b6184610fe6565b909250905060018315151415610ba55780600286016000846021811115610b8457fe5b6021811115610b8f57fe5b8152602081019190915260400160002055610bad565b600785018490555b50919695505050505050565b81610bc2610dee565b600082815260209190915260409020600101546001600160a01b0316331480610c6b5750604051631b12681560e01b81523090631b12681590610c199084906001600160e01b031960003516903390600401611546565b602060405180830381600087803b158015610c3357600080fd5b505af1158015610c47573d6000803e3d6000fd5b505050506040513d601f19601f82011682018060405250810190610c6b9190611336565b610c875760405162461bcd60e51b81526004016102a090611662565b81610c90610dee565b60009485526020526040909320600601929092555050565b82610cb1610dee565b600082815260209190915260409020600101546001600160a01b0316331480610d5a5750604051631b12681560e01b81523090631b12681590610d089084906001600160e01b031960003516903390600401611546565b602060405180830381600087803b158015610d2257600080fd5b505af1158015610d36573d6000803e3d6000fd5b505050506040513d601f19601f82011682018060405250810190610d5a9190611336565b610d765760405162461bcd60e51b81526004016102a090611662565b604080518082019091526001815260208101839052610d93610dee565b60009586526020908152604080872095875260109095018152939094208451815460ff191690151517815593909201516001909301929092555050565b6000610dda610dee565b600092835260205250604090206006015490565b7fed91072810f28ab6b6fc02a2132e36fe987e74def3a4eccfa0a9b6343b1fdaf590565b606080826002016002015467ffffffffffffffff81118015610e3357600080fd5b50604051908082528060200260200182016040528015610e5d578160200160208202803683370190505b50905060005b6004840154811015610ea15760008181526003850160205260409020548251839083908110610e8e57fe5b6020908102919091010152600101610e63565b5092915050565b60008160f8846021811115610eb957fe5b60ff16901b179392505050565b6000808084602001516005811115610eda57fe5b1415610ef4578351610eed90849061100f565b9050610fdf565b600184602001516005811115610f0657fe5b1415610f24578351610eed90610f1d906007611024565b849061100f565b600284602001516005811115610f3657fe5b1415610f49578351610eed90849061107d565b600384602001516005811115610f5b57fe5b1415610f79578351610eed90610f72906003611024565b849061107d565b600484602001516005811115610f8b57fe5b1415610fa2578351610eed90610f72906006611024565b600584602001516005811115610fb457fe5b1415610fc7578351610eed9084906110f9565b60405162461bcd60e51b81526004016102a0906116b5565b9392505050565b6000808060f884901c6021811115610ffa57fe5b92505067ffffffffffffffff83169050915091565b62015180810282018281101561033257600080fd5b60008261103357506000610332565b8282028284828161104057fe5b0414610fdf5760405162461bcd60e51b815260040180806020018281038252602181526020018061178b6021913960400191505060405180910390fd5b600080808061109162015180875b04611120565b600c9188016000198101838104949094019650945092509006600101915060006110bb84846111b6565b9050808211156110c9578091505b620151808706620151806110de86868661123c565b02019450868510156110ef57600080fd5b5050505092915050565b600080808061110b620151808761108b565b91870194509250905060006110bb84846111b6565b60008080836226496581018262023ab1600483020590506004600362023ab18302010590910390600062164b09610fa0600185010205905060046105b58202058303601f019250600061098f846050028161117757fe5b0590506000605061098f83020585039050600b820560301994909401606402929092018301996002600c90940290910392909201975095509350505050565b600081600114806111c75750816003145b806111d25750816005145b806111dd5750816007145b806111e85750816008145b806111f3575081600a145b806111fe575081600c145b1561120b5750601f610332565b8160021461121b5750601e610332565b611224836112b8565b61122f57601c611232565b601d5b60ff169392505050565b60006107b284101561124d57600080fd5b838383600062253d8c600460036064611324600c600d19890105890101050205600c80600d19870105600c02600287030361016f028161128957fe5b0560046105b5600c600d1989010589016112c0010205617d4b8603010103039050809450505050509392505050565b6000600482061580156112cd57506064820615155b8061033257505061019090061590565b60408051608081018252600080825260208201819052909182019081526020016000905290565b6040805160608101909152600080825260208201908152600060209091015290565b8051801515811461030c57600080fd5b600060208284031215611347578081fd5b610fdf82611326565b600060208284031215611361578081fd5b5035919050565b6000806040838503121561137a578081fd5b8251915061138a60208401611326565b90509250929050565b600080604083850312156113a5578182fd5b50508035926020909101359150565b6000806000606084860312156113c8578081fd5b505081359360208301359350604090920135919050565b6000608082840312156113f0578081fd5b6040516080810181811067ffffffffffffffff8211171561140d57fe5b80604052508251815260208301516020820152604083015161142e8161177a565b604082015260608301516114418161177a565b60608201529392505050565b60006060828403121561145e578081fd5b6040516060810181811067ffffffffffffffff8211171561147b57fe5b60405282518152602083015160068110611493578283fd5b60208201526114a460408401611326565b60408201529392505050565b6000602082840312156114c1578081fd5b5051919050565b6000602082840312156114d9578081fd5b815160ff81168114610fdf578182fd5b6020808252825182820181905260009190848201906040850190845b8181101561152157835183529284019291840191600101611505565b50909695505050505050565b9115158252602082015260400190565b90815260200190565b9283526001600160e01b03199190911660208301526001600160a01b0316604082015260600190565b9081526a19dc9858d954195c9a5bd960aa1b602082015260400190565b9081526b65786572636973654461746560a01b602082015260400190565b9081527019195b1a5b9c5d595b98de54195c9a5bd9607a1b602082015260400190565b908152706e6f6e506572666f726d696e674461746560781b602082015260400190565b90815272636f6e7472616374506572666f726d616e636560681b602082015260400190565b9081527518dc99591a5d115d995b9d151e5c1950dbdd995c995960521b602082015260400190565b90815272636f6e74726163745265666572656e63655f3160681b602082015260400190565b60208082526033908201527f42617365526567697374727946616365742e6973417574686f72697a65643a206040820152722aa720aaaa2427a924ad22a22fa9a2a72222a960691b606082015260800190565b60208082526037908201527f506572696f645574696c732e67657454696d657374616d70506c75735065726960408201527f6f643a204154545249425554455f4e4f545f464f554e44000000000000000000606082015260800190565b60208082526042908201527f41737365744163746f722e6765744e657874556e6465726c79696e674576656e60408201527f743a20554e4445524c59494e475f41535345545f444f45535f4e4f545f45584960608201526114d560f21b608082015260a00190565b6005811061178757600080fd5b5056fe536166654d6174683a206d756c7469706c69636174696f6e206f766572666c6f77a26469706673582212205f6bc0c3e6d77a8eec722b66bda956c361c18c20d183a0808b57498a782313fd64736f6c63430007040033",
  "devdoc": {
    "kind": "dev",
    "methods": {
      "getEventAtIndex(bytes32,uint256)": {
        "params": {
          "assetId": "id of the asset",
          "index": "index of the event to return"
        },
        "returns": {
          "_0": "Event"
        }
      },
      "getNextScheduleIndex(bytes32)": {
        "params": {
          "assetId": "id of the asset"
        },
        "returns": {
          "_0": "Index"
        }
      },
      "getNextScheduledEvent(bytes32)": {
        "params": {
          "assetId": "id of the asset"
        },
        "returns": {
          "_0": "event"
        }
      },
      "getSchedule(bytes32)": {
        "params": {
          "assetId": "id of the asset"
        },
        "returns": {
          "_0": "the schedule"
        }
      },
      "getScheduleLength(bytes32)": {
        "params": {
          "assetId": "id of the asset"
        },
        "returns": {
          "_0": "Length of the schedule"
        }
      },
      "isEventSettled(bytes32,bytes32)": {
        "params": {
          "_event": "event (encoded)",
          "assetId": "id of the asset"
        },
        "returns": {
          "_0": "true if event was settled"
        }
      },
      "markEventAsSettled(bytes32,bytes32,int256)": {
        "details": "Can only be set by authorized account.",
        "params": {
          "_event": "event (encoded) to be marked as settled",
          "assetId": "id of the asset"
        }
      },
      "popNextScheduledEvent(bytes32)": {
        "details": "Can only be updated by the assets actor or by an authorized account.",
        "params": {
          "assetId": "id of the asset"
        }
      }
    },
    "title": "ScheduleRegistry",
    "version": 1
  },
  "userdoc": {
    "kind": "user",
    "methods": {
      "getEventAtIndex(bytes32,uint256)": {
        "notice": "Returns an event for a given position (index) in a schedule of a given asset."
      },
      "getNextScheduleIndex(bytes32)": {
        "notice": "Returns the index of the next event to be processed for a schedule of an asset."
      },
      "getNextScheduledEvent(bytes32)": {
        "notice": "Returns the next event to process."
      },
      "getNextUnderlyingEvent(bytes32)": {
        "notice": "If the underlying of the asset changes in performance to a covered performance, it returns the exerciseDate event."
      },
      "getSchedule(bytes32)": {
        "notice": "Convenience method for retrieving the entire schedule Not recommended to execute method on-chain (if schedule is too long the tx may run out of gas)"
      },
      "getScheduleLength(bytes32)": {
        "notice": "Returns the length of a schedule of a given asset."
      },
      "isEventSettled(bytes32,bytes32)": {
        "notice": "Returns true if an event of an assets schedule was settled"
      },
      "markEventAsSettled(bytes32,bytes32,int256)": {
        "notice": "Mark an event as settled"
      },
      "popNextScheduledEvent(bytes32)": {
        "notice": "Increments the index of a schedule of an asset. (if max index is reached the index will be left unchanged)"
      }
    },
    "version": 1
  },
  "storageLayout": {
    "storage": [],
    "types": null
  },
  "gasEstimates": {
    "creation": {
      "codeDepositCost": "1222600",
      "executionCost": "1275",
      "totalCost": "1223875"
    },
    "external": {
      "getEventAtIndex(bytes32,uint256)": "1418",
      "getNextScheduleIndex(bytes32)": "1250",
      "getNextScheduledEvent(bytes32)": "infinite",
      "getNextUnderlyingEvent(bytes32)": "infinite",
      "getPendingEvent(bytes32)": "1319",
      "getSchedule(bytes32)": "infinite",
      "getScheduleLength(bytes32)": "1298",
      "isEventSettled(bytes32,bytes32)": "infinite",
      "markEventAsSettled(bytes32,bytes32,int256)": "infinite",
      "popNextScheduledEvent(bytes32)": "infinite",
      "popPendingEvent(bytes32)": "infinite",
      "pushPendingEvent(bytes32,bytes32)": "infinite"
    }
  }
}