{
  "abi": [
    {
      "anonymous": false,
      "inputs": [
        {
          "indexed": true,
          "internalType": "bytes32",
          "name": "assetId",
          "type": "bytes32"
        },
        {
          "indexed": false,
          "internalType": "uint256",
          "name": "statusDate",
          "type": "uint256"
        }
      ],
      "name": "UpdatedFinalizedState",
      "type": "event"
    },
    {
      "anonymous": false,
      "inputs": [
        {
          "indexed": true,
          "internalType": "bytes32",
          "name": "assetId",
          "type": "bytes32"
        },
        {
          "indexed": false,
          "internalType": "uint256",
          "name": "statusDate",
          "type": "uint256"
        }
      ],
      "name": "UpdatedState",
      "type": "event"
    },
    {
      "inputs": [
        {
          "internalType": "bytes32",
          "name": "assetId",
          "type": "bytes32"
        },
        {
          "internalType": "bytes32",
          "name": "attribute",
          "type": "bytes32"
        }
      ],
      "name": "getEnumValueForStateAttribute",
      "outputs": [
        {
          "internalType": "uint8",
          "name": "",
          "type": "uint8"
        }
      ],
      "stateMutability": "view",
      "type": "function"
    },
    {
      "inputs": [
        {
          "internalType": "bytes32",
          "name": "assetId",
          "type": "bytes32"
        }
      ],
      "name": "getFinalizedState",
      "outputs": [
        {
          "components": [
            {
              "internalType": "enum ContractPerformance",
              "name": "contractPerformance",
              "type": "uint8"
            },
            {
              "internalType": "uint256",
              "name": "statusDate",
              "type": "uint256"
            },
            {
              "internalType": "uint256",
              "name": "nonPerformingDate",
              "type": "uint256"
            },
            {
              "internalType": "uint256",
              "name": "maturityDate",
              "type": "uint256"
            },
            {
              "internalType": "uint256",
              "name": "exerciseDate",
              "type": "uint256"
            },
            {
              "internalType": "uint256",
              "name": "terminationDate",
              "type": "uint256"
            },
            {
              "internalType": "uint256",
              "name": "lastCouponFixingDate",
              "type": "uint256"
            },
            {
              "internalType": "uint256",
              "name": "lastDividendFixingDate",
              "type": "uint256"
            },
            {
              "internalType": "int256",
              "name": "notionalPrincipal",
              "type": "int256"
            },
            {
              "internalType": "int256",
              "name": "accruedInterest",
              "type": "int256"
            },
            {
              "internalType": "int256",
              "name": "feeAccrued",
              "type": "int256"
            },
            {
              "internalType": "int256",
              "name": "nominalInterestRate",
              "type": "int256"
            },
            {
              "internalType": "int256",
              "name": "interestScalingMultiplier",
              "type": "int256"
            },
            {
              "internalType": "int256",
              "name": "notionalScalingMultiplier",
              "type": "int256"
            },
            {
              "internalType": "int256",
              "name": "nextPrincipalRedemptionPayment",
              "type": "int256"
            },
            {
              "internalType": "int256",
              "name": "exerciseAmount",
              "type": "int256"
            },
            {
              "internalType": "int256",
              "name": "exerciseQuantity",
              "type": "int256"
            },
            {
              "internalType": "int256",
              "name": "quantity",
              "type": "int256"
            },
            {
              "internalType": "int256",
              "name": "couponAmountFixed",
              "type": "int256"
            },
            {
              "internalType": "int256",
              "name": "marginFactor",
              "type": "int256"
            },
            {
              "internalType": "int256",
              "name": "adjustmentFactor",
              "type": "int256"
            },
            {
              "internalType": "int256",
              "name": "dividendPaymentAmount",
              "type": "int256"
            },
            {
              "internalType": "int256",
              "name": "splitRatio",
              "type": "int256"
            }
          ],
          "internalType": "struct State",
          "name": "",
          "type": "tuple"
        }
      ],
      "stateMutability": "view",
      "type": "function"
    },
    {
      "inputs": [
        {
          "internalType": "bytes32",
          "name": "assetId",
          "type": "bytes32"
        },
        {
          "internalType": "bytes32",
          "name": "attribute",
          "type": "bytes32"
        }
      ],
      "name": "getIntValueForStateAttribute",
      "outputs": [
        {
          "internalType": "int256",
          "name": "",
          "type": "int256"
        }
      ],
      "stateMutability": "view",
      "type": "function"
    },
    {
      "inputs": [
        {
          "internalType": "bytes32",
          "name": "assetId",
          "type": "bytes32"
        }
      ],
      "name": "getState",
      "outputs": [
        {
          "components": [
            {
              "internalType": "enum ContractPerformance",
              "name": "contractPerformance",
              "type": "uint8"
            },
            {
              "internalType": "uint256",
              "name": "statusDate",
              "type": "uint256"
            },
            {
              "internalType": "uint256",
              "name": "nonPerformingDate",
              "type": "uint256"
            },
            {
              "internalType": "uint256",
              "name": "maturityDate",
              "type": "uint256"
            },
            {
              "internalType": "uint256",
              "name": "exerciseDate",
              "type": "uint256"
            },
            {
              "internalType": "uint256",
              "name": "terminationDate",
              "type": "uint256"
            },
            {
              "internalType": "uint256",
              "name": "lastCouponFixingDate",
              "type": "uint256"
            },
            {
              "internalType": "uint256",
              "name": "lastDividendFixingDate",
              "type": "uint256"
            },
            {
              "internalType": "int256",
              "name": "notionalPrincipal",
              "type": "int256"
            },
            {
              "internalType": "int256",
              "name": "accruedInterest",
              "type": "int256"
            },
            {
              "internalType": "int256",
              "name": "feeAccrued",
              "type": "int256"
            },
            {
              "internalType": "int256",
              "name": "nominalInterestRate",
              "type": "int256"
            },
            {
              "internalType": "int256",
              "name": "interestScalingMultiplier",
              "type": "int256"
            },
            {
              "internalType": "int256",
              "name": "notionalScalingMultiplier",
              "type": "int256"
            },
            {
              "internalType": "int256",
              "name": "nextPrincipalRedemptionPayment",
              "type": "int256"
            },
            {
              "internalType": "int256",
              "name": "exerciseAmount",
              "type": "int256"
            },
            {
              "internalType": "int256",
              "name": "exerciseQuantity",
              "type": "int256"
            },
            {
              "internalType": "int256",
              "name": "quantity",
              "type": "int256"
            },
            {
              "internalType": "int256",
              "name": "couponAmountFixed",
              "type": "int256"
            },
            {
              "internalType": "int256",
              "name": "marginFactor",
              "type": "int256"
            },
            {
              "internalType": "int256",
              "name": "adjustmentFactor",
              "type": "int256"
            },
            {
              "internalType": "int256",
              "name": "dividendPaymentAmount",
              "type": "int256"
            },
            {
              "internalType": "int256",
              "name": "splitRatio",
              "type": "int256"
            }
          ],
          "internalType": "struct State",
          "name": "",
          "type": "tuple"
        }
      ],
      "stateMutability": "view",
      "type": "function"
    },
    {
      "inputs": [
        {
          "internalType": "bytes32",
          "name": "assetId",
          "type": "bytes32"
        },
        {
          "internalType": "bytes32",
          "name": "attribute",
          "type": "bytes32"
        }
      ],
      "name": "getUintValueForStateAttribute",
      "outputs": [
        {
          "internalType": "uint256",
          "name": "",
          "type": "uint256"
        }
      ],
      "stateMutability": "view",
      "type": "function"
    },
    {
      "inputs": [
        {
          "internalType": "bytes32",
          "name": "assetId",
          "type": "bytes32"
        },
        {
          "components": [
            {
              "internalType": "enum ContractPerformance",
              "name": "contractPerformance",
              "type": "uint8"
            },
            {
              "internalType": "uint256",
              "name": "statusDate",
              "type": "uint256"
            },
            {
              "internalType": "uint256",
              "name": "nonPerformingDate",
              "type": "uint256"
            },
            {
              "internalType": "uint256",
              "name": "maturityDate",
              "type": "uint256"
            },
            {
              "internalType": "uint256",
              "name": "exerciseDate",
              "type": "uint256"
            },
            {
              "internalType": "uint256",
              "name": "terminationDate",
              "type": "uint256"
            },
            {
              "internalType": "uint256",
              "name": "lastCouponFixingDate",
              "type": "uint256"
            },
            {
              "internalType": "uint256",
              "name": "lastDividendFixingDate",
              "type": "uint256"
            },
            {
              "internalType": "int256",
              "name": "notionalPrincipal",
              "type": "int256"
            },
            {
              "internalType": "int256",
              "name": "accruedInterest",
              "type": "int256"
            },
            {
              "internalType": "int256",
              "name": "feeAccrued",
              "type": "int256"
            },
            {
              "internalType": "int256",
              "name": "nominalInterestRate",
              "type": "int256"
            },
            {
              "internalType": "int256",
              "name": "interestScalingMultiplier",
              "type": "int256"
            },
            {
              "internalType": "int256",
              "name": "notionalScalingMultiplier",
              "type": "int256"
            },
            {
              "internalType": "int256",
              "name": "nextPrincipalRedemptionPayment",
              "type": "int256"
            },
            {
              "internalType": "int256",
              "name": "exerciseAmount",
              "type": "int256"
            },
            {
              "internalType": "int256",
              "name": "exerciseQuantity",
              "type": "int256"
            },
            {
              "internalType": "int256",
              "name": "quantity",
              "type": "int256"
            },
            {
              "internalType": "int256",
              "name": "couponAmountFixed",
              "type": "int256"
            },
            {
              "internalType": "int256",
              "name": "marginFactor",
              "type": "int256"
            },
            {
              "internalType": "int256",
              "name": "adjustmentFactor",
              "type": "int256"
            },
            {
              "internalType": "int256",
              "name": "dividendPaymentAmount",
              "type": "int256"
            },
            {
              "internalType": "int256",
              "name": "splitRatio",
              "type": "int256"
            }
          ],
          "internalType": "struct State",
          "name": "state",
          "type": "tuple"
        }
      ],
      "name": "setFinalizedState",
      "outputs": [],
      "stateMutability": "nonpayable",
      "type": "function"
    },
    {
      "inputs": [
        {
          "internalType": "bytes32",
          "name": "assetId",
          "type": "bytes32"
        },
        {
          "components": [
            {
              "internalType": "enum ContractPerformance",
              "name": "contractPerformance",
              "type": "uint8"
            },
            {
              "internalType": "uint256",
              "name": "statusDate",
              "type": "uint256"
            },
            {
              "internalType": "uint256",
              "name": "nonPerformingDate",
              "type": "uint256"
            },
            {
              "internalType": "uint256",
              "name": "maturityDate",
              "type": "uint256"
            },
            {
              "internalType": "uint256",
              "name": "exerciseDate",
              "type": "uint256"
            },
            {
              "internalType": "uint256",
              "name": "terminationDate",
              "type": "uint256"
            },
            {
              "internalType": "uint256",
              "name": "lastCouponFixingDate",
              "type": "uint256"
            },
            {
              "internalType": "uint256",
              "name": "lastDividendFixingDate",
              "type": "uint256"
            },
            {
              "internalType": "int256",
              "name": "notionalPrincipal",
              "type": "int256"
            },
            {
              "internalType": "int256",
              "name": "accruedInterest",
              "type": "int256"
            },
            {
              "internalType": "int256",
              "name": "feeAccrued",
              "type": "int256"
            },
            {
              "internalType": "int256",
              "name": "nominalInterestRate",
              "type": "int256"
            },
            {
              "internalType": "int256",
              "name": "interestScalingMultiplier",
              "type": "int256"
            },
            {
              "internalType": "int256",
              "name": "notionalScalingMultiplier",
              "type": "int256"
            },
            {
              "internalType": "int256",
              "name": "nextPrincipalRedemptionPayment",
              "type": "int256"
            },
            {
              "internalType": "int256",
              "name": "exerciseAmount",
              "type": "int256"
            },
            {
              "internalType": "int256",
              "name": "exerciseQuantity",
              "type": "int256"
            },
            {
              "internalType": "int256",
              "name": "quantity",
              "type": "int256"
            },
            {
              "internalType": "int256",
              "name": "couponAmountFixed",
              "type": "int256"
            },
            {
              "internalType": "int256",
              "name": "marginFactor",
              "type": "int256"
            },
            {
              "internalType": "int256",
              "name": "adjustmentFactor",
              "type": "int256"
            },
            {
              "internalType": "int256",
              "name": "dividendPaymentAmount",
              "type": "int256"
            },
            {
              "internalType": "int256",
              "name": "splitRatio",
              "type": "int256"
            }
          ],
          "internalType": "struct State",
          "name": "state",
          "type": "tuple"
        }
      ],
      "name": "setState",
      "outputs": [],
      "stateMutability": "nonpayable",
      "type": "function"
    }
  ],
  "address": "0x679ef0c5a8a806c5FaE6A098f1d668C2aF095d01",
  "args": [],
  "solcInputHash": "0x641332b4189abe50474574ba46977bd7f0a689fca4e1c1910dccc48384971409",
  "bytecode": "0x608060405234801561001057600080fd5b50611851806100206000396000f3fe608060405234801561001057600080fd5b506004361061007d5760003560e01c8063606aa07e1161005b578063606aa07e146100d35780636a899b9b146100d3578063842962d5146100f3578063cf5aed12146101065761007d565b806309648a9d1461008257806337462dba146100ab5780633a60d6fe146100be575b600080fd5b6100956100903660046114c2565b610126565b6040516100a291906116e3565b60405180910390f35b6100956100b93660046114c2565b610155565b6100d16100cc3660046114fb565b61017c565b005b6100e66100e13660046114da565b6102c3565b6040516100a29190611687565b6100d16101013660046114fb565b6102ef565b6101196101143660046114da565b610420565b6040516100a291906117e9565b61012e6113dd565b61014d610139610443565b600084815260209190915260409020610467565b90505b919050565b61015d6113dd565b61014d610168610443565b6000848152602091909152604090206107d4565b81610185610443565b600082815260209190915260409020600101546001600160a01b031633148061022e5750604051631b12681560e01b81523090631b126815906101dc9084906001600160e01b03196000351690339060040161165e565b602060405180830381600087803b1580156101f657600080fd5b505af115801561020a573d6000803e3d6000fd5b505050506040513d601f19601f8201168201806040525081019061022e919061149b565b6102535760405162461bcd60e51b815260040161024a90611690565b60405180910390fd5b61028261026536849003840184611533565b61026d610443565b60008681526020919091526040902090610b71565b827fad3970329ffaec63d947adc6077368479a4be7f09f2e7ba1b13852f8405b3ec683602001356040516102b69190611687565b60405180910390a2505050565b60006102e6826102d1610443565b60008681526020919091526040902090610f19565b90505b92915050565b816102f8610443565b600082815260209190915260409020600101546001600160a01b03163314806103a15750604051631b12681560e01b81523090631b1268159061034f9084906001600160e01b03196000351690339060040161165e565b602060405180830381600087803b15801561036957600080fd5b505af115801561037d573d6000803e3d6000fd5b505050506040513d601f19601f820116820180604052508101906103a1919061149b565b6103bd5760405162461bcd60e51b815260040161024a90611690565b6103ec6103cf36849003840184611533565b6103d7610443565b60008681526020919091526040902090610f2f565b827f0c71209d22d4c70a40140b94deee55f1f54a9353e3d5d5a4ddfb45fcddcf720f83602001356040516102b69190611687565b60006102e68261042e610443565b600086815260209190915260409020906112fb565b7fed91072810f28ab6b6fc02a2132e36fe987e74def3a4eccfa0a9b6343b1fdaf590565b61046f6113dd565b604080516102e08101825272636f6e7472616374506572666f726d616e636560681b6000908152600f85016020529190912054819060f81c60058111156104b257fe5b60058111156104bd57fe5b8152697374617475734461746560b01b6000908152600f8501602081815260408084205482860152706e6f6e506572666f726d696e674461746560781b845282825280842054818601526b6d617475726974794461746560a01b84528282528084205460608601526b65786572636973654461746560a01b84528282528084205460808601526e7465726d696e6174696f6e4461746560881b84528282528084205460a0860152736c617374436f75706f6e466978696e674461746560601b84528282528084205460c0860152756c6173744469766964656e64466978696e674461746560501b84528282528084205460e0860152701b9bdd1a5bdb985b141c9a5b98da5c185b607a1b8452828252808420546101008601526e1858d8dc9d5959125b9d195c995cdd608a1b845282825280842054610120860152691999595058d8dc9d595960b21b845282825280842054610140860152726e6f6d696e616c496e7465726573745261746560681b8452828252808420546101608601527834b73a32b932b9ba29b1b0b634b733a6bab63a34b83634b2b960391b845282825280842054610180860152783737ba34b7b730b629b1b0b634b733a6bab63a34b83634b2b960391b8452828252808420546101a08601527f6e6578745072696e636970616c526564656d7074696f6e5061796d656e7400008452828252808420546101c08601526d195e195c98da5cd9505b5bdd5b9d60921b8452828252808420546101e08601526f65786572636973655175616e7469747960801b845282825280842054610200860152677175616e7469747960c01b8452828252808420546102208601527018dbdd5c1bdb905b5bdd5b9d119a5e1959607a1b8452828252808420546102408601526b36b0b933b4b72330b1ba37b960a11b8452828252808420546102608601526f30b2353ab9ba36b2b73a2330b1ba37b960811b84528282528084205461028086015274191a5d9a59195b9914185e5b595b9d105b5bdd5b9d605a1b8452828252808420546102a08601526973706c6974526174696f60b01b84529190529020546102c0909101529050919050565b6107dc6113dd565b604080516102e08101825274465f636f6e7472616374506572666f726d616e636560581b6000908152600f85016020529190912054819060f81c600581111561082157fe5b600581111561082c57fe5b81526b465f7374617475734461746560a01b6000908152600f850160208181526040808420548286015272465f6e6f6e506572666f726d696e674461746560681b845282825280842054818601526d465f6d617475726974794461746560901b84528282528084205460608601526d465f65786572636973654461746560901b845282825280842054608086015270465f7465726d696e6174696f6e4461746560781b84528282528084205460a086015275465f6c617374436f75706f6e466978696e674461746560501b84528282528084205460c086015277465f6c6173744469766964656e64466978696e674461746560401b84528282528084205460e0860152721197db9bdd1a5bdb985b141c9a5b98da5c185b606a1b845282825280842054610100860152701197d858d8dc9d5959125b9d195c995cdd607a1b8452828252808420546101208601526b1197d999595058d8dc9d595960a21b84528282528084205461014086015274465f6e6f6d696e616c496e7465726573745261746560581b8452828252808420546101608601527f465f696e7465726573745363616c696e674d756c7469706c69657200000000008452828252808420546101808601527f465f6e6f74696f6e616c5363616c696e674d756c7469706c69657200000000008452828252808420546101a08601527f465f6e6578745072696e636970616c526564656d7074696f6e5061796d656e748452828252808420546101c08601526f1197d95e195c98da5cd9505b5bdd5b9d60821b8452828252808420546101e086015271465f65786572636973655175616e7469747960701b84528282528084205461020086015269465f7175616e7469747960b01b845282825280842054610220860152721197d8dbdd5c1bdb905b5bdd5b9d119a5e1959606a1b8452828252808420546102408601526d232fb6b0b933b4b72330b1ba37b960911b84528282528084205461026086015271232fb0b2353ab9ba36b2b73a2330b1ba37b960711b845282825280842054610280860152761197d91a5d9a59195b9914185e5b595b9d105b5bdd5b9d604a1b8452828252808420546102a08601526b465f73706c6974526174696f60a01b84529190529020546102c0909101529050919050565b610ba88272636f6e7472616374506572666f726d616e636560681b60f884600001516005811115610b9e57fe5b60ff16901b6113a7565b610bc782697374617475734461746560b01b836020015160001b6113a7565b610bed82706e6f6e506572666f726d696e674461746560781b836040015160001b6113a7565b610c0e826b6d617475726974794461746560a01b836060015160001b6113a7565b610c2f826b65786572636973654461746560a01b836080015160001b6113a7565b610c53826e7465726d696e6174696f6e4461746560881b8360a0015160001b6113a7565b610c7c82736c617374436f75706f6e466978696e674461746560601b8360c0015160001b6113a7565b610ca782756c6173744469766964656e64466978696e674461746560501b8360e0015160001b6113a7565b610cce82701b9bdd1a5bdb985b141c9a5b98da5c185b607a1b83610100015160001b6113a7565b610cf3826e1858d8dc9d5959125b9d195c995cdd608a1b83610120015160001b6113a7565b610d1382691999595058d8dc9d595960b21b83610140015160001b6113a7565b610d3c82726e6f6d696e616c496e7465726573745261746560681b83610160015160001b6113a7565b610d6b827834b73a32b932b9ba29b1b0b634b733a6bab63a34b83634b2b960391b83610180015160001b6113a7565b610d9a82783737ba34b7b730b629b1b0b634b733a6bab63a34b83634b2b960391b836101a0015160001b6113a7565b610dcd827f6e6578745072696e636970616c526564656d7074696f6e5061796d656e740000836101c0015160001b6113a7565b610df1826d195e195c98da5cd9505b5bdd5b9d60921b836101e0015160001b6113a7565b610e17826f65786572636973655175616e7469747960801b83610200015160001b6113a7565b610e3d826f65786572636973655175616e7469747960801b83610200015160001b6113a7565b610e5b82677175616e7469747960c01b83610220015160001b6113a7565b610e82827018dbdd5c1bdb905b5bdd5b9d119a5e1959607a1b83610240015160001b6113a7565b610ea4826b36b0b933b4b72330b1ba37b960a11b83610260015160001b6113a7565b610eca826f30b2353ab9ba36b2b73a2330b1ba37b960811b83610280015160001b6113a7565b610ef58274191a5d9a59195b9914185e5b595b9d105b5bdd5b9d605a1b836102a0015160001b6113a7565b610f15826973706c6974526174696f60b01b836102c0015160001b6113a7565b5050565b6000908152600f91909101602052604090205490565b610f5e8274465f636f6e7472616374506572666f726d616e636560581b60f884600001516005811115610b9e57fe5b610f7f826b465f7374617475734461746560a01b836020015160001b6113a7565b610fa78272465f6e6f6e506572666f726d696e674461746560681b836040015160001b6113a7565b610fca826d465f6d617475726974794461746560901b836060015160001b6113a7565b610fed826d465f65786572636973654461746560901b836080015160001b6113a7565b6110138270465f7465726d696e6174696f6e4461746560781b8360a0015160001b6113a7565b61103e8275465f6c617374436f75706f6e466978696e674461746560501b8360c0015160001b6113a7565b61106b8277465f6c6173744469766964656e64466978696e674461746560401b8360e0015160001b6113a7565b61109482721197db9bdd1a5bdb985b141c9a5b98da5c185b606a1b83610100015160001b6113a7565b6110bb82701197d858d8dc9d5959125b9d195c995cdd607a1b83610120015160001b6113a7565b6110dd826b1197d999595058d8dc9d595960a21b83610140015160001b6113a7565b6111088274465f6e6f6d696e616c496e7465726573745261746560581b83610160015160001b6113a7565b61113b827f465f696e7465726573745363616c696e674d756c7469706c696572000000000083610180015160001b6113a7565b61116e827f465f6e6f74696f6e616c5363616c696e674d756c7469706c6965720000000000836101a0015160001b6113a7565b6111a1827f465f6e6578745072696e636970616c526564656d7074696f6e5061796d656e74836101c0015160001b6113a7565b6111c7826f1197d95e195c98da5cd9505b5bdd5b9d60821b836101e0015160001b6113a7565b6111ef8271465f65786572636973655175616e7469747960701b83610200015160001b6113a7565b6112178271465f65786572636973655175616e7469747960701b83610200015160001b6113a7565b6112378269465f7175616e7469747960b01b83610220015160001b6113a7565b61126082721197d8dbdd5c1bdb905b5bdd5b9d119a5e1959606a1b83610240015160001b6113a7565b611284826d232fb6b0b933b4b72330b1ba37b960911b83610260015160001b6113a7565b6112ac8271232fb0b2353ab9ba36b2b73a2330b1ba37b960711b83610280015160001b6113a7565b6112d982761197d91a5d9a59195b9914185e5b595b9d105b5bdd5b9d604a1b836102a0015160001b6113a7565b610f15826b465f73706c6974526174696f60a01b836102c0015160001b6113a7565b600072636f6e7472616374506572666f726d616e636560681b82141561134c575072636f6e7472616374506572666f726d616e636560681b6000908152600f8301602052604090205460f81c6102e9565b74465f636f6e7472616374506572666f726d616e636560581b82141561139f575074465f636f6e7472616374506572666f726d616e636560581b6000908152600f8301602052604090205460f81c6102e9565b5060006102e9565b6000828152600f840160205260409020548114156113c4576113d8565b6000828152600f8401602052604090208190555b505050565b604080516102e081019091528060008152602001600081526020016000815260200160008152602001600081526020016000815260200160008152602001600081526020016000815260200160008152602001600081526020016000815260200160008152602001600081526020016000815260200160008152602001600081526020016000815260200160008152602001600081526020016000815260200160008152602001600081525090565b80356006811061015057600080fd5b6000602082840312156114ac578081fd5b815180151581146114bb578182fd5b9392505050565b6000602082840312156114d3578081fd5b5035919050565b600080604083850312156114ec578081fd5b50508035926020909101359150565b60008082840361030081121561150f578283fd5b833592506102e0601f1982011215611525578182fd5b506020830190509250929050565b60006102e0808385031215611546578182fd5b61154f816117f7565b905061155a8361148c565b81526020838101359082015260408084013590820152606080840135908201526080808401359082015260a0808401359082015260c0808401359082015260e08084013590820152610100808401359082015261012080840135908201526101408084013590820152610160808401359082015261018080840135908201526101a080840135908201526101c080840135908201526101e08084013590820152610200808401359082015261022080840135908201526102408084013590820152610260808401359082015261028080840135908201526102a080840135908201526102c0928301359281019290925250919050565b6006811061165a57fe5b9052565b9283526001600160e01b03199190911660208301526001600160a01b0316604082015260600190565b90815260200190565b60208082526033908201527f42617365526567697374727946616365742e6973417574686f72697a65643a206040820152722aa720aaaa2427a924ad22a22fa9a2a72222a960691b606082015260800190565b60006102e0820190506116f7828451611650565b6020838101519083015260408084015190830152606080840151908301526080808401519083015260a0808401519083015260c0808401519083015260e08084015190830152610100808401519083015261012080840151908301526101408084015190830152610160808401519083015261018080840151908301526101a080840151908301526101c080840151908301526101e08084015190830152610200808401519083015261022080840151908301526102408084015190830152610260808401519083015261028080840151908301526102a080840151908301526102c092830151929091019190915290565b60ff91909116815260200190565b60405181810167ffffffffffffffff8111828210171561181357fe5b60405291905056fea2646970667358221220a2dd4cab22ee77543704b34c147f444d2c0245553f0eee906967f30ab1bbb0bf64736f6c63430007040033",
  "devdoc": {
    "kind": "dev",
    "methods": {
      "getFinalizedState(bytes32)": {
        "params": {
          "assetId": "id of the asset"
        },
        "returns": {
          "_0": "state of the asset"
        }
      },
      "getState(bytes32)": {
        "params": {
          "assetId": "id of the asset"
        },
        "returns": {
          "_0": "state of the asset"
        }
      },
      "setFinalizedState(bytes32,(uint8,uint256,uint256,uint256,uint256,uint256,uint256,uint256,int256,int256,int256,int256,int256,int256,int256,int256,int256,int256,int256,int256,int256,int256,int256))": {
        "details": "Can only be updated by the assets actor or by an authorized account.",
        "params": {
          "assetId": "id of the asset",
          "state": "next state of the asset"
        }
      },
      "setState(bytes32,(uint8,uint256,uint256,uint256,uint256,uint256,uint256,uint256,int256,int256,int256,int256,int256,int256,int256,int256,int256,int256,int256,int256,int256,int256,int256))": {
        "details": "Can only be updated by the assets actor or by an authorized account.",
        "params": {
          "assetId": "id of the asset",
          "state": "next state of the asset"
        }
      }
    },
    "title": "StateRegistry",
    "version": 1
  },
  "userdoc": {
    "kind": "user",
    "methods": {
      "getFinalizedState(bytes32)": {
        "notice": "Returns the state of an asset."
      },
      "getState(bytes32)": {
        "notice": "Returns the state of an asset."
      },
      "setFinalizedState(bytes32,(uint8,uint256,uint256,uint256,uint256,uint256,uint256,uint256,int256,int256,int256,int256,int256,int256,int256,int256,int256,int256,int256,int256,int256,int256,int256))": {
        "notice": "Sets next finalized state of an asset."
      },
      "setState(bytes32,(uint8,uint256,uint256,uint256,uint256,uint256,uint256,uint256,int256,int256,int256,int256,int256,int256,int256,int256,int256,int256,int256,int256,int256,int256,int256))": {
        "notice": "Sets next state of an asset."
      }
    },
    "version": 1
  },
  "storageLayout": {
    "storage": [],
    "types": null
  },
  "gasEstimates": {
    "creation": {
      "codeDepositCost": "1245000",
      "executionCost": "1295",
      "totalCost": "1246295"
    },
    "external": {
      "getEnumValueForStateAttribute(bytes32,bytes32)": "infinite",
      "getFinalizedState(bytes32)": "infinite",
      "getIntValueForStateAttribute(bytes32,bytes32)": "1382",
      "getState(bytes32)": "infinite",
      "getUintValueForStateAttribute(bytes32,bytes32)": "1360",
      "setFinalizedState(bytes32,(uint8,uint256,uint256,uint256,uint256,uint256,uint256,uint256,int256,int256,int256,int256,int256,int256,int256,int256,int256,int256,int256,int256,int256,int256,int256))": "infinite",
      "setState(bytes32,(uint8,uint256,uint256,uint256,uint256,uint256,uint256,uint256,int256,int256,int256,int256,int256,int256,int256,int256,int256,int256,int256,int256,int256,int256,int256))": "infinite"
    }
  }
}