{
  "abi": [
    {
      "inputs": [
        {
          "internalType": "contract IAssetRegistry",
          "name": "assetRegistry",
          "type": "address"
        },
        {
          "internalType": "contract IDataRegistry",
          "name": "dataRegistry",
          "type": "address"
        }
      ],
      "stateMutability": "nonpayable",
      "type": "constructor"
    },
    {
      "anonymous": false,
      "inputs": [
        {
          "indexed": true,
          "internalType": "bytes32",
          "name": "assetId",
          "type": "bytes32"
        },
        {
          "indexed": false,
          "internalType": "enum ContractType",
          "name": "contractType",
          "type": "uint8"
        },
        {
          "indexed": false,
          "internalType": "address",
          "name": "creator",
          "type": "address"
        },
        {
          "indexed": false,
          "internalType": "address",
          "name": "counterparty",
          "type": "address"
        }
      ],
      "name": "InitializedAsset",
      "type": "event"
    },
    {
      "anonymous": false,
      "inputs": [
        {
          "indexed": true,
          "internalType": "address",
          "name": "previousOwner",
          "type": "address"
        },
        {
          "indexed": true,
          "internalType": "address",
          "name": "newOwner",
          "type": "address"
        }
      ],
      "name": "OwnershipTransferred",
      "type": "event"
    },
    {
      "anonymous": false,
      "inputs": [
        {
          "indexed": true,
          "internalType": "bytes32",
          "name": "assetId",
          "type": "bytes32"
        },
        {
          "indexed": false,
          "internalType": "enum EventType",
          "name": "eventType",
          "type": "uint8"
        },
        {
          "indexed": false,
          "internalType": "uint256",
          "name": "scheduleTime",
          "type": "uint256"
        },
        {
          "indexed": false,
          "internalType": "int256",
          "name": "payoff",
          "type": "int256"
        }
      ],
      "name": "ProgressedAsset",
      "type": "event"
    },
    {
      "anonymous": false,
      "inputs": [
        {
          "indexed": true,
          "internalType": "bytes32",
          "name": "assetId",
          "type": "bytes32"
        },
        {
          "indexed": false,
          "internalType": "bytes32",
          "name": "statusMessage",
          "type": "bytes32"
        }
      ],
      "name": "Status",
      "type": "event"
    },
    {
      "inputs": [],
      "name": "assetRegistry",
      "outputs": [
        {
          "internalType": "contract IAssetRegistry",
          "name": "",
          "type": "address"
        }
      ],
      "stateMutability": "view",
      "type": "function"
    },
    {
      "inputs": [],
      "name": "dataRegistry",
      "outputs": [
        {
          "internalType": "contract IDataRegistry",
          "name": "",
          "type": "address"
        }
      ],
      "stateMutability": "view",
      "type": "function"
    },
    {
      "inputs": [
        {
          "internalType": "bytes32",
          "name": "object",
          "type": "bytes32"
        }
      ],
      "name": "decodeCollateralObject",
      "outputs": [
        {
          "internalType": "address",
          "name": "",
          "type": "address"
        },
        {
          "internalType": "uint256",
          "name": "",
          "type": "uint256"
        }
      ],
      "stateMutability": "pure",
      "type": "function"
    },
    {
      "inputs": [
        {
          "internalType": "address",
          "name": "collateralToken",
          "type": "address"
        },
        {
          "internalType": "uint256",
          "name": "collateralAmount",
          "type": "uint256"
        }
      ],
      "name": "encodeCollateralAsObject",
      "outputs": [
        {
          "internalType": "bytes32",
          "name": "",
          "type": "bytes32"
        }
      ],
      "stateMutability": "pure",
      "type": "function"
    },
    {
      "inputs": [
        {
          "components": [
            {
              "internalType": "enum ContractType",
              "name": "contractType",
              "type": "uint8"
            },
            {
              "internalType": "enum Calendar",
              "name": "calendar",
              "type": "uint8"
            },
            {
              "internalType": "enum ContractRole",
              "name": "contractRole",
              "type": "uint8"
            },
            {
              "internalType": "enum DayCountConvention",
              "name": "dayCountConvention",
              "type": "uint8"
            },
            {
              "internalType": "enum BusinessDayConvention",
              "name": "businessDayConvention",
              "type": "uint8"
            },
            {
              "internalType": "enum EndOfMonthConvention",
              "name": "endOfMonthConvention",
              "type": "uint8"
            },
            {
              "internalType": "enum RedeemableByIssuer",
              "name": "redeemableByIssuer",
              "type": "uint8"
            },
            {
              "internalType": "address",
              "name": "currency",
              "type": "address"
            },
            {
              "internalType": "address",
              "name": "settlementCurrency",
              "type": "address"
            },
            {
              "internalType": "uint256",
              "name": "contractDealDate",
              "type": "uint256"
            },
            {
              "internalType": "uint256",
              "name": "statusDate",
              "type": "uint256"
            },
            {
              "internalType": "uint256",
              "name": "issueDate",
              "type": "uint256"
            },
            {
              "internalType": "uint256",
              "name": "purchaseDate",
              "type": "uint256"
            },
            {
              "internalType": "uint256",
              "name": "cycleAnchorDateOfDividend",
              "type": "uint256"
            },
            {
              "internalType": "int256",
              "name": "nominalPrice",
              "type": "int256"
            },
            {
              "internalType": "int256",
              "name": "notionalPrincipal",
              "type": "int256"
            },
            {
              "internalType": "int256",
              "name": "issuePrice",
              "type": "int256"
            },
            {
              "internalType": "int256",
              "name": "quantity",
              "type": "int256"
            },
            {
              "internalType": "int256",
              "name": "priceAtPurchaseDate",
              "type": "int256"
            },
            {
              "internalType": "int256",
              "name": "redemptionPrice",
              "type": "int256"
            },
            {
              "components": [
                {
                  "internalType": "uint256",
                  "name": "i",
                  "type": "uint256"
                },
                {
                  "internalType": "enum P",
                  "name": "p",
                  "type": "uint8"
                },
                {
                  "internalType": "bool",
                  "name": "isSet",
                  "type": "bool"
                }
              ],
              "internalType": "struct IP",
              "name": "dividendRecordPeriod",
              "type": "tuple"
            },
            {
              "components": [
                {
                  "internalType": "uint256",
                  "name": "i",
                  "type": "uint256"
                },
                {
                  "internalType": "enum P",
                  "name": "p",
                  "type": "uint8"
                },
                {
                  "internalType": "bool",
                  "name": "isSet",
                  "type": "bool"
                }
              ],
              "internalType": "struct IP",
              "name": "dividendPaymentPeriod",
              "type": "tuple"
            },
            {
              "components": [
                {
                  "internalType": "uint256",
                  "name": "i",
                  "type": "uint256"
                },
                {
                  "internalType": "enum P",
                  "name": "p",
                  "type": "uint8"
                },
                {
                  "internalType": "bool",
                  "name": "isSet",
                  "type": "bool"
                }
              ],
              "internalType": "struct IP",
              "name": "splitSettlementPeriod",
              "type": "tuple"
            },
            {
              "components": [
                {
                  "internalType": "uint256",
                  "name": "i",
                  "type": "uint256"
                },
                {
                  "internalType": "enum P",
                  "name": "p",
                  "type": "uint8"
                },
                {
                  "internalType": "bool",
                  "name": "isSet",
                  "type": "bool"
                }
              ],
              "internalType": "struct IP",
              "name": "redemptionRecordPeriod",
              "type": "tuple"
            },
            {
              "components": [
                {
                  "internalType": "uint256",
                  "name": "i",
                  "type": "uint256"
                },
                {
                  "internalType": "enum P",
                  "name": "p",
                  "type": "uint8"
                },
                {
                  "internalType": "bool",
                  "name": "isSet",
                  "type": "bool"
                }
              ],
              "internalType": "struct IP",
              "name": "redemptionPaymentPeriod",
              "type": "tuple"
            },
            {
              "components": [
                {
                  "internalType": "uint256",
                  "name": "i",
                  "type": "uint256"
                },
                {
                  "internalType": "enum P",
                  "name": "p",
                  "type": "uint8"
                },
                {
                  "internalType": "enum S",
                  "name": "s",
                  "type": "uint8"
                },
                {
                  "internalType": "bool",
                  "name": "isSet",
                  "type": "bool"
                }
              ],
              "internalType": "struct IPS",
              "name": "cycleOfDividend",
              "type": "tuple"
            }
          ],
          "internalType": "struct STKTerms",
          "name": "terms",
          "type": "tuple"
        },
        {
          "internalType": "bytes32[]",
          "name": "schedule",
          "type": "bytes32[]"
        },
        {
          "components": [
            {
              "internalType": "address",
              "name": "creatorObligor",
              "type": "address"
            },
            {
              "internalType": "address",
              "name": "creatorBeneficiary",
              "type": "address"
            },
            {
              "internalType": "address",
              "name": "counterpartyObligor",
              "type": "address"
            },
            {
              "internalType": "address",
              "name": "counterpartyBeneficiary",
              "type": "address"
            }
          ],
          "internalType": "struct AssetOwnership",
          "name": "ownership",
          "type": "tuple"
        },
        {
          "internalType": "address",
          "name": "engine",
          "type": "address"
        },
        {
          "internalType": "address",
          "name": "admin",
          "type": "address"
        }
      ],
      "name": "initialize",
      "outputs": [],
      "stateMutability": "nonpayable",
      "type": "function"
    },
    {
      "inputs": [],
      "name": "owner",
      "outputs": [
        {
          "internalType": "address",
          "name": "",
          "type": "address"
        }
      ],
      "stateMutability": "view",
      "type": "function"
    },
    {
      "inputs": [
        {
          "internalType": "bytes32",
          "name": "assetId",
          "type": "bytes32"
        }
      ],
      "name": "progress",
      "outputs": [],
      "stateMutability": "nonpayable",
      "type": "function"
    },
    {
      "inputs": [
        {
          "internalType": "bytes32",
          "name": "assetId",
          "type": "bytes32"
        },
        {
          "internalType": "bytes32",
          "name": "_event",
          "type": "bytes32"
        }
      ],
      "name": "progressWith",
      "outputs": [],
      "stateMutability": "nonpayable",
      "type": "function"
    },
    {
      "inputs": [],
      "name": "renounceOwnership",
      "outputs": [],
      "stateMutability": "nonpayable",
      "type": "function"
    },
    {
      "inputs": [
        {
          "internalType": "uint256",
          "name": "timestamp",
          "type": "uint256"
        },
        {
          "internalType": "enum BusinessDayConvention",
          "name": "convention",
          "type": "uint8"
        },
        {
          "internalType": "enum Calendar",
          "name": "calendar",
          "type": "uint8"
        },
        {
          "internalType": "uint256",
          "name": "maturityDate",
          "type": "uint256"
        }
      ],
      "name": "shiftCalcTime",
      "outputs": [
        {
          "internalType": "uint256",
          "name": "",
          "type": "uint256"
        }
      ],
      "stateMutability": "pure",
      "type": "function"
    },
    {
      "inputs": [
        {
          "internalType": "uint256",
          "name": "timestamp",
          "type": "uint256"
        },
        {
          "internalType": "enum BusinessDayConvention",
          "name": "convention",
          "type": "uint8"
        },
        {
          "internalType": "enum Calendar",
          "name": "calendar",
          "type": "uint8"
        },
        {
          "internalType": "uint256",
          "name": "maturityDate",
          "type": "uint256"
        }
      ],
      "name": "shiftEventTime",
      "outputs": [
        {
          "internalType": "uint256",
          "name": "",
          "type": "uint256"
        }
      ],
      "stateMutability": "pure",
      "type": "function"
    },
    {
      "inputs": [
        {
          "internalType": "address",
          "name": "newOwner",
          "type": "address"
        }
      ],
      "name": "transferOwnership",
      "outputs": [],
      "stateMutability": "nonpayable",
      "type": "function"
    }
  ],
  "address": "0x48AB3b2Fc6D667BC89Ab7f078C99CC707059023E",
  "args": [
    "0x456458C2Ae55a573E54B120Ff2BFe04655a20C78",
    "0xf8a1BfCC2d1d5FaD14B04BE317bf84C272560a62"
  ],
  "solcInputHash": "0x641332b4189abe50474574ba46977bd7f0a689fca4e1c1910dccc48384971409",
  "bytecode": "0x60806040523480156200001157600080fd5b5060405162003fdc38038062003fdc8339810160408190526200003491620000c5565b8181600062000042620000c1565b600080546001600160a01b0319166001600160a01b0383169081178255604051929350917f8be0079c531659141344cd1fd0a4f28419497f9722a3daafe3b4186f6b6457e0908290a350600180546001600160a01b039384166001600160a01b03199182161790915560028054929093169116179055506200011c9050565b3390565b60008060408385031215620000d8578182fd5b8251620000e58162000103565b6020840151909250620000f88162000103565b809150509250929050565b6001600160a01b03811681146200011957600080fd5b50565b613eb0806200012c6000396000f3fe608060405234801561001057600080fd5b50600436106100b45760003560e01c8063979d7e8611610071578063979d7e8614610148578063a39c1d6b14610150578063ad2eb51114610158578063e726d6801461016b578063f2fde38b1461017e578063f5586e0514610191576100b4565b8063645a26bd146100b95780636778e0e9146100e35780636b6ba66414610103578063715018a6146101185780637aebd2a8146101205780638da5cb5b14610133575b600080fd5b6100cc6100c7366004612afe565b6101a4565b6040516100da9291906134a8565b60405180910390f35b6100f66100f1366004612ab7565b6101bd565b6040516100da91906134c1565b610116610111366004612b2e565b6101e8565b005b6101166104a2565b61011661012e366004612afe565b610556565b61013b6107b4565b6040516100da9190613456565b61013b6107c3565b61013b6107d2565b610116610166366004612c7a565b6107e1565b6100f6610179366004612ffc565b610a1a565b61011661018c366004612a7f565b610b6f565b6100f661019f366004612ffc565b610c79565b606081901c6bffffffffffffffffffffffff8216915091565b6bffffffffffffffffffffffff19606083901b166bffffffffffffffffffffffff8216175b92915050565b60015460405163747be51f60e11b81526001600160a01b039091169063e8f7ca3e9061021a90859033906004016134ca565b602060405180830381600087803b15801561023457600080fd5b505af1158015610248573d6000803e3d6000fd5b505050506040513d601f19601f8201168201806040525081019061026c9190612ae2565b6102915760405162461bcd60e51b81526004016102889061395a565b60405180910390fd5b60015460405163f52f84e160e01b81526000916001600160a01b03169063f52f84e1906102c29086906004016134c1565b60206040518083038186803b1580156102da57600080fd5b505afa1580156102ee573d6000803e3d6000fd5b505050506040513d601f19601f820116820180604052508101906103129190612b16565b1461032f5760405162461bcd60e51b815260040161028890613a9e565b600154604051631d7a1ab960e21b81526000916001600160a01b0316906375e86ae4906103609086906004016134c1565b60206040518083038186803b15801561037857600080fd5b505afa15801561038c573d6000803e3d6000fd5b505050506040513d601f19601f820116820180604052508101906103b09190612b16565b146103cd5760405162461bcd60e51b8152600401610288906138af565b60015460405163b828204160e01b8152600091610459916001600160a01b039091169063b8282041906104049087906004016134c1565b60206040518083038186803b15801561041c57600080fd5b505afa158015610430573d6000803e3d6000fd5b505050506040513d601f19601f820116820180604052508101906104549190612b16565b610ced565b915050600061046783610ced565b91505081158061047657508181105b6104925760405162461bcd60e51b8152600401610288906137b0565b61049c8484610d16565b50505050565b6104aa6112ad565b6000546001600160a01b0390811691161461050c576040805162461bcd60e51b815260206004820181905260248201527f4f776e61626c653a2063616c6c6572206973206e6f7420746865206f776e6572604482015290519081900360640190fd5b600080546040516001600160a01b03909116907f8be0079c531659141344cd1fd0a4f28419497f9722a3daafe3b4186f6b6457e0908390a3600080546001600160a01b0319169055565b600154604051631392c59160e11b81526001600160a01b03909116906327258b22906105869084906004016134c1565b60206040518083038186803b15801561059e57600080fd5b505afa1580156105b2573d6000803e3d6000fd5b505050506040513d601f19601f820116820180604052508101906105d69190612ae2565b6105f25760405162461bcd60e51b8152600401610288906139a5565b600154604051630316dd6960e21b81526000916001600160a01b031690630c5b75a4906106239085906004016134c1565b602060405180830381600087803b15801561063d57600080fd5b505af1158015610651573d6000803e3d6000fd5b505050506040513d601f19601f820116820180604052508101906106759190612b16565b9050806106ff57600154604051631d7a1ab960e21b81526001600160a01b03909116906375e86ae4906106ac9085906004016134c1565b60206040518083038186803b1580156106c457600080fd5b505afa1580156106d8573d6000803e3d6000fd5b505050506040513d601f19601f820116820180604052508101906106fc9190612b16565b90505b80610789576001546040516361db73e160e11b81526001600160a01b039091169063c3b6e7c2906107349085906004016134c1565b602060405180830381600087803b15801561074e57600080fd5b505af1158015610762573d6000803e3d6000fd5b505050506040513d601f19601f820116820180604052508101906107869190612b16565b90505b806107a65760405162461bcd60e51b815260040161028890613819565b6107b08282610d16565b5050565b6000546001600160a01b031690565b6001546001600160a01b031681565b6002546001600160a01b031681565b6001600160a01b0382161580159061087457506008826001600160a01b031663cb2ef6f76040518163ffffffff1660e01b815260040160206040518083038186803b15801561082f57600080fd5b505afa158015610843573d6000803e3d6000fd5b505050506040513d601f19601f820116820180604052508101906108679190612b4f565b601281111561087257fe5b145b6108905760405162461bcd60e51b8152600401610288906138fd565b600086426040516020016108a5929190613b49565b6040516020818303038152906040528051906020012090506108c56126c2565b604051634535f43160e01b81526001600160a01b03851690634535f431906108f1908b90600401613b3a565b6102e06040518083038186803b15801561090a57600080fd5b505afa15801561091e573d6000803e3d6000fd5b505050506040513d601f19601f820116820180604052508101906109429190612edf565b600154604051636b8c6ca760e01b81529192506001600160a01b031690636b8c6ca7906109839085908c9086908d908d908d908d9030908e90600401613659565b600060405180830381600087803b15801561099d57600080fd5b505af11580156109b1573d6000803e3d6000fd5b508492507fc5df678b84aa92f5f59981df8c9997b366d886de25771c5f753015c2e14e907a9150600890506109e96020890189612a7f565b6109f960608a0160408b01612a7f565b604051610a089392919061375e565b60405180910390a25050505050505050565b600081851415610a2b575083610b67565b6001846008811115610a3957fe5b1480610a5057506003846008811115610a4e57fe5b145b15610a6657610a5f85846112b1565b9050610b67565b6002846008811115610a7457fe5b1480610a8b57506004846008811115610a8957fe5b145b15610acf576000610a9c86856112b1565b9050610aa78661130d565b610ab08261130d565b1415610abd579050610b67565b610ac78685611325565b915050610b67565b6005846008811115610add57fe5b1480610af457506007846008811115610af257fe5b145b15610b0357610a5f8584611325565b6006846008811115610b1157fe5b1480610b2857506008846008811115610b2657fe5b145b15610b64576000610b398685611325565b9050610b448661130d565b610b4d8261130d565b1415610b5a579050610b67565b610ac786856112b1565b50835b949350505050565b610b776112ad565b6000546001600160a01b03908116911614610bd9576040805162461bcd60e51b815260206004820181905260248201527f4f776e61626c653a2063616c6c6572206973206e6f7420746865206f776e6572604482015290519081900360640190fd5b6001600160a01b038116610c1e5760405162461bcd60e51b8152600401808060200182810382526026815260200180613dda6026913960400191505060405180910390fd5b600080546040516001600160a01b03808516939216917f8be0079c531659141344cd1fd0a4f28419497f9722a3daafe3b4186f6b6457e091a3600080546001600160a01b0319166001600160a01b0392909216919091179055565b60006003846008811115610c8957fe5b1480610ca057506004846008811115610c9e57fe5b145b80610cb657506007846008811115610cb457fe5b145b80610ccc57506008846008811115610cca57fe5b145b15610cd8575083610b67565b610ce485858585610a1a565b95945050505050565b6000808060f884901c6021811115610d0157fe5b92505067ffffffffffffffff83169050915091565b610d1e6126c2565b6001546040516309648a9d60e01b81526001600160a01b03909116906309648a9d90610d4e9086906004016134c1565b6102e06040518083038186803b158015610d6757600080fd5b505afa158015610d7b573d6000803e3d6000fd5b505050506040513d601f19601f82011682018060405250810190610d9f9190612edf565b9050600081516005811115610db057fe5b1480610dc85750600181516005811115610dc657fe5b145b80610ddf5750600281516005811115610ddd57fe5b145b610dfb5760405162461bcd60e51b815260040161028890613ae9565b600081516005811115610e0a57fe5b14610e9357600154604051631ba316dd60e11b81526001600160a01b03909116906337462dba90610e3f9086906004016134c1565b6102e06040518083038186803b158015610e5857600080fd5b505afa158015610e6c573d6000803e3d6000fd5b505050506040513d601f19601f82011682018060405250810190610e909190612edf565b90505b600080610e9f84610ced565b60015460405163ecef557760e01b815292945090925042916110499184916001600160a01b039091169063ecef557790610edd908b906004016135b2565b60206040518083038186803b158015610ef557600080fd5b505afa158015610f09573d6000803e3d6000fd5b505050506040513d601f19601f82011682018060405250810190610f2d9190613043565b60ff166008811115610f3b57fe5b60015460405163ecef557760e01b81526001600160a01b039091169063ecef557790610f6b908c9060040161361a565b60206040518083038186803b158015610f8357600080fd5b505afa158015610f97573d6000803e3d6000fd5b505050506040513d601f19601f82011682018060405250810190610fbb9190613043565b60ff166001811115610fc957fe5b60015460405163135b9f4d60e01b81526001600160a01b039091169063135b9f4d90610ff9908d906004016135d9565b60206040518083038186803b15801561101157600080fd5b505afa158015611025573d6000803e3d6000fd5b505050506040513d601f19601f820116820180604052508101906101799190612b16565b11156110675760405162461bcd60e51b815260040161028890613a4a565b61106f6126c2565b600061107c878688611373565b91509150600061108d8888846115f1565b905080611191576000865160058111156110a357fe5b141561110e5760015460405163842962d560e01b81526001600160a01b039091169063842962d5906110db908b908a90600401613749565b600060405180830381600087803b1580156110f557600080fd5b505af1158015611109573d6000803e3d6000fd5b505050505b60015460405163d981e77360e01b81526001600160a01b039091169063d981e77390611140908b908b906004016134e1565b600060405180830381600087803b15801561115a57600080fd5b505af115801561116e573d6000803e3d6000fd5b50505050600061117f600186611a27565b905061118c898583611373565b509350505b600154604051631d306b7f60e11b81526001600160a01b0390911690633a60d6fe906111c3908b908790600401613749565b600060405180830381600087803b1580156111dd57600080fd5b505af11580156111f1573d6000803e3d6000fd5b50505050801515600114156112675760015460405163de07a17360e01b81526001600160a01b039091169063de07a17390611234908b908b9087906004016134ef565b600060405180830381600087803b15801561124e57600080fd5b505af1158015611262573d6000803e3d6000fd5b505050505b877fd255be8589971f117e0e4377177282fb7cce66e378bfb1b7eafddd05e4f181e960018315151461129a57600161129c565b865b8685604051610a089392919061378e565b3390565b600060018260018111156112c157fe5b1415611306576112d083611a45565b600614156112ea576112e3836002611a58565b90506101e2565b6112f383611a45565b60071415611306576112e3836001611a58565b5090919050565b600061131d620151808304611a6d565b509392505050565b6000600182600181111561133557fe5b14156113065761134483611a45565b60061415611357576112e3836001611b03565b61136083611a45565b60071415611306576112e3836002611b03565b61137b6126c2565b60015460405163ee43eda160e01b815260009182916001600160a01b039091169063ee43eda1906113b09089906004016134c1565b60206040518083038186803b1580156113c857600080fd5b505afa1580156113dc573d6000803e3d6000fd5b505050506040513d601f19601f820116820180604052508101906114009190612a9b565b905061140a612771565b6001546040516335f1cded60e11b81526001600160a01b0390911690636be39bda9061143a908a906004016134c1565b6104e06040518083038186803b15801561145357600080fd5b505afa158015611467573d6000803e3d6000fd5b505050506040513d601f19601f8201168201806040525081019061148b9190612d38565b905060008061149987610ced565b915091506000846001600160a01b03166334dfdd0c858b8b6114d08f896114cb8a8d608001518e602001516000610c79565b611b18565b6040518563ffffffff1660e01b81526004016114ef9493929190613b66565b60206040518083038186803b15801561150757600080fd5b505afa15801561151b573d6000803e3d6000fd5b505050506040513d601f19601f8201168201806040525081019061153f9190612b16565b9050846001600160a01b031663851afc7d858b8b6115728f8961156d8a8d608001518e602001516000610c79565b611d12565b6040518563ffffffff1660e01b81526004016115919493929190613b66565b6102e06040518083038186803b1580156115aa57600080fd5b505afa1580156115be573d6000803e3d6000fd5b505050506040513d601f19601f820116820180604052508101906115e29190612edf565b9a909950975050505050505050565b6000831580159061160157508215155b61161d5760405162461bcd60e51b8152600401610288906139ed565b8161162a57506001611a20565b60015460405163eb01255960e01b81526000916001600160a01b03169063eb0125599061165b90889060040161352a565b60206040518083038186803b15801561167357600080fd5b505afa158015611687573d6000803e3d6000fd5b505050506040513d601f19601f820116820180604052508101906116ab9190612a9b565b90506116b561286a565b600154604051635e353ebb60e11b81526001600160a01b039091169063bc6a7d76906116e5908990600401613505565b60806040518083038186803b1580156116fd57600080fd5b505afa158015611711573d6000803e3d6000fd5b505050506040513d601f19601f820116820180604052508101906117359190612c18565b905060048160600151600481111561174957fe5b141561175e57805161175a906101a4565b5091505b611766612891565b60015460405163e50e0ef760e01b81526001600160a01b039091169063e50e0ef790611796908a906004016134c1565b60806040518083038186803b1580156117ae57600080fd5b505afa1580156117c2573d6000803e3d6000fd5b505050506040513d601f19601f820116820180604052508101906117e69190612b9a565b90506000806000871315611815575060408201516001600160a01b03821661181057826020015191505b61182e565b5081516001600160a01b03821661182e57826060015191505b6000808813611841578760001902611843565b875b905080866001600160a01b031663dd62ed3e84306040518363ffffffff1660e01b815260040161187492919061346a565b60206040518083038186803b15801561188c57600080fd5b505afa1580156118a0573d6000803e3d6000fd5b505050506040513d601f19601f820116820180604052508101906118c49190612b16565b108061194b57506040516370a0823160e01b815281906001600160a01b038816906370a08231906118f9908690600401613456565b60206040518083038186803b15801561191157600080fd5b505afa158015611925573d6000803e3d6000fd5b505050506040513d601f19601f820116820180604052508101906119499190612b16565b105b1561199557897f4f269a19b64cfff0bdee7fd3cdaec44e1fe38ce2ff55d3009a89fac6ecbe9f2c60405161197e906137fb565b60405180910390a260009650505050505050611a20565b6040516323b872dd60e01b81526001600160a01b038716906323b872dd906119c590859087908690600401613484565b602060405180830381600087803b1580156119df57600080fd5b505af11580156119f3573d6000803e3d6000fd5b505050506040513d601f19601f82011682018060405250810190611a179190612ae2565b96505050505050505b9392505050565b60008160f8846021811115611a3857fe5b60ff16901b179392505050565b6007620151809091046003010660010190565b6201518081028201828110156101e257600080fd5b60008080836226496581018262023ab1600483020590506004600362023ab18302010590910390600062164b09610fa0600185010205905060046105b58202058303601f019250600061098f8460500281611ac457fe5b0590506000605061098f83020585039050600b820560301994909401606402929092018301996002600c90940290910392909201975095509350505050565b6201518081028203828111156101e257600080fd5b60015460405163eb01255960e01b815260009182916001600160a01b039091169063eb01255990611b4d90889060040161352a565b60206040518083038186803b158015611b6557600080fd5b505afa158015611b79573d6000803e3d6000fd5b505050506040513d601f19601f82011682018060405250810190611b9d9190612a9b565b60015460405163eb01255960e01b81529192506000916001600160a01b039091169063eb01255990611bd390899060040161358e565b60206040518083038186803b158015611beb57600080fd5b505afa158015611bff573d6000803e3d6000fd5b505050506040513d601f19601f82011682018060405250810190611c239190612a9b565b9050806001600160a01b0316826001600160a01b031614611d065760025460405160009182916001600160a01b03909116906308a4ec1090611c6b908790879060200161346a565b60405160208183030381529060405280519060200120886040518363ffffffff1660e01b8152600401611c9f9291906134e1565b604080518083038186803b158015611cb657600080fd5b505afa158015611cca573d6000803e3d6000fd5b505050506040513d601f19601f82011682018060405250810190611cee9190612b6b565b915091508015611d0357509250611a20915050565b50505b50600095945050505050565b6000600e836021811115611d2257fe5b1415611dcb57600254604051628a4ec160e41b815260009182916001600160a01b03909116906308a4ec1090611d619060018a019088906004016134e1565b604080518083038186803b158015611d7857600080fd5b505afa158015611d8c573d6000803e3d6000fd5b505050506040513d601f19601f82011682018060405250810190611db09190612b6b565b9150915080611dc0576000611dc2565b815b92505050611a20565b6016836021811115611dd957fe5b1415611e86576002805460009182916001600160a01b0316906308a4ec10905b6040516001600160e01b031960e084901b168152611e1e918a019088906004016134e1565b604080518083038186803b158015611e3557600080fd5b505afa158015611e49573d6000803e3d6000fd5b505050506040513d601f19601f82011682018060405250810190611e6d9190612b6b565b915091508015611e7f57509050611a20565b5050611ec9565b6013836021811115611e9457fe5b1415611eb75760025460009081906001600160a01b03166308a4ec106003611df9565b611ec2848484611ed3565b9050611a20565b5060009392505050565b6000600d836021811115611ee357fe5b1415611f995760025460015460405163354770f760e21b815260009283926001600160a01b03918216926308a4ec10929091169063d51dc3dc90611f2b908b9060040161355f565b60206040518083038186803b158015611f4357600080fd5b505afa158015611f57573d6000803e3d6000fd5b505050506040513d601f19601f82011682018060405250810190611f7b9190612b16565b866040518363ffffffff1660e01b8152600401611e1e9291906134e1565b6001836021811115611fa757fe5b1415611fb4575042611a20565b6019836021811115611fc257fe5b14156122f557611fd061286a565b600154604051635e353ebb60e11b81526001600160a01b039091169063bc6a7d7690612000908890600401613634565b60806040518083038186803b15801561201857600080fd5b505afa15801561202c573d6000803e3d6000fd5b505050506040513d601f19601f820116820180604052508101906120509190612c18565b905060038160600151600481111561206457fe5b14156121955780516020820151604051631392c59160e11b81526001600160a01b038216906327258b229061209d9085906004016134c1565b60206040518083038186803b1580156120b557600080fd5b505afa1580156120c9573d6000803e3d6000fd5b505050506040513d601f19601f820116820180604052508101906120ed9190612ae2565b151560011461210e5760405162461bcd60e51b81526004016102889061385a565b604051636a899b9b60e01b81526001600160a01b03821690636a899b9b9061213a9085906004016135f7565b60206040518083038186803b15801561215257600080fd5b505afa158015612166573d6000803e3d6000fd5b505050506040513d601f19601f8201168201806040525081019061218a9190612b16565b9350611a2092505050565b61219d61286a565b600154604051635e353ebb60e11b81526001600160a01b039091169063bc6a7d76906121cd908990600401613505565b60806040518083038186803b1580156121e557600080fd5b505afa1580156121f9573d6000803e3d6000fd5b505050506040513d601f19601f8201168201806040525081019061221d9190612c18565b905060028160400151600481111561223157fe5b14801561224d575060008160600151600481111561224b57fe5b145b15611e7f576002548151604051628a4ec160e41b815260009283926001600160a01b03909116916308a4ec1091612288918a906004016134e1565b604080518083038186803b15801561229f57600080fd5b505afa1580156122b3573d6000803e3d6000fd5b505050506040513d601f19601f820116820180604052508101906122d79190612b6b565b9150915080156122ec57509250611a20915050565b50505050611ec9565b601383602181111561230357fe5b1415611ec95761231161286a565b600154604051635e353ebb60e11b81526001600160a01b039091169063bc6a7d7690612341908890600401613634565b60806040518083038186803b15801561235957600080fd5b505afa15801561236d573d6000803e3d6000fd5b505050506040513d601f19601f820116820180604052508101906123919190612c18565b90506002816040015160048111156123a557fe5b1480156123c157506000816060015160048111156123bf57fe5b145b15612580576002548151604051628a4ec160e41b815260009283926001600160a01b03909116916308a4ec10916123fc9189906004016134e1565b604080518083038186803b15801561241357600080fd5b505afa158015612427573d6000803e3d6000fd5b505050506040513d601f19601f8201168201806040525081019061244b9190612b6b565b600254855160015460405163135b9f4d60e01b815294965092945060009384936001600160a01b03938416936308a4ec10939291169063135b9f4d90612495908f90600401613544565b60206040518083038186803b1580156124ad57600080fd5b505afa1580156124c1573d6000803e3d6000fd5b505050506040513d601f19601f820116820180604052508101906124e59190612b16565b6040518363ffffffff1660e01b81526004016125029291906134e1565b604080518083038186803b15801561251957600080fd5b505afa15801561252d573d6000803e3d6000fd5b505050506040513d601f19601f820116820180604052508101906125519190612b6b565b9150915082801561255f5750805b1561257b5761256e848361258a565b9550611a20945050505050565b505050505b5060009050611a20565b6000816125c85760405162461bcd60e51b8152600401808060200182810382526024815260200180613e576024913960400191505060405180910390fd5b826125d5575060006101e2565b670de0b6b3a7640000838102908482816125eb57fe5b05146126285760405162461bcd60e51b8152600401808060200182810382526026815260200180613e316026913960400191505060405180910390fd5b8260001914801561263c5750600160ff1b84145b156126785760405162461bcd60e51b8152600401808060200182810382526026815260200180613e316026913960400191505060405180910390fd5b600083828161268357fe5b05905080610b675760405162461bcd60e51b8152600401808060200182810382526031815260200180613e006031913960400191505060405180910390fd5b604080516102e081019091528060008152602001600081526020016000815260200160008152602001600081526020016000815260200160008152602001600081526020016000815260200160008152602001600081526020016000815260200160008152602001600081526020016000815260200160008152602001600081526020016000815260200160008152602001600081526020016000815260200160008152602001600081525090565b604080516103408101909152806000815260200160008152602001600081526020016000815260200160008152602001600081526020016000815260200160006001600160a01b0316815260200160006001600160a01b0316815260200160008152602001600081526020016000815260200160008152602001600081526020016000815260200160008152602001600081526020016000815260200160008152602001600081526020016128246128b8565b81526020016128316128b8565b815260200161283e6128b8565b815260200161284b6128b8565b81526020016128586128b8565b81526020016128656128db565b905290565b60408051608081018252600080825260208201819052909182019081526020016000612865565b60408051608081018252600080825260208201819052918101829052606081019190915290565b6040805160608101909152600080825260208201905b8152600060209091015290565b604080516080810190915260008082526020820190815260200160006128ce565b803561290781613d68565b919050565b805161290781613d68565b803561290781613d8b565b805161290781613d8b565b803561290781613d98565b805161290781613d98565b805161290781613da5565b803561290781613dbf565b805161290781613dbf565b803561290781613dcc565b805161290781613dcc565b803561290781613da5565b600060808284031215612996578081fd5b50919050565b6000608082840312156129ad578081fd5b6040516080810181811067ffffffffffffffff821117156129ca57fe5b80604052508091508251815260208301516129e481613da5565b602082015260408301516129f781613d98565b60408201526060830151612a0a81613d7d565b6060919091015292915050565b600060608284031215612a28578081fd5b6040516060810181811067ffffffffffffffff82111715612a4557fe5b8060405250809150825181526020830151612a5f81613da5565b60208201526040830151612a7281613d7d565b6040919091015292915050565b600060208284031215612a90578081fd5b8135611a2081613d68565b600060208284031215612aac578081fd5b8151611a2081613d68565b60008060408385031215612ac9578081fd5b8235612ad481613d68565b946020939093013593505050565b600060208284031215612af3578081fd5b8151611a2081613d7d565b600060208284031215612b0f578081fd5b5035919050565b600060208284031215612b27578081fd5b5051919050565b60008060408385031215612b40578182fd5b50508035926020909101359150565b600060208284031215612b60578081fd5b8151611a2081613dcc565b60008060408385031215612b7d578182fd5b825191506020830151612b8f81613d7d565b809150509250929050565b600060808284031215612bab578081fd5b6040516080810181811067ffffffffffffffff82111715612bc857fe5b6040528251612bd681613d68565b81526020830151612be681613d68565b60208201526040830151612bf981613d68565b60408201526060830151612c0c81613d68565b60608201529392505050565b600060808284031215612c29578081fd5b6040516080810181811067ffffffffffffffff82111715612c4657fe5b806040525082518152602083015160208201526040830151612c6781613db2565b60408201526060830151612c0c81613db2565b6000806000806000808688036105c0811215612c94578283fd5b6104e080821215612ca3578384fd5b889750870135905067ffffffffffffffff80821115612cc0578384fd5b818901915089601f830112612cd3578384fd5b813581811115612ce1578485fd5b8a60208083028501011115612cf4578485fd5b602083019750809650505050612d0e886105008901612985565b9250612d1d61058088016128fc565b9150612d2c6105a088016128fc565b90509295509295509295565b60006104e08284031215612d4a578081fd5b610340612d5681613d2d565b612d5f8461296f565b8152612d6d60208501612938565b6020820152612d7e60408501612959565b6040820152612d8f60608501612943565b6060820152612da060808501612922565b6080820152612db160a08501612938565b60a0820152612dc260c08501612938565b60c0820152612dd360e0850161290c565b60e0820152610100612de681860161290c565b9082015261012084810151908201526101408085015190820152610160808501519082015261018080850151908201526101a080850151908201526101c080850151908201526101e080850151908201526102008085015190820152610220808501519082015261024080850151908201526102608085015190820152610280612e7286828701612a17565b908201526102e0612e8586868301612a17565b6102a0830152612e9786848701612a17565b6102c0830152612eab866103a08701612a17565b90820152612ebd856104008601612a17565b610300820152612ed185610460860161299c565b610320820152949350505050565b60006102e0808385031215612ef2578182fd5b612efb81613d2d565b9050612f0683612943565b81526020838101519082015260408084015190820152606080840151908201526080808401519082015260a0808401519082015260c0808401519082015260e08084015190820152610100808401519082015261012080840151908201526101408084015190820152610160808401519082015261018080840151908201526101a080840151908201526101c080840151908201526101e08084015190820152610200808401519082015261022080840151908201526102408084015190820152610260808401519082015261028080840151908201526102a080840151908201526102c0928301519281019290925250919050565b60008060008060808587031215613011578182fd5b84359350602085013561302381613d8b565b9250604085013561303381613d98565b9396929550929360600135925050565b600060208284031215613054578081fd5b815160ff81168114611a20578182fd5b6001600160a01b03169052565b6009811061307b57fe5b9052565b61307b81613d51565b61307b81613d5e565b600d811061307b57fe5b6013811061307b57fe5b8035825260208101356130b781613da5565b6130c081613d5e565b602083015260408101356130d381613d98565b6130dc81613d51565b604083015260608101356130ef81613d7d565b8015156060840152505050565b80518252602081015161310e81613d5e565b6020830152604081015161312181613d51565b60408301526060908101511515910152565b80358252602081013561314581613da5565b61314e81613d5e565b6020830152604081013561316181613d7d565b8015156040840152505050565b80518252602081015161318081613d5e565b60208301526040908101511515910152565b6131a48261319f83612964565b61309b565b6131b06020820161292d565b6131bd602084018261307f565b506131ca6040820161294e565b6131d76040840182613091565b506131e46060820161297a565b6131f16060840182613088565b506131fe60808201612917565b61320b6080840182613071565b5061321860a0820161292d565b61322560a084018261307f565b5061323260c0820161292d565b61323f60c084018261307f565b5061324c60e082016128fc565b61325960e0840182613064565b506101006132688183016128fc565b61327482850182613064565b505061012081810135908301526101408082013590830152610160808201359083015261018080820135908301526101a080820135908301526101c080820135908301526101e080820135908301526102008082013590830152610220808201359083015261024080820135908301526102608082013590830152610280613300818401828401613133565b506102e0613312818401828401613133565b50610340613324818401828401613133565b506103a0613336818401828401613133565b50610400613348818401828401613133565b5061046061335a8184018284016130a5565b505050565b61336a828251613088565b6020818101519083015260408082015190830152606080820151908301526080808201519083015260a0808201519083015260c0808201519083015260e08082015190830152610100808201519083015261012080820151908301526101408082015190830152610160808201519083015261018080820151908301526101a080820151908301526101c080820151908301526101e08082015190830152610200808201519083015261022080820151908301526102408082015190830152610260808201519083015261028080820151908301526102a080820151908301526102c090810151910152565b6001600160a01b0391909116815260200190565b6001600160a01b0392831681529116602082015260400190565b6001600160a01b039384168152919092166020820152604081019190915260600190565b6001600160a01b03929092168252602082015260400190565b90815260200190565b9182526001600160a01b0316602082015260400190565b918252602082015260400190565b9283526020830191909152604082015260600190565b9081527231b7b73a3930b1ba2932b332b932b731b2af9960691b602082015260400190565b9081526763757272656e637960c01b602082015260400190565b9081526869737375654461746560b81b602082015260400190565b9081527f6d61726b65744f626a656374436f646552617465526573657400000000000000602082015260400190565b90815271736574746c656d656e7443757272656e637960701b602082015260400190565b90815274313ab9b4b732b9b9a230bca1b7b73b32b73a34b7b760591b602082015260400190565b9081526b6d617475726974794461746560a01b602082015260400190565b908152701b9bdd1a5bdb985b141c9a5b98da5c185b607a1b602082015260400190565b9081526731b0b632b73230b960c11b602082015260400190565b90815272636f6e74726163745265666572656e63655f3160681b602082015260400190565b60006108e08b835261366e602084018c613192565b61367c61050084018b61335f565b6107e0830181905282018790526109006001600160fb1b0388111561369f578182fd5b60208802808a8386013783010190815285356136ba81613d68565b6001600160a01b039081166108008401526020870135906136da82613d68565b9081166108208401526040870135906136f282613d68565b90811661084084015260608701359061370a82613d68565b1661086083015261371f610880830186613064565b61372d6108a0830185613064565b61373b6108c0830184613064565b9a9950505050505050505050565b8281526103008101611a20602083018461335f565b6060810161376c828661309b565b6001600160a01b03938416602083015291909216604090920191909152919050565b606081016022851061379c57fe5b938152602081019290925260409091015290565b6020808252602b908201527f426173654163746f722e70726f6772657373576974683a20464f554e445f454160408201526a149312515497d15591539560aa1b606082015260800190565b71494e53554646494349454e545f46554e445360701b815260200190565b60208082526021908201527f426173654163746f722e70726f67726573733a204e4f5f4e4558545f4556454e6040820152601560fa1b606082015260800190565b60208082526035908201527f426173654163746f722e67657445787465726e616c44617461466f725354463a604082015274081054d4d15517d113d154d7d393d517d1561254d5605a1b606082015260800190565b6020808252602e908201527f426173654163746f722e70726f6772657373576974683a20464f554e445f554e60408201526d1111549316525391d7d15591539560921b606082015260800190565b60208082526038908201527f53544b4163746f722e696e697469616c697a653a20434f4e54524143545f545960408201527f50455f4f465f454e47494e455f554e535550504f525445440000000000000000606082015260800190565b6020808252602b908201527f426173654163746f722e70726f6772657373576974683a20554e415554484f5260408201526a24ad22a22fa9a2a72222a960a91b606082015260800190565b60208082526028908201527f426173654163746f722e70726f67726573733a2041535345545f444f45535f4e60408201526713d517d1561254d560c21b606082015260800190565b6020808252603b908201527f426173654163746f722e736574746c655061796f6666466f724576656e743a2060408201527f494e56414c49445f46554e4354494f4e5f504152414d45544552530000000000606082015260800190565b60208082526034908201527f426173654163746f722e70726f636573734576656e743a204e4558545f455645604082015273139517d393d517d6515517d4d0d211511553115160621b606082015260800190565b6020808252602b908201527f426173654163746f722e70726f6772657373576974683a20464f554e445f504560408201526a1391125391d7d15591539560aa1b606082015260800190565b60208082526031908201527f426173654163746f722e70726f636573734576656e743a2041535345545f524560408201527041434845445f46494e414c5f535441544560781b606082015260800190565b6104e081016101e28284613192565b6105008101613b588285613192565b826104e08301529392505050565b600061080082019050613b7a82875161309b565b6020860151613b8c602084018261307f565b506040860151613b9f6040840182613091565b506060860151613bb26060840182613088565b506080860151613bc56080840182613071565b5060a0860151613bd860a084018261307f565b5060c0860151613beb60c084018261307f565b5060e0860151613bfe60e0840182613064565b5061010080870151613c1282850182613064565b505061012086810151908301526101408087015190830152610160808701519083015261018080870151908301526101a080870151908301526101c080870151908301526101e08087015190830152610200808701519083015261022080870151908301526102408087015190830152610260808701519083015261028080870151613ca08285018261316e565b50506102a08601516102e0613cb78185018361316e565b6102c08801519150613ccd61034085018361316e565b8701519050613ce06103a084018261316e565b50610300860151613cf561040084018261316e565b50610320860151613d0a6104608401826130fc565b50613d196104e083018661335f565b6107c08201939093526107e0015292915050565b60405181810167ffffffffffffffff81118282101715613d4957fe5b604052919050565b60028110613d5b57fe5b50565b60068110613d5b57fe5b6001600160a01b0381168114613d5b57600080fd5b8015158114613d5b57600080fd5b60098110613d5b57600080fd5b60028110613d5b57600080fd5b60068110613d5b57600080fd5b60058110613d5b57600080fd5b600d8110613d5b57600080fd5b60138110613d5b57600080fdfe4f776e61626c653a206e6577206f776e657220697320746865207a65726f20616464726573735369676e65644d6174682e666c6f61744469763a2043414e4e4f545f524550524553454e545f4752414e554c41524954595369676e65644d6174682e666c6f61744469763a204f564552464c4f575f44455445435445445369676e65644d6174682e666c6f61744469763a20444956494445445f42595f5a45524fa264697066735822122002607754ced1a7680d0c8132ca3d84a8010e6cd4bde1908848239d2b167eea7b64736f6c63430007040033",
  "devdoc": {
    "kind": "dev",
    "methods": {
      "initialize((uint8,uint8,uint8,uint8,uint8,uint8,uint8,address,address,uint256,uint256,uint256,uint256,uint256,int256,int256,int256,int256,int256,int256,(uint256,uint8,bool),(uint256,uint8,bool),(uint256,uint8,bool),(uint256,uint8,bool),(uint256,uint8,bool),(uint256,uint8,uint8,bool)),bytes32[],(address,address,address,address),address,address)": {
        "params": {
          "admin": "address of the admin of the asset (optional)",
          "engine": "address of the ACTUS engine used for the spec. ContractType",
          "ownership": "ownership of the asset",
          "schedule": "schedule of the asset",
          "terms": "asset specific terms"
        }
      },
      "owner()": {
        "details": "Returns the address of the current owner."
      },
      "progress(bytes32)": {
        "details": "Emits ProgressedAsset if the state of the asset was updated.",
        "params": {
          "assetId": "id of the asset"
        }
      },
      "progressWith(bytes32,bytes32)": {
        "details": "Emits ProgressedAsset if the state of the asset was updated.",
        "params": {
          "_event": "the unscheduled event",
          "assetId": "id of the asset"
        }
      },
      "renounceOwnership()": {
        "details": "Leaves the contract without owner. It will not be possible to call `onlyOwner` functions anymore. Can only be called by the current owner. NOTE: Renouncing ownership will leave the contract without an owner, thereby removing any functionality that is only available to the owner."
      },
      "transferOwnership(address)": {
        "details": "Transfers ownership of the contract to a new account (`newOwner`). Can only be called by the current owner."
      }
    },
    "title": "STKActor",
    "version": 1
  },
  "userdoc": {
    "kind": "user",
    "methods": {
      "initialize((uint8,uint8,uint8,uint8,uint8,uint8,uint8,address,address,uint256,uint256,uint256,uint256,uint256,int256,int256,int256,int256,int256,int256,(uint256,uint8,bool),(uint256,uint8,bool),(uint256,uint8,bool),(uint256,uint8,bool),(uint256,uint8,bool),(uint256,uint8,uint8,bool)),bytes32[],(address,address,address,address),address,address)": {
        "notice": "Derives initial state of the asset terms and stores together with terms, schedule, ownership, engine, admin of the asset in the contract types specific AssetRegistry."
      },
      "progress(bytes32)": {
        "notice": "Proceeds with the next state of the asset based on the terms, the last state, market object data and the settlement status of current obligation, derived from either a prev. pending event, an event generated based on the current state of an underlying asset or the assets schedule."
      },
      "progressWith(bytes32,bytes32)": {
        "notice": "Proceeds with the next state of the asset based on the terms, the last state, market object data and the settlement status of current obligation, derived from a provided (unscheduled) event Reverts if the provided event violates the order of events."
      },
      "shiftCalcTime(uint256,uint8,uint8,uint256)": {
        "notice": "Used in POFs and STFs for DCFs. No shifting is applied if a Calc/Shift instead of Shift/Calc BDC is provided."
      }
    },
    "notice": "TODO",
    "version": 1
  },
  "storageLayout": {
    "storage": [
      {
        "astId": 30,
        "contract": "contracts/Core/STK/STKActor.sol:STKActor",
        "label": "_owner",
        "offset": 0,
        "slot": "0",
        "type": "t_address"
      },
      {
        "astId": 22128,
        "contract": "contracts/Core/STK/STKActor.sol:STKActor",
        "label": "assetRegistry",
        "offset": 0,
        "slot": "1",
        "type": "t_contract(IAssetRegistry)23616"
      },
      {
        "astId": 22130,
        "contract": "contracts/Core/STK/STKActor.sol:STKActor",
        "label": "dataRegistry",
        "offset": 0,
        "slot": "2",
        "type": "t_contract(IDataRegistry)32977"
      }
    ],
    "types": {
      "t_address": {
        "encoding": "inplace",
        "label": "address",
        "numberOfBytes": "20"
      },
      "t_contract(IAssetRegistry)23616": {
        "encoding": "inplace",
        "label": "contract IAssetRegistry",
        "numberOfBytes": "20"
      },
      "t_contract(IDataRegistry)32977": {
        "encoding": "inplace",
        "label": "contract IDataRegistry",
        "numberOfBytes": "20"
      }
    }
  },
  "gasEstimates": {
    "creation": {
      "codeDepositCost": "3209600",
      "executionCost": "infinite",
      "totalCost": "infinite"
    },
    "external": {
      "assetRegistry()": "1070",
      "dataRegistry()": "1092",
      "decodeCollateralObject(bytes32)": "371",
      "encodeCollateralAsObject(address,uint256)": "462",
      "initialize((uint8,uint8,uint8,uint8,uint8,uint8,uint8,address,address,uint256,uint256,uint256,uint256,uint256,int256,int256,int256,int256,int256,int256,(uint256,uint8,bool),(uint256,uint8,bool),(uint256,uint8,bool),(uint256,uint8,bool),(uint256,uint8,bool),(uint256,uint8,uint8,bool)),bytes32[],(address,address,address,address),address,address)": "infinite",
      "owner()": "1181",
      "progress(bytes32)": "infinite",
      "progressWith(bytes32,bytes32)": "infinite",
      "renounceOwnership()": "24271",
      "shiftCalcTime(uint256,uint8,uint8,uint256)": "infinite",
      "shiftEventTime(uint256,uint8,uint8,uint256)": "infinite",
      "transferOwnership(address)": "infinite"
    },
    "internal": {
      "_getExternalDataForSTF(bytes32,enum EventType,uint256)": "infinite",
      "computeStateAndPayoffForEvent(bytes32,struct State memory,bytes32)": "infinite"
    }
  }
}