{
  "_format": "hh-sol-artifact-1",
  "contractName": "UMAProxy",
  "sourceName": "contracts/Core/Base/OracleProxy/UMAProxy/UMAProxy.sol",
  "abi": [
    {
      "inputs": [
        {
          "internalType": "address",
          "name": "_umaOracle",
          "type": "address"
        }
      ],
      "stateMutability": "nonpayable",
      "type": "constructor"
    },
    {
      "inputs": [
        {
          "internalType": "bytes32",
          "name": "identifier",
          "type": "bytes32"
        },
        {
          "internalType": "uint256",
          "name": "timestamp",
          "type": "uint256"
        }
      ],
      "name": "getDataPoint",
      "outputs": [
        {
          "internalType": "int256",
          "name": "",
          "type": "int256"
        },
        {
          "internalType": "bool",
          "name": "",
          "type": "bool"
        }
      ],
      "stateMutability": "view",
      "type": "function"
    },
    {
      "inputs": [],
      "name": "umaOracle",
      "outputs": [
        {
          "internalType": "address",
          "name": "",
          "type": "address"
        }
      ],
      "stateMutability": "view",
      "type": "function"
    }
  ],
  "bytecode": "0x608060405234801561001057600080fd5b506040516102603803806102608339818101604052602081101561003357600080fd5b5051600080546001600160a01b039092166001600160a01b03199092169190911790556101fb806100656000396000f3fe608060405234801561001057600080fd5b50600436106100365760003560e01c806308a4ec101461003b5780635ff474c214610077575b600080fd5b61005e6004803603604081101561005157600080fd5b508035906020013561009b565b6040805192835290151560208301528051918290030190f35b61007f6101b6565b604080516001600160a01b039092168252519081900360200190f35b600080546040805163501f440d60e11b81526004810186905260248101859052905183926001600160a01b03169163a03e881a916044808301926020929190829003018186803b1580156100ee57600080fd5b505afa158015610102573d6000803e3d6000fd5b505050506040513d602081101561011857600080fd5b5051610129575060009050806101af565b60005460408051636494078360e11b8152600481018790526024810186905290516001600160a01b039092169163c9280f0691604480820192602092909190829003018186803b15801561017c57600080fd5b505afa158015610190573d6000803e3d6000fd5b505050506040513d60208110156101a657600080fd5b50519150600190505b9250929050565b6000546001600160a01b03168156fea26469706673582212209185f33a7b3a1bcc39e529174e09c0d61f0b3896c5226122b7583bc18ba65d2764736f6c63430007040033",
  "linkReferences": {},
  "deployedLinkReferences": {}
}