{
  "_format": "hh-sol-artifact-1",
  "contractName": "TestCEGPOF",
  "sourceName": "contracts/ACTUS/test/CEG/TestCEGPOF.sol",
  "abi": [
    {
      "inputs": [],
      "name": "MAX_CYCLE_SIZE",
      "outputs": [
        {
          "internalType": "uint256",
          "name": "",
          "type": "uint256"
        }
      ],
      "stateMutability": "view",
      "type": "function"
    },
    {
      "inputs": [],
      "name": "MAX_EVENT_SCHEDULE_SIZE",
      "outputs": [
        {
          "internalType": "uint256",
          "name": "",
          "type": "uint256"
        }
      ],
      "stateMutability": "view",
      "type": "function"
    },
    {
      "inputs": [],
      "name": "ONE_POINT_ZERO",
      "outputs": [
        {
          "internalType": "int256",
          "name": "",
          "type": "int256"
        }
      ],
      "stateMutability": "view",
      "type": "function"
    },
    {
      "inputs": [],
      "name": "PRECISION",
      "outputs": [
        {
          "internalType": "uint256",
          "name": "",
          "type": "uint256"
        }
      ],
      "stateMutability": "view",
      "type": "function"
    },
    {
      "inputs": [
        {
          "components": [
            {
              "internalType": "enum ContractType",
              "name": "contractType",
              "type": "uint8"
            },
            {
              "internalType": "enum Calendar",
              "name": "calendar",
              "type": "uint8"
            },
            {
              "internalType": "enum ContractRole",
              "name": "contractRole",
              "type": "uint8"
            },
            {
              "internalType": "enum DayCountConvention",
              "name": "dayCountConvention",
              "type": "uint8"
            },
            {
              "internalType": "enum BusinessDayConvention",
              "name": "businessDayConvention",
              "type": "uint8"
            },
            {
              "internalType": "enum EndOfMonthConvention",
              "name": "endOfMonthConvention",
              "type": "uint8"
            },
            {
              "internalType": "enum FeeBasis",
              "name": "feeBasis",
              "type": "uint8"
            },
            {
              "internalType": "enum ContractPerformance",
              "name": "creditEventTypeCovered",
              "type": "uint8"
            },
            {
              "internalType": "address",
              "name": "currency",
              "type": "address"
            },
            {
              "internalType": "address",
              "name": "settlementCurrency",
              "type": "address"
            },
            {
              "internalType": "uint256",
              "name": "contractDealDate",
              "type": "uint256"
            },
            {
              "internalType": "uint256",
              "name": "statusDate",
              "type": "uint256"
            },
            {
              "internalType": "uint256",
              "name": "maturityDate",
              "type": "uint256"
            },
            {
              "internalType": "uint256",
              "name": "purchaseDate",
              "type": "uint256"
            },
            {
              "internalType": "uint256",
              "name": "cycleAnchorDateOfFee",
              "type": "uint256"
            },
            {
              "internalType": "int256",
              "name": "notionalPrincipal",
              "type": "int256"
            },
            {
              "internalType": "int256",
              "name": "delinquencyRate",
              "type": "int256"
            },
            {
              "internalType": "int256",
              "name": "feeAccrued",
              "type": "int256"
            },
            {
              "internalType": "int256",
              "name": "feeRate",
              "type": "int256"
            },
            {
              "internalType": "int256",
              "name": "priceAtPurchaseDate",
              "type": "int256"
            },
            {
              "internalType": "int256",
              "name": "priceAtTerminationDate",
              "type": "int256"
            },
            {
              "internalType": "int256",
              "name": "coverageOfCreditEnhancement",
              "type": "int256"
            },
            {
              "components": [
                {
                  "internalType": "uint256",
                  "name": "i",
                  "type": "uint256"
                },
                {
                  "internalType": "enum P",
                  "name": "p",
                  "type": "uint8"
                },
                {
                  "internalType": "bool",
                  "name": "isSet",
                  "type": "bool"
                }
              ],
              "internalType": "struct IP",
              "name": "gracePeriod",
              "type": "tuple"
            },
            {
              "components": [
                {
                  "internalType": "uint256",
                  "name": "i",
                  "type": "uint256"
                },
                {
                  "internalType": "enum P",
                  "name": "p",
                  "type": "uint8"
                },
                {
                  "internalType": "bool",
                  "name": "isSet",
                  "type": "bool"
                }
              ],
              "internalType": "struct IP",
              "name": "delinquencyPeriod",
              "type": "tuple"
            },
            {
              "components": [
                {
                  "internalType": "uint256",
                  "name": "i",
                  "type": "uint256"
                },
                {
                  "internalType": "enum P",
                  "name": "p",
                  "type": "uint8"
                },
                {
                  "internalType": "enum S",
                  "name": "s",
                  "type": "uint8"
                },
                {
                  "internalType": "bool",
                  "name": "isSet",
                  "type": "bool"
                }
              ],
              "internalType": "struct IPS",
              "name": "cycleOfFee",
              "type": "tuple"
            },
            {
              "components": [
                {
                  "internalType": "bytes32",
                  "name": "object",
                  "type": "bytes32"
                },
                {
                  "internalType": "bytes32",
                  "name": "object2",
                  "type": "bytes32"
                },
                {
                  "internalType": "enum ContractReferenceType",
                  "name": "_type",
                  "type": "uint8"
                },
                {
                  "internalType": "enum ContractReferenceRole",
                  "name": "role",
                  "type": "uint8"
                }
              ],
              "internalType": "struct ContractReference",
              "name": "contractReference_1",
              "type": "tuple"
            },
            {
              "components": [
                {
                  "internalType": "bytes32",
                  "name": "object",
                  "type": "bytes32"
                },
                {
                  "internalType": "bytes32",
                  "name": "object2",
                  "type": "bytes32"
                },
                {
                  "internalType": "enum ContractReferenceType",
                  "name": "_type",
                  "type": "uint8"
                },
                {
                  "internalType": "enum ContractReferenceRole",
                  "name": "role",
                  "type": "uint8"
                }
              ],
              "internalType": "struct ContractReference",
              "name": "contractReference_2",
              "type": "tuple"
            }
          ],
          "internalType": "struct CEGTerms",
          "name": "terms",
          "type": "tuple"
        },
        {
          "components": [
            {
              "internalType": "enum ContractPerformance",
              "name": "contractPerformance",
              "type": "uint8"
            },
            {
              "internalType": "uint256",
              "name": "statusDate",
              "type": "uint256"
            },
            {
              "internalType": "uint256",
              "name": "nonPerformingDate",
              "type": "uint256"
            },
            {
              "internalType": "uint256",
              "name": "maturityDate",
              "type": "uint256"
            },
            {
              "internalType": "uint256",
              "name": "exerciseDate",
              "type": "uint256"
            },
            {
              "internalType": "uint256",
              "name": "terminationDate",
              "type": "uint256"
            },
            {
              "internalType": "uint256",
              "name": "lastCouponFixingDate",
              "type": "uint256"
            },
            {
              "internalType": "uint256",
              "name": "lastDividendFixingDate",
              "type": "uint256"
            },
            {
              "internalType": "int256",
              "name": "notionalPrincipal",
              "type": "int256"
            },
            {
              "internalType": "int256",
              "name": "accruedInterest",
              "type": "int256"
            },
            {
              "internalType": "int256",
              "name": "feeAccrued",
              "type": "int256"
            },
            {
              "internalType": "int256",
              "name": "nominalInterestRate",
              "type": "int256"
            },
            {
              "internalType": "int256",
              "name": "interestScalingMultiplier",
              "type": "int256"
            },
            {
              "internalType": "int256",
              "name": "notionalScalingMultiplier",
              "type": "int256"
            },
            {
              "internalType": "int256",
              "name": "nextPrincipalRedemptionPayment",
              "type": "int256"
            },
            {
              "internalType": "int256",
              "name": "exerciseAmount",
              "type": "int256"
            },
            {
              "internalType": "int256",
              "name": "exerciseQuantity",
              "type": "int256"
            },
            {
              "internalType": "int256",
              "name": "quantity",
              "type": "int256"
            },
            {
              "internalType": "int256",
              "name": "couponAmountFixed",
              "type": "int256"
            },
            {
              "internalType": "int256",
              "name": "marginFactor",
              "type": "int256"
            },
            {
              "internalType": "int256",
              "name": "adjustmentFactor",
              "type": "int256"
            },
            {
              "internalType": "int256",
              "name": "dividendPaymentAmount",
              "type": "int256"
            },
            {
              "internalType": "int256",
              "name": "splitRatio",
              "type": "int256"
            }
          ],
          "internalType": "struct State",
          "name": "state",
          "type": "tuple"
        },
        {
          "internalType": "uint256",
          "name": "scheduleTime",
          "type": "uint256"
        },
        {
          "internalType": "bytes32",
          "name": "externalData",
          "type": "bytes32"
        }
      ],
      "name": "_POF_CEG_FP",
      "outputs": [
        {
          "internalType": "int256",
          "name": "",
          "type": "int256"
        }
      ],
      "stateMutability": "pure",
      "type": "function"
    },
    {
      "inputs": [
        {
          "components": [
            {
              "internalType": "enum ContractType",
              "name": "contractType",
              "type": "uint8"
            },
            {
              "internalType": "enum Calendar",
              "name": "calendar",
              "type": "uint8"
            },
            {
              "internalType": "enum ContractRole",
              "name": "contractRole",
              "type": "uint8"
            },
            {
              "internalType": "enum DayCountConvention",
              "name": "dayCountConvention",
              "type": "uint8"
            },
            {
              "internalType": "enum BusinessDayConvention",
              "name": "businessDayConvention",
              "type": "uint8"
            },
            {
              "internalType": "enum EndOfMonthConvention",
              "name": "endOfMonthConvention",
              "type": "uint8"
            },
            {
              "internalType": "enum FeeBasis",
              "name": "feeBasis",
              "type": "uint8"
            },
            {
              "internalType": "enum ContractPerformance",
              "name": "creditEventTypeCovered",
              "type": "uint8"
            },
            {
              "internalType": "address",
              "name": "currency",
              "type": "address"
            },
            {
              "internalType": "address",
              "name": "settlementCurrency",
              "type": "address"
            },
            {
              "internalType": "uint256",
              "name": "contractDealDate",
              "type": "uint256"
            },
            {
              "internalType": "uint256",
              "name": "statusDate",
              "type": "uint256"
            },
            {
              "internalType": "uint256",
              "name": "maturityDate",
              "type": "uint256"
            },
            {
              "internalType": "uint256",
              "name": "purchaseDate",
              "type": "uint256"
            },
            {
              "internalType": "uint256",
              "name": "cycleAnchorDateOfFee",
              "type": "uint256"
            },
            {
              "internalType": "int256",
              "name": "notionalPrincipal",
              "type": "int256"
            },
            {
              "internalType": "int256",
              "name": "delinquencyRate",
              "type": "int256"
            },
            {
              "internalType": "int256",
              "name": "feeAccrued",
              "type": "int256"
            },
            {
              "internalType": "int256",
              "name": "feeRate",
              "type": "int256"
            },
            {
              "internalType": "int256",
              "name": "priceAtPurchaseDate",
              "type": "int256"
            },
            {
              "internalType": "int256",
              "name": "priceAtTerminationDate",
              "type": "int256"
            },
            {
              "internalType": "int256",
              "name": "coverageOfCreditEnhancement",
              "type": "int256"
            },
            {
              "components": [
                {
                  "internalType": "uint256",
                  "name": "i",
                  "type": "uint256"
                },
                {
                  "internalType": "enum P",
                  "name": "p",
                  "type": "uint8"
                },
                {
                  "internalType": "bool",
                  "name": "isSet",
                  "type": "bool"
                }
              ],
              "internalType": "struct IP",
              "name": "gracePeriod",
              "type": "tuple"
            },
            {
              "components": [
                {
                  "internalType": "uint256",
                  "name": "i",
                  "type": "uint256"
                },
                {
                  "internalType": "enum P",
                  "name": "p",
                  "type": "uint8"
                },
                {
                  "internalType": "bool",
                  "name": "isSet",
                  "type": "bool"
                }
              ],
              "internalType": "struct IP",
              "name": "delinquencyPeriod",
              "type": "tuple"
            },
            {
              "components": [
                {
                  "internalType": "uint256",
                  "name": "i",
                  "type": "uint256"
                },
                {
                  "internalType": "enum P",
                  "name": "p",
                  "type": "uint8"
                },
                {
                  "internalType": "enum S",
                  "name": "s",
                  "type": "uint8"
                },
                {
                  "internalType": "bool",
                  "name": "isSet",
                  "type": "bool"
                }
              ],
              "internalType": "struct IPS",
              "name": "cycleOfFee",
              "type": "tuple"
            },
            {
              "components": [
                {
                  "internalType": "bytes32",
                  "name": "object",
                  "type": "bytes32"
                },
                {
                  "internalType": "bytes32",
                  "name": "object2",
                  "type": "bytes32"
                },
                {
                  "internalType": "enum ContractReferenceType",
                  "name": "_type",
                  "type": "uint8"
                },
                {
                  "internalType": "enum ContractReferenceRole",
                  "name": "role",
                  "type": "uint8"
                }
              ],
              "internalType": "struct ContractReference",
              "name": "contractReference_1",
              "type": "tuple"
            },
            {
              "components": [
                {
                  "internalType": "bytes32",
                  "name": "object",
                  "type": "bytes32"
                },
                {
                  "internalType": "bytes32",
                  "name": "object2",
                  "type": "bytes32"
                },
                {
                  "internalType": "enum ContractReferenceType",
                  "name": "_type",
                  "type": "uint8"
                },
                {
                  "internalType": "enum ContractReferenceRole",
                  "name": "role",
                  "type": "uint8"
                }
              ],
              "internalType": "struct ContractReference",
              "name": "contractReference_2",
              "type": "tuple"
            }
          ],
          "internalType": "struct CEGTerms",
          "name": "terms",
          "type": "tuple"
        },
        {
          "components": [
            {
              "internalType": "enum ContractPerformance",
              "name": "contractPerformance",
              "type": "uint8"
            },
            {
              "internalType": "uint256",
              "name": "statusDate",
              "type": "uint256"
            },
            {
              "internalType": "uint256",
              "name": "nonPerformingDate",
              "type": "uint256"
            },
            {
              "internalType": "uint256",
              "name": "maturityDate",
              "type": "uint256"
            },
            {
              "internalType": "uint256",
              "name": "exerciseDate",
              "type": "uint256"
            },
            {
              "internalType": "uint256",
              "name": "terminationDate",
              "type": "uint256"
            },
            {
              "internalType": "uint256",
              "name": "lastCouponFixingDate",
              "type": "uint256"
            },
            {
              "internalType": "uint256",
              "name": "lastDividendFixingDate",
              "type": "uint256"
            },
            {
              "internalType": "int256",
              "name": "notionalPrincipal",
              "type": "int256"
            },
            {
              "internalType": "int256",
              "name": "accruedInterest",
              "type": "int256"
            },
            {
              "internalType": "int256",
              "name": "feeAccrued",
              "type": "int256"
            },
            {
              "internalType": "int256",
              "name": "nominalInterestRate",
              "type": "int256"
            },
            {
              "internalType": "int256",
              "name": "interestScalingMultiplier",
              "type": "int256"
            },
            {
              "internalType": "int256",
              "name": "notionalScalingMultiplier",
              "type": "int256"
            },
            {
              "internalType": "int256",
              "name": "nextPrincipalRedemptionPayment",
              "type": "int256"
            },
            {
              "internalType": "int256",
              "name": "exerciseAmount",
              "type": "int256"
            },
            {
              "internalType": "int256",
              "name": "exerciseQuantity",
              "type": "int256"
            },
            {
              "internalType": "int256",
              "name": "quantity",
              "type": "int256"
            },
            {
              "internalType": "int256",
              "name": "couponAmountFixed",
              "type": "int256"
            },
            {
              "internalType": "int256",
              "name": "marginFactor",
              "type": "int256"
            },
            {
              "internalType": "int256",
              "name": "adjustmentFactor",
              "type": "int256"
            },
            {
              "internalType": "int256",
              "name": "dividendPaymentAmount",
              "type": "int256"
            },
            {
              "internalType": "int256",
              "name": "splitRatio",
              "type": "int256"
            }
          ],
          "internalType": "struct State",
          "name": "state",
          "type": "tuple"
        },
        {
          "internalType": "uint256",
          "name": "scheduleTime",
          "type": "uint256"
        },
        {
          "internalType": "bytes32",
          "name": "externalData",
          "type": "bytes32"
        }
      ],
      "name": "_POF_CEG_ST",
      "outputs": [
        {
          "internalType": "int256",
          "name": "",
          "type": "int256"
        }
      ],
      "stateMutability": "pure",
      "type": "function"
    },
    {
      "inputs": [
        {
          "internalType": "enum EndOfMonthConvention",
          "name": "eomc",
          "type": "uint8"
        },
        {
          "internalType": "uint256",
          "name": "startTime",
          "type": "uint256"
        },
        {
          "components": [
            {
              "internalType": "uint256",
              "name": "i",
              "type": "uint256"
            },
            {
              "internalType": "enum P",
              "name": "p",
              "type": "uint8"
            },
            {
              "internalType": "enum S",
              "name": "s",
              "type": "uint8"
            },
            {
              "internalType": "bool",
              "name": "isSet",
              "type": "bool"
            }
          ],
          "internalType": "struct IPS",
          "name": "cycle",
          "type": "tuple"
        }
      ],
      "name": "adjustEndOfMonthConvention",
      "outputs": [
        {
          "internalType": "enum EndOfMonthConvention",
          "name": "",
          "type": "uint8"
        }
      ],
      "stateMutability": "pure",
      "type": "function"
    },
    {
      "inputs": [
        {
          "internalType": "bytes32",
          "name": "_event",
          "type": "bytes32"
        },
        {
          "internalType": "enum BusinessDayConvention",
          "name": "bdc",
          "type": "uint8"
        },
        {
          "internalType": "enum Calendar",
          "name": "calendar",
          "type": "uint8"
        },
        {
          "internalType": "uint256",
          "name": "maturityDate",
          "type": "uint256"
        }
      ],
      "name": "computeEventTimeForEvent",
      "outputs": [
        {
          "internalType": "uint256",
          "name": "",
          "type": "uint256"
        }
      ],
      "stateMutability": "pure",
      "type": "function"
    },
    {
      "inputs": [
        {
          "internalType": "bytes32",
          "name": "_event",
          "type": "bytes32"
        }
      ],
      "name": "decodeEvent",
      "outputs": [
        {
          "internalType": "enum EventType",
          "name": "",
          "type": "uint8"
        },
        {
          "internalType": "uint256",
          "name": "",
          "type": "uint256"
        }
      ],
      "stateMutability": "pure",
      "type": "function"
    },
    {
      "inputs": [
        {
          "internalType": "enum EventType",
          "name": "eventType",
          "type": "uint8"
        },
        {
          "internalType": "uint256",
          "name": "scheduleTime",
          "type": "uint256"
        }
      ],
      "name": "encodeEvent",
      "outputs": [
        {
          "internalType": "bytes32",
          "name": "",
          "type": "bytes32"
        }
      ],
      "stateMutability": "pure",
      "type": "function"
    },
    {
      "inputs": [
        {
          "internalType": "enum EventType",
          "name": "eventType",
          "type": "uint8"
        }
      ],
      "name": "getEpochOffset",
      "outputs": [
        {
          "internalType": "uint256",
          "name": "",
          "type": "uint256"
        }
      ],
      "stateMutability": "pure",
      "type": "function"
    },
    {
      "inputs": [
        {
          "internalType": "uint256",
          "name": "timestamp",
          "type": "uint256"
        },
        {
          "internalType": "enum BusinessDayConvention",
          "name": "convention",
          "type": "uint8"
        },
        {
          "internalType": "enum Calendar",
          "name": "calendar",
          "type": "uint8"
        },
        {
          "internalType": "uint256",
          "name": "maturityDate",
          "type": "uint256"
        }
      ],
      "name": "shiftCalcTime",
      "outputs": [
        {
          "internalType": "uint256",
          "name": "",
          "type": "uint256"
        }
      ],
      "stateMutability": "pure",
      "type": "function"
    },
    {
      "inputs": [
        {
          "internalType": "uint256",
          "name": "timestamp",
          "type": "uint256"
        },
        {
          "internalType": "enum BusinessDayConvention",
          "name": "convention",
          "type": "uint8"
        },
        {
          "internalType": "enum Calendar",
          "name": "calendar",
          "type": "uint8"
        },
        {
          "internalType": "uint256",
          "name": "maturityDate",
          "type": "uint256"
        }
      ],
      "name": "shiftEventTime",
      "outputs": [
        {
          "internalType": "uint256",
          "name": "",
          "type": "uint256"
        }
      ],
      "stateMutability": "pure",
      "type": "function"
    }
  ],
  "bytecode": "0x608060405234801561001057600080fd5b50611c9f806100206000396000f3fe608060405234801561001057600080fd5b50600436106100cf5760003560e01c8063b47a9d3e1161008c578063e05a66e011610066578063e05a66e01461018f578063e726d680146101a2578063edc0465f14610187578063f5586e05146101b5576100cf565b8063b47a9d3e14610161578063bd73ff4914610174578063c40c5a9814610187576100cf565b8063179331f3146100d45780631a2e165d146100fd5780636f37e55b1461011d5780637254000314610125578063811322fb14610146578063aaf5eb6814610159575b600080fd5b6100e76100e23660046116f4565b6101c8565b6040516100f4919061197b565b60405180910390f35b61011061010b3660046116af565b610298565b6040516100f49190611972565b6101106102bf565b610138610133366004611697565b6102cb565b6040516100f492919061198f565b610110610154366004611732565b6102f4565b61011061030a565b61011061016f366004611775565b61030f565b610110610182366004611775565b610326565b610110610334565b61011061019d36600461174c565b610339565b6101106101b036600461195d565b610359565b6101106101c336600461195d565b6104ac565b600060018460018111156101d857fe5b1415610254576101e783610517565b6101f084610539565b14801561023f575060028260200151600581111561020a57fe5b1480610225575060038260200151600581111561022357fe5b145b8061023f575060048260200151600581111561023d57fe5b145b1561024c57506001610291565b506000610291565b600084600181111561026257fe5b141561027057506000610291565b60405162461bcd60e51b8152600401610288906119a7565b60405180910390fd5b9392505050565b6000806102a4866102cb565b9150506102b381868686610359565b9150505b949350505050565b670de0b6b3a764000081565b6000808060f884901c60218111156102df57fe5b92505067ffffffffffffffff83169050915091565b600081602181111561030257fe5b90505b919050565b601281565b600061031d85858585610548565b95945050505050565b600061031d85858585610567565b607881565b60008160f884602181111561034a57fe5b60ff16901b1790505b92915050565b60008185141561036a5750836102b7565b600184600881111561037857fe5b148061038f5750600384600881111561038d57fe5b145b156103a55761039e8584610621565b90506102b7565b60028460088111156103b357fe5b14806103ca575060048460088111156103c857fe5b145b1561040e5760006103db8685610621565b90506103e68661067d565b6103ef8261067d565b14156103fc5790506102b7565b6104068685610694565b9150506102b7565b600584600881111561041c57fe5b14806104335750600784600881111561043157fe5b145b156104425761039e8584610694565b600684600881111561045057fe5b14806104675750600884600881111561046557fe5b145b156104a35760006104788685610694565b90506104838661067d565b61048c8261067d565b14156104995790506102b7565b6104068685610621565b50929392505050565b600060038460088111156104bc57fe5b14806104d3575060048460088111156104d157fe5b145b806104e9575060078460088111156104e757fe5b145b806104ff575060088460088111156104fd57fe5b145b1561050b5750836102b7565b61031d85858585610359565b6000808061052a62015180855b046106e2565b50915091506102b78282610778565b60006102b76201518083610524565b600061031d846101400151856101e001516107fe90919063ffffffff16565b6000808560c00151600181111561057a57fe5b141561059e578461024001516105938660400151610863565b60000b0290506102b7565b60006105e96105c08660200151886080015189602001518a61018001516104ac565b6105d98689608001518a602001518b61018001516104ac565b8860600151896101800151610946565b90506102b361061586610100015161060f89610240015185610aa090919063ffffffff16565b90610aa0565b610140870151906107fe565b6000600182600181111561063157fe5b14156106765761064083610b9b565b6006141561065a57610653836002610bae565b9050610353565b61066383610b9b565b6007141561067657610653836001610bae565b5090919050565b600061068c6201518083610524565b509392505050565b600060018260018111156106a457fe5b1415610676576106b383610b9b565b600614156106c657610653836001610bc3565b6106cf83610b9b565b6007141561067657610653836002610bc3565b60008080836226496581018262023ab1600483020590506004600362023ab18302010590910390600062164b09610fa0600185010205905060046105b58202058303601f019250600061098f846050028161073957fe5b0590506000605061098f83020585039050600b820560301994909401606402929092018301996002600c90940290910392909201975095509350505050565b600081600114806107895750816003145b806107945750816005145b8061079f5750816007145b806107aa5750816008145b806107b5575081600a145b806107c0575081600c145b156107cd5750601f610353565b816002146107dd5750601e610353565b6107e683610bd8565b6107f157601c6107f4565b601d5b60ff169392505050565b60008282018183128015906108135750838112155b80610828575060008312801561082857508381125b6102915760405162461bcd60e51b8152600401808060200182810382526021815260200180611ac86021913960400191505060405180910390fd5b60008082600c81111561087257fe5b141561088057506001610305565b600182600c81111561088e57fe5b141561089d5750600019610305565b600682600c8111156108ab57fe5b14156108b957506001610305565b600782600c8111156108c757fe5b14156108d65750600019610305565b600282600c8111156108e457fe5b14156108f257506001610305565b600382600c81111561090057fe5b141561090f5750600019610305565b60405162461bcd60e51b8152600401808060200182810382526034815260200180611ae96034913960400191505060405180910390fd5b6000848410156109875760405162461bcd60e51b8152600401808060200182810382526027815260200180611bae6027913960400191505060405180910390fd5b600083600581111561099557fe5b14156109a55761039e8585610bfd565b60018360058111156109b357fe5b14156109c35761039e8585610cf9565b60028360058111156109d157fe5b14156109e15761039e8585610d18565b60048360058111156109ef57fe5b14156109ff5761039e8585610d31565b6003836005811115610a0d57fe5b1415610a1e5761039e858584610dd4565b6005836005811115610a2c57fe5b1415610a695760405162461bcd60e51b8152600401808060200182810382526039815260200180611b446039913960400191505060405180910390fd5b60405162461bcd60e51b8152600401808060200182810382526035815260200180611a616035913960400191505060405180910390fd5b6000821580610aad575081155b15610aba57506000610353565b82600019148015610ace5750600160ff1b82145b15610b0a5760405162461bcd60e51b8152600401808060200182810382526027815260200180611b1d6027913960400191505060405180910390fd5b82820282848281610b1757fe5b0514610b545760405162461bcd60e51b8152600401808060200182810382526027815260200180611b1d6027913960400191505060405180910390fd5b670de0b6b3a76400008105806102b75760405162461bcd60e51b8152600401808060200182810382526032815260200180611a966032913960400191505060405180910390fd5b6007620151809091046003010660010190565b62015180810282018281101561035357600080fd5b62015180810282038281111561035357600080fd5b600060048206158015610bed57506064820615155b8061030257505061019090061590565b600080610c0984610e92565b90506000610c1684610e92565b90506000610c2386610eaa565b610c2f5761016d610c33565b61016e5b61ffff16905081831415610c5f57610c5581610c4f8888610ec7565b90610ee2565b9350505050610353565b6000610c6a86610eaa565b610c765761016d610c7a565b61016e5b61ffff1690506000610ca583610c4f8a610ca0610c988a600161101a565b600180611074565b610ec7565b90506000610cc283610c4f610cbc88600180611074565b8b610ec7565b9050610cec610cdc6001610cd6888a61108e565b9061108e565b610ce684846107fe565b906107fe565b9998505050505050505050565b6000610291610168610c4f62015180610d12868861108e565b906110d0565b600061029161016d610c4f62015180610d12868861108e565b6000806000806000806000610d4589611112565b975095509350610d5488611112565b945092509050601f861415610d6857601e95505b82601f1415610d7657601e92505b6000610d828488611130565b90506000610d908488611130565b90506000610d9e8488611130565b9050610dc4610168610c4f85610ce6610db887601e611195565b610ce687610168611195565b9c9b505050505050505050505050565b6000806000806000806000610de88a611112565b975095509350610df789611112565b945092509050610e068a610517565b861415610e1257601e95505b8789148015610e215750816002145b158015610e355750610e3289610517565b83145b15610e3f57601e92505b6000610e4b8488611130565b90506000610e598488611130565b90506000610e678488611130565b9050610e81610168610c4f85610ce6610db887601e611195565b9d9c50505050505050505050505050565b6000610ea16201518083610524565b50909392505050565b600080610eba6201518084610524565b5050905061029181610bd8565b600081831115610ed657600080fd5b50620151809190030490565b600081610f205760405162461bcd60e51b8152600401808060200182810382526024815260200180611c466024913960400191505060405180910390fd5b82610f2d57506000610353565b670de0b6b3a764000083810290848281610f4357fe5b0514610f805760405162461bcd60e51b8152600401808060200182810382526026815260200180611bfc6026913960400191505060405180910390fd5b82600019148015610f945750600160ff1b84145b15610fd05760405162461bcd60e51b8152600401808060200182810382526026815260200180611bfc6026913960400191505060405180910390fd5b6000838281610fdb57fe5b059050806102b75760405162461bcd60e51b8152600401808060200182810382526031815260200180611b7d6031913960400191505060405180910390fd5b600082820183811015610291576040805162461bcd60e51b815260206004820152601b60248201527f536166654d6174683a206164646974696f6e206f766572666c6f770000000000604482015290519081900360640190fd5b60006201518061108585858561123e565b02949350505050565b600061029183836040518060400160405280601e81526020017f536166654d6174683a207375627472616374696f6e206f766572666c6f7700008152506112ba565b600061029183836040518060400160405280601a81526020017f536166654d6174683a206469766973696f6e206279207a65726f000000000000815250611351565b600080806111236201518085610524565b9196909550909350915050565b60008183038183128015906111455750838113155b8061115a575060008312801561115a57508381135b6102915760405162461bcd60e51b8152600401808060200182810382526024815260200180611c226024913960400191505060405180910390fd5b6000826111a457506000610353565b826000191480156111b85750600160ff1b82145b156111f45760405162461bcd60e51b8152600401808060200182810382526027815260200180611bd56027913960400191505060405180910390fd5b8282028284828161120157fe5b05146102915760405162461bcd60e51b8152600401808060200182810382526027815260200180611bd56027913960400191505060405180910390fd5b60006107b284101561124f57600080fd5b838383600062253d8c600460036064611324600c600d19890105890101050205600c80600d19870105600c02600287030361016f028161128b57fe5b0560046105b5600c600d1989010589016112c0010205617d4b8603010103039050809450505050509392505050565b600081848411156113495760405162461bcd60e51b81526004018080602001828103825283818151815260200191508051906020019080838360005b8381101561130e5781810151838201526020016112f6565b50505050905090810190601f16801561133b5780820380516001836020036101000a031916815260200191505b509250505060405180910390fd5b505050900390565b600081836113a05760405162461bcd60e51b815260206004820181815283516024840152835190928392604490910191908501908083836000831561130e5781810151838201526020016112f6565b5060008385816113ac57fe5b0495945050505050565b80356001600160a01b038116811461030557600080fd5b8035801515811461030557600080fd5b80356009811061030557600080fd5b803561030581611a36565b803561030581611a46565b8035600d811061030557600080fd5b80356013811061030557600080fd5b80356022811061030557600080fd5b600060808284031215611440578081fd5b6040516080810181811067ffffffffffffffff8211171561145d57fe5b80604052508091508235815260208301356020820152604083013561148181611a53565b6040820152606083013561149481611a53565b6060919091015292915050565b6000608082840312156114b2578081fd5b6040516080810181811067ffffffffffffffff821117156114cf57fe5b6040528235815290508060208301356114e781611a46565b602082015260408301356114fa81611a36565b604082015261150b606084016113cd565b60608201525092915050565b600060608284031215611528578081fd5b6040516060810181811067ffffffffffffffff8211171561154557fe5b60405282358152905080602083013561155d81611a46565b602082015261156e604084016113cd565b60408201525092915050565b60006102e080838503121561158d578182fd5b61159681611a12565b9150506115a2826113f7565b81526020828101359082015260408083013590820152606080830135908201526080808301359082015260a0808301359082015260c0808301359082015260e08083013590820152610100808301359082015261012080830135908201526101408083013590820152610160808301359082015261018080830135908201526101a080830135908201526101c080830135908201526101e08083013590820152610200808301359082015261022080830135908201526102408083013590820152610260808301359082015261028080830135908201526102a080830135908201526102c09182013591810191909152919050565b6000602082840312156116a8578081fd5b5035919050565b600080600080608085870312156116c4578283fd5b843593506116d4602086016113dd565b925060408501356116e481611a36565b9396929550929360600135925050565b600080600060c08486031215611708578081fd5b833561171381611a36565b92506020840135915061172985604086016114a1565b90509250925092565b600060208284031215611743578081fd5b61029182611420565b6000806040838503121561175e578182fd5b61176783611420565b946020939093013593505050565b60008060008084860361082081121561178c578283fd5b6105008082121561179b578384fd5b6117a6610360611a12565b91506117b187611411565b82526117bf602088016113ec565b60208301526117d060408801611402565b60408301526117e1606088016113f7565b60608301526117f2608088016113dd565b608083015261180360a088016113ec565b60a083015261181460c088016113ec565b60c083015261182560e088016113f7565b60e08301526101006118388189016113b6565b9083015261012061184a8882016113b6565b908301526101408781013590830152610160808801359083015261018080880135908301526101a080880135908301526101c080880135908301526101e08088013590830152610200808801359083015261022080880135908301526102408088013590830152610260808801359083015261028080880135908301526102a080880135908301526102c06118e189828a01611517565b908301526103206118f489898301611517565b6102e0840152611908896103808a016114a1565b61030084015261191c896104008a0161142f565b9083015261192e88610480890161142f565b6103408301528195506119438882890161157a565b95989597505050506107e084013593610800013592915050565b600080600080608085870312156116c4578182fd5b90815260200190565b602081016002831061198957fe5b91905290565b604081016022841061199d57fe5b9281526020015290565b60208082526045908201527f456e644f664d6f6e7468436f6e76656e74696f6e2e61646a757374456e644f6660408201527f4d6f6e7468436f6e76656e74696f6e3a204154545249425554455f4e4f545f4660608201526427aaa7221760d91b608082015260a00190565b60405181810167ffffffffffffffff81118282101715611a2e57fe5b604052919050565b60028110611a4357600080fd5b50565b60068110611a4357600080fd5b60058110611a4357600080fdfe446179436f756e74436f6e76656e74696f6e2e796561724672616374696f6e3a204154545249425554455f4e4f545f464f554e442e5369676e65644d6174682e666c6f61744d756c743a2043414e4e4f545f524550524553454e545f4752414e554c41524954595369676e6564536166654d6174683a206164646974696f6e206f766572666c6f77436f6e7472616374526f6c65436f6e76656e74696f6e2e726f6c655369676e3a204154545249425554455f4e4f545f464f554e445369676e65644d6174682e666c6f61744d756c743a204f564552464c4f575f4445544543544544446179436f756e74436f6e76656e74696f6e2e796561724672616374696f6e3a204154545249425554455f4e4f545f535550504f525445442e5369676e65644d6174682e666c6f61744469763a2043414e4e4f545f524550524553454e545f4752414e554c4152495459436f72652e796561724672616374696f6e3a2053544152545f4e4f545f4245464f52455f454e445369676e6564536166654d6174683a206d756c7469706c69636174696f6e206f766572666c6f775369676e65644d6174682e666c6f61744469763a204f564552464c4f575f44455445435445445369676e6564536166654d6174683a207375627472616374696f6e206f766572666c6f775369676e65644d6174682e666c6f61744469763a20444956494445445f42595f5a45524fa2646970667358221220c8555fae25f764ae49ee3ffbcc066cb188a0eecec9b5608e854beee1a4af033c64736f6c63430007040033",
  "linkReferences": {},
  "deployedLinkReferences": {}
}