{
  "_format": "hh-sol-artifact-1",
  "contractName": "ANNRegistry",
  "sourceName": "contracts/Core/ANN/ANNRegistry.sol",
  "abi": [
    {
      "inputs": [],
      "stateMutability": "nonpayable",
      "type": "constructor"
    },
    {
      "anonymous": false,
      "inputs": [
        {
          "indexed": true,
          "internalType": "bytes32",
          "name": "assetId",
          "type": "bytes32"
        },
        {
          "indexed": true,
          "internalType": "address",
          "name": "account",
          "type": "address"
        },
        {
          "indexed": false,
          "internalType": "bytes4",
          "name": "methodSignature",
          "type": "bytes4"
        }
      ],
      "name": "GrantedAccess",
      "type": "event"
    },
    {
      "anonymous": false,
      "inputs": [
        {
          "indexed": true,
          "internalType": "address",
          "name": "previousOwner",
          "type": "address"
        },
        {
          "indexed": true,
          "internalType": "address",
          "name": "newOwner",
          "type": "address"
        }
      ],
      "name": "OwnershipTransferred",
      "type": "event"
    },
    {
      "anonymous": false,
      "inputs": [
        {
          "indexed": false,
          "internalType": "bytes32",
          "name": "assetId",
          "type": "bytes32"
        }
      ],
      "name": "RegisteredAsset",
      "type": "event"
    },
    {
      "anonymous": false,
      "inputs": [
        {
          "indexed": true,
          "internalType": "bytes32",
          "name": "assetId",
          "type": "bytes32"
        },
        {
          "indexed": true,
          "internalType": "address",
          "name": "account",
          "type": "address"
        },
        {
          "indexed": false,
          "internalType": "bytes4",
          "name": "methodSignature",
          "type": "bytes4"
        }
      ],
      "name": "RevokedAccess",
      "type": "event"
    },
    {
      "anonymous": false,
      "inputs": [
        {
          "indexed": true,
          "internalType": "bytes32",
          "name": "assetId",
          "type": "bytes32"
        },
        {
          "indexed": false,
          "internalType": "address",
          "name": "prevActor",
          "type": "address"
        },
        {
          "indexed": false,
          "internalType": "address",
          "name": "newActor",
          "type": "address"
        }
      ],
      "name": "UpdatedActor",
      "type": "event"
    },
    {
      "anonymous": false,
      "inputs": [
        {
          "indexed": false,
          "internalType": "bytes32",
          "name": "assetId",
          "type": "bytes32"
        },
        {
          "indexed": false,
          "internalType": "address",
          "name": "prevBeneficiary",
          "type": "address"
        },
        {
          "indexed": false,
          "internalType": "address",
          "name": "newBeneficiary",
          "type": "address"
        }
      ],
      "name": "UpdatedBeneficiary",
      "type": "event"
    },
    {
      "anonymous": false,
      "inputs": [
        {
          "indexed": true,
          "internalType": "bytes32",
          "name": "assetId",
          "type": "bytes32"
        },
        {
          "indexed": false,
          "internalType": "address",
          "name": "prevEngine",
          "type": "address"
        },
        {
          "indexed": false,
          "internalType": "address",
          "name": "newEngine",
          "type": "address"
        }
      ],
      "name": "UpdatedEngine",
      "type": "event"
    },
    {
      "anonymous": false,
      "inputs": [
        {
          "indexed": true,
          "internalType": "bytes32",
          "name": "assetId",
          "type": "bytes32"
        },
        {
          "indexed": false,
          "internalType": "uint256",
          "name": "statusDate",
          "type": "uint256"
        }
      ],
      "name": "UpdatedFinalizedState",
      "type": "event"
    },
    {
      "anonymous": false,
      "inputs": [
        {
          "indexed": false,
          "internalType": "bytes32",
          "name": "assetId",
          "type": "bytes32"
        },
        {
          "indexed": false,
          "internalType": "address",
          "name": "prevObligor",
          "type": "address"
        },
        {
          "indexed": false,
          "internalType": "address",
          "name": "newObligor",
          "type": "address"
        }
      ],
      "name": "UpdatedObligor",
      "type": "event"
    },
    {
      "anonymous": false,
      "inputs": [
        {
          "indexed": true,
          "internalType": "bytes32",
          "name": "assetId",
          "type": "bytes32"
        },
        {
          "indexed": false,
          "internalType": "uint256",
          "name": "statusDate",
          "type": "uint256"
        }
      ],
      "name": "UpdatedState",
      "type": "event"
    },
    {
      "anonymous": false,
      "inputs": [
        {
          "indexed": true,
          "internalType": "bytes32",
          "name": "assetId",
          "type": "bytes32"
        }
      ],
      "name": "UpdatedTerms",
      "type": "event"
    },
    {
      "inputs": [
        {
          "internalType": "address",
          "name": "actor",
          "type": "address"
        }
      ],
      "name": "approveActor",
      "outputs": [],
      "stateMutability": "nonpayable",
      "type": "function"
    },
    {
      "inputs": [
        {
          "internalType": "address",
          "name": "",
          "type": "address"
        }
      ],
      "name": "approvedActors",
      "outputs": [
        {
          "internalType": "bool",
          "name": "",
          "type": "bool"
        }
      ],
      "stateMutability": "view",
      "type": "function"
    },
    {
      "inputs": [
        {
          "internalType": "bytes32",
          "name": "_event",
          "type": "bytes32"
        }
      ],
      "name": "decodeEvent",
      "outputs": [
        {
          "internalType": "enum EventType",
          "name": "",
          "type": "uint8"
        },
        {
          "internalType": "uint256",
          "name": "",
          "type": "uint256"
        }
      ],
      "stateMutability": "pure",
      "type": "function"
    },
    {
      "inputs": [
        {
          "internalType": "enum EventType",
          "name": "eventType",
          "type": "uint8"
        },
        {
          "internalType": "uint256",
          "name": "scheduleTime",
          "type": "uint256"
        }
      ],
      "name": "encodeEvent",
      "outputs": [
        {
          "internalType": "bytes32",
          "name": "",
          "type": "bytes32"
        }
      ],
      "stateMutability": "pure",
      "type": "function"
    },
    {
      "inputs": [
        {
          "internalType": "bytes32",
          "name": "assetId",
          "type": "bytes32"
        }
      ],
      "name": "getActor",
      "outputs": [
        {
          "internalType": "address",
          "name": "",
          "type": "address"
        }
      ],
      "stateMutability": "view",
      "type": "function"
    },
    {
      "inputs": [
        {
          "internalType": "bytes32",
          "name": "assetId",
          "type": "bytes32"
        },
        {
          "internalType": "bytes32",
          "name": "attribute",
          "type": "bytes32"
        }
      ],
      "name": "getAddressValueForTermsAttribute",
      "outputs": [
        {
          "internalType": "address",
          "name": "",
          "type": "address"
        }
      ],
      "stateMutability": "view",
      "type": "function"
    },
    {
      "inputs": [
        {
          "internalType": "bytes32",
          "name": "assetId",
          "type": "bytes32"
        },
        {
          "internalType": "bytes32",
          "name": "attribute",
          "type": "bytes32"
        }
      ],
      "name": "getBytes32ValueForTermsAttribute",
      "outputs": [
        {
          "internalType": "bytes32",
          "name": "",
          "type": "bytes32"
        }
      ],
      "stateMutability": "view",
      "type": "function"
    },
    {
      "inputs": [
        {
          "internalType": "bytes32",
          "name": "assetId",
          "type": "bytes32"
        },
        {
          "internalType": "bytes32",
          "name": "attribute",
          "type": "bytes32"
        }
      ],
      "name": "getContractReferenceValueForTermsAttribute",
      "outputs": [
        {
          "components": [
            {
              "internalType": "bytes32",
              "name": "object",
              "type": "bytes32"
            },
            {
              "internalType": "bytes32",
              "name": "object2",
              "type": "bytes32"
            },
            {
              "internalType": "enum ContractReferenceType",
              "name": "_type",
              "type": "uint8"
            },
            {
              "internalType": "enum ContractReferenceRole",
              "name": "role",
              "type": "uint8"
            }
          ],
          "internalType": "struct ContractReference",
          "name": "",
          "type": "tuple"
        }
      ],
      "stateMutability": "view",
      "type": "function"
    },
    {
      "inputs": [
        {
          "internalType": "bytes32",
          "name": "assetId",
          "type": "bytes32"
        },
        {
          "internalType": "bytes32",
          "name": "attribute",
          "type": "bytes32"
        }
      ],
      "name": "getCycleValueForTermsAttribute",
      "outputs": [
        {
          "components": [
            {
              "internalType": "uint256",
              "name": "i",
              "type": "uint256"
            },
            {
              "internalType": "enum P",
              "name": "p",
              "type": "uint8"
            },
            {
              "internalType": "enum S",
              "name": "s",
              "type": "uint8"
            },
            {
              "internalType": "bool",
              "name": "isSet",
              "type": "bool"
            }
          ],
          "internalType": "struct IPS",
          "name": "",
          "type": "tuple"
        }
      ],
      "stateMutability": "view",
      "type": "function"
    },
    {
      "inputs": [
        {
          "internalType": "bytes32",
          "name": "assetId",
          "type": "bytes32"
        }
      ],
      "name": "getEngine",
      "outputs": [
        {
          "internalType": "address",
          "name": "",
          "type": "address"
        }
      ],
      "stateMutability": "view",
      "type": "function"
    },
    {
      "inputs": [
        {
          "internalType": "bytes32",
          "name": "assetId",
          "type": "bytes32"
        },
        {
          "internalType": "bytes32",
          "name": "attribute",
          "type": "bytes32"
        }
      ],
      "name": "getEnumValueForStateAttribute",
      "outputs": [
        {
          "internalType": "uint8",
          "name": "",
          "type": "uint8"
        }
      ],
      "stateMutability": "view",
      "type": "function"
    },
    {
      "inputs": [
        {
          "internalType": "bytes32",
          "name": "assetId",
          "type": "bytes32"
        },
        {
          "internalType": "bytes32",
          "name": "attribute",
          "type": "bytes32"
        }
      ],
      "name": "getEnumValueForTermsAttribute",
      "outputs": [
        {
          "internalType": "uint8",
          "name": "",
          "type": "uint8"
        }
      ],
      "stateMutability": "view",
      "type": "function"
    },
    {
      "inputs": [
        {
          "internalType": "enum EventType",
          "name": "eventType",
          "type": "uint8"
        }
      ],
      "name": "getEpochOffset",
      "outputs": [
        {
          "internalType": "uint256",
          "name": "",
          "type": "uint256"
        }
      ],
      "stateMutability": "pure",
      "type": "function"
    },
    {
      "inputs": [
        {
          "internalType": "bytes32",
          "name": "assetId",
          "type": "bytes32"
        },
        {
          "internalType": "uint256",
          "name": "index",
          "type": "uint256"
        }
      ],
      "name": "getEventAtIndex",
      "outputs": [
        {
          "internalType": "bytes32",
          "name": "",
          "type": "bytes32"
        }
      ],
      "stateMutability": "view",
      "type": "function"
    },
    {
      "inputs": [
        {
          "internalType": "bytes32",
          "name": "assetId",
          "type": "bytes32"
        }
      ],
      "name": "getFinalizedState",
      "outputs": [
        {
          "components": [
            {
              "internalType": "enum ContractPerformance",
              "name": "contractPerformance",
              "type": "uint8"
            },
            {
              "internalType": "uint256",
              "name": "statusDate",
              "type": "uint256"
            },
            {
              "internalType": "uint256",
              "name": "nonPerformingDate",
              "type": "uint256"
            },
            {
              "internalType": "uint256",
              "name": "maturityDate",
              "type": "uint256"
            },
            {
              "internalType": "uint256",
              "name": "exerciseDate",
              "type": "uint256"
            },
            {
              "internalType": "uint256",
              "name": "terminationDate",
              "type": "uint256"
            },
            {
              "internalType": "uint256",
              "name": "lastCouponFixingDate",
              "type": "uint256"
            },
            {
              "internalType": "uint256",
              "name": "lastDividendFixingDate",
              "type": "uint256"
            },
            {
              "internalType": "int256",
              "name": "notionalPrincipal",
              "type": "int256"
            },
            {
              "internalType": "int256",
              "name": "accruedInterest",
              "type": "int256"
            },
            {
              "internalType": "int256",
              "name": "feeAccrued",
              "type": "int256"
            },
            {
              "internalType": "int256",
              "name": "nominalInterestRate",
              "type": "int256"
            },
            {
              "internalType": "int256",
              "name": "interestScalingMultiplier",
              "type": "int256"
            },
            {
              "internalType": "int256",
              "name": "notionalScalingMultiplier",
              "type": "int256"
            },
            {
              "internalType": "int256",
              "name": "nextPrincipalRedemptionPayment",
              "type": "int256"
            },
            {
              "internalType": "int256",
              "name": "exerciseAmount",
              "type": "int256"
            },
            {
              "internalType": "int256",
              "name": "exerciseQuantity",
              "type": "int256"
            },
            {
              "internalType": "int256",
              "name": "quantity",
              "type": "int256"
            },
            {
              "internalType": "int256",
              "name": "couponAmountFixed",
              "type": "int256"
            },
            {
              "internalType": "int256",
              "name": "marginFactor",
              "type": "int256"
            },
            {
              "internalType": "int256",
              "name": "adjustmentFactor",
              "type": "int256"
            },
            {
              "internalType": "int256",
              "name": "dividendPaymentAmount",
              "type": "int256"
            },
            {
              "internalType": "int256",
              "name": "splitRatio",
              "type": "int256"
            }
          ],
          "internalType": "struct State",
          "name": "",
          "type": "tuple"
        }
      ],
      "stateMutability": "view",
      "type": "function"
    },
    {
      "inputs": [
        {
          "internalType": "bytes32",
          "name": "assetId",
          "type": "bytes32"
        },
        {
          "internalType": "bytes32",
          "name": "attribute",
          "type": "bytes32"
        }
      ],
      "name": "getIntValueForStateAttribute",
      "outputs": [
        {
          "internalType": "int256",
          "name": "",
          "type": "int256"
        }
      ],
      "stateMutability": "view",
      "type": "function"
    },
    {
      "inputs": [
        {
          "internalType": "bytes32",
          "name": "assetId",
          "type": "bytes32"
        },
        {
          "internalType": "bytes32",
          "name": "attribute",
          "type": "bytes32"
        }
      ],
      "name": "getIntValueForTermsAttribute",
      "outputs": [
        {
          "internalType": "int256",
          "name": "",
          "type": "int256"
        }
      ],
      "stateMutability": "view",
      "type": "function"
    },
    {
      "inputs": [
        {
          "internalType": "bytes32",
          "name": "assetId",
          "type": "bytes32"
        }
      ],
      "name": "getNextScheduleIndex",
      "outputs": [
        {
          "internalType": "uint256",
          "name": "",
          "type": "uint256"
        }
      ],
      "stateMutability": "view",
      "type": "function"
    },
    {
      "inputs": [
        {
          "internalType": "bytes32",
          "name": "assetId",
          "type": "bytes32"
        }
      ],
      "name": "getNextScheduledEvent",
      "outputs": [
        {
          "internalType": "bytes32",
          "name": "",
          "type": "bytes32"
        }
      ],
      "stateMutability": "view",
      "type": "function"
    },
    {
      "inputs": [
        {
          "internalType": "bytes32",
          "name": "assetId",
          "type": "bytes32"
        }
      ],
      "name": "getNextUnderlyingEvent",
      "outputs": [
        {
          "internalType": "bytes32",
          "name": "",
          "type": "bytes32"
        }
      ],
      "stateMutability": "view",
      "type": "function"
    },
    {
      "inputs": [
        {
          "internalType": "bytes32",
          "name": "assetId",
          "type": "bytes32"
        }
      ],
      "name": "getOwnership",
      "outputs": [
        {
          "components": [
            {
              "internalType": "address",
              "name": "creatorObligor",
              "type": "address"
            },
            {
              "internalType": "address",
              "name": "creatorBeneficiary",
              "type": "address"
            },
            {
              "internalType": "address",
              "name": "counterpartyObligor",
              "type": "address"
            },
            {
              "internalType": "address",
              "name": "counterpartyBeneficiary",
              "type": "address"
            }
          ],
          "internalType": "struct AssetOwnership",
          "name": "",
          "type": "tuple"
        }
      ],
      "stateMutability": "view",
      "type": "function"
    },
    {
      "inputs": [
        {
          "internalType": "bytes32",
          "name": "assetId",
          "type": "bytes32"
        }
      ],
      "name": "getPendingEvent",
      "outputs": [
        {
          "internalType": "bytes32",
          "name": "",
          "type": "bytes32"
        }
      ],
      "stateMutability": "view",
      "type": "function"
    },
    {
      "inputs": [
        {
          "internalType": "bytes32",
          "name": "assetId",
          "type": "bytes32"
        },
        {
          "internalType": "bytes32",
          "name": "attribute",
          "type": "bytes32"
        }
      ],
      "name": "getPeriodValueForTermsAttribute",
      "outputs": [
        {
          "components": [
            {
              "internalType": "uint256",
              "name": "i",
              "type": "uint256"
            },
            {
              "internalType": "enum P",
              "name": "p",
              "type": "uint8"
            },
            {
              "internalType": "bool",
              "name": "isSet",
              "type": "bool"
            }
          ],
          "internalType": "struct IP",
          "name": "",
          "type": "tuple"
        }
      ],
      "stateMutability": "view",
      "type": "function"
    },
    {
      "inputs": [
        {
          "internalType": "bytes32",
          "name": "assetId",
          "type": "bytes32"
        }
      ],
      "name": "getSchedule",
      "outputs": [
        {
          "internalType": "bytes32[]",
          "name": "",
          "type": "bytes32[]"
        }
      ],
      "stateMutability": "view",
      "type": "function"
    },
    {
      "inputs": [
        {
          "internalType": "bytes32",
          "name": "assetId",
          "type": "bytes32"
        }
      ],
      "name": "getScheduleLength",
      "outputs": [
        {
          "internalType": "uint256",
          "name": "",
          "type": "uint256"
        }
      ],
      "stateMutability": "view",
      "type": "function"
    },
    {
      "inputs": [
        {
          "internalType": "bytes32",
          "name": "assetId",
          "type": "bytes32"
        }
      ],
      "name": "getState",
      "outputs": [
        {
          "components": [
            {
              "internalType": "enum ContractPerformance",
              "name": "contractPerformance",
              "type": "uint8"
            },
            {
              "internalType": "uint256",
              "name": "statusDate",
              "type": "uint256"
            },
            {
              "internalType": "uint256",
              "name": "nonPerformingDate",
              "type": "uint256"
            },
            {
              "internalType": "uint256",
              "name": "maturityDate",
              "type": "uint256"
            },
            {
              "internalType": "uint256",
              "name": "exerciseDate",
              "type": "uint256"
            },
            {
              "internalType": "uint256",
              "name": "terminationDate",
              "type": "uint256"
            },
            {
              "internalType": "uint256",
              "name": "lastCouponFixingDate",
              "type": "uint256"
            },
            {
              "internalType": "uint256",
              "name": "lastDividendFixingDate",
              "type": "uint256"
            },
            {
              "internalType": "int256",
              "name": "notionalPrincipal",
              "type": "int256"
            },
            {
              "internalType": "int256",
              "name": "accruedInterest",
              "type": "int256"
            },
            {
              "internalType": "int256",
              "name": "feeAccrued",
              "type": "int256"
            },
            {
              "internalType": "int256",
              "name": "nominalInterestRate",
              "type": "int256"
            },
            {
              "internalType": "int256",
              "name": "interestScalingMultiplier",
              "type": "int256"
            },
            {
              "internalType": "int256",
              "name": "notionalScalingMultiplier",
              "type": "int256"
            },
            {
              "internalType": "int256",
              "name": "nextPrincipalRedemptionPayment",
              "type": "int256"
            },
            {
              "internalType": "int256",
              "name": "exerciseAmount",
              "type": "int256"
            },
            {
              "internalType": "int256",
              "name": "exerciseQuantity",
              "type": "int256"
            },
            {
              "internalType": "int256",
              "name": "quantity",
              "type": "int256"
            },
            {
              "internalType": "int256",
              "name": "couponAmountFixed",
              "type": "int256"
            },
            {
              "internalType": "int256",
              "name": "marginFactor",
              "type": "int256"
            },
            {
              "internalType": "int256",
              "name": "adjustmentFactor",
              "type": "int256"
            },
            {
              "internalType": "int256",
              "name": "dividendPaymentAmount",
              "type": "int256"
            },
            {
              "internalType": "int256",
              "name": "splitRatio",
              "type": "int256"
            }
          ],
          "internalType": "struct State",
          "name": "",
          "type": "tuple"
        }
      ],
      "stateMutability": "view",
      "type": "function"
    },
    {
      "inputs": [
        {
          "internalType": "bytes32",
          "name": "assetId",
          "type": "bytes32"
        }
      ],
      "name": "getTerms",
      "outputs": [
        {
          "components": [
            {
              "internalType": "enum ContractType",
              "name": "contractType",
              "type": "uint8"
            },
            {
              "internalType": "enum Calendar",
              "name": "calendar",
              "type": "uint8"
            },
            {
              "internalType": "enum ContractRole",
              "name": "contractRole",
              "type": "uint8"
            },
            {
              "internalType": "enum DayCountConvention",
              "name": "dayCountConvention",
              "type": "uint8"
            },
            {
              "internalType": "enum BusinessDayConvention",
              "name": "businessDayConvention",
              "type": "uint8"
            },
            {
              "internalType": "enum EndOfMonthConvention",
              "name": "endOfMonthConvention",
              "type": "uint8"
            },
            {
              "internalType": "enum ScalingEffect",
              "name": "scalingEffect",
              "type": "uint8"
            },
            {
              "internalType": "enum PenaltyType",
              "name": "penaltyType",
              "type": "uint8"
            },
            {
              "internalType": "enum FeeBasis",
              "name": "feeBasis",
              "type": "uint8"
            },
            {
              "internalType": "address",
              "name": "currency",
              "type": "address"
            },
            {
              "internalType": "address",
              "name": "settlementCurrency",
              "type": "address"
            },
            {
              "internalType": "bytes32",
              "name": "marketObjectCodeRateReset",
              "type": "bytes32"
            },
            {
              "internalType": "uint256",
              "name": "contractDealDate",
              "type": "uint256"
            },
            {
              "internalType": "uint256",
              "name": "statusDate",
              "type": "uint256"
            },
            {
              "internalType": "uint256",
              "name": "initialExchangeDate",
              "type": "uint256"
            },
            {
              "internalType": "uint256",
              "name": "maturityDate",
              "type": "uint256"
            },
            {
              "internalType": "uint256",
              "name": "issueDate",
              "type": "uint256"
            },
            {
              "internalType": "uint256",
              "name": "purchaseDate",
              "type": "uint256"
            },
            {
              "internalType": "uint256",
              "name": "capitalizationEndDate",
              "type": "uint256"
            },
            {
              "internalType": "uint256",
              "name": "cycleAnchorDateOfInterestPayment",
              "type": "uint256"
            },
            {
              "internalType": "uint256",
              "name": "cycleAnchorDateOfRateReset",
              "type": "uint256"
            },
            {
              "internalType": "uint256",
              "name": "cycleAnchorDateOfScalingIndex",
              "type": "uint256"
            },
            {
              "internalType": "uint256",
              "name": "cycleAnchorDateOfFee",
              "type": "uint256"
            },
            {
              "internalType": "uint256",
              "name": "cycleAnchorDateOfPrincipalRedemption",
              "type": "uint256"
            },
            {
              "internalType": "int256",
              "name": "notionalPrincipal",
              "type": "int256"
            },
            {
              "internalType": "int256",
              "name": "nominalInterestRate",
              "type": "int256"
            },
            {
              "internalType": "int256",
              "name": "accruedInterest",
              "type": "int256"
            },
            {
              "internalType": "int256",
              "name": "rateMultiplier",
              "type": "int256"
            },
            {
              "internalType": "int256",
              "name": "rateSpread",
              "type": "int256"
            },
            {
              "internalType": "int256",
              "name": "nextResetRate",
              "type": "int256"
            },
            {
              "internalType": "int256",
              "name": "feeRate",
              "type": "int256"
            },
            {
              "internalType": "int256",
              "name": "feeAccrued",
              "type": "int256"
            },
            {
              "internalType": "int256",
              "name": "penaltyRate",
              "type": "int256"
            },
            {
              "internalType": "int256",
              "name": "delinquencyRate",
              "type": "int256"
            },
            {
              "internalType": "int256",
              "name": "premiumDiscountAtIED",
              "type": "int256"
            },
            {
              "internalType": "int256",
              "name": "priceAtPurchaseDate",
              "type": "int256"
            },
            {
              "internalType": "int256",
              "name": "priceAtTerminationDate",
              "type": "int256"
            },
            {
              "internalType": "int256",
              "name": "nextPrincipalRedemptionPayment",
              "type": "int256"
            },
            {
              "internalType": "int256",
              "name": "lifeCap",
              "type": "int256"
            },
            {
              "internalType": "int256",
              "name": "lifeFloor",
              "type": "int256"
            },
            {
              "internalType": "int256",
              "name": "periodCap",
              "type": "int256"
            },
            {
              "internalType": "int256",
              "name": "periodFloor",
              "type": "int256"
            },
            {
              "components": [
                {
                  "internalType": "uint256",
                  "name": "i",
                  "type": "uint256"
                },
                {
                  "internalType": "enum P",
                  "name": "p",
                  "type": "uint8"
                },
                {
                  "internalType": "bool",
                  "name": "isSet",
                  "type": "bool"
                }
              ],
              "internalType": "struct IP",
              "name": "gracePeriod",
              "type": "tuple"
            },
            {
              "components": [
                {
                  "internalType": "uint256",
                  "name": "i",
                  "type": "uint256"
                },
                {
                  "internalType": "enum P",
                  "name": "p",
                  "type": "uint8"
                },
                {
                  "internalType": "bool",
                  "name": "isSet",
                  "type": "bool"
                }
              ],
              "internalType": "struct IP",
              "name": "delinquencyPeriod",
              "type": "tuple"
            },
            {
              "components": [
                {
                  "internalType": "uint256",
                  "name": "i",
                  "type": "uint256"
                },
                {
                  "internalType": "enum P",
                  "name": "p",
                  "type": "uint8"
                },
                {
                  "internalType": "enum S",
                  "name": "s",
                  "type": "uint8"
                },
                {
                  "internalType": "bool",
                  "name": "isSet",
                  "type": "bool"
                }
              ],
              "internalType": "struct IPS",
              "name": "cycleOfInterestPayment",
              "type": "tuple"
            },
            {
              "components": [
                {
                  "internalType": "uint256",
                  "name": "i",
                  "type": "uint256"
                },
                {
                  "internalType": "enum P",
                  "name": "p",
                  "type": "uint8"
                },
                {
                  "internalType": "enum S",
                  "name": "s",
                  "type": "uint8"
                },
                {
                  "internalType": "bool",
                  "name": "isSet",
                  "type": "bool"
                }
              ],
              "internalType": "struct IPS",
              "name": "cycleOfRateReset",
              "type": "tuple"
            },
            {
              "components": [
                {
                  "internalType": "uint256",
                  "name": "i",
                  "type": "uint256"
                },
                {
                  "internalType": "enum P",
                  "name": "p",
                  "type": "uint8"
                },
                {
                  "internalType": "enum S",
                  "name": "s",
                  "type": "uint8"
                },
                {
                  "internalType": "bool",
                  "name": "isSet",
                  "type": "bool"
                }
              ],
              "internalType": "struct IPS",
              "name": "cycleOfScalingIndex",
              "type": "tuple"
            },
            {
              "components": [
                {
                  "internalType": "uint256",
                  "name": "i",
                  "type": "uint256"
                },
                {
                  "internalType": "enum P",
                  "name": "p",
                  "type": "uint8"
                },
                {
                  "internalType": "enum S",
                  "name": "s",
                  "type": "uint8"
                },
                {
                  "internalType": "bool",
                  "name": "isSet",
                  "type": "bool"
                }
              ],
              "internalType": "struct IPS",
              "name": "cycleOfFee",
              "type": "tuple"
            },
            {
              "components": [
                {
                  "internalType": "uint256",
                  "name": "i",
                  "type": "uint256"
                },
                {
                  "internalType": "enum P",
                  "name": "p",
                  "type": "uint8"
                },
                {
                  "internalType": "enum S",
                  "name": "s",
                  "type": "uint8"
                },
                {
                  "internalType": "bool",
                  "name": "isSet",
                  "type": "bool"
                }
              ],
              "internalType": "struct IPS",
              "name": "cycleOfPrincipalRedemption",
              "type": "tuple"
            }
          ],
          "internalType": "struct ANNTerms",
          "name": "",
          "type": "tuple"
        }
      ],
      "stateMutability": "view",
      "type": "function"
    },
    {
      "inputs": [
        {
          "internalType": "bytes32",
          "name": "assetId",
          "type": "bytes32"
        },
        {
          "internalType": "bytes32",
          "name": "attribute",
          "type": "bytes32"
        }
      ],
      "name": "getUIntValueForTermsAttribute",
      "outputs": [
        {
          "internalType": "uint256",
          "name": "",
          "type": "uint256"
        }
      ],
      "stateMutability": "view",
      "type": "function"
    },
    {
      "inputs": [
        {
          "internalType": "bytes32",
          "name": "assetId",
          "type": "bytes32"
        },
        {
          "internalType": "bytes32",
          "name": "attribute",
          "type": "bytes32"
        }
      ],
      "name": "getUintValueForStateAttribute",
      "outputs": [
        {
          "internalType": "uint256",
          "name": "",
          "type": "uint256"
        }
      ],
      "stateMutability": "view",
      "type": "function"
    },
    {
      "inputs": [
        {
          "internalType": "bytes32",
          "name": "assetId",
          "type": "bytes32"
        },
        {
          "internalType": "bytes4",
          "name": "methodSignature",
          "type": "bytes4"
        },
        {
          "internalType": "address",
          "name": "account",
          "type": "address"
        }
      ],
      "name": "grantAccess",
      "outputs": [],
      "stateMutability": "nonpayable",
      "type": "function"
    },
    {
      "inputs": [
        {
          "internalType": "bytes32",
          "name": "assetId",
          "type": "bytes32"
        },
        {
          "internalType": "bytes4",
          "name": "methodSignature",
          "type": "bytes4"
        },
        {
          "internalType": "address",
          "name": "account",
          "type": "address"
        }
      ],
      "name": "hasAccess",
      "outputs": [
        {
          "internalType": "bool",
          "name": "",
          "type": "bool"
        }
      ],
      "stateMutability": "view",
      "type": "function"
    },
    {
      "inputs": [
        {
          "internalType": "bytes32",
          "name": "assetId",
          "type": "bytes32"
        },
        {
          "internalType": "address",
          "name": "account",
          "type": "address"
        }
      ],
      "name": "hasRootAccess",
      "outputs": [
        {
          "internalType": "bool",
          "name": "",
          "type": "bool"
        }
      ],
      "stateMutability": "view",
      "type": "function"
    },
    {
      "inputs": [
        {
          "internalType": "bytes32",
          "name": "assetId",
          "type": "bytes32"
        },
        {
          "internalType": "bytes32",
          "name": "_event",
          "type": "bytes32"
        }
      ],
      "name": "isEventSettled",
      "outputs": [
        {
          "internalType": "bool",
          "name": "",
          "type": "bool"
        },
        {
          "internalType": "int256",
          "name": "",
          "type": "int256"
        }
      ],
      "stateMutability": "view",
      "type": "function"
    },
    {
      "inputs": [
        {
          "internalType": "bytes32",
          "name": "assetId",
          "type": "bytes32"
        }
      ],
      "name": "isRegistered",
      "outputs": [
        {
          "internalType": "bool",
          "name": "",
          "type": "bool"
        }
      ],
      "stateMutability": "view",
      "type": "function"
    },
    {
      "inputs": [
        {
          "internalType": "bytes32",
          "name": "assetId",
          "type": "bytes32"
        },
        {
          "internalType": "bytes32",
          "name": "_event",
          "type": "bytes32"
        },
        {
          "internalType": "int256",
          "name": "_payoff",
          "type": "int256"
        }
      ],
      "name": "markEventAsSettled",
      "outputs": [],
      "stateMutability": "nonpayable",
      "type": "function"
    },
    {
      "inputs": [],
      "name": "owner",
      "outputs": [
        {
          "internalType": "address",
          "name": "",
          "type": "address"
        }
      ],
      "stateMutability": "view",
      "type": "function"
    },
    {
      "inputs": [
        {
          "internalType": "bytes32",
          "name": "assetId",
          "type": "bytes32"
        }
      ],
      "name": "popNextScheduledEvent",
      "outputs": [
        {
          "internalType": "bytes32",
          "name": "",
          "type": "bytes32"
        }
      ],
      "stateMutability": "nonpayable",
      "type": "function"
    },
    {
      "inputs": [
        {
          "internalType": "bytes32",
          "name": "assetId",
          "type": "bytes32"
        }
      ],
      "name": "popPendingEvent",
      "outputs": [
        {
          "internalType": "bytes32",
          "name": "",
          "type": "bytes32"
        }
      ],
      "stateMutability": "nonpayable",
      "type": "function"
    },
    {
      "inputs": [
        {
          "internalType": "bytes32",
          "name": "assetId",
          "type": "bytes32"
        },
        {
          "internalType": "bytes32",
          "name": "pendingEvent",
          "type": "bytes32"
        }
      ],
      "name": "pushPendingEvent",
      "outputs": [],
      "stateMutability": "nonpayable",
      "type": "function"
    },
    {
      "inputs": [
        {
          "internalType": "bytes32",
          "name": "assetId",
          "type": "bytes32"
        },
        {
          "components": [
            {
              "internalType": "enum ContractType",
              "name": "contractType",
              "type": "uint8"
            },
            {
              "internalType": "enum Calendar",
              "name": "calendar",
              "type": "uint8"
            },
            {
              "internalType": "enum ContractRole",
              "name": "contractRole",
              "type": "uint8"
            },
            {
              "internalType": "enum DayCountConvention",
              "name": "dayCountConvention",
              "type": "uint8"
            },
            {
              "internalType": "enum BusinessDayConvention",
              "name": "businessDayConvention",
              "type": "uint8"
            },
            {
              "internalType": "enum EndOfMonthConvention",
              "name": "endOfMonthConvention",
              "type": "uint8"
            },
            {
              "internalType": "enum ScalingEffect",
              "name": "scalingEffect",
              "type": "uint8"
            },
            {
              "internalType": "enum PenaltyType",
              "name": "penaltyType",
              "type": "uint8"
            },
            {
              "internalType": "enum FeeBasis",
              "name": "feeBasis",
              "type": "uint8"
            },
            {
              "internalType": "address",
              "name": "currency",
              "type": "address"
            },
            {
              "internalType": "address",
              "name": "settlementCurrency",
              "type": "address"
            },
            {
              "internalType": "bytes32",
              "name": "marketObjectCodeRateReset",
              "type": "bytes32"
            },
            {
              "internalType": "uint256",
              "name": "contractDealDate",
              "type": "uint256"
            },
            {
              "internalType": "uint256",
              "name": "statusDate",
              "type": "uint256"
            },
            {
              "internalType": "uint256",
              "name": "initialExchangeDate",
              "type": "uint256"
            },
            {
              "internalType": "uint256",
              "name": "maturityDate",
              "type": "uint256"
            },
            {
              "internalType": "uint256",
              "name": "issueDate",
              "type": "uint256"
            },
            {
              "internalType": "uint256",
              "name": "purchaseDate",
              "type": "uint256"
            },
            {
              "internalType": "uint256",
              "name": "capitalizationEndDate",
              "type": "uint256"
            },
            {
              "internalType": "uint256",
              "name": "cycleAnchorDateOfInterestPayment",
              "type": "uint256"
            },
            {
              "internalType": "uint256",
              "name": "cycleAnchorDateOfRateReset",
              "type": "uint256"
            },
            {
              "internalType": "uint256",
              "name": "cycleAnchorDateOfScalingIndex",
              "type": "uint256"
            },
            {
              "internalType": "uint256",
              "name": "cycleAnchorDateOfFee",
              "type": "uint256"
            },
            {
              "internalType": "uint256",
              "name": "cycleAnchorDateOfPrincipalRedemption",
              "type": "uint256"
            },
            {
              "internalType": "int256",
              "name": "notionalPrincipal",
              "type": "int256"
            },
            {
              "internalType": "int256",
              "name": "nominalInterestRate",
              "type": "int256"
            },
            {
              "internalType": "int256",
              "name": "accruedInterest",
              "type": "int256"
            },
            {
              "internalType": "int256",
              "name": "rateMultiplier",
              "type": "int256"
            },
            {
              "internalType": "int256",
              "name": "rateSpread",
              "type": "int256"
            },
            {
              "internalType": "int256",
              "name": "nextResetRate",
              "type": "int256"
            },
            {
              "internalType": "int256",
              "name": "feeRate",
              "type": "int256"
            },
            {
              "internalType": "int256",
              "name": "feeAccrued",
              "type": "int256"
            },
            {
              "internalType": "int256",
              "name": "penaltyRate",
              "type": "int256"
            },
            {
              "internalType": "int256",
              "name": "delinquencyRate",
              "type": "int256"
            },
            {
              "internalType": "int256",
              "name": "premiumDiscountAtIED",
              "type": "int256"
            },
            {
              "internalType": "int256",
              "name": "priceAtPurchaseDate",
              "type": "int256"
            },
            {
              "internalType": "int256",
              "name": "priceAtTerminationDate",
              "type": "int256"
            },
            {
              "internalType": "int256",
              "name": "nextPrincipalRedemptionPayment",
              "type": "int256"
            },
            {
              "internalType": "int256",
              "name": "lifeCap",
              "type": "int256"
            },
            {
              "internalType": "int256",
              "name": "lifeFloor",
              "type": "int256"
            },
            {
              "internalType": "int256",
              "name": "periodCap",
              "type": "int256"
            },
            {
              "internalType": "int256",
              "name": "periodFloor",
              "type": "int256"
            },
            {
              "components": [
                {
                  "internalType": "uint256",
                  "name": "i",
                  "type": "uint256"
                },
                {
                  "internalType": "enum P",
                  "name": "p",
                  "type": "uint8"
                },
                {
                  "internalType": "bool",
                  "name": "isSet",
                  "type": "bool"
                }
              ],
              "internalType": "struct IP",
              "name": "gracePeriod",
              "type": "tuple"
            },
            {
              "components": [
                {
                  "internalType": "uint256",
                  "name": "i",
                  "type": "uint256"
                },
                {
                  "internalType": "enum P",
                  "name": "p",
                  "type": "uint8"
                },
                {
                  "internalType": "bool",
                  "name": "isSet",
                  "type": "bool"
                }
              ],
              "internalType": "struct IP",
              "name": "delinquencyPeriod",
              "type": "tuple"
            },
            {
              "components": [
                {
                  "internalType": "uint256",
                  "name": "i",
                  "type": "uint256"
                },
                {
                  "internalType": "enum P",
                  "name": "p",
                  "type": "uint8"
                },
                {
                  "internalType": "enum S",
                  "name": "s",
                  "type": "uint8"
                },
                {
                  "internalType": "bool",
                  "name": "isSet",
                  "type": "bool"
                }
              ],
              "internalType": "struct IPS",
              "name": "cycleOfInterestPayment",
              "type": "tuple"
            },
            {
              "components": [
                {
                  "internalType": "uint256",
                  "name": "i",
                  "type": "uint256"
                },
                {
                  "internalType": "enum P",
                  "name": "p",
                  "type": "uint8"
                },
                {
                  "internalType": "enum S",
                  "name": "s",
                  "type": "uint8"
                },
                {
                  "internalType": "bool",
                  "name": "isSet",
                  "type": "bool"
                }
              ],
              "internalType": "struct IPS",
              "name": "cycleOfRateReset",
              "type": "tuple"
            },
            {
              "components": [
                {
                  "internalType": "uint256",
                  "name": "i",
                  "type": "uint256"
                },
                {
                  "internalType": "enum P",
                  "name": "p",
                  "type": "uint8"
                },
                {
                  "internalType": "enum S",
                  "name": "s",
                  "type": "uint8"
                },
                {
                  "internalType": "bool",
                  "name": "isSet",
                  "type": "bool"
                }
              ],
              "internalType": "struct IPS",
              "name": "cycleOfScalingIndex",
              "type": "tuple"
            },
            {
              "components": [
                {
                  "internalType": "uint256",
                  "name": "i",
                  "type": "uint256"
                },
                {
                  "internalType": "enum P",
                  "name": "p",
                  "type": "uint8"
                },
                {
                  "internalType": "enum S",
                  "name": "s",
                  "type": "uint8"
                },
                {
                  "internalType": "bool",
                  "name": "isSet",
                  "type": "bool"
                }
              ],
              "internalType": "struct IPS",
              "name": "cycleOfFee",
              "type": "tuple"
            },
            {
              "components": [
                {
                  "internalType": "uint256",
                  "name": "i",
                  "type": "uint256"
                },
                {
                  "internalType": "enum P",
                  "name": "p",
                  "type": "uint8"
                },
                {
                  "internalType": "enum S",
                  "name": "s",
                  "type": "uint8"
                },
                {
                  "internalType": "bool",
                  "name": "isSet",
                  "type": "bool"
                }
              ],
              "internalType": "struct IPS",
              "name": "cycleOfPrincipalRedemption",
              "type": "tuple"
            }
          ],
          "internalType": "struct ANNTerms",
          "name": "terms",
          "type": "tuple"
        },
        {
          "components": [
            {
              "internalType": "enum ContractPerformance",
              "name": "contractPerformance",
              "type": "uint8"
            },
            {
              "internalType": "uint256",
              "name": "statusDate",
              "type": "uint256"
            },
            {
              "internalType": "uint256",
              "name": "nonPerformingDate",
              "type": "uint256"
            },
            {
              "internalType": "uint256",
              "name": "maturityDate",
              "type": "uint256"
            },
            {
              "internalType": "uint256",
              "name": "exerciseDate",
              "type": "uint256"
            },
            {
              "internalType": "uint256",
              "name": "terminationDate",
              "type": "uint256"
            },
            {
              "internalType": "uint256",
              "name": "lastCouponFixingDate",
              "type": "uint256"
            },
            {
              "internalType": "uint256",
              "name": "lastDividendFixingDate",
              "type": "uint256"
            },
            {
              "internalType": "int256",
              "name": "notionalPrincipal",
              "type": "int256"
            },
            {
              "internalType": "int256",
              "name": "accruedInterest",
              "type": "int256"
            },
            {
              "internalType": "int256",
              "name": "feeAccrued",
              "type": "int256"
            },
            {
              "internalType": "int256",
              "name": "nominalInterestRate",
              "type": "int256"
            },
            {
              "internalType": "int256",
              "name": "interestScalingMultiplier",
              "type": "int256"
            },
            {
              "internalType": "int256",
              "name": "notionalScalingMultiplier",
              "type": "int256"
            },
            {
              "internalType": "int256",
              "name": "nextPrincipalRedemptionPayment",
              "type": "int256"
            },
            {
              "internalType": "int256",
              "name": "exerciseAmount",
              "type": "int256"
            },
            {
              "internalType": "int256",
              "name": "exerciseQuantity",
              "type": "int256"
            },
            {
              "internalType": "int256",
              "name": "quantity",
              "type": "int256"
            },
            {
              "internalType": "int256",
              "name": "couponAmountFixed",
              "type": "int256"
            },
            {
              "internalType": "int256",
              "name": "marginFactor",
              "type": "int256"
            },
            {
              "internalType": "int256",
              "name": "adjustmentFactor",
              "type": "int256"
            },
            {
              "internalType": "int256",
              "name": "dividendPaymentAmount",
              "type": "int256"
            },
            {
              "internalType": "int256",
              "name": "splitRatio",
              "type": "int256"
            }
          ],
          "internalType": "struct State",
          "name": "state",
          "type": "tuple"
        },
        {
          "internalType": "bytes32[]",
          "name": "schedule",
          "type": "bytes32[]"
        },
        {
          "components": [
            {
              "internalType": "address",
              "name": "creatorObligor",
              "type": "address"
            },
            {
              "internalType": "address",
              "name": "creatorBeneficiary",
              "type": "address"
            },
            {
              "internalType": "address",
              "name": "counterpartyObligor",
              "type": "address"
            },
            {
              "internalType": "address",
              "name": "counterpartyBeneficiary",
              "type": "address"
            }
          ],
          "internalType": "struct AssetOwnership",
          "name": "ownership",
          "type": "tuple"
        },
        {
          "internalType": "address",
          "name": "engine",
          "type": "address"
        },
        {
          "internalType": "address",
          "name": "actor",
          "type": "address"
        },
        {
          "internalType": "address",
          "name": "admin",
          "type": "address"
        }
      ],
      "name": "registerAsset",
      "outputs": [],
      "stateMutability": "nonpayable",
      "type": "function"
    },
    {
      "inputs": [],
      "name": "renounceOwnership",
      "outputs": [],
      "stateMutability": "nonpayable",
      "type": "function"
    },
    {
      "inputs": [
        {
          "internalType": "bytes32",
          "name": "assetId",
          "type": "bytes32"
        },
        {
          "internalType": "bytes4",
          "name": "methodSignature",
          "type": "bytes4"
        },
        {
          "internalType": "address",
          "name": "account",
          "type": "address"
        }
      ],
      "name": "revokeAccess",
      "outputs": [],
      "stateMutability": "nonpayable",
      "type": "function"
    },
    {
      "inputs": [
        {
          "internalType": "bytes32",
          "name": "assetId",
          "type": "bytes32"
        },
        {
          "internalType": "address",
          "name": "actor",
          "type": "address"
        }
      ],
      "name": "setActor",
      "outputs": [],
      "stateMutability": "nonpayable",
      "type": "function"
    },
    {
      "inputs": [
        {
          "internalType": "bytes32",
          "name": "assetId",
          "type": "bytes32"
        },
        {
          "internalType": "address",
          "name": "newCounterpartyBeneficiary",
          "type": "address"
        }
      ],
      "name": "setCounterpartyBeneficiary",
      "outputs": [],
      "stateMutability": "nonpayable",
      "type": "function"
    },
    {
      "inputs": [
        {
          "internalType": "bytes32",
          "name": "assetId",
          "type": "bytes32"
        },
        {
          "internalType": "address",
          "name": "newCounterpartyObligor",
          "type": "address"
        }
      ],
      "name": "setCounterpartyObligor",
      "outputs": [],
      "stateMutability": "nonpayable",
      "type": "function"
    },
    {
      "inputs": [
        {
          "internalType": "bytes32",
          "name": "assetId",
          "type": "bytes32"
        },
        {
          "internalType": "address",
          "name": "newCreatorBeneficiary",
          "type": "address"
        }
      ],
      "name": "setCreatorBeneficiary",
      "outputs": [],
      "stateMutability": "nonpayable",
      "type": "function"
    },
    {
      "inputs": [
        {
          "internalType": "bytes32",
          "name": "assetId",
          "type": "bytes32"
        },
        {
          "internalType": "address",
          "name": "newCreatorObligor",
          "type": "address"
        }
      ],
      "name": "setCreatorObligor",
      "outputs": [],
      "stateMutability": "nonpayable",
      "type": "function"
    },
    {
      "inputs": [
        {
          "internalType": "bytes32",
          "name": "assetId",
          "type": "bytes32"
        },
        {
          "internalType": "address",
          "name": "engine",
          "type": "address"
        }
      ],
      "name": "setEngine",
      "outputs": [],
      "stateMutability": "nonpayable",
      "type": "function"
    },
    {
      "inputs": [
        {
          "internalType": "bytes32",
          "name": "assetId",
          "type": "bytes32"
        },
        {
          "components": [
            {
              "internalType": "enum ContractPerformance",
              "name": "contractPerformance",
              "type": "uint8"
            },
            {
              "internalType": "uint256",
              "name": "statusDate",
              "type": "uint256"
            },
            {
              "internalType": "uint256",
              "name": "nonPerformingDate",
              "type": "uint256"
            },
            {
              "internalType": "uint256",
              "name": "maturityDate",
              "type": "uint256"
            },
            {
              "internalType": "uint256",
              "name": "exerciseDate",
              "type": "uint256"
            },
            {
              "internalType": "uint256",
              "name": "terminationDate",
              "type": "uint256"
            },
            {
              "internalType": "uint256",
              "name": "lastCouponFixingDate",
              "type": "uint256"
            },
            {
              "internalType": "uint256",
              "name": "lastDividendFixingDate",
              "type": "uint256"
            },
            {
              "internalType": "int256",
              "name": "notionalPrincipal",
              "type": "int256"
            },
            {
              "internalType": "int256",
              "name": "accruedInterest",
              "type": "int256"
            },
            {
              "internalType": "int256",
              "name": "feeAccrued",
              "type": "int256"
            },
            {
              "internalType": "int256",
              "name": "nominalInterestRate",
              "type": "int256"
            },
            {
              "internalType": "int256",
              "name": "interestScalingMultiplier",
              "type": "int256"
            },
            {
              "internalType": "int256",
              "name": "notionalScalingMultiplier",
              "type": "int256"
            },
            {
              "internalType": "int256",
              "name": "nextPrincipalRedemptionPayment",
              "type": "int256"
            },
            {
              "internalType": "int256",
              "name": "exerciseAmount",
              "type": "int256"
            },
            {
              "internalType": "int256",
              "name": "exerciseQuantity",
              "type": "int256"
            },
            {
              "internalType": "int256",
              "name": "quantity",
              "type": "int256"
            },
            {
              "internalType": "int256",
              "name": "couponAmountFixed",
              "type": "int256"
            },
            {
              "internalType": "int256",
              "name": "marginFactor",
              "type": "int256"
            },
            {
              "internalType": "int256",
              "name": "adjustmentFactor",
              "type": "int256"
            },
            {
              "internalType": "int256",
              "name": "dividendPaymentAmount",
              "type": "int256"
            },
            {
              "internalType": "int256",
              "name": "splitRatio",
              "type": "int256"
            }
          ],
          "internalType": "struct State",
          "name": "state",
          "type": "tuple"
        }
      ],
      "name": "setFinalizedState",
      "outputs": [],
      "stateMutability": "nonpayable",
      "type": "function"
    },
    {
      "inputs": [
        {
          "internalType": "bytes32",
          "name": "assetId",
          "type": "bytes32"
        },
        {
          "components": [
            {
              "internalType": "enum ContractPerformance",
              "name": "contractPerformance",
              "type": "uint8"
            },
            {
              "internalType": "uint256",
              "name": "statusDate",
              "type": "uint256"
            },
            {
              "internalType": "uint256",
              "name": "nonPerformingDate",
              "type": "uint256"
            },
            {
              "internalType": "uint256",
              "name": "maturityDate",
              "type": "uint256"
            },
            {
              "internalType": "uint256",
              "name": "exerciseDate",
              "type": "uint256"
            },
            {
              "internalType": "uint256",
              "name": "terminationDate",
              "type": "uint256"
            },
            {
              "internalType": "uint256",
              "name": "lastCouponFixingDate",
              "type": "uint256"
            },
            {
              "internalType": "uint256",
              "name": "lastDividendFixingDate",
              "type": "uint256"
            },
            {
              "internalType": "int256",
              "name": "notionalPrincipal",
              "type": "int256"
            },
            {
              "internalType": "int256",
              "name": "accruedInterest",
              "type": "int256"
            },
            {
              "internalType": "int256",
              "name": "feeAccrued",
              "type": "int256"
            },
            {
              "internalType": "int256",
              "name": "nominalInterestRate",
              "type": "int256"
            },
            {
              "internalType": "int256",
              "name": "interestScalingMultiplier",
              "type": "int256"
            },
            {
              "internalType": "int256",
              "name": "notionalScalingMultiplier",
              "type": "int256"
            },
            {
              "internalType": "int256",
              "name": "nextPrincipalRedemptionPayment",
              "type": "int256"
            },
            {
              "internalType": "int256",
              "name": "exerciseAmount",
              "type": "int256"
            },
            {
              "internalType": "int256",
              "name": "exerciseQuantity",
              "type": "int256"
            },
            {
              "internalType": "int256",
              "name": "quantity",
              "type": "int256"
            },
            {
              "internalType": "int256",
              "name": "couponAmountFixed",
              "type": "int256"
            },
            {
              "internalType": "int256",
              "name": "marginFactor",
              "type": "int256"
            },
            {
              "internalType": "int256",
              "name": "adjustmentFactor",
              "type": "int256"
            },
            {
              "internalType": "int256",
              "name": "dividendPaymentAmount",
              "type": "int256"
            },
            {
              "internalType": "int256",
              "name": "splitRatio",
              "type": "int256"
            }
          ],
          "internalType": "struct State",
          "name": "state",
          "type": "tuple"
        }
      ],
      "name": "setState",
      "outputs": [],
      "stateMutability": "nonpayable",
      "type": "function"
    },
    {
      "inputs": [
        {
          "internalType": "bytes32",
          "name": "assetId",
          "type": "bytes32"
        },
        {
          "components": [
            {
              "internalType": "enum ContractType",
              "name": "contractType",
              "type": "uint8"
            },
            {
              "internalType": "enum Calendar",
              "name": "calendar",
              "type": "uint8"
            },
            {
              "internalType": "enum ContractRole",
              "name": "contractRole",
              "type": "uint8"
            },
            {
              "internalType": "enum DayCountConvention",
              "name": "dayCountConvention",
              "type": "uint8"
            },
            {
              "internalType": "enum BusinessDayConvention",
              "name": "businessDayConvention",
              "type": "uint8"
            },
            {
              "internalType": "enum EndOfMonthConvention",
              "name": "endOfMonthConvention",
              "type": "uint8"
            },
            {
              "internalType": "enum ScalingEffect",
              "name": "scalingEffect",
              "type": "uint8"
            },
            {
              "internalType": "enum PenaltyType",
              "name": "penaltyType",
              "type": "uint8"
            },
            {
              "internalType": "enum FeeBasis",
              "name": "feeBasis",
              "type": "uint8"
            },
            {
              "internalType": "address",
              "name": "currency",
              "type": "address"
            },
            {
              "internalType": "address",
              "name": "settlementCurrency",
              "type": "address"
            },
            {
              "internalType": "bytes32",
              "name": "marketObjectCodeRateReset",
              "type": "bytes32"
            },
            {
              "internalType": "uint256",
              "name": "contractDealDate",
              "type": "uint256"
            },
            {
              "internalType": "uint256",
              "name": "statusDate",
              "type": "uint256"
            },
            {
              "internalType": "uint256",
              "name": "initialExchangeDate",
              "type": "uint256"
            },
            {
              "internalType": "uint256",
              "name": "maturityDate",
              "type": "uint256"
            },
            {
              "internalType": "uint256",
              "name": "issueDate",
              "type": "uint256"
            },
            {
              "internalType": "uint256",
              "name": "purchaseDate",
              "type": "uint256"
            },
            {
              "internalType": "uint256",
              "name": "capitalizationEndDate",
              "type": "uint256"
            },
            {
              "internalType": "uint256",
              "name": "cycleAnchorDateOfInterestPayment",
              "type": "uint256"
            },
            {
              "internalType": "uint256",
              "name": "cycleAnchorDateOfRateReset",
              "type": "uint256"
            },
            {
              "internalType": "uint256",
              "name": "cycleAnchorDateOfScalingIndex",
              "type": "uint256"
            },
            {
              "internalType": "uint256",
              "name": "cycleAnchorDateOfFee",
              "type": "uint256"
            },
            {
              "internalType": "uint256",
              "name": "cycleAnchorDateOfPrincipalRedemption",
              "type": "uint256"
            },
            {
              "internalType": "int256",
              "name": "notionalPrincipal",
              "type": "int256"
            },
            {
              "internalType": "int256",
              "name": "nominalInterestRate",
              "type": "int256"
            },
            {
              "internalType": "int256",
              "name": "accruedInterest",
              "type": "int256"
            },
            {
              "internalType": "int256",
              "name": "rateMultiplier",
              "type": "int256"
            },
            {
              "internalType": "int256",
              "name": "rateSpread",
              "type": "int256"
            },
            {
              "internalType": "int256",
              "name": "nextResetRate",
              "type": "int256"
            },
            {
              "internalType": "int256",
              "name": "feeRate",
              "type": "int256"
            },
            {
              "internalType": "int256",
              "name": "feeAccrued",
              "type": "int256"
            },
            {
              "internalType": "int256",
              "name": "penaltyRate",
              "type": "int256"
            },
            {
              "internalType": "int256",
              "name": "delinquencyRate",
              "type": "int256"
            },
            {
              "internalType": "int256",
              "name": "premiumDiscountAtIED",
              "type": "int256"
            },
            {
              "internalType": "int256",
              "name": "priceAtPurchaseDate",
              "type": "int256"
            },
            {
              "internalType": "int256",
              "name": "priceAtTerminationDate",
              "type": "int256"
            },
            {
              "internalType": "int256",
              "name": "nextPrincipalRedemptionPayment",
              "type": "int256"
            },
            {
              "internalType": "int256",
              "name": "lifeCap",
              "type": "int256"
            },
            {
              "internalType": "int256",
              "name": "lifeFloor",
              "type": "int256"
            },
            {
              "internalType": "int256",
              "name": "periodCap",
              "type": "int256"
            },
            {
              "internalType": "int256",
              "name": "periodFloor",
              "type": "int256"
            },
            {
              "components": [
                {
                  "internalType": "uint256",
                  "name": "i",
                  "type": "uint256"
                },
                {
                  "internalType": "enum P",
                  "name": "p",
                  "type": "uint8"
                },
                {
                  "internalType": "bool",
                  "name": "isSet",
                  "type": "bool"
                }
              ],
              "internalType": "struct IP",
              "name": "gracePeriod",
              "type": "tuple"
            },
            {
              "components": [
                {
                  "internalType": "uint256",
                  "name": "i",
                  "type": "uint256"
                },
                {
                  "internalType": "enum P",
                  "name": "p",
                  "type": "uint8"
                },
                {
                  "internalType": "bool",
                  "name": "isSet",
                  "type": "bool"
                }
              ],
              "internalType": "struct IP",
              "name": "delinquencyPeriod",
              "type": "tuple"
            },
            {
              "components": [
                {
                  "internalType": "uint256",
                  "name": "i",
                  "type": "uint256"
                },
                {
                  "internalType": "enum P",
                  "name": "p",
                  "type": "uint8"
                },
                {
                  "internalType": "enum S",
                  "name": "s",
                  "type": "uint8"
                },
                {
                  "internalType": "bool",
                  "name": "isSet",
                  "type": "bool"
                }
              ],
              "internalType": "struct IPS",
              "name": "cycleOfInterestPayment",
              "type": "tuple"
            },
            {
              "components": [
                {
                  "internalType": "uint256",
                  "name": "i",
                  "type": "uint256"
                },
                {
                  "internalType": "enum P",
                  "name": "p",
                  "type": "uint8"
                },
                {
                  "internalType": "enum S",
                  "name": "s",
                  "type": "uint8"
                },
                {
                  "internalType": "bool",
                  "name": "isSet",
                  "type": "bool"
                }
              ],
              "internalType": "struct IPS",
              "name": "cycleOfRateReset",
              "type": "tuple"
            },
            {
              "components": [
                {
                  "internalType": "uint256",
                  "name": "i",
                  "type": "uint256"
                },
                {
                  "internalType": "enum P",
                  "name": "p",
                  "type": "uint8"
                },
                {
                  "internalType": "enum S",
                  "name": "s",
                  "type": "uint8"
                },
                {
                  "internalType": "bool",
                  "name": "isSet",
                  "type": "bool"
                }
              ],
              "internalType": "struct IPS",
              "name": "cycleOfScalingIndex",
              "type": "tuple"
            },
            {
              "components": [
                {
                  "internalType": "uint256",
                  "name": "i",
                  "type": "uint256"
                },
                {
                  "internalType": "enum P",
                  "name": "p",
                  "type": "uint8"
                },
                {
                  "internalType": "enum S",
                  "name": "s",
                  "type": "uint8"
                },
                {
                  "internalType": "bool",
                  "name": "isSet",
                  "type": "bool"
                }
              ],
              "internalType": "struct IPS",
              "name": "cycleOfFee",
              "type": "tuple"
            },
            {
              "components": [
                {
                  "internalType": "uint256",
                  "name": "i",
                  "type": "uint256"
                },
                {
                  "internalType": "enum P",
                  "name": "p",
                  "type": "uint8"
                },
                {
                  "internalType": "enum S",
                  "name": "s",
                  "type": "uint8"
                },
                {
                  "internalType": "bool",
                  "name": "isSet",
                  "type": "bool"
                }
              ],
              "internalType": "struct IPS",
              "name": "cycleOfPrincipalRedemption",
              "type": "tuple"
            }
          ],
          "internalType": "struct ANNTerms",
          "name": "terms",
          "type": "tuple"
        }
      ],
      "name": "setTerms",
      "outputs": [],
      "stateMutability": "nonpayable",
      "type": "function"
    },
    {
      "inputs": [
        {
          "internalType": "address",
          "name": "newOwner",
          "type": "address"
        }
      ],
      "name": "transferOwnership",
      "outputs": [],
      "stateMutability": "nonpayable",
      "type": "function"
    }
  ],
  "bytecode": "0x60806040523480156200001157600080fd5b5060006200001e6200006e565b600080546001600160a01b0319166001600160a01b0383169081178255604051929350917f8be0079c531659141344cd1fd0a4f28419497f9722a3daafe3b4186f6b6457e0908290a35062000072565b3390565b61594a80620000826000396000f3fe608060405234801561001057600080fd5b506004361061030c5760003560e01c8063842962d51161019d578063cf5aed12116100e9578063e7dc3188116100a2578063ecef55771161007c578063ecef55771461072e578063ee43eda114610741578063f2fde38b14610754578063f52f84e1146107675761030c565b8063e7dc3188146106f5578063e8f7ca3e14610708578063eb0125591461071b5761030c565b8063cf5aed1214610669578063d51dc3dc14610689578063d981e7731461069c578063de07a173146106af578063e05a66e0146106c2578063e50e0ef7146106d55761030c565b8063b461dd4f11610156578063bc6a7d7611610130578063bc6a7d7614610610578063bd1f0a6c14610630578063c3b6e7c214610643578063ccfc347e146106565761030c565b8063b461dd4f146105c9578063b8282041146105dc578063ba4d2d28146105ef5761030c565b8063842962d5146105485780638da5cb5b1461055b578063a17b75b514610570578063b02ca0c014610583578063b0b4888f14610596578063b3c45ebe146105b65761030c565b80633a60d6fe1161025c5780636a899b9b11610215578063715018a6116101ef578063715018a6146104f9578063725400031461050157806375e86ae414610522578063811322fb146105355761030c565b80636a899b9b146104935780636be39bda146104b95780636fe55baa146104d95761030c565b80633a60d6fe1461043a5780633adc277a1461044d578063512872f41461046d5780636031a09414610480578063606aa07e14610493578063649ece93146104a65761030c565b80631717e867116102c957806328e0f8a9116102a357806328e0f8a9146103ee5780633549d08d1461040157806337462dba1461041457806339262e87146104275761030c565b80631717e867146103a85780631b126815146103bb57806327258b22146103db5761030c565b80630337c83f1461031157806303a81a2a1461032657806309648a9d146103395780630c5b75a4146103625780630d62037a14610382578063135b9f4d14610395575b600080fd5b61032461031f366004614269565b61077a565b005b6103246103343660046141a1565b610883565b61034c610347366004614171565b61094f565b60405161035991906156f6565b60405180910390f35b610375610370366004614171565b610976565b6040516103599190614d7b565b6103246103903660046141a1565b6109ed565b6103756103a33660046141d0565b610a92565b6103246103b636600461421c565b610b31565b6103ce6103c936600461421c565b610be7565b6040516103599190614d60565b6103ce6103e9366004614171565b610c64565b6103756103fc366004614171565b610c79565b61032461040f3660046141a1565b610c8e565b61034c610422366004614171565b610d69565b61032461043536600461421c565b610d88565b61032461044836600461437c565b610e2d565b61046061045b366004614171565b610eed565b6040516103599190614d1c565b61032461047b3660046141a1565b610f07565b61032461048e3660046141a1565b610fce565b6103756104a13660046141d0565b6110a9565b6103246104b4366004614296565b6110c1565b6104cc6104c7366004614171565b6111d0565b60405161035991906152cb565b6104ec6104e73660046141d0565b61126e565b60405161035991906156e8565b61032461130d565b61051461050f366004614171565b6113c1565b604051610359929190614e40565b610375610530366004614171565b6113ea565b6103756105433660046143a0565b6117be565b61032461055636600461437c565b6117cc565b61056361187f565b6040516103599190614cee565b61037561057e366004614171565b61188e565b6103756105913660046141d0565b6118a3565b6105a96105a43660046141d0565b6118c4565b60405161035991906156da565b6105636105c4366004614171565b611963565b6103756105d73660046141d0565b611982565b6103756105ea366004614171565b6119c8565b6106026105fd3660046141d0565b611a2c565b604051610359929190614d6b565b61062361061e3660046141d0565b611a56565b6040516103599190615699565b61032461063e3660046141a1565b611af5565b610375610651366004614171565b611b8d565b6103ce61066436600461411d565b611cc6565b61067c6106773660046141d0565b611cdb565b60405161035991906157fc565b6103756106973660046141d0565b611cf3565b6103246106aa3660046141d0565b611d39565b6103246106bd3660046141f1565b611da8565b6103756106d03660046143ba565b611e44565b6106e86106e3366004614171565b611e62565b6040516103599190615323565b61032461070336600461411d565b611ec0565b6103ce6107163660046141a1565b611f4e565b6105636107293660046141d0565b611f84565b61067c61073c3660046141d0565b61201a565b61056361074f366004614171565b6120b0565b61032461076236600461411d565b6120d0565b610375610775366004614171565b6121da565b6000828152600160208190526040909120015482906001600160a01b03163314806107b757506107b7816000356001600160e01b03191633610be7565b6107dc5760405162461bcd60e51b81526004016107d390614f72565b60405180910390fd5b600083815260016020526040908190209051638198ef6d60e01b815273__$5640c45a0bbbda400e9750313f59ad8ae1$__91638198ef6d916108239190869060040161536c565b60006040518083038186803b15801561083b57600080fd5b505af415801561084f573d6000803e3d6000fd5b50506040518592507fb777acf68d226f3c8ab6f398cfb9a320e6fe8e92f5d2f0b4f69bc8ebab3b70cb9150600090a2505050565b6000828152600160208190526040909120015482906001600160a01b03163314806108c057506108c0816000356001600160e01b03191633610be7565b6108dc5760405162461bcd60e51b81526004016107d390614f72565b6000838152600160208190526040918290200180546001600160a01b038581166001600160a01b0319831617909255915191169084907f6baefd4565218ab73b43cb6b1019ca3a06161c4fcaef25cd665aacddabc44a20906109419084908790614d02565b60405180910390a250505050565b610957613c78565b600082815260016020526040902061096e906121ef565b90505b919050565b60008181526001602081905260408220015482906001600160a01b03163314806109b257506109b2816000356001600160e01b03191633610be7565b6109ce5760405162461bcd60e51b81526004016107d390614f72565b6000838152600160205260408120600601805491905591505b50919050565b610a04826000356001600160e01b03191633610be7565b610a205760405162461bcd60e51b81526004016107d39061520f565b6000828152600160205260409081902060080180546001600160a01b038481166001600160a01b031983161790925591519116907fa7f38588f02421aa73988ed359aee27363c896e7cc3b6e634e4357f7ee408e2590610a8590859084908690614d84565b60405180910390a1505050565b6000828152600160205260408082209051639151ef2360e01b815273__$5640c45a0bbbda400e9750313f59ad8ae1$__91639151ef2391610ad89190869060040161535e565b60206040518083038186803b158015610af057600080fd5b505af4158015610b04573d6000803e3d6000fd5b505050506040513d601f19601f82011682018060405250810190610b289190614189565b90505b92915050565b610b48836000356001600160e01b03191633610be7565b610b645760405162461bcd60e51b81526004016107d3906151c0565b60008381526001602081815260408084206001600160e01b031987168552600d0182528084206001600160a01b038616808652925292839020805460ff1916909217909155905184907face25d271ad11ee299595b3021629bae0349e370d7c2eb7c2dced6e4edb4786590610bda908690614e2b565b60405180910390a3505050565b60008381526001602090815260408083206001600160e01b031986168452600d0182528083206001600160a01b038516845290915281205460ff1680610c5a57506000848152600160209081526040808320838052600d0182528083206001600160a01b038616845290915290205460ff165b90505b9392505050565b60009081526001602052604090205460ff1690565b60009081526001602052604090206005015490565b6000828152600160205260409020600b01546001600160a01b031680610cc65760405162461bcd60e51b81526004016107d390614e5b565b336001600160a01b0382161480610cef5750610cef836000356001600160e01b03191633610be7565b610d0b5760405162461bcd60e51b81526004016107d390614eb8565b60008381526001602052604090819020600b0180546001600160a01b0319166001600160a01b038516179055517f66808241563a07166fd47b523591fa432148706dc0ddd255d49b69e71f1721ce90610a8590859084908690614d84565b610d71613c78565b600082815260016020526040902061096e9061255c565b610d9f836000356001600160e01b03191633610be7565b610dbb5760405162461bcd60e51b81526004016107d3906151c0565b60008381526001602090815260408083206001600160e01b031986168452600d0182528083206001600160a01b038516808552925291829020805460ff19169055905184907f42b1b0e7392ad606bb4f5b003296aba62f16e43aa9372f1f40c1522fa2655ffa90610bda908690614e2b565b6000828152600160208190526040909120015482906001600160a01b0316331480610e6a5750610e6a816000356001600160e01b03191633610be7565b610e865760405162461bcd60e51b81526004016107d390614f72565b610eac610e98368490038401846147b4565b6000858152600160205260409020906128f9565b827fad3970329ffaec63d947adc6077368479a4be7f09f2e7ba1b13852f8405b3ec68360200135604051610ee09190614d7b565b60405180910390a2505050565b600081815260016020526040902060609061096e90612ca1565b6000828152600160208190526040909120015482906001600160a01b0316331480610f445750610f44816000356001600160e01b03191633610be7565b610f605760405162461bcd60e51b81526004016107d390614f72565b6000838152600160205260409081902080546001600160a01b03858116610100908102610100600160a81b03198416179093559251919004919091169084907fdaa92ae0693b6616f14ef5db4b7ee053d3234c0d03f7a1885589c6a6c2c75bdb906109419084908790614d02565b6000828152600160205260409020600901546001600160a01b0316806110065760405162461bcd60e51b81526004016107d390615163565b336001600160a01b038216148061102f575061102f836000356001600160e01b03191633610be7565b61104b5760405162461bcd60e51b81526004016107d390615060565b6000838152600160205260409081902060090180546001600160a01b0319166001600160a01b038516179055517f66808241563a07166fd47b523591fa432148706dc0ddd255d49b69e71f1721ce90610a8590859084908690614d84565b6000828152600160205260408120610b289083612d37565b3360009081526002602052604090205460ff166110f05760405162461bcd60e51b81526004016107d39061500c565b61114e89611103368a90038a018a6147b4565b888880806020026020016040519081016040528093929190818152602001838360200280828437600092019190915250611146925050503689900389018961469e565b878787612d4d565b600089815260016020526040908190209051638198ef6d60e01b815273__$5640c45a0bbbda400e9750313f59ad8ae1$__91638198ef6d9161119591908c9060040161536c565b60006040518083038186803b1580156111ad57600080fd5b505af41580156111c1573d6000803e3d6000fd5b50505050505050505050505050565b6111d8613d27565b6000828152600160205260409081902090516379d346b760e01b815273__$5640c45a0bbbda400e9750313f59ad8ae1$__916379d346b79161121d9190600401614d7b565b6108806040518083038186803b15801561123657600080fd5b505af415801561124a573d6000803e3d6000fd5b505050506040513d601f19601f8201168201806040525081019061096e91906143e3565b611276613eca565b600083815260016020526040908190209051633542f3e360e11b815273__$5640c45a0bbbda400e9750313f59ad8ae1$__91636a85e7c6916112bd9190869060040161535e565b60606040518083038186803b1580156112d557600080fd5b505af41580156112e9573d6000803e3d6000fd5b505050506040513d601f19601f82011682018060405250810190610b289190614799565b611315612ec6565b6000546001600160a01b03908116911614611377576040805162461bcd60e51b815260206004820181905260248201527f4f776e61626c653a2063616c6c6572206973206e6f7420746865206f776e6572604482015290519081900360640190fd5b600080546040516001600160a01b03909116907f8be0079c531659141344cd1fd0a4f28419497f9722a3daafe3b4186f6b6457e0908390a3600080546001600160a01b0319169055565b6000808060f884901c60218111156113d557fe5b92505067ffffffffffffffff83169050915091565b60006113f4613eed565b6114148372636f6e74726163745265666572656e63655f3160681b611a56565b805190915015801590611436575060038160600151600481111561143457fe5b145b156117b55780516020820151604051631392c59160e11b81526001600160a01b038216906327258b229061146e908590600401614d7b565b60206040518083038186803b15801561148657600080fd5b505afa15801561149a573d6000803e3d6000fd5b505050506040513d601f19601f820116820180604052508101906114be9190614155565b6114da5760405162461bcd60e51b81526004016107d390615263565b60006114f5866b65786572636973654461746560a01b6110a9565b9050600061151c877518dc99591a5d115d995b9d151e5c1950dbdd995c995960521b61201a565b60ff16600581111561152a57fe5b90506000836001600160a01b031663cf5aed12866040518263ffffffff1660e01b815260040161155a9190614e06565b60206040518083038186803b15801561157257600080fd5b505afa158015611586573d6000803e3d6000fd5b505050506040513d601f19601f820116820180604052508101906115aa91906148d1565b60ff1660058111156115b857fe5b90506000846001600160a01b031663606aa07e876040518263ffffffff1660e01b81526004016115e89190614de3565b60206040518083038186803b15801561160057600080fd5b505afa158015611614573d6000803e3d6000fd5b505050506040513d601f19601f820116820180604052508101906116389190614189565b905083156116595761164b601a42611e44565b975050505050505050610971565b600083600581111561166757fe5b1415801561168a575082600581111561167c57fe5b82600581111561168857fe5b145b156117ae57600182600581111561169d57fe5b14156116ae5761164b601982611e44565b60028260058111156116bc57fe5b1415611766576116ca613eca565b6040516337f2add560e11b81526001600160a01b03871690636fe55baa906116f6908a90600401614da3565b60606040518083038186803b15801561170e57600080fd5b505afa158015611722573d6000803e3d6000fd5b505050506040513d601f19601f820116820180604052508101906117469190614799565b905061175760196106d08385612eca565b98505050505050505050610971565b600382600581111561177457fe5b14156117ae57611782613eca565b6040516337f2add560e11b81526001600160a01b03871690636fe55baa906116f6908a90600401614dc0565b5050505050505b50600092915050565b600081602181111561096e57fe5b6000828152600160208190526040909120015482906001600160a01b03163314806118095750611809816000356001600160e01b03191633610be7565b6118255760405162461bcd60e51b81526004016107d390614f72565b61184b611837368490038401846147b4565b600085815260016020526040902090612fe3565b827f0c71209d22d4c70a40140b94deee55f1f54a9353e3d5d5a4ddfb45fcddcf720f8360200135604051610ee09190614d7b565b6000546001600160a01b031690565b60009081526001602052604090206004015490565b60009182526001602090815260408084209284526003909201905290205490565b6118cc613f14565b6000838152600160205260409081902090516323c352cb60e11b815273__$5640c45a0bbbda400e9750313f59ad8ae1$__91634786a596916119139190869060040161535e565b60806040518083038186803b15801561192b57600080fd5b505af415801561193f573d6000803e3d6000fd5b505050506040513d601f19601f82011682018060405250810190610b28919061477e565b600090815260016020819052604090912001546001600160a01b031690565b60008281526001602052604080822090516313d0ad6960e31b815273__$5640c45a0bbbda400e9750313f59ad8ae1$__91639e856b4891610ad89190869060040161535e565b6000818152600160205260408120600481015415611a18576004810154600582015414156119fa575060009050610971565b60058101546000908152600390910160205260409020549050610971565b6000611a23846133af565b50949350505050565b6000918252600160208181526040808520938552601090930190529120805491015460ff90911691565b611a5e613eed565b600083815260016020526040908190209051632fbc709f60e01b815273__$5640c45a0bbbda400e9750313f59ad8ae1$__91632fbc709f91611aa59190869060040161535e565b60806040518083038186803b158015611abd57600080fd5b505af4158015611ad1573d6000803e3d6000fd5b505050506040513d601f19601f82011682018060405250810190610b28919061471c565b611b0c826000356001600160e01b03191633610be7565b611b285760405162461bcd60e51b81526004016107d390614f15565b60008281526001602052604090819020600a0180546001600160a01b038481166001600160a01b031983161790925591519116907fa7f38588f02421aa73988ed359aee27363c896e7cc3b6e634e4357f7ee408e2590610a8590859084908690614d84565b60008181526001602081905260408220015482906001600160a01b0316331480611bc95750611bc9816000356001600160e01b03191633610be7565b611be55760405162461bcd60e51b81526004016107d390614f72565b6000838152600160205260409020600481015415611c3f5760058101546000818152600383016020526040902054600483015490911415611c2c5750600092506109e79050565b60059091018054600101905591506109e7565b600080611c4b866133af565b909250905081611c625750600093506109e7915050565b600080611c6e846113c1565b909250905060018315151415611cb25780600286016000846021811115611c9157fe5b6021811115611c9c57fe5b8152602081019190915260400160002055611cba565b600785018490555b50919695505050505050565b60026020526000908152604090205460ff1681565b6000828152600160205260408120610b2890836137e9565b600082815260016020526040808220905163ee6a446f60e01b815273__$5640c45a0bbbda400e9750313f59ad8ae1$__9163ee6a446f91610ad89190869060040161535e565b6000828152600160208190526040909120015482906001600160a01b0316331480611d765750611d76816000356001600160e01b03191633610be7565b611d925760405162461bcd60e51b81526004016107d390614f72565b5060009182526001602052604090912060060155565b6000838152600160208190526040909120015483906001600160a01b0316331480611de55750611de5816000356001600160e01b03191633610be7565b611e015760405162461bcd60e51b81526004016107d390614f72565b50604080518082018252600180825260208083019485526000968752818152838720958752601090950190945293209251835460ff191690151517835551910155565b60008160f8846021811115611e5557fe5b60ff16901b179392505050565b611e6a613f35565b50600090815260016020908152604091829020825160808101845260088201546001600160a01b0390811682526009830154811693820193909352600a820154831693810193909352600b015416606082015290565b611ec8612ec6565b6000546001600160a01b03908116911614611f2a576040805162461bcd60e51b815260206004820181905260248201527f4f776e61626c653a2063616c6c6572206973206e6f7420746865206f776e6572604482015290519081900360640190fd5b6001600160a01b03166000908152600260205260409020805460ff19166001179055565b6000918252600160209081526040808420848052600d0182528084206001600160a01b0393909316845291905290205460ff1690565b6000828152600160205260408082209051637154b74160e11b815273__$5640c45a0bbbda400e9750313f59ad8ae1$__9163e2a96e8291611fca9190869060040161535e565b60206040518083038186803b158015611fe257600080fd5b505af4158015611ff6573d6000803e3d6000fd5b505050506040513d601f19601f82011682018060405250810190610b289190614139565b6000828152600160205260408082209051630ac097cd60e21b815273__$5640c45a0bbbda400e9750313f59ad8ae1$__91632b025f34916120609190869060040161535e565b60206040518083038186803b15801561207857600080fd5b505af415801561208c573d6000803e3d6000fd5b505050506040513d601f19601f82011682018060405250810190610b2891906148d1565b60009081526001602052604090205461010090046001600160a01b031690565b6120d8612ec6565b6000546001600160a01b0390811691161461213a576040805162461bcd60e51b815260206004820181905260248201527f4f776e61626c653a2063616c6c6572206973206e6f7420746865206f776e6572604482015290519081900360640190fd5b6001600160a01b03811661217f5760405162461bcd60e51b81526004018080602001828103825260268152602001806158ce6026913960400191505060405180910390fd5b600080546040516001600160a01b03808516939216917f8be0079c531659141344cd1fd0a4f28419497f9722a3daafe3b4186f6b6457e091a3600080546001600160a01b0319166001600160a01b0392909216919091179055565b60009081526001602052604090206006015490565b6121f7613c78565b604080516102e08101825272636f6e7472616374506572666f726d616e636560681b6000908152600f85016020529190912054819060f81c600581111561223a57fe5b600581111561224557fe5b8152697374617475734461746560b01b6000908152600f8501602081815260408084205482860152706e6f6e506572666f726d696e674461746560781b845282825280842054818601526b6d617475726974794461746560a01b84528282528084205460608601526b65786572636973654461746560a01b84528282528084205460808601526e7465726d696e6174696f6e4461746560881b84528282528084205460a0860152736c617374436f75706f6e466978696e674461746560601b84528282528084205460c0860152756c6173744469766964656e64466978696e674461746560501b84528282528084205460e0860152701b9bdd1a5bdb985b141c9a5b98da5c185b607a1b8452828252808420546101008601526e1858d8dc9d5959125b9d195c995cdd608a1b845282825280842054610120860152691999595058d8dc9d595960b21b845282825280842054610140860152726e6f6d696e616c496e7465726573745261746560681b8452828252808420546101608601527834b73a32b932b9ba29b1b0b634b733a6bab63a34b83634b2b960391b845282825280842054610180860152783737ba34b7b730b629b1b0b634b733a6bab63a34b83634b2b960391b8452828252808420546101a08601527f6e6578745072696e636970616c526564656d7074696f6e5061796d656e7400008452828252808420546101c08601526d195e195c98da5cd9505b5bdd5b9d60921b8452828252808420546101e08601526f65786572636973655175616e7469747960801b845282825280842054610200860152677175616e7469747960c01b8452828252808420546102208601527018dbdd5c1bdb905b5bdd5b9d119a5e1959607a1b8452828252808420546102408601526b36b0b933b4b72330b1ba37b960a11b8452828252808420546102608601526f30b2353ab9ba36b2b73a2330b1ba37b960811b84528282528084205461028086015274191a5d9a59195b9914185e5b595b9d105b5bdd5b9d605a1b8452828252808420546102a08601526973706c6974526174696f60b01b84529190529020546102c0909101529050919050565b612564613c78565b604080516102e08101825274465f636f6e7472616374506572666f726d616e636560581b6000908152600f85016020529190912054819060f81c60058111156125a957fe5b60058111156125b457fe5b81526b465f7374617475734461746560a01b6000908152600f850160208181526040808420548286015272465f6e6f6e506572666f726d696e674461746560681b845282825280842054818601526d465f6d617475726974794461746560901b84528282528084205460608601526d465f65786572636973654461746560901b845282825280842054608086015270465f7465726d696e6174696f6e4461746560781b84528282528084205460a086015275465f6c617374436f75706f6e466978696e674461746560501b84528282528084205460c086015277465f6c6173744469766964656e64466978696e674461746560401b84528282528084205460e0860152721197db9bdd1a5bdb985b141c9a5b98da5c185b606a1b845282825280842054610100860152701197d858d8dc9d5959125b9d195c995cdd607a1b8452828252808420546101208601526b1197d999595058d8dc9d595960a21b84528282528084205461014086015274465f6e6f6d696e616c496e7465726573745261746560581b8452828252808420546101608601527f465f696e7465726573745363616c696e674d756c7469706c69657200000000008452828252808420546101808601527f465f6e6f74696f6e616c5363616c696e674d756c7469706c69657200000000008452828252808420546101a08601527f465f6e6578745072696e636970616c526564656d7074696f6e5061796d656e748452828252808420546101c08601526f1197d95e195c98da5cd9505b5bdd5b9d60821b8452828252808420546101e086015271465f65786572636973655175616e7469747960701b84528282528084205461020086015269465f7175616e7469747960b01b845282825280842054610220860152721197d8dbdd5c1bdb905b5bdd5b9d119a5e1959606a1b8452828252808420546102408601526d232fb6b0b933b4b72330b1ba37b960911b84528282528084205461026086015271232fb0b2353ab9ba36b2b73a2330b1ba37b960711b845282825280842054610280860152761197d91a5d9a59195b9914185e5b595b9d105b5bdd5b9d604a1b8452828252808420546102a08601526b465f73706c6974526174696f60a01b84529190529020546102c0909101529050919050565b6129308272636f6e7472616374506572666f726d616e636560681b60f88460000151600581111561292657fe5b60ff16901b613895565b61294f82697374617475734461746560b01b836020015160001b613895565b61297582706e6f6e506572666f726d696e674461746560781b836040015160001b613895565b612996826b6d617475726974794461746560a01b836060015160001b613895565b6129b7826b65786572636973654461746560a01b836080015160001b613895565b6129db826e7465726d696e6174696f6e4461746560881b8360a0015160001b613895565b612a0482736c617374436f75706f6e466978696e674461746560601b8360c0015160001b613895565b612a2f82756c6173744469766964656e64466978696e674461746560501b8360e0015160001b613895565b612a5682701b9bdd1a5bdb985b141c9a5b98da5c185b607a1b83610100015160001b613895565b612a7b826e1858d8dc9d5959125b9d195c995cdd608a1b83610120015160001b613895565b612a9b82691999595058d8dc9d595960b21b83610140015160001b613895565b612ac482726e6f6d696e616c496e7465726573745261746560681b83610160015160001b613895565b612af3827834b73a32b932b9ba29b1b0b634b733a6bab63a34b83634b2b960391b83610180015160001b613895565b612b2282783737ba34b7b730b629b1b0b634b733a6bab63a34b83634b2b960391b836101a0015160001b613895565b612b55827f6e6578745072696e636970616c526564656d7074696f6e5061796d656e740000836101c0015160001b613895565b612b79826d195e195c98da5cd9505b5bdd5b9d60921b836101e0015160001b613895565b612b9f826f65786572636973655175616e7469747960801b83610200015160001b613895565b612bc5826f65786572636973655175616e7469747960801b83610200015160001b613895565b612be382677175616e7469747960c01b83610220015160001b613895565b612c0a827018dbdd5c1bdb905b5bdd5b9d119a5e1959607a1b83610240015160001b613895565b612c2c826b36b0b933b4b72330b1ba37b960a11b83610260015160001b613895565b612c52826f30b2353ab9ba36b2b73a2330b1ba37b960811b83610280015160001b613895565b612c7d8274191a5d9a59195b9914185e5b595b9d105b5bdd5b9d605a1b836102a0015160001b613895565b612c9d826973706c6974526174696f60b01b836102c0015160001b613895565b5050565b606080826002016002015467ffffffffffffffff81118015612cc257600080fd5b50604051908082528060200260200182016040528015612cec578160200160208202803683370190505b50905060005b6004840154811015612d305760008181526003850160205260409020548251839083908110612d1d57fe5b6020908102919091010152600101612cf2565b5092915050565b6000908152600f91909101602052604090205490565b6000878152600160205260409020805460ff1615612d7d5760405162461bcd60e51b81526004016107d390614fc1565b6001600160a01b03831660009081526002602052604090205460ff161515600114612dba5760405162461bcd60e51b81526004016107d3906150bd565b805485516008830180546001600160a01b03199081166001600160a01b0393841617909155602088015160098501805483169184169190911790556040880151600a8501805483169184169190911790556060880151600b85018054831691841691909117905560ff199092166001908117610100600160a81b0319166101008884160217845583018054909216908516179055612e5881886128f9565b612e628188612fe3565b612e6c81876138cb565b6001600160a01b03821615612e8557612e858883613933565b7f5e73a3e4a3f69f1056f05ffd00ff11bf3835158ba0ebd5ad3b994065fcd8964688604051612eb49190614d7b565b60405180910390a15050505050505050565b3390565b6000808084602001516005811115612ede57fe5b1415612ef8578351612ef19084906139aa565b9050610b28565b600184602001516005811115612f0a57fe5b1415612f28578351612ef190612f219060076139bf565b84906139aa565b600284602001516005811115612f3a57fe5b1415612f4d578351612ef1908490613a18565b600384602001516005811115612f5f57fe5b1415612f7d578351612ef190612f769060036139bf565b8490613a18565b600484602001516005811115612f8f57fe5b1415612fa6578351612ef190612f769060066139bf565b600584602001516005811115612fb857fe5b1415612fcb578351612ef1908490613a94565b60405162461bcd60e51b81526004016107d390615106565b6130128274465f636f6e7472616374506572666f726d616e636560581b60f88460000151600581111561292657fe5b613033826b465f7374617475734461746560a01b836020015160001b613895565b61305b8272465f6e6f6e506572666f726d696e674461746560681b836040015160001b613895565b61307e826d465f6d617475726974794461746560901b836060015160001b613895565b6130a1826d465f65786572636973654461746560901b836080015160001b613895565b6130c78270465f7465726d696e6174696f6e4461746560781b8360a0015160001b613895565b6130f28275465f6c617374436f75706f6e466978696e674461746560501b8360c0015160001b613895565b61311f8277465f6c6173744469766964656e64466978696e674461746560401b8360e0015160001b613895565b61314882721197db9bdd1a5bdb985b141c9a5b98da5c185b606a1b83610100015160001b613895565b61316f82701197d858d8dc9d5959125b9d195c995cdd607a1b83610120015160001b613895565b613191826b1197d999595058d8dc9d595960a21b83610140015160001b613895565b6131bc8274465f6e6f6d696e616c496e7465726573745261746560581b83610160015160001b613895565b6131ef827f465f696e7465726573745363616c696e674d756c7469706c696572000000000083610180015160001b613895565b613222827f465f6e6f74696f6e616c5363616c696e674d756c7469706c6965720000000000836101a0015160001b613895565b613255827f465f6e6578745072696e636970616c526564656d7074696f6e5061796d656e74836101c0015160001b613895565b61327b826f1197d95e195c98da5cd9505b5bdd5b9d60821b836101e0015160001b613895565b6132a38271465f65786572636973655175616e7469747960701b83610200015160001b613895565b6132cb8271465f65786572636973655175616e7469747960701b83610200015160001b613895565b6132eb8269465f7175616e7469747960b01b83610220015160001b613895565b61331482721197d8dbdd5c1bdb905b5bdd5b9d119a5e1959606a1b83610240015160001b613895565b613338826d232fb6b0b933b4b72330b1ba37b960911b83610260015160001b613895565b6133608271232fb0b2353ab9ba36b2b73a2330b1ba37b960711b83610280015160001b613895565b61338d82761197d91a5d9a59195b9914185e5b595b9d105b5bdd5b9d604a1b836102a0015160001b613895565b612c9d826b465f73706c6974526174696f60a01b836102c0015160001b613895565b600081815260016020526040812081906133c7613d27565b6040516379d346b760e01b815273__$5640c45a0bbbda400e9750313f59ad8ae1$__906379d346b7906133fe908590600401614d7b565b6108806040518083038186803b15801561341757600080fd5b505af415801561342b573d6000803e3d6000fd5b505050506040513d601f19601f8201168201806040525081019061344f91906143e3565b8254600a600081815260028601602052604080822054905163e2a9e66b60e01b815294955090938493600193859384936134f79361010090046001600160a01b03169263e2a9e66b926134a7928c92906004016152f7565b60206040518083038186803b1580156134bf57600080fd5b505afa1580156134d3573d6000803e3d6000fd5b505050506040513d601f19601f8201168201806040525081019061050f9190614189565b91509150836000148061350957508381105b8061352d5750808414801561352d5750613522856117be565b61352b836117be565b105b15613539578093508194505b50508454600b600081815260028801602052604080822054905163e2a9e66b60e01b81529193849361358a936101009092046001600160a01b03169263e2a9e66b926134a7928c92916004016152f7565b9150915083600014806135a6575080158015906135a657508381105b806135d5575080158015906135ba57508084145b80156135d557506135ca856117be565b6135d3836117be565b105b156135e1578093508194505b505084546005600081815260028801602052604080822054905163e2a9e66b60e01b815291938493613632936101009092046001600160a01b03169263e2a9e66b926134a7928c92916004016152f7565b91509150836000148061364e5750801580159061364e57508381105b8061367d5750801580159061366257508084145b801561367d5750613672856117be565b61367b836117be565b105b15613689578093508194505b505084546006600081815260028801602052604080822054905163e2a9e66b60e01b8152919384936136da936101009092046001600160a01b03169263e2a9e66b926134a7928c92916004016152f7565b9150915083600014806136f6575080158015906136f657508381105b806137255750801580159061370a57508084145b8015613725575061371a856117be565b613723836117be565b105b15613731578093508194505b505084546007860154604051638f79db1b60e01b81526000928392613775926101009092046001600160a01b031691638f79db1b916134a7918b91906004016152da565b9150915083600014806137915750801580159061379157508381105b806137c0575080158015906137a557508084145b80156137c057506137b5856117be565b6137be836117be565b105b156137d057809350819450600092505b50506137dc8383611e44565b9650945050505050915091565b600072636f6e7472616374506572666f726d616e636560681b82141561383a575072636f6e7472616374506572666f726d616e636560681b6000908152600f8301602052604090205460f81c610b2b565b74465f636f6e7472616374506572666f726d616e636560581b82141561388d575074465f636f6e7472616374506572666f726d616e636560581b6000908152600f8301602052604090205460f81c610b2b565b506000610b2b565b6000828152600f840160205260409020548114156138b2576138c6565b6000828152600f8401602052604090208190555b505050565b60005b81518110156138c6576000801b8282815181106138e757fe5b602002602001015114156138fa576138c6565b81818151811061390657fe5b602090810291909101810151600083815260038601909252604090912055600101600483018190556138ce565b6000828152600160208181526040808420848052600d0182528084206001600160a01b0386168086529252808420805460ff19169093179092559051909184917face25d271ad11ee299595b3021629bae0349e370d7c2eb7c2dced6e4edb478659161399e91614e2b565b60405180910390a35050565b620151808102820182811015610b2b57600080fd5b6000826139ce57506000610b2b565b828202828482816139db57fe5b0414610b285760405162461bcd60e51b81526004018080602001828103825260218152602001806158f46021913960400191505060405180910390fd5b6000808080613a2c62015180875b04613abb565b600c918801600019810183810494909401965094509250900660010191506000613a568484613b51565b905080821115613a64578091505b62015180870662015180613a79868686613bd7565b0201945086851015613a8a57600080fd5b5050505092915050565b6000808080613aa66201518087613a26565b9187019450925090506000613a568484613b51565b60008080836226496581018262023ab1600483020590506004600362023ab18302010590910390600062164b09610fa0600185010205905060046105b58202058303601f019250600061098f8460500281613b1257fe5b0590506000605061098f83020585039050600b820560301994909401606402929092018301996002600c90940290910392909201975095509350505050565b60008160011480613b625750816003145b80613b6d5750816005145b80613b785750816007145b80613b835750816008145b80613b8e575081600a145b80613b99575081600c145b15613ba65750601f610b2b565b81600214613bb65750601e610b2b565b613bbf83613c53565b613bca57601c613bcd565b601d5b60ff169392505050565b60006107b2841015613be857600080fd5b838383600062253d8c600460036064611324600c600d19890105890101050205600c80600d19870105600c02600287030361016f0281613c2457fe5b0560046105b5600c600d1989010589016112c0010205617d4b8603010103039050809450505050509392505050565b600060048206158015613c6857506064820615155b8061096e57505061019090061590565b604080516102e081019091528060008152602001600081526020016000815260200160008152602001600081526020016000815260200160008152602001600081526020016000815260200160008152602001600081526020016000815260200160008152602001600081526020016000815260200160008152602001600081526020016000815260200160008152602001600081526020016000815260200160008152602001600081525090565b6040805161062081019091528060008152602001600081526020016000815260200160008152602001600081526020016000815260200160008152602001600081526020016000815260200160006001600160a01b0316815260200160006001600160a01b0316815260200160008019168152602001600081526020016000815260200160008152602001600081526020016000815260200160008152602001600081526020016000815260200160008152602001600081526020016000815260200160008152602001600081526020016000815260200160008152602001600081526020016000815260200160008152602001600081526020016000815260200160008152602001600081526020016000815260200160008152602001600081526020016000815260200160008152602001600081526020016000815260200160008152602001613e77613eca565b8152602001613e84613eca565b8152602001613e91613f14565b8152602001613e9e613f14565b8152602001613eab613f14565b8152602001613eb8613f14565b8152602001613ec5613f14565b905290565b6040805160608101909152600080825260208201905b8152600060209091015290565b60408051608081018252600080825260208201819052909182019081526020016000613ec5565b60408051608081019091526000808252602082019081526020016000613ee0565b60408051608081018252600080825260208201819052918101829052606081019190915290565b80356109718161584f565b80516109718161584f565b803561097181615872565b805161097181615872565b80356109718161587f565b80516109718161587f565b80356109718161588c565b8035610971816158a6565b8051610971816158a6565b8035610971816158b3565b8051610971816158b3565b80516109718161588c565b80356022811061097157600080fd5b8035610971816158c0565b8051610971816158c0565b600061088082840312156109e7578081fd5b6000608082840312156109e7578081fd5b600060808284031215614039578081fd5b6040516080810181811067ffffffffffffffff8211171561405657fe5b80604052508091508251815260208301516140708161588c565b602082015260408301516140838161587f565b6040820152606083015161409681615864565b6060919091015292915050565b6000606082840312156140b4578081fd5b6040516060810181811067ffffffffffffffff821117156140d157fe5b80604052508091508251815260208301516140eb8161588c565b602082015260408301516140fe81615864565b6040919091015292915050565b60006102e082840312156109e7578081fd5b60006020828403121561412e578081fd5b8135610b288161584f565b60006020828403121561414a578081fd5b8151610b288161584f565b600060208284031215614166578081fd5b8151610b2881615864565b600060208284031215614182578081fd5b5035919050565b60006020828403121561419a578081fd5b5051919050565b600080604083850312156141b3578081fd5b8235915060208301356141c58161584f565b809150509250929050565b600080604083850312156141e2578182fd5b50508035926020909101359150565b600080600060608486031215614205578081fd5b505081359360208301359350604090920135919050565b600080600060608486031215614230578081fd5b8335925060208401356001600160e01b03198116811461424e578182fd5b9150604084013561425e8161584f565b809150509250925092565b6000806108a0838503121561427c578182fd5b8235915061428d8460208501614005565b90509250929050565b6000806000806000806000806000610c808a8c0312156142b4578687fd5b893598506142c58b60208c01614005565b97506142d58b6108a08c0161410b565b9650610b808a013567ffffffffffffffff808211156142f2578687fd5b818c0191508c601f830112614305578687fd5b813581811115614313578788fd5b8d60208083028501011115614326578788fd5b6020830198508097505050506143408b610ba08c01614017565b935061434f610c208b01613f5c565b925061435e610c408b01613f5c565b915061436d610c608b01613f5c565b90509295985092959850929598565b600080610300838503121561438f578182fd5b8235915061428d846020850161410b565b6000602082840312156143b1578081fd5b610b2882613fe0565b600080604083850312156143cc578182fd5b6143d583613fe0565b946020939093013593505050565b600061088082840312156143f5578081fd5b61440061062061580a565b61440983613fca565b815261441760208401613f93565b602082015261442860408401613fb4565b604082015261443960608401613fd5565b606082015261444a60808401613f7d565b608082015261445b60a08401613f93565b60a082015261446c60c08401613ffa565b60c082015261447d60e08401613ffa565b60e0820152610100614490818501613f93565b908201526101206144a2848201613f67565b908201526101406144b4848201613f67565b90820152610160838101519082015261018080840151908201526101a080840151908201526101c080840151908201526101e08084015190820152610200808401519082015261022080840151908201526102408084015190820152610260808401519082015261028080840151908201526102a080840151908201526102c080840151908201526102e08084015190820152610300808401519082015261032080840151908201526103408084015190820152610360808401519082015261038080840151908201526103a080840151908201526103c080840151908201526103e08084015190820152610400808401519082015261042080840151908201526104408084015190820152610460808401519082015261048080840151908201526104a080840151908201526104c080840151908201526104e080840151908201526105008084015190820152610520808401519082015261054061461c858286016140a3565b908201526105a061462f858583016140a3565b61056083015261060061464486828701614028565b610580840152614658866106808701614028565b8284015261466a866107008701614028565b6105c084015261467e866107808701614028565b6105e0840152614692866108008701614028565b90830152509392505050565b6000608082840312156146af578081fd5b6040516080810181811067ffffffffffffffff821117156146cc57fe5b60405282356146da8161584f565b815260208301356146ea8161584f565b602082015260408301356146fd8161584f565b604082015260608301356147108161584f565b60608201529392505050565b60006080828403121561472d578081fd5b6040516080810181811067ffffffffffffffff8211171561474a57fe5b80604052508251815260208301516020820152604083015161476b81615899565b6040820152606083015161471081615899565b60006080828403121561478f578081fd5b610b288383614028565b6000606082840312156147aa578081fd5b610b2883836140a3565b60006102e08083850312156147c7578182fd5b6147d08161580a565b90506147db83613f9e565b81526020838101359082015260408084013590820152606080840135908201526080808401359082015260a0808401359082015260c0808401359082015260e08084013590820152610100808401359082015261012080840135908201526101408084013590820152610160808401359082015261018080840135908201526101a080840135908201526101c080840135908201526101e08084013590820152610200808401359082015261022080840135908201526102408084013590820152610260808401359082015261028080840135908201526102a080840135908201526102c0928301359281019290925250919050565b6000602082840312156148e2578081fd5b815160ff81168114610b28578182fd5b6001600160a01b03169052565b6009811061490957fe5b9052565b6149098161582e565b6149098161583b565b600d811061490957fe5b6013811061490957fe5b6022811061490957fe5b6004811061490957fe5b614952828251614929565b6020810151614964602084018261490d565b506040810151614977604084018261491f565b50606081015161498a6060840182614916565b50608081015161499d60808401826148ff565b5060a08101516149b060a084018261490d565b5060c08101516149c360c084018261493d565b5060e08101516149d660e084018261493d565b50610100808201516149ea8285018261490d565b5050610120808201516149ff828501826148f2565b505061014080820151614a14828501826148f2565b5050610160818101519083015261018080820151908301526101a080820151908301526101c080820151908301526101e08082015190830152610200808201519083015261022080820151908301526102408082015190830152610260808201519083015261028080820151908301526102a080820151908301526102c080820151908301526102e08082015190830152610300808201519083015261032080820151908301526103408082015190830152610360808201519083015261038080820151908301526103a080820151908301526103c080820151908301526103e08082015190830152610400808201519083015261042080820151908301526104408082015190830152610460808201519083015261048080820151908301526104a080820151908301526104c080820151908301526104e080820151908301526105008082015190830152610520808201519083015261054080820151614b7e82850182614cca565b50506105608101516105a0614b9581850183614cca565b6105808301519150610600614bac81860184614c58565b818401519250614bc0610680860184614c58565b6105c08401519250614bd6610700860184614c58565b6105e08401519250614bec610780860184614c58565b83015191506138c69050610800840182614c58565b803582526020810135614c138161588c565b614c1c8161583b565b60208301526040810135614c2f8161587f565b614c388161582e565b60408301526060810135614c4b81615864565b8015156060840152505050565b805182526020810151614c6a8161583b565b60208301526040810151614c7d8161582e565b60408301526060908101511515910152565b803582526020810135614ca18161588c565b614caa8161583b565b60208301526040810135614cbd81615864565b8015156040840152505050565b805182526020810151614cdc8161583b565b60208301526040908101511515910152565b6001600160a01b0391909116815260200190565b6001600160a01b0392831681529116602082015260400190565b6020808252825182820181905260009190848201906040850190845b81811015614d5457835183529284019291840191600101614d38565b50909695505050505050565b901515815260200190565b9115158252602082015260400190565b90815260200190565b9283526001600160a01b03918216602084015216604082015260600190565b9081526a19dc9858d954195c9a5bd960aa1b602082015260400190565b9081527019195b1a5b9c5d595b98de54195c9a5bd9607a1b602082015260400190565b908152706e6f6e506572666f726d696e674461746560781b602082015260400190565b90815272636f6e7472616374506572666f726d616e636560681b602082015260400190565b6001600160e01b031991909116815260200190565b60408101614e4e8285614933565b8260208301529392505050565b6020808252603e908201527f417373657452656769737472792e736574436f756e746572706172747942656e60408201527f65666963696172793a20454e5452595f444f45535f4e4f545f45584953540000606082015260800190565b6020808252603d908201527f417373657452656769737472792e736574436f756e746572706172747942656e60408201527f65666963696172793a20554e415554484f52495a45445f53454e444552000000606082015260800190565b60208082526039908201527f417373657452656769737472792e736574436f756e74657270617274794f626c60408201527f69676f723a20554e415554484f52495a45445f53454e44455200000000000000606082015260800190565b6020808252602f908201527f416363657373436f6e74726f6c2e6973417574686f72697a65643a20554e415560408201526e2a2427a924ad22a22fa9a2a72222a960891b606082015260800190565b6020808252602b908201527f4261736552656769737472792e73657441737365743a2041535345545f414c5260408201526a454144595f45584953545360a81b606082015260800190565b60208082526034908201527f4261736552656769737472792e6f6e6c79417070726f7665644163746f72733a604082015273102aa720aaaa2427a924ad22a22fa9a2a72222a960611b606082015260800190565b60208082526038908201527f417373657452656769737472792e73657443726561746f7242656e656669636960408201527f6172793a20554e415554484f52495a45445f53454e4445520000000000000000606082015260800190565b60208082526029908201527f4261736552656769737472792e73657441737365743a204143544f525f4e4f5460408201526817d054141493d5915160ba1b606082015260800190565b60208082526037908201527f506572696f645574696c732e67657454696d657374616d70506c75735065726960408201527f6f643a204154545249425554455f4e4f545f464f554e44000000000000000000606082015260800190565b60208082526039908201527f417373657452656769737472792e73657443726561746f7242656e656669636960408201527f6172793a20454e5452595f444f45535f4e4f545f455849535400000000000000606082015260800190565b6020808252602f908201527f416363657373436f6e74726f6c2e7265766f6b654163636573733a20554e415560408201526e2a2427a924ad22a22fa9a2a72222a960891b606082015260800190565b60208082526034908201527f417373657452656769737472792e73657443726561746f724f626c69676f723a604082015273102aa720aaaa2427a924ad22a22fa9a2a72222a960611b606082015260800190565b60208082526042908201527f41737365744163746f722e6765744e657874556e6465726c79696e674576656e60408201527f743a20554e4445524c59494e475f41535345545f444f45535f4e4f545f45584960608201526114d560f21b608082015260a00190565b6108808101610b2b8284614947565b6108a081016152e98285614947565b826108808301529392505050565b6108c081016153068286614947565b8361088083015261531b6108a0830184614933565b949350505050565b81516001600160a01b039081168252602080840151821690830152604080840151821690830152606092830151169181019190915260800190565b918252602082015260400190565b8281526108a081016153896020830161538485613fbf565b614929565b61539560208401613f88565b6153a2604084018261490d565b506153af60408401613fa9565b6153bc606084018261491f565b506153c960608401613f9e565b6153d66080840182614916565b506153e360808401613f72565b6153f060a08401826148ff565b506153fd60a08401613f88565b61540a60c084018261490d565b5061541760c08401613fef565b61542460e084018261493d565b5061543160e08401613fef565b6101006154408185018361493d565b61544b818601613f88565b91505061012061545d8185018361490d565b615468818601613f5c565b91505061014061547a818501836148f2565b615485818601613f5c565b915050610160615497818501836148f2565b61018091508085013582850152506101a081850135818501526101c091508085013582850152506101e08185013581850152610200915080850135828501525061022081850135818501526102409150808501358285015250610260818501358185015261028091508085013582850152506102a081850135818501526102c091508085013582850152506102e08185013581850152610300915080850135828501525061032081850135818501526103409150808501358285015250610360818501358185015261038091508085013582850152506103a081850135818501526103c091508085013582850152506103e08185013581850152610400915080850135828501525061042081850135818501526104409150808501358285015250610460818501358185015261048091508085013582850152506104a081850135818501526104c091508085013582850152506104e0818501358185015261050091508085013582850152506105208185013581850152610540915080850135828501525061562c6105608401828601614c8f565b5061563f6105c083016105a08501614c8f565b61565161062083016106008501614c01565b6156636106a083016106808501614c01565b61567561072083016107008501614c01565b6156876107a083016107808501614c01565b610c5d61082083016108008501614c01565b8151815260208083015190820152604082015160808201906156ba81615845565b604083015260608301516156cd81615845565b8060608401525092915050565b60808101610b2b8284614c58565b60608101610b2b8284614cca565b60006102e08201905061570a828451614916565b6020838101519083015260408084015190830152606080840151908301526080808401519083015260a0808401519083015260c0808401519083015260e08084015190830152610100808401519083015261012080840151908301526101408084015190830152610160808401519083015261018080840151908301526101a080840151908301526101c080840151908301526101e08084015190830152610200808401519083015261022080840151908301526102408084015190830152610260808401519083015261028080840151908301526102a080840151908301526102c092830151929091019190915290565b60ff91909116815260200190565b60405181810167ffffffffffffffff8111828210171561582657fe5b604052919050565b6002811061583857fe5b50565b6006811061583857fe5b6005811061583857fe5b6001600160a01b038116811461583857600080fd5b801515811461583857600080fd5b6009811061583857600080fd5b6002811061583857600080fd5b6006811061583857600080fd5b6005811061583857600080fd5b600d811061583857600080fd5b6013811061583857600080fd5b6004811061583857600080fdfe4f776e61626c653a206e6577206f776e657220697320746865207a65726f2061646472657373536166654d6174683a206d756c7469706c69636174696f6e206f766572666c6f77a26469706673582212207783e186a3c025e908a83eb2855a2169994ea3c95a4d02a10f892c8b7129f16564736f6c63430007040033",
  "linkReferences": {
    "contracts/Core/ANN/ANNEncoder.sol": {
      "ANNEncoder": [
        {
          "length": 20,
          "start": 2172
        },
        {
          "length": 20,
          "start": 2865
        },
        {
          "length": 20,
          "start": 4590
        },
        {
          "length": 20,
          "start": 4728
        },
        {
          "length": 20,
          "start": 4886
        },
        {
          "length": 20,
          "start": 6508
        },
        {
          "length": 20,
          "start": 6689
        },
        {
          "length": 20,
          "start": 6910
        },
        {
          "length": 20,
          "start": 7570
        },
        {
          "length": 20,
          "start": 8227
        },
        {
          "length": 20,
          "start": 8377
        },
        {
          "length": 20,
          "start": 13400
        }
      ]
    }
  },
  "deployedLinkReferences": {
    "contracts/Core/ANN/ANNEncoder.sol": {
      "ANNEncoder": [
        {
          "length": 20,
          "start": 2042
        },
        {
          "length": 20,
          "start": 2735
        },
        {
          "length": 20,
          "start": 4460
        },
        {
          "length": 20,
          "start": 4598
        },
        {
          "length": 20,
          "start": 4756
        },
        {
          "length": 20,
          "start": 6378
        },
        {
          "length": 20,
          "start": 6559
        },
        {
          "length": 20,
          "start": 6780
        },
        {
          "length": 20,
          "start": 7440
        },
        {
          "length": 20,
          "start": 8097
        },
        {
          "length": 20,
          "start": 8247
        },
        {
          "length": 20,
          "start": 13270
        }
      ]
    }
  }
}