{
  "_format": "hh-sol-artifact-1",
  "contractName": "ANNRegistry",
  "sourceName": "contracts/Core/ANN/ANNRegistry.sol",
  "abi": [
    {
      "inputs": [],
      "stateMutability": "nonpayable",
      "type": "constructor"
    },
    {
      "anonymous": false,
      "inputs": [
        {
          "indexed": true,
          "internalType": "bytes32",
          "name": "assetId",
          "type": "bytes32"
        },
        {
          "indexed": true,
          "internalType": "address",
          "name": "account",
          "type": "address"
        },
        {
          "indexed": false,
          "internalType": "bytes4",
          "name": "methodSignature",
          "type": "bytes4"
        }
      ],
      "name": "GrantedAccess",
      "type": "event"
    },
    {
      "anonymous": false,
      "inputs": [
        {
          "indexed": true,
          "internalType": "address",
          "name": "previousOwner",
          "type": "address"
        },
        {
          "indexed": true,
          "internalType": "address",
          "name": "newOwner",
          "type": "address"
        }
      ],
      "name": "OwnershipTransferred",
      "type": "event"
    },
    {
      "anonymous": false,
      "inputs": [
        {
          "indexed": false,
          "internalType": "bytes32",
          "name": "assetId",
          "type": "bytes32"
        }
      ],
      "name": "RegisteredAsset",
      "type": "event"
    },
    {
      "anonymous": false,
      "inputs": [
        {
          "indexed": true,
          "internalType": "bytes32",
          "name": "assetId",
          "type": "bytes32"
        },
        {
          "indexed": true,
          "internalType": "address",
          "name": "account",
          "type": "address"
        },
        {
          "indexed": false,
          "internalType": "bytes4",
          "name": "methodSignature",
          "type": "bytes4"
        }
      ],
      "name": "RevokedAccess",
      "type": "event"
    },
    {
      "anonymous": false,
      "inputs": [
        {
          "indexed": true,
          "internalType": "bytes32",
          "name": "assetId",
          "type": "bytes32"
        },
        {
          "indexed": false,
          "internalType": "address",
          "name": "prevActor",
          "type": "address"
        },
        {
          "indexed": false,
          "internalType": "address",
          "name": "newActor",
          "type": "address"
        }
      ],
      "name": "UpdatedActor",
      "type": "event"
    },
    {
      "anonymous": false,
      "inputs": [
        {
          "indexed": false,
          "internalType": "bytes32",
          "name": "assetId",
          "type": "bytes32"
        },
        {
          "indexed": false,
          "internalType": "address",
          "name": "prevBeneficiary",
          "type": "address"
        },
        {
          "indexed": false,
          "internalType": "address",
          "name": "newBeneficiary",
          "type": "address"
        }
      ],
      "name": "UpdatedBeneficiary",
      "type": "event"
    },
    {
      "anonymous": false,
      "inputs": [
        {
          "indexed": true,
          "internalType": "bytes32",
          "name": "assetId",
          "type": "bytes32"
        },
        {
          "indexed": false,
          "internalType": "address",
          "name": "prevEngine",
          "type": "address"
        },
        {
          "indexed": false,
          "internalType": "address",
          "name": "newEngine",
          "type": "address"
        }
      ],
      "name": "UpdatedEngine",
      "type": "event"
    },
    {
      "anonymous": false,
      "inputs": [
        {
          "indexed": true,
          "internalType": "bytes32",
          "name": "assetId",
          "type": "bytes32"
        },
        {
          "indexed": false,
          "internalType": "uint256",
          "name": "statusDate",
          "type": "uint256"
        }
      ],
      "name": "UpdatedFinalizedState",
      "type": "event"
    },
    {
      "anonymous": false,
      "inputs": [
        {
          "indexed": false,
          "internalType": "bytes32",
          "name": "assetId",
          "type": "bytes32"
        },
        {
          "indexed": false,
          "internalType": "address",
          "name": "prevObligor",
          "type": "address"
        },
        {
          "indexed": false,
          "internalType": "address",
          "name": "newObligor",
          "type": "address"
        }
      ],
      "name": "UpdatedObligor",
      "type": "event"
    },
    {
      "anonymous": false,
      "inputs": [
        {
          "indexed": true,
          "internalType": "bytes32",
          "name": "assetId",
          "type": "bytes32"
        },
        {
          "indexed": false,
          "internalType": "uint256",
          "name": "statusDate",
          "type": "uint256"
        }
      ],
      "name": "UpdatedState",
      "type": "event"
    },
    {
      "anonymous": false,
      "inputs": [
        {
          "indexed": true,
          "internalType": "bytes32",
          "name": "assetId",
          "type": "bytes32"
        }
      ],
      "name": "UpdatedTerms",
      "type": "event"
    },
    {
      "inputs": [
        {
          "internalType": "address",
          "name": "actor",
          "type": "address"
        }
      ],
      "name": "approveActor",
      "outputs": [],
      "stateMutability": "nonpayable",
      "type": "function"
    },
    {
      "inputs": [
        {
          "internalType": "address",
          "name": "",
          "type": "address"
        }
      ],
      "name": "approvedActors",
      "outputs": [
        {
          "internalType": "bool",
          "name": "",
          "type": "bool"
        }
      ],
      "stateMutability": "view",
      "type": "function"
    },
    {
      "inputs": [
        {
          "internalType": "bytes32",
          "name": "_event",
          "type": "bytes32"
        }
      ],
      "name": "decodeEvent",
      "outputs": [
        {
          "internalType": "enum EventType",
          "name": "",
          "type": "uint8"
        },
        {
          "internalType": "uint256",
          "name": "",
          "type": "uint256"
        }
      ],
      "stateMutability": "pure",
      "type": "function"
    },
    {
      "inputs": [
        {
          "internalType": "enum EventType",
          "name": "eventType",
          "type": "uint8"
        },
        {
          "internalType": "uint256",
          "name": "scheduleTime",
          "type": "uint256"
        }
      ],
      "name": "encodeEvent",
      "outputs": [
        {
          "internalType": "bytes32",
          "name": "",
          "type": "bytes32"
        }
      ],
      "stateMutability": "pure",
      "type": "function"
    },
    {
      "inputs": [
        {
          "internalType": "bytes32",
          "name": "assetId",
          "type": "bytes32"
        }
      ],
      "name": "getActor",
      "outputs": [
        {
          "internalType": "address",
          "name": "",
          "type": "address"
        }
      ],
      "stateMutability": "view",
      "type": "function"
    },
    {
      "inputs": [
        {
          "internalType": "bytes32",
          "name": "assetId",
          "type": "bytes32"
        },
        {
          "internalType": "bytes32",
          "name": "attribute",
          "type": "bytes32"
        }
      ],
      "name": "getAddressValueForTermsAttribute",
      "outputs": [
        {
          "internalType": "address",
          "name": "",
          "type": "address"
        }
      ],
      "stateMutability": "view",
      "type": "function"
    },
    {
      "inputs": [
        {
          "internalType": "bytes32",
          "name": "assetId",
          "type": "bytes32"
        },
        {
          "internalType": "bytes32",
          "name": "attribute",
          "type": "bytes32"
        }
      ],
      "name": "getBytes32ValueForTermsAttribute",
      "outputs": [
        {
          "internalType": "bytes32",
          "name": "",
          "type": "bytes32"
        }
      ],
      "stateMutability": "view",
      "type": "function"
    },
    {
      "inputs": [
        {
          "internalType": "bytes32",
          "name": "assetId",
          "type": "bytes32"
        },
        {
          "internalType": "bytes32",
          "name": "attribute",
          "type": "bytes32"
        }
      ],
      "name": "getContractReferenceValueForTermsAttribute",
      "outputs": [
        {
          "components": [
            {
              "internalType": "bytes32",
              "name": "object",
              "type": "bytes32"
            },
            {
              "internalType": "bytes32",
              "name": "object2",
              "type": "bytes32"
            },
            {
              "internalType": "enum ContractReferenceType",
              "name": "_type",
              "type": "uint8"
            },
            {
              "internalType": "enum ContractReferenceRole",
              "name": "role",
              "type": "uint8"
            }
          ],
          "internalType": "struct ContractReference",
          "name": "",
          "type": "tuple"
        }
      ],
      "stateMutability": "view",
      "type": "function"
    },
    {
      "inputs": [
        {
          "internalType": "bytes32",
          "name": "assetId",
          "type": "bytes32"
        },
        {
          "internalType": "bytes32",
          "name": "attribute",
          "type": "bytes32"
        }
      ],
      "name": "getCycleValueForTermsAttribute",
      "outputs": [
        {
          "components": [
            {
              "internalType": "uint256",
              "name": "i",
              "type": "uint256"
            },
            {
              "internalType": "enum P",
              "name": "p",
              "type": "uint8"
            },
            {
              "internalType": "enum S",
              "name": "s",
              "type": "uint8"
            },
            {
              "internalType": "bool",
              "name": "isSet",
              "type": "bool"
            }
          ],
          "internalType": "struct IPS",
          "name": "",
          "type": "tuple"
        }
      ],
      "stateMutability": "view",
      "type": "function"
    },
    {
      "inputs": [
        {
          "internalType": "bytes32",
          "name": "assetId",
          "type": "bytes32"
        }
      ],
      "name": "getEngine",
      "outputs": [
        {
          "internalType": "address",
          "name": "",
          "type": "address"
        }
      ],
      "stateMutability": "view",
      "type": "function"
    },
    {
      "inputs": [
        {
          "internalType": "bytes32",
          "name": "assetId",
          "type": "bytes32"
        },
        {
          "internalType": "bytes32",
          "name": "attribute",
          "type": "bytes32"
        }
      ],
      "name": "getEnumValueForStateAttribute",
      "outputs": [
        {
          "internalType": "uint8",
          "name": "",
          "type": "uint8"
        }
      ],
      "stateMutability": "view",
      "type": "function"
    },
    {
      "inputs": [
        {
          "internalType": "bytes32",
          "name": "assetId",
          "type": "bytes32"
        },
        {
          "internalType": "bytes32",
          "name": "attribute",
          "type": "bytes32"
        }
      ],
      "name": "getEnumValueForTermsAttribute",
      "outputs": [
        {
          "internalType": "uint8",
          "name": "",
          "type": "uint8"
        }
      ],
      "stateMutability": "view",
      "type": "function"
    },
    {
      "inputs": [
        {
          "internalType": "enum EventType",
          "name": "eventType",
          "type": "uint8"
        }
      ],
      "name": "getEpochOffset",
      "outputs": [
        {
          "internalType": "uint256",
          "name": "",
          "type": "uint256"
        }
      ],
      "stateMutability": "pure",
      "type": "function"
    },
    {
      "inputs": [
        {
          "internalType": "bytes32",
          "name": "assetId",
          "type": "bytes32"
        },
        {
          "internalType": "uint256",
          "name": "index",
          "type": "uint256"
        }
      ],
      "name": "getEventAtIndex",
      "outputs": [
        {
          "internalType": "bytes32",
          "name": "",
          "type": "bytes32"
        }
      ],
      "stateMutability": "view",
      "type": "function"
    },
    {
      "inputs": [
        {
          "internalType": "bytes32",
          "name": "assetId",
          "type": "bytes32"
        }
      ],
      "name": "getExtension",
      "outputs": [
        {
          "internalType": "address",
          "name": "",
          "type": "address"
        }
      ],
      "stateMutability": "view",
      "type": "function"
    },
    {
      "inputs": [
        {
          "internalType": "bytes32",
          "name": "assetId",
          "type": "bytes32"
        }
      ],
      "name": "getFinalizedState",
      "outputs": [
        {
          "components": [
            {
              "internalType": "enum ContractPerformance",
              "name": "contractPerformance",
              "type": "uint8"
            },
            {
              "internalType": "uint256",
              "name": "statusDate",
              "type": "uint256"
            },
            {
              "internalType": "uint256",
              "name": "nonPerformingDate",
              "type": "uint256"
            },
            {
              "internalType": "uint256",
              "name": "maturityDate",
              "type": "uint256"
            },
            {
              "internalType": "uint256",
              "name": "exerciseDate",
              "type": "uint256"
            },
            {
              "internalType": "uint256",
              "name": "terminationDate",
              "type": "uint256"
            },
            {
              "internalType": "uint256",
              "name": "lastCouponFixingDate",
              "type": "uint256"
            },
            {
              "internalType": "uint256",
              "name": "lastDividendFixingDate",
              "type": "uint256"
            },
            {
              "internalType": "int256",
              "name": "notionalPrincipal",
              "type": "int256"
            },
            {
              "internalType": "int256",
              "name": "accruedInterest",
              "type": "int256"
            },
            {
              "internalType": "int256",
              "name": "feeAccrued",
              "type": "int256"
            },
            {
              "internalType": "int256",
              "name": "nominalInterestRate",
              "type": "int256"
            },
            {
              "internalType": "int256",
              "name": "interestScalingMultiplier",
              "type": "int256"
            },
            {
              "internalType": "int256",
              "name": "notionalScalingMultiplier",
              "type": "int256"
            },
            {
              "internalType": "int256",
              "name": "nextPrincipalRedemptionPayment",
              "type": "int256"
            },
            {
              "internalType": "int256",
              "name": "exerciseAmount",
              "type": "int256"
            },
            {
              "internalType": "int256",
              "name": "exerciseQuantity",
              "type": "int256"
            },
            {
              "internalType": "int256",
              "name": "quantity",
              "type": "int256"
            },
            {
              "internalType": "int256",
              "name": "couponAmountFixed",
              "type": "int256"
            },
            {
              "internalType": "int256",
              "name": "marginFactor",
              "type": "int256"
            },
            {
              "internalType": "int256",
              "name": "adjustmentFactor",
              "type": "int256"
            },
            {
              "internalType": "int256",
              "name": "dividendPaymentAmount",
              "type": "int256"
            },
            {
              "internalType": "int256",
              "name": "splitRatio",
              "type": "int256"
            }
          ],
          "internalType": "struct State",
          "name": "",
          "type": "tuple"
        }
      ],
      "stateMutability": "view",
      "type": "function"
    },
    {
      "inputs": [
        {
          "internalType": "bytes32",
          "name": "assetId",
          "type": "bytes32"
        },
        {
          "internalType": "bytes32",
          "name": "attribute",
          "type": "bytes32"
        }
      ],
      "name": "getIntValueForStateAttribute",
      "outputs": [
        {
          "internalType": "int256",
          "name": "",
          "type": "int256"
        }
      ],
      "stateMutability": "view",
      "type": "function"
    },
    {
      "inputs": [
        {
          "internalType": "bytes32",
          "name": "assetId",
          "type": "bytes32"
        },
        {
          "internalType": "bytes32",
          "name": "attribute",
          "type": "bytes32"
        }
      ],
      "name": "getIntValueForTermsAttribute",
      "outputs": [
        {
          "internalType": "int256",
          "name": "",
          "type": "int256"
        }
      ],
      "stateMutability": "view",
      "type": "function"
    },
    {
      "inputs": [
        {
          "internalType": "bytes32",
          "name": "assetId",
          "type": "bytes32"
        }
      ],
      "name": "getNextScheduleIndex",
      "outputs": [
        {
          "internalType": "uint256",
          "name": "",
          "type": "uint256"
        }
      ],
      "stateMutability": "view",
      "type": "function"
    },
    {
      "inputs": [
        {
          "internalType": "bytes32",
          "name": "assetId",
          "type": "bytes32"
        }
      ],
      "name": "getNextScheduledEvent",
      "outputs": [
        {
          "internalType": "bytes32",
          "name": "",
          "type": "bytes32"
        }
      ],
      "stateMutability": "view",
      "type": "function"
    },
    {
      "inputs": [
        {
          "internalType": "bytes32",
          "name": "assetId",
          "type": "bytes32"
        }
      ],
      "name": "getNextUnderlyingEvent",
      "outputs": [
        {
          "internalType": "bytes32",
          "name": "",
          "type": "bytes32"
        }
      ],
      "stateMutability": "view",
      "type": "function"
    },
    {
      "inputs": [
        {
          "internalType": "bytes32",
          "name": "assetId",
          "type": "bytes32"
        }
      ],
      "name": "getOwnership",
      "outputs": [
        {
          "components": [
            {
              "internalType": "address",
              "name": "creatorObligor",
              "type": "address"
            },
            {
              "internalType": "address",
              "name": "creatorBeneficiary",
              "type": "address"
            },
            {
              "internalType": "address",
              "name": "counterpartyObligor",
              "type": "address"
            },
            {
              "internalType": "address",
              "name": "counterpartyBeneficiary",
              "type": "address"
            }
          ],
          "internalType": "struct AssetOwnership",
          "name": "",
          "type": "tuple"
        }
      ],
      "stateMutability": "view",
      "type": "function"
    },
    {
      "inputs": [
        {
          "internalType": "bytes32",
          "name": "assetId",
          "type": "bytes32"
        }
      ],
      "name": "getPendingEvent",
      "outputs": [
        {
          "internalType": "bytes32",
          "name": "",
          "type": "bytes32"
        }
      ],
      "stateMutability": "view",
      "type": "function"
    },
    {
      "inputs": [
        {
          "internalType": "bytes32",
          "name": "assetId",
          "type": "bytes32"
        },
        {
          "internalType": "bytes32",
          "name": "attribute",
          "type": "bytes32"
        }
      ],
      "name": "getPeriodValueForTermsAttribute",
      "outputs": [
        {
          "components": [
            {
              "internalType": "uint256",
              "name": "i",
              "type": "uint256"
            },
            {
              "internalType": "enum P",
              "name": "p",
              "type": "uint8"
            },
            {
              "internalType": "bool",
              "name": "isSet",
              "type": "bool"
            }
          ],
          "internalType": "struct IP",
          "name": "",
          "type": "tuple"
        }
      ],
      "stateMutability": "view",
      "type": "function"
    },
    {
      "inputs": [
        {
          "internalType": "bytes32",
          "name": "assetId",
          "type": "bytes32"
        }
      ],
      "name": "getSchedule",
      "outputs": [
        {
          "internalType": "bytes32[]",
          "name": "",
          "type": "bytes32[]"
        }
      ],
      "stateMutability": "view",
      "type": "function"
    },
    {
      "inputs": [
        {
          "internalType": "bytes32",
          "name": "assetId",
          "type": "bytes32"
        }
      ],
      "name": "getScheduleLength",
      "outputs": [
        {
          "internalType": "uint256",
          "name": "",
          "type": "uint256"
        }
      ],
      "stateMutability": "view",
      "type": "function"
    },
    {
      "inputs": [
        {
          "internalType": "bytes32",
          "name": "assetId",
          "type": "bytes32"
        }
      ],
      "name": "getState",
      "outputs": [
        {
          "components": [
            {
              "internalType": "enum ContractPerformance",
              "name": "contractPerformance",
              "type": "uint8"
            },
            {
              "internalType": "uint256",
              "name": "statusDate",
              "type": "uint256"
            },
            {
              "internalType": "uint256",
              "name": "nonPerformingDate",
              "type": "uint256"
            },
            {
              "internalType": "uint256",
              "name": "maturityDate",
              "type": "uint256"
            },
            {
              "internalType": "uint256",
              "name": "exerciseDate",
              "type": "uint256"
            },
            {
              "internalType": "uint256",
              "name": "terminationDate",
              "type": "uint256"
            },
            {
              "internalType": "uint256",
              "name": "lastCouponFixingDate",
              "type": "uint256"
            },
            {
              "internalType": "uint256",
              "name": "lastDividendFixingDate",
              "type": "uint256"
            },
            {
              "internalType": "int256",
              "name": "notionalPrincipal",
              "type": "int256"
            },
            {
              "internalType": "int256",
              "name": "accruedInterest",
              "type": "int256"
            },
            {
              "internalType": "int256",
              "name": "feeAccrued",
              "type": "int256"
            },
            {
              "internalType": "int256",
              "name": "nominalInterestRate",
              "type": "int256"
            },
            {
              "internalType": "int256",
              "name": "interestScalingMultiplier",
              "type": "int256"
            },
            {
              "internalType": "int256",
              "name": "notionalScalingMultiplier",
              "type": "int256"
            },
            {
              "internalType": "int256",
              "name": "nextPrincipalRedemptionPayment",
              "type": "int256"
            },
            {
              "internalType": "int256",
              "name": "exerciseAmount",
              "type": "int256"
            },
            {
              "internalType": "int256",
              "name": "exerciseQuantity",
              "type": "int256"
            },
            {
              "internalType": "int256",
              "name": "quantity",
              "type": "int256"
            },
            {
              "internalType": "int256",
              "name": "couponAmountFixed",
              "type": "int256"
            },
            {
              "internalType": "int256",
              "name": "marginFactor",
              "type": "int256"
            },
            {
              "internalType": "int256",
              "name": "adjustmentFactor",
              "type": "int256"
            },
            {
              "internalType": "int256",
              "name": "dividendPaymentAmount",
              "type": "int256"
            },
            {
              "internalType": "int256",
              "name": "splitRatio",
              "type": "int256"
            }
          ],
          "internalType": "struct State",
          "name": "",
          "type": "tuple"
        }
      ],
      "stateMutability": "view",
      "type": "function"
    },
    {
      "inputs": [
        {
          "internalType": "bytes32",
          "name": "assetId",
          "type": "bytes32"
        }
      ],
      "name": "getTerms",
      "outputs": [
        {
          "components": [
            {
              "internalType": "enum ContractType",
              "name": "contractType",
              "type": "uint8"
            },
            {
              "internalType": "enum Calendar",
              "name": "calendar",
              "type": "uint8"
            },
            {
              "internalType": "enum ContractRole",
              "name": "contractRole",
              "type": "uint8"
            },
            {
              "internalType": "enum DayCountConvention",
              "name": "dayCountConvention",
              "type": "uint8"
            },
            {
              "internalType": "enum BusinessDayConvention",
              "name": "businessDayConvention",
              "type": "uint8"
            },
            {
              "internalType": "enum EndOfMonthConvention",
              "name": "endOfMonthConvention",
              "type": "uint8"
            },
            {
              "internalType": "enum ScalingEffect",
              "name": "scalingEffect",
              "type": "uint8"
            },
            {
              "internalType": "enum PenaltyType",
              "name": "penaltyType",
              "type": "uint8"
            },
            {
              "internalType": "enum FeeBasis",
              "name": "feeBasis",
              "type": "uint8"
            },
            {
              "internalType": "address",
              "name": "currency",
              "type": "address"
            },
            {
              "internalType": "address",
              "name": "settlementCurrency",
              "type": "address"
            },
            {
              "internalType": "bytes32",
              "name": "marketObjectCodeRateReset",
              "type": "bytes32"
            },
            {
              "internalType": "uint256",
              "name": "contractDealDate",
              "type": "uint256"
            },
            {
              "internalType": "uint256",
              "name": "statusDate",
              "type": "uint256"
            },
            {
              "internalType": "uint256",
              "name": "initialExchangeDate",
              "type": "uint256"
            },
            {
              "internalType": "uint256",
              "name": "maturityDate",
              "type": "uint256"
            },
            {
              "internalType": "uint256",
              "name": "issueDate",
              "type": "uint256"
            },
            {
              "internalType": "uint256",
              "name": "purchaseDate",
              "type": "uint256"
            },
            {
              "internalType": "uint256",
              "name": "capitalizationEndDate",
              "type": "uint256"
            },
            {
              "internalType": "uint256",
              "name": "cycleAnchorDateOfInterestPayment",
              "type": "uint256"
            },
            {
              "internalType": "uint256",
              "name": "cycleAnchorDateOfRateReset",
              "type": "uint256"
            },
            {
              "internalType": "uint256",
              "name": "cycleAnchorDateOfScalingIndex",
              "type": "uint256"
            },
            {
              "internalType": "uint256",
              "name": "cycleAnchorDateOfFee",
              "type": "uint256"
            },
            {
              "internalType": "uint256",
              "name": "cycleAnchorDateOfPrincipalRedemption",
              "type": "uint256"
            },
            {
              "internalType": "int256",
              "name": "notionalPrincipal",
              "type": "int256"
            },
            {
              "internalType": "int256",
              "name": "nominalInterestRate",
              "type": "int256"
            },
            {
              "internalType": "int256",
              "name": "accruedInterest",
              "type": "int256"
            },
            {
              "internalType": "int256",
              "name": "rateMultiplier",
              "type": "int256"
            },
            {
              "internalType": "int256",
              "name": "rateSpread",
              "type": "int256"
            },
            {
              "internalType": "int256",
              "name": "nextResetRate",
              "type": "int256"
            },
            {
              "internalType": "int256",
              "name": "feeRate",
              "type": "int256"
            },
            {
              "internalType": "int256",
              "name": "feeAccrued",
              "type": "int256"
            },
            {
              "internalType": "int256",
              "name": "penaltyRate",
              "type": "int256"
            },
            {
              "internalType": "int256",
              "name": "delinquencyRate",
              "type": "int256"
            },
            {
              "internalType": "int256",
              "name": "premiumDiscountAtIED",
              "type": "int256"
            },
            {
              "internalType": "int256",
              "name": "priceAtPurchaseDate",
              "type": "int256"
            },
            {
              "internalType": "int256",
              "name": "priceAtTerminationDate",
              "type": "int256"
            },
            {
              "internalType": "int256",
              "name": "nextPrincipalRedemptionPayment",
              "type": "int256"
            },
            {
              "internalType": "int256",
              "name": "lifeCap",
              "type": "int256"
            },
            {
              "internalType": "int256",
              "name": "lifeFloor",
              "type": "int256"
            },
            {
              "internalType": "int256",
              "name": "periodCap",
              "type": "int256"
            },
            {
              "internalType": "int256",
              "name": "periodFloor",
              "type": "int256"
            },
            {
              "components": [
                {
                  "internalType": "uint256",
                  "name": "i",
                  "type": "uint256"
                },
                {
                  "internalType": "enum P",
                  "name": "p",
                  "type": "uint8"
                },
                {
                  "internalType": "bool",
                  "name": "isSet",
                  "type": "bool"
                }
              ],
              "internalType": "struct IP",
              "name": "gracePeriod",
              "type": "tuple"
            },
            {
              "components": [
                {
                  "internalType": "uint256",
                  "name": "i",
                  "type": "uint256"
                },
                {
                  "internalType": "enum P",
                  "name": "p",
                  "type": "uint8"
                },
                {
                  "internalType": "bool",
                  "name": "isSet",
                  "type": "bool"
                }
              ],
              "internalType": "struct IP",
              "name": "delinquencyPeriod",
              "type": "tuple"
            },
            {
              "components": [
                {
                  "internalType": "uint256",
                  "name": "i",
                  "type": "uint256"
                },
                {
                  "internalType": "enum P",
                  "name": "p",
                  "type": "uint8"
                },
                {
                  "internalType": "enum S",
                  "name": "s",
                  "type": "uint8"
                },
                {
                  "internalType": "bool",
                  "name": "isSet",
                  "type": "bool"
                }
              ],
              "internalType": "struct IPS",
              "name": "cycleOfInterestPayment",
              "type": "tuple"
            },
            {
              "components": [
                {
                  "internalType": "uint256",
                  "name": "i",
                  "type": "uint256"
                },
                {
                  "internalType": "enum P",
                  "name": "p",
                  "type": "uint8"
                },
                {
                  "internalType": "enum S",
                  "name": "s",
                  "type": "uint8"
                },
                {
                  "internalType": "bool",
                  "name": "isSet",
                  "type": "bool"
                }
              ],
              "internalType": "struct IPS",
              "name": "cycleOfRateReset",
              "type": "tuple"
            },
            {
              "components": [
                {
                  "internalType": "uint256",
                  "name": "i",
                  "type": "uint256"
                },
                {
                  "internalType": "enum P",
                  "name": "p",
                  "type": "uint8"
                },
                {
                  "internalType": "enum S",
                  "name": "s",
                  "type": "uint8"
                },
                {
                  "internalType": "bool",
                  "name": "isSet",
                  "type": "bool"
                }
              ],
              "internalType": "struct IPS",
              "name": "cycleOfScalingIndex",
              "type": "tuple"
            },
            {
              "components": [
                {
                  "internalType": "uint256",
                  "name": "i",
                  "type": "uint256"
                },
                {
                  "internalType": "enum P",
                  "name": "p",
                  "type": "uint8"
                },
                {
                  "internalType": "enum S",
                  "name": "s",
                  "type": "uint8"
                },
                {
                  "internalType": "bool",
                  "name": "isSet",
                  "type": "bool"
                }
              ],
              "internalType": "struct IPS",
              "name": "cycleOfFee",
              "type": "tuple"
            },
            {
              "components": [
                {
                  "internalType": "uint256",
                  "name": "i",
                  "type": "uint256"
                },
                {
                  "internalType": "enum P",
                  "name": "p",
                  "type": "uint8"
                },
                {
                  "internalType": "enum S",
                  "name": "s",
                  "type": "uint8"
                },
                {
                  "internalType": "bool",
                  "name": "isSet",
                  "type": "bool"
                }
              ],
              "internalType": "struct IPS",
              "name": "cycleOfPrincipalRedemption",
              "type": "tuple"
            }
          ],
          "internalType": "struct ANNTerms",
          "name": "",
          "type": "tuple"
        }
      ],
      "stateMutability": "view",
      "type": "function"
    },
    {
      "inputs": [
        {
          "internalType": "bytes32",
          "name": "assetId",
          "type": "bytes32"
        },
        {
          "internalType": "bytes32",
          "name": "attribute",
          "type": "bytes32"
        }
      ],
      "name": "getUIntValueForTermsAttribute",
      "outputs": [
        {
          "internalType": "uint256",
          "name": "",
          "type": "uint256"
        }
      ],
      "stateMutability": "view",
      "type": "function"
    },
    {
      "inputs": [
        {
          "internalType": "bytes32",
          "name": "assetId",
          "type": "bytes32"
        },
        {
          "internalType": "bytes32",
          "name": "attribute",
          "type": "bytes32"
        }
      ],
      "name": "getUintValueForStateAttribute",
      "outputs": [
        {
          "internalType": "uint256",
          "name": "",
          "type": "uint256"
        }
      ],
      "stateMutability": "view",
      "type": "function"
    },
    {
      "inputs": [
        {
          "internalType": "bytes32",
          "name": "assetId",
          "type": "bytes32"
        },
        {
          "internalType": "bytes4",
          "name": "methodSignature",
          "type": "bytes4"
        },
        {
          "internalType": "address",
          "name": "account",
          "type": "address"
        }
      ],
      "name": "grantAccess",
      "outputs": [],
      "stateMutability": "nonpayable",
      "type": "function"
    },
    {
      "inputs": [
        {
          "internalType": "bytes32",
          "name": "assetId",
          "type": "bytes32"
        },
        {
          "internalType": "bytes4",
          "name": "methodSignature",
          "type": "bytes4"
        },
        {
          "internalType": "address",
          "name": "account",
          "type": "address"
        }
      ],
      "name": "hasAccess",
      "outputs": [
        {
          "internalType": "bool",
          "name": "",
          "type": "bool"
        }
      ],
      "stateMutability": "view",
      "type": "function"
    },
    {
      "inputs": [
        {
          "internalType": "bytes32",
          "name": "assetId",
          "type": "bytes32"
        },
        {
          "internalType": "address",
          "name": "account",
          "type": "address"
        }
      ],
      "name": "hasRootAccess",
      "outputs": [
        {
          "internalType": "bool",
          "name": "",
          "type": "bool"
        }
      ],
      "stateMutability": "view",
      "type": "function"
    },
    {
      "inputs": [
        {
          "internalType": "bytes32",
          "name": "assetId",
          "type": "bytes32"
        },
        {
          "internalType": "bytes32",
          "name": "_event",
          "type": "bytes32"
        }
      ],
      "name": "isEventSettled",
      "outputs": [
        {
          "internalType": "bool",
          "name": "",
          "type": "bool"
        },
        {
          "internalType": "int256",
          "name": "",
          "type": "int256"
        }
      ],
      "stateMutability": "view",
      "type": "function"
    },
    {
      "inputs": [
        {
          "internalType": "bytes32",
          "name": "assetId",
          "type": "bytes32"
        }
      ],
      "name": "isRegistered",
      "outputs": [
        {
          "internalType": "bool",
          "name": "",
          "type": "bool"
        }
      ],
      "stateMutability": "view",
      "type": "function"
    },
    {
      "inputs": [
        {
          "internalType": "bytes32",
          "name": "assetId",
          "type": "bytes32"
        },
        {
          "internalType": "bytes32",
          "name": "_event",
          "type": "bytes32"
        },
        {
          "internalType": "int256",
          "name": "_payoff",
          "type": "int256"
        }
      ],
      "name": "markEventAsSettled",
      "outputs": [],
      "stateMutability": "nonpayable",
      "type": "function"
    },
    {
      "inputs": [],
      "name": "owner",
      "outputs": [
        {
          "internalType": "address",
          "name": "",
          "type": "address"
        }
      ],
      "stateMutability": "view",
      "type": "function"
    },
    {
      "inputs": [
        {
          "internalType": "bytes32",
          "name": "assetId",
          "type": "bytes32"
        }
      ],
      "name": "popNextScheduledEvent",
      "outputs": [
        {
          "internalType": "bytes32",
          "name": "",
          "type": "bytes32"
        }
      ],
      "stateMutability": "nonpayable",
      "type": "function"
    },
    {
      "inputs": [
        {
          "internalType": "bytes32",
          "name": "assetId",
          "type": "bytes32"
        }
      ],
      "name": "popPendingEvent",
      "outputs": [
        {
          "internalType": "bytes32",
          "name": "",
          "type": "bytes32"
        }
      ],
      "stateMutability": "nonpayable",
      "type": "function"
    },
    {
      "inputs": [
        {
          "internalType": "bytes32",
          "name": "assetId",
          "type": "bytes32"
        },
        {
          "internalType": "bytes32",
          "name": "pendingEvent",
          "type": "bytes32"
        }
      ],
      "name": "pushPendingEvent",
      "outputs": [],
      "stateMutability": "nonpayable",
      "type": "function"
    },
    {
      "inputs": [
        {
          "internalType": "bytes32",
          "name": "assetId",
          "type": "bytes32"
        },
        {
          "components": [
            {
              "internalType": "enum ContractType",
              "name": "contractType",
              "type": "uint8"
            },
            {
              "internalType": "enum Calendar",
              "name": "calendar",
              "type": "uint8"
            },
            {
              "internalType": "enum ContractRole",
              "name": "contractRole",
              "type": "uint8"
            },
            {
              "internalType": "enum DayCountConvention",
              "name": "dayCountConvention",
              "type": "uint8"
            },
            {
              "internalType": "enum BusinessDayConvention",
              "name": "businessDayConvention",
              "type": "uint8"
            },
            {
              "internalType": "enum EndOfMonthConvention",
              "name": "endOfMonthConvention",
              "type": "uint8"
            },
            {
              "internalType": "enum ScalingEffect",
              "name": "scalingEffect",
              "type": "uint8"
            },
            {
              "internalType": "enum PenaltyType",
              "name": "penaltyType",
              "type": "uint8"
            },
            {
              "internalType": "enum FeeBasis",
              "name": "feeBasis",
              "type": "uint8"
            },
            {
              "internalType": "address",
              "name": "currency",
              "type": "address"
            },
            {
              "internalType": "address",
              "name": "settlementCurrency",
              "type": "address"
            },
            {
              "internalType": "bytes32",
              "name": "marketObjectCodeRateReset",
              "type": "bytes32"
            },
            {
              "internalType": "uint256",
              "name": "contractDealDate",
              "type": "uint256"
            },
            {
              "internalType": "uint256",
              "name": "statusDate",
              "type": "uint256"
            },
            {
              "internalType": "uint256",
              "name": "initialExchangeDate",
              "type": "uint256"
            },
            {
              "internalType": "uint256",
              "name": "maturityDate",
              "type": "uint256"
            },
            {
              "internalType": "uint256",
              "name": "issueDate",
              "type": "uint256"
            },
            {
              "internalType": "uint256",
              "name": "purchaseDate",
              "type": "uint256"
            },
            {
              "internalType": "uint256",
              "name": "capitalizationEndDate",
              "type": "uint256"
            },
            {
              "internalType": "uint256",
              "name": "cycleAnchorDateOfInterestPayment",
              "type": "uint256"
            },
            {
              "internalType": "uint256",
              "name": "cycleAnchorDateOfRateReset",
              "type": "uint256"
            },
            {
              "internalType": "uint256",
              "name": "cycleAnchorDateOfScalingIndex",
              "type": "uint256"
            },
            {
              "internalType": "uint256",
              "name": "cycleAnchorDateOfFee",
              "type": "uint256"
            },
            {
              "internalType": "uint256",
              "name": "cycleAnchorDateOfPrincipalRedemption",
              "type": "uint256"
            },
            {
              "internalType": "int256",
              "name": "notionalPrincipal",
              "type": "int256"
            },
            {
              "internalType": "int256",
              "name": "nominalInterestRate",
              "type": "int256"
            },
            {
              "internalType": "int256",
              "name": "accruedInterest",
              "type": "int256"
            },
            {
              "internalType": "int256",
              "name": "rateMultiplier",
              "type": "int256"
            },
            {
              "internalType": "int256",
              "name": "rateSpread",
              "type": "int256"
            },
            {
              "internalType": "int256",
              "name": "nextResetRate",
              "type": "int256"
            },
            {
              "internalType": "int256",
              "name": "feeRate",
              "type": "int256"
            },
            {
              "internalType": "int256",
              "name": "feeAccrued",
              "type": "int256"
            },
            {
              "internalType": "int256",
              "name": "penaltyRate",
              "type": "int256"
            },
            {
              "internalType": "int256",
              "name": "delinquencyRate",
              "type": "int256"
            },
            {
              "internalType": "int256",
              "name": "premiumDiscountAtIED",
              "type": "int256"
            },
            {
              "internalType": "int256",
              "name": "priceAtPurchaseDate",
              "type": "int256"
            },
            {
              "internalType": "int256",
              "name": "priceAtTerminationDate",
              "type": "int256"
            },
            {
              "internalType": "int256",
              "name": "nextPrincipalRedemptionPayment",
              "type": "int256"
            },
            {
              "internalType": "int256",
              "name": "lifeCap",
              "type": "int256"
            },
            {
              "internalType": "int256",
              "name": "lifeFloor",
              "type": "int256"
            },
            {
              "internalType": "int256",
              "name": "periodCap",
              "type": "int256"
            },
            {
              "internalType": "int256",
              "name": "periodFloor",
              "type": "int256"
            },
            {
              "components": [
                {
                  "internalType": "uint256",
                  "name": "i",
                  "type": "uint256"
                },
                {
                  "internalType": "enum P",
                  "name": "p",
                  "type": "uint8"
                },
                {
                  "internalType": "bool",
                  "name": "isSet",
                  "type": "bool"
                }
              ],
              "internalType": "struct IP",
              "name": "gracePeriod",
              "type": "tuple"
            },
            {
              "components": [
                {
                  "internalType": "uint256",
                  "name": "i",
                  "type": "uint256"
                },
                {
                  "internalType": "enum P",
                  "name": "p",
                  "type": "uint8"
                },
                {
                  "internalType": "bool",
                  "name": "isSet",
                  "type": "bool"
                }
              ],
              "internalType": "struct IP",
              "name": "delinquencyPeriod",
              "type": "tuple"
            },
            {
              "components": [
                {
                  "internalType": "uint256",
                  "name": "i",
                  "type": "uint256"
                },
                {
                  "internalType": "enum P",
                  "name": "p",
                  "type": "uint8"
                },
                {
                  "internalType": "enum S",
                  "name": "s",
                  "type": "uint8"
                },
                {
                  "internalType": "bool",
                  "name": "isSet",
                  "type": "bool"
                }
              ],
              "internalType": "struct IPS",
              "name": "cycleOfInterestPayment",
              "type": "tuple"
            },
            {
              "components": [
                {
                  "internalType": "uint256",
                  "name": "i",
                  "type": "uint256"
                },
                {
                  "internalType": "enum P",
                  "name": "p",
                  "type": "uint8"
                },
                {
                  "internalType": "enum S",
                  "name": "s",
                  "type": "uint8"
                },
                {
                  "internalType": "bool",
                  "name": "isSet",
                  "type": "bool"
                }
              ],
              "internalType": "struct IPS",
              "name": "cycleOfRateReset",
              "type": "tuple"
            },
            {
              "components": [
                {
                  "internalType": "uint256",
                  "name": "i",
                  "type": "uint256"
                },
                {
                  "internalType": "enum P",
                  "name": "p",
                  "type": "uint8"
                },
                {
                  "internalType": "enum S",
                  "name": "s",
                  "type": "uint8"
                },
                {
                  "internalType": "bool",
                  "name": "isSet",
                  "type": "bool"
                }
              ],
              "internalType": "struct IPS",
              "name": "cycleOfScalingIndex",
              "type": "tuple"
            },
            {
              "components": [
                {
                  "internalType": "uint256",
                  "name": "i",
                  "type": "uint256"
                },
                {
                  "internalType": "enum P",
                  "name": "p",
                  "type": "uint8"
                },
                {
                  "internalType": "enum S",
                  "name": "s",
                  "type": "uint8"
                },
                {
                  "internalType": "bool",
                  "name": "isSet",
                  "type": "bool"
                }
              ],
              "internalType": "struct IPS",
              "name": "cycleOfFee",
              "type": "tuple"
            },
            {
              "components": [
                {
                  "internalType": "uint256",
                  "name": "i",
                  "type": "uint256"
                },
                {
                  "internalType": "enum P",
                  "name": "p",
                  "type": "uint8"
                },
                {
                  "internalType": "enum S",
                  "name": "s",
                  "type": "uint8"
                },
                {
                  "internalType": "bool",
                  "name": "isSet",
                  "type": "bool"
                }
              ],
              "internalType": "struct IPS",
              "name": "cycleOfPrincipalRedemption",
              "type": "tuple"
            }
          ],
          "internalType": "struct ANNTerms",
          "name": "terms",
          "type": "tuple"
        },
        {
          "components": [
            {
              "internalType": "enum ContractPerformance",
              "name": "contractPerformance",
              "type": "uint8"
            },
            {
              "internalType": "uint256",
              "name": "statusDate",
              "type": "uint256"
            },
            {
              "internalType": "uint256",
              "name": "nonPerformingDate",
              "type": "uint256"
            },
            {
              "internalType": "uint256",
              "name": "maturityDate",
              "type": "uint256"
            },
            {
              "internalType": "uint256",
              "name": "exerciseDate",
              "type": "uint256"
            },
            {
              "internalType": "uint256",
              "name": "terminationDate",
              "type": "uint256"
            },
            {
              "internalType": "uint256",
              "name": "lastCouponFixingDate",
              "type": "uint256"
            },
            {
              "internalType": "uint256",
              "name": "lastDividendFixingDate",
              "type": "uint256"
            },
            {
              "internalType": "int256",
              "name": "notionalPrincipal",
              "type": "int256"
            },
            {
              "internalType": "int256",
              "name": "accruedInterest",
              "type": "int256"
            },
            {
              "internalType": "int256",
              "name": "feeAccrued",
              "type": "int256"
            },
            {
              "internalType": "int256",
              "name": "nominalInterestRate",
              "type": "int256"
            },
            {
              "internalType": "int256",
              "name": "interestScalingMultiplier",
              "type": "int256"
            },
            {
              "internalType": "int256",
              "name": "notionalScalingMultiplier",
              "type": "int256"
            },
            {
              "internalType": "int256",
              "name": "nextPrincipalRedemptionPayment",
              "type": "int256"
            },
            {
              "internalType": "int256",
              "name": "exerciseAmount",
              "type": "int256"
            },
            {
              "internalType": "int256",
              "name": "exerciseQuantity",
              "type": "int256"
            },
            {
              "internalType": "int256",
              "name": "quantity",
              "type": "int256"
            },
            {
              "internalType": "int256",
              "name": "couponAmountFixed",
              "type": "int256"
            },
            {
              "internalType": "int256",
              "name": "marginFactor",
              "type": "int256"
            },
            {
              "internalType": "int256",
              "name": "adjustmentFactor",
              "type": "int256"
            },
            {
              "internalType": "int256",
              "name": "dividendPaymentAmount",
              "type": "int256"
            },
            {
              "internalType": "int256",
              "name": "splitRatio",
              "type": "int256"
            }
          ],
          "internalType": "struct State",
          "name": "state",
          "type": "tuple"
        },
        {
          "internalType": "bytes32[]",
          "name": "schedule",
          "type": "bytes32[]"
        },
        {
          "components": [
            {
              "internalType": "address",
              "name": "creatorObligor",
              "type": "address"
            },
            {
              "internalType": "address",
              "name": "creatorBeneficiary",
              "type": "address"
            },
            {
              "internalType": "address",
              "name": "counterpartyObligor",
              "type": "address"
            },
            {
              "internalType": "address",
              "name": "counterpartyBeneficiary",
              "type": "address"
            }
          ],
          "internalType": "struct AssetOwnership",
          "name": "ownership",
          "type": "tuple"
        },
        {
          "internalType": "address",
          "name": "engine",
          "type": "address"
        },
        {
          "internalType": "address",
          "name": "actor",
          "type": "address"
        },
        {
          "internalType": "address",
          "name": "admin",
          "type": "address"
        }
      ],
      "name": "registerAsset",
      "outputs": [],
      "stateMutability": "nonpayable",
      "type": "function"
    },
    {
      "inputs": [],
      "name": "renounceOwnership",
      "outputs": [],
      "stateMutability": "nonpayable",
      "type": "function"
    },
    {
      "inputs": [
        {
          "internalType": "bytes32",
          "name": "assetId",
          "type": "bytes32"
        },
        {
          "internalType": "bytes4",
          "name": "methodSignature",
          "type": "bytes4"
        },
        {
          "internalType": "address",
          "name": "account",
          "type": "address"
        }
      ],
      "name": "revokeAccess",
      "outputs": [],
      "stateMutability": "nonpayable",
      "type": "function"
    },
    {
      "inputs": [
        {
          "internalType": "bytes32",
          "name": "assetId",
          "type": "bytes32"
        },
        {
          "internalType": "address",
          "name": "actor",
          "type": "address"
        }
      ],
      "name": "setActor",
      "outputs": [],
      "stateMutability": "nonpayable",
      "type": "function"
    },
    {
      "inputs": [
        {
          "internalType": "bytes32",
          "name": "assetId",
          "type": "bytes32"
        },
        {
          "internalType": "address",
          "name": "newCounterpartyBeneficiary",
          "type": "address"
        }
      ],
      "name": "setCounterpartyBeneficiary",
      "outputs": [],
      "stateMutability": "nonpayable",
      "type": "function"
    },
    {
      "inputs": [
        {
          "internalType": "bytes32",
          "name": "assetId",
          "type": "bytes32"
        },
        {
          "internalType": "address",
          "name": "newCounterpartyObligor",
          "type": "address"
        }
      ],
      "name": "setCounterpartyObligor",
      "outputs": [],
      "stateMutability": "nonpayable",
      "type": "function"
    },
    {
      "inputs": [
        {
          "internalType": "bytes32",
          "name": "assetId",
          "type": "bytes32"
        },
        {
          "internalType": "address",
          "name": "newCreatorBeneficiary",
          "type": "address"
        }
      ],
      "name": "setCreatorBeneficiary",
      "outputs": [],
      "stateMutability": "nonpayable",
      "type": "function"
    },
    {
      "inputs": [
        {
          "internalType": "bytes32",
          "name": "assetId",
          "type": "bytes32"
        },
        {
          "internalType": "address",
          "name": "newCreatorObligor",
          "type": "address"
        }
      ],
      "name": "setCreatorObligor",
      "outputs": [],
      "stateMutability": "nonpayable",
      "type": "function"
    },
    {
      "inputs": [
        {
          "internalType": "bytes32",
          "name": "assetId",
          "type": "bytes32"
        },
        {
          "internalType": "address",
          "name": "engine",
          "type": "address"
        }
      ],
      "name": "setEngine",
      "outputs": [],
      "stateMutability": "nonpayable",
      "type": "function"
    },
    {
      "inputs": [
        {
          "internalType": "bytes32",
          "name": "assetId",
          "type": "bytes32"
        },
        {
          "internalType": "address",
          "name": "extension",
          "type": "address"
        }
      ],
      "name": "setExtension",
      "outputs": [],
      "stateMutability": "nonpayable",
      "type": "function"
    },
    {
      "inputs": [
        {
          "internalType": "bytes32",
          "name": "assetId",
          "type": "bytes32"
        },
        {
          "components": [
            {
              "internalType": "enum ContractPerformance",
              "name": "contractPerformance",
              "type": "uint8"
            },
            {
              "internalType": "uint256",
              "name": "statusDate",
              "type": "uint256"
            },
            {
              "internalType": "uint256",
              "name": "nonPerformingDate",
              "type": "uint256"
            },
            {
              "internalType": "uint256",
              "name": "maturityDate",
              "type": "uint256"
            },
            {
              "internalType": "uint256",
              "name": "exerciseDate",
              "type": "uint256"
            },
            {
              "internalType": "uint256",
              "name": "terminationDate",
              "type": "uint256"
            },
            {
              "internalType": "uint256",
              "name": "lastCouponFixingDate",
              "type": "uint256"
            },
            {
              "internalType": "uint256",
              "name": "lastDividendFixingDate",
              "type": "uint256"
            },
            {
              "internalType": "int256",
              "name": "notionalPrincipal",
              "type": "int256"
            },
            {
              "internalType": "int256",
              "name": "accruedInterest",
              "type": "int256"
            },
            {
              "internalType": "int256",
              "name": "feeAccrued",
              "type": "int256"
            },
            {
              "internalType": "int256",
              "name": "nominalInterestRate",
              "type": "int256"
            },
            {
              "internalType": "int256",
              "name": "interestScalingMultiplier",
              "type": "int256"
            },
            {
              "internalType": "int256",
              "name": "notionalScalingMultiplier",
              "type": "int256"
            },
            {
              "internalType": "int256",
              "name": "nextPrincipalRedemptionPayment",
              "type": "int256"
            },
            {
              "internalType": "int256",
              "name": "exerciseAmount",
              "type": "int256"
            },
            {
              "internalType": "int256",
              "name": "exerciseQuantity",
              "type": "int256"
            },
            {
              "internalType": "int256",
              "name": "quantity",
              "type": "int256"
            },
            {
              "internalType": "int256",
              "name": "couponAmountFixed",
              "type": "int256"
            },
            {
              "internalType": "int256",
              "name": "marginFactor",
              "type": "int256"
            },
            {
              "internalType": "int256",
              "name": "adjustmentFactor",
              "type": "int256"
            },
            {
              "internalType": "int256",
              "name": "dividendPaymentAmount",
              "type": "int256"
            },
            {
              "internalType": "int256",
              "name": "splitRatio",
              "type": "int256"
            }
          ],
          "internalType": "struct State",
          "name": "state",
          "type": "tuple"
        }
      ],
      "name": "setFinalizedState",
      "outputs": [],
      "stateMutability": "nonpayable",
      "type": "function"
    },
    {
      "inputs": [
        {
          "internalType": "bytes32",
          "name": "assetId",
          "type": "bytes32"
        },
        {
          "components": [
            {
              "internalType": "enum ContractPerformance",
              "name": "contractPerformance",
              "type": "uint8"
            },
            {
              "internalType": "uint256",
              "name": "statusDate",
              "type": "uint256"
            },
            {
              "internalType": "uint256",
              "name": "nonPerformingDate",
              "type": "uint256"
            },
            {
              "internalType": "uint256",
              "name": "maturityDate",
              "type": "uint256"
            },
            {
              "internalType": "uint256",
              "name": "exerciseDate",
              "type": "uint256"
            },
            {
              "internalType": "uint256",
              "name": "terminationDate",
              "type": "uint256"
            },
            {
              "internalType": "uint256",
              "name": "lastCouponFixingDate",
              "type": "uint256"
            },
            {
              "internalType": "uint256",
              "name": "lastDividendFixingDate",
              "type": "uint256"
            },
            {
              "internalType": "int256",
              "name": "notionalPrincipal",
              "type": "int256"
            },
            {
              "internalType": "int256",
              "name": "accruedInterest",
              "type": "int256"
            },
            {
              "internalType": "int256",
              "name": "feeAccrued",
              "type": "int256"
            },
            {
              "internalType": "int256",
              "name": "nominalInterestRate",
              "type": "int256"
            },
            {
              "internalType": "int256",
              "name": "interestScalingMultiplier",
              "type": "int256"
            },
            {
              "internalType": "int256",
              "name": "notionalScalingMultiplier",
              "type": "int256"
            },
            {
              "internalType": "int256",
              "name": "nextPrincipalRedemptionPayment",
              "type": "int256"
            },
            {
              "internalType": "int256",
              "name": "exerciseAmount",
              "type": "int256"
            },
            {
              "internalType": "int256",
              "name": "exerciseQuantity",
              "type": "int256"
            },
            {
              "internalType": "int256",
              "name": "quantity",
              "type": "int256"
            },
            {
              "internalType": "int256",
              "name": "couponAmountFixed",
              "type": "int256"
            },
            {
              "internalType": "int256",
              "name": "marginFactor",
              "type": "int256"
            },
            {
              "internalType": "int256",
              "name": "adjustmentFactor",
              "type": "int256"
            },
            {
              "internalType": "int256",
              "name": "dividendPaymentAmount",
              "type": "int256"
            },
            {
              "internalType": "int256",
              "name": "splitRatio",
              "type": "int256"
            }
          ],
          "internalType": "struct State",
          "name": "state",
          "type": "tuple"
        }
      ],
      "name": "setState",
      "outputs": [],
      "stateMutability": "nonpayable",
      "type": "function"
    },
    {
      "inputs": [
        {
          "internalType": "bytes32",
          "name": "assetId",
          "type": "bytes32"
        },
        {
          "components": [
            {
              "internalType": "enum ContractType",
              "name": "contractType",
              "type": "uint8"
            },
            {
              "internalType": "enum Calendar",
              "name": "calendar",
              "type": "uint8"
            },
            {
              "internalType": "enum ContractRole",
              "name": "contractRole",
              "type": "uint8"
            },
            {
              "internalType": "enum DayCountConvention",
              "name": "dayCountConvention",
              "type": "uint8"
            },
            {
              "internalType": "enum BusinessDayConvention",
              "name": "businessDayConvention",
              "type": "uint8"
            },
            {
              "internalType": "enum EndOfMonthConvention",
              "name": "endOfMonthConvention",
              "type": "uint8"
            },
            {
              "internalType": "enum ScalingEffect",
              "name": "scalingEffect",
              "type": "uint8"
            },
            {
              "internalType": "enum PenaltyType",
              "name": "penaltyType",
              "type": "uint8"
            },
            {
              "internalType": "enum FeeBasis",
              "name": "feeBasis",
              "type": "uint8"
            },
            {
              "internalType": "address",
              "name": "currency",
              "type": "address"
            },
            {
              "internalType": "address",
              "name": "settlementCurrency",
              "type": "address"
            },
            {
              "internalType": "bytes32",
              "name": "marketObjectCodeRateReset",
              "type": "bytes32"
            },
            {
              "internalType": "uint256",
              "name": "contractDealDate",
              "type": "uint256"
            },
            {
              "internalType": "uint256",
              "name": "statusDate",
              "type": "uint256"
            },
            {
              "internalType": "uint256",
              "name": "initialExchangeDate",
              "type": "uint256"
            },
            {
              "internalType": "uint256",
              "name": "maturityDate",
              "type": "uint256"
            },
            {
              "internalType": "uint256",
              "name": "issueDate",
              "type": "uint256"
            },
            {
              "internalType": "uint256",
              "name": "purchaseDate",
              "type": "uint256"
            },
            {
              "internalType": "uint256",
              "name": "capitalizationEndDate",
              "type": "uint256"
            },
            {
              "internalType": "uint256",
              "name": "cycleAnchorDateOfInterestPayment",
              "type": "uint256"
            },
            {
              "internalType": "uint256",
              "name": "cycleAnchorDateOfRateReset",
              "type": "uint256"
            },
            {
              "internalType": "uint256",
              "name": "cycleAnchorDateOfScalingIndex",
              "type": "uint256"
            },
            {
              "internalType": "uint256",
              "name": "cycleAnchorDateOfFee",
              "type": "uint256"
            },
            {
              "internalType": "uint256",
              "name": "cycleAnchorDateOfPrincipalRedemption",
              "type": "uint256"
            },
            {
              "internalType": "int256",
              "name": "notionalPrincipal",
              "type": "int256"
            },
            {
              "internalType": "int256",
              "name": "nominalInterestRate",
              "type": "int256"
            },
            {
              "internalType": "int256",
              "name": "accruedInterest",
              "type": "int256"
            },
            {
              "internalType": "int256",
              "name": "rateMultiplier",
              "type": "int256"
            },
            {
              "internalType": "int256",
              "name": "rateSpread",
              "type": "int256"
            },
            {
              "internalType": "int256",
              "name": "nextResetRate",
              "type": "int256"
            },
            {
              "internalType": "int256",
              "name": "feeRate",
              "type": "int256"
            },
            {
              "internalType": "int256",
              "name": "feeAccrued",
              "type": "int256"
            },
            {
              "internalType": "int256",
              "name": "penaltyRate",
              "type": "int256"
            },
            {
              "internalType": "int256",
              "name": "delinquencyRate",
              "type": "int256"
            },
            {
              "internalType": "int256",
              "name": "premiumDiscountAtIED",
              "type": "int256"
            },
            {
              "internalType": "int256",
              "name": "priceAtPurchaseDate",
              "type": "int256"
            },
            {
              "internalType": "int256",
              "name": "priceAtTerminationDate",
              "type": "int256"
            },
            {
              "internalType": "int256",
              "name": "nextPrincipalRedemptionPayment",
              "type": "int256"
            },
            {
              "internalType": "int256",
              "name": "lifeCap",
              "type": "int256"
            },
            {
              "internalType": "int256",
              "name": "lifeFloor",
              "type": "int256"
            },
            {
              "internalType": "int256",
              "name": "periodCap",
              "type": "int256"
            },
            {
              "internalType": "int256",
              "name": "periodFloor",
              "type": "int256"
            },
            {
              "components": [
                {
                  "internalType": "uint256",
                  "name": "i",
                  "type": "uint256"
                },
                {
                  "internalType": "enum P",
                  "name": "p",
                  "type": "uint8"
                },
                {
                  "internalType": "bool",
                  "name": "isSet",
                  "type": "bool"
                }
              ],
              "internalType": "struct IP",
              "name": "gracePeriod",
              "type": "tuple"
            },
            {
              "components": [
                {
                  "internalType": "uint256",
                  "name": "i",
                  "type": "uint256"
                },
                {
                  "internalType": "enum P",
                  "name": "p",
                  "type": "uint8"
                },
                {
                  "internalType": "bool",
                  "name": "isSet",
                  "type": "bool"
                }
              ],
              "internalType": "struct IP",
              "name": "delinquencyPeriod",
              "type": "tuple"
            },
            {
              "components": [
                {
                  "internalType": "uint256",
                  "name": "i",
                  "type": "uint256"
                },
                {
                  "internalType": "enum P",
                  "name": "p",
                  "type": "uint8"
                },
                {
                  "internalType": "enum S",
                  "name": "s",
                  "type": "uint8"
                },
                {
                  "internalType": "bool",
                  "name": "isSet",
                  "type": "bool"
                }
              ],
              "internalType": "struct IPS",
              "name": "cycleOfInterestPayment",
              "type": "tuple"
            },
            {
              "components": [
                {
                  "internalType": "uint256",
                  "name": "i",
                  "type": "uint256"
                },
                {
                  "internalType": "enum P",
                  "name": "p",
                  "type": "uint8"
                },
                {
                  "internalType": "enum S",
                  "name": "s",
                  "type": "uint8"
                },
                {
                  "internalType": "bool",
                  "name": "isSet",
                  "type": "bool"
                }
              ],
              "internalType": "struct IPS",
              "name": "cycleOfRateReset",
              "type": "tuple"
            },
            {
              "components": [
                {
                  "internalType": "uint256",
                  "name": "i",
                  "type": "uint256"
                },
                {
                  "internalType": "enum P",
                  "name": "p",
                  "type": "uint8"
                },
                {
                  "internalType": "enum S",
                  "name": "s",
                  "type": "uint8"
                },
                {
                  "internalType": "bool",
                  "name": "isSet",
                  "type": "bool"
                }
              ],
              "internalType": "struct IPS",
              "name": "cycleOfScalingIndex",
              "type": "tuple"
            },
            {
              "components": [
                {
                  "internalType": "uint256",
                  "name": "i",
                  "type": "uint256"
                },
                {
                  "internalType": "enum P",
                  "name": "p",
                  "type": "uint8"
                },
                {
                  "internalType": "enum S",
                  "name": "s",
                  "type": "uint8"
                },
                {
                  "internalType": "bool",
                  "name": "isSet",
                  "type": "bool"
                }
              ],
              "internalType": "struct IPS",
              "name": "cycleOfFee",
              "type": "tuple"
            },
            {
              "components": [
                {
                  "internalType": "uint256",
                  "name": "i",
                  "type": "uint256"
                },
                {
                  "internalType": "enum P",
                  "name": "p",
                  "type": "uint8"
                },
                {
                  "internalType": "enum S",
                  "name": "s",
                  "type": "uint8"
                },
                {
                  "internalType": "bool",
                  "name": "isSet",
                  "type": "bool"
                }
              ],
              "internalType": "struct IPS",
              "name": "cycleOfPrincipalRedemption",
              "type": "tuple"
            }
          ],
          "internalType": "struct ANNTerms",
          "name": "terms",
          "type": "tuple"
        }
      ],
      "name": "setTerms",
      "outputs": [],
      "stateMutability": "nonpayable",
      "type": "function"
    },
    {
      "inputs": [
        {
          "internalType": "address",
          "name": "newOwner",
          "type": "address"
        }
      ],
      "name": "transferOwnership",
      "outputs": [],
      "stateMutability": "nonpayable",
      "type": "function"
    }
  ],
  "bytecode": "0x60806040523480156200001157600080fd5b5060006200001e6200006e565b600080546001600160a01b0319166001600160a01b0383169081178255604051929350917f8be0079c531659141344cd1fd0a4f28419497f9722a3daafe3b4186f6b6457e0908290a35062000072565b3390565b615a8280620000826000396000f3fe608060405234801561001057600080fd5b50600436106103425760003560e01c8063842962d5116101b8578063ccfc347e11610104578063e7dc3188116100a2578063ecef55771161007c578063ecef55771461078a578063ee43eda11461079d578063f2fde38b146107b0578063f52f84e1146107c357610342565b8063e7dc318814610751578063e8f7ca3e14610764578063eb0125591461077757610342565b8063d981e773116100de578063d981e773146106f8578063de07a1731461070b578063e05a66e01461071e578063e50e0ef71461073157610342565b8063ccfc347e146106b2578063cf5aed12146106c5578063d51dc3dc146106e557610342565b8063b461dd4f11610171578063bc6a7d761161014b578063bc6a7d7614610659578063bd1f0a6c14610679578063c139626b1461068c578063c3b6e7c21461069f57610342565b8063b461dd4f14610612578063b828204114610625578063ba4d2d281461063857610342565b8063842962d5146105915780638da5cb5b146105a4578063a17b75b5146105b9578063b02ca0c0146105cc578063b0b4888f146105df578063b3c45ebe146105ff57610342565b806339262e87116102925780636a899b9b11610230578063715018a61161020a578063715018a614610542578063725400031461054a57806375e86ae41461056b578063811322fb1461057e57610342565b80636a899b9b146104dc5780636be39bda146105025780636fe55baa1461052257610342565b8063512872f41161026c578063512872f4146104b65780636031a094146104c9578063606aa07e146104dc578063649ece93146104ef57610342565b806339262e87146104705780633a60d6fe146104835780633adc277a1461049657610342565b8063135b9f4d116102ff57806327258b22116102d957806327258b221461042457806328e0f8a9146104375780633549d08d1461044a57806337462dba1461045d57610342565b8063135b9f4d146103de5780631717e867146103f15780631b1268151461040457610342565b80630337c83f1461034757806303a81a2a1461035c57806309648a9d1461036f5780630c5b75a4146103985780630d62037a146103b85780630d799b85146103cb575b600080fd5b61035a6103553660046143a1565b6107d6565b005b61035a61036a3660046142d9565b6108df565b61038261037d3660046142a9565b6109ab565b60405161038f919061582e565b60405180910390f35b6103ab6103a63660046142a9565b6109d2565b60405161038f9190614eb3565b61035a6103c63660046142d9565b610a49565b61035a6103d93660046142d9565b610aee565b6103ab6103ec366004614308565b610bac565b61035a6103ff366004614354565b610c4b565b610417610412366004614354565b610d01565b60405161038f9190614e98565b6104176104323660046142a9565b610d7e565b6103ab6104453660046142a9565b610d93565b61035a6104583660046142d9565b610da8565b61038261046b3660046142a9565b610e83565b61035a61047e366004614354565b610ea2565b61035a6104913660046144b4565b610f47565b6104a96104a43660046142a9565b611007565b60405161038f9190614e54565b61035a6104c43660046142d9565b611021565b61035a6104d73660046142d9565b6110e8565b6103ab6104ea366004614308565b6111c3565b61035a6104fd3660046143ce565b6111db565b6105156105103660046142a9565b6112ea565b60405161038f9190615403565b610535610530366004614308565b611388565b60405161038f9190615820565b61035a611427565b61055d6105583660046142a9565b6114db565b60405161038f929190614f78565b6103ab6105793660046142a9565b611504565b6103ab61058c3660046144d8565b6118d8565b61035a61059f3660046144b4565b6118e6565b6105ac611999565b60405161038f9190614e26565b6103ab6105c73660046142a9565b6119a8565b6103ab6105da366004614308565b6119bd565b6105f26105ed366004614308565b6119de565b60405161038f9190615812565b6105ac61060d3660046142a9565b611a7d565b6103ab610620366004614308565b611a9c565b6103ab6106333660046142a9565b611ae2565b61064b610646366004614308565b611b46565b60405161038f929190614ea3565b61066c610667366004614308565b611b70565b60405161038f91906157d1565b61035a6106873660046142d9565b611c0f565b6105ac61069a3660046142a9565b611ca7565b6103ab6106ad3660046142a9565b611cc5565b6104176106c0366004614255565b611dfe565b6106d86106d3366004614308565b611e13565b60405161038f9190615934565b6103ab6106f3366004614308565b611e2b565b61035a610706366004614308565b611e71565b61035a610719366004614329565b611ee0565b6103ab61072c3660046144f2565b611f7c565b61074461073f3660046142a9565b611f9a565b60405161038f919061545b565b61035a61075f366004614255565b611ff8565b6104176107723660046142d9565b612086565b6105ac610785366004614308565b6120bc565b6106d8610798366004614308565b612152565b6105ac6107ab3660046142a9565b6121e8565b61035a6107be366004614255565b612208565b6103ab6107d13660046142a9565b612312565b6000828152600160208190526040909120015482906001600160a01b03163314806108135750610813816000356001600160e01b03191633610d01565b6108385760405162461bcd60e51b815260040161082f906150aa565b60405180910390fd5b600083815260016020526040908190209051638198ef6d60e01b815273__$5640c45a0bbbda400e9750313f59ad8ae1$__91638198ef6d9161087f919086906004016154a4565b60006040518083038186803b15801561089757600080fd5b505af41580156108ab573d6000803e3d6000fd5b50506040518592507fb777acf68d226f3c8ab6f398cfb9a320e6fe8e92f5d2f0b4f69bc8ebab3b70cb9150600090a2505050565b6000828152600160208190526040909120015482906001600160a01b031633148061091c575061091c816000356001600160e01b03191633610d01565b6109385760405162461bcd60e51b815260040161082f906150aa565b6000838152600160208190526040918290200180546001600160a01b038581166001600160a01b0319831617909255915191169084907f6baefd4565218ab73b43cb6b1019ca3a06161c4fcaef25cd665aacddabc44a209061099d9084908790614e3a565b60405180910390a250505050565b6109b3613db0565b60008281526001602052604090206109ca90612327565b90505b919050565b60008181526001602081905260408220015482906001600160a01b0316331480610a0e5750610a0e816000356001600160e01b03191633610d01565b610a2a5760405162461bcd60e51b815260040161082f906150aa565b6000838152600160205260408120600701805491905591505b50919050565b610a60826000356001600160e01b03191633610d01565b610a7c5760405162461bcd60e51b815260040161082f90615347565b6000828152600160205260409081902060090180546001600160a01b038481166001600160a01b031983161790925591519116907fa7f38588f02421aa73988ed359aee27363c896e7cc3b6e634e4357f7ee408e2590610ae190859084908690614ebc565b60405180910390a1505050565b6000828152600160208190526040909120015482906001600160a01b0316331480610b2b5750610b2b816000356001600160e01b03191633610d01565b610b475760405162461bcd60e51b815260040161082f906150aa565b6000838152600160205260409081902060020180546001600160a01b038581166001600160a01b0319831617909255915191169084907fdaa92ae0693b6616f14ef5db4b7ee053d3234c0d03f7a1885589c6a6c2c75bdb9061099d9084908790614e3a565b6000828152600160205260408082209051639151ef2360e01b815273__$5640c45a0bbbda400e9750313f59ad8ae1$__91639151ef2391610bf291908690600401615496565b60206040518083038186803b158015610c0a57600080fd5b505af4158015610c1e573d6000803e3d6000fd5b505050506040513d601f19601f82011682018060405250810190610c4291906142c1565b90505b92915050565b610c62836000356001600160e01b03191633610d01565b610c7e5760405162461bcd60e51b815260040161082f906152f8565b60008381526001602081815260408084206001600160e01b031987168552600d0182528084206001600160a01b038616808652925292839020805460ff1916909217909155905184907face25d271ad11ee299595b3021629bae0349e370d7c2eb7c2dced6e4edb4786590610cf4908690614f63565b60405180910390a3505050565b60008381526001602090815260408083206001600160e01b031986168452600d0182528083206001600160a01b038516845290915281205460ff1680610d7457506000848152600160209081526040808320838052600d0182528083206001600160a01b038616845290915290205460ff165b90505b9392505050565b60009081526001602052604090205460ff1690565b60009081526001602052604090206006015490565b6000828152600160205260409020600c01546001600160a01b031680610de05760405162461bcd60e51b815260040161082f90614f93565b336001600160a01b0382161480610e095750610e09836000356001600160e01b03191633610d01565b610e255760405162461bcd60e51b815260040161082f90614ff0565b60008381526001602052604090819020600c0180546001600160a01b0319166001600160a01b038516179055517f66808241563a07166fd47b523591fa432148706dc0ddd255d49b69e71f1721ce90610ae190859084908690614ebc565b610e8b613db0565b60008281526001602052604090206109ca90612694565b610eb9836000356001600160e01b03191633610d01565b610ed55760405162461bcd60e51b815260040161082f906152f8565b60008381526001602090815260408083206001600160e01b031986168452600d0182528083206001600160a01b038516808552925291829020805460ff19169055905184907f42b1b0e7392ad606bb4f5b003296aba62f16e43aa9372f1f40c1522fa2655ffa90610cf4908690614f63565b6000828152600160208190526040909120015482906001600160a01b0316331480610f845750610f84816000356001600160e01b03191633610d01565b610fa05760405162461bcd60e51b815260040161082f906150aa565b610fc6610fb2368490038401846148ec565b600085815260016020526040902090612a31565b827fad3970329ffaec63d947adc6077368479a4be7f09f2e7ba1b13852f8405b3ec68360200135604051610ffa9190614eb3565b60405180910390a2505050565b60008181526001602052604090206060906109ca90612dd9565b6000828152600160208190526040909120015482906001600160a01b031633148061105e575061105e816000356001600160e01b03191633610d01565b61107a5760405162461bcd60e51b815260040161082f906150aa565b6000838152600160205260409081902080546001600160a01b03858116610100908102610100600160a81b03198416179093559251919004919091169084907fdaa92ae0693b6616f14ef5db4b7ee053d3234c0d03f7a1885589c6a6c2c75bdb9061099d9084908790614e3a565b6000828152600160205260409020600a01546001600160a01b0316806111205760405162461bcd60e51b815260040161082f9061529b565b336001600160a01b03821614806111495750611149836000356001600160e01b03191633610d01565b6111655760405162461bcd60e51b815260040161082f90615198565b60008381526001602052604090819020600a0180546001600160a01b0319166001600160a01b038516179055517f66808241563a07166fd47b523591fa432148706dc0ddd255d49b69e71f1721ce90610ae190859084908690614ebc565b6000828152600160205260408120610c429083612e6f565b3360009081526002602052604090205460ff1661120a5760405162461bcd60e51b815260040161082f90615144565b6112688961121d368a90038a018a6148ec565b88888080602002602001604051908101604052809392919081815260200183836020028082843760009201919091525061126092505050368990038901896147d6565b878787612e85565b600089815260016020526040908190209051638198ef6d60e01b815273__$5640c45a0bbbda400e9750313f59ad8ae1$__91638198ef6d916112af91908c906004016154a4565b60006040518083038186803b1580156112c757600080fd5b505af41580156112db573d6000803e3d6000fd5b50505050505050505050505050565b6112f2613e5f565b6000828152600160205260409081902090516379d346b760e01b815273__$5640c45a0bbbda400e9750313f59ad8ae1$__916379d346b7916113379190600401614eb3565b6108806040518083038186803b15801561135057600080fd5b505af4158015611364573d6000803e3d6000fd5b505050506040513d601f19601f820116820180604052508101906109ca919061451b565b611390614002565b600083815260016020526040908190209051633542f3e360e11b815273__$5640c45a0bbbda400e9750313f59ad8ae1$__91636a85e7c6916113d791908690600401615496565b60606040518083038186803b1580156113ef57600080fd5b505af4158015611403573d6000803e3d6000fd5b505050506040513d601f19601f82011682018060405250810190610c4291906148d1565b61142f612ffe565b6000546001600160a01b03908116911614611491576040805162461bcd60e51b815260206004820181905260248201527f4f776e61626c653a2063616c6c6572206973206e6f7420746865206f776e6572604482015290519081900360640190fd5b600080546040516001600160a01b03909116907f8be0079c531659141344cd1fd0a4f28419497f9722a3daafe3b4186f6b6457e0908390a3600080546001600160a01b0319169055565b6000808060f884901c60218111156114ef57fe5b92505067ffffffffffffffff83169050915091565b600061150e614025565b61152e8372636f6e74726163745265666572656e63655f3160681b611b70565b805190915015801590611550575060038160600151600481111561154e57fe5b145b156118cf5780516020820151604051631392c59160e11b81526001600160a01b038216906327258b2290611588908590600401614eb3565b60206040518083038186803b1580156115a057600080fd5b505afa1580156115b4573d6000803e3d6000fd5b505050506040513d601f19601f820116820180604052508101906115d8919061428d565b6115f45760405162461bcd60e51b815260040161082f9061539b565b600061160f866b65786572636973654461746560a01b6111c3565b90506000611636877518dc99591a5d115d995b9d151e5c1950dbdd995c995960521b612152565b60ff16600581111561164457fe5b90506000836001600160a01b031663cf5aed12866040518263ffffffff1660e01b81526004016116749190614f3e565b60206040518083038186803b15801561168c57600080fd5b505afa1580156116a0573d6000803e3d6000fd5b505050506040513d601f19601f820116820180604052508101906116c49190614a09565b60ff1660058111156116d257fe5b90506000846001600160a01b031663606aa07e876040518263ffffffff1660e01b81526004016117029190614f1b565b60206040518083038186803b15801561171a57600080fd5b505afa15801561172e573d6000803e3d6000fd5b505050506040513d601f19601f8201168201806040525081019061175291906142c1565b9050831561177357611765601a42611f7c565b9750505050505050506109cd565b600083600581111561178157fe5b141580156117a4575082600581111561179657fe5b8260058111156117a257fe5b145b156118c85760018260058111156117b757fe5b14156117c857611765601982611f7c565b60028260058111156117d657fe5b1415611880576117e4614002565b6040516337f2add560e11b81526001600160a01b03871690636fe55baa90611810908a90600401614edb565b60606040518083038186803b15801561182857600080fd5b505afa15801561183c573d6000803e3d6000fd5b505050506040513d601f19601f8201168201806040525081019061186091906148d1565b9050611871601961072c8385613002565b985050505050505050506109cd565b600382600581111561188e57fe5b14156118c85761189c614002565b6040516337f2add560e11b81526001600160a01b03871690636fe55baa90611810908a90600401614ef8565b5050505050505b50600092915050565b60008160218111156109ca57fe5b6000828152600160208190526040909120015482906001600160a01b03163314806119235750611923816000356001600160e01b03191633610d01565b61193f5760405162461bcd60e51b815260040161082f906150aa565b611965611951368490038401846148ec565b60008581526001602052604090209061311b565b827f0c71209d22d4c70a40140b94deee55f1f54a9353e3d5d5a4ddfb45fcddcf720f8360200135604051610ffa9190614eb3565b6000546001600160a01b031690565b60009081526001602052604090206005015490565b60009182526001602090815260408084209284526004909201905290205490565b6119e661404c565b6000838152600160205260409081902090516323c352cb60e11b815273__$5640c45a0bbbda400e9750313f59ad8ae1$__91634786a59691611a2d91908690600401615496565b60806040518083038186803b158015611a4557600080fd5b505af4158015611a59573d6000803e3d6000fd5b505050506040513d601f19601f82011682018060405250810190610c4291906148b6565b600090815260016020819052604090912001546001600160a01b031690565b60008281526001602052604080822090516313d0ad6960e31b815273__$5640c45a0bbbda400e9750313f59ad8ae1$__91639e856b4891610bf291908690600401615496565b6000818152600160205260408120600581015415611b3257600581015460068201541415611b145750600090506109cd565b600681015460009081526004909101602052604090205490506109cd565b6000611b3d846134e7565b50949350505050565b6000918252600160208181526040808520938552601090930190529120805491015460ff90911691565b611b78614025565b600083815260016020526040908190209051632fbc709f60e01b815273__$5640c45a0bbbda400e9750313f59ad8ae1$__91632fbc709f91611bbf91908690600401615496565b60806040518083038186803b158015611bd757600080fd5b505af4158015611beb573d6000803e3d6000fd5b505050506040513d601f19601f82011682018060405250810190610c429190614854565b611c26826000356001600160e01b03191633610d01565b611c425760405162461bcd60e51b815260040161082f9061504d565b60008281526001602052604090819020600b0180546001600160a01b038481166001600160a01b031983161790925591519116907fa7f38588f02421aa73988ed359aee27363c896e7cc3b6e634e4357f7ee408e2590610ae190859084908690614ebc565b6000908152600160205260409020600201546001600160a01b031690565b60008181526001602081905260408220015482906001600160a01b0316331480611d015750611d01816000356001600160e01b03191633610d01565b611d1d5760405162461bcd60e51b815260040161082f906150aa565b6000838152600160205260409020600581015415611d775760068101546000818152600483016020526040902054600583015490911415611d64575060009250610a439050565b6006909101805460010190559150610a43565b600080611d83866134e7565b909250905081611d9a575060009350610a43915050565b600080611da6846114db565b909250905060018315151415611dea5780600386016000846021811115611dc957fe5b6021811115611dd457fe5b8152602081019190915260400160002055611df2565b600885018490555b50919695505050505050565b60026020526000908152604090205460ff1681565b6000828152600160205260408120610c429083613921565b600082815260016020526040808220905163ee6a446f60e01b815273__$5640c45a0bbbda400e9750313f59ad8ae1$__9163ee6a446f91610bf291908690600401615496565b6000828152600160208190526040909120015482906001600160a01b0316331480611eae5750611eae816000356001600160e01b03191633610d01565b611eca5760405162461bcd60e51b815260040161082f906150aa565b5060009182526001602052604090912060070155565b6000838152600160208190526040909120015483906001600160a01b0316331480611f1d5750611f1d816000356001600160e01b03191633610d01565b611f395760405162461bcd60e51b815260040161082f906150aa565b50604080518082018252600180825260208083019485526000968752818152838720958752601090950190945293209251835460ff191690151517835551910155565b60008160f8846021811115611f8d57fe5b60ff16901b179392505050565b611fa261406d565b50600090815260016020908152604091829020825160808101845260098201546001600160a01b039081168252600a830154811693820193909352600b820154831693810193909352600c015416606082015290565b612000612ffe565b6000546001600160a01b03908116911614612062576040805162461bcd60e51b815260206004820181905260248201527f4f776e61626c653a2063616c6c6572206973206e6f7420746865206f776e6572604482015290519081900360640190fd5b6001600160a01b03166000908152600260205260409020805460ff19166001179055565b6000918252600160209081526040808420848052600d0182528084206001600160a01b0393909316845291905290205460ff1690565b6000828152600160205260408082209051637154b74160e11b815273__$5640c45a0bbbda400e9750313f59ad8ae1$__9163e2a96e829161210291908690600401615496565b60206040518083038186803b15801561211a57600080fd5b505af415801561212e573d6000803e3d6000fd5b505050506040513d601f19601f82011682018060405250810190610c429190614271565b6000828152600160205260408082209051630ac097cd60e21b815273__$5640c45a0bbbda400e9750313f59ad8ae1$__91632b025f349161219891908690600401615496565b60206040518083038186803b1580156121b057600080fd5b505af41580156121c4573d6000803e3d6000fd5b505050506040513d601f19601f82011682018060405250810190610c429190614a09565b60009081526001602052604090205461010090046001600160a01b031690565b612210612ffe565b6000546001600160a01b03908116911614612272576040805162461bcd60e51b815260206004820181905260248201527f4f776e61626c653a2063616c6c6572206973206e6f7420746865206f776e6572604482015290519081900360640190fd5b6001600160a01b0381166122b75760405162461bcd60e51b8152600401808060200182810382526026815260200180615a066026913960400191505060405180910390fd5b600080546040516001600160a01b03808516939216917f8be0079c531659141344cd1fd0a4f28419497f9722a3daafe3b4186f6b6457e091a3600080546001600160a01b0319166001600160a01b0392909216919091179055565b60009081526001602052604090206007015490565b61232f613db0565b604080516102e08101825272636f6e7472616374506572666f726d616e636560681b6000908152600f85016020529190912054819060f81c600581111561237257fe5b600581111561237d57fe5b8152697374617475734461746560b01b6000908152600f8501602081815260408084205482860152706e6f6e506572666f726d696e674461746560781b845282825280842054818601526b6d617475726974794461746560a01b84528282528084205460608601526b65786572636973654461746560a01b84528282528084205460808601526e7465726d696e6174696f6e4461746560881b84528282528084205460a0860152736c617374436f75706f6e466978696e674461746560601b84528282528084205460c0860152756c6173744469766964656e64466978696e674461746560501b84528282528084205460e0860152701b9bdd1a5bdb985b141c9a5b98da5c185b607a1b8452828252808420546101008601526e1858d8dc9d5959125b9d195c995cdd608a1b845282825280842054610120860152691999595058d8dc9d595960b21b845282825280842054610140860152726e6f6d696e616c496e7465726573745261746560681b8452828252808420546101608601527834b73a32b932b9ba29b1b0b634b733a6bab63a34b83634b2b960391b845282825280842054610180860152783737ba34b7b730b629b1b0b634b733a6bab63a34b83634b2b960391b8452828252808420546101a08601527f6e6578745072696e636970616c526564656d7074696f6e5061796d656e7400008452828252808420546101c08601526d195e195c98da5cd9505b5bdd5b9d60921b8452828252808420546101e08601526f65786572636973655175616e7469747960801b845282825280842054610200860152677175616e7469747960c01b8452828252808420546102208601527018dbdd5c1bdb905b5bdd5b9d119a5e1959607a1b8452828252808420546102408601526b36b0b933b4b72330b1ba37b960a11b8452828252808420546102608601526f30b2353ab9ba36b2b73a2330b1ba37b960811b84528282528084205461028086015274191a5d9a59195b9914185e5b595b9d105b5bdd5b9d605a1b8452828252808420546102a08601526973706c6974526174696f60b01b84529190529020546102c0909101529050919050565b61269c613db0565b604080516102e08101825274465f636f6e7472616374506572666f726d616e636560581b6000908152600f85016020529190912054819060f81c60058111156126e157fe5b60058111156126ec57fe5b81526b465f7374617475734461746560a01b6000908152600f850160208181526040808420548286015272465f6e6f6e506572666f726d696e674461746560681b845282825280842054818601526d465f6d617475726974794461746560901b84528282528084205460608601526d465f65786572636973654461746560901b845282825280842054608086015270465f7465726d696e6174696f6e4461746560781b84528282528084205460a086015275465f6c617374436f75706f6e466978696e674461746560501b84528282528084205460c086015277465f6c6173744469766964656e64466978696e674461746560401b84528282528084205460e0860152721197db9bdd1a5bdb985b141c9a5b98da5c185b606a1b845282825280842054610100860152701197d858d8dc9d5959125b9d195c995cdd607a1b8452828252808420546101208601526b1197d999595058d8dc9d595960a21b84528282528084205461014086015274465f6e6f6d696e616c496e7465726573745261746560581b8452828252808420546101608601527f465f696e7465726573745363616c696e674d756c7469706c69657200000000008452828252808420546101808601527f465f6e6f74696f6e616c5363616c696e674d756c7469706c69657200000000008452828252808420546101a08601527f465f6e6578745072696e636970616c526564656d7074696f6e5061796d656e748452828252808420546101c08601526f1197d95e195c98da5cd9505b5bdd5b9d60821b8452828252808420546101e086015271465f65786572636973655175616e7469747960701b84528282528084205461020086015269465f7175616e7469747960b01b845282825280842054610220860152721197d8dbdd5c1bdb905b5bdd5b9d119a5e1959606a1b8452828252808420546102408601526d232fb6b0b933b4b72330b1ba37b960911b84528282528084205461026086015271232fb0b2353ab9ba36b2b73a2330b1ba37b960711b845282825280842054610280860152761197d91a5d9a59195b9914185e5b595b9d105b5bdd5b9d604a1b8452828252808420546102a08601526b465f73706c6974526174696f60a01b84529190529020546102c0909101529050919050565b612a688272636f6e7472616374506572666f726d616e636560681b60f884600001516005811115612a5e57fe5b60ff16901b6139cd565b612a8782697374617475734461746560b01b836020015160001b6139cd565b612aad82706e6f6e506572666f726d696e674461746560781b836040015160001b6139cd565b612ace826b6d617475726974794461746560a01b836060015160001b6139cd565b612aef826b65786572636973654461746560a01b836080015160001b6139cd565b612b13826e7465726d696e6174696f6e4461746560881b8360a0015160001b6139cd565b612b3c82736c617374436f75706f6e466978696e674461746560601b8360c0015160001b6139cd565b612b6782756c6173744469766964656e64466978696e674461746560501b8360e0015160001b6139cd565b612b8e82701b9bdd1a5bdb985b141c9a5b98da5c185b607a1b83610100015160001b6139cd565b612bb3826e1858d8dc9d5959125b9d195c995cdd608a1b83610120015160001b6139cd565b612bd382691999595058d8dc9d595960b21b83610140015160001b6139cd565b612bfc82726e6f6d696e616c496e7465726573745261746560681b83610160015160001b6139cd565b612c2b827834b73a32b932b9ba29b1b0b634b733a6bab63a34b83634b2b960391b83610180015160001b6139cd565b612c5a82783737ba34b7b730b629b1b0b634b733a6bab63a34b83634b2b960391b836101a0015160001b6139cd565b612c8d827f6e6578745072696e636970616c526564656d7074696f6e5061796d656e740000836101c0015160001b6139cd565b612cb1826d195e195c98da5cd9505b5bdd5b9d60921b836101e0015160001b6139cd565b612cd7826f65786572636973655175616e7469747960801b83610200015160001b6139cd565b612cfd826f65786572636973655175616e7469747960801b83610200015160001b6139cd565b612d1b82677175616e7469747960c01b83610220015160001b6139cd565b612d42827018dbdd5c1bdb905b5bdd5b9d119a5e1959607a1b83610240015160001b6139cd565b612d64826b36b0b933b4b72330b1ba37b960a11b83610260015160001b6139cd565b612d8a826f30b2353ab9ba36b2b73a2330b1ba37b960811b83610280015160001b6139cd565b612db58274191a5d9a59195b9914185e5b595b9d105b5bdd5b9d605a1b836102a0015160001b6139cd565b612dd5826973706c6974526174696f60b01b836102c0015160001b6139cd565b5050565b606080826003016002015467ffffffffffffffff81118015612dfa57600080fd5b50604051908082528060200260200182016040528015612e24578160200160208202803683370190505b50905060005b6005840154811015612e685760008181526004850160205260409020548251839083908110612e5557fe5b6020908102919091010152600101612e2a565b5092915050565b6000908152600f91909101602052604090205490565b6000878152600160205260409020805460ff1615612eb55760405162461bcd60e51b815260040161082f906150f9565b6001600160a01b03831660009081526002602052604090205460ff161515600114612ef25760405162461bcd60e51b815260040161082f906151f5565b805485516009830180546001600160a01b03199081166001600160a01b03938416179091556020880151600a8501805483169184169190911790556040880151600b8501805483169184169190911790556060880151600c85018054831691841691909117905560ff199092166001908117610100600160a81b0319166101008884160217845583018054909216908516179055612f908188612a31565b612f9a818861311b565b612fa48187613a03565b6001600160a01b03821615612fbd57612fbd8883613a6b565b7f5e73a3e4a3f69f1056f05ffd00ff11bf3835158ba0ebd5ad3b994065fcd8964688604051612fec9190614eb3565b60405180910390a15050505050505050565b3390565b600080808460200151600581111561301657fe5b1415613030578351613029908490613ae2565b9050610c42565b60018460200151600581111561304257fe5b141561306057835161302990613059906007613af7565b8490613ae2565b60028460200151600581111561307257fe5b1415613085578351613029908490613b50565b60038460200151600581111561309757fe5b14156130b5578351613029906130ae906003613af7565b8490613b50565b6004846020015160058111156130c757fe5b14156130de578351613029906130ae906006613af7565b6005846020015160058111156130f057fe5b1415613103578351613029908490613bcc565b60405162461bcd60e51b815260040161082f9061523e565b61314a8274465f636f6e7472616374506572666f726d616e636560581b60f884600001516005811115612a5e57fe5b61316b826b465f7374617475734461746560a01b836020015160001b6139cd565b6131938272465f6e6f6e506572666f726d696e674461746560681b836040015160001b6139cd565b6131b6826d465f6d617475726974794461746560901b836060015160001b6139cd565b6131d9826d465f65786572636973654461746560901b836080015160001b6139cd565b6131ff8270465f7465726d696e6174696f6e4461746560781b8360a0015160001b6139cd565b61322a8275465f6c617374436f75706f6e466978696e674461746560501b8360c0015160001b6139cd565b6132578277465f6c6173744469766964656e64466978696e674461746560401b8360e0015160001b6139cd565b61328082721197db9bdd1a5bdb985b141c9a5b98da5c185b606a1b83610100015160001b6139cd565b6132a782701197d858d8dc9d5959125b9d195c995cdd607a1b83610120015160001b6139cd565b6132c9826b1197d999595058d8dc9d595960a21b83610140015160001b6139cd565b6132f48274465f6e6f6d696e616c496e7465726573745261746560581b83610160015160001b6139cd565b613327827f465f696e7465726573745363616c696e674d756c7469706c696572000000000083610180015160001b6139cd565b61335a827f465f6e6f74696f6e616c5363616c696e674d756c7469706c6965720000000000836101a0015160001b6139cd565b61338d827f465f6e6578745072696e636970616c526564656d7074696f6e5061796d656e74836101c0015160001b6139cd565b6133b3826f1197d95e195c98da5cd9505b5bdd5b9d60821b836101e0015160001b6139cd565b6133db8271465f65786572636973655175616e7469747960701b83610200015160001b6139cd565b6134038271465f65786572636973655175616e7469747960701b83610200015160001b6139cd565b6134238269465f7175616e7469747960b01b83610220015160001b6139cd565b61344c82721197d8dbdd5c1bdb905b5bdd5b9d119a5e1959606a1b83610240015160001b6139cd565b613470826d232fb6b0b933b4b72330b1ba37b960911b83610260015160001b6139cd565b6134988271232fb0b2353ab9ba36b2b73a2330b1ba37b960711b83610280015160001b6139cd565b6134c582761197d91a5d9a59195b9914185e5b595b9d105b5bdd5b9d604a1b836102a0015160001b6139cd565b612dd5826b465f73706c6974526174696f60a01b836102c0015160001b6139cd565b600081815260016020526040812081906134ff613e5f565b6040516379d346b760e01b815273__$5640c45a0bbbda400e9750313f59ad8ae1$__906379d346b790613536908590600401614eb3565b6108806040518083038186803b15801561354f57600080fd5b505af4158015613563573d6000803e3d6000fd5b505050506040513d601f19601f82011682018060405250810190613587919061451b565b8254600a600081815260038601602052604080822054905163e2a9e66b60e01b8152949550909384936001938593849361362f9361010090046001600160a01b03169263e2a9e66b926135df928c929060040161542f565b60206040518083038186803b1580156135f757600080fd5b505afa15801561360b573d6000803e3d6000fd5b505050506040513d601f19601f8201168201806040525081019061055891906142c1565b91509150836000148061364157508381105b8061366557508084148015613665575061365a856118d8565b613663836118d8565b105b15613671578093508194505b50508454600b600081815260038801602052604080822054905163e2a9e66b60e01b8152919384936136c2936101009092046001600160a01b03169263e2a9e66b926135df928c929160040161542f565b9150915083600014806136de575080158015906136de57508381105b8061370d575080158015906136f257508084145b801561370d5750613702856118d8565b61370b836118d8565b105b15613719578093508194505b505084546005600081815260038801602052604080822054905163e2a9e66b60e01b81529193849361376a936101009092046001600160a01b03169263e2a9e66b926135df928c929160040161542f565b9150915083600014806137865750801580159061378657508381105b806137b55750801580159061379a57508084145b80156137b557506137aa856118d8565b6137b3836118d8565b105b156137c1578093508194505b505084546006600081815260038801602052604080822054905163e2a9e66b60e01b815291938493613812936101009092046001600160a01b03169263e2a9e66b926135df928c929160040161542f565b91509150836000148061382e5750801580159061382e57508381105b8061385d5750801580159061384257508084145b801561385d5750613852856118d8565b61385b836118d8565b105b15613869578093508194505b505084546008860154604051638f79db1b60e01b815260009283926138ad926101009092046001600160a01b031691638f79db1b916135df918b9190600401615412565b9150915083600014806138c9575080158015906138c957508381105b806138f8575080158015906138dd57508084145b80156138f857506138ed856118d8565b6138f6836118d8565b105b1561390857809350819450600092505b50506139148383611f7c565b9650945050505050915091565b600072636f6e7472616374506572666f726d616e636560681b821415613972575072636f6e7472616374506572666f726d616e636560681b6000908152600f8301602052604090205460f81c610c45565b74465f636f6e7472616374506572666f726d616e636560581b8214156139c5575074465f636f6e7472616374506572666f726d616e636560581b6000908152600f8301602052604090205460f81c610c45565b506000610c45565b6000828152600f840160205260409020548114156139ea576139fe565b6000828152600f8401602052604090208190555b505050565b60005b81518110156139fe576000801b828281518110613a1f57fe5b60200260200101511415613a32576139fe565b818181518110613a3e57fe5b60209081029190910181015160008381526004860190925260409091205560010160058301819055613a06565b6000828152600160208181526040808420848052600d0182528084206001600160a01b0386168086529252808420805460ff19169093179092559051909184917face25d271ad11ee299595b3021629bae0349e370d7c2eb7c2dced6e4edb4786591613ad691614f63565b60405180910390a35050565b620151808102820182811015610c4557600080fd5b600082613b0657506000610c45565b82820282848281613b1357fe5b0414610c425760405162461bcd60e51b8152600401808060200182810382526021815260200180615a2c6021913960400191505060405180910390fd5b6000808080613b6462015180875b04613bf3565b600c918801600019810183810494909401965094509250900660010191506000613b8e8484613c89565b905080821115613b9c578091505b62015180870662015180613bb1868686613d0f565b0201945086851015613bc257600080fd5b5050505092915050565b6000808080613bde6201518087613b5e565b9187019450925090506000613b8e8484613c89565b60008080836226496581018262023ab1600483020590506004600362023ab18302010590910390600062164b09610fa0600185010205905060046105b58202058303601f019250600061098f8460500281613c4a57fe5b0590506000605061098f83020585039050600b820560301994909401606402929092018301996002600c90940290910392909201975095509350505050565b60008160011480613c9a5750816003145b80613ca55750816005145b80613cb05750816007145b80613cbb5750816008145b80613cc6575081600a145b80613cd1575081600c145b15613cde5750601f610c45565b81600214613cee5750601e610c45565b613cf783613d8b565b613d0257601c613d05565b601d5b60ff169392505050565b60006107b2841015613d2057600080fd5b838383600062253d8c600460036064611324600c600d19890105890101050205600c80600d19870105600c02600287030361016f0281613d5c57fe5b0560046105b5600c600d1989010589016112c0010205617d4b8603010103039050809450505050509392505050565b600060048206158015613da057506064820615155b806109ca57505061019090061590565b604080516102e081019091528060008152602001600081526020016000815260200160008152602001600081526020016000815260200160008152602001600081526020016000815260200160008152602001600081526020016000815260200160008152602001600081526020016000815260200160008152602001600081526020016000815260200160008152602001600081526020016000815260200160008152602001600081525090565b6040805161062081019091528060008152602001600081526020016000815260200160008152602001600081526020016000815260200160008152602001600081526020016000815260200160006001600160a01b0316815260200160006001600160a01b0316815260200160008019168152602001600081526020016000815260200160008152602001600081526020016000815260200160008152602001600081526020016000815260200160008152602001600081526020016000815260200160008152602001600081526020016000815260200160008152602001600081526020016000815260200160008152602001600081526020016000815260200160008152602001600081526020016000815260200160008152602001600081526020016000815260200160008152602001600081526020016000815260200160008152602001613faf614002565b8152602001613fbc614002565b8152602001613fc961404c565b8152602001613fd661404c565b8152602001613fe361404c565b8152602001613ff061404c565b8152602001613ffd61404c565b905290565b6040805160608101909152600080825260208201905b8152600060209091015290565b60408051608081018252600080825260208201819052909182019081526020016000613ffd565b60408051608081019091526000808252602082019081526020016000614018565b60408051608081018252600080825260208201819052918101829052606081019190915290565b80356109cd81615987565b80516109cd81615987565b80356109cd816159aa565b80516109cd816159aa565b80356109cd816159b7565b80516109cd816159b7565b80356109cd816159c4565b80356109cd816159de565b80516109cd816159de565b80356109cd816159eb565b80516109cd816159eb565b80516109cd816159c4565b8035602281106109cd57600080fd5b80356109cd816159f8565b80516109cd816159f8565b60006108808284031215610a43578081fd5b600060808284031215610a43578081fd5b600060808284031215614171578081fd5b6040516080810181811067ffffffffffffffff8211171561418e57fe5b80604052508091508251815260208301516141a8816159c4565b602082015260408301516141bb816159b7565b604082015260608301516141ce8161599c565b6060919091015292915050565b6000606082840312156141ec578081fd5b6040516060810181811067ffffffffffffffff8211171561420957fe5b8060405250809150825181526020830151614223816159c4565b602082015260408301516142368161599c565b6040919091015292915050565b60006102e08284031215610a43578081fd5b600060208284031215614266578081fd5b8135610c4281615987565b600060208284031215614282578081fd5b8151610c4281615987565b60006020828403121561429e578081fd5b8151610c428161599c565b6000602082840312156142ba578081fd5b5035919050565b6000602082840312156142d2578081fd5b5051919050565b600080604083850312156142eb578081fd5b8235915060208301356142fd81615987565b809150509250929050565b6000806040838503121561431a578182fd5b50508035926020909101359150565b60008060006060848603121561433d578081fd5b505081359360208301359350604090920135919050565b600080600060608486031215614368578081fd5b8335925060208401356001600160e01b031981168114614386578182fd5b9150604084013561439681615987565b809150509250925092565b6000806108a083850312156143b4578182fd5b823591506143c5846020850161413d565b90509250929050565b6000806000806000806000806000610c808a8c0312156143ec578687fd5b893598506143fd8b60208c0161413d565b975061440d8b6108a08c01614243565b9650610b808a013567ffffffffffffffff8082111561442a578687fd5b818c0191508c601f83011261443d578687fd5b81358181111561444b578788fd5b8d6020808302850101111561445e578788fd5b6020830198508097505050506144788b610ba08c0161414f565b9350614487610c208b01614094565b9250614496610c408b01614094565b91506144a5610c608b01614094565b90509295985092959850929598565b60008061030083850312156144c7578182fd5b823591506143c58460208501614243565b6000602082840312156144e9578081fd5b610c4282614118565b60008060408385031215614504578182fd5b61450d83614118565b946020939093013593505050565b6000610880828403121561452d578081fd5b614538610620615942565b61454183614102565b815261454f602084016140cb565b6020820152614560604084016140ec565b60408201526145716060840161410d565b6060820152614582608084016140b5565b608082015261459360a084016140cb565b60a08201526145a460c08401614132565b60c08201526145b560e08401614132565b60e08201526101006145c88185016140cb565b908201526101206145da84820161409f565b908201526101406145ec84820161409f565b90820152610160838101519082015261018080840151908201526101a080840151908201526101c080840151908201526101e08084015190820152610200808401519082015261022080840151908201526102408084015190820152610260808401519082015261028080840151908201526102a080840151908201526102c080840151908201526102e08084015190820152610300808401519082015261032080840151908201526103408084015190820152610360808401519082015261038080840151908201526103a080840151908201526103c080840151908201526103e08084015190820152610400808401519082015261042080840151908201526104408084015190820152610460808401519082015261048080840151908201526104a080840151908201526104c080840151908201526104e0808401519082015261050080840151908201526105208084015190820152610540614754858286016141db565b908201526105a0614767858583016141db565b61056083015261060061477c86828701614160565b610580840152614790866106808701614160565b828401526147a2866107008701614160565b6105c08401526147b6866107808701614160565b6105e08401526147ca866108008701614160565b90830152509392505050565b6000608082840312156147e7578081fd5b6040516080810181811067ffffffffffffffff8211171561480457fe5b604052823561481281615987565b8152602083013561482281615987565b6020820152604083013561483581615987565b6040820152606083013561484881615987565b60608201529392505050565b600060808284031215614865578081fd5b6040516080810181811067ffffffffffffffff8211171561488257fe5b8060405250825181526020830151602082015260408301516148a3816159d1565b60408201526060830151614848816159d1565b6000608082840312156148c7578081fd5b610c428383614160565b6000606082840312156148e2578081fd5b610c4283836141db565b60006102e08083850312156148ff578182fd5b61490881615942565b9050614913836140d6565b81526020838101359082015260408084013590820152606080840135908201526080808401359082015260a0808401359082015260c0808401359082015260e08084013590820152610100808401359082015261012080840135908201526101408084013590820152610160808401359082015261018080840135908201526101a080840135908201526101c080840135908201526101e08084013590820152610200808401359082015261022080840135908201526102408084013590820152610260808401359082015261028080840135908201526102a080840135908201526102c0928301359281019290925250919050565b600060208284031215614a1a578081fd5b815160ff81168114610c42578182fd5b6001600160a01b03169052565b60098110614a4157fe5b9052565b614a4181615966565b614a4181615973565b600d8110614a4157fe5b60138110614a4157fe5b60228110614a4157fe5b60048110614a4157fe5b614a8a828251614a61565b6020810151614a9c6020840182614a45565b506040810151614aaf6040840182614a57565b506060810151614ac26060840182614a4e565b506080810151614ad56080840182614a37565b5060a0810151614ae860a0840182614a45565b5060c0810151614afb60c0840182614a75565b5060e0810151614b0e60e0840182614a75565b5061010080820151614b2282850182614a45565b505061012080820151614b3782850182614a2a565b505061014080820151614b4c82850182614a2a565b5050610160818101519083015261018080820151908301526101a080820151908301526101c080820151908301526101e08082015190830152610200808201519083015261022080820151908301526102408082015190830152610260808201519083015261028080820151908301526102a080820151908301526102c080820151908301526102e08082015190830152610300808201519083015261032080820151908301526103408082015190830152610360808201519083015261038080820151908301526103a080820151908301526103c080820151908301526103e08082015190830152610400808201519083015261042080820151908301526104408082015190830152610460808201519083015261048080820151908301526104a080820151908301526104c080820151908301526104e080820151908301526105008082015190830152610520808201519083015261054080820151614cb682850182614e02565b50506105608101516105a0614ccd81850183614e02565b6105808301519150610600614ce481860184614d90565b818401519250614cf8610680860184614d90565b6105c08401519250614d0e610700860184614d90565b6105e08401519250614d24610780860184614d90565b83015191506139fe9050610800840182614d90565b803582526020810135614d4b816159c4565b614d5481615973565b60208301526040810135614d67816159b7565b614d7081615966565b60408301526060810135614d838161599c565b8015156060840152505050565b805182526020810151614da281615973565b60208301526040810151614db581615966565b60408301526060908101511515910152565b803582526020810135614dd9816159c4565b614de281615973565b60208301526040810135614df58161599c565b8015156040840152505050565b805182526020810151614e1481615973565b60208301526040908101511515910152565b6001600160a01b0391909116815260200190565b6001600160a01b0392831681529116602082015260400190565b6020808252825182820181905260009190848201906040850190845b81811015614e8c57835183529284019291840191600101614e70565b50909695505050505050565b901515815260200190565b9115158252602082015260400190565b90815260200190565b9283526001600160a01b03918216602084015216604082015260600190565b9081526a19dc9858d954195c9a5bd960aa1b602082015260400190565b9081527019195b1a5b9c5d595b98de54195c9a5bd9607a1b602082015260400190565b908152706e6f6e506572666f726d696e674461746560781b602082015260400190565b90815272636f6e7472616374506572666f726d616e636560681b602082015260400190565b6001600160e01b031991909116815260200190565b60408101614f868285614a6b565b8260208301529392505050565b6020808252603e908201527f417373657452656769737472792e736574436f756e746572706172747942656e60408201527f65666963696172793a20454e5452595f444f45535f4e4f545f45584953540000606082015260800190565b6020808252603d908201527f417373657452656769737472792e736574436f756e746572706172747942656e60408201527f65666963696172793a20554e415554484f52495a45445f53454e444552000000606082015260800190565b60208082526039908201527f417373657452656769737472792e736574436f756e74657270617274794f626c60408201527f69676f723a20554e415554484f52495a45445f53454e44455200000000000000606082015260800190565b6020808252602f908201527f416363657373436f6e74726f6c2e6973417574686f72697a65643a20554e415560408201526e2a2427a924ad22a22fa9a2a72222a960891b606082015260800190565b6020808252602b908201527f4261736552656769737472792e73657441737365743a2041535345545f414c5260408201526a454144595f45584953545360a81b606082015260800190565b60208082526034908201527f4261736552656769737472792e6f6e6c79417070726f7665644163746f72733a604082015273102aa720aaaa2427a924ad22a22fa9a2a72222a960611b606082015260800190565b60208082526038908201527f417373657452656769737472792e73657443726561746f7242656e656669636960408201527f6172793a20554e415554484f52495a45445f53454e4445520000000000000000606082015260800190565b60208082526029908201527f4261736552656769737472792e73657441737365743a204143544f525f4e4f5460408201526817d054141493d5915160ba1b606082015260800190565b60208082526037908201527f506572696f645574696c732e67657454696d657374616d70506c75735065726960408201527f6f643a204154545249425554455f4e4f545f464f554e44000000000000000000606082015260800190565b60208082526039908201527f417373657452656769737472792e73657443726561746f7242656e656669636960408201527f6172793a20454e5452595f444f45535f4e4f545f455849535400000000000000606082015260800190565b6020808252602f908201527f416363657373436f6e74726f6c2e7265766f6b654163636573733a20554e415560408201526e2a2427a924ad22a22fa9a2a72222a960891b606082015260800190565b60208082526034908201527f417373657452656769737472792e73657443726561746f724f626c69676f723a604082015273102aa720aaaa2427a924ad22a22fa9a2a72222a960611b606082015260800190565b60208082526042908201527f41737365744163746f722e6765744e657874556e6465726c79696e674576656e60408201527f743a20554e4445524c59494e475f41535345545f444f45535f4e4f545f45584960608201526114d560f21b608082015260a00190565b6108808101610c458284614a7f565b6108a081016154218285614a7f565b826108808301529392505050565b6108c0810161543e8286614a7f565b836108808301526154536108a0830184614a6b565b949350505050565b81516001600160a01b039081168252602080840151821690830152604080840151821690830152606092830151169181019190915260800190565b918252602082015260400190565b8281526108a081016154c1602083016154bc856140f7565b614a61565b6154cd602084016140c0565b6154da6040840182614a45565b506154e7604084016140e1565b6154f46060840182614a57565b50615501606084016140d6565b61550e6080840182614a4e565b5061551b608084016140aa565b61552860a0840182614a37565b5061553560a084016140c0565b61554260c0840182614a45565b5061554f60c08401614127565b61555c60e0840182614a75565b5061556960e08401614127565b61010061557881850183614a75565b6155838186016140c0565b91505061012061559581850183614a45565b6155a0818601614094565b9150506101406155b281850183614a2a565b6155bd818601614094565b9150506101606155cf81850183614a2a565b61018091508085013582850152506101a081850135818501526101c091508085013582850152506101e08185013581850152610200915080850135828501525061022081850135818501526102409150808501358285015250610260818501358185015261028091508085013582850152506102a081850135818501526102c091508085013582850152506102e08185013581850152610300915080850135828501525061032081850135818501526103409150808501358285015250610360818501358185015261038091508085013582850152506103a081850135818501526103c091508085013582850152506103e08185013581850152610400915080850135828501525061042081850135818501526104409150808501358285015250610460818501358185015261048091508085013582850152506104a081850135818501526104c091508085013582850152506104e081850135818501526105009150808501358285015250610520818501358185015261054091508085013582850152506157646105608401828601614dc7565b506157776105c083016105a08501614dc7565b61578961062083016106008501614d39565b61579b6106a083016106808501614d39565b6157ad61072083016107008501614d39565b6157bf6107a083016107808501614d39565b610d7761082083016108008501614d39565b8151815260208083015190820152604082015160808201906157f28161597d565b604083015260608301516158058161597d565b8060608401525092915050565b60808101610c458284614d90565b60608101610c458284614e02565b60006102e082019050615842828451614a4e565b6020838101519083015260408084015190830152606080840151908301526080808401519083015260a0808401519083015260c0808401519083015260e08084015190830152610100808401519083015261012080840151908301526101408084015190830152610160808401519083015261018080840151908301526101a080840151908301526101c080840151908301526101e08084015190830152610200808401519083015261022080840151908301526102408084015190830152610260808401519083015261028080840151908301526102a080840151908301526102c092830151929091019190915290565b60ff91909116815260200190565b60405181810167ffffffffffffffff8111828210171561595e57fe5b604052919050565b6002811061597057fe5b50565b6006811061597057fe5b6005811061597057fe5b6001600160a01b038116811461597057600080fd5b801515811461597057600080fd5b6009811061597057600080fd5b6002811061597057600080fd5b6006811061597057600080fd5b6005811061597057600080fd5b600d811061597057600080fd5b6013811061597057600080fd5b6004811061597057600080fdfe4f776e61626c653a206e6577206f776e657220697320746865207a65726f2061646472657373536166654d6174683a206d756c7469706c69636174696f6e206f766572666c6f77a264697066735822122003ac80dac6c9ad5e8985c9c0c5ba1303bbac9340b389429f64449875f055e06864736f6c63430007040033",
  "linkReferences": {
    "contracts/Core/ANN/ANNEncoder.sol": {
      "ANNEncoder": [
        {
          "length": 20,
          "start": 2264
        },
        {
          "length": 20,
          "start": 3147
        },
        {
          "length": 20,
          "start": 4872
        },
        {
          "length": 20,
          "start": 5010
        },
        {
          "length": 20,
          "start": 5168
        },
        {
          "length": 20,
          "start": 6790
        },
        {
          "length": 20,
          "start": 6971
        },
        {
          "length": 20,
          "start": 7192
        },
        {
          "length": 20,
          "start": 7882
        },
        {
          "length": 20,
          "start": 8539
        },
        {
          "length": 20,
          "start": 8689
        },
        {
          "length": 20,
          "start": 13712
        }
      ]
    }
  },
  "deployedLinkReferences": {
    "contracts/Core/ANN/ANNEncoder.sol": {
      "ANNEncoder": [
        {
          "length": 20,
          "start": 2134
        },
        {
          "length": 20,
          "start": 3017
        },
        {
          "length": 20,
          "start": 4742
        },
        {
          "length": 20,
          "start": 4880
        },
        {
          "length": 20,
          "start": 5038
        },
        {
          "length": 20,
          "start": 6660
        },
        {
          "length": 20,
          "start": 6841
        },
        {
          "length": 20,
          "start": 7062
        },
        {
          "length": 20,
          "start": 7752
        },
        {
          "length": 20,
          "start": 8409
        },
        {
          "length": 20,
          "start": 8559
        },
        {
          "length": 20,
          "start": 13582
        }
      ]
    }
  }
}