{
  "_format": "hh-sol-artifact-1",
  "contractName": "UniswapAnchoredView",
  "sourceName": "contracts/OracleProxy/external/Compound/Uniswap/UniswapAnchoredView.sol",
  "abi": [
    {
      "inputs": [
        {
          "internalType": "contract OpenOraclePriceData",
          "name": "priceData_",
          "type": "address"
        },
        {
          "internalType": "address",
          "name": "reporter_",
          "type": "address"
        },
        {
          "internalType": "uint256",
          "name": "anchorToleranceMantissa_",
          "type": "uint256"
        },
        {
          "internalType": "uint256",
          "name": "anchorPeriod_",
          "type": "uint256"
        },
        {
          "components": [
            {
              "internalType": "address",
              "name": "cToken",
              "type": "address"
            },
            {
              "internalType": "address",
              "name": "underlying",
              "type": "address"
            },
            {
              "internalType": "bytes32",
              "name": "symbolHash",
              "type": "bytes32"
            },
            {
              "internalType": "uint256",
              "name": "baseUnit",
              "type": "uint256"
            },
            {
              "internalType": "enum UniswapConfig.PriceSource",
              "name": "priceSource",
              "type": "uint8"
            },
            {
              "internalType": "uint256",
              "name": "fixedPrice",
              "type": "uint256"
            },
            {
              "internalType": "address",
              "name": "uniswapMarket",
              "type": "address"
            },
            {
              "internalType": "bool",
              "name": "isUniswapReversed",
              "type": "bool"
            }
          ],
          "internalType": "struct UniswapConfig.TokenConfig[]",
          "name": "configs",
          "type": "tuple[]"
        }
      ],
      "stateMutability": "nonpayable",
      "type": "constructor"
    },
    {
      "anonymous": false,
      "inputs": [
        {
          "indexed": false,
          "internalType": "string",
          "name": "symbol",
          "type": "string"
        },
        {
          "indexed": false,
          "internalType": "uint256",
          "name": "anchorPrice",
          "type": "uint256"
        },
        {
          "indexed": false,
          "internalType": "uint256",
          "name": "oldTimestamp",
          "type": "uint256"
        },
        {
          "indexed": false,
          "internalType": "uint256",
          "name": "newTimestamp",
          "type": "uint256"
        }
      ],
      "name": "AnchorPriceUpdated",
      "type": "event"
    },
    {
      "anonymous": false,
      "inputs": [
        {
          "indexed": false,
          "internalType": "string",
          "name": "symbol",
          "type": "string"
        },
        {
          "indexed": false,
          "internalType": "uint256",
          "name": "reporter",
          "type": "uint256"
        },
        {
          "indexed": false,
          "internalType": "uint256",
          "name": "anchor",
          "type": "uint256"
        }
      ],
      "name": "PriceGuarded",
      "type": "event"
    },
    {
      "anonymous": false,
      "inputs": [
        {
          "indexed": false,
          "internalType": "string",
          "name": "symbol",
          "type": "string"
        },
        {
          "indexed": false,
          "internalType": "uint256",
          "name": "price",
          "type": "uint256"
        }
      ],
      "name": "PriceUpdated",
      "type": "event"
    },
    {
      "anonymous": false,
      "inputs": [
        {
          "indexed": false,
          "internalType": "address",
          "name": "reporter",
          "type": "address"
        }
      ],
      "name": "ReporterInvalidated",
      "type": "event"
    },
    {
      "anonymous": false,
      "inputs": [
        {
          "indexed": true,
          "internalType": "bytes32",
          "name": "symbolHash",
          "type": "bytes32"
        },
        {
          "indexed": false,
          "internalType": "uint256",
          "name": "oldTimestamp",
          "type": "uint256"
        },
        {
          "indexed": false,
          "internalType": "uint256",
          "name": "newTimestamp",
          "type": "uint256"
        },
        {
          "indexed": false,
          "internalType": "uint256",
          "name": "oldPrice",
          "type": "uint256"
        },
        {
          "indexed": false,
          "internalType": "uint256",
          "name": "newPrice",
          "type": "uint256"
        }
      ],
      "name": "UniswapWindowUpdated",
      "type": "event"
    },
    {
      "inputs": [],
      "name": "anchorPeriod",
      "outputs": [
        {
          "internalType": "uint256",
          "name": "",
          "type": "uint256"
        }
      ],
      "stateMutability": "view",
      "type": "function"
    },
    {
      "inputs": [],
      "name": "ethBaseUnit",
      "outputs": [
        {
          "internalType": "uint256",
          "name": "",
          "type": "uint256"
        }
      ],
      "stateMutability": "view",
      "type": "function"
    },
    {
      "inputs": [],
      "name": "expScale",
      "outputs": [
        {
          "internalType": "uint256",
          "name": "",
          "type": "uint256"
        }
      ],
      "stateMutability": "view",
      "type": "function"
    },
    {
      "inputs": [
        {
          "internalType": "uint256",
          "name": "i",
          "type": "uint256"
        }
      ],
      "name": "getTokenConfig",
      "outputs": [
        {
          "components": [
            {
              "internalType": "address",
              "name": "cToken",
              "type": "address"
            },
            {
              "internalType": "address",
              "name": "underlying",
              "type": "address"
            },
            {
              "internalType": "bytes32",
              "name": "symbolHash",
              "type": "bytes32"
            },
            {
              "internalType": "uint256",
              "name": "baseUnit",
              "type": "uint256"
            },
            {
              "internalType": "enum UniswapConfig.PriceSource",
              "name": "priceSource",
              "type": "uint8"
            },
            {
              "internalType": "uint256",
              "name": "fixedPrice",
              "type": "uint256"
            },
            {
              "internalType": "address",
              "name": "uniswapMarket",
              "type": "address"
            },
            {
              "internalType": "bool",
              "name": "isUniswapReversed",
              "type": "bool"
            }
          ],
          "internalType": "struct UniswapConfig.TokenConfig",
          "name": "",
          "type": "tuple"
        }
      ],
      "stateMutability": "view",
      "type": "function"
    },
    {
      "inputs": [
        {
          "internalType": "address",
          "name": "cToken",
          "type": "address"
        }
      ],
      "name": "getTokenConfigByCToken",
      "outputs": [
        {
          "components": [
            {
              "internalType": "address",
              "name": "cToken",
              "type": "address"
            },
            {
              "internalType": "address",
              "name": "underlying",
              "type": "address"
            },
            {
              "internalType": "bytes32",
              "name": "symbolHash",
              "type": "bytes32"
            },
            {
              "internalType": "uint256",
              "name": "baseUnit",
              "type": "uint256"
            },
            {
              "internalType": "enum UniswapConfig.PriceSource",
              "name": "priceSource",
              "type": "uint8"
            },
            {
              "internalType": "uint256",
              "name": "fixedPrice",
              "type": "uint256"
            },
            {
              "internalType": "address",
              "name": "uniswapMarket",
              "type": "address"
            },
            {
              "internalType": "bool",
              "name": "isUniswapReversed",
              "type": "bool"
            }
          ],
          "internalType": "struct UniswapConfig.TokenConfig",
          "name": "",
          "type": "tuple"
        }
      ],
      "stateMutability": "view",
      "type": "function"
    },
    {
      "inputs": [
        {
          "internalType": "string",
          "name": "symbol",
          "type": "string"
        }
      ],
      "name": "getTokenConfigBySymbol",
      "outputs": [
        {
          "components": [
            {
              "internalType": "address",
              "name": "cToken",
              "type": "address"
            },
            {
              "internalType": "address",
              "name": "underlying",
              "type": "address"
            },
            {
              "internalType": "bytes32",
              "name": "symbolHash",
              "type": "bytes32"
            },
            {
              "internalType": "uint256",
              "name": "baseUnit",
              "type": "uint256"
            },
            {
              "internalType": "enum UniswapConfig.PriceSource",
              "name": "priceSource",
              "type": "uint8"
            },
            {
              "internalType": "uint256",
              "name": "fixedPrice",
              "type": "uint256"
            },
            {
              "internalType": "address",
              "name": "uniswapMarket",
              "type": "address"
            },
            {
              "internalType": "bool",
              "name": "isUniswapReversed",
              "type": "bool"
            }
          ],
          "internalType": "struct UniswapConfig.TokenConfig",
          "name": "",
          "type": "tuple"
        }
      ],
      "stateMutability": "view",
      "type": "function"
    },
    {
      "inputs": [
        {
          "internalType": "bytes32",
          "name": "symbolHash",
          "type": "bytes32"
        }
      ],
      "name": "getTokenConfigBySymbolHash",
      "outputs": [
        {
          "components": [
            {
              "internalType": "address",
              "name": "cToken",
              "type": "address"
            },
            {
              "internalType": "address",
              "name": "underlying",
              "type": "address"
            },
            {
              "internalType": "bytes32",
              "name": "symbolHash",
              "type": "bytes32"
            },
            {
              "internalType": "uint256",
              "name": "baseUnit",
              "type": "uint256"
            },
            {
              "internalType": "enum UniswapConfig.PriceSource",
              "name": "priceSource",
              "type": "uint8"
            },
            {
              "internalType": "uint256",
              "name": "fixedPrice",
              "type": "uint256"
            },
            {
              "internalType": "address",
              "name": "uniswapMarket",
              "type": "address"
            },
            {
              "internalType": "bool",
              "name": "isUniswapReversed",
              "type": "bool"
            }
          ],
          "internalType": "struct UniswapConfig.TokenConfig",
          "name": "",
          "type": "tuple"
        }
      ],
      "stateMutability": "view",
      "type": "function"
    },
    {
      "inputs": [
        {
          "internalType": "address",
          "name": "underlying",
          "type": "address"
        }
      ],
      "name": "getTokenConfigByUnderlying",
      "outputs": [
        {
          "components": [
            {
              "internalType": "address",
              "name": "cToken",
              "type": "address"
            },
            {
              "internalType": "address",
              "name": "underlying",
              "type": "address"
            },
            {
              "internalType": "bytes32",
              "name": "symbolHash",
              "type": "bytes32"
            },
            {
              "internalType": "uint256",
              "name": "baseUnit",
              "type": "uint256"
            },
            {
              "internalType": "enum UniswapConfig.PriceSource",
              "name": "priceSource",
              "type": "uint8"
            },
            {
              "internalType": "uint256",
              "name": "fixedPrice",
              "type": "uint256"
            },
            {
              "internalType": "address",
              "name": "uniswapMarket",
              "type": "address"
            },
            {
              "internalType": "bool",
              "name": "isUniswapReversed",
              "type": "bool"
            }
          ],
          "internalType": "struct UniswapConfig.TokenConfig",
          "name": "",
          "type": "tuple"
        }
      ],
      "stateMutability": "view",
      "type": "function"
    },
    {
      "inputs": [
        {
          "internalType": "address",
          "name": "cToken",
          "type": "address"
        }
      ],
      "name": "getUnderlyingPrice",
      "outputs": [
        {
          "internalType": "uint256",
          "name": "",
          "type": "uint256"
        }
      ],
      "stateMutability": "view",
      "type": "function"
    },
    {
      "inputs": [
        {
          "internalType": "bytes",
          "name": "message",
          "type": "bytes"
        },
        {
          "internalType": "bytes",
          "name": "signature",
          "type": "bytes"
        }
      ],
      "name": "invalidateReporter",
      "outputs": [],
      "stateMutability": "nonpayable",
      "type": "function"
    },
    {
      "inputs": [],
      "name": "lowerBoundAnchorRatio",
      "outputs": [
        {
          "internalType": "uint256",
          "name": "",
          "type": "uint256"
        }
      ],
      "stateMutability": "view",
      "type": "function"
    },
    {
      "inputs": [],
      "name": "maxTokens",
      "outputs": [
        {
          "internalType": "uint256",
          "name": "",
          "type": "uint256"
        }
      ],
      "stateMutability": "view",
      "type": "function"
    },
    {
      "inputs": [
        {
          "internalType": "bytes32",
          "name": "",
          "type": "bytes32"
        }
      ],
      "name": "newObservations",
      "outputs": [
        {
          "internalType": "uint256",
          "name": "timestamp",
          "type": "uint256"
        },
        {
          "internalType": "uint256",
          "name": "acc",
          "type": "uint256"
        }
      ],
      "stateMutability": "view",
      "type": "function"
    },
    {
      "inputs": [],
      "name": "numTokens",
      "outputs": [
        {
          "internalType": "uint256",
          "name": "",
          "type": "uint256"
        }
      ],
      "stateMutability": "view",
      "type": "function"
    },
    {
      "inputs": [
        {
          "internalType": "bytes32",
          "name": "",
          "type": "bytes32"
        }
      ],
      "name": "oldObservations",
      "outputs": [
        {
          "internalType": "uint256",
          "name": "timestamp",
          "type": "uint256"
        },
        {
          "internalType": "uint256",
          "name": "acc",
          "type": "uint256"
        }
      ],
      "stateMutability": "view",
      "type": "function"
    },
    {
      "inputs": [
        {
          "internalType": "bytes[]",
          "name": "messages",
          "type": "bytes[]"
        },
        {
          "internalType": "bytes[]",
          "name": "signatures",
          "type": "bytes[]"
        },
        {
          "internalType": "string[]",
          "name": "symbols",
          "type": "string[]"
        }
      ],
      "name": "postPrices",
      "outputs": [],
      "stateMutability": "nonpayable",
      "type": "function"
    },
    {
      "inputs": [
        {
          "internalType": "string",
          "name": "symbol",
          "type": "string"
        }
      ],
      "name": "price",
      "outputs": [
        {
          "internalType": "uint256",
          "name": "",
          "type": "uint256"
        }
      ],
      "stateMutability": "view",
      "type": "function"
    },
    {
      "inputs": [],
      "name": "priceData",
      "outputs": [
        {
          "internalType": "contract OpenOraclePriceData",
          "name": "",
          "type": "address"
        }
      ],
      "stateMutability": "view",
      "type": "function"
    },
    {
      "inputs": [
        {
          "internalType": "bytes32",
          "name": "",
          "type": "bytes32"
        }
      ],
      "name": "prices",
      "outputs": [
        {
          "internalType": "uint256",
          "name": "",
          "type": "uint256"
        }
      ],
      "stateMutability": "view",
      "type": "function"
    },
    {
      "inputs": [],
      "name": "reporter",
      "outputs": [
        {
          "internalType": "address",
          "name": "",
          "type": "address"
        }
      ],
      "stateMutability": "view",
      "type": "function"
    },
    {
      "inputs": [],
      "name": "reporterInvalidated",
      "outputs": [
        {
          "internalType": "bool",
          "name": "",
          "type": "bool"
        }
      ],
      "stateMutability": "view",
      "type": "function"
    },
    {
      "inputs": [
        {
          "internalType": "bytes",
          "name": "message",
          "type": "bytes"
        },
        {
          "internalType": "bytes",
          "name": "signature",
          "type": "bytes"
        }
      ],
      "name": "source",
      "outputs": [
        {
          "internalType": "address",
          "name": "",
          "type": "address"
        }
      ],
      "stateMutability": "pure",
      "type": "function"
    },
    {
      "inputs": [],
      "name": "upperBoundAnchorRatio",
      "outputs": [
        {
          "internalType": "uint256",
          "name": "",
          "type": "uint256"
        }
      ],
      "stateMutability": "view",
      "type": "function"
    }
  ],
  "bytecode": "0x611f406040523480156200001257600080fd5b5060405162008f6738038062008f678339810160408190526200003591620022f0565b80601e81511115620000645760405162461bcd60e51b81526004016200005b9062002470565b60405180910390fd5b80516080526200007681600062001e47565b5160601b6001600160601b03191660a0526200009481600162001e47565b5160601b6001600160601b03191660c052620000b281600262001e47565b5160601b6001600160601b03191660e052620000d081600362001e47565b5160601b6001600160601b03191661010052620000ef81600462001e47565b5160601b6001600160601b031916610120526200010e81600562001e47565b5160601b6001600160601b031916610140526200012d81600662001e47565b5160601b6001600160601b031916610160526200014c81600762001e47565b5160601b6001600160601b031916610180526200016b81600862001e47565b5160601b6001600160601b0319166101a0526200018a81600962001e47565b5160601b6001600160601b0319166101c052620001a981600a62001e47565b5160601b6001600160601b0319166101e052620001c881600b62001e47565b5160601b6001600160601b03191661020052620001e781600c62001e47565b5160601b6001600160601b031916610220526200020681600d62001e47565b5160601b6001600160601b031916610240526200022581600e62001e47565b5160601b6001600160601b031916610260526200024481600f62001e47565b5160601b6001600160601b031916610280526200026381601062001e47565b5160601b6001600160601b0319166102a0526200028281601162001e47565b5160601b6001600160601b0319166102c052620002a181601262001e47565b5160601b6001600160601b0319166102e052620002c081601362001e47565b5160601b6001600160601b03191661030052620002df81601462001e47565b5160601b6001600160601b03191661032052620002fe81601562001e47565b5160601b6001600160601b031916610340526200031d81601662001e47565b5160601b6001600160601b031916610360526200033c81601762001e47565b5160601b6001600160601b031916610380526200035b81601862001e47565b5160601b6001600160601b0319166103a0526200037a81601962001e47565b5160601b6001600160601b0319166103c0526200039981601a62001e47565b5160601b6001600160601b0319166103e052620003b881601b62001e47565b5160601b6001600160601b03191661040052620003d781601c62001e47565b5160601b6001600160601b03191661042052620003f681601d62001e47565b5160601b6001600160601b031916610440526200041581600062001e47565b6020015160601b6001600160601b031916610460526200043781600162001e47565b6020015160601b6001600160601b031916610480526200045981600262001e47565b6020015160601b6001600160601b0319166104a0526200047b81600362001e47565b6020015160601b6001600160601b0319166104c0526200049d81600462001e47565b6020015160601b6001600160601b0319166104e052620004bf81600562001e47565b6020015160601b6001600160601b03191661050052620004e181600662001e47565b6020015160601b6001600160601b031916610520526200050381600762001e47565b6020015160601b6001600160601b031916610540526200052581600862001e47565b6020015160601b6001600160601b031916610560526200054781600962001e47565b6020015160601b6001600160601b031916610580526200056981600a62001e47565b6020015160601b6001600160601b0319166105a0526200058b81600b62001e47565b6020015160601b6001600160601b0319166105c052620005ad81600c62001e47565b6020015160601b6001600160601b0319166105e052620005cf81600d62001e47565b6020015160601b6001600160601b03191661060052620005f181600e62001e47565b6020015160601b6001600160601b031916610620526200061381600f62001e47565b6020015160601b6001600160601b031916610640526200063581601062001e47565b6020015160601b6001600160601b031916610660526200065781601162001e47565b6020015160601b6001600160601b031916610680526200067981601262001e47565b6020015160601b6001600160601b0319166106a0526200069b81601362001e47565b6020015160601b6001600160601b0319166106c052620006bd81601462001e47565b6020015160601b6001600160601b0319166106e052620006df81601562001e47565b6020015160601b6001600160601b031916610700526200070181601662001e47565b6020015160601b6001600160601b031916610720526200072381601762001e47565b6020015160601b6001600160601b031916610740526200074581601862001e47565b6020015160601b6001600160601b031916610760526200076781601962001e47565b6020015160601b6001600160601b031916610780526200078981601a62001e47565b6020015160601b6001600160601b0319166107a052620007ab81601b62001e47565b6020015160601b6001600160601b0319166107c052620007cd81601c62001e47565b6020015160601b6001600160601b0319166107e052620007ef81601d62001e47565b6020015160601b6001600160601b031916610800526200081181600062001e47565b60400151610820526200082681600162001e47565b60400151610840526200083b81600262001e47565b60400151610860526200085081600362001e47565b60400151610880526200086581600462001e47565b604001516108a0526200087a81600562001e47565b604001516108c0526200088f81600662001e47565b604001516108e052620008a481600762001e47565b6040015161090052620008b981600862001e47565b6040015161092052620008ce81600962001e47565b6040015161094052620008e381600a62001e47565b6040015161096052620008f881600b62001e47565b60400151610980526200090d81600c62001e47565b604001516109a0526200092281600d62001e47565b604001516109c0526200093781600e62001e47565b604001516109e0526200094c81600f62001e47565b60400151610a00526200096181601062001e47565b60400151610a20526200097681601162001e47565b60400151610a40526200098b81601262001e47565b60400151610a6052620009a081601362001e47565b60400151610a8052620009b581601462001e47565b60400151610aa052620009ca81601562001e47565b60400151610ac052620009df81601662001e47565b60400151610ae052620009f481601762001e47565b60400151610b005262000a0981601862001e47565b60400151610b205262000a1e81601962001e47565b60400151610b405262000a3381601a62001e47565b60400151610b605262000a4881601b62001e47565b60400151610b805262000a5d81601c62001e47565b60400151610ba05262000a7281601d62001e47565b60400151610bc05262000a8781600062001e47565b60600151610be05262000a9c81600162001e47565b60600151610c005262000ab181600262001e47565b60600151610c205262000ac681600362001e47565b60600151610c405262000adb81600462001e47565b60600151610c605262000af081600562001e47565b60600151610c805262000b0581600662001e47565b60600151610ca05262000b1a81600762001e47565b60600151610cc05262000b2f81600862001e47565b60600151610ce05262000b4481600962001e47565b60600151610d005262000b5981600a62001e47565b60600151610d205262000b6e81600b62001e47565b60600151610d405262000b8381600c62001e47565b60600151610d605262000b9881600d62001e47565b60600151610d805262000bad81600e62001e47565b60600151610da05262000bc281600f62001e47565b60600151610dc05262000bd781601062001e47565b60600151610de05262000bec81601162001e47565b60600151610e005262000c0181601262001e47565b60600151610e205262000c1681601362001e47565b60600151610e405262000c2b81601462001e47565b60600151610e605262000c4081601562001e47565b60600151610e805262000c5581601662001e47565b60600151610ea05262000c6a81601762001e47565b60600151610ec05262000c7f81601862001e47565b60600151610ee05262000c9481601962001e47565b60600151610f005262000ca981601a62001e47565b60600151610f205262000cbe81601b62001e47565b60600151610f405262000cd381601c62001e47565b60600151610f605262000ce881601d62001e47565b60600151610f805262000cfd81600062001e47565b60800151600281111562000d0d57fe5b610fa081600281111562000d1d57fe5b60f81b90525062000d3081600162001e47565b60800151600281111562000d4057fe5b610fc081600281111562000d5057fe5b60f81b90525062000d6381600262001e47565b60800151600281111562000d7357fe5b610fe081600281111562000d8357fe5b60f81b90525062000d9681600362001e47565b60800151600281111562000da657fe5b61100081600281111562000db657fe5b60f81b90525062000dc981600462001e47565b60800151600281111562000dd957fe5b61102081600281111562000de957fe5b60f81b90525062000dfc81600562001e47565b60800151600281111562000e0c57fe5b61104081600281111562000e1c57fe5b60f81b90525062000e2f81600662001e47565b60800151600281111562000e3f57fe5b61106081600281111562000e4f57fe5b60f81b90525062000e6281600762001e47565b60800151600281111562000e7257fe5b61108081600281111562000e8257fe5b60f81b90525062000e9581600862001e47565b60800151600281111562000ea557fe5b6110a081600281111562000eb557fe5b60f81b90525062000ec881600962001e47565b60800151600281111562000ed857fe5b6110c081600281111562000ee857fe5b60f81b90525062000efb81600a62001e47565b60800151600281111562000f0b57fe5b6110e081600281111562000f1b57fe5b60f81b90525062000f2e81600b62001e47565b60800151600281111562000f3e57fe5b61110081600281111562000f4e57fe5b60f81b90525062000f6181600c62001e47565b60800151600281111562000f7157fe5b61112081600281111562000f8157fe5b60f81b90525062000f9481600d62001e47565b60800151600281111562000fa457fe5b61114081600281111562000fb457fe5b60f81b90525062000fc781600e62001e47565b60800151600281111562000fd757fe5b61116081600281111562000fe757fe5b60f81b90525062000ffa81600f62001e47565b6080015160028111156200100a57fe5b6111808160028111156200101a57fe5b60f81b9052506200102d81601062001e47565b6080015160028111156200103d57fe5b6111a08160028111156200104d57fe5b60f81b9052506200106081601162001e47565b6080015160028111156200107057fe5b6111c08160028111156200108057fe5b60f81b9052506200109381601262001e47565b608001516002811115620010a357fe5b6111e0816002811115620010b357fe5b60f81b905250620010c681601362001e47565b608001516002811115620010d657fe5b611200816002811115620010e657fe5b60f81b905250620010f981601462001e47565b6080015160028111156200110957fe5b6112208160028111156200111957fe5b60f81b9052506200112c81601562001e47565b6080015160028111156200113c57fe5b6112408160028111156200114c57fe5b60f81b9052506200115f81601662001e47565b6080015160028111156200116f57fe5b6112608160028111156200117f57fe5b60f81b9052506200119281601762001e47565b608001516002811115620011a257fe5b611280816002811115620011b257fe5b60f81b905250620011c581601862001e47565b608001516002811115620011d557fe5b6112a0816002811115620011e557fe5b60f81b905250620011f881601962001e47565b6080015160028111156200120857fe5b6112c08160028111156200121857fe5b60f81b9052506200122b81601a62001e47565b6080015160028111156200123b57fe5b6112e08160028111156200124b57fe5b60f81b9052506200125e81601b62001e47565b6080015160028111156200126e57fe5b6113008160028111156200127e57fe5b60f81b9052506200129181601c62001e47565b608001516002811115620012a157fe5b611320816002811115620012b157fe5b60f81b905250620012c481601d62001e47565b608001516002811115620012d457fe5b611340816002811115620012e457fe5b60f81b905250620012f781600062001e47565b60a00151611360526200130c81600162001e47565b60a00151611380526200132181600262001e47565b60a001516113a0526200133681600362001e47565b60a001516113c0526200134b81600462001e47565b60a001516113e0526200136081600562001e47565b60a00151611400526200137581600662001e47565b60a00151611420526200138a81600762001e47565b60a00151611440526200139f81600862001e47565b60a0015161146052620013b481600962001e47565b60a0015161148052620013c981600a62001e47565b60a001516114a052620013de81600b62001e47565b60a001516114c052620013f381600c62001e47565b60a001516114e0526200140881600d62001e47565b60a00151611500526200141d81600e62001e47565b60a00151611520526200143281600f62001e47565b60a00151611540526200144781601062001e47565b60a00151611560526200145c81601162001e47565b60a00151611580526200147181601262001e47565b60a001516115a0526200148681601362001e47565b60a001516115c0526200149b81601462001e47565b60a001516115e052620014b081601562001e47565b60a0015161160052620014c581601662001e47565b60a0015161162052620014da81601762001e47565b60a0015161164052620014ef81601862001e47565b60a00151611660526200150481601962001e47565b60a00151611680526200151981601a62001e47565b60a001516116a0526200152e81601b62001e47565b60a001516116c0526200154381601c62001e47565b60a001516116e0526200155881601d62001e47565b60a00151611700526200156d81600062001e47565b60c0015160601b6001600160601b031916611720526200158f81600162001e47565b60c0015160601b6001600160601b03191661174052620015b181600262001e47565b60c0015160601b6001600160601b03191661176052620015d381600362001e47565b60c0015160601b6001600160601b03191661178052620015f581600462001e47565b60c0015160601b6001600160601b0319166117a0526200161781600562001e47565b60c0015160601b6001600160601b0319166117c0526200163981600662001e47565b60c0015160601b6001600160601b0319166117e0526200165b81600762001e47565b60c0015160601b6001600160601b031916611800526200167d81600862001e47565b60c0015160601b6001600160601b031916611820526200169f81600962001e47565b60c0015160601b6001600160601b03191661184052620016c181600a62001e47565b60c0015160601b6001600160601b03191661186052620016e381600b62001e47565b60c0015160601b6001600160601b031916611880526200170581600c62001e47565b60c0015160601b6001600160601b0319166118a0526200172781600d62001e47565b60c0015160601b6001600160601b0319166118c0526200174981600e62001e47565b60c0015160601b6001600160601b0319166118e0526200176b81600f62001e47565b60c0015160601b6001600160601b031916611900526200178d81601062001e47565b60c0015160601b6001600160601b03191661192052620017af81601162001e47565b60c0015160601b6001600160601b03191661194052620017d181601262001e47565b60c0015160601b6001600160601b03191661196052620017f381601362001e47565b60c0015160601b6001600160601b031916611980526200181581601462001e47565b60c0015160601b6001600160601b0319166119a0526200183781601562001e47565b60c0015160601b6001600160601b0319166119c0526200185981601662001e47565b60c0015160601b6001600160601b0319166119e0526200187b81601762001e47565b60c0015160601b6001600160601b031916611a00526200189d81601862001e47565b60c0015160601b6001600160601b031916611a2052620018bf81601962001e47565b60c0015160601b6001600160601b031916611a4052620018e181601a62001e47565b60c0015160601b6001600160601b031916611a60526200190381601b62001e47565b60c0015160601b6001600160601b031916611a80526200192581601c62001e47565b60c0015160601b6001600160601b031916611aa0526200194781601d62001e47565b60c0015160601b6001600160601b031916611ac0526200196981600062001e47565b60e00151151560f81b611ae0526200198381600162001e47565b60e00151151560f81b611b00526200199d81600262001e47565b60e00151151560f81b611b2052620019b781600362001e47565b60e00151151560f81b611b4052620019d181600462001e47565b60e00151151560f81b611b6052620019eb81600562001e47565b60e00151151560f81b611b805262001a0581600662001e47565b60e00151151560f81b611ba05262001a1f81600762001e47565b60e00151151560f81b611bc05262001a3981600862001e47565b60e00151151560f81b611be05262001a5381600962001e47565b60e00151151560f81b611c005262001a6d81600a62001e47565b60e00151151560f81b611c205262001a8781600b62001e47565b60e00151151560f81b611c405262001aa181600c62001e47565b60e00151151560f81b611c605262001abb81600d62001e47565b60e00151151560f81b611c805262001ad581600e62001e47565b60e00151151560f81b611ca05262001aef81600f62001e47565b60e00151151560f81b611cc05262001b0981601062001e47565b60e00151151560f81b611ce05262001b2381601162001e47565b60e00151151560f81b611d005262001b3d81601262001e47565b60e00151151560f81b611d205262001b5781601362001e47565b60e00151151560f81b611d405262001b7181601462001e47565b60e00151151560f81b611d605262001b8b81601562001e47565b60e00151151560f81b611d805262001ba581601662001e47565b60e00151151560f81b611da05262001bbf81601762001e47565b60e00151151560f81b611dc05262001bd981601862001e47565b60e00151151560f81b611de05262001bf381601962001e47565b60e00151151560f81b611e005262001c0d81601a62001e47565b60e00151151560f81b611e205262001c2781601b62001e47565b60e00151151560f81b611e405262001c4181601c62001e47565b60e00151151560f81b611e605262001c5b81601d62001e47565b60e00151151560f81b611e8052506001600160601b0319606086811b8216611ea05285901b16611ec052611f20829052670de0b6b3a764000019831162001cad5782670de0b6b3a76400000162001cb1565b6000195b611ee052670de0b6b3a7640000831062001ccd57600162001cd9565b82670de0b6b3a7640000035b611f005260005b815181101562001e3b5762001cf4620021b4565b82828151811062001d0157fe5b60200260200101519050600081606001511162001d325760405162461bcd60e51b81526004016200005b90620023eb565b60c081015160028260800151600281111562001d4a57fe5b141562001e06576001600160a01b03811662001d7a5760405162461bcd60e51b81526004016200005b906200242d565b6040820151600062001d8c8462001ec1565b600083815260026020908152604080832042808255600390935292819020828155600193840185905592909201839055905191925083917fe37d39315e3419c0937360f1ac88f2c52ecf67e3b22b367f82047ddb4591904a9162001df691819086908190620024e0565b60405180910390a2505062001e30565b6001600160a01b0381161562001e305760405162461bcd60e51b81526004016200005b906200249a565b505060010162001ce0565b50505050505062002538565b62001e51620021b4565b825182101562001e785782828151811062001e6857fe5b6020026020010151905062001ebb565b506040805161010081018252600080825260208201819052918101829052606081018290526080810182905260a0810182905260c0810182905260e08101919091525b92915050565b600080600062001ee08460c0015162001f0360201b620034ec1760201c565b50915091508360e001511562001efa57915062001efe9050565b5090505b919050565b6000808062001f11620020fd565b9050836001600160a01b0316635909c0d56040518163ffffffff1660e01b815260040160206040518083038186803b15801562001f4d57600080fd5b505afa15801562001f62573d6000803e3d6000fd5b505050506040513d602081101562001f7957600080fd5b505160408051635a3d549360e01b815290519194506001600160a01b03861691635a3d549391600480820192602092909190829003018186803b15801562001fc057600080fd5b505afa15801562001fd5573d6000803e3d6000fd5b505050506040513d602081101562001fec57600080fd5b505160408051630240bc6b60e21b81529051919350600091829182916001600160a01b03891691630902f1ac916004808301926060929190829003018186803b1580156200203957600080fd5b505afa1580156200204e573d6000803e3d6000fd5b505050506040513d60608110156200206557600080fd5b5080516020820151604090920151909450909250905063ffffffff80821690851614620020f357600081850390508063ffffffff16620020b184866200210760201b620036bb1760201c565b600001516001600160e01b031602870196508063ffffffff16620020e185856200210760201b620036bb1760201c565b516001600160e01b0316029590950194505b5050509193909250565b63ffffffff421690565b62002111620021f9565b6000826001600160701b03161162002170576040805162461bcd60e51b815260206004820152601760248201527f4669786564506f696e743a204449565f42595f5a45524f000000000000000000604482015290519081900360640190fd5b6040805160208101909152806001600160701b038416600160701b600160e01b03607087901b16816200219f57fe5b046001600160e01b0316815250905092915050565b60408051610100810182526000808252602082018190529181018290526060810182905290608082019081526000602082018190526040820181905260609091015290565b60408051602081019091526000815290565b805162001efe816200251f565b8051801515811462001efe57600080fd5b80516003811062001efe57600080fd5b60006101008083850312156200224d578182fd5b604051908101906001600160401b03821181831017156200226a57fe5b816040528092506200227c846200220b565b81526200228c602085016200220b565b60208201526040840151604082015260608401516060820152620022b36080850162002229565b608082015260a084015160a0820152620022d060c085016200220b565b60c0820152620022e360e0850162002218565b60e0820152505092915050565b600080600080600060a0868803121562002308578081fd5b855162002315816200251f565b809550506020808701516200232a816200251f565b6040880151606089015160808a015192975090955093506001600160401b038082111562002356578384fd5b818901915089601f8301126200236a578384fd5b8151818111156200237757fe5b620023868485830201620024fb565b8181528481019250838501610100808402860187018e1015620023a7578788fd5b8795505b83861015620023d757620023c08e8362002239565b8552600195909501949386019390810190620023ab565b505080955050505050509295509295909350565b60208082526022908201527f62617365556e6974206d7573742062652067726561746572207468616e207a65604082015261726f60f01b606082015260800190565b60208082526023908201527f7265706f7274656420707269636573206d757374206861766520616e20616e636040820152623437b960e91b606082015260800190565b60208082526010908201526f746f6f206d616e7920636f6e6669677360801b604082015260600190565b60208082526026908201527f6f6e6c79207265706f7274656420707269636573207574696c697a6520616e2060408201526530b731b437b960d11b606082015260800190565b93845260208401929092526040830152606082015260800190565b6040518181016001600160401b03811182821017156200251757fe5b604052919050565b6001600160a01b03811681146200253557600080fd5b50565b60805160a05160601c60c05160601c60e05160601c6101005160601c6101205160601c6101405160601c6101605160601c6101805160601c6101a05160601c6101c05160601c6101e05160601c6102005160601c6102205160601c6102405160601c6102605160601c6102805160601c6102a05160601c6102c05160601c6102e05160601c6103005160601c6103205160601c6103405160601c6103605160601c6103805160601c6103a05160601c6103c05160601c6103e05160601c6104005160601c6104205160601c6104405160601c6104605160601c6104805160601c6104a05160601c6104c05160601c6104e05160601c6105005160601c6105205160601c6105405160601c6105605160601c6105805160601c6105a05160601c6105c05160601c6105e05160601c6106005160601c6106205160601c6106405160601c6106605160601c6106805160601c6106a05160601c6106c05160601c6106e05160601c6107005160601c6107205160601c6107405160601c6107605160601c6107805160601c6107a05160601c6107c05160601c6107e05160601c6108005160601c610820516108405161086051610880516108a0516108c0516108e05161090051610920516109405161096051610980516109a0516109c0516109e051610a0051610a2051610a4051610a6051610a8051610aa051610ac051610ae051610b0051610b2051610b4051610b6051610b8051610ba051610bc051610be051610c0051610c2051610c4051610c6051610c8051610ca051610cc051610ce051610d0051610d2051610d4051610d6051610d8051610da051610dc051610de051610e0051610e2051610e4051610e6051610e8051610ea051610ec051610ee051610f0051610f2051610f4051610f6051610f8051610fa05160f81c610fc05160f81c610fe05160f81c6110005160f81c6110205160f81c6110405160f81c6110605160f81c6110805160f81c6110a05160f81c6110c05160f81c6110e05160f81c6111005160f81c6111205160f81c6111405160f81c6111605160f81c6111805160f81c6111a05160f81c6111c05160f81c6111e05160f81c6112005160f81c6112205160f81c6112405160f81c6112605160f81c6112805160f81c6112a05160f81c6112c05160f81c6112e05160f81c6113005160f81c6113205160f81c6113405160f81c61136051611380516113a0516113c0516113e05161140051611420516114405161146051611480516114a0516114c0516114e05161150051611520516115405161156051611580516115a0516115c0516115e05161160051611620516116405161166051611680516116a0516116c0516116e051611700516117205160601c6117405160601c6117605160601c6117805160601c6117a05160601c6117c05160601c6117e05160601c6118005160601c6118205160601c6118405160601c6118605160601c6118805160601c6118a05160601c6118c05160601c6118e05160601c6119005160601c6119205160601c6119405160601c6119605160601c6119805160601c6119a05160601c6119c05160601c6119e05160601c611a005160601c611a205160601c611a405160601c611a605160601c611a805160601c611aa05160601c611ac05160601c611ae05160f81c611b005160f81c611b205160f81c611b405160f81c611b605160f81c611b805160f81c611ba05160f81c611bc05160f81c611be05160f81c611c005160f81c611c205160f81c611c405160f81c611c605160f81c611c805160f81c611ca05160f81c611cc05160f81c611ce05160f81c611d005160f81c611d205160f81c611d405160f81c611d605160f81c611d805160f81c611da05160f81c611dc05160f81c611de05160f81c611e005160f81c611e205160f81c611e405160f81c611e605160f81c611e805160f81c611ea05160601c611ec05160601c611ee051611f0051611f2051615cce62003299600039806132b1528061526b5250806131c252806151e452508061035952806151b95250806102e052806130db528061316a5280614d7852508061328852806133185280614d4952508061302c525080612eba525080612d48525080612bd6525080612a645250806128f252508061278052508061260e52508061249c52508061232a5250806121b8525080612046525080611ed4525080611d62525080611bf0525080611a7e52508061190c52508061179a5250806116285250806114b65250806113445250806111d2525080611060525080610eee525080610d7c525080610c0a525080610a985250806109265250806107b4525080610642525080612ffd525080612e8b525080612d19525080612ba7525080612a355250806128c35250806127515250806125df52508061246d5250806122fb525080612189525080612017525080611ea5525080611d33525080611bc1525080611a4f5250806118dd52508061176b5250806115f95250806114875250806113155250806111a3525080611031525080610ebf525080610d4d525080610bdb525080610a695250806108f7525080610785525080610613525080612fd7525080612e65525080612cf3525080612b81525080612a0f52508061289d52508061272b5250806125b95250806124475250806122d5525080612163525080611ff1525080611e7f525080611d0d525080611b9b525080611a295250806118b75250806117455250806115d35250806114615250806112ef52508061117d52508061100b525080610e99525080610d27525080610bb5525080610a435250806108d152508061075f5250806105ed525080612fa6525080612e34525080612cc2525080612b505250806129de52508061286c5250806126fa5250806125885250806124165250806122a4525080612132525080611fc0525080611e4e525080611cdc525080611b6a5250806119f85250806118865250806117145250806115a25250806114305250806112be52508061114c525080610fda525080610e68525080610cf6525080610b84525080610a125250806108a052508061072e5250806105bc525080612f80525080612e0e525080612c9c525080612b2a5250806129b85250806128465250806126d45250806125625250806123f052508061227e52508061210c525080611f9a525080611e28525080611cb6525080611b445250806119d25250806118605250806116ee52508061157c52508061140a525080611298525080611126525080610fb4525080610e42525080610cd0525080610b5e5250806109ec52508061087a525080610708525080610596525080612f5a5280613cdf525080612de85280613caf525080612c765280613c7f525080612b045280613c4f5250806129925280613c1f5250806128205280613bef5250806126ae5280613bbf52508061253c5280613b8f5250806123ca5280613b5f5250806122585280613b2f5250806120e65280613aff525080611f745280613acf525080611e025280613a9f525080611c905280613a6f525080611b1e5280613a3f5250806119ac5280613a0f52508061183a52806139df5250806116c852806139af525080611556528061397f5250806113e4528061394f525080611272528061391f52508061110052806138ef525080610f8e52806138bf525080610e1c528061388f525080610caa528061385f525080610b38528061382f5250806109c652806137ff52508061085452806137cf5250806106e2528061379f525080610570528061376f525080612f2b5280614494525080612db95280614452525080612c475280614410525080612ad552806143ce525080612963528061438c5250806127f1528061434a52508061267f528061430852508061250d52806142c652508061239b528061428452508061222952806142425250806120b75280614200525080611f4552806141be525080611dd3528061417c525080611c61528061413a525080611aef52806140f852508061197d52806140b652508061180b528061407452508061169952806140325250806115275280613ff05250806113b55280613fae5250806112435280613f6c5250806110d15280613f2a525080610f5f5280613ee8525080610ded5280613ea6525080610c7b5280613e64525080610b095280613e225250806109975280613de05250806108255280613d9e5250806106b35280613d5c5250806105415280613d1a525080612efc5280614c52525080612d8a5280614c10525080612c185280614bce525080612aa65280614b8c5250806129345280614b4a5250806127c25280614b085250806126505280614ac65250806124de5280614a8452508061236c5280614a425250806121fa5280614a0052508061208852806149be525080611f16528061497c525080611da4528061493a525080611c3252806148f8525080611ac052806148b652508061194e52806148745250806117dc528061483252508061166a52806147f05250806114f852806147ae525080611386528061476c525080611214528061472a5250806110a252806146e8525080610f3052806146a6525080610dbe5280614664525080610c4c5280614622525080610ada52806145e0525080610968528061459e5250806107f6528061455c525080610684528061451a52508061051252806144d85250806104c2528061319e5250615cce6000f3fe608060405234801561001057600080fd5b506004361061014d5760003560e01c80638aba91b4116100c3578063e83157421161007c578063e831574214610282578063e9206d781461028a578063eaa1c2ca14610292578063ecc1e984146102a5578063fc57d4df146102b8578063fe2c6198146102cb5761014d565b80638aba91b4146102425780638e499bcf1461025757806392b843571461025f5780639f59963114610267578063d1b353b414610227578063e61a5fe41461027a5761014d565b8063482a619311610115578063482a6193146101d95780634da21942146101ec57806360846bc6146101ff578063651ed7881461021257806369aa3ac6146102275780638a0038881461022f5761014d565b8063010ec441146101525780631a125204146101705780632410520914610190578063276c2cba146101a557806337c0e12d146101b8575b600080fd5b61015a6102de565b6040516101679190615810565b60405180910390f35b61018361017e36600461559d565b610302565b6040516101679190615b02565b610198610357565b6040516101679190615b7d565b6101836101b3366004615653565b61037b565b6101cb6101c636600461559d565b6103b8565b604051610167929190615b86565b61015a6101e73660046155f2565b6103d1565b6101836101fa3660046154cf565b61047e565b61019861020d36600461559d565b610491565b61021a6104a3565b6040516101679190615848565b6101986104ac565b61018361023d36600461559d565b6104b8565b6102556102503660046155f2565b613057565b005b61019861319c565b6101986131c0565b6101836102753660046154cf565b6131e4565b61015a613286565b6101986132aa565b6101986132af565b6101cb6102a036600461559d565b6132d3565b6102556102b3366004615507565b6132ec565b6101986102c63660046154cf565b613486565b6101986102d9366004615653565b6134ce565b7f000000000000000000000000000000000000000000000000000000000000000081565b61030a615375565b60006103158361376b565b9050600019811461033157610329816104b8565b915050610352565b60405162461bcd60e51b815260040161034990615950565b60405180910390fd5b919050565b7f000000000000000000000000000000000000000000000000000000000000000081565b610383615375565b6103b28260405160200161039791906157a2565b60405160208183030381529060405280519060200120610302565b92915050565b6002602052600090815260409020805460019091015482565b600080600080848060200190518101906103eb91906155b5565b9250925092506000868051906020012060405160200161040b91906157be565b604051602081830303815290604052805190602001209050600181838686604051600081526020016040526040516104469493929190615853565b6020604051602081039080840390855afa158015610468573d6000803e3d6000fd5b5050604051601f19015198975050505050505050565b610486615375565b600061031583613d16565b60006020819052908152604090205481565b60015460ff1681565b670de0b6b3a764000081565b6104c0615375565b7f000000000000000000000000000000000000000000000000000000000000000082106104ff5760405162461bcd60e51b815260040161034990615950565b8161066d576040518061010001604052807f00000000000000000000000000000000000000000000000000000000000000006001600160a01b031681526020017f00000000000000000000000000000000000000000000000000000000000000006001600160a01b031681526020017f000000000000000000000000000000000000000000000000000000000000000081526020017f000000000000000000000000000000000000000000000000000000000000000081526020017f000000000000000000000000000000000000000000000000000000000000000060028111156105e657fe5b81526020017f000000000000000000000000000000000000000000000000000000000000000081526020017f00000000000000000000000000000000000000000000000000000000000000006001600160a01b031681526020017f000000000000000000000000000000000000000000000000000000000000000015158152509050610352565b81600114156107df576040518061010001604052807f00000000000000000000000000000000000000000000000000000000000000006001600160a01b031681526020017f00000000000000000000000000000000000000000000000000000000000000006001600160a01b031681526020017f000000000000000000000000000000000000000000000000000000000000000081526020017f000000000000000000000000000000000000000000000000000000000000000081526020017f0000000000000000000000000000000000000000000000000000000000000000600281111561075857fe5b81526020017f000000000000000000000000000000000000000000000000000000000000000081526020017f00000000000000000000000000000000000000000000000000000000000000006001600160a01b031681526020017f000000000000000000000000000000000000000000000000000000000000000015158152509050610352565b8160021415610951576040518061010001604052807f00000000000000000000000000000000000000000000000000000000000000006001600160a01b031681526020017f00000000000000000000000000000000000000000000000000000000000000006001600160a01b031681526020017f000000000000000000000000000000000000000000000000000000000000000081526020017f000000000000000000000000000000000000000000000000000000000000000081526020017f000000000000000000000000000000000000000000000000000000000000000060028111156108ca57fe5b81526020017f000000000000000000000000000000000000000000000000000000000000000081526020017f00000000000000000000000000000000000000000000000000000000000000006001600160a01b031681526020017f000000000000000000000000000000000000000000000000000000000000000015158152509050610352565b8160031415610ac3576040518061010001604052807f00000000000000000000000000000000000000000000000000000000000000006001600160a01b031681526020017f00000000000000000000000000000000000000000000000000000000000000006001600160a01b031681526020017f000000000000000000000000000000000000000000000000000000000000000081526020017f000000000000000000000000000000000000000000000000000000000000000081526020017f00000000000000000000000000000000000000000000000000000000000000006002811115610a3c57fe5b81526020017f000000000000000000000000000000000000000000000000000000000000000081526020017f00000000000000000000000000000000000000000000000000000000000000006001600160a01b031681526020017f000000000000000000000000000000000000000000000000000000000000000015158152509050610352565b8160041415610c35576040518061010001604052807f00000000000000000000000000000000000000000000000000000000000000006001600160a01b031681526020017f00000000000000000000000000000000000000000000000000000000000000006001600160a01b031681526020017f000000000000000000000000000000000000000000000000000000000000000081526020017f000000000000000000000000000000000000000000000000000000000000000081526020017f00000000000000000000000000000000000000000000000000000000000000006002811115610bae57fe5b81526020017f000000000000000000000000000000000000000000000000000000000000000081526020017f00000000000000000000000000000000000000000000000000000000000000006001600160a01b031681526020017f000000000000000000000000000000000000000000000000000000000000000015158152509050610352565b8160051415610da7576040518061010001604052807f00000000000000000000000000000000000000000000000000000000000000006001600160a01b031681526020017f00000000000000000000000000000000000000000000000000000000000000006001600160a01b031681526020017f000000000000000000000000000000000000000000000000000000000000000081526020017f000000000000000000000000000000000000000000000000000000000000000081526020017f00000000000000000000000000000000000000000000000000000000000000006002811115610d2057fe5b81526020017f000000000000000000000000000000000000000000000000000000000000000081526020017f00000000000000000000000000000000000000000000000000000000000000006001600160a01b031681526020017f000000000000000000000000000000000000000000000000000000000000000015158152509050610352565b8160061415610f19576040518061010001604052807f00000000000000000000000000000000000000000000000000000000000000006001600160a01b031681526020017f00000000000000000000000000000000000000000000000000000000000000006001600160a01b031681526020017f000000000000000000000000000000000000000000000000000000000000000081526020017f000000000000000000000000000000000000000000000000000000000000000081526020017f00000000000000000000000000000000000000000000000000000000000000006002811115610e9257fe5b81526020017f000000000000000000000000000000000000000000000000000000000000000081526020017f00000000000000000000000000000000000000000000000000000000000000006001600160a01b031681526020017f000000000000000000000000000000000000000000000000000000000000000015158152509050610352565b816007141561108b576040518061010001604052807f00000000000000000000000000000000000000000000000000000000000000006001600160a01b031681526020017f00000000000000000000000000000000000000000000000000000000000000006001600160a01b031681526020017f000000000000000000000000000000000000000000000000000000000000000081526020017f000000000000000000000000000000000000000000000000000000000000000081526020017f0000000000000000000000000000000000000000000000000000000000000000600281111561100457fe5b81526020017f000000000000000000000000000000000000000000000000000000000000000081526020017f00000000000000000000000000000000000000000000000000000000000000006001600160a01b031681526020017f000000000000000000000000000000000000000000000000000000000000000015158152509050610352565b81600814156111fd576040518061010001604052807f00000000000000000000000000000000000000000000000000000000000000006001600160a01b031681526020017f00000000000000000000000000000000000000000000000000000000000000006001600160a01b031681526020017f000000000000000000000000000000000000000000000000000000000000000081526020017f000000000000000000000000000000000000000000000000000000000000000081526020017f0000000000000000000000000000000000000000000000000000000000000000600281111561117657fe5b81526020017f000000000000000000000000000000000000000000000000000000000000000081526020017f00000000000000000000000000000000000000000000000000000000000000006001600160a01b031681526020017f000000000000000000000000000000000000000000000000000000000000000015158152509050610352565b816009141561136f576040518061010001604052807f00000000000000000000000000000000000000000000000000000000000000006001600160a01b031681526020017f00000000000000000000000000000000000000000000000000000000000000006001600160a01b031681526020017f000000000000000000000000000000000000000000000000000000000000000081526020017f000000000000000000000000000000000000000000000000000000000000000081526020017f000000000000000000000000000000000000000000000000000000000000000060028111156112e857fe5b81526020017f000000000000000000000000000000000000000000000000000000000000000081526020017f00000000000000000000000000000000000000000000000000000000000000006001600160a01b031681526020017f000000000000000000000000000000000000000000000000000000000000000015158152509050610352565b81600a14156114e1576040518061010001604052807f00000000000000000000000000000000000000000000000000000000000000006001600160a01b031681526020017f00000000000000000000000000000000000000000000000000000000000000006001600160a01b031681526020017f000000000000000000000000000000000000000000000000000000000000000081526020017f000000000000000000000000000000000000000000000000000000000000000081526020017f0000000000000000000000000000000000000000000000000000000000000000600281111561145a57fe5b81526020017f000000000000000000000000000000000000000000000000000000000000000081526020017f00000000000000000000000000000000000000000000000000000000000000006001600160a01b031681526020017f000000000000000000000000000000000000000000000000000000000000000015158152509050610352565b81600b1415611653576040518061010001604052807f00000000000000000000000000000000000000000000000000000000000000006001600160a01b031681526020017f00000000000000000000000000000000000000000000000000000000000000006001600160a01b031681526020017f000000000000000000000000000000000000000000000000000000000000000081526020017f000000000000000000000000000000000000000000000000000000000000000081526020017f000000000000000000000000000000000000000000000000000000000000000060028111156115cc57fe5b81526020017f000000000000000000000000000000000000000000000000000000000000000081526020017f00000000000000000000000000000000000000000000000000000000000000006001600160a01b031681526020017f000000000000000000000000000000000000000000000000000000000000000015158152509050610352565b81600c14156117c5576040518061010001604052807f00000000000000000000000000000000000000000000000000000000000000006001600160a01b031681526020017f00000000000000000000000000000000000000000000000000000000000000006001600160a01b031681526020017f000000000000000000000000000000000000000000000000000000000000000081526020017f000000000000000000000000000000000000000000000000000000000000000081526020017f0000000000000000000000000000000000000000000000000000000000000000600281111561173e57fe5b81526020017f000000000000000000000000000000000000000000000000000000000000000081526020017f00000000000000000000000000000000000000000000000000000000000000006001600160a01b031681526020017f000000000000000000000000000000000000000000000000000000000000000015158152509050610352565b81600d1415611937576040518061010001604052807f00000000000000000000000000000000000000000000000000000000000000006001600160a01b031681526020017f00000000000000000000000000000000000000000000000000000000000000006001600160a01b031681526020017f000000000000000000000000000000000000000000000000000000000000000081526020017f000000000000000000000000000000000000000000000000000000000000000081526020017f000000000000000000000000000000000000000000000000000000000000000060028111156118b057fe5b81526020017f000000000000000000000000000000000000000000000000000000000000000081526020017f00000000000000000000000000000000000000000000000000000000000000006001600160a01b031681526020017f000000000000000000000000000000000000000000000000000000000000000015158152509050610352565b81600e1415611aa9576040518061010001604052807f00000000000000000000000000000000000000000000000000000000000000006001600160a01b031681526020017f00000000000000000000000000000000000000000000000000000000000000006001600160a01b031681526020017f000000000000000000000000000000000000000000000000000000000000000081526020017f000000000000000000000000000000000000000000000000000000000000000081526020017f00000000000000000000000000000000000000000000000000000000000000006002811115611a2257fe5b81526020017f000000000000000000000000000000000000000000000000000000000000000081526020017f00000000000000000000000000000000000000000000000000000000000000006001600160a01b031681526020017f000000000000000000000000000000000000000000000000000000000000000015158152509050610352565b81600f1415611c1b576040518061010001604052807f00000000000000000000000000000000000000000000000000000000000000006001600160a01b031681526020017f00000000000000000000000000000000000000000000000000000000000000006001600160a01b031681526020017f000000000000000000000000000000000000000000000000000000000000000081526020017f000000000000000000000000000000000000000000000000000000000000000081526020017f00000000000000000000000000000000000000000000000000000000000000006002811115611b9457fe5b81526020017f000000000000000000000000000000000000000000000000000000000000000081526020017f00000000000000000000000000000000000000000000000000000000000000006001600160a01b031681526020017f000000000000000000000000000000000000000000000000000000000000000015158152509050610352565b8160101415611d8d576040518061010001604052807f00000000000000000000000000000000000000000000000000000000000000006001600160a01b031681526020017f00000000000000000000000000000000000000000000000000000000000000006001600160a01b031681526020017f000000000000000000000000000000000000000000000000000000000000000081526020017f000000000000000000000000000000000000000000000000000000000000000081526020017f00000000000000000000000000000000000000000000000000000000000000006002811115611d0657fe5b81526020017f000000000000000000000000000000000000000000000000000000000000000081526020017f00000000000000000000000000000000000000000000000000000000000000006001600160a01b031681526020017f000000000000000000000000000000000000000000000000000000000000000015158152509050610352565b8160111415611eff576040518061010001604052807f00000000000000000000000000000000000000000000000000000000000000006001600160a01b031681526020017f00000000000000000000000000000000000000000000000000000000000000006001600160a01b031681526020017f000000000000000000000000000000000000000000000000000000000000000081526020017f000000000000000000000000000000000000000000000000000000000000000081526020017f00000000000000000000000000000000000000000000000000000000000000006002811115611e7857fe5b81526020017f000000000000000000000000000000000000000000000000000000000000000081526020017f00000000000000000000000000000000000000000000000000000000000000006001600160a01b031681526020017f000000000000000000000000000000000000000000000000000000000000000015158152509050610352565b8160121415612071576040518061010001604052807f00000000000000000000000000000000000000000000000000000000000000006001600160a01b031681526020017f00000000000000000000000000000000000000000000000000000000000000006001600160a01b031681526020017f000000000000000000000000000000000000000000000000000000000000000081526020017f000000000000000000000000000000000000000000000000000000000000000081526020017f00000000000000000000000000000000000000000000000000000000000000006002811115611fea57fe5b81526020017f000000000000000000000000000000000000000000000000000000000000000081526020017f00000000000000000000000000000000000000000000000000000000000000006001600160a01b031681526020017f000000000000000000000000000000000000000000000000000000000000000015158152509050610352565b81601314156121e3576040518061010001604052807f00000000000000000000000000000000000000000000000000000000000000006001600160a01b031681526020017f00000000000000000000000000000000000000000000000000000000000000006001600160a01b031681526020017f000000000000000000000000000000000000000000000000000000000000000081526020017f000000000000000000000000000000000000000000000000000000000000000081526020017f0000000000000000000000000000000000000000000000000000000000000000600281111561215c57fe5b81526020017f000000000000000000000000000000000000000000000000000000000000000081526020017f00000000000000000000000000000000000000000000000000000000000000006001600160a01b031681526020017f000000000000000000000000000000000000000000000000000000000000000015158152509050610352565b8160141415612355576040518061010001604052807f00000000000000000000000000000000000000000000000000000000000000006001600160a01b031681526020017f00000000000000000000000000000000000000000000000000000000000000006001600160a01b031681526020017f000000000000000000000000000000000000000000000000000000000000000081526020017f000000000000000000000000000000000000000000000000000000000000000081526020017f000000000000000000000000000000000000000000000000000000000000000060028111156122ce57fe5b81526020017f000000000000000000000000000000000000000000000000000000000000000081526020017f00000000000000000000000000000000000000000000000000000000000000006001600160a01b031681526020017f000000000000000000000000000000000000000000000000000000000000000015158152509050610352565b81601514156124c7576040518061010001604052807f00000000000000000000000000000000000000000000000000000000000000006001600160a01b031681526020017f00000000000000000000000000000000000000000000000000000000000000006001600160a01b031681526020017f000000000000000000000000000000000000000000000000000000000000000081526020017f000000000000000000000000000000000000000000000000000000000000000081526020017f0000000000000000000000000000000000000000000000000000000000000000600281111561244057fe5b81526020017f000000000000000000000000000000000000000000000000000000000000000081526020017f00000000000000000000000000000000000000000000000000000000000000006001600160a01b031681526020017f000000000000000000000000000000000000000000000000000000000000000015158152509050610352565b8160161415612639576040518061010001604052807f00000000000000000000000000000000000000000000000000000000000000006001600160a01b031681526020017f00000000000000000000000000000000000000000000000000000000000000006001600160a01b031681526020017f000000000000000000000000000000000000000000000000000000000000000081526020017f000000000000000000000000000000000000000000000000000000000000000081526020017f000000000000000000000000000000000000000000000000000000000000000060028111156125b257fe5b81526020017f000000000000000000000000000000000000000000000000000000000000000081526020017f00000000000000000000000000000000000000000000000000000000000000006001600160a01b031681526020017f000000000000000000000000000000000000000000000000000000000000000015158152509050610352565b81601714156127ab576040518061010001604052807f00000000000000000000000000000000000000000000000000000000000000006001600160a01b031681526020017f00000000000000000000000000000000000000000000000000000000000000006001600160a01b031681526020017f000000000000000000000000000000000000000000000000000000000000000081526020017f000000000000000000000000000000000000000000000000000000000000000081526020017f0000000000000000000000000000000000000000000000000000000000000000600281111561272457fe5b81526020017f000000000000000000000000000000000000000000000000000000000000000081526020017f00000000000000000000000000000000000000000000000000000000000000006001600160a01b031681526020017f000000000000000000000000000000000000000000000000000000000000000015158152509050610352565b816018141561291d576040518061010001604052807f00000000000000000000000000000000000000000000000000000000000000006001600160a01b031681526020017f00000000000000000000000000000000000000000000000000000000000000006001600160a01b031681526020017f000000000000000000000000000000000000000000000000000000000000000081526020017f000000000000000000000000000000000000000000000000000000000000000081526020017f0000000000000000000000000000000000000000000000000000000000000000600281111561289657fe5b81526020017f000000000000000000000000000000000000000000000000000000000000000081526020017f00000000000000000000000000000000000000000000000000000000000000006001600160a01b031681526020017f000000000000000000000000000000000000000000000000000000000000000015158152509050610352565b8160191415612a8f576040518061010001604052807f00000000000000000000000000000000000000000000000000000000000000006001600160a01b031681526020017f00000000000000000000000000000000000000000000000000000000000000006001600160a01b031681526020017f000000000000000000000000000000000000000000000000000000000000000081526020017f000000000000000000000000000000000000000000000000000000000000000081526020017f00000000000000000000000000000000000000000000000000000000000000006002811115612a0857fe5b81526020017f000000000000000000000000000000000000000000000000000000000000000081526020017f00000000000000000000000000000000000000000000000000000000000000006001600160a01b031681526020017f000000000000000000000000000000000000000000000000000000000000000015158152509050610352565b81601a1415612c01576040518061010001604052807f00000000000000000000000000000000000000000000000000000000000000006001600160a01b031681526020017f00000000000000000000000000000000000000000000000000000000000000006001600160a01b031681526020017f000000000000000000000000000000000000000000000000000000000000000081526020017f000000000000000000000000000000000000000000000000000000000000000081526020017f00000000000000000000000000000000000000000000000000000000000000006002811115612b7a57fe5b81526020017f000000000000000000000000000000000000000000000000000000000000000081526020017f00000000000000000000000000000000000000000000000000000000000000006001600160a01b031681526020017f000000000000000000000000000000000000000000000000000000000000000015158152509050610352565b81601b1415612d73576040518061010001604052807f00000000000000000000000000000000000000000000000000000000000000006001600160a01b031681526020017f00000000000000000000000000000000000000000000000000000000000000006001600160a01b031681526020017f000000000000000000000000000000000000000000000000000000000000000081526020017f000000000000000000000000000000000000000000000000000000000000000081526020017f00000000000000000000000000000000000000000000000000000000000000006002811115612cec57fe5b81526020017f000000000000000000000000000000000000000000000000000000000000000081526020017f00000000000000000000000000000000000000000000000000000000000000006001600160a01b031681526020017f000000000000000000000000000000000000000000000000000000000000000015158152509050610352565b81601c1415612ee5576040518061010001604052807f00000000000000000000000000000000000000000000000000000000000000006001600160a01b031681526020017f00000000000000000000000000000000000000000000000000000000000000006001600160a01b031681526020017f000000000000000000000000000000000000000000000000000000000000000081526020017f000000000000000000000000000000000000000000000000000000000000000081526020017f00000000000000000000000000000000000000000000000000000000000000006002811115612e5e57fe5b81526020017f000000000000000000000000000000000000000000000000000000000000000081526020017f00000000000000000000000000000000000000000000000000000000000000006001600160a01b031681526020017f000000000000000000000000000000000000000000000000000000000000000015158152509050610352565b81601d1415610352576040518061010001604052807f00000000000000000000000000000000000000000000000000000000000000006001600160a01b031681526020017f00000000000000000000000000000000000000000000000000000000000000006001600160a01b031681526020017f000000000000000000000000000000000000000000000000000000000000000081526020017f000000000000000000000000000000000000000000000000000000000000000081526020017f00000000000000000000000000000000000000000000000000000000000000006002811115612fd057fe5b81526020017f000000000000000000000000000000000000000000000000000000000000000081526020017f00000000000000000000000000000000000000000000000000000000000000006001600160a01b031681526020017f000000000000000000000000000000000000000000000000000000000000000015158152509050610352565b60608280602001905181019061306d91906156c1565b50905060405160200161307f906157ef565b60405160208183030381529060405280519060200120816040516020016130a691906157a2565b60405160208183030381529060405280519060200120146130d95760405162461bcd60e51b815260040161034990615a3e565b7f00000000000000000000000000000000000000000000000000000000000000006001600160a01b031661310d84846103d1565b6001600160a01b0316146131335760405162461bcd60e51b815260040161034990615980565b6001805460ff1916811790556040517f98a13f7b181a3a1f99c871e7a3507d4a037d386d157279f978e0d555ae9fe74d9061318f907f000000000000000000000000000000000000000000000000000000000000000090615810565b60405180910390a1505050565b7f000000000000000000000000000000000000000000000000000000000000000081565b7f000000000000000000000000000000000000000000000000000000000000000081565b6131ec615375565b60006131f7836144d4565b9050600019811461320b57610329816104b8565b61327f836001600160a01b0316636f307dc36040518163ffffffff1660e01b815260040160206040518083038186803b15801561324757600080fd5b505afa15801561325b573d6000803e3d6000fd5b505050506040513d601f19601f820116820180604052508101906101fa91906154eb565b9392505050565b7f000000000000000000000000000000000000000000000000000000000000000081565b601e81565b7f000000000000000000000000000000000000000000000000000000000000000081565b6003602052600090815260409020805460019091015482565b84831461330b5760405162461bcd60e51b815260040161034990615abf565b60005b858110156133ff577f00000000000000000000000000000000000000000000000000000000000000006001600160a01b03166338636e9a88888481811061335157fe5b90506020028101906133639190615baf565b88888681811061336f57fe5b90506020028101906133819190615baf565b6040518563ffffffff1660e01b81526004016133a09493929190615871565b600060405180830381600087803b1580156133ba57600080fd5b505af11580156133ce573d6000803e3d6000fd5b505050506040513d6000823e601f3d908101601f191682016040526133f6919081019061568e565b5060010161330e565b50600061340a614c92565b905060005b8281101561347c5761347484848381811061342657fe5b90506020028101906134389190615bf4565b8080601f016020809104026020016040519081016040528093929190818152602001838380828437600092019190915250869250614cd8915050565b60010161340f565b5050505050505050565b6000613490615375565b613499836131e4565b905080606001516134bf6c0c9f2c9cd04674edea400000006134ba84614f45565b615034565b816134c657fe5b049392505050565b60006134d8615375565b6134e18361037b565b905061327f81614f45565b60008060006134f961506e565b9050836001600160a01b0316635909c0d56040518163ffffffff1660e01b815260040160206040518083038186803b15801561353457600080fd5b505afa158015613548573d6000803e3d6000fd5b505050506040513d602081101561355e57600080fd5b505160408051635a3d549360e01b815290519194506001600160a01b03861691635a3d549391600480820192602092909190829003018186803b1580156135a457600080fd5b505afa1580156135b8573d6000803e3d6000fd5b505050506040513d60208110156135ce57600080fd5b505160408051630240bc6b60e21b81529051919350600091829182916001600160a01b03891691630902f1ac916004808301926060929190829003018186803b15801561361a57600080fd5b505afa15801561362e573d6000803e3d6000fd5b505050506040513d606081101561364457600080fd5b5080516020820151604090920151909450909250905063ffffffff808216908516146136b15780840363ffffffff811661367e84866136bb565b516001600160e01b031602969096019563ffffffff811661369f85856136bb565b516001600160e01b0316029590950194505b5050509193909250565b6136c36153ba565b6000826001600160701b031611613721576040805162461bcd60e51b815260206004820152601760248201527f4669786564506f696e743a204449565f42595f5a45524f000000000000000000604482015290519081900360640190fd5b6040805160208101909152806001600160701b0384166dffffffffffffffffffffffffffff60701b607087901b168161375657fe5b046001600160e01b0316815250905092915050565b60007f000000000000000000000000000000000000000000000000000000000000000082141561379d57506000610352565b7f00000000000000000000000000000000000000000000000000000000000000008214156137cd57506001610352565b7f00000000000000000000000000000000000000000000000000000000000000008214156137fd57506002610352565b7f000000000000000000000000000000000000000000000000000000000000000082141561382d57506003610352565b7f000000000000000000000000000000000000000000000000000000000000000082141561385d57506004610352565b7f000000000000000000000000000000000000000000000000000000000000000082141561388d57506005610352565b7f00000000000000000000000000000000000000000000000000000000000000008214156138bd57506006610352565b7f00000000000000000000000000000000000000000000000000000000000000008214156138ed57506007610352565b7f000000000000000000000000000000000000000000000000000000000000000082141561391d57506008610352565b7f000000000000000000000000000000000000000000000000000000000000000082141561394d57506009610352565b7f000000000000000000000000000000000000000000000000000000000000000082141561397d5750600a610352565b7f00000000000000000000000000000000000000000000000000000000000000008214156139ad5750600b610352565b7f00000000000000000000000000000000000000000000000000000000000000008214156139dd5750600c610352565b7f0000000000000000000000000000000000000000000000000000000000000000821415613a0d5750600d610352565b7f0000000000000000000000000000000000000000000000000000000000000000821415613a3d5750600e610352565b7f0000000000000000000000000000000000000000000000000000000000000000821415613a6d5750600f610352565b7f0000000000000000000000000000000000000000000000000000000000000000821415613a9d57506010610352565b7f0000000000000000000000000000000000000000000000000000000000000000821415613acd57506011610352565b7f0000000000000000000000000000000000000000000000000000000000000000821415613afd57506012610352565b7f0000000000000000000000000000000000000000000000000000000000000000821415613b2d57506013610352565b7f0000000000000000000000000000000000000000000000000000000000000000821415613b5d57506014610352565b7f0000000000000000000000000000000000000000000000000000000000000000821415613b8d57506015610352565b7f0000000000000000000000000000000000000000000000000000000000000000821415613bbd57506016610352565b7f0000000000000000000000000000000000000000000000000000000000000000821415613bed57506017610352565b7f0000000000000000000000000000000000000000000000000000000000000000821415613c1d57506018610352565b7f0000000000000000000000000000000000000000000000000000000000000000821415613c4d57506019610352565b7f0000000000000000000000000000000000000000000000000000000000000000821415613c7d5750601a610352565b7f0000000000000000000000000000000000000000000000000000000000000000821415613cad5750601b610352565b7f0000000000000000000000000000000000000000000000000000000000000000821415613cdd5750601c610352565b7f0000000000000000000000000000000000000000000000000000000000000000821415613d0d5750601d610352565b50600019919050565b60007f00000000000000000000000000000000000000000000000000000000000000006001600160a01b0316826001600160a01b03161415613d5a57506000610352565b7f00000000000000000000000000000000000000000000000000000000000000006001600160a01b0316826001600160a01b03161415613d9c57506001610352565b7f00000000000000000000000000000000000000000000000000000000000000006001600160a01b0316826001600160a01b03161415613dde57506002610352565b7f00000000000000000000000000000000000000000000000000000000000000006001600160a01b0316826001600160a01b03161415613e2057506003610352565b7f00000000000000000000000000000000000000000000000000000000000000006001600160a01b0316826001600160a01b03161415613e6257506004610352565b7f00000000000000000000000000000000000000000000000000000000000000006001600160a01b0316826001600160a01b03161415613ea457506005610352565b7f00000000000000000000000000000000000000000000000000000000000000006001600160a01b0316826001600160a01b03161415613ee657506006610352565b7f00000000000000000000000000000000000000000000000000000000000000006001600160a01b0316826001600160a01b03161415613f2857506007610352565b7f00000000000000000000000000000000000000000000000000000000000000006001600160a01b0316826001600160a01b03161415613f6a57506008610352565b7f00000000000000000000000000000000000000000000000000000000000000006001600160a01b0316826001600160a01b03161415613fac57506009610352565b7f00000000000000000000000000000000000000000000000000000000000000006001600160a01b0316826001600160a01b03161415613fee5750600a610352565b7f00000000000000000000000000000000000000000000000000000000000000006001600160a01b0316826001600160a01b031614156140305750600b610352565b7f00000000000000000000000000000000000000000000000000000000000000006001600160a01b0316826001600160a01b031614156140725750600c610352565b7f00000000000000000000000000000000000000000000000000000000000000006001600160a01b0316826001600160a01b031614156140b45750600d610352565b7f00000000000000000000000000000000000000000000000000000000000000006001600160a01b0316826001600160a01b031614156140f65750600e610352565b7f00000000000000000000000000000000000000000000000000000000000000006001600160a01b0316826001600160a01b031614156141385750600f610352565b7f00000000000000000000000000000000000000000000000000000000000000006001600160a01b0316826001600160a01b0316141561417a57506010610352565b7f00000000000000000000000000000000000000000000000000000000000000006001600160a01b0316826001600160a01b031614156141bc57506011610352565b7f00000000000000000000000000000000000000000000000000000000000000006001600160a01b0316826001600160a01b031614156141fe57506012610352565b7f00000000000000000000000000000000000000000000000000000000000000006001600160a01b0316826001600160a01b0316141561424057506013610352565b7f00000000000000000000000000000000000000000000000000000000000000006001600160a01b0316826001600160a01b0316141561428257506014610352565b7f00000000000000000000000000000000000000000000000000000000000000006001600160a01b0316826001600160a01b031614156142c457506015610352565b7f00000000000000000000000000000000000000000000000000000000000000006001600160a01b0316826001600160a01b0316141561430657506016610352565b7f00000000000000000000000000000000000000000000000000000000000000006001600160a01b0316826001600160a01b0316141561434857506017610352565b7f00000000000000000000000000000000000000000000000000000000000000006001600160a01b0316826001600160a01b0316141561438a57506018610352565b7f00000000000000000000000000000000000000000000000000000000000000006001600160a01b0316826001600160a01b031614156143cc57506019610352565b7f00000000000000000000000000000000000000000000000000000000000000006001600160a01b0316826001600160a01b0316141561440e5750601a610352565b7f00000000000000000000000000000000000000000000000000000000000000006001600160a01b0316826001600160a01b031614156144505750601b610352565b7f00000000000000000000000000000000000000000000000000000000000000006001600160a01b0316826001600160a01b031614156144925750601c610352565b7f00000000000000000000000000000000000000000000000000000000000000006001600160a01b0316826001600160a01b03161415613d0d5750601d610352565b60007f00000000000000000000000000000000000000000000000000000000000000006001600160a01b0316826001600160a01b0316141561451857506000610352565b7f00000000000000000000000000000000000000000000000000000000000000006001600160a01b0316826001600160a01b0316141561455a57506001610352565b7f00000000000000000000000000000000000000000000000000000000000000006001600160a01b0316826001600160a01b0316141561459c57506002610352565b7f00000000000000000000000000000000000000000000000000000000000000006001600160a01b0316826001600160a01b031614156145de57506003610352565b7f00000000000000000000000000000000000000000000000000000000000000006001600160a01b0316826001600160a01b0316141561462057506004610352565b7f00000000000000000000000000000000000000000000000000000000000000006001600160a01b0316826001600160a01b0316141561466257506005610352565b7f00000000000000000000000000000000000000000000000000000000000000006001600160a01b0316826001600160a01b031614156146a457506006610352565b7f00000000000000000000000000000000000000000000000000000000000000006001600160a01b0316826001600160a01b031614156146e657506007610352565b7f00000000000000000000000000000000000000000000000000000000000000006001600160a01b0316826001600160a01b0316141561472857506008610352565b7f00000000000000000000000000000000000000000000000000000000000000006001600160a01b0316826001600160a01b0316141561476a57506009610352565b7f00000000000000000000000000000000000000000000000000000000000000006001600160a01b0316826001600160a01b031614156147ac5750600a610352565b7f00000000000000000000000000000000000000000000000000000000000000006001600160a01b0316826001600160a01b031614156147ee5750600b610352565b7f00000000000000000000000000000000000000000000000000000000000000006001600160a01b0316826001600160a01b031614156148305750600c610352565b7f00000000000000000000000000000000000000000000000000000000000000006001600160a01b0316826001600160a01b031614156148725750600d610352565b7f00000000000000000000000000000000000000000000000000000000000000006001600160a01b0316826001600160a01b031614156148b45750600e610352565b7f00000000000000000000000000000000000000000000000000000000000000006001600160a01b0316826001600160a01b031614156148f65750600f610352565b7f00000000000000000000000000000000000000000000000000000000000000006001600160a01b0316826001600160a01b0316141561493857506010610352565b7f00000000000000000000000000000000000000000000000000000000000000006001600160a01b0316826001600160a01b0316141561497a57506011610352565b7f00000000000000000000000000000000000000000000000000000000000000006001600160a01b0316826001600160a01b031614156149bc57506012610352565b7f00000000000000000000000000000000000000000000000000000000000000006001600160a01b0316826001600160a01b031614156149fe57506013610352565b7f00000000000000000000000000000000000000000000000000000000000000006001600160a01b0316826001600160a01b03161415614a4057506014610352565b7f00000000000000000000000000000000000000000000000000000000000000006001600160a01b0316826001600160a01b03161415614a8257506015610352565b7f00000000000000000000000000000000000000000000000000000000000000006001600160a01b0316826001600160a01b03161415614ac457506016610352565b7f00000000000000000000000000000000000000000000000000000000000000006001600160a01b0316826001600160a01b03161415614b0657506017610352565b7f00000000000000000000000000000000000000000000000000000000000000006001600160a01b0316826001600160a01b03161415614b4857506018610352565b7f00000000000000000000000000000000000000000000000000000000000000006001600160a01b0316826001600160a01b03161415614b8a57506019610352565b7f00000000000000000000000000000000000000000000000000000000000000006001600160a01b0316826001600160a01b03161415614bcc5750601a610352565b7f00000000000000000000000000000000000000000000000000000000000000006001600160a01b0316826001600160a01b03161415614c0e5750601b610352565b7f00000000000000000000000000000000000000000000000000000000000000006001600160a01b0316826001600160a01b03161415614c505750601c610352565b7f00000000000000000000000000000000000000000000000000000000000000006001600160a01b0316826001600160a01b03161415613d0d5750601d610352565b6000614cd36040518060400160405280600381526020016208aa8960eb1b815250614cc560405160200161039790615801565b670de0b6b3a7640000615078565b905090565b614ce0615375565b614ce98361037b565b9050600281608001516002811115614cfd57fe5b14614d1a5760405162461bcd60e51b8152600401610349906159d0565b600083604051602001614d2d91906157a2565b60405160208183030381529060405280519060200120905060007f00000000000000000000000000000000000000000000000000000000000000006001600160a01b03166376977a3a7f0000000000000000000000000000000000000000000000000000000000000000876040518363ffffffff1660e01b8152600401614db5929190615824565b60206040518083038186803b158015614dcd57600080fd5b505afa158015614de1573d6000803e3d6000fd5b505050506040513d601f19601f82011682018060405250810190614e059190615711565b67ffffffffffffffff1690506000604051602001614e2290615801565b60405160208183030381529060405280519060200120831415614e46575083614e54565b614e51868587615078565b90505b60015460ff1615614eaf5760008381526020819052604090819020829055517f159e83f4712ba2552e68be9d848e49bf6dd35c24f19564ffd523b6549450a2f490614ea290889084906158a3565b60405180910390a1614f3d565b614eb98282615190565b15614f015760008381526020819052604090819020839055517f159e83f4712ba2552e68be9d848e49bf6dd35c24f19564ffd523b6549450a2f490614ea290889085906158a3565b7f90756d4c8646a4591078abac0e4e32dfa8437921729e36d51b88b659d265bfde868383604051614f34939291906158c5565b60405180910390a15b505050505050565b6000600282608001516002811115614f5957fe5b1415614f775750604080820151600090815260208190522054610352565b600182608001516002811115614f8957fe5b1415614f9a575060a0810151610352565b600082608001516002811115614fac57fe5b1415610352576000806000604051602001614fc690615801565b6040516020818303038152906040528051906020012081526020019081526020016000205490506000811161500d5760405162461bcd60e51b815260040161034990615a73565b670de0b6b3a7640000615024828560a00151615034565b8161502b57fe5b04915050610352565b600082615043575060006103b2565b8282028284828161505057fe5b041461327f5760405162461bcd60e51b815260040161034990615919565b63ffffffff421690565b60008060008061508786615218565b9250925092508042116150ac5760405162461bcd60e51b815260040161034990615a07565b428190036150b86153ba565b604051806020016040528083868803816150ce57fe5b046001600160e01b0316815250905060006150e88261532b565b905060006150f6828a615034565b905060008a60e0015115615119578a60600151828161511157fe5b049050615144565b670de0b6b3a764000080615131848e60600151615034565b8161513857fe5b048161514057fe5b0490505b7ff63d078e0de851897107641e96093a59e5ddc3c25e7b85a2585e3eba9e774a7b8c82884260405161517994939291906158ea565b60405180910390a19b9a5050505050505050505050565b6000821561520f576000836151ad84670de0b6b3a7640000615034565b816151b457fe5b0490507f0000000000000000000000000000000000000000000000000000000000000000811115801561520757507f00000000000000000000000000000000000000000000000000000000000000008110155b9150506103b2565b50600092915050565b60008060008084604001519050600061523086615343565b905061523a6153cc565b50600082815260036020908152604091829020825180840190935280548084526001909101549183019190915242037f00000000000000000000000000000000000000000000000000000000000000008110615306578151600085815260026020908152604080832093845581860180516001958601556003909252918290204280825593018690558a82015185519151925190937fe37d39315e3419c0937360f1ac88f2c52ecf67e3b22b367f82047ddb4591904a936152fd93928990615b94565b60405180910390a25b5050600091825260026020526040909120600181015490549196909550909350915050565b516612725dd1d243ab6001600160e01b039091160490565b60008060006153558460c001516134ec565b50915091508360e001511561536d5791506103529050565b509050610352565b60408051610100810182526000808252602082018190529181018290526060810182905290608082019081526000602082018190526040820181905260609091015290565b60408051602081019091526000815290565b604051806040016040528060008152602001600081525090565b60008083601f8401126153f7578182fd5b50813567ffffffffffffffff81111561540e578182fd5b602083019150836020808302850101111561542857600080fd5b9250929050565b600082601f83011261543f578081fd5b813561545261544d82615c2e565b615c0a565b915080825283602082850101111561546957600080fd5b8060208401602084013760009082016020015292915050565b600082601f830112615492578081fd5b81516154a061544d82615c2e565b91508082528360208285010111156154b757600080fd5b6154c8816020840160208601615c50565b5092915050565b6000602082840312156154e0578081fd5b813561327f81615c80565b6000602082840312156154fc578081fd5b815161327f81615c80565b6000806000806000806060878903121561551f578182fd5b863567ffffffffffffffff80821115615536578384fd5b6155428a838b016153e6565b9098509650602089013591508082111561555a578384fd5b6155668a838b016153e6565b9096509450604089013591508082111561557e578384fd5b5061558b89828a016153e6565b979a9699509497509295939492505050565b6000602082840312156155ae578081fd5b5035919050565b6000806000606084860312156155c9578283fd5b8351925060208401519150604084015160ff811681146155e7578182fd5b809150509250925092565b60008060408385031215615604578182fd5b823567ffffffffffffffff8082111561561b578384fd5b6156278683870161542f565b9350602085013591508082111561563c578283fd5b506156498582860161542f565b9150509250929050565b600060208284031215615664578081fd5b813567ffffffffffffffff81111561567a578182fd5b6156868482850161542f565b949350505050565b60006020828403121561569f578081fd5b815167ffffffffffffffff8111156156b5578182fd5b61568684828501615482565b600080604083850312156156d3578182fd5b825167ffffffffffffffff8111156156e9578283fd5b6156f585828601615482565b925050602083015161570681615c80565b809150509250929050565b600060208284031215615722578081fd5b815167ffffffffffffffff8116811461327f578182fd5b6001600160a01b03169052565b15159052565b60008284528282602086013780602084860101526020601f19601f85011685010190509392505050565b6000815180845261578e816020860160208601615c50565b601f01601f19169290920160200192915050565b600082516157b4818460208701615c50565b9190910192915050565b7f19457468657265756d205369676e6564204d6573736167653a0a3332000000008152601c810191909152603c0190565b65726f7461746560d01b815260060190565b6208aa8960eb1b815260030190565b6001600160a01b0391909116815260200190565b6001600160a01b038316815260406020820181905260009061568690830184615776565b901515815260200190565b93845260ff9290921660208401526040830152606082015260800190565b60006040825261588560408301868861574c565b828103602084015261589881858761574c565b979650505050505050565b6000604082526158b66040830185615776565b90508260208301529392505050565b6000606082526158d86060830186615776565b60208301949094525060400152919050565b6000608082526158fd6080830187615776565b6020830195909552506040810192909252606090910152919050565b60208082526017908201527f6d756c7469706c69636174696f6e206f766572666c6f77000000000000000000604082015260600190565b6020808252601690820152751d1bdad95b8818dbdb999a59c81b9bdd08199bdd5b9960521b604082015260600190565b60208082526030908201527f696e76616c69646174696f6e206d657373616765206d75737420636f6d65206660408201526f3937b6903a3432903932b837b93a32b960811b606082015260800190565b6020808252601f908201527f6f6e6c79207265706f72746572207072696365732067657420706f7374656400604082015260600190565b6020808252601a908201527f6e6f77206d75737420636f6d65206166746572206265666f7265000000000000604082015260600190565b6020808252818101527f696e76616c6964206d657373616765206d7573742062652027726f7461746527604082015260600190565b6020808252602c908201527f455448207072696365206e6f74207365742c2063616e6e6f7420636f6e76657260408201526b7420746f20646f6c6c61727360a01b606082015260800190565b60208082526023908201527f6d6573736167657320616e64207369676e617475726573206d75737420626520604082015262313a3160e81b606082015260800190565b81516001600160a01b039081168252602080840151909116908201526040808301519082015260608083015190820152608082015161010082019060038110615b4757fe5b8060808401525060a083015160a083015260c0830151615b6a60c0840182615739565b5060e08301516154c860e0840182615746565b90815260200190565b918252602082015260400190565b93845260208401929092526040830152606082015260800190565b6000808335601e19843603018112615bc5578283fd5b83018035915067ffffffffffffffff821115615bdf578283fd5b60200191503681900382131561542857600080fd5b6000808335601e19843603018112615bc5578182fd5b60405181810167ffffffffffffffff81118282101715615c2657fe5b604052919050565b600067ffffffffffffffff821115615c4257fe5b50601f01601f191660200190565b60005b83811015615c6b578181015183820152602001615c53565b83811115615c7a576000848401525b50505050565b6001600160a01b0381168114615c9557600080fd5b5056fea264697066735822122020040916414fcdba0cc54b037c2e1b64fe26c8c12a40e5ee538587fd3b55a00064736f6c63430007040033",
  "linkReferences": {},
  "deployedLinkReferences": {}
}