{
  "_format": "hh-sol-artifact-1",
  "contractName": "DvPSettlement",
  "sourceName": "contracts/Extensions/DVP/DvPSettlement.sol",
  "abi": [
    {
      "anonymous": false,
      "inputs": [
        {
          "indexed": true,
          "internalType": "uint256",
          "name": "settlementId",
          "type": "uint256"
        },
        {
          "indexed": true,
          "internalType": "address",
          "name": "executor",
          "type": "address"
        }
      ],
      "name": "SettlementExecuted",
      "type": "event"
    },
    {
      "anonymous": false,
      "inputs": [
        {
          "indexed": true,
          "internalType": "uint256",
          "name": "settlementId",
          "type": "uint256"
        }
      ],
      "name": "SettlementExpired",
      "type": "event"
    },
    {
      "anonymous": false,
      "inputs": [
        {
          "indexed": true,
          "internalType": "uint256",
          "name": "settlementId",
          "type": "uint256"
        },
        {
          "components": [
            {
              "internalType": "address",
              "name": "creator",
              "type": "address"
            },
            {
              "internalType": "address",
              "name": "creatorToken",
              "type": "address"
            },
            {
              "internalType": "uint256",
              "name": "creatorAmount",
              "type": "uint256"
            },
            {
              "internalType": "address",
              "name": "creatorBeneficiary",
              "type": "address"
            },
            {
              "internalType": "address",
              "name": "counterparty",
              "type": "address"
            },
            {
              "internalType": "address",
              "name": "counterpartyToken",
              "type": "address"
            },
            {
              "internalType": "uint256",
              "name": "counterpartyAmount",
              "type": "uint256"
            },
            {
              "internalType": "uint256",
              "name": "expirationDate",
              "type": "uint256"
            },
            {
              "internalType": "enum DvPSettlement.SettlementStatus",
              "name": "status",
              "type": "uint8"
            }
          ],
          "indexed": false,
          "internalType": "struct DvPSettlement.Settlement",
          "name": "settlement",
          "type": "tuple"
        }
      ],
      "name": "SettlementInitialized",
      "type": "event"
    },
    {
      "inputs": [
        {
          "internalType": "address",
          "name": "creatorToken",
          "type": "address"
        },
        {
          "internalType": "uint256",
          "name": "creatorAmount",
          "type": "uint256"
        },
        {
          "internalType": "address",
          "name": "creatorBeneficiary",
          "type": "address"
        },
        {
          "internalType": "address",
          "name": "counterparty",
          "type": "address"
        },
        {
          "internalType": "address",
          "name": "counterpartyToken",
          "type": "address"
        },
        {
          "internalType": "uint256",
          "name": "counterpartyAmount",
          "type": "uint256"
        },
        {
          "internalType": "uint256",
          "name": "expirationDate",
          "type": "uint256"
        }
      ],
      "name": "createSettlement",
      "outputs": [],
      "stateMutability": "nonpayable",
      "type": "function"
    },
    {
      "inputs": [
        {
          "internalType": "uint256",
          "name": "settlementId",
          "type": "uint256"
        }
      ],
      "name": "executeSettlement",
      "outputs": [],
      "stateMutability": "nonpayable",
      "type": "function"
    },
    {
      "inputs": [
        {
          "internalType": "uint256",
          "name": "settlementId",
          "type": "uint256"
        }
      ],
      "name": "expireSettlement",
      "outputs": [],
      "stateMutability": "nonpayable",
      "type": "function"
    },
    {
      "inputs": [],
      "name": "lastSettlementId",
      "outputs": [
        {
          "internalType": "uint256",
          "name": "",
          "type": "uint256"
        }
      ],
      "stateMutability": "view",
      "type": "function"
    },
    {
      "inputs": [
        {
          "internalType": "uint256",
          "name": "",
          "type": "uint256"
        }
      ],
      "name": "settlements",
      "outputs": [
        {
          "internalType": "address",
          "name": "creator",
          "type": "address"
        },
        {
          "internalType": "address",
          "name": "creatorToken",
          "type": "address"
        },
        {
          "internalType": "uint256",
          "name": "creatorAmount",
          "type": "uint256"
        },
        {
          "internalType": "address",
          "name": "creatorBeneficiary",
          "type": "address"
        },
        {
          "internalType": "address",
          "name": "counterparty",
          "type": "address"
        },
        {
          "internalType": "address",
          "name": "counterpartyToken",
          "type": "address"
        },
        {
          "internalType": "uint256",
          "name": "counterpartyAmount",
          "type": "uint256"
        },
        {
          "internalType": "uint256",
          "name": "expirationDate",
          "type": "uint256"
        },
        {
          "internalType": "enum DvPSettlement.SettlementStatus",
          "name": "status",
          "type": "uint8"
        }
      ],
      "stateMutability": "view",
      "type": "function"
    }
  ],
  "bytecode": "0x608060405234801561001057600080fd5b50610c79806100206000396000f3fe608060405234801561001057600080fd5b50600436106100575760003560e01c806308df7dc81461005c57806322761cca1461008d57806339598fae146100a257806353fd599d146100b757806383c0b8ac146100ca575b600080fd5b61006f61006a366004610759565b6100dd565b604051610084999897969594939291906107c9565b60405180910390f35b6100a061009b366004610759565b61013e565b005b6100aa610292565b6040516100849190610c08565b6100a06100c53660046106c2565b610298565b6100a06100d8366004610759565b61044e565b60016020819052600091825260409091208054918101546002820154600383015460048401546005850154600686015460078701546008909701546001600160a01b0398891698968716979596948516959385169490921692909160ff1689565b600081815260016020819052604090912090600882015460ff16600381111561016357fe5b146101895760405162461bcd60e51b815260040161018090610888565b60405180910390fd5b428160070154106101ac5760405162461bcd60e51b815260040161018090610926565b60088101805460ff1916600317905560018101548154600283015460405163a9059cbb60e01b81526001600160a01b039384169363a9059cbb936101f5939116916004016107b0565b602060405180830381600087803b15801561020f57600080fd5b505af1158015610223573d6000803e3d6000fd5b505050506040513d601f19601f820116820180604052508101906102479190610732565b6102635760405162461bcd60e51b815260040161018090610a1a565b60405182907fb225d3ed70d8e9aba9eff208c9b1d055ec421670b5037f3f1b3b3a7bd923efac90600090a25050565b60005481565b4281116102b75760405162461bcd60e51b81526004016101809061082b565b600019600054106102da5760405162461bcd60e51b815260040161018090610983565b600080546001908101808355825260208190526040918290208054336001600160a01b031991821617808355828401805483166001600160a01b038e81169190911791829055600285018d905560038501805485168d83161790556004808601805486168d84161790556005860180549095168b831617909455600685018990556007850188905560088501805460ff191690961790955594516323b872dd60e01b815292948416936323b872dd9361039c93919092169130918d910161078c565b602060405180830381600087803b1580156103b657600080fd5b505af11580156103ca573d6000803e3d6000fd5b505050506040513d601f19601f820116820180604052508101906103ee9190610732565b61040a5760405162461bcd60e51b815260040161018090610a69565b6000547fdfaefcb59efc7722ebdeb8d1ec6d1c3bb1c07a742e178a458fa00a45203cfbe28260405161043c9190610b40565b60405180910390a25050505050505050565b600081815260016020819052604090912090600882015460ff16600381111561047357fe5b146104905760405162461bcd60e51b815260040161018090610af5565b428160070154116104b35760405162461bcd60e51b8152600401610180906108e5565b60048101546001600160a01b031615806104d9575060048101546001600160a01b031633145b6104f55760405162461bcd60e51b8152600401610180906109d8565b60038101546000906001600160a01b03161561051e5760038201546001600160a01b031661052a565b81546001600160a01b03165b60088301805460ff19166002179055600583015460068401546040516323b872dd60e01b81529293506001600160a01b03909116916323b872dd91610575913391869160040161078c565b602060405180830381600087803b15801561058f57600080fd5b505af11580156105a3573d6000803e3d6000fd5b505050506040513d601f19601f820116820180604052508101906105c79190610732565b801561065857506001820154600283015460405163a9059cbb60e01b81526001600160a01b039092169163a9059cbb91610606913391906004016107b0565b602060405180830381600087803b15801561062057600080fd5b505af1158015610634573d6000803e3d6000fd5b505050506040513d601f19601f820116820180604052508101906106589190610732565b6106745760405162461bcd60e51b815260040161018090610ab7565b604051339084907ff059ff22963b773739a912cc5c0f2f358be1a072c66ba18e2c31e503fd01219590600090a3505050565b80356001600160a01b03811681146106bd57600080fd5b919050565b600080600080600080600060e0888a0312156106dc578283fd5b6106e5886106a6565b9650602088013595506106fa604089016106a6565b9450610708606089016106a6565b9350610716608089016106a6565b925060a0880135915060c0880135905092959891949750929550565b600060208284031215610743578081fd5b81518015158114610752578182fd5b9392505050565b60006020828403121561076a578081fd5b5035919050565b6001600160a01b03169052565b6004811061078857fe5b9052565b6001600160a01b039384168152919092166020820152604081019190915260600190565b6001600160a01b03929092168252602082015260400190565b6001600160a01b038a8116825289811660208301526040820189905287811660608301528681166080830152851660a082015260c0810184905260e08101839052610120810161081d61010083018461077e565b9a9950505050505050505050565b60208082526037908201527f447650536574746c656d656e742e637265617465536574746c656d656e743a2060408201527f494e56414c49445f45585049524154494f4e5f44415445000000000000000000606082015260800190565b6020808252603a908201527f447650536574746c656d656e742e657870697265536574746c656d656e743a2060408201527f534554544c454d454e545f4e4f545f494e495449414c495a4544000000000000606082015260800190565b6020808252603390820152600080516020610c248339815191526040820152720814d1551513115351539517d1561412549151606a1b606082015260800190565b6020808252603a908201527f447650536574746c656d656e742e657870697265536574746c656d656e743a2060408201527f534554544c454d454e545f4e4f545f5945545f45585049524544000000000000606082015260800190565b60208082526035908201527f447650536574746c656d656e742e637265617465536574746c656d656e743a206040820152741253959053125117d4d1551513115351539517d251605a1b606082015260800190565b6020808252603490820152600080516020610c24833981519152604082015273102aa720aaaa2427a924ad22a22fa9a2a72222a960611b606082015260800190565b6020808252602f908201527f447650536574746c656d656e742e657870697265536574746c656d656e743a2060408201526e1514905394d1915497d19052531151608a1b606082015260800190565b6020808252602e908201527f447650536574746c656d656e742e637265617465536574746c656d656e743a2060408201526d1514905391915497d1905253115160921b606082015260800190565b6020808252603090820152600080516020610c2483398151915260408201526f081514905394d1915497d1905253115160821b606082015260800190565b6020808252603b90820152600080516020610c2483398151915260408201527f20534554544c454d454e545f4e4f545f494e495449414c495a45440000000000606082015260800190565b600061012082019050610b5c82610b578554610c11565b610771565b610b696001840154610c11565b610b766020840182610771565b5060028301546040830152610b8e6003840154610c11565b610b9b6060840182610771565b50610ba96004840154610c11565b610bb66080840182610771565b50610bc46005840154610c11565b610bd160a0840182610771565b50600683015460c0830152600783015460e0830152610bf36008840154610c1d565b610c0161010084018261077e565b5092915050565b90815260200190565b6001600160a01b031690565b60ff169056fe447650536574746c656d656e742e65786563757465536574746c656d656e743aa2646970667358221220fa7d13e0ecddac7ef648a72ac2c1178c361b5fd14ecc3ed55aa64bd38468d71d64736f6c63430007040033",
  "linkReferences": {},
  "deployedLinkReferences": {}
}