{
  "_format": "hh-sol-artifact-1",
  "contractName": "StateRegistry",
  "sourceName": "contracts/Core/Base/AssetRegistry/State/StateRegistry.sol",
  "abi": [
    {
      "anonymous": false,
      "inputs": [
        {
          "indexed": true,
          "internalType": "bytes32",
          "name": "assetId",
          "type": "bytes32"
        },
        {
          "indexed": true,
          "internalType": "address",
          "name": "account",
          "type": "address"
        },
        {
          "indexed": false,
          "internalType": "bytes4",
          "name": "methodSignature",
          "type": "bytes4"
        }
      ],
      "name": "GrantedAccess",
      "type": "event"
    },
    {
      "anonymous": false,
      "inputs": [
        {
          "indexed": true,
          "internalType": "bytes32",
          "name": "assetId",
          "type": "bytes32"
        },
        {
          "indexed": true,
          "internalType": "address",
          "name": "account",
          "type": "address"
        },
        {
          "indexed": false,
          "internalType": "bytes4",
          "name": "methodSignature",
          "type": "bytes4"
        }
      ],
      "name": "RevokedAccess",
      "type": "event"
    },
    {
      "anonymous": false,
      "inputs": [
        {
          "indexed": true,
          "internalType": "bytes32",
          "name": "assetId",
          "type": "bytes32"
        },
        {
          "indexed": false,
          "internalType": "uint256",
          "name": "statusDate",
          "type": "uint256"
        }
      ],
      "name": "UpdatedFinalizedState",
      "type": "event"
    },
    {
      "anonymous": false,
      "inputs": [
        {
          "indexed": true,
          "internalType": "bytes32",
          "name": "assetId",
          "type": "bytes32"
        },
        {
          "indexed": false,
          "internalType": "uint256",
          "name": "statusDate",
          "type": "uint256"
        }
      ],
      "name": "UpdatedState",
      "type": "event"
    },
    {
      "inputs": [
        {
          "internalType": "bytes32",
          "name": "assetId",
          "type": "bytes32"
        },
        {
          "internalType": "bytes32",
          "name": "attribute",
          "type": "bytes32"
        }
      ],
      "name": "getEnumValueForStateAttribute",
      "outputs": [
        {
          "internalType": "uint8",
          "name": "",
          "type": "uint8"
        }
      ],
      "stateMutability": "view",
      "type": "function"
    },
    {
      "inputs": [
        {
          "internalType": "bytes32",
          "name": "assetId",
          "type": "bytes32"
        }
      ],
      "name": "getFinalizedState",
      "outputs": [
        {
          "components": [
            {
              "internalType": "enum ContractPerformance",
              "name": "contractPerformance",
              "type": "uint8"
            },
            {
              "internalType": "uint256",
              "name": "statusDate",
              "type": "uint256"
            },
            {
              "internalType": "uint256",
              "name": "nonPerformingDate",
              "type": "uint256"
            },
            {
              "internalType": "uint256",
              "name": "maturityDate",
              "type": "uint256"
            },
            {
              "internalType": "uint256",
              "name": "exerciseDate",
              "type": "uint256"
            },
            {
              "internalType": "uint256",
              "name": "terminationDate",
              "type": "uint256"
            },
            {
              "internalType": "uint256",
              "name": "lastCouponFixingDate",
              "type": "uint256"
            },
            {
              "internalType": "uint256",
              "name": "lastDividendFixingDate",
              "type": "uint256"
            },
            {
              "internalType": "int256",
              "name": "notionalPrincipal",
              "type": "int256"
            },
            {
              "internalType": "int256",
              "name": "accruedInterest",
              "type": "int256"
            },
            {
              "internalType": "int256",
              "name": "feeAccrued",
              "type": "int256"
            },
            {
              "internalType": "int256",
              "name": "nominalInterestRate",
              "type": "int256"
            },
            {
              "internalType": "int256",
              "name": "interestScalingMultiplier",
              "type": "int256"
            },
            {
              "internalType": "int256",
              "name": "notionalScalingMultiplier",
              "type": "int256"
            },
            {
              "internalType": "int256",
              "name": "nextPrincipalRedemptionPayment",
              "type": "int256"
            },
            {
              "internalType": "int256",
              "name": "exerciseAmount",
              "type": "int256"
            },
            {
              "internalType": "int256",
              "name": "exerciseQuantity",
              "type": "int256"
            },
            {
              "internalType": "int256",
              "name": "quantity",
              "type": "int256"
            },
            {
              "internalType": "int256",
              "name": "couponAmountFixed",
              "type": "int256"
            },
            {
              "internalType": "int256",
              "name": "marginFactor",
              "type": "int256"
            },
            {
              "internalType": "int256",
              "name": "adjustmentFactor",
              "type": "int256"
            },
            {
              "internalType": "int256",
              "name": "dividendPaymentAmount",
              "type": "int256"
            },
            {
              "internalType": "int256",
              "name": "splitRatio",
              "type": "int256"
            }
          ],
          "internalType": "struct State",
          "name": "",
          "type": "tuple"
        }
      ],
      "stateMutability": "view",
      "type": "function"
    },
    {
      "inputs": [
        {
          "internalType": "bytes32",
          "name": "assetId",
          "type": "bytes32"
        },
        {
          "internalType": "bytes32",
          "name": "attribute",
          "type": "bytes32"
        }
      ],
      "name": "getIntValueForStateAttribute",
      "outputs": [
        {
          "internalType": "int256",
          "name": "",
          "type": "int256"
        }
      ],
      "stateMutability": "view",
      "type": "function"
    },
    {
      "inputs": [
        {
          "internalType": "bytes32",
          "name": "assetId",
          "type": "bytes32"
        }
      ],
      "name": "getState",
      "outputs": [
        {
          "components": [
            {
              "internalType": "enum ContractPerformance",
              "name": "contractPerformance",
              "type": "uint8"
            },
            {
              "internalType": "uint256",
              "name": "statusDate",
              "type": "uint256"
            },
            {
              "internalType": "uint256",
              "name": "nonPerformingDate",
              "type": "uint256"
            },
            {
              "internalType": "uint256",
              "name": "maturityDate",
              "type": "uint256"
            },
            {
              "internalType": "uint256",
              "name": "exerciseDate",
              "type": "uint256"
            },
            {
              "internalType": "uint256",
              "name": "terminationDate",
              "type": "uint256"
            },
            {
              "internalType": "uint256",
              "name": "lastCouponFixingDate",
              "type": "uint256"
            },
            {
              "internalType": "uint256",
              "name": "lastDividendFixingDate",
              "type": "uint256"
            },
            {
              "internalType": "int256",
              "name": "notionalPrincipal",
              "type": "int256"
            },
            {
              "internalType": "int256",
              "name": "accruedInterest",
              "type": "int256"
            },
            {
              "internalType": "int256",
              "name": "feeAccrued",
              "type": "int256"
            },
            {
              "internalType": "int256",
              "name": "nominalInterestRate",
              "type": "int256"
            },
            {
              "internalType": "int256",
              "name": "interestScalingMultiplier",
              "type": "int256"
            },
            {
              "internalType": "int256",
              "name": "notionalScalingMultiplier",
              "type": "int256"
            },
            {
              "internalType": "int256",
              "name": "nextPrincipalRedemptionPayment",
              "type": "int256"
            },
            {
              "internalType": "int256",
              "name": "exerciseAmount",
              "type": "int256"
            },
            {
              "internalType": "int256",
              "name": "exerciseQuantity",
              "type": "int256"
            },
            {
              "internalType": "int256",
              "name": "quantity",
              "type": "int256"
            },
            {
              "internalType": "int256",
              "name": "couponAmountFixed",
              "type": "int256"
            },
            {
              "internalType": "int256",
              "name": "marginFactor",
              "type": "int256"
            },
            {
              "internalType": "int256",
              "name": "adjustmentFactor",
              "type": "int256"
            },
            {
              "internalType": "int256",
              "name": "dividendPaymentAmount",
              "type": "int256"
            },
            {
              "internalType": "int256",
              "name": "splitRatio",
              "type": "int256"
            }
          ],
          "internalType": "struct State",
          "name": "",
          "type": "tuple"
        }
      ],
      "stateMutability": "view",
      "type": "function"
    },
    {
      "inputs": [
        {
          "internalType": "bytes32",
          "name": "assetId",
          "type": "bytes32"
        },
        {
          "internalType": "bytes32",
          "name": "attribute",
          "type": "bytes32"
        }
      ],
      "name": "getUintValueForStateAttribute",
      "outputs": [
        {
          "internalType": "uint256",
          "name": "",
          "type": "uint256"
        }
      ],
      "stateMutability": "view",
      "type": "function"
    },
    {
      "inputs": [
        {
          "internalType": "bytes32",
          "name": "assetId",
          "type": "bytes32"
        },
        {
          "internalType": "bytes4",
          "name": "methodSignature",
          "type": "bytes4"
        },
        {
          "internalType": "address",
          "name": "account",
          "type": "address"
        }
      ],
      "name": "grantAccess",
      "outputs": [],
      "stateMutability": "nonpayable",
      "type": "function"
    },
    {
      "inputs": [
        {
          "internalType": "bytes32",
          "name": "assetId",
          "type": "bytes32"
        },
        {
          "internalType": "bytes4",
          "name": "methodSignature",
          "type": "bytes4"
        },
        {
          "internalType": "address",
          "name": "account",
          "type": "address"
        }
      ],
      "name": "hasAccess",
      "outputs": [
        {
          "internalType": "bool",
          "name": "",
          "type": "bool"
        }
      ],
      "stateMutability": "view",
      "type": "function"
    },
    {
      "inputs": [
        {
          "internalType": "bytes32",
          "name": "assetId",
          "type": "bytes32"
        },
        {
          "internalType": "address",
          "name": "account",
          "type": "address"
        }
      ],
      "name": "hasRootAccess",
      "outputs": [
        {
          "internalType": "bool",
          "name": "",
          "type": "bool"
        }
      ],
      "stateMutability": "view",
      "type": "function"
    },
    {
      "inputs": [
        {
          "internalType": "bytes32",
          "name": "assetId",
          "type": "bytes32"
        },
        {
          "internalType": "bytes4",
          "name": "methodSignature",
          "type": "bytes4"
        },
        {
          "internalType": "address",
          "name": "account",
          "type": "address"
        }
      ],
      "name": "revokeAccess",
      "outputs": [],
      "stateMutability": "nonpayable",
      "type": "function"
    },
    {
      "inputs": [
        {
          "internalType": "bytes32",
          "name": "assetId",
          "type": "bytes32"
        },
        {
          "components": [
            {
              "internalType": "enum ContractPerformance",
              "name": "contractPerformance",
              "type": "uint8"
            },
            {
              "internalType": "uint256",
              "name": "statusDate",
              "type": "uint256"
            },
            {
              "internalType": "uint256",
              "name": "nonPerformingDate",
              "type": "uint256"
            },
            {
              "internalType": "uint256",
              "name": "maturityDate",
              "type": "uint256"
            },
            {
              "internalType": "uint256",
              "name": "exerciseDate",
              "type": "uint256"
            },
            {
              "internalType": "uint256",
              "name": "terminationDate",
              "type": "uint256"
            },
            {
              "internalType": "uint256",
              "name": "lastCouponFixingDate",
              "type": "uint256"
            },
            {
              "internalType": "uint256",
              "name": "lastDividendFixingDate",
              "type": "uint256"
            },
            {
              "internalType": "int256",
              "name": "notionalPrincipal",
              "type": "int256"
            },
            {
              "internalType": "int256",
              "name": "accruedInterest",
              "type": "int256"
            },
            {
              "internalType": "int256",
              "name": "feeAccrued",
              "type": "int256"
            },
            {
              "internalType": "int256",
              "name": "nominalInterestRate",
              "type": "int256"
            },
            {
              "internalType": "int256",
              "name": "interestScalingMultiplier",
              "type": "int256"
            },
            {
              "internalType": "int256",
              "name": "notionalScalingMultiplier",
              "type": "int256"
            },
            {
              "internalType": "int256",
              "name": "nextPrincipalRedemptionPayment",
              "type": "int256"
            },
            {
              "internalType": "int256",
              "name": "exerciseAmount",
              "type": "int256"
            },
            {
              "internalType": "int256",
              "name": "exerciseQuantity",
              "type": "int256"
            },
            {
              "internalType": "int256",
              "name": "quantity",
              "type": "int256"
            },
            {
              "internalType": "int256",
              "name": "couponAmountFixed",
              "type": "int256"
            },
            {
              "internalType": "int256",
              "name": "marginFactor",
              "type": "int256"
            },
            {
              "internalType": "int256",
              "name": "adjustmentFactor",
              "type": "int256"
            },
            {
              "internalType": "int256",
              "name": "dividendPaymentAmount",
              "type": "int256"
            },
            {
              "internalType": "int256",
              "name": "splitRatio",
              "type": "int256"
            }
          ],
          "internalType": "struct State",
          "name": "state",
          "type": "tuple"
        }
      ],
      "name": "setFinalizedState",
      "outputs": [],
      "stateMutability": "nonpayable",
      "type": "function"
    },
    {
      "inputs": [
        {
          "internalType": "bytes32",
          "name": "assetId",
          "type": "bytes32"
        },
        {
          "components": [
            {
              "internalType": "enum ContractPerformance",
              "name": "contractPerformance",
              "type": "uint8"
            },
            {
              "internalType": "uint256",
              "name": "statusDate",
              "type": "uint256"
            },
            {
              "internalType": "uint256",
              "name": "nonPerformingDate",
              "type": "uint256"
            },
            {
              "internalType": "uint256",
              "name": "maturityDate",
              "type": "uint256"
            },
            {
              "internalType": "uint256",
              "name": "exerciseDate",
              "type": "uint256"
            },
            {
              "internalType": "uint256",
              "name": "terminationDate",
              "type": "uint256"
            },
            {
              "internalType": "uint256",
              "name": "lastCouponFixingDate",
              "type": "uint256"
            },
            {
              "internalType": "uint256",
              "name": "lastDividendFixingDate",
              "type": "uint256"
            },
            {
              "internalType": "int256",
              "name": "notionalPrincipal",
              "type": "int256"
            },
            {
              "internalType": "int256",
              "name": "accruedInterest",
              "type": "int256"
            },
            {
              "internalType": "int256",
              "name": "feeAccrued",
              "type": "int256"
            },
            {
              "internalType": "int256",
              "name": "nominalInterestRate",
              "type": "int256"
            },
            {
              "internalType": "int256",
              "name": "interestScalingMultiplier",
              "type": "int256"
            },
            {
              "internalType": "int256",
              "name": "notionalScalingMultiplier",
              "type": "int256"
            },
            {
              "internalType": "int256",
              "name": "nextPrincipalRedemptionPayment",
              "type": "int256"
            },
            {
              "internalType": "int256",
              "name": "exerciseAmount",
              "type": "int256"
            },
            {
              "internalType": "int256",
              "name": "exerciseQuantity",
              "type": "int256"
            },
            {
              "internalType": "int256",
              "name": "quantity",
              "type": "int256"
            },
            {
              "internalType": "int256",
              "name": "couponAmountFixed",
              "type": "int256"
            },
            {
              "internalType": "int256",
              "name": "marginFactor",
              "type": "int256"
            },
            {
              "internalType": "int256",
              "name": "adjustmentFactor",
              "type": "int256"
            },
            {
              "internalType": "int256",
              "name": "dividendPaymentAmount",
              "type": "int256"
            },
            {
              "internalType": "int256",
              "name": "splitRatio",
              "type": "int256"
            }
          ],
          "internalType": "struct State",
          "name": "state",
          "type": "tuple"
        }
      ],
      "name": "setState",
      "outputs": [],
      "stateMutability": "nonpayable",
      "type": "function"
    }
  ],
  "bytecode": "0x608060405234801561001057600080fd5b50611a35806100206000396000f3fe608060405234801561001057600080fd5b50600436106100a95760003560e01c80633a60d6fe116100715780633a60d6fe14610132578063606aa07e146101455780636a899b9b14610145578063842962d514610165578063cf5aed1214610178578063e8f7ca3e14610198576100a9565b806309648a9d146100ae5780631717e867146100d75780631b126815146100ec57806337462dba1461010c57806339262e871461011f575b600080fd5b6100c16100bc3660046115f0565b6101ab565b6040516100ce91906118c7565b60405180910390f35b6100ea6100e5366004611654565b6101d2565b005b6100ff6100fa366004611654565b61028e565b6040516100ce9190611800565b6100c161011a3660046115f0565b610305565b6100ea61012d366004611654565b610324565b6100ea61014036600461169d565b6103c7565b610158610153366004611633565b610486565b6040516100ce9190611820565b6100ea61017336600461169d565b6104a7565b61018b610186366004611633565b610559565b6040516100ce91906119cd565b6100ff6101a6366004611608565b610571565b6101b361151b565b60008281526020819052604090206101ca906105a5565b90505b919050565b6101e9836000356001600160e01b0319163361028e565b61020e5760405162461bcd60e51b815260040161020590611878565b60405180910390fd5b6000838152602081815260408083206001600160e01b031986168452600d0182528083206001600160a01b038516808552925291829020805460ff19166001179055905184907face25d271ad11ee299595b3021629bae0349e370d7c2eb7c2dced6e4edb478659061028190869061180b565b60405180910390a3505050565b6000838152602081815260408083206001600160e01b031986168452600d0182528083206001600160a01b038516845290915281205460ff16806102fd5750600084815260208181526040808320838052600d0182528083206001600160a01b038616845290915290205460ff165b949350505050565b61030d61151b565b60008281526020819052604090206101ca90610912565b61033b836000356001600160e01b0319163361028e565b6103575760405162461bcd60e51b815260040161020590611878565b6000838152602081815260408083206001600160e01b031986168452600d0182528083206001600160a01b038516808552925291829020805460ff19169055905184907f42b1b0e7392ad606bb4f5b003296aba62f16e43aa9372f1f40c1522fa2655ffa9061028190869061180b565b60008281526020819052604090206001015482906001600160a01b03163314806104035750610403816000356001600160e01b0319163361028e565b61041f5760405162461bcd60e51b815260040161020590611829565b610445610431368490038401846116d5565b600085815260208190526040902090610caf565b827fad3970329ffaec63d947adc6077368479a4be7f09f2e7ba1b13852f8405b3ec683602001356040516104799190611820565b60405180910390a2505050565b600082815260208190526040812061049e9083611057565b90505b92915050565b60008281526020819052604090206001015482906001600160a01b03163314806104e357506104e3816000356001600160e01b0319163361028e565b6104ff5760405162461bcd60e51b815260040161020590611829565b610525610511368490038401846116d5565b60008581526020819052604090209061106d565b827f0c71209d22d4c70a40140b94deee55f1f54a9353e3d5d5a4ddfb45fcddcf720f83602001356040516104799190611820565b600082815260208190526040812061049e9083611439565b600091825260208281526040808420848052600d0182528084206001600160a01b0393909316845291905290205460ff1690565b6105ad61151b565b604080516102e08101825272636f6e7472616374506572666f726d616e636560681b6000908152600f85016020529190912054819060f81c60058111156105f057fe5b60058111156105fb57fe5b8152697374617475734461746560b01b6000908152600f8501602081815260408084205482860152706e6f6e506572666f726d696e674461746560781b845282825280842054818601526b6d617475726974794461746560a01b84528282528084205460608601526b65786572636973654461746560a01b84528282528084205460808601526e7465726d696e6174696f6e4461746560881b84528282528084205460a0860152736c617374436f75706f6e466978696e674461746560601b84528282528084205460c0860152756c6173744469766964656e64466978696e674461746560501b84528282528084205460e0860152701b9bdd1a5bdb985b141c9a5b98da5c185b607a1b8452828252808420546101008601526e1858d8dc9d5959125b9d195c995cdd608a1b845282825280842054610120860152691999595058d8dc9d595960b21b845282825280842054610140860152726e6f6d696e616c496e7465726573745261746560681b8452828252808420546101608601527834b73a32b932b9ba29b1b0b634b733a6bab63a34b83634b2b960391b845282825280842054610180860152783737ba34b7b730b629b1b0b634b733a6bab63a34b83634b2b960391b8452828252808420546101a08601527f6e6578745072696e636970616c526564656d7074696f6e5061796d656e7400008452828252808420546101c08601526d195e195c98da5cd9505b5bdd5b9d60921b8452828252808420546101e08601526f65786572636973655175616e7469747960801b845282825280842054610200860152677175616e7469747960c01b8452828252808420546102208601527018dbdd5c1bdb905b5bdd5b9d119a5e1959607a1b8452828252808420546102408601526b36b0b933b4b72330b1ba37b960a11b8452828252808420546102608601526f30b2353ab9ba36b2b73a2330b1ba37b960811b84528282528084205461028086015274191a5d9a59195b9914185e5b595b9d105b5bdd5b9d605a1b8452828252808420546102a08601526973706c6974526174696f60b01b84529190529020546102c0909101529050919050565b61091a61151b565b604080516102e08101825274465f636f6e7472616374506572666f726d616e636560581b6000908152600f85016020529190912054819060f81c600581111561095f57fe5b600581111561096a57fe5b81526b465f7374617475734461746560a01b6000908152600f850160208181526040808420548286015272465f6e6f6e506572666f726d696e674461746560681b845282825280842054818601526d465f6d617475726974794461746560901b84528282528084205460608601526d465f65786572636973654461746560901b845282825280842054608086015270465f7465726d696e6174696f6e4461746560781b84528282528084205460a086015275465f6c617374436f75706f6e466978696e674461746560501b84528282528084205460c086015277465f6c6173744469766964656e64466978696e674461746560401b84528282528084205460e0860152721197db9bdd1a5bdb985b141c9a5b98da5c185b606a1b845282825280842054610100860152701197d858d8dc9d5959125b9d195c995cdd607a1b8452828252808420546101208601526b1197d999595058d8dc9d595960a21b84528282528084205461014086015274465f6e6f6d696e616c496e7465726573745261746560581b8452828252808420546101608601527f465f696e7465726573745363616c696e674d756c7469706c69657200000000008452828252808420546101808601527f465f6e6f74696f6e616c5363616c696e674d756c7469706c69657200000000008452828252808420546101a08601527f465f6e6578745072696e636970616c526564656d7074696f6e5061796d656e748452828252808420546101c08601526f1197d95e195c98da5cd9505b5bdd5b9d60821b8452828252808420546101e086015271465f65786572636973655175616e7469747960701b84528282528084205461020086015269465f7175616e7469747960b01b845282825280842054610220860152721197d8dbdd5c1bdb905b5bdd5b9d119a5e1959606a1b8452828252808420546102408601526d232fb6b0b933b4b72330b1ba37b960911b84528282528084205461026086015271232fb0b2353ab9ba36b2b73a2330b1ba37b960711b845282825280842054610280860152761197d91a5d9a59195b9914185e5b595b9d105b5bdd5b9d604a1b8452828252808420546102a08601526b465f73706c6974526174696f60a01b84529190529020546102c0909101529050919050565b610ce68272636f6e7472616374506572666f726d616e636560681b60f884600001516005811115610cdc57fe5b60ff16901b6114e5565b610d0582697374617475734461746560b01b836020015160001b6114e5565b610d2b82706e6f6e506572666f726d696e674461746560781b836040015160001b6114e5565b610d4c826b6d617475726974794461746560a01b836060015160001b6114e5565b610d6d826b65786572636973654461746560a01b836080015160001b6114e5565b610d91826e7465726d696e6174696f6e4461746560881b8360a0015160001b6114e5565b610dba82736c617374436f75706f6e466978696e674461746560601b8360c0015160001b6114e5565b610de582756c6173744469766964656e64466978696e674461746560501b8360e0015160001b6114e5565b610e0c82701b9bdd1a5bdb985b141c9a5b98da5c185b607a1b83610100015160001b6114e5565b610e31826e1858d8dc9d5959125b9d195c995cdd608a1b83610120015160001b6114e5565b610e5182691999595058d8dc9d595960b21b83610140015160001b6114e5565b610e7a82726e6f6d696e616c496e7465726573745261746560681b83610160015160001b6114e5565b610ea9827834b73a32b932b9ba29b1b0b634b733a6bab63a34b83634b2b960391b83610180015160001b6114e5565b610ed882783737ba34b7b730b629b1b0b634b733a6bab63a34b83634b2b960391b836101a0015160001b6114e5565b610f0b827f6e6578745072696e636970616c526564656d7074696f6e5061796d656e740000836101c0015160001b6114e5565b610f2f826d195e195c98da5cd9505b5bdd5b9d60921b836101e0015160001b6114e5565b610f55826f65786572636973655175616e7469747960801b83610200015160001b6114e5565b610f7b826f65786572636973655175616e7469747960801b83610200015160001b6114e5565b610f9982677175616e7469747960c01b83610220015160001b6114e5565b610fc0827018dbdd5c1bdb905b5bdd5b9d119a5e1959607a1b83610240015160001b6114e5565b610fe2826b36b0b933b4b72330b1ba37b960a11b83610260015160001b6114e5565b611008826f30b2353ab9ba36b2b73a2330b1ba37b960811b83610280015160001b6114e5565b6110338274191a5d9a59195b9914185e5b595b9d105b5bdd5b9d605a1b836102a0015160001b6114e5565b611053826973706c6974526174696f60b01b836102c0015160001b6114e5565b5050565b6000908152600f91909101602052604090205490565b61109c8274465f636f6e7472616374506572666f726d616e636560581b60f884600001516005811115610cdc57fe5b6110bd826b465f7374617475734461746560a01b836020015160001b6114e5565b6110e58272465f6e6f6e506572666f726d696e674461746560681b836040015160001b6114e5565b611108826d465f6d617475726974794461746560901b836060015160001b6114e5565b61112b826d465f65786572636973654461746560901b836080015160001b6114e5565b6111518270465f7465726d696e6174696f6e4461746560781b8360a0015160001b6114e5565b61117c8275465f6c617374436f75706f6e466978696e674461746560501b8360c0015160001b6114e5565b6111a98277465f6c6173744469766964656e64466978696e674461746560401b8360e0015160001b6114e5565b6111d282721197db9bdd1a5bdb985b141c9a5b98da5c185b606a1b83610100015160001b6114e5565b6111f982701197d858d8dc9d5959125b9d195c995cdd607a1b83610120015160001b6114e5565b61121b826b1197d999595058d8dc9d595960a21b83610140015160001b6114e5565b6112468274465f6e6f6d696e616c496e7465726573745261746560581b83610160015160001b6114e5565b611279827f465f696e7465726573745363616c696e674d756c7469706c696572000000000083610180015160001b6114e5565b6112ac827f465f6e6f74696f6e616c5363616c696e674d756c7469706c6965720000000000836101a0015160001b6114e5565b6112df827f465f6e6578745072696e636970616c526564656d7074696f6e5061796d656e74836101c0015160001b6114e5565b611305826f1197d95e195c98da5cd9505b5bdd5b9d60821b836101e0015160001b6114e5565b61132d8271465f65786572636973655175616e7469747960701b83610200015160001b6114e5565b6113558271465f65786572636973655175616e7469747960701b83610200015160001b6114e5565b6113758269465f7175616e7469747960b01b83610220015160001b6114e5565b61139e82721197d8dbdd5c1bdb905b5bdd5b9d119a5e1959606a1b83610240015160001b6114e5565b6113c2826d232fb6b0b933b4b72330b1ba37b960911b83610260015160001b6114e5565b6113ea8271232fb0b2353ab9ba36b2b73a2330b1ba37b960711b83610280015160001b6114e5565b61141782761197d91a5d9a59195b9914185e5b595b9d105b5bdd5b9d604a1b836102a0015160001b6114e5565b611053826b465f73706c6974526174696f60a01b836102c0015160001b6114e5565b600072636f6e7472616374506572666f726d616e636560681b82141561148a575072636f6e7472616374506572666f726d616e636560681b6000908152600f8301602052604090205460f81c6104a1565b74465f636f6e7472616374506572666f726d616e636560581b8214156114dd575074465f636f6e7472616374506572666f726d616e636560581b6000908152600f8301602052604090205460f81c6104a1565b5060006104a1565b6000828152600f8401602052604090205481141561150257611516565b6000828152600f8401602052604090208190555b505050565b604080516102e081019091528060008152602001600081526020016000815260200160008152602001600081526020016000815260200160008152602001600081526020016000815260200160008152602001600081526020016000815260200160008152602001600081526020016000815260200160008152602001600081526020016000815260200160008152602001600081526020016000815260200160008152602001600081525090565b80356001600160a01b03811681146101cd57600080fd5b8035600681106101cd57600080fd5b600060208284031215611601578081fd5b5035919050565b6000806040838503121561161a578081fd5b8235915061162a602084016115ca565b90509250929050565b60008060408385031215611645578182fd5b50508035926020909101359150565b600080600060608486031215611668578081fd5b8335925060208401356001600160e01b031981168114611686578182fd5b9150611694604085016115ca565b90509250925092565b6000808284036103008112156116b1578283fd5b833592506102e0601f19820112156116c7578182fd5b506020830190509250929050565b60006102e08083850312156116e8578182fd5b6116f1816119db565b90506116fc836115e1565b81526020838101359082015260408084013590820152606080840135908201526080808401359082015260a0808401359082015260c0808401359082015260e08084013590820152610100808401359082015261012080840135908201526101408084013590820152610160808401359082015261018080840135908201526101a080840135908201526101c080840135908201526101e08084013590820152610200808401359082015261022080840135908201526102408084013590820152610260808401359082015261028080840135908201526102a080840135908201526102c0928301359281019290925250919050565b600681106117fc57fe5b9052565b901515815260200190565b6001600160e01b031991909116815260200190565b90815260200190565b6020808252602f908201527f416363657373436f6e74726f6c2e6973417574686f72697a65643a20554e415560408201526e2a2427a924ad22a22fa9a2a72222a960891b606082015260800190565b6020808252602f908201527f416363657373436f6e74726f6c2e7265766f6b654163636573733a20554e415560408201526e2a2427a924ad22a22fa9a2a72222a960891b606082015260800190565b60006102e0820190506118db8284516117f2565b6020838101519083015260408084015190830152606080840151908301526080808401519083015260a0808401519083015260c0808401519083015260e08084015190830152610100808401519083015261012080840151908301526101408084015190830152610160808401519083015261018080840151908301526101a080840151908301526101c080840151908301526101e08084015190830152610200808401519083015261022080840151908301526102408084015190830152610260808401519083015261028080840151908301526102a080840151908301526102c092830151929091019190915290565b60ff91909116815260200190565b60405181810167ffffffffffffffff811182821017156119f757fe5b60405291905056fea264697066735822122072ad083de489ec3e9ad090d33388a430e7fd72a2947367ad56cc3f1328f0c13564736f6c63430007040033",
  "linkReferences": {},
  "deployedLinkReferences": {}
}