{
  "address": "0x3aFe270E25c5B2fC7679ba431eEF2B5E2d26A52f",
  "abi": [
    {
      "anonymous": false,
      "inputs": [
        {
          "indexed": true,
          "internalType": "bytes32",
          "name": "assetId",
          "type": "bytes32"
        },
        {
          "indexed": true,
          "internalType": "address",
          "name": "account",
          "type": "address"
        },
        {
          "indexed": false,
          "internalType": "bytes4",
          "name": "methodSignature",
          "type": "bytes4"
        }
      ],
      "name": "GrantedAccess",
      "type": "event"
    },
    {
      "anonymous": false,
      "inputs": [
        {
          "indexed": true,
          "internalType": "bytes32",
          "name": "assetId",
          "type": "bytes32"
        },
        {
          "indexed": true,
          "internalType": "address",
          "name": "account",
          "type": "address"
        },
        {
          "indexed": false,
          "internalType": "bytes4",
          "name": "methodSignature",
          "type": "bytes4"
        }
      ],
      "name": "RevokedAccess",
      "type": "event"
    },
    {
      "inputs": [
        {
          "internalType": "bytes32",
          "name": "assetId",
          "type": "bytes32"
        },
        {
          "internalType": "bytes4",
          "name": "methodSignature",
          "type": "bytes4"
        },
        {
          "internalType": "address",
          "name": "account",
          "type": "address"
        }
      ],
      "name": "grantAccess",
      "outputs": [],
      "stateMutability": "nonpayable",
      "type": "function"
    },
    {
      "inputs": [
        {
          "internalType": "bytes32",
          "name": "assetId",
          "type": "bytes32"
        },
        {
          "internalType": "bytes4",
          "name": "methodSignature",
          "type": "bytes4"
        },
        {
          "internalType": "address",
          "name": "account",
          "type": "address"
        }
      ],
      "name": "hasAccess",
      "outputs": [
        {
          "internalType": "bool",
          "name": "",
          "type": "bool"
        }
      ],
      "stateMutability": "view",
      "type": "function"
    },
    {
      "inputs": [
        {
          "internalType": "bytes32",
          "name": "assetId",
          "type": "bytes32"
        },
        {
          "internalType": "address",
          "name": "account",
          "type": "address"
        }
      ],
      "name": "hasRootAccess",
      "outputs": [
        {
          "internalType": "bool",
          "name": "",
          "type": "bool"
        }
      ],
      "stateMutability": "view",
      "type": "function"
    },
    {
      "inputs": [
        {
          "internalType": "bytes32",
          "name": "assetId",
          "type": "bytes32"
        },
        {
          "internalType": "bytes4",
          "name": "methodSignature",
          "type": "bytes4"
        },
        {
          "internalType": "address",
          "name": "account",
          "type": "address"
        }
      ],
      "name": "revokeAccess",
      "outputs": [],
      "stateMutability": "nonpayable",
      "type": "function"
    }
  ],
  "transactionHash": "0x0e391c12180464d7b03844ca23914766b7701696d6f4ea442d5e12b78a92ab62",
  "args": [],
  "solcInputHash": "0xdbde777ab8a0d36e06492bc7e4c1e26bd51447aee10a11b12030385226e1f02f",
  "bytecode": "0x608060405234801561001057600080fd5b50610459806100206000396000f3fe608060405234801561001057600080fd5b506004361061004c5760003560e01c80631717e867146100515780631b1268151461006657806339262e871461008f578063e8f7ca3e146100a2575b600080fd5b61006461005f366004610366565b6100b5565b005b610079610074366004610366565b610180565b60405161008691906103af565b60405180910390f35b61006461009d366004610366565b610207565b6100796100b036600461033b565b6102bc565b6100cc836000356001600160e01b03191633610180565b6100f15760405162461bcd60e51b81526004016100e8906103cf565b60405180910390fd5b60016100fb6102fb565b6000858152602091825260408082206001600160e01b031987168352600d0183528082206001600160a01b038616808452935290819020805460ff191693151593909317909255905184907face25d271ad11ee299595b3021629bae0349e370d7c2eb7c2dced6e4edb47865906101739086906103ba565b60405180910390a3505050565b600061018a6102fb565b6000858152602091825260408082206001600160e01b031987168352600d0183528082206001600160a01b0386168352909252205460ff16806101ff57506101d06102fb565b600085815260209182526040808220828052600d0183528082206001600160a01b0386168352909252205460ff165b949350505050565b61021e836000356001600160e01b03191633610180565b61023a5760405162461bcd60e51b81526004016100e8906103cf565b60006102446102fb565b6000858152602091825260408082206001600160e01b031987168352600d0183528082206001600160a01b038616808452935290819020805460ff191693151593909317909255905184907f42b1b0e7392ad606bb4f5b003296aba62f16e43aa9372f1f40c1522fa2655ffa906101739086906103ba565b60006102c66102fb565b600093845260209081526040808520858052600d0182528085206001600160a01b039490941685529290525090205460ff1690565b7fed91072810f28ab6b6fc02a2132e36fe987e74def3a4eccfa0a9b6343b1fdaf590565b80356001600160a01b038116811461033657600080fd5b919050565b6000806040838503121561034d578182fd5b8235915061035d6020840161031f565b90509250929050565b60008060006060848603121561037a578081fd5b8335925060208401356001600160e01b031981168114610398578182fd5b91506103a66040850161031f565b90509250925092565b901515815260200190565b6001600160e01b031991909116815260200190565b60208082526034908201527f416363657373436f6e74726f6c46616365742e7265766f6b654163636573733a604082015273102aa720aaaa2427a924ad22a22fa9a2a72222a960611b60608201526080019056fea2646970667358221220149d0a07956eeb756ceaa753be201e918bc0541f92c7f735777b97ac941a2a5464736f6c63430007040033",
  "devdoc": {
    "kind": "dev",
    "methods": {
      "grantAccess(bytes32,bytes4,address)": {
        "details": "Can only be called by an authorized account.",
        "params": {
          "account": "address of the account to grant access to",
          "assetId": "id of the asset",
          "methodSignature": "function / method signature (4 byte keccak256 hash of the method selector)"
        }
      },
      "hasAccess(bytes32,bytes4,address)": {
        "params": {
          "account": "address of the account for which to check access",
          "assetId": "id of the asset",
          "methodSignature": "function / method signature (4 byte keccak256 hash of the method selector)"
        },
        "returns": {
          "_0": "true if allowed access"
        }
      },
      "hasRootAccess(bytes32,address)": {
        "params": {
          "account": "address of the account for which to check root acccess",
          "assetId": "id of the asset"
        },
        "returns": {
          "_0": "true if has root access"
        }
      },
      "revokeAccess(bytes32,bytes4,address)": {
        "details": "Can only be called by an authorized account.",
        "params": {
          "account": "address of the account to revoke access for",
          "assetId": "id of the asset",
          "methodSignature": "function / method signature (4 byte keccak256 hash of the method selector)"
        }
      }
    },
    "version": 1
  },
  "userdoc": {
    "kind": "user",
    "methods": {
      "grantAccess(bytes32,bytes4,address)": {
        "notice": "Grant access to an account to call a specific method on a specific asset."
      },
      "hasAccess(bytes32,bytes4,address)": {
        "notice": "Check whether an account is allowed to call a specific method on a specific asset."
      },
      "hasRootAccess(bytes32,address)": {
        "notice": "Check whether an account has root access for a specific asset."
      },
      "revokeAccess(bytes32,bytes4,address)": {
        "notice": "Revoke access for an account to call a specific method on a specific asset."
      }
    },
    "version": 1
  },
  "storageLayout": {
    "storage": [],
    "types": null
  },
  "gasEstimates": {
    "creation": {
      "codeDepositCost": "222600",
      "executionCost": "263",
      "totalCost": "222863"
    },
    "external": {
      "grantAccess(bytes32,bytes4,address)": "infinite",
      "hasAccess(bytes32,bytes4,address)": "infinite",
      "hasRootAccess(bytes32,address)": "1531",
      "revokeAccess(bytes32,bytes4,address)": "infinite"
    }
  }
}