{
  "address": "0x5DB04e348C343027993618A15Ae7Ba285dda1708",
  "abi": [
    {
      "inputs": [
        {
          "internalType": "contract IAssetRegistry",
          "name": "assetRegistry",
          "type": "address"
        },
        {
          "internalType": "contract IOracleRegistry",
          "name": "oracleRegistry",
          "type": "address"
        }
      ],
      "stateMutability": "nonpayable",
      "type": "constructor"
    },
    {
      "anonymous": false,
      "inputs": [
        {
          "indexed": true,
          "internalType": "bytes32",
          "name": "assetId",
          "type": "bytes32"
        },
        {
          "indexed": false,
          "internalType": "enum ContractType",
          "name": "contractType",
          "type": "uint8"
        },
        {
          "indexed": false,
          "internalType": "address",
          "name": "creator",
          "type": "address"
        },
        {
          "indexed": false,
          "internalType": "address",
          "name": "counterparty",
          "type": "address"
        }
      ],
      "name": "InitializedAsset",
      "type": "event"
    },
    {
      "anonymous": false,
      "inputs": [
        {
          "indexed": true,
          "internalType": "address",
          "name": "previousOwner",
          "type": "address"
        },
        {
          "indexed": true,
          "internalType": "address",
          "name": "newOwner",
          "type": "address"
        }
      ],
      "name": "OwnershipTransferred",
      "type": "event"
    },
    {
      "anonymous": false,
      "inputs": [
        {
          "indexed": true,
          "internalType": "bytes32",
          "name": "assetId",
          "type": "bytes32"
        },
        {
          "indexed": false,
          "internalType": "enum EventType",
          "name": "eventType",
          "type": "uint8"
        },
        {
          "indexed": false,
          "internalType": "uint256",
          "name": "scheduleTime",
          "type": "uint256"
        },
        {
          "indexed": false,
          "internalType": "int256",
          "name": "payoff",
          "type": "int256"
        }
      ],
      "name": "ProgressedAsset",
      "type": "event"
    },
    {
      "anonymous": false,
      "inputs": [
        {
          "indexed": true,
          "internalType": "bytes32",
          "name": "assetId",
          "type": "bytes32"
        },
        {
          "indexed": false,
          "internalType": "bytes32",
          "name": "statusMessage",
          "type": "bytes32"
        }
      ],
      "name": "Status",
      "type": "event"
    },
    {
      "inputs": [],
      "name": "assetRegistry",
      "outputs": [
        {
          "internalType": "contract IAssetRegistry",
          "name": "",
          "type": "address"
        }
      ],
      "stateMutability": "view",
      "type": "function"
    },
    {
      "inputs": [
        {
          "internalType": "bytes32",
          "name": "object",
          "type": "bytes32"
        }
      ],
      "name": "decodeCollateralObject",
      "outputs": [
        {
          "internalType": "address",
          "name": "",
          "type": "address"
        },
        {
          "internalType": "uint256",
          "name": "",
          "type": "uint256"
        }
      ],
      "stateMutability": "pure",
      "type": "function"
    },
    {
      "inputs": [
        {
          "internalType": "bytes32",
          "name": "_event",
          "type": "bytes32"
        }
      ],
      "name": "decodeEvent",
      "outputs": [
        {
          "internalType": "enum EventType",
          "name": "",
          "type": "uint8"
        },
        {
          "internalType": "uint256",
          "name": "",
          "type": "uint256"
        }
      ],
      "stateMutability": "pure",
      "type": "function"
    },
    {
      "inputs": [
        {
          "internalType": "address",
          "name": "collateralToken",
          "type": "address"
        },
        {
          "internalType": "uint256",
          "name": "collateralAmount",
          "type": "uint256"
        }
      ],
      "name": "encodeCollateralAsObject",
      "outputs": [
        {
          "internalType": "bytes32",
          "name": "",
          "type": "bytes32"
        }
      ],
      "stateMutability": "pure",
      "type": "function"
    },
    {
      "inputs": [
        {
          "internalType": "enum EventType",
          "name": "eventType",
          "type": "uint8"
        },
        {
          "internalType": "uint256",
          "name": "scheduleTime",
          "type": "uint256"
        }
      ],
      "name": "encodeEvent",
      "outputs": [
        {
          "internalType": "bytes32",
          "name": "",
          "type": "bytes32"
        }
      ],
      "stateMutability": "pure",
      "type": "function"
    },
    {
      "inputs": [
        {
          "internalType": "enum EventType",
          "name": "eventType",
          "type": "uint8"
        }
      ],
      "name": "getEpochOffset",
      "outputs": [
        {
          "internalType": "uint256",
          "name": "",
          "type": "uint256"
        }
      ],
      "stateMutability": "pure",
      "type": "function"
    },
    {
      "inputs": [
        {
          "components": [
            {
              "internalType": "enum ContractType",
              "name": "contractType",
              "type": "uint8"
            },
            {
              "internalType": "enum Calendar",
              "name": "calendar",
              "type": "uint8"
            },
            {
              "internalType": "enum ContractRole",
              "name": "contractRole",
              "type": "uint8"
            },
            {
              "internalType": "enum DayCountConvention",
              "name": "dayCountConvention",
              "type": "uint8"
            },
            {
              "internalType": "enum BusinessDayConvention",
              "name": "businessDayConvention",
              "type": "uint8"
            },
            {
              "internalType": "enum EndOfMonthConvention",
              "name": "endOfMonthConvention",
              "type": "uint8"
            },
            {
              "internalType": "enum ScalingEffect",
              "name": "scalingEffect",
              "type": "uint8"
            },
            {
              "internalType": "enum PenaltyType",
              "name": "penaltyType",
              "type": "uint8"
            },
            {
              "internalType": "enum FeeBasis",
              "name": "feeBasis",
              "type": "uint8"
            },
            {
              "internalType": "address",
              "name": "currency",
              "type": "address"
            },
            {
              "internalType": "address",
              "name": "settlementCurrency",
              "type": "address"
            },
            {
              "internalType": "bytes32",
              "name": "marketObjectCodeRateReset",
              "type": "bytes32"
            },
            {
              "internalType": "uint256",
              "name": "contractDealDate",
              "type": "uint256"
            },
            {
              "internalType": "uint256",
              "name": "statusDate",
              "type": "uint256"
            },
            {
              "internalType": "uint256",
              "name": "initialExchangeDate",
              "type": "uint256"
            },
            {
              "internalType": "uint256",
              "name": "maturityDate",
              "type": "uint256"
            },
            {
              "internalType": "uint256",
              "name": "purchaseDate",
              "type": "uint256"
            },
            {
              "internalType": "uint256",
              "name": "capitalizationEndDate",
              "type": "uint256"
            },
            {
              "internalType": "uint256",
              "name": "cycleAnchorDateOfInterestPayment",
              "type": "uint256"
            },
            {
              "internalType": "uint256",
              "name": "cycleAnchorDateOfRateReset",
              "type": "uint256"
            },
            {
              "internalType": "uint256",
              "name": "cycleAnchorDateOfScalingIndex",
              "type": "uint256"
            },
            {
              "internalType": "uint256",
              "name": "cycleAnchorDateOfFee",
              "type": "uint256"
            },
            {
              "internalType": "uint256",
              "name": "cycleAnchorDateOfPrincipalRedemption",
              "type": "uint256"
            },
            {
              "internalType": "int256",
              "name": "notionalPrincipal",
              "type": "int256"
            },
            {
              "internalType": "int256",
              "name": "nominalInterestRate",
              "type": "int256"
            },
            {
              "internalType": "int256",
              "name": "accruedInterest",
              "type": "int256"
            },
            {
              "internalType": "int256",
              "name": "rateMultiplier",
              "type": "int256"
            },
            {
              "internalType": "int256",
              "name": "rateSpread",
              "type": "int256"
            },
            {
              "internalType": "int256",
              "name": "nextResetRate",
              "type": "int256"
            },
            {
              "internalType": "int256",
              "name": "feeRate",
              "type": "int256"
            },
            {
              "internalType": "int256",
              "name": "feeAccrued",
              "type": "int256"
            },
            {
              "internalType": "int256",
              "name": "penaltyRate",
              "type": "int256"
            },
            {
              "internalType": "int256",
              "name": "delinquencyRate",
              "type": "int256"
            },
            {
              "internalType": "int256",
              "name": "premiumDiscountAtIED",
              "type": "int256"
            },
            {
              "internalType": "int256",
              "name": "priceAtPurchaseDate",
              "type": "int256"
            },
            {
              "internalType": "int256",
              "name": "nextPrincipalRedemptionPayment",
              "type": "int256"
            },
            {
              "internalType": "int256",
              "name": "lifeCap",
              "type": "int256"
            },
            {
              "internalType": "int256",
              "name": "lifeFloor",
              "type": "int256"
            },
            {
              "internalType": "int256",
              "name": "periodCap",
              "type": "int256"
            },
            {
              "internalType": "int256",
              "name": "periodFloor",
              "type": "int256"
            },
            {
              "components": [
                {
                  "internalType": "uint256",
                  "name": "i",
                  "type": "uint256"
                },
                {
                  "internalType": "enum P",
                  "name": "p",
                  "type": "uint8"
                },
                {
                  "internalType": "bool",
                  "name": "isSet",
                  "type": "bool"
                }
              ],
              "internalType": "struct IP",
              "name": "gracePeriod",
              "type": "tuple"
            },
            {
              "components": [
                {
                  "internalType": "uint256",
                  "name": "i",
                  "type": "uint256"
                },
                {
                  "internalType": "enum P",
                  "name": "p",
                  "type": "uint8"
                },
                {
                  "internalType": "bool",
                  "name": "isSet",
                  "type": "bool"
                }
              ],
              "internalType": "struct IP",
              "name": "delinquencyPeriod",
              "type": "tuple"
            },
            {
              "components": [
                {
                  "internalType": "uint256",
                  "name": "i",
                  "type": "uint256"
                },
                {
                  "internalType": "enum P",
                  "name": "p",
                  "type": "uint8"
                },
                {
                  "internalType": "enum S",
                  "name": "s",
                  "type": "uint8"
                },
                {
                  "internalType": "bool",
                  "name": "isSet",
                  "type": "bool"
                }
              ],
              "internalType": "struct IPS",
              "name": "cycleOfInterestPayment",
              "type": "tuple"
            },
            {
              "components": [
                {
                  "internalType": "uint256",
                  "name": "i",
                  "type": "uint256"
                },
                {
                  "internalType": "enum P",
                  "name": "p",
                  "type": "uint8"
                },
                {
                  "internalType": "enum S",
                  "name": "s",
                  "type": "uint8"
                },
                {
                  "internalType": "bool",
                  "name": "isSet",
                  "type": "bool"
                }
              ],
              "internalType": "struct IPS",
              "name": "cycleOfRateReset",
              "type": "tuple"
            },
            {
              "components": [
                {
                  "internalType": "uint256",
                  "name": "i",
                  "type": "uint256"
                },
                {
                  "internalType": "enum P",
                  "name": "p",
                  "type": "uint8"
                },
                {
                  "internalType": "enum S",
                  "name": "s",
                  "type": "uint8"
                },
                {
                  "internalType": "bool",
                  "name": "isSet",
                  "type": "bool"
                }
              ],
              "internalType": "struct IPS",
              "name": "cycleOfScalingIndex",
              "type": "tuple"
            },
            {
              "components": [
                {
                  "internalType": "uint256",
                  "name": "i",
                  "type": "uint256"
                },
                {
                  "internalType": "enum P",
                  "name": "p",
                  "type": "uint8"
                },
                {
                  "internalType": "enum S",
                  "name": "s",
                  "type": "uint8"
                },
                {
                  "internalType": "bool",
                  "name": "isSet",
                  "type": "bool"
                }
              ],
              "internalType": "struct IPS",
              "name": "cycleOfFee",
              "type": "tuple"
            },
            {
              "components": [
                {
                  "internalType": "uint256",
                  "name": "i",
                  "type": "uint256"
                },
                {
                  "internalType": "enum P",
                  "name": "p",
                  "type": "uint8"
                },
                {
                  "internalType": "enum S",
                  "name": "s",
                  "type": "uint8"
                },
                {
                  "internalType": "bool",
                  "name": "isSet",
                  "type": "bool"
                }
              ],
              "internalType": "struct IPS",
              "name": "cycleOfPrincipalRedemption",
              "type": "tuple"
            }
          ],
          "internalType": "struct ANNTerms",
          "name": "terms",
          "type": "tuple"
        },
        {
          "internalType": "bytes32[]",
          "name": "schedule",
          "type": "bytes32[]"
        },
        {
          "components": [
            {
              "internalType": "address",
              "name": "creatorObligor",
              "type": "address"
            },
            {
              "internalType": "address",
              "name": "creatorBeneficiary",
              "type": "address"
            },
            {
              "internalType": "address",
              "name": "counterpartyObligor",
              "type": "address"
            },
            {
              "internalType": "address",
              "name": "counterpartyBeneficiary",
              "type": "address"
            }
          ],
          "internalType": "struct AssetOwnership",
          "name": "ownership",
          "type": "tuple"
        },
        {
          "internalType": "address",
          "name": "engine",
          "type": "address"
        },
        {
          "internalType": "address",
          "name": "admin",
          "type": "address"
        }
      ],
      "name": "initialize",
      "outputs": [],
      "stateMutability": "nonpayable",
      "type": "function"
    },
    {
      "inputs": [],
      "name": "oracleRegistry",
      "outputs": [
        {
          "internalType": "contract IOracleRegistry",
          "name": "",
          "type": "address"
        }
      ],
      "stateMutability": "view",
      "type": "function"
    },
    {
      "inputs": [],
      "name": "owner",
      "outputs": [
        {
          "internalType": "address",
          "name": "",
          "type": "address"
        }
      ],
      "stateMutability": "view",
      "type": "function"
    },
    {
      "inputs": [
        {
          "internalType": "bytes32",
          "name": "assetId",
          "type": "bytes32"
        }
      ],
      "name": "progress",
      "outputs": [],
      "stateMutability": "nonpayable",
      "type": "function"
    },
    {
      "inputs": [
        {
          "internalType": "bytes32",
          "name": "assetId",
          "type": "bytes32"
        },
        {
          "internalType": "bytes32",
          "name": "_event",
          "type": "bytes32"
        }
      ],
      "name": "progressWith",
      "outputs": [],
      "stateMutability": "nonpayable",
      "type": "function"
    },
    {
      "inputs": [],
      "name": "renounceOwnership",
      "outputs": [],
      "stateMutability": "nonpayable",
      "type": "function"
    },
    {
      "inputs": [
        {
          "internalType": "uint256",
          "name": "timestamp",
          "type": "uint256"
        },
        {
          "internalType": "enum BusinessDayConvention",
          "name": "convention",
          "type": "uint8"
        },
        {
          "internalType": "enum Calendar",
          "name": "calendar",
          "type": "uint8"
        },
        {
          "internalType": "uint256",
          "name": "maturityDate",
          "type": "uint256"
        }
      ],
      "name": "shiftCalcTime",
      "outputs": [
        {
          "internalType": "uint256",
          "name": "",
          "type": "uint256"
        }
      ],
      "stateMutability": "pure",
      "type": "function"
    },
    {
      "inputs": [
        {
          "internalType": "uint256",
          "name": "timestamp",
          "type": "uint256"
        },
        {
          "internalType": "enum BusinessDayConvention",
          "name": "convention",
          "type": "uint8"
        },
        {
          "internalType": "enum Calendar",
          "name": "calendar",
          "type": "uint8"
        },
        {
          "internalType": "uint256",
          "name": "maturityDate",
          "type": "uint256"
        }
      ],
      "name": "shiftEventTime",
      "outputs": [
        {
          "internalType": "uint256",
          "name": "",
          "type": "uint256"
        }
      ],
      "stateMutability": "pure",
      "type": "function"
    },
    {
      "inputs": [
        {
          "internalType": "address",
          "name": "newOwner",
          "type": "address"
        }
      ],
      "name": "transferOwnership",
      "outputs": [],
      "stateMutability": "nonpayable",
      "type": "function"
    }
  ],
  "transactionHash": "0x1c6de3f31cabf820f9ff9cc6f81129778ff61cf9425af4e0e0922555a1617614",
  "args": [
    "0xE82F1D585DBC1D3B2068487206d39CdAe3590e4A",
    "0x5f1bC4808153b95aed8537C0ba57bc1034a97196"
  ],
  "solcInputHash": "881b45994c61c48eb152b2243f6d8f05",
  "bytecode": "0x60806040523480156200001157600080fd5b5060405162003bd338038062003bd38339810160408190526200003491620000c5565b8181600062000042620000c1565b600080546001600160a01b0319166001600160a01b0383169081178255604051929350917f8be0079c531659141344cd1fd0a4f28419497f9722a3daafe3b4186f6b6457e0908290a350600180546001600160a01b039384166001600160a01b03199182161790915560028054929093169116179055506200011c9050565b3390565b60008060408385031215620000d8578182fd5b8251620000e58162000103565b6020840151909250620000f88162000103565b809150509250929050565b6001600160a01b03811681146200011957600080fd5b50565b613aa7806200012c6000396000f3fe608060405234801561001057600080fd5b50600436106100f55760003560e01c8063811322fb11610097578063e05a66e011610066578063e05a66e0146101e0578063e726d680146101f3578063f2fde38b14610206578063f5586e0514610219576100f5565b8063811322fb146101aa5780638bc58fe4146101bd5780638da5cb5b146101d0578063979d7e86146101d8576100f5565b80636b6ba664116100d35780636b6ba66414610159578063715018a61461016e57806372540003146101765780637aebd2a814610197576100f5565b80634bb93ab1146100fa578063645a26bd146101185780636778e0e914610139575b600080fd5b61010261022c565b60405161010f9190612fef565b60405180910390f35b61012b610126366004612440565b61023b565b60405161010f9291906130a4565b61014c6101473660046123f9565b610254565b60405161010f91906130bd565b61016c610167366004612470565b61027f565b005b61016c610534565b610189610184366004612440565b6105e8565b60405161010f929190613327565b61016c6101a5366004612440565b610611565b61014c6101b83660046124ad565b61086f565b61016c6101cb366004612511565b610885565b610102610abe565b610102610acd565b61014c6101ee3660046124c7565b610adc565b61014c610201366004612a71565b610afa565b61016c6102143660046123c1565b610c4f565b61014c610227366004612a71565b610d59565b6002546001600160a01b031681565b606081901c6bffffffffffffffffffffffff8216915091565b6bffffffffffffffffffffffff19606083901b166bffffffffffffffffffffffff8216175b92915050565b60015460405163747be51f60e11b81526001600160a01b039091169063e8f7ca3e906102b190859033906004016130c6565b602060405180830381600087803b1580156102cb57600080fd5b505af11580156102df573d6000803e3d6000fd5b505050506040513d601f19601f820116820180604052508101906103039190612424565b6103285760405162461bcd60e51b815260040161031f906134b6565b60405180910390fd5b60015460405163f52f84e160e01b81526000916001600160a01b03169063f52f84e1906103599086906004016130bd565b60206040518083038186803b15801561037157600080fd5b505afa158015610385573d6000803e3d6000fd5b505050506040513d601f19601f820116820180604052508101906103a99190612458565b146103c65760405162461bcd60e51b815260040161031f906135fa565b600154604051631d7a1ab960e21b81526000916001600160a01b0316906375e86ae4906103f79086906004016130bd565b60206040518083038186803b15801561040f57600080fd5b505afa158015610423573d6000803e3d6000fd5b505050506040513d601f19601f820116820180604052508101906104479190612458565b146104645760405162461bcd60e51b815260040161031f90613468565b60015460405163b828204160e01b81526000916104eb916001600160a01b039091169063b82820419061049b9087906004016130bd565b60206040518083038186803b1580156104b357600080fd5b505afa1580156104c7573d6000803e3d6000fd5b505050506040513d601f19601f820116820180604052508101906101849190612458565b91505060006104f9836105e8565b91505081158061050857508181105b6105245760405162461bcd60e51b815260040161031f906133be565b61052e8484610dcd565b50505050565b61053c611364565b6000546001600160a01b0390811691161461059e576040805162461bcd60e51b815260206004820181905260248201527f4f776e61626c653a2063616c6c6572206973206e6f7420746865206f776e6572604482015290519081900360640190fd5b600080546040516001600160a01b03909116907f8be0079c531659141344cd1fd0a4f28419497f9722a3daafe3b4186f6b6457e0908390a3600080546001600160a01b0319169055565b6000808060f884901c60218111156105fc57fe5b92505067ffffffffffffffff83169050915091565b600154604051631392c59160e11b81526001600160a01b03909116906327258b22906106419084906004016130bd565b60206040518083038186803b15801561065957600080fd5b505afa15801561066d573d6000803e3d6000fd5b505050506040513d601f19601f820116820180604052508101906106919190612424565b6106ad5760405162461bcd60e51b815260040161031f90613501565b600154604051630316dd6960e21b81526000916001600160a01b031690630c5b75a4906106de9085906004016130bd565b602060405180830381600087803b1580156106f857600080fd5b505af115801561070c573d6000803e3d6000fd5b505050506040513d601f19601f820116820180604052508101906107309190612458565b9050806107ba57600154604051631d7a1ab960e21b81526001600160a01b03909116906375e86ae4906107679085906004016130bd565b60206040518083038186803b15801561077f57600080fd5b505afa158015610793573d6000803e3d6000fd5b505050506040513d601f19601f820116820180604052508101906107b79190612458565b90505b80610844576001546040516361db73e160e11b81526001600160a01b039091169063c3b6e7c2906107ef9085906004016130bd565b602060405180830381600087803b15801561080957600080fd5b505af115801561081d573d6000803e3d6000fd5b505050506040513d601f19601f820116820180604052508101906108419190612458565b90505b806108615760405162461bcd60e51b815260040161031f90613427565b61086b8282610dcd565b5050565b600081602181111561087d57fe5b90505b919050565b6001600160a01b0382161580159061091857506001826001600160a01b031663cb2ef6f76040518163ffffffff1660e01b815260040160206040518083038186803b1580156108d357600080fd5b505afa1580156108e7573d6000803e3d6000fd5b505050506040513d601f19601f8201168201806040525081019061090b9190612491565b601281111561091657fe5b145b6109345760405162461bcd60e51b815260040161031f90613361565b600086426040516020016109499291906136a5565b604051602081830303815290604052805190602001209050610969611f48565b6040516330b126d760e01b81526001600160a01b038516906330b126d790610995908b90600401613696565b6102e06040518083038186803b1580156109ae57600080fd5b505afa1580156109c2573d6000803e3d6000fd5b505050506040513d601f19601f820116820180604052508101906109e69190612954565b6001546040516308d1d8eb60e11b81529192506001600160a01b0316906311a3b1d690610a279085908c9086908d908d908d908d9030908e906004016131f2565b600060405180830381600087803b158015610a4157600080fd5b505af1158015610a55573d6000803e3d6000fd5b508492507fc5df678b84aa92f5f59981df8c9997b366d886de25771c5f753015c2e14e907a915060019050610a8d60208901896123c1565b610a9d60608a0160408b016123c1565b604051610aac939291906132f7565b60405180910390a25050505050505050565b6000546001600160a01b031690565b6001546001600160a01b031681565b60008160f8846021811115610aed57fe5b60ff16901b179392505050565b600081851415610b0b575083610c47565b6001846008811115610b1957fe5b1480610b3057506003846008811115610b2e57fe5b145b15610b4657610b3f8584611368565b9050610c47565b6002846008811115610b5457fe5b1480610b6b57506004846008811115610b6957fe5b145b15610baf576000610b7c8685611368565b9050610b87866113c4565b610b90826113c4565b1415610b9d579050610c47565b610ba786856113dc565b915050610c47565b6005846008811115610bbd57fe5b1480610bd457506007846008811115610bd257fe5b145b15610be357610b3f85846113dc565b6006846008811115610bf157fe5b1480610c0857506008846008811115610c0657fe5b145b15610c44576000610c1986856113dc565b9050610c24866113c4565b610c2d826113c4565b1415610c3a579050610c47565b610ba78685611368565b50835b949350505050565b610c57611364565b6000546001600160a01b03908116911614610cb9576040805162461bcd60e51b815260206004820181905260248201527f4f776e61626c653a2063616c6c6572206973206e6f7420746865206f776e6572604482015290519081900360640190fd5b6001600160a01b038116610cfe5760405162461bcd60e51b8152600401808060200182810382526026815260200180613a4c6026913960400191505060405180910390fd5b600080546040516001600160a01b03808516939216917f8be0079c531659141344cd1fd0a4f28419497f9722a3daafe3b4186f6b6457e091a3600080546001600160a01b0319166001600160a01b0392909216919091179055565b60006003846008811115610d6957fe5b1480610d8057506004846008811115610d7e57fe5b145b80610d9657506007846008811115610d9457fe5b145b80610dac57506008846008811115610daa57fe5b145b15610db8575083610c47565b610dc485858585610afa565b95945050505050565b610dd5611f48565b6001546040516309648a9d60e01b81526001600160a01b03909116906309648a9d90610e059086906004016130bd565b6102e06040518083038186803b158015610e1e57600080fd5b505afa158015610e32573d6000803e3d6000fd5b505050506040513d601f19601f82011682018060405250810190610e569190612954565b9050600081516005811115610e6757fe5b1480610e7f5750600181516005811115610e7d57fe5b145b80610e965750600281516005811115610e9457fe5b145b610eb25760405162461bcd60e51b815260040161031f90613645565b600081516005811115610ec157fe5b14610f4a57600154604051631ba316dd60e11b81526001600160a01b03909116906337462dba90610ef69086906004016130bd565b6102e06040518083038186803b158015610f0f57600080fd5b505afa158015610f23573d6000803e3d6000fd5b505050506040513d601f19601f82011682018060405250810190610f479190612954565b90505b600080610f56846105e8565b60015460405163ecef557760e01b815292945090925042916111009184916001600160a01b039091169063ecef557790610f94908b90600401613193565b60206040518083038186803b158015610fac57600080fd5b505afa158015610fc0573d6000803e3d6000fd5b505050506040513d601f19601f82011682018060405250810190610fe49190612ab8565b60ff166008811115610ff257fe5b60015460405163ecef557760e01b81526001600160a01b039091169063ecef557790611022908c906004016131d8565b60206040518083038186803b15801561103a57600080fd5b505afa15801561104e573d6000803e3d6000fd5b505050506040513d601f19601f820116820180604052508101906110729190612ab8565b60ff16600181111561108057fe5b60015460405163135b9f4d60e01b81526001600160a01b039091169063135b9f4d906110b0908d906004016131ba565b60206040518083038186803b1580156110c857600080fd5b505afa1580156110dc573d6000803e3d6000fd5b505050506040513d601f19601f820116820180604052508101906102019190612458565b111561111e5760405162461bcd60e51b815260040161031f906135a6565b611126611f48565b600061113387868861142a565b9150915060006111448888846116b0565b9050806112485760008651600581111561115a57fe5b14156111c55760015460405163842962d560e01b81526001600160a01b039091169063842962d590611192908b908a906004016132e2565b600060405180830381600087803b1580156111ac57600080fd5b505af11580156111c0573d6000803e3d6000fd5b505050505b60015460405163d981e77360e01b81526001600160a01b039091169063d981e773906111f7908b908b906004016130dd565b600060405180830381600087803b15801561121157600080fd5b505af1158015611225573d6000803e3d6000fd5b505050506000611236600186610adc565b905061124389858361142a565b509350505b600154604051631d306b7f60e11b81526001600160a01b0390911690633a60d6fe9061127a908b9087906004016132e2565b600060405180830381600087803b15801561129457600080fd5b505af11580156112a8573d6000803e3d6000fd5b505050508015156001141561131e5760015460405163de07a17360e01b81526001600160a01b039091169063de07a173906112eb908b908b9087906004016130eb565b600060405180830381600087803b15801561130557600080fd5b505af1158015611319573d6000803e3d6000fd5b505050505b877fd255be8589971f117e0e4377177282fb7cce66e378bfb1b7eafddd05e4f181e9600183151514611351576001611353565b865b8685604051610aac93929190613342565b3390565b6000600182600181111561137857fe5b14156113bd5761138783611ae6565b600614156113a15761139a836002611af9565b9050610279565b6113aa83611ae6565b600714156113bd5761139a836001611af9565b5090919050565b60006113d4620151808304611b0e565b509392505050565b600060018260018111156113ec57fe5b14156113bd576113fb83611ae6565b6006141561140e5761139a836001611ba4565b61141783611ae6565b600714156113bd5761139a836002611ba4565b611432611f48565b60015460405163ee43eda160e01b815260009182916001600160a01b039091169063ee43eda1906114679089906004016130bd565b60206040518083038186803b15801561147f57600080fd5b505afa158015611493573d6000803e3d6000fd5b505050506040513d601f19601f820116820180604052508101906114b791906123dd565b90506114c1611ff7565b6001546040516335f1cded60e11b81526001600160a01b0390911690636be39bda906114f1908a906004016130bd565b6108406040518083038186803b15801561150a57600080fd5b505afa15801561151e573d6000803e3d6000fd5b505050506040513d601f19601f8201168201806040525081019061154291906125cf565b9050600080611550876105e8565b915091506000846001600160a01b031663883e5f11858b8b61158b8f896115868a8d608001518e602001518f6101e00151610d59565b611bb9565b6040518563ffffffff1660e01b81526004016115aa94939291906136c2565b60206040518083038186803b1580156115c257600080fd5b505afa1580156115d6573d6000803e3d6000fd5b505050506040513d601f19601f820116820180604052508101906115fa9190612458565b9050846001600160a01b0316635a0ca9fd858b8b6116318f8961162c8a8d608001518e602001518f6101e00151610d59565b611dd5565b6040518563ffffffff1660e01b815260040161165094939291906136c2565b6102e06040518083038186803b15801561166957600080fd5b505afa15801561167d573d6000803e3d6000fd5b505050506040513d601f19601f820116820180604052508101906116a19190612954565b9a909950975050505050505050565b600083158015906116c057508215155b6116dc5760405162461bcd60e51b815260040161031f90613549565b816116e957506001611adf565b60015460405163eb01255960e01b81526000916001600160a01b03169063eb0125599061171a908890600401613126565b60206040518083038186803b15801561173257600080fd5b505afa158015611746573d6000803e3d6000fd5b505050506040513d601f19601f8201168201806040525081019061176a91906123dd565b905061177461218c565b600154604051635e353ebb60e11b81526001600160a01b039091169063bc6a7d76906117a4908990600401613101565b60806040518083038186803b1580156117bc57600080fd5b505afa1580156117d0573d6000803e3d6000fd5b505050506040513d601f19601f820116820180604052508101906117f491906128f2565b905060048160600151600481111561180857fe5b141561181d5780516118199061023b565b5091505b6118256121b3565b60015460405163e50e0ef760e01b81526001600160a01b039091169063e50e0ef790611855908a906004016130bd565b60806040518083038186803b15801561186d57600080fd5b505afa158015611881573d6000803e3d6000fd5b505050506040513d601f19601f820116820180604052508101906118a59190612874565b905060008060008713156118d4575060408201516001600160a01b0382166118cf57826020015191505b6118ed565b5081516001600160a01b0382166118ed57826060015191505b6000808813611900578760001902611902565b875b905080866001600160a01b031663dd62ed3e84306040518363ffffffff1660e01b8152600401611933929190613066565b60206040518083038186803b15801561194b57600080fd5b505afa15801561195f573d6000803e3d6000fd5b505050506040513d601f19601f820116820180604052508101906119839190612458565b1080611a0a57506040516370a0823160e01b815281906001600160a01b038816906370a08231906119b8908690600401612fef565b60206040518083038186803b1580156119d057600080fd5b505afa1580156119e4573d6000803e3d6000fd5b505050506040513d601f19601f82011682018060405250810190611a089190612458565b105b15611a5457897f4f269a19b64cfff0bdee7fd3cdaec44e1fe38ce2ff55d3009a89fac6ecbe9f2c604051611a3d90613409565b60405180910390a260009650505050505050611adf565b6040516323b872dd60e01b81526001600160a01b038716906323b872dd90611a8490859087908690600401613080565b602060405180830381600087803b158015611a9e57600080fd5b505af1158015611ab2573d6000803e3d6000fd5b505050506040513d601f19601f82011682018060405250810190611ad69190612424565b96505050505050505b9392505050565b6007620151809091046003010660010190565b62015180810282018281101561027957600080fd5b60008080836226496581018262023ab1600483020590506004600362023ab18302010590910390600062164b09610fa0600185010205905060046105b58202058303601f019250600061098f8460500281611b6557fe5b0590506000605061098f83020585039050600b820560301994909401606402929092018301996002600c90940290910392909201975095509350505050565b62015180810282038281111561027957600080fd5b60015460405163eb01255960e01b815260009182916001600160a01b039091169063eb01255990611bee908890600401613126565b60206040518083038186803b158015611c0657600080fd5b505afa158015611c1a573d6000803e3d6000fd5b505050506040513d601f19601f82011682018060405250810190611c3e91906123dd565b60015460405163eb01255960e01b81529192506000916001600160a01b039091169063eb01255990611c7490899060040161316f565b60206040518083038186803b158015611c8c57600080fd5b505afa158015611ca0573d6000803e3d6000fd5b505050506040513d601f19601f82011682018060405250810190611cc491906123dd565b9050806001600160a01b0316826001600160a01b031614611dc95760025460405160009182916001600160a01b039091169063353955c8908390611d0e9088908890602001613066565b6040516020818303038152906040528051906020012089604051602001611d369291906130dd565b6040516020818303038152906040526040518363ffffffff1660e01b8152600401611d62929190613003565b604080518083038186803b158015611d7957600080fd5b505afa158015611d8d573d6000803e3d6000fd5b505050506040513d601f19601f82011682018060405250810190611db191906124e2565b915091508015611dc657509250611adf915050565b50505b50600095945050505050565b6000600d836021811115611de557fe5b1415611f235760025460015460405163354770f760e21b815260009283926001600160a01b039182169263353955c8928592169063d51dc3dc90611e2d908c90600401613140565b60206040518083038186803b158015611e4557600080fd5b505afa158015611e59573d6000803e3d6000fd5b505050506040513d601f19601f82011682018060405250810190611e7d9190612458565b87604051602001611e8f9291906130dd565b6040516020818303038152906040526040518363ffffffff1660e01b8152600401611ebb929190613003565b604080518083038186803b158015611ed257600080fd5b505afa158015611ee6573d6000803e3d6000fd5b505050506040513d601f19601f82011682018060405250810190611f0a91906124e2565b915091508015611f1c57509050611adf565b5050611f3e565b6001836021811115611f3157fe5b1415611f3e575042611adf565b5060009392505050565b604080516102e081019091528060008152602001600081526020016000815260200160008152602001600081526020016000815260200160008152602001600081526020016000815260200160008152602001600081526020016000815260200160008152602001600081526020016000815260200160008152602001600081526020016000815260200160008152602001600081526020016000815260200160008152602001600081525090565b604080516105e081019091528060008152602001600081526020016000815260200160008152602001600081526020016000815260200160008152602001600081526020016000815260200160006001600160a01b0316815260200160006001600160a01b0316815260200160008019168152602001600081526020016000815260200160008152602001600081526020016000815260200160008152602001600081526020016000815260200160008152602001600081526020016000815260200160008152602001600081526020016000815260200160008152602001600081526020016000815260200160008152602001600081526020016000815260200160008152602001600081526020016000815260200160008152602001600081526020016000815260200160008152602001600081526020016121396121da565b81526020016121466121da565b81526020016121536121fd565b81526020016121606121fd565b815260200161216d6121fd565b815260200161217a6121fd565b81526020016121876121fd565b905290565b60408051608081018252600080825260208201819052909182019081526020016000612187565b60408051608081018252600080825260208201819052918101829052606081019190915290565b6040805160608101909152600080825260208201905b8152600060209091015290565b604080516080810190915260008082526020820190815260200160006121f0565b8035610880816139cd565b8051610880816139cd565b8035610880816139f0565b8051610880816139f0565b8035610880816139fd565b8051610880816139fd565b805161088081613a0a565b803561088081613a24565b805161088081613a24565b803561088081613a31565b805161088081613a31565b803561088081613a0a565b80356022811061088057600080fd5b803561088081613a3e565b805161088081613a3e565b6000608082840312156122d8578081fd5b50919050565b6000608082840312156122ef578081fd5b6040516080810181811067ffffffffffffffff8211171561230c57fe5b806040525080915082518152602083015161232681613a0a565b60208201526040830151612339816139fd565b6040820152606083015161234c816139e2565b6060919091015292915050565b60006060828403121561236a578081fd5b6040516060810181811067ffffffffffffffff8211171561238757fe5b80604052508091508251815260208301516123a181613a0a565b602082015260408301516123b4816139e2565b6040919091015292915050565b6000602082840312156123d2578081fd5b8135611adf816139cd565b6000602082840312156123ee578081fd5b8151611adf816139cd565b6000806040838503121561240b578081fd5b8235612416816139cd565b946020939093013593505050565b600060208284031215612435578081fd5b8151611adf816139e2565b600060208284031215612451578081fd5b5035919050565b600060208284031215612469578081fd5b5051919050565b60008060408385031215612482578182fd5b50508035926020909101359150565b6000602082840312156124a2578081fd5b8151611adf81613a31565b6000602082840312156124be578081fd5b611adf826122a2565b600080604083850312156124d9578182fd5b612416836122a2565b600080604083850312156124f4578182fd5b825191506020830151612506816139e2565b809150509250929050565b60008060008060008086880361092081121561252b578283fd5b6108408082121561253a578384fd5b889750870135905067ffffffffffffffff80821115612557578384fd5b818901915089601f83011261256a578384fd5b813581811115612578578485fd5b8a6020808302850101111561258b578485fd5b6020830197508096505050506125a58861086089016122c7565b92506125b46108e0880161221e565b91506125c3610900880161221e565b90509295509295509295565b600061084082840312156125e1578081fd5b6125ec6105e0613992565b6125f58361228c565b815261260360208401612255565b602082015261261460408401612276565b604082015261262560608401612260565b60608201526126366080840161223f565b608082015261264760a08401612255565b60a082015261265860c084016122bc565b60c082015261266960e084016122bc565b60e082015261010061267c818501612255565b9082015261012061268e848201612229565b908201526101406126a0848201612229565b90820152610160838101519082015261018080840151908201526101a080840151908201526101c080840151908201526101e08084015190820152610200808401519082015261022080840151908201526102408084015190820152610260808401519082015261028080840151908201526102a080840151908201526102c080840151908201526102e08084015190820152610300808401519082015261032080840151908201526103408084015190820152610360808401519082015261038080840151908201526103a080840151908201526103c080840151908201526103e08084015190820152610400808401519082015261042080840151908201526104408084015190820152610460808401519082015261048080840151908201526104a080840151908201526104c080840151908201526104e080840151908201526105006127f285828601612359565b9082015261056061280585858301612359565b6105208301526105c061281a868287016122de565b61054084015261282e8661064087016122de565b82840152612840866106c087016122de565b6105808401526128548661074087016122de565b6105a0840152612868866107c087016122de565b90830152509392505050565b600060808284031215612885578081fd5b6040516080810181811067ffffffffffffffff821117156128a257fe5b60405282516128b0816139cd565b815260208301516128c0816139cd565b602082015260408301516128d3816139cd565b604082015260608301516128e6816139cd565b60608201529392505050565b600060808284031215612903578081fd5b6040516080810181811067ffffffffffffffff8211171561292057fe5b80604052508251815260208301516020820152604083015161294181613a17565b604082015260608301516128e681613a17565b60006102e0808385031215612967578182fd5b61297081613992565b905061297b83612260565b81526020838101519082015260408084015190820152606080840151908201526080808401519082015260a0808401519082015260c0808401519082015260e08084015190820152610100808401519082015261012080840151908201526101408084015190820152610160808401519082015261018080840151908201526101a080840151908201526101c080840151908201526101e08084015190820152610200808401519082015261022080840151908201526102408084015190820152610260808401519082015261028080840151908201526102a080840151908201526102c0928301519281019290925250919050565b60008060008060808587031215612a86578182fd5b843593506020850135612a98816139f0565b92506040850135612aa8816139fd565b9396929550929360600135925050565b600060208284031215612ac9578081fd5b815160ff81168114611adf578182fd5b6001600160a01b03169052565b60098110612af057fe5b9052565b612af0816139b6565b612af0816139c3565b600d8110612af057fe5b60138110612af057fe5b60228110612af057fe5b60048110612af057fe5b612b4082612b3b83612281565b612b10565b612b4c6020820161224a565b612b596020840182612af4565b50612b666040820161226b565b612b736040840182612b06565b50612b8060608201612297565b612b8d6060840182612afd565b50612b9a60808201612234565b612ba76080840182612ae6565b50612bb460a0820161224a565b612bc160a0840182612af4565b50612bce60c082016122b1565b612bdb60c0840182612b24565b50612be860e082016122b1565b612bf560e0840182612b24565b50610100612c0481830161224a565b612c1082850182612af4565b5050610120612c2081830161221e565b612c2c82850182612ad9565b5050610140612c3c81830161221e565b612c4882850182612ad9565b5050610160818101359083015261018080820135908301526101a080820135908301526101c080820135908301526101e08082013590830152610200808201359083015261022080820135908301526102408082013590830152610260808201359083015261028080820135908301526102a080820135908301526102c080820135908301526102e08082013590830152610300808201359083015261032080820135908301526103408082013590830152610360808201359083015261038080820135908301526103a080820135908301526103c080820135908301526103e08082013590830152610400808201359083015261042080820135908301526104408082013590830152610460808201359083015261048080820135908301526104a080820135908301526104c080820135908301526104e08082013590830152610500612d9a818401828401612e99565b50610560612dac818401828401612e99565b506105c0612dbe818401828401612e0b565b50610640612dd0818401828401612e0b565b506106c0612de2818401828401612e0b565b50610740612df4818401828401612e0b565b506107c0612e06818401828401612e0b565b505050565b803582526020810135612e1d81613a0a565b612e26816139c3565b60208301526040810135612e39816139fd565b612e42816139b6565b60408301526060810135612e55816139e2565b8015156060840152505050565b805182526020810151612e74816139c3565b60208301526040810151612e87816139b6565b60408301526060908101511515910152565b803582526020810135612eab81613a0a565b612eb4816139c3565b60208301526040810135612ec7816139e2565b8015156040840152505050565b805182526020810151612ee6816139c3565b60208301526040908101511515910152565b612f03828251612afd565b6020818101519083015260408082015190830152606080820151908301526080808201519083015260a0808201519083015260c0808201519083015260e08082015190830152610100808201519083015261012080820151908301526101408082015190830152610160808201519083015261018080820151908301526101a080820151908301526101c080820151908301526101e08082015190830152610200808201519083015261022080820151908301526102408082015190830152610260808201519083015261028080820151908301526102a080820151908301526102c090810151910152565b6001600160a01b0391909116815260200190565b600060018060a01b038416825260206040818401528351806040850152825b8181101561303e57858101830151858201606001528201613022565b8181111561304f5783606083870101525b50601f01601f191692909201606001949350505050565b6001600160a01b0392831681529116602082015260400190565b6001600160a01b039384168152919092166020820152604081019190915260600190565b6001600160a01b03929092168252602082015260400190565b90815260200190565b9182526001600160a01b0316602082015260400190565b918252602082015260400190565b9283526020830191909152604082015260600190565b9081527231b7b73a3930b1ba2932b332b932b731b2af9960691b602082015260400190565b9081526763757272656e637960c01b602082015260400190565b9081527f6d61726b65744f626a656374436f646552617465526573657400000000000000602082015260400190565b90815271736574746c656d656e7443757272656e637960701b602082015260400190565b90815274313ab9b4b732b9b9a230bca1b7b73b32b73a34b7b760591b602082015260400190565b9081526b6d617475726974794461746560a01b602082015260400190565b9081526731b0b632b73230b960c11b602082015260400190565b6000610c408b8352613207602084018c612b2e565b61321561086084018b612ef8565b610b4083018190528201879052610c606001600160fb1b03881115613238578182fd5b60208802808a838601378301019081528535613253816139cd565b6001600160a01b03908116610b60840152602087013590613273826139cd565b908116610b8084015260408701359061328b826139cd565b908116610ba08401526060870135906132a3826139cd565b16610bc08301526132b8610be0830186612ad9565b6132c6610c00830185612ad9565b6132d4610c20830184612ad9565b9a9950505050505050505050565b8281526103008101611adf6020830184612ef8565b606081016133058286612b10565b6001600160a01b03938416602083015291909216604090920191909152919050565b604081016133358285612b1a565b8260208301529392505050565b606081016133508286612b1a565b602082019390935260400152919050565b60208082526038908201527f414e4e4163746f722e696e697469616c697a653a20434f4e54524143545f545960408201527f50455f4f465f454e47494e455f554e535550504f525445440000000000000000606082015260800190565b6020808252602b908201527f426173654163746f722e70726f6772657373576974683a20464f554e445f454160408201526a149312515497d15591539560aa1b606082015260800190565b71494e53554646494349454e545f46554e445360701b815260200190565b60208082526021908201527f426173654163746f722e70726f67726573733a204e4f5f4e4558545f4556454e6040820152601560fa1b606082015260800190565b6020808252602e908201527f426173654163746f722e70726f6772657373576974683a20464f554e445f554e60408201526d1111549316525391d7d15591539560921b606082015260800190565b6020808252602b908201527f426173654163746f722e70726f6772657373576974683a20554e415554484f5260408201526a24ad22a22fa9a2a72222a960a91b606082015260800190565b60208082526028908201527f426173654163746f722e70726f67726573733a2041535345545f444f45535f4e60408201526713d517d1561254d560c21b606082015260800190565b6020808252603b908201527f426173654163746f722e736574746c655061796f6666466f724576656e743a2060408201527f494e56414c49445f46554e4354494f4e5f504152414d45544552530000000000606082015260800190565b60208082526034908201527f426173654163746f722e70726f636573734576656e743a204e4558545f455645604082015273139517d393d517d6515517d4d0d211511553115160621b606082015260800190565b6020808252602b908201527f426173654163746f722e70726f6772657373576974683a20464f554e445f504560408201526a1391125391d7d15591539560aa1b606082015260800190565b60208082526031908201527f426173654163746f722e70726f636573734576656e743a2041535345545f524560408201527041434845445f46494e414c5f535441544560781b606082015260800190565b61084081016102798284612b2e565b61086081016136b48285612b2e565b826108408301529392505050565b6000610b60820190506136d6828751612b10565b60208601516136e86020840182612af4565b5060408601516136fb6040840182612b06565b50606086015161370e6060840182612afd565b5060808601516137216080840182612ae6565b5060a086015161373460a0840182612af4565b5060c086015161374760c0840182612b24565b5060e086015161375a60e0840182612b24565b506101008087015161376e82850182612af4565b50506101208087015161378382850182612ad9565b50506101408087015161379882850182612ad9565b5050610160868101519083015261018080870151908301526101a080870151908301526101c080870151908301526101e08087015190830152610200808701519083015261022080870151908301526102408087015190830152610260808701519083015261028080870151908301526102a080870151908301526102c080870151908301526102e08087015190830152610300808701519083015261032080870151908301526103408087015190830152610360808701519083015261038080870151908301526103a080870151908301526103c080870151908301526103e08087015190830152610400808701519083015261042080870151908301526104408087015190830152610460808701519083015261048080870151908301526104a080870151908301526104c080870151908301526104e08087015190830152610500808701516138ec82850182612ed4565b505061052086015161056061390381850183612ed4565b61054088015191506105c061391a81860184612e62565b81890151925061392e610640860184612e62565b61058089015192506139446106c0860184612e62565b6105a0890151925061395a610740860184612e62565b880151915061396f90506107c0840182612e62565b5061397e610840830186612ef8565b610b20820193909352610b40015292915050565b60405181810167ffffffffffffffff811182821017156139ae57fe5b604052919050565b600281106139c057fe5b50565b600681106139c057fe5b6001600160a01b03811681146139c057600080fd5b80151581146139c057600080fd5b600981106139c057600080fd5b600281106139c057600080fd5b600681106139c057600080fd5b600581106139c057600080fd5b600d81106139c057600080fd5b601381106139c057600080fd5b600481106139c057600080fdfe4f776e61626c653a206e6577206f776e657220697320746865207a65726f2061646472657373a2646970667358221220ab1c859d38eaf78ab46414cccc8f14430bb085a1a4b81ad3cf49050471c53d9164736f6c63430007040033",
  "devdoc": {
    "kind": "dev",
    "methods": {
      "initialize((uint8,uint8,uint8,uint8,uint8,uint8,uint8,uint8,uint8,address,address,bytes32,uint256,uint256,uint256,uint256,uint256,uint256,uint256,uint256,uint256,uint256,uint256,int256,int256,int256,int256,int256,int256,int256,int256,int256,int256,int256,int256,int256,int256,int256,int256,int256,(uint256,uint8,bool),(uint256,uint8,bool),(uint256,uint8,uint8,bool),(uint256,uint8,uint8,bool),(uint256,uint8,uint8,bool),(uint256,uint8,uint8,bool),(uint256,uint8,uint8,bool)),bytes32[],(address,address,address,address),address,address)": {
        "params": {
          "admin": "address of the admin of the asset (optional)",
          "engine": "address of the ACTUS engine used for the spec. ContractType",
          "ownership": "ownership of the asset",
          "schedule": "schedule of the asset",
          "terms": "asset specific terms"
        }
      },
      "owner()": {
        "details": "Returns the address of the current owner."
      },
      "progress(bytes32)": {
        "details": "Emits ProgressedAsset if the state of the asset was updated.",
        "params": {
          "assetId": "id of the asset"
        }
      },
      "progressWith(bytes32,bytes32)": {
        "details": "Emits ProgressedAsset if the state of the asset was updated.",
        "params": {
          "_event": "the unscheduled event",
          "assetId": "id of the asset"
        }
      },
      "renounceOwnership()": {
        "details": "Leaves the contract without owner. It will not be possible to call `onlyOwner` functions anymore. Can only be called by the current owner. NOTE: Renouncing ownership will leave the contract without an owner, thereby removing any functionality that is only available to the owner."
      },
      "transferOwnership(address)": {
        "details": "Transfers ownership of the contract to a new account (`newOwner`). Can only be called by the current owner."
      }
    },
    "title": "ANNActor",
    "version": 1
  },
  "userdoc": {
    "kind": "user",
    "methods": {
      "getEpochOffset(uint8)": {
        "notice": "Returns the epoch offset for a given event type to determine the correct order of events if multiple events have the same timestamp"
      },
      "initialize((uint8,uint8,uint8,uint8,uint8,uint8,uint8,uint8,uint8,address,address,bytes32,uint256,uint256,uint256,uint256,uint256,uint256,uint256,uint256,uint256,uint256,uint256,int256,int256,int256,int256,int256,int256,int256,int256,int256,int256,int256,int256,int256,int256,int256,int256,int256,(uint256,uint8,bool),(uint256,uint8,bool),(uint256,uint8,uint8,bool),(uint256,uint8,uint8,bool),(uint256,uint8,uint8,bool),(uint256,uint8,uint8,bool),(uint256,uint8,uint8,bool)),bytes32[],(address,address,address,address),address,address)": {
        "notice": "Derives initial state of the asset terms and stores together with terms, schedule, ownership, engine, admin of the asset in the contract types specific AssetRegistry."
      },
      "progress(bytes32)": {
        "notice": "Proceeds with the next state of the asset based on the terms, the last state, market object data and the settlement status of current obligation, derived from either a prev. pending event, an event generated based on the current state of an underlying asset or the assets schedule."
      },
      "progressWith(bytes32,bytes32)": {
        "notice": "Proceeds with the next state of the asset based on the terms, the last state, market object data and the settlement status of current obligation, derived from a provided (unscheduled) event Reverts if the provided event violates the order of events."
      },
      "shiftCalcTime(uint256,uint8,uint8,uint256)": {
        "notice": "Used in POFs and STFs for DCFs. No shifting is applied if a Calc/Shift instead of Shift/Calc BDC is provided."
      }
    },
    "notice": "TODO",
    "version": 1
  },
  "storageLayout": {
    "storage": [
      {
        "astId": 30,
        "contract": "contracts/Core/ANN/ANNActor.sol:ANNActor",
        "label": "_owner",
        "offset": 0,
        "slot": "0",
        "type": "t_address"
      },
      {
        "astId": 22277,
        "contract": "contracts/Core/ANN/ANNActor.sol:ANNActor",
        "label": "assetRegistry",
        "offset": 0,
        "slot": "1",
        "type": "t_contract(IAssetRegistry)23554"
      },
      {
        "astId": 22279,
        "contract": "contracts/Core/ANN/ANNActor.sol:ANNActor",
        "label": "oracleRegistry",
        "offset": 0,
        "slot": "2",
        "type": "t_contract(IOracleRegistry)45700"
      }
    ],
    "types": {
      "t_address": {
        "encoding": "inplace",
        "label": "address",
        "numberOfBytes": "20"
      },
      "t_contract(IAssetRegistry)23554": {
        "encoding": "inplace",
        "label": "contract IAssetRegistry",
        "numberOfBytes": "20"
      },
      "t_contract(IOracleRegistry)45700": {
        "encoding": "inplace",
        "label": "contract IOracleRegistry",
        "numberOfBytes": "20"
      }
    }
  }
}