{
  "address": "0x0c662f6Cf73d547EdBF6f19be14665a050062Cc4",
  "abi": [
    {
      "inputs": [],
      "name": "MAX_CYCLE_SIZE",
      "outputs": [
        {
          "internalType": "uint256",
          "name": "",
          "type": "uint256"
        }
      ],
      "stateMutability": "view",
      "type": "function"
    },
    {
      "inputs": [],
      "name": "MAX_EVENT_SCHEDULE_SIZE",
      "outputs": [
        {
          "internalType": "uint256",
          "name": "",
          "type": "uint256"
        }
      ],
      "stateMutability": "view",
      "type": "function"
    },
    {
      "inputs": [],
      "name": "ONE_POINT_ZERO",
      "outputs": [
        {
          "internalType": "int256",
          "name": "",
          "type": "int256"
        }
      ],
      "stateMutability": "view",
      "type": "function"
    },
    {
      "inputs": [],
      "name": "PRECISION",
      "outputs": [
        {
          "internalType": "uint256",
          "name": "",
          "type": "uint256"
        }
      ],
      "stateMutability": "view",
      "type": "function"
    },
    {
      "inputs": [
        {
          "internalType": "enum EndOfMonthConvention",
          "name": "eomc",
          "type": "uint8"
        },
        {
          "internalType": "uint256",
          "name": "startTime",
          "type": "uint256"
        },
        {
          "components": [
            {
              "internalType": "uint256",
              "name": "i",
              "type": "uint256"
            },
            {
              "internalType": "enum P",
              "name": "p",
              "type": "uint8"
            },
            {
              "internalType": "enum S",
              "name": "s",
              "type": "uint8"
            },
            {
              "internalType": "bool",
              "name": "isSet",
              "type": "bool"
            }
          ],
          "internalType": "struct IPS",
          "name": "cycle",
          "type": "tuple"
        }
      ],
      "name": "adjustEndOfMonthConvention",
      "outputs": [
        {
          "internalType": "enum EndOfMonthConvention",
          "name": "",
          "type": "uint8"
        }
      ],
      "stateMutability": "pure",
      "type": "function"
    },
    {
      "inputs": [
        {
          "components": [
            {
              "internalType": "enum ContractType",
              "name": "contractType",
              "type": "uint8"
            },
            {
              "internalType": "enum Calendar",
              "name": "calendar",
              "type": "uint8"
            },
            {
              "internalType": "enum ContractRole",
              "name": "contractRole",
              "type": "uint8"
            },
            {
              "internalType": "enum DayCountConvention",
              "name": "dayCountConvention",
              "type": "uint8"
            },
            {
              "internalType": "enum BusinessDayConvention",
              "name": "businessDayConvention",
              "type": "uint8"
            },
            {
              "internalType": "enum EndOfMonthConvention",
              "name": "endOfMonthConvention",
              "type": "uint8"
            },
            {
              "internalType": "enum ScalingEffect",
              "name": "scalingEffect",
              "type": "uint8"
            },
            {
              "internalType": "enum PenaltyType",
              "name": "penaltyType",
              "type": "uint8"
            },
            {
              "internalType": "enum FeeBasis",
              "name": "feeBasis",
              "type": "uint8"
            },
            {
              "internalType": "address",
              "name": "currency",
              "type": "address"
            },
            {
              "internalType": "address",
              "name": "settlementCurrency",
              "type": "address"
            },
            {
              "internalType": "bytes32",
              "name": "marketObjectCodeRateReset",
              "type": "bytes32"
            },
            {
              "internalType": "uint256",
              "name": "contractDealDate",
              "type": "uint256"
            },
            {
              "internalType": "uint256",
              "name": "statusDate",
              "type": "uint256"
            },
            {
              "internalType": "uint256",
              "name": "initialExchangeDate",
              "type": "uint256"
            },
            {
              "internalType": "uint256",
              "name": "maturityDate",
              "type": "uint256"
            },
            {
              "internalType": "uint256",
              "name": "issueDate",
              "type": "uint256"
            },
            {
              "internalType": "uint256",
              "name": "purchaseDate",
              "type": "uint256"
            },
            {
              "internalType": "uint256",
              "name": "capitalizationEndDate",
              "type": "uint256"
            },
            {
              "internalType": "uint256",
              "name": "cycleAnchorDateOfInterestPayment",
              "type": "uint256"
            },
            {
              "internalType": "uint256",
              "name": "cycleAnchorDateOfRateReset",
              "type": "uint256"
            },
            {
              "internalType": "uint256",
              "name": "cycleAnchorDateOfScalingIndex",
              "type": "uint256"
            },
            {
              "internalType": "uint256",
              "name": "cycleAnchorDateOfFee",
              "type": "uint256"
            },
            {
              "internalType": "uint256",
              "name": "cycleAnchorDateOfPrincipalRedemption",
              "type": "uint256"
            },
            {
              "internalType": "int256",
              "name": "notionalPrincipal",
              "type": "int256"
            },
            {
              "internalType": "int256",
              "name": "nominalInterestRate",
              "type": "int256"
            },
            {
              "internalType": "int256",
              "name": "accruedInterest",
              "type": "int256"
            },
            {
              "internalType": "int256",
              "name": "rateMultiplier",
              "type": "int256"
            },
            {
              "internalType": "int256",
              "name": "rateSpread",
              "type": "int256"
            },
            {
              "internalType": "int256",
              "name": "nextResetRate",
              "type": "int256"
            },
            {
              "internalType": "int256",
              "name": "feeRate",
              "type": "int256"
            },
            {
              "internalType": "int256",
              "name": "feeAccrued",
              "type": "int256"
            },
            {
              "internalType": "int256",
              "name": "penaltyRate",
              "type": "int256"
            },
            {
              "internalType": "int256",
              "name": "delinquencyRate",
              "type": "int256"
            },
            {
              "internalType": "int256",
              "name": "premiumDiscountAtIED",
              "type": "int256"
            },
            {
              "internalType": "int256",
              "name": "priceAtPurchaseDate",
              "type": "int256"
            },
            {
              "internalType": "int256",
              "name": "priceAtTerminationDate",
              "type": "int256"
            },
            {
              "internalType": "int256",
              "name": "nextPrincipalRedemptionPayment",
              "type": "int256"
            },
            {
              "internalType": "int256",
              "name": "lifeCap",
              "type": "int256"
            },
            {
              "internalType": "int256",
              "name": "lifeFloor",
              "type": "int256"
            },
            {
              "internalType": "int256",
              "name": "periodCap",
              "type": "int256"
            },
            {
              "internalType": "int256",
              "name": "periodFloor",
              "type": "int256"
            },
            {
              "components": [
                {
                  "internalType": "uint256",
                  "name": "i",
                  "type": "uint256"
                },
                {
                  "internalType": "enum P",
                  "name": "p",
                  "type": "uint8"
                },
                {
                  "internalType": "bool",
                  "name": "isSet",
                  "type": "bool"
                }
              ],
              "internalType": "struct IP",
              "name": "gracePeriod",
              "type": "tuple"
            },
            {
              "components": [
                {
                  "internalType": "uint256",
                  "name": "i",
                  "type": "uint256"
                },
                {
                  "internalType": "enum P",
                  "name": "p",
                  "type": "uint8"
                },
                {
                  "internalType": "bool",
                  "name": "isSet",
                  "type": "bool"
                }
              ],
              "internalType": "struct IP",
              "name": "delinquencyPeriod",
              "type": "tuple"
            },
            {
              "components": [
                {
                  "internalType": "uint256",
                  "name": "i",
                  "type": "uint256"
                },
                {
                  "internalType": "enum P",
                  "name": "p",
                  "type": "uint8"
                },
                {
                  "internalType": "enum S",
                  "name": "s",
                  "type": "uint8"
                },
                {
                  "internalType": "bool",
                  "name": "isSet",
                  "type": "bool"
                }
              ],
              "internalType": "struct IPS",
              "name": "cycleOfInterestPayment",
              "type": "tuple"
            },
            {
              "components": [
                {
                  "internalType": "uint256",
                  "name": "i",
                  "type": "uint256"
                },
                {
                  "internalType": "enum P",
                  "name": "p",
                  "type": "uint8"
                },
                {
                  "internalType": "enum S",
                  "name": "s",
                  "type": "uint8"
                },
                {
                  "internalType": "bool",
                  "name": "isSet",
                  "type": "bool"
                }
              ],
              "internalType": "struct IPS",
              "name": "cycleOfRateReset",
              "type": "tuple"
            },
            {
              "components": [
                {
                  "internalType": "uint256",
                  "name": "i",
                  "type": "uint256"
                },
                {
                  "internalType": "enum P",
                  "name": "p",
                  "type": "uint8"
                },
                {
                  "internalType": "enum S",
                  "name": "s",
                  "type": "uint8"
                },
                {
                  "internalType": "bool",
                  "name": "isSet",
                  "type": "bool"
                }
              ],
              "internalType": "struct IPS",
              "name": "cycleOfScalingIndex",
              "type": "tuple"
            },
            {
              "components": [
                {
                  "internalType": "uint256",
                  "name": "i",
                  "type": "uint256"
                },
                {
                  "internalType": "enum P",
                  "name": "p",
                  "type": "uint8"
                },
                {
                  "internalType": "enum S",
                  "name": "s",
                  "type": "uint8"
                },
                {
                  "internalType": "bool",
                  "name": "isSet",
                  "type": "bool"
                }
              ],
              "internalType": "struct IPS",
              "name": "cycleOfFee",
              "type": "tuple"
            },
            {
              "components": [
                {
                  "internalType": "uint256",
                  "name": "i",
                  "type": "uint256"
                },
                {
                  "internalType": "enum P",
                  "name": "p",
                  "type": "uint8"
                },
                {
                  "internalType": "enum S",
                  "name": "s",
                  "type": "uint8"
                },
                {
                  "internalType": "bool",
                  "name": "isSet",
                  "type": "bool"
                }
              ],
              "internalType": "struct IPS",
              "name": "cycleOfPrincipalRedemption",
              "type": "tuple"
            }
          ],
          "internalType": "struct ANNTerms",
          "name": "terms",
          "type": "tuple"
        },
        {
          "internalType": "uint256",
          "name": "segmentStart",
          "type": "uint256"
        },
        {
          "internalType": "uint256",
          "name": "segmentEnd",
          "type": "uint256"
        },
        {
          "internalType": "enum EventType",
          "name": "eventType",
          "type": "uint8"
        }
      ],
      "name": "computeCyclicScheduleSegment",
      "outputs": [
        {
          "internalType": "bytes32[]",
          "name": "",
          "type": "bytes32[]"
        }
      ],
      "stateMutability": "pure",
      "type": "function"
    },
    {
      "inputs": [
        {
          "internalType": "bytes32",
          "name": "_event",
          "type": "bytes32"
        },
        {
          "internalType": "enum BusinessDayConvention",
          "name": "bdc",
          "type": "uint8"
        },
        {
          "internalType": "enum Calendar",
          "name": "calendar",
          "type": "uint8"
        },
        {
          "internalType": "uint256",
          "name": "maturityDate",
          "type": "uint256"
        }
      ],
      "name": "computeEventTimeForEvent",
      "outputs": [
        {
          "internalType": "uint256",
          "name": "",
          "type": "uint256"
        }
      ],
      "stateMutability": "pure",
      "type": "function"
    },
    {
      "inputs": [
        {
          "components": [
            {
              "internalType": "enum ContractType",
              "name": "contractType",
              "type": "uint8"
            },
            {
              "internalType": "enum Calendar",
              "name": "calendar",
              "type": "uint8"
            },
            {
              "internalType": "enum ContractRole",
              "name": "contractRole",
              "type": "uint8"
            },
            {
              "internalType": "enum DayCountConvention",
              "name": "dayCountConvention",
              "type": "uint8"
            },
            {
              "internalType": "enum BusinessDayConvention",
              "name": "businessDayConvention",
              "type": "uint8"
            },
            {
              "internalType": "enum EndOfMonthConvention",
              "name": "endOfMonthConvention",
              "type": "uint8"
            },
            {
              "internalType": "enum ScalingEffect",
              "name": "scalingEffect",
              "type": "uint8"
            },
            {
              "internalType": "enum PenaltyType",
              "name": "penaltyType",
              "type": "uint8"
            },
            {
              "internalType": "enum FeeBasis",
              "name": "feeBasis",
              "type": "uint8"
            },
            {
              "internalType": "address",
              "name": "currency",
              "type": "address"
            },
            {
              "internalType": "address",
              "name": "settlementCurrency",
              "type": "address"
            },
            {
              "internalType": "bytes32",
              "name": "marketObjectCodeRateReset",
              "type": "bytes32"
            },
            {
              "internalType": "uint256",
              "name": "contractDealDate",
              "type": "uint256"
            },
            {
              "internalType": "uint256",
              "name": "statusDate",
              "type": "uint256"
            },
            {
              "internalType": "uint256",
              "name": "initialExchangeDate",
              "type": "uint256"
            },
            {
              "internalType": "uint256",
              "name": "maturityDate",
              "type": "uint256"
            },
            {
              "internalType": "uint256",
              "name": "issueDate",
              "type": "uint256"
            },
            {
              "internalType": "uint256",
              "name": "purchaseDate",
              "type": "uint256"
            },
            {
              "internalType": "uint256",
              "name": "capitalizationEndDate",
              "type": "uint256"
            },
            {
              "internalType": "uint256",
              "name": "cycleAnchorDateOfInterestPayment",
              "type": "uint256"
            },
            {
              "internalType": "uint256",
              "name": "cycleAnchorDateOfRateReset",
              "type": "uint256"
            },
            {
              "internalType": "uint256",
              "name": "cycleAnchorDateOfScalingIndex",
              "type": "uint256"
            },
            {
              "internalType": "uint256",
              "name": "cycleAnchorDateOfFee",
              "type": "uint256"
            },
            {
              "internalType": "uint256",
              "name": "cycleAnchorDateOfPrincipalRedemption",
              "type": "uint256"
            },
            {
              "internalType": "int256",
              "name": "notionalPrincipal",
              "type": "int256"
            },
            {
              "internalType": "int256",
              "name": "nominalInterestRate",
              "type": "int256"
            },
            {
              "internalType": "int256",
              "name": "accruedInterest",
              "type": "int256"
            },
            {
              "internalType": "int256",
              "name": "rateMultiplier",
              "type": "int256"
            },
            {
              "internalType": "int256",
              "name": "rateSpread",
              "type": "int256"
            },
            {
              "internalType": "int256",
              "name": "nextResetRate",
              "type": "int256"
            },
            {
              "internalType": "int256",
              "name": "feeRate",
              "type": "int256"
            },
            {
              "internalType": "int256",
              "name": "feeAccrued",
              "type": "int256"
            },
            {
              "internalType": "int256",
              "name": "penaltyRate",
              "type": "int256"
            },
            {
              "internalType": "int256",
              "name": "delinquencyRate",
              "type": "int256"
            },
            {
              "internalType": "int256",
              "name": "premiumDiscountAtIED",
              "type": "int256"
            },
            {
              "internalType": "int256",
              "name": "priceAtPurchaseDate",
              "type": "int256"
            },
            {
              "internalType": "int256",
              "name": "priceAtTerminationDate",
              "type": "int256"
            },
            {
              "internalType": "int256",
              "name": "nextPrincipalRedemptionPayment",
              "type": "int256"
            },
            {
              "internalType": "int256",
              "name": "lifeCap",
              "type": "int256"
            },
            {
              "internalType": "int256",
              "name": "lifeFloor",
              "type": "int256"
            },
            {
              "internalType": "int256",
              "name": "periodCap",
              "type": "int256"
            },
            {
              "internalType": "int256",
              "name": "periodFloor",
              "type": "int256"
            },
            {
              "components": [
                {
                  "internalType": "uint256",
                  "name": "i",
                  "type": "uint256"
                },
                {
                  "internalType": "enum P",
                  "name": "p",
                  "type": "uint8"
                },
                {
                  "internalType": "bool",
                  "name": "isSet",
                  "type": "bool"
                }
              ],
              "internalType": "struct IP",
              "name": "gracePeriod",
              "type": "tuple"
            },
            {
              "components": [
                {
                  "internalType": "uint256",
                  "name": "i",
                  "type": "uint256"
                },
                {
                  "internalType": "enum P",
                  "name": "p",
                  "type": "uint8"
                },
                {
                  "internalType": "bool",
                  "name": "isSet",
                  "type": "bool"
                }
              ],
              "internalType": "struct IP",
              "name": "delinquencyPeriod",
              "type": "tuple"
            },
            {
              "components": [
                {
                  "internalType": "uint256",
                  "name": "i",
                  "type": "uint256"
                },
                {
                  "internalType": "enum P",
                  "name": "p",
                  "type": "uint8"
                },
                {
                  "internalType": "enum S",
                  "name": "s",
                  "type": "uint8"
                },
                {
                  "internalType": "bool",
                  "name": "isSet",
                  "type": "bool"
                }
              ],
              "internalType": "struct IPS",
              "name": "cycleOfInterestPayment",
              "type": "tuple"
            },
            {
              "components": [
                {
                  "internalType": "uint256",
                  "name": "i",
                  "type": "uint256"
                },
                {
                  "internalType": "enum P",
                  "name": "p",
                  "type": "uint8"
                },
                {
                  "internalType": "enum S",
                  "name": "s",
                  "type": "uint8"
                },
                {
                  "internalType": "bool",
                  "name": "isSet",
                  "type": "bool"
                }
              ],
              "internalType": "struct IPS",
              "name": "cycleOfRateReset",
              "type": "tuple"
            },
            {
              "components": [
                {
                  "internalType": "uint256",
                  "name": "i",
                  "type": "uint256"
                },
                {
                  "internalType": "enum P",
                  "name": "p",
                  "type": "uint8"
                },
                {
                  "internalType": "enum S",
                  "name": "s",
                  "type": "uint8"
                },
                {
                  "internalType": "bool",
                  "name": "isSet",
                  "type": "bool"
                }
              ],
              "internalType": "struct IPS",
              "name": "cycleOfScalingIndex",
              "type": "tuple"
            },
            {
              "components": [
                {
                  "internalType": "uint256",
                  "name": "i",
                  "type": "uint256"
                },
                {
                  "internalType": "enum P",
                  "name": "p",
                  "type": "uint8"
                },
                {
                  "internalType": "enum S",
                  "name": "s",
                  "type": "uint8"
                },
                {
                  "internalType": "bool",
                  "name": "isSet",
                  "type": "bool"
                }
              ],
              "internalType": "struct IPS",
              "name": "cycleOfFee",
              "type": "tuple"
            },
            {
              "components": [
                {
                  "internalType": "uint256",
                  "name": "i",
                  "type": "uint256"
                },
                {
                  "internalType": "enum P",
                  "name": "p",
                  "type": "uint8"
                },
                {
                  "internalType": "enum S",
                  "name": "s",
                  "type": "uint8"
                },
                {
                  "internalType": "bool",
                  "name": "isSet",
                  "type": "bool"
                }
              ],
              "internalType": "struct IPS",
              "name": "cycleOfPrincipalRedemption",
              "type": "tuple"
            }
          ],
          "internalType": "struct ANNTerms",
          "name": "terms",
          "type": "tuple"
        }
      ],
      "name": "computeInitialState",
      "outputs": [
        {
          "components": [
            {
              "internalType": "enum ContractPerformance",
              "name": "contractPerformance",
              "type": "uint8"
            },
            {
              "internalType": "uint256",
              "name": "statusDate",
              "type": "uint256"
            },
            {
              "internalType": "uint256",
              "name": "nonPerformingDate",
              "type": "uint256"
            },
            {
              "internalType": "uint256",
              "name": "maturityDate",
              "type": "uint256"
            },
            {
              "internalType": "uint256",
              "name": "exerciseDate",
              "type": "uint256"
            },
            {
              "internalType": "uint256",
              "name": "terminationDate",
              "type": "uint256"
            },
            {
              "internalType": "uint256",
              "name": "lastCouponFixingDate",
              "type": "uint256"
            },
            {
              "internalType": "uint256",
              "name": "lastDividendFixingDate",
              "type": "uint256"
            },
            {
              "internalType": "int256",
              "name": "notionalPrincipal",
              "type": "int256"
            },
            {
              "internalType": "int256",
              "name": "accruedInterest",
              "type": "int256"
            },
            {
              "internalType": "int256",
              "name": "feeAccrued",
              "type": "int256"
            },
            {
              "internalType": "int256",
              "name": "nominalInterestRate",
              "type": "int256"
            },
            {
              "internalType": "int256",
              "name": "interestScalingMultiplier",
              "type": "int256"
            },
            {
              "internalType": "int256",
              "name": "notionalScalingMultiplier",
              "type": "int256"
            },
            {
              "internalType": "int256",
              "name": "nextPrincipalRedemptionPayment",
              "type": "int256"
            },
            {
              "internalType": "int256",
              "name": "exerciseAmount",
              "type": "int256"
            },
            {
              "internalType": "int256",
              "name": "exerciseQuantity",
              "type": "int256"
            },
            {
              "internalType": "int256",
              "name": "quantity",
              "type": "int256"
            },
            {
              "internalType": "int256",
              "name": "couponAmountFixed",
              "type": "int256"
            },
            {
              "internalType": "int256",
              "name": "marginFactor",
              "type": "int256"
            },
            {
              "internalType": "int256",
              "name": "adjustmentFactor",
              "type": "int256"
            },
            {
              "internalType": "int256",
              "name": "dividendPaymentAmount",
              "type": "int256"
            },
            {
              "internalType": "int256",
              "name": "splitRatio",
              "type": "int256"
            }
          ],
          "internalType": "struct State",
          "name": "",
          "type": "tuple"
        }
      ],
      "stateMutability": "pure",
      "type": "function"
    },
    {
      "inputs": [
        {
          "components": [
            {
              "internalType": "enum ContractType",
              "name": "contractType",
              "type": "uint8"
            },
            {
              "internalType": "enum Calendar",
              "name": "calendar",
              "type": "uint8"
            },
            {
              "internalType": "enum ContractRole",
              "name": "contractRole",
              "type": "uint8"
            },
            {
              "internalType": "enum DayCountConvention",
              "name": "dayCountConvention",
              "type": "uint8"
            },
            {
              "internalType": "enum BusinessDayConvention",
              "name": "businessDayConvention",
              "type": "uint8"
            },
            {
              "internalType": "enum EndOfMonthConvention",
              "name": "endOfMonthConvention",
              "type": "uint8"
            },
            {
              "internalType": "enum ScalingEffect",
              "name": "scalingEffect",
              "type": "uint8"
            },
            {
              "internalType": "enum PenaltyType",
              "name": "penaltyType",
              "type": "uint8"
            },
            {
              "internalType": "enum FeeBasis",
              "name": "feeBasis",
              "type": "uint8"
            },
            {
              "internalType": "address",
              "name": "currency",
              "type": "address"
            },
            {
              "internalType": "address",
              "name": "settlementCurrency",
              "type": "address"
            },
            {
              "internalType": "bytes32",
              "name": "marketObjectCodeRateReset",
              "type": "bytes32"
            },
            {
              "internalType": "uint256",
              "name": "contractDealDate",
              "type": "uint256"
            },
            {
              "internalType": "uint256",
              "name": "statusDate",
              "type": "uint256"
            },
            {
              "internalType": "uint256",
              "name": "initialExchangeDate",
              "type": "uint256"
            },
            {
              "internalType": "uint256",
              "name": "maturityDate",
              "type": "uint256"
            },
            {
              "internalType": "uint256",
              "name": "issueDate",
              "type": "uint256"
            },
            {
              "internalType": "uint256",
              "name": "purchaseDate",
              "type": "uint256"
            },
            {
              "internalType": "uint256",
              "name": "capitalizationEndDate",
              "type": "uint256"
            },
            {
              "internalType": "uint256",
              "name": "cycleAnchorDateOfInterestPayment",
              "type": "uint256"
            },
            {
              "internalType": "uint256",
              "name": "cycleAnchorDateOfRateReset",
              "type": "uint256"
            },
            {
              "internalType": "uint256",
              "name": "cycleAnchorDateOfScalingIndex",
              "type": "uint256"
            },
            {
              "internalType": "uint256",
              "name": "cycleAnchorDateOfFee",
              "type": "uint256"
            },
            {
              "internalType": "uint256",
              "name": "cycleAnchorDateOfPrincipalRedemption",
              "type": "uint256"
            },
            {
              "internalType": "int256",
              "name": "notionalPrincipal",
              "type": "int256"
            },
            {
              "internalType": "int256",
              "name": "nominalInterestRate",
              "type": "int256"
            },
            {
              "internalType": "int256",
              "name": "accruedInterest",
              "type": "int256"
            },
            {
              "internalType": "int256",
              "name": "rateMultiplier",
              "type": "int256"
            },
            {
              "internalType": "int256",
              "name": "rateSpread",
              "type": "int256"
            },
            {
              "internalType": "int256",
              "name": "nextResetRate",
              "type": "int256"
            },
            {
              "internalType": "int256",
              "name": "feeRate",
              "type": "int256"
            },
            {
              "internalType": "int256",
              "name": "feeAccrued",
              "type": "int256"
            },
            {
              "internalType": "int256",
              "name": "penaltyRate",
              "type": "int256"
            },
            {
              "internalType": "int256",
              "name": "delinquencyRate",
              "type": "int256"
            },
            {
              "internalType": "int256",
              "name": "premiumDiscountAtIED",
              "type": "int256"
            },
            {
              "internalType": "int256",
              "name": "priceAtPurchaseDate",
              "type": "int256"
            },
            {
              "internalType": "int256",
              "name": "priceAtTerminationDate",
              "type": "int256"
            },
            {
              "internalType": "int256",
              "name": "nextPrincipalRedemptionPayment",
              "type": "int256"
            },
            {
              "internalType": "int256",
              "name": "lifeCap",
              "type": "int256"
            },
            {
              "internalType": "int256",
              "name": "lifeFloor",
              "type": "int256"
            },
            {
              "internalType": "int256",
              "name": "periodCap",
              "type": "int256"
            },
            {
              "internalType": "int256",
              "name": "periodFloor",
              "type": "int256"
            },
            {
              "components": [
                {
                  "internalType": "uint256",
                  "name": "i",
                  "type": "uint256"
                },
                {
                  "internalType": "enum P",
                  "name": "p",
                  "type": "uint8"
                },
                {
                  "internalType": "bool",
                  "name": "isSet",
                  "type": "bool"
                }
              ],
              "internalType": "struct IP",
              "name": "gracePeriod",
              "type": "tuple"
            },
            {
              "components": [
                {
                  "internalType": "uint256",
                  "name": "i",
                  "type": "uint256"
                },
                {
                  "internalType": "enum P",
                  "name": "p",
                  "type": "uint8"
                },
                {
                  "internalType": "bool",
                  "name": "isSet",
                  "type": "bool"
                }
              ],
              "internalType": "struct IP",
              "name": "delinquencyPeriod",
              "type": "tuple"
            },
            {
              "components": [
                {
                  "internalType": "uint256",
                  "name": "i",
                  "type": "uint256"
                },
                {
                  "internalType": "enum P",
                  "name": "p",
                  "type": "uint8"
                },
                {
                  "internalType": "enum S",
                  "name": "s",
                  "type": "uint8"
                },
                {
                  "internalType": "bool",
                  "name": "isSet",
                  "type": "bool"
                }
              ],
              "internalType": "struct IPS",
              "name": "cycleOfInterestPayment",
              "type": "tuple"
            },
            {
              "components": [
                {
                  "internalType": "uint256",
                  "name": "i",
                  "type": "uint256"
                },
                {
                  "internalType": "enum P",
                  "name": "p",
                  "type": "uint8"
                },
                {
                  "internalType": "enum S",
                  "name": "s",
                  "type": "uint8"
                },
                {
                  "internalType": "bool",
                  "name": "isSet",
                  "type": "bool"
                }
              ],
              "internalType": "struct IPS",
              "name": "cycleOfRateReset",
              "type": "tuple"
            },
            {
              "components": [
                {
                  "internalType": "uint256",
                  "name": "i",
                  "type": "uint256"
                },
                {
                  "internalType": "enum P",
                  "name": "p",
                  "type": "uint8"
                },
                {
                  "internalType": "enum S",
                  "name": "s",
                  "type": "uint8"
                },
                {
                  "internalType": "bool",
                  "name": "isSet",
                  "type": "bool"
                }
              ],
              "internalType": "struct IPS",
              "name": "cycleOfScalingIndex",
              "type": "tuple"
            },
            {
              "components": [
                {
                  "internalType": "uint256",
                  "name": "i",
                  "type": "uint256"
                },
                {
                  "internalType": "enum P",
                  "name": "p",
                  "type": "uint8"
                },
                {
                  "internalType": "enum S",
                  "name": "s",
                  "type": "uint8"
                },
                {
                  "internalType": "bool",
                  "name": "isSet",
                  "type": "bool"
                }
              ],
              "internalType": "struct IPS",
              "name": "cycleOfFee",
              "type": "tuple"
            },
            {
              "components": [
                {
                  "internalType": "uint256",
                  "name": "i",
                  "type": "uint256"
                },
                {
                  "internalType": "enum P",
                  "name": "p",
                  "type": "uint8"
                },
                {
                  "internalType": "enum S",
                  "name": "s",
                  "type": "uint8"
                },
                {
                  "internalType": "bool",
                  "name": "isSet",
                  "type": "bool"
                }
              ],
              "internalType": "struct IPS",
              "name": "cycleOfPrincipalRedemption",
              "type": "tuple"
            }
          ],
          "internalType": "struct ANNTerms",
          "name": "terms",
          "type": "tuple"
        },
        {
          "internalType": "uint256",
          "name": "lastScheduleTime",
          "type": "uint256"
        },
        {
          "internalType": "enum EventType",
          "name": "eventType",
          "type": "uint8"
        }
      ],
      "name": "computeNextCyclicEvent",
      "outputs": [
        {
          "internalType": "bytes32",
          "name": "",
          "type": "bytes32"
        }
      ],
      "stateMutability": "pure",
      "type": "function"
    },
    {
      "inputs": [
        {
          "components": [
            {
              "internalType": "enum ContractType",
              "name": "contractType",
              "type": "uint8"
            },
            {
              "internalType": "enum Calendar",
              "name": "calendar",
              "type": "uint8"
            },
            {
              "internalType": "enum ContractRole",
              "name": "contractRole",
              "type": "uint8"
            },
            {
              "internalType": "enum DayCountConvention",
              "name": "dayCountConvention",
              "type": "uint8"
            },
            {
              "internalType": "enum BusinessDayConvention",
              "name": "businessDayConvention",
              "type": "uint8"
            },
            {
              "internalType": "enum EndOfMonthConvention",
              "name": "endOfMonthConvention",
              "type": "uint8"
            },
            {
              "internalType": "enum ScalingEffect",
              "name": "scalingEffect",
              "type": "uint8"
            },
            {
              "internalType": "enum PenaltyType",
              "name": "penaltyType",
              "type": "uint8"
            },
            {
              "internalType": "enum FeeBasis",
              "name": "feeBasis",
              "type": "uint8"
            },
            {
              "internalType": "address",
              "name": "currency",
              "type": "address"
            },
            {
              "internalType": "address",
              "name": "settlementCurrency",
              "type": "address"
            },
            {
              "internalType": "bytes32",
              "name": "marketObjectCodeRateReset",
              "type": "bytes32"
            },
            {
              "internalType": "uint256",
              "name": "contractDealDate",
              "type": "uint256"
            },
            {
              "internalType": "uint256",
              "name": "statusDate",
              "type": "uint256"
            },
            {
              "internalType": "uint256",
              "name": "initialExchangeDate",
              "type": "uint256"
            },
            {
              "internalType": "uint256",
              "name": "maturityDate",
              "type": "uint256"
            },
            {
              "internalType": "uint256",
              "name": "issueDate",
              "type": "uint256"
            },
            {
              "internalType": "uint256",
              "name": "purchaseDate",
              "type": "uint256"
            },
            {
              "internalType": "uint256",
              "name": "capitalizationEndDate",
              "type": "uint256"
            },
            {
              "internalType": "uint256",
              "name": "cycleAnchorDateOfInterestPayment",
              "type": "uint256"
            },
            {
              "internalType": "uint256",
              "name": "cycleAnchorDateOfRateReset",
              "type": "uint256"
            },
            {
              "internalType": "uint256",
              "name": "cycleAnchorDateOfScalingIndex",
              "type": "uint256"
            },
            {
              "internalType": "uint256",
              "name": "cycleAnchorDateOfFee",
              "type": "uint256"
            },
            {
              "internalType": "uint256",
              "name": "cycleAnchorDateOfPrincipalRedemption",
              "type": "uint256"
            },
            {
              "internalType": "int256",
              "name": "notionalPrincipal",
              "type": "int256"
            },
            {
              "internalType": "int256",
              "name": "nominalInterestRate",
              "type": "int256"
            },
            {
              "internalType": "int256",
              "name": "accruedInterest",
              "type": "int256"
            },
            {
              "internalType": "int256",
              "name": "rateMultiplier",
              "type": "int256"
            },
            {
              "internalType": "int256",
              "name": "rateSpread",
              "type": "int256"
            },
            {
              "internalType": "int256",
              "name": "nextResetRate",
              "type": "int256"
            },
            {
              "internalType": "int256",
              "name": "feeRate",
              "type": "int256"
            },
            {
              "internalType": "int256",
              "name": "feeAccrued",
              "type": "int256"
            },
            {
              "internalType": "int256",
              "name": "penaltyRate",
              "type": "int256"
            },
            {
              "internalType": "int256",
              "name": "delinquencyRate",
              "type": "int256"
            },
            {
              "internalType": "int256",
              "name": "premiumDiscountAtIED",
              "type": "int256"
            },
            {
              "internalType": "int256",
              "name": "priceAtPurchaseDate",
              "type": "int256"
            },
            {
              "internalType": "int256",
              "name": "priceAtTerminationDate",
              "type": "int256"
            },
            {
              "internalType": "int256",
              "name": "nextPrincipalRedemptionPayment",
              "type": "int256"
            },
            {
              "internalType": "int256",
              "name": "lifeCap",
              "type": "int256"
            },
            {
              "internalType": "int256",
              "name": "lifeFloor",
              "type": "int256"
            },
            {
              "internalType": "int256",
              "name": "periodCap",
              "type": "int256"
            },
            {
              "internalType": "int256",
              "name": "periodFloor",
              "type": "int256"
            },
            {
              "components": [
                {
                  "internalType": "uint256",
                  "name": "i",
                  "type": "uint256"
                },
                {
                  "internalType": "enum P",
                  "name": "p",
                  "type": "uint8"
                },
                {
                  "internalType": "bool",
                  "name": "isSet",
                  "type": "bool"
                }
              ],
              "internalType": "struct IP",
              "name": "gracePeriod",
              "type": "tuple"
            },
            {
              "components": [
                {
                  "internalType": "uint256",
                  "name": "i",
                  "type": "uint256"
                },
                {
                  "internalType": "enum P",
                  "name": "p",
                  "type": "uint8"
                },
                {
                  "internalType": "bool",
                  "name": "isSet",
                  "type": "bool"
                }
              ],
              "internalType": "struct IP",
              "name": "delinquencyPeriod",
              "type": "tuple"
            },
            {
              "components": [
                {
                  "internalType": "uint256",
                  "name": "i",
                  "type": "uint256"
                },
                {
                  "internalType": "enum P",
                  "name": "p",
                  "type": "uint8"
                },
                {
                  "internalType": "enum S",
                  "name": "s",
                  "type": "uint8"
                },
                {
                  "internalType": "bool",
                  "name": "isSet",
                  "type": "bool"
                }
              ],
              "internalType": "struct IPS",
              "name": "cycleOfInterestPayment",
              "type": "tuple"
            },
            {
              "components": [
                {
                  "internalType": "uint256",
                  "name": "i",
                  "type": "uint256"
                },
                {
                  "internalType": "enum P",
                  "name": "p",
                  "type": "uint8"
                },
                {
                  "internalType": "enum S",
                  "name": "s",
                  "type": "uint8"
                },
                {
                  "internalType": "bool",
                  "name": "isSet",
                  "type": "bool"
                }
              ],
              "internalType": "struct IPS",
              "name": "cycleOfRateReset",
              "type": "tuple"
            },
            {
              "components": [
                {
                  "internalType": "uint256",
                  "name": "i",
                  "type": "uint256"
                },
                {
                  "internalType": "enum P",
                  "name": "p",
                  "type": "uint8"
                },
                {
                  "internalType": "enum S",
                  "name": "s",
                  "type": "uint8"
                },
                {
                  "internalType": "bool",
                  "name": "isSet",
                  "type": "bool"
                }
              ],
              "internalType": "struct IPS",
              "name": "cycleOfScalingIndex",
              "type": "tuple"
            },
            {
              "components": [
                {
                  "internalType": "uint256",
                  "name": "i",
                  "type": "uint256"
                },
                {
                  "internalType": "enum P",
                  "name": "p",
                  "type": "uint8"
                },
                {
                  "internalType": "enum S",
                  "name": "s",
                  "type": "uint8"
                },
                {
                  "internalType": "bool",
                  "name": "isSet",
                  "type": "bool"
                }
              ],
              "internalType": "struct IPS",
              "name": "cycleOfFee",
              "type": "tuple"
            },
            {
              "components": [
                {
                  "internalType": "uint256",
                  "name": "i",
                  "type": "uint256"
                },
                {
                  "internalType": "enum P",
                  "name": "p",
                  "type": "uint8"
                },
                {
                  "internalType": "enum S",
                  "name": "s",
                  "type": "uint8"
                },
                {
                  "internalType": "bool",
                  "name": "isSet",
                  "type": "bool"
                }
              ],
              "internalType": "struct IPS",
              "name": "cycleOfPrincipalRedemption",
              "type": "tuple"
            }
          ],
          "internalType": "struct ANNTerms",
          "name": "terms",
          "type": "tuple"
        },
        {
          "internalType": "bytes32",
          "name": "lastNonCyclicEvent",
          "type": "bytes32"
        }
      ],
      "name": "computeNextNonCyclicEvent",
      "outputs": [
        {
          "internalType": "bytes32",
          "name": "",
          "type": "bytes32"
        }
      ],
      "stateMutability": "pure",
      "type": "function"
    },
    {
      "inputs": [
        {
          "components": [
            {
              "internalType": "enum ContractType",
              "name": "contractType",
              "type": "uint8"
            },
            {
              "internalType": "enum Calendar",
              "name": "calendar",
              "type": "uint8"
            },
            {
              "internalType": "enum ContractRole",
              "name": "contractRole",
              "type": "uint8"
            },
            {
              "internalType": "enum DayCountConvention",
              "name": "dayCountConvention",
              "type": "uint8"
            },
            {
              "internalType": "enum BusinessDayConvention",
              "name": "businessDayConvention",
              "type": "uint8"
            },
            {
              "internalType": "enum EndOfMonthConvention",
              "name": "endOfMonthConvention",
              "type": "uint8"
            },
            {
              "internalType": "enum ScalingEffect",
              "name": "scalingEffect",
              "type": "uint8"
            },
            {
              "internalType": "enum PenaltyType",
              "name": "penaltyType",
              "type": "uint8"
            },
            {
              "internalType": "enum FeeBasis",
              "name": "feeBasis",
              "type": "uint8"
            },
            {
              "internalType": "address",
              "name": "currency",
              "type": "address"
            },
            {
              "internalType": "address",
              "name": "settlementCurrency",
              "type": "address"
            },
            {
              "internalType": "bytes32",
              "name": "marketObjectCodeRateReset",
              "type": "bytes32"
            },
            {
              "internalType": "uint256",
              "name": "contractDealDate",
              "type": "uint256"
            },
            {
              "internalType": "uint256",
              "name": "statusDate",
              "type": "uint256"
            },
            {
              "internalType": "uint256",
              "name": "initialExchangeDate",
              "type": "uint256"
            },
            {
              "internalType": "uint256",
              "name": "maturityDate",
              "type": "uint256"
            },
            {
              "internalType": "uint256",
              "name": "issueDate",
              "type": "uint256"
            },
            {
              "internalType": "uint256",
              "name": "purchaseDate",
              "type": "uint256"
            },
            {
              "internalType": "uint256",
              "name": "capitalizationEndDate",
              "type": "uint256"
            },
            {
              "internalType": "uint256",
              "name": "cycleAnchorDateOfInterestPayment",
              "type": "uint256"
            },
            {
              "internalType": "uint256",
              "name": "cycleAnchorDateOfRateReset",
              "type": "uint256"
            },
            {
              "internalType": "uint256",
              "name": "cycleAnchorDateOfScalingIndex",
              "type": "uint256"
            },
            {
              "internalType": "uint256",
              "name": "cycleAnchorDateOfFee",
              "type": "uint256"
            },
            {
              "internalType": "uint256",
              "name": "cycleAnchorDateOfPrincipalRedemption",
              "type": "uint256"
            },
            {
              "internalType": "int256",
              "name": "notionalPrincipal",
              "type": "int256"
            },
            {
              "internalType": "int256",
              "name": "nominalInterestRate",
              "type": "int256"
            },
            {
              "internalType": "int256",
              "name": "accruedInterest",
              "type": "int256"
            },
            {
              "internalType": "int256",
              "name": "rateMultiplier",
              "type": "int256"
            },
            {
              "internalType": "int256",
              "name": "rateSpread",
              "type": "int256"
            },
            {
              "internalType": "int256",
              "name": "nextResetRate",
              "type": "int256"
            },
            {
              "internalType": "int256",
              "name": "feeRate",
              "type": "int256"
            },
            {
              "internalType": "int256",
              "name": "feeAccrued",
              "type": "int256"
            },
            {
              "internalType": "int256",
              "name": "penaltyRate",
              "type": "int256"
            },
            {
              "internalType": "int256",
              "name": "delinquencyRate",
              "type": "int256"
            },
            {
              "internalType": "int256",
              "name": "premiumDiscountAtIED",
              "type": "int256"
            },
            {
              "internalType": "int256",
              "name": "priceAtPurchaseDate",
              "type": "int256"
            },
            {
              "internalType": "int256",
              "name": "priceAtTerminationDate",
              "type": "int256"
            },
            {
              "internalType": "int256",
              "name": "nextPrincipalRedemptionPayment",
              "type": "int256"
            },
            {
              "internalType": "int256",
              "name": "lifeCap",
              "type": "int256"
            },
            {
              "internalType": "int256",
              "name": "lifeFloor",
              "type": "int256"
            },
            {
              "internalType": "int256",
              "name": "periodCap",
              "type": "int256"
            },
            {
              "internalType": "int256",
              "name": "periodFloor",
              "type": "int256"
            },
            {
              "components": [
                {
                  "internalType": "uint256",
                  "name": "i",
                  "type": "uint256"
                },
                {
                  "internalType": "enum P",
                  "name": "p",
                  "type": "uint8"
                },
                {
                  "internalType": "bool",
                  "name": "isSet",
                  "type": "bool"
                }
              ],
              "internalType": "struct IP",
              "name": "gracePeriod",
              "type": "tuple"
            },
            {
              "components": [
                {
                  "internalType": "uint256",
                  "name": "i",
                  "type": "uint256"
                },
                {
                  "internalType": "enum P",
                  "name": "p",
                  "type": "uint8"
                },
                {
                  "internalType": "bool",
                  "name": "isSet",
                  "type": "bool"
                }
              ],
              "internalType": "struct IP",
              "name": "delinquencyPeriod",
              "type": "tuple"
            },
            {
              "components": [
                {
                  "internalType": "uint256",
                  "name": "i",
                  "type": "uint256"
                },
                {
                  "internalType": "enum P",
                  "name": "p",
                  "type": "uint8"
                },
                {
                  "internalType": "enum S",
                  "name": "s",
                  "type": "uint8"
                },
                {
                  "internalType": "bool",
                  "name": "isSet",
                  "type": "bool"
                }
              ],
              "internalType": "struct IPS",
              "name": "cycleOfInterestPayment",
              "type": "tuple"
            },
            {
              "components": [
                {
                  "internalType": "uint256",
                  "name": "i",
                  "type": "uint256"
                },
                {
                  "internalType": "enum P",
                  "name": "p",
                  "type": "uint8"
                },
                {
                  "internalType": "enum S",
                  "name": "s",
                  "type": "uint8"
                },
                {
                  "internalType": "bool",
                  "name": "isSet",
                  "type": "bool"
                }
              ],
              "internalType": "struct IPS",
              "name": "cycleOfRateReset",
              "type": "tuple"
            },
            {
              "components": [
                {
                  "internalType": "uint256",
                  "name": "i",
                  "type": "uint256"
                },
                {
                  "internalType": "enum P",
                  "name": "p",
                  "type": "uint8"
                },
                {
                  "internalType": "enum S",
                  "name": "s",
                  "type": "uint8"
                },
                {
                  "internalType": "bool",
                  "name": "isSet",
                  "type": "bool"
                }
              ],
              "internalType": "struct IPS",
              "name": "cycleOfScalingIndex",
              "type": "tuple"
            },
            {
              "components": [
                {
                  "internalType": "uint256",
                  "name": "i",
                  "type": "uint256"
                },
                {
                  "internalType": "enum P",
                  "name": "p",
                  "type": "uint8"
                },
                {
                  "internalType": "enum S",
                  "name": "s",
                  "type": "uint8"
                },
                {
                  "internalType": "bool",
                  "name": "isSet",
                  "type": "bool"
                }
              ],
              "internalType": "struct IPS",
              "name": "cycleOfFee",
              "type": "tuple"
            },
            {
              "components": [
                {
                  "internalType": "uint256",
                  "name": "i",
                  "type": "uint256"
                },
                {
                  "internalType": "enum P",
                  "name": "p",
                  "type": "uint8"
                },
                {
                  "internalType": "enum S",
                  "name": "s",
                  "type": "uint8"
                },
                {
                  "internalType": "bool",
                  "name": "isSet",
                  "type": "bool"
                }
              ],
              "internalType": "struct IPS",
              "name": "cycleOfPrincipalRedemption",
              "type": "tuple"
            }
          ],
          "internalType": "struct ANNTerms",
          "name": "terms",
          "type": "tuple"
        },
        {
          "internalType": "uint256",
          "name": "segmentStart",
          "type": "uint256"
        },
        {
          "internalType": "uint256",
          "name": "segmentEnd",
          "type": "uint256"
        }
      ],
      "name": "computeNonCyclicScheduleSegment",
      "outputs": [
        {
          "internalType": "bytes32[]",
          "name": "",
          "type": "bytes32[]"
        }
      ],
      "stateMutability": "pure",
      "type": "function"
    },
    {
      "inputs": [
        {
          "components": [
            {
              "internalType": "enum ContractType",
              "name": "contractType",
              "type": "uint8"
            },
            {
              "internalType": "enum Calendar",
              "name": "calendar",
              "type": "uint8"
            },
            {
              "internalType": "enum ContractRole",
              "name": "contractRole",
              "type": "uint8"
            },
            {
              "internalType": "enum DayCountConvention",
              "name": "dayCountConvention",
              "type": "uint8"
            },
            {
              "internalType": "enum BusinessDayConvention",
              "name": "businessDayConvention",
              "type": "uint8"
            },
            {
              "internalType": "enum EndOfMonthConvention",
              "name": "endOfMonthConvention",
              "type": "uint8"
            },
            {
              "internalType": "enum ScalingEffect",
              "name": "scalingEffect",
              "type": "uint8"
            },
            {
              "internalType": "enum PenaltyType",
              "name": "penaltyType",
              "type": "uint8"
            },
            {
              "internalType": "enum FeeBasis",
              "name": "feeBasis",
              "type": "uint8"
            },
            {
              "internalType": "address",
              "name": "currency",
              "type": "address"
            },
            {
              "internalType": "address",
              "name": "settlementCurrency",
              "type": "address"
            },
            {
              "internalType": "bytes32",
              "name": "marketObjectCodeRateReset",
              "type": "bytes32"
            },
            {
              "internalType": "uint256",
              "name": "contractDealDate",
              "type": "uint256"
            },
            {
              "internalType": "uint256",
              "name": "statusDate",
              "type": "uint256"
            },
            {
              "internalType": "uint256",
              "name": "initialExchangeDate",
              "type": "uint256"
            },
            {
              "internalType": "uint256",
              "name": "maturityDate",
              "type": "uint256"
            },
            {
              "internalType": "uint256",
              "name": "issueDate",
              "type": "uint256"
            },
            {
              "internalType": "uint256",
              "name": "purchaseDate",
              "type": "uint256"
            },
            {
              "internalType": "uint256",
              "name": "capitalizationEndDate",
              "type": "uint256"
            },
            {
              "internalType": "uint256",
              "name": "cycleAnchorDateOfInterestPayment",
              "type": "uint256"
            },
            {
              "internalType": "uint256",
              "name": "cycleAnchorDateOfRateReset",
              "type": "uint256"
            },
            {
              "internalType": "uint256",
              "name": "cycleAnchorDateOfScalingIndex",
              "type": "uint256"
            },
            {
              "internalType": "uint256",
              "name": "cycleAnchorDateOfFee",
              "type": "uint256"
            },
            {
              "internalType": "uint256",
              "name": "cycleAnchorDateOfPrincipalRedemption",
              "type": "uint256"
            },
            {
              "internalType": "int256",
              "name": "notionalPrincipal",
              "type": "int256"
            },
            {
              "internalType": "int256",
              "name": "nominalInterestRate",
              "type": "int256"
            },
            {
              "internalType": "int256",
              "name": "accruedInterest",
              "type": "int256"
            },
            {
              "internalType": "int256",
              "name": "rateMultiplier",
              "type": "int256"
            },
            {
              "internalType": "int256",
              "name": "rateSpread",
              "type": "int256"
            },
            {
              "internalType": "int256",
              "name": "nextResetRate",
              "type": "int256"
            },
            {
              "internalType": "int256",
              "name": "feeRate",
              "type": "int256"
            },
            {
              "internalType": "int256",
              "name": "feeAccrued",
              "type": "int256"
            },
            {
              "internalType": "int256",
              "name": "penaltyRate",
              "type": "int256"
            },
            {
              "internalType": "int256",
              "name": "delinquencyRate",
              "type": "int256"
            },
            {
              "internalType": "int256",
              "name": "premiumDiscountAtIED",
              "type": "int256"
            },
            {
              "internalType": "int256",
              "name": "priceAtPurchaseDate",
              "type": "int256"
            },
            {
              "internalType": "int256",
              "name": "priceAtTerminationDate",
              "type": "int256"
            },
            {
              "internalType": "int256",
              "name": "nextPrincipalRedemptionPayment",
              "type": "int256"
            },
            {
              "internalType": "int256",
              "name": "lifeCap",
              "type": "int256"
            },
            {
              "internalType": "int256",
              "name": "lifeFloor",
              "type": "int256"
            },
            {
              "internalType": "int256",
              "name": "periodCap",
              "type": "int256"
            },
            {
              "internalType": "int256",
              "name": "periodFloor",
              "type": "int256"
            },
            {
              "components": [
                {
                  "internalType": "uint256",
                  "name": "i",
                  "type": "uint256"
                },
                {
                  "internalType": "enum P",
                  "name": "p",
                  "type": "uint8"
                },
                {
                  "internalType": "bool",
                  "name": "isSet",
                  "type": "bool"
                }
              ],
              "internalType": "struct IP",
              "name": "gracePeriod",
              "type": "tuple"
            },
            {
              "components": [
                {
                  "internalType": "uint256",
                  "name": "i",
                  "type": "uint256"
                },
                {
                  "internalType": "enum P",
                  "name": "p",
                  "type": "uint8"
                },
                {
                  "internalType": "bool",
                  "name": "isSet",
                  "type": "bool"
                }
              ],
              "internalType": "struct IP",
              "name": "delinquencyPeriod",
              "type": "tuple"
            },
            {
              "components": [
                {
                  "internalType": "uint256",
                  "name": "i",
                  "type": "uint256"
                },
                {
                  "internalType": "enum P",
                  "name": "p",
                  "type": "uint8"
                },
                {
                  "internalType": "enum S",
                  "name": "s",
                  "type": "uint8"
                },
                {
                  "internalType": "bool",
                  "name": "isSet",
                  "type": "bool"
                }
              ],
              "internalType": "struct IPS",
              "name": "cycleOfInterestPayment",
              "type": "tuple"
            },
            {
              "components": [
                {
                  "internalType": "uint256",
                  "name": "i",
                  "type": "uint256"
                },
                {
                  "internalType": "enum P",
                  "name": "p",
                  "type": "uint8"
                },
                {
                  "internalType": "enum S",
                  "name": "s",
                  "type": "uint8"
                },
                {
                  "internalType": "bool",
                  "name": "isSet",
                  "type": "bool"
                }
              ],
              "internalType": "struct IPS",
              "name": "cycleOfRateReset",
              "type": "tuple"
            },
            {
              "components": [
                {
                  "internalType": "uint256",
                  "name": "i",
                  "type": "uint256"
                },
                {
                  "internalType": "enum P",
                  "name": "p",
                  "type": "uint8"
                },
                {
                  "internalType": "enum S",
                  "name": "s",
                  "type": "uint8"
                },
                {
                  "internalType": "bool",
                  "name": "isSet",
                  "type": "bool"
                }
              ],
              "internalType": "struct IPS",
              "name": "cycleOfScalingIndex",
              "type": "tuple"
            },
            {
              "components": [
                {
                  "internalType": "uint256",
                  "name": "i",
                  "type": "uint256"
                },
                {
                  "internalType": "enum P",
                  "name": "p",
                  "type": "uint8"
                },
                {
                  "internalType": "enum S",
                  "name": "s",
                  "type": "uint8"
                },
                {
                  "internalType": "bool",
                  "name": "isSet",
                  "type": "bool"
                }
              ],
              "internalType": "struct IPS",
              "name": "cycleOfFee",
              "type": "tuple"
            },
            {
              "components": [
                {
                  "internalType": "uint256",
                  "name": "i",
                  "type": "uint256"
                },
                {
                  "internalType": "enum P",
                  "name": "p",
                  "type": "uint8"
                },
                {
                  "internalType": "enum S",
                  "name": "s",
                  "type": "uint8"
                },
                {
                  "internalType": "bool",
                  "name": "isSet",
                  "type": "bool"
                }
              ],
              "internalType": "struct IPS",
              "name": "cycleOfPrincipalRedemption",
              "type": "tuple"
            }
          ],
          "internalType": "struct ANNTerms",
          "name": "terms",
          "type": "tuple"
        },
        {
          "components": [
            {
              "internalType": "enum ContractPerformance",
              "name": "contractPerformance",
              "type": "uint8"
            },
            {
              "internalType": "uint256",
              "name": "statusDate",
              "type": "uint256"
            },
            {
              "internalType": "uint256",
              "name": "nonPerformingDate",
              "type": "uint256"
            },
            {
              "internalType": "uint256",
              "name": "maturityDate",
              "type": "uint256"
            },
            {
              "internalType": "uint256",
              "name": "exerciseDate",
              "type": "uint256"
            },
            {
              "internalType": "uint256",
              "name": "terminationDate",
              "type": "uint256"
            },
            {
              "internalType": "uint256",
              "name": "lastCouponFixingDate",
              "type": "uint256"
            },
            {
              "internalType": "uint256",
              "name": "lastDividendFixingDate",
              "type": "uint256"
            },
            {
              "internalType": "int256",
              "name": "notionalPrincipal",
              "type": "int256"
            },
            {
              "internalType": "int256",
              "name": "accruedInterest",
              "type": "int256"
            },
            {
              "internalType": "int256",
              "name": "feeAccrued",
              "type": "int256"
            },
            {
              "internalType": "int256",
              "name": "nominalInterestRate",
              "type": "int256"
            },
            {
              "internalType": "int256",
              "name": "interestScalingMultiplier",
              "type": "int256"
            },
            {
              "internalType": "int256",
              "name": "notionalScalingMultiplier",
              "type": "int256"
            },
            {
              "internalType": "int256",
              "name": "nextPrincipalRedemptionPayment",
              "type": "int256"
            },
            {
              "internalType": "int256",
              "name": "exerciseAmount",
              "type": "int256"
            },
            {
              "internalType": "int256",
              "name": "exerciseQuantity",
              "type": "int256"
            },
            {
              "internalType": "int256",
              "name": "quantity",
              "type": "int256"
            },
            {
              "internalType": "int256",
              "name": "couponAmountFixed",
              "type": "int256"
            },
            {
              "internalType": "int256",
              "name": "marginFactor",
              "type": "int256"
            },
            {
              "internalType": "int256",
              "name": "adjustmentFactor",
              "type": "int256"
            },
            {
              "internalType": "int256",
              "name": "dividendPaymentAmount",
              "type": "int256"
            },
            {
              "internalType": "int256",
              "name": "splitRatio",
              "type": "int256"
            }
          ],
          "internalType": "struct State",
          "name": "state",
          "type": "tuple"
        },
        {
          "internalType": "bytes32",
          "name": "_event",
          "type": "bytes32"
        },
        {
          "internalType": "bytes32",
          "name": "externalData",
          "type": "bytes32"
        }
      ],
      "name": "computePayoffForEvent",
      "outputs": [
        {
          "internalType": "int256",
          "name": "",
          "type": "int256"
        }
      ],
      "stateMutability": "pure",
      "type": "function"
    },
    {
      "inputs": [
        {
          "components": [
            {
              "internalType": "enum ContractType",
              "name": "contractType",
              "type": "uint8"
            },
            {
              "internalType": "enum Calendar",
              "name": "calendar",
              "type": "uint8"
            },
            {
              "internalType": "enum ContractRole",
              "name": "contractRole",
              "type": "uint8"
            },
            {
              "internalType": "enum DayCountConvention",
              "name": "dayCountConvention",
              "type": "uint8"
            },
            {
              "internalType": "enum BusinessDayConvention",
              "name": "businessDayConvention",
              "type": "uint8"
            },
            {
              "internalType": "enum EndOfMonthConvention",
              "name": "endOfMonthConvention",
              "type": "uint8"
            },
            {
              "internalType": "enum ScalingEffect",
              "name": "scalingEffect",
              "type": "uint8"
            },
            {
              "internalType": "enum PenaltyType",
              "name": "penaltyType",
              "type": "uint8"
            },
            {
              "internalType": "enum FeeBasis",
              "name": "feeBasis",
              "type": "uint8"
            },
            {
              "internalType": "address",
              "name": "currency",
              "type": "address"
            },
            {
              "internalType": "address",
              "name": "settlementCurrency",
              "type": "address"
            },
            {
              "internalType": "bytes32",
              "name": "marketObjectCodeRateReset",
              "type": "bytes32"
            },
            {
              "internalType": "uint256",
              "name": "contractDealDate",
              "type": "uint256"
            },
            {
              "internalType": "uint256",
              "name": "statusDate",
              "type": "uint256"
            },
            {
              "internalType": "uint256",
              "name": "initialExchangeDate",
              "type": "uint256"
            },
            {
              "internalType": "uint256",
              "name": "maturityDate",
              "type": "uint256"
            },
            {
              "internalType": "uint256",
              "name": "issueDate",
              "type": "uint256"
            },
            {
              "internalType": "uint256",
              "name": "purchaseDate",
              "type": "uint256"
            },
            {
              "internalType": "uint256",
              "name": "capitalizationEndDate",
              "type": "uint256"
            },
            {
              "internalType": "uint256",
              "name": "cycleAnchorDateOfInterestPayment",
              "type": "uint256"
            },
            {
              "internalType": "uint256",
              "name": "cycleAnchorDateOfRateReset",
              "type": "uint256"
            },
            {
              "internalType": "uint256",
              "name": "cycleAnchorDateOfScalingIndex",
              "type": "uint256"
            },
            {
              "internalType": "uint256",
              "name": "cycleAnchorDateOfFee",
              "type": "uint256"
            },
            {
              "internalType": "uint256",
              "name": "cycleAnchorDateOfPrincipalRedemption",
              "type": "uint256"
            },
            {
              "internalType": "int256",
              "name": "notionalPrincipal",
              "type": "int256"
            },
            {
              "internalType": "int256",
              "name": "nominalInterestRate",
              "type": "int256"
            },
            {
              "internalType": "int256",
              "name": "accruedInterest",
              "type": "int256"
            },
            {
              "internalType": "int256",
              "name": "rateMultiplier",
              "type": "int256"
            },
            {
              "internalType": "int256",
              "name": "rateSpread",
              "type": "int256"
            },
            {
              "internalType": "int256",
              "name": "nextResetRate",
              "type": "int256"
            },
            {
              "internalType": "int256",
              "name": "feeRate",
              "type": "int256"
            },
            {
              "internalType": "int256",
              "name": "feeAccrued",
              "type": "int256"
            },
            {
              "internalType": "int256",
              "name": "penaltyRate",
              "type": "int256"
            },
            {
              "internalType": "int256",
              "name": "delinquencyRate",
              "type": "int256"
            },
            {
              "internalType": "int256",
              "name": "premiumDiscountAtIED",
              "type": "int256"
            },
            {
              "internalType": "int256",
              "name": "priceAtPurchaseDate",
              "type": "int256"
            },
            {
              "internalType": "int256",
              "name": "priceAtTerminationDate",
              "type": "int256"
            },
            {
              "internalType": "int256",
              "name": "nextPrincipalRedemptionPayment",
              "type": "int256"
            },
            {
              "internalType": "int256",
              "name": "lifeCap",
              "type": "int256"
            },
            {
              "internalType": "int256",
              "name": "lifeFloor",
              "type": "int256"
            },
            {
              "internalType": "int256",
              "name": "periodCap",
              "type": "int256"
            },
            {
              "internalType": "int256",
              "name": "periodFloor",
              "type": "int256"
            },
            {
              "components": [
                {
                  "internalType": "uint256",
                  "name": "i",
                  "type": "uint256"
                },
                {
                  "internalType": "enum P",
                  "name": "p",
                  "type": "uint8"
                },
                {
                  "internalType": "bool",
                  "name": "isSet",
                  "type": "bool"
                }
              ],
              "internalType": "struct IP",
              "name": "gracePeriod",
              "type": "tuple"
            },
            {
              "components": [
                {
                  "internalType": "uint256",
                  "name": "i",
                  "type": "uint256"
                },
                {
                  "internalType": "enum P",
                  "name": "p",
                  "type": "uint8"
                },
                {
                  "internalType": "bool",
                  "name": "isSet",
                  "type": "bool"
                }
              ],
              "internalType": "struct IP",
              "name": "delinquencyPeriod",
              "type": "tuple"
            },
            {
              "components": [
                {
                  "internalType": "uint256",
                  "name": "i",
                  "type": "uint256"
                },
                {
                  "internalType": "enum P",
                  "name": "p",
                  "type": "uint8"
                },
                {
                  "internalType": "enum S",
                  "name": "s",
                  "type": "uint8"
                },
                {
                  "internalType": "bool",
                  "name": "isSet",
                  "type": "bool"
                }
              ],
              "internalType": "struct IPS",
              "name": "cycleOfInterestPayment",
              "type": "tuple"
            },
            {
              "components": [
                {
                  "internalType": "uint256",
                  "name": "i",
                  "type": "uint256"
                },
                {
                  "internalType": "enum P",
                  "name": "p",
                  "type": "uint8"
                },
                {
                  "internalType": "enum S",
                  "name": "s",
                  "type": "uint8"
                },
                {
                  "internalType": "bool",
                  "name": "isSet",
                  "type": "bool"
                }
              ],
              "internalType": "struct IPS",
              "name": "cycleOfRateReset",
              "type": "tuple"
            },
            {
              "components": [
                {
                  "internalType": "uint256",
                  "name": "i",
                  "type": "uint256"
                },
                {
                  "internalType": "enum P",
                  "name": "p",
                  "type": "uint8"
                },
                {
                  "internalType": "enum S",
                  "name": "s",
                  "type": "uint8"
                },
                {
                  "internalType": "bool",
                  "name": "isSet",
                  "type": "bool"
                }
              ],
              "internalType": "struct IPS",
              "name": "cycleOfScalingIndex",
              "type": "tuple"
            },
            {
              "components": [
                {
                  "internalType": "uint256",
                  "name": "i",
                  "type": "uint256"
                },
                {
                  "internalType": "enum P",
                  "name": "p",
                  "type": "uint8"
                },
                {
                  "internalType": "enum S",
                  "name": "s",
                  "type": "uint8"
                },
                {
                  "internalType": "bool",
                  "name": "isSet",
                  "type": "bool"
                }
              ],
              "internalType": "struct IPS",
              "name": "cycleOfFee",
              "type": "tuple"
            },
            {
              "components": [
                {
                  "internalType": "uint256",
                  "name": "i",
                  "type": "uint256"
                },
                {
                  "internalType": "enum P",
                  "name": "p",
                  "type": "uint8"
                },
                {
                  "internalType": "enum S",
                  "name": "s",
                  "type": "uint8"
                },
                {
                  "internalType": "bool",
                  "name": "isSet",
                  "type": "bool"
                }
              ],
              "internalType": "struct IPS",
              "name": "cycleOfPrincipalRedemption",
              "type": "tuple"
            }
          ],
          "internalType": "struct ANNTerms",
          "name": "terms",
          "type": "tuple"
        },
        {
          "components": [
            {
              "internalType": "enum ContractPerformance",
              "name": "contractPerformance",
              "type": "uint8"
            },
            {
              "internalType": "uint256",
              "name": "statusDate",
              "type": "uint256"
            },
            {
              "internalType": "uint256",
              "name": "nonPerformingDate",
              "type": "uint256"
            },
            {
              "internalType": "uint256",
              "name": "maturityDate",
              "type": "uint256"
            },
            {
              "internalType": "uint256",
              "name": "exerciseDate",
              "type": "uint256"
            },
            {
              "internalType": "uint256",
              "name": "terminationDate",
              "type": "uint256"
            },
            {
              "internalType": "uint256",
              "name": "lastCouponFixingDate",
              "type": "uint256"
            },
            {
              "internalType": "uint256",
              "name": "lastDividendFixingDate",
              "type": "uint256"
            },
            {
              "internalType": "int256",
              "name": "notionalPrincipal",
              "type": "int256"
            },
            {
              "internalType": "int256",
              "name": "accruedInterest",
              "type": "int256"
            },
            {
              "internalType": "int256",
              "name": "feeAccrued",
              "type": "int256"
            },
            {
              "internalType": "int256",
              "name": "nominalInterestRate",
              "type": "int256"
            },
            {
              "internalType": "int256",
              "name": "interestScalingMultiplier",
              "type": "int256"
            },
            {
              "internalType": "int256",
              "name": "notionalScalingMultiplier",
              "type": "int256"
            },
            {
              "internalType": "int256",
              "name": "nextPrincipalRedemptionPayment",
              "type": "int256"
            },
            {
              "internalType": "int256",
              "name": "exerciseAmount",
              "type": "int256"
            },
            {
              "internalType": "int256",
              "name": "exerciseQuantity",
              "type": "int256"
            },
            {
              "internalType": "int256",
              "name": "quantity",
              "type": "int256"
            },
            {
              "internalType": "int256",
              "name": "couponAmountFixed",
              "type": "int256"
            },
            {
              "internalType": "int256",
              "name": "marginFactor",
              "type": "int256"
            },
            {
              "internalType": "int256",
              "name": "adjustmentFactor",
              "type": "int256"
            },
            {
              "internalType": "int256",
              "name": "dividendPaymentAmount",
              "type": "int256"
            },
            {
              "internalType": "int256",
              "name": "splitRatio",
              "type": "int256"
            }
          ],
          "internalType": "struct State",
          "name": "state",
          "type": "tuple"
        },
        {
          "internalType": "bytes32",
          "name": "_event",
          "type": "bytes32"
        },
        {
          "internalType": "bytes32",
          "name": "externalData",
          "type": "bytes32"
        }
      ],
      "name": "computeStateForEvent",
      "outputs": [
        {
          "components": [
            {
              "internalType": "enum ContractPerformance",
              "name": "contractPerformance",
              "type": "uint8"
            },
            {
              "internalType": "uint256",
              "name": "statusDate",
              "type": "uint256"
            },
            {
              "internalType": "uint256",
              "name": "nonPerformingDate",
              "type": "uint256"
            },
            {
              "internalType": "uint256",
              "name": "maturityDate",
              "type": "uint256"
            },
            {
              "internalType": "uint256",
              "name": "exerciseDate",
              "type": "uint256"
            },
            {
              "internalType": "uint256",
              "name": "terminationDate",
              "type": "uint256"
            },
            {
              "internalType": "uint256",
              "name": "lastCouponFixingDate",
              "type": "uint256"
            },
            {
              "internalType": "uint256",
              "name": "lastDividendFixingDate",
              "type": "uint256"
            },
            {
              "internalType": "int256",
              "name": "notionalPrincipal",
              "type": "int256"
            },
            {
              "internalType": "int256",
              "name": "accruedInterest",
              "type": "int256"
            },
            {
              "internalType": "int256",
              "name": "feeAccrued",
              "type": "int256"
            },
            {
              "internalType": "int256",
              "name": "nominalInterestRate",
              "type": "int256"
            },
            {
              "internalType": "int256",
              "name": "interestScalingMultiplier",
              "type": "int256"
            },
            {
              "internalType": "int256",
              "name": "notionalScalingMultiplier",
              "type": "int256"
            },
            {
              "internalType": "int256",
              "name": "nextPrincipalRedemptionPayment",
              "type": "int256"
            },
            {
              "internalType": "int256",
              "name": "exerciseAmount",
              "type": "int256"
            },
            {
              "internalType": "int256",
              "name": "exerciseQuantity",
              "type": "int256"
            },
            {
              "internalType": "int256",
              "name": "quantity",
              "type": "int256"
            },
            {
              "internalType": "int256",
              "name": "couponAmountFixed",
              "type": "int256"
            },
            {
              "internalType": "int256",
              "name": "marginFactor",
              "type": "int256"
            },
            {
              "internalType": "int256",
              "name": "adjustmentFactor",
              "type": "int256"
            },
            {
              "internalType": "int256",
              "name": "dividendPaymentAmount",
              "type": "int256"
            },
            {
              "internalType": "int256",
              "name": "splitRatio",
              "type": "int256"
            }
          ],
          "internalType": "struct State",
          "name": "",
          "type": "tuple"
        }
      ],
      "stateMutability": "pure",
      "type": "function"
    },
    {
      "inputs": [],
      "name": "contractType",
      "outputs": [
        {
          "internalType": "enum ContractType",
          "name": "",
          "type": "uint8"
        }
      ],
      "stateMutability": "pure",
      "type": "function"
    },
    {
      "inputs": [
        {
          "internalType": "bytes32",
          "name": "_event",
          "type": "bytes32"
        }
      ],
      "name": "decodeEvent",
      "outputs": [
        {
          "internalType": "enum EventType",
          "name": "",
          "type": "uint8"
        },
        {
          "internalType": "uint256",
          "name": "",
          "type": "uint256"
        }
      ],
      "stateMutability": "pure",
      "type": "function"
    },
    {
      "inputs": [
        {
          "internalType": "enum EventType",
          "name": "eventType",
          "type": "uint8"
        },
        {
          "internalType": "uint256",
          "name": "scheduleTime",
          "type": "uint256"
        }
      ],
      "name": "encodeEvent",
      "outputs": [
        {
          "internalType": "bytes32",
          "name": "",
          "type": "bytes32"
        }
      ],
      "stateMutability": "pure",
      "type": "function"
    },
    {
      "inputs": [
        {
          "internalType": "enum EventType",
          "name": "eventType",
          "type": "uint8"
        }
      ],
      "name": "getEpochOffset",
      "outputs": [
        {
          "internalType": "uint256",
          "name": "",
          "type": "uint256"
        }
      ],
      "stateMutability": "pure",
      "type": "function"
    },
    {
      "inputs": [
        {
          "internalType": "bytes32",
          "name": "",
          "type": "bytes32"
        },
        {
          "components": [
            {
              "internalType": "enum ContractType",
              "name": "contractType",
              "type": "uint8"
            },
            {
              "internalType": "enum Calendar",
              "name": "calendar",
              "type": "uint8"
            },
            {
              "internalType": "enum ContractRole",
              "name": "contractRole",
              "type": "uint8"
            },
            {
              "internalType": "enum DayCountConvention",
              "name": "dayCountConvention",
              "type": "uint8"
            },
            {
              "internalType": "enum BusinessDayConvention",
              "name": "businessDayConvention",
              "type": "uint8"
            },
            {
              "internalType": "enum EndOfMonthConvention",
              "name": "endOfMonthConvention",
              "type": "uint8"
            },
            {
              "internalType": "enum ScalingEffect",
              "name": "scalingEffect",
              "type": "uint8"
            },
            {
              "internalType": "enum PenaltyType",
              "name": "penaltyType",
              "type": "uint8"
            },
            {
              "internalType": "enum FeeBasis",
              "name": "feeBasis",
              "type": "uint8"
            },
            {
              "internalType": "address",
              "name": "currency",
              "type": "address"
            },
            {
              "internalType": "address",
              "name": "settlementCurrency",
              "type": "address"
            },
            {
              "internalType": "bytes32",
              "name": "marketObjectCodeRateReset",
              "type": "bytes32"
            },
            {
              "internalType": "uint256",
              "name": "contractDealDate",
              "type": "uint256"
            },
            {
              "internalType": "uint256",
              "name": "statusDate",
              "type": "uint256"
            },
            {
              "internalType": "uint256",
              "name": "initialExchangeDate",
              "type": "uint256"
            },
            {
              "internalType": "uint256",
              "name": "maturityDate",
              "type": "uint256"
            },
            {
              "internalType": "uint256",
              "name": "issueDate",
              "type": "uint256"
            },
            {
              "internalType": "uint256",
              "name": "purchaseDate",
              "type": "uint256"
            },
            {
              "internalType": "uint256",
              "name": "capitalizationEndDate",
              "type": "uint256"
            },
            {
              "internalType": "uint256",
              "name": "cycleAnchorDateOfInterestPayment",
              "type": "uint256"
            },
            {
              "internalType": "uint256",
              "name": "cycleAnchorDateOfRateReset",
              "type": "uint256"
            },
            {
              "internalType": "uint256",
              "name": "cycleAnchorDateOfScalingIndex",
              "type": "uint256"
            },
            {
              "internalType": "uint256",
              "name": "cycleAnchorDateOfFee",
              "type": "uint256"
            },
            {
              "internalType": "uint256",
              "name": "cycleAnchorDateOfPrincipalRedemption",
              "type": "uint256"
            },
            {
              "internalType": "int256",
              "name": "notionalPrincipal",
              "type": "int256"
            },
            {
              "internalType": "int256",
              "name": "nominalInterestRate",
              "type": "int256"
            },
            {
              "internalType": "int256",
              "name": "accruedInterest",
              "type": "int256"
            },
            {
              "internalType": "int256",
              "name": "rateMultiplier",
              "type": "int256"
            },
            {
              "internalType": "int256",
              "name": "rateSpread",
              "type": "int256"
            },
            {
              "internalType": "int256",
              "name": "nextResetRate",
              "type": "int256"
            },
            {
              "internalType": "int256",
              "name": "feeRate",
              "type": "int256"
            },
            {
              "internalType": "int256",
              "name": "feeAccrued",
              "type": "int256"
            },
            {
              "internalType": "int256",
              "name": "penaltyRate",
              "type": "int256"
            },
            {
              "internalType": "int256",
              "name": "delinquencyRate",
              "type": "int256"
            },
            {
              "internalType": "int256",
              "name": "premiumDiscountAtIED",
              "type": "int256"
            },
            {
              "internalType": "int256",
              "name": "priceAtPurchaseDate",
              "type": "int256"
            },
            {
              "internalType": "int256",
              "name": "priceAtTerminationDate",
              "type": "int256"
            },
            {
              "internalType": "int256",
              "name": "nextPrincipalRedemptionPayment",
              "type": "int256"
            },
            {
              "internalType": "int256",
              "name": "lifeCap",
              "type": "int256"
            },
            {
              "internalType": "int256",
              "name": "lifeFloor",
              "type": "int256"
            },
            {
              "internalType": "int256",
              "name": "periodCap",
              "type": "int256"
            },
            {
              "internalType": "int256",
              "name": "periodFloor",
              "type": "int256"
            },
            {
              "components": [
                {
                  "internalType": "uint256",
                  "name": "i",
                  "type": "uint256"
                },
                {
                  "internalType": "enum P",
                  "name": "p",
                  "type": "uint8"
                },
                {
                  "internalType": "bool",
                  "name": "isSet",
                  "type": "bool"
                }
              ],
              "internalType": "struct IP",
              "name": "gracePeriod",
              "type": "tuple"
            },
            {
              "components": [
                {
                  "internalType": "uint256",
                  "name": "i",
                  "type": "uint256"
                },
                {
                  "internalType": "enum P",
                  "name": "p",
                  "type": "uint8"
                },
                {
                  "internalType": "bool",
                  "name": "isSet",
                  "type": "bool"
                }
              ],
              "internalType": "struct IP",
              "name": "delinquencyPeriod",
              "type": "tuple"
            },
            {
              "components": [
                {
                  "internalType": "uint256",
                  "name": "i",
                  "type": "uint256"
                },
                {
                  "internalType": "enum P",
                  "name": "p",
                  "type": "uint8"
                },
                {
                  "internalType": "enum S",
                  "name": "s",
                  "type": "uint8"
                },
                {
                  "internalType": "bool",
                  "name": "isSet",
                  "type": "bool"
                }
              ],
              "internalType": "struct IPS",
              "name": "cycleOfInterestPayment",
              "type": "tuple"
            },
            {
              "components": [
                {
                  "internalType": "uint256",
                  "name": "i",
                  "type": "uint256"
                },
                {
                  "internalType": "enum P",
                  "name": "p",
                  "type": "uint8"
                },
                {
                  "internalType": "enum S",
                  "name": "s",
                  "type": "uint8"
                },
                {
                  "internalType": "bool",
                  "name": "isSet",
                  "type": "bool"
                }
              ],
              "internalType": "struct IPS",
              "name": "cycleOfRateReset",
              "type": "tuple"
            },
            {
              "components": [
                {
                  "internalType": "uint256",
                  "name": "i",
                  "type": "uint256"
                },
                {
                  "internalType": "enum P",
                  "name": "p",
                  "type": "uint8"
                },
                {
                  "internalType": "enum S",
                  "name": "s",
                  "type": "uint8"
                },
                {
                  "internalType": "bool",
                  "name": "isSet",
                  "type": "bool"
                }
              ],
              "internalType": "struct IPS",
              "name": "cycleOfScalingIndex",
              "type": "tuple"
            },
            {
              "components": [
                {
                  "internalType": "uint256",
                  "name": "i",
                  "type": "uint256"
                },
                {
                  "internalType": "enum P",
                  "name": "p",
                  "type": "uint8"
                },
                {
                  "internalType": "enum S",
                  "name": "s",
                  "type": "uint8"
                },
                {
                  "internalType": "bool",
                  "name": "isSet",
                  "type": "bool"
                }
              ],
              "internalType": "struct IPS",
              "name": "cycleOfFee",
              "type": "tuple"
            },
            {
              "components": [
                {
                  "internalType": "uint256",
                  "name": "i",
                  "type": "uint256"
                },
                {
                  "internalType": "enum P",
                  "name": "p",
                  "type": "uint8"
                },
                {
                  "internalType": "enum S",
                  "name": "s",
                  "type": "uint8"
                },
                {
                  "internalType": "bool",
                  "name": "isSet",
                  "type": "bool"
                }
              ],
              "internalType": "struct IPS",
              "name": "cycleOfPrincipalRedemption",
              "type": "tuple"
            }
          ],
          "internalType": "struct ANNTerms",
          "name": "",
          "type": "tuple"
        },
        {
          "components": [
            {
              "internalType": "enum ContractPerformance",
              "name": "contractPerformance",
              "type": "uint8"
            },
            {
              "internalType": "uint256",
              "name": "statusDate",
              "type": "uint256"
            },
            {
              "internalType": "uint256",
              "name": "nonPerformingDate",
              "type": "uint256"
            },
            {
              "internalType": "uint256",
              "name": "maturityDate",
              "type": "uint256"
            },
            {
              "internalType": "uint256",
              "name": "exerciseDate",
              "type": "uint256"
            },
            {
              "internalType": "uint256",
              "name": "terminationDate",
              "type": "uint256"
            },
            {
              "internalType": "uint256",
              "name": "lastCouponFixingDate",
              "type": "uint256"
            },
            {
              "internalType": "uint256",
              "name": "lastDividendFixingDate",
              "type": "uint256"
            },
            {
              "internalType": "int256",
              "name": "notionalPrincipal",
              "type": "int256"
            },
            {
              "internalType": "int256",
              "name": "accruedInterest",
              "type": "int256"
            },
            {
              "internalType": "int256",
              "name": "feeAccrued",
              "type": "int256"
            },
            {
              "internalType": "int256",
              "name": "nominalInterestRate",
              "type": "int256"
            },
            {
              "internalType": "int256",
              "name": "interestScalingMultiplier",
              "type": "int256"
            },
            {
              "internalType": "int256",
              "name": "notionalScalingMultiplier",
              "type": "int256"
            },
            {
              "internalType": "int256",
              "name": "nextPrincipalRedemptionPayment",
              "type": "int256"
            },
            {
              "internalType": "int256",
              "name": "exerciseAmount",
              "type": "int256"
            },
            {
              "internalType": "int256",
              "name": "exerciseQuantity",
              "type": "int256"
            },
            {
              "internalType": "int256",
              "name": "quantity",
              "type": "int256"
            },
            {
              "internalType": "int256",
              "name": "couponAmountFixed",
              "type": "int256"
            },
            {
              "internalType": "int256",
              "name": "marginFactor",
              "type": "int256"
            },
            {
              "internalType": "int256",
              "name": "adjustmentFactor",
              "type": "int256"
            },
            {
              "internalType": "int256",
              "name": "dividendPaymentAmount",
              "type": "int256"
            },
            {
              "internalType": "int256",
              "name": "splitRatio",
              "type": "int256"
            }
          ],
          "internalType": "struct State",
          "name": "state",
          "type": "tuple"
        },
        {
          "internalType": "bool",
          "name": "",
          "type": "bool"
        },
        {
          "components": [
            {
              "internalType": "enum ContractPerformance",
              "name": "contractPerformance",
              "type": "uint8"
            },
            {
              "internalType": "uint256",
              "name": "statusDate",
              "type": "uint256"
            },
            {
              "internalType": "uint256",
              "name": "nonPerformingDate",
              "type": "uint256"
            },
            {
              "internalType": "uint256",
              "name": "maturityDate",
              "type": "uint256"
            },
            {
              "internalType": "uint256",
              "name": "exerciseDate",
              "type": "uint256"
            },
            {
              "internalType": "uint256",
              "name": "terminationDate",
              "type": "uint256"
            },
            {
              "internalType": "uint256",
              "name": "lastCouponFixingDate",
              "type": "uint256"
            },
            {
              "internalType": "uint256",
              "name": "lastDividendFixingDate",
              "type": "uint256"
            },
            {
              "internalType": "int256",
              "name": "notionalPrincipal",
              "type": "int256"
            },
            {
              "internalType": "int256",
              "name": "accruedInterest",
              "type": "int256"
            },
            {
              "internalType": "int256",
              "name": "feeAccrued",
              "type": "int256"
            },
            {
              "internalType": "int256",
              "name": "nominalInterestRate",
              "type": "int256"
            },
            {
              "internalType": "int256",
              "name": "interestScalingMultiplier",
              "type": "int256"
            },
            {
              "internalType": "int256",
              "name": "notionalScalingMultiplier",
              "type": "int256"
            },
            {
              "internalType": "int256",
              "name": "nextPrincipalRedemptionPayment",
              "type": "int256"
            },
            {
              "internalType": "int256",
              "name": "exerciseAmount",
              "type": "int256"
            },
            {
              "internalType": "int256",
              "name": "exerciseQuantity",
              "type": "int256"
            },
            {
              "internalType": "int256",
              "name": "quantity",
              "type": "int256"
            },
            {
              "internalType": "int256",
              "name": "couponAmountFixed",
              "type": "int256"
            },
            {
              "internalType": "int256",
              "name": "marginFactor",
              "type": "int256"
            },
            {
              "internalType": "int256",
              "name": "adjustmentFactor",
              "type": "int256"
            },
            {
              "internalType": "int256",
              "name": "dividendPaymentAmount",
              "type": "int256"
            },
            {
              "internalType": "int256",
              "name": "splitRatio",
              "type": "int256"
            }
          ],
          "internalType": "struct State",
          "name": "",
          "type": "tuple"
        }
      ],
      "name": "isEventScheduled",
      "outputs": [
        {
          "internalType": "bool",
          "name": "",
          "type": "bool"
        }
      ],
      "stateMutability": "pure",
      "type": "function"
    },
    {
      "inputs": [
        {
          "internalType": "uint256",
          "name": "timestamp",
          "type": "uint256"
        },
        {
          "internalType": "enum BusinessDayConvention",
          "name": "convention",
          "type": "uint8"
        },
        {
          "internalType": "enum Calendar",
          "name": "calendar",
          "type": "uint8"
        },
        {
          "internalType": "uint256",
          "name": "maturityDate",
          "type": "uint256"
        }
      ],
      "name": "shiftCalcTime",
      "outputs": [
        {
          "internalType": "uint256",
          "name": "",
          "type": "uint256"
        }
      ],
      "stateMutability": "pure",
      "type": "function"
    },
    {
      "inputs": [
        {
          "internalType": "uint256",
          "name": "timestamp",
          "type": "uint256"
        },
        {
          "internalType": "enum BusinessDayConvention",
          "name": "convention",
          "type": "uint8"
        },
        {
          "internalType": "enum Calendar",
          "name": "calendar",
          "type": "uint8"
        },
        {
          "internalType": "uint256",
          "name": "maturityDate",
          "type": "uint256"
        }
      ],
      "name": "shiftEventTime",
      "outputs": [
        {
          "internalType": "uint256",
          "name": "",
          "type": "uint256"
        }
      ],
      "stateMutability": "pure",
      "type": "function"
    }
  ],
  "transactionHash": "0x60c7c828d6ad61d79805b60237782c8087be519d1692b0c42b81fc4a1ad6adaa",
  "args": [],
  "solcInputHash": "4266203da96c969225f5ac231428b6f3",
  "bytecode": "0x608060405234801561001057600080fd5b506147e9806100206000396000f3fe608060405234801561001057600080fd5b506004361061012c5760003560e01c8063cb2ef6f7116100ad578063e9af08e611610071578063e9af08e61461027a578063edc0465f146101f1578063f54914a01461029a578063f5586e05146102ad578063f7660d07146102c05761012c565b8063cb2ef6f714610219578063d79ed6151461022e578063e05a66e014610241578063e2a9e66b14610254578063e726d680146102675761012c565b8063811322fb116100f4578063811322fb146101c35780638f79db1b146101d6578063aaf5eb68146101e9578063c40c5a98146101f1578063c9d953ac146101f95761012c565b8063179331f3146101315780631a2e165d1461015a5780633891585b1461017a5780636f37e55b1461019a57806372540003146101a2575b600080fd5b61014461013f366004613ba4565b6102d3565b6040516101519190614208565b60405180910390f35b61016d610168366004613aa9565b6103a3565b60405161015191906141eb565b61018d610188366004613c89565b6103ca565b6040516101519190614435565b61016d610403565b6101b56101b0366004613a91565b61040f565b604051610151929190614216565b61016d6101d1366004613be2565b610438565b61016d6101e4366004613c5d565b61044e565b61016d6105b7565b61016d6105bc565b61020c610207366004613d06565b6105c1565b604051610151919061419c565b61022161072b565b60405161015191906141f4565b61016d61023c366004613c89565b610730565b61016d61024f366004613bfc565b6107f6565b61016d610262366004613cd0565b610814565b61016d610275366004614179565b610b60565b61028d610288366004613aee565b610cac565b60405161015191906141e0565b61020c6102a8366004613d3c565b610d26565b61016d6102bb366004614179565b611369565b61018d6102ce366004613c41565b6113d4565b600060018460018111156102e357fe5b141561035f576102f2836114a7565b6102fb846114c9565b14801561034a575060028260200151600581111561031557fe5b1480610330575060038260200151600581111561032e57fe5b145b8061034a575060048260200151600581111561034857fe5b145b156103575750600161039c565b50600061039c565b600084600181111561036d57fe5b141561037b5750600061039c565b60405162461bcd60e51b815260040161039390614374565b60405180910390fd5b9392505050565b6000806103af8661040f565b9150506103be81868686610b60565b9150505b949350505050565b6103d26137f9565b6103fa6103e436879003870187613d86565b6103f33687900387018761405c565b85856114d8565b95945050505050565b670de0b6b3a764000081565b6000808060f884901c602181111561042357fe5b92505067ffffffffffffffff83169050915091565b600081602181111561044657fe5b90505b919050565b600080600061045c8461040f565b91509150600080866101c0013560001415801561047e5750866101c001358311155b80156104965750801580610496575080876101c00135105b80156104bd5750866101c00135831415806104bd575060038460218111156104ba57fe5b14155b156104ce5750600390506101c08601355b610220870135158015906104e757508661022001358311155b80156104ff57508015806104ff575080876102200135105b80156105265750866102200135831415806105265750600484602181111561052357fe5b14155b156105375750600490506102208601355b6101e0870135158015906105505750866101e001358311155b80156105685750801580610568575080876101e00135105b801561058f5750866101e001358314158061058f5750602084602181111561058c57fe5b14155b156105a05750602090506101e08601355b6105aa82826107f6565b9450505050505b92915050565b601281565b607881565b60606105cb6138a8565b60006105dd866101c0013586866116d2565b1561060b576105f26003876101c001356107f6565b828261ffff166078811061060257fe5b60200201526001015b610220860135156106545761062686610220013586866116d2565b156106545761063b60048761022001356107f6565b828261ffff166078811061064b57fe5b60200201526001015b610664866101e0013586866116d2565b1515600114156106975761067e6020876101e001356107f6565b828261ffff166078811061068e57fe5b60200201526001015b60608161ffff1667ffffffffffffffff811180156106b457600080fd5b506040519080825280602002602001820160405280156106de578160200160208202803683370190505b50905060005b8261ffff16811015610720578381607881106106fc57fe5b602002015182828151811061070d57fe5b60209081029190910101526001016106e4565b509695505050505050565b600190565b60008061074561016087016101408801613a77565b6001600160a01b031614158015610790575061076961016086016101408701613a77565b6001600160a01b031661078461014087016101208801613a77565b6001600160a01b031614155b156107ce576107c7826107c16107ab36899003890189613d86565b6107ba3689900389018961405c565b8787611701565b906118e6565b90506103c2565b6103fa6107e036879003870187613d86565b6107ef3687900387018761405c565b8585611701565b60008160f884602181111561080757fe5b60ff16901b179392505050565b6000600a82602181111561082457fe5b14156108ab57610260840135156108ab57600061087161084d3687900387016106008801614041565b61085d60c0880160a08901613b88565b8761026001358760018a6101e001356119e1565b90508061088257506000905061039c565b846102400135811161089857506000905061039c565b6108a3600a826107f6565b91505061039c565b600b8260218111156108b957fe5b141561095157610260840135158015906108d7575061024084013515155b15610951576108e46138c7565b6108f73686900386016106008701614041565b600160408201529050600061092a8261091660c0890160a08a01613b88565b8861026001358860018b6101e001356119e1565b90508061093d57506000915061039c9050565b610948600b826107f6565b9250505061039c565b600d82602181111561095f57fe5b14156109c857610280840135156109c85760006109ac6109883687900387016106808801614041565b61099860c0880160a08901613b88565b8761028001358760018a6101e001356119e1565b9050806109bd57506000905061039c565b6108a3600d826107f6565b60058260218111156109d657fe5b1415610a3f576102c084013515610a3f576000610a236109ff3687900387016107808801614041565b610a0f60c0880160a08901613b88565b876102c001358760018a6101e001356119e1565b905080610a3457506000905061039c565b6108a36005826107f6565b601b826021811115610a4d57fe5b1415610adf576000610a6560e0860160c08701613c25565b6003811115610a7057fe5b14158015610a8257506102a084013515155b15610adf576000610ac3610a9f3687900387016107008801614041565b610aaf60c0880160a08901613b88565b876102a001358760018a6101e001356119e1565b905080610ad457506000905061039c565b6108a3601b826107f6565b6006826021811115610aed57fe5b1415610b56576102e084013515610b56576000610b3a610b163687900387016108008801614041565b610b2660c0880160a08901613b88565b876102e001358760008a6101e001356119e1565b905080610b4b57506000905061039c565b6108a36006826107f6565b5060009392505050565b600081851415610b715750836103c2565b6001846008811115610b7f57fe5b1480610b9657506003846008811115610b9457fe5b145b15610ba5576107c78584611aad565b6002846008811115610bb357fe5b1480610bca57506004846008811115610bc857fe5b145b15610c0e576000610bdb8685611aad565b9050610be686611b09565b610bef82611b09565b1415610bfc5790506103c2565b610c068685611b20565b9150506103c2565b6005846008811115610c1c57fe5b1480610c3357506007846008811115610c3157fe5b145b15610c42576107c78584611b20565b6006846008811115610c5057fe5b1480610c6757506008846008811115610c6557fe5b145b15610ca3576000610c788685611b20565b9050610c8386611b09565b610c8c82611b09565b1415610c995790506103c2565b610c068685611aad565b50929392505050565b60006003610cbd6020860186613b52565b6005811115610cc857fe5b1480610ceb57506004610cde6020860186613b52565b6005811115610ce957fe5b145b80610d0d57506005610d006020860186613b52565b6005811115610d0b57fe5b145b15610d1a575060006103fa565b50600195945050505050565b6060610d306138a8565b6000600a846021811115610d4057fe5b1415610e4e5761026087013515610e4e57610d596138a8565b610d946102608901356101e08a0135610d7b368c90038c016106008d01614041565b610d8b60c08d0160a08e01613b88565b60018c8c611b6e565b905060005b60788160ff161015610e4b57818160ff1660788110610db457fe5b6020020151610dc257610e4b565b886102400135828260ff1660788110610dd757fe5b602002015111610de657610e43565b610e04828260ff1660788110610df857fe5b602002015189896116d2565b610e0d57610e43565b610e2b600a838360ff1660788110610e2157fe5b60200201516107f6565b848460788110610e3757fe5b60200201526001909201915b600101610d99565b50505b600b846021811115610e5c57fe5b1415610f765761026087013515801590610e7a575061024087013515155b8015610e8f5750866102e00135876102400135105b15610f7657610e9c6138c7565b610eaf3689900389016106008a01614041565b600160408201529050610ec06138a8565b610ee96102608a01356102408b013584610ee060c08e0160a08f01613b88565b60018d8d611b6e565b905060005b60788160ff161015610f7257818160ff1660788110610f0957fe5b6020020151610f1757610f72565b610f35828260ff1660788110610f2957fe5b60200201518a8a6116d2565b610f3e57610f6a565b610f52600b838360ff1660788110610e2157fe5b858560788110610f5e57fe5b60200201526001909301925b600101610eee565b5050505b600d846021811115610f8457fe5b1415611058576102808701351561105857610f9d6138a8565b610fd86102808901356101e08a0135610fbf368c90038c016106808d01614041565b610fcf60c08d0160a08e01613b88565b60008c8c611b6e565b905060005b60788160ff16101561105557818160ff1660788110610ff857fe5b602002015161100657611055565b611018828260ff1660788110610df857fe5b6110215761104d565b611035600d838360ff1660788110610e2157fe5b84846078811061104157fe5b60200201526001909201915b600101610fdd565b50505b600584602181111561106657fe5b1415611121576102c0870135156111215761107f6138a8565b6110a16102c08901356101e08a0135610d7b368c90038c016107808d01614041565b905060005b60788160ff16101561111e57818160ff16607881106110c157fe5b60200201516110cf5761111e565b6110e1828260ff1660788110610df857fe5b6110ea57611116565b6110fe6005838360ff1660788110610e2157fe5b84846078811061110a57fe5b60200201526001909201915b6001016110a6565b50505b601b84602181111561112f57fe5b141561121357600061114760e0890160c08a01613c25565b600381111561115257fe5b1415801561116457506102a087013515155b15611213576111716138a8565b6111936102a08901356101e08a0135610d7b368c90038c016107008d01614041565b905060005b60788160ff16101561121057818160ff16607881106111b357fe5b60200201516111c157611210565b6111d3828260ff1660788110610df857fe5b6111dc57611208565b6111f0601b838360ff1660788110610e2157fe5b8484607881106111fc57fe5b60200201526001909201915b600101611198565b50505b600684602181111561122157fe5b14156112dc576102e0870135156112dc5761123a6138a8565b61125c6102e08901356101e08a0135610fbf368c90038c016108008d01614041565b905060005b60788160ff1610156112d957818160ff166078811061127c57fe5b602002015161128a576112d9565b61129c828260ff1660788110610df857fe5b6112a5576112d1565b6112b96006838360ff1660788110610e2157fe5b8484607881106112c557fe5b60200201526001909201915b600101611261565b50505b60608167ffffffffffffffff811180156112f557600080fd5b5060405190808252806020026020018201604052801561131f578160200160208202803683370190505b50905060005b8281101561135d5783816078811061133957fe5b602002015182828151811061134a57fe5b6020908102919091010152600101611325565b50979650505050505050565b6000600384600881111561137957fe5b14806113905750600484600881111561138e57fe5b145b806113a6575060078460088111156113a457fe5b145b806113bc575060088460088111156113ba57fe5b145b156113c85750836103c2565b6103fa85858585610b60565b6113dc6137f9565b6113e46137f9565b60008152670de0b6b3a76400006101a080830182905261018083019190915283013560208201526101e0830135606080830191909152610300840135906114399061143490860160408701613b6e565b611d53565b60000b026101008201526103208301356101608201526103408301356114686114346060860160408701613b6e565b60000b026101208201526103e08301356101408201526104a08301356114976114346060860160408701613b6e565b60000b026101c082015292915050565b600080806114ba62015180855b04611e36565b50915091506103c28282611ecc565b60006103c262015180836114b4565b6114e06137f9565b6000806114ec8561040f565b909250905060218260218111156114ff57fe5b141561151a5761151187878387611f52565b925050506103c2565b600582602181111561152857fe5b141561153a576115118787838761201c565b600382602181111561154857fe5b141561155a5761151187878387612087565b600b82602181111561156857fe5b141561157a57611511878783876120cf565b600a82602181111561158857fe5b141561159a5761151187878387612157565b60098260218111156115a857fe5b14156115ba5761151187878387611f52565b60068260218111156115c857fe5b14156115da57611511878783876121ab565b60208260218111156115e857fe5b14156115fa57611511878783876122aa565b600882602181111561160857fe5b141561161a5761151187878387611f52565b600c82602181111561162857fe5b141561163a576115118787838761233f565b600d82602181111561164857fe5b141561165a57611511878783876123d7565b601b82602181111561166857fe5b141561167a5761151187878387612565565b601f82602181111561168857fe5b141561169a5761151187878387612664565b60018260218111156116a857fe5b14156116ba576115118787838761269c565b60405162461bcd60e51b8152600401610393906143df565b6000818311156116e45750600061039c565b8383111580156116f45750818411155b15610b565750600161039c565b600080600061170f8561040f565b9092509050602182602181111561172257fe5b1415611733576000925050506103c2565b600b82602181111561174157fe5b1415611752576000925050506103c2565b600c82602181111561176057fe5b1415611771576000925050506103c2565b600d82602181111561177f57fe5b1415611790576000925050506103c2565b601b82602181111561179e57fe5b14156117af576000925050506103c2565b60018260218111156117bd57fe5b14156117ce576000925050506103c2565b60058260218111156117dc57fe5b14156117ee5761151187878387612787565b60038260218111156117fc57fe5b141561180e5761151187878387612807565b600a82602181111561181c57fe5b141561182e5761151187878387612845565b600982602181111561183c57fe5b141561184e576115118787838761289d565b600682602181111561185c57fe5b141561186e57611511878783876128bf565b602082602181111561187c57fe5b141561188e576115118787838761294e565b600882602181111561189c57fe5b14156118ae576115118787838761296d565b601f8260218111156118bc57fe5b14156118ce5761151187878387612a20565b60405162461bcd60e51b8152600401610393906142ca565b60008215806118f3575081155b15611900575060006105b1565b826000191480156119145750600160ff1b82145b156119505760405162461bcd60e51b81526004018080602001828103825260278152602001806146466027913960400191505060405180910390fd5b8282028284828161195d57fe5b051461199a5760405162461bcd60e51b81526004018080602001828103825260278152602001806146466027913960400191505060405180910390fd5b670de0b6b3a76400008105806103c25760405162461bcd60e51b81526004018080602001828103825260328152602001806145bf6032913960400191505060405180910390fd5b606086015160009015806119f3575083155b156119ff575083611aa3565b60006001611a0e88888b6102d3565b6001811115611a1957fe5b14611a2f57611a2a88866001612a99565b611a43565b611a43611a3e89876001612a99565b612bd3565b9050838015611a5157508215155b15611a795782851415611a68576000915050611aa3565b82811115611a795782915050611aa3565b83158015611a8657508215155b8015611a9157508281145b15611aa0576000915050611aa3565b90505b9695505050505050565b60006001826001811115611abd57fe5b1415611b0257611acc83612c02565b60061415611ae657611adf836002612c15565b90506105b1565b611aef83612c02565b60071415611b0257611adf836001612c15565b5090919050565b6000611b1862015180836114b4565b509392505050565b60006001826001811115611b3057fe5b1415611b0257611b3f83612c02565b60061415611b5257611adf836001612c2a565b611b5b83612c02565b60071415611b0257611adf836002612c2a565b611b766138a8565b611b7e6138a8565b6060870151600090611be657611b958a86866116d2565b15611bb05789828260788110611ba757fe5b60200201526001015b611bbb8986866116d2565b15611bde5760018615151415611bde5788828260788110611bd857fe5b60200201525b509050611d48565b89600080611bf58a848d6102d3565b90505b8b831015611c8557611c0b8389896116d2565b15611c495760768410611c305760405162461bcd60e51b81526004016103939061422e565b82858560788110611c3d57fe5b60200201526001909301925b600191820191816001811115611c5b57fe5b14611c7057611c6b8b8e84612a99565b611c7e565b611c7e611a3e8c8f85612a99565b9250611bf8565b60018915151415611cb357611c9b8c89896116d2565b15611cb3578b858560788110611cad57fe5b60200201525b600084118015611cd05750611cd0856001860360788110610df857fe5b15611d405760008b604001516001811115611ce757fe5b148015611cf45750600184115b8015611d005750828c14155b15611d4057848460788110611d1157fe5b6020020151856001860360788110611d2557fe5b6020020152848460788110611d3657fe5b6020020160008152505b509293505050505b979650505050505050565b60008082600c811115611d6257fe5b1415611d7057506001610449565b600182600c811115611d7e57fe5b1415611d8d5750600019610449565b600682600c811115611d9b57fe5b1415611da957506001610449565b600782600c811115611db757fe5b1415611dc65750600019610449565b600282600c811115611dd457fe5b1415611de257506001610449565b600382600c811115611df057fe5b1415611dff5750600019610449565b60405162461bcd60e51b81526004018080602001828103825260348152602001806146126034913960400191505060405180910390fd5b60008080836226496581018262023ab1600483020590506004600362023ab18302010590910390600062164b09610fa0600185010205905060046105b58202058303601f019250600061098f8460500281611e8d57fe5b0590506000605061098f83020585039050600b820560301994909401606402929092018301996002600c90940290910392909201975095509350505050565b60008160011480611edd5750816003145b80611ee85750816005145b80611ef35750816007145b80611efe5750816008145b80611f09575081600a145b80611f14575081600c145b15611f215750601f6105b1565b81600214611f315750601e6105b1565b611f3a83612c3f565b611f4557601c611f48565b601d5b60ff169392505050565b611f5a6137f9565b6000611fa5611f7c8660200151886080015189602001518a6101e00151611369565b611f958689608001518a602001518b6101e00151611369565b8860600151896101e00151612c64565b9050611fd7611fcb826107c18861010001518961016001516118e690919063ffffffff16565b61012087015190612dbe565b6101208601526101008501516103c087015161200991611ffd9184916107c191906118e6565b61014087015190612dbe565b6101408601525050506020820152919050565b6120246137f9565b6000612046611f7c8660200151886080015189602001518a6101e00151611369565b905061206c611fcb826107c18861010001518961016001516118e690919063ffffffff16565b61012086015250506000610140840152506020820152919050565b61208f6137f9565b8461030001516120a28660400151611d53565b60000b02610100850152505061032083015161016083015260208201526103409091015161012082015290565b6120d76137f9565b60006120f9611f7c8660200151886080015189602001518a6101e00151611369565b905061212e611fcb612122836107c18961010001518a61016001516118e690919063ffffffff16565b61012088015190612dbe565b5060006101208601526101008501516103c087015161200991611ffd9184916107c191906118e6565b61215f6137f9565b6000612181611f7c8660200151886080015189602001518a6101e00151611369565b60006101208701526101008601516103c088015191925061200991611ffd9184916107c1916118e6565b6121b36137f9565b60006121d5611f7c8660200151886080015189602001518a6101e00151611369565b90506121fb611fcb826107c18861010001518961016001516118e690919063ffffffff16565b6101208601526101008501516103c087015161222191611ffd9184916107c191906118e6565b6101408601526101208501516101c0860151612297916122729161224491612e23565b6122518960400151611d53565b60000b028761010001516122688a60400151611d53565b60000b0290612e88565b61227f8860400151611d53565b60000b02866101000151612e2390919063ffffffff16565b6101008601525050506020820152919050565b6122b26137f9565b60006122d4611f7c8660200151886080015189602001518a6101e00151611369565b90506122fa611fcb826107c18861010001518961016001516118e690919063ffffffff16565b6101208601526101008501516103c087015161232091611ffd9184916107c191906118e6565b6101408601525050600061010084015250600482526020820152919050565b6123476137f9565b6000612369611f7c8660200151886080015189602001518a6101e00151611369565b905061238f611fcb826107c18861010001518961016001516118e690919063ffffffff16565b6101208601526101008501516103c08701516123b591611ffd9184916107c191906118e6565b6101408601525050506103a09290920151610160820152602081019190915290565b6123df6137f9565b610380850151610360860151600091612403916123fd9086906118e6565b90612dbe565b9050600061241f86610160015183612e2390919063ffffffff16565b905080876104c00151128015612442575086610520015160001902876104c00151125b1561245357506104c086015161246f565b8661052001516000190281121561246f57506105208601516000035b61016086015161247f9082612dbe565b915081876104c0015112801561249e5750866104e00151876104c00151125b156124b057866104c0015191506124c6565b866104e001518212156124c657866104e0015191505b60006125116124e888602001518a608001518b602001518c6101e00151611369565b612501888b608001518c602001518d6101e00151611369565b8a606001518b6101e00151612c64565b9050612543612537826107c18a61010001518b61016001516118e690919063ffffffff16565b61012089015190612dbe565b6101208801525050610160850152505060006101c08301526020820152919050565b61256d6137f9565b600061258f611f7c8660200151886080015189602001518a6101e00151611369565b90506125b5611fcb826107c18861010001518961016001516118e690919063ffffffff16565b6101208601526101008501516103c08701516125db91611ffd9184916107c191906118e6565b61014086015260018660c0015160038111156125f357fe5b148061260e575060038660c00151600381111561260c57fe5b145b1561261c5760006101808601525b60028660c00151600381111561262e57fe5b1480612649575060038660c00151600381111561264757fe5b145b156126575760006101a08601525b5050506020820152919050565b61266c6137f9565b50506000610100830181905261016083018190526101208301819052610140830152600582526020820152919050565b6126a46137f9565b600084604001516000146126bc5784604001516126d5565b6126d58487608001518860200151896101e00151610b60565b610540870151604001519091508390600090156127105760006126fd89610540015185612e98565b905080831161270e57600180895291505b505b876105600151604001518015612724575080155b1561275357600061273a89610560015185612e98565b905080831161274c5760028852612751565b600388525b505b604087015161277b576127758689608001518a602001518b6101e00151610b60565b60408801525b50949695505050505050565b600080856101000151600181111561279b57fe5b14156127bf57846103c001516127b48660400151611d53565b60000b0290506103c2565b60006127e1611f7c8660200151886080015189602001518a6101e00151611369565b90506103be611ffd8661010001516107c1896103c00151856118e690919063ffffffff16565b6000612826856104400151866103000151612dbe90919063ffffffff16565b6128338660400151611d53565b6000190260000b029050949350505050565b600080612868611f7c8660200151886080015189602001518a6101e00151611369565b90506103be6128916121228761010001516107c1896101600151866118e690919063ffffffff16565b610180870151906118e6565b60008361010001516128b28660400151611d53565b60000b0295945050505050565b6000806128e2611f7c8660200151886080015189602001518a6101e00151611369565b90506103be61292961224461290e8861010001516107c18a6101600151876118e690919063ffffffff16565b6101208901516101c08a015161292391612e23565b90612e23565b6129368860400151611d53565b60000b876101a00151026118e690919063ffffffff16565b60006103fa846101000151856101a001516118e690919063ffffffff16565b600080612990611f7c8660200151886080015189602001518a6101e00151611369565b905060018660e0015160038111156129a457fe5b14156129c9578561040001516129bd8760400151611d53565b60000b029150506103c2565b60028660e0015160038111156129db57fe5b1415612a0f57612a028561010001516107c1886104000151846118e690919063ffffffff16565b6129bd8760400151611d53565b610100850151612a029082906118e6565b600080612a43611f7c8660200151886080015189602001518a6101e00151611369565b9050612a7e612a698661010001516107c1886101600151856118e690919063ffffffff16565b6101208701516104608901516123fd91612dbe565b612a8b8760400151611d53565b60000b029695505050505050565b6000808085602001516005811115612aad57fe5b1415612aca5784516107c790612ac39085612fb1565b8590612c15565b600185602001516005811115612adc57fe5b1415612aff5784516107c790612ac3908590612af9906007612fb1565b90612fb1565b600285602001516005811115612b1157fe5b1415612b2e5784516107c790612b279085612fb1565b859061300a565b600385602001516005811115612b4057fe5b1415612b5d5784516107c790612b27908590612af9906003612fb1565b600485602001516005811115612b6f57fe5b1415612b8c5784516107c790612b27908590612af9906006612fb1565b600585602001516005811115612b9e57fe5b1415612bbb5784516107c790612bb49085612fb1565b8590613084565b60405162461bcd60e51b81526004016103939061427c565b600080600080612be2856130ab565b919450925090506000612bf58484611ecc565b9050611aa38484836130c9565b6007620151809091046003010660010190565b6201518081028201828110156105b157600080fd5b6201518081028203828111156105b157600080fd5b600060048206158015612c5457506064820615155b8061044657505061019090061590565b600084841015612ca55760405162461bcd60e51b81526004018080602001828103825260278152602001806146d76027913960400191505060405180910390fd5b6000836005811115612cb357fe5b1415612cc3576107c785856130e3565b6001836005811115612cd157fe5b1415612ce1576107c785856131d9565b6002836005811115612cef57fe5b1415612cff576107c785856131f8565b6004836005811115612d0d57fe5b1415612d1d576107c78585613211565b6003836005811115612d2b57fe5b1415612d3c576107c78585846132b4565b6005836005811115612d4a57fe5b1415612d875760405162461bcd60e51b815260040180806020018281038252603981526020018061466d6039913960400191505060405180910390fd5b60405162461bcd60e51b815260040180806020018281038252603581526020018061458a6035913960400191505060405180910390fd5b6000828201818312801590612dd35750838112155b80612de85750600083128015612de857508381125b61039c5760405162461bcd60e51b81526004018080602001828103825260218152602001806145f16021913960400191505060405180910390fd5b6000818303818312801590612e385750838113155b80612e4d5750600083128015612e4d57508381135b61039c5760405162461bcd60e51b815260040180806020018281038252602481526020018061476c6024913960400191505060405180910390fd5b600081831315611b025750919050565b6000808084602001516005811115612eac57fe5b1415612ec6578351612ebf908490612c15565b905061039c565b600184602001516005811115612ed857fe5b1415612ef6578351612ebf90612eef906007612fb1565b8490612c15565b600284602001516005811115612f0857fe5b1415612f1b578351612ebf90849061300a565b600384602001516005811115612f2d57fe5b1415612f4b578351612ebf90612f44906003612fb1565b849061300a565b600484602001516005811115612f5d57fe5b1415612f74578351612ebf90612f44906006612fb1565b600584602001516005811115612f8657fe5b1415612f99578351612ebf908490613084565b60405162461bcd60e51b815260040161039390614317565b600082612fc0575060006105b1565b82820282848281612fcd57fe5b041461039c5760405162461bcd60e51b81526004018080602001828103825260218152602001806146fe6021913960400191505060405180910390fd5b600080808061301c62015180876114b4565b600c9188016000198101838104949094019650945092509006600101915060006130468484611ecc565b905080821115613054578091505b62015180870662015180613069868686613372565b020194508685101561307a57600080fd5b5050505092915050565b600080808061309662015180876114b4565b91870194509250905060006130468484611ecc565b600080806130bc62015180856114b4565b9196909550909350915050565b6000620151806130da858585613372565b02949350505050565b6000806130ef846133ee565b905060006130fc846133ee565b9050600061310986613406565b6131155761016d613119565b61016e5b61ffff169050818314156131455761313b816131358888613423565b9061343e565b93505050506105b1565b600061315086613406565b61315c5761016d613160565b61016e5b61ffff169050600061318b836131358a61318661317e8a6001613576565b6001806130c9565b613423565b905060006131a8836131356131a2886001806130c9565b8b613423565b90506131cc6131c260016131bc888a6135d0565b906135d0565b6123fd8484612dbe565b9998505050505050505050565b600061039c610168613135620151806131f286886135d0565b90613612565b600061039c61016d613135620151806131f286886135d0565b6000806000806000806000613225896130ab565b975095509350613234886130ab565b945092509050601f86141561324857601e95505b82601f141561325657601e92505b60006132628488612e23565b905060006132708488612e23565b9050600061327e8488612e23565b90506132a4610168613135856123fd61329887601e613654565b6123fd87610168613654565b9c9b505050505050505050505050565b60008060008060008060006132c88a6130ab565b9750955093506132d7896130ab565b9450925090506132e68a6114a7565b8614156132f257601e95505b87891480156133015750816002145b1580156133155750613312896114a7565b83145b1561331f57601e92505b600061332b8488612e23565b905060006133398488612e23565b905060006133478488612e23565b9050613361610168613135856123fd61329887601e613654565b9d9c50505050505050505050505050565b60006107b284101561338357600080fd5b838383600062253d8c600460036064611324600c600d19890105890101050205600c80600d19870105600c02600287030361016f02816133bf57fe5b0560046105b5600c600d1989010589016112c0010205617d4b8603010103039050809450505050509392505050565b60006133fd62015180836114b4565b50909392505050565b60008061341662015180846114b4565b5050905061039c81612c3f565b60008183111561343257600080fd5b50620151809190030490565b60008161347c5760405162461bcd60e51b81526004018080602001828103825260248152602001806147906024913960400191505060405180910390fd5b82613489575060006105b1565b670de0b6b3a76400008381029084828161349f57fe5b05146134dc5760405162461bcd60e51b81526004018080602001828103825260268152602001806147466026913960400191505060405180910390fd5b826000191480156134f05750600160ff1b84145b1561352c5760405162461bcd60e51b81526004018080602001828103825260268152602001806147466026913960400191505060405180910390fd5b600083828161353757fe5b059050806103c25760405162461bcd60e51b81526004018080602001828103825260318152602001806146a66031913960400191505060405180910390fd5b60008282018381101561039c576040805162461bcd60e51b815260206004820152601b60248201527f536166654d6174683a206164646974696f6e206f766572666c6f770000000000604482015290519081900360640190fd5b600061039c83836040518060400160405280601e81526020017f536166654d6174683a207375627472616374696f6e206f766572666c6f7700008152506136fd565b600061039c83836040518060400160405280601a81526020017f536166654d6174683a206469766973696f6e206279207a65726f000000000000815250613794565b600082613663575060006105b1565b826000191480156136775750600160ff1b82145b156136b35760405162461bcd60e51b815260040180806020018281038252602781526020018061471f6027913960400191505060405180910390fd5b828202828482816136c057fe5b051461039c5760405162461bcd60e51b815260040180806020018281038252602781526020018061471f6027913960400191505060405180910390fd5b6000818484111561378c5760405162461bcd60e51b81526004018080602001828103825283818151815260200191508051906020019080838360005b83811015613751578181015183820152602001613739565b50505050905090810190601f16801561377e5780820380516001836020036101000a031916815260200191505b509250505060405180910390fd5b505050900390565b600081836137e35760405162461bcd60e51b8152602060048201818152835160248401528351909283926044909101919085019080838360008315613751578181015183820152602001613739565b5060008385816137ef57fe5b0495945050505050565b604080516102e081019091528060008152602001600081526020016000815260200160008152602001600081526020016000815260200160008152602001600081526020016000815260200160008152602001600081526020016000815260200160008152602001600081526020016000815260200160008152602001600081526020016000815260200160008152602001600081526020016000815260200160008152602001600081525090565b60405180610f0001604052806078906020820280368337509192915050565b604080516080810190915260008082526020820190815260200160008152600060209091015290565b80356001600160a01b038116811461044957600080fd5b8035801515811461044957600080fd5b80356009811061044957600080fd5b80356104498161455f565b80356104498161456f565b8035600d811061044957600080fd5b80356013811061044957600080fd5b80356022811061044957600080fd5b80356104498161457c565b60006108808284031215613986578081fd5b50919050565b60006080828403121561399d578081fd5b6040516080810181811067ffffffffffffffff821117156139ba57fe5b6040528235815290508060208301356139d28161456f565b602082015260408301356139e58161455f565b60408201526139f660608401613907565b60608201525092915050565b600060608284031215613a13578081fd5b6040516060810181811067ffffffffffffffff82111715613a3057fe5b604052823581529050806020830135613a488161456f565b6020820152613a5960408401613907565b60408201525092915050565b60006102e08284031215613986578081fd5b600060208284031215613a88578081fd5b61039c826138f0565b600060208284031215613aa2578081fd5b5035919050565b60008060008060808587031215613abe578283fd5b84359350613ace60208601613917565b92506040850135613ade8161455f565b9396929550929360600135925050565b6000806000806000610e808688031215613b06578283fd5b85359450613b178760208801613974565b9350613b27876108a08801613a65565b9250613b36610b808701613907565b9150613b4687610ba08801613a65565b90509295509295909350565b600060208284031215613b63578081fd5b813561039c8161456f565b600060208284031215613b7f578081fd5b61039c8261393c565b600060208284031215613b99578081fd5b813561039c8161455f565b600080600060c08486031215613bb8578081fd5b8335613bc38161455f565b925060208401359150613bd9856040860161398c565b90509250925092565b600060208284031215613bf3578081fd5b61039c8261395a565b60008060408385031215613c0e578182fd5b613c178361395a565b946020939093013593505050565b600060208284031215613c36578081fd5b813561039c8161457c565b60006108808284031215613c53578081fd5b61039c8383613974565b6000806108a08385031215613c70578182fd5b613c7a8484613974565b94610880939093013593505050565b600080600080610ba08587031215613c9f578182fd5b613ca98686613974565b9350613cb9866108808701613a65565b9396939550505050610b6082013591610b80013590565b60008060006108c08486031215613ce5578081fd5b613cef8585613974565b92506108808401359150613bd96108a0850161395a565b60008060006108c08486031215613d1b578081fd5b613d258585613974565b9561088085013595506108a0909401359392505050565b6000806000806108e08587031215613d52578182fd5b613d5c8686613974565b935061088085013592506108a08501359150613d7b6108c0860161395a565b905092959194509250565b60006108808284031215613d98578081fd5b613da361062061453b565b613dac8361394b565b8152613dba60208401613926565b6020820152613dcb6040840161393c565b6040820152613ddc60608401613931565b6060820152613ded60808401613917565b6080820152613dfe60a08401613926565b60a0820152613e0f60c08401613969565b60c0820152613e2060e08401613969565b60e0820152610100613e33818501613926565b90820152610120613e458482016138f0565b90820152610140613e578482016138f0565b90820152610160838101359082015261018080840135908201526101a080840135908201526101c080840135908201526101e08084013590820152610200808401359082015261022080840135908201526102408084013590820152610260808401359082015261028080840135908201526102a080840135908201526102c080840135908201526102e08084013590820152610300808401359082015261032080840135908201526103408084013590820152610360808401359082015261038080840135908201526103a080840135908201526103c080840135908201526103e08084013590820152610400808401359082015261042080840135908201526104408084013590820152610460808401359082015261048080840135908201526104a080840135908201526104c080840135908201526104e0808401359082015261050080840135908201526105208084013590820152610540613fbf85828601613a02565b908201526105a0613fd285858301613a02565b610560830152610600613fe78682870161398c565b610580840152613ffb86610680870161398c565b8284015261400d86610700870161398c565b6105c084015261402186610780870161398c565b6105e084015261403586610800870161398c565b90830152509392505050565b600060808284031215614052578081fd5b61039c838361398c565b60006102e080838503121561406f578182fd5b6140788161453b565b905061408383613931565b81526020838101359082015260408084013590820152606080840135908201526080808401359082015260a0808401359082015260c0808401359082015260e08084013590820152610100808401359082015261012080840135908201526101408084013590820152610160808401359082015261018080840135908201526101a080840135908201526101c080840135908201526101e08084013590820152610200808401359082015261022080840135908201526102408084013590820152610260808401359082015261028080840135908201526102a080840135908201526102c0928301359281019290925250919050565b60008060008060808587031215613abe578182fd5b6006811061419857fe5b9052565b6020808252825182820181905260009190848201906040850190845b818110156141d4578351835292840192918401916001016141b8565b50909695505050505050565b901515815260200190565b90815260200190565b602081016013831061420257fe5b91905290565b602081016002831061420257fe5b604081016022841061422457fe5b9281526020015290565b6020808252602e908201527f5363686564756c652e636f6d70757465446174657346726f6d4379636c653a2060408201526d4d41585f4359434c455f53495a4560901b606082015260800190565b6020808252602e908201527f5363686564756c652e6765744e6578744379636c65446174653a20415454524960408201526d1095551157d393d517d193d5539160921b606082015260800190565b6020808252602d908201527f414e4e456e67696e652e7061796f666646756e6374696f6e3a2041545452494260408201526c15551157d393d517d193d55391609a1b606082015260800190565b60208082526037908201527f506572696f645574696c732e67657454696d657374616d70506c75735065726960408201527f6f643a204154545249425554455f4e4f545f464f554e44000000000000000000606082015260800190565b60208082526045908201527f456e644f664d6f6e7468436f6e76656e74696f6e2e61646a757374456e644f6660408201527f4d6f6e7468436f6e76656e74696f6e3a204154545249425554455f4e4f545f4660608201526427aaa7221760d91b608082015260a00190565b60208082526036908201527f414e4e456e67696e652e73746174655472616e736974696f6e46756e6374696f6040820152751b8e8810551514925095551157d393d517d193d5539160521b606082015260800190565b60006102e08201905061444982845161418e565b6020838101519083015260408084015190830152606080840151908301526080808401519083015260a0808401519083015260c0808401519083015260e08084015190830152610100808401519083015261012080840151908301526101408084015190830152610160808401519083015261018080840151908301526101a080840151908301526101c080840151908301526101e08084015190830152610200808401519083015261022080840151908301526102408084015190830152610260808401519083015261028080840151908301526102a080840151908301526102c092830151929091019190915290565b60405181810167ffffffffffffffff8111828210171561455757fe5b604052919050565b6002811061456c57600080fd5b50565b6006811061456c57600080fd5b6004811061456c57600080fdfe446179436f756e74436f6e76656e74696f6e2e796561724672616374696f6e3a204154545249425554455f4e4f545f464f554e442e5369676e65644d6174682e666c6f61744d756c743a2043414e4e4f545f524550524553454e545f4752414e554c41524954595369676e6564536166654d6174683a206164646974696f6e206f766572666c6f77436f6e7472616374526f6c65436f6e76656e74696f6e2e726f6c655369676e3a204154545249425554455f4e4f545f464f554e445369676e65644d6174682e666c6f61744d756c743a204f564552464c4f575f4445544543544544446179436f756e74436f6e76656e74696f6e2e796561724672616374696f6e3a204154545249425554455f4e4f545f535550504f525445442e5369676e65644d6174682e666c6f61744469763a2043414e4e4f545f524550524553454e545f4752414e554c4152495459436f72652e796561724672616374696f6e3a2053544152545f4e4f545f4245464f52455f454e44536166654d6174683a206d756c7469706c69636174696f6e206f766572666c6f775369676e6564536166654d6174683a206d756c7469706c69636174696f6e206f766572666c6f775369676e65644d6174682e666c6f61744469763a204f564552464c4f575f44455445435445445369676e6564536166654d6174683a207375627472616374696f6e206f766572666c6f775369676e65644d6174682e666c6f61744469763a20444956494445445f42595f5a45524fa2646970667358221220b60f994ab2ec4e9268b1c77a28a9da2d8afc85480cbb8a2890ed843d8c8d45eb64736f6c63430007040033",
  "devdoc": {
    "details": "All numbers except unix timestamp are represented as multiple of 10 ** 18",
    "kind": "dev",
    "methods": {
      "adjustEndOfMonthConvention(uint8,uint256,(uint256,uint8,uint8,bool))": {
        "details": "The following is considered to dertermine if schedule dates are shifted to the end of month: - The convention SD (same day) means not adjusting, EM (end of month) means adjusting - Dates are only shifted if the schedule start date is an end-of-month date - Dates are only shifted if the schedule cycle is based on an \"M\" period unit or multiple thereof",
        "params": {
          "cycle": "the cycle struct",
          "eomc": "the end of month convention to adjust",
          "startTime": "timestamp of the cycle start"
        },
        "returns": {
          "_0": "the adjusted end of month convention"
        }
      },
      "computeCyclicScheduleSegment((uint8,uint8,uint8,uint8,uint8,uint8,uint8,uint8,uint8,address,address,bytes32,uint256,uint256,uint256,uint256,uint256,uint256,uint256,uint256,uint256,uint256,uint256,uint256,int256,int256,int256,int256,int256,int256,int256,int256,int256,int256,int256,int256,int256,int256,int256,int256,int256,int256,(uint256,uint8,bool),(uint256,uint8,bool),(uint256,uint8,uint8,bool),(uint256,uint8,uint8,bool),(uint256,uint8,uint8,bool),(uint256,uint8,uint8,bool),(uint256,uint8,uint8,bool)),uint256,uint256,uint8)": {
        "params": {
          "eventType": "eventType of the cyclic schedule",
          "segmentEnd": "end timestamp of the segement",
          "segmentStart": "start timestamp of the segment",
          "terms": "terms of the contract"
        },
        "returns": {
          "_0": "event schedule segment"
        }
      },
      "computeEventTimeForEvent(bytes32,uint8,uint8,uint256)": {
        "details": "For optimization reasons not located in EventUtil by applying the BDC specified in the terms"
      },
      "computeInitialState((uint8,uint8,uint8,uint8,uint8,uint8,uint8,uint8,uint8,address,address,bytes32,uint256,uint256,uint256,uint256,uint256,uint256,uint256,uint256,uint256,uint256,uint256,uint256,int256,int256,int256,int256,int256,int256,int256,int256,int256,int256,int256,int256,int256,int256,int256,int256,int256,int256,(uint256,uint8,bool),(uint256,uint8,bool),(uint256,uint8,uint8,bool),(uint256,uint8,uint8,bool),(uint256,uint8,uint8,bool),(uint256,uint8,uint8,bool),(uint256,uint8,uint8,bool)))": {
        "params": {
          "terms": "terms of the contract"
        },
        "returns": {
          "_0": "initial state of the contract"
        }
      },
      "computeNextCyclicEvent((uint8,uint8,uint8,uint8,uint8,uint8,uint8,uint8,uint8,address,address,bytes32,uint256,uint256,uint256,uint256,uint256,uint256,uint256,uint256,uint256,uint256,uint256,uint256,int256,int256,int256,int256,int256,int256,int256,int256,int256,int256,int256,int256,int256,int256,int256,int256,int256,int256,(uint256,uint8,bool),(uint256,uint8,bool),(uint256,uint8,uint8,bool),(uint256,uint8,uint8,bool),(uint256,uint8,uint8,bool),(uint256,uint8,uint8,bool),(uint256,uint8,uint8,bool)),uint256,uint8)": {
        "params": {
          "eventType": "eventType of the cyclic schedule",
          "lastScheduleTime": "last occurrence of cyclic event",
          "terms": "terms of the contract"
        },
        "returns": {
          "_0": "event schedule segment"
        }
      },
      "computeNextNonCyclicEvent((uint8,uint8,uint8,uint8,uint8,uint8,uint8,uint8,uint8,address,address,bytes32,uint256,uint256,uint256,uint256,uint256,uint256,uint256,uint256,uint256,uint256,uint256,uint256,int256,int256,int256,int256,int256,int256,int256,int256,int256,int256,int256,int256,int256,int256,int256,int256,int256,int256,(uint256,uint8,bool),(uint256,uint8,bool),(uint256,uint8,uint8,bool),(uint256,uint8,uint8,bool),(uint256,uint8,uint8,bool),(uint256,uint8,uint8,bool),(uint256,uint8,uint8,bool)),bytes32)": {
        "details": "Assumes that non-cyclic events of the same event type have a unique schedule time",
        "params": {
          "lastNonCyclicEvent": "last non-cyclic event",
          "terms": "terms of the contract"
        },
        "returns": {
          "_0": "next non-cyclic event"
        }
      },
      "computeNonCyclicScheduleSegment((uint8,uint8,uint8,uint8,uint8,uint8,uint8,uint8,uint8,address,address,bytes32,uint256,uint256,uint256,uint256,uint256,uint256,uint256,uint256,uint256,uint256,uint256,uint256,int256,int256,int256,int256,int256,int256,int256,int256,int256,int256,int256,int256,int256,int256,int256,int256,int256,int256,(uint256,uint8,bool),(uint256,uint8,bool),(uint256,uint8,uint8,bool),(uint256,uint8,uint8,bool),(uint256,uint8,uint8,bool),(uint256,uint8,uint8,bool),(uint256,uint8,uint8,bool)),uint256,uint256)": {
        "params": {
          "segmentEnd": "end timestamp of the segement",
          "segmentStart": "start timestamp of the segment",
          "terms": "terms of the contract"
        },
        "returns": {
          "_0": "segment of the non-cyclic schedule"
        }
      },
      "computePayoffForEvent((uint8,uint8,uint8,uint8,uint8,uint8,uint8,uint8,uint8,address,address,bytes32,uint256,uint256,uint256,uint256,uint256,uint256,uint256,uint256,uint256,uint256,uint256,uint256,int256,int256,int256,int256,int256,int256,int256,int256,int256,int256,int256,int256,int256,int256,int256,int256,int256,int256,(uint256,uint8,bool),(uint256,uint8,bool),(uint256,uint8,uint8,bool),(uint256,uint8,uint8,bool),(uint256,uint8,uint8,bool),(uint256,uint8,uint8,bool),(uint256,uint8,uint8,bool)),(uint8,uint256,uint256,uint256,uint256,uint256,uint256,uint256,int256,int256,int256,int256,int256,int256,int256,int256,int256,int256,int256,int256,int256,int256,int256),bytes32,bytes32)": {
        "params": {
          "_event": "event for which the payoff should be evaluated",
          "externalData": "external data needed for POF evaluation (e.g. fxRate)",
          "state": "current state of the contract",
          "terms": "terms of the contract"
        },
        "returns": {
          "_0": "the payoff of the event"
        }
      },
      "computeStateForEvent((uint8,uint8,uint8,uint8,uint8,uint8,uint8,uint8,uint8,address,address,bytes32,uint256,uint256,uint256,uint256,uint256,uint256,uint256,uint256,uint256,uint256,uint256,uint256,int256,int256,int256,int256,int256,int256,int256,int256,int256,int256,int256,int256,int256,int256,int256,int256,int256,int256,(uint256,uint8,bool),(uint256,uint8,bool),(uint256,uint8,uint8,bool),(uint256,uint8,uint8,bool),(uint256,uint8,uint8,bool),(uint256,uint8,uint8,bool),(uint256,uint8,uint8,bool)),(uint8,uint256,uint256,uint256,uint256,uint256,uint256,uint256,int256,int256,int256,int256,int256,int256,int256,int256,int256,int256,int256,int256,int256,int256,int256),bytes32,bytes32)": {
        "params": {
          "_event": "event to be applied to the contract state",
          "externalData": "external data needed for STF evaluation (e.g. rate for RR events)",
          "state": "current state of the contract",
          "terms": "terms of the contract"
        },
        "returns": {
          "_0": "the resulting contract state"
        }
      },
      "isEventScheduled(bytes32,(uint8,uint8,uint8,uint8,uint8,uint8,uint8,uint8,uint8,address,address,bytes32,uint256,uint256,uint256,uint256,uint256,uint256,uint256,uint256,uint256,uint256,uint256,uint256,int256,int256,int256,int256,int256,int256,int256,int256,int256,int256,int256,int256,int256,int256,int256,int256,int256,int256,(uint256,uint8,bool),(uint256,uint8,bool),(uint256,uint8,uint8,bool),(uint256,uint8,uint8,bool),(uint256,uint8,uint8,bool),(uint256,uint8,uint8,bool),(uint256,uint8,uint8,bool)),(uint8,uint256,uint256,uint256,uint256,uint256,uint256,uint256,int256,int256,int256,int256,int256,int256,int256,int256,int256,int256,int256,int256,int256,int256,int256),bool,(uint8,uint256,uint256,uint256,uint256,uint256,uint256,uint256,int256,int256,int256,int256,int256,int256,int256,int256,int256,int256,int256,int256,int256,int256,int256))": {
        "params": {
          "state": "current state of the contract param hasUnderlying boolean indicating whether the contract has an underlying contract param underlyingState state of the underlying (empty state object if non-existing)"
        },
        "returns": {
          "_0": "boolean indicating whether event is still scheduled"
        }
      }
    },
    "title": "ANNEngine",
    "version": 1
  },
  "userdoc": {
    "kind": "user",
    "methods": {
      "adjustEndOfMonthConvention(uint8,uint256,(uint256,uint8,uint8,bool))": {
        "notice": "This function makes an adjustment on the end of month convention."
      },
      "computeCyclicScheduleSegment((uint8,uint8,uint8,uint8,uint8,uint8,uint8,uint8,uint8,address,address,bytes32,uint256,uint256,uint256,uint256,uint256,uint256,uint256,uint256,uint256,uint256,uint256,uint256,int256,int256,int256,int256,int256,int256,int256,int256,int256,int256,int256,int256,int256,int256,int256,int256,int256,int256,(uint256,uint8,bool),(uint256,uint8,bool),(uint256,uint8,uint8,bool),(uint256,uint8,uint8,bool),(uint256,uint8,uint8,bool),(uint256,uint8,uint8,bool),(uint256,uint8,uint8,bool)),uint256,uint256,uint8)": {
        "notice": "Computes a schedule segment of cyclic contract events based on the contract terms and the specified timestamps."
      },
      "computeEventTimeForEvent(bytes32,uint8,uint8,uint256)": {
        "notice": "Returns the event time for a given schedule time"
      },
      "computeInitialState((uint8,uint8,uint8,uint8,uint8,uint8,uint8,uint8,uint8,address,address,bytes32,uint256,uint256,uint256,uint256,uint256,uint256,uint256,uint256,uint256,uint256,uint256,uint256,int256,int256,int256,int256,int256,int256,int256,int256,int256,int256,int256,int256,int256,int256,int256,int256,int256,int256,(uint256,uint8,bool),(uint256,uint8,bool),(uint256,uint8,uint8,bool),(uint256,uint8,uint8,bool),(uint256,uint8,uint8,bool),(uint256,uint8,uint8,bool),(uint256,uint8,uint8,bool)))": {
        "notice": "Initialize contract state space based on the contract terms. todo implement annuity calculator"
      },
      "computeNextCyclicEvent((uint8,uint8,uint8,uint8,uint8,uint8,uint8,uint8,uint8,address,address,bytes32,uint256,uint256,uint256,uint256,uint256,uint256,uint256,uint256,uint256,uint256,uint256,uint256,int256,int256,int256,int256,int256,int256,int256,int256,int256,int256,int256,int256,int256,int256,int256,int256,int256,int256,(uint256,uint8,bool),(uint256,uint8,bool),(uint256,uint8,uint8,bool),(uint256,uint8,uint8,bool),(uint256,uint8,uint8,bool),(uint256,uint8,uint8,bool),(uint256,uint8,uint8,bool)),uint256,uint8)": {
        "notice": "Computes a schedule segment of cyclic contract events based on the contract terms and the specified timestamps."
      },
      "computeNextNonCyclicEvent((uint8,uint8,uint8,uint8,uint8,uint8,uint8,uint8,uint8,address,address,bytes32,uint256,uint256,uint256,uint256,uint256,uint256,uint256,uint256,uint256,uint256,uint256,uint256,int256,int256,int256,int256,int256,int256,int256,int256,int256,int256,int256,int256,int256,int256,int256,int256,int256,int256,(uint256,uint8,bool),(uint256,uint8,bool),(uint256,uint8,uint8,bool),(uint256,uint8,uint8,bool),(uint256,uint8,uint8,bool),(uint256,uint8,uint8,bool),(uint256,uint8,uint8,bool)),bytes32)": {
        "notice": "Computes the next non-cyclic contract events based on the contract terms and the timestamp on which the prev. event occured."
      },
      "computeNonCyclicScheduleSegment((uint8,uint8,uint8,uint8,uint8,uint8,uint8,uint8,uint8,address,address,bytes32,uint256,uint256,uint256,uint256,uint256,uint256,uint256,uint256,uint256,uint256,uint256,uint256,int256,int256,int256,int256,int256,int256,int256,int256,int256,int256,int256,int256,int256,int256,int256,int256,int256,int256,(uint256,uint8,bool),(uint256,uint8,bool),(uint256,uint8,uint8,bool),(uint256,uint8,uint8,bool),(uint256,uint8,uint8,bool),(uint256,uint8,uint8,bool),(uint256,uint8,uint8,bool)),uint256,uint256)": {
        "notice": "Computes a schedule segment of non-cyclic contract events based on the contract terms and the specified timestamps. todo rate reset, scaling, interest calculation base"
      },
      "computePayoffForEvent((uint8,uint8,uint8,uint8,uint8,uint8,uint8,uint8,uint8,address,address,bytes32,uint256,uint256,uint256,uint256,uint256,uint256,uint256,uint256,uint256,uint256,uint256,uint256,int256,int256,int256,int256,int256,int256,int256,int256,int256,int256,int256,int256,int256,int256,int256,int256,int256,int256,(uint256,uint8,bool),(uint256,uint8,bool),(uint256,uint8,uint8,bool),(uint256,uint8,uint8,bool),(uint256,uint8,uint8,bool),(uint256,uint8,uint8,bool),(uint256,uint8,uint8,bool)),(uint8,uint256,uint256,uint256,uint256,uint256,uint256,uint256,int256,int256,int256,int256,int256,int256,int256,int256,int256,int256,int256,int256,int256,int256,int256),bytes32,bytes32)": {
        "notice": "Evaluates the payoff for an event under the current state of the contract."
      },
      "computeStateForEvent((uint8,uint8,uint8,uint8,uint8,uint8,uint8,uint8,uint8,address,address,bytes32,uint256,uint256,uint256,uint256,uint256,uint256,uint256,uint256,uint256,uint256,uint256,uint256,int256,int256,int256,int256,int256,int256,int256,int256,int256,int256,int256,int256,int256,int256,int256,int256,int256,int256,(uint256,uint8,bool),(uint256,uint8,bool),(uint256,uint8,uint8,bool),(uint256,uint8,uint8,bool),(uint256,uint8,uint8,bool),(uint256,uint8,uint8,bool),(uint256,uint8,uint8,bool)),(uint8,uint256,uint256,uint256,uint256,uint256,uint256,uint256,int256,int256,int256,int256,int256,int256,int256,int256,int256,int256,int256,int256,int256,int256,int256),bytes32,bytes32)": {
        "notice": "Applys an event to the current state of a contract and returns the resulting contract state."
      },
      "getEpochOffset(uint8)": {
        "notice": "Returns the epoch offset for a given event type to determine the correct order of events if multiple events have the same timestamp"
      },
      "isEventScheduled(bytes32,(uint8,uint8,uint8,uint8,uint8,uint8,uint8,uint8,uint8,address,address,bytes32,uint256,uint256,uint256,uint256,uint256,uint256,uint256,uint256,uint256,uint256,uint256,uint256,int256,int256,int256,int256,int256,int256,int256,int256,int256,int256,int256,int256,int256,int256,int256,int256,int256,int256,(uint256,uint8,bool),(uint256,uint8,bool),(uint256,uint8,uint8,bool),(uint256,uint8,uint8,bool),(uint256,uint8,uint8,bool),(uint256,uint8,uint8,bool),(uint256,uint8,uint8,bool)),(uint8,uint256,uint256,uint256,uint256,uint256,uint256,uint256,int256,int256,int256,int256,int256,int256,int256,int256,int256,int256,int256,int256,int256,int256,int256),bool,(uint8,uint256,uint256,uint256,uint256,uint256,uint256,uint256,int256,int256,int256,int256,int256,int256,int256,int256,int256,int256,int256,int256,int256,int256,int256))": {
        "notice": "Verifies that the provided event is still scheduled under the terms, the current state of the contract and the current state of the underlying. param _event event for which to check if its still scheduled param terms terms of the contract"
      },
      "shiftCalcTime(uint256,uint8,uint8,uint256)": {
        "notice": "Used in POFs and STFs for DCFs. No shifting is applied if a Calc/Shift instead of Shift/Calc BDC is provided."
      }
    },
    "notice": "Inherits from BaseEngine by implementing STFs, POFs according to the ACTUS standard for a ANN contract",
    "version": 1
  },
  "storageLayout": {
    "storage": [],
    "types": null
  }
}