{
  "address": "0xabc8c424E045302b0Cf849161De5C63D261Aa41c",
  "abi": [
    {
      "inputs": [],
      "stateMutability": "nonpayable",
      "type": "constructor"
    },
    {
      "anonymous": false,
      "inputs": [
        {
          "indexed": true,
          "internalType": "bytes32",
          "name": "assetId",
          "type": "bytes32"
        },
        {
          "indexed": true,
          "internalType": "address",
          "name": "account",
          "type": "address"
        },
        {
          "indexed": false,
          "internalType": "bytes4",
          "name": "methodSignature",
          "type": "bytes4"
        }
      ],
      "name": "GrantedAccess",
      "type": "event"
    },
    {
      "anonymous": false,
      "inputs": [
        {
          "indexed": true,
          "internalType": "address",
          "name": "previousOwner",
          "type": "address"
        },
        {
          "indexed": true,
          "internalType": "address",
          "name": "newOwner",
          "type": "address"
        }
      ],
      "name": "OwnershipTransferred",
      "type": "event"
    },
    {
      "anonymous": false,
      "inputs": [
        {
          "indexed": false,
          "internalType": "bytes32",
          "name": "assetId",
          "type": "bytes32"
        }
      ],
      "name": "RegisteredAsset",
      "type": "event"
    },
    {
      "anonymous": false,
      "inputs": [
        {
          "indexed": true,
          "internalType": "bytes32",
          "name": "assetId",
          "type": "bytes32"
        },
        {
          "indexed": true,
          "internalType": "address",
          "name": "account",
          "type": "address"
        },
        {
          "indexed": false,
          "internalType": "bytes4",
          "name": "methodSignature",
          "type": "bytes4"
        }
      ],
      "name": "RevokedAccess",
      "type": "event"
    },
    {
      "anonymous": false,
      "inputs": [
        {
          "indexed": true,
          "internalType": "bytes32",
          "name": "assetId",
          "type": "bytes32"
        },
        {
          "indexed": false,
          "internalType": "address",
          "name": "prevActor",
          "type": "address"
        },
        {
          "indexed": false,
          "internalType": "address",
          "name": "newActor",
          "type": "address"
        }
      ],
      "name": "UpdatedActor",
      "type": "event"
    },
    {
      "anonymous": false,
      "inputs": [
        {
          "indexed": false,
          "internalType": "bytes32",
          "name": "assetId",
          "type": "bytes32"
        },
        {
          "indexed": false,
          "internalType": "address",
          "name": "prevBeneficiary",
          "type": "address"
        },
        {
          "indexed": false,
          "internalType": "address",
          "name": "newBeneficiary",
          "type": "address"
        }
      ],
      "name": "UpdatedBeneficiary",
      "type": "event"
    },
    {
      "anonymous": false,
      "inputs": [
        {
          "indexed": true,
          "internalType": "bytes32",
          "name": "assetId",
          "type": "bytes32"
        },
        {
          "indexed": false,
          "internalType": "address",
          "name": "prevEngine",
          "type": "address"
        },
        {
          "indexed": false,
          "internalType": "address",
          "name": "newEngine",
          "type": "address"
        }
      ],
      "name": "UpdatedEngine",
      "type": "event"
    },
    {
      "anonymous": false,
      "inputs": [
        {
          "indexed": true,
          "internalType": "bytes32",
          "name": "assetId",
          "type": "bytes32"
        },
        {
          "indexed": false,
          "internalType": "uint256",
          "name": "statusDate",
          "type": "uint256"
        }
      ],
      "name": "UpdatedFinalizedState",
      "type": "event"
    },
    {
      "anonymous": false,
      "inputs": [
        {
          "indexed": false,
          "internalType": "bytes32",
          "name": "assetId",
          "type": "bytes32"
        },
        {
          "indexed": false,
          "internalType": "address",
          "name": "prevObligor",
          "type": "address"
        },
        {
          "indexed": false,
          "internalType": "address",
          "name": "newObligor",
          "type": "address"
        }
      ],
      "name": "UpdatedObligor",
      "type": "event"
    },
    {
      "anonymous": false,
      "inputs": [
        {
          "indexed": true,
          "internalType": "bytes32",
          "name": "assetId",
          "type": "bytes32"
        },
        {
          "indexed": false,
          "internalType": "uint256",
          "name": "statusDate",
          "type": "uint256"
        }
      ],
      "name": "UpdatedState",
      "type": "event"
    },
    {
      "anonymous": false,
      "inputs": [
        {
          "indexed": true,
          "internalType": "bytes32",
          "name": "assetId",
          "type": "bytes32"
        }
      ],
      "name": "UpdatedTerms",
      "type": "event"
    },
    {
      "inputs": [
        {
          "internalType": "address",
          "name": "actor",
          "type": "address"
        }
      ],
      "name": "approveActor",
      "outputs": [],
      "stateMutability": "nonpayable",
      "type": "function"
    },
    {
      "inputs": [
        {
          "internalType": "address",
          "name": "",
          "type": "address"
        }
      ],
      "name": "approvedActors",
      "outputs": [
        {
          "internalType": "bool",
          "name": "",
          "type": "bool"
        }
      ],
      "stateMutability": "view",
      "type": "function"
    },
    {
      "inputs": [
        {
          "internalType": "bytes32",
          "name": "_event",
          "type": "bytes32"
        }
      ],
      "name": "decodeEvent",
      "outputs": [
        {
          "internalType": "enum EventType",
          "name": "",
          "type": "uint8"
        },
        {
          "internalType": "uint256",
          "name": "",
          "type": "uint256"
        }
      ],
      "stateMutability": "pure",
      "type": "function"
    },
    {
      "inputs": [
        {
          "internalType": "enum EventType",
          "name": "eventType",
          "type": "uint8"
        },
        {
          "internalType": "uint256",
          "name": "scheduleTime",
          "type": "uint256"
        }
      ],
      "name": "encodeEvent",
      "outputs": [
        {
          "internalType": "bytes32",
          "name": "",
          "type": "bytes32"
        }
      ],
      "stateMutability": "pure",
      "type": "function"
    },
    {
      "inputs": [
        {
          "internalType": "bytes32",
          "name": "assetId",
          "type": "bytes32"
        }
      ],
      "name": "getActor",
      "outputs": [
        {
          "internalType": "address",
          "name": "",
          "type": "address"
        }
      ],
      "stateMutability": "view",
      "type": "function"
    },
    {
      "inputs": [
        {
          "internalType": "bytes32",
          "name": "assetId",
          "type": "bytes32"
        },
        {
          "internalType": "bytes32",
          "name": "attribute",
          "type": "bytes32"
        }
      ],
      "name": "getAddressValueForTermsAttribute",
      "outputs": [
        {
          "internalType": "address",
          "name": "",
          "type": "address"
        }
      ],
      "stateMutability": "view",
      "type": "function"
    },
    {
      "inputs": [
        {
          "internalType": "bytes32",
          "name": "assetId",
          "type": "bytes32"
        },
        {
          "internalType": "bytes32",
          "name": "attribute",
          "type": "bytes32"
        }
      ],
      "name": "getBytes32ValueForTermsAttribute",
      "outputs": [
        {
          "internalType": "bytes32",
          "name": "",
          "type": "bytes32"
        }
      ],
      "stateMutability": "view",
      "type": "function"
    },
    {
      "inputs": [
        {
          "internalType": "bytes32",
          "name": "assetId",
          "type": "bytes32"
        },
        {
          "internalType": "bytes32",
          "name": "attribute",
          "type": "bytes32"
        }
      ],
      "name": "getContractReferenceValueForTermsAttribute",
      "outputs": [
        {
          "components": [
            {
              "internalType": "bytes32",
              "name": "object",
              "type": "bytes32"
            },
            {
              "internalType": "bytes32",
              "name": "object2",
              "type": "bytes32"
            },
            {
              "internalType": "enum ContractReferenceType",
              "name": "_type",
              "type": "uint8"
            },
            {
              "internalType": "enum ContractReferenceRole",
              "name": "role",
              "type": "uint8"
            }
          ],
          "internalType": "struct ContractReference",
          "name": "",
          "type": "tuple"
        }
      ],
      "stateMutability": "view",
      "type": "function"
    },
    {
      "inputs": [
        {
          "internalType": "bytes32",
          "name": "assetId",
          "type": "bytes32"
        },
        {
          "internalType": "bytes32",
          "name": "attribute",
          "type": "bytes32"
        }
      ],
      "name": "getCycleValueForTermsAttribute",
      "outputs": [
        {
          "components": [
            {
              "internalType": "uint256",
              "name": "i",
              "type": "uint256"
            },
            {
              "internalType": "enum P",
              "name": "p",
              "type": "uint8"
            },
            {
              "internalType": "enum S",
              "name": "s",
              "type": "uint8"
            },
            {
              "internalType": "bool",
              "name": "isSet",
              "type": "bool"
            }
          ],
          "internalType": "struct IPS",
          "name": "",
          "type": "tuple"
        }
      ],
      "stateMutability": "view",
      "type": "function"
    },
    {
      "inputs": [
        {
          "internalType": "bytes32",
          "name": "assetId",
          "type": "bytes32"
        }
      ],
      "name": "getEngine",
      "outputs": [
        {
          "internalType": "address",
          "name": "",
          "type": "address"
        }
      ],
      "stateMutability": "view",
      "type": "function"
    },
    {
      "inputs": [
        {
          "internalType": "bytes32",
          "name": "assetId",
          "type": "bytes32"
        },
        {
          "internalType": "bytes32",
          "name": "attribute",
          "type": "bytes32"
        }
      ],
      "name": "getEnumValueForStateAttribute",
      "outputs": [
        {
          "internalType": "uint8",
          "name": "",
          "type": "uint8"
        }
      ],
      "stateMutability": "view",
      "type": "function"
    },
    {
      "inputs": [
        {
          "internalType": "bytes32",
          "name": "assetId",
          "type": "bytes32"
        },
        {
          "internalType": "bytes32",
          "name": "attribute",
          "type": "bytes32"
        }
      ],
      "name": "getEnumValueForTermsAttribute",
      "outputs": [
        {
          "internalType": "uint8",
          "name": "",
          "type": "uint8"
        }
      ],
      "stateMutability": "view",
      "type": "function"
    },
    {
      "inputs": [
        {
          "internalType": "enum EventType",
          "name": "eventType",
          "type": "uint8"
        }
      ],
      "name": "getEpochOffset",
      "outputs": [
        {
          "internalType": "uint256",
          "name": "",
          "type": "uint256"
        }
      ],
      "stateMutability": "pure",
      "type": "function"
    },
    {
      "inputs": [
        {
          "internalType": "bytes32",
          "name": "assetId",
          "type": "bytes32"
        },
        {
          "internalType": "uint256",
          "name": "index",
          "type": "uint256"
        }
      ],
      "name": "getEventAtIndex",
      "outputs": [
        {
          "internalType": "bytes32",
          "name": "",
          "type": "bytes32"
        }
      ],
      "stateMutability": "view",
      "type": "function"
    },
    {
      "inputs": [
        {
          "internalType": "bytes32",
          "name": "assetId",
          "type": "bytes32"
        }
      ],
      "name": "getFinalizedState",
      "outputs": [
        {
          "components": [
            {
              "internalType": "enum ContractPerformance",
              "name": "contractPerformance",
              "type": "uint8"
            },
            {
              "internalType": "uint256",
              "name": "statusDate",
              "type": "uint256"
            },
            {
              "internalType": "uint256",
              "name": "nonPerformingDate",
              "type": "uint256"
            },
            {
              "internalType": "uint256",
              "name": "maturityDate",
              "type": "uint256"
            },
            {
              "internalType": "uint256",
              "name": "exerciseDate",
              "type": "uint256"
            },
            {
              "internalType": "uint256",
              "name": "terminationDate",
              "type": "uint256"
            },
            {
              "internalType": "uint256",
              "name": "lastCouponFixingDate",
              "type": "uint256"
            },
            {
              "internalType": "uint256",
              "name": "lastDividendFixingDate",
              "type": "uint256"
            },
            {
              "internalType": "int256",
              "name": "notionalPrincipal",
              "type": "int256"
            },
            {
              "internalType": "int256",
              "name": "accruedInterest",
              "type": "int256"
            },
            {
              "internalType": "int256",
              "name": "feeAccrued",
              "type": "int256"
            },
            {
              "internalType": "int256",
              "name": "nominalInterestRate",
              "type": "int256"
            },
            {
              "internalType": "int256",
              "name": "interestScalingMultiplier",
              "type": "int256"
            },
            {
              "internalType": "int256",
              "name": "notionalScalingMultiplier",
              "type": "int256"
            },
            {
              "internalType": "int256",
              "name": "nextPrincipalRedemptionPayment",
              "type": "int256"
            },
            {
              "internalType": "int256",
              "name": "exerciseAmount",
              "type": "int256"
            },
            {
              "internalType": "int256",
              "name": "exerciseQuantity",
              "type": "int256"
            },
            {
              "internalType": "int256",
              "name": "quantity",
              "type": "int256"
            },
            {
              "internalType": "int256",
              "name": "couponAmountFixed",
              "type": "int256"
            },
            {
              "internalType": "int256",
              "name": "marginFactor",
              "type": "int256"
            },
            {
              "internalType": "int256",
              "name": "adjustmentFactor",
              "type": "int256"
            },
            {
              "internalType": "int256",
              "name": "dividendPaymentAmount",
              "type": "int256"
            },
            {
              "internalType": "int256",
              "name": "splitRatio",
              "type": "int256"
            }
          ],
          "internalType": "struct State",
          "name": "",
          "type": "tuple"
        }
      ],
      "stateMutability": "view",
      "type": "function"
    },
    {
      "inputs": [
        {
          "internalType": "bytes32",
          "name": "assetId",
          "type": "bytes32"
        },
        {
          "internalType": "bytes32",
          "name": "attribute",
          "type": "bytes32"
        }
      ],
      "name": "getIntValueForStateAttribute",
      "outputs": [
        {
          "internalType": "int256",
          "name": "",
          "type": "int256"
        }
      ],
      "stateMutability": "view",
      "type": "function"
    },
    {
      "inputs": [
        {
          "internalType": "bytes32",
          "name": "assetId",
          "type": "bytes32"
        },
        {
          "internalType": "bytes32",
          "name": "attribute",
          "type": "bytes32"
        }
      ],
      "name": "getIntValueForTermsAttribute",
      "outputs": [
        {
          "internalType": "int256",
          "name": "",
          "type": "int256"
        }
      ],
      "stateMutability": "view",
      "type": "function"
    },
    {
      "inputs": [
        {
          "internalType": "bytes32",
          "name": "assetId",
          "type": "bytes32"
        }
      ],
      "name": "getNextScheduleIndex",
      "outputs": [
        {
          "internalType": "uint256",
          "name": "",
          "type": "uint256"
        }
      ],
      "stateMutability": "view",
      "type": "function"
    },
    {
      "inputs": [
        {
          "internalType": "bytes32",
          "name": "assetId",
          "type": "bytes32"
        }
      ],
      "name": "getNextScheduledEvent",
      "outputs": [
        {
          "internalType": "bytes32",
          "name": "",
          "type": "bytes32"
        }
      ],
      "stateMutability": "view",
      "type": "function"
    },
    {
      "inputs": [
        {
          "internalType": "bytes32",
          "name": "assetId",
          "type": "bytes32"
        }
      ],
      "name": "getNextUnderlyingEvent",
      "outputs": [
        {
          "internalType": "bytes32",
          "name": "",
          "type": "bytes32"
        }
      ],
      "stateMutability": "view",
      "type": "function"
    },
    {
      "inputs": [
        {
          "internalType": "bytes32",
          "name": "assetId",
          "type": "bytes32"
        }
      ],
      "name": "getOwnership",
      "outputs": [
        {
          "components": [
            {
              "internalType": "address",
              "name": "creatorObligor",
              "type": "address"
            },
            {
              "internalType": "address",
              "name": "creatorBeneficiary",
              "type": "address"
            },
            {
              "internalType": "address",
              "name": "counterpartyObligor",
              "type": "address"
            },
            {
              "internalType": "address",
              "name": "counterpartyBeneficiary",
              "type": "address"
            }
          ],
          "internalType": "struct AssetOwnership",
          "name": "",
          "type": "tuple"
        }
      ],
      "stateMutability": "view",
      "type": "function"
    },
    {
      "inputs": [
        {
          "internalType": "bytes32",
          "name": "assetId",
          "type": "bytes32"
        }
      ],
      "name": "getPendingEvent",
      "outputs": [
        {
          "internalType": "bytes32",
          "name": "",
          "type": "bytes32"
        }
      ],
      "stateMutability": "view",
      "type": "function"
    },
    {
      "inputs": [
        {
          "internalType": "bytes32",
          "name": "assetId",
          "type": "bytes32"
        },
        {
          "internalType": "bytes32",
          "name": "attribute",
          "type": "bytes32"
        }
      ],
      "name": "getPeriodValueForTermsAttribute",
      "outputs": [
        {
          "components": [
            {
              "internalType": "uint256",
              "name": "i",
              "type": "uint256"
            },
            {
              "internalType": "enum P",
              "name": "p",
              "type": "uint8"
            },
            {
              "internalType": "bool",
              "name": "isSet",
              "type": "bool"
            }
          ],
          "internalType": "struct IP",
          "name": "",
          "type": "tuple"
        }
      ],
      "stateMutability": "view",
      "type": "function"
    },
    {
      "inputs": [
        {
          "internalType": "bytes32",
          "name": "assetId",
          "type": "bytes32"
        }
      ],
      "name": "getSchedule",
      "outputs": [
        {
          "internalType": "bytes32[]",
          "name": "",
          "type": "bytes32[]"
        }
      ],
      "stateMutability": "view",
      "type": "function"
    },
    {
      "inputs": [
        {
          "internalType": "bytes32",
          "name": "assetId",
          "type": "bytes32"
        }
      ],
      "name": "getScheduleLength",
      "outputs": [
        {
          "internalType": "uint256",
          "name": "",
          "type": "uint256"
        }
      ],
      "stateMutability": "view",
      "type": "function"
    },
    {
      "inputs": [
        {
          "internalType": "bytes32",
          "name": "assetId",
          "type": "bytes32"
        }
      ],
      "name": "getState",
      "outputs": [
        {
          "components": [
            {
              "internalType": "enum ContractPerformance",
              "name": "contractPerformance",
              "type": "uint8"
            },
            {
              "internalType": "uint256",
              "name": "statusDate",
              "type": "uint256"
            },
            {
              "internalType": "uint256",
              "name": "nonPerformingDate",
              "type": "uint256"
            },
            {
              "internalType": "uint256",
              "name": "maturityDate",
              "type": "uint256"
            },
            {
              "internalType": "uint256",
              "name": "exerciseDate",
              "type": "uint256"
            },
            {
              "internalType": "uint256",
              "name": "terminationDate",
              "type": "uint256"
            },
            {
              "internalType": "uint256",
              "name": "lastCouponFixingDate",
              "type": "uint256"
            },
            {
              "internalType": "uint256",
              "name": "lastDividendFixingDate",
              "type": "uint256"
            },
            {
              "internalType": "int256",
              "name": "notionalPrincipal",
              "type": "int256"
            },
            {
              "internalType": "int256",
              "name": "accruedInterest",
              "type": "int256"
            },
            {
              "internalType": "int256",
              "name": "feeAccrued",
              "type": "int256"
            },
            {
              "internalType": "int256",
              "name": "nominalInterestRate",
              "type": "int256"
            },
            {
              "internalType": "int256",
              "name": "interestScalingMultiplier",
              "type": "int256"
            },
            {
              "internalType": "int256",
              "name": "notionalScalingMultiplier",
              "type": "int256"
            },
            {
              "internalType": "int256",
              "name": "nextPrincipalRedemptionPayment",
              "type": "int256"
            },
            {
              "internalType": "int256",
              "name": "exerciseAmount",
              "type": "int256"
            },
            {
              "internalType": "int256",
              "name": "exerciseQuantity",
              "type": "int256"
            },
            {
              "internalType": "int256",
              "name": "quantity",
              "type": "int256"
            },
            {
              "internalType": "int256",
              "name": "couponAmountFixed",
              "type": "int256"
            },
            {
              "internalType": "int256",
              "name": "marginFactor",
              "type": "int256"
            },
            {
              "internalType": "int256",
              "name": "adjustmentFactor",
              "type": "int256"
            },
            {
              "internalType": "int256",
              "name": "dividendPaymentAmount",
              "type": "int256"
            },
            {
              "internalType": "int256",
              "name": "splitRatio",
              "type": "int256"
            }
          ],
          "internalType": "struct State",
          "name": "",
          "type": "tuple"
        }
      ],
      "stateMutability": "view",
      "type": "function"
    },
    {
      "inputs": [
        {
          "internalType": "bytes32",
          "name": "assetId",
          "type": "bytes32"
        }
      ],
      "name": "getTerms",
      "outputs": [
        {
          "components": [
            {
              "internalType": "enum ContractType",
              "name": "contractType",
              "type": "uint8"
            },
            {
              "internalType": "enum Calendar",
              "name": "calendar",
              "type": "uint8"
            },
            {
              "internalType": "enum ContractRole",
              "name": "contractRole",
              "type": "uint8"
            },
            {
              "internalType": "enum DayCountConvention",
              "name": "dayCountConvention",
              "type": "uint8"
            },
            {
              "internalType": "enum BusinessDayConvention",
              "name": "businessDayConvention",
              "type": "uint8"
            },
            {
              "internalType": "enum EndOfMonthConvention",
              "name": "endOfMonthConvention",
              "type": "uint8"
            },
            {
              "internalType": "enum ScalingEffect",
              "name": "scalingEffect",
              "type": "uint8"
            },
            {
              "internalType": "enum FeeBasis",
              "name": "feeBasis",
              "type": "uint8"
            },
            {
              "internalType": "address",
              "name": "currency",
              "type": "address"
            },
            {
              "internalType": "address",
              "name": "settlementCurrency",
              "type": "address"
            },
            {
              "internalType": "bytes32",
              "name": "marketObjectCodeRateReset",
              "type": "bytes32"
            },
            {
              "internalType": "uint256",
              "name": "contractDealDate",
              "type": "uint256"
            },
            {
              "internalType": "uint256",
              "name": "statusDate",
              "type": "uint256"
            },
            {
              "internalType": "uint256",
              "name": "initialExchangeDate",
              "type": "uint256"
            },
            {
              "internalType": "uint256",
              "name": "maturityDate",
              "type": "uint256"
            },
            {
              "internalType": "uint256",
              "name": "issueDate",
              "type": "uint256"
            },
            {
              "internalType": "uint256",
              "name": "purchaseDate",
              "type": "uint256"
            },
            {
              "internalType": "uint256",
              "name": "capitalizationEndDate",
              "type": "uint256"
            },
            {
              "internalType": "uint256",
              "name": "cycleAnchorDateOfInterestPayment",
              "type": "uint256"
            },
            {
              "internalType": "uint256",
              "name": "cycleAnchorDateOfRateReset",
              "type": "uint256"
            },
            {
              "internalType": "uint256",
              "name": "cycleAnchorDateOfScalingIndex",
              "type": "uint256"
            },
            {
              "internalType": "uint256",
              "name": "cycleAnchorDateOfFee",
              "type": "uint256"
            },
            {
              "internalType": "uint256",
              "name": "cycleAnchorDateOfPrincipalRedemption",
              "type": "uint256"
            },
            {
              "internalType": "int256",
              "name": "notionalPrincipal",
              "type": "int256"
            },
            {
              "internalType": "int256",
              "name": "nominalInterestRate",
              "type": "int256"
            },
            {
              "internalType": "int256",
              "name": "accruedInterest",
              "type": "int256"
            },
            {
              "internalType": "int256",
              "name": "rateMultiplier",
              "type": "int256"
            },
            {
              "internalType": "int256",
              "name": "rateSpread",
              "type": "int256"
            },
            {
              "internalType": "int256",
              "name": "nextResetRate",
              "type": "int256"
            },
            {
              "internalType": "int256",
              "name": "feeRate",
              "type": "int256"
            },
            {
              "internalType": "int256",
              "name": "feeAccrued",
              "type": "int256"
            },
            {
              "internalType": "int256",
              "name": "premiumDiscountAtIED",
              "type": "int256"
            },
            {
              "internalType": "int256",
              "name": "priceAtPurchaseDate",
              "type": "int256"
            },
            {
              "internalType": "int256",
              "name": "priceAtTerminationDate",
              "type": "int256"
            },
            {
              "internalType": "int256",
              "name": "nextPrincipalRedemptionPayment",
              "type": "int256"
            },
            {
              "internalType": "int256",
              "name": "lifeCap",
              "type": "int256"
            },
            {
              "internalType": "int256",
              "name": "lifeFloor",
              "type": "int256"
            },
            {
              "internalType": "int256",
              "name": "periodCap",
              "type": "int256"
            },
            {
              "internalType": "int256",
              "name": "periodFloor",
              "type": "int256"
            },
            {
              "components": [
                {
                  "internalType": "uint256",
                  "name": "i",
                  "type": "uint256"
                },
                {
                  "internalType": "enum P",
                  "name": "p",
                  "type": "uint8"
                },
                {
                  "internalType": "bool",
                  "name": "isSet",
                  "type": "bool"
                }
              ],
              "internalType": "struct IP",
              "name": "gracePeriod",
              "type": "tuple"
            },
            {
              "components": [
                {
                  "internalType": "uint256",
                  "name": "i",
                  "type": "uint256"
                },
                {
                  "internalType": "enum P",
                  "name": "p",
                  "type": "uint8"
                },
                {
                  "internalType": "bool",
                  "name": "isSet",
                  "type": "bool"
                }
              ],
              "internalType": "struct IP",
              "name": "delinquencyPeriod",
              "type": "tuple"
            },
            {
              "components": [
                {
                  "internalType": "uint256",
                  "name": "i",
                  "type": "uint256"
                },
                {
                  "internalType": "enum P",
                  "name": "p",
                  "type": "uint8"
                },
                {
                  "internalType": "enum S",
                  "name": "s",
                  "type": "uint8"
                },
                {
                  "internalType": "bool",
                  "name": "isSet",
                  "type": "bool"
                }
              ],
              "internalType": "struct IPS",
              "name": "cycleOfInterestPayment",
              "type": "tuple"
            },
            {
              "components": [
                {
                  "internalType": "uint256",
                  "name": "i",
                  "type": "uint256"
                },
                {
                  "internalType": "enum P",
                  "name": "p",
                  "type": "uint8"
                },
                {
                  "internalType": "enum S",
                  "name": "s",
                  "type": "uint8"
                },
                {
                  "internalType": "bool",
                  "name": "isSet",
                  "type": "bool"
                }
              ],
              "internalType": "struct IPS",
              "name": "cycleOfRateReset",
              "type": "tuple"
            },
            {
              "components": [
                {
                  "internalType": "uint256",
                  "name": "i",
                  "type": "uint256"
                },
                {
                  "internalType": "enum P",
                  "name": "p",
                  "type": "uint8"
                },
                {
                  "internalType": "enum S",
                  "name": "s",
                  "type": "uint8"
                },
                {
                  "internalType": "bool",
                  "name": "isSet",
                  "type": "bool"
                }
              ],
              "internalType": "struct IPS",
              "name": "cycleOfScalingIndex",
              "type": "tuple"
            },
            {
              "components": [
                {
                  "internalType": "uint256",
                  "name": "i",
                  "type": "uint256"
                },
                {
                  "internalType": "enum P",
                  "name": "p",
                  "type": "uint8"
                },
                {
                  "internalType": "enum S",
                  "name": "s",
                  "type": "uint8"
                },
                {
                  "internalType": "bool",
                  "name": "isSet",
                  "type": "bool"
                }
              ],
              "internalType": "struct IPS",
              "name": "cycleOfFee",
              "type": "tuple"
            },
            {
              "components": [
                {
                  "internalType": "uint256",
                  "name": "i",
                  "type": "uint256"
                },
                {
                  "internalType": "enum P",
                  "name": "p",
                  "type": "uint8"
                },
                {
                  "internalType": "enum S",
                  "name": "s",
                  "type": "uint8"
                },
                {
                  "internalType": "bool",
                  "name": "isSet",
                  "type": "bool"
                }
              ],
              "internalType": "struct IPS",
              "name": "cycleOfPrincipalRedemption",
              "type": "tuple"
            }
          ],
          "internalType": "struct ANNTerms",
          "name": "",
          "type": "tuple"
        }
      ],
      "stateMutability": "view",
      "type": "function"
    },
    {
      "inputs": [
        {
          "internalType": "bytes32",
          "name": "assetId",
          "type": "bytes32"
        },
        {
          "internalType": "bytes32",
          "name": "attribute",
          "type": "bytes32"
        }
      ],
      "name": "getUIntValueForTermsAttribute",
      "outputs": [
        {
          "internalType": "uint256",
          "name": "",
          "type": "uint256"
        }
      ],
      "stateMutability": "view",
      "type": "function"
    },
    {
      "inputs": [
        {
          "internalType": "bytes32",
          "name": "assetId",
          "type": "bytes32"
        },
        {
          "internalType": "bytes32",
          "name": "attribute",
          "type": "bytes32"
        }
      ],
      "name": "getUintValueForStateAttribute",
      "outputs": [
        {
          "internalType": "uint256",
          "name": "",
          "type": "uint256"
        }
      ],
      "stateMutability": "view",
      "type": "function"
    },
    {
      "inputs": [
        {
          "internalType": "bytes32",
          "name": "assetId",
          "type": "bytes32"
        },
        {
          "internalType": "bytes4",
          "name": "methodSignature",
          "type": "bytes4"
        },
        {
          "internalType": "address",
          "name": "account",
          "type": "address"
        }
      ],
      "name": "grantAccess",
      "outputs": [],
      "stateMutability": "nonpayable",
      "type": "function"
    },
    {
      "inputs": [
        {
          "internalType": "bytes32",
          "name": "assetId",
          "type": "bytes32"
        },
        {
          "internalType": "bytes4",
          "name": "methodSignature",
          "type": "bytes4"
        },
        {
          "internalType": "address",
          "name": "account",
          "type": "address"
        }
      ],
      "name": "hasAccess",
      "outputs": [
        {
          "internalType": "bool",
          "name": "",
          "type": "bool"
        }
      ],
      "stateMutability": "view",
      "type": "function"
    },
    {
      "inputs": [
        {
          "internalType": "bytes32",
          "name": "assetId",
          "type": "bytes32"
        },
        {
          "internalType": "address",
          "name": "account",
          "type": "address"
        }
      ],
      "name": "hasRootAccess",
      "outputs": [
        {
          "internalType": "bool",
          "name": "",
          "type": "bool"
        }
      ],
      "stateMutability": "view",
      "type": "function"
    },
    {
      "inputs": [
        {
          "internalType": "bytes32",
          "name": "assetId",
          "type": "bytes32"
        },
        {
          "internalType": "bytes32",
          "name": "_event",
          "type": "bytes32"
        }
      ],
      "name": "isEventSettled",
      "outputs": [
        {
          "internalType": "bool",
          "name": "",
          "type": "bool"
        },
        {
          "internalType": "int256",
          "name": "",
          "type": "int256"
        }
      ],
      "stateMutability": "view",
      "type": "function"
    },
    {
      "inputs": [
        {
          "internalType": "bytes32",
          "name": "assetId",
          "type": "bytes32"
        }
      ],
      "name": "isRegistered",
      "outputs": [
        {
          "internalType": "bool",
          "name": "",
          "type": "bool"
        }
      ],
      "stateMutability": "view",
      "type": "function"
    },
    {
      "inputs": [
        {
          "internalType": "bytes32",
          "name": "assetId",
          "type": "bytes32"
        },
        {
          "internalType": "bytes32",
          "name": "_event",
          "type": "bytes32"
        },
        {
          "internalType": "int256",
          "name": "_payoff",
          "type": "int256"
        }
      ],
      "name": "markEventAsSettled",
      "outputs": [],
      "stateMutability": "nonpayable",
      "type": "function"
    },
    {
      "inputs": [],
      "name": "owner",
      "outputs": [
        {
          "internalType": "address",
          "name": "",
          "type": "address"
        }
      ],
      "stateMutability": "view",
      "type": "function"
    },
    {
      "inputs": [
        {
          "internalType": "bytes32",
          "name": "assetId",
          "type": "bytes32"
        }
      ],
      "name": "popNextScheduledEvent",
      "outputs": [
        {
          "internalType": "bytes32",
          "name": "",
          "type": "bytes32"
        }
      ],
      "stateMutability": "nonpayable",
      "type": "function"
    },
    {
      "inputs": [
        {
          "internalType": "bytes32",
          "name": "assetId",
          "type": "bytes32"
        }
      ],
      "name": "popPendingEvent",
      "outputs": [
        {
          "internalType": "bytes32",
          "name": "",
          "type": "bytes32"
        }
      ],
      "stateMutability": "nonpayable",
      "type": "function"
    },
    {
      "inputs": [
        {
          "internalType": "bytes32",
          "name": "assetId",
          "type": "bytes32"
        },
        {
          "internalType": "bytes32",
          "name": "pendingEvent",
          "type": "bytes32"
        }
      ],
      "name": "pushPendingEvent",
      "outputs": [],
      "stateMutability": "nonpayable",
      "type": "function"
    },
    {
      "inputs": [
        {
          "internalType": "bytes32",
          "name": "assetId",
          "type": "bytes32"
        },
        {
          "components": [
            {
              "internalType": "enum ContractType",
              "name": "contractType",
              "type": "uint8"
            },
            {
              "internalType": "enum Calendar",
              "name": "calendar",
              "type": "uint8"
            },
            {
              "internalType": "enum ContractRole",
              "name": "contractRole",
              "type": "uint8"
            },
            {
              "internalType": "enum DayCountConvention",
              "name": "dayCountConvention",
              "type": "uint8"
            },
            {
              "internalType": "enum BusinessDayConvention",
              "name": "businessDayConvention",
              "type": "uint8"
            },
            {
              "internalType": "enum EndOfMonthConvention",
              "name": "endOfMonthConvention",
              "type": "uint8"
            },
            {
              "internalType": "enum ScalingEffect",
              "name": "scalingEffect",
              "type": "uint8"
            },
            {
              "internalType": "enum FeeBasis",
              "name": "feeBasis",
              "type": "uint8"
            },
            {
              "internalType": "address",
              "name": "currency",
              "type": "address"
            },
            {
              "internalType": "address",
              "name": "settlementCurrency",
              "type": "address"
            },
            {
              "internalType": "bytes32",
              "name": "marketObjectCodeRateReset",
              "type": "bytes32"
            },
            {
              "internalType": "uint256",
              "name": "contractDealDate",
              "type": "uint256"
            },
            {
              "internalType": "uint256",
              "name": "statusDate",
              "type": "uint256"
            },
            {
              "internalType": "uint256",
              "name": "initialExchangeDate",
              "type": "uint256"
            },
            {
              "internalType": "uint256",
              "name": "maturityDate",
              "type": "uint256"
            },
            {
              "internalType": "uint256",
              "name": "issueDate",
              "type": "uint256"
            },
            {
              "internalType": "uint256",
              "name": "purchaseDate",
              "type": "uint256"
            },
            {
              "internalType": "uint256",
              "name": "capitalizationEndDate",
              "type": "uint256"
            },
            {
              "internalType": "uint256",
              "name": "cycleAnchorDateOfInterestPayment",
              "type": "uint256"
            },
            {
              "internalType": "uint256",
              "name": "cycleAnchorDateOfRateReset",
              "type": "uint256"
            },
            {
              "internalType": "uint256",
              "name": "cycleAnchorDateOfScalingIndex",
              "type": "uint256"
            },
            {
              "internalType": "uint256",
              "name": "cycleAnchorDateOfFee",
              "type": "uint256"
            },
            {
              "internalType": "uint256",
              "name": "cycleAnchorDateOfPrincipalRedemption",
              "type": "uint256"
            },
            {
              "internalType": "int256",
              "name": "notionalPrincipal",
              "type": "int256"
            },
            {
              "internalType": "int256",
              "name": "nominalInterestRate",
              "type": "int256"
            },
            {
              "internalType": "int256",
              "name": "accruedInterest",
              "type": "int256"
            },
            {
              "internalType": "int256",
              "name": "rateMultiplier",
              "type": "int256"
            },
            {
              "internalType": "int256",
              "name": "rateSpread",
              "type": "int256"
            },
            {
              "internalType": "int256",
              "name": "nextResetRate",
              "type": "int256"
            },
            {
              "internalType": "int256",
              "name": "feeRate",
              "type": "int256"
            },
            {
              "internalType": "int256",
              "name": "feeAccrued",
              "type": "int256"
            },
            {
              "internalType": "int256",
              "name": "premiumDiscountAtIED",
              "type": "int256"
            },
            {
              "internalType": "int256",
              "name": "priceAtPurchaseDate",
              "type": "int256"
            },
            {
              "internalType": "int256",
              "name": "priceAtTerminationDate",
              "type": "int256"
            },
            {
              "internalType": "int256",
              "name": "nextPrincipalRedemptionPayment",
              "type": "int256"
            },
            {
              "internalType": "int256",
              "name": "lifeCap",
              "type": "int256"
            },
            {
              "internalType": "int256",
              "name": "lifeFloor",
              "type": "int256"
            },
            {
              "internalType": "int256",
              "name": "periodCap",
              "type": "int256"
            },
            {
              "internalType": "int256",
              "name": "periodFloor",
              "type": "int256"
            },
            {
              "components": [
                {
                  "internalType": "uint256",
                  "name": "i",
                  "type": "uint256"
                },
                {
                  "internalType": "enum P",
                  "name": "p",
                  "type": "uint8"
                },
                {
                  "internalType": "bool",
                  "name": "isSet",
                  "type": "bool"
                }
              ],
              "internalType": "struct IP",
              "name": "gracePeriod",
              "type": "tuple"
            },
            {
              "components": [
                {
                  "internalType": "uint256",
                  "name": "i",
                  "type": "uint256"
                },
                {
                  "internalType": "enum P",
                  "name": "p",
                  "type": "uint8"
                },
                {
                  "internalType": "bool",
                  "name": "isSet",
                  "type": "bool"
                }
              ],
              "internalType": "struct IP",
              "name": "delinquencyPeriod",
              "type": "tuple"
            },
            {
              "components": [
                {
                  "internalType": "uint256",
                  "name": "i",
                  "type": "uint256"
                },
                {
                  "internalType": "enum P",
                  "name": "p",
                  "type": "uint8"
                },
                {
                  "internalType": "enum S",
                  "name": "s",
                  "type": "uint8"
                },
                {
                  "internalType": "bool",
                  "name": "isSet",
                  "type": "bool"
                }
              ],
              "internalType": "struct IPS",
              "name": "cycleOfInterestPayment",
              "type": "tuple"
            },
            {
              "components": [
                {
                  "internalType": "uint256",
                  "name": "i",
                  "type": "uint256"
                },
                {
                  "internalType": "enum P",
                  "name": "p",
                  "type": "uint8"
                },
                {
                  "internalType": "enum S",
                  "name": "s",
                  "type": "uint8"
                },
                {
                  "internalType": "bool",
                  "name": "isSet",
                  "type": "bool"
                }
              ],
              "internalType": "struct IPS",
              "name": "cycleOfRateReset",
              "type": "tuple"
            },
            {
              "components": [
                {
                  "internalType": "uint256",
                  "name": "i",
                  "type": "uint256"
                },
                {
                  "internalType": "enum P",
                  "name": "p",
                  "type": "uint8"
                },
                {
                  "internalType": "enum S",
                  "name": "s",
                  "type": "uint8"
                },
                {
                  "internalType": "bool",
                  "name": "isSet",
                  "type": "bool"
                }
              ],
              "internalType": "struct IPS",
              "name": "cycleOfScalingIndex",
              "type": "tuple"
            },
            {
              "components": [
                {
                  "internalType": "uint256",
                  "name": "i",
                  "type": "uint256"
                },
                {
                  "internalType": "enum P",
                  "name": "p",
                  "type": "uint8"
                },
                {
                  "internalType": "enum S",
                  "name": "s",
                  "type": "uint8"
                },
                {
                  "internalType": "bool",
                  "name": "isSet",
                  "type": "bool"
                }
              ],
              "internalType": "struct IPS",
              "name": "cycleOfFee",
              "type": "tuple"
            },
            {
              "components": [
                {
                  "internalType": "uint256",
                  "name": "i",
                  "type": "uint256"
                },
                {
                  "internalType": "enum P",
                  "name": "p",
                  "type": "uint8"
                },
                {
                  "internalType": "enum S",
                  "name": "s",
                  "type": "uint8"
                },
                {
                  "internalType": "bool",
                  "name": "isSet",
                  "type": "bool"
                }
              ],
              "internalType": "struct IPS",
              "name": "cycleOfPrincipalRedemption",
              "type": "tuple"
            }
          ],
          "internalType": "struct ANNTerms",
          "name": "terms",
          "type": "tuple"
        },
        {
          "components": [
            {
              "internalType": "enum ContractPerformance",
              "name": "contractPerformance",
              "type": "uint8"
            },
            {
              "internalType": "uint256",
              "name": "statusDate",
              "type": "uint256"
            },
            {
              "internalType": "uint256",
              "name": "nonPerformingDate",
              "type": "uint256"
            },
            {
              "internalType": "uint256",
              "name": "maturityDate",
              "type": "uint256"
            },
            {
              "internalType": "uint256",
              "name": "exerciseDate",
              "type": "uint256"
            },
            {
              "internalType": "uint256",
              "name": "terminationDate",
              "type": "uint256"
            },
            {
              "internalType": "uint256",
              "name": "lastCouponFixingDate",
              "type": "uint256"
            },
            {
              "internalType": "uint256",
              "name": "lastDividendFixingDate",
              "type": "uint256"
            },
            {
              "internalType": "int256",
              "name": "notionalPrincipal",
              "type": "int256"
            },
            {
              "internalType": "int256",
              "name": "accruedInterest",
              "type": "int256"
            },
            {
              "internalType": "int256",
              "name": "feeAccrued",
              "type": "int256"
            },
            {
              "internalType": "int256",
              "name": "nominalInterestRate",
              "type": "int256"
            },
            {
              "internalType": "int256",
              "name": "interestScalingMultiplier",
              "type": "int256"
            },
            {
              "internalType": "int256",
              "name": "notionalScalingMultiplier",
              "type": "int256"
            },
            {
              "internalType": "int256",
              "name": "nextPrincipalRedemptionPayment",
              "type": "int256"
            },
            {
              "internalType": "int256",
              "name": "exerciseAmount",
              "type": "int256"
            },
            {
              "internalType": "int256",
              "name": "exerciseQuantity",
              "type": "int256"
            },
            {
              "internalType": "int256",
              "name": "quantity",
              "type": "int256"
            },
            {
              "internalType": "int256",
              "name": "couponAmountFixed",
              "type": "int256"
            },
            {
              "internalType": "int256",
              "name": "marginFactor",
              "type": "int256"
            },
            {
              "internalType": "int256",
              "name": "adjustmentFactor",
              "type": "int256"
            },
            {
              "internalType": "int256",
              "name": "dividendPaymentAmount",
              "type": "int256"
            },
            {
              "internalType": "int256",
              "name": "splitRatio",
              "type": "int256"
            }
          ],
          "internalType": "struct State",
          "name": "state",
          "type": "tuple"
        },
        {
          "internalType": "bytes32[]",
          "name": "schedule",
          "type": "bytes32[]"
        },
        {
          "components": [
            {
              "internalType": "address",
              "name": "creatorObligor",
              "type": "address"
            },
            {
              "internalType": "address",
              "name": "creatorBeneficiary",
              "type": "address"
            },
            {
              "internalType": "address",
              "name": "counterpartyObligor",
              "type": "address"
            },
            {
              "internalType": "address",
              "name": "counterpartyBeneficiary",
              "type": "address"
            }
          ],
          "internalType": "struct AssetOwnership",
          "name": "ownership",
          "type": "tuple"
        },
        {
          "internalType": "address",
          "name": "engine",
          "type": "address"
        },
        {
          "internalType": "address",
          "name": "actor",
          "type": "address"
        },
        {
          "internalType": "address",
          "name": "admin",
          "type": "address"
        }
      ],
      "name": "registerAsset",
      "outputs": [],
      "stateMutability": "nonpayable",
      "type": "function"
    },
    {
      "inputs": [],
      "name": "renounceOwnership",
      "outputs": [],
      "stateMutability": "nonpayable",
      "type": "function"
    },
    {
      "inputs": [
        {
          "internalType": "bytes32",
          "name": "assetId",
          "type": "bytes32"
        },
        {
          "internalType": "bytes4",
          "name": "methodSignature",
          "type": "bytes4"
        },
        {
          "internalType": "address",
          "name": "account",
          "type": "address"
        }
      ],
      "name": "revokeAccess",
      "outputs": [],
      "stateMutability": "nonpayable",
      "type": "function"
    },
    {
      "inputs": [
        {
          "internalType": "bytes32",
          "name": "assetId",
          "type": "bytes32"
        },
        {
          "internalType": "address",
          "name": "actor",
          "type": "address"
        }
      ],
      "name": "setActor",
      "outputs": [],
      "stateMutability": "nonpayable",
      "type": "function"
    },
    {
      "inputs": [
        {
          "internalType": "bytes32",
          "name": "assetId",
          "type": "bytes32"
        },
        {
          "internalType": "address",
          "name": "newCounterpartyBeneficiary",
          "type": "address"
        }
      ],
      "name": "setCounterpartyBeneficiary",
      "outputs": [],
      "stateMutability": "nonpayable",
      "type": "function"
    },
    {
      "inputs": [
        {
          "internalType": "bytes32",
          "name": "assetId",
          "type": "bytes32"
        },
        {
          "internalType": "address",
          "name": "newCounterpartyObligor",
          "type": "address"
        }
      ],
      "name": "setCounterpartyObligor",
      "outputs": [],
      "stateMutability": "nonpayable",
      "type": "function"
    },
    {
      "inputs": [
        {
          "internalType": "bytes32",
          "name": "assetId",
          "type": "bytes32"
        },
        {
          "internalType": "address",
          "name": "newCreatorBeneficiary",
          "type": "address"
        }
      ],
      "name": "setCreatorBeneficiary",
      "outputs": [],
      "stateMutability": "nonpayable",
      "type": "function"
    },
    {
      "inputs": [
        {
          "internalType": "bytes32",
          "name": "assetId",
          "type": "bytes32"
        },
        {
          "internalType": "address",
          "name": "newCreatorObligor",
          "type": "address"
        }
      ],
      "name": "setCreatorObligor",
      "outputs": [],
      "stateMutability": "nonpayable",
      "type": "function"
    },
    {
      "inputs": [
        {
          "internalType": "bytes32",
          "name": "assetId",
          "type": "bytes32"
        },
        {
          "internalType": "address",
          "name": "engine",
          "type": "address"
        }
      ],
      "name": "setEngine",
      "outputs": [],
      "stateMutability": "nonpayable",
      "type": "function"
    },
    {
      "inputs": [
        {
          "internalType": "bytes32",
          "name": "assetId",
          "type": "bytes32"
        },
        {
          "components": [
            {
              "internalType": "enum ContractPerformance",
              "name": "contractPerformance",
              "type": "uint8"
            },
            {
              "internalType": "uint256",
              "name": "statusDate",
              "type": "uint256"
            },
            {
              "internalType": "uint256",
              "name": "nonPerformingDate",
              "type": "uint256"
            },
            {
              "internalType": "uint256",
              "name": "maturityDate",
              "type": "uint256"
            },
            {
              "internalType": "uint256",
              "name": "exerciseDate",
              "type": "uint256"
            },
            {
              "internalType": "uint256",
              "name": "terminationDate",
              "type": "uint256"
            },
            {
              "internalType": "uint256",
              "name": "lastCouponFixingDate",
              "type": "uint256"
            },
            {
              "internalType": "uint256",
              "name": "lastDividendFixingDate",
              "type": "uint256"
            },
            {
              "internalType": "int256",
              "name": "notionalPrincipal",
              "type": "int256"
            },
            {
              "internalType": "int256",
              "name": "accruedInterest",
              "type": "int256"
            },
            {
              "internalType": "int256",
              "name": "feeAccrued",
              "type": "int256"
            },
            {
              "internalType": "int256",
              "name": "nominalInterestRate",
              "type": "int256"
            },
            {
              "internalType": "int256",
              "name": "interestScalingMultiplier",
              "type": "int256"
            },
            {
              "internalType": "int256",
              "name": "notionalScalingMultiplier",
              "type": "int256"
            },
            {
              "internalType": "int256",
              "name": "nextPrincipalRedemptionPayment",
              "type": "int256"
            },
            {
              "internalType": "int256",
              "name": "exerciseAmount",
              "type": "int256"
            },
            {
              "internalType": "int256",
              "name": "exerciseQuantity",
              "type": "int256"
            },
            {
              "internalType": "int256",
              "name": "quantity",
              "type": "int256"
            },
            {
              "internalType": "int256",
              "name": "couponAmountFixed",
              "type": "int256"
            },
            {
              "internalType": "int256",
              "name": "marginFactor",
              "type": "int256"
            },
            {
              "internalType": "int256",
              "name": "adjustmentFactor",
              "type": "int256"
            },
            {
              "internalType": "int256",
              "name": "dividendPaymentAmount",
              "type": "int256"
            },
            {
              "internalType": "int256",
              "name": "splitRatio",
              "type": "int256"
            }
          ],
          "internalType": "struct State",
          "name": "state",
          "type": "tuple"
        }
      ],
      "name": "setFinalizedState",
      "outputs": [],
      "stateMutability": "nonpayable",
      "type": "function"
    },
    {
      "inputs": [
        {
          "internalType": "bytes32",
          "name": "assetId",
          "type": "bytes32"
        },
        {
          "components": [
            {
              "internalType": "enum ContractPerformance",
              "name": "contractPerformance",
              "type": "uint8"
            },
            {
              "internalType": "uint256",
              "name": "statusDate",
              "type": "uint256"
            },
            {
              "internalType": "uint256",
              "name": "nonPerformingDate",
              "type": "uint256"
            },
            {
              "internalType": "uint256",
              "name": "maturityDate",
              "type": "uint256"
            },
            {
              "internalType": "uint256",
              "name": "exerciseDate",
              "type": "uint256"
            },
            {
              "internalType": "uint256",
              "name": "terminationDate",
              "type": "uint256"
            },
            {
              "internalType": "uint256",
              "name": "lastCouponFixingDate",
              "type": "uint256"
            },
            {
              "internalType": "uint256",
              "name": "lastDividendFixingDate",
              "type": "uint256"
            },
            {
              "internalType": "int256",
              "name": "notionalPrincipal",
              "type": "int256"
            },
            {
              "internalType": "int256",
              "name": "accruedInterest",
              "type": "int256"
            },
            {
              "internalType": "int256",
              "name": "feeAccrued",
              "type": "int256"
            },
            {
              "internalType": "int256",
              "name": "nominalInterestRate",
              "type": "int256"
            },
            {
              "internalType": "int256",
              "name": "interestScalingMultiplier",
              "type": "int256"
            },
            {
              "internalType": "int256",
              "name": "notionalScalingMultiplier",
              "type": "int256"
            },
            {
              "internalType": "int256",
              "name": "nextPrincipalRedemptionPayment",
              "type": "int256"
            },
            {
              "internalType": "int256",
              "name": "exerciseAmount",
              "type": "int256"
            },
            {
              "internalType": "int256",
              "name": "exerciseQuantity",
              "type": "int256"
            },
            {
              "internalType": "int256",
              "name": "quantity",
              "type": "int256"
            },
            {
              "internalType": "int256",
              "name": "couponAmountFixed",
              "type": "int256"
            },
            {
              "internalType": "int256",
              "name": "marginFactor",
              "type": "int256"
            },
            {
              "internalType": "int256",
              "name": "adjustmentFactor",
              "type": "int256"
            },
            {
              "internalType": "int256",
              "name": "dividendPaymentAmount",
              "type": "int256"
            },
            {
              "internalType": "int256",
              "name": "splitRatio",
              "type": "int256"
            }
          ],
          "internalType": "struct State",
          "name": "state",
          "type": "tuple"
        }
      ],
      "name": "setState",
      "outputs": [],
      "stateMutability": "nonpayable",
      "type": "function"
    },
    {
      "inputs": [
        {
          "internalType": "bytes32",
          "name": "assetId",
          "type": "bytes32"
        },
        {
          "components": [
            {
              "internalType": "enum ContractType",
              "name": "contractType",
              "type": "uint8"
            },
            {
              "internalType": "enum Calendar",
              "name": "calendar",
              "type": "uint8"
            },
            {
              "internalType": "enum ContractRole",
              "name": "contractRole",
              "type": "uint8"
            },
            {
              "internalType": "enum DayCountConvention",
              "name": "dayCountConvention",
              "type": "uint8"
            },
            {
              "internalType": "enum BusinessDayConvention",
              "name": "businessDayConvention",
              "type": "uint8"
            },
            {
              "internalType": "enum EndOfMonthConvention",
              "name": "endOfMonthConvention",
              "type": "uint8"
            },
            {
              "internalType": "enum ScalingEffect",
              "name": "scalingEffect",
              "type": "uint8"
            },
            {
              "internalType": "enum FeeBasis",
              "name": "feeBasis",
              "type": "uint8"
            },
            {
              "internalType": "address",
              "name": "currency",
              "type": "address"
            },
            {
              "internalType": "address",
              "name": "settlementCurrency",
              "type": "address"
            },
            {
              "internalType": "bytes32",
              "name": "marketObjectCodeRateReset",
              "type": "bytes32"
            },
            {
              "internalType": "uint256",
              "name": "contractDealDate",
              "type": "uint256"
            },
            {
              "internalType": "uint256",
              "name": "statusDate",
              "type": "uint256"
            },
            {
              "internalType": "uint256",
              "name": "initialExchangeDate",
              "type": "uint256"
            },
            {
              "internalType": "uint256",
              "name": "maturityDate",
              "type": "uint256"
            },
            {
              "internalType": "uint256",
              "name": "issueDate",
              "type": "uint256"
            },
            {
              "internalType": "uint256",
              "name": "purchaseDate",
              "type": "uint256"
            },
            {
              "internalType": "uint256",
              "name": "capitalizationEndDate",
              "type": "uint256"
            },
            {
              "internalType": "uint256",
              "name": "cycleAnchorDateOfInterestPayment",
              "type": "uint256"
            },
            {
              "internalType": "uint256",
              "name": "cycleAnchorDateOfRateReset",
              "type": "uint256"
            },
            {
              "internalType": "uint256",
              "name": "cycleAnchorDateOfScalingIndex",
              "type": "uint256"
            },
            {
              "internalType": "uint256",
              "name": "cycleAnchorDateOfFee",
              "type": "uint256"
            },
            {
              "internalType": "uint256",
              "name": "cycleAnchorDateOfPrincipalRedemption",
              "type": "uint256"
            },
            {
              "internalType": "int256",
              "name": "notionalPrincipal",
              "type": "int256"
            },
            {
              "internalType": "int256",
              "name": "nominalInterestRate",
              "type": "int256"
            },
            {
              "internalType": "int256",
              "name": "accruedInterest",
              "type": "int256"
            },
            {
              "internalType": "int256",
              "name": "rateMultiplier",
              "type": "int256"
            },
            {
              "internalType": "int256",
              "name": "rateSpread",
              "type": "int256"
            },
            {
              "internalType": "int256",
              "name": "nextResetRate",
              "type": "int256"
            },
            {
              "internalType": "int256",
              "name": "feeRate",
              "type": "int256"
            },
            {
              "internalType": "int256",
              "name": "feeAccrued",
              "type": "int256"
            },
            {
              "internalType": "int256",
              "name": "premiumDiscountAtIED",
              "type": "int256"
            },
            {
              "internalType": "int256",
              "name": "priceAtPurchaseDate",
              "type": "int256"
            },
            {
              "internalType": "int256",
              "name": "priceAtTerminationDate",
              "type": "int256"
            },
            {
              "internalType": "int256",
              "name": "nextPrincipalRedemptionPayment",
              "type": "int256"
            },
            {
              "internalType": "int256",
              "name": "lifeCap",
              "type": "int256"
            },
            {
              "internalType": "int256",
              "name": "lifeFloor",
              "type": "int256"
            },
            {
              "internalType": "int256",
              "name": "periodCap",
              "type": "int256"
            },
            {
              "internalType": "int256",
              "name": "periodFloor",
              "type": "int256"
            },
            {
              "components": [
                {
                  "internalType": "uint256",
                  "name": "i",
                  "type": "uint256"
                },
                {
                  "internalType": "enum P",
                  "name": "p",
                  "type": "uint8"
                },
                {
                  "internalType": "bool",
                  "name": "isSet",
                  "type": "bool"
                }
              ],
              "internalType": "struct IP",
              "name": "gracePeriod",
              "type": "tuple"
            },
            {
              "components": [
                {
                  "internalType": "uint256",
                  "name": "i",
                  "type": "uint256"
                },
                {
                  "internalType": "enum P",
                  "name": "p",
                  "type": "uint8"
                },
                {
                  "internalType": "bool",
                  "name": "isSet",
                  "type": "bool"
                }
              ],
              "internalType": "struct IP",
              "name": "delinquencyPeriod",
              "type": "tuple"
            },
            {
              "components": [
                {
                  "internalType": "uint256",
                  "name": "i",
                  "type": "uint256"
                },
                {
                  "internalType": "enum P",
                  "name": "p",
                  "type": "uint8"
                },
                {
                  "internalType": "enum S",
                  "name": "s",
                  "type": "uint8"
                },
                {
                  "internalType": "bool",
                  "name": "isSet",
                  "type": "bool"
                }
              ],
              "internalType": "struct IPS",
              "name": "cycleOfInterestPayment",
              "type": "tuple"
            },
            {
              "components": [
                {
                  "internalType": "uint256",
                  "name": "i",
                  "type": "uint256"
                },
                {
                  "internalType": "enum P",
                  "name": "p",
                  "type": "uint8"
                },
                {
                  "internalType": "enum S",
                  "name": "s",
                  "type": "uint8"
                },
                {
                  "internalType": "bool",
                  "name": "isSet",
                  "type": "bool"
                }
              ],
              "internalType": "struct IPS",
              "name": "cycleOfRateReset",
              "type": "tuple"
            },
            {
              "components": [
                {
                  "internalType": "uint256",
                  "name": "i",
                  "type": "uint256"
                },
                {
                  "internalType": "enum P",
                  "name": "p",
                  "type": "uint8"
                },
                {
                  "internalType": "enum S",
                  "name": "s",
                  "type": "uint8"
                },
                {
                  "internalType": "bool",
                  "name": "isSet",
                  "type": "bool"
                }
              ],
              "internalType": "struct IPS",
              "name": "cycleOfScalingIndex",
              "type": "tuple"
            },
            {
              "components": [
                {
                  "internalType": "uint256",
                  "name": "i",
                  "type": "uint256"
                },
                {
                  "internalType": "enum P",
                  "name": "p",
                  "type": "uint8"
                },
                {
                  "internalType": "enum S",
                  "name": "s",
                  "type": "uint8"
                },
                {
                  "internalType": "bool",
                  "name": "isSet",
                  "type": "bool"
                }
              ],
              "internalType": "struct IPS",
              "name": "cycleOfFee",
              "type": "tuple"
            },
            {
              "components": [
                {
                  "internalType": "uint256",
                  "name": "i",
                  "type": "uint256"
                },
                {
                  "internalType": "enum P",
                  "name": "p",
                  "type": "uint8"
                },
                {
                  "internalType": "enum S",
                  "name": "s",
                  "type": "uint8"
                },
                {
                  "internalType": "bool",
                  "name": "isSet",
                  "type": "bool"
                }
              ],
              "internalType": "struct IPS",
              "name": "cycleOfPrincipalRedemption",
              "type": "tuple"
            }
          ],
          "internalType": "struct ANNTerms",
          "name": "terms",
          "type": "tuple"
        }
      ],
      "name": "setTerms",
      "outputs": [],
      "stateMutability": "nonpayable",
      "type": "function"
    },
    {
      "inputs": [
        {
          "internalType": "address",
          "name": "newOwner",
          "type": "address"
        }
      ],
      "name": "transferOwnership",
      "outputs": [],
      "stateMutability": "nonpayable",
      "type": "function"
    }
  ],
  "transactionHash": "0x7387ede6af4ed59f81f8f5b934b331284cf67fc0e57596dd43298d995b866da2",
  "args": [],
  "solcInputHash": "9f67175c1fda3401d369e9c5efd0dbe5",
  "bytecode": "0x60806040523480156200001157600080fd5b5060006200001e6200006e565b600080546001600160a01b0319166001600160a01b0383169081178255604051929350917f8be0079c531659141344cd1fd0a4f28419497f9722a3daafe3b4186f6b6457e0908290a35062000072565b3390565b6158ad80620000826000396000f3fe608060405234801561001057600080fd5b506004361061030c5760003560e01c8063842962d51161019d578063cf5aed12116100e9578063e7dc3188116100a2578063ecef55771161007c578063ecef55771461072e578063ee43eda114610741578063f2fde38b14610754578063f52f84e1146107675761030c565b8063e7dc3188146106f5578063e8f7ca3e14610708578063eb0125591461071b5761030c565b8063cf5aed1214610669578063d51dc3dc14610689578063d981e7731461069c578063de07a173146106af578063e05a66e0146106c2578063e50e0ef7146106d55761030c565b8063b461dd4f11610156578063bc6a7d7611610130578063bc6a7d7614610610578063bd1f0a6c14610630578063c3b6e7c214610643578063ccfc347e146106565761030c565b8063b461dd4f146105c9578063b8282041146105dc578063ba4d2d28146105ef5761030c565b8063842962d5146105485780638da5cb5b1461055b578063a17b75b514610570578063b02ca0c014610583578063b0b4888f14610596578063b3c45ebe146105b65761030c565b80633a60d6fe1161025c5780636a899b9b11610215578063715018a6116101ef578063715018a6146104f9578063725400031461050157806375e86ae414610522578063811322fb146105355761030c565b80636a899b9b146104a65780636be39bda146104b95780636fe55baa146104d95761030c565b80633a60d6fe1461043a5780633adc277a1461044d578063512872f41461046d57806353edfb2f146104805780636031a09414610493578063606aa07e146104a65761030c565b80631717e867116102c957806328e0f8a9116102a357806328e0f8a9146103ee5780633549d08d1461040157806337462dba1461041457806339262e87146104275761030c565b80631717e867146103a85780631b126815146103bb57806327258b22146103db5761030c565b806303a81a2a1461031157806309648a9d146103265780630c5b75a41461034f5780630d62037a1461036f578063135b9f4d146103825780631374bae614610395575b600080fd5b61032461031f36600461418d565b61077a565b005b61033961033436600461415d565b61084f565b6040516103469190615659565b60405180910390f35b61036261035d36600461415d565b610876565b6040516103469190614d14565b61032461037d36600461418d565b6108ed565b6103626103903660046141bc565b610992565b6103246103a3366004614282565b610a31565b6103246103b6366004614208565b610b40565b6103ce6103c9366004614208565b610bf6565b6040516103469190614cf9565b6103ce6103e936600461415d565b610c73565b6103626103fc36600461415d565b610c88565b61032461040f36600461418d565b610c9d565b61033961042236600461415d565b610d78565b610324610435366004614208565b610d97565b610324610448366004614368565b610e3c565b61046061045b36600461415d565b610efc565b6040516103469190614cb5565b61032461047b36600461418d565b610f16565b61032461048e366004614255565b610fdd565b6103246104a136600461418d565b6110dd565b6103626104b43660046141bc565b6111b8565b6104cc6104c736600461415d565b6111d0565b6040516103469190615264565b6104ec6104e73660046141bc565b61126e565b604051610346919061564b565b61032461130d565b61051461050f36600461415d565b6113c1565b604051610346929190614dd9565b61036261053036600461415d565b6113ea565b61036261054336600461438c565b6117be565b610324610556366004614368565b6117cc565b61056361187f565b6040516103469190614c87565b61036261057e36600461415d565b61188e565b6103626105913660046141bc565b6118a3565b6105a96105a43660046141bc565b6118c4565b604051610346919061563d565b6105636105c436600461415d565b611963565b6103626105d73660046141bc565b611982565b6103626105ea36600461415d565b6119c8565b6106026105fd3660046141bc565b611a2c565b604051610346929190614d04565b61062361061e3660046141bc565b611a56565b60405161034691906155fc565b61032461063e36600461418d565b611af5565b61036261065136600461415d565b611b8d565b6103ce610664366004614109565b611cc6565b61067c6106773660046141bc565b611cdb565b604051610346919061575f565b6103626106973660046141bc565b611cf3565b6103246106aa3660046141bc565b611d39565b6103246106bd3660046141dd565b611da8565b6103626106d03660046143a6565b611e44565b6106e86106e336600461415d565b611e62565b60405161034691906152bc565b610324610703366004614109565b611ec0565b6103ce61071636600461418d565b611f4e565b6105636107293660046141bc565b611f84565b61067c61073c3660046141bc565b61201a565b61056361074f36600461415d565b6120b0565b610324610762366004614109565b6120d0565b61036261077536600461415d565b6121da565b6000828152600160208190526040909120015482906001600160a01b03163314806107b757506107b7816000356001600160e01b03191633610bf6565b6107dc5760405162461bcd60e51b81526004016107d390614f0b565b60405180910390fd5b6000838152600160208190526040918290200180546001600160a01b038581166001600160a01b0319831617909255915191169084907f6baefd4565218ab73b43cb6b1019ca3a06161c4fcaef25cd665aacddabc44a20906108419084908790614c9b565b60405180910390a250505050565b610857613c79565b600082815260016020526040902061086e906121ef565b90505b919050565b60008181526001602081905260408220015482906001600160a01b03163314806108b257506108b2816000356001600160e01b03191633610bf6565b6108ce5760405162461bcd60e51b81526004016107d390614f0b565b6000838152600160205260408120600601805491905591505b50919050565b610904826000356001600160e01b03191633610bf6565b6109205760405162461bcd60e51b81526004016107d3906151a8565b6000828152600160205260409081902060080180546001600160a01b038481166001600160a01b031983161790925591519116907fa7f38588f02421aa73988ed359aee27363c896e7cc3b6e634e4357f7ee408e259061098590859084908690614d1d565b60405180910390a1505050565b6000828152600160205260408082209051639151ef2360e01b81527382Ba9a780B8be7278072c92910f05D54969300Cf91639151ef23916109d8919086906004016152f7565b60206040518083038186803b1580156109f057600080fd5b505af4158015610a04573d6000803e3d6000fd5b505050506040513d601f19601f82011682018060405250810190610a289190614175565b90505b92915050565b3360009081526002602052604090205460ff16610a605760405162461bcd60e51b81526004016107d390614fa5565b610abe89610a73368a90038a018a614778565b888880806020026020016040519081016040528093929190818152602001838360200280828437600092019190915250610ab69250505036899003890189614662565b87878761255c565b600089815260016020526040908190209051638198ef6d60e01b81527382Ba9a780B8be7278072c92910f05D54969300Cf91638198ef6d91610b0591908c90600401615305565b60006040518083038186803b158015610b1d57600080fd5b505af4158015610b31573d6000803e3d6000fd5b50505050505050505050505050565b610b57836000356001600160e01b03191633610bf6565b610b735760405162461bcd60e51b81526004016107d390615159565b60008381526001602081815260408084206001600160e01b031987168552600d0182528084206001600160a01b038616808652925292839020805460ff1916909217909155905184907face25d271ad11ee299595b3021629bae0349e370d7c2eb7c2dced6e4edb4786590610be9908690614dc4565b60405180910390a3505050565b60008381526001602090815260408083206001600160e01b031986168452600d0182528083206001600160a01b038516845290915281205460ff1680610c6957506000848152600160209081526040808320838052600d0182528083206001600160a01b038616845290915290205460ff165b90505b9392505050565b60009081526001602052604090205460ff1690565b60009081526001602052604090206005015490565b6000828152600160205260409020600b01546001600160a01b031680610cd55760405162461bcd60e51b81526004016107d390614df4565b336001600160a01b0382161480610cfe5750610cfe836000356001600160e01b03191633610bf6565b610d1a5760405162461bcd60e51b81526004016107d390614e51565b60008381526001602052604090819020600b0180546001600160a01b0319166001600160a01b038516179055517f66808241563a07166fd47b523591fa432148706dc0ddd255d49b69e71f1721ce9061098590859084908690614d1d565b610d80613c79565b600082815260016020526040902061086e906126d5565b610dae836000356001600160e01b03191633610bf6565b610dca5760405162461bcd60e51b81526004016107d390615159565b60008381526001602090815260408083206001600160e01b031986168452600d0182528083206001600160a01b038516808552925291829020805460ff19169055905184907f42b1b0e7392ad606bb4f5b003296aba62f16e43aa9372f1f40c1522fa2655ffa90610be9908690614dc4565b6000828152600160208190526040909120015482906001600160a01b0316331480610e795750610e79816000356001600160e01b03191633610bf6565b610e955760405162461bcd60e51b81526004016107d390614f0b565b610ebb610ea736849003840184614778565b600085815260016020526040902090612a72565b827fad3970329ffaec63d947adc6077368479a4be7f09f2e7ba1b13852f8405b3ec68360200135604051610eef9190614d14565b60405180910390a2505050565b600081815260016020526040902060609061086e90612e1a565b6000828152600160208190526040909120015482906001600160a01b0316331480610f535750610f53816000356001600160e01b03191633610bf6565b610f6f5760405162461bcd60e51b81526004016107d390614f0b565b6000838152600160205260409081902080546001600160a01b03858116610100908102610100600160a81b03198416179093559251919004919091169084907fdaa92ae0693b6616f14ef5db4b7ee053d3234c0d03f7a1885589c6a6c2c75bdb906108419084908790614c9b565b6000828152600160208190526040909120015482906001600160a01b031633148061101a575061101a816000356001600160e01b03191633610bf6565b6110365760405162461bcd60e51b81526004016107d390614f0b565b600083815260016020526040908190209051638198ef6d60e01b81527382Ba9a780B8be7278072c92910f05D54969300Cf91638198ef6d9161107d91908690600401615305565b60006040518083038186803b15801561109557600080fd5b505af41580156110a9573d6000803e3d6000fd5b50506040518592507fb777acf68d226f3c8ab6f398cfb9a320e6fe8e92f5d2f0b4f69bc8ebab3b70cb9150600090a2505050565b6000828152600160205260409020600901546001600160a01b0316806111155760405162461bcd60e51b81526004016107d3906150fc565b336001600160a01b038216148061113e575061113e836000356001600160e01b03191633610bf6565b61115a5760405162461bcd60e51b81526004016107d390614ff9565b6000838152600160205260409081902060090180546001600160a01b0319166001600160a01b038516179055517f66808241563a07166fd47b523591fa432148706dc0ddd255d49b69e71f1721ce9061098590859084908690614d1d565b6000828152600160205260408120610a289083612eb0565b6111d8613d28565b6000828152600160205260409081902090516379d346b760e01b81527382Ba9a780B8be7278072c92910f05D54969300Cf916379d346b79161121d9190600401614d14565b6108206040518083038186803b15801561123657600080fd5b505af415801561124a573d6000803e3d6000fd5b505050506040513d601f19601f8201168201806040525081019061086e91906143cf565b611276613eb6565b600083815260016020526040908190209051633542f3e360e11b81527382Ba9a780B8be7278072c92910f05D54969300Cf91636a85e7c6916112bd919086906004016152f7565b60606040518083038186803b1580156112d557600080fd5b505af41580156112e9573d6000803e3d6000fd5b505050506040513d601f19601f82011682018060405250810190610a28919061475d565b611315612ec6565b6000546001600160a01b03908116911614611377576040805162461bcd60e51b815260206004820181905260248201527f4f776e61626c653a2063616c6c6572206973206e6f7420746865206f776e6572604482015290519081900360640190fd5b600080546040516001600160a01b03909116907f8be0079c531659141344cd1fd0a4f28419497f9722a3daafe3b4186f6b6457e0908390a3600080546001600160a01b0319169055565b6000808060f884901c60218111156113d557fe5b92505067ffffffffffffffff83169050915091565b60006113f4613ed9565b6114148372636f6e74726163745265666572656e63655f3160681b611a56565b805190915015801590611436575060038160600151600481111561143457fe5b145b156117b55780516020820151604051631392c59160e11b81526001600160a01b038216906327258b229061146e908590600401614d14565b60206040518083038186803b15801561148657600080fd5b505afa15801561149a573d6000803e3d6000fd5b505050506040513d601f19601f820116820180604052508101906114be9190614141565b6114da5760405162461bcd60e51b81526004016107d3906151fc565b60006114f5866b65786572636973654461746560a01b6111b8565b9050600061151c877518dc99591a5d115d995b9d151e5c1950dbdd995c995960521b61201a565b60ff16600581111561152a57fe5b90506000836001600160a01b031663cf5aed12866040518263ffffffff1660e01b815260040161155a9190614d9f565b60206040518083038186803b15801561157257600080fd5b505afa158015611586573d6000803e3d6000fd5b505050506040513d601f19601f820116820180604052508101906115aa9190614895565b60ff1660058111156115b857fe5b90506000846001600160a01b031663606aa07e876040518263ffffffff1660e01b81526004016115e89190614d7c565b60206040518083038186803b15801561160057600080fd5b505afa158015611614573d6000803e3d6000fd5b505050506040513d601f19601f820116820180604052508101906116389190614175565b905083156116595761164b601a42611e44565b975050505050505050610871565b600083600581111561166757fe5b1415801561168a575082600581111561167c57fe5b82600581111561168857fe5b145b156117ae57600182600581111561169d57fe5b14156116ae5761164b601982611e44565b60028260058111156116bc57fe5b1415611766576116ca613eb6565b6040516337f2add560e11b81526001600160a01b03871690636fe55baa906116f6908a90600401614d3c565b60606040518083038186803b15801561170e57600080fd5b505afa158015611722573d6000803e3d6000fd5b505050506040513d601f19601f82011682018060405250810190611746919061475d565b905061175760196106d08385612eca565b98505050505050505050610871565b600382600581111561177457fe5b14156117ae57611782613eb6565b6040516337f2add560e11b81526001600160a01b03871690636fe55baa906116f6908a90600401614d59565b5050505050505b50600092915050565b600081602181111561086e57fe5b6000828152600160208190526040909120015482906001600160a01b03163314806118095750611809816000356001600160e01b03191633610bf6565b6118255760405162461bcd60e51b81526004016107d390614f0b565b61184b61183736849003840184614778565b600085815260016020526040902090612fe3565b827f0c71209d22d4c70a40140b94deee55f1f54a9353e3d5d5a4ddfb45fcddcf720f8360200135604051610eef9190614d14565b6000546001600160a01b031690565b60009081526001602052604090206004015490565b60009182526001602090815260408084209284526003909201905290205490565b6118cc613f00565b6000838152600160205260409081902090516323c352cb60e11b81527382Ba9a780B8be7278072c92910f05D54969300Cf91634786a59691611913919086906004016152f7565b60806040518083038186803b15801561192b57600080fd5b505af415801561193f573d6000803e3d6000fd5b505050506040513d601f19601f82011682018060405250810190610a289190614742565b600090815260016020819052604090912001546001600160a01b031690565b60008281526001602052604080822090516313d0ad6960e31b81527382Ba9a780B8be7278072c92910f05D54969300Cf91639e856b48916109d8919086906004016152f7565b6000818152600160205260408120600481015415611a18576004810154600582015414156119fa575060009050610871565b60058101546000908152600390910160205260409020549050610871565b6000611a23846133af565b50949350505050565b6000918252600160208181526040808520938552601090930190529120805491015460ff90911691565b611a5e613ed9565b600083815260016020526040908190209051632fbc709f60e01b81527382Ba9a780B8be7278072c92910f05D54969300Cf91632fbc709f91611aa5919086906004016152f7565b60806040518083038186803b158015611abd57600080fd5b505af4158015611ad1573d6000803e3d6000fd5b505050506040513d601f19601f82011682018060405250810190610a2891906146e0565b611b0c826000356001600160e01b03191633610bf6565b611b285760405162461bcd60e51b81526004016107d390614eae565b60008281526001602052604090819020600a0180546001600160a01b038481166001600160a01b031983161790925591519116907fa7f38588f02421aa73988ed359aee27363c896e7cc3b6e634e4357f7ee408e259061098590859084908690614d1d565b60008181526001602081905260408220015482906001600160a01b0316331480611bc95750611bc9816000356001600160e01b03191633610bf6565b611be55760405162461bcd60e51b81526004016107d390614f0b565b6000838152600160205260409020600481015415611c3f5760058101546000818152600383016020526040902054600483015490911415611c2c5750600092506108e79050565b60059091018054600101905591506108e7565b600080611c4b866133af565b909250905081611c625750600093506108e7915050565b600080611c6e846113c1565b909250905060018315151415611cb25780600286016000846021811115611c9157fe5b6021811115611c9c57fe5b8152602081019190915260400160002055611cba565b600785018490555b50919695505050505050565b60026020526000908152604090205460ff1681565b6000828152600160205260408120610a2890836137e9565b600082815260016020526040808220905163ee6a446f60e01b81527382Ba9a780B8be7278072c92910f05D54969300Cf9163ee6a446f916109d8919086906004016152f7565b6000828152600160208190526040909120015482906001600160a01b0316331480611d765750611d76816000356001600160e01b03191633610bf6565b611d925760405162461bcd60e51b81526004016107d390614f0b565b5060009182526001602052604090912060060155565b6000838152600160208190526040909120015483906001600160a01b0316331480611de55750611de5816000356001600160e01b03191633610bf6565b611e015760405162461bcd60e51b81526004016107d390614f0b565b50604080518082018252600180825260208083019485526000968752818152838720958752601090950190945293209251835460ff191690151517835551910155565b60008160f8846021811115611e5557fe5b60ff16901b179392505050565b611e6a613f21565b50600090815260016020908152604091829020825160808101845260088201546001600160a01b0390811682526009830154811693820193909352600a820154831693810193909352600b015416606082015290565b611ec8612ec6565b6000546001600160a01b03908116911614611f2a576040805162461bcd60e51b815260206004820181905260248201527f4f776e61626c653a2063616c6c6572206973206e6f7420746865206f776e6572604482015290519081900360640190fd5b6001600160a01b03166000908152600260205260409020805460ff19166001179055565b6000918252600160209081526040808420848052600d0182528084206001600160a01b0393909316845291905290205460ff1690565b6000828152600160205260408082209051637154b74160e11b81527382Ba9a780B8be7278072c92910f05D54969300Cf9163e2a96e8291611fca919086906004016152f7565b60206040518083038186803b158015611fe257600080fd5b505af4158015611ff6573d6000803e3d6000fd5b505050506040513d601f19601f82011682018060405250810190610a289190614125565b6000828152600160205260408082209051630ac097cd60e21b81527382Ba9a780B8be7278072c92910f05D54969300Cf91632b025f3491612060919086906004016152f7565b60206040518083038186803b15801561207857600080fd5b505af415801561208c573d6000803e3d6000fd5b505050506040513d601f19601f82011682018060405250810190610a289190614895565b60009081526001602052604090205461010090046001600160a01b031690565b6120d8612ec6565b6000546001600160a01b0390811691161461213a576040805162461bcd60e51b815260206004820181905260248201527f4f776e61626c653a2063616c6c6572206973206e6f7420746865206f776e6572604482015290519081900360640190fd5b6001600160a01b03811661217f5760405162461bcd60e51b81526004018080602001828103825260268152602001806158316026913960400191505060405180910390fd5b600080546040516001600160a01b03808516939216917f8be0079c531659141344cd1fd0a4f28419497f9722a3daafe3b4186f6b6457e091a3600080546001600160a01b0319166001600160a01b0392909216919091179055565b60009081526001602052604090206006015490565b6121f7613c79565b604080516102e08101825272636f6e7472616374506572666f726d616e636560681b6000908152600f85016020529190912054819060f81c600581111561223a57fe5b600581111561224557fe5b8152697374617475734461746560b01b6000908152600f8501602081815260408084205482860152706e6f6e506572666f726d696e674461746560781b845282825280842054818601526b6d617475726974794461746560a01b84528282528084205460608601526b65786572636973654461746560a01b84528282528084205460808601526e7465726d696e6174696f6e4461746560881b84528282528084205460a0860152736c617374436f75706f6e466978696e674461746560601b84528282528084205460c0860152756c6173744469766964656e64466978696e674461746560501b84528282528084205460e0860152701b9bdd1a5bdb985b141c9a5b98da5c185b607a1b8452828252808420546101008601526e1858d8dc9d5959125b9d195c995cdd608a1b845282825280842054610120860152691999595058d8dc9d595960b21b845282825280842054610140860152726e6f6d696e616c496e7465726573745261746560681b8452828252808420546101608601527834b73a32b932b9ba29b1b0b634b733a6bab63a34b83634b2b960391b845282825280842054610180860152783737ba34b7b730b629b1b0b634b733a6bab63a34b83634b2b960391b8452828252808420546101a08601527f6e6578745072696e636970616c526564656d7074696f6e5061796d656e7400008452828252808420546101c08601526d195e195c98da5cd9505b5bdd5b9d60921b8452828252808420546101e08601526f65786572636973655175616e7469747960801b845282825280842054610200860152677175616e7469747960c01b8452828252808420546102208601527018dbdd5c1bdb905b5bdd5b9d119a5e1959607a1b8452828252808420546102408601526b36b0b933b4b72330b1ba37b960a11b8452828252808420546102608601526f30b2353ab9ba36b2b73a2330b1ba37b960811b84528282528084205461028086015274191a5d9a59195b9914185e5b595b9d105b5bdd5b9d605a1b8452828252808420546102a08601526973706c6974526174696f60b01b84529190529020546102c0909101529050919050565b6000878152600160205260409020805460ff161561258c5760405162461bcd60e51b81526004016107d390614f5a565b6001600160a01b03831660009081526002602052604090205460ff1615156001146125c95760405162461bcd60e51b81526004016107d390615056565b805485516008830180546001600160a01b03199081166001600160a01b0393841617909155602088015160098501805483169184169190911790556040880151600a8501805483169184169190911790556060880151600b85018054831691841691909117905560ff199092166001908117610100600160a81b03191661010088841602178455830180549092169085161790556126678188612a72565b6126718188612fe3565b61267b8187613895565b6001600160a01b03821615612694576126948883613902565b7f5e73a3e4a3f69f1056f05ffd00ff11bf3835158ba0ebd5ad3b994065fcd89646886040516126c39190614d14565b60405180910390a15050505050505050565b6126dd613c79565b604080516102e08101825274465f636f6e7472616374506572666f726d616e636560581b6000908152600f85016020529190912054819060f81c600581111561272257fe5b600581111561272d57fe5b81526b465f7374617475734461746560a01b6000908152600f850160208181526040808420548286015272465f6e6f6e506572666f726d696e674461746560681b845282825280842054818601526d465f6d617475726974794461746560901b84528282528084205460608601526d465f65786572636973654461746560901b845282825280842054608086015270465f7465726d696e6174696f6e4461746560781b84528282528084205460a086015275465f6c617374436f75706f6e466978696e674461746560501b84528282528084205460c086015277465f6c6173744469766964656e64466978696e674461746560401b84528282528084205460e0860152721197db9bdd1a5bdb985b141c9a5b98da5c185b606a1b845282825280842054610100860152701197d858d8dc9d5959125b9d195c995cdd607a1b8452828252808420546101208601526b1197d999595058d8dc9d595960a21b84528282528084205461014086015274465f6e6f6d696e616c496e7465726573745261746560581b8452828252808420546101608601527f465f696e7465726573745363616c696e674d756c7469706c69657200000000008452828252808420546101808601527f465f6e6f74696f6e616c5363616c696e674d756c7469706c69657200000000008452828252808420546101a08601527f465f6e6578745072696e636970616c526564656d7074696f6e5061796d656e748452828252808420546101c08601526f1197d95e195c98da5cd9505b5bdd5b9d60821b8452828252808420546101e086015271465f65786572636973655175616e7469747960701b84528282528084205461020086015269465f7175616e7469747960b01b845282825280842054610220860152721197d8dbdd5c1bdb905b5bdd5b9d119a5e1959606a1b8452828252808420546102408601526d232fb6b0b933b4b72330b1ba37b960911b84528282528084205461026086015271232fb0b2353ab9ba36b2b73a2330b1ba37b960711b845282825280842054610280860152761197d91a5d9a59195b9914185e5b595b9d105b5bdd5b9d604a1b8452828252808420546102a08601526b465f73706c6974526174696f60a01b84529190529020546102c0909101529050919050565b612aa98272636f6e7472616374506572666f726d616e636560681b60f884600001516005811115612a9f57fe5b60ff16901b613979565b612ac882697374617475734461746560b01b836020015160001b613979565b612aee82706e6f6e506572666f726d696e674461746560781b836040015160001b613979565b612b0f826b6d617475726974794461746560a01b836060015160001b613979565b612b30826b65786572636973654461746560a01b836080015160001b613979565b612b54826e7465726d696e6174696f6e4461746560881b8360a0015160001b613979565b612b7d82736c617374436f75706f6e466978696e674461746560601b8360c0015160001b613979565b612ba882756c6173744469766964656e64466978696e674461746560501b8360e0015160001b613979565b612bcf82701b9bdd1a5bdb985b141c9a5b98da5c185b607a1b83610100015160001b613979565b612bf4826e1858d8dc9d5959125b9d195c995cdd608a1b83610120015160001b613979565b612c1482691999595058d8dc9d595960b21b83610140015160001b613979565b612c3d82726e6f6d696e616c496e7465726573745261746560681b83610160015160001b613979565b612c6c827834b73a32b932b9ba29b1b0b634b733a6bab63a34b83634b2b960391b83610180015160001b613979565b612c9b82783737ba34b7b730b629b1b0b634b733a6bab63a34b83634b2b960391b836101a0015160001b613979565b612cce827f6e6578745072696e636970616c526564656d7074696f6e5061796d656e740000836101c0015160001b613979565b612cf2826d195e195c98da5cd9505b5bdd5b9d60921b836101e0015160001b613979565b612d18826f65786572636973655175616e7469747960801b83610200015160001b613979565b612d3e826f65786572636973655175616e7469747960801b83610200015160001b613979565b612d5c82677175616e7469747960c01b83610220015160001b613979565b612d83827018dbdd5c1bdb905b5bdd5b9d119a5e1959607a1b83610240015160001b613979565b612da5826b36b0b933b4b72330b1ba37b960a11b83610260015160001b613979565b612dcb826f30b2353ab9ba36b2b73a2330b1ba37b960811b83610280015160001b613979565b612df68274191a5d9a59195b9914185e5b595b9d105b5bdd5b9d605a1b836102a0015160001b613979565b612e16826973706c6974526174696f60b01b836102c0015160001b613979565b5050565b606080826002016002015467ffffffffffffffff81118015612e3b57600080fd5b50604051908082528060200260200182016040528015612e65578160200160208202803683370190505b50905060005b6004840154811015612ea95760008181526003850160205260409020548251839083908110612e9657fe5b6020908102919091010152600101612e6b565b5092915050565b6000908152600f91909101602052604090205490565b3390565b6000808084602001516005811115612ede57fe5b1415612ef8578351612ef19084906139ab565b9050610a28565b600184602001516005811115612f0a57fe5b1415612f28578351612ef190612f219060076139c0565b84906139ab565b600284602001516005811115612f3a57fe5b1415612f4d578351612ef1908490613a19565b600384602001516005811115612f5f57fe5b1415612f7d578351612ef190612f769060036139c0565b8490613a19565b600484602001516005811115612f8f57fe5b1415612fa6578351612ef190612f769060066139c0565b600584602001516005811115612fb857fe5b1415612fcb578351612ef1908490613a95565b60405162461bcd60e51b81526004016107d39061509f565b6130128274465f636f6e7472616374506572666f726d616e636560581b60f884600001516005811115612a9f57fe5b613033826b465f7374617475734461746560a01b836020015160001b613979565b61305b8272465f6e6f6e506572666f726d696e674461746560681b836040015160001b613979565b61307e826d465f6d617475726974794461746560901b836060015160001b613979565b6130a1826d465f65786572636973654461746560901b836080015160001b613979565b6130c78270465f7465726d696e6174696f6e4461746560781b8360a0015160001b613979565b6130f28275465f6c617374436f75706f6e466978696e674461746560501b8360c0015160001b613979565b61311f8277465f6c6173744469766964656e64466978696e674461746560401b8360e0015160001b613979565b61314882721197db9bdd1a5bdb985b141c9a5b98da5c185b606a1b83610100015160001b613979565b61316f82701197d858d8dc9d5959125b9d195c995cdd607a1b83610120015160001b613979565b613191826b1197d999595058d8dc9d595960a21b83610140015160001b613979565b6131bc8274465f6e6f6d696e616c496e7465726573745261746560581b83610160015160001b613979565b6131ef827f465f696e7465726573745363616c696e674d756c7469706c696572000000000083610180015160001b613979565b613222827f465f6e6f74696f6e616c5363616c696e674d756c7469706c6965720000000000836101a0015160001b613979565b613255827f465f6e6578745072696e636970616c526564656d7074696f6e5061796d656e74836101c0015160001b613979565b61327b826f1197d95e195c98da5cd9505b5bdd5b9d60821b836101e0015160001b613979565b6132a38271465f65786572636973655175616e7469747960701b83610200015160001b613979565b6132cb8271465f65786572636973655175616e7469747960701b83610200015160001b613979565b6132eb8269465f7175616e7469747960b01b83610220015160001b613979565b61331482721197d8dbdd5c1bdb905b5bdd5b9d119a5e1959606a1b83610240015160001b613979565b613338826d232fb6b0b933b4b72330b1ba37b960911b83610260015160001b613979565b6133608271232fb0b2353ab9ba36b2b73a2330b1ba37b960711b83610280015160001b613979565b61338d82761197d91a5d9a59195b9914185e5b595b9d105b5bdd5b9d604a1b836102a0015160001b613979565b612e16826b465f73706c6974526174696f60a01b836102c0015160001b613979565b600081815260016020526040812081906133c7613d28565b6040516379d346b760e01b81527382Ba9a780B8be7278072c92910f05D54969300Cf906379d346b7906133fe908590600401614d14565b6108206040518083038186803b15801561341757600080fd5b505af415801561342b573d6000803e3d6000fd5b505050506040513d601f19601f8201168201806040525081019061344f91906143cf565b8254600a600081815260028601602052604080822054905163a1122ffb60e01b815294955090938493600193859384936134f79361010090046001600160a01b03169263a1122ffb926134a7928c9290600401615290565b60206040518083038186803b1580156134bf57600080fd5b505afa1580156134d3573d6000803e3d6000fd5b505050506040513d601f19601f8201168201806040525081019061050f9190614175565b91509150836000148061350957508381105b8061352d5750808414801561352d5750613522856117be565b61352b836117be565b105b15613539578093508194505b50508454600b600081815260028801602052604080822054905163a1122ffb60e01b81529193849361358a936101009092046001600160a01b03169263a1122ffb926134a7928c9291600401615290565b9150915083600014806135a6575080158015906135a657508381105b806135d5575080158015906135ba57508084145b80156135d557506135ca856117be565b6135d3836117be565b105b156135e1578093508194505b505084546005600081815260028801602052604080822054905163a1122ffb60e01b815291938493613632936101009092046001600160a01b03169263a1122ffb926134a7928c9291600401615290565b91509150836000148061364e5750801580159061364e57508381105b8061367d5750801580159061366257508084145b801561367d5750613672856117be565b61367b836117be565b105b15613689578093508194505b505084546006600081815260028801602052604080822054905163a1122ffb60e01b8152919384936136da936101009092046001600160a01b03169263a1122ffb926134a7928c9291600401615290565b9150915083600014806136f6575080158015906136f657508381105b806137255750801580159061370a57508084145b8015613725575061371a856117be565b613723836117be565b105b15613731578093508194505b50508454600786015460405163f81d734b60e01b81526000928392613775926101009092046001600160a01b03169163f81d734b916134a7918b9190600401615273565b9150915083600014806137915750801580159061379157508381105b806137c0575080158015906137a557508084145b80156137c057506137b5856117be565b6137be836117be565b105b156137d057809350819450600092505b50506137dc8383611e44565b9650945050505050915091565b600072636f6e7472616374506572666f726d616e636560681b82141561383a575072636f6e7472616374506572666f726d616e636560681b6000908152600f8301602052604090205460f81c610a2b565b74465f636f6e7472616374506572666f726d616e636560581b82141561388d575074465f636f6e7472616374506572666f726d616e636560581b6000908152600f8301602052604090205460f81c610a2b565b506000610a2b565b60005b81518110156138fd576000801b8282815181106138b157fe5b602002602001015114156138c4576138fd565b8181815181106138d057fe5b60209081029190910181015160008381526003860190925260409091205560010160048301819055613898565b505050565b6000828152600160208181526040808420848052600d0182528084206001600160a01b0386168086529252808420805460ff19169093179092559051909184917face25d271ad11ee299595b3021629bae0349e370d7c2eb7c2dced6e4edb478659161396d91614dc4565b60405180910390a35050565b6000828152600f84016020526040902054811415613996576138fd565b6000918252600f929092016020526040902055565b620151808102820182811015610a2b57600080fd5b6000826139cf57506000610a2b565b828202828482816139dc57fe5b0414610a285760405162461bcd60e51b81526004018080602001828103825260218152602001806158576021913960400191505060405180910390fd5b6000808080613a2d62015180875b04613abc565b600c918801600019810183810494909401965094509250900660010191506000613a578484613b52565b905080821115613a65578091505b62015180870662015180613a7a868686613bd8565b0201945086851015613a8b57600080fd5b5050505092915050565b6000808080613aa76201518087613a27565b9187019450925090506000613a578484613b52565b60008080836226496581018262023ab1600483020590506004600362023ab18302010590910390600062164b09610fa0600185010205905060046105b58202058303601f019250600061098f8460500281613b1357fe5b0590506000605061098f83020585039050600b820560301994909401606402929092018301996002600c90940290910392909201975095509350505050565b60008160011480613b635750816003145b80613b6e5750816005145b80613b795750816007145b80613b845750816008145b80613b8f575081600a145b80613b9a575081600c145b15613ba75750601f610a2b565b81600214613bb75750601e610a2b565b613bc083613c54565b613bcb57601c613bce565b601d5b60ff169392505050565b60006107b2841015613be957600080fd5b838383600062253d8c600460036064611324600c600d19890105890101050205600c80600d19870105600c02600287030361016f0281613c2557fe5b0560046105b5600c600d1989010589016112c0010205617d4b8603010103039050809450505050509392505050565b600060048206158015613c6957506064820615155b8061086e57505061019090061590565b604080516102e081019091528060008152602001600081526020016000815260200160008152602001600081526020016000815260200160008152602001600081526020016000815260200160008152602001600081526020016000815260200160008152602001600081526020016000815260200160008152602001600081526020016000815260200160008152602001600081526020016000815260200160008152602001600081525090565b604080516105c0810190915280600081526020016000815260200160008152602001600081526020016000815260200160008152602001600081526020016000815260200160006001600160a01b0316815260200160006001600160a01b031681526020016000801916815260200160008152602001600081526020016000815260200160008152602001600081526020016000815260200160008152602001600081526020016000815260200160008152602001600081526020016000815260200160008152602001600081526020016000815260200160008152602001600081526020016000815260200160008152602001600081526020016000815260200160008152602001600081526020016000815260200160008152602001600081526020016000815260200160008152602001613e63613eb6565b8152602001613e70613eb6565b8152602001613e7d613f00565b8152602001613e8a613f00565b8152602001613e97613f00565b8152602001613ea4613f00565b8152602001613eb1613f00565b905290565b6040805160608101909152600080825260208201905b8152600060209091015290565b60408051608081018252600080825260208201819052909182019081526020016000613eb1565b60408051608081019091526000808252602082019081526020016000613ecc565b60408051608081018252600080825260208201819052918101829052606081019190915290565b8035610871816157b2565b8051610871816157b2565b8035610871816157d5565b8051610871816157d5565b8035610871816157e2565b8051610871816157e2565b8035610871816157ef565b803561087181615809565b805161087181615809565b803561087181615816565b805161087181615816565b8051610871816157ef565b80356022811061087157600080fd5b803561087181615823565b805161087181615823565b600061082082840312156108e7578081fd5b6000608082840312156108e7578081fd5b600060808284031215614025578081fd5b6040516080810181811067ffffffffffffffff8211171561404257fe5b806040525080915082518152602083015161405c816157ef565b6020820152604083015161406f816157e2565b60408201526060830151614082816157c7565b6060919091015292915050565b6000606082840312156140a0578081fd5b6040516060810181811067ffffffffffffffff821117156140bd57fe5b80604052508091508251815260208301516140d7816157ef565b602082015260408301516140ea816157c7565b6040919091015292915050565b60006102e082840312156108e7578081fd5b60006020828403121561411a578081fd5b8135610a28816157b2565b600060208284031215614136578081fd5b8151610a28816157b2565b600060208284031215614152578081fd5b8151610a28816157c7565b60006020828403121561416e578081fd5b5035919050565b600060208284031215614186578081fd5b5051919050565b6000806040838503121561419f578081fd5b8235915060208301356141b1816157b2565b809150509250929050565b600080604083850312156141ce578182fd5b50508035926020909101359150565b6000806000606084860312156141f1578081fd5b505081359360208301359350604090920135919050565b60008060006060848603121561421c578081fd5b8335925060208401356001600160e01b03198116811461423a578182fd5b9150604084013561424a816157b2565b809150509250925092565b6000806108408385031215614268578182fd5b823591506142798460208501613ff1565b90509250929050565b6000806000806000806000806000610c208a8c0312156142a0578687fd5b893598506142b18b60208c01613ff1565b97506142c18b6108408c016140f7565b9650610b208a013567ffffffffffffffff808211156142de578687fd5b818c0191508c601f8301126142f1578687fd5b8135818111156142ff578788fd5b8d60208083028501011115614312578788fd5b60208301985080975050505061432c8b610b408c01614003565b935061433b610bc08b01613f48565b925061434a610be08b01613f48565b9150614359610c008b01613f48565b90509295985092959850929598565b600080610300838503121561437b578182fd5b8235915061427984602085016140f7565b60006020828403121561439d578081fd5b610a2882613fcc565b600080604083850312156143b8578182fd5b6143c183613fcc565b946020939093013593505050565b600061082082840312156143e1578081fd5b6143ec6105c061576d565b6143f583613fb6565b815261440360208401613f7f565b602082015261441460408401613fa0565b604082015261442560608401613fc1565b606082015261443660808401613f69565b608082015261444760a08401613f7f565b60a082015261445860c08401613fe6565b60c082015261446960e08401613f7f565b60e082015261010061447c818501613f53565b9082015261012061448e848201613f53565b908201526101408381015190820152610160808401519082015261018080840151908201526101a080840151908201526101c080840151908201526101e08084015190820152610200808401519082015261022080840151908201526102408084015190820152610260808401519082015261028080840151908201526102a080840151908201526102c080840151908201526102e08084015190820152610300808401519082015261032080840151908201526103408084015190820152610360808401519082015261038080840151908201526103a080840151908201526103c080840151908201526103e08084015190820152610400808401519082015261042080840151908201526104408084015190820152610460808401519082015261048080840151908201526104a080840151908201526104c080840151908201526104e06145e08582860161408f565b908201526105406145f38585830161408f565b6105008301526105a061460886828701614014565b61052084015261461c866106208701614014565b8284015261462e866106a08701614014565b610560840152614642866107208701614014565b610580840152614656866107a08701614014565b90830152509392505050565b600060808284031215614673578081fd5b6040516080810181811067ffffffffffffffff8211171561469057fe5b604052823561469e816157b2565b815260208301356146ae816157b2565b602082015260408301356146c1816157b2565b604082015260608301356146d4816157b2565b60608201529392505050565b6000608082840312156146f1578081fd5b6040516080810181811067ffffffffffffffff8211171561470e57fe5b80604052508251815260208301516020820152604083015161472f816157fc565b604082015260608301516146d4816157fc565b600060808284031215614753578081fd5b610a288383614014565b60006060828403121561476e578081fd5b610a28838361408f565b60006102e080838503121561478b578182fd5b6147948161576d565b905061479f83613f8a565b81526020838101359082015260408084013590820152606080840135908201526080808401359082015260a0808401359082015260c0808401359082015260e08084013590820152610100808401359082015261012080840135908201526101408084013590820152610160808401359082015261018080840135908201526101a080840135908201526101c080840135908201526101e08084013590820152610200808401359082015261022080840135908201526102408084013590820152610260808401359082015261028080840135908201526102a080840135908201526102c0928301359281019290925250919050565b6000602082840312156148a6578081fd5b815160ff81168114610a28578182fd5b6001600160a01b03169052565b600981106148cd57fe5b9052565b6148cd81615791565b6148cd8161579e565b600d81106148cd57fe5b601381106148cd57fe5b602281106148cd57fe5b600481106148cd57fe5b6149168282516148ed565b602081015161492860208401826148d1565b50604081015161493b60408401826148e3565b50606081015161494e60608401826148da565b50608081015161496160808401826148c3565b5060a081015161497460a08401826148d1565b5060c081015161498760c0840182614901565b5060e081015161499a60e08401826148d1565b50610100808201516149ae828501826148b6565b5050610120808201516149c3828501826148b6565b50506101408181015190830152610160808201519083015261018080820151908301526101a080820151908301526101c080820151908301526101e08082015190830152610200808201519083015261022080820151908301526102408082015190830152610260808201519083015261028080820151908301526102a080820151908301526102c080820151908301526102e08082015190830152610300808201519083015261032080820151908301526103408082015190830152610360808201519083015261038080820151908301526103a080820151908301526103c080820151908301526103e08082015190830152610400808201519083015261042080820151908301526104408082015190830152610460808201519083015261048080820151908301526104a080820151908301526104c080820151908301526104e080820151614b1782850182614c63565b5050610500810151610540614b2e81850183614c63565b61052083015191506105a0614b4581860184614bf1565b818401519250614b59610620860184614bf1565b6105608401519250614b6f6106a0860184614bf1565b6105808401519250614b85610720860184614bf1565b83015191506138fd90506107a0840182614bf1565b803582526020810135614bac816157ef565b614bb58161579e565b60208301526040810135614bc8816157e2565b614bd181615791565b60408301526060810135614be4816157c7565b8015156060840152505050565b805182526020810151614c038161579e565b60208301526040810151614c1681615791565b60408301526060908101511515910152565b803582526020810135614c3a816157ef565b614c438161579e565b60208301526040810135614c56816157c7565b8015156040840152505050565b805182526020810151614c758161579e565b60208301526040908101511515910152565b6001600160a01b0391909116815260200190565b6001600160a01b0392831681529116602082015260400190565b6020808252825182820181905260009190848201906040850190845b81811015614ced57835183529284019291840191600101614cd1565b50909695505050505050565b901515815260200190565b9115158252602082015260400190565b90815260200190565b9283526001600160a01b03918216602084015216604082015260600190565b9081526a19dc9858d954195c9a5bd960aa1b602082015260400190565b9081527019195b1a5b9c5d595b98de54195c9a5bd9607a1b602082015260400190565b908152706e6f6e506572666f726d696e674461746560781b602082015260400190565b90815272636f6e7472616374506572666f726d616e636560681b602082015260400190565b6001600160e01b031991909116815260200190565b60408101614de782856148f7565b8260208301529392505050565b6020808252603e908201527f417373657452656769737472792e736574436f756e746572706172747942656e60408201527f65666963696172793a20454e5452595f444f45535f4e4f545f45584953540000606082015260800190565b6020808252603d908201527f417373657452656769737472792e736574436f756e746572706172747942656e60408201527f65666963696172793a20554e415554484f52495a45445f53454e444552000000606082015260800190565b60208082526039908201527f417373657452656769737472792e736574436f756e74657270617274794f626c60408201527f69676f723a20554e415554484f52495a45445f53454e44455200000000000000606082015260800190565b6020808252602f908201527f416363657373436f6e74726f6c2e6973417574686f72697a65643a20554e415560408201526e2a2427a924ad22a22fa9a2a72222a960891b606082015260800190565b6020808252602b908201527f4261736552656769737472792e73657441737365743a2041535345545f414c5260408201526a454144595f45584953545360a81b606082015260800190565b60208082526034908201527f4261736552656769737472792e6f6e6c79417070726f7665644163746f72733a604082015273102aa720aaaa2427a924ad22a22fa9a2a72222a960611b606082015260800190565b60208082526038908201527f417373657452656769737472792e73657443726561746f7242656e656669636960408201527f6172793a20554e415554484f52495a45445f53454e4445520000000000000000606082015260800190565b60208082526029908201527f4261736552656769737472792e73657441737365743a204143544f525f4e4f5460408201526817d054141493d5915160ba1b606082015260800190565b60208082526037908201527f506572696f645574696c732e67657454696d657374616d70506c75735065726960408201527f6f643a204154545249425554455f4e4f545f464f554e44000000000000000000606082015260800190565b60208082526039908201527f417373657452656769737472792e73657443726561746f7242656e656669636960408201527f6172793a20454e5452595f444f45535f4e4f545f455849535400000000000000606082015260800190565b6020808252602f908201527f416363657373436f6e74726f6c2e7265766f6b654163636573733a20554e415560408201526e2a2427a924ad22a22fa9a2a72222a960891b606082015260800190565b60208082526034908201527f417373657452656769737472792e73657443726561746f724f626c69676f723a604082015273102aa720aaaa2427a924ad22a22fa9a2a72222a960611b606082015260800190565b60208082526042908201527f41737365744163746f722e6765744e657874556e6465726c79696e674576656e60408201527f743a20554e4445524c59494e475f41535345545f444f45535f4e4f545f45584960608201526114d560f21b608082015260a00190565b6108208101610a2b828461490b565b6108408101615282828561490b565b826108208301529392505050565b610860810161529f828661490b565b836108208301526152b46108408301846148f7565b949350505050565b81516001600160a01b039081168252602080840151821690830152604080840151821690830152606092830151169181019190915260800190565b918252602082015260400190565b82815261084081016153226020830161531d85613fab565b6148ed565b61532e60208401613f74565b61533b60408401826148d1565b5061534860408401613f95565b61535560608401826148e3565b5061536260608401613f8a565b61536f60808401826148da565b5061537c60808401613f5e565b61538960a08401826148c3565b5061539660a08401613f74565b6153a360c08401826148d1565b506153b060c08401613fdb565b6153bd60e0840182614901565b506153ca60e08401613f74565b6101006153d9818501836148d1565b6153e4818601613f48565b9150506101206153f6818501836148b6565b615401818601613f48565b915050610140615413818501836148b6565b610160915080850135828501525061018081850135818501526101a091508085013582850152506101c081850135818501526101e09150808501358285015250610200818501358185015261022091508085013582850152506102408185013581850152610260915080850135828501525061028081850135818501526102a091508085013582850152506102c081850135818501526102e09150808501358285015250610300818501358185015261032091508085013582850152506103408185013581850152610360915080850135828501525061038081850135818501526103a091508085013582850152506103c081850135818501526103e09150808501358285015250610400818501358185015261042091508085013582850152506104408185013581850152610460915080850135828501525061048081850135818501526104a091508085013582850152506104c081850135818501526104e0915080850135828501525061558f6105008401828601614c28565b506155a261056083016105408501614c28565b6155b46105c083016105a08501614b9a565b6155c661064083016106208501614b9a565b6155d86106c083016106a08501614b9a565b6155ea61074083016107208501614b9a565b610c6c6107c083016107a08501614b9a565b81518152602080830151908201526040820151608082019061561d816157a8565b60408301526060830151615630816157a8565b8060608401525092915050565b60808101610a2b8284614bf1565b60608101610a2b8284614c63565b60006102e08201905061566d8284516148da565b6020838101519083015260408084015190830152606080840151908301526080808401519083015260a0808401519083015260c0808401519083015260e08084015190830152610100808401519083015261012080840151908301526101408084015190830152610160808401519083015261018080840151908301526101a080840151908301526101c080840151908301526101e08084015190830152610200808401519083015261022080840151908301526102408084015190830152610260808401519083015261028080840151908301526102a080840151908301526102c092830151929091019190915290565b60ff91909116815260200190565b60405181810167ffffffffffffffff8111828210171561578957fe5b604052919050565b6002811061579b57fe5b50565b6006811061579b57fe5b6005811061579b57fe5b6001600160a01b038116811461579b57600080fd5b801515811461579b57600080fd5b6009811061579b57600080fd5b6002811061579b57600080fd5b6006811061579b57600080fd5b6005811061579b57600080fd5b600d811061579b57600080fd5b6013811061579b57600080fd5b6004811061579b57600080fdfe4f776e61626c653a206e6577206f776e657220697320746865207a65726f2061646472657373536166654d6174683a206d756c7469706c69636174696f6e206f766572666c6f77a2646970667358221220daea50e6573ff1f1ba049fc98741cf27661f8e823cff2bd13b5461ec998dceb164736f6c63430007040033",
  "deployedBytecode": "0x608060405234801561001057600080fd5b506004361061030c5760003560e01c8063842962d51161019d578063cf5aed12116100e9578063e7dc3188116100a2578063ecef55771161007c578063ecef55771461072e578063ee43eda114610741578063f2fde38b14610754578063f52f84e1146107675761030c565b8063e7dc3188146106f5578063e8f7ca3e14610708578063eb0125591461071b5761030c565b8063cf5aed1214610669578063d51dc3dc14610689578063d981e7731461069c578063de07a173146106af578063e05a66e0146106c2578063e50e0ef7146106d55761030c565b8063b461dd4f11610156578063bc6a7d7611610130578063bc6a7d7614610610578063bd1f0a6c14610630578063c3b6e7c214610643578063ccfc347e146106565761030c565b8063b461dd4f146105c9578063b8282041146105dc578063ba4d2d28146105ef5761030c565b8063842962d5146105485780638da5cb5b1461055b578063a17b75b514610570578063b02ca0c014610583578063b0b4888f14610596578063b3c45ebe146105b65761030c565b80633a60d6fe1161025c5780636a899b9b11610215578063715018a6116101ef578063715018a6146104f9578063725400031461050157806375e86ae414610522578063811322fb146105355761030c565b80636a899b9b146104a65780636be39bda146104b95780636fe55baa146104d95761030c565b80633a60d6fe1461043a5780633adc277a1461044d578063512872f41461046d57806353edfb2f146104805780636031a09414610493578063606aa07e146104a65761030c565b80631717e867116102c957806328e0f8a9116102a357806328e0f8a9146103ee5780633549d08d1461040157806337462dba1461041457806339262e87146104275761030c565b80631717e867146103a85780631b126815146103bb57806327258b22146103db5761030c565b806303a81a2a1461031157806309648a9d146103265780630c5b75a41461034f5780630d62037a1461036f578063135b9f4d146103825780631374bae614610395575b600080fd5b61032461031f36600461418d565b61077a565b005b61033961033436600461415d565b61084f565b6040516103469190615659565b60405180910390f35b61036261035d36600461415d565b610876565b6040516103469190614d14565b61032461037d36600461418d565b6108ed565b6103626103903660046141bc565b610992565b6103246103a3366004614282565b610a31565b6103246103b6366004614208565b610b40565b6103ce6103c9366004614208565b610bf6565b6040516103469190614cf9565b6103ce6103e936600461415d565b610c73565b6103626103fc36600461415d565b610c88565b61032461040f36600461418d565b610c9d565b61033961042236600461415d565b610d78565b610324610435366004614208565b610d97565b610324610448366004614368565b610e3c565b61046061045b36600461415d565b610efc565b6040516103469190614cb5565b61032461047b36600461418d565b610f16565b61032461048e366004614255565b610fdd565b6103246104a136600461418d565b6110dd565b6103626104b43660046141bc565b6111b8565b6104cc6104c736600461415d565b6111d0565b6040516103469190615264565b6104ec6104e73660046141bc565b61126e565b604051610346919061564b565b61032461130d565b61051461050f36600461415d565b6113c1565b604051610346929190614dd9565b61036261053036600461415d565b6113ea565b61036261054336600461438c565b6117be565b610324610556366004614368565b6117cc565b61056361187f565b6040516103469190614c87565b61036261057e36600461415d565b61188e565b6103626105913660046141bc565b6118a3565b6105a96105a43660046141bc565b6118c4565b604051610346919061563d565b6105636105c436600461415d565b611963565b6103626105d73660046141bc565b611982565b6103626105ea36600461415d565b6119c8565b6106026105fd3660046141bc565b611a2c565b604051610346929190614d04565b61062361061e3660046141bc565b611a56565b60405161034691906155fc565b61032461063e36600461418d565b611af5565b61036261065136600461415d565b611b8d565b6103ce610664366004614109565b611cc6565b61067c6106773660046141bc565b611cdb565b604051610346919061575f565b6103626106973660046141bc565b611cf3565b6103246106aa3660046141bc565b611d39565b6103246106bd3660046141dd565b611da8565b6103626106d03660046143a6565b611e44565b6106e86106e336600461415d565b611e62565b60405161034691906152bc565b610324610703366004614109565b611ec0565b6103ce61071636600461418d565b611f4e565b6105636107293660046141bc565b611f84565b61067c61073c3660046141bc565b61201a565b61056361074f36600461415d565b6120b0565b610324610762366004614109565b6120d0565b61036261077536600461415d565b6121da565b6000828152600160208190526040909120015482906001600160a01b03163314806107b757506107b7816000356001600160e01b03191633610bf6565b6107dc5760405162461bcd60e51b81526004016107d390614f0b565b60405180910390fd5b6000838152600160208190526040918290200180546001600160a01b038581166001600160a01b0319831617909255915191169084907f6baefd4565218ab73b43cb6b1019ca3a06161c4fcaef25cd665aacddabc44a20906108419084908790614c9b565b60405180910390a250505050565b610857613c79565b600082815260016020526040902061086e906121ef565b90505b919050565b60008181526001602081905260408220015482906001600160a01b03163314806108b257506108b2816000356001600160e01b03191633610bf6565b6108ce5760405162461bcd60e51b81526004016107d390614f0b565b6000838152600160205260408120600601805491905591505b50919050565b610904826000356001600160e01b03191633610bf6565b6109205760405162461bcd60e51b81526004016107d3906151a8565b6000828152600160205260409081902060080180546001600160a01b038481166001600160a01b031983161790925591519116907fa7f38588f02421aa73988ed359aee27363c896e7cc3b6e634e4357f7ee408e259061098590859084908690614d1d565b60405180910390a1505050565b6000828152600160205260408082209051639151ef2360e01b815273__$5640c45a0bbbda400e9750313f59ad8ae1$__91639151ef23916109d8919086906004016152f7565b60206040518083038186803b1580156109f057600080fd5b505af4158015610a04573d6000803e3d6000fd5b505050506040513d601f19601f82011682018060405250810190610a289190614175565b90505b92915050565b3360009081526002602052604090205460ff16610a605760405162461bcd60e51b81526004016107d390614fa5565b610abe89610a73368a90038a018a614778565b888880806020026020016040519081016040528093929190818152602001838360200280828437600092019190915250610ab69250505036899003890189614662565b87878761255c565b600089815260016020526040908190209051638198ef6d60e01b815273__$5640c45a0bbbda400e9750313f59ad8ae1$__91638198ef6d91610b0591908c90600401615305565b60006040518083038186803b158015610b1d57600080fd5b505af4158015610b31573d6000803e3d6000fd5b50505050505050505050505050565b610b57836000356001600160e01b03191633610bf6565b610b735760405162461bcd60e51b81526004016107d390615159565b60008381526001602081815260408084206001600160e01b031987168552600d0182528084206001600160a01b038616808652925292839020805460ff1916909217909155905184907face25d271ad11ee299595b3021629bae0349e370d7c2eb7c2dced6e4edb4786590610be9908690614dc4565b60405180910390a3505050565b60008381526001602090815260408083206001600160e01b031986168452600d0182528083206001600160a01b038516845290915281205460ff1680610c6957506000848152600160209081526040808320838052600d0182528083206001600160a01b038616845290915290205460ff165b90505b9392505050565b60009081526001602052604090205460ff1690565b60009081526001602052604090206005015490565b6000828152600160205260409020600b01546001600160a01b031680610cd55760405162461bcd60e51b81526004016107d390614df4565b336001600160a01b0382161480610cfe5750610cfe836000356001600160e01b03191633610bf6565b610d1a5760405162461bcd60e51b81526004016107d390614e51565b60008381526001602052604090819020600b0180546001600160a01b0319166001600160a01b038516179055517f66808241563a07166fd47b523591fa432148706dc0ddd255d49b69e71f1721ce9061098590859084908690614d1d565b610d80613c79565b600082815260016020526040902061086e906126d5565b610dae836000356001600160e01b03191633610bf6565b610dca5760405162461bcd60e51b81526004016107d390615159565b60008381526001602090815260408083206001600160e01b031986168452600d0182528083206001600160a01b038516808552925291829020805460ff19169055905184907f42b1b0e7392ad606bb4f5b003296aba62f16e43aa9372f1f40c1522fa2655ffa90610be9908690614dc4565b6000828152600160208190526040909120015482906001600160a01b0316331480610e795750610e79816000356001600160e01b03191633610bf6565b610e955760405162461bcd60e51b81526004016107d390614f0b565b610ebb610ea736849003840184614778565b600085815260016020526040902090612a72565b827fad3970329ffaec63d947adc6077368479a4be7f09f2e7ba1b13852f8405b3ec68360200135604051610eef9190614d14565b60405180910390a2505050565b600081815260016020526040902060609061086e90612e1a565b6000828152600160208190526040909120015482906001600160a01b0316331480610f535750610f53816000356001600160e01b03191633610bf6565b610f6f5760405162461bcd60e51b81526004016107d390614f0b565b6000838152600160205260409081902080546001600160a01b03858116610100908102610100600160a81b03198416179093559251919004919091169084907fdaa92ae0693b6616f14ef5db4b7ee053d3234c0d03f7a1885589c6a6c2c75bdb906108419084908790614c9b565b6000828152600160208190526040909120015482906001600160a01b031633148061101a575061101a816000356001600160e01b03191633610bf6565b6110365760405162461bcd60e51b81526004016107d390614f0b565b600083815260016020526040908190209051638198ef6d60e01b815273__$5640c45a0bbbda400e9750313f59ad8ae1$__91638198ef6d9161107d91908690600401615305565b60006040518083038186803b15801561109557600080fd5b505af41580156110a9573d6000803e3d6000fd5b50506040518592507fb777acf68d226f3c8ab6f398cfb9a320e6fe8e92f5d2f0b4f69bc8ebab3b70cb9150600090a2505050565b6000828152600160205260409020600901546001600160a01b0316806111155760405162461bcd60e51b81526004016107d3906150fc565b336001600160a01b038216148061113e575061113e836000356001600160e01b03191633610bf6565b61115a5760405162461bcd60e51b81526004016107d390614ff9565b6000838152600160205260409081902060090180546001600160a01b0319166001600160a01b038516179055517f66808241563a07166fd47b523591fa432148706dc0ddd255d49b69e71f1721ce9061098590859084908690614d1d565b6000828152600160205260408120610a289083612eb0565b6111d8613d28565b6000828152600160205260409081902090516379d346b760e01b815273__$5640c45a0bbbda400e9750313f59ad8ae1$__916379d346b79161121d9190600401614d14565b6108206040518083038186803b15801561123657600080fd5b505af415801561124a573d6000803e3d6000fd5b505050506040513d601f19601f8201168201806040525081019061086e91906143cf565b611276613eb6565b600083815260016020526040908190209051633542f3e360e11b815273__$5640c45a0bbbda400e9750313f59ad8ae1$__91636a85e7c6916112bd919086906004016152f7565b60606040518083038186803b1580156112d557600080fd5b505af41580156112e9573d6000803e3d6000fd5b505050506040513d601f19601f82011682018060405250810190610a28919061475d565b611315612ec6565b6000546001600160a01b03908116911614611377576040805162461bcd60e51b815260206004820181905260248201527f4f776e61626c653a2063616c6c6572206973206e6f7420746865206f776e6572604482015290519081900360640190fd5b600080546040516001600160a01b03909116907f8be0079c531659141344cd1fd0a4f28419497f9722a3daafe3b4186f6b6457e0908390a3600080546001600160a01b0319169055565b6000808060f884901c60218111156113d557fe5b92505067ffffffffffffffff83169050915091565b60006113f4613ed9565b6114148372636f6e74726163745265666572656e63655f3160681b611a56565b805190915015801590611436575060038160600151600481111561143457fe5b145b156117b55780516020820151604051631392c59160e11b81526001600160a01b038216906327258b229061146e908590600401614d14565b60206040518083038186803b15801561148657600080fd5b505afa15801561149a573d6000803e3d6000fd5b505050506040513d601f19601f820116820180604052508101906114be9190614141565b6114da5760405162461bcd60e51b81526004016107d3906151fc565b60006114f5866b65786572636973654461746560a01b6111b8565b9050600061151c877518dc99591a5d115d995b9d151e5c1950dbdd995c995960521b61201a565b60ff16600581111561152a57fe5b90506000836001600160a01b031663cf5aed12866040518263ffffffff1660e01b815260040161155a9190614d9f565b60206040518083038186803b15801561157257600080fd5b505afa158015611586573d6000803e3d6000fd5b505050506040513d601f19601f820116820180604052508101906115aa9190614895565b60ff1660058111156115b857fe5b90506000846001600160a01b031663606aa07e876040518263ffffffff1660e01b81526004016115e89190614d7c565b60206040518083038186803b15801561160057600080fd5b505afa158015611614573d6000803e3d6000fd5b505050506040513d601f19601f820116820180604052508101906116389190614175565b905083156116595761164b601a42611e44565b975050505050505050610871565b600083600581111561166757fe5b1415801561168a575082600581111561167c57fe5b82600581111561168857fe5b145b156117ae57600182600581111561169d57fe5b14156116ae5761164b601982611e44565b60028260058111156116bc57fe5b1415611766576116ca613eb6565b6040516337f2add560e11b81526001600160a01b03871690636fe55baa906116f6908a90600401614d3c565b60606040518083038186803b15801561170e57600080fd5b505afa158015611722573d6000803e3d6000fd5b505050506040513d601f19601f82011682018060405250810190611746919061475d565b905061175760196106d08385612eca565b98505050505050505050610871565b600382600581111561177457fe5b14156117ae57611782613eb6565b6040516337f2add560e11b81526001600160a01b03871690636fe55baa906116f6908a90600401614d59565b5050505050505b50600092915050565b600081602181111561086e57fe5b6000828152600160208190526040909120015482906001600160a01b03163314806118095750611809816000356001600160e01b03191633610bf6565b6118255760405162461bcd60e51b81526004016107d390614f0b565b61184b61183736849003840184614778565b600085815260016020526040902090612fe3565b827f0c71209d22d4c70a40140b94deee55f1f54a9353e3d5d5a4ddfb45fcddcf720f8360200135604051610eef9190614d14565b6000546001600160a01b031690565b60009081526001602052604090206004015490565b60009182526001602090815260408084209284526003909201905290205490565b6118cc613f00565b6000838152600160205260409081902090516323c352cb60e11b815273__$5640c45a0bbbda400e9750313f59ad8ae1$__91634786a59691611913919086906004016152f7565b60806040518083038186803b15801561192b57600080fd5b505af415801561193f573d6000803e3d6000fd5b505050506040513d601f19601f82011682018060405250810190610a289190614742565b600090815260016020819052604090912001546001600160a01b031690565b60008281526001602052604080822090516313d0ad6960e31b815273__$5640c45a0bbbda400e9750313f59ad8ae1$__91639e856b48916109d8919086906004016152f7565b6000818152600160205260408120600481015415611a18576004810154600582015414156119fa575060009050610871565b60058101546000908152600390910160205260409020549050610871565b6000611a23846133af565b50949350505050565b6000918252600160208181526040808520938552601090930190529120805491015460ff90911691565b611a5e613ed9565b600083815260016020526040908190209051632fbc709f60e01b815273__$5640c45a0bbbda400e9750313f59ad8ae1$__91632fbc709f91611aa5919086906004016152f7565b60806040518083038186803b158015611abd57600080fd5b505af4158015611ad1573d6000803e3d6000fd5b505050506040513d601f19601f82011682018060405250810190610a2891906146e0565b611b0c826000356001600160e01b03191633610bf6565b611b285760405162461bcd60e51b81526004016107d390614eae565b60008281526001602052604090819020600a0180546001600160a01b038481166001600160a01b031983161790925591519116907fa7f38588f02421aa73988ed359aee27363c896e7cc3b6e634e4357f7ee408e259061098590859084908690614d1d565b60008181526001602081905260408220015482906001600160a01b0316331480611bc95750611bc9816000356001600160e01b03191633610bf6565b611be55760405162461bcd60e51b81526004016107d390614f0b565b6000838152600160205260409020600481015415611c3f5760058101546000818152600383016020526040902054600483015490911415611c2c5750600092506108e79050565b60059091018054600101905591506108e7565b600080611c4b866133af565b909250905081611c625750600093506108e7915050565b600080611c6e846113c1565b909250905060018315151415611cb25780600286016000846021811115611c9157fe5b6021811115611c9c57fe5b8152602081019190915260400160002055611cba565b600785018490555b50919695505050505050565b60026020526000908152604090205460ff1681565b6000828152600160205260408120610a2890836137e9565b600082815260016020526040808220905163ee6a446f60e01b815273__$5640c45a0bbbda400e9750313f59ad8ae1$__9163ee6a446f916109d8919086906004016152f7565b6000828152600160208190526040909120015482906001600160a01b0316331480611d765750611d76816000356001600160e01b03191633610bf6565b611d925760405162461bcd60e51b81526004016107d390614f0b565b5060009182526001602052604090912060060155565b6000838152600160208190526040909120015483906001600160a01b0316331480611de55750611de5816000356001600160e01b03191633610bf6565b611e015760405162461bcd60e51b81526004016107d390614f0b565b50604080518082018252600180825260208083019485526000968752818152838720958752601090950190945293209251835460ff191690151517835551910155565b60008160f8846021811115611e5557fe5b60ff16901b179392505050565b611e6a613f21565b50600090815260016020908152604091829020825160808101845260088201546001600160a01b0390811682526009830154811693820193909352600a820154831693810193909352600b015416606082015290565b611ec8612ec6565b6000546001600160a01b03908116911614611f2a576040805162461bcd60e51b815260206004820181905260248201527f4f776e61626c653a2063616c6c6572206973206e6f7420746865206f776e6572604482015290519081900360640190fd5b6001600160a01b03166000908152600260205260409020805460ff19166001179055565b6000918252600160209081526040808420848052600d0182528084206001600160a01b0393909316845291905290205460ff1690565b6000828152600160205260408082209051637154b74160e11b815273__$5640c45a0bbbda400e9750313f59ad8ae1$__9163e2a96e8291611fca919086906004016152f7565b60206040518083038186803b158015611fe257600080fd5b505af4158015611ff6573d6000803e3d6000fd5b505050506040513d601f19601f82011682018060405250810190610a289190614125565b6000828152600160205260408082209051630ac097cd60e21b815273__$5640c45a0bbbda400e9750313f59ad8ae1$__91632b025f3491612060919086906004016152f7565b60206040518083038186803b15801561207857600080fd5b505af415801561208c573d6000803e3d6000fd5b505050506040513d601f19601f82011682018060405250810190610a289190614895565b60009081526001602052604090205461010090046001600160a01b031690565b6120d8612ec6565b6000546001600160a01b0390811691161461213a576040805162461bcd60e51b815260206004820181905260248201527f4f776e61626c653a2063616c6c6572206973206e6f7420746865206f776e6572604482015290519081900360640190fd5b6001600160a01b03811661217f5760405162461bcd60e51b81526004018080602001828103825260268152602001806158316026913960400191505060405180910390fd5b600080546040516001600160a01b03808516939216917f8be0079c531659141344cd1fd0a4f28419497f9722a3daafe3b4186f6b6457e091a3600080546001600160a01b0319166001600160a01b0392909216919091179055565b60009081526001602052604090206006015490565b6121f7613c79565b604080516102e08101825272636f6e7472616374506572666f726d616e636560681b6000908152600f85016020529190912054819060f81c600581111561223a57fe5b600581111561224557fe5b8152697374617475734461746560b01b6000908152600f8501602081815260408084205482860152706e6f6e506572666f726d696e674461746560781b845282825280842054818601526b6d617475726974794461746560a01b84528282528084205460608601526b65786572636973654461746560a01b84528282528084205460808601526e7465726d696e6174696f6e4461746560881b84528282528084205460a0860152736c617374436f75706f6e466978696e674461746560601b84528282528084205460c0860152756c6173744469766964656e64466978696e674461746560501b84528282528084205460e0860152701b9bdd1a5bdb985b141c9a5b98da5c185b607a1b8452828252808420546101008601526e1858d8dc9d5959125b9d195c995cdd608a1b845282825280842054610120860152691999595058d8dc9d595960b21b845282825280842054610140860152726e6f6d696e616c496e7465726573745261746560681b8452828252808420546101608601527834b73a32b932b9ba29b1b0b634b733a6bab63a34b83634b2b960391b845282825280842054610180860152783737ba34b7b730b629b1b0b634b733a6bab63a34b83634b2b960391b8452828252808420546101a08601527f6e6578745072696e636970616c526564656d7074696f6e5061796d656e7400008452828252808420546101c08601526d195e195c98da5cd9505b5bdd5b9d60921b8452828252808420546101e08601526f65786572636973655175616e7469747960801b845282825280842054610200860152677175616e7469747960c01b8452828252808420546102208601527018dbdd5c1bdb905b5bdd5b9d119a5e1959607a1b8452828252808420546102408601526b36b0b933b4b72330b1ba37b960a11b8452828252808420546102608601526f30b2353ab9ba36b2b73a2330b1ba37b960811b84528282528084205461028086015274191a5d9a59195b9914185e5b595b9d105b5bdd5b9d605a1b8452828252808420546102a08601526973706c6974526174696f60b01b84529190529020546102c0909101529050919050565b6000878152600160205260409020805460ff161561258c5760405162461bcd60e51b81526004016107d390614f5a565b6001600160a01b03831660009081526002602052604090205460ff1615156001146125c95760405162461bcd60e51b81526004016107d390615056565b805485516008830180546001600160a01b03199081166001600160a01b0393841617909155602088015160098501805483169184169190911790556040880151600a8501805483169184169190911790556060880151600b85018054831691841691909117905560ff199092166001908117610100600160a81b03191661010088841602178455830180549092169085161790556126678188612a72565b6126718188612fe3565b61267b8187613895565b6001600160a01b03821615612694576126948883613902565b7f5e73a3e4a3f69f1056f05ffd00ff11bf3835158ba0ebd5ad3b994065fcd89646886040516126c39190614d14565b60405180910390a15050505050505050565b6126dd613c79565b604080516102e08101825274465f636f6e7472616374506572666f726d616e636560581b6000908152600f85016020529190912054819060f81c600581111561272257fe5b600581111561272d57fe5b81526b465f7374617475734461746560a01b6000908152600f850160208181526040808420548286015272465f6e6f6e506572666f726d696e674461746560681b845282825280842054818601526d465f6d617475726974794461746560901b84528282528084205460608601526d465f65786572636973654461746560901b845282825280842054608086015270465f7465726d696e6174696f6e4461746560781b84528282528084205460a086015275465f6c617374436f75706f6e466978696e674461746560501b84528282528084205460c086015277465f6c6173744469766964656e64466978696e674461746560401b84528282528084205460e0860152721197db9bdd1a5bdb985b141c9a5b98da5c185b606a1b845282825280842054610100860152701197d858d8dc9d5959125b9d195c995cdd607a1b8452828252808420546101208601526b1197d999595058d8dc9d595960a21b84528282528084205461014086015274465f6e6f6d696e616c496e7465726573745261746560581b8452828252808420546101608601527f465f696e7465726573745363616c696e674d756c7469706c69657200000000008452828252808420546101808601527f465f6e6f74696f6e616c5363616c696e674d756c7469706c69657200000000008452828252808420546101a08601527f465f6e6578745072696e636970616c526564656d7074696f6e5061796d656e748452828252808420546101c08601526f1197d95e195c98da5cd9505b5bdd5b9d60821b8452828252808420546101e086015271465f65786572636973655175616e7469747960701b84528282528084205461020086015269465f7175616e7469747960b01b845282825280842054610220860152721197d8dbdd5c1bdb905b5bdd5b9d119a5e1959606a1b8452828252808420546102408601526d232fb6b0b933b4b72330b1ba37b960911b84528282528084205461026086015271232fb0b2353ab9ba36b2b73a2330b1ba37b960711b845282825280842054610280860152761197d91a5d9a59195b9914185e5b595b9d105b5bdd5b9d604a1b8452828252808420546102a08601526b465f73706c6974526174696f60a01b84529190529020546102c0909101529050919050565b612aa98272636f6e7472616374506572666f726d616e636560681b60f884600001516005811115612a9f57fe5b60ff16901b613979565b612ac882697374617475734461746560b01b836020015160001b613979565b612aee82706e6f6e506572666f726d696e674461746560781b836040015160001b613979565b612b0f826b6d617475726974794461746560a01b836060015160001b613979565b612b30826b65786572636973654461746560a01b836080015160001b613979565b612b54826e7465726d696e6174696f6e4461746560881b8360a0015160001b613979565b612b7d82736c617374436f75706f6e466978696e674461746560601b8360c0015160001b613979565b612ba882756c6173744469766964656e64466978696e674461746560501b8360e0015160001b613979565b612bcf82701b9bdd1a5bdb985b141c9a5b98da5c185b607a1b83610100015160001b613979565b612bf4826e1858d8dc9d5959125b9d195c995cdd608a1b83610120015160001b613979565b612c1482691999595058d8dc9d595960b21b83610140015160001b613979565b612c3d82726e6f6d696e616c496e7465726573745261746560681b83610160015160001b613979565b612c6c827834b73a32b932b9ba29b1b0b634b733a6bab63a34b83634b2b960391b83610180015160001b613979565b612c9b82783737ba34b7b730b629b1b0b634b733a6bab63a34b83634b2b960391b836101a0015160001b613979565b612cce827f6e6578745072696e636970616c526564656d7074696f6e5061796d656e740000836101c0015160001b613979565b612cf2826d195e195c98da5cd9505b5bdd5b9d60921b836101e0015160001b613979565b612d18826f65786572636973655175616e7469747960801b83610200015160001b613979565b612d3e826f65786572636973655175616e7469747960801b83610200015160001b613979565b612d5c82677175616e7469747960c01b83610220015160001b613979565b612d83827018dbdd5c1bdb905b5bdd5b9d119a5e1959607a1b83610240015160001b613979565b612da5826b36b0b933b4b72330b1ba37b960a11b83610260015160001b613979565b612dcb826f30b2353ab9ba36b2b73a2330b1ba37b960811b83610280015160001b613979565b612df68274191a5d9a59195b9914185e5b595b9d105b5bdd5b9d605a1b836102a0015160001b613979565b612e16826973706c6974526174696f60b01b836102c0015160001b613979565b5050565b606080826002016002015467ffffffffffffffff81118015612e3b57600080fd5b50604051908082528060200260200182016040528015612e65578160200160208202803683370190505b50905060005b6004840154811015612ea95760008181526003850160205260409020548251839083908110612e9657fe5b6020908102919091010152600101612e6b565b5092915050565b6000908152600f91909101602052604090205490565b3390565b6000808084602001516005811115612ede57fe5b1415612ef8578351612ef19084906139ab565b9050610a28565b600184602001516005811115612f0a57fe5b1415612f28578351612ef190612f219060076139c0565b84906139ab565b600284602001516005811115612f3a57fe5b1415612f4d578351612ef1908490613a19565b600384602001516005811115612f5f57fe5b1415612f7d578351612ef190612f769060036139c0565b8490613a19565b600484602001516005811115612f8f57fe5b1415612fa6578351612ef190612f769060066139c0565b600584602001516005811115612fb857fe5b1415612fcb578351612ef1908490613a95565b60405162461bcd60e51b81526004016107d39061509f565b6130128274465f636f6e7472616374506572666f726d616e636560581b60f884600001516005811115612a9f57fe5b613033826b465f7374617475734461746560a01b836020015160001b613979565b61305b8272465f6e6f6e506572666f726d696e674461746560681b836040015160001b613979565b61307e826d465f6d617475726974794461746560901b836060015160001b613979565b6130a1826d465f65786572636973654461746560901b836080015160001b613979565b6130c78270465f7465726d696e6174696f6e4461746560781b8360a0015160001b613979565b6130f28275465f6c617374436f75706f6e466978696e674461746560501b8360c0015160001b613979565b61311f8277465f6c6173744469766964656e64466978696e674461746560401b8360e0015160001b613979565b61314882721197db9bdd1a5bdb985b141c9a5b98da5c185b606a1b83610100015160001b613979565b61316f82701197d858d8dc9d5959125b9d195c995cdd607a1b83610120015160001b613979565b613191826b1197d999595058d8dc9d595960a21b83610140015160001b613979565b6131bc8274465f6e6f6d696e616c496e7465726573745261746560581b83610160015160001b613979565b6131ef827f465f696e7465726573745363616c696e674d756c7469706c696572000000000083610180015160001b613979565b613222827f465f6e6f74696f6e616c5363616c696e674d756c7469706c6965720000000000836101a0015160001b613979565b613255827f465f6e6578745072696e636970616c526564656d7074696f6e5061796d656e74836101c0015160001b613979565b61327b826f1197d95e195c98da5cd9505b5bdd5b9d60821b836101e0015160001b613979565b6132a38271465f65786572636973655175616e7469747960701b83610200015160001b613979565b6132cb8271465f65786572636973655175616e7469747960701b83610200015160001b613979565b6132eb8269465f7175616e7469747960b01b83610220015160001b613979565b61331482721197d8dbdd5c1bdb905b5bdd5b9d119a5e1959606a1b83610240015160001b613979565b613338826d232fb6b0b933b4b72330b1ba37b960911b83610260015160001b613979565b6133608271232fb0b2353ab9ba36b2b73a2330b1ba37b960711b83610280015160001b613979565b61338d82761197d91a5d9a59195b9914185e5b595b9d105b5bdd5b9d604a1b836102a0015160001b613979565b612e16826b465f73706c6974526174696f60a01b836102c0015160001b613979565b600081815260016020526040812081906133c7613d28565b6040516379d346b760e01b815273__$5640c45a0bbbda400e9750313f59ad8ae1$__906379d346b7906133fe908590600401614d14565b6108206040518083038186803b15801561341757600080fd5b505af415801561342b573d6000803e3d6000fd5b505050506040513d601f19601f8201168201806040525081019061344f91906143cf565b8254600a600081815260028601602052604080822054905163a1122ffb60e01b815294955090938493600193859384936134f79361010090046001600160a01b03169263a1122ffb926134a7928c9290600401615290565b60206040518083038186803b1580156134bf57600080fd5b505afa1580156134d3573d6000803e3d6000fd5b505050506040513d601f19601f8201168201806040525081019061050f9190614175565b91509150836000148061350957508381105b8061352d5750808414801561352d5750613522856117be565b61352b836117be565b105b15613539578093508194505b50508454600b600081815260028801602052604080822054905163a1122ffb60e01b81529193849361358a936101009092046001600160a01b03169263a1122ffb926134a7928c9291600401615290565b9150915083600014806135a6575080158015906135a657508381105b806135d5575080158015906135ba57508084145b80156135d557506135ca856117be565b6135d3836117be565b105b156135e1578093508194505b505084546005600081815260028801602052604080822054905163a1122ffb60e01b815291938493613632936101009092046001600160a01b03169263a1122ffb926134a7928c9291600401615290565b91509150836000148061364e5750801580159061364e57508381105b8061367d5750801580159061366257508084145b801561367d5750613672856117be565b61367b836117be565b105b15613689578093508194505b505084546006600081815260028801602052604080822054905163a1122ffb60e01b8152919384936136da936101009092046001600160a01b03169263a1122ffb926134a7928c9291600401615290565b9150915083600014806136f6575080158015906136f657508381105b806137255750801580159061370a57508084145b8015613725575061371a856117be565b613723836117be565b105b15613731578093508194505b50508454600786015460405163f81d734b60e01b81526000928392613775926101009092046001600160a01b03169163f81d734b916134a7918b9190600401615273565b9150915083600014806137915750801580159061379157508381105b806137c0575080158015906137a557508084145b80156137c057506137b5856117be565b6137be836117be565b105b156137d057809350819450600092505b50506137dc8383611e44565b9650945050505050915091565b600072636f6e7472616374506572666f726d616e636560681b82141561383a575072636f6e7472616374506572666f726d616e636560681b6000908152600f8301602052604090205460f81c610a2b565b74465f636f6e7472616374506572666f726d616e636560581b82141561388d575074465f636f6e7472616374506572666f726d616e636560581b6000908152600f8301602052604090205460f81c610a2b565b506000610a2b565b60005b81518110156138fd576000801b8282815181106138b157fe5b602002602001015114156138c4576138fd565b8181815181106138d057fe5b60209081029190910181015160008381526003860190925260409091205560010160048301819055613898565b505050565b6000828152600160208181526040808420848052600d0182528084206001600160a01b0386168086529252808420805460ff19169093179092559051909184917face25d271ad11ee299595b3021629bae0349e370d7c2eb7c2dced6e4edb478659161396d91614dc4565b60405180910390a35050565b6000828152600f84016020526040902054811415613996576138fd565b6000918252600f929092016020526040902055565b620151808102820182811015610a2b57600080fd5b6000826139cf57506000610a2b565b828202828482816139dc57fe5b0414610a285760405162461bcd60e51b81526004018080602001828103825260218152602001806158576021913960400191505060405180910390fd5b6000808080613a2d62015180875b04613abc565b600c918801600019810183810494909401965094509250900660010191506000613a578484613b52565b905080821115613a65578091505b62015180870662015180613a7a868686613bd8565b0201945086851015613a8b57600080fd5b5050505092915050565b6000808080613aa76201518087613a27565b9187019450925090506000613a578484613b52565b60008080836226496581018262023ab1600483020590506004600362023ab18302010590910390600062164b09610fa0600185010205905060046105b58202058303601f019250600061098f8460500281613b1357fe5b0590506000605061098f83020585039050600b820560301994909401606402929092018301996002600c90940290910392909201975095509350505050565b60008160011480613b635750816003145b80613b6e5750816005145b80613b795750816007145b80613b845750816008145b80613b8f575081600a145b80613b9a575081600c145b15613ba75750601f610a2b565b81600214613bb75750601e610a2b565b613bc083613c54565b613bcb57601c613bce565b601d5b60ff169392505050565b60006107b2841015613be957600080fd5b838383600062253d8c600460036064611324600c600d19890105890101050205600c80600d19870105600c02600287030361016f0281613c2557fe5b0560046105b5600c600d1989010589016112c0010205617d4b8603010103039050809450505050509392505050565b600060048206158015613c6957506064820615155b8061086e57505061019090061590565b604080516102e081019091528060008152602001600081526020016000815260200160008152602001600081526020016000815260200160008152602001600081526020016000815260200160008152602001600081526020016000815260200160008152602001600081526020016000815260200160008152602001600081526020016000815260200160008152602001600081526020016000815260200160008152602001600081525090565b604080516105c0810190915280600081526020016000815260200160008152602001600081526020016000815260200160008152602001600081526020016000815260200160006001600160a01b0316815260200160006001600160a01b031681526020016000801916815260200160008152602001600081526020016000815260200160008152602001600081526020016000815260200160008152602001600081526020016000815260200160008152602001600081526020016000815260200160008152602001600081526020016000815260200160008152602001600081526020016000815260200160008152602001600081526020016000815260200160008152602001600081526020016000815260200160008152602001600081526020016000815260200160008152602001613e63613eb6565b8152602001613e70613eb6565b8152602001613e7d613f00565b8152602001613e8a613f00565b8152602001613e97613f00565b8152602001613ea4613f00565b8152602001613eb1613f00565b905290565b6040805160608101909152600080825260208201905b8152600060209091015290565b60408051608081018252600080825260208201819052909182019081526020016000613eb1565b60408051608081019091526000808252602082019081526020016000613ecc565b60408051608081018252600080825260208201819052918101829052606081019190915290565b8035610871816157b2565b8051610871816157b2565b8035610871816157d5565b8051610871816157d5565b8035610871816157e2565b8051610871816157e2565b8035610871816157ef565b803561087181615809565b805161087181615809565b803561087181615816565b805161087181615816565b8051610871816157ef565b80356022811061087157600080fd5b803561087181615823565b805161087181615823565b600061082082840312156108e7578081fd5b6000608082840312156108e7578081fd5b600060808284031215614025578081fd5b6040516080810181811067ffffffffffffffff8211171561404257fe5b806040525080915082518152602083015161405c816157ef565b6020820152604083015161406f816157e2565b60408201526060830151614082816157c7565b6060919091015292915050565b6000606082840312156140a0578081fd5b6040516060810181811067ffffffffffffffff821117156140bd57fe5b80604052508091508251815260208301516140d7816157ef565b602082015260408301516140ea816157c7565b6040919091015292915050565b60006102e082840312156108e7578081fd5b60006020828403121561411a578081fd5b8135610a28816157b2565b600060208284031215614136578081fd5b8151610a28816157b2565b600060208284031215614152578081fd5b8151610a28816157c7565b60006020828403121561416e578081fd5b5035919050565b600060208284031215614186578081fd5b5051919050565b6000806040838503121561419f578081fd5b8235915060208301356141b1816157b2565b809150509250929050565b600080604083850312156141ce578182fd5b50508035926020909101359150565b6000806000606084860312156141f1578081fd5b505081359360208301359350604090920135919050565b60008060006060848603121561421c578081fd5b8335925060208401356001600160e01b03198116811461423a578182fd5b9150604084013561424a816157b2565b809150509250925092565b6000806108408385031215614268578182fd5b823591506142798460208501613ff1565b90509250929050565b6000806000806000806000806000610c208a8c0312156142a0578687fd5b893598506142b18b60208c01613ff1565b97506142c18b6108408c016140f7565b9650610b208a013567ffffffffffffffff808211156142de578687fd5b818c0191508c601f8301126142f1578687fd5b8135818111156142ff578788fd5b8d60208083028501011115614312578788fd5b60208301985080975050505061432c8b610b408c01614003565b935061433b610bc08b01613f48565b925061434a610be08b01613f48565b9150614359610c008b01613f48565b90509295985092959850929598565b600080610300838503121561437b578182fd5b8235915061427984602085016140f7565b60006020828403121561439d578081fd5b610a2882613fcc565b600080604083850312156143b8578182fd5b6143c183613fcc565b946020939093013593505050565b600061082082840312156143e1578081fd5b6143ec6105c061576d565b6143f583613fb6565b815261440360208401613f7f565b602082015261441460408401613fa0565b604082015261442560608401613fc1565b606082015261443660808401613f69565b608082015261444760a08401613f7f565b60a082015261445860c08401613fe6565b60c082015261446960e08401613f7f565b60e082015261010061447c818501613f53565b9082015261012061448e848201613f53565b908201526101408381015190820152610160808401519082015261018080840151908201526101a080840151908201526101c080840151908201526101e08084015190820152610200808401519082015261022080840151908201526102408084015190820152610260808401519082015261028080840151908201526102a080840151908201526102c080840151908201526102e08084015190820152610300808401519082015261032080840151908201526103408084015190820152610360808401519082015261038080840151908201526103a080840151908201526103c080840151908201526103e08084015190820152610400808401519082015261042080840151908201526104408084015190820152610460808401519082015261048080840151908201526104a080840151908201526104c080840151908201526104e06145e08582860161408f565b908201526105406145f38585830161408f565b6105008301526105a061460886828701614014565b61052084015261461c866106208701614014565b8284015261462e866106a08701614014565b610560840152614642866107208701614014565b610580840152614656866107a08701614014565b90830152509392505050565b600060808284031215614673578081fd5b6040516080810181811067ffffffffffffffff8211171561469057fe5b604052823561469e816157b2565b815260208301356146ae816157b2565b602082015260408301356146c1816157b2565b604082015260608301356146d4816157b2565b60608201529392505050565b6000608082840312156146f1578081fd5b6040516080810181811067ffffffffffffffff8211171561470e57fe5b80604052508251815260208301516020820152604083015161472f816157fc565b604082015260608301516146d4816157fc565b600060808284031215614753578081fd5b610a288383614014565b60006060828403121561476e578081fd5b610a28838361408f565b60006102e080838503121561478b578182fd5b6147948161576d565b905061479f83613f8a565b81526020838101359082015260408084013590820152606080840135908201526080808401359082015260a0808401359082015260c0808401359082015260e08084013590820152610100808401359082015261012080840135908201526101408084013590820152610160808401359082015261018080840135908201526101a080840135908201526101c080840135908201526101e08084013590820152610200808401359082015261022080840135908201526102408084013590820152610260808401359082015261028080840135908201526102a080840135908201526102c0928301359281019290925250919050565b6000602082840312156148a6578081fd5b815160ff81168114610a28578182fd5b6001600160a01b03169052565b600981106148cd57fe5b9052565b6148cd81615791565b6148cd8161579e565b600d81106148cd57fe5b601381106148cd57fe5b602281106148cd57fe5b600481106148cd57fe5b6149168282516148ed565b602081015161492860208401826148d1565b50604081015161493b60408401826148e3565b50606081015161494e60608401826148da565b50608081015161496160808401826148c3565b5060a081015161497460a08401826148d1565b5060c081015161498760c0840182614901565b5060e081015161499a60e08401826148d1565b50610100808201516149ae828501826148b6565b5050610120808201516149c3828501826148b6565b50506101408181015190830152610160808201519083015261018080820151908301526101a080820151908301526101c080820151908301526101e08082015190830152610200808201519083015261022080820151908301526102408082015190830152610260808201519083015261028080820151908301526102a080820151908301526102c080820151908301526102e08082015190830152610300808201519083015261032080820151908301526103408082015190830152610360808201519083015261038080820151908301526103a080820151908301526103c080820151908301526103e08082015190830152610400808201519083015261042080820151908301526104408082015190830152610460808201519083015261048080820151908301526104a080820151908301526104c080820151908301526104e080820151614b1782850182614c63565b5050610500810151610540614b2e81850183614c63565b61052083015191506105a0614b4581860184614bf1565b818401519250614b59610620860184614bf1565b6105608401519250614b6f6106a0860184614bf1565b6105808401519250614b85610720860184614bf1565b83015191506138fd90506107a0840182614bf1565b803582526020810135614bac816157ef565b614bb58161579e565b60208301526040810135614bc8816157e2565b614bd181615791565b60408301526060810135614be4816157c7565b8015156060840152505050565b805182526020810151614c038161579e565b60208301526040810151614c1681615791565b60408301526060908101511515910152565b803582526020810135614c3a816157ef565b614c438161579e565b60208301526040810135614c56816157c7565b8015156040840152505050565b805182526020810151614c758161579e565b60208301526040908101511515910152565b6001600160a01b0391909116815260200190565b6001600160a01b0392831681529116602082015260400190565b6020808252825182820181905260009190848201906040850190845b81811015614ced57835183529284019291840191600101614cd1565b50909695505050505050565b901515815260200190565b9115158252602082015260400190565b90815260200190565b9283526001600160a01b03918216602084015216604082015260600190565b9081526a19dc9858d954195c9a5bd960aa1b602082015260400190565b9081527019195b1a5b9c5d595b98de54195c9a5bd9607a1b602082015260400190565b908152706e6f6e506572666f726d696e674461746560781b602082015260400190565b90815272636f6e7472616374506572666f726d616e636560681b602082015260400190565b6001600160e01b031991909116815260200190565b60408101614de782856148f7565b8260208301529392505050565b6020808252603e908201527f417373657452656769737472792e736574436f756e746572706172747942656e60408201527f65666963696172793a20454e5452595f444f45535f4e4f545f45584953540000606082015260800190565b6020808252603d908201527f417373657452656769737472792e736574436f756e746572706172747942656e60408201527f65666963696172793a20554e415554484f52495a45445f53454e444552000000606082015260800190565b60208082526039908201527f417373657452656769737472792e736574436f756e74657270617274794f626c60408201527f69676f723a20554e415554484f52495a45445f53454e44455200000000000000606082015260800190565b6020808252602f908201527f416363657373436f6e74726f6c2e6973417574686f72697a65643a20554e415560408201526e2a2427a924ad22a22fa9a2a72222a960891b606082015260800190565b6020808252602b908201527f4261736552656769737472792e73657441737365743a2041535345545f414c5260408201526a454144595f45584953545360a81b606082015260800190565b60208082526034908201527f4261736552656769737472792e6f6e6c79417070726f7665644163746f72733a604082015273102aa720aaaa2427a924ad22a22fa9a2a72222a960611b606082015260800190565b60208082526038908201527f417373657452656769737472792e73657443726561746f7242656e656669636960408201527f6172793a20554e415554484f52495a45445f53454e4445520000000000000000606082015260800190565b60208082526029908201527f4261736552656769737472792e73657441737365743a204143544f525f4e4f5460408201526817d054141493d5915160ba1b606082015260800190565b60208082526037908201527f506572696f645574696c732e67657454696d657374616d70506c75735065726960408201527f6f643a204154545249425554455f4e4f545f464f554e44000000000000000000606082015260800190565b60208082526039908201527f417373657452656769737472792e73657443726561746f7242656e656669636960408201527f6172793a20454e5452595f444f45535f4e4f545f455849535400000000000000606082015260800190565b6020808252602f908201527f416363657373436f6e74726f6c2e7265766f6b654163636573733a20554e415560408201526e2a2427a924ad22a22fa9a2a72222a960891b606082015260800190565b60208082526034908201527f417373657452656769737472792e73657443726561746f724f626c69676f723a604082015273102aa720aaaa2427a924ad22a22fa9a2a72222a960611b606082015260800190565b60208082526042908201527f41737365744163746f722e6765744e657874556e6465726c79696e674576656e60408201527f743a20554e4445524c59494e475f41535345545f444f45535f4e4f545f45584960608201526114d560f21b608082015260a00190565b6108208101610a2b828461490b565b6108408101615282828561490b565b826108208301529392505050565b610860810161529f828661490b565b836108208301526152b46108408301846148f7565b949350505050565b81516001600160a01b039081168252602080840151821690830152604080840151821690830152606092830151169181019190915260800190565b918252602082015260400190565b82815261084081016153226020830161531d85613fab565b6148ed565b61532e60208401613f74565b61533b60408401826148d1565b5061534860408401613f95565b61535560608401826148e3565b5061536260608401613f8a565b61536f60808401826148da565b5061537c60808401613f5e565b61538960a08401826148c3565b5061539660a08401613f74565b6153a360c08401826148d1565b506153b060c08401613fdb565b6153bd60e0840182614901565b506153ca60e08401613f74565b6101006153d9818501836148d1565b6153e4818601613f48565b9150506101206153f6818501836148b6565b615401818601613f48565b915050610140615413818501836148b6565b610160915080850135828501525061018081850135818501526101a091508085013582850152506101c081850135818501526101e09150808501358285015250610200818501358185015261022091508085013582850152506102408185013581850152610260915080850135828501525061028081850135818501526102a091508085013582850152506102c081850135818501526102e09150808501358285015250610300818501358185015261032091508085013582850152506103408185013581850152610360915080850135828501525061038081850135818501526103a091508085013582850152506103c081850135818501526103e09150808501358285015250610400818501358185015261042091508085013582850152506104408185013581850152610460915080850135828501525061048081850135818501526104a091508085013582850152506104c081850135818501526104e0915080850135828501525061558f6105008401828601614c28565b506155a261056083016105408501614c28565b6155b46105c083016105a08501614b9a565b6155c661064083016106208501614b9a565b6155d86106c083016106a08501614b9a565b6155ea61074083016107208501614b9a565b610c6c6107c083016107a08501614b9a565b81518152602080830151908201526040820151608082019061561d816157a8565b60408301526060830151615630816157a8565b8060608401525092915050565b60808101610a2b8284614bf1565b60608101610a2b8284614c63565b60006102e08201905061566d8284516148da565b6020838101519083015260408084015190830152606080840151908301526080808401519083015260a0808401519083015260c0808401519083015260e08084015190830152610100808401519083015261012080840151908301526101408084015190830152610160808401519083015261018080840151908301526101a080840151908301526101c080840151908301526101e08084015190830152610200808401519083015261022080840151908301526102408084015190830152610260808401519083015261028080840151908301526102a080840151908301526102c092830151929091019190915290565b60ff91909116815260200190565b60405181810167ffffffffffffffff8111828210171561578957fe5b604052919050565b6002811061579b57fe5b50565b6006811061579b57fe5b6005811061579b57fe5b6001600160a01b038116811461579b57600080fd5b801515811461579b57600080fd5b6009811061579b57600080fd5b6002811061579b57600080fd5b6006811061579b57600080fd5b6005811061579b57600080fd5b600d811061579b57600080fd5b6013811061579b57600080fd5b6004811061579b57600080fdfe4f776e61626c653a206e6577206f776e657220697320746865207a65726f2061646472657373536166654d6174683a206d756c7469706c69636174696f6e206f766572666c6f77a2646970667358221220daea50e6573ff1f1ba049fc98741cf27661f8e823cff2bd13b5461ec998dceb164736f6c63430007040033",
  "libraries": {
    "ANNEncoder": "0x82Ba9a780B8be7278072c92910f05D54969300Cf"
  },
  "devdoc": {
    "kind": "dev",
    "methods": {
      "approveActor(address)": {
        "details": "Can only be called by the owner of the contract.",
        "params": {
          "actor": "address of the actor"
        }
      },
      "getActor(bytes32)": {
        "params": {
          "assetId": "id of the asset"
        },
        "returns": {
          "_0": "address of the asset actor"
        }
      },
      "getEngine(bytes32)": {
        "params": {
          "assetId": "id of the asset"
        },
        "returns": {
          "_0": "address of the engine of the asset"
        }
      },
      "getEventAtIndex(bytes32,uint256)": {
        "params": {
          "assetId": "id of the asset",
          "index": "index of the event to return"
        },
        "returns": {
          "_0": "Event"
        }
      },
      "getFinalizedState(bytes32)": {
        "params": {
          "assetId": "id of the asset"
        },
        "returns": {
          "_0": "state of the asset"
        }
      },
      "getNextScheduleIndex(bytes32)": {
        "params": {
          "assetId": "id of the asset"
        },
        "returns": {
          "_0": "Index"
        }
      },
      "getNextScheduledEvent(bytes32)": {
        "params": {
          "assetId": "id of the asset"
        },
        "returns": {
          "_0": "event"
        }
      },
      "getOwnership(bytes32)": {
        "params": {
          "assetId": "id of the asset"
        },
        "returns": {
          "_0": "addresses of all owners of the asset"
        }
      },
      "getSchedule(bytes32)": {
        "params": {
          "assetId": "id of the asset"
        },
        "returns": {
          "_0": "the schedule"
        }
      },
      "getScheduleLength(bytes32)": {
        "params": {
          "assetId": "id of the asset"
        },
        "returns": {
          "_0": "Length of the schedule"
        }
      },
      "getState(bytes32)": {
        "params": {
          "assetId": "id of the asset"
        },
        "returns": {
          "_0": "state of the asset"
        }
      },
      "getTerms(bytes32)": {
        "params": {
          "assetId": "id of the asset"
        },
        "returns": {
          "_0": "terms of the asset"
        }
      },
      "grantAccess(bytes32,bytes4,address)": {
        "details": "Can only be called by an authorized account.",
        "params": {
          "account": "address of the account to grant access to",
          "assetId": "id of the asset",
          "methodSignature": "function / method signature (4 byte keccak256 hash of the method selector)"
        }
      },
      "hasAccess(bytes32,bytes4,address)": {
        "params": {
          "account": "address of the account for which to check access",
          "assetId": "id of the asset",
          "methodSignature": "function / method signature (4 byte keccak256 hash of the method selector)"
        },
        "returns": {
          "_0": "true if allowed access"
        }
      },
      "hasRootAccess(bytes32,address)": {
        "params": {
          "account": "address of the account for which to check root acccess",
          "assetId": "id of the asset"
        },
        "returns": {
          "_0": "true if has root access"
        }
      },
      "isEventSettled(bytes32,bytes32)": {
        "params": {
          "_event": "event (encoded)",
          "assetId": "id of the asset"
        },
        "returns": {
          "_0": "true if event was settled"
        }
      },
      "isRegistered(bytes32)": {
        "params": {
          "assetId": "id of the asset"
        },
        "returns": {
          "_0": "true if asset exist"
        }
      },
      "markEventAsSettled(bytes32,bytes32,int256)": {
        "details": "Can only be set by authorized account.",
        "params": {
          "_event": "event (encoded) to be marked as settled",
          "assetId": "id of the asset"
        }
      },
      "owner()": {
        "details": "Returns the address of the current owner."
      },
      "popNextScheduledEvent(bytes32)": {
        "details": "Can only be updated by the assets actor or by an authorized account.",
        "params": {
          "assetId": "id of the asset"
        }
      },
      "registerAsset(bytes32,(uint8,uint8,uint8,uint8,uint8,uint8,uint8,uint8,address,address,bytes32,uint256,uint256,uint256,uint256,uint256,uint256,uint256,uint256,uint256,uint256,uint256,uint256,int256,int256,int256,int256,int256,int256,int256,int256,int256,int256,int256,int256,int256,int256,int256,int256,(uint256,uint8,bool),(uint256,uint8,bool),(uint256,uint8,uint8,bool),(uint256,uint8,uint8,bool),(uint256,uint8,uint8,bool),(uint256,uint8,uint8,bool),(uint256,uint8,uint8,bool)),(uint8,uint256,uint256,uint256,uint256,uint256,uint256,uint256,int256,int256,int256,int256,int256,int256,int256,int256,int256,int256,int256,int256,int256,int256,int256),bytes32[],(address,address,address,address),address,address,address)": {
        "params": {
          "actor": "account which is allowed to update the asset state",
          "admin": "account which as admin rights (optional)",
          "engine": "ACTUS Engine of the asset",
          "ownership": "ownership of the asset",
          "schedule": "schedule of the asset",
          "state": "initial state of the asset",
          "terms": "asset specific terms (ANNTerms)"
        }
      },
      "renounceOwnership()": {
        "details": "Leaves the contract without owner. It will not be possible to call `onlyOwner` functions anymore. Can only be called by the current owner. NOTE: Renouncing ownership will leave the contract without an owner, thereby removing any functionality that is only available to the owner."
      },
      "revokeAccess(bytes32,bytes4,address)": {
        "details": "Can only be called by an authorized account.",
        "params": {
          "account": "address of the account to revoke access for",
          "assetId": "id of the asset",
          "methodSignature": "function / method signature (4 byte keccak256 hash of the method selector)"
        }
      },
      "setActor(bytes32,address)": {
        "params": {
          "actor": "address of the Actor contract",
          "assetId": "id of the asset"
        }
      },
      "setCounterpartyBeneficiary(bytes32,address)": {
        "details": "Can only be updated by the current counterparty beneficiary or by an authorized account.",
        "params": {
          "assetId": "id of the asset",
          "newCounterpartyBeneficiary": "address of the new beneficiary"
        }
      },
      "setCounterpartyObligor(bytes32,address)": {
        "details": "Can only be updated by an authorized account.",
        "params": {
          "assetId": "id of the asset",
          "newCounterpartyObligor": "address of the new counterparty obligor"
        }
      },
      "setCreatorBeneficiary(bytes32,address)": {
        "details": "Can only be updated by the current creator beneficiary or by an authorized account.",
        "params": {
          "assetId": "id of the asset",
          "newCreatorBeneficiary": "address of the new beneficiary"
        }
      },
      "setCreatorObligor(bytes32,address)": {
        "details": "Can only be updated by an authorized account.",
        "params": {
          "assetId": "id of the asset",
          "newCreatorObligor": "address of the new creator obligor"
        }
      },
      "setEngine(bytes32,address)": {
        "details": "Can only be set by authorized account.",
        "params": {
          "assetId": "id of the asset",
          "engine": "new engine address"
        }
      },
      "setFinalizedState(bytes32,(uint8,uint256,uint256,uint256,uint256,uint256,uint256,uint256,int256,int256,int256,int256,int256,int256,int256,int256,int256,int256,int256,int256,int256,int256,int256))": {
        "details": "Can only be updated by the assets actor or by an authorized account.",
        "params": {
          "assetId": "id of the asset",
          "state": "next state of the asset"
        }
      },
      "setState(bytes32,(uint8,uint256,uint256,uint256,uint256,uint256,uint256,uint256,int256,int256,int256,int256,int256,int256,int256,int256,int256,int256,int256,int256,int256,int256,int256))": {
        "details": "Can only be updated by the assets actor or by an authorized account.",
        "params": {
          "assetId": "id of the asset",
          "state": "next state of the asset"
        }
      },
      "setTerms(bytes32,(uint8,uint8,uint8,uint8,uint8,uint8,uint8,uint8,address,address,bytes32,uint256,uint256,uint256,uint256,uint256,uint256,uint256,uint256,uint256,uint256,uint256,uint256,int256,int256,int256,int256,int256,int256,int256,int256,int256,int256,int256,int256,int256,int256,int256,int256,(uint256,uint8,bool),(uint256,uint8,bool),(uint256,uint8,uint8,bool),(uint256,uint8,uint8,bool),(uint256,uint8,uint8,bool),(uint256,uint8,uint8,bool),(uint256,uint8,uint8,bool)))": {
        "details": "Can only be set by authorized account.",
        "params": {
          "assetId": "id of the asset",
          "terms": "new terms"
        }
      },
      "transferOwnership(address)": {
        "details": "Transfers ownership of the contract to a new account (`newOwner`). Can only be called by the current owner."
      }
    },
    "title": "ANNRegistry",
    "version": 1
  },
  "userdoc": {
    "kind": "user",
    "methods": {
      "approveActor(address)": {
        "notice": "Approves the address of an actor contract e.g. for registering assets."
      },
      "getActor(bytes32)": {
        "notice": "Returns the address of the actor which is allowed to update the state of the asset."
      },
      "getEngine(bytes32)": {
        "notice": "Returns the address of a the ACTUS engine corresponding to the ContractType of an asset."
      },
      "getEpochOffset(uint8)": {
        "notice": "Returns the epoch offset for a given event type to determine the correct order of events if multiple events have the same timestamp"
      },
      "getEventAtIndex(bytes32,uint256)": {
        "notice": "Returns an event for a given position (index) in a schedule of a given asset."
      },
      "getFinalizedState(bytes32)": {
        "notice": "Returns the state of an asset."
      },
      "getNextScheduleIndex(bytes32)": {
        "notice": "Returns the index of the next event to be processed for a schedule of an asset."
      },
      "getNextScheduledEvent(bytes32)": {
        "notice": "Returns the next event to process."
      },
      "getNextUnderlyingEvent(bytes32)": {
        "notice": "If the underlying of the asset changes in performance to a covered performance, it returns the exerciseDate event."
      },
      "getOwnership(bytes32)": {
        "notice": "Retrieves the registered addresses of owners (creator, counterparty) of an asset."
      },
      "getSchedule(bytes32)": {
        "notice": "Convenience method for retrieving the entire schedule Not recommended to execute method on-chain (if schedule is too long the tx may run out of gas)"
      },
      "getScheduleLength(bytes32)": {
        "notice": "Returns the length of a schedule of a given asset."
      },
      "getState(bytes32)": {
        "notice": "Returns the state of an asset."
      },
      "getTerms(bytes32)": {
        "notice": "Returns the terms of an asset."
      },
      "grantAccess(bytes32,bytes4,address)": {
        "notice": "Grant access to an account to call a specific method on a specific asset."
      },
      "hasAccess(bytes32,bytes4,address)": {
        "notice": "Check whether an account is allowed to call a specific method on a specific asset."
      },
      "hasRootAccess(bytes32,address)": {
        "notice": "Check whether an account has root access for a specific asset."
      },
      "isEventSettled(bytes32,bytes32)": {
        "notice": "Returns true if an event of an assets schedule was settled"
      },
      "isRegistered(bytes32)": {
        "notice": "Returns if there is an asset registerd for a given assetId"
      },
      "markEventAsSettled(bytes32,bytes32,int256)": {
        "notice": "Mark an event as settled"
      },
      "popNextScheduledEvent(bytes32)": {
        "notice": "Increments the index of a schedule of an asset. (if max index is reached the index will be left unchanged)"
      },
      "registerAsset(bytes32,(uint8,uint8,uint8,uint8,uint8,uint8,uint8,uint8,address,address,bytes32,uint256,uint256,uint256,uint256,uint256,uint256,uint256,uint256,uint256,uint256,uint256,uint256,int256,int256,int256,int256,int256,int256,int256,int256,int256,int256,int256,int256,int256,int256,int256,int256,(uint256,uint8,bool),(uint256,uint8,bool),(uint256,uint8,uint8,bool),(uint256,uint8,uint8,bool),(uint256,uint8,uint8,bool),(uint256,uint8,uint8,bool),(uint256,uint8,uint8,bool)),(uint8,uint256,uint256,uint256,uint256,uint256,uint256,uint256,int256,int256,int256,int256,int256,int256,int256,int256,int256,int256,int256,int256,int256,int256,int256),bytes32[],(address,address,address,address),address,address,address)": {
        "notice": "@param assetId id of the asset"
      },
      "revokeAccess(bytes32,bytes4,address)": {
        "notice": "Revoke access for an account to call a specific method on a specific asset."
      },
      "setActor(bytes32,address)": {
        "notice": "Set the address of the Actor contract which should be going forward."
      },
      "setCounterpartyBeneficiary(bytes32,address)": {
        "notice": "Updates the address of the default beneficiary of cashflows going to the counterparty."
      },
      "setCounterpartyObligor(bytes32,address)": {
        "notice": "Update the address of the counterparty which has to fulfill obligations for the counterparty of the asset."
      },
      "setCreatorBeneficiary(bytes32,address)": {
        "notice": "Update the address of the default beneficiary of cashflows going to the creator."
      },
      "setCreatorObligor(bytes32,address)": {
        "notice": "Update the address of the obligor which has to fulfill obligations for the creator of the asset."
      },
      "setEngine(bytes32,address)": {
        "notice": "Set the engine address which should be used for the asset going forward."
      },
      "setFinalizedState(bytes32,(uint8,uint256,uint256,uint256,uint256,uint256,uint256,uint256,int256,int256,int256,int256,int256,int256,int256,int256,int256,int256,int256,int256,int256,int256,int256))": {
        "notice": "Sets next finalized state of an asset."
      },
      "setState(bytes32,(uint8,uint256,uint256,uint256,uint256,uint256,uint256,uint256,int256,int256,int256,int256,int256,int256,int256,int256,int256,int256,int256,int256,int256,int256,int256))": {
        "notice": "Sets next state of an asset."
      },
      "setTerms(bytes32,(uint8,uint8,uint8,uint8,uint8,uint8,uint8,uint8,address,address,bytes32,uint256,uint256,uint256,uint256,uint256,uint256,uint256,uint256,uint256,uint256,uint256,uint256,int256,int256,int256,int256,int256,int256,int256,int256,int256,int256,int256,int256,int256,int256,int256,int256,(uint256,uint8,bool),(uint256,uint8,bool),(uint256,uint8,uint8,bool),(uint256,uint8,uint8,bool),(uint256,uint8,uint8,bool),(uint256,uint8,uint8,bool),(uint256,uint8,uint8,bool)))": {
        "notice": "Set the terms of the asset"
      }
    },
    "notice": "Registry for ACTUS Protocol assets",
    "version": 1
  },
  "storageLayout": {
    "storage": [
      {
        "astId": 30,
        "contract": "contracts/Core/ANN/ANNRegistry.sol:ANNRegistry",
        "label": "_owner",
        "offset": 0,
        "slot": "0",
        "type": "t_address"
      },
      {
        "astId": 23322,
        "contract": "contracts/Core/ANN/ANNRegistry.sol:ANNRegistry",
        "label": "assets",
        "offset": 0,
        "slot": "1",
        "type": "t_mapping(t_bytes32,t_struct(Asset)23311_storage)"
      },
      {
        "astId": 23020,
        "contract": "contracts/Core/ANN/ANNRegistry.sol:ANNRegistry",
        "label": "approvedActors",
        "offset": 0,
        "slot": "2",
        "type": "t_mapping(t_address,t_bool)"
      }
    ],
    "types": {
      "t_address": {
        "encoding": "inplace",
        "label": "address",
        "numberOfBytes": "20"
      },
      "t_bool": {
        "encoding": "inplace",
        "label": "bool",
        "numberOfBytes": "1"
      },
      "t_bytes32": {
        "encoding": "inplace",
        "label": "bytes32",
        "numberOfBytes": "32"
      },
      "t_bytes4": {
        "encoding": "inplace",
        "label": "bytes4",
        "numberOfBytes": "4"
      },
      "t_enum(EventType)1645": {
        "encoding": "inplace",
        "label": "enum EventType",
        "numberOfBytes": "1"
      },
      "t_int256": {
        "encoding": "inplace",
        "label": "int256",
        "numberOfBytes": "32"
      },
      "t_int8": {
        "encoding": "inplace",
        "label": "int8",
        "numberOfBytes": "1"
      },
      "t_mapping(t_address,t_bool)": {
        "encoding": "mapping",
        "key": "t_address",
        "label": "mapping(address => bool)",
        "numberOfBytes": "32",
        "value": "t_bool"
      },
      "t_mapping(t_bytes32,t_bytes32)": {
        "encoding": "mapping",
        "key": "t_bytes32",
        "label": "mapping(bytes32 => bytes32)",
        "numberOfBytes": "32",
        "value": "t_bytes32"
      },
      "t_mapping(t_bytes32,t_struct(Asset)23311_storage)": {
        "encoding": "mapping",
        "key": "t_bytes32",
        "label": "mapping(bytes32 => struct Asset)",
        "numberOfBytes": "32",
        "value": "t_struct(Asset)23311_storage"
      },
      "t_mapping(t_bytes32,t_struct(Settlement)23278_storage)": {
        "encoding": "mapping",
        "key": "t_bytes32",
        "label": "mapping(bytes32 => struct Settlement)",
        "numberOfBytes": "32",
        "value": "t_struct(Settlement)23278_storage"
      },
      "t_mapping(t_bytes4,t_mapping(t_address,t_bool))": {
        "encoding": "mapping",
        "key": "t_bytes4",
        "label": "mapping(bytes4 => mapping(address => bool))",
        "numberOfBytes": "32",
        "value": "t_mapping(t_address,t_bool)"
      },
      "t_mapping(t_enum(EventType)1645,t_uint256)": {
        "encoding": "mapping",
        "key": "t_enum(EventType)1645",
        "label": "mapping(enum EventType => uint256)",
        "numberOfBytes": "32",
        "value": "t_uint256"
      },
      "t_mapping(t_int8,t_address)": {
        "encoding": "mapping",
        "key": "t_int8",
        "label": "mapping(int8 => address)",
        "numberOfBytes": "32",
        "value": "t_address"
      },
      "t_mapping(t_uint256,t_bytes32)": {
        "encoding": "mapping",
        "key": "t_uint256",
        "label": "mapping(uint256 => bytes32)",
        "numberOfBytes": "32",
        "value": "t_bytes32"
      },
      "t_struct(Asset)23311_storage": {
        "encoding": "inplace",
        "label": "struct Asset",
        "members": [
          {
            "astId": 23280,
            "contract": "contracts/Core/ANN/ANNRegistry.sol:ANNRegistry",
            "label": "isSet",
            "offset": 0,
            "slot": "0",
            "type": "t_bool"
          },
          {
            "astId": 23282,
            "contract": "contracts/Core/ANN/ANNRegistry.sol:ANNRegistry",
            "label": "engine",
            "offset": 1,
            "slot": "0",
            "type": "t_address"
          },
          {
            "astId": 23284,
            "contract": "contracts/Core/ANN/ANNRegistry.sol:ANNRegistry",
            "label": "actor",
            "offset": 0,
            "slot": "1",
            "type": "t_address"
          },
          {
            "astId": 23286,
            "contract": "contracts/Core/ANN/ANNRegistry.sol:ANNRegistry",
            "label": "schedule",
            "offset": 0,
            "slot": "2",
            "type": "t_struct(Schedule)26673_storage"
          },
          {
            "astId": 23288,
            "contract": "contracts/Core/ANN/ANNRegistry.sol:ANNRegistry",
            "label": "ownership",
            "offset": 0,
            "slot": "8",
            "type": "t_struct(AssetOwnership)26656_storage"
          },
          {
            "astId": 23292,
            "contract": "contracts/Core/ANN/ANNRegistry.sol:ANNRegistry",
            "label": "cashflowBeneficiaries",
            "offset": 0,
            "slot": "12",
            "type": "t_mapping(t_int8,t_address)"
          },
          {
            "astId": 23298,
            "contract": "contracts/Core/ANN/ANNRegistry.sol:ANNRegistry",
            "label": "access",
            "offset": 0,
            "slot": "13",
            "type": "t_mapping(t_bytes4,t_mapping(t_address,t_bool))"
          },
          {
            "astId": 23302,
            "contract": "contracts/Core/ANN/ANNRegistry.sol:ANNRegistry",
            "label": "packedTerms",
            "offset": 0,
            "slot": "14",
            "type": "t_mapping(t_bytes32,t_bytes32)"
          },
          {
            "astId": 23306,
            "contract": "contracts/Core/ANN/ANNRegistry.sol:ANNRegistry",
            "label": "packedState",
            "offset": 0,
            "slot": "15",
            "type": "t_mapping(t_bytes32,t_bytes32)"
          },
          {
            "astId": 23310,
            "contract": "contracts/Core/ANN/ANNRegistry.sol:ANNRegistry",
            "label": "settlement",
            "offset": 0,
            "slot": "16",
            "type": "t_mapping(t_bytes32,t_struct(Settlement)23278_storage)"
          }
        ],
        "numberOfBytes": "544"
      },
      "t_struct(AssetOwnership)26656_storage": {
        "encoding": "inplace",
        "label": "struct AssetOwnership",
        "members": [
          {
            "astId": 26649,
            "contract": "contracts/Core/ANN/ANNRegistry.sol:ANNRegistry",
            "label": "creatorObligor",
            "offset": 0,
            "slot": "0",
            "type": "t_address"
          },
          {
            "astId": 26651,
            "contract": "contracts/Core/ANN/ANNRegistry.sol:ANNRegistry",
            "label": "creatorBeneficiary",
            "offset": 0,
            "slot": "1",
            "type": "t_address"
          },
          {
            "astId": 26653,
            "contract": "contracts/Core/ANN/ANNRegistry.sol:ANNRegistry",
            "label": "counterpartyObligor",
            "offset": 0,
            "slot": "2",
            "type": "t_address"
          },
          {
            "astId": 26655,
            "contract": "contracts/Core/ANN/ANNRegistry.sol:ANNRegistry",
            "label": "counterpartyBeneficiary",
            "offset": 0,
            "slot": "3",
            "type": "t_address"
          }
        ],
        "numberOfBytes": "128"
      },
      "t_struct(Schedule)26673_storage": {
        "encoding": "inplace",
        "label": "struct Schedule",
        "members": [
          {
            "astId": 26660,
            "contract": "contracts/Core/ANN/ANNRegistry.sol:ANNRegistry",
            "label": "lastScheduleTimeOfCyclicEvent",
            "offset": 0,
            "slot": "0",
            "type": "t_mapping(t_enum(EventType)1645,t_uint256)"
          },
          {
            "astId": 26664,
            "contract": "contracts/Core/ANN/ANNRegistry.sol:ANNRegistry",
            "label": "events",
            "offset": 0,
            "slot": "1",
            "type": "t_mapping(t_uint256,t_bytes32)"
          },
          {
            "astId": 26666,
            "contract": "contracts/Core/ANN/ANNRegistry.sol:ANNRegistry",
            "label": "length",
            "offset": 0,
            "slot": "2",
            "type": "t_uint256"
          },
          {
            "astId": 26668,
            "contract": "contracts/Core/ANN/ANNRegistry.sol:ANNRegistry",
            "label": "nextScheduleIndex",
            "offset": 0,
            "slot": "3",
            "type": "t_uint256"
          },
          {
            "astId": 26670,
            "contract": "contracts/Core/ANN/ANNRegistry.sol:ANNRegistry",
            "label": "pendingEvent",
            "offset": 0,
            "slot": "4",
            "type": "t_bytes32"
          },
          {
            "astId": 26672,
            "contract": "contracts/Core/ANN/ANNRegistry.sol:ANNRegistry",
            "label": "lastNonCyclicEvent",
            "offset": 0,
            "slot": "5",
            "type": "t_bytes32"
          }
        ],
        "numberOfBytes": "192"
      },
      "t_struct(Settlement)23278_storage": {
        "encoding": "inplace",
        "label": "struct Settlement",
        "members": [
          {
            "astId": 23275,
            "contract": "contracts/Core/ANN/ANNRegistry.sol:ANNRegistry",
            "label": "isSettled",
            "offset": 0,
            "slot": "0",
            "type": "t_bool"
          },
          {
            "astId": 23277,
            "contract": "contracts/Core/ANN/ANNRegistry.sol:ANNRegistry",
            "label": "payoff",
            "offset": 0,
            "slot": "1",
            "type": "t_int256"
          }
        ],
        "numberOfBytes": "64"
      },
      "t_uint256": {
        "encoding": "inplace",
        "label": "uint256",
        "numberOfBytes": "32"
      }
    }
  }
}