{
  "address": "0xA240Ee48f8dD44CdEeAC513C6fd6739F0C6bE46c",
  "abi": [
    {
      "inputs": [],
      "stateMutability": "nonpayable",
      "type": "constructor"
    },
    {
      "anonymous": false,
      "inputs": [
        {
          "indexed": true,
          "internalType": "bytes32",
          "name": "assetId",
          "type": "bytes32"
        },
        {
          "indexed": true,
          "internalType": "address",
          "name": "account",
          "type": "address"
        },
        {
          "indexed": false,
          "internalType": "bytes4",
          "name": "methodSignature",
          "type": "bytes4"
        }
      ],
      "name": "GrantedAccess",
      "type": "event"
    },
    {
      "anonymous": false,
      "inputs": [
        {
          "indexed": true,
          "internalType": "address",
          "name": "previousOwner",
          "type": "address"
        },
        {
          "indexed": true,
          "internalType": "address",
          "name": "newOwner",
          "type": "address"
        }
      ],
      "name": "OwnershipTransferred",
      "type": "event"
    },
    {
      "anonymous": false,
      "inputs": [
        {
          "indexed": false,
          "internalType": "bytes32",
          "name": "assetId",
          "type": "bytes32"
        }
      ],
      "name": "RegisteredAsset",
      "type": "event"
    },
    {
      "anonymous": false,
      "inputs": [
        {
          "indexed": true,
          "internalType": "bytes32",
          "name": "assetId",
          "type": "bytes32"
        },
        {
          "indexed": true,
          "internalType": "address",
          "name": "account",
          "type": "address"
        },
        {
          "indexed": false,
          "internalType": "bytes4",
          "name": "methodSignature",
          "type": "bytes4"
        }
      ],
      "name": "RevokedAccess",
      "type": "event"
    },
    {
      "anonymous": false,
      "inputs": [
        {
          "indexed": true,
          "internalType": "bytes32",
          "name": "assetId",
          "type": "bytes32"
        },
        {
          "indexed": false,
          "internalType": "address",
          "name": "prevActor",
          "type": "address"
        },
        {
          "indexed": false,
          "internalType": "address",
          "name": "newActor",
          "type": "address"
        }
      ],
      "name": "UpdatedActor",
      "type": "event"
    },
    {
      "anonymous": false,
      "inputs": [
        {
          "indexed": false,
          "internalType": "bytes32",
          "name": "assetId",
          "type": "bytes32"
        },
        {
          "indexed": false,
          "internalType": "address",
          "name": "prevBeneficiary",
          "type": "address"
        },
        {
          "indexed": false,
          "internalType": "address",
          "name": "newBeneficiary",
          "type": "address"
        }
      ],
      "name": "UpdatedBeneficiary",
      "type": "event"
    },
    {
      "anonymous": false,
      "inputs": [
        {
          "indexed": true,
          "internalType": "bytes32",
          "name": "assetId",
          "type": "bytes32"
        },
        {
          "indexed": false,
          "internalType": "address",
          "name": "prevEngine",
          "type": "address"
        },
        {
          "indexed": false,
          "internalType": "address",
          "name": "newEngine",
          "type": "address"
        }
      ],
      "name": "UpdatedEngine",
      "type": "event"
    },
    {
      "anonymous": false,
      "inputs": [
        {
          "indexed": true,
          "internalType": "bytes32",
          "name": "assetId",
          "type": "bytes32"
        },
        {
          "indexed": false,
          "internalType": "uint256",
          "name": "statusDate",
          "type": "uint256"
        }
      ],
      "name": "UpdatedFinalizedState",
      "type": "event"
    },
    {
      "anonymous": false,
      "inputs": [
        {
          "indexed": false,
          "internalType": "bytes32",
          "name": "assetId",
          "type": "bytes32"
        },
        {
          "indexed": false,
          "internalType": "address",
          "name": "prevObligor",
          "type": "address"
        },
        {
          "indexed": false,
          "internalType": "address",
          "name": "newObligor",
          "type": "address"
        }
      ],
      "name": "UpdatedObligor",
      "type": "event"
    },
    {
      "anonymous": false,
      "inputs": [
        {
          "indexed": true,
          "internalType": "bytes32",
          "name": "assetId",
          "type": "bytes32"
        },
        {
          "indexed": false,
          "internalType": "uint256",
          "name": "statusDate",
          "type": "uint256"
        }
      ],
      "name": "UpdatedState",
      "type": "event"
    },
    {
      "anonymous": false,
      "inputs": [
        {
          "indexed": true,
          "internalType": "bytes32",
          "name": "assetId",
          "type": "bytes32"
        }
      ],
      "name": "UpdatedTerms",
      "type": "event"
    },
    {
      "inputs": [
        {
          "internalType": "address",
          "name": "actor",
          "type": "address"
        }
      ],
      "name": "approveActor",
      "outputs": [],
      "stateMutability": "nonpayable",
      "type": "function"
    },
    {
      "inputs": [
        {
          "internalType": "address",
          "name": "",
          "type": "address"
        }
      ],
      "name": "approvedActors",
      "outputs": [
        {
          "internalType": "bool",
          "name": "",
          "type": "bool"
        }
      ],
      "stateMutability": "view",
      "type": "function"
    },
    {
      "inputs": [
        {
          "internalType": "bytes32",
          "name": "assetId",
          "type": "bytes32"
        }
      ],
      "name": "getActor",
      "outputs": [
        {
          "internalType": "address",
          "name": "",
          "type": "address"
        }
      ],
      "stateMutability": "view",
      "type": "function"
    },
    {
      "inputs": [
        {
          "internalType": "bytes32",
          "name": "assetId",
          "type": "bytes32"
        },
        {
          "internalType": "bytes32",
          "name": "attribute",
          "type": "bytes32"
        }
      ],
      "name": "getAddressValueForTermsAttribute",
      "outputs": [
        {
          "internalType": "address",
          "name": "",
          "type": "address"
        }
      ],
      "stateMutability": "view",
      "type": "function"
    },
    {
      "inputs": [
        {
          "internalType": "bytes32",
          "name": "assetId",
          "type": "bytes32"
        },
        {
          "internalType": "bytes32",
          "name": "attribute",
          "type": "bytes32"
        }
      ],
      "name": "getBytes32ValueForTermsAttribute",
      "outputs": [
        {
          "internalType": "bytes32",
          "name": "",
          "type": "bytes32"
        }
      ],
      "stateMutability": "view",
      "type": "function"
    },
    {
      "inputs": [
        {
          "internalType": "bytes32",
          "name": "assetId",
          "type": "bytes32"
        },
        {
          "internalType": "bytes32",
          "name": "attribute",
          "type": "bytes32"
        }
      ],
      "name": "getContractReferenceValueForTermsAttribute",
      "outputs": [
        {
          "components": [
            {
              "internalType": "bytes32",
              "name": "object",
              "type": "bytes32"
            },
            {
              "internalType": "bytes32",
              "name": "object2",
              "type": "bytes32"
            },
            {
              "internalType": "enum ContractReferenceType",
              "name": "_type",
              "type": "uint8"
            },
            {
              "internalType": "enum ContractReferenceRole",
              "name": "role",
              "type": "uint8"
            }
          ],
          "internalType": "struct ContractReference",
          "name": "",
          "type": "tuple"
        }
      ],
      "stateMutability": "view",
      "type": "function"
    },
    {
      "inputs": [
        {
          "internalType": "bytes32",
          "name": "assetId",
          "type": "bytes32"
        },
        {
          "internalType": "bytes32",
          "name": "attribute",
          "type": "bytes32"
        }
      ],
      "name": "getCycleValueForTermsAttribute",
      "outputs": [
        {
          "components": [
            {
              "internalType": "uint256",
              "name": "i",
              "type": "uint256"
            },
            {
              "internalType": "enum P",
              "name": "p",
              "type": "uint8"
            },
            {
              "internalType": "enum S",
              "name": "s",
              "type": "uint8"
            },
            {
              "internalType": "bool",
              "name": "isSet",
              "type": "bool"
            }
          ],
          "internalType": "struct IPS",
          "name": "",
          "type": "tuple"
        }
      ],
      "stateMutability": "view",
      "type": "function"
    },
    {
      "inputs": [
        {
          "internalType": "bytes32",
          "name": "assetId",
          "type": "bytes32"
        }
      ],
      "name": "getEngine",
      "outputs": [
        {
          "internalType": "address",
          "name": "",
          "type": "address"
        }
      ],
      "stateMutability": "view",
      "type": "function"
    },
    {
      "inputs": [
        {
          "internalType": "bytes32",
          "name": "assetId",
          "type": "bytes32"
        },
        {
          "internalType": "bytes32",
          "name": "attribute",
          "type": "bytes32"
        }
      ],
      "name": "getEnumValueForStateAttribute",
      "outputs": [
        {
          "internalType": "uint8",
          "name": "",
          "type": "uint8"
        }
      ],
      "stateMutability": "view",
      "type": "function"
    },
    {
      "inputs": [
        {
          "internalType": "bytes32",
          "name": "assetId",
          "type": "bytes32"
        },
        {
          "internalType": "bytes32",
          "name": "attribute",
          "type": "bytes32"
        }
      ],
      "name": "getEnumValueForTermsAttribute",
      "outputs": [
        {
          "internalType": "uint8",
          "name": "",
          "type": "uint8"
        }
      ],
      "stateMutability": "view",
      "type": "function"
    },
    {
      "inputs": [
        {
          "internalType": "bytes32",
          "name": "assetId",
          "type": "bytes32"
        },
        {
          "internalType": "uint256",
          "name": "index",
          "type": "uint256"
        }
      ],
      "name": "getEventAtIndex",
      "outputs": [
        {
          "internalType": "bytes32",
          "name": "",
          "type": "bytes32"
        }
      ],
      "stateMutability": "view",
      "type": "function"
    },
    {
      "inputs": [
        {
          "internalType": "bytes32",
          "name": "assetId",
          "type": "bytes32"
        }
      ],
      "name": "getFinalizedState",
      "outputs": [
        {
          "components": [
            {
              "internalType": "enum ContractPerformance",
              "name": "contractPerformance",
              "type": "uint8"
            },
            {
              "internalType": "uint256",
              "name": "statusDate",
              "type": "uint256"
            },
            {
              "internalType": "uint256",
              "name": "nonPerformingDate",
              "type": "uint256"
            },
            {
              "internalType": "uint256",
              "name": "maturityDate",
              "type": "uint256"
            },
            {
              "internalType": "uint256",
              "name": "exerciseDate",
              "type": "uint256"
            },
            {
              "internalType": "uint256",
              "name": "terminationDate",
              "type": "uint256"
            },
            {
              "internalType": "uint256",
              "name": "lastCouponFixingDate",
              "type": "uint256"
            },
            {
              "internalType": "uint256",
              "name": "lastDividendFixingDate",
              "type": "uint256"
            },
            {
              "internalType": "int256",
              "name": "notionalPrincipal",
              "type": "int256"
            },
            {
              "internalType": "int256",
              "name": "accruedInterest",
              "type": "int256"
            },
            {
              "internalType": "int256",
              "name": "feeAccrued",
              "type": "int256"
            },
            {
              "internalType": "int256",
              "name": "nominalInterestRate",
              "type": "int256"
            },
            {
              "internalType": "int256",
              "name": "interestScalingMultiplier",
              "type": "int256"
            },
            {
              "internalType": "int256",
              "name": "notionalScalingMultiplier",
              "type": "int256"
            },
            {
              "internalType": "int256",
              "name": "nextPrincipalRedemptionPayment",
              "type": "int256"
            },
            {
              "internalType": "int256",
              "name": "exerciseAmount",
              "type": "int256"
            },
            {
              "internalType": "int256",
              "name": "exerciseQuantity",
              "type": "int256"
            },
            {
              "internalType": "int256",
              "name": "quantity",
              "type": "int256"
            },
            {
              "internalType": "int256",
              "name": "couponAmountFixed",
              "type": "int256"
            },
            {
              "internalType": "int256",
              "name": "marginFactor",
              "type": "int256"
            },
            {
              "internalType": "int256",
              "name": "adjustmentFactor",
              "type": "int256"
            },
            {
              "internalType": "int256",
              "name": "dividendPaymentAmount",
              "type": "int256"
            },
            {
              "internalType": "int256",
              "name": "splitRatio",
              "type": "int256"
            }
          ],
          "internalType": "struct State",
          "name": "",
          "type": "tuple"
        }
      ],
      "stateMutability": "view",
      "type": "function"
    },
    {
      "inputs": [
        {
          "internalType": "bytes32",
          "name": "assetId",
          "type": "bytes32"
        },
        {
          "internalType": "bytes32",
          "name": "attribute",
          "type": "bytes32"
        }
      ],
      "name": "getIntValueForStateAttribute",
      "outputs": [
        {
          "internalType": "int256",
          "name": "",
          "type": "int256"
        }
      ],
      "stateMutability": "view",
      "type": "function"
    },
    {
      "inputs": [
        {
          "internalType": "bytes32",
          "name": "assetId",
          "type": "bytes32"
        },
        {
          "internalType": "bytes32",
          "name": "attribute",
          "type": "bytes32"
        }
      ],
      "name": "getIntValueForTermsAttribute",
      "outputs": [
        {
          "internalType": "int256",
          "name": "",
          "type": "int256"
        }
      ],
      "stateMutability": "view",
      "type": "function"
    },
    {
      "inputs": [
        {
          "internalType": "bytes32",
          "name": "assetId",
          "type": "bytes32"
        }
      ],
      "name": "getNextScheduleIndex",
      "outputs": [
        {
          "internalType": "uint256",
          "name": "",
          "type": "uint256"
        }
      ],
      "stateMutability": "view",
      "type": "function"
    },
    {
      "inputs": [
        {
          "internalType": "bytes32",
          "name": "assetId",
          "type": "bytes32"
        }
      ],
      "name": "getNextScheduledEvent",
      "outputs": [
        {
          "internalType": "bytes32",
          "name": "",
          "type": "bytes32"
        }
      ],
      "stateMutability": "view",
      "type": "function"
    },
    {
      "inputs": [
        {
          "internalType": "bytes32",
          "name": "assetId",
          "type": "bytes32"
        }
      ],
      "name": "getNextUnderlyingEvent",
      "outputs": [
        {
          "internalType": "bytes32",
          "name": "",
          "type": "bytes32"
        }
      ],
      "stateMutability": "view",
      "type": "function"
    },
    {
      "inputs": [
        {
          "internalType": "bytes32",
          "name": "assetId",
          "type": "bytes32"
        }
      ],
      "name": "getOwnership",
      "outputs": [
        {
          "components": [
            {
              "internalType": "address",
              "name": "creatorObligor",
              "type": "address"
            },
            {
              "internalType": "address",
              "name": "creatorBeneficiary",
              "type": "address"
            },
            {
              "internalType": "address",
              "name": "counterpartyObligor",
              "type": "address"
            },
            {
              "internalType": "address",
              "name": "counterpartyBeneficiary",
              "type": "address"
            }
          ],
          "internalType": "struct AssetOwnership",
          "name": "",
          "type": "tuple"
        }
      ],
      "stateMutability": "view",
      "type": "function"
    },
    {
      "inputs": [
        {
          "internalType": "bytes32",
          "name": "assetId",
          "type": "bytes32"
        }
      ],
      "name": "getPendingEvent",
      "outputs": [
        {
          "internalType": "bytes32",
          "name": "",
          "type": "bytes32"
        }
      ],
      "stateMutability": "view",
      "type": "function"
    },
    {
      "inputs": [
        {
          "internalType": "bytes32",
          "name": "assetId",
          "type": "bytes32"
        },
        {
          "internalType": "bytes32",
          "name": "attribute",
          "type": "bytes32"
        }
      ],
      "name": "getPeriodValueForTermsAttribute",
      "outputs": [
        {
          "components": [
            {
              "internalType": "uint256",
              "name": "i",
              "type": "uint256"
            },
            {
              "internalType": "enum P",
              "name": "p",
              "type": "uint8"
            },
            {
              "internalType": "bool",
              "name": "isSet",
              "type": "bool"
            }
          ],
          "internalType": "struct IP",
          "name": "",
          "type": "tuple"
        }
      ],
      "stateMutability": "view",
      "type": "function"
    },
    {
      "inputs": [
        {
          "internalType": "bytes32",
          "name": "assetId",
          "type": "bytes32"
        }
      ],
      "name": "getSchedule",
      "outputs": [
        {
          "internalType": "bytes32[]",
          "name": "",
          "type": "bytes32[]"
        }
      ],
      "stateMutability": "view",
      "type": "function"
    },
    {
      "inputs": [
        {
          "internalType": "bytes32",
          "name": "assetId",
          "type": "bytes32"
        }
      ],
      "name": "getScheduleLength",
      "outputs": [
        {
          "internalType": "uint256",
          "name": "",
          "type": "uint256"
        }
      ],
      "stateMutability": "view",
      "type": "function"
    },
    {
      "inputs": [
        {
          "internalType": "bytes32",
          "name": "assetId",
          "type": "bytes32"
        }
      ],
      "name": "getState",
      "outputs": [
        {
          "components": [
            {
              "internalType": "enum ContractPerformance",
              "name": "contractPerformance",
              "type": "uint8"
            },
            {
              "internalType": "uint256",
              "name": "statusDate",
              "type": "uint256"
            },
            {
              "internalType": "uint256",
              "name": "nonPerformingDate",
              "type": "uint256"
            },
            {
              "internalType": "uint256",
              "name": "maturityDate",
              "type": "uint256"
            },
            {
              "internalType": "uint256",
              "name": "exerciseDate",
              "type": "uint256"
            },
            {
              "internalType": "uint256",
              "name": "terminationDate",
              "type": "uint256"
            },
            {
              "internalType": "uint256",
              "name": "lastCouponFixingDate",
              "type": "uint256"
            },
            {
              "internalType": "uint256",
              "name": "lastDividendFixingDate",
              "type": "uint256"
            },
            {
              "internalType": "int256",
              "name": "notionalPrincipal",
              "type": "int256"
            },
            {
              "internalType": "int256",
              "name": "accruedInterest",
              "type": "int256"
            },
            {
              "internalType": "int256",
              "name": "feeAccrued",
              "type": "int256"
            },
            {
              "internalType": "int256",
              "name": "nominalInterestRate",
              "type": "int256"
            },
            {
              "internalType": "int256",
              "name": "interestScalingMultiplier",
              "type": "int256"
            },
            {
              "internalType": "int256",
              "name": "notionalScalingMultiplier",
              "type": "int256"
            },
            {
              "internalType": "int256",
              "name": "nextPrincipalRedemptionPayment",
              "type": "int256"
            },
            {
              "internalType": "int256",
              "name": "exerciseAmount",
              "type": "int256"
            },
            {
              "internalType": "int256",
              "name": "exerciseQuantity",
              "type": "int256"
            },
            {
              "internalType": "int256",
              "name": "quantity",
              "type": "int256"
            },
            {
              "internalType": "int256",
              "name": "couponAmountFixed",
              "type": "int256"
            },
            {
              "internalType": "int256",
              "name": "marginFactor",
              "type": "int256"
            },
            {
              "internalType": "int256",
              "name": "adjustmentFactor",
              "type": "int256"
            },
            {
              "internalType": "int256",
              "name": "dividendPaymentAmount",
              "type": "int256"
            },
            {
              "internalType": "int256",
              "name": "splitRatio",
              "type": "int256"
            }
          ],
          "internalType": "struct State",
          "name": "",
          "type": "tuple"
        }
      ],
      "stateMutability": "view",
      "type": "function"
    },
    {
      "inputs": [
        {
          "internalType": "bytes32",
          "name": "assetId",
          "type": "bytes32"
        }
      ],
      "name": "getTerms",
      "outputs": [
        {
          "components": [
            {
              "internalType": "enum ContractType",
              "name": "contractType",
              "type": "uint8"
            },
            {
              "internalType": "enum Calendar",
              "name": "calendar",
              "type": "uint8"
            },
            {
              "internalType": "enum ContractRole",
              "name": "contractRole",
              "type": "uint8"
            },
            {
              "internalType": "enum DayCountConvention",
              "name": "dayCountConvention",
              "type": "uint8"
            },
            {
              "internalType": "enum BusinessDayConvention",
              "name": "businessDayConvention",
              "type": "uint8"
            },
            {
              "internalType": "enum EndOfMonthConvention",
              "name": "endOfMonthConvention",
              "type": "uint8"
            },
            {
              "internalType": "enum ContractPerformance",
              "name": "creditEventTypeCovered",
              "type": "uint8"
            },
            {
              "internalType": "enum FeeBasis",
              "name": "feeBasis",
              "type": "uint8"
            },
            {
              "internalType": "uint256",
              "name": "statusDate",
              "type": "uint256"
            },
            {
              "internalType": "uint256",
              "name": "maturityDate",
              "type": "uint256"
            },
            {
              "internalType": "int256",
              "name": "notionalPrincipal",
              "type": "int256"
            },
            {
              "internalType": "int256",
              "name": "feeRate",
              "type": "int256"
            },
            {
              "internalType": "int256",
              "name": "coverageOfCreditEnhancement",
              "type": "int256"
            },
            {
              "components": [
                {
                  "internalType": "bytes32",
                  "name": "object",
                  "type": "bytes32"
                },
                {
                  "internalType": "bytes32",
                  "name": "object2",
                  "type": "bytes32"
                },
                {
                  "internalType": "enum ContractReferenceType",
                  "name": "_type",
                  "type": "uint8"
                },
                {
                  "internalType": "enum ContractReferenceRole",
                  "name": "role",
                  "type": "uint8"
                }
              ],
              "internalType": "struct ContractReference",
              "name": "contractReference_1",
              "type": "tuple"
            },
            {
              "components": [
                {
                  "internalType": "bytes32",
                  "name": "object",
                  "type": "bytes32"
                },
                {
                  "internalType": "bytes32",
                  "name": "object2",
                  "type": "bytes32"
                },
                {
                  "internalType": "enum ContractReferenceType",
                  "name": "_type",
                  "type": "uint8"
                },
                {
                  "internalType": "enum ContractReferenceRole",
                  "name": "role",
                  "type": "uint8"
                }
              ],
              "internalType": "struct ContractReference",
              "name": "contractReference_2",
              "type": "tuple"
            }
          ],
          "internalType": "struct CECTerms",
          "name": "",
          "type": "tuple"
        }
      ],
      "stateMutability": "view",
      "type": "function"
    },
    {
      "inputs": [
        {
          "internalType": "bytes32",
          "name": "assetId",
          "type": "bytes32"
        },
        {
          "internalType": "bytes32",
          "name": "attribute",
          "type": "bytes32"
        }
      ],
      "name": "getUIntValueForTermsAttribute",
      "outputs": [
        {
          "internalType": "uint256",
          "name": "",
          "type": "uint256"
        }
      ],
      "stateMutability": "view",
      "type": "function"
    },
    {
      "inputs": [
        {
          "internalType": "bytes32",
          "name": "assetId",
          "type": "bytes32"
        },
        {
          "internalType": "bytes32",
          "name": "attribute",
          "type": "bytes32"
        }
      ],
      "name": "getUintValueForStateAttribute",
      "outputs": [
        {
          "internalType": "uint256",
          "name": "",
          "type": "uint256"
        }
      ],
      "stateMutability": "view",
      "type": "function"
    },
    {
      "inputs": [
        {
          "internalType": "bytes32",
          "name": "assetId",
          "type": "bytes32"
        },
        {
          "internalType": "bytes4",
          "name": "methodSignature",
          "type": "bytes4"
        },
        {
          "internalType": "address",
          "name": "account",
          "type": "address"
        }
      ],
      "name": "grantAccess",
      "outputs": [],
      "stateMutability": "nonpayable",
      "type": "function"
    },
    {
      "inputs": [
        {
          "internalType": "bytes32",
          "name": "assetId",
          "type": "bytes32"
        },
        {
          "internalType": "bytes4",
          "name": "methodSignature",
          "type": "bytes4"
        },
        {
          "internalType": "address",
          "name": "account",
          "type": "address"
        }
      ],
      "name": "hasAccess",
      "outputs": [
        {
          "internalType": "bool",
          "name": "",
          "type": "bool"
        }
      ],
      "stateMutability": "view",
      "type": "function"
    },
    {
      "inputs": [
        {
          "internalType": "bytes32",
          "name": "assetId",
          "type": "bytes32"
        },
        {
          "internalType": "address",
          "name": "account",
          "type": "address"
        }
      ],
      "name": "hasRootAccess",
      "outputs": [
        {
          "internalType": "bool",
          "name": "",
          "type": "bool"
        }
      ],
      "stateMutability": "view",
      "type": "function"
    },
    {
      "inputs": [
        {
          "internalType": "bytes32",
          "name": "assetId",
          "type": "bytes32"
        },
        {
          "internalType": "bytes32",
          "name": "_event",
          "type": "bytes32"
        }
      ],
      "name": "isEventSettled",
      "outputs": [
        {
          "internalType": "bool",
          "name": "",
          "type": "bool"
        },
        {
          "internalType": "int256",
          "name": "",
          "type": "int256"
        }
      ],
      "stateMutability": "view",
      "type": "function"
    },
    {
      "inputs": [
        {
          "internalType": "bytes32",
          "name": "assetId",
          "type": "bytes32"
        }
      ],
      "name": "isRegistered",
      "outputs": [
        {
          "internalType": "bool",
          "name": "",
          "type": "bool"
        }
      ],
      "stateMutability": "view",
      "type": "function"
    },
    {
      "inputs": [
        {
          "internalType": "bytes32",
          "name": "assetId",
          "type": "bytes32"
        },
        {
          "internalType": "bytes32",
          "name": "_event",
          "type": "bytes32"
        },
        {
          "internalType": "int256",
          "name": "_payoff",
          "type": "int256"
        }
      ],
      "name": "markEventAsSettled",
      "outputs": [],
      "stateMutability": "nonpayable",
      "type": "function"
    },
    {
      "inputs": [],
      "name": "owner",
      "outputs": [
        {
          "internalType": "address",
          "name": "",
          "type": "address"
        }
      ],
      "stateMutability": "view",
      "type": "function"
    },
    {
      "inputs": [
        {
          "internalType": "bytes32",
          "name": "assetId",
          "type": "bytes32"
        }
      ],
      "name": "popNextScheduledEvent",
      "outputs": [
        {
          "internalType": "bytes32",
          "name": "",
          "type": "bytes32"
        }
      ],
      "stateMutability": "nonpayable",
      "type": "function"
    },
    {
      "inputs": [
        {
          "internalType": "bytes32",
          "name": "assetId",
          "type": "bytes32"
        }
      ],
      "name": "popPendingEvent",
      "outputs": [
        {
          "internalType": "bytes32",
          "name": "",
          "type": "bytes32"
        }
      ],
      "stateMutability": "nonpayable",
      "type": "function"
    },
    {
      "inputs": [
        {
          "internalType": "bytes32",
          "name": "assetId",
          "type": "bytes32"
        },
        {
          "internalType": "bytes32",
          "name": "pendingEvent",
          "type": "bytes32"
        }
      ],
      "name": "pushPendingEvent",
      "outputs": [],
      "stateMutability": "nonpayable",
      "type": "function"
    },
    {
      "inputs": [
        {
          "internalType": "bytes32",
          "name": "assetId",
          "type": "bytes32"
        },
        {
          "components": [
            {
              "internalType": "enum ContractType",
              "name": "contractType",
              "type": "uint8"
            },
            {
              "internalType": "enum Calendar",
              "name": "calendar",
              "type": "uint8"
            },
            {
              "internalType": "enum ContractRole",
              "name": "contractRole",
              "type": "uint8"
            },
            {
              "internalType": "enum DayCountConvention",
              "name": "dayCountConvention",
              "type": "uint8"
            },
            {
              "internalType": "enum BusinessDayConvention",
              "name": "businessDayConvention",
              "type": "uint8"
            },
            {
              "internalType": "enum EndOfMonthConvention",
              "name": "endOfMonthConvention",
              "type": "uint8"
            },
            {
              "internalType": "enum ContractPerformance",
              "name": "creditEventTypeCovered",
              "type": "uint8"
            },
            {
              "internalType": "enum FeeBasis",
              "name": "feeBasis",
              "type": "uint8"
            },
            {
              "internalType": "uint256",
              "name": "statusDate",
              "type": "uint256"
            },
            {
              "internalType": "uint256",
              "name": "maturityDate",
              "type": "uint256"
            },
            {
              "internalType": "int256",
              "name": "notionalPrincipal",
              "type": "int256"
            },
            {
              "internalType": "int256",
              "name": "feeRate",
              "type": "int256"
            },
            {
              "internalType": "int256",
              "name": "coverageOfCreditEnhancement",
              "type": "int256"
            },
            {
              "components": [
                {
                  "internalType": "bytes32",
                  "name": "object",
                  "type": "bytes32"
                },
                {
                  "internalType": "bytes32",
                  "name": "object2",
                  "type": "bytes32"
                },
                {
                  "internalType": "enum ContractReferenceType",
                  "name": "_type",
                  "type": "uint8"
                },
                {
                  "internalType": "enum ContractReferenceRole",
                  "name": "role",
                  "type": "uint8"
                }
              ],
              "internalType": "struct ContractReference",
              "name": "contractReference_1",
              "type": "tuple"
            },
            {
              "components": [
                {
                  "internalType": "bytes32",
                  "name": "object",
                  "type": "bytes32"
                },
                {
                  "internalType": "bytes32",
                  "name": "object2",
                  "type": "bytes32"
                },
                {
                  "internalType": "enum ContractReferenceType",
                  "name": "_type",
                  "type": "uint8"
                },
                {
                  "internalType": "enum ContractReferenceRole",
                  "name": "role",
                  "type": "uint8"
                }
              ],
              "internalType": "struct ContractReference",
              "name": "contractReference_2",
              "type": "tuple"
            }
          ],
          "internalType": "struct CECTerms",
          "name": "terms",
          "type": "tuple"
        },
        {
          "components": [
            {
              "internalType": "enum ContractPerformance",
              "name": "contractPerformance",
              "type": "uint8"
            },
            {
              "internalType": "uint256",
              "name": "statusDate",
              "type": "uint256"
            },
            {
              "internalType": "uint256",
              "name": "nonPerformingDate",
              "type": "uint256"
            },
            {
              "internalType": "uint256",
              "name": "maturityDate",
              "type": "uint256"
            },
            {
              "internalType": "uint256",
              "name": "exerciseDate",
              "type": "uint256"
            },
            {
              "internalType": "uint256",
              "name": "terminationDate",
              "type": "uint256"
            },
            {
              "internalType": "uint256",
              "name": "lastCouponFixingDate",
              "type": "uint256"
            },
            {
              "internalType": "uint256",
              "name": "lastDividendFixingDate",
              "type": "uint256"
            },
            {
              "internalType": "int256",
              "name": "notionalPrincipal",
              "type": "int256"
            },
            {
              "internalType": "int256",
              "name": "accruedInterest",
              "type": "int256"
            },
            {
              "internalType": "int256",
              "name": "feeAccrued",
              "type": "int256"
            },
            {
              "internalType": "int256",
              "name": "nominalInterestRate",
              "type": "int256"
            },
            {
              "internalType": "int256",
              "name": "interestScalingMultiplier",
              "type": "int256"
            },
            {
              "internalType": "int256",
              "name": "notionalScalingMultiplier",
              "type": "int256"
            },
            {
              "internalType": "int256",
              "name": "nextPrincipalRedemptionPayment",
              "type": "int256"
            },
            {
              "internalType": "int256",
              "name": "exerciseAmount",
              "type": "int256"
            },
            {
              "internalType": "int256",
              "name": "exerciseQuantity",
              "type": "int256"
            },
            {
              "internalType": "int256",
              "name": "quantity",
              "type": "int256"
            },
            {
              "internalType": "int256",
              "name": "couponAmountFixed",
              "type": "int256"
            },
            {
              "internalType": "int256",
              "name": "marginFactor",
              "type": "int256"
            },
            {
              "internalType": "int256",
              "name": "adjustmentFactor",
              "type": "int256"
            },
            {
              "internalType": "int256",
              "name": "dividendPaymentAmount",
              "type": "int256"
            },
            {
              "internalType": "int256",
              "name": "splitRatio",
              "type": "int256"
            }
          ],
          "internalType": "struct State",
          "name": "state",
          "type": "tuple"
        },
        {
          "internalType": "bytes32[]",
          "name": "schedule",
          "type": "bytes32[]"
        },
        {
          "components": [
            {
              "internalType": "address",
              "name": "creatorObligor",
              "type": "address"
            },
            {
              "internalType": "address",
              "name": "creatorBeneficiary",
              "type": "address"
            },
            {
              "internalType": "address",
              "name": "counterpartyObligor",
              "type": "address"
            },
            {
              "internalType": "address",
              "name": "counterpartyBeneficiary",
              "type": "address"
            }
          ],
          "internalType": "struct AssetOwnership",
          "name": "ownership",
          "type": "tuple"
        },
        {
          "internalType": "address",
          "name": "engine",
          "type": "address"
        },
        {
          "internalType": "address",
          "name": "actor",
          "type": "address"
        },
        {
          "internalType": "address",
          "name": "admin",
          "type": "address"
        }
      ],
      "name": "registerAsset",
      "outputs": [],
      "stateMutability": "nonpayable",
      "type": "function"
    },
    {
      "inputs": [],
      "name": "renounceOwnership",
      "outputs": [],
      "stateMutability": "nonpayable",
      "type": "function"
    },
    {
      "inputs": [
        {
          "internalType": "bytes32",
          "name": "assetId",
          "type": "bytes32"
        },
        {
          "internalType": "bytes4",
          "name": "methodSignature",
          "type": "bytes4"
        },
        {
          "internalType": "address",
          "name": "account",
          "type": "address"
        }
      ],
      "name": "revokeAccess",
      "outputs": [],
      "stateMutability": "nonpayable",
      "type": "function"
    },
    {
      "inputs": [
        {
          "internalType": "bytes32",
          "name": "assetId",
          "type": "bytes32"
        },
        {
          "internalType": "address",
          "name": "actor",
          "type": "address"
        }
      ],
      "name": "setActor",
      "outputs": [],
      "stateMutability": "nonpayable",
      "type": "function"
    },
    {
      "inputs": [
        {
          "internalType": "bytes32",
          "name": "assetId",
          "type": "bytes32"
        },
        {
          "internalType": "address",
          "name": "newCounterpartyBeneficiary",
          "type": "address"
        }
      ],
      "name": "setCounterpartyBeneficiary",
      "outputs": [],
      "stateMutability": "nonpayable",
      "type": "function"
    },
    {
      "inputs": [
        {
          "internalType": "bytes32",
          "name": "assetId",
          "type": "bytes32"
        },
        {
          "internalType": "address",
          "name": "newCounterpartyObligor",
          "type": "address"
        }
      ],
      "name": "setCounterpartyObligor",
      "outputs": [],
      "stateMutability": "nonpayable",
      "type": "function"
    },
    {
      "inputs": [
        {
          "internalType": "bytes32",
          "name": "assetId",
          "type": "bytes32"
        },
        {
          "internalType": "address",
          "name": "newCreatorBeneficiary",
          "type": "address"
        }
      ],
      "name": "setCreatorBeneficiary",
      "outputs": [],
      "stateMutability": "nonpayable",
      "type": "function"
    },
    {
      "inputs": [
        {
          "internalType": "bytes32",
          "name": "assetId",
          "type": "bytes32"
        },
        {
          "internalType": "address",
          "name": "newCreatorObligor",
          "type": "address"
        }
      ],
      "name": "setCreatorObligor",
      "outputs": [],
      "stateMutability": "nonpayable",
      "type": "function"
    },
    {
      "inputs": [
        {
          "internalType": "bytes32",
          "name": "assetId",
          "type": "bytes32"
        },
        {
          "internalType": "address",
          "name": "engine",
          "type": "address"
        }
      ],
      "name": "setEngine",
      "outputs": [],
      "stateMutability": "nonpayable",
      "type": "function"
    },
    {
      "inputs": [
        {
          "internalType": "bytes32",
          "name": "assetId",
          "type": "bytes32"
        },
        {
          "components": [
            {
              "internalType": "enum ContractPerformance",
              "name": "contractPerformance",
              "type": "uint8"
            },
            {
              "internalType": "uint256",
              "name": "statusDate",
              "type": "uint256"
            },
            {
              "internalType": "uint256",
              "name": "nonPerformingDate",
              "type": "uint256"
            },
            {
              "internalType": "uint256",
              "name": "maturityDate",
              "type": "uint256"
            },
            {
              "internalType": "uint256",
              "name": "exerciseDate",
              "type": "uint256"
            },
            {
              "internalType": "uint256",
              "name": "terminationDate",
              "type": "uint256"
            },
            {
              "internalType": "uint256",
              "name": "lastCouponFixingDate",
              "type": "uint256"
            },
            {
              "internalType": "uint256",
              "name": "lastDividendFixingDate",
              "type": "uint256"
            },
            {
              "internalType": "int256",
              "name": "notionalPrincipal",
              "type": "int256"
            },
            {
              "internalType": "int256",
              "name": "accruedInterest",
              "type": "int256"
            },
            {
              "internalType": "int256",
              "name": "feeAccrued",
              "type": "int256"
            },
            {
              "internalType": "int256",
              "name": "nominalInterestRate",
              "type": "int256"
            },
            {
              "internalType": "int256",
              "name": "interestScalingMultiplier",
              "type": "int256"
            },
            {
              "internalType": "int256",
              "name": "notionalScalingMultiplier",
              "type": "int256"
            },
            {
              "internalType": "int256",
              "name": "nextPrincipalRedemptionPayment",
              "type": "int256"
            },
            {
              "internalType": "int256",
              "name": "exerciseAmount",
              "type": "int256"
            },
            {
              "internalType": "int256",
              "name": "exerciseQuantity",
              "type": "int256"
            },
            {
              "internalType": "int256",
              "name": "quantity",
              "type": "int256"
            },
            {
              "internalType": "int256",
              "name": "couponAmountFixed",
              "type": "int256"
            },
            {
              "internalType": "int256",
              "name": "marginFactor",
              "type": "int256"
            },
            {
              "internalType": "int256",
              "name": "adjustmentFactor",
              "type": "int256"
            },
            {
              "internalType": "int256",
              "name": "dividendPaymentAmount",
              "type": "int256"
            },
            {
              "internalType": "int256",
              "name": "splitRatio",
              "type": "int256"
            }
          ],
          "internalType": "struct State",
          "name": "state",
          "type": "tuple"
        }
      ],
      "name": "setFinalizedState",
      "outputs": [],
      "stateMutability": "nonpayable",
      "type": "function"
    },
    {
      "inputs": [
        {
          "internalType": "bytes32",
          "name": "assetId",
          "type": "bytes32"
        },
        {
          "components": [
            {
              "internalType": "enum ContractPerformance",
              "name": "contractPerformance",
              "type": "uint8"
            },
            {
              "internalType": "uint256",
              "name": "statusDate",
              "type": "uint256"
            },
            {
              "internalType": "uint256",
              "name": "nonPerformingDate",
              "type": "uint256"
            },
            {
              "internalType": "uint256",
              "name": "maturityDate",
              "type": "uint256"
            },
            {
              "internalType": "uint256",
              "name": "exerciseDate",
              "type": "uint256"
            },
            {
              "internalType": "uint256",
              "name": "terminationDate",
              "type": "uint256"
            },
            {
              "internalType": "uint256",
              "name": "lastCouponFixingDate",
              "type": "uint256"
            },
            {
              "internalType": "uint256",
              "name": "lastDividendFixingDate",
              "type": "uint256"
            },
            {
              "internalType": "int256",
              "name": "notionalPrincipal",
              "type": "int256"
            },
            {
              "internalType": "int256",
              "name": "accruedInterest",
              "type": "int256"
            },
            {
              "internalType": "int256",
              "name": "feeAccrued",
              "type": "int256"
            },
            {
              "internalType": "int256",
              "name": "nominalInterestRate",
              "type": "int256"
            },
            {
              "internalType": "int256",
              "name": "interestScalingMultiplier",
              "type": "int256"
            },
            {
              "internalType": "int256",
              "name": "notionalScalingMultiplier",
              "type": "int256"
            },
            {
              "internalType": "int256",
              "name": "nextPrincipalRedemptionPayment",
              "type": "int256"
            },
            {
              "internalType": "int256",
              "name": "exerciseAmount",
              "type": "int256"
            },
            {
              "internalType": "int256",
              "name": "exerciseQuantity",
              "type": "int256"
            },
            {
              "internalType": "int256",
              "name": "quantity",
              "type": "int256"
            },
            {
              "internalType": "int256",
              "name": "couponAmountFixed",
              "type": "int256"
            },
            {
              "internalType": "int256",
              "name": "marginFactor",
              "type": "int256"
            },
            {
              "internalType": "int256",
              "name": "adjustmentFactor",
              "type": "int256"
            },
            {
              "internalType": "int256",
              "name": "dividendPaymentAmount",
              "type": "int256"
            },
            {
              "internalType": "int256",
              "name": "splitRatio",
              "type": "int256"
            }
          ],
          "internalType": "struct State",
          "name": "state",
          "type": "tuple"
        }
      ],
      "name": "setState",
      "outputs": [],
      "stateMutability": "nonpayable",
      "type": "function"
    },
    {
      "inputs": [
        {
          "internalType": "bytes32",
          "name": "assetId",
          "type": "bytes32"
        },
        {
          "components": [
            {
              "internalType": "enum ContractType",
              "name": "contractType",
              "type": "uint8"
            },
            {
              "internalType": "enum Calendar",
              "name": "calendar",
              "type": "uint8"
            },
            {
              "internalType": "enum ContractRole",
              "name": "contractRole",
              "type": "uint8"
            },
            {
              "internalType": "enum DayCountConvention",
              "name": "dayCountConvention",
              "type": "uint8"
            },
            {
              "internalType": "enum BusinessDayConvention",
              "name": "businessDayConvention",
              "type": "uint8"
            },
            {
              "internalType": "enum EndOfMonthConvention",
              "name": "endOfMonthConvention",
              "type": "uint8"
            },
            {
              "internalType": "enum ContractPerformance",
              "name": "creditEventTypeCovered",
              "type": "uint8"
            },
            {
              "internalType": "enum FeeBasis",
              "name": "feeBasis",
              "type": "uint8"
            },
            {
              "internalType": "uint256",
              "name": "statusDate",
              "type": "uint256"
            },
            {
              "internalType": "uint256",
              "name": "maturityDate",
              "type": "uint256"
            },
            {
              "internalType": "int256",
              "name": "notionalPrincipal",
              "type": "int256"
            },
            {
              "internalType": "int256",
              "name": "feeRate",
              "type": "int256"
            },
            {
              "internalType": "int256",
              "name": "coverageOfCreditEnhancement",
              "type": "int256"
            },
            {
              "components": [
                {
                  "internalType": "bytes32",
                  "name": "object",
                  "type": "bytes32"
                },
                {
                  "internalType": "bytes32",
                  "name": "object2",
                  "type": "bytes32"
                },
                {
                  "internalType": "enum ContractReferenceType",
                  "name": "_type",
                  "type": "uint8"
                },
                {
                  "internalType": "enum ContractReferenceRole",
                  "name": "role",
                  "type": "uint8"
                }
              ],
              "internalType": "struct ContractReference",
              "name": "contractReference_1",
              "type": "tuple"
            },
            {
              "components": [
                {
                  "internalType": "bytes32",
                  "name": "object",
                  "type": "bytes32"
                },
                {
                  "internalType": "bytes32",
                  "name": "object2",
                  "type": "bytes32"
                },
                {
                  "internalType": "enum ContractReferenceType",
                  "name": "_type",
                  "type": "uint8"
                },
                {
                  "internalType": "enum ContractReferenceRole",
                  "name": "role",
                  "type": "uint8"
                }
              ],
              "internalType": "struct ContractReference",
              "name": "contractReference_2",
              "type": "tuple"
            }
          ],
          "internalType": "struct CECTerms",
          "name": "terms",
          "type": "tuple"
        }
      ],
      "name": "setTerms",
      "outputs": [],
      "stateMutability": "nonpayable",
      "type": "function"
    },
    {
      "inputs": [
        {
          "internalType": "address",
          "name": "newOwner",
          "type": "address"
        }
      ],
      "name": "transferOwnership",
      "outputs": [],
      "stateMutability": "nonpayable",
      "type": "function"
    }
  ],
  "transactionHash": "0xc72595e6d0bac7f1f5c8ceacdab7c005d94fbf864323b436b50594b4d3f45baf",
  "args": [],
  "solcInputHash": "0x641332b4189abe50474574ba46977bd7f0a689fca4e1c1910dccc48384971409",
  "bytecode": "0x60806040523480156200001157600080fd5b5060006200001e6200006e565b600080546001600160a01b0319166001600160a01b0383169081178255604051929350917f8be0079c531659141344cd1fd0a4f28419497f9722a3daafe3b4186f6b6457e0908290a35062000072565b3390565b614e3d80620000826000396000f3fe608060405234801561001057600080fd5b50600436106102bb5760003560e01c8063a17b75b511610182578063ccfc347e116100e9578063e7dc3188116100a2578063ecef55771161007c578063ecef557714610696578063ee43eda1146106a9578063f2fde38b146106bc578063f52f84e1146106cf576102bb565b8063e7dc31881461065d578063e8f7ca3e14610670578063eb01255914610683576102bb565b8063ccfc347e146105d1578063cf5aed12146105e4578063d51dc3dc14610604578063d981e77314610617578063de07a1731461062a578063e50e0ef71461063d576102bb565b8063b82820411161013b578063b828204114610544578063ba4d2d2814610557578063bc6a7d7614610578578063bd1f0a6c14610598578063c364ac9c146105ab578063c3b6e7c2146105be576102bb565b8063a17b75b5146104c5578063b02ca0c0146104d8578063b0b4888f146104eb578063b28da6661461050b578063b3c45ebe1461051e578063b461dd4f14610531576102bb565b80633a60d6fe116102265780636be39bda116101df5780636be39bda146104425780636fe55baa14610462578063715018a61461048257806375e86ae41461048a578063842962d51461049d5780638da5cb5b146104b0576102bb565b80633a60d6fe146103d65780633adc277a146103e9578063512872f4146104095780636031a0941461041c578063606aa07e1461042f5780636a899b9b1461042f576102bb565b80631b126815116102785780631b1268151461035757806327258b221461037757806328e0f8a91461038a5780633549d08d1461039d57806337462dba146103b057806339262e87146103c3576102bb565b806303a81a2a146102c057806309648a9d146102d55780630c5b75a4146102fe5780630d62037a1461031e578063135b9f4d146103315780631717e86714610344575b600080fd5b6102d36102ce366004613cd5565b6106e2565b005b6102e86102e3366004613ca5565b6107b7565b6040516102f59190614c04565b60405180910390f35b61031161030c366004613ca5565b6107de565b6040516102f591906144a2565b6102d361032c366004613cd5565b610855565b61031161033f366004613d04565b6108fa565b6102d3610352366004613d50565b610999565b61036a610365366004613d50565b610a4f565b6040516102f59190614487565b61036a610385366004613ca5565b610acc565b610311610398366004613ca5565b610ae1565b6102d36103ab366004613cd5565b610af6565b6102e86103be366004613ca5565b610bd1565b6102d36103d1366004613d50565b610bf0565b6102d36103e4366004613eb0565b610c95565b6103fc6103f7366004613ca5565b610d55565b6040516102f59190614443565b6102d3610417366004613cd5565b610d6f565b6102d361042a366004613cd5565b610e36565b61031161043d366004613d04565b610f11565b610455610450366004613ca5565b610f29565b6040516102f59190614b57565b610475610470366004613d04565b610fc7565b6040516102f59190614bd4565b6102d3611066565b610311610498366004613ca5565b61111a565b6102d36104ab366004613eb0565b6114f3565b6104b86115a6565b6040516102f59190614415565b6103116104d3366004613ca5565b6115b5565b6103116104e6366004613d04565b6115ca565b6104fe6104f9366004613d04565b6115eb565b6040516102f59190614b91565b6102d3610519366004613dca565b61168a565b6104b861052c366004613ca5565b611799565b61031161053f366004613d04565b6117b8565b610311610552366004613ca5565b6117fe565b61056a610565366004613d04565b611862565b6040516102f5929190614492565b61058b610586366004613d04565b61188c565b6040516102f59190614b83565b6102d36105a6366004613cd5565b61192b565b6102d36105b9366004613d9d565b6119c3565b6103116105cc366004613ca5565b611ac3565b61036a6105df366004613c53565b611bfc565b6105f76105f2366004613d04565b611c11565b6040516102f59190614d0a565b610311610612366004613d04565b611c29565b6102d3610625366004613d04565b611c6f565b6102d3610638366004613d25565b611cde565b61065061064b366004613ca5565b611d7a565b6040516102f591906149d7565b6102d361066b366004613c53565b611dd8565b61036a61067e366004613cd5565b611e66565b6104b8610691366004613d04565b611e9c565b6105f76106a4366004613d04565b611f32565b6104b86106b7366004613ca5565b611fc8565b6102d36106ca366004613c53565b611fe8565b6103116106dd366004613ca5565b6120f2565b6000828152600160208190526040909120015482906001600160a01b031633148061071f575061071f816000356001600160e01b03191633610a4f565b6107445760405162461bcd60e51b815260040161073b9061467e565b60405180910390fd5b6000838152600160208190526040918290200180546001600160a01b038581166001600160a01b0319831617909255915191169084907f6baefd4565218ab73b43cb6b1019ca3a06161c4fcaef25cd665aacddabc44a20906107a99084908790614429565b60405180910390a250505050565b6107bf613960565b60008281526001602052604090206107d690612107565b90505b919050565b60008181526001602081905260408220015482906001600160a01b031633148061081a575061081a816000356001600160e01b03191633610a4f565b6108365760405162461bcd60e51b815260040161073b9061467e565b6000838152600160205260408120600601805491905591505b50919050565b61086c826000356001600160e01b03191633610a4f565b6108885760405162461bcd60e51b815260040161073b9061491b565b6000828152600160205260409081902060080180546001600160a01b038481166001600160a01b031983161790925591519116907fa7f38588f02421aa73988ed359aee27363c896e7cc3b6e634e4357f7ee408e25906108ed908590849086906144ab565b60405180910390a1505050565b600082815260016020526040808220905163bb63c3b560e01b815273__$6ff22f96d3b2cd35acb8be8b05224cf18b$__9163bb63c3b59161094091908690600401614a12565b60206040518083038186803b15801561095857600080fd5b505af415801561096c573d6000803e3d6000fd5b505050506040513d601f19601f820116820180604052508101906109909190613cbd565b90505b92915050565b6109b0836000356001600160e01b03191633610a4f565b6109cc5760405162461bcd60e51b815260040161073b906148cc565b60008381526001602081815260408084206001600160e01b031987168552600d0182528084206001600160a01b038616808652925292839020805460ff1916909217909155905184907face25d271ad11ee299595b3021629bae0349e370d7c2eb7c2dced6e4edb4786590610a42908690614552565b60405180910390a3505050565b60008381526001602090815260408083206001600160e01b031986168452600d0182528083206001600160a01b038516845290915281205460ff1680610ac257506000848152600160209081526040808320838052600d0182528083206001600160a01b038616845290915290205460ff165b90505b9392505050565b60009081526001602052604090205460ff1690565b60009081526001602052604090206005015490565b6000828152600160205260409020600b01546001600160a01b031680610b2e5760405162461bcd60e51b815260040161073b90614567565b336001600160a01b0382161480610b575750610b57836000356001600160e01b03191633610a4f565b610b735760405162461bcd60e51b815260040161073b906145c4565b60008381526001602052604090819020600b0180546001600160a01b0319166001600160a01b038516179055517f66808241563a07166fd47b523591fa432148706dc0ddd255d49b69e71f1721ce906108ed908590849086906144ab565b610bd9613960565b60008281526001602052604090206107d690612474565b610c07836000356001600160e01b03191633610a4f565b610c235760405162461bcd60e51b815260040161073b906148cc565b60008381526001602090815260408083206001600160e01b031986168452600d0182528083206001600160a01b038516808552925291829020805460ff19169055905184907f42b1b0e7392ad606bb4f5b003296aba62f16e43aa9372f1f40c1522fa2655ffa90610a42908690614552565b6000828152600160208190526040909120015482906001600160a01b0316331480610cd25750610cd2816000356001600160e01b03191633610a4f565b610cee5760405162461bcd60e51b815260040161073b9061467e565b610d14610d0036849003840184614138565b600085815260016020526040902090612811565b827fad3970329ffaec63d947adc6077368479a4be7f09f2e7ba1b13852f8405b3ec68360200135604051610d4891906144a2565b60405180910390a2505050565b60008181526001602052604090206060906107d690612bb9565b6000828152600160208190526040909120015482906001600160a01b0316331480610dac5750610dac816000356001600160e01b03191633610a4f565b610dc85760405162461bcd60e51b815260040161073b9061467e565b6000838152600160205260409081902080546001600160a01b03858116610100908102610100600160a81b03198416179093559251919004919091169084907fdaa92ae0693b6616f14ef5db4b7ee053d3234c0d03f7a1885589c6a6c2c75bdb906107a99084908790614429565b6000828152600160205260409020600901546001600160a01b031680610e6e5760405162461bcd60e51b815260040161073b9061486f565b336001600160a01b0382161480610e975750610e97836000356001600160e01b03191633610a4f565b610eb35760405162461bcd60e51b815260040161073b9061476c565b6000838152600160205260409081902060090180546001600160a01b0319166001600160a01b038516179055517f66808241563a07166fd47b523591fa432148706dc0ddd255d49b69e71f1721ce906108ed908590849086906144ab565b60008281526001602052604081206109909083612c4f565b610f31613a0f565b600082815260016020526040908190209051630f4835d760e41b815273__$6ff22f96d3b2cd35acb8be8b05224cf18b$__9163f4835d7091610f7691906004016144a2565b6102a06040518083038186803b158015610f8f57600080fd5b505af4158015610fa3573d6000803e3d6000fd5b505050506040513d601f19601f820116820180604052508101906107d69190613f52565b610fcf613a91565b6000838152600160205260409081902090516320384a4b60e21b815273__$6ff22f96d3b2cd35acb8be8b05224cf18b$__916380e1292c9161101691908690600401614a12565b60606040518083038186803b15801561102e57600080fd5b505af4158015611042573d6000803e3d6000fd5b505050506040513d601f19601f8201168201806040525081019061099091906140d8565b61106e612c65565b6000546001600160a01b039081169116146110d0576040805162461bcd60e51b815260206004820181905260248201527f4f776e61626c653a2063616c6c6572206973206e6f7420746865206f776e6572604482015290519081900360640190fd5b600080546040516001600160a01b03909116907f8be0079c531659141344cd1fd0a4f28419497f9722a3daafe3b4186f6b6457e0908390a3600080546001600160a01b0319169055565b6000611124613ab4565b6111448372636f6e74726163745265666572656e63655f3160681b61188c565b805190915015801590611166575060038160600151600481111561116457fe5b145b156114ea5780516020820151604051631392c59160e11b81526001600160a01b038216906327258b229061119e9085906004016144a2565b60206040518083038186803b1580156111b657600080fd5b505afa1580156111ca573d6000803e3d6000fd5b505050506040513d601f19601f820116820180604052508101906111ee9190613c8b565b61120a5760405162461bcd60e51b815260040161073b9061496f565b6000611225866b65786572636973654461746560a01b610f11565b9050600061124c877518dc99591a5d115d995b9d151e5c1950dbdd995c995960521b611f32565b60ff16600581111561125a57fe5b90506000836001600160a01b031663cf5aed12866040518263ffffffff1660e01b815260040161128a919061452d565b60206040518083038186803b1580156112a257600080fd5b505afa1580156112b6573d6000803e3d6000fd5b505050506040513d601f19601f820116820180604052508101906112da9190614255565b60ff1660058111156112e857fe5b90506000846001600160a01b031663606aa07e876040518263ffffffff1660e01b8152600401611318919061450a565b60206040518083038186803b15801561133057600080fd5b505afa158015611344573d6000803e3d6000fd5b505050506040513d601f19601f820116820180604052508101906113689190613cbd565b905083156113895761137b601a42612c69565b9750505050505050506107d9565b600083600581111561139757fe5b141580156113ba57508260058111156113ac57fe5b8260058111156113b857fe5b145b156114e35760018260058111156113cd57fe5b14156113de5761137b601982612c69565b60028260058111156113ec57fe5b141561149b576113fa613a91565b6040516337f2add560e11b81526001600160a01b03871690636fe55baa90611426908a906004016144ca565b60606040518083038186803b15801561143e57600080fd5b505afa158015611452573d6000803e3d6000fd5b505050506040513d601f19601f8201168201806040525081019061147691906140d8565b905061148c60196114878385612c87565b612c69565b985050505050505050506107d9565b60038260058111156114a957fe5b14156114e3576114b7613a91565b6040516337f2add560e11b81526001600160a01b03871690636fe55baa90611426908a906004016144e7565b5050505050505b50600092915050565b6000828152600160208190526040909120015482906001600160a01b03163314806115305750611530816000356001600160e01b03191633610a4f565b61154c5760405162461bcd60e51b815260040161073b9061467e565b61157261155e36849003840184614138565b600085815260016020526040902090612da0565b827f0c71209d22d4c70a40140b94deee55f1f54a9353e3d5d5a4ddfb45fcddcf720f8360200135604051610d4891906144a2565b6000546001600160a01b031690565b60009081526001602052604090206004015490565b60009182526001602090815260408084209284526003909201905290205490565b6115f3613adb565b600083815260016020526040908190209051638155522160e01b815273__$6ff22f96d3b2cd35acb8be8b05224cf18b$__9163815552219161163a91908690600401614a12565b60806040518083038186803b15801561165257600080fd5b505af4158015611666573d6000803e3d6000fd5b505050506040513d601f19601f820116820180604052508101906109909190614071565b3360009081526002602052604090205460ff166116b95760405162461bcd60e51b815260040161073b90614718565b611717896116cc368a90038a018a614138565b88888080602002602001604051908101604052809392919081815260200183836020028082843760009201919091525061170f9250505036899003890189613ed4565b87878761316c565b60008981526001602052604090819020905163215ac35960e21b815273__$6ff22f96d3b2cd35acb8be8b05224cf18b$__9163856b0d649161175e91908c90600401614a20565b60006040518083038186803b15801561177657600080fd5b505af415801561178a573d6000803e3d6000fd5b50505050505050505050505050565b600090815260016020819052604090912001546001600160a01b031690565b60008281526001602052604080822090516309b9f6ab60e21b815273__$6ff22f96d3b2cd35acb8be8b05224cf18b$__916326e7daac9161094091908690600401614a12565b600081815260016020526040812060048101541561184e576004810154600582015414156118305750600090506107d9565b600581015460009081526003909101602052604090205490506107d9565b6000611859846132e5565b50949350505050565b6000918252600160208181526040808520938552601090930190529120805491015460ff90911691565b611894613ab4565b60008381526001602052604090819020905163bce57f1b60e01b815273__$6ff22f96d3b2cd35acb8be8b05224cf18b$__9163bce57f1b916118db91908690600401614a12565b60806040518083038186803b1580156118f357600080fd5b505af4158015611907573d6000803e3d6000fd5b505050506040513d601f19601f820116820180604052508101906109909190614056565b611942826000356001600160e01b03191633610a4f565b61195e5760405162461bcd60e51b815260040161073b90614621565b60008281526001602052604090819020600a0180546001600160a01b038481166001600160a01b031983161790925591519116907fa7f38588f02421aa73988ed359aee27363c896e7cc3b6e634e4357f7ee408e25906108ed908590849086906144ab565b6000828152600160208190526040909120015482906001600160a01b0316331480611a005750611a00816000356001600160e01b03191633610a4f565b611a1c5760405162461bcd60e51b815260040161073b9061467e565b60008381526001602052604090819020905163215ac35960e21b815273__$6ff22f96d3b2cd35acb8be8b05224cf18b$__9163856b0d6491611a6391908690600401614a20565b60006040518083038186803b158015611a7b57600080fd5b505af4158015611a8f573d6000803e3d6000fd5b50506040518592507fb777acf68d226f3c8ab6f398cfb9a320e6fe8e92f5d2f0b4f69bc8ebab3b70cb9150600090a2505050565b60008181526001602081905260408220015482906001600160a01b0316331480611aff5750611aff816000356001600160e01b03191633610a4f565b611b1b5760405162461bcd60e51b815260040161073b9061467e565b6000838152600160205260409020600481015415611b755760058101546000818152600383016020526040902054600483015490911415611b6257506000925061084f9050565b600590910180546001019055915061084f565b600080611b81866132e5565b909250905081611b9857506000935061084f915050565b600080611ba48461349a565b909250905060018315151415611be85780600286016000846021811115611bc757fe5b6021811115611bd257fe5b8152602081019190915260400160002055611bf0565b600785018490555b50919695505050505050565b60026020526000908152604090205460ff1681565b600082815260016020526040812061099090836134c3565b6000828152600160205260408082209051632802ab6f60e21b815273__$6ff22f96d3b2cd35acb8be8b05224cf18b$__9163a00aadbc9161094091908690600401614a12565b6000828152600160208190526040909120015482906001600160a01b0316331480611cac5750611cac816000356001600160e01b03191633610a4f565b611cc85760405162461bcd60e51b815260040161073b9061467e565b5060009182526001602052604090912060060155565b6000838152600160208190526040909120015483906001600160a01b0316331480611d1b5750611d1b816000356001600160e01b03191633610a4f565b611d375760405162461bcd60e51b815260040161073b9061467e565b50604080518082018252600180825260208083019485526000968752818152838720958752601090950190945293209251835460ff191690151517835551910155565b611d82613afc565b50600090815260016020908152604091829020825160808101845260088201546001600160a01b0390811682526009830154811693820193909352600a820154831693810193909352600b015416606082015290565b611de0612c65565b6000546001600160a01b03908116911614611e42576040805162461bcd60e51b815260206004820181905260248201527f4f776e61626c653a2063616c6c6572206973206e6f7420746865206f776e6572604482015290519081900360640190fd5b6001600160a01b03166000908152600260205260409020805460ff19166001179055565b6000918252600160209081526040808420848052600d0182528084206001600160a01b0393909316845291905290205460ff1690565b600082815260016020526040808220905163cabb242960e01b815273__$6ff22f96d3b2cd35acb8be8b05224cf18b$__9163cabb242991611ee291908690600401614a12565b60206040518083038186803b158015611efa57600080fd5b505af4158015611f0e573d6000803e3d6000fd5b505050506040513d601f19601f820116820180604052508101906109909190613c6f565b600082815260016020526040808220905163a5be46bb60e01b815273__$6ff22f96d3b2cd35acb8be8b05224cf18b$__9163a5be46bb91611f7891908690600401614a12565b60206040518083038186803b158015611f9057600080fd5b505af4158015611fa4573d6000803e3d6000fd5b505050506040513d601f19601f820116820180604052508101906109909190614255565b60009081526001602052604090205461010090046001600160a01b031690565b611ff0612c65565b6000546001600160a01b03908116911614612052576040805162461bcd60e51b815260206004820181905260248201527f4f776e61626c653a2063616c6c6572206973206e6f7420746865206f776e6572604482015290519081900360640190fd5b6001600160a01b0381166120975760405162461bcd60e51b8152600401808060200182810382526026815260200180614dc16026913960400191505060405180910390fd5b600080546040516001600160a01b03808516939216917f8be0079c531659141344cd1fd0a4f28419497f9722a3daafe3b4186f6b6457e091a3600080546001600160a01b0319166001600160a01b0392909216919091179055565b60009081526001602052604090206006015490565b61210f613960565b604080516102e08101825272636f6e7472616374506572666f726d616e636560681b6000908152600f85016020529190912054819060f81c600581111561215257fe5b600581111561215d57fe5b8152697374617475734461746560b01b6000908152600f8501602081815260408084205482860152706e6f6e506572666f726d696e674461746560781b845282825280842054818601526b6d617475726974794461746560a01b84528282528084205460608601526b65786572636973654461746560a01b84528282528084205460808601526e7465726d696e6174696f6e4461746560881b84528282528084205460a0860152736c617374436f75706f6e466978696e674461746560601b84528282528084205460c0860152756c6173744469766964656e64466978696e674461746560501b84528282528084205460e0860152701b9bdd1a5bdb985b141c9a5b98da5c185b607a1b8452828252808420546101008601526e1858d8dc9d5959125b9d195c995cdd608a1b845282825280842054610120860152691999595058d8dc9d595960b21b845282825280842054610140860152726e6f6d696e616c496e7465726573745261746560681b8452828252808420546101608601527834b73a32b932b9ba29b1b0b634b733a6bab63a34b83634b2b960391b845282825280842054610180860152783737ba34b7b730b629b1b0b634b733a6bab63a34b83634b2b960391b8452828252808420546101a08601527f6e6578745072696e636970616c526564656d7074696f6e5061796d656e7400008452828252808420546101c08601526d195e195c98da5cd9505b5bdd5b9d60921b8452828252808420546101e08601526f65786572636973655175616e7469747960801b845282825280842054610200860152677175616e7469747960c01b8452828252808420546102208601527018dbdd5c1bdb905b5bdd5b9d119a5e1959607a1b8452828252808420546102408601526b36b0b933b4b72330b1ba37b960a11b8452828252808420546102608601526f30b2353ab9ba36b2b73a2330b1ba37b960811b84528282528084205461028086015274191a5d9a59195b9914185e5b595b9d105b5bdd5b9d605a1b8452828252808420546102a08601526973706c6974526174696f60b01b84529190529020546102c0909101529050919050565b61247c613960565b604080516102e08101825274465f636f6e7472616374506572666f726d616e636560581b6000908152600f85016020529190912054819060f81c60058111156124c157fe5b60058111156124cc57fe5b81526b465f7374617475734461746560a01b6000908152600f850160208181526040808420548286015272465f6e6f6e506572666f726d696e674461746560681b845282825280842054818601526d465f6d617475726974794461746560901b84528282528084205460608601526d465f65786572636973654461746560901b845282825280842054608086015270465f7465726d696e6174696f6e4461746560781b84528282528084205460a086015275465f6c617374436f75706f6e466978696e674461746560501b84528282528084205460c086015277465f6c6173744469766964656e64466978696e674461746560401b84528282528084205460e0860152721197db9bdd1a5bdb985b141c9a5b98da5c185b606a1b845282825280842054610100860152701197d858d8dc9d5959125b9d195c995cdd607a1b8452828252808420546101208601526b1197d999595058d8dc9d595960a21b84528282528084205461014086015274465f6e6f6d696e616c496e7465726573745261746560581b8452828252808420546101608601527f465f696e7465726573745363616c696e674d756c7469706c69657200000000008452828252808420546101808601527f465f6e6f74696f6e616c5363616c696e674d756c7469706c69657200000000008452828252808420546101a08601527f465f6e6578745072696e636970616c526564656d7074696f6e5061796d656e748452828252808420546101c08601526f1197d95e195c98da5cd9505b5bdd5b9d60821b8452828252808420546101e086015271465f65786572636973655175616e7469747960701b84528282528084205461020086015269465f7175616e7469747960b01b845282825280842054610220860152721197d8dbdd5c1bdb905b5bdd5b9d119a5e1959606a1b8452828252808420546102408601526d232fb6b0b933b4b72330b1ba37b960911b84528282528084205461026086015271232fb0b2353ab9ba36b2b73a2330b1ba37b960711b845282825280842054610280860152761197d91a5d9a59195b9914185e5b595b9d105b5bdd5b9d604a1b8452828252808420546102a08601526b465f73706c6974526174696f60a01b84529190529020546102c0909101529050919050565b6128488272636f6e7472616374506572666f726d616e636560681b60f88460000151600581111561283e57fe5b60ff16901b61356f565b61286782697374617475734461746560b01b836020015160001b61356f565b61288d82706e6f6e506572666f726d696e674461746560781b836040015160001b61356f565b6128ae826b6d617475726974794461746560a01b836060015160001b61356f565b6128cf826b65786572636973654461746560a01b836080015160001b61356f565b6128f3826e7465726d696e6174696f6e4461746560881b8360a0015160001b61356f565b61291c82736c617374436f75706f6e466978696e674461746560601b8360c0015160001b61356f565b61294782756c6173744469766964656e64466978696e674461746560501b8360e0015160001b61356f565b61296e82701b9bdd1a5bdb985b141c9a5b98da5c185b607a1b83610100015160001b61356f565b612993826e1858d8dc9d5959125b9d195c995cdd608a1b83610120015160001b61356f565b6129b382691999595058d8dc9d595960b21b83610140015160001b61356f565b6129dc82726e6f6d696e616c496e7465726573745261746560681b83610160015160001b61356f565b612a0b827834b73a32b932b9ba29b1b0b634b733a6bab63a34b83634b2b960391b83610180015160001b61356f565b612a3a82783737ba34b7b730b629b1b0b634b733a6bab63a34b83634b2b960391b836101a0015160001b61356f565b612a6d827f6e6578745072696e636970616c526564656d7074696f6e5061796d656e740000836101c0015160001b61356f565b612a91826d195e195c98da5cd9505b5bdd5b9d60921b836101e0015160001b61356f565b612ab7826f65786572636973655175616e7469747960801b83610200015160001b61356f565b612add826f65786572636973655175616e7469747960801b83610200015160001b61356f565b612afb82677175616e7469747960c01b83610220015160001b61356f565b612b22827018dbdd5c1bdb905b5bdd5b9d119a5e1959607a1b83610240015160001b61356f565b612b44826b36b0b933b4b72330b1ba37b960a11b83610260015160001b61356f565b612b6a826f30b2353ab9ba36b2b73a2330b1ba37b960811b83610280015160001b61356f565b612b958274191a5d9a59195b9914185e5b595b9d105b5bdd5b9d605a1b836102a0015160001b61356f565b612bb5826973706c6974526174696f60b01b836102c0015160001b61356f565b5050565b606080826002016002015467ffffffffffffffff81118015612bda57600080fd5b50604051908082528060200260200182016040528015612c04578160200160208202803683370190505b50905060005b6004840154811015612c485760008181526003850160205260409020548251839083908110612c3557fe5b6020908102919091010152600101612c0a565b5092915050565b6000908152600f91909101602052604090205490565b3390565b60008160f8846021811115612c7a57fe5b60ff16901b179392505050565b6000808084602001516005811115612c9b57fe5b1415612cb5578351612cae9084906135a5565b9050610990565b600184602001516005811115612cc757fe5b1415612ce5578351612cae90612cde9060076135ba565b84906135a5565b600284602001516005811115612cf757fe5b1415612d0a578351612cae908490613613565b600384602001516005811115612d1c57fe5b1415612d3a578351612cae90612d339060036135ba565b8490613613565b600484602001516005811115612d4c57fe5b1415612d63578351612cae90612d339060066135ba565b600584602001516005811115612d7557fe5b1415612d88578351612cae90849061368f565b60405162461bcd60e51b815260040161073b90614812565b612dcf8274465f636f6e7472616374506572666f726d616e636560581b60f88460000151600581111561283e57fe5b612df0826b465f7374617475734461746560a01b836020015160001b61356f565b612e188272465f6e6f6e506572666f726d696e674461746560681b836040015160001b61356f565b612e3b826d465f6d617475726974794461746560901b836060015160001b61356f565b612e5e826d465f65786572636973654461746560901b836080015160001b61356f565b612e848270465f7465726d696e6174696f6e4461746560781b8360a0015160001b61356f565b612eaf8275465f6c617374436f75706f6e466978696e674461746560501b8360c0015160001b61356f565b612edc8277465f6c6173744469766964656e64466978696e674461746560401b8360e0015160001b61356f565b612f0582721197db9bdd1a5bdb985b141c9a5b98da5c185b606a1b83610100015160001b61356f565b612f2c82701197d858d8dc9d5959125b9d195c995cdd607a1b83610120015160001b61356f565b612f4e826b1197d999595058d8dc9d595960a21b83610140015160001b61356f565b612f798274465f6e6f6d696e616c496e7465726573745261746560581b83610160015160001b61356f565b612fac827f465f696e7465726573745363616c696e674d756c7469706c696572000000000083610180015160001b61356f565b612fdf827f465f6e6f74696f6e616c5363616c696e674d756c7469706c6965720000000000836101a0015160001b61356f565b613012827f465f6e6578745072696e636970616c526564656d7074696f6e5061796d656e74836101c0015160001b61356f565b613038826f1197d95e195c98da5cd9505b5bdd5b9d60821b836101e0015160001b61356f565b6130608271465f65786572636973655175616e7469747960701b83610200015160001b61356f565b6130888271465f65786572636973655175616e7469747960701b83610200015160001b61356f565b6130a88269465f7175616e7469747960b01b83610220015160001b61356f565b6130d182721197d8dbdd5c1bdb905b5bdd5b9d119a5e1959606a1b83610240015160001b61356f565b6130f5826d232fb6b0b933b4b72330b1ba37b960911b83610260015160001b61356f565b61311d8271232fb0b2353ab9ba36b2b73a2330b1ba37b960711b83610280015160001b61356f565b61314a82761197d91a5d9a59195b9914185e5b595b9d105b5bdd5b9d604a1b836102a0015160001b61356f565b612bb5826b465f73706c6974526174696f60a01b836102c0015160001b61356f565b6000878152600160205260409020805460ff161561319c5760405162461bcd60e51b815260040161073b906146cd565b6001600160a01b03831660009081526002602052604090205460ff1615156001146131d95760405162461bcd60e51b815260040161073b906147c9565b805485516008830180546001600160a01b03199081166001600160a01b0393841617909155602088015160098501805483169184169190911790556040880151600a8501805483169184169190911790556060880151600b85018054831691841691909117905560ff199092166001908117610100600160a81b03191661010088841602178455830180549092169085161790556132778188612811565b6132818188612da0565b61328b81876136b6565b6001600160a01b038216156132a4576132a4888361371e565b7f5e73a3e4a3f69f1056f05ffd00ff11bf3835158ba0ebd5ad3b994065fcd89646886040516132d391906144a2565b60405180910390a15050505050505050565b600081815260016020526040812081906132fd613a0f565b604051630f4835d760e41b815273__$6ff22f96d3b2cd35acb8be8b05224cf18b$__9063f4835d70906133349085906004016144a2565b6102a06040518083038186803b15801561334d57600080fd5b505af4158015613361573d6000803e3d6000fd5b505050506040513d601f19601f820116820180604052508101906133859190613f52565b82546007840154604051634aa7726560e01b8152929350600092839260019284928392613426926101009091046001600160a01b031691634aa77265916133d1918b9190600401614b66565b60206040518083038186803b1580156133e957600080fd5b505afa1580156133fd573d6000803e3d6000fd5b505050506040513d601f19601f820116820180604052508101906134219190613cbd565b61349a565b9150915083600014806134425750801580159061344257508381105b806134715750801580159061345657508084145b8015613471575061346685613795565b61346f83613795565b105b1561348157809350819450600092505b505061348d8383612c69565b9650945050505050915091565b6000808060f884901c60218111156134ae57fe5b92505067ffffffffffffffff83169050915091565b600072636f6e7472616374506572666f726d616e636560681b821415613514575072636f6e7472616374506572666f726d616e636560681b6000908152600f8301602052604090205460f81c610993565b74465f636f6e7472616374506572666f726d616e636560581b821415613567575074465f636f6e7472616374506572666f726d616e636560581b6000908152600f8301602052604090205460f81c610993565b506000610993565b6000828152600f8401602052604090205481141561358c576135a0565b6000828152600f8401602052604090208190555b505050565b62015180810282018281101561099357600080fd5b6000826135c957506000610993565b828202828482816135d657fe5b04146109905760405162461bcd60e51b8152600401808060200182810382526021815260200180614de76021913960400191505060405180910390fd5b600080808061362762015180875b046137a3565b600c9188016000198101838104949094019650945092509006600101915060006136518484613839565b90508082111561365f578091505b620151808706620151806136748686866138bf565b020194508685101561368557600080fd5b5050505092915050565b60008080806136a16201518087613621565b91870194509250905060006136518484613839565b60005b81518110156135a0576000801b8282815181106136d257fe5b602002602001015114156136e5576135a0565b8181815181106136f157fe5b602090810291909101810151600083815260038601909252604090912055600101600483018190556136b9565b6000828152600160208181526040808420848052600d0182528084206001600160a01b0386168086529252808420805460ff19169093179092559051909184917face25d271ad11ee299595b3021629bae0349e370d7c2eb7c2dced6e4edb478659161378991614552565b60405180910390a35050565b60008160218111156107d657fe5b60008080836226496581018262023ab1600483020590506004600362023ab18302010590910390600062164b09610fa0600185010205905060046105b58202058303601f019250600061098f84605002816137fa57fe5b0590506000605061098f83020585039050600b820560301994909401606402929092018301996002600c90940290910392909201975095509350505050565b6000816001148061384a5750816003145b806138555750816005145b806138605750816007145b8061386b5750816008145b80613876575081600a145b80613881575081600c145b1561388e5750601f610993565b8160021461389e5750601e610993565b6138a78361393b565b6138b257601c6138b5565b601d5b60ff169392505050565b60006107b28410156138d057600080fd5b838383600062253d8c600460036064611324600c600d19890105890101050205600c80600d19870105600c02600287030361016f028161390c57fe5b0560046105b5600c600d1989010589016112c0010205617d4b8603010103039050809450505050509392505050565b60006004820615801561395057506064820615155b806107d657505061019090061590565b604080516102e081019091528060008152602001600081526020016000815260200160008152602001600081526020016000815260200160008152602001600081526020016000815260200160008152602001600081526020016000815260200160008152602001600081526020016000815260200160008152602001600081526020016000815260200160008152602001600081526020016000815260200160008152602001600081525090565b604080516101e081019091528060008152602001600081526020016000815260200160008152602001600081526020016000815260200160008152602001600081526020016000815260200160008152602001600081526020016000815260200160008152602001613a7f613ab4565b8152602001613a8c613ab4565b905290565b6040805160608101909152600080825260208201905b8152600060209091015290565b60408051608081018252600080825260208201819052909182019081526020016000613a8c565b60408051608081019091526000808252602082019081526020016000613aa7565b60408051608081018252600080825260208201819052918101829052606081019190915290565b80356107d981614d5d565b805180151581146107d957600080fd5b80356107d981614d72565b80516107d981614d72565b80356107d981614d7f565b80516107d981614d7f565b80356107d981614d8c565b80516107d981614d8c565b80356107d981614da6565b80516107d981614da6565b80356107d981614db3565b80516107d981614db3565b60006080828403121561084f578081fd5b60006102a0828403121561084f578081fd5b600060808284031215613be0578081fd5b6040516080810181811067ffffffffffffffff82111715613bfd57fe5b806040525080915082518152602083015160208201526040830151613c2181614d99565b60408201526060830151613c3481614d99565b6060919091015292915050565b60006102e0828403121561084f578081fd5b600060208284031215613c64578081fd5b813561099081614d5d565b600060208284031215613c80578081fd5b815161099081614d5d565b600060208284031215613c9c578081fd5b61099082613b2e565b600060208284031215613cb6578081fd5b5035919050565b600060208284031215613cce578081fd5b5051919050565b60008060408385031215613ce7578081fd5b823591506020830135613cf981614d5d565b809150509250929050565b60008060408385031215613d16578182fd5b50508035926020909101359150565b600080600060608486031215613d39578081fd5b505081359360208301359350604090920135919050565b600080600060608486031215613d64578081fd5b8335925060208401356001600160e01b031981168114613d82578182fd5b91506040840135613d9281614d5d565b809150509250925092565b6000806102c08385031215613db0578182fd5b82359150613dc18460208501613bbd565b90509250929050565b60008060008060008060008060006106a08a8c031215613de8578687fd5b89359850613df98b60208c01613bbd565b9750613e098b6102c08c01613c41565b96506105a08a013567ffffffffffffffff80821115613e26578687fd5b818c0191508c601f830112613e39578687fd5b813581811115613e47578788fd5b8d60208083028501011115613e5a578788fd5b602083019850809750505050613e748b6105c08c01613bac565b9350613e836106408b01613b23565b9250613e926106608b01613b23565b9150613ea16106808b01613b23565b90509295985092959850929598565b6000806103008385031215613ec3578182fd5b82359150613dc18460208501613c41565b600060808284031215613ee5578081fd5b6040516080810181811067ffffffffffffffff82111715613f0257fe5b6040528235613f1081614d5d565b81526020830135613f2081614d5d565b60208201526040830135613f3381614d5d565b60408201526060830135613f4681614d5d565b60608201529392505050565b60006102a08284031215613f64578081fd5b613f6f6101e0614d18565b613f7883613ba1565b8152613f8660208401613b5f565b6020820152613f9760408401613b8b565b6040820152613fa860608401613b75565b6060820152613fb960808401613b49565b6080820152613fca60a08401613b5f565b60a0820152613fdb60c08401613b75565b60c0820152613fec60e08401613b5f565b60e0820152610100838101519082015261012080840151908201526101408084015190820152610160808401519082015261018080840151908201526101a061403785828601613bcf565b90820152614049846102208501613bcf565b6101c08201529392505050565b600060808284031215614067578081fd5b6109908383613bcf565b600060808284031215614082578081fd5b6040516080810181811067ffffffffffffffff8211171561409f57fe5b6040528251815260208301516140b481614d8c565b602082015260408301516140c781614d7f565b6040820152613f4660608401613b2e565b6000606082840312156140e9578081fd5b6040516060810181811067ffffffffffffffff8211171561410657fe5b60405282518152602083015161411b81614d8c565b602082015261412c60408401613b2e565b60408201529392505050565b60006102e080838503121561414b578182fd5b61415481614d18565b905061415f83613b6a565b81526020838101359082015260408084013590820152606080840135908201526080808401359082015260a0808401359082015260c0808401359082015260e08084013590820152610100808401359082015261012080840135908201526101408084013590820152610160808401359082015261018080840135908201526101a080840135908201526101c080840135908201526101e08084013590820152610200808401359082015261022080840135908201526102408084013590820152610260808401359082015261028080840135908201526102a080840135908201526102c0928301359281019290925250919050565b600060208284031215614266578081fd5b815160ff81168114610990578182fd5b6009811061428057fe5b9052565b61428081614d3c565b61428081614d49565b600d811061428057fe5b6013811061428057fe5b6142b58282516142a0565b60208101516142c76020840182614284565b5060408101516142da6040840182614296565b5060608101516142ed606084018261428d565b5060808101516143006080840182614276565b5060a081015161431360a0840182614284565b5060c081015161432660c084018261428d565b5060e081015161433960e0840182614284565b50610100818101519083015261012080820151908301526101408082015190830152610160808201519083015261018080820151908301526101a080820151614384828501826143e6565b50506101c08101516135a06102208401826143e6565b803582526020810135602083015260408101356143b681614d99565b6143bf81614d53565b604083015260608101356143d281614d99565b6143db81614d53565b806060840152505050565b8051825260208101516020830152604081015161440281614d53565b604083015260608101516143db81614d53565b6001600160a01b0391909116815260200190565b6001600160a01b0392831681529116602082015260400190565b6020808252825182820181905260009190848201906040850190845b8181101561447b5783518352928401929184019160010161445f565b50909695505050505050565b901515815260200190565b9115158252602082015260400190565b90815260200190565b9283526001600160a01b03918216602084015216604082015260600190565b9081526a19dc9858d954195c9a5bd960aa1b602082015260400190565b9081527019195b1a5b9c5d595b98de54195c9a5bd9607a1b602082015260400190565b908152706e6f6e506572666f726d696e674461746560781b602082015260400190565b90815272636f6e7472616374506572666f726d616e636560681b602082015260400190565b6001600160e01b031991909116815260200190565b6020808252603e908201527f417373657452656769737472792e736574436f756e746572706172747942656e60408201527f65666963696172793a20454e5452595f444f45535f4e4f545f45584953540000606082015260800190565b6020808252603d908201527f417373657452656769737472792e736574436f756e746572706172747942656e60408201527f65666963696172793a20554e415554484f52495a45445f53454e444552000000606082015260800190565b60208082526039908201527f417373657452656769737472792e736574436f756e74657270617274794f626c60408201527f69676f723a20554e415554484f52495a45445f53454e44455200000000000000606082015260800190565b6020808252602f908201527f416363657373436f6e74726f6c2e6973417574686f72697a65643a20554e415560408201526e2a2427a924ad22a22fa9a2a72222a960891b606082015260800190565b6020808252602b908201527f4261736552656769737472792e73657441737365743a2041535345545f414c5260408201526a454144595f45584953545360a81b606082015260800190565b60208082526034908201527f4261736552656769737472792e6f6e6c79417070726f7665644163746f72733a604082015273102aa720aaaa2427a924ad22a22fa9a2a72222a960611b606082015260800190565b60208082526038908201527f417373657452656769737472792e73657443726561746f7242656e656669636960408201527f6172793a20554e415554484f52495a45445f53454e4445520000000000000000606082015260800190565b60208082526029908201527f4261736552656769737472792e73657441737365743a204143544f525f4e4f5460408201526817d054141493d5915160ba1b606082015260800190565b60208082526037908201527f506572696f645574696c732e67657454696d657374616d70506c75735065726960408201527f6f643a204154545249425554455f4e4f545f464f554e44000000000000000000606082015260800190565b60208082526039908201527f417373657452656769737472792e73657443726561746f7242656e656669636960408201527f6172793a20454e5452595f444f45535f4e4f545f455849535400000000000000606082015260800190565b6020808252602f908201527f416363657373436f6e74726f6c2e7265766f6b654163636573733a20554e415560408201526e2a2427a924ad22a22fa9a2a72222a960891b606082015260800190565b60208082526034908201527f417373657452656769737472792e73657443726561746f724f626c69676f723a604082015273102aa720aaaa2427a924ad22a22fa9a2a72222a960611b606082015260800190565b60208082526042908201527f41737365744163746f722e6765744e657874556e6465726c79696e674576656e60408201527f743a20554e4445524c59494e475f41535345545f444f45535f4e4f545f45584960608201526114d560f21b608082015260a00190565b81516001600160a01b039081168252602080840151821690830152604080840151821690830152606092830151169181019190915260800190565b918252602082015260400190565b8281526102c08101614a3d60208301614a3885613b96565b6142a0565b614a4960208401613b54565b614a566040840182614284565b50614a6360408401613b80565b614a706060840182614296565b50614a7d60608401613b6a565b614a8a608084018261428d565b50614a9760808401613b3e565b614aa460a0840182614276565b50614ab160a08401613b54565b614abe60c0840182614284565b50614acb60c08401613b6a565b614ad860e084018261428d565b50614ae560e08401613b54565b610100614af481850183614284565b61012091508085013582850152506101408185013581850152610160915080850135828501525061018081850135818501526101a09150808501358285015250614b446101c0840182860161439a565b50610ac56102408301610220850161439a565b6102a0810161099382846142aa565b6102c08101614b7582856142aa565b826102a08301529392505050565b6080810161099382846143e6565b8151815260208201516080820190614ba881614d49565b60208301526040830151614bbb81614d3c565b8060408401525060608301511515606083015292915050565b8151815260208201516060820190614beb81614d49565b8060208401525060408301511515604083015292915050565b60006102e082019050614c1882845161428d565b6020838101519083015260408084015190830152606080840151908301526080808401519083015260a0808401519083015260c0808401519083015260e08084015190830152610100808401519083015261012080840151908301526101408084015190830152610160808401519083015261018080840151908301526101a080840151908301526101c080840151908301526101e08084015190830152610200808401519083015261022080840151908301526102408084015190830152610260808401519083015261028080840151908301526102a080840151908301526102c092830151929091019190915290565b60ff91909116815260200190565b60405181810167ffffffffffffffff81118282101715614d3457fe5b604052919050565b60028110614d4657fe5b50565b60068110614d4657fe5b60058110614d4657fe5b6001600160a01b0381168114614d4657600080fd5b60098110614d4657600080fd5b60028110614d4657600080fd5b60068110614d4657600080fd5b60058110614d4657600080fd5b600d8110614d4657600080fd5b60138110614d4657600080fdfe4f776e61626c653a206e6577206f776e657220697320746865207a65726f2061646472657373536166654d6174683a206d756c7469706c69636174696f6e206f766572666c6f77a26469706673582212209766d0dc71b82dc89fa200897dc02247e5f78c14ec1bebfc02443620f35bb5d264736f6c63430007040033",
  "libraries": {
    "CECEncoder": "0xE1fcFd1F2a7C04391a66a8031522b4f071C1BEAE"
  },
  "devdoc": {
    "kind": "dev",
    "methods": {
      "approveActor(address)": {
        "details": "Can only be called by the owner of the contract.",
        "params": {
          "actor": "address of the actor"
        }
      },
      "getActor(bytes32)": {
        "params": {
          "assetId": "id of the asset"
        },
        "returns": {
          "_0": "address of the asset actor"
        }
      },
      "getEngine(bytes32)": {
        "params": {
          "assetId": "id of the asset"
        },
        "returns": {
          "_0": "address of the engine of the asset"
        }
      },
      "getEventAtIndex(bytes32,uint256)": {
        "params": {
          "assetId": "id of the asset",
          "index": "index of the event to return"
        },
        "returns": {
          "_0": "Event"
        }
      },
      "getFinalizedState(bytes32)": {
        "params": {
          "assetId": "id of the asset"
        },
        "returns": {
          "_0": "state of the asset"
        }
      },
      "getNextScheduleIndex(bytes32)": {
        "params": {
          "assetId": "id of the asset"
        },
        "returns": {
          "_0": "Index"
        }
      },
      "getNextScheduledEvent(bytes32)": {
        "params": {
          "assetId": "id of the asset"
        },
        "returns": {
          "_0": "event"
        }
      },
      "getOwnership(bytes32)": {
        "params": {
          "assetId": "id of the asset"
        },
        "returns": {
          "_0": "addresses of all owners of the asset"
        }
      },
      "getSchedule(bytes32)": {
        "params": {
          "assetId": "id of the asset"
        },
        "returns": {
          "_0": "the schedule"
        }
      },
      "getScheduleLength(bytes32)": {
        "params": {
          "assetId": "id of the asset"
        },
        "returns": {
          "_0": "Length of the schedule"
        }
      },
      "getState(bytes32)": {
        "params": {
          "assetId": "id of the asset"
        },
        "returns": {
          "_0": "state of the asset"
        }
      },
      "getTerms(bytes32)": {
        "params": {
          "assetId": "id of the asset"
        },
        "returns": {
          "_0": "terms of the asset"
        }
      },
      "grantAccess(bytes32,bytes4,address)": {
        "details": "Can only be called by an authorized account.",
        "params": {
          "account": "address of the account to grant access to",
          "assetId": "id of the asset",
          "methodSignature": "function / method signature (4 byte keccak256 hash of the method selector)"
        }
      },
      "hasAccess(bytes32,bytes4,address)": {
        "params": {
          "account": "address of the account for which to check access",
          "assetId": "id of the asset",
          "methodSignature": "function / method signature (4 byte keccak256 hash of the method selector)"
        },
        "returns": {
          "_0": "true if allowed access"
        }
      },
      "hasRootAccess(bytes32,address)": {
        "params": {
          "account": "address of the account for which to check root acccess",
          "assetId": "id of the asset"
        },
        "returns": {
          "_0": "true if has root access"
        }
      },
      "isEventSettled(bytes32,bytes32)": {
        "params": {
          "_event": "event (encoded)",
          "assetId": "id of the asset"
        },
        "returns": {
          "_0": "true if event was settled"
        }
      },
      "isRegistered(bytes32)": {
        "params": {
          "assetId": "id of the asset"
        },
        "returns": {
          "_0": "true if asset exist"
        }
      },
      "markEventAsSettled(bytes32,bytes32,int256)": {
        "details": "Can only be set by authorized account.",
        "params": {
          "_event": "event (encoded) to be marked as settled",
          "assetId": "id of the asset"
        }
      },
      "owner()": {
        "details": "Returns the address of the current owner."
      },
      "popNextScheduledEvent(bytes32)": {
        "details": "Can only be updated by the assets actor or by an authorized account.",
        "params": {
          "assetId": "id of the asset"
        }
      },
      "registerAsset(bytes32,(uint8,uint8,uint8,uint8,uint8,uint8,uint8,uint8,uint256,uint256,int256,int256,int256,(bytes32,bytes32,uint8,uint8),(bytes32,bytes32,uint8,uint8)),(uint8,uint256,uint256,uint256,uint256,uint256,uint256,uint256,int256,int256,int256,int256,int256,int256,int256,int256,int256,int256,int256,int256,int256,int256,int256),bytes32[],(address,address,address,address),address,address,address)": {
        "params": {
          "actor": "account which is allowed to update the asset state",
          "admin": "account which as admin rights (optional)",
          "engine": "ACTUS Engine of the asset",
          "ownership": "ownership of the asset",
          "schedule": "schedule of the asset",
          "state": "initial state of the asset",
          "terms": "asset specific terms (CECTerms)"
        }
      },
      "renounceOwnership()": {
        "details": "Leaves the contract without owner. It will not be possible to call `onlyOwner` functions anymore. Can only be called by the current owner. NOTE: Renouncing ownership will leave the contract without an owner, thereby removing any functionality that is only available to the owner."
      },
      "revokeAccess(bytes32,bytes4,address)": {
        "details": "Can only be called by an authorized account.",
        "params": {
          "account": "address of the account to revoke access for",
          "assetId": "id of the asset",
          "methodSignature": "function / method signature (4 byte keccak256 hash of the method selector)"
        }
      },
      "setActor(bytes32,address)": {
        "params": {
          "actor": "address of the Actor contract",
          "assetId": "id of the asset"
        }
      },
      "setCounterpartyBeneficiary(bytes32,address)": {
        "details": "Can only be updated by the current counterparty beneficiary or by an authorized account.",
        "params": {
          "assetId": "id of the asset",
          "newCounterpartyBeneficiary": "address of the new beneficiary"
        }
      },
      "setCounterpartyObligor(bytes32,address)": {
        "details": "Can only be updated by an authorized account.",
        "params": {
          "assetId": "id of the asset",
          "newCounterpartyObligor": "address of the new counterparty obligor"
        }
      },
      "setCreatorBeneficiary(bytes32,address)": {
        "details": "Can only be updated by the current creator beneficiary or by an authorized account.",
        "params": {
          "assetId": "id of the asset",
          "newCreatorBeneficiary": "address of the new beneficiary"
        }
      },
      "setCreatorObligor(bytes32,address)": {
        "details": "Can only be updated by an authorized account.",
        "params": {
          "assetId": "id of the asset",
          "newCreatorObligor": "address of the new creator obligor"
        }
      },
      "setEngine(bytes32,address)": {
        "details": "Can only be set by authorized account.",
        "params": {
          "assetId": "id of the asset",
          "engine": "new engine address"
        }
      },
      "setFinalizedState(bytes32,(uint8,uint256,uint256,uint256,uint256,uint256,uint256,uint256,int256,int256,int256,int256,int256,int256,int256,int256,int256,int256,int256,int256,int256,int256,int256))": {
        "details": "Can only be updated by the assets actor or by an authorized account.",
        "params": {
          "assetId": "id of the asset",
          "state": "next state of the asset"
        }
      },
      "setState(bytes32,(uint8,uint256,uint256,uint256,uint256,uint256,uint256,uint256,int256,int256,int256,int256,int256,int256,int256,int256,int256,int256,int256,int256,int256,int256,int256))": {
        "details": "Can only be updated by the assets actor or by an authorized account.",
        "params": {
          "assetId": "id of the asset",
          "state": "next state of the asset"
        }
      },
      "setTerms(bytes32,(uint8,uint8,uint8,uint8,uint8,uint8,uint8,uint8,uint256,uint256,int256,int256,int256,(bytes32,bytes32,uint8,uint8),(bytes32,bytes32,uint8,uint8)))": {
        "details": "Can only be set by authorized account.",
        "params": {
          "assetId": "id of the asset",
          "terms": "new terms"
        }
      },
      "transferOwnership(address)": {
        "details": "Transfers ownership of the contract to a new account (`newOwner`). Can only be called by the current owner."
      }
    },
    "title": "CECRegistry",
    "version": 1
  },
  "userdoc": {
    "kind": "user",
    "methods": {
      "approveActor(address)": {
        "notice": "Approves the address of an actor contract e.g. for registering assets."
      },
      "getActor(bytes32)": {
        "notice": "Returns the address of the actor which is allowed to update the state of the asset."
      },
      "getEngine(bytes32)": {
        "notice": "Returns the address of a the ACTUS engine corresponding to the ContractType of an asset."
      },
      "getEventAtIndex(bytes32,uint256)": {
        "notice": "Returns an event for a given position (index) in a schedule of a given asset."
      },
      "getFinalizedState(bytes32)": {
        "notice": "Returns the state of an asset."
      },
      "getNextScheduleIndex(bytes32)": {
        "notice": "Returns the index of the next event to be processed for a schedule of an asset."
      },
      "getNextScheduledEvent(bytes32)": {
        "notice": "Returns the next event to process."
      },
      "getNextUnderlyingEvent(bytes32)": {
        "notice": "If the underlying of the asset changes in performance to a covered performance, it returns the exerciseDate event."
      },
      "getOwnership(bytes32)": {
        "notice": "Retrieves the registered addresses of owners (creator, counterparty) of an asset."
      },
      "getSchedule(bytes32)": {
        "notice": "Convenience method for retrieving the entire schedule Not recommended to execute method on-chain (if schedule is too long the tx may run out of gas)"
      },
      "getScheduleLength(bytes32)": {
        "notice": "Returns the length of a schedule of a given asset."
      },
      "getState(bytes32)": {
        "notice": "Returns the state of an asset."
      },
      "getTerms(bytes32)": {
        "notice": "Returns the terms of an asset."
      },
      "grantAccess(bytes32,bytes4,address)": {
        "notice": "Grant access to an account to call a specific method on a specific asset."
      },
      "hasAccess(bytes32,bytes4,address)": {
        "notice": "Check whether an account is allowed to call a specific method on a specific asset."
      },
      "hasRootAccess(bytes32,address)": {
        "notice": "Check whether an account has root access for a specific asset."
      },
      "isEventSettled(bytes32,bytes32)": {
        "notice": "Returns true if an event of an assets schedule was settled"
      },
      "isRegistered(bytes32)": {
        "notice": "Returns if there is an asset registerd for a given assetId"
      },
      "markEventAsSettled(bytes32,bytes32,int256)": {
        "notice": "Mark an event as settled"
      },
      "popNextScheduledEvent(bytes32)": {
        "notice": "Increments the index of a schedule of an asset. (if max index is reached the index will be left unchanged)"
      },
      "registerAsset(bytes32,(uint8,uint8,uint8,uint8,uint8,uint8,uint8,uint8,uint256,uint256,int256,int256,int256,(bytes32,bytes32,uint8,uint8),(bytes32,bytes32,uint8,uint8)),(uint8,uint256,uint256,uint256,uint256,uint256,uint256,uint256,int256,int256,int256,int256,int256,int256,int256,int256,int256,int256,int256,int256,int256,int256,int256),bytes32[],(address,address,address,address),address,address,address)": {
        "notice": "@param assetId id of the asset"
      },
      "revokeAccess(bytes32,bytes4,address)": {
        "notice": "Revoke access for an account to call a specific method on a specific asset."
      },
      "setActor(bytes32,address)": {
        "notice": "Set the address of the Actor contract which should be going forward."
      },
      "setCounterpartyBeneficiary(bytes32,address)": {
        "notice": "Updates the address of the default beneficiary of cashflows going to the counterparty."
      },
      "setCounterpartyObligor(bytes32,address)": {
        "notice": "Update the address of the counterparty which has to fulfill obligations for the counterparty of the asset."
      },
      "setCreatorBeneficiary(bytes32,address)": {
        "notice": "Update the address of the default beneficiary of cashflows going to the creator."
      },
      "setCreatorObligor(bytes32,address)": {
        "notice": "Update the address of the obligor which has to fulfill obligations for the creator of the asset."
      },
      "setEngine(bytes32,address)": {
        "notice": "Set the engine address which should be used for the asset going forward."
      },
      "setFinalizedState(bytes32,(uint8,uint256,uint256,uint256,uint256,uint256,uint256,uint256,int256,int256,int256,int256,int256,int256,int256,int256,int256,int256,int256,int256,int256,int256,int256))": {
        "notice": "Sets next finalized state of an asset."
      },
      "setState(bytes32,(uint8,uint256,uint256,uint256,uint256,uint256,uint256,uint256,int256,int256,int256,int256,int256,int256,int256,int256,int256,int256,int256,int256,int256,int256,int256))": {
        "notice": "Sets next state of an asset."
      },
      "setTerms(bytes32,(uint8,uint8,uint8,uint8,uint8,uint8,uint8,uint8,uint256,uint256,int256,int256,int256,(bytes32,bytes32,uint8,uint8),(bytes32,bytes32,uint8,uint8)))": {
        "notice": "Set the terms of the asset"
      }
    },
    "notice": "Registry for ACTUS Protocol assets",
    "version": 1
  },
  "storageLayout": {
    "storage": [
      {
        "astId": 30,
        "contract": "contracts/Core/CEC/CECRegistry.sol:CECRegistry",
        "label": "_owner",
        "offset": 0,
        "slot": "0",
        "type": "t_address"
      },
      {
        "astId": 23593,
        "contract": "contracts/Core/CEC/CECRegistry.sol:CECRegistry",
        "label": "assets",
        "offset": 0,
        "slot": "1",
        "type": "t_mapping(t_bytes32,t_struct(Asset)23582_storage)"
      },
      {
        "astId": 23291,
        "contract": "contracts/Core/CEC/CECRegistry.sol:CECRegistry",
        "label": "approvedActors",
        "offset": 0,
        "slot": "2",
        "type": "t_mapping(t_address,t_bool)"
      }
    ],
    "types": {
      "t_address": {
        "encoding": "inplace",
        "label": "address",
        "numberOfBytes": "20"
      },
      "t_bool": {
        "encoding": "inplace",
        "label": "bool",
        "numberOfBytes": "1"
      },
      "t_bytes32": {
        "encoding": "inplace",
        "label": "bytes32",
        "numberOfBytes": "32"
      },
      "t_bytes4": {
        "encoding": "inplace",
        "label": "bytes4",
        "numberOfBytes": "4"
      },
      "t_enum(EventType)1645": {
        "encoding": "inplace",
        "label": "enum EventType",
        "numberOfBytes": "1"
      },
      "t_int256": {
        "encoding": "inplace",
        "label": "int256",
        "numberOfBytes": "32"
      },
      "t_int8": {
        "encoding": "inplace",
        "label": "int8",
        "numberOfBytes": "1"
      },
      "t_mapping(t_address,t_bool)": {
        "encoding": "mapping",
        "key": "t_address",
        "label": "mapping(address => bool)",
        "numberOfBytes": "32",
        "value": "t_bool"
      },
      "t_mapping(t_bytes32,t_bytes32)": {
        "encoding": "mapping",
        "key": "t_bytes32",
        "label": "mapping(bytes32 => bytes32)",
        "numberOfBytes": "32",
        "value": "t_bytes32"
      },
      "t_mapping(t_bytes32,t_struct(Asset)23582_storage)": {
        "encoding": "mapping",
        "key": "t_bytes32",
        "label": "mapping(bytes32 => struct Asset)",
        "numberOfBytes": "32",
        "value": "t_struct(Asset)23582_storage"
      },
      "t_mapping(t_bytes32,t_struct(Settlement)23549_storage)": {
        "encoding": "mapping",
        "key": "t_bytes32",
        "label": "mapping(bytes32 => struct Settlement)",
        "numberOfBytes": "32",
        "value": "t_struct(Settlement)23549_storage"
      },
      "t_mapping(t_bytes4,t_mapping(t_address,t_bool))": {
        "encoding": "mapping",
        "key": "t_bytes4",
        "label": "mapping(bytes4 => mapping(address => bool))",
        "numberOfBytes": "32",
        "value": "t_mapping(t_address,t_bool)"
      },
      "t_mapping(t_enum(EventType)1645,t_uint256)": {
        "encoding": "mapping",
        "key": "t_enum(EventType)1645",
        "label": "mapping(enum EventType => uint256)",
        "numberOfBytes": "32",
        "value": "t_uint256"
      },
      "t_mapping(t_int8,t_address)": {
        "encoding": "mapping",
        "key": "t_int8",
        "label": "mapping(int8 => address)",
        "numberOfBytes": "32",
        "value": "t_address"
      },
      "t_mapping(t_uint256,t_bytes32)": {
        "encoding": "mapping",
        "key": "t_uint256",
        "label": "mapping(uint256 => bytes32)",
        "numberOfBytes": "32",
        "value": "t_bytes32"
      },
      "t_struct(Asset)23582_storage": {
        "encoding": "inplace",
        "label": "struct Asset",
        "members": [
          {
            "astId": 23551,
            "contract": "contracts/Core/CEC/CECRegistry.sol:CECRegistry",
            "label": "isSet",
            "offset": 0,
            "slot": "0",
            "type": "t_bool"
          },
          {
            "astId": 23553,
            "contract": "contracts/Core/CEC/CECRegistry.sol:CECRegistry",
            "label": "engine",
            "offset": 1,
            "slot": "0",
            "type": "t_address"
          },
          {
            "astId": 23555,
            "contract": "contracts/Core/CEC/CECRegistry.sol:CECRegistry",
            "label": "actor",
            "offset": 0,
            "slot": "1",
            "type": "t_address"
          },
          {
            "astId": 23557,
            "contract": "contracts/Core/CEC/CECRegistry.sol:CECRegistry",
            "label": "schedule",
            "offset": 0,
            "slot": "2",
            "type": "t_struct(Schedule)33077_storage"
          },
          {
            "astId": 23559,
            "contract": "contracts/Core/CEC/CECRegistry.sol:CECRegistry",
            "label": "ownership",
            "offset": 0,
            "slot": "8",
            "type": "t_struct(AssetOwnership)33060_storage"
          },
          {
            "astId": 23563,
            "contract": "contracts/Core/CEC/CECRegistry.sol:CECRegistry",
            "label": "cashflowBeneficiaries",
            "offset": 0,
            "slot": "12",
            "type": "t_mapping(t_int8,t_address)"
          },
          {
            "astId": 23569,
            "contract": "contracts/Core/CEC/CECRegistry.sol:CECRegistry",
            "label": "access",
            "offset": 0,
            "slot": "13",
            "type": "t_mapping(t_bytes4,t_mapping(t_address,t_bool))"
          },
          {
            "astId": 23573,
            "contract": "contracts/Core/CEC/CECRegistry.sol:CECRegistry",
            "label": "packedTerms",
            "offset": 0,
            "slot": "14",
            "type": "t_mapping(t_bytes32,t_bytes32)"
          },
          {
            "astId": 23577,
            "contract": "contracts/Core/CEC/CECRegistry.sol:CECRegistry",
            "label": "packedState",
            "offset": 0,
            "slot": "15",
            "type": "t_mapping(t_bytes32,t_bytes32)"
          },
          {
            "astId": 23581,
            "contract": "contracts/Core/CEC/CECRegistry.sol:CECRegistry",
            "label": "settlement",
            "offset": 0,
            "slot": "16",
            "type": "t_mapping(t_bytes32,t_struct(Settlement)23549_storage)"
          }
        ],
        "numberOfBytes": "544"
      },
      "t_struct(AssetOwnership)33060_storage": {
        "encoding": "inplace",
        "label": "struct AssetOwnership",
        "members": [
          {
            "astId": 33053,
            "contract": "contracts/Core/CEC/CECRegistry.sol:CECRegistry",
            "label": "creatorObligor",
            "offset": 0,
            "slot": "0",
            "type": "t_address"
          },
          {
            "astId": 33055,
            "contract": "contracts/Core/CEC/CECRegistry.sol:CECRegistry",
            "label": "creatorBeneficiary",
            "offset": 0,
            "slot": "1",
            "type": "t_address"
          },
          {
            "astId": 33057,
            "contract": "contracts/Core/CEC/CECRegistry.sol:CECRegistry",
            "label": "counterpartyObligor",
            "offset": 0,
            "slot": "2",
            "type": "t_address"
          },
          {
            "astId": 33059,
            "contract": "contracts/Core/CEC/CECRegistry.sol:CECRegistry",
            "label": "counterpartyBeneficiary",
            "offset": 0,
            "slot": "3",
            "type": "t_address"
          }
        ],
        "numberOfBytes": "128"
      },
      "t_struct(Schedule)33077_storage": {
        "encoding": "inplace",
        "label": "struct Schedule",
        "members": [
          {
            "astId": 33064,
            "contract": "contracts/Core/CEC/CECRegistry.sol:CECRegistry",
            "label": "lastScheduleTimeOfCyclicEvent",
            "offset": 0,
            "slot": "0",
            "type": "t_mapping(t_enum(EventType)1645,t_uint256)"
          },
          {
            "astId": 33068,
            "contract": "contracts/Core/CEC/CECRegistry.sol:CECRegistry",
            "label": "events",
            "offset": 0,
            "slot": "1",
            "type": "t_mapping(t_uint256,t_bytes32)"
          },
          {
            "astId": 33070,
            "contract": "contracts/Core/CEC/CECRegistry.sol:CECRegistry",
            "label": "length",
            "offset": 0,
            "slot": "2",
            "type": "t_uint256"
          },
          {
            "astId": 33072,
            "contract": "contracts/Core/CEC/CECRegistry.sol:CECRegistry",
            "label": "nextScheduleIndex",
            "offset": 0,
            "slot": "3",
            "type": "t_uint256"
          },
          {
            "astId": 33074,
            "contract": "contracts/Core/CEC/CECRegistry.sol:CECRegistry",
            "label": "pendingEvent",
            "offset": 0,
            "slot": "4",
            "type": "t_bytes32"
          },
          {
            "astId": 33076,
            "contract": "contracts/Core/CEC/CECRegistry.sol:CECRegistry",
            "label": "lastNonCyclicEvent",
            "offset": 0,
            "slot": "5",
            "type": "t_bytes32"
          }
        ],
        "numberOfBytes": "192"
      },
      "t_struct(Settlement)23549_storage": {
        "encoding": "inplace",
        "label": "struct Settlement",
        "members": [
          {
            "astId": 23546,
            "contract": "contracts/Core/CEC/CECRegistry.sol:CECRegistry",
            "label": "isSettled",
            "offset": 0,
            "slot": "0",
            "type": "t_bool"
          },
          {
            "astId": 23548,
            "contract": "contracts/Core/CEC/CECRegistry.sol:CECRegistry",
            "label": "payoff",
            "offset": 0,
            "slot": "1",
            "type": "t_int256"
          }
        ],
        "numberOfBytes": "64"
      },
      "t_uint256": {
        "encoding": "inplace",
        "label": "uint256",
        "numberOfBytes": "32"
      }
    }
  },
  "gasEstimates": {
    "creation": {
      "codeDepositCost": "4005800",
      "executionCost": "27007",
      "totalCost": "4032807"
    },
    "external": {
      "approveActor(address)": "22154",
      "approvedActors(address)": "1307",
      "getActor(bytes32)": "1359",
      "getAddressValueForTermsAttribute(bytes32,bytes32)": "infinite",
      "getBytes32ValueForTermsAttribute(bytes32,bytes32)": "infinite",
      "getContractReferenceValueForTermsAttribute(bytes32,bytes32)": "infinite",
      "getCycleValueForTermsAttribute(bytes32,bytes32)": "infinite",
      "getEngine(bytes32)": "1312",
      "getEnumValueForStateAttribute(bytes32,bytes32)": "infinite",
      "getEnumValueForTermsAttribute(bytes32,bytes32)": "infinite",
      "getEventAtIndex(bytes32,uint256)": "1343",
      "getFinalizedState(bytes32)": "infinite",
      "getIntValueForStateAttribute(bytes32,bytes32)": "1477",
      "getIntValueForTermsAttribute(bytes32,bytes32)": "infinite",
      "getNextScheduleIndex(bytes32)": "1267",
      "getNextScheduledEvent(bytes32)": "infinite",
      "getNextUnderlyingEvent(bytes32)": "infinite",
      "getOwnership(bytes32)": "4178",
      "getPendingEvent(bytes32)": "1309",
      "getPeriodValueForTermsAttribute(bytes32,bytes32)": "infinite",
      "getSchedule(bytes32)": "infinite",
      "getScheduleLength(bytes32)": "1223",
      "getState(bytes32)": "infinite",
      "getTerms(bytes32)": "infinite",
      "getUIntValueForTermsAttribute(bytes32,bytes32)": "infinite",
      "getUintValueForStateAttribute(bytes32,bytes32)": "1455",
      "grantAccess(bytes32,bytes4,address)": "25708",
      "hasAccess(bytes32,bytes4,address)": "2647",
      "hasRootAccess(bytes32,address)": "1543",
      "isEventSettled(bytes32,bytes32)": "2187",
      "isRegistered(bytes32)": "1251",
      "markEventAsSettled(bytes32,bytes32,int256)": "44578",
      "owner()": "1225",
      "popNextScheduledEvent(bytes32)": "infinite",
      "popPendingEvent(bytes32)": "9411",
      "pushPendingEvent(bytes32,bytes32)": "23559",
      "registerAsset(bytes32,(uint8,uint8,uint8,uint8,uint8,uint8,uint8,uint8,uint256,uint256,int256,int256,int256,(bytes32,bytes32,uint8,uint8),(bytes32,bytes32,uint8,uint8)),(uint8,uint256,uint256,uint256,uint256,uint256,uint256,uint256,int256,int256,int256,int256,int256,int256,int256,int256,int256,int256,int256,int256,int256,int256,int256),bytes32[],(address,address,address,address),address,address,address)": "infinite",
      "renounceOwnership()": "24293",
      "revokeAccess(bytes32,bytes4,address)": "25695",
      "setActor(bytes32,address)": "26237",
      "setCounterpartyBeneficiary(bytes32,address)": "26198",
      "setCounterpartyObligor(bytes32,address)": "25264",
      "setCreatorBeneficiary(bytes32,address)": "26198",
      "setCreatorObligor(bytes32,address)": "25266",
      "setEngine(bytes32,address)": "26302",
      "setFinalizedState(bytes32,(uint8,uint256,uint256,uint256,uint256,uint256,uint256,uint256,int256,int256,int256,int256,int256,int256,int256,int256,int256,int256,int256,int256,int256,int256,int256))": "infinite",
      "setState(bytes32,(uint8,uint256,uint256,uint256,uint256,uint256,uint256,uint256,int256,int256,int256,int256,int256,int256,int256,int256,int256,int256,int256,int256,int256,int256,int256))": "infinite",
      "setTerms(bytes32,(uint8,uint8,uint8,uint8,uint8,uint8,uint8,uint8,uint256,uint256,int256,int256,int256,(bytes32,bytes32,uint8,uint8),(bytes32,bytes32,uint8,uint8)))": "infinite",
      "transferOwnership(address)": "infinite"
    },
    "internal": {
      "getNextComputedEvent(bytes32)": "infinite"
    }
  }
}