{
  "address": "0xCA386B0fD4f446aA61957f87d0A1630042255b37",
  "abi": [
    {
      "inputs": [],
      "name": "MAX_CYCLE_SIZE",
      "outputs": [
        {
          "internalType": "uint256",
          "name": "",
          "type": "uint256"
        }
      ],
      "stateMutability": "view",
      "type": "function"
    },
    {
      "inputs": [],
      "name": "MAX_EVENT_SCHEDULE_SIZE",
      "outputs": [
        {
          "internalType": "uint256",
          "name": "",
          "type": "uint256"
        }
      ],
      "stateMutability": "view",
      "type": "function"
    },
    {
      "inputs": [],
      "name": "ONE_POINT_ZERO",
      "outputs": [
        {
          "internalType": "int256",
          "name": "",
          "type": "int256"
        }
      ],
      "stateMutability": "view",
      "type": "function"
    },
    {
      "inputs": [],
      "name": "PRECISION",
      "outputs": [
        {
          "internalType": "uint256",
          "name": "",
          "type": "uint256"
        }
      ],
      "stateMutability": "view",
      "type": "function"
    },
    {
      "inputs": [
        {
          "internalType": "enum EndOfMonthConvention",
          "name": "eomc",
          "type": "uint8"
        },
        {
          "internalType": "uint256",
          "name": "startTime",
          "type": "uint256"
        },
        {
          "components": [
            {
              "internalType": "uint256",
              "name": "i",
              "type": "uint256"
            },
            {
              "internalType": "enum P",
              "name": "p",
              "type": "uint8"
            },
            {
              "internalType": "enum S",
              "name": "s",
              "type": "uint8"
            },
            {
              "internalType": "bool",
              "name": "isSet",
              "type": "bool"
            }
          ],
          "internalType": "struct IPS",
          "name": "cycle",
          "type": "tuple"
        }
      ],
      "name": "adjustEndOfMonthConvention",
      "outputs": [
        {
          "internalType": "enum EndOfMonthConvention",
          "name": "",
          "type": "uint8"
        }
      ],
      "stateMutability": "pure",
      "type": "function"
    },
    {
      "inputs": [
        {
          "components": [
            {
              "internalType": "enum ContractType",
              "name": "contractType",
              "type": "uint8"
            },
            {
              "internalType": "enum Calendar",
              "name": "calendar",
              "type": "uint8"
            },
            {
              "internalType": "enum ContractRole",
              "name": "contractRole",
              "type": "uint8"
            },
            {
              "internalType": "enum DayCountConvention",
              "name": "dayCountConvention",
              "type": "uint8"
            },
            {
              "internalType": "enum BusinessDayConvention",
              "name": "businessDayConvention",
              "type": "uint8"
            },
            {
              "internalType": "enum EndOfMonthConvention",
              "name": "endOfMonthConvention",
              "type": "uint8"
            },
            {
              "internalType": "enum FeeBasis",
              "name": "feeBasis",
              "type": "uint8"
            },
            {
              "internalType": "enum ContractPerformance",
              "name": "creditEventTypeCovered",
              "type": "uint8"
            },
            {
              "internalType": "address",
              "name": "currency",
              "type": "address"
            },
            {
              "internalType": "address",
              "name": "settlementCurrency",
              "type": "address"
            },
            {
              "internalType": "uint256",
              "name": "contractDealDate",
              "type": "uint256"
            },
            {
              "internalType": "uint256",
              "name": "statusDate",
              "type": "uint256"
            },
            {
              "internalType": "uint256",
              "name": "maturityDate",
              "type": "uint256"
            },
            {
              "internalType": "uint256",
              "name": "purchaseDate",
              "type": "uint256"
            },
            {
              "internalType": "uint256",
              "name": "cycleAnchorDateOfFee",
              "type": "uint256"
            },
            {
              "internalType": "int256",
              "name": "notionalPrincipal",
              "type": "int256"
            },
            {
              "internalType": "int256",
              "name": "delinquencyRate",
              "type": "int256"
            },
            {
              "internalType": "int256",
              "name": "feeAccrued",
              "type": "int256"
            },
            {
              "internalType": "int256",
              "name": "feeRate",
              "type": "int256"
            },
            {
              "internalType": "int256",
              "name": "priceAtPurchaseDate",
              "type": "int256"
            },
            {
              "internalType": "int256",
              "name": "coverageOfCreditEnhancement",
              "type": "int256"
            },
            {
              "components": [
                {
                  "internalType": "uint256",
                  "name": "i",
                  "type": "uint256"
                },
                {
                  "internalType": "enum P",
                  "name": "p",
                  "type": "uint8"
                },
                {
                  "internalType": "bool",
                  "name": "isSet",
                  "type": "bool"
                }
              ],
              "internalType": "struct IP",
              "name": "gracePeriod",
              "type": "tuple"
            },
            {
              "components": [
                {
                  "internalType": "uint256",
                  "name": "i",
                  "type": "uint256"
                },
                {
                  "internalType": "enum P",
                  "name": "p",
                  "type": "uint8"
                },
                {
                  "internalType": "bool",
                  "name": "isSet",
                  "type": "bool"
                }
              ],
              "internalType": "struct IP",
              "name": "delinquencyPeriod",
              "type": "tuple"
            },
            {
              "components": [
                {
                  "internalType": "uint256",
                  "name": "i",
                  "type": "uint256"
                },
                {
                  "internalType": "enum P",
                  "name": "p",
                  "type": "uint8"
                },
                {
                  "internalType": "enum S",
                  "name": "s",
                  "type": "uint8"
                },
                {
                  "internalType": "bool",
                  "name": "isSet",
                  "type": "bool"
                }
              ],
              "internalType": "struct IPS",
              "name": "cycleOfFee",
              "type": "tuple"
            },
            {
              "components": [
                {
                  "internalType": "bytes32",
                  "name": "object",
                  "type": "bytes32"
                },
                {
                  "internalType": "bytes32",
                  "name": "object2",
                  "type": "bytes32"
                },
                {
                  "internalType": "enum ContractReferenceType",
                  "name": "_type",
                  "type": "uint8"
                },
                {
                  "internalType": "enum ContractReferenceRole",
                  "name": "role",
                  "type": "uint8"
                }
              ],
              "internalType": "struct ContractReference",
              "name": "contractReference_1",
              "type": "tuple"
            },
            {
              "components": [
                {
                  "internalType": "bytes32",
                  "name": "object",
                  "type": "bytes32"
                },
                {
                  "internalType": "bytes32",
                  "name": "object2",
                  "type": "bytes32"
                },
                {
                  "internalType": "enum ContractReferenceType",
                  "name": "_type",
                  "type": "uint8"
                },
                {
                  "internalType": "enum ContractReferenceRole",
                  "name": "role",
                  "type": "uint8"
                }
              ],
              "internalType": "struct ContractReference",
              "name": "contractReference_2",
              "type": "tuple"
            }
          ],
          "internalType": "struct CEGTerms",
          "name": "terms",
          "type": "tuple"
        },
        {
          "internalType": "uint256",
          "name": "segmentStart",
          "type": "uint256"
        },
        {
          "internalType": "uint256",
          "name": "segmentEnd",
          "type": "uint256"
        },
        {
          "internalType": "enum EventType",
          "name": "eventType",
          "type": "uint8"
        }
      ],
      "name": "computeCyclicScheduleSegment",
      "outputs": [
        {
          "internalType": "bytes32[]",
          "name": "",
          "type": "bytes32[]"
        }
      ],
      "stateMutability": "pure",
      "type": "function"
    },
    {
      "inputs": [
        {
          "internalType": "bytes32",
          "name": "_event",
          "type": "bytes32"
        },
        {
          "internalType": "enum BusinessDayConvention",
          "name": "bdc",
          "type": "uint8"
        },
        {
          "internalType": "enum Calendar",
          "name": "calendar",
          "type": "uint8"
        },
        {
          "internalType": "uint256",
          "name": "maturityDate",
          "type": "uint256"
        }
      ],
      "name": "computeEventTimeForEvent",
      "outputs": [
        {
          "internalType": "uint256",
          "name": "",
          "type": "uint256"
        }
      ],
      "stateMutability": "pure",
      "type": "function"
    },
    {
      "inputs": [
        {
          "components": [
            {
              "internalType": "enum ContractType",
              "name": "contractType",
              "type": "uint8"
            },
            {
              "internalType": "enum Calendar",
              "name": "calendar",
              "type": "uint8"
            },
            {
              "internalType": "enum ContractRole",
              "name": "contractRole",
              "type": "uint8"
            },
            {
              "internalType": "enum DayCountConvention",
              "name": "dayCountConvention",
              "type": "uint8"
            },
            {
              "internalType": "enum BusinessDayConvention",
              "name": "businessDayConvention",
              "type": "uint8"
            },
            {
              "internalType": "enum EndOfMonthConvention",
              "name": "endOfMonthConvention",
              "type": "uint8"
            },
            {
              "internalType": "enum FeeBasis",
              "name": "feeBasis",
              "type": "uint8"
            },
            {
              "internalType": "enum ContractPerformance",
              "name": "creditEventTypeCovered",
              "type": "uint8"
            },
            {
              "internalType": "address",
              "name": "currency",
              "type": "address"
            },
            {
              "internalType": "address",
              "name": "settlementCurrency",
              "type": "address"
            },
            {
              "internalType": "uint256",
              "name": "contractDealDate",
              "type": "uint256"
            },
            {
              "internalType": "uint256",
              "name": "statusDate",
              "type": "uint256"
            },
            {
              "internalType": "uint256",
              "name": "maturityDate",
              "type": "uint256"
            },
            {
              "internalType": "uint256",
              "name": "purchaseDate",
              "type": "uint256"
            },
            {
              "internalType": "uint256",
              "name": "cycleAnchorDateOfFee",
              "type": "uint256"
            },
            {
              "internalType": "int256",
              "name": "notionalPrincipal",
              "type": "int256"
            },
            {
              "internalType": "int256",
              "name": "delinquencyRate",
              "type": "int256"
            },
            {
              "internalType": "int256",
              "name": "feeAccrued",
              "type": "int256"
            },
            {
              "internalType": "int256",
              "name": "feeRate",
              "type": "int256"
            },
            {
              "internalType": "int256",
              "name": "priceAtPurchaseDate",
              "type": "int256"
            },
            {
              "internalType": "int256",
              "name": "coverageOfCreditEnhancement",
              "type": "int256"
            },
            {
              "components": [
                {
                  "internalType": "uint256",
                  "name": "i",
                  "type": "uint256"
                },
                {
                  "internalType": "enum P",
                  "name": "p",
                  "type": "uint8"
                },
                {
                  "internalType": "bool",
                  "name": "isSet",
                  "type": "bool"
                }
              ],
              "internalType": "struct IP",
              "name": "gracePeriod",
              "type": "tuple"
            },
            {
              "components": [
                {
                  "internalType": "uint256",
                  "name": "i",
                  "type": "uint256"
                },
                {
                  "internalType": "enum P",
                  "name": "p",
                  "type": "uint8"
                },
                {
                  "internalType": "bool",
                  "name": "isSet",
                  "type": "bool"
                }
              ],
              "internalType": "struct IP",
              "name": "delinquencyPeriod",
              "type": "tuple"
            },
            {
              "components": [
                {
                  "internalType": "uint256",
                  "name": "i",
                  "type": "uint256"
                },
                {
                  "internalType": "enum P",
                  "name": "p",
                  "type": "uint8"
                },
                {
                  "internalType": "enum S",
                  "name": "s",
                  "type": "uint8"
                },
                {
                  "internalType": "bool",
                  "name": "isSet",
                  "type": "bool"
                }
              ],
              "internalType": "struct IPS",
              "name": "cycleOfFee",
              "type": "tuple"
            },
            {
              "components": [
                {
                  "internalType": "bytes32",
                  "name": "object",
                  "type": "bytes32"
                },
                {
                  "internalType": "bytes32",
                  "name": "object2",
                  "type": "bytes32"
                },
                {
                  "internalType": "enum ContractReferenceType",
                  "name": "_type",
                  "type": "uint8"
                },
                {
                  "internalType": "enum ContractReferenceRole",
                  "name": "role",
                  "type": "uint8"
                }
              ],
              "internalType": "struct ContractReference",
              "name": "contractReference_1",
              "type": "tuple"
            },
            {
              "components": [
                {
                  "internalType": "bytes32",
                  "name": "object",
                  "type": "bytes32"
                },
                {
                  "internalType": "bytes32",
                  "name": "object2",
                  "type": "bytes32"
                },
                {
                  "internalType": "enum ContractReferenceType",
                  "name": "_type",
                  "type": "uint8"
                },
                {
                  "internalType": "enum ContractReferenceRole",
                  "name": "role",
                  "type": "uint8"
                }
              ],
              "internalType": "struct ContractReference",
              "name": "contractReference_2",
              "type": "tuple"
            }
          ],
          "internalType": "struct CEGTerms",
          "name": "terms",
          "type": "tuple"
        }
      ],
      "name": "computeInitialState",
      "outputs": [
        {
          "components": [
            {
              "internalType": "enum ContractPerformance",
              "name": "contractPerformance",
              "type": "uint8"
            },
            {
              "internalType": "uint256",
              "name": "statusDate",
              "type": "uint256"
            },
            {
              "internalType": "uint256",
              "name": "nonPerformingDate",
              "type": "uint256"
            },
            {
              "internalType": "uint256",
              "name": "maturityDate",
              "type": "uint256"
            },
            {
              "internalType": "uint256",
              "name": "exerciseDate",
              "type": "uint256"
            },
            {
              "internalType": "uint256",
              "name": "terminationDate",
              "type": "uint256"
            },
            {
              "internalType": "uint256",
              "name": "lastCouponFixingDate",
              "type": "uint256"
            },
            {
              "internalType": "uint256",
              "name": "lastDividendFixingDate",
              "type": "uint256"
            },
            {
              "internalType": "int256",
              "name": "notionalPrincipal",
              "type": "int256"
            },
            {
              "internalType": "int256",
              "name": "accruedInterest",
              "type": "int256"
            },
            {
              "internalType": "int256",
              "name": "feeAccrued",
              "type": "int256"
            },
            {
              "internalType": "int256",
              "name": "nominalInterestRate",
              "type": "int256"
            },
            {
              "internalType": "int256",
              "name": "interestScalingMultiplier",
              "type": "int256"
            },
            {
              "internalType": "int256",
              "name": "notionalScalingMultiplier",
              "type": "int256"
            },
            {
              "internalType": "int256",
              "name": "nextPrincipalRedemptionPayment",
              "type": "int256"
            },
            {
              "internalType": "int256",
              "name": "exerciseAmount",
              "type": "int256"
            },
            {
              "internalType": "int256",
              "name": "exerciseQuantity",
              "type": "int256"
            },
            {
              "internalType": "int256",
              "name": "quantity",
              "type": "int256"
            },
            {
              "internalType": "int256",
              "name": "couponAmountFixed",
              "type": "int256"
            },
            {
              "internalType": "int256",
              "name": "marginFactor",
              "type": "int256"
            },
            {
              "internalType": "int256",
              "name": "adjustmentFactor",
              "type": "int256"
            },
            {
              "internalType": "int256",
              "name": "dividendPaymentAmount",
              "type": "int256"
            },
            {
              "internalType": "int256",
              "name": "splitRatio",
              "type": "int256"
            }
          ],
          "internalType": "struct State",
          "name": "",
          "type": "tuple"
        }
      ],
      "stateMutability": "pure",
      "type": "function"
    },
    {
      "inputs": [
        {
          "components": [
            {
              "internalType": "enum ContractType",
              "name": "contractType",
              "type": "uint8"
            },
            {
              "internalType": "enum Calendar",
              "name": "calendar",
              "type": "uint8"
            },
            {
              "internalType": "enum ContractRole",
              "name": "contractRole",
              "type": "uint8"
            },
            {
              "internalType": "enum DayCountConvention",
              "name": "dayCountConvention",
              "type": "uint8"
            },
            {
              "internalType": "enum BusinessDayConvention",
              "name": "businessDayConvention",
              "type": "uint8"
            },
            {
              "internalType": "enum EndOfMonthConvention",
              "name": "endOfMonthConvention",
              "type": "uint8"
            },
            {
              "internalType": "enum FeeBasis",
              "name": "feeBasis",
              "type": "uint8"
            },
            {
              "internalType": "enum ContractPerformance",
              "name": "creditEventTypeCovered",
              "type": "uint8"
            },
            {
              "internalType": "address",
              "name": "currency",
              "type": "address"
            },
            {
              "internalType": "address",
              "name": "settlementCurrency",
              "type": "address"
            },
            {
              "internalType": "uint256",
              "name": "contractDealDate",
              "type": "uint256"
            },
            {
              "internalType": "uint256",
              "name": "statusDate",
              "type": "uint256"
            },
            {
              "internalType": "uint256",
              "name": "maturityDate",
              "type": "uint256"
            },
            {
              "internalType": "uint256",
              "name": "purchaseDate",
              "type": "uint256"
            },
            {
              "internalType": "uint256",
              "name": "cycleAnchorDateOfFee",
              "type": "uint256"
            },
            {
              "internalType": "int256",
              "name": "notionalPrincipal",
              "type": "int256"
            },
            {
              "internalType": "int256",
              "name": "delinquencyRate",
              "type": "int256"
            },
            {
              "internalType": "int256",
              "name": "feeAccrued",
              "type": "int256"
            },
            {
              "internalType": "int256",
              "name": "feeRate",
              "type": "int256"
            },
            {
              "internalType": "int256",
              "name": "priceAtPurchaseDate",
              "type": "int256"
            },
            {
              "internalType": "int256",
              "name": "coverageOfCreditEnhancement",
              "type": "int256"
            },
            {
              "components": [
                {
                  "internalType": "uint256",
                  "name": "i",
                  "type": "uint256"
                },
                {
                  "internalType": "enum P",
                  "name": "p",
                  "type": "uint8"
                },
                {
                  "internalType": "bool",
                  "name": "isSet",
                  "type": "bool"
                }
              ],
              "internalType": "struct IP",
              "name": "gracePeriod",
              "type": "tuple"
            },
            {
              "components": [
                {
                  "internalType": "uint256",
                  "name": "i",
                  "type": "uint256"
                },
                {
                  "internalType": "enum P",
                  "name": "p",
                  "type": "uint8"
                },
                {
                  "internalType": "bool",
                  "name": "isSet",
                  "type": "bool"
                }
              ],
              "internalType": "struct IP",
              "name": "delinquencyPeriod",
              "type": "tuple"
            },
            {
              "components": [
                {
                  "internalType": "uint256",
                  "name": "i",
                  "type": "uint256"
                },
                {
                  "internalType": "enum P",
                  "name": "p",
                  "type": "uint8"
                },
                {
                  "internalType": "enum S",
                  "name": "s",
                  "type": "uint8"
                },
                {
                  "internalType": "bool",
                  "name": "isSet",
                  "type": "bool"
                }
              ],
              "internalType": "struct IPS",
              "name": "cycleOfFee",
              "type": "tuple"
            },
            {
              "components": [
                {
                  "internalType": "bytes32",
                  "name": "object",
                  "type": "bytes32"
                },
                {
                  "internalType": "bytes32",
                  "name": "object2",
                  "type": "bytes32"
                },
                {
                  "internalType": "enum ContractReferenceType",
                  "name": "_type",
                  "type": "uint8"
                },
                {
                  "internalType": "enum ContractReferenceRole",
                  "name": "role",
                  "type": "uint8"
                }
              ],
              "internalType": "struct ContractReference",
              "name": "contractReference_1",
              "type": "tuple"
            },
            {
              "components": [
                {
                  "internalType": "bytes32",
                  "name": "object",
                  "type": "bytes32"
                },
                {
                  "internalType": "bytes32",
                  "name": "object2",
                  "type": "bytes32"
                },
                {
                  "internalType": "enum ContractReferenceType",
                  "name": "_type",
                  "type": "uint8"
                },
                {
                  "internalType": "enum ContractReferenceRole",
                  "name": "role",
                  "type": "uint8"
                }
              ],
              "internalType": "struct ContractReference",
              "name": "contractReference_2",
              "type": "tuple"
            }
          ],
          "internalType": "struct CEGTerms",
          "name": "terms",
          "type": "tuple"
        },
        {
          "internalType": "uint256",
          "name": "lastScheduleTime",
          "type": "uint256"
        },
        {
          "internalType": "enum EventType",
          "name": "eventType",
          "type": "uint8"
        }
      ],
      "name": "computeNextCyclicEvent",
      "outputs": [
        {
          "internalType": "bytes32",
          "name": "",
          "type": "bytes32"
        }
      ],
      "stateMutability": "pure",
      "type": "function"
    },
    {
      "inputs": [
        {
          "components": [
            {
              "internalType": "enum ContractType",
              "name": "contractType",
              "type": "uint8"
            },
            {
              "internalType": "enum Calendar",
              "name": "calendar",
              "type": "uint8"
            },
            {
              "internalType": "enum ContractRole",
              "name": "contractRole",
              "type": "uint8"
            },
            {
              "internalType": "enum DayCountConvention",
              "name": "dayCountConvention",
              "type": "uint8"
            },
            {
              "internalType": "enum BusinessDayConvention",
              "name": "businessDayConvention",
              "type": "uint8"
            },
            {
              "internalType": "enum EndOfMonthConvention",
              "name": "endOfMonthConvention",
              "type": "uint8"
            },
            {
              "internalType": "enum FeeBasis",
              "name": "feeBasis",
              "type": "uint8"
            },
            {
              "internalType": "enum ContractPerformance",
              "name": "creditEventTypeCovered",
              "type": "uint8"
            },
            {
              "internalType": "address",
              "name": "currency",
              "type": "address"
            },
            {
              "internalType": "address",
              "name": "settlementCurrency",
              "type": "address"
            },
            {
              "internalType": "uint256",
              "name": "contractDealDate",
              "type": "uint256"
            },
            {
              "internalType": "uint256",
              "name": "statusDate",
              "type": "uint256"
            },
            {
              "internalType": "uint256",
              "name": "maturityDate",
              "type": "uint256"
            },
            {
              "internalType": "uint256",
              "name": "purchaseDate",
              "type": "uint256"
            },
            {
              "internalType": "uint256",
              "name": "cycleAnchorDateOfFee",
              "type": "uint256"
            },
            {
              "internalType": "int256",
              "name": "notionalPrincipal",
              "type": "int256"
            },
            {
              "internalType": "int256",
              "name": "delinquencyRate",
              "type": "int256"
            },
            {
              "internalType": "int256",
              "name": "feeAccrued",
              "type": "int256"
            },
            {
              "internalType": "int256",
              "name": "feeRate",
              "type": "int256"
            },
            {
              "internalType": "int256",
              "name": "priceAtPurchaseDate",
              "type": "int256"
            },
            {
              "internalType": "int256",
              "name": "coverageOfCreditEnhancement",
              "type": "int256"
            },
            {
              "components": [
                {
                  "internalType": "uint256",
                  "name": "i",
                  "type": "uint256"
                },
                {
                  "internalType": "enum P",
                  "name": "p",
                  "type": "uint8"
                },
                {
                  "internalType": "bool",
                  "name": "isSet",
                  "type": "bool"
                }
              ],
              "internalType": "struct IP",
              "name": "gracePeriod",
              "type": "tuple"
            },
            {
              "components": [
                {
                  "internalType": "uint256",
                  "name": "i",
                  "type": "uint256"
                },
                {
                  "internalType": "enum P",
                  "name": "p",
                  "type": "uint8"
                },
                {
                  "internalType": "bool",
                  "name": "isSet",
                  "type": "bool"
                }
              ],
              "internalType": "struct IP",
              "name": "delinquencyPeriod",
              "type": "tuple"
            },
            {
              "components": [
                {
                  "internalType": "uint256",
                  "name": "i",
                  "type": "uint256"
                },
                {
                  "internalType": "enum P",
                  "name": "p",
                  "type": "uint8"
                },
                {
                  "internalType": "enum S",
                  "name": "s",
                  "type": "uint8"
                },
                {
                  "internalType": "bool",
                  "name": "isSet",
                  "type": "bool"
                }
              ],
              "internalType": "struct IPS",
              "name": "cycleOfFee",
              "type": "tuple"
            },
            {
              "components": [
                {
                  "internalType": "bytes32",
                  "name": "object",
                  "type": "bytes32"
                },
                {
                  "internalType": "bytes32",
                  "name": "object2",
                  "type": "bytes32"
                },
                {
                  "internalType": "enum ContractReferenceType",
                  "name": "_type",
                  "type": "uint8"
                },
                {
                  "internalType": "enum ContractReferenceRole",
                  "name": "role",
                  "type": "uint8"
                }
              ],
              "internalType": "struct ContractReference",
              "name": "contractReference_1",
              "type": "tuple"
            },
            {
              "components": [
                {
                  "internalType": "bytes32",
                  "name": "object",
                  "type": "bytes32"
                },
                {
                  "internalType": "bytes32",
                  "name": "object2",
                  "type": "bytes32"
                },
                {
                  "internalType": "enum ContractReferenceType",
                  "name": "_type",
                  "type": "uint8"
                },
                {
                  "internalType": "enum ContractReferenceRole",
                  "name": "role",
                  "type": "uint8"
                }
              ],
              "internalType": "struct ContractReference",
              "name": "contractReference_2",
              "type": "tuple"
            }
          ],
          "internalType": "struct CEGTerms",
          "name": "terms",
          "type": "tuple"
        },
        {
          "internalType": "bytes32",
          "name": "lastNonCyclicEvent",
          "type": "bytes32"
        }
      ],
      "name": "computeNextNonCyclicEvent",
      "outputs": [
        {
          "internalType": "bytes32",
          "name": "",
          "type": "bytes32"
        }
      ],
      "stateMutability": "pure",
      "type": "function"
    },
    {
      "inputs": [
        {
          "components": [
            {
              "internalType": "enum ContractType",
              "name": "contractType",
              "type": "uint8"
            },
            {
              "internalType": "enum Calendar",
              "name": "calendar",
              "type": "uint8"
            },
            {
              "internalType": "enum ContractRole",
              "name": "contractRole",
              "type": "uint8"
            },
            {
              "internalType": "enum DayCountConvention",
              "name": "dayCountConvention",
              "type": "uint8"
            },
            {
              "internalType": "enum BusinessDayConvention",
              "name": "businessDayConvention",
              "type": "uint8"
            },
            {
              "internalType": "enum EndOfMonthConvention",
              "name": "endOfMonthConvention",
              "type": "uint8"
            },
            {
              "internalType": "enum FeeBasis",
              "name": "feeBasis",
              "type": "uint8"
            },
            {
              "internalType": "enum ContractPerformance",
              "name": "creditEventTypeCovered",
              "type": "uint8"
            },
            {
              "internalType": "address",
              "name": "currency",
              "type": "address"
            },
            {
              "internalType": "address",
              "name": "settlementCurrency",
              "type": "address"
            },
            {
              "internalType": "uint256",
              "name": "contractDealDate",
              "type": "uint256"
            },
            {
              "internalType": "uint256",
              "name": "statusDate",
              "type": "uint256"
            },
            {
              "internalType": "uint256",
              "name": "maturityDate",
              "type": "uint256"
            },
            {
              "internalType": "uint256",
              "name": "purchaseDate",
              "type": "uint256"
            },
            {
              "internalType": "uint256",
              "name": "cycleAnchorDateOfFee",
              "type": "uint256"
            },
            {
              "internalType": "int256",
              "name": "notionalPrincipal",
              "type": "int256"
            },
            {
              "internalType": "int256",
              "name": "delinquencyRate",
              "type": "int256"
            },
            {
              "internalType": "int256",
              "name": "feeAccrued",
              "type": "int256"
            },
            {
              "internalType": "int256",
              "name": "feeRate",
              "type": "int256"
            },
            {
              "internalType": "int256",
              "name": "priceAtPurchaseDate",
              "type": "int256"
            },
            {
              "internalType": "int256",
              "name": "coverageOfCreditEnhancement",
              "type": "int256"
            },
            {
              "components": [
                {
                  "internalType": "uint256",
                  "name": "i",
                  "type": "uint256"
                },
                {
                  "internalType": "enum P",
                  "name": "p",
                  "type": "uint8"
                },
                {
                  "internalType": "bool",
                  "name": "isSet",
                  "type": "bool"
                }
              ],
              "internalType": "struct IP",
              "name": "gracePeriod",
              "type": "tuple"
            },
            {
              "components": [
                {
                  "internalType": "uint256",
                  "name": "i",
                  "type": "uint256"
                },
                {
                  "internalType": "enum P",
                  "name": "p",
                  "type": "uint8"
                },
                {
                  "internalType": "bool",
                  "name": "isSet",
                  "type": "bool"
                }
              ],
              "internalType": "struct IP",
              "name": "delinquencyPeriod",
              "type": "tuple"
            },
            {
              "components": [
                {
                  "internalType": "uint256",
                  "name": "i",
                  "type": "uint256"
                },
                {
                  "internalType": "enum P",
                  "name": "p",
                  "type": "uint8"
                },
                {
                  "internalType": "enum S",
                  "name": "s",
                  "type": "uint8"
                },
                {
                  "internalType": "bool",
                  "name": "isSet",
                  "type": "bool"
                }
              ],
              "internalType": "struct IPS",
              "name": "cycleOfFee",
              "type": "tuple"
            },
            {
              "components": [
                {
                  "internalType": "bytes32",
                  "name": "object",
                  "type": "bytes32"
                },
                {
                  "internalType": "bytes32",
                  "name": "object2",
                  "type": "bytes32"
                },
                {
                  "internalType": "enum ContractReferenceType",
                  "name": "_type",
                  "type": "uint8"
                },
                {
                  "internalType": "enum ContractReferenceRole",
                  "name": "role",
                  "type": "uint8"
                }
              ],
              "internalType": "struct ContractReference",
              "name": "contractReference_1",
              "type": "tuple"
            },
            {
              "components": [
                {
                  "internalType": "bytes32",
                  "name": "object",
                  "type": "bytes32"
                },
                {
                  "internalType": "bytes32",
                  "name": "object2",
                  "type": "bytes32"
                },
                {
                  "internalType": "enum ContractReferenceType",
                  "name": "_type",
                  "type": "uint8"
                },
                {
                  "internalType": "enum ContractReferenceRole",
                  "name": "role",
                  "type": "uint8"
                }
              ],
              "internalType": "struct ContractReference",
              "name": "contractReference_2",
              "type": "tuple"
            }
          ],
          "internalType": "struct CEGTerms",
          "name": "terms",
          "type": "tuple"
        },
        {
          "internalType": "uint256",
          "name": "segmentStart",
          "type": "uint256"
        },
        {
          "internalType": "uint256",
          "name": "segmentEnd",
          "type": "uint256"
        }
      ],
      "name": "computeNonCyclicScheduleSegment",
      "outputs": [
        {
          "internalType": "bytes32[]",
          "name": "",
          "type": "bytes32[]"
        }
      ],
      "stateMutability": "pure",
      "type": "function"
    },
    {
      "inputs": [
        {
          "components": [
            {
              "internalType": "enum ContractType",
              "name": "contractType",
              "type": "uint8"
            },
            {
              "internalType": "enum Calendar",
              "name": "calendar",
              "type": "uint8"
            },
            {
              "internalType": "enum ContractRole",
              "name": "contractRole",
              "type": "uint8"
            },
            {
              "internalType": "enum DayCountConvention",
              "name": "dayCountConvention",
              "type": "uint8"
            },
            {
              "internalType": "enum BusinessDayConvention",
              "name": "businessDayConvention",
              "type": "uint8"
            },
            {
              "internalType": "enum EndOfMonthConvention",
              "name": "endOfMonthConvention",
              "type": "uint8"
            },
            {
              "internalType": "enum FeeBasis",
              "name": "feeBasis",
              "type": "uint8"
            },
            {
              "internalType": "enum ContractPerformance",
              "name": "creditEventTypeCovered",
              "type": "uint8"
            },
            {
              "internalType": "address",
              "name": "currency",
              "type": "address"
            },
            {
              "internalType": "address",
              "name": "settlementCurrency",
              "type": "address"
            },
            {
              "internalType": "uint256",
              "name": "contractDealDate",
              "type": "uint256"
            },
            {
              "internalType": "uint256",
              "name": "statusDate",
              "type": "uint256"
            },
            {
              "internalType": "uint256",
              "name": "maturityDate",
              "type": "uint256"
            },
            {
              "internalType": "uint256",
              "name": "purchaseDate",
              "type": "uint256"
            },
            {
              "internalType": "uint256",
              "name": "cycleAnchorDateOfFee",
              "type": "uint256"
            },
            {
              "internalType": "int256",
              "name": "notionalPrincipal",
              "type": "int256"
            },
            {
              "internalType": "int256",
              "name": "delinquencyRate",
              "type": "int256"
            },
            {
              "internalType": "int256",
              "name": "feeAccrued",
              "type": "int256"
            },
            {
              "internalType": "int256",
              "name": "feeRate",
              "type": "int256"
            },
            {
              "internalType": "int256",
              "name": "priceAtPurchaseDate",
              "type": "int256"
            },
            {
              "internalType": "int256",
              "name": "coverageOfCreditEnhancement",
              "type": "int256"
            },
            {
              "components": [
                {
                  "internalType": "uint256",
                  "name": "i",
                  "type": "uint256"
                },
                {
                  "internalType": "enum P",
                  "name": "p",
                  "type": "uint8"
                },
                {
                  "internalType": "bool",
                  "name": "isSet",
                  "type": "bool"
                }
              ],
              "internalType": "struct IP",
              "name": "gracePeriod",
              "type": "tuple"
            },
            {
              "components": [
                {
                  "internalType": "uint256",
                  "name": "i",
                  "type": "uint256"
                },
                {
                  "internalType": "enum P",
                  "name": "p",
                  "type": "uint8"
                },
                {
                  "internalType": "bool",
                  "name": "isSet",
                  "type": "bool"
                }
              ],
              "internalType": "struct IP",
              "name": "delinquencyPeriod",
              "type": "tuple"
            },
            {
              "components": [
                {
                  "internalType": "uint256",
                  "name": "i",
                  "type": "uint256"
                },
                {
                  "internalType": "enum P",
                  "name": "p",
                  "type": "uint8"
                },
                {
                  "internalType": "enum S",
                  "name": "s",
                  "type": "uint8"
                },
                {
                  "internalType": "bool",
                  "name": "isSet",
                  "type": "bool"
                }
              ],
              "internalType": "struct IPS",
              "name": "cycleOfFee",
              "type": "tuple"
            },
            {
              "components": [
                {
                  "internalType": "bytes32",
                  "name": "object",
                  "type": "bytes32"
                },
                {
                  "internalType": "bytes32",
                  "name": "object2",
                  "type": "bytes32"
                },
                {
                  "internalType": "enum ContractReferenceType",
                  "name": "_type",
                  "type": "uint8"
                },
                {
                  "internalType": "enum ContractReferenceRole",
                  "name": "role",
                  "type": "uint8"
                }
              ],
              "internalType": "struct ContractReference",
              "name": "contractReference_1",
              "type": "tuple"
            },
            {
              "components": [
                {
                  "internalType": "bytes32",
                  "name": "object",
                  "type": "bytes32"
                },
                {
                  "internalType": "bytes32",
                  "name": "object2",
                  "type": "bytes32"
                },
                {
                  "internalType": "enum ContractReferenceType",
                  "name": "_type",
                  "type": "uint8"
                },
                {
                  "internalType": "enum ContractReferenceRole",
                  "name": "role",
                  "type": "uint8"
                }
              ],
              "internalType": "struct ContractReference",
              "name": "contractReference_2",
              "type": "tuple"
            }
          ],
          "internalType": "struct CEGTerms",
          "name": "terms",
          "type": "tuple"
        },
        {
          "components": [
            {
              "internalType": "enum ContractPerformance",
              "name": "contractPerformance",
              "type": "uint8"
            },
            {
              "internalType": "uint256",
              "name": "statusDate",
              "type": "uint256"
            },
            {
              "internalType": "uint256",
              "name": "nonPerformingDate",
              "type": "uint256"
            },
            {
              "internalType": "uint256",
              "name": "maturityDate",
              "type": "uint256"
            },
            {
              "internalType": "uint256",
              "name": "exerciseDate",
              "type": "uint256"
            },
            {
              "internalType": "uint256",
              "name": "terminationDate",
              "type": "uint256"
            },
            {
              "internalType": "uint256",
              "name": "lastCouponFixingDate",
              "type": "uint256"
            },
            {
              "internalType": "uint256",
              "name": "lastDividendFixingDate",
              "type": "uint256"
            },
            {
              "internalType": "int256",
              "name": "notionalPrincipal",
              "type": "int256"
            },
            {
              "internalType": "int256",
              "name": "accruedInterest",
              "type": "int256"
            },
            {
              "internalType": "int256",
              "name": "feeAccrued",
              "type": "int256"
            },
            {
              "internalType": "int256",
              "name": "nominalInterestRate",
              "type": "int256"
            },
            {
              "internalType": "int256",
              "name": "interestScalingMultiplier",
              "type": "int256"
            },
            {
              "internalType": "int256",
              "name": "notionalScalingMultiplier",
              "type": "int256"
            },
            {
              "internalType": "int256",
              "name": "nextPrincipalRedemptionPayment",
              "type": "int256"
            },
            {
              "internalType": "int256",
              "name": "exerciseAmount",
              "type": "int256"
            },
            {
              "internalType": "int256",
              "name": "exerciseQuantity",
              "type": "int256"
            },
            {
              "internalType": "int256",
              "name": "quantity",
              "type": "int256"
            },
            {
              "internalType": "int256",
              "name": "couponAmountFixed",
              "type": "int256"
            },
            {
              "internalType": "int256",
              "name": "marginFactor",
              "type": "int256"
            },
            {
              "internalType": "int256",
              "name": "adjustmentFactor",
              "type": "int256"
            },
            {
              "internalType": "int256",
              "name": "dividendPaymentAmount",
              "type": "int256"
            },
            {
              "internalType": "int256",
              "name": "splitRatio",
              "type": "int256"
            }
          ],
          "internalType": "struct State",
          "name": "state",
          "type": "tuple"
        },
        {
          "internalType": "bytes32",
          "name": "_event",
          "type": "bytes32"
        },
        {
          "internalType": "bytes32",
          "name": "externalData",
          "type": "bytes32"
        }
      ],
      "name": "computePayoffForEvent",
      "outputs": [
        {
          "internalType": "int256",
          "name": "",
          "type": "int256"
        }
      ],
      "stateMutability": "pure",
      "type": "function"
    },
    {
      "inputs": [
        {
          "components": [
            {
              "internalType": "enum ContractType",
              "name": "contractType",
              "type": "uint8"
            },
            {
              "internalType": "enum Calendar",
              "name": "calendar",
              "type": "uint8"
            },
            {
              "internalType": "enum ContractRole",
              "name": "contractRole",
              "type": "uint8"
            },
            {
              "internalType": "enum DayCountConvention",
              "name": "dayCountConvention",
              "type": "uint8"
            },
            {
              "internalType": "enum BusinessDayConvention",
              "name": "businessDayConvention",
              "type": "uint8"
            },
            {
              "internalType": "enum EndOfMonthConvention",
              "name": "endOfMonthConvention",
              "type": "uint8"
            },
            {
              "internalType": "enum FeeBasis",
              "name": "feeBasis",
              "type": "uint8"
            },
            {
              "internalType": "enum ContractPerformance",
              "name": "creditEventTypeCovered",
              "type": "uint8"
            },
            {
              "internalType": "address",
              "name": "currency",
              "type": "address"
            },
            {
              "internalType": "address",
              "name": "settlementCurrency",
              "type": "address"
            },
            {
              "internalType": "uint256",
              "name": "contractDealDate",
              "type": "uint256"
            },
            {
              "internalType": "uint256",
              "name": "statusDate",
              "type": "uint256"
            },
            {
              "internalType": "uint256",
              "name": "maturityDate",
              "type": "uint256"
            },
            {
              "internalType": "uint256",
              "name": "purchaseDate",
              "type": "uint256"
            },
            {
              "internalType": "uint256",
              "name": "cycleAnchorDateOfFee",
              "type": "uint256"
            },
            {
              "internalType": "int256",
              "name": "notionalPrincipal",
              "type": "int256"
            },
            {
              "internalType": "int256",
              "name": "delinquencyRate",
              "type": "int256"
            },
            {
              "internalType": "int256",
              "name": "feeAccrued",
              "type": "int256"
            },
            {
              "internalType": "int256",
              "name": "feeRate",
              "type": "int256"
            },
            {
              "internalType": "int256",
              "name": "priceAtPurchaseDate",
              "type": "int256"
            },
            {
              "internalType": "int256",
              "name": "coverageOfCreditEnhancement",
              "type": "int256"
            },
            {
              "components": [
                {
                  "internalType": "uint256",
                  "name": "i",
                  "type": "uint256"
                },
                {
                  "internalType": "enum P",
                  "name": "p",
                  "type": "uint8"
                },
                {
                  "internalType": "bool",
                  "name": "isSet",
                  "type": "bool"
                }
              ],
              "internalType": "struct IP",
              "name": "gracePeriod",
              "type": "tuple"
            },
            {
              "components": [
                {
                  "internalType": "uint256",
                  "name": "i",
                  "type": "uint256"
                },
                {
                  "internalType": "enum P",
                  "name": "p",
                  "type": "uint8"
                },
                {
                  "internalType": "bool",
                  "name": "isSet",
                  "type": "bool"
                }
              ],
              "internalType": "struct IP",
              "name": "delinquencyPeriod",
              "type": "tuple"
            },
            {
              "components": [
                {
                  "internalType": "uint256",
                  "name": "i",
                  "type": "uint256"
                },
                {
                  "internalType": "enum P",
                  "name": "p",
                  "type": "uint8"
                },
                {
                  "internalType": "enum S",
                  "name": "s",
                  "type": "uint8"
                },
                {
                  "internalType": "bool",
                  "name": "isSet",
                  "type": "bool"
                }
              ],
              "internalType": "struct IPS",
              "name": "cycleOfFee",
              "type": "tuple"
            },
            {
              "components": [
                {
                  "internalType": "bytes32",
                  "name": "object",
                  "type": "bytes32"
                },
                {
                  "internalType": "bytes32",
                  "name": "object2",
                  "type": "bytes32"
                },
                {
                  "internalType": "enum ContractReferenceType",
                  "name": "_type",
                  "type": "uint8"
                },
                {
                  "internalType": "enum ContractReferenceRole",
                  "name": "role",
                  "type": "uint8"
                }
              ],
              "internalType": "struct ContractReference",
              "name": "contractReference_1",
              "type": "tuple"
            },
            {
              "components": [
                {
                  "internalType": "bytes32",
                  "name": "object",
                  "type": "bytes32"
                },
                {
                  "internalType": "bytes32",
                  "name": "object2",
                  "type": "bytes32"
                },
                {
                  "internalType": "enum ContractReferenceType",
                  "name": "_type",
                  "type": "uint8"
                },
                {
                  "internalType": "enum ContractReferenceRole",
                  "name": "role",
                  "type": "uint8"
                }
              ],
              "internalType": "struct ContractReference",
              "name": "contractReference_2",
              "type": "tuple"
            }
          ],
          "internalType": "struct CEGTerms",
          "name": "terms",
          "type": "tuple"
        },
        {
          "components": [
            {
              "internalType": "enum ContractPerformance",
              "name": "contractPerformance",
              "type": "uint8"
            },
            {
              "internalType": "uint256",
              "name": "statusDate",
              "type": "uint256"
            },
            {
              "internalType": "uint256",
              "name": "nonPerformingDate",
              "type": "uint256"
            },
            {
              "internalType": "uint256",
              "name": "maturityDate",
              "type": "uint256"
            },
            {
              "internalType": "uint256",
              "name": "exerciseDate",
              "type": "uint256"
            },
            {
              "internalType": "uint256",
              "name": "terminationDate",
              "type": "uint256"
            },
            {
              "internalType": "uint256",
              "name": "lastCouponFixingDate",
              "type": "uint256"
            },
            {
              "internalType": "uint256",
              "name": "lastDividendFixingDate",
              "type": "uint256"
            },
            {
              "internalType": "int256",
              "name": "notionalPrincipal",
              "type": "int256"
            },
            {
              "internalType": "int256",
              "name": "accruedInterest",
              "type": "int256"
            },
            {
              "internalType": "int256",
              "name": "feeAccrued",
              "type": "int256"
            },
            {
              "internalType": "int256",
              "name": "nominalInterestRate",
              "type": "int256"
            },
            {
              "internalType": "int256",
              "name": "interestScalingMultiplier",
              "type": "int256"
            },
            {
              "internalType": "int256",
              "name": "notionalScalingMultiplier",
              "type": "int256"
            },
            {
              "internalType": "int256",
              "name": "nextPrincipalRedemptionPayment",
              "type": "int256"
            },
            {
              "internalType": "int256",
              "name": "exerciseAmount",
              "type": "int256"
            },
            {
              "internalType": "int256",
              "name": "exerciseQuantity",
              "type": "int256"
            },
            {
              "internalType": "int256",
              "name": "quantity",
              "type": "int256"
            },
            {
              "internalType": "int256",
              "name": "couponAmountFixed",
              "type": "int256"
            },
            {
              "internalType": "int256",
              "name": "marginFactor",
              "type": "int256"
            },
            {
              "internalType": "int256",
              "name": "adjustmentFactor",
              "type": "int256"
            },
            {
              "internalType": "int256",
              "name": "dividendPaymentAmount",
              "type": "int256"
            },
            {
              "internalType": "int256",
              "name": "splitRatio",
              "type": "int256"
            }
          ],
          "internalType": "struct State",
          "name": "state",
          "type": "tuple"
        },
        {
          "internalType": "bytes32",
          "name": "_event",
          "type": "bytes32"
        },
        {
          "internalType": "bytes32",
          "name": "externalData",
          "type": "bytes32"
        }
      ],
      "name": "computeStateForEvent",
      "outputs": [
        {
          "components": [
            {
              "internalType": "enum ContractPerformance",
              "name": "contractPerformance",
              "type": "uint8"
            },
            {
              "internalType": "uint256",
              "name": "statusDate",
              "type": "uint256"
            },
            {
              "internalType": "uint256",
              "name": "nonPerformingDate",
              "type": "uint256"
            },
            {
              "internalType": "uint256",
              "name": "maturityDate",
              "type": "uint256"
            },
            {
              "internalType": "uint256",
              "name": "exerciseDate",
              "type": "uint256"
            },
            {
              "internalType": "uint256",
              "name": "terminationDate",
              "type": "uint256"
            },
            {
              "internalType": "uint256",
              "name": "lastCouponFixingDate",
              "type": "uint256"
            },
            {
              "internalType": "uint256",
              "name": "lastDividendFixingDate",
              "type": "uint256"
            },
            {
              "internalType": "int256",
              "name": "notionalPrincipal",
              "type": "int256"
            },
            {
              "internalType": "int256",
              "name": "accruedInterest",
              "type": "int256"
            },
            {
              "internalType": "int256",
              "name": "feeAccrued",
              "type": "int256"
            },
            {
              "internalType": "int256",
              "name": "nominalInterestRate",
              "type": "int256"
            },
            {
              "internalType": "int256",
              "name": "interestScalingMultiplier",
              "type": "int256"
            },
            {
              "internalType": "int256",
              "name": "notionalScalingMultiplier",
              "type": "int256"
            },
            {
              "internalType": "int256",
              "name": "nextPrincipalRedemptionPayment",
              "type": "int256"
            },
            {
              "internalType": "int256",
              "name": "exerciseAmount",
              "type": "int256"
            },
            {
              "internalType": "int256",
              "name": "exerciseQuantity",
              "type": "int256"
            },
            {
              "internalType": "int256",
              "name": "quantity",
              "type": "int256"
            },
            {
              "internalType": "int256",
              "name": "couponAmountFixed",
              "type": "int256"
            },
            {
              "internalType": "int256",
              "name": "marginFactor",
              "type": "int256"
            },
            {
              "internalType": "int256",
              "name": "adjustmentFactor",
              "type": "int256"
            },
            {
              "internalType": "int256",
              "name": "dividendPaymentAmount",
              "type": "int256"
            },
            {
              "internalType": "int256",
              "name": "splitRatio",
              "type": "int256"
            }
          ],
          "internalType": "struct State",
          "name": "",
          "type": "tuple"
        }
      ],
      "stateMutability": "pure",
      "type": "function"
    },
    {
      "inputs": [],
      "name": "contractType",
      "outputs": [
        {
          "internalType": "enum ContractType",
          "name": "",
          "type": "uint8"
        }
      ],
      "stateMutability": "pure",
      "type": "function"
    },
    {
      "inputs": [
        {
          "internalType": "bytes32",
          "name": "_event",
          "type": "bytes32"
        },
        {
          "components": [
            {
              "internalType": "enum ContractType",
              "name": "contractType",
              "type": "uint8"
            },
            {
              "internalType": "enum Calendar",
              "name": "calendar",
              "type": "uint8"
            },
            {
              "internalType": "enum ContractRole",
              "name": "contractRole",
              "type": "uint8"
            },
            {
              "internalType": "enum DayCountConvention",
              "name": "dayCountConvention",
              "type": "uint8"
            },
            {
              "internalType": "enum BusinessDayConvention",
              "name": "businessDayConvention",
              "type": "uint8"
            },
            {
              "internalType": "enum EndOfMonthConvention",
              "name": "endOfMonthConvention",
              "type": "uint8"
            },
            {
              "internalType": "enum FeeBasis",
              "name": "feeBasis",
              "type": "uint8"
            },
            {
              "internalType": "enum ContractPerformance",
              "name": "creditEventTypeCovered",
              "type": "uint8"
            },
            {
              "internalType": "address",
              "name": "currency",
              "type": "address"
            },
            {
              "internalType": "address",
              "name": "settlementCurrency",
              "type": "address"
            },
            {
              "internalType": "uint256",
              "name": "contractDealDate",
              "type": "uint256"
            },
            {
              "internalType": "uint256",
              "name": "statusDate",
              "type": "uint256"
            },
            {
              "internalType": "uint256",
              "name": "maturityDate",
              "type": "uint256"
            },
            {
              "internalType": "uint256",
              "name": "purchaseDate",
              "type": "uint256"
            },
            {
              "internalType": "uint256",
              "name": "cycleAnchorDateOfFee",
              "type": "uint256"
            },
            {
              "internalType": "int256",
              "name": "notionalPrincipal",
              "type": "int256"
            },
            {
              "internalType": "int256",
              "name": "delinquencyRate",
              "type": "int256"
            },
            {
              "internalType": "int256",
              "name": "feeAccrued",
              "type": "int256"
            },
            {
              "internalType": "int256",
              "name": "feeRate",
              "type": "int256"
            },
            {
              "internalType": "int256",
              "name": "priceAtPurchaseDate",
              "type": "int256"
            },
            {
              "internalType": "int256",
              "name": "coverageOfCreditEnhancement",
              "type": "int256"
            },
            {
              "components": [
                {
                  "internalType": "uint256",
                  "name": "i",
                  "type": "uint256"
                },
                {
                  "internalType": "enum P",
                  "name": "p",
                  "type": "uint8"
                },
                {
                  "internalType": "bool",
                  "name": "isSet",
                  "type": "bool"
                }
              ],
              "internalType": "struct IP",
              "name": "gracePeriod",
              "type": "tuple"
            },
            {
              "components": [
                {
                  "internalType": "uint256",
                  "name": "i",
                  "type": "uint256"
                },
                {
                  "internalType": "enum P",
                  "name": "p",
                  "type": "uint8"
                },
                {
                  "internalType": "bool",
                  "name": "isSet",
                  "type": "bool"
                }
              ],
              "internalType": "struct IP",
              "name": "delinquencyPeriod",
              "type": "tuple"
            },
            {
              "components": [
                {
                  "internalType": "uint256",
                  "name": "i",
                  "type": "uint256"
                },
                {
                  "internalType": "enum P",
                  "name": "p",
                  "type": "uint8"
                },
                {
                  "internalType": "enum S",
                  "name": "s",
                  "type": "uint8"
                },
                {
                  "internalType": "bool",
                  "name": "isSet",
                  "type": "bool"
                }
              ],
              "internalType": "struct IPS",
              "name": "cycleOfFee",
              "type": "tuple"
            },
            {
              "components": [
                {
                  "internalType": "bytes32",
                  "name": "object",
                  "type": "bytes32"
                },
                {
                  "internalType": "bytes32",
                  "name": "object2",
                  "type": "bytes32"
                },
                {
                  "internalType": "enum ContractReferenceType",
                  "name": "_type",
                  "type": "uint8"
                },
                {
                  "internalType": "enum ContractReferenceRole",
                  "name": "role",
                  "type": "uint8"
                }
              ],
              "internalType": "struct ContractReference",
              "name": "contractReference_1",
              "type": "tuple"
            },
            {
              "components": [
                {
                  "internalType": "bytes32",
                  "name": "object",
                  "type": "bytes32"
                },
                {
                  "internalType": "bytes32",
                  "name": "object2",
                  "type": "bytes32"
                },
                {
                  "internalType": "enum ContractReferenceType",
                  "name": "_type",
                  "type": "uint8"
                },
                {
                  "internalType": "enum ContractReferenceRole",
                  "name": "role",
                  "type": "uint8"
                }
              ],
              "internalType": "struct ContractReference",
              "name": "contractReference_2",
              "type": "tuple"
            }
          ],
          "internalType": "struct CEGTerms",
          "name": "",
          "type": "tuple"
        },
        {
          "components": [
            {
              "internalType": "enum ContractPerformance",
              "name": "contractPerformance",
              "type": "uint8"
            },
            {
              "internalType": "uint256",
              "name": "statusDate",
              "type": "uint256"
            },
            {
              "internalType": "uint256",
              "name": "nonPerformingDate",
              "type": "uint256"
            },
            {
              "internalType": "uint256",
              "name": "maturityDate",
              "type": "uint256"
            },
            {
              "internalType": "uint256",
              "name": "exerciseDate",
              "type": "uint256"
            },
            {
              "internalType": "uint256",
              "name": "terminationDate",
              "type": "uint256"
            },
            {
              "internalType": "uint256",
              "name": "lastCouponFixingDate",
              "type": "uint256"
            },
            {
              "internalType": "uint256",
              "name": "lastDividendFixingDate",
              "type": "uint256"
            },
            {
              "internalType": "int256",
              "name": "notionalPrincipal",
              "type": "int256"
            },
            {
              "internalType": "int256",
              "name": "accruedInterest",
              "type": "int256"
            },
            {
              "internalType": "int256",
              "name": "feeAccrued",
              "type": "int256"
            },
            {
              "internalType": "int256",
              "name": "nominalInterestRate",
              "type": "int256"
            },
            {
              "internalType": "int256",
              "name": "interestScalingMultiplier",
              "type": "int256"
            },
            {
              "internalType": "int256",
              "name": "notionalScalingMultiplier",
              "type": "int256"
            },
            {
              "internalType": "int256",
              "name": "nextPrincipalRedemptionPayment",
              "type": "int256"
            },
            {
              "internalType": "int256",
              "name": "exerciseAmount",
              "type": "int256"
            },
            {
              "internalType": "int256",
              "name": "exerciseQuantity",
              "type": "int256"
            },
            {
              "internalType": "int256",
              "name": "quantity",
              "type": "int256"
            },
            {
              "internalType": "int256",
              "name": "couponAmountFixed",
              "type": "int256"
            },
            {
              "internalType": "int256",
              "name": "marginFactor",
              "type": "int256"
            },
            {
              "internalType": "int256",
              "name": "adjustmentFactor",
              "type": "int256"
            },
            {
              "internalType": "int256",
              "name": "dividendPaymentAmount",
              "type": "int256"
            },
            {
              "internalType": "int256",
              "name": "splitRatio",
              "type": "int256"
            }
          ],
          "internalType": "struct State",
          "name": "",
          "type": "tuple"
        },
        {
          "internalType": "bool",
          "name": "hasUnderlying",
          "type": "bool"
        },
        {
          "components": [
            {
              "internalType": "enum ContractPerformance",
              "name": "contractPerformance",
              "type": "uint8"
            },
            {
              "internalType": "uint256",
              "name": "statusDate",
              "type": "uint256"
            },
            {
              "internalType": "uint256",
              "name": "nonPerformingDate",
              "type": "uint256"
            },
            {
              "internalType": "uint256",
              "name": "maturityDate",
              "type": "uint256"
            },
            {
              "internalType": "uint256",
              "name": "exerciseDate",
              "type": "uint256"
            },
            {
              "internalType": "uint256",
              "name": "terminationDate",
              "type": "uint256"
            },
            {
              "internalType": "uint256",
              "name": "lastCouponFixingDate",
              "type": "uint256"
            },
            {
              "internalType": "uint256",
              "name": "lastDividendFixingDate",
              "type": "uint256"
            },
            {
              "internalType": "int256",
              "name": "notionalPrincipal",
              "type": "int256"
            },
            {
              "internalType": "int256",
              "name": "accruedInterest",
              "type": "int256"
            },
            {
              "internalType": "int256",
              "name": "feeAccrued",
              "type": "int256"
            },
            {
              "internalType": "int256",
              "name": "nominalInterestRate",
              "type": "int256"
            },
            {
              "internalType": "int256",
              "name": "interestScalingMultiplier",
              "type": "int256"
            },
            {
              "internalType": "int256",
              "name": "notionalScalingMultiplier",
              "type": "int256"
            },
            {
              "internalType": "int256",
              "name": "nextPrincipalRedemptionPayment",
              "type": "int256"
            },
            {
              "internalType": "int256",
              "name": "exerciseAmount",
              "type": "int256"
            },
            {
              "internalType": "int256",
              "name": "exerciseQuantity",
              "type": "int256"
            },
            {
              "internalType": "int256",
              "name": "quantity",
              "type": "int256"
            },
            {
              "internalType": "int256",
              "name": "couponAmountFixed",
              "type": "int256"
            },
            {
              "internalType": "int256",
              "name": "marginFactor",
              "type": "int256"
            },
            {
              "internalType": "int256",
              "name": "adjustmentFactor",
              "type": "int256"
            },
            {
              "internalType": "int256",
              "name": "dividendPaymentAmount",
              "type": "int256"
            },
            {
              "internalType": "int256",
              "name": "splitRatio",
              "type": "int256"
            }
          ],
          "internalType": "struct State",
          "name": "underlyingState",
          "type": "tuple"
        }
      ],
      "name": "isEventScheduled",
      "outputs": [
        {
          "internalType": "bool",
          "name": "",
          "type": "bool"
        }
      ],
      "stateMutability": "pure",
      "type": "function"
    },
    {
      "inputs": [
        {
          "internalType": "uint256",
          "name": "timestamp",
          "type": "uint256"
        },
        {
          "internalType": "enum BusinessDayConvention",
          "name": "convention",
          "type": "uint8"
        },
        {
          "internalType": "enum Calendar",
          "name": "calendar",
          "type": "uint8"
        },
        {
          "internalType": "uint256",
          "name": "maturityDate",
          "type": "uint256"
        }
      ],
      "name": "shiftCalcTime",
      "outputs": [
        {
          "internalType": "uint256",
          "name": "",
          "type": "uint256"
        }
      ],
      "stateMutability": "pure",
      "type": "function"
    },
    {
      "inputs": [
        {
          "internalType": "uint256",
          "name": "timestamp",
          "type": "uint256"
        },
        {
          "internalType": "enum BusinessDayConvention",
          "name": "convention",
          "type": "uint8"
        },
        {
          "internalType": "enum Calendar",
          "name": "calendar",
          "type": "uint8"
        },
        {
          "internalType": "uint256",
          "name": "maturityDate",
          "type": "uint256"
        }
      ],
      "name": "shiftEventTime",
      "outputs": [
        {
          "internalType": "uint256",
          "name": "",
          "type": "uint256"
        }
      ],
      "stateMutability": "pure",
      "type": "function"
    }
  ],
  "transactionHash": "0xe3ac3583efe7ca101fb86ddd6da4e7d8727e33f614fa2600a80b89494a01104a",
  "args": [],
  "solcInputHash": "0xdbde777ab8a0d36e06492bc7e4c1e26bd51447aee10a11b12030385226e1f02f",
  "bytecode": "0x608060405234801561001057600080fd5b506132a2806100206000396000f3fe608060405234801561001057600080fd5b506004361061010b5760003560e01c8063b9fb1d61116100a2578063de4d3fa111610071578063de4d3fa114610212578063e726d68014610225578063ecf0736614610238578063edc0465f146101e2578063f5586e05146102585761010b565b8063b9fb1d61146101cf578063c40c5a98146101e2578063cb2ef6f7146101ea578063dad412b5146101ff5761010b565b80636f37e55b116100de5780636f37e55b146101995780639d2f2e54146101a1578063aaf5eb68146101b4578063b90f7368146101bc5761010b565b80630ba295ba14610110578063179331f3146101395780631a2e165d1461015957806367b5811714610179575b600080fd5b61012361011e366004612923565b61026b565b6040516101309190612c6d565b60405180910390f35b61014c6101473660046127ea565b6103fe565b6040516101309190612cd9565b61016c61016736600461270b565b6104ce565b6040516101309190612cbc565b61018c610187366004612828565b6104f3565b6040516101309190612eee565b61016c61055e565b61016c6101af366004612870565b61056a565b61016c610639565b61016c6101ca3660046128b7565b61063e565b61016c6101dd366004612844565b6106c9565b61016c6107c9565b6101f26107ce565b6040516101309190612cc5565b61012361020d3660046128ed565b6107d3565b61018c610220366004612870565b6108ff565b61016c610233366004612c4a565b61092f565b61024b610246366004612750565b610a7b565b6040516101309190612cb1565b61016c610266366004612c4a565b610ae2565b6060610275612435565b6000600584602181111561028557fe5b141561036f576101c08701351561036f5761029e612435565b6102d96101c08901356101808a01356102c0368c90038c016103608d01612b12565b6102d060c08d0160a08e016127ce565b60018c8c610b4d565b905060005b60788160ff16101561036c57818160ff16607881106102f957fe5b60200201516103075761036c565b610325828260ff166078811061031957fe5b60200201518989610d37565b61032e57610364565b61034c6005838360ff166078811061034257fe5b6020020151610d66565b84846078811061035857fe5b60200201526001909201915b6001016102de565b50505b60608167ffffffffffffffff8111801561038857600080fd5b506040519080825280602002602001820160405280156103b2578160200160208202803683370190505b50905060005b828110156103f0578381607881106103cc57fe5b60200201518282815181106103dd57fe5b60209081029190910101526001016103b8565b50925050505b949350505050565b6000600184600181111561040e57fe5b141561048a5761041d83610d84565b61042684610da6565b148015610475575060028260200151600581111561044057fe5b148061045b575060038260200151600581111561045957fe5b145b80610475575060048260200151600581111561047357fe5b145b15610482575060016104c7565b5060006104c7565b600084600181111561049857fe5b14156104a6575060006104c7565b60405162461bcd60e51b81526004016104be90612e2d565b60405180910390fd5b9392505050565b6000806104da86610db5565b9150506104e98186868661092f565b9695505050505050565b6104fb612454565b610503612454565b6000815261016083013560208201526101808301356060808301919091526101e0840135906105409061053b908601604087016127b4565b610dde565b60000b0261010082015261022083013561014082015290505b919050565b670de0b6b3a764000081565b60008061057f610140870161012088016126f1565b6001600160a01b0316141580156105ca57506105a3610140860161012087016126f1565b6001600160a01b03166105be610120870161010088016126f1565b6001600160a01b031614155b1561060857610601826105fb6105e53689900389018961296d565b6105f436899003890189612b2d565b8787610ec1565b90610f92565b90506103f6565b61063061061a3687900387018761296d565b61062936879003870187612b2d565b8585610ec1565b95945050505050565b601281565b6000600582602181111561064e57fe5b14156106bf576101c0840135156106bf57600061069b6106773687900387016103608801612b12565b61068760c0880160a089016127ce565b876101c001358760018a610180013561108d565b9050806106ac5750600090506104c7565b6106b7600582610d66565b9150506104c7565b5060009392505050565b60008060006106d784610db5565b91509150600080866101a001356000141580156106f95750866101a001358311155b80156107115750801580610711575080876101a00135105b80156107385750866101a00135831415806107385750600484602181111561073557fe5b14155b156107495750600490506101a08601355b6101808701351580159061076257508661018001358311155b801561077a575080158061077a575080876101800135105b80156107a15750866101800135831415806107a15750602084602181111561079e57fe5b14155b156107b25750602090506101808601355b6107bc8282610d66565b9450505050505b92915050565b607881565b601090565b60606107dd612435565b60006101a086013515610828576107fa866101a001358686610d37565b156108285761080f6004876101a00135610d66565b828261ffff166078811061081f57fe5b60200201526001015b6108388661018001358686610d37565b15156001141561086b576108526020876101800135610d66565b828261ffff166078811061086257fe5b60200201526001015b60608161ffff1667ffffffffffffffff8111801561088857600080fd5b506040519080825280602002602001820160405280156108b2578160200160208202803683370190505b50905060005b8261ffff168110156108f4578381607881106108d057fe5b60200201518282815181106108e157fe5b60209081029190910101526001016108b8565b509695505050505050565b610907612454565b6106306109193687900387018761296d565b61092836879003870187612b2d565b8585611147565b6000818514156109405750836103f6565b600184600881111561094e57fe5b14806109655750600384600881111561096357fe5b145b15610974576106018584611218565b600284600881111561098257fe5b14806109995750600484600881111561099757fe5b145b156109dd5760006109aa8685611218565b90506109b586611274565b6109be82611274565b14156109cb5790506103f6565b6109d5868561128b565b9150506103f6565b60058460088111156109eb57fe5b1480610a0257506007846008811115610a0057fe5b145b15610a1157610601858461128b565b6006846008811115610a1f57fe5b1480610a3657506008846008811115610a3457fe5b145b15610a72576000610a47868561128b565b9050610a5286611274565b610a5b82611274565b1415610a685790506103f6565b6109d58685611218565b50929392505050565b600080610a8787610db5565b5090508315610ad5576005816021811115610a9e57fe5b1480610ab557506020816021811115610ab357fe5b145b8015610ac657506000836101e00135135b15610ad5576000915050610630565b5060019695505050505050565b60006003846008811115610af257fe5b1480610b0957506004846008811115610b0757fe5b145b80610b1f57506007846008811115610b1d57fe5b145b80610b3557506008846008811115610b3357fe5b145b15610b415750836103f6565b6106308585858561092f565b610b55612435565b610b5d612435565b6060870151600090610bc557610b748a8686610d37565b15610b8f5789828260788110610b8657fe5b60200201526001015b610b9a898686610d37565b15610bbd5760018615151415610bbd5788828260788110610bb757fe5b60200201525b509050610d2c565b89600080610bd48a848d6103fe565b90505b8b831015610c6957610bea838989610d37565b15610c285760768410610c0f5760405162461bcd60e51b81526004016104be90612ce7565b82858560788110610c1c57fe5b60200201526001909301925b600191820191816001811115610c3a57fe5b14610c4f57610c4a8b8e846112d9565b610c62565b610c62610c5d8c8f856112d9565b611413565b9250610bd7565b60018915151415610c9757610c7f8c8989610d37565b15610c97578b858560788110610c9157fe5b60200201525b600084118015610cb45750610cb485600186036078811061031957fe5b15610d245760008b604001516001811115610ccb57fe5b148015610cd85750600184115b8015610ce45750828c14155b15610d2457848460788110610cf557fe5b6020020151856001860360788110610d0957fe5b6020020152848460788110610d1a57fe5b6020020160008152505b509293505050505b979650505050505050565b600081831115610d49575060006104c7565b838311158015610d595750818411155b156106bf575060016104c7565b60008160f8846021811115610d7757fe5b60ff16901b179392505050565b60008080610d9762015180855b04611442565b50915091506103f682826114d8565b60006103f66201518083610d91565b6000808060f884901c6021811115610dc957fe5b92505067ffffffffffffffff83169050915091565b60008082600c811115610ded57fe5b1415610dfb57506001610559565b600182600c811115610e0957fe5b1415610e185750600019610559565b600682600c811115610e2657fe5b1415610e3457506001610559565b600782600c811115610e4257fe5b1415610e515750600019610559565b600282600c811115610e5f57fe5b1415610e6d57506001610559565b600382600c811115610e7b57fe5b1415610e8a5750600019610559565b60405162461bcd60e51b81526004018080602001828103825260348152602001806130cb6034913960400191505060405180910390fd5b6000806000610ecf85610db5565b90925090506001826021811115610ee257fe5b1415610ef3576000925050506103f6565b6005826021811115610f0157fe5b1415610f1c57610f138787838761155e565b925050506103f6565b6019826021811115610f2a57fe5b1415610f3b576000925050506103f6565b601a826021811115610f4957fe5b1415610f5b57610f1387878387611612565b6020826021811115610f6957fe5b1415610f7a576000925050506103f6565b60405162461bcd60e51b81526004016104be90612d83565b6000821580610f9f575081155b15610fac575060006107c3565b82600019148015610fc05750600160ff1b82145b15610ffc5760405162461bcd60e51b81526004018080602001828103825260278152602001806130ff6027913960400191505060405180910390fd5b8282028284828161100957fe5b05146110465760405162461bcd60e51b81526004018080602001828103825260278152602001806130ff6027913960400191505060405180910390fd5b670de0b6b3a76400008105806103f65760405162461bcd60e51b81526004018080602001828103825260328152602001806130786032913960400191505060405180910390fd5b6060860151600090158061109f575083155b156110ab5750836104e9565b600060016110ba88888b6103fe565b60018111156110c557fe5b146110db576110d6888660016112d9565b6110ea565b6110ea610c5d898760016112d9565b90508380156110f857508215155b15611120578285141561110f5760009150506104e9565b8281111561112057829150506104e9565b8315801561112d57508215155b801561113857508281145b15610d2c5760009150506104e9565b61114f612454565b60008061115b85610db5565b9092509050600582602181111561116e57fe5b141561118057610f1387878387611631565b601982602181111561118e57fe5b14156111a057610f138787838761164d565b601a8260218111156111ae57fe5b14156111c057610f138787838761170d565b60208260218111156111ce57fe5b14156111e057610f1387878387611745565b60018260218111156111ee57fe5b141561120057610f138787838761175d565b60405162461bcd60e51b81526004016104be90612e98565b6000600182600181111561122857fe5b141561126d5761123783611848565b600614156112515761124a83600261185b565b90506107c3565b61125a83611848565b6007141561126d5761124a83600161185b565b5090919050565b60006112836201518083610d91565b509392505050565b6000600182600181111561129b57fe5b141561126d576112aa83611848565b600614156112bd5761124a836001611870565b6112c683611848565b6007141561126d5761124a836002611870565b60008080856020015160058111156112ed57fe5b141561130a578451610601906113039085611885565b859061185b565b60018560200151600581111561131c57fe5b141561133f57845161060190611303908590611339906007611885565b90611885565b60028560200151600581111561135157fe5b141561136e578451610601906113679085611885565b85906118de565b60038560200151600581111561138057fe5b141561139d57845161060190611367908590611339906003611885565b6004856020015160058111156113af57fe5b14156113cc57845161060190611367908590611339906006611885565b6005856020015160058111156113de57fe5b14156113fb578451610601906113f49085611885565b8590611958565b60405162461bcd60e51b81526004016104be90612d35565b6000806000806114228561197f565b91945092509050600061143584846114d8565b90506104e984848361199d565b60008080836226496581018262023ab1600483020590506004600362023ab18302010590910390600062164b09610fa0600185010205905060046105b58202058303601f019250600061098f846050028161149957fe5b0590506000605061098f83020585039050600b820560301994909401606402929092018301996002600c90940290910392909201975095509350505050565b600081600114806114e95750816003145b806114f45750816005145b806114ff5750816007145b8061150a5750816008145b80611515575081600a145b80611520575081600c145b1561152d5750601f6107c3565b8160021461153d5750601e6107c3565b611546836119b7565b61155157601c611554565b601d5b60ff169392505050565b6000808560c00151600181111561157157fe5b14156115955784610240015161158a8660400151610dde565b60000b0290506103f6565b60006115e06115b78660200151886080015189602001518a6101800151610ae2565b6115d08689608001518a602001518b6101800151610ae2565b88606001518961018001516119dc565b90506104e96116068661010001516105fb89610240015185610f9290919063ffffffff16565b61014087015190611b36565b6000610630846101400151856101e00151611b3690919063ffffffff16565b611639612454565b505060006101408301526020820152919050565b611655612454565b60006116776115b78660200151886080015189602001518a6101800151610ae2565b602086018590526102808701519091506116919084610f92565b6101e08601526080850184905260008660c0015160018111156116b057fe5b14156116d8578561024001516116c98760400151610dde565b60000b02610140860152611703565b6116fc6116068661010001516105fb89610240015185610f9290919063ffffffff16565b6101408601525b5092949350505050565b611715612454565b600061010085018190526101408501528360045b9081600581111561173657fe5b90525050506020820152919050565b61174d612454565b6000610100850152836004611729565b611765612454565b6000846040015160001461177d578460400151611796565b611796848760800151886020015189610180015161092f565b6102a0870151604001519091508390600090156117d15760006117be896102a0015185611b9b565b90508083116117cf57600180895291505b505b876102c001516040015180156117e5575080155b156118145760006117fb896102c0015185611b9b565b905080831161180d5760028852611812565b600388525b505b604087015161183c576118368689608001518a602001518b610180015161092f565b60408801525b50949695505050505050565b6007620151809091046003010660010190565b6201518081028201828110156107c357600080fd5b6201518081028203828111156107c357600080fd5b600082611894575060006107c3565b828202828482816118a157fe5b04146104c75760405162461bcd60e51b81526004018080602001828103825260218152602001806131b76021913960400191505060405180910390fd5b60008080806118f06201518087610d91565b600c91880160001981018381049490940196509450925090066001019150600061191a84846114d8565b905080821115611928578091505b6201518087066201518061193d868686611cb4565b020194508685101561194e57600080fd5b5050505092915050565b600080808061196a6201518087610d91565b918701945092509050600061191a84846114d8565b600080806119906201518085610d91565b9196909550909350915050565b6000620151806119ae858585611cb4565b02949350505050565b6000600482061580156119cc57506064820615155b806107c357505061019090061590565b600084841015611a1d5760405162461bcd60e51b81526004018080602001828103825260278152602001806131906027913960400191505060405180910390fd5b6000836005811115611a2b57fe5b1415611a3b576106018585611d30565b6001836005811115611a4957fe5b1415611a59576106018585611e2c565b6002836005811115611a6757fe5b1415611a77576106018585611e4b565b6004836005811115611a8557fe5b1415611a95576106018585611e64565b6003836005811115611aa357fe5b1415611ab457610601858584611f07565b6005836005811115611ac257fe5b1415611aff5760405162461bcd60e51b81526004018080602001828103825260398152602001806131266039913960400191505060405180910390fd5b60405162461bcd60e51b81526004018080602001828103825260358152602001806130436035913960400191505060405180910390fd5b6000828201818312801590611b4b5750838112155b80611b605750600083128015611b6057508381125b6104c75760405162461bcd60e51b81526004018080602001828103825260218152602001806130aa6021913960400191505060405180910390fd5b6000808084602001516005811115611baf57fe5b1415611bc9578351611bc290849061185b565b90506104c7565b600184602001516005811115611bdb57fe5b1415611bf9578351611bc290611bf2906007611885565b849061185b565b600284602001516005811115611c0b57fe5b1415611c1e578351611bc29084906118de565b600384602001516005811115611c3057fe5b1415611c4e578351611bc290611c47906003611885565b84906118de565b600484602001516005811115611c6057fe5b1415611c77578351611bc290611c47906006611885565b600584602001516005811115611c8957fe5b1415611c9c578351611bc2908490611958565b60405162461bcd60e51b81526004016104be90612dd0565b60006107b2841015611cc557600080fd5b838383600062253d8c600460036064611324600c600d19890105890101050205600c80600d19870105600c02600287030361016f0281611d0157fe5b0560046105b5600c600d1989010589016112c0010205617d4b8603010103039050809450505050509392505050565b600080611d3c84611fc5565b90506000611d4984611fc5565b90506000611d5686611fdd565b611d625761016d611d66565b61016e5b61ffff16905081831415611d9257611d8881611d828888611ffa565b90612015565b93505050506107c3565b6000611d9d86611fdd565b611da95761016d611dad565b61016e5b61ffff1690506000611dd883611d828a611dd3611dcb8a600161214d565b60018061199d565b611ffa565b90506000611df583611d82611def8860018061199d565b8b611ffa565b9050611e1f611e0f6001611e09888a6121a7565b906121a7565b611e198484611b36565b90611b36565b9998505050505050505050565b60006104c7610168611d8262015180611e4586886121a7565b906121e9565b60006104c761016d611d8262015180611e4586886121a7565b6000806000806000806000611e788961197f565b975095509350611e878861197f565b945092509050601f861415611e9b57601e95505b82601f1415611ea957601e92505b6000611eb5848861222b565b90506000611ec3848861222b565b90506000611ed1848861222b565b9050611ef7610168611d8285611e19611eeb87601e612290565b611e1987610168612290565b9c9b505050505050505050505050565b6000806000806000806000611f1b8a61197f565b975095509350611f2a8961197f565b945092509050611f398a610d84565b861415611f4557601e95505b8789148015611f545750816002145b158015611f685750611f6589610d84565b83145b15611f7257601e92505b6000611f7e848861222b565b90506000611f8c848861222b565b90506000611f9a848861222b565b9050611fb4610168611d8285611e19611eeb87601e612290565b9d9c50505050505050505050505050565b6000611fd46201518083610d91565b50909392505050565b600080611fed6201518084610d91565b505090506104c7816119b7565b60008183111561200957600080fd5b50620151809190030490565b6000816120535760405162461bcd60e51b81526004018080602001828103825260248152602001806132496024913960400191505060405180910390fd5b82612060575060006107c3565b670de0b6b3a76400008381029084828161207657fe5b05146120b35760405162461bcd60e51b81526004018080602001828103825260268152602001806131ff6026913960400191505060405180910390fd5b826000191480156120c75750600160ff1b84145b156121035760405162461bcd60e51b81526004018080602001828103825260268152602001806131ff6026913960400191505060405180910390fd5b600083828161210e57fe5b059050806103f65760405162461bcd60e51b815260040180806020018281038252603181526020018061315f6031913960400191505060405180910390fd5b6000828201838110156104c7576040805162461bcd60e51b815260206004820152601b60248201527f536166654d6174683a206164646974696f6e206f766572666c6f770000000000604482015290519081900360640190fd5b60006104c783836040518060400160405280601e81526020017f536166654d6174683a207375627472616374696f6e206f766572666c6f770000815250612339565b60006104c783836040518060400160405280601a81526020017f536166654d6174683a206469766973696f6e206279207a65726f0000000000008152506123d0565b60008183038183128015906122405750838113155b80612255575060008312801561225557508381135b6104c75760405162461bcd60e51b81526004018080602001828103825260248152602001806132256024913960400191505060405180910390fd5b60008261229f575060006107c3565b826000191480156122b35750600160ff1b82145b156122ef5760405162461bcd60e51b81526004018080602001828103825260278152602001806131d86027913960400191505060405180910390fd5b828202828482816122fc57fe5b05146104c75760405162461bcd60e51b81526004018080602001828103825260278152602001806131d86027913960400191505060405180910390fd5b600081848411156123c85760405162461bcd60e51b81526004018080602001828103825283818151815260200191508051906020019080838360005b8381101561238d578181015183820152602001612375565b50505050905090810190601f1680156123ba5780820380516001836020036101000a031916815260200191505b509250505060405180910390fd5b505050900390565b6000818361241f5760405162461bcd60e51b815260206004820181815283516024840152835190928392604490910191908501908083836000831561238d578181015183820152602001612375565b50600083858161242b57fe5b0495945050505050565b60405180610f0001604052806078906020820280368337509192915050565b604080516102e081019091528060008152602001600081526020016000815260200160008152602001600081526020016000815260200160008152602001600081526020016000815260200160008152602001600081526020016000815260200160008152602001600081526020016000815260200160008152602001600081526020016000815260200160008152602001600081526020016000815260200160008152602001600081525090565b80356001600160a01b038116811461055957600080fd5b8035801515811461055957600080fd5b80356009811061055957600080fd5b803561055981613018565b803561055981613028565b8035600d811061055957600080fd5b80356013811061055957600080fd5b80356022811061055957600080fd5b60006104e0828403121561258e578081fd5b50919050565b6000608082840312156125a5578081fd5b6040516080810181811067ffffffffffffffff821117156125c257fe5b8060405250809150823581526020830135602082015260408301356125e681613035565b604082015260608301356125f981613035565b6060919091015292915050565b600060808284031215612617578081fd5b6040516080810181811067ffffffffffffffff8211171561263457fe5b60405282358152905080602083013561264c81613028565b6020820152604083013561265f81613018565b60408201526126706060840161251a565b60608201525092915050565b60006060828403121561268d578081fd5b6040516060810181811067ffffffffffffffff821117156126aa57fe5b6040528235815290508060208301356126c281613028565b60208201526126d36040840161251a565b60408201525092915050565b60006102e0828403121561258e578081fd5b600060208284031215612702578081fd5b6104c782612503565b60008060008060808587031215612720578283fd5b843593506127306020860161252a565b9250604085013561274081613018565b9396929550929360600135925050565b6000806000806000610ae08688031215612768578283fd5b85359450612779876020880161257c565b93506127898761050088016126df565b92506127986107e0870161251a565b91506127a88761080088016126df565b90509295509295909350565b6000602082840312156127c5578081fd5b6104c78261254f565b6000602082840312156127df578081fd5b81356104c781613018565b600080600060c084860312156127fe578081fd5b833561280981613018565b92506020840135915061281f8560408601612606565b90509250925092565b60006104e0828403121561283a578081fd5b6104c7838361257c565b6000806105008385031215612857578182fd5b612861848461257c565b946104e0939093013593505050565b6000806000806108008587031215612886578182fd5b612890868661257c565b93506128a0866104e087016126df565b93969395505050506107c0820135916107e0013590565b600080600061052084860312156128cc578081fd5b6128d6858561257c565b92506104e0840135915061281f610500850161256d565b60008060006105208486031215612902578081fd5b61290c858561257c565b956104e08501359550610500909401359392505050565b6000806000806105408587031215612939578182fd5b612943868661257c565b93506104e085013592506105008501359150612962610520860161256d565b905092959194509250565b60006104e0828403121561297f578081fd5b61298a610340612ff4565b6129938361255e565b81526129a160208401612539565b60208201526129b26040840161254f565b60408201526129c360608401612544565b60608201526129d46080840161252a565b60808201526129e560a08401612539565b60a08201526129f660c08401612539565b60c0820152612a0760e08401612544565b60e0820152610100612a1a818501612503565b90820152610120612a2c848201612503565b908201526101408381013590820152610160808401359082015261018080840135908201526101a080840135908201526101c080840135908201526101e08084013590820152610200808401359082015261022080840135908201526102408084013590820152610260808401359082015261028080840135908201526102a0612ab88582860161267c565b90820152610300612acb8585830161267c565b6102c0830152612adf856103608601612606565b6102e0830152612af3856103e08601612594565b90820152612b05846104608501612594565b6103208201529392505050565b600060808284031215612b23578081fd5b6104c78383612606565b60006102e0808385031215612b40578182fd5b612b4981612ff4565b9050612b5483612544565b81526020838101359082015260408084013590820152606080840135908201526080808401359082015260a0808401359082015260c0808401359082015260e08084013590820152610100808401359082015261012080840135908201526101408084013590820152610160808401359082015261018080840135908201526101a080840135908201526101c080840135908201526101e08084013590820152610200808401359082015261022080840135908201526102408084013590820152610260808401359082015261028080840135908201526102a080840135908201526102c0928301359281019290925250919050565b60008060008060808587031215612720578182fd5b60068110612c6957fe5b9052565b6020808252825182820181905260009190848201906040850190845b81811015612ca557835183529284019291840191600101612c89565b50909695505050505050565b901515815260200190565b90815260200190565b6020810160138310612cd357fe5b91905290565b6020810160028310612cd357fe5b6020808252602e908201527f5363686564756c652e636f6d70757465446174657346726f6d4379636c653a2060408201526d4d41585f4359434c455f53495a4560901b606082015260800190565b6020808252602e908201527f5363686564756c652e6765744e6578744379636c65446174653a20415454524960408201526d1095551157d393d517d193d5539160921b606082015260800190565b6020808252602d908201527f434547456e67696e652e7061796f666646756e6374696f6e3a2041545452494260408201526c15551157d393d517d193d55391609a1b606082015260800190565b60208082526037908201527f506572696f645574696c732e67657454696d657374616d70506c75735065726960408201527f6f643a204154545249425554455f4e4f545f464f554e44000000000000000000606082015260800190565b60208082526045908201527f456e644f664d6f6e7468436f6e76656e74696f6e2e61646a757374456e644f6660408201527f4d6f6e7468436f6e76656e74696f6e3a204154545249425554455f4e4f545f4660608201526427aaa7221760d91b608082015260a00190565b60208082526036908201527f434547456e67696e652e73746174655472616e736974696f6e46756e6374696f6040820152751b8e8810551514925095551157d393d517d193d5539160521b606082015260800190565b60006102e082019050612f02828451612c5f565b6020838101519083015260408084015190830152606080840151908301526080808401519083015260a0808401519083015260c0808401519083015260e08084015190830152610100808401519083015261012080840151908301526101408084015190830152610160808401519083015261018080840151908301526101a080840151908301526101c080840151908301526101e08084015190830152610200808401519083015261022080840151908301526102408084015190830152610260808401519083015261028080840151908301526102a080840151908301526102c092830151929091019190915290565b60405181810167ffffffffffffffff8111828210171561301057fe5b604052919050565b6002811061302557600080fd5b50565b6006811061302557600080fd5b6005811061302557600080fdfe446179436f756e74436f6e76656e74696f6e2e796561724672616374696f6e3a204154545249425554455f4e4f545f464f554e442e5369676e65644d6174682e666c6f61744d756c743a2043414e4e4f545f524550524553454e545f4752414e554c41524954595369676e6564536166654d6174683a206164646974696f6e206f766572666c6f77436f6e7472616374526f6c65436f6e76656e74696f6e2e726f6c655369676e3a204154545249425554455f4e4f545f464f554e445369676e65644d6174682e666c6f61744d756c743a204f564552464c4f575f4445544543544544446179436f756e74436f6e76656e74696f6e2e796561724672616374696f6e3a204154545249425554455f4e4f545f535550504f525445442e5369676e65644d6174682e666c6f61744469763a2043414e4e4f545f524550524553454e545f4752414e554c4152495459436f72652e796561724672616374696f6e3a2053544152545f4e4f545f4245464f52455f454e44536166654d6174683a206d756c7469706c69636174696f6e206f766572666c6f775369676e6564536166654d6174683a206d756c7469706c69636174696f6e206f766572666c6f775369676e65644d6174682e666c6f61744469763a204f564552464c4f575f44455445435445445369676e6564536166654d6174683a207375627472616374696f6e206f766572666c6f775369676e65644d6174682e666c6f61744469763a20444956494445445f42595f5a45524fa26469706673582212209c7dba22f1fbda71c3a188379c74f9ff721f8b7dd7237d200f4136a6f7cf028e64736f6c63430007040033",
  "devdoc": {
    "details": "All numbers except unix timestamp are represented as multiple of 10 ** 18 inputs have to be multiplied by 10 ** 18, outputs have to multplied by 10 ** -18",
    "kind": "dev",
    "methods": {
      "adjustEndOfMonthConvention(uint8,uint256,(uint256,uint8,uint8,bool))": {
        "details": "The following is considered to dertermine if schedule dates are shifted to the end of month: - The convention SD (same day) means not adjusting, EM (end of month) means adjusting - Dates are only shifted if the schedule start date is an end-of-month date - Dates are only shifted if the schedule cycle is based on an \"M\" period unit or multiple thereof",
        "params": {
          "cycle": "the cycle struct",
          "eomc": "the end of month convention to adjust",
          "startTime": "timestamp of the cycle start"
        },
        "returns": {
          "_0": "the adjusted end of month convention"
        }
      },
      "computeCyclicScheduleSegment((uint8,uint8,uint8,uint8,uint8,uint8,uint8,uint8,address,address,uint256,uint256,uint256,uint256,uint256,int256,int256,int256,int256,int256,int256,(uint256,uint8,bool),(uint256,uint8,bool),(uint256,uint8,uint8,bool),(bytes32,bytes32,uint8,uint8),(bytes32,bytes32,uint8,uint8)),uint256,uint256,uint8)": {
        "params": {
          "eventType": "eventType of the cyclic schedule",
          "segmentEnd": "end timestamp of the segement",
          "segmentStart": "start timestamp of the segment",
          "terms": "terms of the contract"
        },
        "returns": {
          "_0": "event schedule segment"
        }
      },
      "computeEventTimeForEvent(bytes32,uint8,uint8,uint256)": {
        "details": "For optimization reasons not located in EventUtil by applying the BDC specified in the terms"
      },
      "computeInitialState((uint8,uint8,uint8,uint8,uint8,uint8,uint8,uint8,address,address,uint256,uint256,uint256,uint256,uint256,int256,int256,int256,int256,int256,int256,(uint256,uint8,bool),(uint256,uint8,bool),(uint256,uint8,uint8,bool),(bytes32,bytes32,uint8,uint8),(bytes32,bytes32,uint8,uint8)))": {
        "params": {
          "terms": "terms of the contract"
        },
        "returns": {
          "_0": "initial state of the contract"
        }
      },
      "computeNextCyclicEvent((uint8,uint8,uint8,uint8,uint8,uint8,uint8,uint8,address,address,uint256,uint256,uint256,uint256,uint256,int256,int256,int256,int256,int256,int256,(uint256,uint8,bool),(uint256,uint8,bool),(uint256,uint8,uint8,bool),(bytes32,bytes32,uint8,uint8),(bytes32,bytes32,uint8,uint8)),uint256,uint8)": {
        "params": {
          "eventType": "eventType of the cyclic schedule",
          "lastScheduleTime": "last occurrence of cyclic event",
          "terms": "terms of the contract"
        },
        "returns": {
          "_0": "event schedule segment"
        }
      },
      "computeNextNonCyclicEvent((uint8,uint8,uint8,uint8,uint8,uint8,uint8,uint8,address,address,uint256,uint256,uint256,uint256,uint256,int256,int256,int256,int256,int256,int256,(uint256,uint8,bool),(uint256,uint8,bool),(uint256,uint8,uint8,bool),(bytes32,bytes32,uint8,uint8),(bytes32,bytes32,uint8,uint8)),bytes32)": {
        "details": "Assumes that non-cyclic events of the same event type have a unique schedule time",
        "params": {
          "lastNonCyclicEvent": "last non-cyclic event",
          "terms": "terms of the contract"
        },
        "returns": {
          "_0": "next non-cyclic event"
        }
      },
      "computeNonCyclicScheduleSegment((uint8,uint8,uint8,uint8,uint8,uint8,uint8,uint8,address,address,uint256,uint256,uint256,uint256,uint256,int256,int256,int256,int256,int256,int256,(uint256,uint8,bool),(uint256,uint8,bool),(uint256,uint8,uint8,bool),(bytes32,bytes32,uint8,uint8),(bytes32,bytes32,uint8,uint8)),uint256,uint256)": {
        "params": {
          "segmentEnd": "end timestamp of the segement",
          "segmentStart": "start timestamp of the segment",
          "terms": "terms of the contract"
        },
        "returns": {
          "_0": "segment of the non-cyclic schedule"
        }
      },
      "computePayoffForEvent((uint8,uint8,uint8,uint8,uint8,uint8,uint8,uint8,address,address,uint256,uint256,uint256,uint256,uint256,int256,int256,int256,int256,int256,int256,(uint256,uint8,bool),(uint256,uint8,bool),(uint256,uint8,uint8,bool),(bytes32,bytes32,uint8,uint8),(bytes32,bytes32,uint8,uint8)),(uint8,uint256,uint256,uint256,uint256,uint256,uint256,uint256,int256,int256,int256,int256,int256,int256,int256,int256,int256,int256,int256,int256,int256,int256,int256),bytes32,bytes32)": {
        "params": {
          "_event": "event for which the payoff should be evaluated",
          "externalData": "external data needed for POF evaluation (e.g. fxRate)",
          "state": "current state of the contract",
          "terms": "terms of the contract"
        },
        "returns": {
          "_0": "the payoff of the event"
        }
      },
      "computeStateForEvent((uint8,uint8,uint8,uint8,uint8,uint8,uint8,uint8,address,address,uint256,uint256,uint256,uint256,uint256,int256,int256,int256,int256,int256,int256,(uint256,uint8,bool),(uint256,uint8,bool),(uint256,uint8,uint8,bool),(bytes32,bytes32,uint8,uint8),(bytes32,bytes32,uint8,uint8)),(uint8,uint256,uint256,uint256,uint256,uint256,uint256,uint256,int256,int256,int256,int256,int256,int256,int256,int256,int256,int256,int256,int256,int256,int256,int256),bytes32,bytes32)": {
        "params": {
          "_event": "event to be applied to the contract state",
          "externalData": "external data needed for STF evaluation (e.g. rate for RR events)",
          "state": "current state of the contract",
          "terms": "terms of the contract"
        },
        "returns": {
          "_0": "the resulting contract state"
        }
      },
      "isEventScheduled(bytes32,(uint8,uint8,uint8,uint8,uint8,uint8,uint8,uint8,address,address,uint256,uint256,uint256,uint256,uint256,int256,int256,int256,int256,int256,int256,(uint256,uint8,bool),(uint256,uint8,bool),(uint256,uint8,uint8,bool),(bytes32,bytes32,uint8,uint8),(bytes32,bytes32,uint8,uint8)),(uint8,uint256,uint256,uint256,uint256,uint256,uint256,uint256,int256,int256,int256,int256,int256,int256,int256,int256,int256,int256,int256,int256,int256,int256,int256),bool,(uint8,uint256,uint256,uint256,uint256,uint256,uint256,uint256,int256,int256,int256,int256,int256,int256,int256,int256,int256,int256,int256,int256,int256,int256,int256))": {
        "params": {
          "_event": "event for which to check if its still scheduled param terms terms of the contract param state current state of the contract",
          "hasUnderlying": "boolean indicating whether the contract has an underlying contract",
          "underlyingState": "state of the underlying (empty state object if non-existing)"
        },
        "returns": {
          "_0": "boolean indicating whether event is still scheduled"
        }
      }
    },
    "title": "CEGEngine",
    "version": 1
  },
  "userdoc": {
    "kind": "user",
    "methods": {
      "adjustEndOfMonthConvention(uint8,uint256,(uint256,uint8,uint8,bool))": {
        "notice": "This function makes an adjustment on the end of month convention."
      },
      "computeCyclicScheduleSegment((uint8,uint8,uint8,uint8,uint8,uint8,uint8,uint8,address,address,uint256,uint256,uint256,uint256,uint256,int256,int256,int256,int256,int256,int256,(uint256,uint8,bool),(uint256,uint8,bool),(uint256,uint8,uint8,bool),(bytes32,bytes32,uint8,uint8),(bytes32,bytes32,uint8,uint8)),uint256,uint256,uint8)": {
        "notice": "Computes a schedule segment of cyclic contract events based on the contract terms and the specified timestamps."
      },
      "computeEventTimeForEvent(bytes32,uint8,uint8,uint256)": {
        "notice": "Returns the event time for a given schedule time"
      },
      "computeInitialState((uint8,uint8,uint8,uint8,uint8,uint8,uint8,uint8,address,address,uint256,uint256,uint256,uint256,uint256,int256,int256,int256,int256,int256,int256,(uint256,uint8,bool),(uint256,uint8,bool),(uint256,uint8,uint8,bool),(bytes32,bytes32,uint8,uint8),(bytes32,bytes32,uint8,uint8)))": {
        "notice": "Initialize contract state space based on the contract terms."
      },
      "computeNextCyclicEvent((uint8,uint8,uint8,uint8,uint8,uint8,uint8,uint8,address,address,uint256,uint256,uint256,uint256,uint256,int256,int256,int256,int256,int256,int256,(uint256,uint8,bool),(uint256,uint8,bool),(uint256,uint8,uint8,bool),(bytes32,bytes32,uint8,uint8),(bytes32,bytes32,uint8,uint8)),uint256,uint8)": {
        "notice": "Computes a schedule segment of cyclic contract events based on the contract terms and the specified timestamps."
      },
      "computeNextNonCyclicEvent((uint8,uint8,uint8,uint8,uint8,uint8,uint8,uint8,address,address,uint256,uint256,uint256,uint256,uint256,int256,int256,int256,int256,int256,int256,(uint256,uint8,bool),(uint256,uint8,bool),(uint256,uint8,uint8,bool),(bytes32,bytes32,uint8,uint8),(bytes32,bytes32,uint8,uint8)),bytes32)": {
        "notice": "Computes the next non-cyclic contract events based on the contract terms and the timestamp on which the prev. event occured."
      },
      "computeNonCyclicScheduleSegment((uint8,uint8,uint8,uint8,uint8,uint8,uint8,uint8,address,address,uint256,uint256,uint256,uint256,uint256,int256,int256,int256,int256,int256,int256,(uint256,uint8,bool),(uint256,uint8,bool),(uint256,uint8,uint8,bool),(bytes32,bytes32,uint8,uint8),(bytes32,bytes32,uint8,uint8)),uint256,uint256)": {
        "notice": "Computes a schedule segment of non-cyclic contract events based on the contract terms and the specified timestamps."
      },
      "computePayoffForEvent((uint8,uint8,uint8,uint8,uint8,uint8,uint8,uint8,address,address,uint256,uint256,uint256,uint256,uint256,int256,int256,int256,int256,int256,int256,(uint256,uint8,bool),(uint256,uint8,bool),(uint256,uint8,uint8,bool),(bytes32,bytes32,uint8,uint8),(bytes32,bytes32,uint8,uint8)),(uint8,uint256,uint256,uint256,uint256,uint256,uint256,uint256,int256,int256,int256,int256,int256,int256,int256,int256,int256,int256,int256,int256,int256,int256,int256),bytes32,bytes32)": {
        "notice": "Evaluates the payoff for an event under the current state of the contract."
      },
      "computeStateForEvent((uint8,uint8,uint8,uint8,uint8,uint8,uint8,uint8,address,address,uint256,uint256,uint256,uint256,uint256,int256,int256,int256,int256,int256,int256,(uint256,uint8,bool),(uint256,uint8,bool),(uint256,uint8,uint8,bool),(bytes32,bytes32,uint8,uint8),(bytes32,bytes32,uint8,uint8)),(uint8,uint256,uint256,uint256,uint256,uint256,uint256,uint256,int256,int256,int256,int256,int256,int256,int256,int256,int256,int256,int256,int256,int256,int256,int256),bytes32,bytes32)": {
        "notice": "Applys an event to the current state of a contract and returns the resulting contract state."
      },
      "isEventScheduled(bytes32,(uint8,uint8,uint8,uint8,uint8,uint8,uint8,uint8,address,address,uint256,uint256,uint256,uint256,uint256,int256,int256,int256,int256,int256,int256,(uint256,uint8,bool),(uint256,uint8,bool),(uint256,uint8,uint8,bool),(bytes32,bytes32,uint8,uint8),(bytes32,bytes32,uint8,uint8)),(uint8,uint256,uint256,uint256,uint256,uint256,uint256,uint256,int256,int256,int256,int256,int256,int256,int256,int256,int256,int256,int256,int256,int256,int256,int256),bool,(uint8,uint256,uint256,uint256,uint256,uint256,uint256,uint256,int256,int256,int256,int256,int256,int256,int256,int256,int256,int256,int256,int256,int256,int256,int256))": {
        "notice": "Verifies that the provided event is still scheduled under the terms, the current state of the contract and the current state of the underlying."
      },
      "shiftCalcTime(uint256,uint8,uint8,uint256)": {
        "notice": "Used in POFs and STFs for DCFs. No shifting is applied if a Calc/Shift instead of Shift/Calc BDC is provided."
      }
    },
    "notice": "Inherits from BaseEngine by implementing STFs, POFs according to the ACTUS standard for a CEC contract",
    "version": 1
  },
  "storageLayout": {
    "storage": [],
    "types": null
  },
  "gasEstimates": {
    "creation": {
      "codeDepositCost": "2592400",
      "executionCost": "2808",
      "totalCost": "2595208"
    },
    "external": {
      "MAX_CYCLE_SIZE()": "273",
      "MAX_EVENT_SCHEDULE_SIZE()": "316",
      "ONE_POINT_ZERO()": "251",
      "PRECISION()": "295",
      "adjustEndOfMonthConvention(uint8,uint256,(uint256,uint8,uint8,bool))": "infinite",
      "computeCyclicScheduleSegment((uint8,uint8,uint8,uint8,uint8,uint8,uint8,uint8,address,address,uint256,uint256,uint256,uint256,uint256,int256,int256,int256,int256,int256,int256,(uint256,uint8,bool),(uint256,uint8,bool),(uint256,uint8,uint8,bool),(bytes32,bytes32,uint8,uint8),(bytes32,bytes32,uint8,uint8)),uint256,uint256,uint8)": "infinite",
      "computeEventTimeForEvent(bytes32,uint8,uint8,uint256)": "infinite",
      "computeInitialState((uint8,uint8,uint8,uint8,uint8,uint8,uint8,uint8,address,address,uint256,uint256,uint256,uint256,uint256,int256,int256,int256,int256,int256,int256,(uint256,uint8,bool),(uint256,uint8,bool),(uint256,uint8,uint8,bool),(bytes32,bytes32,uint8,uint8),(bytes32,bytes32,uint8,uint8)))": "infinite",
      "computeNextCyclicEvent((uint8,uint8,uint8,uint8,uint8,uint8,uint8,uint8,address,address,uint256,uint256,uint256,uint256,uint256,int256,int256,int256,int256,int256,int256,(uint256,uint8,bool),(uint256,uint8,bool),(uint256,uint8,uint8,bool),(bytes32,bytes32,uint8,uint8),(bytes32,bytes32,uint8,uint8)),uint256,uint8)": "infinite",
      "computeNextNonCyclicEvent((uint8,uint8,uint8,uint8,uint8,uint8,uint8,uint8,address,address,uint256,uint256,uint256,uint256,uint256,int256,int256,int256,int256,int256,int256,(uint256,uint8,bool),(uint256,uint8,bool),(uint256,uint8,uint8,bool),(bytes32,bytes32,uint8,uint8),(bytes32,bytes32,uint8,uint8)),bytes32)": "1173",
      "computeNonCyclicScheduleSegment((uint8,uint8,uint8,uint8,uint8,uint8,uint8,uint8,address,address,uint256,uint256,uint256,uint256,uint256,int256,int256,int256,int256,int256,int256,(uint256,uint8,bool),(uint256,uint8,bool),(uint256,uint8,uint8,bool),(bytes32,bytes32,uint8,uint8),(bytes32,bytes32,uint8,uint8)),uint256,uint256)": "infinite",
      "computePayoffForEvent((uint8,uint8,uint8,uint8,uint8,uint8,uint8,uint8,address,address,uint256,uint256,uint256,uint256,uint256,int256,int256,int256,int256,int256,int256,(uint256,uint8,bool),(uint256,uint8,bool),(uint256,uint8,uint8,bool),(bytes32,bytes32,uint8,uint8),(bytes32,bytes32,uint8,uint8)),(uint8,uint256,uint256,uint256,uint256,uint256,uint256,uint256,int256,int256,int256,int256,int256,int256,int256,int256,int256,int256,int256,int256,int256,int256,int256),bytes32,bytes32)": "infinite",
      "computeStateForEvent((uint8,uint8,uint8,uint8,uint8,uint8,uint8,uint8,address,address,uint256,uint256,uint256,uint256,uint256,int256,int256,int256,int256,int256,int256,(uint256,uint8,bool),(uint256,uint8,bool),(uint256,uint8,uint8,bool),(bytes32,bytes32,uint8,uint8),(bytes32,bytes32,uint8,uint8)),(uint8,uint256,uint256,uint256,uint256,uint256,uint256,uint256,int256,int256,int256,int256,int256,int256,int256,int256,int256,int256,int256,int256,int256,int256,int256),bytes32,bytes32)": "infinite",
      "contractType()": "321",
      "isEventScheduled(bytes32,(uint8,uint8,uint8,uint8,uint8,uint8,uint8,uint8,address,address,uint256,uint256,uint256,uint256,uint256,int256,int256,int256,int256,int256,int256,(uint256,uint8,bool),(uint256,uint8,bool),(uint256,uint8,uint8,bool),(bytes32,bytes32,uint8,uint8),(bytes32,bytes32,uint8,uint8)),(uint8,uint256,uint256,uint256,uint256,uint256,uint256,uint256,int256,int256,int256,int256,int256,int256,int256,int256,int256,int256,int256,int256,int256,int256,int256),bool,(uint8,uint256,uint256,uint256,uint256,uint256,uint256,uint256,int256,int256,int256,int256,int256,int256,int256,int256,int256,int256,int256,int256,int256,int256,int256))": "infinite",
      "shiftCalcTime(uint256,uint8,uint8,uint256)": "infinite",
      "shiftEventTime(uint256,uint8,uint8,uint256)": "infinite"
    },
    "internal": {
      "payoffFunction(struct CEGTerms memory,struct State memory,bytes32,bytes32)": "infinite",
      "stateTransitionFunction(struct CEGTerms memory,struct State memory,bytes32,bytes32)": "infinite"
    }
  }
}