{
  "address": "0xf8a1BfCC2d1d5FaD14B04BE317bf84C272560a62",
  "abi": [
    {
      "anonymous": false,
      "inputs": [
        {
          "indexed": true,
          "internalType": "address",
          "name": "previousOwner",
          "type": "address"
        },
        {
          "indexed": true,
          "internalType": "address",
          "name": "newOwner",
          "type": "address"
        }
      ],
      "name": "OwnershipTransferred",
      "type": "event"
    },
    {
      "anonymous": false,
      "inputs": [
        {
          "indexed": true,
          "internalType": "bytes32",
          "name": "setId",
          "type": "bytes32"
        },
        {
          "indexed": false,
          "internalType": "int256",
          "name": "dataPoint",
          "type": "int256"
        },
        {
          "indexed": false,
          "internalType": "uint256",
          "name": "timestamp",
          "type": "uint256"
        }
      ],
      "name": "PublishedDataPoint",
      "type": "event"
    },
    {
      "anonymous": false,
      "inputs": [
        {
          "indexed": true,
          "internalType": "bytes32",
          "name": "setId",
          "type": "bytes32"
        },
        {
          "indexed": false,
          "internalType": "address",
          "name": "provider",
          "type": "address"
        }
      ],
      "name": "UpdatedDataProvider",
      "type": "event"
    },
    {
      "inputs": [
        {
          "internalType": "bytes32",
          "name": "setId",
          "type": "bytes32"
        },
        {
          "internalType": "uint256",
          "name": "timestamp",
          "type": "uint256"
        }
      ],
      "name": "getDataPoint",
      "outputs": [
        {
          "internalType": "int256",
          "name": "",
          "type": "int256"
        },
        {
          "internalType": "bool",
          "name": "",
          "type": "bool"
        }
      ],
      "stateMutability": "view",
      "type": "function"
    },
    {
      "inputs": [
        {
          "internalType": "bytes32",
          "name": "setId",
          "type": "bytes32"
        }
      ],
      "name": "getDataProvider",
      "outputs": [
        {
          "internalType": "address",
          "name": "",
          "type": "address"
        }
      ],
      "stateMutability": "view",
      "type": "function"
    },
    {
      "inputs": [
        {
          "internalType": "bytes32",
          "name": "setId",
          "type": "bytes32"
        }
      ],
      "name": "getLastUpdatedTimestamp",
      "outputs": [
        {
          "internalType": "uint256",
          "name": "",
          "type": "uint256"
        }
      ],
      "stateMutability": "view",
      "type": "function"
    },
    {
      "inputs": [
        {
          "internalType": "bytes32",
          "name": "setId",
          "type": "bytes32"
        }
      ],
      "name": "isRegistered",
      "outputs": [
        {
          "internalType": "bool",
          "name": "",
          "type": "bool"
        }
      ],
      "stateMutability": "view",
      "type": "function"
    },
    {
      "inputs": [],
      "name": "owner",
      "outputs": [
        {
          "internalType": "address",
          "name": "",
          "type": "address"
        }
      ],
      "stateMutability": "view",
      "type": "function"
    },
    {
      "inputs": [
        {
          "internalType": "bytes32",
          "name": "setId",
          "type": "bytes32"
        },
        {
          "internalType": "uint256",
          "name": "timestamp",
          "type": "uint256"
        },
        {
          "internalType": "int256",
          "name": "dataPoint",
          "type": "int256"
        }
      ],
      "name": "publishDataPoint",
      "outputs": [],
      "stateMutability": "nonpayable",
      "type": "function"
    },
    {
      "inputs": [],
      "name": "renounceOwnership",
      "outputs": [],
      "stateMutability": "nonpayable",
      "type": "function"
    },
    {
      "inputs": [
        {
          "internalType": "bytes32",
          "name": "setId",
          "type": "bytes32"
        },
        {
          "internalType": "address",
          "name": "provider",
          "type": "address"
        }
      ],
      "name": "setDataProvider",
      "outputs": [],
      "stateMutability": "nonpayable",
      "type": "function"
    },
    {
      "inputs": [
        {
          "internalType": "address",
          "name": "newOwner",
          "type": "address"
        }
      ],
      "name": "transferOwnership",
      "outputs": [],
      "stateMutability": "nonpayable",
      "type": "function"
    }
  ],
  "transactionHash": "0xc4f84b472da780f687ae5388f3a9fd86abce9bebefb9c11fe200c30aea68e63c",
  "args": [],
  "solcInputHash": "7d6b29d6a2c9dde4fae67ffdf428231d",
  "bytecode": "0x608060405234801561001057600080fd5b50600061001b61006a565b600080546001600160a01b0319166001600160a01b0383169081178255604051929350917f8be0079c531659141344cd1fd0a4f28419497f9722a3daafe3b4186f6b6457e0908290a35061006e565b3390565b6107248061007d6000396000f3fe608060405234801561001057600080fd5b50600436106100935760003560e01c80638da5cb5b116100665780638da5cb5b1461013e578063af37897814610162578063d38db86d1461018e578063ecef34f2146101b7578063f2fde38b146101d457610093565b806308a4ec101461009857806327258b22146100d4578063715018a614610105578063816a7e011461010f575b600080fd5b6100bb600480360360408110156100ae57600080fd5b50803590602001356101fa565b6040805192835290151560208301528051918290030190f35b6100f1600480360360208110156100ea57600080fd5b5035610222565b604080519115158252519081900360200190f35b61010d610241565b005b61012c6004803603602081101561012557600080fd5b50356102f5565b60408051918252519081900360200190f35b61014661030b565b604080516001600160a01b039092168252519081900360200190f35b61010d6004803603604081101561017857600080fd5b50803590602001356001600160a01b031661031a565b61010d600480360360608110156101a457600080fd5b5080359060208101359060400135610424565b610146600480360360208110156101cd57600080fd5b503561056a565b61010d600480360360208110156101ea57600080fd5b50356001600160a01b0316610588565b600091825260016020818152604080852093855292905291208054910154909160ff90911690565b600090815260016020526040902060020154600160a01b900460ff1690565b610249610692565b6000546001600160a01b039081169116146102ab576040805162461bcd60e51b815260206004820181905260248201527f4f776e61626c653a2063616c6c6572206973206e6f7420746865206f776e6572604482015290519081900360640190fd5b600080546040516001600160a01b03909116907f8be0079c531659141344cd1fd0a4f28419497f9722a3daafe3b4186f6b6457e0908390a3600080546001600160a01b0319169055565b6000908152600160208190526040909120015490565b6000546001600160a01b031690565b610322610692565b6000546001600160a01b03908116911614610384576040805162461bcd60e51b815260206004820181905260248201527f4f776e61626c653a2063616c6c6572206973206e6f7420746865206f776e6572604482015290519081900360640190fd5b600082815260016020526040902060020180546001600160a01b0319166001600160a01b0383161790819055600160a01b900460ff166103e1576000828152600160205260409020600201805460ff60a01b1916600160a01b1790555b604080516001600160a01b0383168152905183917f6d3523ac54f3703c06e93ef7e0e67f963e698a668616fbc72dafb71eb6bd3096919081900360200190a25050565b6000838152600160205260409020600201546001600160a01b0316331461047c5760405162461bcd60e51b81526004018080602001828103825260328152602001806106bd6032913960400191505060405180910390fd5b604080518082018252828152600160208083018281526000888152838352858120888252808452958120945185559051938301805460ff1916941515949094179093559186905290526002015460ff600160a01b909104166104fb576000838152600160205260409020600201805460ff60a01b1916600160a01b1790555b6000838152600160208190526040909120015482111561052b576000838152600160208190526040909120018290555b6040805182815260208101849052815185927f183291f60aff981c3c2d6cb02edd75633d383a51f608e397789555ef0e775602928290030190a2505050565b6000908152600160205260409020600201546001600160a01b031690565b610590610692565b6000546001600160a01b039081169116146105f2576040805162461bcd60e51b815260206004820181905260248201527f4f776e61626c653a2063616c6c6572206973206e6f7420746865206f776e6572604482015290519081900360640190fd5b6001600160a01b0381166106375760405162461bcd60e51b81526004018080602001828103825260268152602001806106976026913960400191505060405180910390fd5b600080546040516001600160a01b03808516939216917f8be0079c531659141344cd1fd0a4f28419497f9722a3daafe3b4186f6b6457e091a3600080546001600160a01b0319166001600160a01b0392909216919091179055565b339056fe4f776e61626c653a206e6577206f776e657220697320746865207a65726f20616464726573734461746152656769737472792e7075626c69736844617461506f696e743a20554e415554484f52495a45445f53454e444552a26469706673582212206f236255b56cfc3a967830d3e4026acfa5a497eeae1a04a6882018ecde198c6d64736f6c63430007040033",
  "devdoc": {
    "kind": "dev",
    "methods": {
      "getDataPoint(bytes32,uint256)": {
        "params": {
          "setId": "id of the data set",
          "timestamp": "timestamp of the data point"
        },
        "returns": {
          "_0": "data point, bool indicating whether data point exists"
        }
      },
      "getDataProvider(bytes32)": {
        "params": {
          "setId": "id of the data set"
        },
        "returns": {
          "_0": "address of provider"
        }
      },
      "getLastUpdatedTimestamp(bytes32)": {
        "params": {
          "setId": "id of the data set"
        },
        "returns": {
          "_0": "last updated timestamp"
        }
      },
      "isRegistered(bytes32)": {
        "params": {
          "setId": "setId of the data set"
        },
        "returns": {
          "_0": "true if market object exists"
        }
      },
      "owner()": {
        "details": "Returns the address of the current owner."
      },
      "publishDataPoint(bytes32,uint256,int256)": {
        "details": "Can only be called by a whitelisted data provider.",
        "params": {
          "dataPoint": "the data point of the data set",
          "setId": "id of the data set",
          "timestamp": "timestamp of the data point"
        }
      },
      "renounceOwnership()": {
        "details": "Leaves the contract without owner. It will not be possible to call `onlyOwner` functions anymore. Can only be called by the current owner. NOTE: Renouncing ownership will leave the contract without an owner, thereby removing any functionality that is only available to the owner."
      },
      "setDataProvider(bytes32,address)": {
        "details": "Can only be called by the owner of the DataRegistry.",
        "params": {
          "provider": "address of the provider",
          "setId": "id of the data set"
        }
      },
      "transferOwnership(address)": {
        "details": "Transfers ownership of the contract to a new account (`newOwner`). Can only be called by the current owner."
      }
    },
    "title": "DataRegistryProxy",
    "version": 1
  },
  "userdoc": {
    "kind": "user",
    "methods": {
      "getDataPoint(bytes32,uint256)": {
        "notice": "Returns a data point of a market object for a given timestamp."
      },
      "getDataProvider(bytes32)": {
        "notice": "Returns the provider for a market object"
      },
      "getLastUpdatedTimestamp(bytes32)": {
        "notice": "Returns the timestamp on which the last data point for a data set was submitted."
      },
      "isRegistered(bytes32)": {
        "notice": "@notice Returns true if there is data registered for a given setId"
      },
      "publishDataPoint(bytes32,uint256,int256)": {
        "notice": "Stores a new data point of a data set for a given timestamp."
      },
      "setDataProvider(bytes32,address)": {
        "notice": "Registers / updates a market object provider."
      }
    },
    "notice": "Registry for data which is published by an registered MarketObjectProvider",
    "version": 1
  },
  "storageLayout": {
    "storage": [
      {
        "astId": 30,
        "contract": "contracts/Core/Base/OracleProxy/DataRegistryProxy/DataRegistryProxy.sol:DataRegistryProxy",
        "label": "_owner",
        "offset": 0,
        "slot": "0",
        "type": "t_address"
      },
      {
        "astId": 26604,
        "contract": "contracts/Core/Base/OracleProxy/DataRegistryProxy/DataRegistryProxy.sol:DataRegistryProxy",
        "label": "sets",
        "offset": 0,
        "slot": "1",
        "type": "t_mapping(t_bytes32,t_struct(Set)26600_storage)"
      }
    ],
    "types": {
      "t_address": {
        "encoding": "inplace",
        "label": "address",
        "numberOfBytes": "20"
      },
      "t_bool": {
        "encoding": "inplace",
        "label": "bool",
        "numberOfBytes": "1"
      },
      "t_bytes32": {
        "encoding": "inplace",
        "label": "bytes32",
        "numberOfBytes": "32"
      },
      "t_int256": {
        "encoding": "inplace",
        "label": "int256",
        "numberOfBytes": "32"
      },
      "t_mapping(t_bytes32,t_struct(Set)26600_storage)": {
        "encoding": "mapping",
        "key": "t_bytes32",
        "label": "mapping(bytes32 => struct DataRegistryProxy.Set)",
        "numberOfBytes": "32",
        "value": "t_struct(Set)26600_storage"
      },
      "t_mapping(t_uint256,t_struct(DataPoint)26589_storage)": {
        "encoding": "mapping",
        "key": "t_uint256",
        "label": "mapping(uint256 => struct DataRegistryProxy.DataPoint)",
        "numberOfBytes": "32",
        "value": "t_struct(DataPoint)26589_storage"
      },
      "t_struct(DataPoint)26589_storage": {
        "encoding": "inplace",
        "label": "struct DataRegistryProxy.DataPoint",
        "members": [
          {
            "astId": 26586,
            "contract": "contracts/Core/Base/OracleProxy/DataRegistryProxy/DataRegistryProxy.sol:DataRegistryProxy",
            "label": "dataPoint",
            "offset": 0,
            "slot": "0",
            "type": "t_int256"
          },
          {
            "astId": 26588,
            "contract": "contracts/Core/Base/OracleProxy/DataRegistryProxy/DataRegistryProxy.sol:DataRegistryProxy",
            "label": "isSet",
            "offset": 0,
            "slot": "1",
            "type": "t_bool"
          }
        ],
        "numberOfBytes": "64"
      },
      "t_struct(Set)26600_storage": {
        "encoding": "inplace",
        "label": "struct DataRegistryProxy.Set",
        "members": [
          {
            "astId": 26593,
            "contract": "contracts/Core/Base/OracleProxy/DataRegistryProxy/DataRegistryProxy.sol:DataRegistryProxy",
            "label": "dataPoints",
            "offset": 0,
            "slot": "0",
            "type": "t_mapping(t_uint256,t_struct(DataPoint)26589_storage)"
          },
          {
            "astId": 26595,
            "contract": "contracts/Core/Base/OracleProxy/DataRegistryProxy/DataRegistryProxy.sol:DataRegistryProxy",
            "label": "lastUpdatedTimestamp",
            "offset": 0,
            "slot": "1",
            "type": "t_uint256"
          },
          {
            "astId": 26597,
            "contract": "contracts/Core/Base/OracleProxy/DataRegistryProxy/DataRegistryProxy.sol:DataRegistryProxy",
            "label": "provider",
            "offset": 0,
            "slot": "2",
            "type": "t_address"
          },
          {
            "astId": 26599,
            "contract": "contracts/Core/Base/OracleProxy/DataRegistryProxy/DataRegistryProxy.sol:DataRegistryProxy",
            "label": "isSet",
            "offset": 20,
            "slot": "2",
            "type": "t_bool"
          }
        ],
        "numberOfBytes": "96"
      },
      "t_uint256": {
        "encoding": "inplace",
        "label": "uint256",
        "numberOfBytes": "32"
      }
    }
  }
}