{
  "address": "0xdC73265D46b7a36263499ef042880AC2e804BD7b",
  "abi": [
    {
      "anonymous": false,
      "inputs": [
        {
          "indexed": true,
          "internalType": "bytes32",
          "name": "assetId",
          "type": "bytes32"
        },
        {
          "indexed": false,
          "internalType": "address",
          "name": "prevActor",
          "type": "address"
        },
        {
          "indexed": false,
          "internalType": "address",
          "name": "newActor",
          "type": "address"
        }
      ],
      "name": "UpdatedActor",
      "type": "event"
    },
    {
      "anonymous": false,
      "inputs": [
        {
          "indexed": true,
          "internalType": "bytes32",
          "name": "assetId",
          "type": "bytes32"
        },
        {
          "indexed": false,
          "internalType": "address",
          "name": "prevEngine",
          "type": "address"
        },
        {
          "indexed": false,
          "internalType": "address",
          "name": "newEngine",
          "type": "address"
        }
      ],
      "name": "UpdatedEngine",
      "type": "event"
    },
    {
      "inputs": [
        {
          "internalType": "address",
          "name": "actor",
          "type": "address"
        }
      ],
      "name": "approveActor",
      "outputs": [],
      "stateMutability": "nonpayable",
      "type": "function"
    },
    {
      "inputs": [
        {
          "internalType": "address",
          "name": "actor",
          "type": "address"
        }
      ],
      "name": "approvedActors",
      "outputs": [
        {
          "internalType": "bool",
          "name": "",
          "type": "bool"
        }
      ],
      "stateMutability": "view",
      "type": "function"
    },
    {
      "inputs": [
        {
          "internalType": "bytes32",
          "name": "assetId",
          "type": "bytes32"
        }
      ],
      "name": "getActor",
      "outputs": [
        {
          "internalType": "address",
          "name": "",
          "type": "address"
        }
      ],
      "stateMutability": "view",
      "type": "function"
    },
    {
      "inputs": [
        {
          "internalType": "bytes32",
          "name": "assetId",
          "type": "bytes32"
        }
      ],
      "name": "getEngine",
      "outputs": [
        {
          "internalType": "address",
          "name": "",
          "type": "address"
        }
      ],
      "stateMutability": "view",
      "type": "function"
    },
    {
      "inputs": [
        {
          "internalType": "bytes32",
          "name": "assetId",
          "type": "bytes32"
        }
      ],
      "name": "isRegistered",
      "outputs": [
        {
          "internalType": "bool",
          "name": "",
          "type": "bool"
        }
      ],
      "stateMutability": "view",
      "type": "function"
    },
    {
      "inputs": [
        {
          "internalType": "bytes32",
          "name": "assetId",
          "type": "bytes32"
        },
        {
          "internalType": "address",
          "name": "actor",
          "type": "address"
        }
      ],
      "name": "setActor",
      "outputs": [],
      "stateMutability": "nonpayable",
      "type": "function"
    },
    {
      "inputs": [
        {
          "internalType": "bytes32",
          "name": "assetId",
          "type": "bytes32"
        },
        {
          "internalType": "address",
          "name": "engine",
          "type": "address"
        }
      ],
      "name": "setEngine",
      "outputs": [],
      "stateMutability": "nonpayable",
      "type": "function"
    }
  ],
  "transactionHash": "0xa369c214c175e068389fadee9b87802b32681c1c1dad2426763d528ce12625cf",
  "args": [],
  "solcInputHash": "0xc56744a5577e177d2615bd05c84c9e210282ddc252efe730b597d1f4bdfd6a0b",
  "bytecode": "0x608060405234801561001057600080fd5b5061074f806100206000396000f3fe608060405234801561001057600080fd5b506004361061007d5760003560e01c8063b3c45ebe1161005b578063b3c45ebe146100d3578063ccfc347e146100f3578063e7dc318814610106578063ee43eda1146101195761007d565b806303a81a2a1461008257806327258b2214610097578063512872f4146100c0575b600080fd5b6100956100903660046105f6565b61012c565b005b6100aa6100a53660046105de565b6102a7565b6040516100b7919061064f565b60405180910390f35b6100956100ce3660046105f6565b6102cc565b6100e66100e13660046105de565b610436565b6040516100b79190610621565b6100aa61010136600461059d565b61045d565b61009561011436600461059d565b61048a565b6100e66101273660046105de565b6104f1565b8161013561051a565b600082815260209190915260409020600101546001600160a01b03163314806101de5750604051631b12681560e01b81523090631b1268159061018c9084906001600160e01b03196000351690339060040161065a565b602060405180830381600087803b1580156101a657600080fd5b505af11580156101ba573d6000803e3d6000fd5b505050506040513d601f19601f820116820180604052508101906101de91906105be565b6102035760405162461bcd60e51b81526004016101fa90610683565b60405180910390fd5b600061020d61051a565b600085815260209190915260409020600101546001600160a01b031690508261023461051a565b600086815260209190915260409081902060010180546001600160a01b0319166001600160a01b0393909316929092179091555184907f6baefd4565218ab73b43cb6b1019ca3a06161c4fcaef25cd665aacddabc44a20906102999084908790610635565b60405180910390a250505050565b60006102b161051a565b6000838152602091909152604090205460ff1690505b919050565b816102d561051a565b600082815260209190915260409020600101546001600160a01b031633148061037e5750604051631b12681560e01b81523090631b1268159061032c9084906001600160e01b03196000351690339060040161065a565b602060405180830381600087803b15801561034657600080fd5b505af115801561035a573d6000803e3d6000fd5b505050506040513d601f19601f8201168201806040525081019061037e91906105be565b61039a5760405162461bcd60e51b81526004016101fa90610683565b60006103a461051a565b6000858152602091909152604090205461010090046001600160a01b03169050826103cd61051a565b600086815260209190915260409081902080546001600160a01b039390931661010002610100600160a81b0319909316929092179091555184907fdaa92ae0693b6616f14ef5db4b7ee053d3234c0d03f7a1885589c6a6c2c75bdb906102999084908790610635565b600061044061051a565b60009283526020525060409020600101546001600160a01b031690565b600061046761053e565b6001600160a01b0392909216600090815260209290925250604090205460ff1690565b610492610562565b546001600160a01b031633146104ba5760405162461bcd60e51b81526004016101fa906106ce565b60016104c461053e565b6001600160a01b039290921660009081526020929092526040909120805460ff1916911515919091179055565b60006104fb61051a565b600092835260205250604090205461010090046001600160a01b031690565b7fed91072810f28ab6b6fc02a2132e36fe987e74def3a4eccfa0a9b6343b1fdaf590565b7f18d16b207b7b74e4fe0520fa9faa688e880d3d4b75e73abaa976af11cdf3fdab90565b7fc8fcad8db84d3cc18b4c41d551ea0ee66dd599cde068d998e57d5e09332c131c90565b80356001600160a01b03811681146102c757600080fd5b6000602082840312156105ae578081fd5b6105b782610586565b9392505050565b6000602082840312156105cf578081fd5b815180151581146105b7578182fd5b6000602082840312156105ef578081fd5b5035919050565b60008060408385031215610608578081fd5b8235915061061860208401610586565b90509250929050565b6001600160a01b0391909116815260200190565b6001600160a01b0392831681529116602082015260400190565b901515815260200190565b9283526001600160e01b03199190911660208301526001600160a01b0316604082015260600190565b6020808252602b908201527f4261736546616365742e6973417574686f72697a65643a20554e415554484f5260408201526a24ad22a22fa9a2a72222a960a91b606082015260800190565b6020808252602b908201527f4d65746146616365742e617070726f76654163746f723a20554e415554484f5260408201526a24ad22a22fa9a2a72222a960a91b60608201526080019056fea2646970667358221220185fcb91401bb8f4ce9631a60100267ca29b6657dffbd79370ce431f18587de964736f6c63430007040033",
  "devdoc": {
    "kind": "dev",
    "methods": {
      "approveActor(address)": {
        "details": "Can only be called by the owner of the contract.",
        "params": {
          "actor": "address of the actor"
        }
      },
      "getActor(bytes32)": {
        "params": {
          "assetId": "id of the asset"
        },
        "returns": {
          "_0": "address of the asset actor"
        }
      },
      "getEngine(bytes32)": {
        "params": {
          "assetId": "id of the asset"
        },
        "returns": {
          "_0": "address of the engine of the asset"
        }
      },
      "isRegistered(bytes32)": {
        "params": {
          "assetId": "id of the asset"
        },
        "returns": {
          "_0": "true if asset exist"
        }
      },
      "setActor(bytes32,address)": {
        "params": {
          "actor": "address of the Actor contract",
          "assetId": "id of the asset"
        }
      },
      "setEngine(bytes32,address)": {
        "details": "Can only be set by authorized account.",
        "params": {
          "assetId": "id of the asset",
          "engine": "new engine address"
        }
      }
    },
    "title": "MetaFacet",
    "version": 1
  },
  "userdoc": {
    "kind": "user",
    "methods": {
      "approveActor(address)": {
        "notice": "Approves the address of an actor contract e.g. for registering assets."
      },
      "getActor(bytes32)": {
        "notice": "Returns the address of the actor which is allowed to update the state of the asset."
      },
      "getEngine(bytes32)": {
        "notice": "Returns the address of a the ACTUS engine corresponding to the ContractType of an asset."
      },
      "isRegistered(bytes32)": {
        "notice": "Returns if there is an asset registerd for a given assetId"
      },
      "setActor(bytes32,address)": {
        "notice": "Set the address of the Actor contract which should be going forward."
      },
      "setEngine(bytes32,address)": {
        "notice": "Set the engine address which should be used for the asset going forward."
      }
    },
    "notice": "Asset meta methods",
    "version": 1
  },
  "storageLayout": {
    "storage": [],
    "types": null
  },
  "gasEstimates": {
    "creation": {
      "codeDepositCost": "374200",
      "executionCost": "411",
      "totalCost": "374611"
    },
    "external": {
      "approveActor(address)": "22187",
      "approvedActors(address)": "1354",
      "getActor(bytes32)": "1251",
      "getEngine(bytes32)": "1322",
      "isRegistered(bytes32)": "1256",
      "setActor(bytes32,address)": "infinite",
      "setEngine(bytes32,address)": "infinite"
    }
  }
}