{
  "address": "0xD288b6ab166Aa99bA28E801e59c028fCc836BE61",
  "abi": [
    {
      "anonymous": false,
      "inputs": [
        {
          "indexed": true,
          "internalType": "bytes32",
          "name": "assetId",
          "type": "bytes32"
        },
        {
          "indexed": false,
          "internalType": "address",
          "name": "prevActor",
          "type": "address"
        },
        {
          "indexed": false,
          "internalType": "address",
          "name": "newActor",
          "type": "address"
        }
      ],
      "name": "UpdatedActor",
      "type": "event"
    },
    {
      "anonymous": false,
      "inputs": [
        {
          "indexed": true,
          "internalType": "bytes32",
          "name": "assetId",
          "type": "bytes32"
        },
        {
          "indexed": false,
          "internalType": "address",
          "name": "prevEngine",
          "type": "address"
        },
        {
          "indexed": false,
          "internalType": "address",
          "name": "newEngine",
          "type": "address"
        }
      ],
      "name": "UpdatedEngine",
      "type": "event"
    },
    {
      "inputs": [
        {
          "internalType": "address",
          "name": "actor",
          "type": "address"
        }
      ],
      "name": "approveActor",
      "outputs": [],
      "stateMutability": "nonpayable",
      "type": "function"
    },
    {
      "inputs": [
        {
          "internalType": "bytes32",
          "name": "assetId",
          "type": "bytes32"
        }
      ],
      "name": "getActor",
      "outputs": [
        {
          "internalType": "address",
          "name": "",
          "type": "address"
        }
      ],
      "stateMutability": "view",
      "type": "function"
    },
    {
      "inputs": [
        {
          "internalType": "bytes32",
          "name": "assetId",
          "type": "bytes32"
        }
      ],
      "name": "getEngine",
      "outputs": [
        {
          "internalType": "address",
          "name": "",
          "type": "address"
        }
      ],
      "stateMutability": "view",
      "type": "function"
    },
    {
      "inputs": [
        {
          "internalType": "bytes32",
          "name": "assetId",
          "type": "bytes32"
        }
      ],
      "name": "isRegistered",
      "outputs": [
        {
          "internalType": "bool",
          "name": "",
          "type": "bool"
        }
      ],
      "stateMutability": "view",
      "type": "function"
    },
    {
      "inputs": [
        {
          "internalType": "bytes32",
          "name": "assetId",
          "type": "bytes32"
        },
        {
          "internalType": "address",
          "name": "actor",
          "type": "address"
        }
      ],
      "name": "setActor",
      "outputs": [],
      "stateMutability": "nonpayable",
      "type": "function"
    },
    {
      "inputs": [
        {
          "internalType": "bytes32",
          "name": "assetId",
          "type": "bytes32"
        },
        {
          "internalType": "address",
          "name": "engine",
          "type": "address"
        }
      ],
      "name": "setEngine",
      "outputs": [],
      "stateMutability": "nonpayable",
      "type": "function"
    }
  ],
  "transactionHash": "0xc615d88a02a69c6a756f01f3686f4a84608a260a9c88cf77ecfabf40192127e9",
  "args": [],
  "solcInputHash": "0xdbde777ab8a0d36e06492bc7e4c1e26bd51447aee10a11b12030385226e1f02f",
  "bytecode": "0x608060405234801561001057600080fd5b50610700806100206000396000f3fe608060405234801561001057600080fd5b50600436106100625760003560e01c806303a81a2a1461006757806327258b221461007c578063512872f4146100a5578063b3c45ebe146100b8578063e7dc3188146100d8578063ee43eda1146100eb575b600080fd5b61007a6100753660046105a8565b6100fe565b005b61008f61008a366004610590565b610279565b60405161009c9190610601565b60405180910390f35b61007a6100b33660046105a8565b61029e565b6100cb6100c6366004610590565b610408565b60405161009c91906105d3565b61007a6100e636600461054f565b61042f565b6100cb6100f9366004610590565b61046e565b81610107610497565b600082815260209190915260409020600101546001600160a01b03163314806101b05750604051631b12681560e01b81523090631b1268159061015e9084906001600160e01b03196000351690339060040161060c565b602060405180830381600087803b15801561017857600080fd5b505af115801561018c573d6000803e3d6000fd5b505050506040513d601f19601f820116820180604052508101906101b09190610570565b6101d55760405162461bcd60e51b81526004016101cc90610677565b60405180910390fd5b60006101df610497565b600085815260209190915260409020600101546001600160a01b0316905082610206610497565b600086815260209190915260409081902060010180546001600160a01b0319166001600160a01b0393909316929092179091555184907f6baefd4565218ab73b43cb6b1019ca3a06161c4fcaef25cd665aacddabc44a209061026b90849087906105e7565b60405180910390a250505050565b6000610283610497565b6000838152602091909152604090205460ff1690505b919050565b816102a7610497565b600082815260209190915260409020600101546001600160a01b03163314806103505750604051631b12681560e01b81523090631b126815906102fe9084906001600160e01b03196000351690339060040161060c565b602060405180830381600087803b15801561031857600080fd5b505af115801561032c573d6000803e3d6000fd5b505050506040513d601f19601f820116820180604052508101906103509190610570565b61036c5760405162461bcd60e51b81526004016101cc90610677565b6000610376610497565b6000858152602091909152604090205461010090046001600160a01b031690508261039f610497565b600086815260209190915260409081902080546001600160a01b039390931661010002610100600160a81b0319909316929092179091555184907fdaa92ae0693b6616f14ef5db4b7ee053d3234c0d03f7a1885589c6a6c2c75bdb9061026b90849087906105e7565b6000610412610497565b60009283526020525060409020600101546001600160a01b031690565b6104376104bb565b60016104416104f0565b6001600160a01b039290921660009081526020929092526040909120805460ff1916911515919091179055565b6000610478610497565b600092835260205250604090205461010090046001600160a01b031690565b7fed91072810f28ab6b6fc02a2132e36fe987e74def3a4eccfa0a9b6343b1fdaf590565b6104c3610514565b600401546001600160a01b031633146104ee5760405162461bcd60e51b81526004016101cc90610635565b565b7f18d16b207b7b74e4fe0520fa9faa688e880d3d4b75e73abaa976af11cdf3fdab90565b7fc8fcad8db84d3cc18b4c41d551ea0ee66dd599cde068d998e57d5e09332c131c90565b80356001600160a01b038116811461029957600080fd5b600060208284031215610560578081fd5b61056982610538565b9392505050565b600060208284031215610581578081fd5b81518015158114610569578182fd5b6000602082840312156105a1578081fd5b5035919050565b600080604083850312156105ba578081fd5b823591506105ca60208401610538565b90509250929050565b6001600160a01b0391909116815260200190565b6001600160a01b0392831681529116602082015260400190565b901515815260200190565b9283526001600160e01b03199190911660208301526001600160a01b0316604082015260600190565b60208082526022908201527f4c69624469616d6f6e643a204d75737420626520636f6e7472616374206f776e60408201526132b960f11b606082015260800190565b60208082526033908201527f42617365526567697374727946616365742e6973417574686f72697a65643a206040820152722aa720aaaa2427a924ad22a22fa9a2a72222a960691b60608201526080019056fea26469706673582212205fad06fdf53e9d11b857157e8267ea7a4ddb95c8f0474b243d144162a082437264736f6c63430007040033",
  "devdoc": {
    "kind": "dev",
    "methods": {
      "approveActor(address)": {
        "details": "Can only be called by the owner of the contract.",
        "params": {
          "actor": "address of the actor"
        }
      },
      "getActor(bytes32)": {
        "params": {
          "assetId": "id of the asset"
        },
        "returns": {
          "_0": "address of the asset actor"
        }
      },
      "getEngine(bytes32)": {
        "params": {
          "assetId": "id of the asset"
        },
        "returns": {
          "_0": "address of the engine of the asset"
        }
      },
      "isRegistered(bytes32)": {
        "params": {
          "assetId": "id of the asset"
        },
        "returns": {
          "_0": "true if asset exist"
        }
      },
      "setActor(bytes32,address)": {
        "params": {
          "actor": "address of the Actor contract",
          "assetId": "id of the asset"
        }
      },
      "setEngine(bytes32,address)": {
        "details": "Can only be set by authorized account.",
        "params": {
          "assetId": "id of the asset",
          "engine": "new engine address"
        }
      }
    },
    "title": "MetaFacet",
    "version": 1
  },
  "userdoc": {
    "kind": "user",
    "methods": {
      "approveActor(address)": {
        "notice": "Approves the address of an actor contract e.g. for registering assets."
      },
      "getActor(bytes32)": {
        "notice": "Returns the address of the actor which is allowed to update the state of the asset."
      },
      "getEngine(bytes32)": {
        "notice": "Returns the address of a the ACTUS engine corresponding to the ContractType of an asset."
      },
      "isRegistered(bytes32)": {
        "notice": "Returns if there is an asset registerd for a given assetId"
      },
      "setActor(bytes32,address)": {
        "notice": "Set the address of the Actor contract which should be going forward."
      },
      "setEngine(bytes32,address)": {
        "notice": "Set the engine address which should be used for the asset going forward."
      }
    },
    "notice": "Asset meta methods",
    "version": 1
  },
  "storageLayout": {
    "storage": [],
    "types": null
  },
  "gasEstimates": {
    "creation": {
      "codeDepositCost": "358400",
      "executionCost": "393",
      "totalCost": "358793"
    },
    "external": {
      "approveActor(address)": "22239",
      "getActor(bytes32)": "1295",
      "getEngine(bytes32)": "1344",
      "isRegistered(bytes32)": "1233",
      "setActor(bytes32,address)": "infinite",
      "setEngine(bytes32,address)": "infinite"
    }
  }
}