{
  "address": "0xe8D0B11e213607CABcb75CA7C69bD36E8d19F7Ec",
  "abi": [
    {
      "anonymous": false,
      "inputs": [
        {
          "indexed": true,
          "internalType": "address",
          "name": "previousOwner",
          "type": "address"
        },
        {
          "indexed": true,
          "internalType": "address",
          "name": "newOwner",
          "type": "address"
        }
      ],
      "name": "OwnershipTransferred",
      "type": "event"
    },
    {
      "inputs": [],
      "name": "dataRegistry",
      "outputs": [
        {
          "internalType": "address",
          "name": "",
          "type": "address"
        }
      ],
      "stateMutability": "view",
      "type": "function"
    },
    {
      "inputs": [
        {
          "internalType": "address",
          "name": "_oracleProxy",
          "type": "address"
        },
        {
          "internalType": "bytes",
          "name": "_ref",
          "type": "bytes"
        }
      ],
      "name": "getDataPoint",
      "outputs": [
        {
          "internalType": "int256",
          "name": "",
          "type": "int256"
        },
        {
          "internalType": "bool",
          "name": "",
          "type": "bool"
        }
      ],
      "stateMutability": "view",
      "type": "function"
    },
    {
      "inputs": [
        {
          "internalType": "address",
          "name": "",
          "type": "address"
        }
      ],
      "name": "oracleWhitelist",
      "outputs": [
        {
          "internalType": "bool",
          "name": "",
          "type": "bool"
        }
      ],
      "stateMutability": "view",
      "type": "function"
    },
    {
      "inputs": [],
      "name": "owner",
      "outputs": [
        {
          "internalType": "address",
          "name": "",
          "type": "address"
        }
      ],
      "stateMutability": "view",
      "type": "function"
    },
    {
      "inputs": [
        {
          "internalType": "address",
          "name": "_oracle",
          "type": "address"
        }
      ],
      "name": "registerOracle",
      "outputs": [],
      "stateMutability": "nonpayable",
      "type": "function"
    },
    {
      "inputs": [
        {
          "internalType": "address",
          "name": "_oracle",
          "type": "address"
        }
      ],
      "name": "removeOracle",
      "outputs": [],
      "stateMutability": "nonpayable",
      "type": "function"
    },
    {
      "inputs": [],
      "name": "renounceOwnership",
      "outputs": [],
      "stateMutability": "nonpayable",
      "type": "function"
    },
    {
      "inputs": [
        {
          "internalType": "address",
          "name": "_dataRegistry",
          "type": "address"
        }
      ],
      "name": "setDataRegistry",
      "outputs": [],
      "stateMutability": "nonpayable",
      "type": "function"
    },
    {
      "inputs": [
        {
          "internalType": "address",
          "name": "newOwner",
          "type": "address"
        }
      ],
      "name": "transferOwnership",
      "outputs": [],
      "stateMutability": "nonpayable",
      "type": "function"
    }
  ],
  "transactionHash": "0x9f695624262bdaa639b67955f5dd882ad0ffac0b88ac834298daa310bcb38cf9",
  "args": [],
  "solcInputHash": "881b45994c61c48eb152b2243f6d8f05",
  "bytecode": "0x608060405234801561001057600080fd5b50600061001b61006a565b600080546001600160a01b0319166001600160a01b0383169081178255604051929350917f8be0079c531659141344cd1fd0a4f28419497f9722a3daafe3b4186f6b6457e0908290a35061006e565b3390565b6108b78061007d6000396000f3fe608060405234801561001057600080fd5b50600436106100935760003560e01c8063a39c1d6b11610066578063a39c1d6b146101bb578063a465ff12146101c3578063e9babaec146101fd578063f2fde38b14610223578063fdc85fc41461024957610093565b8063353955c814610098578063453b0b4c14610167578063715018a61461018f5780638da5cb5b14610197575b600080fd5b61014e600480360360408110156100ae57600080fd5b6001600160a01b0382351691908101906040810160208201356401000000008111156100d957600080fd5b8201836020820111156100eb57600080fd5b8035906020019184600183028401116401000000008311171561010d57600080fd5b91908080601f01602080910402602001604051908101604052809392919081815260200183838082843760009201919091525092955061026f945050505050565b6040805192835290151560208301528051918290030190f35b61018d6004803603602081101561017d57600080fd5b50356001600160a01b0316610474565b005b61018d610506565b61019f6105a8565b604080516001600160a01b039092168252519081900360200190f35b61019f6105b7565b6101e9600480360360208110156101d957600080fd5b50356001600160a01b03166105c6565b604080519115158252519081900360200190f35b61018d6004803603602081101561021357600080fd5b50356001600160a01b03166105db565b61018d6004803603602081101561023957600080fd5b50356001600160a01b031661065a565b61018d6004803603602081101561025f57600080fd5b50356001600160a01b0316610752565b6000806001600160a01b0384166103bf576002546001600160a01b031660009081526001602052604090205460ff166102d95760405162461bcd60e51b81526004018080602001828103825260398152602001806108496039913960400191505060405180910390fd5b600254604051631845792560e01b81526020600482018181528651602484015286516001600160a01b0390941693631845792593889383926044909201919085019080838360005b83811015610339578181015183820152602001610321565b50505050905090810190601f1680156103665780820380516001836020036101000a031916815260200191505b5092505050604080518083038186803b15801561038257600080fd5b505afa158015610396573d6000803e3d6000fd5b505050506040513d60408110156103ac57600080fd5b508051602090910151909250905061046d565b6001600160a01b03841660009081526001602052604090205460ff166104165760405162461bcd60e51b81526004018080602001828103825260338152602001806107f66033913960400191505060405180910390fd5b604051631845792560e01b81526020600482018181528551602484015285516001600160a01b0388169363184579259388939283926044019185019080838360008315610339578181015183820152602001610321565b9250929050565b61047c6107cb565b6000546001600160a01b039081169116146104cc576040805162461bcd60e51b81526020600482018190526024820152600080516020610829833981519152604482015290519081900360640190fd5b6001600160a01b03166000818152600160208190526040909120805460ff19169091179055600280546001600160a01b0319169091179055565b61050e6107cb565b6000546001600160a01b0390811691161461055e576040805162461bcd60e51b81526020600482018190526024820152600080516020610829833981519152604482015290519081900360640190fd5b600080546040516001600160a01b03909116907f8be0079c531659141344cd1fd0a4f28419497f9722a3daafe3b4186f6b6457e0908390a3600080546001600160a01b0319169055565b6000546001600160a01b031690565b6002546001600160a01b031681565b60016020526000908152604090205460ff1681565b6105e36107cb565b6000546001600160a01b03908116911614610633576040805162461bcd60e51b81526020600482018190526024820152600080516020610829833981519152604482015290519081900360640190fd5b6001600160a01b03166000908152600160208190526040909120805460ff19169091179055565b6106626107cb565b6000546001600160a01b039081169116146106b2576040805162461bcd60e51b81526020600482018190526024820152600080516020610829833981519152604482015290519081900360640190fd5b6001600160a01b0381166106f75760405162461bcd60e51b81526004018080602001828103825260268152602001806107d06026913960400191505060405180910390fd5b600080546040516001600160a01b03808516939216917f8be0079c531659141344cd1fd0a4f28419497f9722a3daafe3b4186f6b6457e091a3600080546001600160a01b0319166001600160a01b0392909216919091179055565b61075a6107cb565b6000546001600160a01b039081169116146107aa576040805162461bcd60e51b81526020600482018190526024820152600080516020610829833981519152604482015290519081900360640190fd5b6001600160a01b03166000908152600160205260409020805460ff19169055565b339056fe4f776e61626c653a206e6577206f776e657220697320746865207a65726f20616464726573734f7261636c6552656769737472792e67657444617461506f696e743a204f7261636c65206e6f742077686974656c69737465644f776e61626c653a2063616c6c6572206973206e6f7420746865206f776e65724f7261636c6552656769737472792e67657444617461506f696e743a20646174615265676973747279206e6f742077686974656c6973746564a2646970667358221220ff676e0fd778132f06f8ecd54f3053c996dc91ab27fe4732f067b969a8bb4a7f64736f6c63430007040033",
  "devdoc": {
    "kind": "dev",
    "methods": {
      "owner()": {
        "details": "Returns the address of the current owner."
      },
      "renounceOwnership()": {
        "details": "Leaves the contract without owner. It will not be possible to call `onlyOwner` functions anymore. Can only be called by the current owner. NOTE: Renouncing ownership will leave the contract without an owner, thereby removing any functionality that is only available to the owner."
      },
      "transferOwnership(address)": {
        "details": "Transfers ownership of the contract to a new account (`newOwner`). Can only be called by the current owner."
      }
    },
    "version": 1
  },
  "userdoc": {
    "kind": "user",
    "methods": {},
    "version": 1
  },
  "storageLayout": {
    "storage": [
      {
        "astId": 30,
        "contract": "contracts/OracleProxy/OracleRegistry.sol:OracleRegistry",
        "label": "_owner",
        "offset": 0,
        "slot": "0",
        "type": "t_address"
      },
      {
        "astId": 45734,
        "contract": "contracts/OracleProxy/OracleRegistry.sol:OracleRegistry",
        "label": "oracleWhitelist",
        "offset": 0,
        "slot": "1",
        "type": "t_mapping(t_address,t_bool)"
      },
      {
        "astId": 45736,
        "contract": "contracts/OracleProxy/OracleRegistry.sol:OracleRegistry",
        "label": "dataRegistry",
        "offset": 0,
        "slot": "2",
        "type": "t_address"
      }
    ],
    "types": {
      "t_address": {
        "encoding": "inplace",
        "label": "address",
        "numberOfBytes": "20"
      },
      "t_bool": {
        "encoding": "inplace",
        "label": "bool",
        "numberOfBytes": "1"
      },
      "t_mapping(t_address,t_bool)": {
        "encoding": "mapping",
        "key": "t_address",
        "label": "mapping(address => bool)",
        "numberOfBytes": "32",
        "value": "t_bool"
      }
    }
  }
}