{
  "address": "0xB5883C472f130c9E6f5738BE52bd69172eeA7eE1",
  "abi": [
    {
      "anonymous": false,
      "inputs": [
        {
          "indexed": false,
          "internalType": "bytes32",
          "name": "assetId",
          "type": "bytes32"
        },
        {
          "indexed": false,
          "internalType": "address",
          "name": "prevBeneficiary",
          "type": "address"
        },
        {
          "indexed": false,
          "internalType": "address",
          "name": "newBeneficiary",
          "type": "address"
        }
      ],
      "name": "UpdatedBeneficiary",
      "type": "event"
    },
    {
      "anonymous": false,
      "inputs": [
        {
          "indexed": false,
          "internalType": "bytes32",
          "name": "assetId",
          "type": "bytes32"
        },
        {
          "indexed": false,
          "internalType": "address",
          "name": "prevObligor",
          "type": "address"
        },
        {
          "indexed": false,
          "internalType": "address",
          "name": "newObligor",
          "type": "address"
        }
      ],
      "name": "UpdatedObligor",
      "type": "event"
    },
    {
      "inputs": [
        {
          "internalType": "bytes32",
          "name": "assetId",
          "type": "bytes32"
        }
      ],
      "name": "getOwnership",
      "outputs": [
        {
          "components": [
            {
              "internalType": "address",
              "name": "creatorObligor",
              "type": "address"
            },
            {
              "internalType": "address",
              "name": "creatorBeneficiary",
              "type": "address"
            },
            {
              "internalType": "address",
              "name": "counterpartyObligor",
              "type": "address"
            },
            {
              "internalType": "address",
              "name": "counterpartyBeneficiary",
              "type": "address"
            }
          ],
          "internalType": "struct AssetOwnership",
          "name": "",
          "type": "tuple"
        }
      ],
      "stateMutability": "view",
      "type": "function"
    },
    {
      "inputs": [
        {
          "internalType": "bytes32",
          "name": "assetId",
          "type": "bytes32"
        },
        {
          "internalType": "address",
          "name": "newCounterpartyBeneficiary",
          "type": "address"
        }
      ],
      "name": "setCounterpartyBeneficiary",
      "outputs": [],
      "stateMutability": "nonpayable",
      "type": "function"
    },
    {
      "inputs": [
        {
          "internalType": "bytes32",
          "name": "assetId",
          "type": "bytes32"
        },
        {
          "internalType": "address",
          "name": "newCounterpartyObligor",
          "type": "address"
        }
      ],
      "name": "setCounterpartyObligor",
      "outputs": [],
      "stateMutability": "nonpayable",
      "type": "function"
    },
    {
      "inputs": [
        {
          "internalType": "bytes32",
          "name": "assetId",
          "type": "bytes32"
        },
        {
          "internalType": "address",
          "name": "newCreatorBeneficiary",
          "type": "address"
        }
      ],
      "name": "setCreatorBeneficiary",
      "outputs": [],
      "stateMutability": "nonpayable",
      "type": "function"
    },
    {
      "inputs": [
        {
          "internalType": "bytes32",
          "name": "assetId",
          "type": "bytes32"
        },
        {
          "internalType": "address",
          "name": "newCreatorObligor",
          "type": "address"
        }
      ],
      "name": "setCreatorObligor",
      "outputs": [],
      "stateMutability": "nonpayable",
      "type": "function"
    }
  ],
  "transactionHash": "0xb5e847b53e2b2197d5cb391904ba3ddc588cf9715da3f44147e1b70b10db532c",
  "args": [],
  "solcInputHash": "0x641332b4189abe50474574ba46977bd7f0a689fca4e1c1910dccc48384971409",
  "bytecode": "0x608060405234801561001057600080fd5b50610a29806100206000396000f3fe608060405234801561001057600080fd5b50600436106100575760003560e01c80630d62037a1461005c5780633549d08d146100715780636031a09414610084578063bd1f0a6c14610097578063e50e0ef7146100aa575b600080fd5b61006f61006a366004610711565b6100d3565b005b61006f61007f366004610711565b610220565b61006f610092366004610711565b610386565b61006f6100a5366004610711565b6104ec565b6100bd6100b83660046106f9565b610623565b6040516100ca91906109b8565b60405180910390f35b604051631b12681560e01b81523090631b126815906101069085906001600160e01b03196000351690339060040161076a565b602060405180830381600087803b15801561012057600080fd5b505af1158015610134573d6000803e3d6000fd5b505050506040513d601f19601f8201168201806040525081019061015891906106d2565b61017d5760405162461bcd60e51b815260040161017490610964565b60405180910390fd5b6000610187610687565b600084815260209190915260409020600801546001600160a01b03169050816101ae610687565b600085815260209190915260409081902060080180546001600160a01b0319166001600160a01b039390931692909217909155517fa7f38588f02421aa73988ed359aee27363c896e7cc3b6e634e4357f7ee408e25906102139085908490869061074b565b60405180910390a1505050565b600061022a610687565b600084815260209190915260409020600b01546001600160a01b03169050806102655760405162461bcd60e51b815260040161017490610793565b336001600160a01b03821614806102fc5750604051631b12681560e01b81523090631b126815906102aa9086906001600160e01b03196000351690339060040161076a565b602060405180830381600087803b1580156102c457600080fd5b505af11580156102d8573d6000803e3d6000fd5b505050506040513d601f19601f820116820180604052508101906102fc91906106d2565b6103185760405162461bcd60e51b8152600401610174906107f0565b81610321610687565b6000858152602091909152604090819020600b0180546001600160a01b0319166001600160a01b039390931692909217909155517f66808241563a07166fd47b523591fa432148706dc0ddd255d49b69e71f1721ce906102139085908490869061074b565b6000610390610687565b600084815260209190915260409020600901546001600160a01b03169050806103cb5760405162461bcd60e51b815260040161017490610907565b336001600160a01b03821614806104625750604051631b12681560e01b81523090631b126815906104109086906001600160e01b03196000351690339060040161076a565b602060405180830381600087803b15801561042a57600080fd5b505af115801561043e573d6000803e3d6000fd5b505050506040513d601f19601f8201168201806040525081019061046291906106d2565b61047e5760405162461bcd60e51b8152600401610174906108aa565b81610487610687565b600085815260209190915260409081902060090180546001600160a01b0319166001600160a01b039390931692909217909155517f66808241563a07166fd47b523591fa432148706dc0ddd255d49b69e71f1721ce906102139085908490869061074b565b604051631b12681560e01b81523090631b1268159061051f9085906001600160e01b03196000351690339060040161076a565b602060405180830381600087803b15801561053957600080fd5b505af115801561054d573d6000803e3d6000fd5b505050506040513d601f19601f8201168201806040525081019061057191906106d2565b61058d5760405162461bcd60e51b81526004016101749061084d565b6000610597610687565b600084815260209190915260409020600a01546001600160a01b03169050816105be610687565b6000858152602091909152604090819020600a0180546001600160a01b0319166001600160a01b039390931692909217909155517fa7f38588f02421aa73988ed359aee27363c896e7cc3b6e634e4357f7ee408e25906102139085908490869061074b565b61062b6106ab565b610633610687565b60009283526020908152604092839020835160808101855260088201546001600160a01b0390811682526009830154811693820193909352600a820154831694810194909452600b01541660608301525090565b7fed91072810f28ab6b6fc02a2132e36fe987e74def3a4eccfa0a9b6343b1fdaf590565b60408051608081018252600080825260208201819052918101829052606081019190915290565b6000602082840312156106e3578081fd5b815180151581146106f2578182fd5b9392505050565b60006020828403121561070a578081fd5b5035919050565b60008060408385031215610723578081fd5b8235915060208301356001600160a01b0381168114610740578182fd5b809150509250929050565b9283526001600160a01b03918216602084015216604082015260600190565b9283526001600160e01b03199190911660208301526001600160a01b0316604082015260600190565b6020808252603e908201527f417373657452656769737472792e736574436f756e746572706172747942656e60408201527f65666963696172793a20454e5452595f444f45535f4e4f545f45584953540000606082015260800190565b6020808252603d908201527f417373657452656769737472792e736574436f756e746572706172747942656e60408201527f65666963696172793a20554e415554484f52495a45445f53454e444552000000606082015260800190565b60208082526039908201527f417373657452656769737472792e736574436f756e74657270617274794f626c60408201527f69676f723a20554e415554484f52495a45445f53454e44455200000000000000606082015260800190565b60208082526038908201527f417373657452656769737472792e73657443726561746f7242656e656669636960408201527f6172793a20554e415554484f52495a45445f53454e4445520000000000000000606082015260800190565b60208082526039908201527f417373657452656769737472792e73657443726561746f7242656e656669636960408201527f6172793a20454e5452595f444f45535f4e4f545f455849535400000000000000606082015260800190565b60208082526034908201527f417373657452656769737472792e73657443726561746f724f626c69676f723a604082015273102aa720aaaa2427a924ad22a22fa9a2a72222a960611b606082015260800190565b81516001600160a01b03908116825260208084015182169083015260408084015182169083015260609283015116918101919091526080019056fea2646970667358221220fd327de812ca2eee2ac91a8631ad6d343b5b83101caf5323c67f11e15b7c7a8c64736f6c63430007040033",
  "devdoc": {
    "kind": "dev",
    "methods": {
      "getOwnership(bytes32)": {
        "params": {
          "assetId": "id of the asset"
        },
        "returns": {
          "_0": "addresses of all owners of the asset"
        }
      },
      "setCounterpartyBeneficiary(bytes32,address)": {
        "details": "Can only be updated by the current counterparty beneficiary or by an authorized account.",
        "params": {
          "assetId": "id of the asset",
          "newCounterpartyBeneficiary": "address of the new beneficiary"
        }
      },
      "setCounterpartyObligor(bytes32,address)": {
        "details": "Can only be updated by an authorized account.",
        "params": {
          "assetId": "id of the asset",
          "newCounterpartyObligor": "address of the new counterparty obligor"
        }
      },
      "setCreatorBeneficiary(bytes32,address)": {
        "details": "Can only be updated by the current creator beneficiary or by an authorized account.",
        "params": {
          "assetId": "id of the asset",
          "newCreatorBeneficiary": "address of the new beneficiary"
        }
      },
      "setCreatorObligor(bytes32,address)": {
        "details": "Can only be updated by an authorized account.",
        "params": {
          "assetId": "id of the asset",
          "newCreatorObligor": "address of the new creator obligor"
        }
      }
    },
    "title": "OwnershipFacet",
    "version": 1
  },
  "userdoc": {
    "kind": "user",
    "methods": {
      "getOwnership(bytes32)": {
        "notice": "Retrieves the registered addresses of owners (creator, counterparty) of an asset."
      },
      "setCounterpartyBeneficiary(bytes32,address)": {
        "notice": "Updates the address of the default beneficiary of cashflows going to the counterparty."
      },
      "setCounterpartyObligor(bytes32,address)": {
        "notice": "Update the address of the counterparty which has to fulfill obligations for the counterparty of the asset."
      },
      "setCreatorBeneficiary(bytes32,address)": {
        "notice": "Update the address of the default beneficiary of cashflows going to the creator."
      },
      "setCreatorObligor(bytes32,address)": {
        "notice": "Update the address of the obligor which has to fulfill obligations for the creator of the asset."
      }
    },
    "version": 1
  },
  "storageLayout": {
    "storage": [],
    "types": null
  },
  "gasEstimates": {
    "creation": {
      "codeDepositCost": "520200",
      "executionCost": "556",
      "totalCost": "520756"
    },
    "external": {
      "getOwnership(bytes32)": "4116",
      "setCounterpartyBeneficiary(bytes32,address)": "infinite",
      "setCounterpartyObligor(bytes32,address)": "infinite",
      "setCreatorBeneficiary(bytes32,address)": "infinite",
      "setCreatorObligor(bytes32,address)": "infinite"
    }
  }
}