{
  "address": "0xf14A0c05b13767BC4b4C831bdf7D2a391292a7F2",
  "abi": [
    {
      "inputs": [],
      "stateMutability": "nonpayable",
      "type": "constructor"
    },
    {
      "anonymous": false,
      "inputs": [
        {
          "indexed": true,
          "internalType": "bytes32",
          "name": "assetId",
          "type": "bytes32"
        },
        {
          "indexed": true,
          "internalType": "address",
          "name": "account",
          "type": "address"
        },
        {
          "indexed": false,
          "internalType": "bytes4",
          "name": "methodSignature",
          "type": "bytes4"
        }
      ],
      "name": "GrantedAccess",
      "type": "event"
    },
    {
      "anonymous": false,
      "inputs": [
        {
          "indexed": true,
          "internalType": "address",
          "name": "previousOwner",
          "type": "address"
        },
        {
          "indexed": true,
          "internalType": "address",
          "name": "newOwner",
          "type": "address"
        }
      ],
      "name": "OwnershipTransferred",
      "type": "event"
    },
    {
      "anonymous": false,
      "inputs": [
        {
          "indexed": false,
          "internalType": "bytes32",
          "name": "assetId",
          "type": "bytes32"
        }
      ],
      "name": "RegisteredAsset",
      "type": "event"
    },
    {
      "anonymous": false,
      "inputs": [
        {
          "indexed": true,
          "internalType": "bytes32",
          "name": "assetId",
          "type": "bytes32"
        },
        {
          "indexed": true,
          "internalType": "address",
          "name": "account",
          "type": "address"
        },
        {
          "indexed": false,
          "internalType": "bytes4",
          "name": "methodSignature",
          "type": "bytes4"
        }
      ],
      "name": "RevokedAccess",
      "type": "event"
    },
    {
      "anonymous": false,
      "inputs": [
        {
          "indexed": true,
          "internalType": "bytes32",
          "name": "assetId",
          "type": "bytes32"
        },
        {
          "indexed": false,
          "internalType": "address",
          "name": "prevActor",
          "type": "address"
        },
        {
          "indexed": false,
          "internalType": "address",
          "name": "newActor",
          "type": "address"
        }
      ],
      "name": "UpdatedActor",
      "type": "event"
    },
    {
      "anonymous": false,
      "inputs": [
        {
          "indexed": false,
          "internalType": "bytes32",
          "name": "assetId",
          "type": "bytes32"
        },
        {
          "indexed": false,
          "internalType": "address",
          "name": "prevBeneficiary",
          "type": "address"
        },
        {
          "indexed": false,
          "internalType": "address",
          "name": "newBeneficiary",
          "type": "address"
        }
      ],
      "name": "UpdatedBeneficiary",
      "type": "event"
    },
    {
      "anonymous": false,
      "inputs": [
        {
          "indexed": true,
          "internalType": "bytes32",
          "name": "assetId",
          "type": "bytes32"
        },
        {
          "indexed": false,
          "internalType": "address",
          "name": "prevEngine",
          "type": "address"
        },
        {
          "indexed": false,
          "internalType": "address",
          "name": "newEngine",
          "type": "address"
        }
      ],
      "name": "UpdatedEngine",
      "type": "event"
    },
    {
      "anonymous": false,
      "inputs": [
        {
          "indexed": true,
          "internalType": "bytes32",
          "name": "assetId",
          "type": "bytes32"
        },
        {
          "indexed": false,
          "internalType": "uint256",
          "name": "statusDate",
          "type": "uint256"
        }
      ],
      "name": "UpdatedFinalizedState",
      "type": "event"
    },
    {
      "anonymous": false,
      "inputs": [
        {
          "indexed": false,
          "internalType": "bytes32",
          "name": "assetId",
          "type": "bytes32"
        },
        {
          "indexed": false,
          "internalType": "address",
          "name": "prevObligor",
          "type": "address"
        },
        {
          "indexed": false,
          "internalType": "address",
          "name": "newObligor",
          "type": "address"
        }
      ],
      "name": "UpdatedObligor",
      "type": "event"
    },
    {
      "anonymous": false,
      "inputs": [
        {
          "indexed": true,
          "internalType": "bytes32",
          "name": "assetId",
          "type": "bytes32"
        },
        {
          "indexed": false,
          "internalType": "uint256",
          "name": "statusDate",
          "type": "uint256"
        }
      ],
      "name": "UpdatedState",
      "type": "event"
    },
    {
      "anonymous": false,
      "inputs": [
        {
          "indexed": true,
          "internalType": "bytes32",
          "name": "assetId",
          "type": "bytes32"
        }
      ],
      "name": "UpdatedTerms",
      "type": "event"
    },
    {
      "inputs": [
        {
          "internalType": "address",
          "name": "actor",
          "type": "address"
        }
      ],
      "name": "approveActor",
      "outputs": [],
      "stateMutability": "nonpayable",
      "type": "function"
    },
    {
      "inputs": [
        {
          "internalType": "address",
          "name": "",
          "type": "address"
        }
      ],
      "name": "approvedActors",
      "outputs": [
        {
          "internalType": "bool",
          "name": "",
          "type": "bool"
        }
      ],
      "stateMutability": "view",
      "type": "function"
    },
    {
      "inputs": [
        {
          "internalType": "bytes32",
          "name": "assetId",
          "type": "bytes32"
        }
      ],
      "name": "getActor",
      "outputs": [
        {
          "internalType": "address",
          "name": "",
          "type": "address"
        }
      ],
      "stateMutability": "view",
      "type": "function"
    },
    {
      "inputs": [
        {
          "internalType": "bytes32",
          "name": "assetId",
          "type": "bytes32"
        },
        {
          "internalType": "bytes32",
          "name": "attribute",
          "type": "bytes32"
        }
      ],
      "name": "getAddressValueForTermsAttribute",
      "outputs": [
        {
          "internalType": "address",
          "name": "",
          "type": "address"
        }
      ],
      "stateMutability": "view",
      "type": "function"
    },
    {
      "inputs": [
        {
          "internalType": "bytes32",
          "name": "assetId",
          "type": "bytes32"
        },
        {
          "internalType": "bytes32",
          "name": "attribute",
          "type": "bytes32"
        }
      ],
      "name": "getBytes32ValueForTermsAttribute",
      "outputs": [
        {
          "internalType": "bytes32",
          "name": "",
          "type": "bytes32"
        }
      ],
      "stateMutability": "view",
      "type": "function"
    },
    {
      "inputs": [
        {
          "internalType": "bytes32",
          "name": "assetId",
          "type": "bytes32"
        },
        {
          "internalType": "bytes32",
          "name": "attribute",
          "type": "bytes32"
        }
      ],
      "name": "getContractReferenceValueForTermsAttribute",
      "outputs": [
        {
          "components": [
            {
              "internalType": "bytes32",
              "name": "object",
              "type": "bytes32"
            },
            {
              "internalType": "bytes32",
              "name": "object2",
              "type": "bytes32"
            },
            {
              "internalType": "enum ContractReferenceType",
              "name": "_type",
              "type": "uint8"
            },
            {
              "internalType": "enum ContractReferenceRole",
              "name": "role",
              "type": "uint8"
            }
          ],
          "internalType": "struct ContractReference",
          "name": "",
          "type": "tuple"
        }
      ],
      "stateMutability": "view",
      "type": "function"
    },
    {
      "inputs": [
        {
          "internalType": "bytes32",
          "name": "assetId",
          "type": "bytes32"
        },
        {
          "internalType": "bytes32",
          "name": "attribute",
          "type": "bytes32"
        }
      ],
      "name": "getCycleValueForTermsAttribute",
      "outputs": [
        {
          "components": [
            {
              "internalType": "uint256",
              "name": "i",
              "type": "uint256"
            },
            {
              "internalType": "enum P",
              "name": "p",
              "type": "uint8"
            },
            {
              "internalType": "enum S",
              "name": "s",
              "type": "uint8"
            },
            {
              "internalType": "bool",
              "name": "isSet",
              "type": "bool"
            }
          ],
          "internalType": "struct IPS",
          "name": "",
          "type": "tuple"
        }
      ],
      "stateMutability": "view",
      "type": "function"
    },
    {
      "inputs": [
        {
          "internalType": "bytes32",
          "name": "assetId",
          "type": "bytes32"
        }
      ],
      "name": "getEngine",
      "outputs": [
        {
          "internalType": "address",
          "name": "",
          "type": "address"
        }
      ],
      "stateMutability": "view",
      "type": "function"
    },
    {
      "inputs": [
        {
          "internalType": "bytes32",
          "name": "assetId",
          "type": "bytes32"
        },
        {
          "internalType": "bytes32",
          "name": "attribute",
          "type": "bytes32"
        }
      ],
      "name": "getEnumValueForStateAttribute",
      "outputs": [
        {
          "internalType": "uint8",
          "name": "",
          "type": "uint8"
        }
      ],
      "stateMutability": "view",
      "type": "function"
    },
    {
      "inputs": [
        {
          "internalType": "bytes32",
          "name": "assetId",
          "type": "bytes32"
        },
        {
          "internalType": "bytes32",
          "name": "attribute",
          "type": "bytes32"
        }
      ],
      "name": "getEnumValueForTermsAttribute",
      "outputs": [
        {
          "internalType": "uint8",
          "name": "",
          "type": "uint8"
        }
      ],
      "stateMutability": "view",
      "type": "function"
    },
    {
      "inputs": [
        {
          "internalType": "bytes32",
          "name": "assetId",
          "type": "bytes32"
        },
        {
          "internalType": "uint256",
          "name": "index",
          "type": "uint256"
        }
      ],
      "name": "getEventAtIndex",
      "outputs": [
        {
          "internalType": "bytes32",
          "name": "",
          "type": "bytes32"
        }
      ],
      "stateMutability": "view",
      "type": "function"
    },
    {
      "inputs": [
        {
          "internalType": "bytes32",
          "name": "assetId",
          "type": "bytes32"
        }
      ],
      "name": "getFinalizedState",
      "outputs": [
        {
          "components": [
            {
              "internalType": "enum ContractPerformance",
              "name": "contractPerformance",
              "type": "uint8"
            },
            {
              "internalType": "uint256",
              "name": "statusDate",
              "type": "uint256"
            },
            {
              "internalType": "uint256",
              "name": "nonPerformingDate",
              "type": "uint256"
            },
            {
              "internalType": "uint256",
              "name": "maturityDate",
              "type": "uint256"
            },
            {
              "internalType": "uint256",
              "name": "exerciseDate",
              "type": "uint256"
            },
            {
              "internalType": "uint256",
              "name": "terminationDate",
              "type": "uint256"
            },
            {
              "internalType": "uint256",
              "name": "lastCouponFixingDate",
              "type": "uint256"
            },
            {
              "internalType": "uint256",
              "name": "lastDividendFixingDate",
              "type": "uint256"
            },
            {
              "internalType": "int256",
              "name": "notionalPrincipal",
              "type": "int256"
            },
            {
              "internalType": "int256",
              "name": "accruedInterest",
              "type": "int256"
            },
            {
              "internalType": "int256",
              "name": "feeAccrued",
              "type": "int256"
            },
            {
              "internalType": "int256",
              "name": "nominalInterestRate",
              "type": "int256"
            },
            {
              "internalType": "int256",
              "name": "interestScalingMultiplier",
              "type": "int256"
            },
            {
              "internalType": "int256",
              "name": "notionalScalingMultiplier",
              "type": "int256"
            },
            {
              "internalType": "int256",
              "name": "nextPrincipalRedemptionPayment",
              "type": "int256"
            },
            {
              "internalType": "int256",
              "name": "exerciseAmount",
              "type": "int256"
            },
            {
              "internalType": "int256",
              "name": "exerciseQuantity",
              "type": "int256"
            },
            {
              "internalType": "int256",
              "name": "quantity",
              "type": "int256"
            },
            {
              "internalType": "int256",
              "name": "couponAmountFixed",
              "type": "int256"
            },
            {
              "internalType": "int256",
              "name": "marginFactor",
              "type": "int256"
            },
            {
              "internalType": "int256",
              "name": "adjustmentFactor",
              "type": "int256"
            },
            {
              "internalType": "int256",
              "name": "dividendPaymentAmount",
              "type": "int256"
            },
            {
              "internalType": "int256",
              "name": "splitRatio",
              "type": "int256"
            }
          ],
          "internalType": "struct State",
          "name": "",
          "type": "tuple"
        }
      ],
      "stateMutability": "view",
      "type": "function"
    },
    {
      "inputs": [
        {
          "internalType": "bytes32",
          "name": "assetId",
          "type": "bytes32"
        },
        {
          "internalType": "bytes32",
          "name": "attribute",
          "type": "bytes32"
        }
      ],
      "name": "getIntValueForStateAttribute",
      "outputs": [
        {
          "internalType": "int256",
          "name": "",
          "type": "int256"
        }
      ],
      "stateMutability": "view",
      "type": "function"
    },
    {
      "inputs": [
        {
          "internalType": "bytes32",
          "name": "assetId",
          "type": "bytes32"
        },
        {
          "internalType": "bytes32",
          "name": "attribute",
          "type": "bytes32"
        }
      ],
      "name": "getIntValueForTermsAttribute",
      "outputs": [
        {
          "internalType": "int256",
          "name": "",
          "type": "int256"
        }
      ],
      "stateMutability": "view",
      "type": "function"
    },
    {
      "inputs": [
        {
          "internalType": "bytes32",
          "name": "assetId",
          "type": "bytes32"
        }
      ],
      "name": "getNextScheduleIndex",
      "outputs": [
        {
          "internalType": "uint256",
          "name": "",
          "type": "uint256"
        }
      ],
      "stateMutability": "view",
      "type": "function"
    },
    {
      "inputs": [
        {
          "internalType": "bytes32",
          "name": "assetId",
          "type": "bytes32"
        }
      ],
      "name": "getNextScheduledEvent",
      "outputs": [
        {
          "internalType": "bytes32",
          "name": "",
          "type": "bytes32"
        }
      ],
      "stateMutability": "view",
      "type": "function"
    },
    {
      "inputs": [
        {
          "internalType": "bytes32",
          "name": "assetId",
          "type": "bytes32"
        }
      ],
      "name": "getNextUnderlyingEvent",
      "outputs": [
        {
          "internalType": "bytes32",
          "name": "",
          "type": "bytes32"
        }
      ],
      "stateMutability": "view",
      "type": "function"
    },
    {
      "inputs": [
        {
          "internalType": "bytes32",
          "name": "assetId",
          "type": "bytes32"
        }
      ],
      "name": "getOwnership",
      "outputs": [
        {
          "components": [
            {
              "internalType": "address",
              "name": "creatorObligor",
              "type": "address"
            },
            {
              "internalType": "address",
              "name": "creatorBeneficiary",
              "type": "address"
            },
            {
              "internalType": "address",
              "name": "counterpartyObligor",
              "type": "address"
            },
            {
              "internalType": "address",
              "name": "counterpartyBeneficiary",
              "type": "address"
            }
          ],
          "internalType": "struct AssetOwnership",
          "name": "",
          "type": "tuple"
        }
      ],
      "stateMutability": "view",
      "type": "function"
    },
    {
      "inputs": [
        {
          "internalType": "bytes32",
          "name": "assetId",
          "type": "bytes32"
        }
      ],
      "name": "getPendingEvent",
      "outputs": [
        {
          "internalType": "bytes32",
          "name": "",
          "type": "bytes32"
        }
      ],
      "stateMutability": "view",
      "type": "function"
    },
    {
      "inputs": [
        {
          "internalType": "bytes32",
          "name": "assetId",
          "type": "bytes32"
        },
        {
          "internalType": "bytes32",
          "name": "attribute",
          "type": "bytes32"
        }
      ],
      "name": "getPeriodValueForTermsAttribute",
      "outputs": [
        {
          "components": [
            {
              "internalType": "uint256",
              "name": "i",
              "type": "uint256"
            },
            {
              "internalType": "enum P",
              "name": "p",
              "type": "uint8"
            },
            {
              "internalType": "bool",
              "name": "isSet",
              "type": "bool"
            }
          ],
          "internalType": "struct IP",
          "name": "",
          "type": "tuple"
        }
      ],
      "stateMutability": "view",
      "type": "function"
    },
    {
      "inputs": [
        {
          "internalType": "bytes32",
          "name": "assetId",
          "type": "bytes32"
        }
      ],
      "name": "getSchedule",
      "outputs": [
        {
          "internalType": "bytes32[]",
          "name": "",
          "type": "bytes32[]"
        }
      ],
      "stateMutability": "view",
      "type": "function"
    },
    {
      "inputs": [
        {
          "internalType": "bytes32",
          "name": "assetId",
          "type": "bytes32"
        }
      ],
      "name": "getScheduleLength",
      "outputs": [
        {
          "internalType": "uint256",
          "name": "",
          "type": "uint256"
        }
      ],
      "stateMutability": "view",
      "type": "function"
    },
    {
      "inputs": [
        {
          "internalType": "bytes32",
          "name": "assetId",
          "type": "bytes32"
        }
      ],
      "name": "getState",
      "outputs": [
        {
          "components": [
            {
              "internalType": "enum ContractPerformance",
              "name": "contractPerformance",
              "type": "uint8"
            },
            {
              "internalType": "uint256",
              "name": "statusDate",
              "type": "uint256"
            },
            {
              "internalType": "uint256",
              "name": "nonPerformingDate",
              "type": "uint256"
            },
            {
              "internalType": "uint256",
              "name": "maturityDate",
              "type": "uint256"
            },
            {
              "internalType": "uint256",
              "name": "exerciseDate",
              "type": "uint256"
            },
            {
              "internalType": "uint256",
              "name": "terminationDate",
              "type": "uint256"
            },
            {
              "internalType": "uint256",
              "name": "lastCouponFixingDate",
              "type": "uint256"
            },
            {
              "internalType": "uint256",
              "name": "lastDividendFixingDate",
              "type": "uint256"
            },
            {
              "internalType": "int256",
              "name": "notionalPrincipal",
              "type": "int256"
            },
            {
              "internalType": "int256",
              "name": "accruedInterest",
              "type": "int256"
            },
            {
              "internalType": "int256",
              "name": "feeAccrued",
              "type": "int256"
            },
            {
              "internalType": "int256",
              "name": "nominalInterestRate",
              "type": "int256"
            },
            {
              "internalType": "int256",
              "name": "interestScalingMultiplier",
              "type": "int256"
            },
            {
              "internalType": "int256",
              "name": "notionalScalingMultiplier",
              "type": "int256"
            },
            {
              "internalType": "int256",
              "name": "nextPrincipalRedemptionPayment",
              "type": "int256"
            },
            {
              "internalType": "int256",
              "name": "exerciseAmount",
              "type": "int256"
            },
            {
              "internalType": "int256",
              "name": "exerciseQuantity",
              "type": "int256"
            },
            {
              "internalType": "int256",
              "name": "quantity",
              "type": "int256"
            },
            {
              "internalType": "int256",
              "name": "couponAmountFixed",
              "type": "int256"
            },
            {
              "internalType": "int256",
              "name": "marginFactor",
              "type": "int256"
            },
            {
              "internalType": "int256",
              "name": "adjustmentFactor",
              "type": "int256"
            },
            {
              "internalType": "int256",
              "name": "dividendPaymentAmount",
              "type": "int256"
            },
            {
              "internalType": "int256",
              "name": "splitRatio",
              "type": "int256"
            }
          ],
          "internalType": "struct State",
          "name": "",
          "type": "tuple"
        }
      ],
      "stateMutability": "view",
      "type": "function"
    },
    {
      "inputs": [
        {
          "internalType": "bytes32",
          "name": "assetId",
          "type": "bytes32"
        }
      ],
      "name": "getTerms",
      "outputs": [
        {
          "components": [
            {
              "internalType": "enum ContractType",
              "name": "contractType",
              "type": "uint8"
            },
            {
              "internalType": "enum Calendar",
              "name": "calendar",
              "type": "uint8"
            },
            {
              "internalType": "enum ContractRole",
              "name": "contractRole",
              "type": "uint8"
            },
            {
              "internalType": "enum DayCountConvention",
              "name": "dayCountConvention",
              "type": "uint8"
            },
            {
              "internalType": "enum BusinessDayConvention",
              "name": "businessDayConvention",
              "type": "uint8"
            },
            {
              "internalType": "enum EndOfMonthConvention",
              "name": "endOfMonthConvention",
              "type": "uint8"
            },
            {
              "internalType": "enum ScalingEffect",
              "name": "scalingEffect",
              "type": "uint8"
            },
            {
              "internalType": "enum PenaltyType",
              "name": "penaltyType",
              "type": "uint8"
            },
            {
              "internalType": "enum FeeBasis",
              "name": "feeBasis",
              "type": "uint8"
            },
            {
              "internalType": "address",
              "name": "currency",
              "type": "address"
            },
            {
              "internalType": "address",
              "name": "settlementCurrency",
              "type": "address"
            },
            {
              "internalType": "bytes32",
              "name": "marketObjectCodeRateReset",
              "type": "bytes32"
            },
            {
              "internalType": "uint256",
              "name": "contractDealDate",
              "type": "uint256"
            },
            {
              "internalType": "uint256",
              "name": "statusDate",
              "type": "uint256"
            },
            {
              "internalType": "uint256",
              "name": "initialExchangeDate",
              "type": "uint256"
            },
            {
              "internalType": "uint256",
              "name": "maturityDate",
              "type": "uint256"
            },
            {
              "internalType": "uint256",
              "name": "purchaseDate",
              "type": "uint256"
            },
            {
              "internalType": "uint256",
              "name": "capitalizationEndDate",
              "type": "uint256"
            },
            {
              "internalType": "uint256",
              "name": "cycleAnchorDateOfInterestPayment",
              "type": "uint256"
            },
            {
              "internalType": "uint256",
              "name": "cycleAnchorDateOfRateReset",
              "type": "uint256"
            },
            {
              "internalType": "uint256",
              "name": "cycleAnchorDateOfScalingIndex",
              "type": "uint256"
            },
            {
              "internalType": "uint256",
              "name": "cycleAnchorDateOfFee",
              "type": "uint256"
            },
            {
              "internalType": "int256",
              "name": "notionalPrincipal",
              "type": "int256"
            },
            {
              "internalType": "int256",
              "name": "nominalInterestRate",
              "type": "int256"
            },
            {
              "internalType": "int256",
              "name": "accruedInterest",
              "type": "int256"
            },
            {
              "internalType": "int256",
              "name": "rateMultiplier",
              "type": "int256"
            },
            {
              "internalType": "int256",
              "name": "rateSpread",
              "type": "int256"
            },
            {
              "internalType": "int256",
              "name": "nextResetRate",
              "type": "int256"
            },
            {
              "internalType": "int256",
              "name": "feeRate",
              "type": "int256"
            },
            {
              "internalType": "int256",
              "name": "feeAccrued",
              "type": "int256"
            },
            {
              "internalType": "int256",
              "name": "penaltyRate",
              "type": "int256"
            },
            {
              "internalType": "int256",
              "name": "delinquencyRate",
              "type": "int256"
            },
            {
              "internalType": "int256",
              "name": "premiumDiscountAtIED",
              "type": "int256"
            },
            {
              "internalType": "int256",
              "name": "priceAtPurchaseDate",
              "type": "int256"
            },
            {
              "internalType": "int256",
              "name": "lifeCap",
              "type": "int256"
            },
            {
              "internalType": "int256",
              "name": "lifeFloor",
              "type": "int256"
            },
            {
              "internalType": "int256",
              "name": "periodCap",
              "type": "int256"
            },
            {
              "internalType": "int256",
              "name": "periodFloor",
              "type": "int256"
            },
            {
              "components": [
                {
                  "internalType": "uint256",
                  "name": "i",
                  "type": "uint256"
                },
                {
                  "internalType": "enum P",
                  "name": "p",
                  "type": "uint8"
                },
                {
                  "internalType": "bool",
                  "name": "isSet",
                  "type": "bool"
                }
              ],
              "internalType": "struct IP",
              "name": "gracePeriod",
              "type": "tuple"
            },
            {
              "components": [
                {
                  "internalType": "uint256",
                  "name": "i",
                  "type": "uint256"
                },
                {
                  "internalType": "enum P",
                  "name": "p",
                  "type": "uint8"
                },
                {
                  "internalType": "bool",
                  "name": "isSet",
                  "type": "bool"
                }
              ],
              "internalType": "struct IP",
              "name": "delinquencyPeriod",
              "type": "tuple"
            },
            {
              "components": [
                {
                  "internalType": "uint256",
                  "name": "i",
                  "type": "uint256"
                },
                {
                  "internalType": "enum P",
                  "name": "p",
                  "type": "uint8"
                },
                {
                  "internalType": "enum S",
                  "name": "s",
                  "type": "uint8"
                },
                {
                  "internalType": "bool",
                  "name": "isSet",
                  "type": "bool"
                }
              ],
              "internalType": "struct IPS",
              "name": "cycleOfInterestPayment",
              "type": "tuple"
            },
            {
              "components": [
                {
                  "internalType": "uint256",
                  "name": "i",
                  "type": "uint256"
                },
                {
                  "internalType": "enum P",
                  "name": "p",
                  "type": "uint8"
                },
                {
                  "internalType": "enum S",
                  "name": "s",
                  "type": "uint8"
                },
                {
                  "internalType": "bool",
                  "name": "isSet",
                  "type": "bool"
                }
              ],
              "internalType": "struct IPS",
              "name": "cycleOfRateReset",
              "type": "tuple"
            },
            {
              "components": [
                {
                  "internalType": "uint256",
                  "name": "i",
                  "type": "uint256"
                },
                {
                  "internalType": "enum P",
                  "name": "p",
                  "type": "uint8"
                },
                {
                  "internalType": "enum S",
                  "name": "s",
                  "type": "uint8"
                },
                {
                  "internalType": "bool",
                  "name": "isSet",
                  "type": "bool"
                }
              ],
              "internalType": "struct IPS",
              "name": "cycleOfScalingIndex",
              "type": "tuple"
            },
            {
              "components": [
                {
                  "internalType": "uint256",
                  "name": "i",
                  "type": "uint256"
                },
                {
                  "internalType": "enum P",
                  "name": "p",
                  "type": "uint8"
                },
                {
                  "internalType": "enum S",
                  "name": "s",
                  "type": "uint8"
                },
                {
                  "internalType": "bool",
                  "name": "isSet",
                  "type": "bool"
                }
              ],
              "internalType": "struct IPS",
              "name": "cycleOfFee",
              "type": "tuple"
            }
          ],
          "internalType": "struct PAMTerms",
          "name": "",
          "type": "tuple"
        }
      ],
      "stateMutability": "view",
      "type": "function"
    },
    {
      "inputs": [
        {
          "internalType": "bytes32",
          "name": "assetId",
          "type": "bytes32"
        },
        {
          "internalType": "bytes32",
          "name": "attribute",
          "type": "bytes32"
        }
      ],
      "name": "getUIntValueForTermsAttribute",
      "outputs": [
        {
          "internalType": "uint256",
          "name": "",
          "type": "uint256"
        }
      ],
      "stateMutability": "view",
      "type": "function"
    },
    {
      "inputs": [
        {
          "internalType": "bytes32",
          "name": "assetId",
          "type": "bytes32"
        },
        {
          "internalType": "bytes32",
          "name": "attribute",
          "type": "bytes32"
        }
      ],
      "name": "getUintValueForStateAttribute",
      "outputs": [
        {
          "internalType": "uint256",
          "name": "",
          "type": "uint256"
        }
      ],
      "stateMutability": "view",
      "type": "function"
    },
    {
      "inputs": [
        {
          "internalType": "bytes32",
          "name": "assetId",
          "type": "bytes32"
        },
        {
          "internalType": "bytes4",
          "name": "methodSignature",
          "type": "bytes4"
        },
        {
          "internalType": "address",
          "name": "account",
          "type": "address"
        }
      ],
      "name": "grantAccess",
      "outputs": [],
      "stateMutability": "nonpayable",
      "type": "function"
    },
    {
      "inputs": [
        {
          "internalType": "bytes32",
          "name": "assetId",
          "type": "bytes32"
        },
        {
          "internalType": "bytes4",
          "name": "methodSignature",
          "type": "bytes4"
        },
        {
          "internalType": "address",
          "name": "account",
          "type": "address"
        }
      ],
      "name": "hasAccess",
      "outputs": [
        {
          "internalType": "bool",
          "name": "",
          "type": "bool"
        }
      ],
      "stateMutability": "view",
      "type": "function"
    },
    {
      "inputs": [
        {
          "internalType": "bytes32",
          "name": "assetId",
          "type": "bytes32"
        },
        {
          "internalType": "address",
          "name": "account",
          "type": "address"
        }
      ],
      "name": "hasRootAccess",
      "outputs": [
        {
          "internalType": "bool",
          "name": "",
          "type": "bool"
        }
      ],
      "stateMutability": "view",
      "type": "function"
    },
    {
      "inputs": [
        {
          "internalType": "bytes32",
          "name": "assetId",
          "type": "bytes32"
        },
        {
          "internalType": "bytes32",
          "name": "_event",
          "type": "bytes32"
        }
      ],
      "name": "isEventSettled",
      "outputs": [
        {
          "internalType": "bool",
          "name": "",
          "type": "bool"
        },
        {
          "internalType": "int256",
          "name": "",
          "type": "int256"
        }
      ],
      "stateMutability": "view",
      "type": "function"
    },
    {
      "inputs": [
        {
          "internalType": "bytes32",
          "name": "assetId",
          "type": "bytes32"
        }
      ],
      "name": "isRegistered",
      "outputs": [
        {
          "internalType": "bool",
          "name": "",
          "type": "bool"
        }
      ],
      "stateMutability": "view",
      "type": "function"
    },
    {
      "inputs": [
        {
          "internalType": "bytes32",
          "name": "assetId",
          "type": "bytes32"
        },
        {
          "internalType": "bytes32",
          "name": "_event",
          "type": "bytes32"
        },
        {
          "internalType": "int256",
          "name": "_payoff",
          "type": "int256"
        }
      ],
      "name": "markEventAsSettled",
      "outputs": [],
      "stateMutability": "nonpayable",
      "type": "function"
    },
    {
      "inputs": [],
      "name": "owner",
      "outputs": [
        {
          "internalType": "address",
          "name": "",
          "type": "address"
        }
      ],
      "stateMutability": "view",
      "type": "function"
    },
    {
      "inputs": [
        {
          "internalType": "bytes32",
          "name": "assetId",
          "type": "bytes32"
        }
      ],
      "name": "popNextScheduledEvent",
      "outputs": [
        {
          "internalType": "bytes32",
          "name": "",
          "type": "bytes32"
        }
      ],
      "stateMutability": "nonpayable",
      "type": "function"
    },
    {
      "inputs": [
        {
          "internalType": "bytes32",
          "name": "assetId",
          "type": "bytes32"
        }
      ],
      "name": "popPendingEvent",
      "outputs": [
        {
          "internalType": "bytes32",
          "name": "",
          "type": "bytes32"
        }
      ],
      "stateMutability": "nonpayable",
      "type": "function"
    },
    {
      "inputs": [
        {
          "internalType": "bytes32",
          "name": "assetId",
          "type": "bytes32"
        },
        {
          "internalType": "bytes32",
          "name": "pendingEvent",
          "type": "bytes32"
        }
      ],
      "name": "pushPendingEvent",
      "outputs": [],
      "stateMutability": "nonpayable",
      "type": "function"
    },
    {
      "inputs": [
        {
          "internalType": "bytes32",
          "name": "assetId",
          "type": "bytes32"
        },
        {
          "components": [
            {
              "internalType": "enum ContractType",
              "name": "contractType",
              "type": "uint8"
            },
            {
              "internalType": "enum Calendar",
              "name": "calendar",
              "type": "uint8"
            },
            {
              "internalType": "enum ContractRole",
              "name": "contractRole",
              "type": "uint8"
            },
            {
              "internalType": "enum DayCountConvention",
              "name": "dayCountConvention",
              "type": "uint8"
            },
            {
              "internalType": "enum BusinessDayConvention",
              "name": "businessDayConvention",
              "type": "uint8"
            },
            {
              "internalType": "enum EndOfMonthConvention",
              "name": "endOfMonthConvention",
              "type": "uint8"
            },
            {
              "internalType": "enum ScalingEffect",
              "name": "scalingEffect",
              "type": "uint8"
            },
            {
              "internalType": "enum PenaltyType",
              "name": "penaltyType",
              "type": "uint8"
            },
            {
              "internalType": "enum FeeBasis",
              "name": "feeBasis",
              "type": "uint8"
            },
            {
              "internalType": "address",
              "name": "currency",
              "type": "address"
            },
            {
              "internalType": "address",
              "name": "settlementCurrency",
              "type": "address"
            },
            {
              "internalType": "bytes32",
              "name": "marketObjectCodeRateReset",
              "type": "bytes32"
            },
            {
              "internalType": "uint256",
              "name": "contractDealDate",
              "type": "uint256"
            },
            {
              "internalType": "uint256",
              "name": "statusDate",
              "type": "uint256"
            },
            {
              "internalType": "uint256",
              "name": "initialExchangeDate",
              "type": "uint256"
            },
            {
              "internalType": "uint256",
              "name": "maturityDate",
              "type": "uint256"
            },
            {
              "internalType": "uint256",
              "name": "purchaseDate",
              "type": "uint256"
            },
            {
              "internalType": "uint256",
              "name": "capitalizationEndDate",
              "type": "uint256"
            },
            {
              "internalType": "uint256",
              "name": "cycleAnchorDateOfInterestPayment",
              "type": "uint256"
            },
            {
              "internalType": "uint256",
              "name": "cycleAnchorDateOfRateReset",
              "type": "uint256"
            },
            {
              "internalType": "uint256",
              "name": "cycleAnchorDateOfScalingIndex",
              "type": "uint256"
            },
            {
              "internalType": "uint256",
              "name": "cycleAnchorDateOfFee",
              "type": "uint256"
            },
            {
              "internalType": "int256",
              "name": "notionalPrincipal",
              "type": "int256"
            },
            {
              "internalType": "int256",
              "name": "nominalInterestRate",
              "type": "int256"
            },
            {
              "internalType": "int256",
              "name": "accruedInterest",
              "type": "int256"
            },
            {
              "internalType": "int256",
              "name": "rateMultiplier",
              "type": "int256"
            },
            {
              "internalType": "int256",
              "name": "rateSpread",
              "type": "int256"
            },
            {
              "internalType": "int256",
              "name": "nextResetRate",
              "type": "int256"
            },
            {
              "internalType": "int256",
              "name": "feeRate",
              "type": "int256"
            },
            {
              "internalType": "int256",
              "name": "feeAccrued",
              "type": "int256"
            },
            {
              "internalType": "int256",
              "name": "penaltyRate",
              "type": "int256"
            },
            {
              "internalType": "int256",
              "name": "delinquencyRate",
              "type": "int256"
            },
            {
              "internalType": "int256",
              "name": "premiumDiscountAtIED",
              "type": "int256"
            },
            {
              "internalType": "int256",
              "name": "priceAtPurchaseDate",
              "type": "int256"
            },
            {
              "internalType": "int256",
              "name": "lifeCap",
              "type": "int256"
            },
            {
              "internalType": "int256",
              "name": "lifeFloor",
              "type": "int256"
            },
            {
              "internalType": "int256",
              "name": "periodCap",
              "type": "int256"
            },
            {
              "internalType": "int256",
              "name": "periodFloor",
              "type": "int256"
            },
            {
              "components": [
                {
                  "internalType": "uint256",
                  "name": "i",
                  "type": "uint256"
                },
                {
                  "internalType": "enum P",
                  "name": "p",
                  "type": "uint8"
                },
                {
                  "internalType": "bool",
                  "name": "isSet",
                  "type": "bool"
                }
              ],
              "internalType": "struct IP",
              "name": "gracePeriod",
              "type": "tuple"
            },
            {
              "components": [
                {
                  "internalType": "uint256",
                  "name": "i",
                  "type": "uint256"
                },
                {
                  "internalType": "enum P",
                  "name": "p",
                  "type": "uint8"
                },
                {
                  "internalType": "bool",
                  "name": "isSet",
                  "type": "bool"
                }
              ],
              "internalType": "struct IP",
              "name": "delinquencyPeriod",
              "type": "tuple"
            },
            {
              "components": [
                {
                  "internalType": "uint256",
                  "name": "i",
                  "type": "uint256"
                },
                {
                  "internalType": "enum P",
                  "name": "p",
                  "type": "uint8"
                },
                {
                  "internalType": "enum S",
                  "name": "s",
                  "type": "uint8"
                },
                {
                  "internalType": "bool",
                  "name": "isSet",
                  "type": "bool"
                }
              ],
              "internalType": "struct IPS",
              "name": "cycleOfInterestPayment",
              "type": "tuple"
            },
            {
              "components": [
                {
                  "internalType": "uint256",
                  "name": "i",
                  "type": "uint256"
                },
                {
                  "internalType": "enum P",
                  "name": "p",
                  "type": "uint8"
                },
                {
                  "internalType": "enum S",
                  "name": "s",
                  "type": "uint8"
                },
                {
                  "internalType": "bool",
                  "name": "isSet",
                  "type": "bool"
                }
              ],
              "internalType": "struct IPS",
              "name": "cycleOfRateReset",
              "type": "tuple"
            },
            {
              "components": [
                {
                  "internalType": "uint256",
                  "name": "i",
                  "type": "uint256"
                },
                {
                  "internalType": "enum P",
                  "name": "p",
                  "type": "uint8"
                },
                {
                  "internalType": "enum S",
                  "name": "s",
                  "type": "uint8"
                },
                {
                  "internalType": "bool",
                  "name": "isSet",
                  "type": "bool"
                }
              ],
              "internalType": "struct IPS",
              "name": "cycleOfScalingIndex",
              "type": "tuple"
            },
            {
              "components": [
                {
                  "internalType": "uint256",
                  "name": "i",
                  "type": "uint256"
                },
                {
                  "internalType": "enum P",
                  "name": "p",
                  "type": "uint8"
                },
                {
                  "internalType": "enum S",
                  "name": "s",
                  "type": "uint8"
                },
                {
                  "internalType": "bool",
                  "name": "isSet",
                  "type": "bool"
                }
              ],
              "internalType": "struct IPS",
              "name": "cycleOfFee",
              "type": "tuple"
            }
          ],
          "internalType": "struct PAMTerms",
          "name": "terms",
          "type": "tuple"
        },
        {
          "components": [
            {
              "internalType": "enum ContractPerformance",
              "name": "contractPerformance",
              "type": "uint8"
            },
            {
              "internalType": "uint256",
              "name": "statusDate",
              "type": "uint256"
            },
            {
              "internalType": "uint256",
              "name": "nonPerformingDate",
              "type": "uint256"
            },
            {
              "internalType": "uint256",
              "name": "maturityDate",
              "type": "uint256"
            },
            {
              "internalType": "uint256",
              "name": "exerciseDate",
              "type": "uint256"
            },
            {
              "internalType": "uint256",
              "name": "terminationDate",
              "type": "uint256"
            },
            {
              "internalType": "uint256",
              "name": "lastCouponFixingDate",
              "type": "uint256"
            },
            {
              "internalType": "uint256",
              "name": "lastDividendFixingDate",
              "type": "uint256"
            },
            {
              "internalType": "int256",
              "name": "notionalPrincipal",
              "type": "int256"
            },
            {
              "internalType": "int256",
              "name": "accruedInterest",
              "type": "int256"
            },
            {
              "internalType": "int256",
              "name": "feeAccrued",
              "type": "int256"
            },
            {
              "internalType": "int256",
              "name": "nominalInterestRate",
              "type": "int256"
            },
            {
              "internalType": "int256",
              "name": "interestScalingMultiplier",
              "type": "int256"
            },
            {
              "internalType": "int256",
              "name": "notionalScalingMultiplier",
              "type": "int256"
            },
            {
              "internalType": "int256",
              "name": "nextPrincipalRedemptionPayment",
              "type": "int256"
            },
            {
              "internalType": "int256",
              "name": "exerciseAmount",
              "type": "int256"
            },
            {
              "internalType": "int256",
              "name": "exerciseQuantity",
              "type": "int256"
            },
            {
              "internalType": "int256",
              "name": "quantity",
              "type": "int256"
            },
            {
              "internalType": "int256",
              "name": "couponAmountFixed",
              "type": "int256"
            },
            {
              "internalType": "int256",
              "name": "marginFactor",
              "type": "int256"
            },
            {
              "internalType": "int256",
              "name": "adjustmentFactor",
              "type": "int256"
            },
            {
              "internalType": "int256",
              "name": "dividendPaymentAmount",
              "type": "int256"
            },
            {
              "internalType": "int256",
              "name": "splitRatio",
              "type": "int256"
            }
          ],
          "internalType": "struct State",
          "name": "state",
          "type": "tuple"
        },
        {
          "internalType": "bytes32[]",
          "name": "schedule",
          "type": "bytes32[]"
        },
        {
          "components": [
            {
              "internalType": "address",
              "name": "creatorObligor",
              "type": "address"
            },
            {
              "internalType": "address",
              "name": "creatorBeneficiary",
              "type": "address"
            },
            {
              "internalType": "address",
              "name": "counterpartyObligor",
              "type": "address"
            },
            {
              "internalType": "address",
              "name": "counterpartyBeneficiary",
              "type": "address"
            }
          ],
          "internalType": "struct AssetOwnership",
          "name": "ownership",
          "type": "tuple"
        },
        {
          "internalType": "address",
          "name": "engine",
          "type": "address"
        },
        {
          "internalType": "address",
          "name": "actor",
          "type": "address"
        },
        {
          "internalType": "address",
          "name": "admin",
          "type": "address"
        }
      ],
      "name": "registerAsset",
      "outputs": [],
      "stateMutability": "nonpayable",
      "type": "function"
    },
    {
      "inputs": [],
      "name": "renounceOwnership",
      "outputs": [],
      "stateMutability": "nonpayable",
      "type": "function"
    },
    {
      "inputs": [
        {
          "internalType": "bytes32",
          "name": "assetId",
          "type": "bytes32"
        },
        {
          "internalType": "bytes4",
          "name": "methodSignature",
          "type": "bytes4"
        },
        {
          "internalType": "address",
          "name": "account",
          "type": "address"
        }
      ],
      "name": "revokeAccess",
      "outputs": [],
      "stateMutability": "nonpayable",
      "type": "function"
    },
    {
      "inputs": [
        {
          "internalType": "bytes32",
          "name": "assetId",
          "type": "bytes32"
        },
        {
          "internalType": "address",
          "name": "actor",
          "type": "address"
        }
      ],
      "name": "setActor",
      "outputs": [],
      "stateMutability": "nonpayable",
      "type": "function"
    },
    {
      "inputs": [
        {
          "internalType": "bytes32",
          "name": "assetId",
          "type": "bytes32"
        },
        {
          "internalType": "address",
          "name": "newCounterpartyBeneficiary",
          "type": "address"
        }
      ],
      "name": "setCounterpartyBeneficiary",
      "outputs": [],
      "stateMutability": "nonpayable",
      "type": "function"
    },
    {
      "inputs": [
        {
          "internalType": "bytes32",
          "name": "assetId",
          "type": "bytes32"
        },
        {
          "internalType": "address",
          "name": "newCounterpartyObligor",
          "type": "address"
        }
      ],
      "name": "setCounterpartyObligor",
      "outputs": [],
      "stateMutability": "nonpayable",
      "type": "function"
    },
    {
      "inputs": [
        {
          "internalType": "bytes32",
          "name": "assetId",
          "type": "bytes32"
        },
        {
          "internalType": "address",
          "name": "newCreatorBeneficiary",
          "type": "address"
        }
      ],
      "name": "setCreatorBeneficiary",
      "outputs": [],
      "stateMutability": "nonpayable",
      "type": "function"
    },
    {
      "inputs": [
        {
          "internalType": "bytes32",
          "name": "assetId",
          "type": "bytes32"
        },
        {
          "internalType": "address",
          "name": "newCreatorObligor",
          "type": "address"
        }
      ],
      "name": "setCreatorObligor",
      "outputs": [],
      "stateMutability": "nonpayable",
      "type": "function"
    },
    {
      "inputs": [
        {
          "internalType": "bytes32",
          "name": "assetId",
          "type": "bytes32"
        },
        {
          "internalType": "address",
          "name": "engine",
          "type": "address"
        }
      ],
      "name": "setEngine",
      "outputs": [],
      "stateMutability": "nonpayable",
      "type": "function"
    },
    {
      "inputs": [
        {
          "internalType": "bytes32",
          "name": "assetId",
          "type": "bytes32"
        },
        {
          "components": [
            {
              "internalType": "enum ContractPerformance",
              "name": "contractPerformance",
              "type": "uint8"
            },
            {
              "internalType": "uint256",
              "name": "statusDate",
              "type": "uint256"
            },
            {
              "internalType": "uint256",
              "name": "nonPerformingDate",
              "type": "uint256"
            },
            {
              "internalType": "uint256",
              "name": "maturityDate",
              "type": "uint256"
            },
            {
              "internalType": "uint256",
              "name": "exerciseDate",
              "type": "uint256"
            },
            {
              "internalType": "uint256",
              "name": "terminationDate",
              "type": "uint256"
            },
            {
              "internalType": "uint256",
              "name": "lastCouponFixingDate",
              "type": "uint256"
            },
            {
              "internalType": "uint256",
              "name": "lastDividendFixingDate",
              "type": "uint256"
            },
            {
              "internalType": "int256",
              "name": "notionalPrincipal",
              "type": "int256"
            },
            {
              "internalType": "int256",
              "name": "accruedInterest",
              "type": "int256"
            },
            {
              "internalType": "int256",
              "name": "feeAccrued",
              "type": "int256"
            },
            {
              "internalType": "int256",
              "name": "nominalInterestRate",
              "type": "int256"
            },
            {
              "internalType": "int256",
              "name": "interestScalingMultiplier",
              "type": "int256"
            },
            {
              "internalType": "int256",
              "name": "notionalScalingMultiplier",
              "type": "int256"
            },
            {
              "internalType": "int256",
              "name": "nextPrincipalRedemptionPayment",
              "type": "int256"
            },
            {
              "internalType": "int256",
              "name": "exerciseAmount",
              "type": "int256"
            },
            {
              "internalType": "int256",
              "name": "exerciseQuantity",
              "type": "int256"
            },
            {
              "internalType": "int256",
              "name": "quantity",
              "type": "int256"
            },
            {
              "internalType": "int256",
              "name": "couponAmountFixed",
              "type": "int256"
            },
            {
              "internalType": "int256",
              "name": "marginFactor",
              "type": "int256"
            },
            {
              "internalType": "int256",
              "name": "adjustmentFactor",
              "type": "int256"
            },
            {
              "internalType": "int256",
              "name": "dividendPaymentAmount",
              "type": "int256"
            },
            {
              "internalType": "int256",
              "name": "splitRatio",
              "type": "int256"
            }
          ],
          "internalType": "struct State",
          "name": "state",
          "type": "tuple"
        }
      ],
      "name": "setFinalizedState",
      "outputs": [],
      "stateMutability": "nonpayable",
      "type": "function"
    },
    {
      "inputs": [
        {
          "internalType": "bytes32",
          "name": "assetId",
          "type": "bytes32"
        },
        {
          "components": [
            {
              "internalType": "enum ContractPerformance",
              "name": "contractPerformance",
              "type": "uint8"
            },
            {
              "internalType": "uint256",
              "name": "statusDate",
              "type": "uint256"
            },
            {
              "internalType": "uint256",
              "name": "nonPerformingDate",
              "type": "uint256"
            },
            {
              "internalType": "uint256",
              "name": "maturityDate",
              "type": "uint256"
            },
            {
              "internalType": "uint256",
              "name": "exerciseDate",
              "type": "uint256"
            },
            {
              "internalType": "uint256",
              "name": "terminationDate",
              "type": "uint256"
            },
            {
              "internalType": "uint256",
              "name": "lastCouponFixingDate",
              "type": "uint256"
            },
            {
              "internalType": "uint256",
              "name": "lastDividendFixingDate",
              "type": "uint256"
            },
            {
              "internalType": "int256",
              "name": "notionalPrincipal",
              "type": "int256"
            },
            {
              "internalType": "int256",
              "name": "accruedInterest",
              "type": "int256"
            },
            {
              "internalType": "int256",
              "name": "feeAccrued",
              "type": "int256"
            },
            {
              "internalType": "int256",
              "name": "nominalInterestRate",
              "type": "int256"
            },
            {
              "internalType": "int256",
              "name": "interestScalingMultiplier",
              "type": "int256"
            },
            {
              "internalType": "int256",
              "name": "notionalScalingMultiplier",
              "type": "int256"
            },
            {
              "internalType": "int256",
              "name": "nextPrincipalRedemptionPayment",
              "type": "int256"
            },
            {
              "internalType": "int256",
              "name": "exerciseAmount",
              "type": "int256"
            },
            {
              "internalType": "int256",
              "name": "exerciseQuantity",
              "type": "int256"
            },
            {
              "internalType": "int256",
              "name": "quantity",
              "type": "int256"
            },
            {
              "internalType": "int256",
              "name": "couponAmountFixed",
              "type": "int256"
            },
            {
              "internalType": "int256",
              "name": "marginFactor",
              "type": "int256"
            },
            {
              "internalType": "int256",
              "name": "adjustmentFactor",
              "type": "int256"
            },
            {
              "internalType": "int256",
              "name": "dividendPaymentAmount",
              "type": "int256"
            },
            {
              "internalType": "int256",
              "name": "splitRatio",
              "type": "int256"
            }
          ],
          "internalType": "struct State",
          "name": "state",
          "type": "tuple"
        }
      ],
      "name": "setState",
      "outputs": [],
      "stateMutability": "nonpayable",
      "type": "function"
    },
    {
      "inputs": [
        {
          "internalType": "bytes32",
          "name": "assetId",
          "type": "bytes32"
        },
        {
          "components": [
            {
              "internalType": "enum ContractType",
              "name": "contractType",
              "type": "uint8"
            },
            {
              "internalType": "enum Calendar",
              "name": "calendar",
              "type": "uint8"
            },
            {
              "internalType": "enum ContractRole",
              "name": "contractRole",
              "type": "uint8"
            },
            {
              "internalType": "enum DayCountConvention",
              "name": "dayCountConvention",
              "type": "uint8"
            },
            {
              "internalType": "enum BusinessDayConvention",
              "name": "businessDayConvention",
              "type": "uint8"
            },
            {
              "internalType": "enum EndOfMonthConvention",
              "name": "endOfMonthConvention",
              "type": "uint8"
            },
            {
              "internalType": "enum ScalingEffect",
              "name": "scalingEffect",
              "type": "uint8"
            },
            {
              "internalType": "enum PenaltyType",
              "name": "penaltyType",
              "type": "uint8"
            },
            {
              "internalType": "enum FeeBasis",
              "name": "feeBasis",
              "type": "uint8"
            },
            {
              "internalType": "address",
              "name": "currency",
              "type": "address"
            },
            {
              "internalType": "address",
              "name": "settlementCurrency",
              "type": "address"
            },
            {
              "internalType": "bytes32",
              "name": "marketObjectCodeRateReset",
              "type": "bytes32"
            },
            {
              "internalType": "uint256",
              "name": "contractDealDate",
              "type": "uint256"
            },
            {
              "internalType": "uint256",
              "name": "statusDate",
              "type": "uint256"
            },
            {
              "internalType": "uint256",
              "name": "initialExchangeDate",
              "type": "uint256"
            },
            {
              "internalType": "uint256",
              "name": "maturityDate",
              "type": "uint256"
            },
            {
              "internalType": "uint256",
              "name": "purchaseDate",
              "type": "uint256"
            },
            {
              "internalType": "uint256",
              "name": "capitalizationEndDate",
              "type": "uint256"
            },
            {
              "internalType": "uint256",
              "name": "cycleAnchorDateOfInterestPayment",
              "type": "uint256"
            },
            {
              "internalType": "uint256",
              "name": "cycleAnchorDateOfRateReset",
              "type": "uint256"
            },
            {
              "internalType": "uint256",
              "name": "cycleAnchorDateOfScalingIndex",
              "type": "uint256"
            },
            {
              "internalType": "uint256",
              "name": "cycleAnchorDateOfFee",
              "type": "uint256"
            },
            {
              "internalType": "int256",
              "name": "notionalPrincipal",
              "type": "int256"
            },
            {
              "internalType": "int256",
              "name": "nominalInterestRate",
              "type": "int256"
            },
            {
              "internalType": "int256",
              "name": "accruedInterest",
              "type": "int256"
            },
            {
              "internalType": "int256",
              "name": "rateMultiplier",
              "type": "int256"
            },
            {
              "internalType": "int256",
              "name": "rateSpread",
              "type": "int256"
            },
            {
              "internalType": "int256",
              "name": "nextResetRate",
              "type": "int256"
            },
            {
              "internalType": "int256",
              "name": "feeRate",
              "type": "int256"
            },
            {
              "internalType": "int256",
              "name": "feeAccrued",
              "type": "int256"
            },
            {
              "internalType": "int256",
              "name": "penaltyRate",
              "type": "int256"
            },
            {
              "internalType": "int256",
              "name": "delinquencyRate",
              "type": "int256"
            },
            {
              "internalType": "int256",
              "name": "premiumDiscountAtIED",
              "type": "int256"
            },
            {
              "internalType": "int256",
              "name": "priceAtPurchaseDate",
              "type": "int256"
            },
            {
              "internalType": "int256",
              "name": "lifeCap",
              "type": "int256"
            },
            {
              "internalType": "int256",
              "name": "lifeFloor",
              "type": "int256"
            },
            {
              "internalType": "int256",
              "name": "periodCap",
              "type": "int256"
            },
            {
              "internalType": "int256",
              "name": "periodFloor",
              "type": "int256"
            },
            {
              "components": [
                {
                  "internalType": "uint256",
                  "name": "i",
                  "type": "uint256"
                },
                {
                  "internalType": "enum P",
                  "name": "p",
                  "type": "uint8"
                },
                {
                  "internalType": "bool",
                  "name": "isSet",
                  "type": "bool"
                }
              ],
              "internalType": "struct IP",
              "name": "gracePeriod",
              "type": "tuple"
            },
            {
              "components": [
                {
                  "internalType": "uint256",
                  "name": "i",
                  "type": "uint256"
                },
                {
                  "internalType": "enum P",
                  "name": "p",
                  "type": "uint8"
                },
                {
                  "internalType": "bool",
                  "name": "isSet",
                  "type": "bool"
                }
              ],
              "internalType": "struct IP",
              "name": "delinquencyPeriod",
              "type": "tuple"
            },
            {
              "components": [
                {
                  "internalType": "uint256",
                  "name": "i",
                  "type": "uint256"
                },
                {
                  "internalType": "enum P",
                  "name": "p",
                  "type": "uint8"
                },
                {
                  "internalType": "enum S",
                  "name": "s",
                  "type": "uint8"
                },
                {
                  "internalType": "bool",
                  "name": "isSet",
                  "type": "bool"
                }
              ],
              "internalType": "struct IPS",
              "name": "cycleOfInterestPayment",
              "type": "tuple"
            },
            {
              "components": [
                {
                  "internalType": "uint256",
                  "name": "i",
                  "type": "uint256"
                },
                {
                  "internalType": "enum P",
                  "name": "p",
                  "type": "uint8"
                },
                {
                  "internalType": "enum S",
                  "name": "s",
                  "type": "uint8"
                },
                {
                  "internalType": "bool",
                  "name": "isSet",
                  "type": "bool"
                }
              ],
              "internalType": "struct IPS",
              "name": "cycleOfRateReset",
              "type": "tuple"
            },
            {
              "components": [
                {
                  "internalType": "uint256",
                  "name": "i",
                  "type": "uint256"
                },
                {
                  "internalType": "enum P",
                  "name": "p",
                  "type": "uint8"
                },
                {
                  "internalType": "enum S",
                  "name": "s",
                  "type": "uint8"
                },
                {
                  "internalType": "bool",
                  "name": "isSet",
                  "type": "bool"
                }
              ],
              "internalType": "struct IPS",
              "name": "cycleOfScalingIndex",
              "type": "tuple"
            },
            {
              "components": [
                {
                  "internalType": "uint256",
                  "name": "i",
                  "type": "uint256"
                },
                {
                  "internalType": "enum P",
                  "name": "p",
                  "type": "uint8"
                },
                {
                  "internalType": "enum S",
                  "name": "s",
                  "type": "uint8"
                },
                {
                  "internalType": "bool",
                  "name": "isSet",
                  "type": "bool"
                }
              ],
              "internalType": "struct IPS",
              "name": "cycleOfFee",
              "type": "tuple"
            }
          ],
          "internalType": "struct PAMTerms",
          "name": "terms",
          "type": "tuple"
        }
      ],
      "name": "setTerms",
      "outputs": [],
      "stateMutability": "nonpayable",
      "type": "function"
    },
    {
      "inputs": [
        {
          "internalType": "address",
          "name": "newOwner",
          "type": "address"
        }
      ],
      "name": "transferOwnership",
      "outputs": [],
      "stateMutability": "nonpayable",
      "type": "function"
    }
  ],
  "transactionHash": "0xf19033758801da165318594ee763f5d557e31da063e72fa45056a0f8e6f88bc0",
  "args": [],
  "solcInputHash": "0xc56744a5577e177d2615bd05c84c9e210282ddc252efe730b597d1f4bdfd6a0b",
  "bytecode": "0x60806040523480156200001157600080fd5b5060006200001e6200006e565b600080546001600160a01b0319166001600160a01b0383169081178255604051929350917f8be0079c531659141344cd1fd0a4f28419497f9722a3daafe3b4186f6b6457e0908290a35062000072565b3390565b61575780620000826000396000f3fe608060405234801561001057600080fd5b50600436106102bb5760003560e01c80638da5cb5b11610182578063cf5aed12116100e9578063e7dc3188116100a2578063ecef55771161007c578063ecef557714610696578063ee43eda1146106a9578063f2fde38b146106bc578063f52f84e1146106cf576102bb565b8063e7dc31881461065d578063e8f7ca3e14610670578063eb01255914610683576102bb565b8063cf5aed12146105d1578063d51dc3dc146105f1578063d981e77314610604578063de07a17314610617578063e13b36fd1461062a578063e50e0ef71461063d576102bb565b8063b82820411161013b578063b828204114610544578063ba4d2d2814610557578063bc6a7d7614610578578063bd1f0a6c14610598578063c3b6e7c2146105ab578063ccfc347e146105be576102bb565b80638da5cb5b146104c3578063a17b75b5146104d8578063b02ca0c0146104eb578063b0b4888f146104fe578063b3c45ebe1461051e578063b461dd4f14610531576102bb565b806339262e87116102265780636a899b9b116101df5780636a899b9b146104425780636be39bda146104555780636fe55baa14610475578063715018a61461049557806375e86ae41461049d578063842962d5146104b0576102bb565b806339262e87146103d65780633a60d6fe146103e95780633adc277a146103fc578063512872f41461041c5780636031a0941461042f578063606aa07e14610442576102bb565b80631717e867116102785780631717e867146103575780631b1268151461036a57806327258b221461038a57806328e0f8a91461039d5780633549d08d146103b057806337462dba146103c3576102bb565b806303a81a2a146102c057806309648a9d146102d55780630a1b5849146102fe5780630c5b75a4146103115780630d62037a14610331578063135b9f4d14610344575b600080fd5b6102d36102ce3660046140dc565b6106e2565b005b6102e86102e33660046140ac565b6107b7565b6040516102f59190615503565b60405180910390f35b6102d361030c3660046141d1565b6107de565b61032461031f3660046140ac565b6108ed565b6040516102f59190614be4565b6102d361033f3660046140dc565b610964565b61032461035236600461410b565b610a09565b6102d3610365366004614157565b610aa8565b61037d610378366004614157565b610b5e565b6040516102f59190614bc9565b61037d6103983660046140ac565b610bdb565b6103246103ab3660046140ac565b610bf0565b6102d36103be3660046140dc565b610c05565b6102e86103d13660046140ac565b610ce0565b6102d36103e4366004614157565b610cff565b6102d36103f73660046142b7565b610da4565b61040f61040a3660046140ac565b610e64565b6040516102f59190614b85565b6102d361042a3660046140dc565b610e7e565b6102d361043d3660046140dc565b610f45565b61032461045036600461410b565b611020565b6104686104633660046140ac565b611038565b6040516102f591906154a8565b61048861048336600461410b565b6110d6565b6040516102f5919061549a565b6102d3611175565b6103246104ab3660046140ac565b611229565b6102d36104be3660046142b7565b611602565b6104cb6116b5565b6040516102f59190614b57565b6103246104e63660046140ac565b6116c4565b6103246104f936600461410b565b6116d9565b61051161050c36600461410b565b6116fa565b6040516102f5919061548c565b6104cb61052c3660046140ac565b611799565b61032461053f36600461410b565b6117b8565b6103246105523660046140ac565b6117fe565b61056a61056536600461410b565b611862565b6040516102f5929190614bd4565b61058b61058636600461410b565b61188c565b6040516102f5919061544b565b6102d36105a63660046140dc565b61192b565b6103246105b93660046140ac565b6119c3565b61037d6105cc366004614058565b611afc565b6105e46105df36600461410b565b611b11565b6040516102f59190615609565b6103246105ff36600461410b565b611b29565b6102d361061236600461410b565b611b6f565b6102d361062536600461412c565b611bde565b6102d36106383660046141a4565b611c7a565b61065061064b3660046140ac565b611d7a565b6040516102f59190615119565b6102d361066b366004614058565b611dd8565b61037d61067e3660046140dc565b611e66565b6104cb61069136600461410b565b611e9c565b6105e46106a436600461410b565b611f32565b6104cb6106b73660046140ac565b611fc8565b6102d36106ca366004614058565b611fe8565b6103246106dd3660046140ac565b6120f2565b6000828152600160208190526040909120015482906001600160a01b031633148061071f575061071f816000356001600160e01b03191633610b5e565b6107445760405162461bcd60e51b815260040161073b90614dc0565b60405180910390fd5b6000838152600160208190526040918290200180546001600160a01b038581166001600160a01b0319831617909255915191169084907f6baefd4565218ab73b43cb6b1019ca3a06161c4fcaef25cd665aacddabc44a20906107a99084908790614b6b565b60405180910390a250505050565b6107bf613beb565b60008281526001602052604090206107d690612107565b90505b919050565b3360009081526002602052604090205460ff1661080d5760405162461bcd60e51b815260040161073b90614e5a565b61086b89610820368a90038a018a61466c565b88888080602002602001604051908101604052809392919081815260200183836020028082843760009201919091525061086392505050368990038901896142db565b878787612474565b600089815260016020526040908190209051635276dec160e01b815273__$2fd3b21737d5949893536d14ab59010625$__91635276dec1916108b291908c90600401615162565b60006040518083038186803b1580156108ca57600080fd5b505af41580156108de573d6000803e3d6000fd5b50505050505050505050505050565b60008181526001602081905260408220015482906001600160a01b03163314806109295750610929816000356001600160e01b03191633610b5e565b6109455760405162461bcd60e51b815260040161073b90614dc0565b6000838152600160205260408120600601805491905591505b50919050565b61097b826000356001600160e01b03191633610b5e565b6109975760405162461bcd60e51b815260040161073b9061505d565b6000828152600160205260409081902060080180546001600160a01b038481166001600160a01b031983161790925591519116907fa7f38588f02421aa73988ed359aee27363c896e7cc3b6e634e4357f7ee408e25906109fc90859084908690614bed565b60405180910390a1505050565b600082815260016020526040808220905163ed7210f360e01b815273__$2fd3b21737d5949893536d14ab59010625$__9163ed7210f391610a4f91908690600401615154565b60206040518083038186803b158015610a6757600080fd5b505af4158015610a7b573d6000803e3d6000fd5b505050506040513d601f19601f82011682018060405250810190610a9f91906140c4565b90505b92915050565b610abf836000356001600160e01b03191633610b5e565b610adb5760405162461bcd60e51b815260040161073b9061500e565b60008381526001602081815260408084206001600160e01b031987168552600d0182528084206001600160a01b038616808652925292839020805460ff1916909217909155905184907face25d271ad11ee299595b3021629bae0349e370d7c2eb7c2dced6e4edb4786590610b51908690614c94565b60405180910390a3505050565b60008381526001602090815260408083206001600160e01b031986168452600d0182528083206001600160a01b038516845290915281205460ff1680610bd157506000848152600160209081526040808320838052600d0182528083206001600160a01b038616845290915290205460ff165b90505b9392505050565b60009081526001602052604090205460ff1690565b60009081526001602052604090206005015490565b6000828152600160205260409020600b01546001600160a01b031680610c3d5760405162461bcd60e51b815260040161073b90614ca9565b336001600160a01b0382161480610c665750610c66836000356001600160e01b03191633610b5e565b610c825760405162461bcd60e51b815260040161073b90614d06565b60008381526001602052604090819020600b0180546001600160a01b0319166001600160a01b038516179055517f66808241563a07166fd47b523591fa432148706dc0ddd255d49b69e71f1721ce906109fc90859084908690614bed565b610ce8613beb565b60008281526001602052604090206107d6906125ed565b610d16836000356001600160e01b03191633610b5e565b610d325760405162461bcd60e51b815260040161073b9061500e565b60008381526001602090815260408083206001600160e01b031986168452600d0182528083206001600160a01b038516808552925291829020805460ff19169055905184907f42b1b0e7392ad606bb4f5b003296aba62f16e43aa9372f1f40c1522fa2655ffa90610b51908690614c94565b6000828152600160208190526040909120015482906001600160a01b0316331480610de15750610de1816000356001600160e01b03191633610b5e565b610dfd5760405162461bcd60e51b815260040161073b90614dc0565b610e23610e0f3684900384018461466c565b60008581526001602052604090209061298a565b827fad3970329ffaec63d947adc6077368479a4be7f09f2e7ba1b13852f8405b3ec68360200135604051610e579190614be4565b60405180910390a2505050565b60008181526001602052604090206060906107d690612d32565b6000828152600160208190526040909120015482906001600160a01b0316331480610ebb5750610ebb816000356001600160e01b03191633610b5e565b610ed75760405162461bcd60e51b815260040161073b90614dc0565b6000838152600160205260409081902080546001600160a01b03858116610100908102610100600160a81b03198416179093559251919004919091169084907fdaa92ae0693b6616f14ef5db4b7ee053d3234c0d03f7a1885589c6a6c2c75bdb906107a99084908790614b6b565b6000828152600160205260409020600901546001600160a01b031680610f7d5760405162461bcd60e51b815260040161073b90614fb1565b336001600160a01b0382161480610fa65750610fa6836000356001600160e01b03191633610b5e565b610fc25760405162461bcd60e51b815260040161073b90614eae565b6000838152600160205260409081902060090180546001600160a01b0319166001600160a01b038516179055517f66808241563a07166fd47b523591fa432148706dc0ddd255d49b69e71f1721ce906109fc90859084908690614bed565b6000828152600160205260408120610a9f9083612dc8565b611040613c9a565b60008281526001602052604090819020905163f21917af60e01b815273__$2fd3b21737d5949893536d14ab59010625$__9163f21917af916110859190600401614be4565b6107806040518083038186803b15801561109e57600080fd5b505af41580156110b2573d6000803e3d6000fd5b505050506040513d601f19601f820116820180604052508101906107d691906143f1565b6110de613e14565b6000838152600160205260409081902090516379e3e37b60e11b815273__$2fd3b21737d5949893536d14ab59010625$__9163f3c7c6f69161112591908690600401615154565b60606040518083038186803b15801561113d57600080fd5b505af4158015611151573d6000803e3d6000fd5b505050506040513d601f19601f82011682018060405250810190610a9f91906143d6565b61117d612dde565b6000546001600160a01b039081169116146111df576040805162461bcd60e51b815260206004820181905260248201527f4f776e61626c653a2063616c6c6572206973206e6f7420746865206f776e6572604482015290519081900360640190fd5b600080546040516001600160a01b03909116907f8be0079c531659141344cd1fd0a4f28419497f9722a3daafe3b4186f6b6457e0908390a3600080546001600160a01b0319169055565b6000611233613e37565b6112538372636f6e74726163745265666572656e63655f3160681b61188c565b805190915015801590611275575060038160600151600481111561127357fe5b145b156115f95780516020820151604051631392c59160e11b81526001600160a01b038216906327258b22906112ad908590600401614be4565b60206040518083038186803b1580156112c557600080fd5b505afa1580156112d9573d6000803e3d6000fd5b505050506040513d601f19601f820116820180604052508101906112fd9190614090565b6113195760405162461bcd60e51b815260040161073b906150b1565b6000611334866b65786572636973654461746560a01b611020565b9050600061135b877518dc99591a5d115d995b9d151e5c1950dbdd995c995960521b611f32565b60ff16600581111561136957fe5b90506000836001600160a01b031663cf5aed12866040518263ffffffff1660e01b81526004016113999190614c6f565b60206040518083038186803b1580156113b157600080fd5b505afa1580156113c5573d6000803e3d6000fd5b505050506040513d601f19601f820116820180604052508101906113e99190614789565b60ff1660058111156113f757fe5b90506000846001600160a01b031663606aa07e876040518263ffffffff1660e01b81526004016114279190614c4c565b60206040518083038186803b15801561143f57600080fd5b505afa158015611453573d6000803e3d6000fd5b505050506040513d601f19601f8201168201806040525081019061147791906140c4565b905083156114985761148a601a42612de2565b9750505050505050506107d9565b60008360058111156114a657fe5b141580156114c957508260058111156114bb57fe5b8260058111156114c757fe5b145b156115f25760018260058111156114dc57fe5b14156114ed5761148a601982612de2565b60028260058111156114fb57fe5b14156115aa57611509613e14565b6040516337f2add560e11b81526001600160a01b03871690636fe55baa90611535908a90600401614c0c565b60606040518083038186803b15801561154d57600080fd5b505afa158015611561573d6000803e3d6000fd5b505050506040513d601f19601f8201168201806040525081019061158591906143d6565b905061159b60196115968385612e00565b612de2565b985050505050505050506107d9565b60038260058111156115b857fe5b14156115f2576115c6613e14565b6040516337f2add560e11b81526001600160a01b03871690636fe55baa90611535908a90600401614c29565b5050505050505b50600092915050565b6000828152600160208190526040909120015482906001600160a01b031633148061163f575061163f816000356001600160e01b03191633610b5e565b61165b5760405162461bcd60e51b815260040161073b90614dc0565b61168161166d3684900384018461466c565b600085815260016020526040902090612f19565b827f0c71209d22d4c70a40140b94deee55f1f54a9353e3d5d5a4ddfb45fcddcf720f8360200135604051610e579190614be4565b6000546001600160a01b031690565b60009081526001602052604090206004015490565b60009182526001602090815260408084209284526003909201905290205490565b611702613e5e565b600083815260016020526040908190209051630ef392f960e11b815273__$2fd3b21737d5949893536d14ab59010625$__91631de725f29161174991908690600401615154565b60806040518083038186803b15801561176157600080fd5b505af4158015611775573d6000803e3d6000fd5b505050506040513d601f19601f82011682018060405250810190610a9f91906143bb565b600090815260016020819052604090912001546001600160a01b031690565b6000828152600160205260408082209051633d548cbb60e11b815273__$2fd3b21737d5949893536d14ab59010625$__91637aa9197691610a4f91908690600401615154565b600081815260016020526040812060048101541561184e576004810154600582015414156118305750600090506107d9565b600581015460009081526003909101602052604090205490506107d9565b6000611859846132e5565b50949350505050565b6000918252600160208181526040808520938552601090930190529120805491015460ff90911691565b611894613e37565b60008381526001602052604090819020905163e810f93360e01b815273__$2fd3b21737d5949893536d14ab59010625$__9163e810f933916118db91908690600401615154565b60806040518083038186803b1580156118f357600080fd5b505af4158015611907573d6000803e3d6000fd5b505050506040513d601f19601f82011682018060405250810190610a9f9190614359565b611942826000356001600160e01b03191633610b5e565b61195e5760405162461bcd60e51b815260040161073b90614d63565b60008281526001602052604090819020600a0180546001600160a01b038481166001600160a01b031983161790925591519116907fa7f38588f02421aa73988ed359aee27363c896e7cc3b6e634e4357f7ee408e25906109fc90859084908690614bed565b60008181526001602081905260408220015482906001600160a01b03163314806119ff57506119ff816000356001600160e01b03191633610b5e565b611a1b5760405162461bcd60e51b815260040161073b90614dc0565b6000838152600160205260409020600481015415611a755760058101546000818152600383016020526040902054600483015490911415611a6257506000925061095e9050565b600590910180546001019055915061095e565b600080611a81866132e5565b909250905081611a9857506000935061095e915050565b600080611aa484613724565b909250905060018315151415611ae85780600286016000846021811115611ac757fe5b6021811115611ad257fe5b8152602081019190915260400160002055611af0565b600785018490555b50919695505050505050565b60026020526000908152604090205460ff1681565b6000828152600160205260408120610a9f908361374d565b600082815260016020526040808220905163168bf13960e01b815273__$2fd3b21737d5949893536d14ab59010625$__9163168bf13991610a4f91908690600401615154565b6000828152600160208190526040909120015482906001600160a01b0316331480611bac5750611bac816000356001600160e01b03191633610b5e565b611bc85760405162461bcd60e51b815260040161073b90614dc0565b5060009182526001602052604090912060060155565b6000838152600160208190526040909120015483906001600160a01b0316331480611c1b5750611c1b816000356001600160e01b03191633610b5e565b611c375760405162461bcd60e51b815260040161073b90614dc0565b50604080518082018252600180825260208083019485526000968752818152838720958752601090950190945293209251835460ff191690151517835551910155565b6000828152600160208190526040909120015482906001600160a01b0316331480611cb75750611cb7816000356001600160e01b03191633610b5e565b611cd35760405162461bcd60e51b815260040161073b90614dc0565b600083815260016020526040908190209051635276dec160e01b815273__$2fd3b21737d5949893536d14ab59010625$__91635276dec191611d1a91908690600401615162565b60006040518083038186803b158015611d3257600080fd5b505af4158015611d46573d6000803e3d6000fd5b50506040518592507fb777acf68d226f3c8ab6f398cfb9a320e6fe8e92f5d2f0b4f69bc8ebab3b70cb9150600090a2505050565b611d82613e7f565b50600090815260016020908152604091829020825160808101845260088201546001600160a01b0390811682526009830154811693820193909352600a820154831693810193909352600b015416606082015290565b611de0612dde565b6000546001600160a01b03908116911614611e42576040805162461bcd60e51b815260206004820181905260248201527f4f776e61626c653a2063616c6c6572206973206e6f7420746865206f776e6572604482015290519081900360640190fd5b6001600160a01b03166000908152600260205260409020805460ff19166001179055565b6000918252600160209081526040808420848052600d0182528084206001600160a01b0393909316845291905290205460ff1690565b6000828152600160205260408082209051631501b33960e21b815273__$2fd3b21737d5949893536d14ab59010625$__91635406cce491611ee291908690600401615154565b60206040518083038186803b158015611efa57600080fd5b505af4158015611f0e573d6000803e3d6000fd5b505050506040513d601f19601f82011682018060405250810190610a9f9190614074565b600082815260016020526040808220905163539dda9160e11b815273__$2fd3b21737d5949893536d14ab59010625$__9163a73bb52291611f7891908690600401615154565b60206040518083038186803b158015611f9057600080fd5b505af4158015611fa4573d6000803e3d6000fd5b505050506040513d601f19601f82011682018060405250810190610a9f9190614789565b60009081526001602052604090205461010090046001600160a01b031690565b611ff0612dde565b6000546001600160a01b03908116911614612052576040805162461bcd60e51b815260206004820181905260248201527f4f776e61626c653a2063616c6c6572206973206e6f7420746865206f776e6572604482015290519081900360640190fd5b6001600160a01b0381166120975760405162461bcd60e51b81526004018080602001828103825260268152602001806156db6026913960400191505060405180910390fd5b600080546040516001600160a01b03808516939216917f8be0079c531659141344cd1fd0a4f28419497f9722a3daafe3b4186f6b6457e091a3600080546001600160a01b0319166001600160a01b0392909216919091179055565b60009081526001602052604090206006015490565b61210f613beb565b604080516102e08101825272636f6e7472616374506572666f726d616e636560681b6000908152600f85016020529190912054819060f81c600581111561215257fe5b600581111561215d57fe5b8152697374617475734461746560b01b6000908152600f8501602081815260408084205482860152706e6f6e506572666f726d696e674461746560781b845282825280842054818601526b6d617475726974794461746560a01b84528282528084205460608601526b65786572636973654461746560a01b84528282528084205460808601526e7465726d696e6174696f6e4461746560881b84528282528084205460a0860152736c617374436f75706f6e466978696e674461746560601b84528282528084205460c0860152756c6173744469766964656e64466978696e674461746560501b84528282528084205460e0860152701b9bdd1a5bdb985b141c9a5b98da5c185b607a1b8452828252808420546101008601526e1858d8dc9d5959125b9d195c995cdd608a1b845282825280842054610120860152691999595058d8dc9d595960b21b845282825280842054610140860152726e6f6d696e616c496e7465726573745261746560681b8452828252808420546101608601527834b73a32b932b9ba29b1b0b634b733a6bab63a34b83634b2b960391b845282825280842054610180860152783737ba34b7b730b629b1b0b634b733a6bab63a34b83634b2b960391b8452828252808420546101a08601527f6e6578745072696e636970616c526564656d7074696f6e5061796d656e7400008452828252808420546101c08601526d195e195c98da5cd9505b5bdd5b9d60921b8452828252808420546101e08601526f65786572636973655175616e7469747960801b845282825280842054610200860152677175616e7469747960c01b8452828252808420546102208601527018dbdd5c1bdb905b5bdd5b9d119a5e1959607a1b8452828252808420546102408601526b36b0b933b4b72330b1ba37b960a11b8452828252808420546102608601526f30b2353ab9ba36b2b73a2330b1ba37b960811b84528282528084205461028086015274191a5d9a59195b9914185e5b595b9d105b5bdd5b9d605a1b8452828252808420546102a08601526973706c6974526174696f60b01b84529190529020546102c0909101529050919050565b6000878152600160205260409020805460ff16156124a45760405162461bcd60e51b815260040161073b90614e0f565b6001600160a01b03831660009081526002602052604090205460ff1615156001146124e15760405162461bcd60e51b815260040161073b90614f0b565b805485516008830180546001600160a01b03199081166001600160a01b0393841617909155602088015160098501805483169184169190911790556040880151600a8501805483169184169190911790556060880151600b85018054831691841691909117905560ff199092166001908117610100600160a81b031916610100888416021784558301805490921690851617905561257f818861298a565b6125898188612f19565b61259381876137f9565b6001600160a01b038216156125ac576125ac8883613866565b7f5e73a3e4a3f69f1056f05ffd00ff11bf3835158ba0ebd5ad3b994065fcd89646886040516125db9190614be4565b60405180910390a15050505050505050565b6125f5613beb565b604080516102e08101825274465f636f6e7472616374506572666f726d616e636560581b6000908152600f85016020529190912054819060f81c600581111561263a57fe5b600581111561264557fe5b81526b465f7374617475734461746560a01b6000908152600f850160208181526040808420548286015272465f6e6f6e506572666f726d696e674461746560681b845282825280842054818601526d465f6d617475726974794461746560901b84528282528084205460608601526d465f65786572636973654461746560901b845282825280842054608086015270465f7465726d696e6174696f6e4461746560781b84528282528084205460a086015275465f6c617374436f75706f6e466978696e674461746560501b84528282528084205460c086015277465f6c6173744469766964656e64466978696e674461746560401b84528282528084205460e0860152721197db9bdd1a5bdb985b141c9a5b98da5c185b606a1b845282825280842054610100860152701197d858d8dc9d5959125b9d195c995cdd607a1b8452828252808420546101208601526b1197d999595058d8dc9d595960a21b84528282528084205461014086015274465f6e6f6d696e616c496e7465726573745261746560581b8452828252808420546101608601527f465f696e7465726573745363616c696e674d756c7469706c69657200000000008452828252808420546101808601527f465f6e6f74696f6e616c5363616c696e674d756c7469706c69657200000000008452828252808420546101a08601527f465f6e6578745072696e636970616c526564656d7074696f6e5061796d656e748452828252808420546101c08601526f1197d95e195c98da5cd9505b5bdd5b9d60821b8452828252808420546101e086015271465f65786572636973655175616e7469747960701b84528282528084205461020086015269465f7175616e7469747960b01b845282825280842054610220860152721197d8dbdd5c1bdb905b5bdd5b9d119a5e1959606a1b8452828252808420546102408601526d232fb6b0b933b4b72330b1ba37b960911b84528282528084205461026086015271232fb0b2353ab9ba36b2b73a2330b1ba37b960711b845282825280842054610280860152761197d91a5d9a59195b9914185e5b595b9d105b5bdd5b9d604a1b8452828252808420546102a08601526b465f73706c6974526174696f60a01b84529190529020546102c0909101529050919050565b6129c18272636f6e7472616374506572666f726d616e636560681b60f8846000015160058111156129b757fe5b60ff16901b6138dd565b6129e082697374617475734461746560b01b836020015160001b6138dd565b612a0682706e6f6e506572666f726d696e674461746560781b836040015160001b6138dd565b612a27826b6d617475726974794461746560a01b836060015160001b6138dd565b612a48826b65786572636973654461746560a01b836080015160001b6138dd565b612a6c826e7465726d696e6174696f6e4461746560881b8360a0015160001b6138dd565b612a9582736c617374436f75706f6e466978696e674461746560601b8360c0015160001b6138dd565b612ac082756c6173744469766964656e64466978696e674461746560501b8360e0015160001b6138dd565b612ae782701b9bdd1a5bdb985b141c9a5b98da5c185b607a1b83610100015160001b6138dd565b612b0c826e1858d8dc9d5959125b9d195c995cdd608a1b83610120015160001b6138dd565b612b2c82691999595058d8dc9d595960b21b83610140015160001b6138dd565b612b5582726e6f6d696e616c496e7465726573745261746560681b83610160015160001b6138dd565b612b84827834b73a32b932b9ba29b1b0b634b733a6bab63a34b83634b2b960391b83610180015160001b6138dd565b612bb382783737ba34b7b730b629b1b0b634b733a6bab63a34b83634b2b960391b836101a0015160001b6138dd565b612be6827f6e6578745072696e636970616c526564656d7074696f6e5061796d656e740000836101c0015160001b6138dd565b612c0a826d195e195c98da5cd9505b5bdd5b9d60921b836101e0015160001b6138dd565b612c30826f65786572636973655175616e7469747960801b83610200015160001b6138dd565b612c56826f65786572636973655175616e7469747960801b83610200015160001b6138dd565b612c7482677175616e7469747960c01b83610220015160001b6138dd565b612c9b827018dbdd5c1bdb905b5bdd5b9d119a5e1959607a1b83610240015160001b6138dd565b612cbd826b36b0b933b4b72330b1ba37b960a11b83610260015160001b6138dd565b612ce3826f30b2353ab9ba36b2b73a2330b1ba37b960811b83610280015160001b6138dd565b612d0e8274191a5d9a59195b9914185e5b595b9d105b5bdd5b9d605a1b836102a0015160001b6138dd565b612d2e826973706c6974526174696f60b01b836102c0015160001b6138dd565b5050565b606080826002016002015467ffffffffffffffff81118015612d5357600080fd5b50604051908082528060200260200182016040528015612d7d578160200160208202803683370190505b50905060005b6004840154811015612dc15760008181526003850160205260409020548251839083908110612dae57fe5b6020908102919091010152600101612d83565b5092915050565b6000908152600f91909101602052604090205490565b3390565b60008160f8846021811115612df357fe5b60ff16901b179392505050565b6000808084602001516005811115612e1457fe5b1415612e2e578351612e2790849061390f565b9050610a9f565b600184602001516005811115612e4057fe5b1415612e5e578351612e2790612e57906007613924565b849061390f565b600284602001516005811115612e7057fe5b1415612e83578351612e2790849061397d565b600384602001516005811115612e9557fe5b1415612eb3578351612e2790612eac906003613924565b849061397d565b600484602001516005811115612ec557fe5b1415612edc578351612e2790612eac906006613924565b600584602001516005811115612eee57fe5b1415612f01578351612e279084906139f9565b60405162461bcd60e51b815260040161073b90614f54565b612f488274465f636f6e7472616374506572666f726d616e636560581b60f8846000015160058111156129b757fe5b612f69826b465f7374617475734461746560a01b836020015160001b6138dd565b612f918272465f6e6f6e506572666f726d696e674461746560681b836040015160001b6138dd565b612fb4826d465f6d617475726974794461746560901b836060015160001b6138dd565b612fd7826d465f65786572636973654461746560901b836080015160001b6138dd565b612ffd8270465f7465726d696e6174696f6e4461746560781b8360a0015160001b6138dd565b6130288275465f6c617374436f75706f6e466978696e674461746560501b8360c0015160001b6138dd565b6130558277465f6c6173744469766964656e64466978696e674461746560401b8360e0015160001b6138dd565b61307e82721197db9bdd1a5bdb985b141c9a5b98da5c185b606a1b83610100015160001b6138dd565b6130a582701197d858d8dc9d5959125b9d195c995cdd607a1b83610120015160001b6138dd565b6130c7826b1197d999595058d8dc9d595960a21b83610140015160001b6138dd565b6130f28274465f6e6f6d696e616c496e7465726573745261746560581b83610160015160001b6138dd565b613125827f465f696e7465726573745363616c696e674d756c7469706c696572000000000083610180015160001b6138dd565b613158827f465f6e6f74696f6e616c5363616c696e674d756c7469706c6965720000000000836101a0015160001b6138dd565b61318b827f465f6e6578745072696e636970616c526564656d7074696f6e5061796d656e74836101c0015160001b6138dd565b6131b1826f1197d95e195c98da5cd9505b5bdd5b9d60821b836101e0015160001b6138dd565b6131d98271465f65786572636973655175616e7469747960701b83610200015160001b6138dd565b6132018271465f65786572636973655175616e7469747960701b83610200015160001b6138dd565b6132218269465f7175616e7469747960b01b83610220015160001b6138dd565b61324a82721197d8dbdd5c1bdb905b5bdd5b9d119a5e1959606a1b83610240015160001b6138dd565b61326e826d232fb6b0b933b4b72330b1ba37b960911b83610260015160001b6138dd565b6132968271232fb0b2353ab9ba36b2b73a2330b1ba37b960711b83610280015160001b6138dd565b6132c382761197d91a5d9a59195b9914185e5b595b9d105b5bdd5b9d604a1b836102a0015160001b6138dd565b612d2e826b465f73706c6974526174696f60a01b836102c0015160001b6138dd565b600081815260016020526040812081906132fd613c9a565b60405163f21917af60e01b815273__$2fd3b21737d5949893536d14ab59010625$__9063f21917af90613334908590600401614be4565b6107806040518083038186803b15801561334d57600080fd5b505af4158015613361573d6000803e3d6000fd5b505050506040513d601f19601f8201168201806040525081019061338591906143f1565b8254600a6000818152600286016020526040808220549051636e9bd66f60e11b815294955090938493600193859384936134329361010090046001600160a01b03169263dd37acde926133dd928c92906004016154d4565b60206040518083038186803b1580156133f557600080fd5b505afa158015613409573d6000803e3d6000fd5b505050506040513d601f19601f8201168201806040525081019061342d91906140c4565b613724565b91509150836000148061344457508381105b8061346857508084148015613468575061345d85613a20565b61346683613a20565b105b15613474578093508194505b50508454600b6000818152600288016020526040808220549051636e9bd66f60e11b8152919384936134c5936101009092046001600160a01b03169263dd37acde926133dd928c92916004016154d4565b9150915083600014806134e1575080158015906134e157508381105b80613510575080158015906134f557508084145b8015613510575061350585613a20565b61350e83613a20565b105b1561351c578093508194505b5050845460056000818152600288016020526040808220549051636e9bd66f60e11b81529193849361356d936101009092046001600160a01b03169263dd37acde926133dd928c92916004016154d4565b9150915083600014806135895750801580159061358957508381105b806135b85750801580159061359d57508084145b80156135b857506135ad85613a20565b6135b683613a20565b105b156135c4578093508194505b50508454601b6000818152600288016020526040808220549051636e9bd66f60e11b815291938493613615936101009092046001600160a01b03169263dd37acde926133dd928c92916004016154d4565b9150915083600014806136315750801580159061363157508381105b806136605750801580159061364557508084145b8015613660575061365585613a20565b61365e83613a20565b105b1561366c578093508194505b505084546007860154604051631693318160e31b815260009283926136b0926101009092046001600160a01b03169163b4998c08916133dd918b91906004016154b7565b9150915083600014806136cc575080158015906136cc57508381105b806136fb575080158015906136e057508084145b80156136fb57506136f085613a20565b6136f983613a20565b105b1561370b57809350819450600092505b50506137178383612de2565b9650945050505050915091565b6000808060f884901c602181111561373857fe5b92505067ffffffffffffffff83169050915091565b600072636f6e7472616374506572666f726d616e636560681b82141561379e575072636f6e7472616374506572666f726d616e636560681b6000908152600f8301602052604090205460f81c610aa2565b74465f636f6e7472616374506572666f726d616e636560581b8214156137f1575074465f636f6e7472616374506572666f726d616e636560581b6000908152600f8301602052604090205460f81c610aa2565b506000610aa2565b60005b8151811015613861576000801b82828151811061381557fe5b6020026020010151141561382857613861565b81818151811061383457fe5b602090810291909101810151600083815260038601909252604090912055600101600483018190556137fc565b505050565b6000828152600160208181526040808420848052600d0182528084206001600160a01b0386168086529252808420805460ff19169093179092559051909184917face25d271ad11ee299595b3021629bae0349e370d7c2eb7c2dced6e4edb47865916138d191614c94565b60405180910390a35050565b6000828152600f840160205260409020548114156138fa57613861565b6000918252600f929092016020526040902055565b620151808102820182811015610aa257600080fd5b60008261393357506000610aa2565b8282028284828161394057fe5b0414610a9f5760405162461bcd60e51b81526004018080602001828103825260218152602001806157016021913960400191505060405180910390fd5b600080808061399162015180875b04613a2e565b600c9188016000198101838104949094019650945092509006600101915060006139bb8484613ac4565b9050808211156139c9578091505b620151808706620151806139de868686613b4a565b02019450868510156139ef57600080fd5b5050505092915050565b6000808080613a0b620151808761398b565b91870194509250905060006139bb8484613ac4565b60008160218111156107d657fe5b60008080836226496581018262023ab1600483020590506004600362023ab18302010590910390600062164b09610fa0600185010205905060046105b58202058303601f019250600061098f8460500281613a8557fe5b0590506000605061098f83020585039050600b820560301994909401606402929092018301996002600c90940290910392909201975095509350505050565b60008160011480613ad55750816003145b80613ae05750816005145b80613aeb5750816007145b80613af65750816008145b80613b01575081600a145b80613b0c575081600c145b15613b195750601f610aa2565b81600214613b295750601e610aa2565b613b3283613bc6565b613b3d57601c613b40565b601d5b60ff169392505050565b60006107b2841015613b5b57600080fd5b838383600062253d8c600460036064611324600c600d19890105890101050205600c80600d19870105600c02600287030361016f0281613b9757fe5b0560046105b5600c600d1989010589016112c0010205617d4b8603010103039050809450505050509392505050565b600060048206158015613bdb57506064820615155b806107d657505061019090061590565b604080516102e081019091528060008152602001600081526020016000815260200160008152602001600081526020016000815260200160008152602001600081526020016000815260200160008152602001600081526020016000815260200160008152602001600081526020016000815260200160008152602001600081526020016000815260200160008152602001600081526020016000815260200160008152602001600081525090565b6040805161058081019091528060008152602001600081526020016000815260200160008152602001600081526020016000815260200160008152602001600081526020016000815260200160006001600160a01b0316815260200160006001600160a01b03168152602001600080191681526020016000815260200160008152602001600081526020016000815260200160008152602001600081526020016000815260200160008152602001600081526020016000815260200160008152602001600081526020016000815260200160008152602001600081526020016000815260200160008152602001600081526020016000815260200160008152602001600081526020016000815260200160008152602001600081526020016000815260200160008152602001613dce613e14565b8152602001613ddb613e14565b8152602001613de8613e5e565b8152602001613df5613e5e565b8152602001613e02613e5e565b8152602001613e0f613e5e565b905290565b6040805160608101909152600080825260208201905b8152600060209091015290565b60408051608081018252600080825260208201819052909182019081526020016000613e0f565b60408051608081019091526000808252602082019081526020016000613e2a565b60408051608081018252600080825260208201819052918101829052606081019190915290565b80356107d98161565c565b80516107d98161565c565b80356107d98161567f565b80516107d98161567f565b80356107d98161568c565b80516107d98161568c565b80356107d981615699565b80356107d9816156b3565b80516107d9816156b3565b80356107d9816156c0565b80516107d9816156c0565b80516107d981615699565b80356107d9816156cd565b80516107d9816156cd565b60006080828403121561095e578081fd5b600060808284031215613f62578081fd5b6040516080810181811067ffffffffffffffff82111715613f7f57fe5b8060405250809150825181526020830151613f9981615699565b60208201526040830151613fac8161568c565b60408201526060830151613fbf81615671565b6060919091015292915050565b600060608284031215613fdd578081fd5b6040516060810181811067ffffffffffffffff82111715613ffa57fe5b806040525080915082518152602083015161401481615699565b6020820152604083015161402781615671565b6040919091015292915050565b6000610780828403121561095e578081fd5b60006102e0828403121561095e578081fd5b600060208284031215614069578081fd5b8135610a9f8161565c565b600060208284031215614085578081fd5b8151610a9f8161565c565b6000602082840312156140a1578081fd5b8151610a9f81615671565b6000602082840312156140bd578081fd5b5035919050565b6000602082840312156140d5578081fd5b5051919050565b600080604083850312156140ee578081fd5b8235915060208301356141008161565c565b809150509250929050565b6000806040838503121561411d578182fd5b50508035926020909101359150565b600080600060608486031215614140578081fd5b505081359360208301359350604090920135919050565b60008060006060848603121561416b578081fd5b8335925060208401356001600160e01b031981168114614189578182fd5b915060408401356141998161565c565b809150509250925092565b6000806107a083850312156141b7578182fd5b823591506141c88460208501614034565b90509250929050565b6000806000806000806000806000610b808a8c0312156141ef578687fd5b893598506142008b60208c01614034565b97506142108b6107a08c01614046565b9650610a808a013567ffffffffffffffff8082111561422d578687fd5b818c0191508c601f830112614240578687fd5b81358181111561424e578788fd5b8d60208083028501011115614261578788fd5b60208301985080975050505061427b8b610aa08c01613f40565b935061428a610b208b01613ea6565b9250614299610b408b01613ea6565b91506142a8610b608b01613ea6565b90509295985092959850929598565b60008061030083850312156142ca578182fd5b823591506141c88460208501614046565b6000608082840312156142ec578081fd5b6040516080810181811067ffffffffffffffff8211171561430957fe5b60405282356143178161565c565b815260208301356143278161565c565b6020820152604083013561433a8161565c565b6040820152606083013561434d8161565c565b60608201529392505050565b60006080828403121561436a578081fd5b6040516080810181811067ffffffffffffffff8211171561438757fe5b8060405250825181526020830151602082015260408301516143a8816156a6565b6040820152606083015161434d816156a6565b6000608082840312156143cc578081fd5b610a9f8383613f51565b6000606082840312156143e7578081fd5b610a9f8383613fcc565b60006107808284031215614403578081fd5b61058061440f81615617565b61441884613f14565b815261442660208501613edd565b602082015261443760408501613efe565b604082015261444860608501613f1f565b606082015261445960808501613ec7565b608082015261446a60a08501613edd565b60a082015261447b60c08501613f35565b60c082015261448c60e08501613f35565b60e082015261010061449f818601613edd565b908201526101206144b1858201613eb1565b908201526101406144c3858201613eb1565b90820152610160848101519082015261018080850151908201526101a080850151908201526101c080850151908201526101e08085015190820152610200808501519082015261022080850151908201526102408085015190820152610260808501519082015261028080850151908201526102a080850151908201526102c080850151908201526102e08085015190820152610300808501519082015261032080850151908201526103408085015190820152610360808501519082015261038080850151908201526103a080850151908201526103c080850151908201526103e08085015190820152610400808501519082015261042080850151908201526104408085015190820152610460808501519082015261048080850151908201526104a080850151908201526104c06145ff86828701613fcc565b9082015261052061461286868301613fcc565b6104e083015261462486848701613f51565b610500830152614638866106008701613f51565b9082015261464a856106808601613f51565b61054082015261465e856107008601613f51565b610560820152949350505050565b60006102e080838503121561467f578182fd5b61468881615617565b905061469383613ee8565b81526020838101359082015260408084013590820152606080840135908201526080808401359082015260a0808401359082015260c0808401359082015260e08084013590820152610100808401359082015261012080840135908201526101408084013590820152610160808401359082015261018080840135908201526101a080840135908201526101c080840135908201526101e08084013590820152610200808401359082015261022080840135908201526102408084013590820152610260808401359082015261028080840135908201526102a080840135908201526102c0928301359281019290925250919050565b60006020828403121561479a578081fd5b815160ff81168114610a9f578182fd5b6001600160a01b03169052565b600981106147c157fe5b9052565b6147c18161563b565b6147c181615648565b600d81106147c157fe5b601381106147c157fe5b600481106147c157fe5b80358252602081013561480781615699565b61481081615648565b602083015260408101356148238161568c565b61482c8161563b565b6040830152606081013561483f81615671565b8015156060840152505050565b80518252602081015161485e81615648565b602083015260408101516148718161563b565b60408301526060908101511515910152565b80358252602081013561489581615699565b61489e81615648565b602083015260408101356148b181615671565b8015156040840152505050565b8051825260208101516148d081615648565b60208301526040908101511515910152565b6148ed8282516147e1565b60208101516148ff60208401826147c5565b50604081015161491260408401826147d7565b50606081015161492560608401826147ce565b50608081015161493860808401826147b7565b5060a081015161494b60a08401826147c5565b5060c081015161495e60c08401826147eb565b5060e081015161497160e08401826147eb565b5061010080820151614985828501826147c5565b50506101208082015161499a828501826147aa565b5050610140808201516149af828501826147aa565b5050610160818101519083015261018080820151908301526101a080820151908301526101c080820151908301526101e08082015190830152610200808201519083015261022080820151908301526102408082015190830152610260808201519083015261028080820151908301526102a080820151908301526102c080820151908301526102e08082015190830152610300808201519083015261032080820151908301526103408082015190830152610360808201519083015261038080820151908301526103a080820151908301526103c080820151908301526103e08082015190830152610400808201519083015261042080820151908301526104408082015190830152610460808201519083015261048080820151908301526104a080820151908301526104c080820151614aed828501826148be565b50506104e0810151610520614b04818501836148be565b6105008301519150614b1a61058085018361484c565b8201519050614b2d61060084018261484c565b50610540810151614b4261068084018261484c565b5061056081015161386161070084018261484c565b6001600160a01b0391909116815260200190565b6001600160a01b0392831681529116602082015260400190565b6020808252825182820181905260009190848201906040850190845b81811015614bbd57835183529284019291840191600101614ba1565b50909695505050505050565b901515815260200190565b9115158252602082015260400190565b90815260200190565b9283526001600160a01b03918216602084015216604082015260600190565b9081526a19dc9858d954195c9a5bd960aa1b602082015260400190565b9081527019195b1a5b9c5d595b98de54195c9a5bd9607a1b602082015260400190565b908152706e6f6e506572666f726d696e674461746560781b602082015260400190565b90815272636f6e7472616374506572666f726d616e636560681b602082015260400190565b6001600160e01b031991909116815260200190565b6020808252603e908201527f417373657452656769737472792e736574436f756e746572706172747942656e60408201527f65666963696172793a20454e5452595f444f45535f4e4f545f45584953540000606082015260800190565b6020808252603d908201527f417373657452656769737472792e736574436f756e746572706172747942656e60408201527f65666963696172793a20554e415554484f52495a45445f53454e444552000000606082015260800190565b60208082526039908201527f417373657452656769737472792e736574436f756e74657270617274794f626c60408201527f69676f723a20554e415554484f52495a45445f53454e44455200000000000000606082015260800190565b6020808252602f908201527f416363657373436f6e74726f6c2e6973417574686f72697a65643a20554e415560408201526e2a2427a924ad22a22fa9a2a72222a960891b606082015260800190565b6020808252602b908201527f4261736552656769737472792e73657441737365743a2041535345545f414c5260408201526a454144595f45584953545360a81b606082015260800190565b60208082526034908201527f4261736552656769737472792e6f6e6c79417070726f7665644163746f72733a604082015273102aa720aaaa2427a924ad22a22fa9a2a72222a960611b606082015260800190565b60208082526038908201527f417373657452656769737472792e73657443726561746f7242656e656669636960408201527f6172793a20554e415554484f52495a45445f53454e4445520000000000000000606082015260800190565b60208082526029908201527f4261736552656769737472792e73657441737365743a204143544f525f4e4f5460408201526817d054141493d5915160ba1b606082015260800190565b60208082526037908201527f506572696f645574696c732e67657454696d657374616d70506c75735065726960408201527f6f643a204154545249425554455f4e4f545f464f554e44000000000000000000606082015260800190565b60208082526039908201527f417373657452656769737472792e73657443726561746f7242656e656669636960408201527f6172793a20454e5452595f444f45535f4e4f545f455849535400000000000000606082015260800190565b6020808252602f908201527f416363657373436f6e74726f6c2e7265766f6b654163636573733a20554e415560408201526e2a2427a924ad22a22fa9a2a72222a960891b606082015260800190565b60208082526034908201527f417373657452656769737472792e73657443726561746f724f626c69676f723a604082015273102aa720aaaa2427a924ad22a22fa9a2a72222a960611b606082015260800190565b60208082526042908201527f41737365744163746f722e6765744e657874556e6465726c79696e674576656e60408201527f743a20554e4445524c59494e475f41535345545f444f45535f4e4f545f45584960608201526114d560f21b608082015260a00190565b81516001600160a01b039081168252602080840151821690830152604080840151821690830152606092830151169181019190915260800190565b918252602082015260400190565b8281526107a0810161517f6020830161517a85613f09565b6147e1565b61518b60208401613ed2565b61519860408401826147c5565b506151a560408401613ef3565b6151b260608401826147d7565b506151bf60608401613ee8565b6151cc60808401826147ce565b506151d960808401613ebc565b6151e660a08401826147b7565b506151f360a08401613ed2565b61520060c08401826147c5565b5061520d60c08401613f2a565b61521a60e08401826147eb565b5061522760e08401613f2a565b610100615236818501836147eb565b615241818601613ed2565b915050610120615253818501836147c5565b61525e818601613ea6565b915050610140615270818501836147aa565b61527b818601613ea6565b91505061016061528d818501836147aa565b61018091508085013582850152506101a081850135818501526101c091508085013582850152506101e08185013581850152610200915080850135828501525061022081850135818501526102409150808501358285015250610260818501358185015261028091508085013582850152506102a081850135818501526102c091508085013582850152506102e08185013581850152610300915080850135828501525061032081850135818501526103409150808501358285015250610360818501358185015261038091508085013582850152506103a081850135818501526103c091508085013582850152506103e08185013581850152610400915080850135828501525061042081850135818501526104409150808501358285015250610460818501358185015261048091508085013582850152506104a081850135818501526104c091508085013582850152506153f06104e08401828601614883565b5061540361054083016105208501614883565b6154156105a0830161058085016147f5565b615427610620830161060085016147f5565b6154396106a0830161068085016147f5565b610bd4610720830161070085016147f5565b81518152602080830151908201526040820151608082019061546c81615652565b6040830152606083015161547f81615652565b8060608401525092915050565b60808101610aa2828461484c565b60608101610aa282846148be565b6107808101610aa282846148e2565b6107a081016154c682856148e2565b826107808301529392505050565b6107c081016154e382866148e2565b83610780830152602283106154f457fe5b826107a0830152949350505050565b60006102e0820190506155178284516147ce565b6020838101519083015260408084015190830152606080840151908301526080808401519083015260a0808401519083015260c0808401519083015260e08084015190830152610100808401519083015261012080840151908301526101408084015190830152610160808401519083015261018080840151908301526101a080840151908301526101c080840151908301526101e08084015190830152610200808401519083015261022080840151908301526102408084015190830152610260808401519083015261028080840151908301526102a080840151908301526102c092830151929091019190915290565b60ff91909116815260200190565b60405181810167ffffffffffffffff8111828210171561563357fe5b604052919050565b6002811061564557fe5b50565b6006811061564557fe5b6005811061564557fe5b6001600160a01b038116811461564557600080fd5b801515811461564557600080fd5b6009811061564557600080fd5b6002811061564557600080fd5b6006811061564557600080fd5b6005811061564557600080fd5b600d811061564557600080fd5b6013811061564557600080fd5b6004811061564557600080fdfe4f776e61626c653a206e6577206f776e657220697320746865207a65726f2061646472657373536166654d6174683a206d756c7469706c69636174696f6e206f766572666c6f77a2646970667358221220712bcf83117d847e231ecbd18374777ee1f87e7560fc9c3876d914f0212a54fa64736f6c63430007040033",
  "libraries": {
    "PAMEncoder": "0x0B84EcC3cb862E82e6F6A687BBeEdC8866B8DebD"
  },
  "devdoc": {
    "kind": "dev",
    "methods": {
      "approveActor(address)": {
        "details": "Can only be called by the owner of the contract.",
        "params": {
          "actor": "address of the actor"
        }
      },
      "getActor(bytes32)": {
        "params": {
          "assetId": "id of the asset"
        },
        "returns": {
          "_0": "address of the asset actor"
        }
      },
      "getEngine(bytes32)": {
        "params": {
          "assetId": "id of the asset"
        },
        "returns": {
          "_0": "address of the engine of the asset"
        }
      },
      "getEventAtIndex(bytes32,uint256)": {
        "params": {
          "assetId": "id of the asset",
          "index": "index of the event to return"
        },
        "returns": {
          "_0": "Event"
        }
      },
      "getFinalizedState(bytes32)": {
        "params": {
          "assetId": "id of the asset"
        },
        "returns": {
          "_0": "state of the asset"
        }
      },
      "getNextScheduleIndex(bytes32)": {
        "params": {
          "assetId": "id of the asset"
        },
        "returns": {
          "_0": "Index"
        }
      },
      "getNextScheduledEvent(bytes32)": {
        "params": {
          "assetId": "id of the asset"
        },
        "returns": {
          "_0": "event"
        }
      },
      "getOwnership(bytes32)": {
        "params": {
          "assetId": "id of the asset"
        },
        "returns": {
          "_0": "addresses of all owners of the asset"
        }
      },
      "getSchedule(bytes32)": {
        "params": {
          "assetId": "id of the asset"
        },
        "returns": {
          "_0": "the schedule"
        }
      },
      "getScheduleLength(bytes32)": {
        "params": {
          "assetId": "id of the asset"
        },
        "returns": {
          "_0": "Length of the schedule"
        }
      },
      "getState(bytes32)": {
        "params": {
          "assetId": "id of the asset"
        },
        "returns": {
          "_0": "state of the asset"
        }
      },
      "getTerms(bytes32)": {
        "params": {
          "assetId": "id of the asset"
        },
        "returns": {
          "_0": "terms of the asset"
        }
      },
      "grantAccess(bytes32,bytes4,address)": {
        "details": "Can only be called by an authorized account.",
        "params": {
          "account": "address of the account to grant access to",
          "assetId": "id of the asset",
          "methodSignature": "function / method signature (4 byte keccak256 hash of the method selector)"
        }
      },
      "hasAccess(bytes32,bytes4,address)": {
        "params": {
          "account": "address of the account for which to check access",
          "assetId": "id of the asset",
          "methodSignature": "function / method signature (4 byte keccak256 hash of the method selector)"
        },
        "returns": {
          "_0": "true if allowed access"
        }
      },
      "hasRootAccess(bytes32,address)": {
        "params": {
          "account": "address of the account for which to check root acccess",
          "assetId": "id of the asset"
        },
        "returns": {
          "_0": "true if has root access"
        }
      },
      "isEventSettled(bytes32,bytes32)": {
        "params": {
          "_event": "event (encoded)",
          "assetId": "id of the asset"
        },
        "returns": {
          "_0": "true if event was settled"
        }
      },
      "isRegistered(bytes32)": {
        "params": {
          "assetId": "id of the asset"
        },
        "returns": {
          "_0": "true if asset exist"
        }
      },
      "markEventAsSettled(bytes32,bytes32,int256)": {
        "details": "Can only be set by authorized account.",
        "params": {
          "_event": "event (encoded) to be marked as settled",
          "assetId": "id of the asset"
        }
      },
      "owner()": {
        "details": "Returns the address of the current owner."
      },
      "popNextScheduledEvent(bytes32)": {
        "details": "Can only be updated by the assets actor or by an authorized account.",
        "params": {
          "assetId": "id of the asset"
        }
      },
      "registerAsset(bytes32,(uint8,uint8,uint8,uint8,uint8,uint8,uint8,uint8,uint8,address,address,bytes32,uint256,uint256,uint256,uint256,uint256,uint256,uint256,uint256,uint256,uint256,int256,int256,int256,int256,int256,int256,int256,int256,int256,int256,int256,int256,int256,int256,int256,int256,(uint256,uint8,bool),(uint256,uint8,bool),(uint256,uint8,uint8,bool),(uint256,uint8,uint8,bool),(uint256,uint8,uint8,bool),(uint256,uint8,uint8,bool)),(uint8,uint256,uint256,uint256,uint256,uint256,uint256,uint256,int256,int256,int256,int256,int256,int256,int256,int256,int256,int256,int256,int256,int256,int256,int256),bytes32[],(address,address,address,address),address,address,address)": {
        "params": {
          "actor": "account which is allowed to update the asset state",
          "admin": "account which as admin rights (optional)",
          "engine": "ACTUS Engine of the asset",
          "ownership": "ownership of the asset",
          "schedule": "schedule of the asset",
          "state": "initial state of the asset",
          "terms": "asset specific terms (PAMTerms)"
        }
      },
      "renounceOwnership()": {
        "details": "Leaves the contract without owner. It will not be possible to call `onlyOwner` functions anymore. Can only be called by the current owner. NOTE: Renouncing ownership will leave the contract without an owner, thereby removing any functionality that is only available to the owner."
      },
      "revokeAccess(bytes32,bytes4,address)": {
        "details": "Can only be called by an authorized account.",
        "params": {
          "account": "address of the account to revoke access for",
          "assetId": "id of the asset",
          "methodSignature": "function / method signature (4 byte keccak256 hash of the method selector)"
        }
      },
      "setActor(bytes32,address)": {
        "params": {
          "actor": "address of the Actor contract",
          "assetId": "id of the asset"
        }
      },
      "setCounterpartyBeneficiary(bytes32,address)": {
        "details": "Can only be updated by the current counterparty beneficiary or by an authorized account.",
        "params": {
          "assetId": "id of the asset",
          "newCounterpartyBeneficiary": "address of the new beneficiary"
        }
      },
      "setCounterpartyObligor(bytes32,address)": {
        "details": "Can only be updated by an authorized account.",
        "params": {
          "assetId": "id of the asset",
          "newCounterpartyObligor": "address of the new counterparty obligor"
        }
      },
      "setCreatorBeneficiary(bytes32,address)": {
        "details": "Can only be updated by the current creator beneficiary or by an authorized account.",
        "params": {
          "assetId": "id of the asset",
          "newCreatorBeneficiary": "address of the new beneficiary"
        }
      },
      "setCreatorObligor(bytes32,address)": {
        "details": "Can only be updated by an authorized account.",
        "params": {
          "assetId": "id of the asset",
          "newCreatorObligor": "address of the new creator obligor"
        }
      },
      "setEngine(bytes32,address)": {
        "details": "Can only be set by authorized account.",
        "params": {
          "assetId": "id of the asset",
          "engine": "new engine address"
        }
      },
      "setFinalizedState(bytes32,(uint8,uint256,uint256,uint256,uint256,uint256,uint256,uint256,int256,int256,int256,int256,int256,int256,int256,int256,int256,int256,int256,int256,int256,int256,int256))": {
        "details": "Can only be updated by the assets actor or by an authorized account.",
        "params": {
          "assetId": "id of the asset",
          "state": "next state of the asset"
        }
      },
      "setState(bytes32,(uint8,uint256,uint256,uint256,uint256,uint256,uint256,uint256,int256,int256,int256,int256,int256,int256,int256,int256,int256,int256,int256,int256,int256,int256,int256))": {
        "details": "Can only be updated by the assets actor or by an authorized account.",
        "params": {
          "assetId": "id of the asset",
          "state": "next state of the asset"
        }
      },
      "setTerms(bytes32,(uint8,uint8,uint8,uint8,uint8,uint8,uint8,uint8,uint8,address,address,bytes32,uint256,uint256,uint256,uint256,uint256,uint256,uint256,uint256,uint256,uint256,int256,int256,int256,int256,int256,int256,int256,int256,int256,int256,int256,int256,int256,int256,int256,int256,(uint256,uint8,bool),(uint256,uint8,bool),(uint256,uint8,uint8,bool),(uint256,uint8,uint8,bool),(uint256,uint8,uint8,bool),(uint256,uint8,uint8,bool)))": {
        "details": "Can only be set by authorized account.",
        "params": {
          "assetId": "id of the asset",
          "terms": "new terms"
        }
      },
      "transferOwnership(address)": {
        "details": "Transfers ownership of the contract to a new account (`newOwner`). Can only be called by the current owner."
      }
    },
    "title": "PAMRegistry",
    "version": 1
  },
  "userdoc": {
    "kind": "user",
    "methods": {
      "approveActor(address)": {
        "notice": "Approves the address of an actor contract e.g. for registering assets."
      },
      "getActor(bytes32)": {
        "notice": "Returns the address of the actor which is allowed to update the state of the asset."
      },
      "getEngine(bytes32)": {
        "notice": "Returns the address of a the ACTUS engine corresponding to the ContractType of an asset."
      },
      "getEventAtIndex(bytes32,uint256)": {
        "notice": "Returns an event for a given position (index) in a schedule of a given asset."
      },
      "getFinalizedState(bytes32)": {
        "notice": "Returns the state of an asset."
      },
      "getNextScheduleIndex(bytes32)": {
        "notice": "Returns the index of the next event to be processed for a schedule of an asset."
      },
      "getNextScheduledEvent(bytes32)": {
        "notice": "Returns the next event to process."
      },
      "getNextUnderlyingEvent(bytes32)": {
        "notice": "If the underlying of the asset changes in performance to a covered performance, it returns the exerciseDate event."
      },
      "getOwnership(bytes32)": {
        "notice": "Retrieves the registered addresses of owners (creator, counterparty) of an asset."
      },
      "getSchedule(bytes32)": {
        "notice": "Convenience method for retrieving the entire schedule Not recommended to execute method on-chain (if schedule is too long the tx may run out of gas)"
      },
      "getScheduleLength(bytes32)": {
        "notice": "Returns the length of a schedule of a given asset."
      },
      "getState(bytes32)": {
        "notice": "Returns the state of an asset."
      },
      "getTerms(bytes32)": {
        "notice": "Returns the terms of an asset."
      },
      "grantAccess(bytes32,bytes4,address)": {
        "notice": "Grant access to an account to call a specific method on a specific asset."
      },
      "hasAccess(bytes32,bytes4,address)": {
        "notice": "Check whether an account is allowed to call a specific method on a specific asset."
      },
      "hasRootAccess(bytes32,address)": {
        "notice": "Check whether an account has root access for a specific asset."
      },
      "isEventSettled(bytes32,bytes32)": {
        "notice": "Returns true if an event of an assets schedule was settled"
      },
      "isRegistered(bytes32)": {
        "notice": "Returns if there is an asset registerd for a given assetId"
      },
      "markEventAsSettled(bytes32,bytes32,int256)": {
        "notice": "Mark an event as settled"
      },
      "popNextScheduledEvent(bytes32)": {
        "notice": "Increments the index of a schedule of an asset. (if max index is reached the index will be left unchanged)"
      },
      "registerAsset(bytes32,(uint8,uint8,uint8,uint8,uint8,uint8,uint8,uint8,uint8,address,address,bytes32,uint256,uint256,uint256,uint256,uint256,uint256,uint256,uint256,uint256,uint256,int256,int256,int256,int256,int256,int256,int256,int256,int256,int256,int256,int256,int256,int256,int256,int256,(uint256,uint8,bool),(uint256,uint8,bool),(uint256,uint8,uint8,bool),(uint256,uint8,uint8,bool),(uint256,uint8,uint8,bool),(uint256,uint8,uint8,bool)),(uint8,uint256,uint256,uint256,uint256,uint256,uint256,uint256,int256,int256,int256,int256,int256,int256,int256,int256,int256,int256,int256,int256,int256,int256,int256),bytes32[],(address,address,address,address),address,address,address)": {
        "notice": "@param assetId id of the asset"
      },
      "revokeAccess(bytes32,bytes4,address)": {
        "notice": "Revoke access for an account to call a specific method on a specific asset."
      },
      "setActor(bytes32,address)": {
        "notice": "Set the address of the Actor contract which should be going forward."
      },
      "setCounterpartyBeneficiary(bytes32,address)": {
        "notice": "Updates the address of the default beneficiary of cashflows going to the counterparty."
      },
      "setCounterpartyObligor(bytes32,address)": {
        "notice": "Update the address of the counterparty which has to fulfill obligations for the counterparty of the asset."
      },
      "setCreatorBeneficiary(bytes32,address)": {
        "notice": "Update the address of the default beneficiary of cashflows going to the creator."
      },
      "setCreatorObligor(bytes32,address)": {
        "notice": "Update the address of the obligor which has to fulfill obligations for the creator of the asset."
      },
      "setEngine(bytes32,address)": {
        "notice": "Set the engine address which should be used for the asset going forward."
      },
      "setFinalizedState(bytes32,(uint8,uint256,uint256,uint256,uint256,uint256,uint256,uint256,int256,int256,int256,int256,int256,int256,int256,int256,int256,int256,int256,int256,int256,int256,int256))": {
        "notice": "Sets next finalized state of an asset."
      },
      "setState(bytes32,(uint8,uint256,uint256,uint256,uint256,uint256,uint256,uint256,int256,int256,int256,int256,int256,int256,int256,int256,int256,int256,int256,int256,int256,int256,int256))": {
        "notice": "Sets next state of an asset."
      },
      "setTerms(bytes32,(uint8,uint8,uint8,uint8,uint8,uint8,uint8,uint8,uint8,address,address,bytes32,uint256,uint256,uint256,uint256,uint256,uint256,uint256,uint256,uint256,uint256,int256,int256,int256,int256,int256,int256,int256,int256,int256,int256,int256,int256,int256,int256,int256,int256,(uint256,uint8,bool),(uint256,uint8,bool),(uint256,uint8,uint8,bool),(uint256,uint8,uint8,bool),(uint256,uint8,uint8,bool),(uint256,uint8,uint8,bool)))": {
        "notice": "Set the terms of the asset"
      }
    },
    "notice": "Registry for ACTUS Protocol assets",
    "version": 1
  },
  "storageLayout": {
    "storage": [
      {
        "astId": 8108,
        "contract": "contracts/Core/PAM/PAMRegistry.sol:PAMRegistry",
        "label": "_owner",
        "offset": 0,
        "slot": "0",
        "type": "t_address"
      },
      {
        "astId": 31720,
        "contract": "contracts/Core/PAM/PAMRegistry.sol:PAMRegistry",
        "label": "assets",
        "offset": 0,
        "slot": "1",
        "type": "t_mapping(t_bytes32,t_struct(Asset)31709_storage)"
      },
      {
        "astId": 31418,
        "contract": "contracts/Core/PAM/PAMRegistry.sol:PAMRegistry",
        "label": "approvedActors",
        "offset": 0,
        "slot": "2",
        "type": "t_mapping(t_address,t_bool)"
      }
    ],
    "types": {
      "t_address": {
        "encoding": "inplace",
        "label": "address",
        "numberOfBytes": "20"
      },
      "t_bool": {
        "encoding": "inplace",
        "label": "bool",
        "numberOfBytes": "1"
      },
      "t_bytes32": {
        "encoding": "inplace",
        "label": "bytes32",
        "numberOfBytes": "32"
      },
      "t_bytes4": {
        "encoding": "inplace",
        "label": "bytes4",
        "numberOfBytes": "4"
      },
      "t_enum(EventType)9772": {
        "encoding": "inplace",
        "label": "enum EventType",
        "numberOfBytes": "1"
      },
      "t_int256": {
        "encoding": "inplace",
        "label": "int256",
        "numberOfBytes": "32"
      },
      "t_int8": {
        "encoding": "inplace",
        "label": "int8",
        "numberOfBytes": "1"
      },
      "t_mapping(t_address,t_bool)": {
        "encoding": "mapping",
        "key": "t_address",
        "label": "mapping(address => bool)",
        "numberOfBytes": "32",
        "value": "t_bool"
      },
      "t_mapping(t_bytes32,t_bytes32)": {
        "encoding": "mapping",
        "key": "t_bytes32",
        "label": "mapping(bytes32 => bytes32)",
        "numberOfBytes": "32",
        "value": "t_bytes32"
      },
      "t_mapping(t_bytes32,t_struct(Asset)31709_storage)": {
        "encoding": "mapping",
        "key": "t_bytes32",
        "label": "mapping(bytes32 => struct Asset)",
        "numberOfBytes": "32",
        "value": "t_struct(Asset)31709_storage"
      },
      "t_mapping(t_bytes32,t_struct(Settlement)31676_storage)": {
        "encoding": "mapping",
        "key": "t_bytes32",
        "label": "mapping(bytes32 => struct Settlement)",
        "numberOfBytes": "32",
        "value": "t_struct(Settlement)31676_storage"
      },
      "t_mapping(t_bytes4,t_mapping(t_address,t_bool))": {
        "encoding": "mapping",
        "key": "t_bytes4",
        "label": "mapping(bytes4 => mapping(address => bool))",
        "numberOfBytes": "32",
        "value": "t_mapping(t_address,t_bool)"
      },
      "t_mapping(t_enum(EventType)9772,t_uint256)": {
        "encoding": "mapping",
        "key": "t_enum(EventType)9772",
        "label": "mapping(enum EventType => uint256)",
        "numberOfBytes": "32",
        "value": "t_uint256"
      },
      "t_mapping(t_int8,t_address)": {
        "encoding": "mapping",
        "key": "t_int8",
        "label": "mapping(int8 => address)",
        "numberOfBytes": "32",
        "value": "t_address"
      },
      "t_mapping(t_uint256,t_bytes32)": {
        "encoding": "mapping",
        "key": "t_uint256",
        "label": "mapping(uint256 => bytes32)",
        "numberOfBytes": "32",
        "value": "t_bytes32"
      },
      "t_struct(Asset)31709_storage": {
        "encoding": "inplace",
        "label": "struct Asset",
        "members": [
          {
            "astId": 31678,
            "contract": "contracts/Core/PAM/PAMRegistry.sol:PAMRegistry",
            "label": "isSet",
            "offset": 0,
            "slot": "0",
            "type": "t_bool"
          },
          {
            "astId": 31680,
            "contract": "contracts/Core/PAM/PAMRegistry.sol:PAMRegistry",
            "label": "engine",
            "offset": 1,
            "slot": "0",
            "type": "t_address"
          },
          {
            "astId": 31682,
            "contract": "contracts/Core/PAM/PAMRegistry.sol:PAMRegistry",
            "label": "actor",
            "offset": 0,
            "slot": "1",
            "type": "t_address"
          },
          {
            "astId": 31684,
            "contract": "contracts/Core/PAM/PAMRegistry.sol:PAMRegistry",
            "label": "schedule",
            "offset": 0,
            "slot": "2",
            "type": "t_struct(Schedule)41212_storage"
          },
          {
            "astId": 31686,
            "contract": "contracts/Core/PAM/PAMRegistry.sol:PAMRegistry",
            "label": "ownership",
            "offset": 0,
            "slot": "8",
            "type": "t_struct(AssetOwnership)41195_storage"
          },
          {
            "astId": 31690,
            "contract": "contracts/Core/PAM/PAMRegistry.sol:PAMRegistry",
            "label": "cashflowBeneficiaries",
            "offset": 0,
            "slot": "12",
            "type": "t_mapping(t_int8,t_address)"
          },
          {
            "astId": 31696,
            "contract": "contracts/Core/PAM/PAMRegistry.sol:PAMRegistry",
            "label": "access",
            "offset": 0,
            "slot": "13",
            "type": "t_mapping(t_bytes4,t_mapping(t_address,t_bool))"
          },
          {
            "astId": 31700,
            "contract": "contracts/Core/PAM/PAMRegistry.sol:PAMRegistry",
            "label": "packedTerms",
            "offset": 0,
            "slot": "14",
            "type": "t_mapping(t_bytes32,t_bytes32)"
          },
          {
            "astId": 31704,
            "contract": "contracts/Core/PAM/PAMRegistry.sol:PAMRegistry",
            "label": "packedState",
            "offset": 0,
            "slot": "15",
            "type": "t_mapping(t_bytes32,t_bytes32)"
          },
          {
            "astId": 31708,
            "contract": "contracts/Core/PAM/PAMRegistry.sol:PAMRegistry",
            "label": "settlement",
            "offset": 0,
            "slot": "16",
            "type": "t_mapping(t_bytes32,t_struct(Settlement)31676_storage)"
          }
        ],
        "numberOfBytes": "544"
      },
      "t_struct(AssetOwnership)41195_storage": {
        "encoding": "inplace",
        "label": "struct AssetOwnership",
        "members": [
          {
            "astId": 41188,
            "contract": "contracts/Core/PAM/PAMRegistry.sol:PAMRegistry",
            "label": "creatorObligor",
            "offset": 0,
            "slot": "0",
            "type": "t_address"
          },
          {
            "astId": 41190,
            "contract": "contracts/Core/PAM/PAMRegistry.sol:PAMRegistry",
            "label": "creatorBeneficiary",
            "offset": 0,
            "slot": "1",
            "type": "t_address"
          },
          {
            "astId": 41192,
            "contract": "contracts/Core/PAM/PAMRegistry.sol:PAMRegistry",
            "label": "counterpartyObligor",
            "offset": 0,
            "slot": "2",
            "type": "t_address"
          },
          {
            "astId": 41194,
            "contract": "contracts/Core/PAM/PAMRegistry.sol:PAMRegistry",
            "label": "counterpartyBeneficiary",
            "offset": 0,
            "slot": "3",
            "type": "t_address"
          }
        ],
        "numberOfBytes": "128"
      },
      "t_struct(Schedule)41212_storage": {
        "encoding": "inplace",
        "label": "struct Schedule",
        "members": [
          {
            "astId": 41199,
            "contract": "contracts/Core/PAM/PAMRegistry.sol:PAMRegistry",
            "label": "lastScheduleTimeOfCyclicEvent",
            "offset": 0,
            "slot": "0",
            "type": "t_mapping(t_enum(EventType)9772,t_uint256)"
          },
          {
            "astId": 41203,
            "contract": "contracts/Core/PAM/PAMRegistry.sol:PAMRegistry",
            "label": "events",
            "offset": 0,
            "slot": "1",
            "type": "t_mapping(t_uint256,t_bytes32)"
          },
          {
            "astId": 41205,
            "contract": "contracts/Core/PAM/PAMRegistry.sol:PAMRegistry",
            "label": "length",
            "offset": 0,
            "slot": "2",
            "type": "t_uint256"
          },
          {
            "astId": 41207,
            "contract": "contracts/Core/PAM/PAMRegistry.sol:PAMRegistry",
            "label": "nextScheduleIndex",
            "offset": 0,
            "slot": "3",
            "type": "t_uint256"
          },
          {
            "astId": 41209,
            "contract": "contracts/Core/PAM/PAMRegistry.sol:PAMRegistry",
            "label": "pendingEvent",
            "offset": 0,
            "slot": "4",
            "type": "t_bytes32"
          },
          {
            "astId": 41211,
            "contract": "contracts/Core/PAM/PAMRegistry.sol:PAMRegistry",
            "label": "lastNonCyclicEvent",
            "offset": 0,
            "slot": "5",
            "type": "t_bytes32"
          }
        ],
        "numberOfBytes": "192"
      },
      "t_struct(Settlement)31676_storage": {
        "encoding": "inplace",
        "label": "struct Settlement",
        "members": [
          {
            "astId": 31673,
            "contract": "contracts/Core/PAM/PAMRegistry.sol:PAMRegistry",
            "label": "isSettled",
            "offset": 0,
            "slot": "0",
            "type": "t_bool"
          },
          {
            "astId": 31675,
            "contract": "contracts/Core/PAM/PAMRegistry.sol:PAMRegistry",
            "label": "payoff",
            "offset": 0,
            "slot": "1",
            "type": "t_int256"
          }
        ],
        "numberOfBytes": "64"
      },
      "t_uint256": {
        "encoding": "inplace",
        "label": "uint256",
        "numberOfBytes": "32"
      }
    }
  },
  "gasEstimates": {
    "creation": {
      "codeDepositCost": "4471800",
      "executionCost": "27634",
      "totalCost": "4499434"
    },
    "external": {
      "approveActor(address)": "22154",
      "approvedActors(address)": "1417",
      "getActor(bytes32)": "1359",
      "getAddressValueForTermsAttribute(bytes32,bytes32)": "infinite",
      "getBytes32ValueForTermsAttribute(bytes32,bytes32)": "infinite",
      "getContractReferenceValueForTermsAttribute(bytes32,bytes32)": "infinite",
      "getCycleValueForTermsAttribute(bytes32,bytes32)": "infinite",
      "getEngine(bytes32)": "1312",
      "getEnumValueForStateAttribute(bytes32,bytes32)": "infinite",
      "getEnumValueForTermsAttribute(bytes32,bytes32)": "infinite",
      "getEventAtIndex(bytes32,uint256)": "1365",
      "getFinalizedState(bytes32)": "infinite",
      "getIntValueForStateAttribute(bytes32,bytes32)": "1366",
      "getIntValueForTermsAttribute(bytes32,bytes32)": "infinite",
      "getNextScheduleIndex(bytes32)": "1289",
      "getNextScheduledEvent(bytes32)": "infinite",
      "getNextUnderlyingEvent(bytes32)": "infinite",
      "getOwnership(bytes32)": "4178",
      "getPendingEvent(bytes32)": "1309",
      "getPeriodValueForTermsAttribute(bytes32,bytes32)": "infinite",
      "getSchedule(bytes32)": "infinite",
      "getScheduleLength(bytes32)": "1245",
      "getState(bytes32)": "infinite",
      "getTerms(bytes32)": "infinite",
      "getUIntValueForTermsAttribute(bytes32,bytes32)": "infinite",
      "getUintValueForStateAttribute(bytes32,bytes32)": "1477",
      "grantAccess(bytes32,bytes4,address)": "25597",
      "hasAccess(bytes32,bytes4,address)": "2669",
      "hasRootAccess(bytes32,address)": "1543",
      "isEventSettled(bytes32,bytes32)": "2187",
      "isRegistered(bytes32)": "1273",
      "markEventAsSettled(bytes32,bytes32,int256)": "44556",
      "owner()": "1116",
      "popNextScheduledEvent(bytes32)": "infinite",
      "popPendingEvent(bytes32)": "9433",
      "pushPendingEvent(bytes32,bytes32)": "23537",
      "registerAsset(bytes32,(uint8,uint8,uint8,uint8,uint8,uint8,uint8,uint8,uint8,address,address,bytes32,uint256,uint256,uint256,uint256,uint256,uint256,uint256,uint256,uint256,uint256,int256,int256,int256,int256,int256,int256,int256,int256,int256,int256,int256,int256,int256,int256,int256,int256,(uint256,uint8,bool),(uint256,uint8,bool),(uint256,uint8,uint8,bool),(uint256,uint8,uint8,bool),(uint256,uint8,uint8,bool),(uint256,uint8,uint8,bool)),(uint8,uint256,uint256,uint256,uint256,uint256,uint256,uint256,int256,int256,int256,int256,int256,int256,int256,int256,int256,int256,int256,int256,int256,int256,int256),bytes32[],(address,address,address,address),address,address,address)": "infinite",
      "renounceOwnership()": "24315",
      "revokeAccess(bytes32,bytes4,address)": "25585",
      "setActor(bytes32,address)": "26237",
      "setCounterpartyBeneficiary(bytes32,address)": "26220",
      "setCounterpartyObligor(bytes32,address)": "25264",
      "setCreatorBeneficiary(bytes32,address)": "26220",
      "setCreatorObligor(bytes32,address)": "25288",
      "setEngine(bytes32,address)": "26324",
      "setFinalizedState(bytes32,(uint8,uint256,uint256,uint256,uint256,uint256,uint256,uint256,int256,int256,int256,int256,int256,int256,int256,int256,int256,int256,int256,int256,int256,int256,int256))": "infinite",
      "setState(bytes32,(uint8,uint256,uint256,uint256,uint256,uint256,uint256,uint256,int256,int256,int256,int256,int256,int256,int256,int256,int256,int256,int256,int256,int256,int256,int256))": "infinite",
      "setTerms(bytes32,(uint8,uint8,uint8,uint8,uint8,uint8,uint8,uint8,uint8,address,address,bytes32,uint256,uint256,uint256,uint256,uint256,uint256,uint256,uint256,uint256,uint256,int256,int256,int256,int256,int256,int256,int256,int256,int256,int256,int256,int256,int256,int256,int256,int256,(uint256,uint8,bool),(uint256,uint8,bool),(uint256,uint8,uint8,bool),(uint256,uint8,uint8,bool),(uint256,uint8,uint8,bool),(uint256,uint8,uint8,bool)))": "infinite",
      "transferOwnership(address)": "infinite"
    },
    "internal": {
      "getNextComputedEvent(bytes32)": "infinite"
    }
  }
}