{
  "_format": "hh-sol-artifact-1",
  "contractName": "ICT",
  "sourceName": "contracts/Extensions/ICT/ICT.sol",
  "abi": [
    {
      "inputs": [
        {
          "internalType": "contract IAssetRegistry",
          "name": "_assetRegistry",
          "type": "address"
        },
        {
          "internalType": "contract IDataRegistryProxy",
          "name": "_dataRegistryProxy",
          "type": "address"
        },
        {
          "internalType": "bytes32",
          "name": "_marketObjectCode",
          "type": "bytes32"
        },
        {
          "internalType": "address",
          "name": "owner",
          "type": "address"
        }
      ],
      "stateMutability": "nonpayable",
      "type": "constructor"
    },
    {
      "anonymous": false,
      "inputs": [
        {
          "indexed": true,
          "internalType": "address",
          "name": "owner",
          "type": "address"
        },
        {
          "indexed": true,
          "internalType": "address",
          "name": "spender",
          "type": "address"
        },
        {
          "indexed": false,
          "internalType": "uint256",
          "name": "value",
          "type": "uint256"
        }
      ],
      "name": "Approval",
      "type": "event"
    },
    {
      "anonymous": false,
      "inputs": [
        {
          "indexed": true,
          "internalType": "uint256",
          "name": "checkpointId",
          "type": "uint256"
        }
      ],
      "name": "CheckpointCreated",
      "type": "event"
    },
    {
      "anonymous": false,
      "inputs": [
        {
          "indexed": true,
          "internalType": "address",
          "name": "previousOwner",
          "type": "address"
        },
        {
          "indexed": true,
          "internalType": "address",
          "name": "newOwner",
          "type": "address"
        }
      ],
      "name": "OwnershipTransferred",
      "type": "event"
    },
    {
      "anonymous": false,
      "inputs": [
        {
          "indexed": true,
          "internalType": "address",
          "name": "from",
          "type": "address"
        },
        {
          "indexed": true,
          "internalType": "address",
          "name": "to",
          "type": "address"
        },
        {
          "indexed": false,
          "internalType": "uint256",
          "name": "value",
          "type": "uint256"
        }
      ],
      "name": "Transfer",
      "type": "event"
    },
    {
      "inputs": [
        {
          "internalType": "address",
          "name": "owner",
          "type": "address"
        },
        {
          "internalType": "address",
          "name": "spender",
          "type": "address"
        }
      ],
      "name": "allowance",
      "outputs": [
        {
          "internalType": "uint256",
          "name": "",
          "type": "uint256"
        }
      ],
      "stateMutability": "view",
      "type": "function"
    },
    {
      "inputs": [
        {
          "internalType": "address",
          "name": "spender",
          "type": "address"
        },
        {
          "internalType": "uint256",
          "name": "amount",
          "type": "uint256"
        }
      ],
      "name": "approve",
      "outputs": [
        {
          "internalType": "bool",
          "name": "",
          "type": "bool"
        }
      ],
      "stateMutability": "nonpayable",
      "type": "function"
    },
    {
      "inputs": [],
      "name": "assetId",
      "outputs": [
        {
          "internalType": "bytes32",
          "name": "",
          "type": "bytes32"
        }
      ],
      "stateMutability": "view",
      "type": "function"
    },
    {
      "inputs": [],
      "name": "assetRegistry",
      "outputs": [
        {
          "internalType": "contract IAssetRegistry",
          "name": "",
          "type": "address"
        }
      ],
      "stateMutability": "view",
      "type": "function"
    },
    {
      "inputs": [
        {
          "internalType": "address",
          "name": "account",
          "type": "address"
        }
      ],
      "name": "balanceOf",
      "outputs": [
        {
          "internalType": "uint256",
          "name": "",
          "type": "uint256"
        }
      ],
      "stateMutability": "view",
      "type": "function"
    },
    {
      "inputs": [
        {
          "internalType": "address",
          "name": "holder",
          "type": "address"
        },
        {
          "internalType": "uint256",
          "name": "timestamp",
          "type": "uint256"
        }
      ],
      "name": "balanceOfAt",
      "outputs": [
        {
          "internalType": "uint256",
          "name": "",
          "type": "uint256"
        }
      ],
      "stateMutability": "view",
      "type": "function"
    },
    {
      "inputs": [
        {
          "internalType": "address",
          "name": "payee",
          "type": "address"
        },
        {
          "internalType": "bytes32",
          "name": "depositId",
          "type": "bytes32"
        }
      ],
      "name": "calculateClaimOnDeposit",
      "outputs": [
        {
          "internalType": "uint256",
          "name": "",
          "type": "uint256"
        }
      ],
      "stateMutability": "view",
      "type": "function"
    },
    {
      "inputs": [
        {
          "internalType": "bytes32",
          "name": "_event",
          "type": "bytes32"
        }
      ],
      "name": "cancelRegistrationForRedemption",
      "outputs": [],
      "stateMutability": "nonpayable",
      "type": "function"
    },
    {
      "inputs": [
        {
          "internalType": "address",
          "name": "",
          "type": "address"
        },
        {
          "internalType": "uint256",
          "name": "",
          "type": "uint256"
        }
      ],
      "name": "checkpointBalances",
      "outputs": [
        {
          "internalType": "uint128",
          "name": "timestamp",
          "type": "uint128"
        },
        {
          "internalType": "uint256",
          "name": "value",
          "type": "uint256"
        }
      ],
      "stateMutability": "view",
      "type": "function"
    },
    {
      "inputs": [
        {
          "internalType": "uint256",
          "name": "",
          "type": "uint256"
        }
      ],
      "name": "checkpointTotalSupply",
      "outputs": [
        {
          "internalType": "uint128",
          "name": "timestamp",
          "type": "uint128"
        },
        {
          "internalType": "uint256",
          "name": "value",
          "type": "uint256"
        }
      ],
      "stateMutability": "view",
      "type": "function"
    },
    {
      "inputs": [
        {
          "internalType": "bytes32",
          "name": "depositId",
          "type": "bytes32"
        }
      ],
      "name": "claimDeposit",
      "outputs": [],
      "stateMutability": "nonpayable",
      "type": "function"
    },
    {
      "inputs": [
        {
          "internalType": "bytes32",
          "name": "depositId",
          "type": "bytes32"
        },
        {
          "internalType": "uint256",
          "name": "scheduledFor",
          "type": "uint256"
        },
        {
          "internalType": "uint256",
          "name": "signalingCutoff",
          "type": "uint256"
        },
        {
          "internalType": "bool",
          "name": "onlySignaled",
          "type": "bool"
        },
        {
          "internalType": "address",
          "name": "token",
          "type": "address"
        }
      ],
      "name": "createDeposit",
      "outputs": [],
      "stateMutability": "nonpayable",
      "type": "function"
    },
    {
      "inputs": [
        {
          "internalType": "bytes32",
          "name": "_event",
          "type": "bytes32"
        }
      ],
      "name": "createDepositForEvent",
      "outputs": [],
      "stateMutability": "nonpayable",
      "type": "function"
    },
    {
      "inputs": [],
      "name": "dataRegistryProxy",
      "outputs": [
        {
          "internalType": "contract IDataRegistryProxy",
          "name": "",
          "type": "address"
        }
      ],
      "stateMutability": "view",
      "type": "function"
    },
    {
      "inputs": [],
      "name": "decimals",
      "outputs": [
        {
          "internalType": "uint8",
          "name": "",
          "type": "uint8"
        }
      ],
      "stateMutability": "view",
      "type": "function"
    },
    {
      "inputs": [
        {
          "internalType": "bytes32",
          "name": "_event",
          "type": "bytes32"
        }
      ],
      "name": "decodeEvent",
      "outputs": [
        {
          "internalType": "enum EventType",
          "name": "",
          "type": "uint8"
        },
        {
          "internalType": "uint256",
          "name": "",
          "type": "uint256"
        }
      ],
      "stateMutability": "pure",
      "type": "function"
    },
    {
      "inputs": [
        {
          "internalType": "address",
          "name": "spender",
          "type": "address"
        },
        {
          "internalType": "uint256",
          "name": "subtractedValue",
          "type": "uint256"
        }
      ],
      "name": "decreaseAllowance",
      "outputs": [
        {
          "internalType": "bool",
          "name": "",
          "type": "bool"
        }
      ],
      "stateMutability": "nonpayable",
      "type": "function"
    },
    {
      "inputs": [
        {
          "internalType": "bytes32",
          "name": "",
          "type": "bytes32"
        }
      ],
      "name": "deposits",
      "outputs": [
        {
          "internalType": "uint256",
          "name": "scheduledFor",
          "type": "uint256"
        },
        {
          "internalType": "uint256",
          "name": "signalingCutoff",
          "type": "uint256"
        },
        {
          "internalType": "uint256",
          "name": "amount",
          "type": "uint256"
        },
        {
          "internalType": "uint256",
          "name": "claimedAmount",
          "type": "uint256"
        },
        {
          "internalType": "uint256",
          "name": "totalAmountSignaled",
          "type": "uint256"
        },
        {
          "internalType": "address",
          "name": "token",
          "type": "address"
        },
        {
          "internalType": "bool",
          "name": "onlySignaled",
          "type": "bool"
        }
      ],
      "stateMutability": "view",
      "type": "function"
    },
    {
      "inputs": [
        {
          "internalType": "enum EventType",
          "name": "eventType",
          "type": "uint8"
        },
        {
          "internalType": "uint256",
          "name": "scheduleTime",
          "type": "uint256"
        }
      ],
      "name": "encodeEvent",
      "outputs": [
        {
          "internalType": "bytes32",
          "name": "",
          "type": "bytes32"
        }
      ],
      "stateMutability": "pure",
      "type": "function"
    },
    {
      "inputs": [
        {
          "internalType": "bytes32",
          "name": "_event",
          "type": "bytes32"
        }
      ],
      "name": "fetchDepositAmountForEvent",
      "outputs": [],
      "stateMutability": "nonpayable",
      "type": "function"
    },
    {
      "inputs": [
        {
          "internalType": "bytes32",
          "name": "depositId",
          "type": "bytes32"
        }
      ],
      "name": "getDeposit",
      "outputs": [
        {
          "internalType": "uint256",
          "name": "scheduledFor",
          "type": "uint256"
        },
        {
          "internalType": "uint256",
          "name": "amount",
          "type": "uint256"
        },
        {
          "internalType": "uint256",
          "name": "claimedAmount",
          "type": "uint256"
        },
        {
          "internalType": "uint256",
          "name": "totalAmountSignaled",
          "type": "uint256"
        },
        {
          "internalType": "bool",
          "name": "onlySignaled",
          "type": "bool"
        },
        {
          "internalType": "address",
          "name": "token",
          "type": "address"
        }
      ],
      "stateMutability": "view",
      "type": "function"
    },
    {
      "inputs": [
        {
          "internalType": "enum EventType",
          "name": "eventType",
          "type": "uint8"
        }
      ],
      "name": "getEpochOffset",
      "outputs": [
        {
          "internalType": "uint256",
          "name": "",
          "type": "uint256"
        }
      ],
      "stateMutability": "pure",
      "type": "function"
    },
    {
      "inputs": [
        {
          "internalType": "uint256",
          "name": "checkpointId",
          "type": "uint256"
        },
        {
          "internalType": "uint256",
          "name": "start",
          "type": "uint256"
        },
        {
          "internalType": "uint256",
          "name": "end",
          "type": "uint256"
        }
      ],
      "name": "getHolderSubsetAt",
      "outputs": [
        {
          "internalType": "address[]",
          "name": "",
          "type": "address[]"
        }
      ],
      "stateMutability": "view",
      "type": "function"
    },
    {
      "inputs": [
        {
          "internalType": "uint256",
          "name": "checkpointId",
          "type": "uint256"
        }
      ],
      "name": "getHoldersAt",
      "outputs": [
        {
          "internalType": "address[]",
          "name": "",
          "type": "address[]"
        }
      ],
      "stateMutability": "view",
      "type": "function"
    },
    {
      "inputs": [],
      "name": "getNumberOfHolders",
      "outputs": [
        {
          "internalType": "uint256",
          "name": "",
          "type": "uint256"
        }
      ],
      "stateMutability": "view",
      "type": "function"
    },
    {
      "inputs": [
        {
          "internalType": "address",
          "name": "holder",
          "type": "address"
        },
        {
          "internalType": "bytes32",
          "name": "depositId",
          "type": "bytes32"
        }
      ],
      "name": "hasClaimedDeposit",
      "outputs": [
        {
          "internalType": "bool",
          "name": "",
          "type": "bool"
        }
      ],
      "stateMutability": "view",
      "type": "function"
    },
    {
      "inputs": [],
      "name": "holderCount",
      "outputs": [
        {
          "internalType": "uint256",
          "name": "",
          "type": "uint256"
        }
      ],
      "stateMutability": "view",
      "type": "function"
    },
    {
      "inputs": [
        {
          "internalType": "address",
          "name": "",
          "type": "address"
        }
      ],
      "name": "holderExists",
      "outputs": [
        {
          "internalType": "bool",
          "name": "",
          "type": "bool"
        }
      ],
      "stateMutability": "view",
      "type": "function"
    },
    {
      "inputs": [
        {
          "internalType": "uint256",
          "name": "",
          "type": "uint256"
        }
      ],
      "name": "holders",
      "outputs": [
        {
          "internalType": "address",
          "name": "",
          "type": "address"
        }
      ],
      "stateMutability": "view",
      "type": "function"
    },
    {
      "inputs": [
        {
          "internalType": "address",
          "name": "spender",
          "type": "address"
        },
        {
          "internalType": "uint256",
          "name": "addedValue",
          "type": "uint256"
        }
      ],
      "name": "increaseAllowance",
      "outputs": [
        {
          "internalType": "bool",
          "name": "",
          "type": "bool"
        }
      ],
      "stateMutability": "nonpayable",
      "type": "function"
    },
    {
      "inputs": [],
      "name": "marketObjectCode",
      "outputs": [
        {
          "internalType": "bytes32",
          "name": "",
          "type": "bytes32"
        }
      ],
      "stateMutability": "view",
      "type": "function"
    },
    {
      "inputs": [
        {
          "internalType": "address",
          "name": "account",
          "type": "address"
        },
        {
          "internalType": "uint256",
          "name": "amount",
          "type": "uint256"
        }
      ],
      "name": "mint",
      "outputs": [
        {
          "internalType": "bool",
          "name": "",
          "type": "bool"
        }
      ],
      "stateMutability": "nonpayable",
      "type": "function"
    },
    {
      "inputs": [],
      "name": "name",
      "outputs": [
        {
          "internalType": "string",
          "name": "",
          "type": "string"
        }
      ],
      "stateMutability": "view",
      "type": "function"
    },
    {
      "inputs": [],
      "name": "owner",
      "outputs": [
        {
          "internalType": "address",
          "name": "",
          "type": "address"
        }
      ],
      "stateMutability": "view",
      "type": "function"
    },
    {
      "inputs": [
        {
          "internalType": "bytes32",
          "name": "depositId",
          "type": "bytes32"
        },
        {
          "internalType": "address payable[]",
          "name": "payees",
          "type": "address[]"
        }
      ],
      "name": "pushFundsToAddresses",
      "outputs": [],
      "stateMutability": "nonpayable",
      "type": "function"
    },
    {
      "inputs": [
        {
          "internalType": "bytes32",
          "name": "_event",
          "type": "bytes32"
        },
        {
          "internalType": "uint256",
          "name": "amount",
          "type": "uint256"
        }
      ],
      "name": "registerForRedemption",
      "outputs": [],
      "stateMutability": "nonpayable",
      "type": "function"
    },
    {
      "inputs": [],
      "name": "renounceOwnership",
      "outputs": [],
      "stateMutability": "nonpayable",
      "type": "function"
    },
    {
      "inputs": [
        {
          "internalType": "bytes32",
          "name": "_assetId",
          "type": "bytes32"
        }
      ],
      "name": "setAssetId",
      "outputs": [],
      "stateMutability": "nonpayable",
      "type": "function"
    },
    {
      "inputs": [
        {
          "internalType": "uint256",
          "name": "timestamp",
          "type": "uint256"
        },
        {
          "internalType": "enum BusinessDayConvention",
          "name": "convention",
          "type": "uint8"
        },
        {
          "internalType": "enum Calendar",
          "name": "calendar",
          "type": "uint8"
        },
        {
          "internalType": "uint256",
          "name": "maturityDate",
          "type": "uint256"
        }
      ],
      "name": "shiftCalcTime",
      "outputs": [
        {
          "internalType": "uint256",
          "name": "",
          "type": "uint256"
        }
      ],
      "stateMutability": "pure",
      "type": "function"
    },
    {
      "inputs": [
        {
          "internalType": "uint256",
          "name": "timestamp",
          "type": "uint256"
        },
        {
          "internalType": "enum BusinessDayConvention",
          "name": "convention",
          "type": "uint8"
        },
        {
          "internalType": "enum Calendar",
          "name": "calendar",
          "type": "uint8"
        },
        {
          "internalType": "uint256",
          "name": "maturityDate",
          "type": "uint256"
        }
      ],
      "name": "shiftEventTime",
      "outputs": [
        {
          "internalType": "uint256",
          "name": "",
          "type": "uint256"
        }
      ],
      "stateMutability": "pure",
      "type": "function"
    },
    {
      "inputs": [
        {
          "internalType": "bytes32",
          "name": "depositId",
          "type": "bytes32"
        },
        {
          "internalType": "uint256",
          "name": "signalAmount",
          "type": "uint256"
        }
      ],
      "name": "signalAmountForDeposit",
      "outputs": [],
      "stateMutability": "nonpayable",
      "type": "function"
    },
    {
      "inputs": [],
      "name": "symbol",
      "outputs": [
        {
          "internalType": "string",
          "name": "",
          "type": "string"
        }
      ],
      "stateMutability": "view",
      "type": "function"
    },
    {
      "inputs": [
        {
          "internalType": "address",
          "name": "",
          "type": "address"
        }
      ],
      "name": "totalAmountSignaledByHolder",
      "outputs": [
        {
          "internalType": "uint256",
          "name": "",
          "type": "uint256"
        }
      ],
      "stateMutability": "view",
      "type": "function"
    },
    {
      "inputs": [],
      "name": "totalSupply",
      "outputs": [
        {
          "internalType": "uint256",
          "name": "",
          "type": "uint256"
        }
      ],
      "stateMutability": "view",
      "type": "function"
    },
    {
      "inputs": [
        {
          "internalType": "uint256",
          "name": "timestamp",
          "type": "uint256"
        }
      ],
      "name": "totalSupplyAt",
      "outputs": [
        {
          "internalType": "uint256",
          "name": "",
          "type": "uint256"
        }
      ],
      "stateMutability": "view",
      "type": "function"
    },
    {
      "inputs": [
        {
          "internalType": "address",
          "name": "recipient",
          "type": "address"
        },
        {
          "internalType": "uint256",
          "name": "amount",
          "type": "uint256"
        }
      ],
      "name": "transfer",
      "outputs": [
        {
          "internalType": "bool",
          "name": "",
          "type": "bool"
        }
      ],
      "stateMutability": "nonpayable",
      "type": "function"
    },
    {
      "inputs": [
        {
          "internalType": "address",
          "name": "sender",
          "type": "address"
        },
        {
          "internalType": "address",
          "name": "recipient",
          "type": "address"
        },
        {
          "internalType": "uint256",
          "name": "amount",
          "type": "uint256"
        }
      ],
      "name": "transferFrom",
      "outputs": [
        {
          "internalType": "bool",
          "name": "",
          "type": "bool"
        }
      ],
      "stateMutability": "nonpayable",
      "type": "function"
    },
    {
      "inputs": [
        {
          "internalType": "address",
          "name": "newOwner",
          "type": "address"
        }
      ],
      "name": "transferOwnership",
      "outputs": [],
      "stateMutability": "nonpayable",
      "type": "function"
    },
    {
      "inputs": [
        {
          "internalType": "bytes32",
          "name": "depositId",
          "type": "bytes32"
        },
        {
          "internalType": "uint256",
          "name": "amount",
          "type": "uint256"
        }
      ],
      "name": "updateDepositAmount",
      "outputs": [],
      "stateMutability": "nonpayable",
      "type": "function"
    }
  ],
  "bytecode": "0x60806040523480156200001157600080fd5b50604051620049d2380380620049d28339810160408190526200003491620003d2565b6040518060400160405280601b81526020017f496e766573746d656e74204365727469666163746520546f6b656e0000000000815250604051806040016040528060038152602001621250d560ea1b815250818181818160039080519060200190620000a292919062000326565b508051620000b890600490602084019062000326565b50506005805460ff1916601217905550506001600b555060009150620000df9050620001e6565b600e80546001600160a01b0319166001600160a01b03831690811790915560405191925090600090600080516020620049b2833981519152908290a3506200013b846001600160a01b0316620001ea60201b620022ef1760201c565b620001635760405162461bcd60e51b81526004016200015a9062000472565b60405180910390fd5b62000182836001600160a01b0316620001ea60201b620022ef1760201c565b620001a15760405162461bcd60e51b81526004016200015a906200042d565b620001ac8162000227565b50600f80546001600160a01b039485166001600160a01b0319918216179091556010805493909416921691909117909155601155620004d1565b3390565b6000813f7fc5d2460186f7233c927e7db2dcc703c0e500b653ca82273b7bfad8045d85a4708181148015906200021f57508115155b949350505050565b62000231620001e6565b600e546001600160a01b0390811691161462000294576040805162461bcd60e51b815260206004820181905260248201527f4f776e61626c653a2063616c6c6572206973206e6f7420746865206f776e6572604482015290519081900360640190fd5b6001600160a01b038116620002db5760405162461bcd60e51b81526004018080602001828103825260268152602001806200498c6026913960400191505060405180910390fd5b600e546040516001600160a01b03808416921690600080516020620049b283398151915290600090a3600e80546001600160a01b0319166001600160a01b0392909216919091179055565b828054600181600116156101000203166002900490600052602060002090601f0160209004810192826200035e5760008555620003a9565b82601f106200037957805160ff1916838001178555620003a9565b82800160010185558215620003a9579182015b82811115620003a95782518255916020019190600101906200038c565b50620003b7929150620003bb565b5090565b5b80821115620003b75760008155600101620003bc565b60008060008060808587031215620003e8578384fd5b8451620003f581620004b8565b60208601519094506200040881620004b8565b6040860151606087015191945092506200042281620004b8565b939692955090935050565b60208082526025908201527f4943542e696e697469616c697a653a20494e56414c49445f444154415f524547604082015264495354525960d81b606082015260800190565b60208082526026908201527f4943542e696e697469616c697a653a20494e56414c49445f41535345545f524560408201526547495354525960d01b606082015260800190565b6001600160a01b0381168114620004ce57600080fd5b50565b6144ab80620004e16000396000f3fe608060405234801561001057600080fd5b50600436106102bb5760003560e01c806372540003116101825780639f9b1048116100e9578063e05a66e0116100a2578063f2fde38b1161007c578063f2fde38b14610638578063f5586e051461064b578063fbaa40191461065e578063fcc189b214610671576102bb565b8063e05a66e0146105ff578063e726d68014610612578063ec15b9ca14610625576102bb565b80639f9b10481461058d578063a457c2d7146105a0578063a9059cbb146105b3578063a999b73f146105c6578063c20662c3146105d9578063dd62ed3e146105ec576102bb565b8063811322fb1161013b578063811322fb1461053c5780638da5cb5b1461054f5780638e17e4a31461055757806395d89b411461056a578063979d7e8614610572578063981b24d01461057a576102bb565b806372540003146104a757806376fa0e46146104c85780637a22402c146104db5780637a86983f146104ee5780637bb7a8b9146105135780637e8937d91461051b576102bb565b8063313ce5671161022657806344de240a116101df57806344de240a1461044b5780634ee2cd7e14610453578063520fdd22146104665780635e5858891461047957806370a082311461048c578063715018a61461049f576102bb565b8063313ce567146103b757806331801925146103cc5780633564f613146103ec57806339509351146103ff5780633d4dff7b1461041257806340c10f1914610438576102bb565b80632069daeb116102785780632069daeb1461034357806323b872dd1461035657806326158a8b146103695780632839a1841461037c5780632a11ced01461038f578063308feec3146103af576102bb565b806303952a7a146102c057806306fdde03146102d5578063095ea7b3146102f357806318160ddd146103135780631aab9a9f146103285780631cb54d4914610330575b600080fd5b6102d36102ce36600461385e565b610679565b005b6102dd61087a565b6040516102ea9190613bc6565b60405180910390f35b61030661030136600461371e565b610910565b6040516102ea9190613a99565b61031b61092e565b6040516102ea9190613aa4565b61031b610934565b6102d361033e36600461385e565b61093a565b6102d3610351366004613792565b610d4d565b6103066103643660046136de565b610f2e565b6102d3610377366004613792565b610fb5565b61031b61038a36600461366e565b611032565b6103a261039d366004613792565b611044565b6040516102ea9190613a1f565b61031b61106e565b6103bf611074565b6040516102ea9190614161565b6103df6103da3660046139d3565b61107d565b6040516102ea9190613a4c565b6102d36103fa36600461387f565b611294565b61030661040d36600461371e565b611305565b610425610420366004613792565b611353565b6040516102ea9796959493929190614126565b61030661044636600461371e565b61139d565b61031b611401565b61031b61046136600461371e565b611407565b6103df610474366004613792565b611430565b6102d3610487366004613792565b6115e6565b61031b61049a36600461366e565b611634565b6102d361164f565b6104ba6104b5366004613792565b6116f1565b6040516102ea929190613bae565b6103066104d636600461371e565b61171a565b61031b6104e936600461371e565b611748565b6105016104fc366004613792565b611822565b6040516102ea969594939291906140f3565b61031b611866565b61052e610529366004613792565b61186c565b6040516102ea9291906140da565b61031b61054a3660046138d4565b6118a4565b6103a26118b2565b6102d3610565366004613792565b6118c1565b6102dd611b1a565b6103a2611b7b565b61031b610588366004613792565b611b8a565b61030661059b36600461366e565b611b97565b6103066105ae36600461371e565b611bac565b6103066105c136600461371e565b611c14565b6102d36105d436600461385e565b611c28565b6102d36105e73660046137aa565b611c7d565b61031b6105fa3660046136a6565b611cff565b61031b61060d3660046138ee565b611d2a565b61031b610620366004613986565b611d48565b6102d3610633366004613792565b611e9d565b6102d361064636600461366e565b61212d565b61031b610659366004613986565b612226565b61052e61066c36600461371e565b61229a565b6103a26122e0565b6000828152600c6020526040902080546106ae5760405162461bcd60e51b81526004016106a590613e35565b60405180910390fd5b6005810154600160a01b900460ff1615156001146106de5760405162461bcd60e51b81526004016106a590613c19565b428160010154116107015760405162461bcd60e51b81526004016106a59061400a565b61070b3342611407565b336000908152600d602052604090205411156107395760405162461bcd60e51b81526004016106a590614047565b8161077a57336000908152600782016020908152604080832054600d9092529091205461076591612328565b336000908152600d602052604090205561082e565b3360009081526007820160205260409020548210156107e2573360009081526007820160205260408120546107af9084612328565b336000908152600d60205260409020549091506107cc9082612328565b336000908152600d60205260409020555061082e565b3360009081526007820160205260408120546107ff908490612328565b336000908152600d602052604090205490915061081c908261236a565b336000908152600d6020526040902055505b336000908152600782016020526040902054600482015461084e91612328565b6004820181905561085f908361236a565b60048201553360009081526007909101602052604090205550565b60038054604080516020601f60026000196101006001881615020190951694909404938401819004810282018101909252828152606093909290918301828280156109065780601f106108db57610100808354040283529160200191610906565b820191906000526020600020905b8154815290600101906020018083116108e957829003601f168201915b5050505050905090565b600061092461091d6123c4565b84846123c8565b5060015b92915050565b60025490565b600a5481565b6002600b541415610980576040805162461bcd60e51b815260206004820152601f60248201526000805160206141da833981519152604482015290519081900360640190fd5b6002600b55600f54601254604051631392c59160e11b81526001600160a01b03909216916327258b22916109b691600401613aa4565b60206040518083038186803b1580156109ce57600080fd5b505afa1580156109e2573d6000803e3d6000fd5b505050506040513d601f19601f82011682018060405250810190610a069190613749565b1515600114610a275760405162461bcd60e51b81526004016106a590613da4565b610a318282610679565b6000828152600c6020526040808220600f546012549251636a899b9b60e01b81529193926001600160a01b0390911691636a899b9b91610a7391600401613b64565b60206040518083038186803b158015610a8b57600080fd5b505afa158015610a9f573d6000803e3d6000fd5b505050506040513d601f19601f82011682018060405250810190610ac39190613909565b90506000610ad48360000154611b8a565b90506000610aef8285600401546124b490919063ffffffff16565b90506000610afd82856125ec565b90506000610b0a886116f1565b5090506000610cd360135b836021811115610b2157fe5b1415610b31578760010154610b34565b87545b600f5460125460405163ecef557760e01b81526001600160a01b039092169163ecef557791610b6591600401613b1f565b60206040518083038186803b158015610b7d57600080fd5b505afa158015610b91573d6000803e3d6000fd5b505050506040513d601f19601f82011682018060405250810190610bb591906139fe565b60ff166008811115610bc357fe5b600f5460125460405163ecef557760e01b81526001600160a01b039092169163ecef557791610bf491600401613b7e565b60206040518083038186803b158015610c0c57600080fd5b505afa158015610c20573d6000803e3d6000fd5b505050506040513d601f19601f82011682018060405250810190610c4491906139fe565b60ff166001811115610c5257fe5b600f5460125460405163135b9f4d60e01b81526001600160a01b039092169163135b9f4d91610c8391600401613b46565b60206040518083038186803b158015610c9b57600080fd5b505afa158015610caf573d6000803e3d6000fd5b505050506040513d601f19601f820116820180604052508101906106599190613909565b60105460115460405163d38db86d60e01b81529293506001600160a01b039091169163d38db86d91610d0b9185908890600401613b98565b600060405180830381600087803b158015610d2557600080fd5b505af1158015610d39573d6000803e3d6000fd5b50506001600b555050505050505050505050565b6002600b541415610d93576040805162461bcd60e51b815260206004820152601f60248201526000805160206141da833981519152604482015290519081900360640190fd5b6002600b55600080610da4836116f1565b600f5460125492945090925060009182916001600160a01b03169063ba4d2d28906013876021811115610dd357fe5b1415610e7057600f546012546040516337f2add560e11b8152610e6b9260159261060d926001600160a01b0390921691636fe55baa91610e1591600401613abb565b60606040518083038186803b158015610e2d57600080fd5b505afa158015610e41573d6000803e3d6000fd5b505050506040513d601f19601f82011682018060405250810190610e659190613921565b896126e7565b610e72565b875b6040518363ffffffff1660e01b8152600401610e8f929190613aad565b604080518083038186803b158015610ea657600080fd5b505afa158015610eba573d6000803e3d6000fd5b505050506040513d601f19601f82011682018060405250810190610ede9190613765565b9092509050600182151514610f055760405162461bcd60e51b81526004016106a590613c5c565b610f22856000831215610f1c5782600019026105d4565b82611c28565b50506001600b55505050565b6000610f3b848484612800565b610fab84610f476123c4565b610fa685604051806060016040528060288152602001614355602891396001600160a01b038a16600090815260016020526040812090610f856123c4565b6001600160a01b031681526020810191909152604001600020549190612846565b6123c8565b5060019392505050565b610fbd6123c4565b600e546001600160a01b0390811691161461100d576040805162461bcd60e51b8152602060048201819052602482015260008051602061437d833981519152604482015290519081900360640190fd5b6012541561102d5760405162461bcd60e51b81526004016106a590613ec7565b601255565b600d6020526000908152604090205481565b6008818154811061105457600080fd5b6000918252602090912001546001600160a01b0316905081565b60085490565b60055460ff1690565b6008546060908083106110925783900361109a565b506001838303015b60608167ffffffffffffffff811180156110b357600080fd5b506040519080825280602002602001820160405280156110dd578160200160208202803683370190505b50905060005b82811015611144576008868201815481106110fa57fe5b9060005260206000200160009054906101000a90046001600160a01b031682828151811061112457fe5b6001600160a01b03909216602092830291909101909101526001016110e3565b506000805b82518110156111b957600061117184838151811061116357fe5b60200260200101518a611407565b1115611182576001909101906111b1565b600083828151811061119057fe5b60200260200101906001600160a01b031690816001600160a01b0316815250505b600101611149565b60608267ffffffffffffffff811180156111d257600080fd5b506040519080825280602002602001820160405280156111fc578160200160208202803683370190505b50905060009250600091505b83518210156112885760006001600160a01b031684838151811061122857fe5b60200260200101516001600160a01b03161461127d5783828151811061124a57fe5b602002602001015181848151811061125e57fe5b6001600160a01b03909216602092830291909101909101526001909201915b600190910190611208565b98975050505050505050565b6000858152600c602052604090208054156112c15760405162461bcd60e51b81526004016106a590613d0a565b93845560018401929092556005909201805460ff60a01b1916600160a01b93151593909302929092176001600160a01b0319166001600160a01b0390911617905550565b60006109246113126123c4565b84610fa685600160006113236123c4565b6001600160a01b03908116825260208083019390935260409182016000908120918c16815292529020549061236a565b600c6020526000908152604090208054600182015460028301546003840154600485015460059095015493949293919290916001600160a01b03811690600160a01b900460ff1687565b60006113a76123c4565b600e546001600160a01b039081169116146113f7576040805162461bcd60e51b8152602060048201819052602482015260008051602061437d833981519152604482015290519081900360640190fd5b61092483836128dd565b60125481565b6001600160a01b038216600090815260076020526040812061142990836128f3565b9392505050565b60606000806060600880548060200260200160405190810160405280929190818152602001828054801561148d57602002820191906000526020600020905b81546001600160a01b0316815260019091019060200180831161146f575b50505050509050600091505b805182101561150c5760006114c18284815181106114b357fe5b602002602001015187611407565b11156114d257600190920191611501565b60008183815181106114e057fe5b60200260200101906001600160a01b031690816001600160a01b0316815250505b600190910190611499565b60608367ffffffffffffffff8111801561152557600080fd5b5060405190808252806020026020018201604052801561154f578160200160208202803683370190505b50905060009350600092505b81518310156115db5760006001600160a01b031682848151811061157b57fe5b60200260200101516001600160a01b0316146115d05781838151811061159d57fe5b60200260200101518185815181106115b157fe5b6001600160a01b03909216602092830291909101909101526001909301925b60019092019161155b565b93505050505b919050565b6000818152600c60209081526040808320338452600681019092529091205460ff16156116255760405162461bcd60e51b81526004016106a590613d57565b611630338284612a1f565b5050565b6001600160a01b031660009081526020819052604090205490565b6116576123c4565b600e546001600160a01b039081169116146116a7576040805162461bcd60e51b8152602060048201819052602482015260008051602061437d833981519152604482015290519081900360640190fd5b600e546040516000916001600160a01b0316907f8be0079c531659141344cd1fd0a4f28419497f9722a3daafe3b4186f6b6457e0908390a3600e80546001600160a01b0319169055565b6000808060f884901c602181111561170557fe5b92505067ffffffffffffffff83169050915091565b6000908152600c602090815260408083206001600160a01b0394909416835260069093019052205460ff1690565b6000818152600c602090815260408083206001600160a01b03861684526006810190925282205460ff1615611781576000915050610928565b60006117908260000154611b8a565b6005830154909150600090600160a01b900460ff166117bc576117b7868460000154611407565b6117d8565b6001600160a01b03861660009081526007840160205260409020545b905060006118178460050160149054906101000a900460ff166117fb5783611801565b84600401545b6002860154611811908590612a8e565b90612ae7565b979650505050505050565b6000908152600c602052604090208054600282015460038301546004840154600590940154929491939092909160ff600160a01b830416916001600160a01b031690565b60115481565b6006818154811061187c57600080fd5b6000918252602090912060029091020180546001909101546001600160801b03909116915082565b600081602181111561092857fe5b600e546001600160a01b031690565b6002600b541415611907576040805162461bcd60e51b815260206004820152601f60248201526000805160206141da833981519152604482015290519081900360640190fd5b6002600b55600f54601254604051631392c59160e11b81526001600160a01b03909216916327258b229161193d91600401613aa4565b60206040518083038186803b15801561195557600080fd5b505afa158015611969573d6000803e3d6000fd5b505050506040513d601f19601f8201168201806040525081019061198d9190613749565b15156001146119ae5760405162461bcd60e51b81526004016106a590613f5e565b6119b9816000610679565b6000818152600c6020526040808220600f546012549251636a899b9b60e01b81529193926001600160a01b0390911691636a899b9b916119fb91600401613b64565b60206040518083038186803b158015611a1357600080fd5b505afa158015611a27573d6000803e3d6000fd5b505050506040513d601f19601f82011682018060405250810190611a4b9190613909565b90506000611a5c8360000154611b8a565b90506000611a778285600401546124b490919063ffffffff16565b90506000611a8582856125ec565b90506000611a92876116f1565b5090506000611aa16013610b15565b60105460115460405163d38db86d60e01b81529293506001600160a01b039091169163d38db86d91611ad99185908890600401613b98565b600060405180830381600087803b158015611af357600080fd5b505af1158015611b07573d6000803e3d6000fd5b50506001600b5550505050505050505050565b60048054604080516020601f60026000196101006001881615020190951694909404938401819004810282018101909252828152606093909290918301828280156109065780601f106108db57610100808354040283529160200191610906565b600f546001600160a01b031681565b60006109286006836128f3565b60096020526000908152604090205460ff1681565b6000610924611bb96123c4565b84610fa6856040518060600160405280602581526020016144516025913960016000611be36123c4565b6001600160a01b03908116825260208083019390935260409182016000908120918d16815292529020549190612846565b6000610924611c216123c4565b8484612800565b6000828152600c602052604090208054611c545760405162461bcd60e51b81526004016106a590613f0b565b600281015415611c765760405162461bcd60e51b81526004016106a590613cad565b6002015550565b6000828152600c60205260408120905b8251811015611cf957816006016000848381518110611ca857fe5b6020908102919091018101516001600160a01b031682528101919091526040016000205460ff16611cf157611cf1838281518110611ce257fe5b60200260200101518386612a1f565b600101611c8d565b50505050565b6001600160a01b03918216600090815260016020908152604080832093909416825291909152205490565b60008160f8846021811115611d3b57fe5b60ff16901b179392505050565b600081851415611d59575083611e95565b6001846008811115611d6757fe5b1480611d7e57506003846008811115611d7c57fe5b145b15611d9457611d8d8584612b29565b9050611e95565b6002846008811115611da257fe5b1480611db957506004846008811115611db757fe5b145b15611dfd576000611dca8685612b29565b9050611dd586612b85565b611dde82612b85565b1415611deb579050611e95565b611df58685612b9e565b915050611e95565b6005846008811115611e0b57fe5b1480611e2257506007846008811115611e2057fe5b145b15611e3157611d8d8584612b9e565b6006846008811115611e3f57fe5b1480611e5657506008846008811115611e5457fe5b145b15611e92576000611e678685612b9e565b9050611e7286612b85565b611e7b82612b85565b1415611e88579050611e95565b611df58685612b29565b50835b949350505050565b6002600b541415611ee3576040805162461bcd60e51b815260206004820152601f60248201526000805160206141da833981519152604482015290519081900360640190fd5b6002600b55600f54601254604051631392c59160e11b81526001600160a01b03909216916327258b2291611f1991600401613aa4565b60206040518083038186803b158015611f3157600080fd5b505afa158015611f45573d6000803e3d6000fd5b505050506040513d601f19601f82011682018060405250810190611f699190613749565b1515600114611f8a5760405162461bcd60e51b81526004016106a590613f5e565b600080611f96836116f1565b90925090506019826021811115611fa957fe5b14158015611fc357506015826021811115611fc057fe5b14155b611fdf5760405162461bcd60e51b81526004016106a590613e79565b600f5460125460405163eb01255960e01b81526000926001600160a01b03169163eb012559916120129190600401613b05565b60206040518083038186803b15801561202a57600080fd5b505afa15801561203e573d6000803e3d6000fd5b505050506040513d601f19601f82011682018060405250810190612062919061368a565b90506121228483601386602181111561207757fe5b1461208357600061210d565b600f546012546040516337f2add560e11b815261210d926001600160a01b031691636fe55baa916120b79190600401613add565b60606040518083038186803b1580156120cf57600080fd5b505afa1580156120e3573d6000803e3d6000fd5b505050506040513d601f19601f820116820180604052508101906121079190613921565b866126e7565b601387602181111561211b57fe5b1485611294565b50506001600b555050565b6121356123c4565b600e546001600160a01b03908116911614612185576040805162461bcd60e51b8152602060048201819052602482015260008051602061437d833981519152604482015290519081900360640190fd5b6001600160a01b0381166121ca5760405162461bcd60e51b815260040180806020018281038252602681526020018061421c6026913960400191505060405180910390fd5b600e546040516001600160a01b038084169216907f8be0079c531659141344cd1fd0a4f28419497f9722a3daafe3b4186f6b6457e090600090a3600e80546001600160a01b0319166001600160a01b0392909216919091179055565b6000600384600881111561223657fe5b148061224d5750600484600881111561224b57fe5b145b806122635750600784600881111561226157fe5b145b806122795750600884600881111561227757fe5b145b15612285575083611e95565b61229185858585611d48565b95945050505050565b600760205281600052604060002081815481106122b657600080fd5b6000918252602090912060029091020180546001909101546001600160801b039091169250905082565b6010546001600160a01b031681565b6000813f7fc5d2460186f7233c927e7db2dcc703c0e500b653ca82273b7bfad8045d85a470818114801590611e95575050151592915050565b600061142983836040518060400160405280601e81526020017f536166654d6174683a207375627472616374696f6e206f766572666c6f770000815250612846565b600082820183811015611429576040805162461bcd60e51b815260206004820152601b60248201527f536166654d6174683a206164646974696f6e206f766572666c6f770000000000604482015290519081900360640190fd5b3390565b6001600160a01b03831661240d5760405162461bcd60e51b81526004018080602001828103825260248152602001806144096024913960400191505060405180910390fd5b6001600160a01b0382166124525760405162461bcd60e51b81526004018080602001828103825260228152602001806142426022913960400191505060405180910390fd5b6001600160a01b03808416600081815260016020908152604080832094871680845294825291829020859055815185815291517f8c5be1e5ebec7d5bd14f71427d1e84f3dd0314c0f7b2291e5b200ac8c7c3b9259281900390910190a3505050565b6000816124f25760405162461bcd60e51b815260040180806020018281038252602481526020018061442d6024913960400191505060405180910390fd5b826124ff57506000610928565b670de0b6b3a76400008381029084828161251557fe5b05146125525760405162461bcd60e51b81526004018080602001828103825260268152602001806143e36026913960400191505060405180910390fd5b826000191480156125665750600160ff1b84145b156125a25760405162461bcd60e51b81526004018080602001828103825260268152602001806143e36026913960400191505060405180910390fd5b60008382816125ad57fe5b05905080611e955760405162461bcd60e51b81526004018080602001828103825260318152602001806143036031913960400191505060405180910390fd5b60008215806125f9575081155b1561260657506000610928565b8260001914801561261a5750600160ff1b82145b156126565760405162461bcd60e51b81526004018080602001828103825260278152602001806142dc6027913960400191505060405180910390fd5b8282028284828161266357fe5b05146126a05760405162461bcd60e51b81526004018080602001828103825260278152602001806142dc6027913960400191505060405180910390fd5b670de0b6b3a7640000810580611e955760405162461bcd60e51b81526004018080602001828103825260328152602001806142846032913960400191505060405180910390fd5b60008080846020015160058111156126fb57fe5b141561271557835161270e908490612bec565b9050611429565b60018460200151600581111561272757fe5b141561274557835161270e9061273e906007612a8e565b8490612bec565b60028460200151600581111561275757fe5b141561276a57835161270e908490612c01565b60038460200151600581111561277c57fe5b141561279a57835161270e90612793906003612a8e565b8490612c01565b6004846020015160058111156127ac57fe5b14156127c357835161270e90612793906006612a8e565b6005846020015160058111156127d557fe5b14156127e857835161270e908490612c7b565b60405162461bcd60e51b81526004016106a590613fad565b6001600160a01b0383166000908152600d6020526040902054156128365760405162461bcd60e51b81526004016106a590613df3565b612841838383612ca2565b505050565b600081848411156128d55760405162461bcd60e51b81526004018080602001828103825283818151815260200191508051906020019080838360005b8381101561289a578181015183820152602001612882565b50505050905090810190601f1680156128c75780820380516001836020036101000a031916815260200191505b509250505060405180910390fd5b505050900390565b6128e78282612cb8565b61163060008383612da8565b815460009061290457506000610928565b82548390600019810190811061291657fe5b60009182526020909120600290910201546001600160801b031682106129615782548390600019810190811061294857fe5b9060005260206000209060020201600101549050610928565b8260008154811061296e57fe5b60009182526020909120600290910201546001600160801b031682101561299757506000610928565b8254600090600019015b818111156129f75760006002600183850101049050848682815481106129c357fe5b60009182526020909120600290910201546001600160801b0316116129ea578092506129f1565b6001810391505b506129a1565b848281548110612a0357fe5b9060005260206000209060020201600101549250505092915050565b6005820154600160a01b900460ff1615156001148015612a5857506001600160a01b038316600090815260078301602052604090205415155b15612a83576001600160a01b0383166000908152600783016020526040902054612a83908490612dcd565b612841838383612de3565b600082612a9d57506000610928565b82820282848281612aaa57fe5b04146114295760405162461bcd60e51b81526004018080602001828103825260218152602001806143346021913960400191505060405180910390fd5b600061142983836040518060400160405280601a81526020017f536166654d6174683a206469766973696f6e206279207a65726f000000000000815250612f68565b60006001826001811115612b3957fe5b1415612b7e57612b4883612fcd565b60061415612b6257612b5b836002612bec565b9050610928565b612b6b83612fcd565b60071415612b7e57612b5b836001612bec565b5090919050565b6000612b9662015180835b04612fe0565b509392505050565b60006001826001811115612bae57fe5b1415612b7e57612bbd83612fcd565b60061415612bd057612b5b836001613076565b612bd983612fcd565b60071415612b7e57612b5b836002613076565b62015180810282018281101561092857600080fd5b6000808080612c136201518087612b90565b600c918801600019810183810494909401965094509250900660010191506000612c3d848461308b565b905080821115612c4b578091505b62015180870662015180612c60868686613111565b0201945086851015612c7157600080fd5b5050505092915050565b6000808080612c8d6201518087612b90565b9187019450925090506000612c3d848461308b565b612cad83838361318d565b612841838383612da8565b6001600160a01b038216612d13576040805162461bcd60e51b815260206004820152601f60248201527f45524332303a206d696e7420746f20746865207a65726f206164647265737300604482015290519081900360640190fd5b612d1f60008383612841565b600254612d2c908261236a565b6002556001600160a01b038216600090815260208190526040902054612d52908261236a565b6001600160a01b0383166000818152602081815260408083209490945583518581529351929391927fddf252ad1be2c89b69c2b068fc378daa952ba7f163c4a11628f55a4df523b3ef9281900390910190a35050565b612db38383836132e8565b612dbb6133db565b612dc4836133ef565b612841826133ef565b612dd78282613417565b61163082600083612da8565b6002600b541415612e29576040805162461bcd60e51b815260206004820152601f60248201526000805160206141da833981519152604482015290519081900360640190fd5b6002600b556000612e3a8483611748565b6001600160a01b03851660009081526006850160205260409020805460ff191660011790556003840154909150612e7290829061236a565b60038401556001600160a01b0384166000908152600784016020908152604080832054600d90925290912054612ea791612328565b6001600160a01b0385166000908152600d6020526040902055801561212257600583015460405163a9059cbb60e01b81526001600160a01b039091169063a9059cbb90612efa9087908590600401613a33565b602060405180830381600087803b158015612f1457600080fd5b505af1158015612f28573d6000803e3d6000fd5b505050506040513d601f19601f82011682018060405250810190612f4c9190613749565b6121225760405162461bcd60e51b81526004016106a590614092565b60008183612fb75760405162461bcd60e51b815260206004820181815283516024840152835190928392604490910191908501908083836000831561289a578181015183820152602001612882565b506000838581612fc357fe5b0495945050505050565b6007620151809091046003010660010190565b60008080836226496581018262023ab1600483020590506004600362023ab18302010590910390600062164b09610fa0600185010205905060046105b58202058303601f019250600061098f846050028161303757fe5b0590506000605061098f83020585039050600b820560301994909401606402929092018301996002600c90940290910392909201975095509350505050565b62015180810282038281111561092857600080fd5b6000816001148061309c5750816003145b806130a75750816005145b806130b25750816007145b806130bd5750816008145b806130c8575081600a145b806130d3575081600c145b156130e05750601f610928565b816002146130f05750601e610928565b6130f983613513565b61310457601c613107565b601d5b60ff169392505050565b60006107b284101561312257600080fd5b838383600062253d8c600460036064611324600c600d19890105890101050205600c80600d19870105600c02600287030361016f028161315e57fe5b0560046105b5600c600d1989010589016112c0010205617d4b8603010103039050809450505050509392505050565b6001600160a01b0383166131d25760405162461bcd60e51b81526004018080602001828103825260258152602001806143be6025913960400191505060405180910390fd5b6001600160a01b0382166132175760405162461bcd60e51b81526004018080602001828103825260238152602001806141b76023913960400191505060405180910390fd5b613222838383612841565b61325f816040518060600160405280602681526020016142b6602691396001600160a01b0386166000908152602081905260409020549190612846565b6001600160a01b03808516600090815260208190526040808220939093559084168152205461328e908261236a565b6001600160a01b038084166000818152602081815260409182902094909455805185815290519193928716927fddf252ad1be2c89b69c2b068fc378daa952ba7f163c4a11628f55a4df523b3ef92918290030190a3505050565b8015806133065750816001600160a01b0316836001600160a01b0316145b1561331057612841565b61331982611634565b15801561332e57506001600160a01b03821615155b156133b557600a5461334190600161236a565b600a5561334d82613538565b6133b5576008805460018082019092557ff3f7a9fe364faab93b216da50a3214154f22a0a2b415b23a84c8169e8b636ee30180546001600160a01b0319166001600160a01b0385169081179091556000908152600960205260409020805460ff191690911790555b6133be83611634565b81141561284157600a546133d3906001612328565b600a55505050565b6133ed60066133e861092e565b613556565b565b6001600160a01b0381166000908152600760205260409020613414906133e883611634565b50565b6001600160a01b03821661345c5760405162461bcd60e51b815260040180806020018281038252602181526020018061439d6021913960400191505060405180910390fd5b61346882600083612841565b6134a5816040518060600160405280602281526020016141fa602291396001600160a01b0385166000908152602081905260409020549190612846565b6001600160a01b0383166000908152602081905260409020556002546134cb9082612328565b6002556040805182815290516000916001600160a01b038516917fddf252ad1be2c89b69c2b068fc378daa952ba7f163c4a11628f55a4df523b3ef9181900360200190a35050565b60006004820615801561352857506064820615155b8061092857505061019090061590565b6001600160a01b031660009081526009602052604090205460ff1690565b8154158061358e575081548290600019810190811061357157fe5b60009182526020909120600290910201546001600160801b031642115b1561362457604080518082018252426001600160801b039081168252602080830185815286546001808201895560008981529384209551600290920290950180546fffffffffffffffffffffffffffffffff1916919094161783555191909201558354915160001992909201917f76735e462dae5480c552f970568dc60e35cc3c4c06eb818f77bbb357593bf7fa9190a2611630565b81546000908390600019810190811061363957fe5b60009182526020909120600160029092020101829055505050565b80356115e181614193565b8035602281106115e157600080fd5b60006020828403121561367f578081fd5b813561142981614193565b60006020828403121561369b578081fd5b815161142981614193565b600080604083850312156136b8578081fd5b82356136c381614193565b915060208301356136d381614193565b809150509250929050565b6000806000606084860312156136f2578081fd5b83356136fd81614193565b9250602084013561370d81614193565b929592945050506040919091013590565b60008060408385031215613730578182fd5b823561373b81614193565b946020939093013593505050565b60006020828403121561375a578081fd5b8151611429816141a8565b60008060408385031215613777578182fd5b8251613782816141a8565b6020939093015192949293505050565b6000602082840312156137a3578081fd5b5035919050565b600080604083850312156137bc578182fd5b8235915060208084013567ffffffffffffffff808211156137db578384fd5b818601915086601f8301126137ee578384fd5b8135818111156137fa57fe5b838102915061380a84830161416f565b8181528481019084860184860187018b1015613824578788fd5b8795505b8386101561384d5761383981613654565b835260019590950194918601918601613828565b508096505050505050509250929050565b60008060408385031215613870578081fd5b50508035926020909101359150565b600080600080600060a08688031215613896578283fd5b85359450602086013593506040860135925060608601356138b6816141a8565b915060808601356138c681614193565b809150509295509295909350565b6000602082840312156138e5578081fd5b6114298261365f565b60008060408385031215613900578182fd5b61373b8361365f565b60006020828403121561391a578081fd5b5051919050565b600060608284031215613932578081fd5b6040516060810181811067ffffffffffffffff8211171561394f57fe5b60405282518152602083015160068110613967578283fd5b6020820152604083015161397a816141a8565b60408201529392505050565b6000806000806080858703121561399b578182fd5b843593506020850135600981106139b0578283fd5b92506040850135600281106139c3578283fd5b9396929550929360600135925050565b6000806000606084860312156139e7578081fd5b505081359360208301359350604090920135919050565b600060208284031215613a0f578081fd5b815160ff81168114611429578182fd5b6001600160a01b0391909116815260200190565b6001600160a01b03929092168252602082015260400190565b6020808252825182820181905260009190848201906040850190845b81811015613a8d5783516001600160a01b031683529284019291840191600101613a68565b50909695505050505050565b901515815260200190565b90815260200190565b918252602082015260400190565b9081526f1cd95d1d1b195b595b9d14195c9a5bd960821b602082015260400190565b908152751c9959195b5c1d1a5bdb949958dbdc9914195c9a5bd960521b602082015260400190565b9081526763757272656e637960c01b602082015260400190565b90815274313ab9b4b732b9b9a230bca1b7b73b32b73a34b7b760591b602082015260400190565b9081526b6d617475726974794461746560a01b602082015260400190565b908152677175616e7469747960c01b602082015260400190565b9081526731b0b632b73230b960c11b602082015260400190565b9283526020830191909152604082015260600190565b6040810160228410613bbc57fe5b9281526020015290565b6000602080835283518082850152825b81811015613bf257858101830151858201604001528201613bd6565b81811115613c035783604083870101525b50601f01601f1916929092016040019392505050565b602080825260359082015260008051602061426483398151915260408201527414d251d39053125391d7d393d517d1539050931151605a1b606082015260800190565b60208082526031908201527f4943542e66657463684465706f736974416d6f756e74466f724576656e743a206040820152701393d517d6515517d1115413d4d2551151607a1b606082015260800190565b60208082526037908201527f4465706f7369742e7570646174654465706f736974416d6f756e743a2044455060408201527f4f5349545f414d4f554e545f414c52454144595f534554000000000000000000606082015260800190565b6020808252602d908201527f4465706f7369742e6372656174654465706f7369743a204445504f5349545f4160408201526c4c52454144595f45584953545360981b606082015260800190565b6020808252602d908201527f4465706f7369742e636c61696d4465706f7369743a204445504f5349545f414c60408201526c149150511657d0d31052535151609a1b606082015260800190565b6020808252602f908201527f4943542e7265676973746572466f72526564656d7074696f6e3a20415353455460408201526e17d113d154d7d393d517d1561254d5608a1b606082015260800190565b60208082526022908201527f4943542e5f7472616e736665723a20484f4c4445525f49535f5349474e414c496040820152614e4760f01b606082015260800190565b602080825260369082015260008051602061426483398151915260408201527511115413d4d25517d113d154d7d393d517d1561254d560521b606082015260800190565b6020808252602e908201527f4943542e6372656174654465706f736974466f724576656e743a20464f52424960408201526d4444454e5f4556454e5f5459504560901b606082015260800190565b60208082526024908201527f4943542e736574417373657449643a2041535345545f49445f414c524541445960408201526317d4d15560e21b606082015260800190565b60208082526033908201527f4465706f7369742e7570646174654465706f736974416d6f756e743a2044455060408201527213d4d25517d113d154d7d393d517d1561254d5606a1b606082015260800190565b6020808252602f908201527f4943542e6372656174654465706f736974466f724576656e743a20415353455460408201526e17d113d154d7d393d517d1561254d5608a1b606082015260800190565b60208082526037908201527f506572696f645574696c732e67657454696d657374616d70506c75735065726960408201527f6f643a204154545249425554455f4e4f545f464f554e44000000000000000000606082015260800190565b6020808252602f9082015260008051602061426483398151915260408201526e14d251d39053125391d7d153911151608a1b606082015260800190565b6020808252603d9082015260008051602061426483398151915260408201527f5349474e414c5f414d4f554e545f455843454544535f42414c414e4345000000606082015260800190565b60208082526028908201527f4465706f7369742e7472616e736665724465706f7369743a205452414e5346456040820152671497d1905253115160c21b606082015260800190565b6001600160801b03929092168252602082015260400190565b958652602086019490945260408501929092526060840152151560808301526001600160a01b031660a082015260c00190565b96875260208701959095526040860193909352606085019190915260808401526001600160a01b031660a0830152151560c082015260e00190565b60ff91909116815260200190565b60405181810167ffffffffffffffff8111828210171561418b57fe5b604052919050565b6001600160a01b038116811461341457600080fd5b801515811461341457600080fdfe45524332303a207472616e7366657220746f20746865207a65726f20616464726573735265656e7472616e637947756172643a207265656e7472616e742063616c6c0045524332303a206275726e20616d6f756e7420657863656564732062616c616e63654f776e61626c653a206e6577206f776e657220697320746865207a65726f206164647265737345524332303a20617070726f766520746f20746865207a65726f20616464726573734465706f7369742e7369676e616c416d6f756e74466f724465706f7369743a205369676e65644d6174682e666c6f61744d756c743a2043414e4e4f545f524550524553454e545f4752414e554c415249545945524332303a207472616e7366657220616d6f756e7420657863656564732062616c616e63655369676e65644d6174682e666c6f61744d756c743a204f564552464c4f575f44455445435445445369676e65644d6174682e666c6f61744469763a2043414e4e4f545f524550524553454e545f4752414e554c4152495459536166654d6174683a206d756c7469706c69636174696f6e206f766572666c6f7745524332303a207472616e7366657220616d6f756e74206578636565647320616c6c6f77616e63654f776e61626c653a2063616c6c6572206973206e6f7420746865206f776e657245524332303a206275726e2066726f6d20746865207a65726f206164647265737345524332303a207472616e736665722066726f6d20746865207a65726f20616464726573735369676e65644d6174682e666c6f61744469763a204f564552464c4f575f444554454354454445524332303a20617070726f76652066726f6d20746865207a65726f20616464726573735369676e65644d6174682e666c6f61744469763a20444956494445445f42595f5a45524f45524332303a2064656372656173656420616c6c6f77616e63652062656c6f77207a65726fa2646970667358221220982b99bdaeac10a6bde41cc411b42b3a46298dc4a8d1a88522e7db0ee52a2d3264736f6c634300070400334f776e61626c653a206e6577206f776e657220697320746865207a65726f20616464726573738be0079c531659141344cd1fd0a4f28419497f9722a3daafe3b4186f6b6457e0",
  "linkReferences": {},
  "deployedLinkReferences": {}
}