{
  "abi": [
    {
      "inputs": [
        {
          "internalType": "contract IAssetRegistry",
          "name": "assetRegistry",
          "type": "address"
        },
        {
          "internalType": "contract IDataRegistry",
          "name": "dataRegistry",
          "type": "address"
        }
      ],
      "stateMutability": "nonpayable",
      "type": "constructor"
    },
    {
      "anonymous": false,
      "inputs": [
        {
          "indexed": true,
          "internalType": "bytes32",
          "name": "assetId",
          "type": "bytes32"
        },
        {
          "indexed": false,
          "internalType": "enum ContractType",
          "name": "contractType",
          "type": "uint8"
        },
        {
          "indexed": false,
          "internalType": "address",
          "name": "creator",
          "type": "address"
        },
        {
          "indexed": false,
          "internalType": "address",
          "name": "counterparty",
          "type": "address"
        }
      ],
      "name": "InitializedAsset",
      "type": "event"
    },
    {
      "anonymous": false,
      "inputs": [
        {
          "indexed": true,
          "internalType": "address",
          "name": "previousOwner",
          "type": "address"
        },
        {
          "indexed": true,
          "internalType": "address",
          "name": "newOwner",
          "type": "address"
        }
      ],
      "name": "OwnershipTransferred",
      "type": "event"
    },
    {
      "anonymous": false,
      "inputs": [
        {
          "indexed": true,
          "internalType": "bytes32",
          "name": "assetId",
          "type": "bytes32"
        },
        {
          "indexed": false,
          "internalType": "enum EventType",
          "name": "eventType",
          "type": "uint8"
        },
        {
          "indexed": false,
          "internalType": "uint256",
          "name": "scheduleTime",
          "type": "uint256"
        },
        {
          "indexed": false,
          "internalType": "int256",
          "name": "payoff",
          "type": "int256"
        }
      ],
      "name": "ProgressedAsset",
      "type": "event"
    },
    {
      "anonymous": false,
      "inputs": [
        {
          "indexed": true,
          "internalType": "bytes32",
          "name": "assetId",
          "type": "bytes32"
        },
        {
          "indexed": false,
          "internalType": "bytes32",
          "name": "statusMessage",
          "type": "bytes32"
        }
      ],
      "name": "Status",
      "type": "event"
    },
    {
      "inputs": [],
      "name": "assetRegistry",
      "outputs": [
        {
          "internalType": "contract IAssetRegistry",
          "name": "",
          "type": "address"
        }
      ],
      "stateMutability": "view",
      "type": "function"
    },
    {
      "inputs": [],
      "name": "dataRegistry",
      "outputs": [
        {
          "internalType": "contract IDataRegistry",
          "name": "",
          "type": "address"
        }
      ],
      "stateMutability": "view",
      "type": "function"
    },
    {
      "inputs": [
        {
          "internalType": "bytes32",
          "name": "object",
          "type": "bytes32"
        }
      ],
      "name": "decodeCollateralObject",
      "outputs": [
        {
          "internalType": "address",
          "name": "",
          "type": "address"
        },
        {
          "internalType": "uint256",
          "name": "",
          "type": "uint256"
        }
      ],
      "stateMutability": "pure",
      "type": "function"
    },
    {
      "inputs": [
        {
          "internalType": "bytes32",
          "name": "_event",
          "type": "bytes32"
        }
      ],
      "name": "decodeEvent",
      "outputs": [
        {
          "internalType": "enum EventType",
          "name": "",
          "type": "uint8"
        },
        {
          "internalType": "uint256",
          "name": "",
          "type": "uint256"
        }
      ],
      "stateMutability": "pure",
      "type": "function"
    },
    {
      "inputs": [
        {
          "internalType": "address",
          "name": "collateralToken",
          "type": "address"
        },
        {
          "internalType": "uint256",
          "name": "collateralAmount",
          "type": "uint256"
        }
      ],
      "name": "encodeCollateralAsObject",
      "outputs": [
        {
          "internalType": "bytes32",
          "name": "",
          "type": "bytes32"
        }
      ],
      "stateMutability": "pure",
      "type": "function"
    },
    {
      "inputs": [
        {
          "internalType": "enum EventType",
          "name": "eventType",
          "type": "uint8"
        },
        {
          "internalType": "uint256",
          "name": "scheduleTime",
          "type": "uint256"
        }
      ],
      "name": "encodeEvent",
      "outputs": [
        {
          "internalType": "bytes32",
          "name": "",
          "type": "bytes32"
        }
      ],
      "stateMutability": "pure",
      "type": "function"
    },
    {
      "inputs": [
        {
          "internalType": "enum EventType",
          "name": "eventType",
          "type": "uint8"
        }
      ],
      "name": "getEpochOffset",
      "outputs": [
        {
          "internalType": "uint256",
          "name": "",
          "type": "uint256"
        }
      ],
      "stateMutability": "pure",
      "type": "function"
    },
    {
      "inputs": [
        {
          "components": [
            {
              "internalType": "enum ContractType",
              "name": "contractType",
              "type": "uint8"
            },
            {
              "internalType": "enum Calendar",
              "name": "calendar",
              "type": "uint8"
            },
            {
              "internalType": "enum ContractRole",
              "name": "contractRole",
              "type": "uint8"
            },
            {
              "internalType": "enum DayCountConvention",
              "name": "dayCountConvention",
              "type": "uint8"
            },
            {
              "internalType": "enum BusinessDayConvention",
              "name": "businessDayConvention",
              "type": "uint8"
            },
            {
              "internalType": "enum EndOfMonthConvention",
              "name": "endOfMonthConvention",
              "type": "uint8"
            },
            {
              "internalType": "enum FeeBasis",
              "name": "feeBasis",
              "type": "uint8"
            },
            {
              "internalType": "enum ContractPerformance",
              "name": "creditEventTypeCovered",
              "type": "uint8"
            },
            {
              "internalType": "address",
              "name": "currency",
              "type": "address"
            },
            {
              "internalType": "address",
              "name": "settlementCurrency",
              "type": "address"
            },
            {
              "internalType": "uint256",
              "name": "contractDealDate",
              "type": "uint256"
            },
            {
              "internalType": "uint256",
              "name": "statusDate",
              "type": "uint256"
            },
            {
              "internalType": "uint256",
              "name": "maturityDate",
              "type": "uint256"
            },
            {
              "internalType": "uint256",
              "name": "purchaseDate",
              "type": "uint256"
            },
            {
              "internalType": "uint256",
              "name": "cycleAnchorDateOfFee",
              "type": "uint256"
            },
            {
              "internalType": "int256",
              "name": "notionalPrincipal",
              "type": "int256"
            },
            {
              "internalType": "int256",
              "name": "delinquencyRate",
              "type": "int256"
            },
            {
              "internalType": "int256",
              "name": "feeAccrued",
              "type": "int256"
            },
            {
              "internalType": "int256",
              "name": "feeRate",
              "type": "int256"
            },
            {
              "internalType": "int256",
              "name": "priceAtPurchaseDate",
              "type": "int256"
            },
            {
              "internalType": "int256",
              "name": "coverageOfCreditEnhancement",
              "type": "int256"
            },
            {
              "components": [
                {
                  "internalType": "uint256",
                  "name": "i",
                  "type": "uint256"
                },
                {
                  "internalType": "enum P",
                  "name": "p",
                  "type": "uint8"
                },
                {
                  "internalType": "bool",
                  "name": "isSet",
                  "type": "bool"
                }
              ],
              "internalType": "struct IP",
              "name": "gracePeriod",
              "type": "tuple"
            },
            {
              "components": [
                {
                  "internalType": "uint256",
                  "name": "i",
                  "type": "uint256"
                },
                {
                  "internalType": "enum P",
                  "name": "p",
                  "type": "uint8"
                },
                {
                  "internalType": "bool",
                  "name": "isSet",
                  "type": "bool"
                }
              ],
              "internalType": "struct IP",
              "name": "delinquencyPeriod",
              "type": "tuple"
            },
            {
              "components": [
                {
                  "internalType": "uint256",
                  "name": "i",
                  "type": "uint256"
                },
                {
                  "internalType": "enum P",
                  "name": "p",
                  "type": "uint8"
                },
                {
                  "internalType": "enum S",
                  "name": "s",
                  "type": "uint8"
                },
                {
                  "internalType": "bool",
                  "name": "isSet",
                  "type": "bool"
                }
              ],
              "internalType": "struct IPS",
              "name": "cycleOfFee",
              "type": "tuple"
            },
            {
              "components": [
                {
                  "internalType": "bytes32",
                  "name": "object",
                  "type": "bytes32"
                },
                {
                  "internalType": "bytes32",
                  "name": "object2",
                  "type": "bytes32"
                },
                {
                  "internalType": "enum ContractReferenceType",
                  "name": "_type",
                  "type": "uint8"
                },
                {
                  "internalType": "enum ContractReferenceRole",
                  "name": "role",
                  "type": "uint8"
                }
              ],
              "internalType": "struct ContractReference",
              "name": "contractReference_1",
              "type": "tuple"
            },
            {
              "components": [
                {
                  "internalType": "bytes32",
                  "name": "object",
                  "type": "bytes32"
                },
                {
                  "internalType": "bytes32",
                  "name": "object2",
                  "type": "bytes32"
                },
                {
                  "internalType": "enum ContractReferenceType",
                  "name": "_type",
                  "type": "uint8"
                },
                {
                  "internalType": "enum ContractReferenceRole",
                  "name": "role",
                  "type": "uint8"
                }
              ],
              "internalType": "struct ContractReference",
              "name": "contractReference_2",
              "type": "tuple"
            }
          ],
          "internalType": "struct CEGTerms",
          "name": "terms",
          "type": "tuple"
        },
        {
          "internalType": "bytes32[]",
          "name": "schedule",
          "type": "bytes32[]"
        },
        {
          "components": [
            {
              "internalType": "address",
              "name": "creatorObligor",
              "type": "address"
            },
            {
              "internalType": "address",
              "name": "creatorBeneficiary",
              "type": "address"
            },
            {
              "internalType": "address",
              "name": "counterpartyObligor",
              "type": "address"
            },
            {
              "internalType": "address",
              "name": "counterpartyBeneficiary",
              "type": "address"
            }
          ],
          "internalType": "struct AssetOwnership",
          "name": "ownership",
          "type": "tuple"
        },
        {
          "internalType": "address",
          "name": "engine",
          "type": "address"
        },
        {
          "internalType": "address",
          "name": "admin",
          "type": "address"
        }
      ],
      "name": "initialize",
      "outputs": [],
      "stateMutability": "nonpayable",
      "type": "function"
    },
    {
      "inputs": [],
      "name": "owner",
      "outputs": [
        {
          "internalType": "address",
          "name": "",
          "type": "address"
        }
      ],
      "stateMutability": "view",
      "type": "function"
    },
    {
      "inputs": [
        {
          "internalType": "bytes32",
          "name": "assetId",
          "type": "bytes32"
        }
      ],
      "name": "progress",
      "outputs": [],
      "stateMutability": "nonpayable",
      "type": "function"
    },
    {
      "inputs": [
        {
          "internalType": "bytes32",
          "name": "assetId",
          "type": "bytes32"
        },
        {
          "internalType": "bytes32",
          "name": "_event",
          "type": "bytes32"
        }
      ],
      "name": "progressWith",
      "outputs": [],
      "stateMutability": "nonpayable",
      "type": "function"
    },
    {
      "inputs": [],
      "name": "renounceOwnership",
      "outputs": [],
      "stateMutability": "nonpayable",
      "type": "function"
    },
    {
      "inputs": [
        {
          "internalType": "uint256",
          "name": "timestamp",
          "type": "uint256"
        },
        {
          "internalType": "enum BusinessDayConvention",
          "name": "convention",
          "type": "uint8"
        },
        {
          "internalType": "enum Calendar",
          "name": "calendar",
          "type": "uint8"
        },
        {
          "internalType": "uint256",
          "name": "maturityDate",
          "type": "uint256"
        }
      ],
      "name": "shiftCalcTime",
      "outputs": [
        {
          "internalType": "uint256",
          "name": "",
          "type": "uint256"
        }
      ],
      "stateMutability": "pure",
      "type": "function"
    },
    {
      "inputs": [
        {
          "internalType": "uint256",
          "name": "timestamp",
          "type": "uint256"
        },
        {
          "internalType": "enum BusinessDayConvention",
          "name": "convention",
          "type": "uint8"
        },
        {
          "internalType": "enum Calendar",
          "name": "calendar",
          "type": "uint8"
        },
        {
          "internalType": "uint256",
          "name": "maturityDate",
          "type": "uint256"
        }
      ],
      "name": "shiftEventTime",
      "outputs": [
        {
          "internalType": "uint256",
          "name": "",
          "type": "uint256"
        }
      ],
      "stateMutability": "pure",
      "type": "function"
    },
    {
      "inputs": [
        {
          "internalType": "address",
          "name": "newOwner",
          "type": "address"
        }
      ],
      "name": "transferOwnership",
      "outputs": [],
      "stateMutability": "nonpayable",
      "type": "function"
    }
  ],
  "address": "0x6CB359312BB997790A9166bbdf7C3Fd66C3050A5",
  "args": [
    "0x4838B78cd2AaB01A3D5798e463FC236DCe15ab48",
    "0x50E9181CcAF19952c40eD4e7C5821b612C1b3e24"
  ],
  "solcInputHash": "0xc62fa96d4e48ea4a757361e251673623657a8dc49ad728bc296d1f4b1cb38ca9",
  "bytecode": "0x60806040523480156200001157600080fd5b5060405162004087380380620040878339810160408190526200003491620000ce565b818160006200004b6001600160e01b03620000ca16565b600080546001600160a01b0319166001600160a01b0383169081178255604051929350917f8be0079c531659141344cd1fd0a4f28419497f9722a3daafe3b4186f6b6457e0908290a350600180546001600160a01b039384166001600160a01b0319918216179091556002805492909316911617905550620001259050565b3390565b60008060408385031215620000e1578182fd5b8251620000ee816200010c565b602084015190925062000101816200010c565b809150509250929050565b6001600160a01b03811681146200012257600080fd5b50565b613f5280620001356000396000f3fe608060405234801561001057600080fd5b50600436106100f55760003560e01c80638da5cb5b11610097578063e05a66e011610066578063e05a66e0146101e0578063e726d680146101f3578063f2fde38b14610206578063f5586e0514610219576100f5565b80638da5cb5b146101a8578063979d7e86146101bd578063a39c1d6b146101c5578063ce892c97146101cd576100f5565b8063715018a6116100d3578063715018a61461015957806372540003146101615780637aebd2a814610182578063811322fb14610195576100f5565b8063645a26bd146100fa5780636778e0e9146101245780636b6ba66414610144575b600080fd5b61010d610108366004612976565b61022c565b60405161011b9291906133b1565b60405180910390f35b61013761013236600461292f565b610245565b60405161011b91906133ca565b6101576101523660046129a6565b610270565b005b610157610525565b61017461016f366004612976565b6105a4565b60405161011b929190613694565b610157610190366004612976565b6105cd565b6101376101a33660046129ff565b61082b565b6101b0610841565b60405161011b919061335f565b6101b0610850565b6101b061085f565b6101576101db366004612acf565b61086e565b6101376101ee366004612a1b565b610af0565b610137610201366004612e75565b610b0e565b6101576102143660046128f7565b610c63565b610137610227366004612e75565b610d19565b606081901c6bffffffffffffffffffffffff8216915091565b6bffffffffffffffffffffffff19606083901b166bffffffffffffffffffffffff8216175b92915050565b60015460405163747be51f60e11b81526001600160a01b039091169063e8f7ca3e906102a290859033906004016133d3565b602060405180830381600087803b1580156102bc57600080fd5b505af11580156102d0573d6000803e3d6000fd5b505050506040513d601f19601f820116820180604052508101906102f4919061295a565b6103195760405162461bcd60e51b81526004016103109061391d565b60405180910390fd5b60015460405163f52f84e160e01b81526000916001600160a01b03169063f52f84e19061034a9086906004016133ca565b60206040518083038186803b15801561036257600080fd5b505afa158015610376573d6000803e3d6000fd5b505050506040513d601f19601f8201168201806040525081019061039a919061298e565b146103b75760405162461bcd60e51b815260040161031090613b2d565b600154604051631d7a1ab960e21b81526000916001600160a01b0316906375e86ae4906103e89086906004016133ca565b60206040518083038186803b15801561040057600080fd5b505afa158015610414573d6000803e3d6000fd5b505050506040513d601f19601f82011682018060405250810190610438919061298e565b146104555760405162461bcd60e51b8152600401610310906138cf565b60015460405163b828204160e01b81526000916104dc916001600160a01b039091169063b82820419061048c9087906004016133ca565b60206040518083038186803b1580156104a457600080fd5b505afa1580156104b8573d6000803e3d6000fd5b505050506040513d601f19601f8201168201806040525081019061016f919061298e565b91505060006104ea836105a4565b9150508115806104f957508181105b6105155760405162461bcd60e51b81526004016103109061378a565b61051f8484610d8d565b50505050565b61052d611324565b6000546001600160a01b0390811691161461055a5760405162461bcd60e51b815260040161031090613a5e565b600080546040516001600160a01b03909116907f8be0079c531659141344cd1fd0a4f28419497f9722a3daafe3b4186f6b6457e0908390a3600080546001600160a01b0319169055565b6000808060f884901c60218111156105b857fe5b92505067ffffffffffffffff83169050915091565b600154604051631392c59160e11b81526001600160a01b03909116906327258b22906105fd9084906004016133ca565b60206040518083038186803b15801561061557600080fd5b505afa158015610629573d6000803e3d6000fd5b505050506040513d601f19601f8201168201806040525081019061064d919061295a565b6106695760405162461bcd60e51b815260040161031090613968565b600154604051630316dd6960e21b81526000916001600160a01b031690630c5b75a49061069a9085906004016133ca565b602060405180830381600087803b1580156106b457600080fd5b505af11580156106c8573d6000803e3d6000fd5b505050506040513d601f19601f820116820180604052508101906106ec919061298e565b90508061077657600154604051631d7a1ab960e21b81526001600160a01b03909116906375e86ae4906107239085906004016133ca565b60206040518083038186803b15801561073b57600080fd5b505afa15801561074f573d6000803e3d6000fd5b505050506040513d601f19601f82011682018060405250810190610773919061298e565b90505b80610800576001546040516361db73e160e11b81526001600160a01b039091169063c3b6e7c2906107ab9085906004016133ca565b602060405180830381600087803b1580156107c557600080fd5b505af11580156107d9573d6000803e3d6000fd5b505050506040513d601f19601f820116820180604052508101906107fd919061298e565b90505b8061081d5760405162461bcd60e51b815260040161031090613839565b6108278282610d8d565b5050565b600081602181111561083957fe5b90505b919050565b6000546001600160a01b031690565b6001546001600160a01b031681565b6002546001600160a01b031681565b6001600160a01b0382161580159061090157506010826001600160a01b031663cb2ef6f76040518163ffffffff1660e01b815260040160206040518083038186803b1580156108bc57600080fd5b505afa1580156108d0573d6000803e3d6000fd5b505050506040513d601f19601f820116820180604052508101906108f491906129e3565b60128111156108ff57fe5b145b61091d5760405162461bcd60e51b8152600401610310906136d0565b60008642604051602001610932929190613c1c565b60408051601f1981840301815291905280516020909101209050600361096061046089016104408a016129c7565b600481111561096b57fe5b1415610993576103e08701356109935760405162461bcd60e51b81526004016103109061372d565b61099b61255b565b6040516367b5811760e01b81526001600160a01b038516906367b58117906109c7908b90600401613c0d565b6102e06040518083038186803b1580156109e057600080fd5b505afa1580156109f4573d6000803e3d6000fd5b505050506040513d601f19601f82011682018060405250810190610a189190612d57565b60015460405163af3c5d2560e01b81529192506001600160a01b03169063af3c5d2590610a599085908c9086908d908d908d908d9030908e90600401613562565b600060405180830381600087803b158015610a7357600080fd5b505af1158015610a87573d6000803e3d6000fd5b508492507fc5df678b84aa92f5f59981df8c9997b366d886de25771c5f753015c2e14e907a915060109050610abf60208901896128f7565b610acf60608a0160408b016128f7565b604051610ade93929190613669565b60405180910390a25050505050505050565b60008160f8846021811115610b0157fe5b60ff16901b179392505050565b600081851415610b1f575083610c5b565b6001846008811115610b2d57fe5b1480610b4457506003846008811115610b4257fe5b145b15610b5a57610b538584611328565b9050610c5b565b6002846008811115610b6857fe5b1480610b7f57506004846008811115610b7d57fe5b145b15610bc3576000610b908685611328565b9050610b9b86611384565b610ba482611384565b1415610bb1579050610c5b565b610bbb868561139c565b915050610c5b565b6005846008811115610bd157fe5b1480610be857506007846008811115610be657fe5b145b15610bf757610b53858461139c565b6006846008811115610c0557fe5b1480610c1c57506008846008811115610c1a57fe5b145b15610c58576000610c2d868561139c565b9050610c3886611384565b610c4182611384565b1415610c4e579050610c5b565b610bbb8685611328565b50835b949350505050565b610c6b611324565b6000546001600160a01b03908116911614610c985760405162461bcd60e51b815260040161031090613a5e565b6001600160a01b038116610cbe5760405162461bcd60e51b8152600401610310906137d5565b600080546040516001600160a01b03808516939216917f8be0079c531659141344cd1fd0a4f28419497f9722a3daafe3b4186f6b6457e091a3600080546001600160a01b0319166001600160a01b0392909216919091179055565b60006003846008811115610d2957fe5b1480610d4057506004846008811115610d3e57fe5b145b80610d5657506007846008811115610d5457fe5b145b80610d6c57506008846008811115610d6a57fe5b145b15610d78575083610c5b565b610d8485858585610b0e565b95945050505050565b610d9561255b565b6001546040516309648a9d60e01b81526001600160a01b03909116906309648a9d90610dc59086906004016133ca565b6102e06040518083038186803b158015610dde57600080fd5b505afa158015610df2573d6000803e3d6000fd5b505050506040513d601f19601f82011682018060405250810190610e169190612d57565b9050600081516005811115610e2757fe5b1480610e3f5750600181516005811115610e3d57fe5b145b80610e565750600281516005811115610e5457fe5b145b610e725760405162461bcd60e51b815260040161031090613b78565b600081516005811115610e8157fe5b14610f0a57600154604051631ba316dd60e11b81526001600160a01b03909116906337462dba90610eb69086906004016133ca565b6102e06040518083038186803b158015610ecf57600080fd5b505afa158015610ee3573d6000803e3d6000fd5b505050506040513d601f19601f82011682018060405250810190610f079190612d57565b90505b600080610f16846105a4565b60015460405163ecef557760e01b815292945090925042916110c09184916001600160a01b039091169063ecef557790610f54908b906004016134bb565b60206040518083038186803b158015610f6c57600080fd5b505afa158015610f80573d6000803e3d6000fd5b505050506040513d601f19601f82011682018060405250810190610fa49190612ebc565b60ff166008811115610fb257fe5b60015460405163ecef557760e01b81526001600160a01b039091169063ecef557790610fe2908c90600401613523565b60206040518083038186803b158015610ffa57600080fd5b505afa15801561100e573d6000803e3d6000fd5b505050506040513d601f19601f820116820180604052508101906110329190612ebc565b60ff16600181111561104057fe5b60015460405163135b9f4d60e01b81526001600160a01b039091169063135b9f4d90611070908d906004016134e2565b60206040518083038186803b15801561108857600080fd5b505afa15801561109c573d6000803e3d6000fd5b505050506040513d601f19601f82011682018060405250810190610201919061298e565b11156110de5760405162461bcd60e51b815260040161031090613ad9565b6110e661255b565b60006110f38786886113ea565b915091506000611104888884611670565b9050806112085760008651600581111561111a57fe5b14156111855760015460405163842962d560e01b81526001600160a01b039091169063842962d590611152908b908a90600401613654565b600060405180830381600087803b15801561116c57600080fd5b505af1158015611180573d6000803e3d6000fd5b505050505b60015460405163d981e77360e01b81526001600160a01b039091169063d981e773906111b7908b908b906004016133ea565b600060405180830381600087803b1580156111d157600080fd5b505af11580156111e5573d6000803e3d6000fd5b5050505060006111f6600186610af0565b90506112038985836113ea565b509350505b600154604051631d306b7f60e11b81526001600160a01b0390911690633a60d6fe9061123a908b908790600401613654565b600060405180830381600087803b15801561125457600080fd5b505af1158015611268573d6000803e3d6000fd5b50505050801515600114156112de5760015460405163de07a17360e01b81526001600160a01b039091169063de07a173906112ab908b908b9087906004016133f8565b600060405180830381600087803b1580156112c557600080fd5b505af11580156112d9573d6000803e3d6000fd5b505050505b877fd255be8589971f117e0e4377177282fb7cce66e378bfb1b7eafddd05e4f181e9600183151514611311576001611313565b865b8685604051610ade939291906136b0565b3390565b6000600182600181111561133857fe5b141561137d5761134783611aa6565b600614156113615761135a836002611ab9565b905061026a565b61136a83611aa6565b6007141561137d5761135a836001611ab9565b5090919050565b6000611394620151808304611ace565b509392505050565b600060018260018111156113ac57fe5b141561137d576113bb83611aa6565b600614156113ce5761135a836001611b64565b6113d783611aa6565b6007141561137d5761135a836002611b64565b6113f261255b565b60015460405163ee43eda160e01b815260009182916001600160a01b039091169063ee43eda1906114279089906004016133ca565b60206040518083038186803b15801561143f57600080fd5b505afa158015611453573d6000803e3d6000fd5b505050506040513d601f19601f820116820180604052508101906114779190612913565b905061148161260a565b6001546040516335f1cded60e11b81526001600160a01b0390911690636be39bda906114b1908a906004016133ca565b6104e06040518083038186803b1580156114ca57600080fd5b505afa1580156114de573d6000803e3d6000fd5b505050506040513d601f19601f820116820180604052508101906115029190612b8d565b9050600080611510876105a4565b915091506000846001600160a01b0316639d2f2e54858b8b61154b8f896115468a8d608001518e602001518f6101800151610d19565b611b79565b6040518563ffffffff1660e01b815260040161156a9493929190613c39565b60206040518083038186803b15801561158257600080fd5b505afa158015611596573d6000803e3d6000fd5b505050506040513d601f19601f820116820180604052508101906115ba919061298e565b9050846001600160a01b031663de4d3fa1858b8b6115f18f896115ec8a8d608001518e602001518f6101800151610d19565b611d70565b6040518563ffffffff1660e01b81526004016116109493929190613c39565b6102e06040518083038186803b15801561162957600080fd5b505afa15801561163d573d6000803e3d6000fd5b505050506040513d601f19601f820116820180604052508101906116619190612d57565b9a909950975050505050505050565b6000831580159061168057508215155b61169c5760405162461bcd60e51b815260040161031090613a01565b816116a957506001611a9f565b60015460405163eb01255960e01b81526000916001600160a01b03169063eb012559906116da908890600401613433565b60206040518083038186803b1580156116f257600080fd5b505afa158015611706573d6000803e3d6000fd5b505050506040513d601f19601f8201168201806040525081019061172a9190612913565b90506117346126fd565b600154604051635e353ebb60e11b81526001600160a01b039091169063bc6a7d769061176490899060040161340e565b60806040518083038186803b15801561177c57600080fd5b505afa158015611790573d6000803e3d6000fd5b505050506040513d601f19601f820116820180604052508101906117b49190612d3c565b90506004816060015160048111156117c857fe5b14156117dd5780516117d99061022c565b5091505b6117e5612724565b60015460405163e50e0ef760e01b81526001600160a01b039091169063e50e0ef790611815908a906004016133ca565b60806040518083038186803b15801561182d57600080fd5b505afa158015611841573d6000803e3d6000fd5b505050506040513d601f19601f820116820180604052508101906118659190612a67565b90506000806000871315611894575060408201516001600160a01b03821661188f57826020015191505b6118ad565b5081516001600160a01b0382166118ad57826060015191505b60008088136118c05787600019026118c2565b875b905080866001600160a01b031663dd62ed3e84306040518363ffffffff1660e01b81526004016118f3929190613373565b60206040518083038186803b15801561190b57600080fd5b505afa15801561191f573d6000803e3d6000fd5b505050506040513d601f19601f82011682018060405250810190611943919061298e565b10806119ca57506040516370a0823160e01b815281906001600160a01b038816906370a082319061197890869060040161335f565b60206040518083038186803b15801561199057600080fd5b505afa1580156119a4573d6000803e3d6000fd5b505050506040513d601f19601f820116820180604052508101906119c8919061298e565b105b15611a1457897f4f269a19b64cfff0bdee7fd3cdaec44e1fe38ce2ff55d3009a89fac6ecbe9f2c6040516119fd9061381b565b60405180910390a260009650505050505050611a9f565b6040516323b872dd60e01b81526001600160a01b038716906323b872dd90611a449085908790869060040161338d565b602060405180830381600087803b158015611a5e57600080fd5b505af1158015611a72573d6000803e3d6000fd5b505050506040513d601f19601f82011682018060405250810190611a96919061295a565b96505050505050505b9392505050565b6007620151809091046003010660010190565b62015180810282018281101561026a57600080fd5b60008080836226496581018262023ab1600483020590506004600362023ab18302010590910390600062164b09610fa0600185010205905060046105b58202058303601f019250600061098f8460500281611b2557fe5b0590506000605061098f83020585039050600b820560301994909401606402929092018301996002600c90940290910392909201975095509350505050565b62015180810282038281111561026a57600080fd5b60015460405163eb01255960e01b815260009182916001600160a01b039091169063eb01255990611bae908890600401613433565b60206040518083038186803b158015611bc657600080fd5b505afa158015611bda573d6000803e3d6000fd5b505050506040513d601f19601f82011682018060405250810190611bfe9190612913565b60015460405163eb01255960e01b81529192506000916001600160a01b039091169063eb01255990611c34908990600401613497565b60206040518083038186803b158015611c4c57600080fd5b505afa158015611c60573d6000803e3d6000fd5b505050506040513d601f19601f82011682018060405250810190611c849190612913565b9050806001600160a01b0316826001600160a01b031614611d675760025460405160009182916001600160a01b03909116906308a4ec1090611ccc9087908790602001613373565b60405160208183030381529060405280519060200120886040518363ffffffff1660e01b8152600401611d009291906133ea565b604080518083038186803b158015611d1757600080fd5b505afa158015611d2b573d6000803e3d6000fd5b505050506040513d601f19601f82011682018060405250810190611d4f9190612a38565b915091508015611d6457509250611a9f915050565b50505b50509392505050565b6000600d836021811115611d8057fe5b1415611e9e5760025460015460405163354770f760e21b815260009283926001600160a01b03918216926308a4ec10929091169063d51dc3dc90611dc8908b90600401613468565b60206040518083038186803b158015611de057600080fd5b505afa158015611df4573d6000803e3d6000fd5b505050506040513d601f19601f82011682018060405250810190611e18919061298e565b866040518363ffffffff1660e01b8152600401611e369291906133ea565b604080518083038186803b158015611e4d57600080fd5b505afa158015611e61573d6000803e3d6000fd5b505050506040513d601f19601f82011682018060405250810190611e859190612a38565b915091508015611e9757509050611a9f565b5050612495565b6001836021811115611eac57fe5b1415611eb9575042611a9f565b6019836021811115611ec757fe5b14156121fa57611ed56126fd565b600154604051635e353ebb60e11b81526001600160a01b039091169063bc6a7d7690611f0590889060040161353d565b60806040518083038186803b158015611f1d57600080fd5b505afa158015611f31573d6000803e3d6000fd5b505050506040513d601f19601f82011682018060405250810190611f559190612d3c565b9050600381606001516004811115611f6957fe5b141561209a5780516020820151604051631392c59160e11b81526001600160a01b038216906327258b2290611fa29085906004016133ca565b60206040518083038186803b158015611fba57600080fd5b505afa158015611fce573d6000803e3d6000fd5b505050506040513d601f19601f82011682018060405250810190611ff2919061295a565b15156001146120135760405162461bcd60e51b81526004016103109061387a565b604051636a899b9b60e01b81526001600160a01b03821690636a899b9b9061203f908590600401613500565b60206040518083038186803b15801561205757600080fd5b505afa15801561206b573d6000803e3d6000fd5b505050506040513d601f19601f8201168201806040525081019061208f919061298e565b9350611a9f92505050565b6120a26126fd565b600154604051635e353ebb60e11b81526001600160a01b039091169063bc6a7d76906120d290899060040161340e565b60806040518083038186803b1580156120ea57600080fd5b505afa1580156120fe573d6000803e3d6000fd5b505050506040513d601f19601f820116820180604052508101906121229190612d3c565b905060028160400151600481111561213657fe5b148015612152575060008160600151600481111561215057fe5b145b15611e97576002548151604051628a4ec160e41b815260009283926001600160a01b03909116916308a4ec109161218d918a906004016133ea565b604080518083038186803b1580156121a457600080fd5b505afa1580156121b8573d6000803e3d6000fd5b505050506040513d601f19601f820116820180604052508101906121dc9190612a38565b9150915080156121f157509250611a9f915050565b50505050612495565b601383602181111561220857fe5b1415612495576122166126fd565b600154604051635e353ebb60e11b81526001600160a01b039091169063bc6a7d769061224690889060040161353d565b60806040518083038186803b15801561225e57600080fd5b505afa158015612272573d6000803e3d6000fd5b505050506040513d601f19601f820116820180604052508101906122969190612d3c565b90506002816040015160048111156122aa57fe5b1480156122c657506000816060015160048111156122c457fe5b145b1561248b576002548151604051628a4ec160e41b815260009283926001600160a01b03909116916308a4ec10916123019189906004016133ea565b604080518083038186803b15801561231857600080fd5b505afa15801561232c573d6000803e3d6000fd5b505050506040513d601f19601f820116820180604052508101906123509190612a38565b600254855160015460405163135b9f4d60e01b815294965092945060009384936001600160a01b03938416936308a4ec10939291169063135b9f4d9061239a908f9060040161344d565b60206040518083038186803b1580156123b257600080fd5b505afa1580156123c6573d6000803e3d6000fd5b505050506040513d601f19601f820116820180604052508101906123ea919061298e565b6040518363ffffffff1660e01b81526004016124079291906133ea565b604080518083038186803b15801561241e57600080fd5b505afa158015612432573d6000803e3d6000fd5b505050506040513d601f19601f820116820180604052508101906124569190612a38565b915091508280156124645750805b1561248657612479848363ffffffff61249f16565b9550611a9f945050505050565b505050505b5060009050611a9f565b5060009392505050565b6000816124be5760405162461bcd60e51b815260040161031090613bc9565b826124cb5750600061026a565b670de0b6b3a7640000838102908482816124e157fe5b05146124ff5760405162461bcd60e51b815260040161031090613a93565b826000191480156125135750600160ff1b84145b156125305760405162461bcd60e51b815260040161031090613a93565b600083828161253b57fe5b05905080610c5b5760405162461bcd60e51b8152600401610310906139b0565b604080516102e081019091528060008152602001600081526020016000815260200160008152602001600081526020016000815260200160008152602001600081526020016000815260200160008152602001600081526020016000815260200160008152602001600081526020016000815260200160008152602001600081526020016000815260200160008152602001600081526020016000815260200160008152602001600081525090565b60408051610340810190915280600081526020016000815260200160008152602001600081526020016000815260200160008152602001600081526020016000815260200160006001600160a01b0316815260200160006001600160a01b0316815260200160008152602001600081526020016000815260200160008152602001600081526020016000815260200160008152602001600081526020016000815260200160008152602001600081526020016126c461274b565b81526020016126d161274b565b81526020016126de61276e565b81526020016126eb6126fd565b81526020016126f86126fd565b905290565b604080516080810182526000808252602082018190529091820190815260200160006126f8565b60408051608081018252600080825260208201819052918101829052606081019190915290565b6040805160608101909152600080825260208201905b8152600060209091015290565b60408051608081019091526000808252602082019081526020016000612761565b803561026a81613e9e565b805161026a81613e9e565b805161026a81613ec1565b805161026a81613ece565b805161026a81613edb565b805161026a81613ef5565b803561026a81613f02565b805161026a81613f02565b6000608082840312156127f8578081fd5b50919050565b60006080828403121561280f578081fd5b6128196080613e00565b90508151815260208201516020820152604082015161283781613ee8565b6040820152606082015161284a81613ee8565b606082015292915050565b600060808284031215612866578081fd5b6128706080613e00565b905081518152602082015161288481613edb565b6020820152604082015161289781613ece565b6040820152606082015161284a81613eb3565b6000606082840312156128bb578081fd5b6128c56060613e00565b90508151815260208201516128d981613edb565b602082015260408201516128ec81613eb3565b604082015292915050565b600060208284031215612908578081fd5b8135611a9f81613e9e565b600060208284031215612924578081fd5b8151611a9f81613e9e565b60008060408385031215612941578081fd5b823561294c81613e9e565b946020939093013593505050565b60006020828403121561296b578081fd5b8151611a9f81613eb3565b600060208284031215612987578081fd5b5035919050565b60006020828403121561299f578081fd5b5051919050565b600080604083850312156129b8578182fd5b50508035926020909101359150565b6000602082840312156129d8578081fd5b8135611a9f81613ee8565b6000602082840312156129f4578081fd5b8151611a9f81613f02565b600060208284031215612a10578081fd5b8135611a9f81613f0f565b60008060408385031215612a2d578182fd5b823561294c81613f0f565b60008060408385031215612a4a578182fd5b825191506020830151612a5c81613eb3565b809150509250929050565b600060808284031215612a78578081fd5b612a826080613e00565b8251612a8d81613e9e565b81526020830151612a9d81613e9e565b60208201526040830151612ab081613e9e565b60408201526060830151612ac381613e9e565b60608201529392505050565b6000806000806000808688036105c0811215612ae9578283fd5b6104e080821215612af8578384fd5b889750870135905067ffffffffffffffff80821115612b15578384fd5b8189018a601f820112612b26578485fd5b8035925081831115612b36578485fd5b8a60208085028301011115612b49578485fd5b6020019650909450612b6190508861050089016127e7565b9250612b7188610580890161278f565b9150612b81886105a0890161278f565b90509295509295509295565b60006104e08284031215612b9f578081fd5b612baa610340613e00565b612bb484846127dc565b8152612bc384602085016127b0565b6020820152612bd584604085016127c6565b6040820152612be784606085016127bb565b6060820152612bf984608085016127a5565b6080820152612c0b8460a085016127b0565b60a0820152612c1d8460c085016127b0565b60c0820152612c2f8460e085016127bb565b60e0820152610100612c438582860161279a565b90820152610120612c568585830161279a565b908201526101408381015190820152610160808401519082015261018080840151908201526101a080840151908201526101c080840151908201526101e08084015190820152610200808401519082015261022080840151908201526102408084015190820152610260808401519082015261028080840151908201526102a0612ce2858286016128aa565b90820152610300612cf5858583016128aa565b6102c0830152612d09856103608601612855565b6102e0830152612d1d856103e086016127fe565b90820152612d2f8461046085016127fe565b6103208201529392505050565b600060808284031215612d4d578081fd5b611a9f83836127fe565b60006102e0808385031215612d6a578182fd5b612d7381613e00565b612d7d85856127bb565b81526020848101519082015260408085015190820152606080850151908201526080808501519082015260a0808501519082015260c0808501519082015260e08085015190820152610100808501519082015261012080850151908201526101408085015190820152610160808501519082015261018080850151908201526101a080850151908201526101c080850151908201526101e08085015190820152610200808501519082015261022080850151908201526102408085015190820152610260808501519082015261028080850151908201526102a080850151908201526102c09384015193810193909352509092915050565b60008060008060808587031215612e8a578182fd5b843593506020850135612e9c81613ec1565b92506040850135612eac81613ece565b9396929550929360600135925050565b600060208284031215612ecd578081fd5b815160ff81168114611a9f578182fd5b6001600160a01b03169052565b60098110612ef457fe5b9052565b612ef481613e73565b612ef481613e80565b600d8110612ef457fe5b612ef481613e94565b60208101612f3483612f2f83856127d1565b612f14565b612f3e8183613e41565b612f4b6020850182612ef8565b5050612f5a6040820182613e5b565b612f676040840182612f0a565b50612f756060820182613e4e565b612f826060840182612f01565b50612f906080820182613e34565b612f9d6080840182612eea565b50612fab60a0820182613e41565b612fb860a0840182612ef8565b50612fc660c0820182613e41565b612fd360c0840182612ef8565b50612fe160e0820182613e4e565b612fee60e0840182612f01565b50610100612ffe81830183613e27565b61300a82850182612edd565b505061012061301b81830183613e27565b61302782850182612edd565b50506101408181013590830152610160808201359083015261018080820135908301526101a080820135908301526101c080820135908301526101e08082013590830152610200808201359083015261022080820135908301526102408082013590830152610260808201359083015261028080820135908301526102a06130b3818401828401613209565b506103006130c5818401828401613209565b506103606130d781840182840161317b565b506103e06130e9818401828401613100565b506104606130fb818401828401613100565b505050565b8035825260208101356020830152604081013561311c81613ee8565b61312581613e8a565b6040830152606081013561313881613ee8565b61314181613e8a565b806060840152505050565b8051825260208101516020830152604081015161316881613e8a565b6040830152606081015161314181613e8a565b80358252602081013561318d81613edb565b61319681613e80565b602083015260408101356131a981613ece565b6131b281613e73565b604083015260608101356131c581613eb3565b8015156060840152505050565b8051825260208101516131e481613e80565b602083015260408101516131f781613e73565b60408301526060908101511515910152565b80358252602081013561321b81613edb565b61322481613e80565b6020830152604081013561323781613eb3565b8015156040840152505050565b80518252602081015161325681613e80565b60208301526040908101511515910152565b613273828251612f01565b6020818101519083015260408082015190830152606080820151908301526080808201519083015260a0808201519083015260c0808201519083015260e08082015190830152610100808201519083015261012080820151908301526101408082015190830152610160808201519083015261018080820151908301526101a080820151908301526101c080820151908301526101e08082015190830152610200808201519083015261022080820151908301526102408082015190830152610260808201519083015261028080820151908301526102a080820151908301526102c090810151910152565b6001600160a01b0391909116815260200190565b6001600160a01b0392831681529116602082015260400190565b6001600160a01b039384168152919092166020820152604081019190915260600190565b6001600160a01b03929092168252602082015260400190565b90815260200190565b9182526001600160a01b0316602082015260400190565b918252602082015260400190565b9283526020830191909152604082015260600190565b9081527231b7b73a3930b1ba2932b332b932b731b2af9960691b602082015260400190565b9081526763757272656e637960c01b602082015260400190565b9081526869737375654461746560b81b602082015260400190565b9081527f6d61726b65744f626a656374436f646552617465526573657400000000000000602082015260400190565b90815271736574746c656d656e7443757272656e637960701b602082015260400190565b90815274313ab9b4b732b9b9a230bca1b7b73b32b73a34b7b760591b602082015260400190565b9081526b6d617475726974794461746560a01b602082015260400190565b908152701b9bdd1a5bdb985b141c9a5b98da5c185b607a1b602082015260400190565b9081526731b0b632b73230b960c11b602082015260400190565b90815272636f6e74726163745265666572656e63655f3160681b602082015260400190565b60006108e08b8352613577602084018c612f1d565b61358561050084018b613268565b6107e0830181905282018790526109006001600160fb1b038811156135a8578182fd5b60208802808a8386013783010190815285356135c381613e9e565b6001600160a01b039081166108008401526040870190806135e78360208b0161278f565b1661082085015260608801816135fd828561278f565b166108408601528161361260808b018361278f565b1661086086015250505061362a610880830186612edd565b6136386108a0830185612edd565b6136466108c0830184612edd565b9a9950505050505050505050565b8281526103008101611a9f6020830184613268565b6060810161367685613e94565b9381526001600160a01b039283166020820152911660409091015290565b604081016136a184613e68565b82528260208301529392505050565b606081016136bd85613e68565b8252602082019390935260400152919050565b60208082526038908201527f414e4e4163746f722e696e697469616c697a653a20434f4e54524143545f545960408201527f50455f4f465f454e47494e455f554e535550504f525445440000000000000000606082015260800190565b60208082526038908201527f4345474143746f722e696e697469616c697a653a20494e56414c49445f434f4e60408201527f54524143545f5245464552454e43455f315f4f424a4543540000000000000000606082015260800190565b6020808252602b908201527f426173654163746f722e70726f6772657373576974683a20464f554e445f454160408201526a149312515497d15591539560aa1b606082015260800190565b60208082526026908201527f4f776e61626c653a206e6577206f776e657220697320746865207a65726f206160408201526564647265737360d01b606082015260800190565b71494e53554646494349454e545f46554e445360701b815260200190565b60208082526021908201527f426173654163746f722e70726f67726573733a204e4f5f4e4558545f4556454e6040820152601560fa1b606082015260800190565b60208082526035908201527f426173654163746f722e67657445787465726e616c44617461466f725354463a604082015274081054d4d15517d113d154d7d393d517d1561254d5605a1b606082015260800190565b6020808252602e908201527f426173654163746f722e70726f6772657373576974683a20464f554e445f554e60408201526d1111549316525391d7d15591539560921b606082015260800190565b6020808252602b908201527f426173654163746f722e70726f6772657373576974683a20554e415554484f5260408201526a24ad22a22fa9a2a72222a960a91b606082015260800190565b60208082526028908201527f426173654163746f722e70726f67726573733a2041535345545f444f45535f4e60408201526713d517d1561254d560c21b606082015260800190565b60208082526031908201527f5369676e65644d6174682e666c6f61744469763a2043414e4e4f545f524550526040820152704553454e545f4752414e554c415249545960781b606082015260800190565b6020808252603b908201527f426173654163746f722e736574746c655061796f6666466f724576656e743a2060408201527f494e56414c49445f46554e4354494f4e5f504152414d45544552530000000000606082015260800190565b6020808252818101527f4f776e61626c653a2063616c6c6572206973206e6f7420746865206f776e6572604082015260600190565b60208082526026908201527f5369676e65644d6174682e666c6f61744469763a204f564552464c4f575f4445604082015265151150d5115160d21b606082015260800190565b60208082526034908201527f426173654163746f722e70726f636573734576656e743a204e4558545f455645604082015273139517d393d517d6515517d4d0d211511553115160621b606082015260800190565b6020808252602b908201527f426173654163746f722e70726f6772657373576974683a20464f554e445f504560408201526a1391125391d7d15591539560aa1b606082015260800190565b60208082526031908201527f426173654163746f722e70726f636573734576656e743a2041535345545f524560408201527041434845445f46494e414c5f535441544560781b606082015260800190565b60208082526024908201527f5369676e65644d6174682e666c6f61744469763a20444956494445445f42595f6040820152635a45524f60e01b606082015260800190565b6104e0810161026a8284612f1d565b6105008101613c2b8285612f1d565b826104e08301529392505050565b600061080082019050613c4d828751612f14565b6020860151613c5f6020840182612ef8565b506040860151613c726040840182612f0a565b506060860151613c856060840182612f01565b506080860151613c986080840182612eea565b5060a0860151613cab60a0840182612ef8565b5060c0860151613cbe60c0840182612ef8565b5060e0860151613cd160e0840182612f01565b5061010080870151613ce582850182612edd565b505061012080870151613cfa82850182612edd565b50506101408681015190830152610160808701519083015261018080870151908301526101a080870151908301526101c080870151908301526101e08087015190830152610200808701519083015261022080870151908301526102408087015190830152610260808701519083015261028080870151908301526102a080870151613d8882850182613244565b50506102c0860151610300613d9f81850183613244565b6102e08801519150613db56103608501836131d2565b8701519050613dc86103e084018261314c565b50610320860151613ddd61046084018261314c565b50613dec6104e0830186613268565b6107c08201939093526107e0015292915050565b60405181810167ffffffffffffffff81118282101715613e1f57600080fd5b604052919050565b60008235611a9f81613e9e565b60008235611a9f81613ec1565b60008235611a9f81613ece565b60008235611a9f81613edb565b60008235611a9f81613ef5565b806022811061083c57fe5b60028110613e7d57fe5b50565b60068110613e7d57fe5b60058110613e7d57fe5b60138110613e7d57fe5b6001600160a01b0381168114613e7d57600080fd5b8015158114613e7d57600080fd5b60098110613e7d57600080fd5b60028110613e7d57600080fd5b60068110613e7d57600080fd5b60058110613e7d57600080fd5b600d8110613e7d57600080fd5b60138110613e7d57600080fd5b60228110613e7d57600080fdfea2646970667358221220a28b4be4c8aae9e82f1af16db886db20fa3df2b3a20b2ab40bc6f7c2ddf668ae64736f6c634300060b0033",
  "devdoc": {
    "kind": "dev",
    "methods": {
      "initialize((uint8,uint8,uint8,uint8,uint8,uint8,uint8,uint8,address,address,uint256,uint256,uint256,uint256,uint256,int256,int256,int256,int256,int256,int256,(uint256,uint8,bool),(uint256,uint8,bool),(uint256,uint8,uint8,bool),(bytes32,bytes32,uint8,uint8),(bytes32,bytes32,uint8,uint8)),bytes32[],(address,address,address,address),address,address)": {
        "params": {
          "admin": "address of the admin of the asset (optional)",
          "engine": "address of the ACTUS engine used for the spec. ContractType",
          "ownership": "ownership of the asset",
          "schedule": "schedule of the asset",
          "terms": "asset specific terms"
        }
      },
      "owner()": {
        "details": "Returns the address of the current owner."
      },
      "progress(bytes32)": {
        "details": "Emits ProgressedAsset if the state of the asset was updated.",
        "params": {
          "assetId": "id of the asset"
        }
      },
      "progressWith(bytes32,bytes32)": {
        "details": "Emits ProgressedAsset if the state of the asset was updated.",
        "params": {
          "_event": "the unscheduled event",
          "assetId": "id of the asset"
        }
      },
      "renounceOwnership()": {
        "details": "Leaves the contract without owner. It will not be possible to call `onlyOwner` functions anymore. Can only be called by the current owner. NOTE: Renouncing ownership will leave the contract without an owner, thereby removing any functionality that is only available to the owner."
      },
      "transferOwnership(address)": {
        "details": "Transfers ownership of the contract to a new account (`newOwner`). Can only be called by the current owner."
      }
    },
    "title": "CEGActor",
    "version": 1
  },
  "userdoc": {
    "kind": "user",
    "methods": {
      "getEpochOffset(uint8)": {
        "notice": "Returns the epoch offset for a given event type to determine the correct order of events if multiple events have the same timestamp"
      },
      "initialize((uint8,uint8,uint8,uint8,uint8,uint8,uint8,uint8,address,address,uint256,uint256,uint256,uint256,uint256,int256,int256,int256,int256,int256,int256,(uint256,uint8,bool),(uint256,uint8,bool),(uint256,uint8,uint8,bool),(bytes32,bytes32,uint8,uint8),(bytes32,bytes32,uint8,uint8)),bytes32[],(address,address,address,address),address,address)": {
        "notice": "Derives initial state of the asset terms and stores together with terms, schedule, ownership, engine, admin of the asset in the contract types specific AssetRegistry."
      },
      "progress(bytes32)": {
        "notice": "Proceeds with the next state of the asset based on the terms, the last state, market object data and the settlement status of current obligation, derived from either a prev. pending event, an event generated based on the current state of an underlying asset or the assets schedule."
      },
      "progressWith(bytes32,bytes32)": {
        "notice": "Proceeds with the next state of the asset based on the terms, the last state, market object data and the settlement status of current obligation, derived from a provided (unscheduled) event Reverts if the provided event violates the order of events."
      },
      "shiftCalcTime(uint256,uint8,uint8,uint256)": {
        "notice": "Used in POFs and STFs for DCFs. No shifting is applied if a Calc/Shift instead of Shift/Calc BDC is provided."
      }
    },
    "notice": "TODO",
    "version": 1
  },
  "storageLayout": {
    "storage": [
      {
        "astId": 46102,
        "contract": "contracts/Core/CEG/CEGActor.sol:CEGActor",
        "label": "_owner",
        "offset": 0,
        "slot": "0",
        "type": "t_address"
      },
      {
        "astId": 20722,
        "contract": "contracts/Core/CEG/CEGActor.sol:CEGActor",
        "label": "assetRegistry",
        "offset": 0,
        "slot": "1",
        "type": "t_contract(IAssetRegistry)22197"
      },
      {
        "astId": 20724,
        "contract": "contracts/Core/CEG/CEGActor.sol:CEGActor",
        "label": "dataRegistry",
        "offset": 0,
        "slot": "2",
        "type": "t_contract(IDataRegistry)25585"
      }
    ],
    "types": {
      "t_address": {
        "encoding": "inplace",
        "label": "address",
        "numberOfBytes": "20"
      },
      "t_contract(IAssetRegistry)22197": {
        "encoding": "inplace",
        "label": "contract IAssetRegistry",
        "numberOfBytes": "20"
      },
      "t_contract(IDataRegistry)25585": {
        "encoding": "inplace",
        "label": "contract IDataRegistry",
        "numberOfBytes": "20"
      }
    }
  },
  "gasEstimates": {
    "creation": {
      "codeDepositCost": "3242000",
      "executionCost": "infinite",
      "totalCost": "infinite"
    },
    "external": {
      "assetRegistry()": "1115",
      "dataRegistry()": "1137",
      "decodeCollateralObject(bytes32)": "394",
      "decodeEvent(bytes32)": "511",
      "encodeCollateralAsObject(address,uint256)": "485",
      "encodeEvent(uint8,uint256)": "464",
      "getEpochOffset(uint8)": "491",
      "initialize((uint8,uint8,uint8,uint8,uint8,uint8,uint8,uint8,address,address,uint256,uint256,uint256,uint256,uint256,int256,int256,int256,int256,int256,int256,(uint256,uint8,bool),(uint256,uint8,bool),(uint256,uint8,uint8,bool),(bytes32,bytes32,uint8,uint8),(bytes32,bytes32,uint8,uint8)),bytes32[],(address,address,address,address),address,address)": "infinite",
      "owner()": "1093",
      "progress(bytes32)": "infinite",
      "progressWith(bytes32,bytes32)": "infinite",
      "renounceOwnership()": "24227",
      "shiftCalcTime(uint256,uint8,uint8,uint256)": "infinite",
      "shiftEventTime(uint256,uint8,uint8,uint256)": "infinite",
      "transferOwnership(address)": "24499"
    },
    "internal": {
      "computeStateAndPayoffForEvent(bytes32,struct State memory,bytes32)": "infinite"
    }
  }
}