{
  "_format": "hh-sol-artifact-1",
  "contractName": "UMAProxy",
  "sourceName": "contracts/OracleProxy/UMAProxy.sol",
  "abi": [
    {
      "inputs": [
        {
          "internalType": "address",
          "name": "_umaOracle",
          "type": "address"
        }
      ],
      "stateMutability": "nonpayable",
      "type": "constructor"
    },
    {
      "inputs": [
        {
          "internalType": "bytes",
          "name": "_ref",
          "type": "bytes"
        }
      ],
      "name": "getDataPoint",
      "outputs": [
        {
          "internalType": "int256",
          "name": "",
          "type": "int256"
        },
        {
          "internalType": "bool",
          "name": "",
          "type": "bool"
        }
      ],
      "stateMutability": "view",
      "type": "function"
    },
    {
      "inputs": [
        {
          "internalType": "bytes",
          "name": "_ref",
          "type": "bytes"
        },
        {
          "internalType": "uint256",
          "name": "timestamp",
          "type": "uint256"
        }
      ],
      "name": "getDataPointAtTime",
      "outputs": [
        {
          "internalType": "int256",
          "name": "",
          "type": "int256"
        }
      ],
      "stateMutability": "view",
      "type": "function"
    },
    {
      "inputs": [],
      "name": "umaOracle",
      "outputs": [
        {
          "internalType": "address",
          "name": "",
          "type": "address"
        }
      ],
      "stateMutability": "view",
      "type": "function"
    }
  ],
  "bytecode": "0x608060405234801561001057600080fd5b506040516103393803806103398339818101604052602081101561003357600080fd5b5051600080546001600160a01b039092166001600160a01b03199092169190911790556102d4806100656000396000f3fe608060405234801561001057600080fd5b50600436106100415760003560e01c806318457925146100465780634ca15563146101055780635ff474c2146101bf575b600080fd5b6100ec6004803603602081101561005c57600080fd5b81019060208101813564010000000081111561007757600080fd5b82018360208201111561008957600080fd5b803590602001918460018302840111640100000000831117156100ab57600080fd5b91908080601f0160208091040260200160405190810160405280939291908181526020018383808284376000920191909152509295506101e3945050505050565b6040805192835290151560208301528051918290030190f35b6101ad6004803603604081101561011b57600080fd5b81019060208101813564010000000081111561013657600080fd5b82018360208201111561014857600080fd5b8035906020019184600183028401116401000000008311171561016a57600080fd5b91908080601f01602080910402602001604051908101604052809392919081815260200183838082843760009201919091525092955050913592506101eb915050565b60408051918252519081900360200190f35b6101c761028f565b604080516001600160a01b039092168252519081900360200190f35b600080600080fd5b60008083806020019051602081101561020357600080fd5b505160005460408051636494078360e11b8152600481018490526024810187905290519293506001600160a01b039091169163c9280f0691604480820192602092909190829003018186803b15801561025b57600080fd5b505afa15801561026f573d6000803e3d6000fd5b505050506040513d602081101561028557600080fd5b5051949350505050565b6000546001600160a01b03168156fea2646970667358221220bdb9dc00eafdbe6211e276092c987b5844d1495d5c35ffc22ec6eab04621795b64736f6c63430007040033",
  "linkReferences": {},
  "deployedLinkReferences": {}
}