{
  "_format": "hh-sol-artifact-1",
  "contractName": "CustodianExtension",
  "sourceName": "contracts/Extensions/CustodianExtension/CustodianExtension.sol",
  "abi": [
    {
      "inputs": [
        {
          "internalType": "contract IAssetRegistry",
          "name": "_assetRegistry",
          "type": "address"
        }
      ],
      "stateMutability": "nonpayable",
      "type": "constructor"
    },
    {
      "anonymous": false,
      "inputs": [
        {
          "indexed": true,
          "internalType": "bytes32",
          "name": "assetId",
          "type": "bytes32"
        },
        {
          "indexed": false,
          "internalType": "address",
          "name": "collateralizer",
          "type": "address"
        },
        {
          "indexed": false,
          "internalType": "uint256",
          "name": "collateralAmount",
          "type": "uint256"
        }
      ],
      "name": "AddedCollateral",
      "type": "event"
    },
    {
      "anonymous": false,
      "inputs": [
        {
          "indexed": true,
          "internalType": "bytes32",
          "name": "assetId",
          "type": "bytes32"
        },
        {
          "indexed": false,
          "internalType": "address",
          "name": "creditor",
          "type": "address"
        },
        {
          "indexed": false,
          "internalType": "uint256",
          "name": "claimedAmount",
          "type": "uint256"
        }
      ],
      "name": "ClaimedCollateral",
      "type": "event"
    },
    {
      "anonymous": false,
      "inputs": [
        {
          "indexed": true,
          "internalType": "bytes32",
          "name": "assetId",
          "type": "bytes32"
        },
        {
          "indexed": false,
          "internalType": "address",
          "name": "collateralizer",
          "type": "address"
        },
        {
          "indexed": false,
          "internalType": "uint256",
          "name": "withdrawnAmount",
          "type": "uint256"
        }
      ],
      "name": "WithdrewCollateral",
      "type": "event"
    },
    {
      "inputs": [
        {
          "internalType": "bytes32",
          "name": "assetId",
          "type": "bytes32"
        },
        {
          "internalType": "uint256",
          "name": "addAmount",
          "type": "uint256"
        }
      ],
      "name": "addCollateral",
      "outputs": [],
      "stateMutability": "nonpayable",
      "type": "function"
    },
    {
      "inputs": [],
      "name": "assetRegistry",
      "outputs": [
        {
          "internalType": "contract IAssetRegistry",
          "name": "",
          "type": "address"
        }
      ],
      "stateMutability": "view",
      "type": "function"
    },
    {
      "inputs": [
        {
          "internalType": "bytes32",
          "name": "assetId",
          "type": "bytes32"
        }
      ],
      "name": "claimCollateral",
      "outputs": [],
      "stateMutability": "nonpayable",
      "type": "function"
    },
    {
      "inputs": [
        {
          "internalType": "bytes32",
          "name": "assetId",
          "type": "bytes32"
        }
      ],
      "name": "computeMinCollateralAmount",
      "outputs": [
        {
          "internalType": "uint256",
          "name": "",
          "type": "uint256"
        }
      ],
      "stateMutability": "view",
      "type": "function"
    },
    {
      "inputs": [
        {
          "internalType": "bytes32",
          "name": "object",
          "type": "bytes32"
        }
      ],
      "name": "decodeCollateralObject",
      "outputs": [
        {
          "internalType": "address",
          "name": "",
          "type": "address"
        },
        {
          "internalType": "uint256",
          "name": "",
          "type": "uint256"
        }
      ],
      "stateMutability": "pure",
      "type": "function"
    },
    {
      "inputs": [
        {
          "internalType": "bytes32",
          "name": "_event",
          "type": "bytes32"
        }
      ],
      "name": "decodeEvent",
      "outputs": [
        {
          "internalType": "enum EventType",
          "name": "",
          "type": "uint8"
        },
        {
          "internalType": "uint256",
          "name": "",
          "type": "uint256"
        }
      ],
      "stateMutability": "pure",
      "type": "function"
    },
    {
      "inputs": [
        {
          "internalType": "bytes32",
          "name": "assetId",
          "type": "bytes32"
        }
      ],
      "name": "deriveCollateralizerAndCreditor",
      "outputs": [
        {
          "internalType": "address",
          "name": "collateralizer",
          "type": "address"
        },
        {
          "internalType": "address",
          "name": "creditor",
          "type": "address"
        }
      ],
      "stateMutability": "view",
      "type": "function"
    },
    {
      "inputs": [
        {
          "internalType": "address",
          "name": "collateralToken",
          "type": "address"
        },
        {
          "internalType": "uint256",
          "name": "collateralAmount",
          "type": "uint256"
        }
      ],
      "name": "encodeCollateralAsObject",
      "outputs": [
        {
          "internalType": "bytes32",
          "name": "",
          "type": "bytes32"
        }
      ],
      "stateMutability": "pure",
      "type": "function"
    },
    {
      "inputs": [
        {
          "internalType": "enum EventType",
          "name": "eventType",
          "type": "uint8"
        },
        {
          "internalType": "uint256",
          "name": "scheduleTime",
          "type": "uint256"
        }
      ],
      "name": "encodeEvent",
      "outputs": [
        {
          "internalType": "bytes32",
          "name": "",
          "type": "bytes32"
        }
      ],
      "stateMutability": "pure",
      "type": "function"
    },
    {
      "inputs": [
        {
          "internalType": "enum EventType",
          "name": "eventType",
          "type": "uint8"
        }
      ],
      "name": "getEpochOffset",
      "outputs": [
        {
          "internalType": "uint256",
          "name": "",
          "type": "uint256"
        }
      ],
      "stateMutability": "pure",
      "type": "function"
    },
    {
      "inputs": [
        {
          "internalType": "bytes32",
          "name": "assetId",
          "type": "bytes32"
        }
      ],
      "name": "isUndercollateralized",
      "outputs": [
        {
          "internalType": "bool",
          "name": "",
          "type": "bool"
        }
      ],
      "stateMutability": "view",
      "type": "function"
    },
    {
      "inputs": [
        {
          "internalType": "bytes32",
          "name": "assetId",
          "type": "bytes32"
        }
      ],
      "name": "onProgress",
      "outputs": [
        {
          "internalType": "bytes32",
          "name": "",
          "type": "bytes32"
        }
      ],
      "stateMutability": "nonpayable",
      "type": "function"
    },
    {
      "inputs": [
        {
          "internalType": "bytes32",
          "name": "assetId",
          "type": "bytes32"
        },
        {
          "internalType": "uint256",
          "name": "withdrawAmount",
          "type": "uint256"
        }
      ],
      "name": "withdrawCollateral",
      "outputs": [],
      "stateMutability": "nonpayable",
      "type": "function"
    }
  ],
  "bytecode": "0x608060405234801561001057600080fd5b50604051611b26380380611b2683398101604081905261002f91610054565b600080546001600160a01b0319166001600160a01b0392909216919091179055610082565b600060208284031215610065578081fd5b81516001600160a01b038116811461007b578182fd5b9392505050565b611a95806100916000396000f3fe608060405234801561001057600080fd5b50600436106100cf5760003560e01c8063979d7e861161008c578063db2f90ae11610066578063db2f90ae146101d0578063e05a66e0146101e3578063e3fc028d146101f6578063f5129e5a14610209576100cf565b8063979d7e8614610185578063a1e934821461019a578063c82ac37a146101af576100cf565b806319ad7030146100d457806321d31f9f146100fd578063645a26bd1461011d5780636778e0e91461013e5780637254000314610151578063811322fb14610172575b600080fd5b6100e76100e2366004611468565b61021c565b6040516100f491906115ef565b60405180910390f35b61011061010b366004611468565b610331565b6040516100f491906115e4565b61013061012b366004611468565b610353565b6040516100f49291906115cb565b6100e761014c36600461141d565b61036c565b61016461015f366004611468565b610397565b6040516100f49291906116bb565b6100e76101803660046114a1565b6103c0565b61018d6103ce565b6040516100f491906116a7565b6101ad6101a8366004611480565b6103dd565b005b6101c26101bd366004611468565b6106fa565b6040516100f492919061158d565b6101ad6101de366004611480565b61092e565b6100e76101f13660046114bb565b610c1e565b6101ad610204366004611468565b610c3c565b6100e7610217366004611468565b610e6b565b60008054604051631392c59160e11b81526001600160a01b03909116906327258b229061024d9085906004016115ef565b60206040518083038186803b15801561026557600080fd5b505afa158015610279573d6000803e3d6000fd5b505050506040513d601f19601f8201168201806040525081019061029d9190611448565b15156001146102c75760405162461bcd60e51b81526004016102be906116d3565b60405180910390fd5b6102d082611028565b15806102f257506102e082610e6b565b60008381526001602052604090205410155b156102ff5750600061032c565b61030882610e6b565b60008381526001602081905260409091208101919091556103299042610c1e565b90505b919050565b600061033c82610e6b565b600083815260016020526040902054109050919050565b606081901c6bffffffffffffffffffffffff8216915091565b6bffffffffffffffffffffffff19606083901b166bffffffffffffffffffffffff8216175b92915050565b6000808060f884901c60218111156103ab57fe5b92505067ffffffffffffffff83169050915091565b600081602181111561032957fe5b6000546001600160a01b031681565b600054604051631392c59160e11b81526001600160a01b03909116906327258b229061040d9085906004016115ef565b60206040518083038186803b15801561042557600080fd5b505afa158015610439573d6000803e3d6000fd5b505050506040513d601f19601f8201168201806040525081019061045d9190611448565b151560011461047e5760405162461bcd60e51b81526004016102be906118a3565b6000610489836106fa565b50905061049583610e6b565b6000848152600160205260409020546104ae908461119d565b101580610551575060005460405163ecef557760e01b81526004916001600160a01b03169063ecef5577906104e6908790850161165f565b60206040518083038186803b1580156104fe57600080fd5b505afa158015610512573d6000803e3d6000fd5b505050506040513d601f19601f82011682018060405250810190610536919061156c565b60ff16600581111561054457fe5b600581111561054f57fe5b145b61056d5760405162461bcd60e51b81526004016102be90611947565b6000805460405163eb01255960e01b81526001600160a01b039091169063eb0125599061059e908790600401611645565b60206040518083038186803b1580156105b657600080fd5b505afa1580156105ca573d6000803e3d6000fd5b505050506040513d601f19601f820116820180604052508101906105ee9190611401565b60405163a9059cbb60e01b81529091506001600160a01b0382169063a9059cbb9061061f90859087906004016115cb565b602060405180830381600087803b15801561063957600080fd5b505af115801561064d573d6000803e3d6000fd5b505050506040513d601f19601f820116820180604052508101906106719190611448565b61068d5760405162461bcd60e51b81526004016102be90611769565b6000848152600160205260409020546106a6908461119d565b60008581526001602052604090819020919091555184907fc67008ba6b173484632f39246ef741d90c63b0e9e688b6decaf6d3ac43387bc2906106ec90859087906115cb565b60405180910390a250505050565b60008054604051631392c59160e11b815282916001600160a01b0316906327258b229061072b9086906004016115ef565b60206040518083038186803b15801561074357600080fd5b505afa158015610757573d6000803e3d6000fd5b505050506040513d601f19601f8201168201806040525081019061077b9190611448565b151560011461079c5760405162461bcd60e51b81526004016102be90611805565b6000805460405163ecef557760e01b81526001600160a01b039091169063ecef5577906107cd908790600401611627565b60206040518083038186803b1580156107e557600080fd5b505afa1580156107f9573d6000803e3d6000fd5b505050506040513d601f19601f8201168201806040525081019061081d919061156c565b60ff16600c81111561082b57fe5b9050600681600c81111561083b57fe5b14806108525750600781600c81111561085057fe5b145b61086e5760405162461bcd60e51b81526004016102be906118f6565b6108766113cb565b60005460405163e50e0ef760e01b81526001600160a01b039091169063e50e0ef7906108a69088906004016115ef565b60806040518083038186803b1580156108be57600080fd5b505afa1580156108d2573d6000803e3d6000fd5b505050506040513d601f19601f820116820180604052508101906108f691906114ee565b9050600682600c81111561090657fe5b146109175780516060820151610922565b806040015181602001515b90969095509350505050565b600054604051631392c59160e11b81526001600160a01b03909116906327258b229061095e9085906004016115ef565b60206040518083038186803b15801561097657600080fd5b505afa15801561098a573d6000803e3d6000fd5b505050506040513d601f19601f820116820180604052508101906109ae9190611448565b15156001146109cf5760405162461bcd60e51b81526004016102be906116d3565b6109d882611028565b6109f45760405162461bcd60e51b81526004016102be90611855565b6000805460405163eb01255960e01b81526001600160a01b039091169063eb01255990610a25908690600401611645565b60206040518083038186803b158015610a3d57600080fd5b505afa158015610a51573d6000803e3d6000fd5b505050506040513d601f19601f82011682018060405250810190610a759190611401565b905081816001600160a01b031663dd62ed3e33306040518363ffffffff1660e01b8152600401610aa692919061158d565b60206040518083038186803b158015610abe57600080fd5b505afa158015610ad2573d6000803e3d6000fd5b505050506040513d601f19601f82011682018060405250810190610af691906114d6565b1015610b145760405162461bcd60e51b81526004016102be906117b6565b6040516323b872dd60e01b81526001600160a01b038216906323b872dd90610b44903390309087906004016115a7565b602060405180830381600087803b158015610b5e57600080fd5b505af1158015610b72573d6000803e3d6000fd5b505050506040513d601f19601f82011682018060405250810190610b969190611448565b610bb25760405162461bcd60e51b81526004016102be90611721565b600083815260016020526040902054610bcb90836111df565b60008481526001602052604090819020919091555183907fff2b5307680b7890fefd347e6191f7240db2feb6449978e126e8246c6780acdd90610c1190339086906115cb565b60405180910390a2505050565b60008160f8846021811115610c2f57fe5b60ff16901b179392505050565b600054604051631392c59160e11b81526001600160a01b03909116906327258b2290610c6c9084906004016115ef565b60206040518083038186803b158015610c8457600080fd5b505afa158015610c98573d6000803e3d6000fd5b505050506040513d601f19601f82011682018060405250810190610cbc9190611448565b1515600114610cdd5760405162461bcd60e51b81526004016102be90611805565b60008181526001602081905260408220015490610cf9836106fa565b6000805460405163eb01255960e01b81529294509092506001600160a01b03169063eb01255990610d2e908790600401611645565b60206040518083038186803b158015610d4657600080fd5b505afa158015610d5a573d6000803e3d6000fd5b505050506040513d601f19601f82011682018060405250810190610d7e9190611401565b60405163a9059cbb60e01b81529091506001600160a01b0382169063a9059cbb90610daf90859087906004016115cb565b602060405180830381600087803b158015610dc957600080fd5b505af1158015610ddd573d6000803e3d6000fd5b505050506040513d601f19601f82011682018060405250810190610e019190611448565b610e1d5760405162461bcd60e51b81526004016102be906119a4565b60006001600086815260200190815260200160002060010181905550837f4c77173a32d2740968b9a529c68b93feed9aafc7ee1d950f0a2619f0fe2338f283856040516106ec9291906115cb565b60008054604051631392c59160e11b81526001600160a01b03909116906327258b2290610e9c9085906004016115ef565b60206040518083038186803b158015610eb457600080fd5b505afa158015610ec8573d6000803e3d6000fd5b505050506040513d601f19601f82011682018060405250810190610eec9190611448565b1515600114610f0d5760405162461bcd60e51b81526004016102be90611805565b6000805460405163b461dd4f60e01b81526001600160a01b039091169063b461dd4f90610f3e9086906004016115f8565b60206040518083038186803b158015610f5657600080fd5b505afa158015610f6a573d6000803e3d6000fd5b505050506040513d601f19601f82011682018060405250810190610f8e91906114d6565b6000805460405163b461dd4f60e01b815292935090916001600160a01b039091169063b461dd4f90610fc4908790600401611684565b60206040518083038186803b158015610fdc57600080fd5b505afa158015610ff0573d6000803e3d6000fd5b505050506040513d601f19601f8201168201806040525081019061101491906114d6565b90506110208183611239565b949350505050565b60008054604051631392c59160e11b81526001600160a01b03909116906327258b22906110599085906004016115ef565b60206040518083038186803b15801561107157600080fd5b505afa158015611085573d6000803e3d6000fd5b505050506040513d601f19601f820116820180604052508101906110a99190611448565b15156001146110ca5760405162461bcd60e51b81526004016102be90611805565b6000805460405163ecef557760e01b81526001600160a01b039091169063ecef5577906110fb90869060040161165f565b60206040518083038186803b15801561111357600080fd5b505afa158015611127573d6000803e3d6000fd5b505050506040513d601f19601f8201168201806040525081019061114b919061156c565b60ff16600581111561115957fe5b9050600081600581111561116957fe5b14806111805750600181600581111561117e57fe5b145b806111965750600281600581111561119457fe5b145b9392505050565b600061119683836040518060400160405280601e81526020017f536166654d6174683a207375627472616374696f6e206f766572666c6f770000815250611334565b600082820183811015611196576040805162461bcd60e51b815260206004820152601b60248201527f536166654d6174683a206164646974696f6e206f766572666c6f770000000000604482015290519081900360640190fd5b6000821580611246575081155b1561125357506000610391565b826000191480156112675750600160ff1b82145b156112a35760405162461bcd60e51b8152600401808060200182810382526027815260200180611a396027913960400191505060405180910390fd5b828202828482816112b057fe5b05146112ed5760405162461bcd60e51b8152600401808060200182810382526027815260200180611a396027913960400191505060405180910390fd5b670de0b6b3a76400008105806110205760405162461bcd60e51b8152600401808060200182810382526032815260200180611a076032913960400191505060405180910390fd5b600081848411156113c35760405162461bcd60e51b81526004018080602001828103825283818151815260200191508051906020019080838360005b83811015611388578181015183820152602001611370565b50505050905090810190601f1680156113b55780820380516001836020036101000a031916815260200191505b509250505060405180910390fd5b505050900390565b60408051608081018252600080825260208201819052918101829052606081019190915290565b80356022811061032c57600080fd5b600060208284031215611412578081fd5b8151611196816119ee565b6000806040838503121561142f578081fd5b823561143a816119ee565b946020939093013593505050565b600060208284031215611459578081fd5b81518015158114611196578182fd5b600060208284031215611479578081fd5b5035919050565b60008060408385031215611492578182fd5b50508035926020909101359150565b6000602082840312156114b2578081fd5b611196826113f2565b600080604083850312156114cd578182fd5b61143a836113f2565b6000602082840312156114e7578081fd5b5051919050565b6000608082840312156114ff578081fd5b6040516080810181811067ffffffffffffffff8211171561151c57fe5b604052825161152a816119ee565b8152602083015161153a816119ee565b6020820152604083015161154d816119ee565b60408201526060830151611560816119ee565b60608201529392505050565b60006020828403121561157d578081fd5b815160ff81168114611196578182fd5b6001600160a01b0392831681529116602082015260400190565b6001600160a01b039384168152919092166020820152604081019190915260600190565b6001600160a01b03929092168252602082015260400190565b901515815260200190565b90815260200190565b9081527f636f7665726167654f66437265646974456e68616e63656d656e740000000000602082015260400190565b9081526b636f6e7472616374526f6c6560a01b602082015260400190565b9081526763757272656e637960c01b602082015260400190565b90815272636f6e7472616374506572666f726d616e636560681b602082015260400190565b908152701b9bdd1a5bdb985b141c9a5b98da5c185b607a1b602082015260400190565b6001600160a01b0391909116815260200190565b60408101602284106116c957fe5b9281526020015290565b6020808252602e908201527f436f6c6c61746572616c2e616464436f6c6c61746572616c3a2041535345545f60408201526d1113d154d7d393d517d1561254d560921b606082015260800190565b60208082526028908201527f437573746f6469616e2e616464436f6c6c61746572616c3a205452414e5346456040820152671497d1905253115160c21b606082015260800190565b6020808252602d908201527f437573746f6469616e2e7769746864726177436f6c6c61746572616c3a20545260408201526c105394d1915497d19052531151609a1b606082015260800190565b6020808252602f908201527f437573746f6469616e2e616464436f6c6c61746572616c3a20494e535546464960408201526e4349454e545f414c4c4f57414e434560881b606082015260800190565b60208082526030908201527f436f6c6c61746572616c2e636c61696d436f6c6c61746572616c3a204153534560408201526f1517d113d154d7d393d517d1561254d560821b606082015260800190565b6020808252602e908201527f436f6c6c61746572616c2e616464436f6c6c61746572616c3a204e4f545f434f60408201526d4c4c41544552414c495a41424c4560901b606082015260800190565b60208082526033908201527f436f6c6c61746572616c2e7769746864726177436f6c6c61746572616c3a204160408201527214d4d15517d113d154d7d393d517d1561254d5606a1b606082015260800190565b60208082526031908201527f436f6c6c61746572616c2e636c61696d436f6c6c61746572616c3a20494e56416040820152704c49445f434f4e54524143545f524f4c4560781b606082015260800190565b6020808252603c908201527f436f6c6c61746572616c2e7769746864726177436f6c6c61746572616c3a204960408201527f4e53554646494349454e545f434f4c4c41544552414c5f524154494f00000000606082015260800190565b6020808252602a908201527f437573746f6469616e2e636c61696d436f6c6c61746572616c3a205452414e5360408201526911915497d1905253115160b21b606082015260800190565b6001600160a01b0381168114611a0357600080fd5b5056fe5369676e65644d6174682e666c6f61744d756c743a2043414e4e4f545f524550524553454e545f4752414e554c41524954595369676e65644d6174682e666c6f61744d756c743a204f564552464c4f575f4445544543544544a2646970667358221220ef1a90c7717872f28bcd88f86bc47c5349ad79c5e087c1189e08cfb6bc4dd00d64736f6c63430007040033",
  "linkReferences": {},
  "deployedLinkReferences": {}
}