{
  "_format": "hh-sol-artifact-1",
  "contractName": "CustodianExtension",
  "sourceName": "contracts/Extensions/CustodianExtension/CustodianExtension.sol",
  "abi": [
    {
      "inputs": [
        {
          "internalType": "contract IAssetRegistry",
          "name": "_assetRegistry",
          "type": "address"
        },
        {
          "internalType": "contract IOracleProxy",
          "name": "_defaultOracleProxy",
          "type": "address"
        }
      ],
      "stateMutability": "nonpayable",
      "type": "constructor"
    },
    {
      "anonymous": false,
      "inputs": [
        {
          "indexed": true,
          "internalType": "bytes32",
          "name": "assetId",
          "type": "bytes32"
        },
        {
          "indexed": false,
          "internalType": "address",
          "name": "collateralizer",
          "type": "address"
        },
        {
          "indexed": false,
          "internalType": "uint256",
          "name": "collateralAmount",
          "type": "uint256"
        }
      ],
      "name": "AddedCollateral",
      "type": "event"
    },
    {
      "anonymous": false,
      "inputs": [
        {
          "indexed": true,
          "internalType": "bytes32",
          "name": "assetId",
          "type": "bytes32"
        },
        {
          "indexed": false,
          "internalType": "address",
          "name": "creditor",
          "type": "address"
        },
        {
          "indexed": false,
          "internalType": "uint256",
          "name": "claimedAmount",
          "type": "uint256"
        }
      ],
      "name": "ClaimedCollateral",
      "type": "event"
    },
    {
      "anonymous": false,
      "inputs": [
        {
          "indexed": true,
          "internalType": "bytes32",
          "name": "assetId",
          "type": "bytes32"
        },
        {
          "indexed": false,
          "internalType": "address",
          "name": "collateralizer",
          "type": "address"
        },
        {
          "indexed": false,
          "internalType": "uint256",
          "name": "withdrawnAmount",
          "type": "uint256"
        }
      ],
      "name": "WithdrewCollateral",
      "type": "event"
    },
    {
      "inputs": [
        {
          "internalType": "bytes32",
          "name": "assetId",
          "type": "bytes32"
        },
        {
          "internalType": "uint256",
          "name": "addAmount",
          "type": "uint256"
        }
      ],
      "name": "addCollateral",
      "outputs": [],
      "stateMutability": "nonpayable",
      "type": "function"
    },
    {
      "inputs": [],
      "name": "assetRegistry",
      "outputs": [
        {
          "internalType": "contract IAssetRegistry",
          "name": "",
          "type": "address"
        }
      ],
      "stateMutability": "view",
      "type": "function"
    },
    {
      "inputs": [
        {
          "internalType": "bytes32",
          "name": "assetId",
          "type": "bytes32"
        }
      ],
      "name": "claimCollateral",
      "outputs": [],
      "stateMutability": "nonpayable",
      "type": "function"
    },
    {
      "inputs": [
        {
          "internalType": "bytes32",
          "name": "assetId",
          "type": "bytes32"
        }
      ],
      "name": "computeMinCollateralAmount",
      "outputs": [
        {
          "internalType": "uint256",
          "name": "",
          "type": "uint256"
        }
      ],
      "stateMutability": "view",
      "type": "function"
    },
    {
      "inputs": [
        {
          "internalType": "bytes32",
          "name": "object",
          "type": "bytes32"
        }
      ],
      "name": "decodeCollateralObject",
      "outputs": [
        {
          "internalType": "address",
          "name": "",
          "type": "address"
        },
        {
          "internalType": "uint256",
          "name": "",
          "type": "uint256"
        }
      ],
      "stateMutability": "pure",
      "type": "function"
    },
    {
      "inputs": [
        {
          "internalType": "bytes32",
          "name": "_event",
          "type": "bytes32"
        }
      ],
      "name": "decodeEvent",
      "outputs": [
        {
          "internalType": "enum EventType",
          "name": "",
          "type": "uint8"
        },
        {
          "internalType": "uint256",
          "name": "",
          "type": "uint256"
        }
      ],
      "stateMutability": "pure",
      "type": "function"
    },
    {
      "inputs": [],
      "name": "defaultOracleProxy",
      "outputs": [
        {
          "internalType": "contract IOracleProxy",
          "name": "",
          "type": "address"
        }
      ],
      "stateMutability": "view",
      "type": "function"
    },
    {
      "inputs": [
        {
          "internalType": "bytes32",
          "name": "assetId",
          "type": "bytes32"
        }
      ],
      "name": "deriveCollateralizerAndCreditor",
      "outputs": [
        {
          "internalType": "address",
          "name": "collateralizer",
          "type": "address"
        },
        {
          "internalType": "address",
          "name": "creditor",
          "type": "address"
        }
      ],
      "stateMutability": "view",
      "type": "function"
    },
    {
      "inputs": [
        {
          "internalType": "address",
          "name": "collateralToken",
          "type": "address"
        },
        {
          "internalType": "uint256",
          "name": "collateralAmount",
          "type": "uint256"
        }
      ],
      "name": "encodeCollateralAsObject",
      "outputs": [
        {
          "internalType": "bytes32",
          "name": "",
          "type": "bytes32"
        }
      ],
      "stateMutability": "pure",
      "type": "function"
    },
    {
      "inputs": [
        {
          "internalType": "enum EventType",
          "name": "eventType",
          "type": "uint8"
        },
        {
          "internalType": "uint256",
          "name": "scheduleTime",
          "type": "uint256"
        }
      ],
      "name": "encodeEvent",
      "outputs": [
        {
          "internalType": "bytes32",
          "name": "",
          "type": "bytes32"
        }
      ],
      "stateMutability": "pure",
      "type": "function"
    },
    {
      "inputs": [
        {
          "internalType": "enum EventType",
          "name": "eventType",
          "type": "uint8"
        }
      ],
      "name": "getEpochOffset",
      "outputs": [
        {
          "internalType": "uint256",
          "name": "",
          "type": "uint256"
        }
      ],
      "stateMutability": "pure",
      "type": "function"
    },
    {
      "inputs": [
        {
          "internalType": "bytes32",
          "name": "assetId",
          "type": "bytes32"
        }
      ],
      "name": "isUndercollateralized",
      "outputs": [
        {
          "internalType": "bool",
          "name": "",
          "type": "bool"
        }
      ],
      "stateMutability": "view",
      "type": "function"
    },
    {
      "inputs": [
        {
          "internalType": "bytes32",
          "name": "assetId",
          "type": "bytes32"
        }
      ],
      "name": "onProgress",
      "outputs": [
        {
          "internalType": "bytes32",
          "name": "",
          "type": "bytes32"
        }
      ],
      "stateMutability": "nonpayable",
      "type": "function"
    },
    {
      "inputs": [
        {
          "internalType": "bytes32",
          "name": "assetId",
          "type": "bytes32"
        },
        {
          "internalType": "uint256",
          "name": "withdrawAmount",
          "type": "uint256"
        }
      ],
      "name": "withdrawCollateral",
      "outputs": [],
      "stateMutability": "nonpayable",
      "type": "function"
    }
  ],
  "bytecode": "0x60806040523480156200001157600080fd5b5060405162001f7d38038062001f7d833981016040819052620000349162000066565b600080546001600160a01b039384166001600160a01b03199182161790915560018054929093169116179055620000bd565b6000806040838503121562000079578182fd5b82516200008681620000a4565b60208401519092506200009981620000a4565b809150509250929050565b6001600160a01b0381168114620000ba57600080fd5b50565b611eb080620000cd6000396000f3fe608060405234801561001057600080fd5b50600436106100ea5760003560e01c806398172dd81161008c578063db2f90ae11610066578063db2f90ae146101f3578063e05a66e014610206578063e3fc028d14610219578063f5129e5a1461022c576100ea565b806398172dd8146101b5578063a1e93482146101bd578063c82ac37a146101d2576100ea565b80636778e0e9116100c85780636778e0e914610159578063725400031461016c578063811322fb1461018d578063979d7e86146101a0576100ea565b806319ad7030146100ef57806321d31f9f14610118578063645a26bd14610138575b600080fd5b6101026100fd36600461172d565b61023f565b60405161010f91906118df565b60405180910390f35b61012b61012636600461172d565b610354565b60405161010f91906118d4565b61014b61014636600461172d565b610376565b60405161010f9291906118bb565b6101026101673660046116e8565b61038f565b61017f61017a36600461172d565b6103ba565b60405161010f929190611a03565b61010261019b36600461177e565b6103e3565b6101a86103f1565b60405161010f91906119ef565b6101a8610400565b6101d06101cb36600461175d565b61040f565b005b6101e56101e036600461172d565b610754565b60405161010f92919061187d565b6101d061020136600461175d565b610988565b610102610214366004611798565b610c78565b6101d061022736600461172d565b610c96565b61010261023a36600461172d565b610ec0565b60008054604051631392c59160e11b81526001600160a01b03909116906327258b22906102709085906004016118df565b60206040518083038186803b15801561028857600080fd5b505afa15801561029c573d6000803e3d6000fd5b505050506040513d601f19601f820116820180604052508101906102c09190611713565b15156001146102ea5760405162461bcd60e51b81526004016102e190611d85565b60405180910390fd5b6102f3826112db565b1580610315575061030382610ec0565b60008381526002602052604090205410155b156103225750600061034f565b61032b82610ec0565b600083815260026020526040902060019081019190915561034c9042610c78565b90505b919050565b600061035f82610ec0565b600083815260026020526040902054109050919050565b606081901c6bffffffffffffffffffffffff8216915091565b6bffffffffffffffffffffffff19606083901b166bffffffffffffffffffffffff8216175b92915050565b6000808060f884901c60218111156103ce57fe5b92505067ffffffffffffffff83169050915091565b600081602181111561034c57fe5b6000546001600160a01b031681565b6001546001600160a01b031681565b600054604051631392c59160e11b81526001600160a01b03909116906327258b229061043f9085906004016118df565b60206040518083038186803b15801561045757600080fd5b505afa15801561046b573d6000803e3d6000fd5b505050506040513d601f19601f8201168201806040525081019061048f9190611713565b15156001146104b05760405162461bcd60e51b81526004016102e190611a5a565b60006104bb83610754565b509050336001600160a01b038216146104e65760405162461bcd60e51b81526004016102e190611c92565b6104ef83610ec0565b6000848152600260205260409020546105089084611450565b1015806105ab575060005460405163ecef557760e01b81526004916001600160a01b03169063ecef5577906105409087908501611999565b60206040518083038186803b15801561055857600080fd5b505afa15801561056c573d6000803e3d6000fd5b505050506040513d601f19601f82011682018060405250810190610590919061185c565b60ff16600581111561059e57fe5b60058111156105a957fe5b145b6105c75760405162461bcd60e51b81526004016102e190611b46565b6000805460405163eb01255960e01b81526001600160a01b039091169063eb012559906105f8908790600401611920565b60206040518083038186803b15801561061057600080fd5b505afa158015610624573d6000803e3d6000fd5b505050506040513d601f19601f8201168201806040525081019061064891906116cc565b60405163a9059cbb60e01b81529091506001600160a01b0382169063a9059cbb9061067990339087906004016118bb565b602060405180830381600087803b15801561069357600080fd5b505af11580156106a7573d6000803e3d6000fd5b505050506040513d601f19601f820116820180604052508101906106cb9190611713565b6106e75760405162461bcd60e51b81526004016102e190611aa5565b6000848152600260205260409020546107009084611450565b60008581526002602052604090819020919091555184907fc67008ba6b173484632f39246ef741d90c63b0e9e688b6decaf6d3ac43387bc29061074690339087906118bb565b60405180910390a250505050565b60008054604051631392c59160e11b815282916001600160a01b0316906327258b22906107859086906004016118df565b60206040518083038186803b15801561079d57600080fd5b505afa1580156107b1573d6000803e3d6000fd5b505050506040513d601f19601f820116820180604052508101906107d59190611713565b15156001146107f65760405162461bcd60e51b81526004016102e190611cdd565b6000805460405163ecef557760e01b81526001600160a01b039091169063ecef5577906108279087906004016118e8565b60206040518083038186803b15801561083f57600080fd5b505afa158015610853573d6000803e3d6000fd5b505050506040513d601f19601f82011682018060405250810190610877919061185c565b60ff16600c81111561088557fe5b9050600681600c81111561089557fe5b14806108ac5750600781600c8111156108aa57fe5b145b6108c85760405162461bcd60e51b81526004016102e190611c35565b6108d0611686565b60005460405163e50e0ef760e01b81526001600160a01b039091169063e50e0ef7906109009088906004016118df565b60806040518083038186803b15801561091857600080fd5b505afa15801561092c573d6000803e3d6000fd5b505050506040513d601f19601f8201168201806040525081019061095091906117de565b9050600682600c81111561096057fe5b14610971578051606082015161097c565b806040015181602001515b90969095509350505050565b600054604051631392c59160e11b81526001600160a01b03909116906327258b22906109b89085906004016118df565b60206040518083038186803b1580156109d057600080fd5b505afa1580156109e4573d6000803e3d6000fd5b505050506040513d601f19601f82011682018060405250810190610a089190611713565b1515600114610a295760405162461bcd60e51b81526004016102e190611d85565b610a32826112db565b610a4e5760405162461bcd60e51b81526004016102e190611bf1565b6000805460405163eb01255960e01b81526001600160a01b039091169063eb01255990610a7f908690600401611920565b60206040518083038186803b158015610a9757600080fd5b505afa158015610aab573d6000803e3d6000fd5b505050506040513d601f19601f82011682018060405250810190610acf91906116cc565b905081816001600160a01b031663dd62ed3e33306040518363ffffffff1660e01b8152600401610b0092919061187d565b60206040518083038186803b158015610b1857600080fd5b505afa158015610b2c573d6000803e3d6000fd5b505050506040513d601f19601f82011682018060405250810190610b509190611745565b1015610b6e5760405162461bcd60e51b81526004016102e190611d3a565b6040516323b872dd60e01b81526001600160a01b038216906323b872dd90610b9e90339030908790600401611897565b602060405180830381600087803b158015610bb857600080fd5b505af1158015610bcc573d6000803e3d6000fd5b505050506040513d601f19601f82011682018060405250810190610bf09190611713565b610c0c5760405162461bcd60e51b81526004016102e190611a1b565b600083815260026020526040902054610c259083611492565b60008481526002602052604090819020919091555183907fff2b5307680b7890fefd347e6191f7240db2feb6449978e126e8246c6780acdd90610c6b90339086906118bb565b60405180910390a2505050565b60008160f8846021811115610c8957fe5b60ff16901b179392505050565b600054604051631392c59160e11b81526001600160a01b03909116906327258b2290610cc69084906004016118df565b60206040518083038186803b158015610cde57600080fd5b505afa158015610cf2573d6000803e3d6000fd5b505050506040513d601f19601f82011682018060405250810190610d169190611713565b1515600114610d375760405162461bcd60e51b81526004016102e190611cdd565b6000818152600260205260409020600101546000610d5483610754565b6000805460405163eb01255960e01b81529294509092506001600160a01b03169063eb01255990610d89908790600401611920565b60206040518083038186803b158015610da157600080fd5b505afa158015610db5573d6000803e3d6000fd5b505050506040513d601f19601f82011682018060405250810190610dd991906116cc565b60405163a9059cbb60e01b81529091506001600160a01b0382169063a9059cbb90610e0a90859087906004016118bb565b602060405180830381600087803b158015610e2457600080fd5b505af1158015610e38573d6000803e3d6000fd5b505050506040513d601f19601f82011682018060405250810190610e5c9190611713565b610e785760405162461bcd60e51b81526004016102e190611b9e565b600084815260026020526040808220600101919091555184907f4c77173a32d2740968b9a529c68b93feed9aafc7ee1d950f0a2619f0fe2338f29061074690859087906118bb565b60008054604051631392c59160e11b81526001600160a01b03909116906327258b2290610ef19085906004016118df565b60206040518083038186803b158015610f0957600080fd5b505afa158015610f1d573d6000803e3d6000fd5b505050506040513d601f19601f82011682018060405250810190610f419190611713565b1515600114610f625760405162461bcd60e51b81526004016102e190611cdd565b6000805460405163eb01255960e01b81526001600160a01b039091169063eb01255990610f93908690600401611906565b60206040518083038186803b158015610fab57600080fd5b505afa158015610fbf573d6000803e3d6000fd5b505050506040513d601f19601f82011682018060405250810190610fe391906116cc565b6000805460405163eb01255960e01b815292935090916001600160a01b039091169063eb01255990611019908790600401611920565b60206040518083038186803b15801561103157600080fd5b505afa158015611045573d6000803e3d6000fd5b505050506040513d601f19601f8201168201806040525081019061106991906116cc565b6000805460405163b461dd4f60e01b815292935090916001600160a01b039091169063b461dd4f9061109f908890600401611973565b60206040518083038186803b1580156110b757600080fd5b505afa1580156110cb573d6000803e3d6000fd5b505050506040513d601f19601f820116820180604052508101906110ef9190611745565b6000805460405163b461dd4f60e01b815292935090916001600160a01b039091169063b461dd4f906111259089906004016119be565b60206040518083038186803b15801561113d57600080fd5b505afa158015611151573d6000803e3d6000fd5b505050506040513d601f19601f820116820180604052508101906111759190611745565b9050600061118382846114ec565b9050836001600160a01b0316856001600160a01b0316146112d1576001546000805460405163354770f760e21b8152919283926001600160a01b03918216926308a4ec1092169063d51dc3dc906111de908e90600401611944565b60206040518083038186803b1580156111f657600080fd5b505afa15801561120a573d6000803e3d6000fd5b505050506040513d601f19601f8201168201806040525081019061122e9190611745565b426040518363ffffffff1660e01b815260040161124c9291906119e1565b604080518083038186803b15801561126357600080fd5b505afa158015611277573d6000803e3d6000fd5b505050506040513d601f19601f8201168201806040525081019061129b91906117b3565b90925090506001811515146112c25760405162461bcd60e51b81526004016102e190611ae9565b6112cc83836114ec565b925050505b9695505050505050565b60008054604051631392c59160e11b81526001600160a01b03909116906327258b229061130c9085906004016118df565b60206040518083038186803b15801561132457600080fd5b505afa158015611338573d6000803e3d6000fd5b505050506040513d601f19601f8201168201806040525081019061135c9190611713565b151560011461137d5760405162461bcd60e51b81526004016102e190611cdd565b6000805460405163ecef557760e01b81526001600160a01b039091169063ecef5577906113ae908690600401611999565b60206040518083038186803b1580156113c657600080fd5b505afa1580156113da573d6000803e3d6000fd5b505050506040513d601f19601f820116820180604052508101906113fe919061185c565b60ff16600581111561140c57fe5b9050600081600581111561141c57fe5b14806114335750600181600581111561143157fe5b145b806114495750600281600581111561144757fe5b145b9392505050565b600061144983836040518060400160405280601e81526020017f536166654d6174683a207375627472616374696f6e206f766572666c6f7700008152506115ef565b600082820183811015611449576040805162461bcd60e51b815260206004820152601b60248201527f536166654d6174683a206164646974696f6e206f766572666c6f770000000000604482015290519081900360640190fd5b60008215806114f9575081155b15611506575060006103b4565b8260001914801561151a5750600160ff1b82145b156115565760405162461bcd60e51b8152600401808060200182810382526027815260200180611e546027913960400191505060405180910390fd5b8282028284828161156357fe5b05146115a05760405162461bcd60e51b8152600401808060200182810382526027815260200180611e546027913960400191505060405180910390fd5b670de0b6b3a76400008105806115e75760405162461bcd60e51b8152600401808060200182810382526032815260200180611e026032913960400191505060405180910390fd5b949350505050565b6000818484111561167e5760405162461bcd60e51b81526004018080602001828103825283818151815260200191508051906020019080838360005b8381101561164357818101518382015260200161162b565b50505050905090810190601f1680156116705780820380516001836020036101000a031916815260200191505b509250505060405180910390fd5b505050900390565b60408051608081018252600080825260208201819052918101829052606081019190915290565b8051801515811461034f57600080fd5b80356022811061034f57600080fd5b6000602082840312156116dd578081fd5b815161144981611dc9565b600080604083850312156116fa578081fd5b823561170581611dc9565b946020939093013593505050565b600060208284031215611724578081fd5b611449826116ad565b60006020828403121561173e578081fd5b5035919050565b600060208284031215611756578081fd5b5051919050565b6000806040838503121561176f578182fd5b50508035926020909101359150565b60006020828403121561178f578081fd5b611449826116bd565b600080604083850312156117aa578182fd5b611705836116bd565b600080604083850312156117c5578182fd5b825191506117d5602084016116ad565b90509250929050565b6000608082840312156117ef578081fd5b6040516080810181811067ffffffffffffffff8211171561180c57fe5b604052825161181a81611dc9565b8152602083015161182a81611dc9565b6020820152604083015161183d81611dc9565b6040820152606083015161185081611dc9565b60608201529392505050565b60006020828403121561186d578081fd5b815160ff81168114611449578182fd5b6001600160a01b0392831681529116602082015260400190565b6001600160a01b039384168152919092166020820152604081019190915260600190565b6001600160a01b03929092168252602082015260400190565b901515815260200190565b90815260200190565b9081526b636f6e7472616374526f6c6560a01b602082015260400190565b9081526763757272656e637960c01b602082015260400190565b90815271636f6c6c61746572616c43757272656e637960701b602082015260400190565b9081527f6d61726b65744f626a656374436f64654f66436f6c6c61746572616c52617465602082015260400190565b9081527318dbdd995c9859d953d990dbdb1b185d195c985b60621b602082015260400190565b90815272636f6e7472616374506572666f726d616e636560681b602082015260400190565b908152701b9bdd1a5bdb985b141c9a5b98da5c185b607a1b602082015260400190565b918252602082015260400190565b6001600160a01b0391909116815260200190565b6040810160228410611a1157fe5b9281526020015290565b6020808252603190820152600080516020611e348339815191526040820152700e881514905394d1915497d19052531151607a1b606082015260800190565b6020808252603b90820152600080516020611de283398151915260408201527f746572616c3a2041535345545f444f45535f4e4f545f45584953540000000000606082015260800190565b6020808252603690820152600080516020611de28339815191526040820152751d195c985b0e881514905394d1915497d1905253115160521b606082015260800190565b6020808252603c908201527f437573746f6469616e457874656e73696f6e2e636f6d707574654d696e436f6c60408201527f6c61746572616c416d6f756e743a204e4f5f524154455f464f554e4400000000606082015260800190565b6020808252604490820152600080516020611de283398151915260408201527f746572616c3a20494e53554646494349454e545f434f4c4c41544552414c5f526060820152634154494f60e01b608082015260a00190565b60208082526033908201527f437573746f6469616e457874656e73696f6e2e636c61696d436f6c6c61746572604082015272185b0e881514905394d1915497d19052531151606a1b606082015260800190565b6020808252603690820152600080516020611e348339815191526040820152753a204e4f545f434f4c4c41544552414c495a41424c4560501b606082015260800190565b60208082526039908201527f437573746f6469616e457874656e73696f6e2e636c61696d436f6c6c6174657260408201527f616c3a20494e56414c49445f434f4e54524143545f524f4c4500000000000000606082015260800190565b6020808252603a90820152600080516020611de283398151915260408201527f746572616c3a20554e415554484f52495a45445f53454e444552000000000000606082015260800190565b60208082526038908201527f437573746f6469616e457874656e73696f6e2e636c61696d436f6c6c6174657260408201527f616c3a2041535345545f444f45535f4e4f545f45584953540000000000000000606082015260800190565b6020808252603890820152600080516020611e3483398151915260408201527f3a20494e53554646494349454e545f414c4c4f57414e43450000000000000000606082015260800190565b6020808252603690820152600080516020611e348339815191526040820152750e881054d4d15517d113d154d7d393d517d1561254d560521b606082015260800190565b6001600160a01b0381168114611dde57600080fd5b5056fe437573746f6469616e457874656e73696f6e2e7769746864726177436f6c6c615369676e65644d6174682e666c6f61744d756c743a2043414e4e4f545f524550524553454e545f4752414e554c4152495459437573746f6469616e457874656e73696f6e2e616464436f6c6c61746572616c5369676e65644d6174682e666c6f61744d756c743a204f564552464c4f575f4445544543544544a26469706673582212200b5e296be06087e4b6af2d39d3b11725d4b89b85480a286e73186aa28c04fda164736f6c63430007040033",
  "linkReferences": {},
  "deployedLinkReferences": {}
}