{
  "_format": "hh-sol-artifact-1",
  "contractName": "CustodianExtension",
  "sourceName": "contracts/Extensions/CustodianExtension/CustodianExtension.sol",
  "abi": [
    {
      "inputs": [
        {
          "internalType": "contract IAssetRegistry",
          "name": "_assetRegistry",
          "type": "address"
        }
      ],
      "stateMutability": "nonpayable",
      "type": "constructor"
    },
    {
      "anonymous": false,
      "inputs": [
        {
          "indexed": true,
          "internalType": "bytes32",
          "name": "assetId",
          "type": "bytes32"
        },
        {
          "indexed": false,
          "internalType": "address",
          "name": "collateralizer",
          "type": "address"
        },
        {
          "indexed": false,
          "internalType": "uint256",
          "name": "collateralAmount",
          "type": "uint256"
        }
      ],
      "name": "AddedCollateral",
      "type": "event"
    },
    {
      "anonymous": false,
      "inputs": [
        {
          "indexed": true,
          "internalType": "bytes32",
          "name": "assetId",
          "type": "bytes32"
        },
        {
          "indexed": false,
          "internalType": "address",
          "name": "creditor",
          "type": "address"
        },
        {
          "indexed": false,
          "internalType": "uint256",
          "name": "claimedAmount",
          "type": "uint256"
        }
      ],
      "name": "ClaimedCollateral",
      "type": "event"
    },
    {
      "anonymous": false,
      "inputs": [
        {
          "indexed": true,
          "internalType": "bytes32",
          "name": "assetId",
          "type": "bytes32"
        },
        {
          "indexed": false,
          "internalType": "address",
          "name": "collateralizer",
          "type": "address"
        },
        {
          "indexed": false,
          "internalType": "uint256",
          "name": "withdrawnAmount",
          "type": "uint256"
        }
      ],
      "name": "WithdrewCollateral",
      "type": "event"
    },
    {
      "inputs": [
        {
          "internalType": "bytes32",
          "name": "assetId",
          "type": "bytes32"
        },
        {
          "internalType": "uint256",
          "name": "addAmount",
          "type": "uint256"
        }
      ],
      "name": "addCollateral",
      "outputs": [],
      "stateMutability": "nonpayable",
      "type": "function"
    },
    {
      "inputs": [],
      "name": "assetRegistry",
      "outputs": [
        {
          "internalType": "contract IAssetRegistry",
          "name": "",
          "type": "address"
        }
      ],
      "stateMutability": "view",
      "type": "function"
    },
    {
      "inputs": [
        {
          "internalType": "bytes32",
          "name": "assetId",
          "type": "bytes32"
        }
      ],
      "name": "claimCollateral",
      "outputs": [],
      "stateMutability": "nonpayable",
      "type": "function"
    },
    {
      "inputs": [
        {
          "internalType": "bytes32",
          "name": "assetId",
          "type": "bytes32"
        }
      ],
      "name": "computeMinCollateralAmount",
      "outputs": [
        {
          "internalType": "uint256",
          "name": "",
          "type": "uint256"
        }
      ],
      "stateMutability": "view",
      "type": "function"
    },
    {
      "inputs": [
        {
          "internalType": "bytes32",
          "name": "object",
          "type": "bytes32"
        }
      ],
      "name": "decodeCollateralObject",
      "outputs": [
        {
          "internalType": "address",
          "name": "",
          "type": "address"
        },
        {
          "internalType": "uint256",
          "name": "",
          "type": "uint256"
        }
      ],
      "stateMutability": "pure",
      "type": "function"
    },
    {
      "inputs": [
        {
          "internalType": "bytes32",
          "name": "_event",
          "type": "bytes32"
        }
      ],
      "name": "decodeEvent",
      "outputs": [
        {
          "internalType": "enum EventType",
          "name": "",
          "type": "uint8"
        },
        {
          "internalType": "uint256",
          "name": "",
          "type": "uint256"
        }
      ],
      "stateMutability": "pure",
      "type": "function"
    },
    {
      "inputs": [
        {
          "internalType": "bytes32",
          "name": "assetId",
          "type": "bytes32"
        }
      ],
      "name": "deriveCollateralizerAndCreditor",
      "outputs": [
        {
          "internalType": "address",
          "name": "collateralizer",
          "type": "address"
        },
        {
          "internalType": "address",
          "name": "creditor",
          "type": "address"
        }
      ],
      "stateMutability": "view",
      "type": "function"
    },
    {
      "inputs": [
        {
          "internalType": "address",
          "name": "collateralToken",
          "type": "address"
        },
        {
          "internalType": "uint256",
          "name": "collateralAmount",
          "type": "uint256"
        }
      ],
      "name": "encodeCollateralAsObject",
      "outputs": [
        {
          "internalType": "bytes32",
          "name": "",
          "type": "bytes32"
        }
      ],
      "stateMutability": "pure",
      "type": "function"
    },
    {
      "inputs": [
        {
          "internalType": "enum EventType",
          "name": "eventType",
          "type": "uint8"
        },
        {
          "internalType": "uint256",
          "name": "scheduleTime",
          "type": "uint256"
        }
      ],
      "name": "encodeEvent",
      "outputs": [
        {
          "internalType": "bytes32",
          "name": "",
          "type": "bytes32"
        }
      ],
      "stateMutability": "pure",
      "type": "function"
    },
    {
      "inputs": [
        {
          "internalType": "enum EventType",
          "name": "eventType",
          "type": "uint8"
        }
      ],
      "name": "getEpochOffset",
      "outputs": [
        {
          "internalType": "uint256",
          "name": "",
          "type": "uint256"
        }
      ],
      "stateMutability": "pure",
      "type": "function"
    },
    {
      "inputs": [
        {
          "internalType": "bytes32",
          "name": "assetId",
          "type": "bytes32"
        }
      ],
      "name": "isUndercollateralized",
      "outputs": [
        {
          "internalType": "bool",
          "name": "",
          "type": "bool"
        }
      ],
      "stateMutability": "view",
      "type": "function"
    },
    {
      "inputs": [
        {
          "internalType": "bytes32",
          "name": "assetId",
          "type": "bytes32"
        }
      ],
      "name": "onProgress",
      "outputs": [
        {
          "internalType": "bytes32",
          "name": "",
          "type": "bytes32"
        }
      ],
      "stateMutability": "nonpayable",
      "type": "function"
    },
    {
      "inputs": [
        {
          "internalType": "bytes32",
          "name": "assetId",
          "type": "bytes32"
        },
        {
          "internalType": "uint256",
          "name": "withdrawAmount",
          "type": "uint256"
        }
      ],
      "name": "withdrawCollateral",
      "outputs": [],
      "stateMutability": "nonpayable",
      "type": "function"
    }
  ],
  "bytecode": "0x608060405234801561001057600080fd5b50604051611bc4380380611bc483398101604081905261002f91610054565b600080546001600160a01b0319166001600160a01b0392909216919091179055610082565b600060208284031215610065578081fd5b81516001600160a01b038116811461007b578182fd5b9392505050565b611b33806100916000396000f3fe608060405234801561001057600080fd5b50600436106100cf5760003560e01c8063979d7e861161008c578063db2f90ae11610066578063db2f90ae146101d0578063e05a66e0146101e3578063e3fc028d146101f6578063f5129e5a14610209576100cf565b8063979d7e8614610185578063a1e934821461019a578063c82ac37a146101af576100cf565b806319ad7030146100d457806321d31f9f146100fd578063645a26bd1461011d5780636778e0e91461013e5780637254000314610151578063811322fb14610172575b600080fd5b6100e76100e2366004611490565b61021c565b6040516100f49190611617565b60405180910390f35b61011061010b366004611490565b610331565b6040516100f4919061160c565b61013061012b366004611490565b610353565b6040516100f49291906115f3565b6100e761014c366004611445565b61036c565b61016461015f366004611490565b610397565b6040516100f49291906116e3565b6100e76101803660046114c9565b6103c0565b61018d6103ce565b6040516100f491906116cf565b6101ad6101a83660046114a8565b6103dd565b005b6101c26101bd366004611490565b610722565b6040516100f49291906115b5565b6101ad6101de3660046114a8565b610956565b6100e76101f13660046114e3565b610c46565b6101ad610204366004611490565b610c64565b6100e7610217366004611490565b610e93565b60008054604051631392c59160e11b81526001600160a01b03909116906327258b229061024d908590600401611617565b60206040518083038186803b15801561026557600080fd5b505afa158015610279573d6000803e3d6000fd5b505050506040513d601f19601f8201168201806040525081019061029d9190611470565b15156001146102c75760405162461bcd60e51b81526004016102be90611a08565b60405180910390fd5b6102d082611050565b15806102f257506102e082610e93565b60008381526001602052604090205410155b156102ff5750600061032c565b61030882610e93565b60008381526001602081905260409091208101919091556103299042610c46565b90505b919050565b600061033c82610e93565b600083815260016020526040902054109050919050565b606081901c6bffffffffffffffffffffffff8216915091565b6bffffffffffffffffffffffff19606083901b166bffffffffffffffffffffffff8216175b92915050565b6000808060f884901c60218111156103ab57fe5b92505067ffffffffffffffff83169050915091565b600081602181111561032957fe5b6000546001600160a01b031681565b600054604051631392c59160e11b81526001600160a01b03909116906327258b229061040d908590600401611617565b60206040518083038186803b15801561042557600080fd5b505afa158015610439573d6000803e3d6000fd5b505050506040513d601f19601f8201168201806040525081019061045d9190611470565b151560011461047e5760405162461bcd60e51b81526004016102be9061173a565b600061048983610722565b509050336001600160a01b038216146104b45760405162461bcd60e51b81526004016102be90611915565b6104bd83610e93565b6000848152600160205260409020546104d690846111c5565b101580610579575060005460405163ecef557760e01b81526004916001600160a01b03169063ecef55779061050e9087908501611687565b60206040518083038186803b15801561052657600080fd5b505afa15801561053a573d6000803e3d6000fd5b505050506040513d601f19601f8201168201806040525081019061055e9190611594565b60ff16600581111561056c57fe5b600581111561057757fe5b145b6105955760405162461bcd60e51b81526004016102be906117c9565b6000805460405163eb01255960e01b81526001600160a01b039091169063eb012559906105c690879060040161166d565b60206040518083038186803b1580156105de57600080fd5b505afa1580156105f2573d6000803e3d6000fd5b505050506040513d601f19601f820116820180604052508101906106169190611429565b60405163a9059cbb60e01b81529091506001600160a01b0382169063a9059cbb9061064790339087906004016115f3565b602060405180830381600087803b15801561066157600080fd5b505af1158015610675573d6000803e3d6000fd5b505050506040513d601f19601f820116820180604052508101906106999190611470565b6106b55760405162461bcd60e51b81526004016102be90611785565b6000848152600160205260409020546106ce90846111c5565b60008581526001602052604090819020919091555184907fc67008ba6b173484632f39246ef741d90c63b0e9e688b6decaf6d3ac43387bc29061071490339087906115f3565b60405180910390a250505050565b60008054604051631392c59160e11b815282916001600160a01b0316906327258b2290610753908690600401611617565b60206040518083038186803b15801561076b57600080fd5b505afa15801561077f573d6000803e3d6000fd5b505050506040513d601f19601f820116820180604052508101906107a39190611470565b15156001146107c45760405162461bcd60e51b81526004016102be90611960565b6000805460405163ecef557760e01b81526001600160a01b039091169063ecef5577906107f590879060040161164f565b60206040518083038186803b15801561080d57600080fd5b505afa158015610821573d6000803e3d6000fd5b505050506040513d601f19601f820116820180604052508101906108459190611594565b60ff16600c81111561085357fe5b9050600681600c81111561086357fe5b148061087a5750600781600c81111561087857fe5b145b6108965760405162461bcd60e51b81526004016102be906118b8565b61089e6113f3565b60005460405163e50e0ef760e01b81526001600160a01b039091169063e50e0ef7906108ce908890600401611617565b60806040518083038186803b1580156108e657600080fd5b505afa1580156108fa573d6000803e3d6000fd5b505050506040513d601f19601f8201168201806040525081019061091e9190611516565b9050600682600c81111561092e57fe5b1461093f578051606082015161094a565b806040015181602001515b90969095509350505050565b600054604051631392c59160e11b81526001600160a01b03909116906327258b2290610986908590600401611617565b60206040518083038186803b15801561099e57600080fd5b505afa1580156109b2573d6000803e3d6000fd5b505050506040513d601f19601f820116820180604052508101906109d69190611470565b15156001146109f75760405162461bcd60e51b81526004016102be90611a08565b610a0082611050565b610a1c5760405162461bcd60e51b81526004016102be90611874565b6000805460405163eb01255960e01b81526001600160a01b039091169063eb01255990610a4d90869060040161166d565b60206040518083038186803b158015610a6557600080fd5b505afa158015610a79573d6000803e3d6000fd5b505050506040513d601f19601f82011682018060405250810190610a9d9190611429565b905081816001600160a01b031663dd62ed3e33306040518363ffffffff1660e01b8152600401610ace9291906115b5565b60206040518083038186803b158015610ae657600080fd5b505afa158015610afa573d6000803e3d6000fd5b505050506040513d601f19601f82011682018060405250810190610b1e91906114fe565b1015610b3c5760405162461bcd60e51b81526004016102be906119bd565b6040516323b872dd60e01b81526001600160a01b038216906323b872dd90610b6c903390309087906004016115cf565b602060405180830381600087803b158015610b8657600080fd5b505af1158015610b9a573d6000803e3d6000fd5b505050506040513d601f19601f82011682018060405250810190610bbe9190611470565b610bda5760405162461bcd60e51b81526004016102be906116fb565b600083815260016020526040902054610bf39083611207565b60008481526001602052604090819020919091555183907fff2b5307680b7890fefd347e6191f7240db2feb6449978e126e8246c6780acdd90610c3990339086906115f3565b60405180910390a2505050565b60008160f8846021811115610c5757fe5b60ff16901b179392505050565b600054604051631392c59160e11b81526001600160a01b03909116906327258b2290610c94908490600401611617565b60206040518083038186803b158015610cac57600080fd5b505afa158015610cc0573d6000803e3d6000fd5b505050506040513d601f19601f82011682018060405250810190610ce49190611470565b1515600114610d055760405162461bcd60e51b81526004016102be90611960565b60008181526001602081905260408220015490610d2183610722565b6000805460405163eb01255960e01b81529294509092506001600160a01b03169063eb01255990610d5690879060040161166d565b60206040518083038186803b158015610d6e57600080fd5b505afa158015610d82573d6000803e3d6000fd5b505050506040513d601f19601f82011682018060405250810190610da69190611429565b60405163a9059cbb60e01b81529091506001600160a01b0382169063a9059cbb90610dd790859087906004016115f3565b602060405180830381600087803b158015610df157600080fd5b505af1158015610e05573d6000803e3d6000fd5b505050506040513d601f19601f82011682018060405250810190610e299190611470565b610e455760405162461bcd60e51b81526004016102be90611821565b60006001600086815260200190815260200160002060010181905550837f4c77173a32d2740968b9a529c68b93feed9aafc7ee1d950f0a2619f0fe2338f283856040516107149291906115f3565b60008054604051631392c59160e11b81526001600160a01b03909116906327258b2290610ec4908590600401611617565b60206040518083038186803b158015610edc57600080fd5b505afa158015610ef0573d6000803e3d6000fd5b505050506040513d601f19601f82011682018060405250810190610f149190611470565b1515600114610f355760405162461bcd60e51b81526004016102be90611960565b6000805460405163b461dd4f60e01b81526001600160a01b039091169063b461dd4f90610f66908690600401611620565b60206040518083038186803b158015610f7e57600080fd5b505afa158015610f92573d6000803e3d6000fd5b505050506040513d601f19601f82011682018060405250810190610fb691906114fe565b6000805460405163b461dd4f60e01b815292935090916001600160a01b039091169063b461dd4f90610fec9087906004016116ac565b60206040518083038186803b15801561100457600080fd5b505afa158015611018573d6000803e3d6000fd5b505050506040513d601f19601f8201168201806040525081019061103c91906114fe565b90506110488183611261565b949350505050565b60008054604051631392c59160e11b81526001600160a01b03909116906327258b2290611081908590600401611617565b60206040518083038186803b15801561109957600080fd5b505afa1580156110ad573d6000803e3d6000fd5b505050506040513d601f19601f820116820180604052508101906110d19190611470565b15156001146110f25760405162461bcd60e51b81526004016102be90611960565b6000805460405163ecef557760e01b81526001600160a01b039091169063ecef557790611123908690600401611687565b60206040518083038186803b15801561113b57600080fd5b505afa15801561114f573d6000803e3d6000fd5b505050506040513d601f19601f820116820180604052508101906111739190611594565b60ff16600581111561118157fe5b9050600081600581111561119157fe5b14806111a8575060018160058111156111a657fe5b145b806111be575060028160058111156111bc57fe5b145b9392505050565b60006111be83836040518060400160405280601e81526020017f536166654d6174683a207375627472616374696f6e206f766572666c6f77000081525061135c565b6000828201838110156111be576040805162461bcd60e51b815260206004820152601b60248201527f536166654d6174683a206164646974696f6e206f766572666c6f770000000000604482015290519081900360640190fd5b600082158061126e575081155b1561127b57506000610391565b8260001914801561128f5750600160ff1b82145b156112cb5760405162461bcd60e51b8152600401808060200182810382526027815260200180611ad76027913960400191505060405180910390fd5b828202828482816112d857fe5b05146113155760405162461bcd60e51b8152600401808060200182810382526027815260200180611ad76027913960400191505060405180910390fd5b670de0b6b3a76400008105806110485760405162461bcd60e51b8152600401808060200182810382526032815260200180611a856032913960400191505060405180910390fd5b600081848411156113eb5760405162461bcd60e51b81526004018080602001828103825283818151815260200191508051906020019080838360005b838110156113b0578181015183820152602001611398565b50505050905090810190601f1680156113dd5780820380516001836020036101000a031916815260200191505b509250505060405180910390fd5b505050900390565b60408051608081018252600080825260208201819052918101829052606081019190915290565b80356022811061032c57600080fd5b60006020828403121561143a578081fd5b81516111be81611a4c565b60008060408385031215611457578081fd5b823561146281611a4c565b946020939093013593505050565b600060208284031215611481578081fd5b815180151581146111be578182fd5b6000602082840312156114a1578081fd5b5035919050565b600080604083850312156114ba578182fd5b50508035926020909101359150565b6000602082840312156114da578081fd5b6111be8261141a565b600080604083850312156114f5578182fd5b6114628361141a565b60006020828403121561150f578081fd5b5051919050565b600060808284031215611527578081fd5b6040516080810181811067ffffffffffffffff8211171561154457fe5b604052825161155281611a4c565b8152602083015161156281611a4c565b6020820152604083015161157581611a4c565b6040820152606083015161158881611a4c565b60608201529392505050565b6000602082840312156115a5578081fd5b815160ff811681146111be578182fd5b6001600160a01b0392831681529116602082015260400190565b6001600160a01b039384168152919092166020820152604081019190915260600190565b6001600160a01b03929092168252602082015260400190565b901515815260200190565b90815260200190565b9081527f636f7665726167654f66437265646974456e68616e63656d656e740000000000602082015260400190565b9081526b636f6e7472616374526f6c6560a01b602082015260400190565b9081526763757272656e637960c01b602082015260400190565b90815272636f6e7472616374506572666f726d616e636560681b602082015260400190565b908152701b9bdd1a5bdb985b141c9a5b98da5c185b607a1b602082015260400190565b6001600160a01b0391909116815260200190565b60408101602284106116f157fe5b9281526020015290565b6020808252603190820152600080516020611ab78339815191526040820152700e881514905394d1915497d19052531151607a1b606082015260800190565b6020808252603b90820152600080516020611a6583398151915260408201527f746572616c3a2041535345545f444f45535f4e4f545f45584953540000000000606082015260800190565b6020808252603690820152600080516020611a658339815191526040820152751d195c985b0e881514905394d1915497d1905253115160521b606082015260800190565b6020808252604490820152600080516020611a6583398151915260408201527f746572616c3a20494e53554646494349454e545f434f4c4c41544552414c5f526060820152634154494f60e01b608082015260a00190565b60208082526033908201527f437573746f6469616e457874656e73696f6e2e636c61696d436f6c6c61746572604082015272185b0e881514905394d1915497d19052531151606a1b606082015260800190565b6020808252603690820152600080516020611ab78339815191526040820152753a204e4f545f434f4c4c41544552414c495a41424c4560501b606082015260800190565b60208082526039908201527f437573746f6469616e457874656e73696f6e2e636c61696d436f6c6c6174657260408201527f616c3a20494e56414c49445f434f4e54524143545f524f4c4500000000000000606082015260800190565b6020808252603a90820152600080516020611a6583398151915260408201527f746572616c3a20554e415554484f52495a45445f53454e444552000000000000606082015260800190565b60208082526038908201527f437573746f6469616e457874656e73696f6e2e636c61696d436f6c6c6174657260408201527f616c3a2041535345545f444f45535f4e4f545f45584953540000000000000000606082015260800190565b6020808252603890820152600080516020611ab783398151915260408201527f3a20494e53554646494349454e545f414c4c4f57414e43450000000000000000606082015260800190565b6020808252603690820152600080516020611ab78339815191526040820152750e881054d4d15517d113d154d7d393d517d1561254d560521b606082015260800190565b6001600160a01b0381168114611a6157600080fd5b5056fe437573746f6469616e457874656e73696f6e2e7769746864726177436f6c6c615369676e65644d6174682e666c6f61744d756c743a2043414e4e4f545f524550524553454e545f4752414e554c4152495459437573746f6469616e457874656e73696f6e2e616464436f6c6c61746572616c5369676e65644d6174682e666c6f61744d756c743a204f564552464c4f575f4445544543544544a2646970667358221220c15b7a7fbacef5e99538fa0ce15ee7cff516642bbaf3c9696bb809253ca1a52964736f6c63430007040033",
  "linkReferences": {},
  "deployedLinkReferences": {}
}