{
  "_format": "hh-sol-artifact-1",
  "contractName": "TestPAMPOF",
  "sourceName": "contracts/ACTUS/test/PAM/TestPAMPOF.sol",
  "abi": [
    {
      "inputs": [],
      "name": "MAX_CYCLE_SIZE",
      "outputs": [
        {
          "internalType": "uint256",
          "name": "",
          "type": "uint256"
        }
      ],
      "stateMutability": "view",
      "type": "function"
    },
    {
      "inputs": [],
      "name": "MAX_EVENT_SCHEDULE_SIZE",
      "outputs": [
        {
          "internalType": "uint256",
          "name": "",
          "type": "uint256"
        }
      ],
      "stateMutability": "view",
      "type": "function"
    },
    {
      "inputs": [],
      "name": "ONE_POINT_ZERO",
      "outputs": [
        {
          "internalType": "int256",
          "name": "",
          "type": "int256"
        }
      ],
      "stateMutability": "view",
      "type": "function"
    },
    {
      "inputs": [],
      "name": "PRECISION",
      "outputs": [
        {
          "internalType": "uint256",
          "name": "",
          "type": "uint256"
        }
      ],
      "stateMutability": "view",
      "type": "function"
    },
    {
      "inputs": [
        {
          "components": [
            {
              "internalType": "enum ContractType",
              "name": "contractType",
              "type": "uint8"
            },
            {
              "internalType": "enum Calendar",
              "name": "calendar",
              "type": "uint8"
            },
            {
              "internalType": "enum ContractRole",
              "name": "contractRole",
              "type": "uint8"
            },
            {
              "internalType": "enum DayCountConvention",
              "name": "dayCountConvention",
              "type": "uint8"
            },
            {
              "internalType": "enum BusinessDayConvention",
              "name": "businessDayConvention",
              "type": "uint8"
            },
            {
              "internalType": "enum EndOfMonthConvention",
              "name": "endOfMonthConvention",
              "type": "uint8"
            },
            {
              "internalType": "enum ScalingEffect",
              "name": "scalingEffect",
              "type": "uint8"
            },
            {
              "internalType": "enum FeeBasis",
              "name": "feeBasis",
              "type": "uint8"
            },
            {
              "internalType": "address",
              "name": "currency",
              "type": "address"
            },
            {
              "internalType": "address",
              "name": "settlementCurrency",
              "type": "address"
            },
            {
              "internalType": "bytes32",
              "name": "marketObjectCodeRateReset",
              "type": "bytes32"
            },
            {
              "internalType": "uint256",
              "name": "contractDealDate",
              "type": "uint256"
            },
            {
              "internalType": "uint256",
              "name": "statusDate",
              "type": "uint256"
            },
            {
              "internalType": "uint256",
              "name": "initialExchangeDate",
              "type": "uint256"
            },
            {
              "internalType": "uint256",
              "name": "maturityDate",
              "type": "uint256"
            },
            {
              "internalType": "uint256",
              "name": "issueDate",
              "type": "uint256"
            },
            {
              "internalType": "uint256",
              "name": "purchaseDate",
              "type": "uint256"
            },
            {
              "internalType": "uint256",
              "name": "capitalizationEndDate",
              "type": "uint256"
            },
            {
              "internalType": "uint256",
              "name": "cycleAnchorDateOfInterestPayment",
              "type": "uint256"
            },
            {
              "internalType": "uint256",
              "name": "cycleAnchorDateOfRateReset",
              "type": "uint256"
            },
            {
              "internalType": "uint256",
              "name": "cycleAnchorDateOfScalingIndex",
              "type": "uint256"
            },
            {
              "internalType": "uint256",
              "name": "cycleAnchorDateOfFee",
              "type": "uint256"
            },
            {
              "internalType": "int256",
              "name": "notionalPrincipal",
              "type": "int256"
            },
            {
              "internalType": "int256",
              "name": "nominalInterestRate",
              "type": "int256"
            },
            {
              "internalType": "int256",
              "name": "accruedInterest",
              "type": "int256"
            },
            {
              "internalType": "int256",
              "name": "rateMultiplier",
              "type": "int256"
            },
            {
              "internalType": "int256",
              "name": "rateSpread",
              "type": "int256"
            },
            {
              "internalType": "int256",
              "name": "nextResetRate",
              "type": "int256"
            },
            {
              "internalType": "int256",
              "name": "feeRate",
              "type": "int256"
            },
            {
              "internalType": "int256",
              "name": "feeAccrued",
              "type": "int256"
            },
            {
              "internalType": "int256",
              "name": "delinquencyRate",
              "type": "int256"
            },
            {
              "internalType": "int256",
              "name": "premiumDiscountAtIED",
              "type": "int256"
            },
            {
              "internalType": "int256",
              "name": "priceAtPurchaseDate",
              "type": "int256"
            },
            {
              "internalType": "int256",
              "name": "priceAtTerminationDate",
              "type": "int256"
            },
            {
              "internalType": "int256",
              "name": "lifeCap",
              "type": "int256"
            },
            {
              "internalType": "int256",
              "name": "lifeFloor",
              "type": "int256"
            },
            {
              "internalType": "int256",
              "name": "periodCap",
              "type": "int256"
            },
            {
              "internalType": "int256",
              "name": "periodFloor",
              "type": "int256"
            },
            {
              "components": [
                {
                  "internalType": "uint256",
                  "name": "i",
                  "type": "uint256"
                },
                {
                  "internalType": "enum P",
                  "name": "p",
                  "type": "uint8"
                },
                {
                  "internalType": "bool",
                  "name": "isSet",
                  "type": "bool"
                }
              ],
              "internalType": "struct IP",
              "name": "gracePeriod",
              "type": "tuple"
            },
            {
              "components": [
                {
                  "internalType": "uint256",
                  "name": "i",
                  "type": "uint256"
                },
                {
                  "internalType": "enum P",
                  "name": "p",
                  "type": "uint8"
                },
                {
                  "internalType": "bool",
                  "name": "isSet",
                  "type": "bool"
                }
              ],
              "internalType": "struct IP",
              "name": "delinquencyPeriod",
              "type": "tuple"
            },
            {
              "components": [
                {
                  "internalType": "uint256",
                  "name": "i",
                  "type": "uint256"
                },
                {
                  "internalType": "enum P",
                  "name": "p",
                  "type": "uint8"
                },
                {
                  "internalType": "enum S",
                  "name": "s",
                  "type": "uint8"
                },
                {
                  "internalType": "bool",
                  "name": "isSet",
                  "type": "bool"
                }
              ],
              "internalType": "struct IPS",
              "name": "cycleOfInterestPayment",
              "type": "tuple"
            },
            {
              "components": [
                {
                  "internalType": "uint256",
                  "name": "i",
                  "type": "uint256"
                },
                {
                  "internalType": "enum P",
                  "name": "p",
                  "type": "uint8"
                },
                {
                  "internalType": "enum S",
                  "name": "s",
                  "type": "uint8"
                },
                {
                  "internalType": "bool",
                  "name": "isSet",
                  "type": "bool"
                }
              ],
              "internalType": "struct IPS",
              "name": "cycleOfRateReset",
              "type": "tuple"
            },
            {
              "components": [
                {
                  "internalType": "uint256",
                  "name": "i",
                  "type": "uint256"
                },
                {
                  "internalType": "enum P",
                  "name": "p",
                  "type": "uint8"
                },
                {
                  "internalType": "enum S",
                  "name": "s",
                  "type": "uint8"
                },
                {
                  "internalType": "bool",
                  "name": "isSet",
                  "type": "bool"
                }
              ],
              "internalType": "struct IPS",
              "name": "cycleOfScalingIndex",
              "type": "tuple"
            },
            {
              "components": [
                {
                  "internalType": "uint256",
                  "name": "i",
                  "type": "uint256"
                },
                {
                  "internalType": "enum P",
                  "name": "p",
                  "type": "uint8"
                },
                {
                  "internalType": "enum S",
                  "name": "s",
                  "type": "uint8"
                },
                {
                  "internalType": "bool",
                  "name": "isSet",
                  "type": "bool"
                }
              ],
              "internalType": "struct IPS",
              "name": "cycleOfFee",
              "type": "tuple"
            }
          ],
          "internalType": "struct PAMTerms",
          "name": "terms",
          "type": "tuple"
        },
        {
          "components": [
            {
              "internalType": "enum ContractPerformance",
              "name": "contractPerformance",
              "type": "uint8"
            },
            {
              "internalType": "uint256",
              "name": "statusDate",
              "type": "uint256"
            },
            {
              "internalType": "uint256",
              "name": "nonPerformingDate",
              "type": "uint256"
            },
            {
              "internalType": "uint256",
              "name": "maturityDate",
              "type": "uint256"
            },
            {
              "internalType": "uint256",
              "name": "exerciseDate",
              "type": "uint256"
            },
            {
              "internalType": "uint256",
              "name": "terminationDate",
              "type": "uint256"
            },
            {
              "internalType": "uint256",
              "name": "lastCouponFixingDate",
              "type": "uint256"
            },
            {
              "internalType": "uint256",
              "name": "lastDividendFixingDate",
              "type": "uint256"
            },
            {
              "internalType": "int256",
              "name": "notionalPrincipal",
              "type": "int256"
            },
            {
              "internalType": "int256",
              "name": "accruedInterest",
              "type": "int256"
            },
            {
              "internalType": "int256",
              "name": "feeAccrued",
              "type": "int256"
            },
            {
              "internalType": "int256",
              "name": "nominalInterestRate",
              "type": "int256"
            },
            {
              "internalType": "int256",
              "name": "interestScalingMultiplier",
              "type": "int256"
            },
            {
              "internalType": "int256",
              "name": "notionalScalingMultiplier",
              "type": "int256"
            },
            {
              "internalType": "int256",
              "name": "nextPrincipalRedemptionPayment",
              "type": "int256"
            },
            {
              "internalType": "int256",
              "name": "exerciseAmount",
              "type": "int256"
            },
            {
              "internalType": "int256",
              "name": "exerciseQuantity",
              "type": "int256"
            },
            {
              "internalType": "int256",
              "name": "quantity",
              "type": "int256"
            },
            {
              "internalType": "int256",
              "name": "couponAmountFixed",
              "type": "int256"
            },
            {
              "internalType": "int256",
              "name": "marginFactor",
              "type": "int256"
            },
            {
              "internalType": "int256",
              "name": "adjustmentFactor",
              "type": "int256"
            },
            {
              "internalType": "int256",
              "name": "dividendPaymentAmount",
              "type": "int256"
            },
            {
              "internalType": "int256",
              "name": "splitRatio",
              "type": "int256"
            }
          ],
          "internalType": "struct State",
          "name": "state",
          "type": "tuple"
        },
        {
          "internalType": "uint256",
          "name": "scheduleTime",
          "type": "uint256"
        },
        {
          "internalType": "bytes32",
          "name": "externalData",
          "type": "bytes32"
        }
      ],
      "name": "_POF_PAM_FP",
      "outputs": [
        {
          "internalType": "int256",
          "name": "",
          "type": "int256"
        }
      ],
      "stateMutability": "pure",
      "type": "function"
    },
    {
      "inputs": [
        {
          "components": [
            {
              "internalType": "enum ContractType",
              "name": "contractType",
              "type": "uint8"
            },
            {
              "internalType": "enum Calendar",
              "name": "calendar",
              "type": "uint8"
            },
            {
              "internalType": "enum ContractRole",
              "name": "contractRole",
              "type": "uint8"
            },
            {
              "internalType": "enum DayCountConvention",
              "name": "dayCountConvention",
              "type": "uint8"
            },
            {
              "internalType": "enum BusinessDayConvention",
              "name": "businessDayConvention",
              "type": "uint8"
            },
            {
              "internalType": "enum EndOfMonthConvention",
              "name": "endOfMonthConvention",
              "type": "uint8"
            },
            {
              "internalType": "enum ScalingEffect",
              "name": "scalingEffect",
              "type": "uint8"
            },
            {
              "internalType": "enum FeeBasis",
              "name": "feeBasis",
              "type": "uint8"
            },
            {
              "internalType": "address",
              "name": "currency",
              "type": "address"
            },
            {
              "internalType": "address",
              "name": "settlementCurrency",
              "type": "address"
            },
            {
              "internalType": "bytes32",
              "name": "marketObjectCodeRateReset",
              "type": "bytes32"
            },
            {
              "internalType": "uint256",
              "name": "contractDealDate",
              "type": "uint256"
            },
            {
              "internalType": "uint256",
              "name": "statusDate",
              "type": "uint256"
            },
            {
              "internalType": "uint256",
              "name": "initialExchangeDate",
              "type": "uint256"
            },
            {
              "internalType": "uint256",
              "name": "maturityDate",
              "type": "uint256"
            },
            {
              "internalType": "uint256",
              "name": "issueDate",
              "type": "uint256"
            },
            {
              "internalType": "uint256",
              "name": "purchaseDate",
              "type": "uint256"
            },
            {
              "internalType": "uint256",
              "name": "capitalizationEndDate",
              "type": "uint256"
            },
            {
              "internalType": "uint256",
              "name": "cycleAnchorDateOfInterestPayment",
              "type": "uint256"
            },
            {
              "internalType": "uint256",
              "name": "cycleAnchorDateOfRateReset",
              "type": "uint256"
            },
            {
              "internalType": "uint256",
              "name": "cycleAnchorDateOfScalingIndex",
              "type": "uint256"
            },
            {
              "internalType": "uint256",
              "name": "cycleAnchorDateOfFee",
              "type": "uint256"
            },
            {
              "internalType": "int256",
              "name": "notionalPrincipal",
              "type": "int256"
            },
            {
              "internalType": "int256",
              "name": "nominalInterestRate",
              "type": "int256"
            },
            {
              "internalType": "int256",
              "name": "accruedInterest",
              "type": "int256"
            },
            {
              "internalType": "int256",
              "name": "rateMultiplier",
              "type": "int256"
            },
            {
              "internalType": "int256",
              "name": "rateSpread",
              "type": "int256"
            },
            {
              "internalType": "int256",
              "name": "nextResetRate",
              "type": "int256"
            },
            {
              "internalType": "int256",
              "name": "feeRate",
              "type": "int256"
            },
            {
              "internalType": "int256",
              "name": "feeAccrued",
              "type": "int256"
            },
            {
              "internalType": "int256",
              "name": "delinquencyRate",
              "type": "int256"
            },
            {
              "internalType": "int256",
              "name": "premiumDiscountAtIED",
              "type": "int256"
            },
            {
              "internalType": "int256",
              "name": "priceAtPurchaseDate",
              "type": "int256"
            },
            {
              "internalType": "int256",
              "name": "priceAtTerminationDate",
              "type": "int256"
            },
            {
              "internalType": "int256",
              "name": "lifeCap",
              "type": "int256"
            },
            {
              "internalType": "int256",
              "name": "lifeFloor",
              "type": "int256"
            },
            {
              "internalType": "int256",
              "name": "periodCap",
              "type": "int256"
            },
            {
              "internalType": "int256",
              "name": "periodFloor",
              "type": "int256"
            },
            {
              "components": [
                {
                  "internalType": "uint256",
                  "name": "i",
                  "type": "uint256"
                },
                {
                  "internalType": "enum P",
                  "name": "p",
                  "type": "uint8"
                },
                {
                  "internalType": "bool",
                  "name": "isSet",
                  "type": "bool"
                }
              ],
              "internalType": "struct IP",
              "name": "gracePeriod",
              "type": "tuple"
            },
            {
              "components": [
                {
                  "internalType": "uint256",
                  "name": "i",
                  "type": "uint256"
                },
                {
                  "internalType": "enum P",
                  "name": "p",
                  "type": "uint8"
                },
                {
                  "internalType": "bool",
                  "name": "isSet",
                  "type": "bool"
                }
              ],
              "internalType": "struct IP",
              "name": "delinquencyPeriod",
              "type": "tuple"
            },
            {
              "components": [
                {
                  "internalType": "uint256",
                  "name": "i",
                  "type": "uint256"
                },
                {
                  "internalType": "enum P",
                  "name": "p",
                  "type": "uint8"
                },
                {
                  "internalType": "enum S",
                  "name": "s",
                  "type": "uint8"
                },
                {
                  "internalType": "bool",
                  "name": "isSet",
                  "type": "bool"
                }
              ],
              "internalType": "struct IPS",
              "name": "cycleOfInterestPayment",
              "type": "tuple"
            },
            {
              "components": [
                {
                  "internalType": "uint256",
                  "name": "i",
                  "type": "uint256"
                },
                {
                  "internalType": "enum P",
                  "name": "p",
                  "type": "uint8"
                },
                {
                  "internalType": "enum S",
                  "name": "s",
                  "type": "uint8"
                },
                {
                  "internalType": "bool",
                  "name": "isSet",
                  "type": "bool"
                }
              ],
              "internalType": "struct IPS",
              "name": "cycleOfRateReset",
              "type": "tuple"
            },
            {
              "components": [
                {
                  "internalType": "uint256",
                  "name": "i",
                  "type": "uint256"
                },
                {
                  "internalType": "enum P",
                  "name": "p",
                  "type": "uint8"
                },
                {
                  "internalType": "enum S",
                  "name": "s",
                  "type": "uint8"
                },
                {
                  "internalType": "bool",
                  "name": "isSet",
                  "type": "bool"
                }
              ],
              "internalType": "struct IPS",
              "name": "cycleOfScalingIndex",
              "type": "tuple"
            },
            {
              "components": [
                {
                  "internalType": "uint256",
                  "name": "i",
                  "type": "uint256"
                },
                {
                  "internalType": "enum P",
                  "name": "p",
                  "type": "uint8"
                },
                {
                  "internalType": "enum S",
                  "name": "s",
                  "type": "uint8"
                },
                {
                  "internalType": "bool",
                  "name": "isSet",
                  "type": "bool"
                }
              ],
              "internalType": "struct IPS",
              "name": "cycleOfFee",
              "type": "tuple"
            }
          ],
          "internalType": "struct PAMTerms",
          "name": "terms",
          "type": "tuple"
        },
        {
          "components": [
            {
              "internalType": "enum ContractPerformance",
              "name": "contractPerformance",
              "type": "uint8"
            },
            {
              "internalType": "uint256",
              "name": "statusDate",
              "type": "uint256"
            },
            {
              "internalType": "uint256",
              "name": "nonPerformingDate",
              "type": "uint256"
            },
            {
              "internalType": "uint256",
              "name": "maturityDate",
              "type": "uint256"
            },
            {
              "internalType": "uint256",
              "name": "exerciseDate",
              "type": "uint256"
            },
            {
              "internalType": "uint256",
              "name": "terminationDate",
              "type": "uint256"
            },
            {
              "internalType": "uint256",
              "name": "lastCouponFixingDate",
              "type": "uint256"
            },
            {
              "internalType": "uint256",
              "name": "lastDividendFixingDate",
              "type": "uint256"
            },
            {
              "internalType": "int256",
              "name": "notionalPrincipal",
              "type": "int256"
            },
            {
              "internalType": "int256",
              "name": "accruedInterest",
              "type": "int256"
            },
            {
              "internalType": "int256",
              "name": "feeAccrued",
              "type": "int256"
            },
            {
              "internalType": "int256",
              "name": "nominalInterestRate",
              "type": "int256"
            },
            {
              "internalType": "int256",
              "name": "interestScalingMultiplier",
              "type": "int256"
            },
            {
              "internalType": "int256",
              "name": "notionalScalingMultiplier",
              "type": "int256"
            },
            {
              "internalType": "int256",
              "name": "nextPrincipalRedemptionPayment",
              "type": "int256"
            },
            {
              "internalType": "int256",
              "name": "exerciseAmount",
              "type": "int256"
            },
            {
              "internalType": "int256",
              "name": "exerciseQuantity",
              "type": "int256"
            },
            {
              "internalType": "int256",
              "name": "quantity",
              "type": "int256"
            },
            {
              "internalType": "int256",
              "name": "couponAmountFixed",
              "type": "int256"
            },
            {
              "internalType": "int256",
              "name": "marginFactor",
              "type": "int256"
            },
            {
              "internalType": "int256",
              "name": "adjustmentFactor",
              "type": "int256"
            },
            {
              "internalType": "int256",
              "name": "dividendPaymentAmount",
              "type": "int256"
            },
            {
              "internalType": "int256",
              "name": "splitRatio",
              "type": "int256"
            }
          ],
          "internalType": "struct State",
          "name": "state",
          "type": "tuple"
        },
        {
          "internalType": "uint256",
          "name": "scheduleTime",
          "type": "uint256"
        },
        {
          "internalType": "bytes32",
          "name": "externalData",
          "type": "bytes32"
        }
      ],
      "name": "_POF_PAM_IED",
      "outputs": [
        {
          "internalType": "int256",
          "name": "",
          "type": "int256"
        }
      ],
      "stateMutability": "pure",
      "type": "function"
    },
    {
      "inputs": [
        {
          "components": [
            {
              "internalType": "enum ContractType",
              "name": "contractType",
              "type": "uint8"
            },
            {
              "internalType": "enum Calendar",
              "name": "calendar",
              "type": "uint8"
            },
            {
              "internalType": "enum ContractRole",
              "name": "contractRole",
              "type": "uint8"
            },
            {
              "internalType": "enum DayCountConvention",
              "name": "dayCountConvention",
              "type": "uint8"
            },
            {
              "internalType": "enum BusinessDayConvention",
              "name": "businessDayConvention",
              "type": "uint8"
            },
            {
              "internalType": "enum EndOfMonthConvention",
              "name": "endOfMonthConvention",
              "type": "uint8"
            },
            {
              "internalType": "enum ScalingEffect",
              "name": "scalingEffect",
              "type": "uint8"
            },
            {
              "internalType": "enum FeeBasis",
              "name": "feeBasis",
              "type": "uint8"
            },
            {
              "internalType": "address",
              "name": "currency",
              "type": "address"
            },
            {
              "internalType": "address",
              "name": "settlementCurrency",
              "type": "address"
            },
            {
              "internalType": "bytes32",
              "name": "marketObjectCodeRateReset",
              "type": "bytes32"
            },
            {
              "internalType": "uint256",
              "name": "contractDealDate",
              "type": "uint256"
            },
            {
              "internalType": "uint256",
              "name": "statusDate",
              "type": "uint256"
            },
            {
              "internalType": "uint256",
              "name": "initialExchangeDate",
              "type": "uint256"
            },
            {
              "internalType": "uint256",
              "name": "maturityDate",
              "type": "uint256"
            },
            {
              "internalType": "uint256",
              "name": "issueDate",
              "type": "uint256"
            },
            {
              "internalType": "uint256",
              "name": "purchaseDate",
              "type": "uint256"
            },
            {
              "internalType": "uint256",
              "name": "capitalizationEndDate",
              "type": "uint256"
            },
            {
              "internalType": "uint256",
              "name": "cycleAnchorDateOfInterestPayment",
              "type": "uint256"
            },
            {
              "internalType": "uint256",
              "name": "cycleAnchorDateOfRateReset",
              "type": "uint256"
            },
            {
              "internalType": "uint256",
              "name": "cycleAnchorDateOfScalingIndex",
              "type": "uint256"
            },
            {
              "internalType": "uint256",
              "name": "cycleAnchorDateOfFee",
              "type": "uint256"
            },
            {
              "internalType": "int256",
              "name": "notionalPrincipal",
              "type": "int256"
            },
            {
              "internalType": "int256",
              "name": "nominalInterestRate",
              "type": "int256"
            },
            {
              "internalType": "int256",
              "name": "accruedInterest",
              "type": "int256"
            },
            {
              "internalType": "int256",
              "name": "rateMultiplier",
              "type": "int256"
            },
            {
              "internalType": "int256",
              "name": "rateSpread",
              "type": "int256"
            },
            {
              "internalType": "int256",
              "name": "nextResetRate",
              "type": "int256"
            },
            {
              "internalType": "int256",
              "name": "feeRate",
              "type": "int256"
            },
            {
              "internalType": "int256",
              "name": "feeAccrued",
              "type": "int256"
            },
            {
              "internalType": "int256",
              "name": "delinquencyRate",
              "type": "int256"
            },
            {
              "internalType": "int256",
              "name": "premiumDiscountAtIED",
              "type": "int256"
            },
            {
              "internalType": "int256",
              "name": "priceAtPurchaseDate",
              "type": "int256"
            },
            {
              "internalType": "int256",
              "name": "priceAtTerminationDate",
              "type": "int256"
            },
            {
              "internalType": "int256",
              "name": "lifeCap",
              "type": "int256"
            },
            {
              "internalType": "int256",
              "name": "lifeFloor",
              "type": "int256"
            },
            {
              "internalType": "int256",
              "name": "periodCap",
              "type": "int256"
            },
            {
              "internalType": "int256",
              "name": "periodFloor",
              "type": "int256"
            },
            {
              "components": [
                {
                  "internalType": "uint256",
                  "name": "i",
                  "type": "uint256"
                },
                {
                  "internalType": "enum P",
                  "name": "p",
                  "type": "uint8"
                },
                {
                  "internalType": "bool",
                  "name": "isSet",
                  "type": "bool"
                }
              ],
              "internalType": "struct IP",
              "name": "gracePeriod",
              "type": "tuple"
            },
            {
              "components": [
                {
                  "internalType": "uint256",
                  "name": "i",
                  "type": "uint256"
                },
                {
                  "internalType": "enum P",
                  "name": "p",
                  "type": "uint8"
                },
                {
                  "internalType": "bool",
                  "name": "isSet",
                  "type": "bool"
                }
              ],
              "internalType": "struct IP",
              "name": "delinquencyPeriod",
              "type": "tuple"
            },
            {
              "components": [
                {
                  "internalType": "uint256",
                  "name": "i",
                  "type": "uint256"
                },
                {
                  "internalType": "enum P",
                  "name": "p",
                  "type": "uint8"
                },
                {
                  "internalType": "enum S",
                  "name": "s",
                  "type": "uint8"
                },
                {
                  "internalType": "bool",
                  "name": "isSet",
                  "type": "bool"
                }
              ],
              "internalType": "struct IPS",
              "name": "cycleOfInterestPayment",
              "type": "tuple"
            },
            {
              "components": [
                {
                  "internalType": "uint256",
                  "name": "i",
                  "type": "uint256"
                },
                {
                  "internalType": "enum P",
                  "name": "p",
                  "type": "uint8"
                },
                {
                  "internalType": "enum S",
                  "name": "s",
                  "type": "uint8"
                },
                {
                  "internalType": "bool",
                  "name": "isSet",
                  "type": "bool"
                }
              ],
              "internalType": "struct IPS",
              "name": "cycleOfRateReset",
              "type": "tuple"
            },
            {
              "components": [
                {
                  "internalType": "uint256",
                  "name": "i",
                  "type": "uint256"
                },
                {
                  "internalType": "enum P",
                  "name": "p",
                  "type": "uint8"
                },
                {
                  "internalType": "enum S",
                  "name": "s",
                  "type": "uint8"
                },
                {
                  "internalType": "bool",
                  "name": "isSet",
                  "type": "bool"
                }
              ],
              "internalType": "struct IPS",
              "name": "cycleOfScalingIndex",
              "type": "tuple"
            },
            {
              "components": [
                {
                  "internalType": "uint256",
                  "name": "i",
                  "type": "uint256"
                },
                {
                  "internalType": "enum P",
                  "name": "p",
                  "type": "uint8"
                },
                {
                  "internalType": "enum S",
                  "name": "s",
                  "type": "uint8"
                },
                {
                  "internalType": "bool",
                  "name": "isSet",
                  "type": "bool"
                }
              ],
              "internalType": "struct IPS",
              "name": "cycleOfFee",
              "type": "tuple"
            }
          ],
          "internalType": "struct PAMTerms",
          "name": "terms",
          "type": "tuple"
        },
        {
          "components": [
            {
              "internalType": "enum ContractPerformance",
              "name": "contractPerformance",
              "type": "uint8"
            },
            {
              "internalType": "uint256",
              "name": "statusDate",
              "type": "uint256"
            },
            {
              "internalType": "uint256",
              "name": "nonPerformingDate",
              "type": "uint256"
            },
            {
              "internalType": "uint256",
              "name": "maturityDate",
              "type": "uint256"
            },
            {
              "internalType": "uint256",
              "name": "exerciseDate",
              "type": "uint256"
            },
            {
              "internalType": "uint256",
              "name": "terminationDate",
              "type": "uint256"
            },
            {
              "internalType": "uint256",
              "name": "lastCouponFixingDate",
              "type": "uint256"
            },
            {
              "internalType": "uint256",
              "name": "lastDividendFixingDate",
              "type": "uint256"
            },
            {
              "internalType": "int256",
              "name": "notionalPrincipal",
              "type": "int256"
            },
            {
              "internalType": "int256",
              "name": "accruedInterest",
              "type": "int256"
            },
            {
              "internalType": "int256",
              "name": "feeAccrued",
              "type": "int256"
            },
            {
              "internalType": "int256",
              "name": "nominalInterestRate",
              "type": "int256"
            },
            {
              "internalType": "int256",
              "name": "interestScalingMultiplier",
              "type": "int256"
            },
            {
              "internalType": "int256",
              "name": "notionalScalingMultiplier",
              "type": "int256"
            },
            {
              "internalType": "int256",
              "name": "nextPrincipalRedemptionPayment",
              "type": "int256"
            },
            {
              "internalType": "int256",
              "name": "exerciseAmount",
              "type": "int256"
            },
            {
              "internalType": "int256",
              "name": "exerciseQuantity",
              "type": "int256"
            },
            {
              "internalType": "int256",
              "name": "quantity",
              "type": "int256"
            },
            {
              "internalType": "int256",
              "name": "couponAmountFixed",
              "type": "int256"
            },
            {
              "internalType": "int256",
              "name": "marginFactor",
              "type": "int256"
            },
            {
              "internalType": "int256",
              "name": "adjustmentFactor",
              "type": "int256"
            },
            {
              "internalType": "int256",
              "name": "dividendPaymentAmount",
              "type": "int256"
            },
            {
              "internalType": "int256",
              "name": "splitRatio",
              "type": "int256"
            }
          ],
          "internalType": "struct State",
          "name": "state",
          "type": "tuple"
        },
        {
          "internalType": "uint256",
          "name": "scheduleTime",
          "type": "uint256"
        },
        {
          "internalType": "bytes32",
          "name": "externalData",
          "type": "bytes32"
        }
      ],
      "name": "_POF_PAM_IP",
      "outputs": [
        {
          "internalType": "int256",
          "name": "",
          "type": "int256"
        }
      ],
      "stateMutability": "pure",
      "type": "function"
    },
    {
      "inputs": [
        {
          "components": [
            {
              "internalType": "enum ContractType",
              "name": "contractType",
              "type": "uint8"
            },
            {
              "internalType": "enum Calendar",
              "name": "calendar",
              "type": "uint8"
            },
            {
              "internalType": "enum ContractRole",
              "name": "contractRole",
              "type": "uint8"
            },
            {
              "internalType": "enum DayCountConvention",
              "name": "dayCountConvention",
              "type": "uint8"
            },
            {
              "internalType": "enum BusinessDayConvention",
              "name": "businessDayConvention",
              "type": "uint8"
            },
            {
              "internalType": "enum EndOfMonthConvention",
              "name": "endOfMonthConvention",
              "type": "uint8"
            },
            {
              "internalType": "enum ScalingEffect",
              "name": "scalingEffect",
              "type": "uint8"
            },
            {
              "internalType": "enum FeeBasis",
              "name": "feeBasis",
              "type": "uint8"
            },
            {
              "internalType": "address",
              "name": "currency",
              "type": "address"
            },
            {
              "internalType": "address",
              "name": "settlementCurrency",
              "type": "address"
            },
            {
              "internalType": "bytes32",
              "name": "marketObjectCodeRateReset",
              "type": "bytes32"
            },
            {
              "internalType": "uint256",
              "name": "contractDealDate",
              "type": "uint256"
            },
            {
              "internalType": "uint256",
              "name": "statusDate",
              "type": "uint256"
            },
            {
              "internalType": "uint256",
              "name": "initialExchangeDate",
              "type": "uint256"
            },
            {
              "internalType": "uint256",
              "name": "maturityDate",
              "type": "uint256"
            },
            {
              "internalType": "uint256",
              "name": "issueDate",
              "type": "uint256"
            },
            {
              "internalType": "uint256",
              "name": "purchaseDate",
              "type": "uint256"
            },
            {
              "internalType": "uint256",
              "name": "capitalizationEndDate",
              "type": "uint256"
            },
            {
              "internalType": "uint256",
              "name": "cycleAnchorDateOfInterestPayment",
              "type": "uint256"
            },
            {
              "internalType": "uint256",
              "name": "cycleAnchorDateOfRateReset",
              "type": "uint256"
            },
            {
              "internalType": "uint256",
              "name": "cycleAnchorDateOfScalingIndex",
              "type": "uint256"
            },
            {
              "internalType": "uint256",
              "name": "cycleAnchorDateOfFee",
              "type": "uint256"
            },
            {
              "internalType": "int256",
              "name": "notionalPrincipal",
              "type": "int256"
            },
            {
              "internalType": "int256",
              "name": "nominalInterestRate",
              "type": "int256"
            },
            {
              "internalType": "int256",
              "name": "accruedInterest",
              "type": "int256"
            },
            {
              "internalType": "int256",
              "name": "rateMultiplier",
              "type": "int256"
            },
            {
              "internalType": "int256",
              "name": "rateSpread",
              "type": "int256"
            },
            {
              "internalType": "int256",
              "name": "nextResetRate",
              "type": "int256"
            },
            {
              "internalType": "int256",
              "name": "feeRate",
              "type": "int256"
            },
            {
              "internalType": "int256",
              "name": "feeAccrued",
              "type": "int256"
            },
            {
              "internalType": "int256",
              "name": "delinquencyRate",
              "type": "int256"
            },
            {
              "internalType": "int256",
              "name": "premiumDiscountAtIED",
              "type": "int256"
            },
            {
              "internalType": "int256",
              "name": "priceAtPurchaseDate",
              "type": "int256"
            },
            {
              "internalType": "int256",
              "name": "priceAtTerminationDate",
              "type": "int256"
            },
            {
              "internalType": "int256",
              "name": "lifeCap",
              "type": "int256"
            },
            {
              "internalType": "int256",
              "name": "lifeFloor",
              "type": "int256"
            },
            {
              "internalType": "int256",
              "name": "periodCap",
              "type": "int256"
            },
            {
              "internalType": "int256",
              "name": "periodFloor",
              "type": "int256"
            },
            {
              "components": [
                {
                  "internalType": "uint256",
                  "name": "i",
                  "type": "uint256"
                },
                {
                  "internalType": "enum P",
                  "name": "p",
                  "type": "uint8"
                },
                {
                  "internalType": "bool",
                  "name": "isSet",
                  "type": "bool"
                }
              ],
              "internalType": "struct IP",
              "name": "gracePeriod",
              "type": "tuple"
            },
            {
              "components": [
                {
                  "internalType": "uint256",
                  "name": "i",
                  "type": "uint256"
                },
                {
                  "internalType": "enum P",
                  "name": "p",
                  "type": "uint8"
                },
                {
                  "internalType": "bool",
                  "name": "isSet",
                  "type": "bool"
                }
              ],
              "internalType": "struct IP",
              "name": "delinquencyPeriod",
              "type": "tuple"
            },
            {
              "components": [
                {
                  "internalType": "uint256",
                  "name": "i",
                  "type": "uint256"
                },
                {
                  "internalType": "enum P",
                  "name": "p",
                  "type": "uint8"
                },
                {
                  "internalType": "enum S",
                  "name": "s",
                  "type": "uint8"
                },
                {
                  "internalType": "bool",
                  "name": "isSet",
                  "type": "bool"
                }
              ],
              "internalType": "struct IPS",
              "name": "cycleOfInterestPayment",
              "type": "tuple"
            },
            {
              "components": [
                {
                  "internalType": "uint256",
                  "name": "i",
                  "type": "uint256"
                },
                {
                  "internalType": "enum P",
                  "name": "p",
                  "type": "uint8"
                },
                {
                  "internalType": "enum S",
                  "name": "s",
                  "type": "uint8"
                },
                {
                  "internalType": "bool",
                  "name": "isSet",
                  "type": "bool"
                }
              ],
              "internalType": "struct IPS",
              "name": "cycleOfRateReset",
              "type": "tuple"
            },
            {
              "components": [
                {
                  "internalType": "uint256",
                  "name": "i",
                  "type": "uint256"
                },
                {
                  "internalType": "enum P",
                  "name": "p",
                  "type": "uint8"
                },
                {
                  "internalType": "enum S",
                  "name": "s",
                  "type": "uint8"
                },
                {
                  "internalType": "bool",
                  "name": "isSet",
                  "type": "bool"
                }
              ],
              "internalType": "struct IPS",
              "name": "cycleOfScalingIndex",
              "type": "tuple"
            },
            {
              "components": [
                {
                  "internalType": "uint256",
                  "name": "i",
                  "type": "uint256"
                },
                {
                  "internalType": "enum P",
                  "name": "p",
                  "type": "uint8"
                },
                {
                  "internalType": "enum S",
                  "name": "s",
                  "type": "uint8"
                },
                {
                  "internalType": "bool",
                  "name": "isSet",
                  "type": "bool"
                }
              ],
              "internalType": "struct IPS",
              "name": "cycleOfFee",
              "type": "tuple"
            }
          ],
          "internalType": "struct PAMTerms",
          "name": "terms",
          "type": "tuple"
        },
        {
          "components": [
            {
              "internalType": "enum ContractPerformance",
              "name": "contractPerformance",
              "type": "uint8"
            },
            {
              "internalType": "uint256",
              "name": "statusDate",
              "type": "uint256"
            },
            {
              "internalType": "uint256",
              "name": "nonPerformingDate",
              "type": "uint256"
            },
            {
              "internalType": "uint256",
              "name": "maturityDate",
              "type": "uint256"
            },
            {
              "internalType": "uint256",
              "name": "exerciseDate",
              "type": "uint256"
            },
            {
              "internalType": "uint256",
              "name": "terminationDate",
              "type": "uint256"
            },
            {
              "internalType": "uint256",
              "name": "lastCouponFixingDate",
              "type": "uint256"
            },
            {
              "internalType": "uint256",
              "name": "lastDividendFixingDate",
              "type": "uint256"
            },
            {
              "internalType": "int256",
              "name": "notionalPrincipal",
              "type": "int256"
            },
            {
              "internalType": "int256",
              "name": "accruedInterest",
              "type": "int256"
            },
            {
              "internalType": "int256",
              "name": "feeAccrued",
              "type": "int256"
            },
            {
              "internalType": "int256",
              "name": "nominalInterestRate",
              "type": "int256"
            },
            {
              "internalType": "int256",
              "name": "interestScalingMultiplier",
              "type": "int256"
            },
            {
              "internalType": "int256",
              "name": "notionalScalingMultiplier",
              "type": "int256"
            },
            {
              "internalType": "int256",
              "name": "nextPrincipalRedemptionPayment",
              "type": "int256"
            },
            {
              "internalType": "int256",
              "name": "exerciseAmount",
              "type": "int256"
            },
            {
              "internalType": "int256",
              "name": "exerciseQuantity",
              "type": "int256"
            },
            {
              "internalType": "int256",
              "name": "quantity",
              "type": "int256"
            },
            {
              "internalType": "int256",
              "name": "couponAmountFixed",
              "type": "int256"
            },
            {
              "internalType": "int256",
              "name": "marginFactor",
              "type": "int256"
            },
            {
              "internalType": "int256",
              "name": "adjustmentFactor",
              "type": "int256"
            },
            {
              "internalType": "int256",
              "name": "dividendPaymentAmount",
              "type": "int256"
            },
            {
              "internalType": "int256",
              "name": "splitRatio",
              "type": "int256"
            }
          ],
          "internalType": "struct State",
          "name": "state",
          "type": "tuple"
        },
        {
          "internalType": "uint256",
          "name": "scheduleTime",
          "type": "uint256"
        },
        {
          "internalType": "bytes32",
          "name": "externalData",
          "type": "bytes32"
        }
      ],
      "name": "_POF_PAM_MD",
      "outputs": [
        {
          "internalType": "int256",
          "name": "",
          "type": "int256"
        }
      ],
      "stateMutability": "pure",
      "type": "function"
    },
    {
      "inputs": [
        {
          "components": [
            {
              "internalType": "enum ContractType",
              "name": "contractType",
              "type": "uint8"
            },
            {
              "internalType": "enum Calendar",
              "name": "calendar",
              "type": "uint8"
            },
            {
              "internalType": "enum ContractRole",
              "name": "contractRole",
              "type": "uint8"
            },
            {
              "internalType": "enum DayCountConvention",
              "name": "dayCountConvention",
              "type": "uint8"
            },
            {
              "internalType": "enum BusinessDayConvention",
              "name": "businessDayConvention",
              "type": "uint8"
            },
            {
              "internalType": "enum EndOfMonthConvention",
              "name": "endOfMonthConvention",
              "type": "uint8"
            },
            {
              "internalType": "enum ScalingEffect",
              "name": "scalingEffect",
              "type": "uint8"
            },
            {
              "internalType": "enum FeeBasis",
              "name": "feeBasis",
              "type": "uint8"
            },
            {
              "internalType": "address",
              "name": "currency",
              "type": "address"
            },
            {
              "internalType": "address",
              "name": "settlementCurrency",
              "type": "address"
            },
            {
              "internalType": "bytes32",
              "name": "marketObjectCodeRateReset",
              "type": "bytes32"
            },
            {
              "internalType": "uint256",
              "name": "contractDealDate",
              "type": "uint256"
            },
            {
              "internalType": "uint256",
              "name": "statusDate",
              "type": "uint256"
            },
            {
              "internalType": "uint256",
              "name": "initialExchangeDate",
              "type": "uint256"
            },
            {
              "internalType": "uint256",
              "name": "maturityDate",
              "type": "uint256"
            },
            {
              "internalType": "uint256",
              "name": "issueDate",
              "type": "uint256"
            },
            {
              "internalType": "uint256",
              "name": "purchaseDate",
              "type": "uint256"
            },
            {
              "internalType": "uint256",
              "name": "capitalizationEndDate",
              "type": "uint256"
            },
            {
              "internalType": "uint256",
              "name": "cycleAnchorDateOfInterestPayment",
              "type": "uint256"
            },
            {
              "internalType": "uint256",
              "name": "cycleAnchorDateOfRateReset",
              "type": "uint256"
            },
            {
              "internalType": "uint256",
              "name": "cycleAnchorDateOfScalingIndex",
              "type": "uint256"
            },
            {
              "internalType": "uint256",
              "name": "cycleAnchorDateOfFee",
              "type": "uint256"
            },
            {
              "internalType": "int256",
              "name": "notionalPrincipal",
              "type": "int256"
            },
            {
              "internalType": "int256",
              "name": "nominalInterestRate",
              "type": "int256"
            },
            {
              "internalType": "int256",
              "name": "accruedInterest",
              "type": "int256"
            },
            {
              "internalType": "int256",
              "name": "rateMultiplier",
              "type": "int256"
            },
            {
              "internalType": "int256",
              "name": "rateSpread",
              "type": "int256"
            },
            {
              "internalType": "int256",
              "name": "nextResetRate",
              "type": "int256"
            },
            {
              "internalType": "int256",
              "name": "feeRate",
              "type": "int256"
            },
            {
              "internalType": "int256",
              "name": "feeAccrued",
              "type": "int256"
            },
            {
              "internalType": "int256",
              "name": "delinquencyRate",
              "type": "int256"
            },
            {
              "internalType": "int256",
              "name": "premiumDiscountAtIED",
              "type": "int256"
            },
            {
              "internalType": "int256",
              "name": "priceAtPurchaseDate",
              "type": "int256"
            },
            {
              "internalType": "int256",
              "name": "priceAtTerminationDate",
              "type": "int256"
            },
            {
              "internalType": "int256",
              "name": "lifeCap",
              "type": "int256"
            },
            {
              "internalType": "int256",
              "name": "lifeFloor",
              "type": "int256"
            },
            {
              "internalType": "int256",
              "name": "periodCap",
              "type": "int256"
            },
            {
              "internalType": "int256",
              "name": "periodFloor",
              "type": "int256"
            },
            {
              "components": [
                {
                  "internalType": "uint256",
                  "name": "i",
                  "type": "uint256"
                },
                {
                  "internalType": "enum P",
                  "name": "p",
                  "type": "uint8"
                },
                {
                  "internalType": "bool",
                  "name": "isSet",
                  "type": "bool"
                }
              ],
              "internalType": "struct IP",
              "name": "gracePeriod",
              "type": "tuple"
            },
            {
              "components": [
                {
                  "internalType": "uint256",
                  "name": "i",
                  "type": "uint256"
                },
                {
                  "internalType": "enum P",
                  "name": "p",
                  "type": "uint8"
                },
                {
                  "internalType": "bool",
                  "name": "isSet",
                  "type": "bool"
                }
              ],
              "internalType": "struct IP",
              "name": "delinquencyPeriod",
              "type": "tuple"
            },
            {
              "components": [
                {
                  "internalType": "uint256",
                  "name": "i",
                  "type": "uint256"
                },
                {
                  "internalType": "enum P",
                  "name": "p",
                  "type": "uint8"
                },
                {
                  "internalType": "enum S",
                  "name": "s",
                  "type": "uint8"
                },
                {
                  "internalType": "bool",
                  "name": "isSet",
                  "type": "bool"
                }
              ],
              "internalType": "struct IPS",
              "name": "cycleOfInterestPayment",
              "type": "tuple"
            },
            {
              "components": [
                {
                  "internalType": "uint256",
                  "name": "i",
                  "type": "uint256"
                },
                {
                  "internalType": "enum P",
                  "name": "p",
                  "type": "uint8"
                },
                {
                  "internalType": "enum S",
                  "name": "s",
                  "type": "uint8"
                },
                {
                  "internalType": "bool",
                  "name": "isSet",
                  "type": "bool"
                }
              ],
              "internalType": "struct IPS",
              "name": "cycleOfRateReset",
              "type": "tuple"
            },
            {
              "components": [
                {
                  "internalType": "uint256",
                  "name": "i",
                  "type": "uint256"
                },
                {
                  "internalType": "enum P",
                  "name": "p",
                  "type": "uint8"
                },
                {
                  "internalType": "enum S",
                  "name": "s",
                  "type": "uint8"
                },
                {
                  "internalType": "bool",
                  "name": "isSet",
                  "type": "bool"
                }
              ],
              "internalType": "struct IPS",
              "name": "cycleOfScalingIndex",
              "type": "tuple"
            },
            {
              "components": [
                {
                  "internalType": "uint256",
                  "name": "i",
                  "type": "uint256"
                },
                {
                  "internalType": "enum P",
                  "name": "p",
                  "type": "uint8"
                },
                {
                  "internalType": "enum S",
                  "name": "s",
                  "type": "uint8"
                },
                {
                  "internalType": "bool",
                  "name": "isSet",
                  "type": "bool"
                }
              ],
              "internalType": "struct IPS",
              "name": "cycleOfFee",
              "type": "tuple"
            }
          ],
          "internalType": "struct PAMTerms",
          "name": "terms",
          "type": "tuple"
        },
        {
          "components": [
            {
              "internalType": "enum ContractPerformance",
              "name": "contractPerformance",
              "type": "uint8"
            },
            {
              "internalType": "uint256",
              "name": "statusDate",
              "type": "uint256"
            },
            {
              "internalType": "uint256",
              "name": "nonPerformingDate",
              "type": "uint256"
            },
            {
              "internalType": "uint256",
              "name": "maturityDate",
              "type": "uint256"
            },
            {
              "internalType": "uint256",
              "name": "exerciseDate",
              "type": "uint256"
            },
            {
              "internalType": "uint256",
              "name": "terminationDate",
              "type": "uint256"
            },
            {
              "internalType": "uint256",
              "name": "lastCouponFixingDate",
              "type": "uint256"
            },
            {
              "internalType": "uint256",
              "name": "lastDividendFixingDate",
              "type": "uint256"
            },
            {
              "internalType": "int256",
              "name": "notionalPrincipal",
              "type": "int256"
            },
            {
              "internalType": "int256",
              "name": "accruedInterest",
              "type": "int256"
            },
            {
              "internalType": "int256",
              "name": "feeAccrued",
              "type": "int256"
            },
            {
              "internalType": "int256",
              "name": "nominalInterestRate",
              "type": "int256"
            },
            {
              "internalType": "int256",
              "name": "interestScalingMultiplier",
              "type": "int256"
            },
            {
              "internalType": "int256",
              "name": "notionalScalingMultiplier",
              "type": "int256"
            },
            {
              "internalType": "int256",
              "name": "nextPrincipalRedemptionPayment",
              "type": "int256"
            },
            {
              "internalType": "int256",
              "name": "exerciseAmount",
              "type": "int256"
            },
            {
              "internalType": "int256",
              "name": "exerciseQuantity",
              "type": "int256"
            },
            {
              "internalType": "int256",
              "name": "quantity",
              "type": "int256"
            },
            {
              "internalType": "int256",
              "name": "couponAmountFixed",
              "type": "int256"
            },
            {
              "internalType": "int256",
              "name": "marginFactor",
              "type": "int256"
            },
            {
              "internalType": "int256",
              "name": "adjustmentFactor",
              "type": "int256"
            },
            {
              "internalType": "int256",
              "name": "dividendPaymentAmount",
              "type": "int256"
            },
            {
              "internalType": "int256",
              "name": "splitRatio",
              "type": "int256"
            }
          ],
          "internalType": "struct State",
          "name": "state",
          "type": "tuple"
        },
        {
          "internalType": "uint256",
          "name": "scheduleTime",
          "type": "uint256"
        },
        {
          "internalType": "bytes32",
          "name": "externalData",
          "type": "bytes32"
        }
      ],
      "name": "_POF_PAM_PP",
      "outputs": [
        {
          "internalType": "int256",
          "name": "",
          "type": "int256"
        }
      ],
      "stateMutability": "pure",
      "type": "function"
    },
    {
      "inputs": [
        {
          "components": [
            {
              "internalType": "enum ContractType",
              "name": "contractType",
              "type": "uint8"
            },
            {
              "internalType": "enum Calendar",
              "name": "calendar",
              "type": "uint8"
            },
            {
              "internalType": "enum ContractRole",
              "name": "contractRole",
              "type": "uint8"
            },
            {
              "internalType": "enum DayCountConvention",
              "name": "dayCountConvention",
              "type": "uint8"
            },
            {
              "internalType": "enum BusinessDayConvention",
              "name": "businessDayConvention",
              "type": "uint8"
            },
            {
              "internalType": "enum EndOfMonthConvention",
              "name": "endOfMonthConvention",
              "type": "uint8"
            },
            {
              "internalType": "enum ScalingEffect",
              "name": "scalingEffect",
              "type": "uint8"
            },
            {
              "internalType": "enum FeeBasis",
              "name": "feeBasis",
              "type": "uint8"
            },
            {
              "internalType": "address",
              "name": "currency",
              "type": "address"
            },
            {
              "internalType": "address",
              "name": "settlementCurrency",
              "type": "address"
            },
            {
              "internalType": "bytes32",
              "name": "marketObjectCodeRateReset",
              "type": "bytes32"
            },
            {
              "internalType": "uint256",
              "name": "contractDealDate",
              "type": "uint256"
            },
            {
              "internalType": "uint256",
              "name": "statusDate",
              "type": "uint256"
            },
            {
              "internalType": "uint256",
              "name": "initialExchangeDate",
              "type": "uint256"
            },
            {
              "internalType": "uint256",
              "name": "maturityDate",
              "type": "uint256"
            },
            {
              "internalType": "uint256",
              "name": "issueDate",
              "type": "uint256"
            },
            {
              "internalType": "uint256",
              "name": "purchaseDate",
              "type": "uint256"
            },
            {
              "internalType": "uint256",
              "name": "capitalizationEndDate",
              "type": "uint256"
            },
            {
              "internalType": "uint256",
              "name": "cycleAnchorDateOfInterestPayment",
              "type": "uint256"
            },
            {
              "internalType": "uint256",
              "name": "cycleAnchorDateOfRateReset",
              "type": "uint256"
            },
            {
              "internalType": "uint256",
              "name": "cycleAnchorDateOfScalingIndex",
              "type": "uint256"
            },
            {
              "internalType": "uint256",
              "name": "cycleAnchorDateOfFee",
              "type": "uint256"
            },
            {
              "internalType": "int256",
              "name": "notionalPrincipal",
              "type": "int256"
            },
            {
              "internalType": "int256",
              "name": "nominalInterestRate",
              "type": "int256"
            },
            {
              "internalType": "int256",
              "name": "accruedInterest",
              "type": "int256"
            },
            {
              "internalType": "int256",
              "name": "rateMultiplier",
              "type": "int256"
            },
            {
              "internalType": "int256",
              "name": "rateSpread",
              "type": "int256"
            },
            {
              "internalType": "int256",
              "name": "nextResetRate",
              "type": "int256"
            },
            {
              "internalType": "int256",
              "name": "feeRate",
              "type": "int256"
            },
            {
              "internalType": "int256",
              "name": "feeAccrued",
              "type": "int256"
            },
            {
              "internalType": "int256",
              "name": "delinquencyRate",
              "type": "int256"
            },
            {
              "internalType": "int256",
              "name": "premiumDiscountAtIED",
              "type": "int256"
            },
            {
              "internalType": "int256",
              "name": "priceAtPurchaseDate",
              "type": "int256"
            },
            {
              "internalType": "int256",
              "name": "priceAtTerminationDate",
              "type": "int256"
            },
            {
              "internalType": "int256",
              "name": "lifeCap",
              "type": "int256"
            },
            {
              "internalType": "int256",
              "name": "lifeFloor",
              "type": "int256"
            },
            {
              "internalType": "int256",
              "name": "periodCap",
              "type": "int256"
            },
            {
              "internalType": "int256",
              "name": "periodFloor",
              "type": "int256"
            },
            {
              "components": [
                {
                  "internalType": "uint256",
                  "name": "i",
                  "type": "uint256"
                },
                {
                  "internalType": "enum P",
                  "name": "p",
                  "type": "uint8"
                },
                {
                  "internalType": "bool",
                  "name": "isSet",
                  "type": "bool"
                }
              ],
              "internalType": "struct IP",
              "name": "gracePeriod",
              "type": "tuple"
            },
            {
              "components": [
                {
                  "internalType": "uint256",
                  "name": "i",
                  "type": "uint256"
                },
                {
                  "internalType": "enum P",
                  "name": "p",
                  "type": "uint8"
                },
                {
                  "internalType": "bool",
                  "name": "isSet",
                  "type": "bool"
                }
              ],
              "internalType": "struct IP",
              "name": "delinquencyPeriod",
              "type": "tuple"
            },
            {
              "components": [
                {
                  "internalType": "uint256",
                  "name": "i",
                  "type": "uint256"
                },
                {
                  "internalType": "enum P",
                  "name": "p",
                  "type": "uint8"
                },
                {
                  "internalType": "enum S",
                  "name": "s",
                  "type": "uint8"
                },
                {
                  "internalType": "bool",
                  "name": "isSet",
                  "type": "bool"
                }
              ],
              "internalType": "struct IPS",
              "name": "cycleOfInterestPayment",
              "type": "tuple"
            },
            {
              "components": [
                {
                  "internalType": "uint256",
                  "name": "i",
                  "type": "uint256"
                },
                {
                  "internalType": "enum P",
                  "name": "p",
                  "type": "uint8"
                },
                {
                  "internalType": "enum S",
                  "name": "s",
                  "type": "uint8"
                },
                {
                  "internalType": "bool",
                  "name": "isSet",
                  "type": "bool"
                }
              ],
              "internalType": "struct IPS",
              "name": "cycleOfRateReset",
              "type": "tuple"
            },
            {
              "components": [
                {
                  "internalType": "uint256",
                  "name": "i",
                  "type": "uint256"
                },
                {
                  "internalType": "enum P",
                  "name": "p",
                  "type": "uint8"
                },
                {
                  "internalType": "enum S",
                  "name": "s",
                  "type": "uint8"
                },
                {
                  "internalType": "bool",
                  "name": "isSet",
                  "type": "bool"
                }
              ],
              "internalType": "struct IPS",
              "name": "cycleOfScalingIndex",
              "type": "tuple"
            },
            {
              "components": [
                {
                  "internalType": "uint256",
                  "name": "i",
                  "type": "uint256"
                },
                {
                  "internalType": "enum P",
                  "name": "p",
                  "type": "uint8"
                },
                {
                  "internalType": "enum S",
                  "name": "s",
                  "type": "uint8"
                },
                {
                  "internalType": "bool",
                  "name": "isSet",
                  "type": "bool"
                }
              ],
              "internalType": "struct IPS",
              "name": "cycleOfFee",
              "type": "tuple"
            }
          ],
          "internalType": "struct PAMTerms",
          "name": "terms",
          "type": "tuple"
        },
        {
          "components": [
            {
              "internalType": "enum ContractPerformance",
              "name": "contractPerformance",
              "type": "uint8"
            },
            {
              "internalType": "uint256",
              "name": "statusDate",
              "type": "uint256"
            },
            {
              "internalType": "uint256",
              "name": "nonPerformingDate",
              "type": "uint256"
            },
            {
              "internalType": "uint256",
              "name": "maturityDate",
              "type": "uint256"
            },
            {
              "internalType": "uint256",
              "name": "exerciseDate",
              "type": "uint256"
            },
            {
              "internalType": "uint256",
              "name": "terminationDate",
              "type": "uint256"
            },
            {
              "internalType": "uint256",
              "name": "lastCouponFixingDate",
              "type": "uint256"
            },
            {
              "internalType": "uint256",
              "name": "lastDividendFixingDate",
              "type": "uint256"
            },
            {
              "internalType": "int256",
              "name": "notionalPrincipal",
              "type": "int256"
            },
            {
              "internalType": "int256",
              "name": "accruedInterest",
              "type": "int256"
            },
            {
              "internalType": "int256",
              "name": "feeAccrued",
              "type": "int256"
            },
            {
              "internalType": "int256",
              "name": "nominalInterestRate",
              "type": "int256"
            },
            {
              "internalType": "int256",
              "name": "interestScalingMultiplier",
              "type": "int256"
            },
            {
              "internalType": "int256",
              "name": "notionalScalingMultiplier",
              "type": "int256"
            },
            {
              "internalType": "int256",
              "name": "nextPrincipalRedemptionPayment",
              "type": "int256"
            },
            {
              "internalType": "int256",
              "name": "exerciseAmount",
              "type": "int256"
            },
            {
              "internalType": "int256",
              "name": "exerciseQuantity",
              "type": "int256"
            },
            {
              "internalType": "int256",
              "name": "quantity",
              "type": "int256"
            },
            {
              "internalType": "int256",
              "name": "couponAmountFixed",
              "type": "int256"
            },
            {
              "internalType": "int256",
              "name": "marginFactor",
              "type": "int256"
            },
            {
              "internalType": "int256",
              "name": "adjustmentFactor",
              "type": "int256"
            },
            {
              "internalType": "int256",
              "name": "dividendPaymentAmount",
              "type": "int256"
            },
            {
              "internalType": "int256",
              "name": "splitRatio",
              "type": "int256"
            }
          ],
          "internalType": "struct State",
          "name": "state",
          "type": "tuple"
        },
        {
          "internalType": "uint256",
          "name": "scheduleTime",
          "type": "uint256"
        },
        {
          "internalType": "bytes32",
          "name": "externalData",
          "type": "bytes32"
        }
      ],
      "name": "_POF_PAM_TD",
      "outputs": [
        {
          "internalType": "int256",
          "name": "",
          "type": "int256"
        }
      ],
      "stateMutability": "pure",
      "type": "function"
    },
    {
      "inputs": [
        {
          "internalType": "enum EndOfMonthConvention",
          "name": "eomc",
          "type": "uint8"
        },
        {
          "internalType": "uint256",
          "name": "startTime",
          "type": "uint256"
        },
        {
          "components": [
            {
              "internalType": "uint256",
              "name": "i",
              "type": "uint256"
            },
            {
              "internalType": "enum P",
              "name": "p",
              "type": "uint8"
            },
            {
              "internalType": "enum S",
              "name": "s",
              "type": "uint8"
            },
            {
              "internalType": "bool",
              "name": "isSet",
              "type": "bool"
            }
          ],
          "internalType": "struct IPS",
          "name": "cycle",
          "type": "tuple"
        }
      ],
      "name": "adjustEndOfMonthConvention",
      "outputs": [
        {
          "internalType": "enum EndOfMonthConvention",
          "name": "",
          "type": "uint8"
        }
      ],
      "stateMutability": "pure",
      "type": "function"
    },
    {
      "inputs": [
        {
          "internalType": "bytes32",
          "name": "_event",
          "type": "bytes32"
        },
        {
          "internalType": "enum BusinessDayConvention",
          "name": "bdc",
          "type": "uint8"
        },
        {
          "internalType": "enum Calendar",
          "name": "calendar",
          "type": "uint8"
        },
        {
          "internalType": "uint256",
          "name": "maturityDate",
          "type": "uint256"
        }
      ],
      "name": "computeEventTimeForEvent",
      "outputs": [
        {
          "internalType": "uint256",
          "name": "",
          "type": "uint256"
        }
      ],
      "stateMutability": "pure",
      "type": "function"
    },
    {
      "inputs": [
        {
          "internalType": "bytes32",
          "name": "_event",
          "type": "bytes32"
        }
      ],
      "name": "decodeEvent",
      "outputs": [
        {
          "internalType": "enum EventType",
          "name": "",
          "type": "uint8"
        },
        {
          "internalType": "uint256",
          "name": "",
          "type": "uint256"
        }
      ],
      "stateMutability": "pure",
      "type": "function"
    },
    {
      "inputs": [
        {
          "internalType": "enum EventType",
          "name": "eventType",
          "type": "uint8"
        },
        {
          "internalType": "uint256",
          "name": "scheduleTime",
          "type": "uint256"
        }
      ],
      "name": "encodeEvent",
      "outputs": [
        {
          "internalType": "bytes32",
          "name": "",
          "type": "bytes32"
        }
      ],
      "stateMutability": "pure",
      "type": "function"
    },
    {
      "inputs": [
        {
          "internalType": "enum EventType",
          "name": "eventType",
          "type": "uint8"
        }
      ],
      "name": "getEpochOffset",
      "outputs": [
        {
          "internalType": "uint256",
          "name": "",
          "type": "uint256"
        }
      ],
      "stateMutability": "pure",
      "type": "function"
    },
    {
      "inputs": [
        {
          "internalType": "uint256",
          "name": "timestamp",
          "type": "uint256"
        },
        {
          "internalType": "enum BusinessDayConvention",
          "name": "convention",
          "type": "uint8"
        },
        {
          "internalType": "enum Calendar",
          "name": "calendar",
          "type": "uint8"
        },
        {
          "internalType": "uint256",
          "name": "maturityDate",
          "type": "uint256"
        }
      ],
      "name": "shiftCalcTime",
      "outputs": [
        {
          "internalType": "uint256",
          "name": "",
          "type": "uint256"
        }
      ],
      "stateMutability": "pure",
      "type": "function"
    },
    {
      "inputs": [
        {
          "internalType": "uint256",
          "name": "timestamp",
          "type": "uint256"
        },
        {
          "internalType": "enum BusinessDayConvention",
          "name": "convention",
          "type": "uint8"
        },
        {
          "internalType": "enum Calendar",
          "name": "calendar",
          "type": "uint8"
        },
        {
          "internalType": "uint256",
          "name": "maturityDate",
          "type": "uint256"
        }
      ],
      "name": "shiftEventTime",
      "outputs": [
        {
          "internalType": "uint256",
          "name": "",
          "type": "uint256"
        }
      ],
      "stateMutability": "pure",
      "type": "function"
    }
  ],
  "bytecode": "0x608060405234801561001057600080fd5b50611eee806100206000396000f3fe608060405234801561001057600080fd5b506004361061010b5760003560e01c8063811322fb116100a2578063e05a66e011610071578063e05a66e014610204578063e726d68014610217578063edc0465f146101fc578063ef30cc3e1461022a578063f5586e051461023d5761010b565b8063811322fb146101ce57806392234cb5146101e1578063aaf5eb68146101f4578063c40c5a98146101fc5761010b565b806367fcc43e116100de57806367fcc43e1461017f5780636f37e55b14610192578063725400031461019a5780637a87f6a4146101bb5761010b565b80630a170dcd14610110578063179331f3146101395780631a2e165d1461015957806349e0763c1461016c575b600080fd5b61012361011e36600461190f565b610250565b6040516101309190611bce565b60405180910390f35b61014c61014736600461188e565b610269565b6040516101309190611bd7565b610123610167366004611849565b610339565b61012361017a36600461190f565b61035e565b61012361018d36600461190f565b61036c565b61012361037a565b6101ad6101a8366004611831565b610386565b604051610130929190611beb565b6101236101c936600461190f565b6103af565b6101236101dc3660046118cc565b6103bd565b6101236101ef36600461190f565b6103d3565b6101236103e1565b6101236103e6565b6101236102123660046118e6565b6103eb565b610123610225366004611bb9565b61040b565b61012361023836600461190f565b61055e565b61012361024b366004611bb9565b61056c565b600061025e858585856105d7565b90505b949350505050565b6000600184600181111561027957fe5b14156102f55761028883610691565b610291846106b3565b1480156102e057506002826020015160058111156102ab57fe5b14806102c657506003826020015160058111156102c457fe5b145b806102e057506004826020015160058111156102de57fe5b145b156102ed57506001610332565b506000610332565b600084600181111561030357fe5b141561031157506000610332565b60405162461bcd60e51b815260040161032990611c03565b60405180910390fd5b9392505050565b60008061034586610386565b9150506103548186868661040b565b9695505050505050565b600061025e858585856106c2565b600061025e85858585610726565b670de0b6b3a764000081565b6000808060f884901c602181111561039a57fe5b92505067ffffffffffffffff83169050915091565b600061025e858585856107a5565b60008160218111156103cb57fe5b90505b919050565b600061025e858585856107e3565b601281565b607881565b60008160f88460218111156103fc57fe5b60ff16901b1790505b92915050565b60008185141561041c575083610261565b600184600881111561042a57fe5b14806104415750600384600881111561043f57fe5b145b15610457576104508584610802565b9050610261565b600284600881111561046557fe5b148061047c5750600484600881111561047a57fe5b145b156104c057600061048d8685610802565b90506104988661085e565b6104a18261085e565b14156104ae579050610261565b6104b88685610875565b915050610261565b60058460088111156104ce57fe5b14806104e5575060078460088111156104e357fe5b145b156104f4576104508584610875565b600684600881111561050257fe5b14806105195750600884600881111561051757fe5b145b1561055557600061052a8685610875565b90506105358661085e565b61053e8261085e565b141561054b579050610261565b6104b88685610802565b50929392505050565b600061025e858585856108c3565b6000600384600881111561057c57fe5b14806105935750600484600881111561059157fe5b145b806105a9575060078460088111156105a757fe5b145b806105bf575060088460088111156105bd57fe5b145b156105cb575083610261565b61025e8585858561040b565b6000808560e0015160018111156105ea57fe5b141561060e5784610380015161060386604001516108e5565b60000b029050610261565b60006106596106308660200151886080015189602001518a6101c0015161056c565b6106498689608001518a602001518b6101c0015161056c565b8860600151896101c001516109c8565b905061035461068586610100015161067f89610380015185610b2290919063ffffffff16565b90610b22565b61014087015190610c1d565b600080806106a462015180855b04610c82565b50915091506102618282610d18565b6000610261620151808361069e565b6000806106e56106308660200151886080015189602001518a6101c0015161056c565b905061035461071a61070e87610100015161067f89610160015186610b2290919063ffffffff16565b61012088015190610c1d565b61018087015190610b22565b6000806107496106308660200151886080015189602001518a6101c0015161056c565b905061078a61076f86610100015161067f88610160015185610b2290919063ffffffff16565b61012087015161040089015161078491610c1d565b90610c1d565b61079787604001516108e5565b60000b029695505050505050565b60006107c4856103e00151866102c00151610c1d90919063ffffffff16565b6107d186604001516108e5565b6000190260000b029050949350505050565b600061025e846101000151856101a00151610b2290919063ffffffff16565b6000600182600181111561081257fe5b14156108575761082183610d9e565b6006141561083b57610834836002610db1565b9050610405565b61084483610d9e565b6007141561085757610834836001610db1565b5090919050565b600061086d620151808361069e565b509392505050565b6000600182600181111561088557fe5b14156108575761089483610d9e565b600614156108a757610834836001610dc6565b6108b083610d9e565b6007141561085757610834836002610dc6565b60008361010001516108d886604001516108e5565b60000b0295945050505050565b60008082600c8111156108f457fe5b1415610902575060016103ce565b600182600c81111561091057fe5b141561091f57506000196103ce565b600682600c81111561092d57fe5b141561093b575060016103ce565b600782600c81111561094957fe5b141561095857506000196103ce565b600282600c81111561096657fe5b1415610974575060016103ce565b600382600c81111561098257fe5b141561099157506000196103ce565b60405162461bcd60e51b8152600401808060200182810382526034815260200180611d386034913960400191505060405180910390fd5b600084841015610a095760405162461bcd60e51b8152600401808060200182810382526027815260200180611dfd6027913960400191505060405180910390fd5b6000836005811115610a1757fe5b1415610a27576104508585610ddb565b6001836005811115610a3557fe5b1415610a45576104508585610ed1565b6002836005811115610a5357fe5b1415610a63576104508585610ef0565b6004836005811115610a7157fe5b1415610a81576104508585610f09565b6003836005811115610a8f57fe5b1415610aa057610450858584610fac565b6005836005811115610aae57fe5b1415610aeb5760405162461bcd60e51b8152600401808060200182810382526039815260200180611d936039913960400191505060405180910390fd5b60405162461bcd60e51b8152600401808060200182810382526035815260200180611cb06035913960400191505060405180910390fd5b6000821580610b2f575081155b15610b3c57506000610405565b82600019148015610b505750600160ff1b82145b15610b8c5760405162461bcd60e51b8152600401808060200182810382526027815260200180611d6c6027913960400191505060405180910390fd5b82820282848281610b9957fe5b0514610bd65760405162461bcd60e51b8152600401808060200182810382526027815260200180611d6c6027913960400191505060405180910390fd5b670de0b6b3a76400008105806102615760405162461bcd60e51b8152600401808060200182810382526032815260200180611ce56032913960400191505060405180910390fd5b6000828201818312801590610c325750838112155b80610c475750600083128015610c4757508381125b6103325760405162461bcd60e51b8152600401808060200182810382526021815260200180611d176021913960400191505060405180910390fd5b60008080836226496581018262023ab1600483020590506004600362023ab18302010590910390600062164b09610fa0600185010205905060046105b58202058303601f019250600061098f8460500281610cd957fe5b0590506000605061098f83020585039050600b820560301994909401606402929092018301996002600c90940290910392909201975095509350505050565b60008160011480610d295750816003145b80610d345750816005145b80610d3f5750816007145b80610d4a5750816008145b80610d55575081600a145b80610d60575081600c145b15610d6d5750601f610405565b81600214610d7d5750601e610405565b610d868361106a565b610d9157601c610d94565b601d5b60ff169392505050565b6007620151809091046003010660010190565b62015180810282018281101561040557600080fd5b62015180810282038281111561040557600080fd5b600080610de78461108f565b90506000610df48461108f565b90506000610e01866110a7565b610e0d5761016d610e11565b61016e5b61ffff16905081831415610e3d57610e3381610e2d88886110c4565b906110df565b9350505050610405565b6000610e48866110a7565b610e545761016d610e58565b61016e5b61ffff1690506000610e8383610e2d8a610e7e610e768a6001611217565b600180611271565b6110c4565b90506000610ea083610e2d610e9a88600180611271565b8b6110c4565b9050610ec4610eba6001610eb4888a61128b565b9061128b565b6107848484610c1d565b9998505050505050505050565b6000610332610168610e2d62015180610eea868861128b565b906112cd565b600061033261016d610e2d62015180610eea868861128b565b6000806000806000806000610f1d8961130f565b975095509350610f2c8861130f565b945092509050601f861415610f4057601e95505b82601f1415610f4e57601e92505b6000610f5a848861132d565b90506000610f68848861132d565b90506000610f76848861132d565b9050610f9c610168610e2d85610784610f9087601e611392565b61078487610168611392565b9c9b505050505050505050505050565b6000806000806000806000610fc08a61130f565b975095509350610fcf8961130f565b945092509050610fde8a610691565b861415610fea57601e95505b8789148015610ff95750816002145b15801561100d575061100a89610691565b83145b1561101757601e92505b6000611023848861132d565b90506000611031848861132d565b9050600061103f848861132d565b9050611059610168610e2d85610784610f9087601e611392565b9d9c50505050505050505050505050565b60006004820615801561107f57506064820615155b806103cb57505061019090061590565b600061109e620151808361069e565b50909392505050565b6000806110b7620151808461069e565b505090506103328161106a565b6000818311156110d357600080fd5b50620151809190030490565b60008161111d5760405162461bcd60e51b8152600401808060200182810382526024815260200180611e956024913960400191505060405180910390fd5b8261112a57506000610405565b670de0b6b3a76400008381029084828161114057fe5b051461117d5760405162461bcd60e51b8152600401808060200182810382526026815260200180611e4b6026913960400191505060405180910390fd5b826000191480156111915750600160ff1b84145b156111cd5760405162461bcd60e51b8152600401808060200182810382526026815260200180611e4b6026913960400191505060405180910390fd5b60008382816111d857fe5b059050806102615760405162461bcd60e51b8152600401808060200182810382526031815260200180611dcc6031913960400191505060405180910390fd5b600082820183811015610332576040805162461bcd60e51b815260206004820152601b60248201527f536166654d6174683a206164646974696f6e206f766572666c6f770000000000604482015290519081900360640190fd5b60006201518061128285858561143b565b02949350505050565b600061033283836040518060400160405280601e81526020017f536166654d6174683a207375627472616374696f6e206f766572666c6f7700008152506114b7565b600061033283836040518060400160405280601a81526020017f536166654d6174683a206469766973696f6e206279207a65726f00000000000081525061154e565b60008080611320620151808561069e565b9196909550909350915050565b60008183038183128015906113425750838113155b80611357575060008312801561135757508381135b6103325760405162461bcd60e51b8152600401808060200182810382526024815260200180611e716024913960400191505060405180910390fd5b6000826113a157506000610405565b826000191480156113b55750600160ff1b82145b156113f15760405162461bcd60e51b8152600401808060200182810382526027815260200180611e246027913960400191505060405180910390fd5b828202828482816113fe57fe5b05146103325760405162461bcd60e51b8152600401808060200182810382526027815260200180611e246027913960400191505060405180910390fd5b60006107b284101561144c57600080fd5b838383600062253d8c600460036064611324600c600d19890105890101050205600c80600d19870105600c02600287030361016f028161148857fe5b0560046105b5600c600d1989010589016112c0010205617d4b8603010103039050809450505050509392505050565b600081848411156115465760405162461bcd60e51b81526004018080602001828103825283818151815260200191508051906020019080838360005b8381101561150b5781810151838201526020016114f3565b50505050905090810190601f1680156115385780820380516001836020036101000a031916815260200191505b509250505060405180910390fd5b505050900390565b6000818361159d5760405162461bcd60e51b815260206004820181815283516024840152835190928392604490910191908501908083836000831561150b5781810151838201526020016114f3565b5060008385816115a957fe5b0495945050505050565b80356001600160a01b03811681146103ce57600080fd5b803580151581146103ce57600080fd5b8035600981106103ce57600080fd5b80356103ce81611c92565b80356103ce81611ca2565b8035600d81106103ce57600080fd5b8035601381106103ce57600080fd5b8035602281106103ce57600080fd5b8035600481106103ce57600080fd5b60006080828403121561164c578081fd5b6040516080810181811067ffffffffffffffff8211171561166957fe5b60405282358152905080602083013561168181611ca2565b6020820152604083013561169481611c92565b60408201526116a5606084016115ca565b60608201525092915050565b6000606082840312156116c2578081fd5b6040516060810181811067ffffffffffffffff821117156116df57fe5b6040528235815290508060208301356116f781611ca2565b6020820152611708604084016115ca565b60408201525092915050565b60006102e0808385031215611727578182fd5b61173081611c6e565b91505061173c826115f4565b81526020828101359082015260408083013590820152606080830135908201526080808301359082015260a0808301359082015260c0808301359082015260e08083013590820152610100808301359082015261012080830135908201526101408083013590820152610160808301359082015261018080830135908201526101a080830135908201526101c080830135908201526101e08083013590820152610200808301359082015261022080830135908201526102408083013590820152610260808301359082015261028080830135908201526102a080830135908201526102c09182013591810191909152919050565b600060208284031215611842578081fd5b5035919050565b6000806000806080858703121561185e578283fd5b8435935061186e602086016115da565b9250604085013561187e81611c92565b9396929550929360600135925050565b600080600060c084860312156118a2578081fd5b83356118ad81611c92565b9250602084013591506118c3856040860161163b565b90509250925092565b6000602082840312156118dd578081fd5b6103328261161d565b600080604083850312156118f8578182fd5b6119018361161d565b946020939093013593505050565b600080600080848603610aa0811215611926578283fd5b61078080821215611935578384fd5b610580915061194382611c6e565b61194c8861160e565b815261195a602089016115e9565b602082015261196b604089016115ff565b604082015261197c606089016115f4565b606082015261198d608089016115da565b608082015261199e60a089016115e9565b60a08201526119af60c0890161162c565b60c08201526119c060e089016115e9565b60e08201526101006119d3818a016115b3565b908201526101206119e58982016115b3565b908201526101408881013590820152610160808901359082015261018080890135908201526101a080890135908201526101c080890135908201526101e08089013590820152610200808901359082015261022080890135908201526102408089013590820152610260808901359082015261028080890135908201526102a080890135908201526102c080890135908201526102e08089013590820152610300808901359082015261032080890135908201526103408089013590820152610360808901359082015261038080890135908201526103a080890135908201526103c080890135908201526103e08089013590820152610400808901359082015261042080890135908201526104408089013590820152610460808901359082015261048080890135908201526104a080890135908201526104c0611b2c8a828b016116b1565b90820152610520611b3f8a8a83016116b1565b6104e0830152611b518a858b0161163b565b610500830152611b658a6106008b0161163b565b90820152611b77896106808a0161163b565b610540820152611b8b896107008a0161163b565b6105608201529550611b9f88888301611714565b9598959750505050610a6084013593610a80013592915050565b6000806000806080858703121561185e578182fd5b90815260200190565b6020810160028310611be557fe5b91905290565b6040810160228410611bf957fe5b9281526020015290565b60208082526045908201527f456e644f664d6f6e7468436f6e76656e74696f6e2e61646a757374456e644f6660408201527f4d6f6e7468436f6e76656e74696f6e3a204154545249425554455f4e4f545f4660608201526427aaa7221760d91b608082015260a00190565b60405181810167ffffffffffffffff81118282101715611c8a57fe5b604052919050565b60028110611c9f57600080fd5b50565b60068110611c9f57600080fdfe446179436f756e74436f6e76656e74696f6e2e796561724672616374696f6e3a204154545249425554455f4e4f545f464f554e442e5369676e65644d6174682e666c6f61744d756c743a2043414e4e4f545f524550524553454e545f4752414e554c41524954595369676e6564536166654d6174683a206164646974696f6e206f766572666c6f77436f6e7472616374526f6c65436f6e76656e74696f6e2e726f6c655369676e3a204154545249425554455f4e4f545f464f554e445369676e65644d6174682e666c6f61744d756c743a204f564552464c4f575f4445544543544544446179436f756e74436f6e76656e74696f6e2e796561724672616374696f6e3a204154545249425554455f4e4f545f535550504f525445442e5369676e65644d6174682e666c6f61744469763a2043414e4e4f545f524550524553454e545f4752414e554c4152495459436f72652e796561724672616374696f6e3a2053544152545f4e4f545f4245464f52455f454e445369676e6564536166654d6174683a206d756c7469706c69636174696f6e206f766572666c6f775369676e65644d6174682e666c6f61744469763a204f564552464c4f575f44455445435445445369676e6564536166654d6174683a207375627472616374696f6e206f766572666c6f775369676e65644d6174682e666c6f61744469763a20444956494445445f42595f5a45524fa26469706673582212203d6b615c5f671600e73ae7bb2ccf0ecc58d08d333a3e90480b4c0eb91313709464736f6c63430007040033",
  "linkReferences": {},
  "deployedLinkReferences": {}
}