{
  "abi": [
    {
      "inputs": [
        {
          "internalType": "contract IAssetRegistry",
          "name": "assetRegistry",
          "type": "address"
        },
        {
          "internalType": "contract IDataRegistry",
          "name": "dataRegistry",
          "type": "address"
        }
      ],
      "stateMutability": "nonpayable",
      "type": "constructor"
    },
    {
      "anonymous": false,
      "inputs": [
        {
          "indexed": true,
          "internalType": "bytes32",
          "name": "assetId",
          "type": "bytes32"
        },
        {
          "indexed": false,
          "internalType": "enum ContractType",
          "name": "contractType",
          "type": "uint8"
        },
        {
          "indexed": false,
          "internalType": "address",
          "name": "creator",
          "type": "address"
        },
        {
          "indexed": false,
          "internalType": "address",
          "name": "counterparty",
          "type": "address"
        }
      ],
      "name": "InitializedAsset",
      "type": "event"
    },
    {
      "anonymous": false,
      "inputs": [
        {
          "indexed": true,
          "internalType": "address",
          "name": "previousOwner",
          "type": "address"
        },
        {
          "indexed": true,
          "internalType": "address",
          "name": "newOwner",
          "type": "address"
        }
      ],
      "name": "OwnershipTransferred",
      "type": "event"
    },
    {
      "anonymous": false,
      "inputs": [
        {
          "indexed": true,
          "internalType": "bytes32",
          "name": "assetId",
          "type": "bytes32"
        },
        {
          "indexed": false,
          "internalType": "enum EventType",
          "name": "eventType",
          "type": "uint8"
        },
        {
          "indexed": false,
          "internalType": "uint256",
          "name": "scheduleTime",
          "type": "uint256"
        },
        {
          "indexed": false,
          "internalType": "int256",
          "name": "payoff",
          "type": "int256"
        }
      ],
      "name": "ProgressedAsset",
      "type": "event"
    },
    {
      "anonymous": false,
      "inputs": [
        {
          "indexed": true,
          "internalType": "bytes32",
          "name": "assetId",
          "type": "bytes32"
        },
        {
          "indexed": false,
          "internalType": "bytes32",
          "name": "statusMessage",
          "type": "bytes32"
        }
      ],
      "name": "Status",
      "type": "event"
    },
    {
      "inputs": [],
      "name": "assetRegistry",
      "outputs": [
        {
          "internalType": "contract IAssetRegistry",
          "name": "",
          "type": "address"
        }
      ],
      "stateMutability": "view",
      "type": "function"
    },
    {
      "inputs": [],
      "name": "dataRegistry",
      "outputs": [
        {
          "internalType": "contract IDataRegistry",
          "name": "",
          "type": "address"
        }
      ],
      "stateMutability": "view",
      "type": "function"
    },
    {
      "inputs": [
        {
          "internalType": "bytes32",
          "name": "object",
          "type": "bytes32"
        }
      ],
      "name": "decodeCollateralObject",
      "outputs": [
        {
          "internalType": "address",
          "name": "",
          "type": "address"
        },
        {
          "internalType": "uint256",
          "name": "",
          "type": "uint256"
        }
      ],
      "stateMutability": "pure",
      "type": "function"
    },
    {
      "inputs": [
        {
          "internalType": "bytes32",
          "name": "_event",
          "type": "bytes32"
        }
      ],
      "name": "decodeEvent",
      "outputs": [
        {
          "internalType": "enum EventType",
          "name": "",
          "type": "uint8"
        },
        {
          "internalType": "uint256",
          "name": "",
          "type": "uint256"
        }
      ],
      "stateMutability": "pure",
      "type": "function"
    },
    {
      "inputs": [
        {
          "internalType": "address",
          "name": "collateralToken",
          "type": "address"
        },
        {
          "internalType": "uint256",
          "name": "collateralAmount",
          "type": "uint256"
        }
      ],
      "name": "encodeCollateralAsObject",
      "outputs": [
        {
          "internalType": "bytes32",
          "name": "",
          "type": "bytes32"
        }
      ],
      "stateMutability": "pure",
      "type": "function"
    },
    {
      "inputs": [
        {
          "internalType": "enum EventType",
          "name": "eventType",
          "type": "uint8"
        },
        {
          "internalType": "uint256",
          "name": "scheduleTime",
          "type": "uint256"
        }
      ],
      "name": "encodeEvent",
      "outputs": [
        {
          "internalType": "bytes32",
          "name": "",
          "type": "bytes32"
        }
      ],
      "stateMutability": "pure",
      "type": "function"
    },
    {
      "inputs": [
        {
          "internalType": "enum EventType",
          "name": "eventType",
          "type": "uint8"
        }
      ],
      "name": "getEpochOffset",
      "outputs": [
        {
          "internalType": "uint256",
          "name": "",
          "type": "uint256"
        }
      ],
      "stateMutability": "pure",
      "type": "function"
    },
    {
      "inputs": [
        {
          "components": [
            {
              "internalType": "enum ContractType",
              "name": "contractType",
              "type": "uint8"
            },
            {
              "internalType": "enum Calendar",
              "name": "calendar",
              "type": "uint8"
            },
            {
              "internalType": "enum ContractRole",
              "name": "contractRole",
              "type": "uint8"
            },
            {
              "internalType": "enum DayCountConvention",
              "name": "dayCountConvention",
              "type": "uint8"
            },
            {
              "internalType": "enum BusinessDayConvention",
              "name": "businessDayConvention",
              "type": "uint8"
            },
            {
              "internalType": "enum EndOfMonthConvention",
              "name": "endOfMonthConvention",
              "type": "uint8"
            },
            {
              "internalType": "enum ContractPerformance",
              "name": "creditEventTypeCovered",
              "type": "uint8"
            },
            {
              "internalType": "enum FeeBasis",
              "name": "feeBasis",
              "type": "uint8"
            },
            {
              "internalType": "uint256",
              "name": "statusDate",
              "type": "uint256"
            },
            {
              "internalType": "uint256",
              "name": "maturityDate",
              "type": "uint256"
            },
            {
              "internalType": "int256",
              "name": "notionalPrincipal",
              "type": "int256"
            },
            {
              "internalType": "int256",
              "name": "feeRate",
              "type": "int256"
            },
            {
              "internalType": "int256",
              "name": "coverageOfCreditEnhancement",
              "type": "int256"
            },
            {
              "components": [
                {
                  "internalType": "bytes32",
                  "name": "object",
                  "type": "bytes32"
                },
                {
                  "internalType": "bytes32",
                  "name": "object2",
                  "type": "bytes32"
                },
                {
                  "internalType": "enum ContractReferenceType",
                  "name": "_type",
                  "type": "uint8"
                },
                {
                  "internalType": "enum ContractReferenceRole",
                  "name": "role",
                  "type": "uint8"
                }
              ],
              "internalType": "struct ContractReference",
              "name": "contractReference_1",
              "type": "tuple"
            },
            {
              "components": [
                {
                  "internalType": "bytes32",
                  "name": "object",
                  "type": "bytes32"
                },
                {
                  "internalType": "bytes32",
                  "name": "object2",
                  "type": "bytes32"
                },
                {
                  "internalType": "enum ContractReferenceType",
                  "name": "_type",
                  "type": "uint8"
                },
                {
                  "internalType": "enum ContractReferenceRole",
                  "name": "role",
                  "type": "uint8"
                }
              ],
              "internalType": "struct ContractReference",
              "name": "contractReference_2",
              "type": "tuple"
            }
          ],
          "internalType": "struct CECTerms",
          "name": "terms",
          "type": "tuple"
        },
        {
          "internalType": "bytes32[]",
          "name": "schedule",
          "type": "bytes32[]"
        },
        {
          "internalType": "address",
          "name": "engine",
          "type": "address"
        },
        {
          "internalType": "address",
          "name": "admin",
          "type": "address"
        },
        {
          "internalType": "address",
          "name": "custodian",
          "type": "address"
        },
        {
          "internalType": "address",
          "name": "underlyingRegistry",
          "type": "address"
        }
      ],
      "name": "initialize",
      "outputs": [],
      "stateMutability": "nonpayable",
      "type": "function"
    },
    {
      "inputs": [],
      "name": "owner",
      "outputs": [
        {
          "internalType": "address",
          "name": "",
          "type": "address"
        }
      ],
      "stateMutability": "view",
      "type": "function"
    },
    {
      "inputs": [
        {
          "internalType": "bytes32",
          "name": "assetId",
          "type": "bytes32"
        }
      ],
      "name": "progress",
      "outputs": [],
      "stateMutability": "nonpayable",
      "type": "function"
    },
    {
      "inputs": [
        {
          "internalType": "bytes32",
          "name": "assetId",
          "type": "bytes32"
        },
        {
          "internalType": "bytes32",
          "name": "_event",
          "type": "bytes32"
        }
      ],
      "name": "progressWith",
      "outputs": [],
      "stateMutability": "nonpayable",
      "type": "function"
    },
    {
      "inputs": [],
      "name": "renounceOwnership",
      "outputs": [],
      "stateMutability": "nonpayable",
      "type": "function"
    },
    {
      "inputs": [
        {
          "internalType": "uint256",
          "name": "timestamp",
          "type": "uint256"
        },
        {
          "internalType": "enum BusinessDayConvention",
          "name": "convention",
          "type": "uint8"
        },
        {
          "internalType": "enum Calendar",
          "name": "calendar",
          "type": "uint8"
        },
        {
          "internalType": "uint256",
          "name": "maturityDate",
          "type": "uint256"
        }
      ],
      "name": "shiftCalcTime",
      "outputs": [
        {
          "internalType": "uint256",
          "name": "",
          "type": "uint256"
        }
      ],
      "stateMutability": "pure",
      "type": "function"
    },
    {
      "inputs": [
        {
          "internalType": "uint256",
          "name": "timestamp",
          "type": "uint256"
        },
        {
          "internalType": "enum BusinessDayConvention",
          "name": "convention",
          "type": "uint8"
        },
        {
          "internalType": "enum Calendar",
          "name": "calendar",
          "type": "uint8"
        },
        {
          "internalType": "uint256",
          "name": "maturityDate",
          "type": "uint256"
        }
      ],
      "name": "shiftEventTime",
      "outputs": [
        {
          "internalType": "uint256",
          "name": "",
          "type": "uint256"
        }
      ],
      "stateMutability": "pure",
      "type": "function"
    },
    {
      "inputs": [
        {
          "internalType": "address",
          "name": "newOwner",
          "type": "address"
        }
      ],
      "name": "transferOwnership",
      "outputs": [],
      "stateMutability": "nonpayable",
      "type": "function"
    }
  ],
  "address": "0xd15468525c35BDBC1eD8F2e09A00F8a173437f2f",
  "args": [
    "0x8B5B7a6055E54a36fF574bbE40cf2eA68d5554b3",
    "0x2D8553F9ddA85A9B3259F6Bf26911364B85556F5"
  ],
  "solcInputHash": "0x696d588733bc13622bf7a138210de7a722f71ba33fdf2c81d87d28a95246f10e",
  "bytecode": "0x60806040523480156200001157600080fd5b5060405162004012380380620040128339810160408190526200003491620000ce565b818160006200004b6001600160e01b03620000ca16565b600080546001600160a01b0319166001600160a01b0383169081178255604051929350917f8be0079c531659141344cd1fd0a4f28419497f9722a3daafe3b4186f6b6457e0908290a350600180546001600160a01b039384166001600160a01b0319918216179091556002805492909316911617905550620001259050565b3390565b60008060408385031215620000e1578182fd5b8251620000ee816200010c565b602084015190925062000101816200010c565b809150509250929050565b6001600160a01b03811681146200012257600080fd5b50565b613edd80620001356000396000f3fe608060405234801561001057600080fd5b50600436106100f55760003560e01c80638da5cb5b11610097578063e05a66e011610066578063e05a66e0146101e0578063e726d680146101f3578063f2fde38b14610206578063f5586e0514610219576100f5565b80638da5cb5b146101a8578063979d7e86146101bd578063a39c1d6b146101c5578063d56a1ddf146101cd576100f5565b8063715018a6116100d3578063715018a61461015957806372540003146101615780637aebd2a814610182578063811322fb14610195576100f5565b8063645a26bd146100fa5780636778e0e9146101245780636b6ba66414610144575b600080fd5b61010d610108366004612b54565b61022c565b60405161011b929190613371565b60405180910390f35b610137610132366004612b0d565b610245565b60405161011b919061338a565b610157610152366004612b84565b610270565b005b610157610525565b61017461016f366004612b54565b6105a4565b60405161011b92919061363c565b610157610190366004612b54565b6105cd565b6101376101a3366004612bf9565b61082b565b6101b0610841565b60405161011b919061331f565b6101b0610850565b6101b061085f565b6101576101db366004612ccf565b61086e565b6101376101ee366004612c18565b610e4a565b610137610201366004612fc5565b610e68565b610157610214366004612ad5565b610fbd565b610137610227366004612fc5565b611073565b606081901c6bffffffffffffffffffffffff8216915091565b6bffffffffffffffffffffffff19606083901b166bffffffffffffffffffffffff8216175b92915050565b60015460405163747be51f60e11b81526001600160a01b039091169063e8f7ca3e906102a29085903390600401613393565b602060405180830381600087803b1580156102bc57600080fd5b505af11580156102d0573d6000803e3d6000fd5b505050506040513d601f19601f820116820180604052508101906102f49190612b38565b6103195760405162461bcd60e51b81526004016103109061390e565b60405180910390fd5b60015460405163f52f84e160e01b81526000916001600160a01b03169063f52f84e19061034a90869060040161338a565b60206040518083038186803b15801561036257600080fd5b505afa158015610376573d6000803e3d6000fd5b505050506040513d601f19601f8201168201806040525081019061039a9190612b6c565b146103b75760405162461bcd60e51b815260040161031090613b1d565b600154604051631d7a1ab960e21b81526000916001600160a01b0316906375e86ae4906103e890869060040161338a565b60206040518083038186803b15801561040057600080fd5b505afa158015610414573d6000803e3d6000fd5b505050506040513d601f19601f820116820180604052508101906104389190612b6c565b146104555760405162461bcd60e51b8152600401610310906138c0565b60015460405163b828204160e01b81526000916104dc916001600160a01b039091169063b82820419061048c90879060040161338a565b60206040518083038186803b1580156104a457600080fd5b505afa1580156104b8573d6000803e3d6000fd5b505050506040513d601f19601f8201168201806040525081019061016f9190612b6c565b91505060006104ea836105a4565b9150508115806104f957508181105b6105155760405162461bcd60e51b8152600401610310906136d3565b61051f84846110e7565b50505050565b61052d611690565b6000546001600160a01b0390811691161461055a5760405162461bcd60e51b815260040161031090613a4f565b600080546040516001600160a01b03909116907f8be0079c531659141344cd1fd0a4f28419497f9722a3daafe3b4186f6b6457e0908390a3600080546001600160a01b0319169055565b6000808060f884901c601c8111156105b857fe5b92505067ffffffffffffffff83169050915091565b600154604051631392c59160e11b81526001600160a01b03909116906327258b22906105fd90849060040161338a565b60206040518083038186803b15801561061557600080fd5b505afa158015610629573d6000803e3d6000fd5b505050506040513d601f19601f8201168201806040525081019061064d9190612b38565b6106695760405162461bcd60e51b815260040161031090613959565b600154604051630316dd6960e21b81526000916001600160a01b031690630c5b75a49061069a90859060040161338a565b602060405180830381600087803b1580156106b457600080fd5b505af11580156106c8573d6000803e3d6000fd5b505050506040513d601f19601f820116820180604052508101906106ec9190612b6c565b90508061077657600154604051631d7a1ab960e21b81526001600160a01b03909116906375e86ae49061072390859060040161338a565b60206040518083038186803b15801561073b57600080fd5b505afa15801561074f573d6000803e3d6000fd5b505050506040513d601f19601f820116820180604052508101906107739190612b6c565b90505b80610800576001546040516361db73e160e11b81526001600160a01b039091169063c3b6e7c2906107ab90859060040161338a565b602060405180830381600087803b1580156107c557600080fd5b505af11580156107d9573d6000803e3d6000fd5b505050506040513d601f19601f820116820180604052508101906107fd9190612b6c565b90505b8061081d5760405162461bcd60e51b815260040161031090613782565b61082782826110e7565b5050565b600081601c81111561083957fe5b90505b919050565b6000546001600160a01b031690565b6001546001600160a01b031681565b6002546001600160a01b031681565b6001600160a01b0384161580159061090157506011846001600160a01b031663cb2ef6f76040518163ffffffff1660e01b815260040160206040518083038186803b1580156108bc57600080fd5b505afa1580156108d0573d6000803e3d6000fd5b505050506040513d601f19601f820116820180604052508101906108f49190612bdd565b60128111156108ff57fe5b145b61091d5760405162461bcd60e51b815260040161031090613676565b60008742604051602001610932929190613c94565b6040516020818303038152906040528051906020012090506109526128c7565b60036109666102208b016102008c01612ba5565b600481111561097157fe5b1415610999576101a08901356109995760405162461bcd60e51b81526004016103109061380e565b60046109ad6102a08b016102808c01612ba5565b60048111156109b857fe5b1415610cef576102208901356109e05760405162461bcd60e51b815260040161031090613b68565b8884426040516020016109f593929190613c69565b60408051601f1981840301815290829052805160209091012060015463ecef557760e01b83529093506101a08b0135916000916001600160a01b03169063ecef557790610a469085906004016133f3565b60206040518083038186803b158015610a5e57600080fd5b505afa158015610a72573d6000803e3d6000fd5b505050506040513d601f19601f82011682018060405250810190610a96919061300c565b60ff16600c811115610aa457fe5b9050610aae6128c7565b60405163e50e0ef760e01b81526001600160a01b0387169063e50e0ef790610ada90869060040161338a565b60806040518083038186803b158015610af257600080fd5b505afa158015610b06573d6000803e3d6000fd5b505050506040513d601f19601f82011682018060405250810190610b2a9190612c67565b90506006610b3e60608e0160408f01612bc1565b600c811115610b4957fe5b148015610b615750600082600c811115610b5f57fe5b145b15610bbe57604051806080016040528082600001516001600160a01b0316815260200182602001516001600160a01b03168152602001886001600160a01b0316815260200182606001516001600160a01b03168152509350610c68565b6007610bd060608e0160408f01612bc1565b600c811115610bdb57fe5b148015610bf35750600182600c811115610bf157fe5b145b15610c50576040518060800160405280886001600160a01b0316815260200182602001516001600160a01b0316815260200182604001516001600160a01b0316815260200182606001516001600160a01b03168152509350610c68565b60405162461bcd60e51b8152600401610310906137c3565b866001600160a01b031663f1acef64868e876040518463ffffffff1660e01b8152600401610c9893929190613540565b602060405180830381600087803b158015610cb257600080fd5b505af1158015610cc6573d6000803e3d6000fd5b505050506040513d601f19601f82011682018060405250810190610cea9190612b38565b505050505b610cf76128ee565b604051632630a7a960e21b81526001600160a01b038816906398c29ea490610d23908d90600401613c5a565b6102806040518083038186803b158015610d3c57600080fd5b505afa158015610d50573d6000803e3d6000fd5b505050506040513d601f19601f82011682018060405250810190610d749190612ec8565b9050600160009054906101000a90046001600160a01b03166001600160a01b031663f82277d2848c848d8d888e308f6040518a63ffffffff1660e01b8152600401610dc799989796959493929190613563565b600060405180830381600087803b158015610de157600080fd5b505af1158015610df5573d6000803e3d6000fd5b50505050827fc5df678b84aa92f5f59981df8c9997b366d886de25771c5f753015c2e14e907a601184600001518560400151604051610e369392919061360c565b60405180910390a250505050505050505050565b60008160f884601c811115610e5b57fe5b60ff16901b179392505050565b600081851415610e79575083610fb5565b6001846008811115610e8757fe5b1480610e9e57506003846008811115610e9c57fe5b145b15610eb457610ead8584611694565b9050610fb5565b6002846008811115610ec257fe5b1480610ed957506004846008811115610ed757fe5b145b15610f1d576000610eea8685611694565b9050610ef5866116f0565b610efe826116f0565b1415610f0b579050610fb5565b610f158685611708565b915050610fb5565b6005846008811115610f2b57fe5b1480610f4257506007846008811115610f4057fe5b145b15610f5157610ead8584611708565b6006846008811115610f5f57fe5b1480610f7657506008846008811115610f7457fe5b145b15610fb2576000610f878685611708565b9050610f92866116f0565b610f9b826116f0565b1415610fa8579050610fb5565b610f158685611694565b50835b949350505050565b610fc5611690565b6000546001600160a01b03908116911614610ff25760405162461bcd60e51b815260040161031090613a4f565b6001600160a01b0381166110185760405162461bcd60e51b81526004016103109061371e565b600080546040516001600160a01b03808516939216917f8be0079c531659141344cd1fd0a4f28419497f9722a3daafe3b4186f6b6457e091a3600080546001600160a01b0319166001600160a01b0392909216919091179055565b6000600384600881111561108357fe5b148061109a5750600484600881111561109857fe5b145b806110b0575060078460088111156110ae57fe5b145b806110c6575060088460088111156110c457fe5b145b156110d2575083610fb5565b6110de85858585610e68565b95945050505050565b6110ef6128ee565b6001546040516309648a9d60e01b81526001600160a01b03909116906309648a9d9061111f90869060040161338a565b6102806040518083038186803b15801561113857600080fd5b505afa15801561114c573d6000803e3d6000fd5b505050506040513d601f19601f820116820180604052508101906111709190612ec8565b905060008151600581111561118157fe5b1480611199575060018151600581111561119757fe5b145b806111b057506002815160058111156111ae57fe5b145b6111cc5760405162461bcd60e51b815260040161031090613bc5565b6000815160058111156111db57fe5b1461126457600154604051631ba316dd60e11b81526001600160a01b03909116906337462dba9061121090869060040161338a565b6102806040518083038186803b15801561122957600080fd5b505afa15801561123d573d6000803e3d6000fd5b505050506040513d601f19601f820116820180604052508101906112619190612ec8565b90505b600080611270846105a4565b60015460405163ecef557760e01b8152929450909250429161141a9184916001600160a01b039091169063ecef5577906112ae908b90600401613499565b60206040518083038186803b1580156112c657600080fd5b505afa1580156112da573d6000803e3d6000fd5b505050506040513d601f19601f820116820180604052508101906112fe919061300c565b60ff16600881111561130c57fe5b60015460405163ecef557760e01b81526001600160a01b039091169063ecef55779061133c908c90600401613501565b60206040518083038186803b15801561135457600080fd5b505afa158015611368573d6000803e3d6000fd5b505050506040513d601f19601f8201168201806040525081019061138c919061300c565b60ff16600181111561139a57fe5b60015460405163135b9f4d60e01b81526001600160a01b039091169063135b9f4d906113ca908d906004016134c0565b60206040518083038186803b1580156113e257600080fd5b505afa1580156113f6573d6000803e3d6000fd5b505050506040513d601f19601f820116820180604052508101906102019190612b6c565b11156114385760405162461bcd60e51b815260040161031090613aca565b6114406128ee565b600061144d878688611756565b91509150600061145e8888846119dc565b9050806115625760008651600581111561147457fe5b14156114df5760015460405163067fe5d760e41b81526001600160a01b03909116906367fe5d70906114ac908b908a906004016135f7565b600060405180830381600087803b1580156114c657600080fd5b505af11580156114da573d6000803e3d6000fd5b505050505b60015460405163d981e77360e01b81526001600160a01b039091169063d981e77390611511908b908b906004016133aa565b600060405180830381600087803b15801561152b57600080fd5b505af115801561153f573d6000803e3d6000fd5b505050506000611550600b86610e4a565b905061155d898583611756565b509350505b600154604051631f61c37560e21b81526001600160a01b0390911690637d870dd490611594908b9087906004016135f7565b600060405180830381600087803b1580156115ae57600080fd5b505af11580156115c2573d6000803e3d6000fd5b50505050801515600114156116385760015460405163de07a17360e01b81526001600160a01b039091169063de07a17390611605908b908b9087906004016133b8565b600060405180830381600087803b15801561161f57600080fd5b505af1158015611633573d6000803e3d6000fd5b505050505b877fd255be8589971f117e0e4377177282fb7cce66e378bfb1b7eafddd05e4f181e960018315151461166b57600b61166d565b865b868560405161167e93929190613654565b60405180910390a25050505050505050565b3390565b600060018260018111156116a457fe5b14156116e9576116b383611e12565b600614156116cd576116c6836002611e25565b905061026a565b6116d683611e12565b600714156116e9576116c6836001611e25565b5090919050565b6000611700620151808304611e3a565b509392505050565b6000600182600181111561171857fe5b14156116e95761172783611e12565b6006141561173a576116c6836001611ed0565b61174383611e12565b600714156116e9576116c6836002611ed0565b61175e6128ee565b60015460405163ee43eda160e01b815260009182916001600160a01b039091169063ee43eda19061179390899060040161338a565b60206040518083038186803b1580156117ab57600080fd5b505afa1580156117bf573d6000803e3d6000fd5b505050506040513d601f19601f820116820180604052508101906117e39190612af1565b90506117ed612988565b6001546040516335f1cded60e11b81526001600160a01b0390911690636be39bda9061181d908a9060040161338a565b6102a06040518083038186803b15801561183657600080fd5b505afa15801561184a573d6000803e3d6000fd5b505050506040513d601f19601f8201168201806040525081019061186e9190612da1565b905060008061187c876105a4565b915091506000846001600160a01b031663c26b940b858b8b6118b78f896118b28a8d608001518e602001518f6101200151611073565b611ee5565b6040518563ffffffff1660e01b81526004016118d69493929190613cb1565b60206040518083038186803b1580156118ee57600080fd5b505afa158015611902573d6000803e3d6000fd5b505050506040513d601f19601f820116820180604052508101906119269190612b6c565b9050846001600160a01b031663d4f8d3f3858b8b61195d8f896119588a8d608001518e602001518f6101200151611073565b6120dc565b6040518563ffffffff1660e01b815260040161197c9493929190613cb1565b6102806040518083038186803b15801561199557600080fd5b505afa1580156119a9573d6000803e3d6000fd5b505050506040513d601f19601f820116820180604052508101906119cd9190612ec8565b9a909950975050505050505050565b600083158015906119ec57508215155b611a085760405162461bcd60e51b8152600401610310906139f2565b81611a1557506001611e0b565b60015460405163eb01255960e01b81526000916001600160a01b03169063eb01255990611a46908890600401613411565b60206040518083038186803b158015611a5e57600080fd5b505afa158015611a72573d6000803e3d6000fd5b505050506040513d601f19601f82011682018060405250810190611a969190612af1565b9050611aa0612a0a565b600154604051635e353ebb60e11b81526001600160a01b039091169063bc6a7d7690611ad09089906004016133ce565b60806040518083038186803b158015611ae857600080fd5b505afa158015611afc573d6000803e3d6000fd5b505050506040513d601f19601f82011682018060405250810190611b209190612ead565b9050600481606001516004811115611b3457fe5b1415611b49578051611b459061022c565b5091505b611b516128c7565b60015460405163e50e0ef760e01b81526001600160a01b039091169063e50e0ef790611b81908a9060040161338a565b60806040518083038186803b158015611b9957600080fd5b505afa158015611bad573d6000803e3d6000fd5b505050506040513d601f19601f82011682018060405250810190611bd19190612c67565b90506000806000871315611c00575060408201516001600160a01b038216611bfb57826020015191505b611c19565b5081516001600160a01b038216611c1957826060015191505b6000808813611c2c578760001902611c2e565b875b905080866001600160a01b031663dd62ed3e84306040518363ffffffff1660e01b8152600401611c5f929190613333565b60206040518083038186803b158015611c7757600080fd5b505afa158015611c8b573d6000803e3d6000fd5b505050506040513d601f19601f82011682018060405250810190611caf9190612b6c565b1080611d3657506040516370a0823160e01b815281906001600160a01b038816906370a0823190611ce490869060040161331f565b60206040518083038186803b158015611cfc57600080fd5b505afa158015611d10573d6000803e3d6000fd5b505050506040513d601f19601f82011682018060405250810190611d349190612b6c565b105b15611d8057897f4f269a19b64cfff0bdee7fd3cdaec44e1fe38ce2ff55d3009a89fac6ecbe9f2c604051611d6990613764565b60405180910390a260009650505050505050611e0b565b6040516323b872dd60e01b81526001600160a01b038716906323b872dd90611db09085908790869060040161334d565b602060405180830381600087803b158015611dca57600080fd5b505af1158015611dde573d6000803e3d6000fd5b505050506040513d601f19601f82011682018060405250810190611e029190612b38565b96505050505050505b9392505050565b6007620151809091046003010660010190565b62015180810282018281101561026a57600080fd5b60008080836226496581018262023ab1600483020590506004600362023ab18302010590910390600062164b09610fa0600185010205905060046105b58202058303601f019250600061098f8460500281611e9157fe5b0590506000605061098f83020585039050600b820560301994909401606402929092018301996002600c90940290910392909201975095509350505050565b62015180810282038281111561026a57600080fd5b60015460405163eb01255960e01b815260009182916001600160a01b039091169063eb01255990611f1a908890600401613411565b60206040518083038186803b158015611f3257600080fd5b505afa158015611f46573d6000803e3d6000fd5b505050506040513d601f19601f82011682018060405250810190611f6a9190612af1565b60015460405163eb01255960e01b81529192506000916001600160a01b039091169063eb01255990611fa0908990600401613475565b60206040518083038186803b158015611fb857600080fd5b505afa158015611fcc573d6000803e3d6000fd5b505050506040513d601f19601f82011682018060405250810190611ff09190612af1565b9050806001600160a01b0316826001600160a01b0316146120d35760025460405160009182916001600160a01b03909116906308a4ec10906120389087908790602001613333565b60405160208183030381529060405280519060200120886040518363ffffffff1660e01b815260040161206c9291906133aa565b604080518083038186803b15801561208357600080fd5b505afa158015612097573d6000803e3d6000fd5b505050506040513d601f19601f820116820180604052508101906120bb9190612c38565b9150915080156120d057509250611e0b915050565b50505b50509392505050565b6000600d83601c8111156120ec57fe5b141561220a5760025460015460405163354770f760e21b815260009283926001600160a01b03918216926308a4ec10929091169063d51dc3dc90612134908b90600401613446565b60206040518083038186803b15801561214c57600080fd5b505afa158015612160573d6000803e3d6000fd5b505050506040513d601f19601f820116820180604052508101906121849190612b6c565b866040518363ffffffff1660e01b81526004016121a29291906133aa565b604080518083038186803b1580156121b957600080fd5b505afa1580156121cd573d6000803e3d6000fd5b505050506040513d601f19601f820116820180604052508101906121f19190612c38565b91509150801561220357509050611e0b565b5050612801565b600b83601c81111561221857fe5b1415612225575042611e0b565b601a83601c81111561223357fe5b141561256657612241612a0a565b600154604051635e353ebb60e11b81526001600160a01b039091169063bc6a7d769061227190889060040161351b565b60806040518083038186803b15801561228957600080fd5b505afa15801561229d573d6000803e3d6000fd5b505050506040513d601f19601f820116820180604052508101906122c19190612ead565b90506003816060015160048111156122d557fe5b14156124065780516020820151604051631392c59160e11b81526001600160a01b038216906327258b229061230e90859060040161338a565b60206040518083038186803b15801561232657600080fd5b505afa15801561233a573d6000803e3d6000fd5b505050506040513d601f19601f8201168201806040525081019061235e9190612b38565b151560011461237f5760405162461bcd60e51b81526004016103109061386b565b604051636a899b9b60e01b81526001600160a01b03821690636a899b9b906123ab9085906004016134de565b60206040518083038186803b1580156123c357600080fd5b505afa1580156123d7573d6000803e3d6000fd5b505050506040513d601f19601f820116820180604052508101906123fb9190612b6c565b9350611e0b92505050565b61240e612a0a565b600154604051635e353ebb60e11b81526001600160a01b039091169063bc6a7d769061243e9089906004016133ce565b60806040518083038186803b15801561245657600080fd5b505afa15801561246a573d6000803e3d6000fd5b505050506040513d601f19601f8201168201806040525081019061248e9190612ead565b90506002816040015160048111156124a257fe5b1480156124be57506000816060015160048111156124bc57fe5b145b15612203576002548151604051628a4ec160e41b815260009283926001600160a01b03909116916308a4ec10916124f9918a906004016133aa565b604080518083038186803b15801561251057600080fd5b505afa158015612524573d6000803e3d6000fd5b505050506040513d601f19601f820116820180604052508101906125489190612c38565b91509150801561255d57509250611e0b915050565b50505050612801565b601783601c81111561257457fe5b141561280157612582612a0a565b600154604051635e353ebb60e11b81526001600160a01b039091169063bc6a7d76906125b290889060040161351b565b60806040518083038186803b1580156125ca57600080fd5b505afa1580156125de573d6000803e3d6000fd5b505050506040513d601f19601f820116820180604052508101906126029190612ead565b905060028160400151600481111561261657fe5b148015612632575060008160600151600481111561263057fe5b145b156127f7576002548151604051628a4ec160e41b815260009283926001600160a01b03909116916308a4ec109161266d9189906004016133aa565b604080518083038186803b15801561268457600080fd5b505afa158015612698573d6000803e3d6000fd5b505050506040513d601f19601f820116820180604052508101906126bc9190612c38565b600254855160015460405163135b9f4d60e01b815294965092945060009384936001600160a01b03938416936308a4ec10939291169063135b9f4d90612706908f9060040161342b565b60206040518083038186803b15801561271e57600080fd5b505afa158015612732573d6000803e3d6000fd5b505050506040513d601f19601f820116820180604052508101906127569190612b6c565b6040518363ffffffff1660e01b81526004016127739291906133aa565b604080518083038186803b15801561278a57600080fd5b505afa15801561279e573d6000803e3d6000fd5b505050506040513d601f19601f820116820180604052508101906127c29190612c38565b915091508280156127d05750805b156127f2576127e5848363ffffffff61280b16565b9550611e0b945050505050565b505050505b5060009050611e0b565b5060009392505050565b60008161282a5760405162461bcd60e51b815260040161031090613c16565b826128375750600061026a565b670de0b6b3a76400008381029084828161284d57fe5b051461286b5760405162461bcd60e51b815260040161031090613a84565b8260001914801561287f5750600160ff1b84145b1561289c5760405162461bcd60e51b815260040161031090613a84565b60008382816128a757fe5b05905080610fb55760405162461bcd60e51b8152600401610310906139a1565b60408051608081018252600080825260208201819052918101829052606081019190915290565b6040805161028081019091528060008152602001600081526020016000815260200160008152602001600081526020016000815260200160008152602001600081526020016000815260200160008152602001600081526020016000815260200160008152602001600081526020016000815260200160008152602001600081526020016000815260200160008152602001600081525090565b604080516101e0810190915280600081526020016000815260200160008152602001600081526020016000815260200160008152602001600081526020016000815260200160008152602001600081526020016000815260200160008152602001600081526020016129f8612a0a565b8152602001612a05612a0a565b905290565b60408051608081018252600080825260208201819052909182019081526020016000612a05565b803561026a81613e33565b805161026a81613e59565b805161026a81613e66565b805161026a81613e73565b805161026a81613e8d565b803561026a81613e9a565b805161026a81613e9a565b600060808284031215612a8f578081fd5b612a996080613dcd565b905081518152602082015160208201526040820151612ab781613e80565b60408201526060820151612aca81613e80565b606082015292915050565b600060208284031215612ae6578081fd5b8135611e0b81613e33565b600060208284031215612b02578081fd5b8151611e0b81613e33565b60008060408385031215612b1f578081fd5b8235612b2a81613e33565b946020939093013593505050565b600060208284031215612b49578081fd5b8151611e0b81613e4b565b600060208284031215612b65578081fd5b5035919050565b600060208284031215612b7d578081fd5b5051919050565b60008060408385031215612b96578182fd5b50508035926020909101359150565b600060208284031215612bb6578081fd5b8135611e0b81613e80565b600060208284031215612bd2578081fd5b8135611e0b81613e8d565b600060208284031215612bee578081fd5b8151611e0b81613e9a565b600060208284031215612c0a578081fd5b8135601d8110611e0b578182fd5b60008060408385031215612c2a578182fd5b8235601d8110612b2a578283fd5b60008060408385031215612c4a578182fd5b825191506020830151612c5c81613e4b565b809150509250929050565b600060808284031215612c78578081fd5b612c826080613dcd565b8251612c8d81613e33565b81526020830151612c9d81613e33565b60208201526040830151612cb081613e33565b60408201526060830151612cc381613e33565b60608201529392505050565b6000806000806000806000878903610340811215612ceb578384fd5b6102a080821215612cfa578485fd5b899850880135905067ffffffffffffffff80821115612d17578485fd5b818a018b601f820112612d28578586fd5b8035925081831115612d38578586fd5b8b60208085028301011115612d4b578586fd5b6020019750909550612d639050896102c08a01612a31565b9350612d73896102e08a01612a31565b9250612d83896103008a01612a31565b9150612d93896103208a01612a31565b905092959891949750929550565b60006102a08284031215612db3578081fd5b612dbe6101e0613dcd565b612dc88484612a73565b8152612dd78460208501612a47565b6020820152612de98460408501612a5d565b6040820152612dfb8460608501612a52565b6060820152612e0d8460808501612a3c565b6080820152612e1f8460a08501612a47565b60a0820152612e318460c08501612a52565b60c0820152612e438460e08501612a47565b60e0820152610100838101519082015261012080840151908201526101408084015190820152610160808401519082015261018080840151908201526101a0612e8e85828601612a7e565b90820152612ea0846102208501612a7e565b6101c08201529392505050565b600060808284031215612ebe578081fd5b611e0b8383612a7e565b6000610280808385031215612edb578182fd5b612ee481613dcd565b612eee8585612a52565b81526020848101519082015260408085015190820152606080850151908201526080808501519082015260a0808501519082015260c0808501519082015260e08085015190820152610100808501519082015261012080850151908201526101408085015190820152610160808501519082015261018080850151908201526101a080850151908201526101c080850151908201526101e080850151908201526102008085015190820152610220808501519082015261024080850151908201526102609384015193810193909352509092915050565b60008060008060808587031215612fda578182fd5b843593506020850135612fec81613e59565b92506040850135612ffc81613e66565b9396929550929360600135925050565b60006020828403121561301d578081fd5b815160ff81168114611e0b578182fd5b6009811061303757fe5b9052565b6002811061303757fe5b6006811061303757fe5b600d811061303757fe5b6013811061303757fe5b80516001600160a01b03908116835260208083015182169084015260408083015182169084015260609182015116910152565b602081016130ad836130a88385612a68565b613059565b6130b78183613e01565b6130c4602085018261303b565b50506130d36040820182613e1b565b6130e0604084018261304f565b506130ee6060820182613e0e565b6130fb6060840182613045565b506131096080820182613df4565b613116608084018261302d565b5061312460a0820182613e01565b61313160a084018261303b565b5061313f60c0820182613e0e565b61314c60c0840182613045565b5061315a60e0820182613e01565b61316760e084018261303b565b50610100818101359083015261012080820135908301526101408082013590830152610160808201359083015261018080820135908301526101a06131b08184018284016131c7565b506102206131c28184018284016131c7565b505050565b803582526020810135602083015260408101356131e381613e80565b6131ec81613e28565b604084015250606081013561320081613e80565b61320981613e28565b6060840152505050565b805182526020810151602083015261322e6040820151613e28565b60408301526132406060820151613e28565b60608301525050565b613254828251613045565b6020818101519083015260408082015190830152606080820151908301526080808201519083015260a0808201519083015260c0808201519083015260e08082015190830152610100808201519083015261012080820151908301526101408082015190830152610160808201519083015261018080820151908301526101a080820151908301526101c080820151908301526101e0808201519083015261020080820151908301526102208082015190830152610240808201519083015261026090810151910152565b6001600160a01b0391909116815260200190565b6001600160a01b0392831681529116602082015260400190565b6001600160a01b039384168152919092166020820152604081019190915260600190565b6001600160a01b03929092168252602082015260400190565b90815260200190565b9182526001600160a01b0316602082015260400190565b918252602082015260400190565b9283526020830191909152604082015260600190565b9081527231b7b73a3930b1ba2932b332b932b731b2af9960691b602082015260400190565b9081526b636f6e7472616374526f6c6560a01b602082015260400190565b9081526763757272656e637960c01b602082015260400190565b9081526869737375654461746560b81b602082015260400190565b9081527f6d61726b65744f626a656374436f646552617465526573657400000000000000602082015260400190565b90815271736574746c656d656e7443757272656e637960701b602082015260400190565b90815274313ab9b4b732b9b9a230bca1b7b73b32b73a34b7b760591b602082015260400190565b9081526b6d617475726974794461746560a01b602082015260400190565b908152701b9bdd1a5bdb985b141c9a5b98da5c185b607a1b602082015260400190565b9081526731b0b632b73230b960c11b602082015260400190565b90815272636f6e74726163745265666572656e63655f3160681b602082015260400190565b83815261034081016135556020830185613096565b610fb56102c0830184613063565b60006106408b8352613578602084018c613096565b6135866102c084018b613249565b610540830181905282018790526106606001600160fb1b038811156135a9578182fd5b60208802808a838601378301019081526135c7610560830187613063565b6001600160a01b039485166105e08301529284166106008201529216610620909201919091529695505050505050565b8281526102a08101611e0b6020830184613249565b6060810161361a8286613059565b6001600160a01b03938416602083015291909216604090920191909152919050565b60408101601d841061364a57fe5b9281526020015290565b60608101601d851061366257fe5b938152602081019290925260409091015290565b60208082526038908201527f414e4e4163746f722e696e697469616c697a653a20434f4e54524143545f545960408201527f50455f4f465f454e47494e455f554e535550504f525445440000000000000000606082015260800190565b6020808252602b908201527f426173654163746f722e70726f6772657373576974683a20464f554e445f454160408201526a149312515497d15591539560aa1b606082015260800190565b60208082526026908201527f4f776e61626c653a206e6577206f776e657220697320746865207a65726f206160408201526564647265737360d01b606082015260800190565b71494e53554646494349454e545f46554e445360701b815260200190565b60208082526021908201527f426173654163746f722e70726f67726573733a204e4f5f4e4558545f4556454e6040820152601560fa1b606082015260800190565b6020808252602b908201527f4345434163746f722e696e697469616c697a653a20494e56414c49445f434f4e60408201526a54524143545f524f4c455360a81b606082015260800190565b60208082526038908201527f4345434163746f722e696e697469616c697a653a20494e56414c49445f434f4e60408201527f54524143545f5245464552454e43455f315f4f424a4543540000000000000000606082015260800190565b60208082526035908201527f426173654163746f722e67657445787465726e616c44617461466f725354463a604082015274081054d4d15517d113d154d7d393d517d1561254d5605a1b606082015260800190565b6020808252602e908201527f426173654163746f722e70726f6772657373576974683a20464f554e445f554e60408201526d1111549316525391d7d15591539560921b606082015260800190565b6020808252602b908201527f426173654163746f722e70726f6772657373576974683a20554e415554484f5260408201526a24ad22a22fa9a2a72222a960a91b606082015260800190565b60208082526028908201527f426173654163746f722e70726f67726573733a2041535345545f444f45535f4e60408201526713d517d1561254d560c21b606082015260800190565b60208082526031908201527f5369676e65644d6174682e666c6f61744469763a2043414e4e4f545f524550526040820152704553454e545f4752414e554c415249545960781b606082015260800190565b6020808252603b908201527f426173654163746f722e736574746c655061796f6666466f724576656e743a2060408201527f494e56414c49445f46554e4354494f4e5f504152414d45544552530000000000606082015260800190565b6020808252818101527f4f776e61626c653a2063616c6c6572206973206e6f7420746865206f776e6572604082015260600190565b60208082526026908201527f5369676e65644d6174682e666c6f61744469763a204f564552464c4f575f4445604082015265151150d5115160d21b606082015260800190565b60208082526033908201527f414e4e4163746f722e70726f636573734576656e743a204e4558545f4556454e6040820152721517d393d517d6515517d4d0d2115115531151606a1b606082015260800190565b6020808252602b908201527f426173654163746f722e70726f6772657373576974683a20464f554e445f504560408201526a1391125391d7d15591539560aa1b606082015260800190565b60208082526038908201527f4345434163746f722e696e697469616c697a653a20494e56414c49445f434f4e60408201527f54524143545f5245464552454e43455f325f4f424a4543540000000000000000606082015260800190565b60208082526031908201527f426173654163746f722e70726f636573734576656e743a2041535345545f524560408201527041434845445f46494e414c5f535441544560781b606082015260800190565b60208082526024908201527f5369676e65644d6174682e666c6f61744469763a20444956494445445f42595f6040820152635a45524f60e01b606082015260800190565b6102a0810161026a8284613096565b6102e08101613c788286613096565b6001600160a01b03939093166102a08201526102c00152919050565b6102c08101613ca38285613096565b826102a08301529392505050565b600061056082019050613cc5828751613059565b6020860151613cd7602084018261303b565b506040860151613cea604084018261304f565b506060860151613cfd6060840182613045565b506080860151613d10608084018261302d565b5060a0860151613d2360a084018261303b565b5060c0860151613d3660c0840182613045565b5060e0860151613d4960e084018261303b565b50610100868101519083015261012080870151908301526101408087015190830152610160808701519083015261018080870151908301526101a080870151613d9482850182613213565b50506101c0860151613daa610220840182613213565b50613db96102a0830186613249565b610520820193909352610540015292915050565b60405181810167ffffffffffffffff81118282101715613dec57600080fd5b604052919050565b60008235611e0b81613e59565b60008235611e0b81613e66565b60008235611e0b81613e73565b60008235611e0b81613e8d565b806005811061083c57fe5b6001600160a01b0381168114613e4857600080fd5b50565b8015158114613e4857600080fd5b60098110613e4857600080fd5b60028110613e4857600080fd5b60068110613e4857600080fd5b60058110613e4857600080fd5b600d8110613e4857600080fd5b60138110613e4857600080fdfea2646970667358221220e7b29966543dd45db00de5c96f6e4c77b399c25b4f03a3b007f9cd8015e8b4dd64736f6c634300060b0033",
  "devdoc": {
    "kind": "dev",
    "methods": {
      "initialize((uint8,uint8,uint8,uint8,uint8,uint8,uint8,uint8,uint256,uint256,int256,int256,int256,(bytes32,bytes32,uint8,uint8),(bytes32,bytes32,uint8,uint8)),bytes32[],address,address,address,address)": {
        "params": {
          "admin": "address of the admin of the asset (optional)",
          "custodian": "address of the custodian of the collateral",
          "engine": "address of the ACTUS engine used for the spec. ContractType",
          "schedule": "schedule of the asset",
          "terms": "asset specific terms",
          "underlyingRegistry": "address of the asset registry where the underlying asset is stored"
        }
      },
      "owner()": {
        "details": "Returns the address of the current owner."
      },
      "progress(bytes32)": {
        "details": "Emits ProgressedAsset if the state of the asset was updated.",
        "params": {
          "assetId": "id of the asset"
        }
      },
      "progressWith(bytes32,bytes32)": {
        "details": "Emits ProgressedAsset if the state of the asset was updated.",
        "params": {
          "_event": "the unscheduled event",
          "assetId": "id of the asset"
        }
      },
      "renounceOwnership()": {
        "details": "Leaves the contract without owner. It will not be possible to call `onlyOwner` functions anymore. Can only be called by the current owner. NOTE: Renouncing ownership will leave the contract without an owner, thereby removing any functionality that is only available to the owner."
      },
      "transferOwnership(address)": {
        "details": "Transfers ownership of the contract to a new account (`newOwner`). Can only be called by the current owner."
      }
    },
    "title": "CECActor",
    "version": 1
  },
  "userdoc": {
    "kind": "user",
    "methods": {
      "getEpochOffset(uint8)": {
        "notice": "Returns the epoch offset for a given event type to determine the correct order of events if multiple events have the same timestamp"
      },
      "initialize((uint8,uint8,uint8,uint8,uint8,uint8,uint8,uint8,uint256,uint256,int256,int256,int256,(bytes32,bytes32,uint8,uint8),(bytes32,bytes32,uint8,uint8)),bytes32[],address,address,address,address)": {
        "notice": "Derives initial state of the asset terms and stores together with terms, schedule, ownership, engine, admin of the asset in the contract types specific AssetRegistry."
      },
      "progress(bytes32)": {
        "notice": "Proceeds with the next state of the asset based on the terms, the last state, market object data and the settlement status of current obligation, derived from either a prev. pending event, an event generated based on the current state of an underlying asset or the assets schedule."
      },
      "progressWith(bytes32,bytes32)": {
        "notice": "Proceeds with the next state of the asset based on the terms, the last state, market object data and the settlement status of current obligation, derived from a provided (unscheduled) event Reverts if the provided event violates the order of events."
      },
      "shiftCalcTime(uint256,uint8,uint8,uint256)": {
        "notice": "Used in POFs and STFs for DCFs. No shifting is applied if a Calc/Shift instead of Shift/Calc BDC is provided."
      }
    },
    "notice": "TODO",
    "version": 1
  },
  "storageLayout": {
    "storage": [
      {
        "astId": 38384,
        "contract": "contracts/Core/CEC/CECActor.sol:CECActor",
        "label": "_owner",
        "offset": 0,
        "slot": "0",
        "type": "t_address"
      },
      {
        "astId": 18929,
        "contract": "contracts/Core/CEC/CECActor.sol:CECActor",
        "label": "assetRegistry",
        "offset": 0,
        "slot": "1",
        "type": "t_contract(IAssetRegistry)20404"
      },
      {
        "astId": 18931,
        "contract": "contracts/Core/CEC/CECActor.sol:CECActor",
        "label": "dataRegistry",
        "offset": 0,
        "slot": "2",
        "type": "t_contract(IDataRegistry)23670"
      }
    ],
    "types": {
      "t_address": {
        "encoding": "inplace",
        "label": "address",
        "numberOfBytes": "20"
      },
      "t_contract(IAssetRegistry)20404": {
        "encoding": "inplace",
        "label": "contract IAssetRegistry",
        "numberOfBytes": "20"
      },
      "t_contract(IDataRegistry)23670": {
        "encoding": "inplace",
        "label": "contract IDataRegistry",
        "numberOfBytes": "20"
      }
    }
  },
  "gasEstimates": {
    "creation": {
      "codeDepositCost": "3218600",
      "executionCost": "infinite",
      "totalCost": "infinite"
    },
    "external": {
      "assetRegistry()": "1115",
      "dataRegistry()": "1137",
      "decodeCollateralObject(bytes32)": "394",
      "decodeEvent(bytes32)": "461",
      "encodeCollateralAsObject(address,uint256)": "485",
      "encodeEvent(uint8,uint256)": "435",
      "getEpochOffset(uint8)": "462",
      "initialize((uint8,uint8,uint8,uint8,uint8,uint8,uint8,uint8,uint256,uint256,int256,int256,int256,(bytes32,bytes32,uint8,uint8),(bytes32,bytes32,uint8,uint8)),bytes32[],address,address,address,address)": "infinite",
      "owner()": "1093",
      "progress(bytes32)": "infinite",
      "progressWith(bytes32,bytes32)": "infinite",
      "renounceOwnership()": "24227",
      "shiftCalcTime(uint256,uint8,uint8,uint256)": "infinite",
      "shiftEventTime(uint256,uint8,uint8,uint256)": "infinite",
      "transferOwnership(address)": "24499"
    },
    "internal": {
      "computeStateAndPayoffForEvent(bytes32,struct State memory,bytes32)": "infinite"
    }
  }
}