{
  "_format": "hh-sol-artifact-1",
  "contractName": "STKRegistry",
  "sourceName": "contracts/Core/STK/STKRegistry.sol",
  "abi": [
    {
      "inputs": [],
      "stateMutability": "nonpayable",
      "type": "constructor"
    },
    {
      "anonymous": false,
      "inputs": [
        {
          "indexed": true,
          "internalType": "bytes32",
          "name": "assetId",
          "type": "bytes32"
        },
        {
          "indexed": true,
          "internalType": "address",
          "name": "account",
          "type": "address"
        },
        {
          "indexed": false,
          "internalType": "bytes4",
          "name": "methodSignature",
          "type": "bytes4"
        }
      ],
      "name": "GrantedAccess",
      "type": "event"
    },
    {
      "anonymous": false,
      "inputs": [
        {
          "indexed": true,
          "internalType": "address",
          "name": "previousOwner",
          "type": "address"
        },
        {
          "indexed": true,
          "internalType": "address",
          "name": "newOwner",
          "type": "address"
        }
      ],
      "name": "OwnershipTransferred",
      "type": "event"
    },
    {
      "anonymous": false,
      "inputs": [
        {
          "indexed": false,
          "internalType": "bytes32",
          "name": "assetId",
          "type": "bytes32"
        }
      ],
      "name": "RegisteredAsset",
      "type": "event"
    },
    {
      "anonymous": false,
      "inputs": [
        {
          "indexed": true,
          "internalType": "bytes32",
          "name": "assetId",
          "type": "bytes32"
        },
        {
          "indexed": true,
          "internalType": "address",
          "name": "account",
          "type": "address"
        },
        {
          "indexed": false,
          "internalType": "bytes4",
          "name": "methodSignature",
          "type": "bytes4"
        }
      ],
      "name": "RevokedAccess",
      "type": "event"
    },
    {
      "anonymous": false,
      "inputs": [
        {
          "indexed": true,
          "internalType": "bytes32",
          "name": "assetId",
          "type": "bytes32"
        },
        {
          "indexed": false,
          "internalType": "address",
          "name": "prevActor",
          "type": "address"
        },
        {
          "indexed": false,
          "internalType": "address",
          "name": "newActor",
          "type": "address"
        }
      ],
      "name": "UpdatedActor",
      "type": "event"
    },
    {
      "anonymous": false,
      "inputs": [
        {
          "indexed": false,
          "internalType": "bytes32",
          "name": "assetId",
          "type": "bytes32"
        },
        {
          "indexed": false,
          "internalType": "address",
          "name": "prevBeneficiary",
          "type": "address"
        },
        {
          "indexed": false,
          "internalType": "address",
          "name": "newBeneficiary",
          "type": "address"
        }
      ],
      "name": "UpdatedBeneficiary",
      "type": "event"
    },
    {
      "anonymous": false,
      "inputs": [
        {
          "indexed": true,
          "internalType": "bytes32",
          "name": "assetId",
          "type": "bytes32"
        },
        {
          "indexed": false,
          "internalType": "address",
          "name": "prevEngine",
          "type": "address"
        },
        {
          "indexed": false,
          "internalType": "address",
          "name": "newEngine",
          "type": "address"
        }
      ],
      "name": "UpdatedEngine",
      "type": "event"
    },
    {
      "anonymous": false,
      "inputs": [
        {
          "indexed": true,
          "internalType": "bytes32",
          "name": "assetId",
          "type": "bytes32"
        },
        {
          "indexed": false,
          "internalType": "uint256",
          "name": "statusDate",
          "type": "uint256"
        }
      ],
      "name": "UpdatedFinalizedState",
      "type": "event"
    },
    {
      "anonymous": false,
      "inputs": [
        {
          "indexed": false,
          "internalType": "bytes32",
          "name": "assetId",
          "type": "bytes32"
        },
        {
          "indexed": false,
          "internalType": "address",
          "name": "prevObligor",
          "type": "address"
        },
        {
          "indexed": false,
          "internalType": "address",
          "name": "newObligor",
          "type": "address"
        }
      ],
      "name": "UpdatedObligor",
      "type": "event"
    },
    {
      "anonymous": false,
      "inputs": [
        {
          "indexed": true,
          "internalType": "bytes32",
          "name": "assetId",
          "type": "bytes32"
        },
        {
          "indexed": false,
          "internalType": "uint256",
          "name": "statusDate",
          "type": "uint256"
        }
      ],
      "name": "UpdatedState",
      "type": "event"
    },
    {
      "anonymous": false,
      "inputs": [
        {
          "indexed": true,
          "internalType": "bytes32",
          "name": "assetId",
          "type": "bytes32"
        }
      ],
      "name": "UpdatedTerms",
      "type": "event"
    },
    {
      "inputs": [
        {
          "internalType": "address",
          "name": "actor",
          "type": "address"
        }
      ],
      "name": "approveActor",
      "outputs": [],
      "stateMutability": "nonpayable",
      "type": "function"
    },
    {
      "inputs": [
        {
          "internalType": "address",
          "name": "",
          "type": "address"
        }
      ],
      "name": "approvedActors",
      "outputs": [
        {
          "internalType": "bool",
          "name": "",
          "type": "bool"
        }
      ],
      "stateMutability": "view",
      "type": "function"
    },
    {
      "inputs": [
        {
          "internalType": "bytes32",
          "name": "_event",
          "type": "bytes32"
        }
      ],
      "name": "decodeEvent",
      "outputs": [
        {
          "internalType": "enum EventType",
          "name": "",
          "type": "uint8"
        },
        {
          "internalType": "uint256",
          "name": "",
          "type": "uint256"
        }
      ],
      "stateMutability": "pure",
      "type": "function"
    },
    {
      "inputs": [
        {
          "internalType": "enum EventType",
          "name": "eventType",
          "type": "uint8"
        },
        {
          "internalType": "uint256",
          "name": "scheduleTime",
          "type": "uint256"
        }
      ],
      "name": "encodeEvent",
      "outputs": [
        {
          "internalType": "bytes32",
          "name": "",
          "type": "bytes32"
        }
      ],
      "stateMutability": "pure",
      "type": "function"
    },
    {
      "inputs": [
        {
          "internalType": "bytes32",
          "name": "assetId",
          "type": "bytes32"
        }
      ],
      "name": "getActor",
      "outputs": [
        {
          "internalType": "address",
          "name": "",
          "type": "address"
        }
      ],
      "stateMutability": "view",
      "type": "function"
    },
    {
      "inputs": [
        {
          "internalType": "bytes32",
          "name": "assetId",
          "type": "bytes32"
        },
        {
          "internalType": "bytes32",
          "name": "attribute",
          "type": "bytes32"
        }
      ],
      "name": "getAddressValueForTermsAttribute",
      "outputs": [
        {
          "internalType": "address",
          "name": "",
          "type": "address"
        }
      ],
      "stateMutability": "view",
      "type": "function"
    },
    {
      "inputs": [
        {
          "internalType": "bytes32",
          "name": "assetId",
          "type": "bytes32"
        },
        {
          "internalType": "bytes32",
          "name": "attribute",
          "type": "bytes32"
        }
      ],
      "name": "getBytes32ValueForTermsAttribute",
      "outputs": [
        {
          "internalType": "bytes32",
          "name": "",
          "type": "bytes32"
        }
      ],
      "stateMutability": "view",
      "type": "function"
    },
    {
      "inputs": [
        {
          "internalType": "bytes32",
          "name": "",
          "type": "bytes32"
        },
        {
          "internalType": "bytes32",
          "name": "",
          "type": "bytes32"
        }
      ],
      "name": "getContractReferenceValueForTermsAttribute",
      "outputs": [
        {
          "components": [
            {
              "internalType": "bytes32",
              "name": "object",
              "type": "bytes32"
            },
            {
              "internalType": "bytes32",
              "name": "object2",
              "type": "bytes32"
            },
            {
              "internalType": "enum ContractReferenceType",
              "name": "_type",
              "type": "uint8"
            },
            {
              "internalType": "enum ContractReferenceRole",
              "name": "role",
              "type": "uint8"
            }
          ],
          "internalType": "struct ContractReference",
          "name": "",
          "type": "tuple"
        }
      ],
      "stateMutability": "pure",
      "type": "function"
    },
    {
      "inputs": [
        {
          "internalType": "bytes32",
          "name": "assetId",
          "type": "bytes32"
        },
        {
          "internalType": "bytes32",
          "name": "attribute",
          "type": "bytes32"
        }
      ],
      "name": "getCycleValueForTermsAttribute",
      "outputs": [
        {
          "components": [
            {
              "internalType": "uint256",
              "name": "i",
              "type": "uint256"
            },
            {
              "internalType": "enum P",
              "name": "p",
              "type": "uint8"
            },
            {
              "internalType": "enum S",
              "name": "s",
              "type": "uint8"
            },
            {
              "internalType": "bool",
              "name": "isSet",
              "type": "bool"
            }
          ],
          "internalType": "struct IPS",
          "name": "",
          "type": "tuple"
        }
      ],
      "stateMutability": "view",
      "type": "function"
    },
    {
      "inputs": [
        {
          "internalType": "bytes32",
          "name": "assetId",
          "type": "bytes32"
        }
      ],
      "name": "getEngine",
      "outputs": [
        {
          "internalType": "address",
          "name": "",
          "type": "address"
        }
      ],
      "stateMutability": "view",
      "type": "function"
    },
    {
      "inputs": [
        {
          "internalType": "bytes32",
          "name": "assetId",
          "type": "bytes32"
        },
        {
          "internalType": "bytes32",
          "name": "attribute",
          "type": "bytes32"
        }
      ],
      "name": "getEnumValueForStateAttribute",
      "outputs": [
        {
          "internalType": "uint8",
          "name": "",
          "type": "uint8"
        }
      ],
      "stateMutability": "view",
      "type": "function"
    },
    {
      "inputs": [
        {
          "internalType": "bytes32",
          "name": "assetId",
          "type": "bytes32"
        },
        {
          "internalType": "bytes32",
          "name": "attribute",
          "type": "bytes32"
        }
      ],
      "name": "getEnumValueForTermsAttribute",
      "outputs": [
        {
          "internalType": "uint8",
          "name": "",
          "type": "uint8"
        }
      ],
      "stateMutability": "view",
      "type": "function"
    },
    {
      "inputs": [
        {
          "internalType": "enum EventType",
          "name": "eventType",
          "type": "uint8"
        }
      ],
      "name": "getEpochOffset",
      "outputs": [
        {
          "internalType": "uint256",
          "name": "",
          "type": "uint256"
        }
      ],
      "stateMutability": "pure",
      "type": "function"
    },
    {
      "inputs": [
        {
          "internalType": "bytes32",
          "name": "assetId",
          "type": "bytes32"
        },
        {
          "internalType": "uint256",
          "name": "index",
          "type": "uint256"
        }
      ],
      "name": "getEventAtIndex",
      "outputs": [
        {
          "internalType": "bytes32",
          "name": "",
          "type": "bytes32"
        }
      ],
      "stateMutability": "view",
      "type": "function"
    },
    {
      "inputs": [
        {
          "internalType": "bytes32",
          "name": "assetId",
          "type": "bytes32"
        }
      ],
      "name": "getExtension",
      "outputs": [
        {
          "internalType": "address",
          "name": "",
          "type": "address"
        }
      ],
      "stateMutability": "view",
      "type": "function"
    },
    {
      "inputs": [
        {
          "internalType": "bytes32",
          "name": "assetId",
          "type": "bytes32"
        }
      ],
      "name": "getFinalizedState",
      "outputs": [
        {
          "components": [
            {
              "internalType": "enum ContractPerformance",
              "name": "contractPerformance",
              "type": "uint8"
            },
            {
              "internalType": "uint256",
              "name": "statusDate",
              "type": "uint256"
            },
            {
              "internalType": "uint256",
              "name": "nonPerformingDate",
              "type": "uint256"
            },
            {
              "internalType": "uint256",
              "name": "maturityDate",
              "type": "uint256"
            },
            {
              "internalType": "uint256",
              "name": "exerciseDate",
              "type": "uint256"
            },
            {
              "internalType": "uint256",
              "name": "terminationDate",
              "type": "uint256"
            },
            {
              "internalType": "uint256",
              "name": "lastCouponFixingDate",
              "type": "uint256"
            },
            {
              "internalType": "uint256",
              "name": "lastDividendFixingDate",
              "type": "uint256"
            },
            {
              "internalType": "int256",
              "name": "notionalPrincipal",
              "type": "int256"
            },
            {
              "internalType": "int256",
              "name": "accruedInterest",
              "type": "int256"
            },
            {
              "internalType": "int256",
              "name": "feeAccrued",
              "type": "int256"
            },
            {
              "internalType": "int256",
              "name": "nominalInterestRate",
              "type": "int256"
            },
            {
              "internalType": "int256",
              "name": "interestScalingMultiplier",
              "type": "int256"
            },
            {
              "internalType": "int256",
              "name": "notionalScalingMultiplier",
              "type": "int256"
            },
            {
              "internalType": "int256",
              "name": "nextPrincipalRedemptionPayment",
              "type": "int256"
            },
            {
              "internalType": "int256",
              "name": "exerciseAmount",
              "type": "int256"
            },
            {
              "internalType": "int256",
              "name": "exerciseQuantity",
              "type": "int256"
            },
            {
              "internalType": "int256",
              "name": "quantity",
              "type": "int256"
            },
            {
              "internalType": "int256",
              "name": "couponAmountFixed",
              "type": "int256"
            },
            {
              "internalType": "int256",
              "name": "marginFactor",
              "type": "int256"
            },
            {
              "internalType": "int256",
              "name": "adjustmentFactor",
              "type": "int256"
            },
            {
              "internalType": "int256",
              "name": "dividendPaymentAmount",
              "type": "int256"
            },
            {
              "internalType": "int256",
              "name": "splitRatio",
              "type": "int256"
            }
          ],
          "internalType": "struct State",
          "name": "",
          "type": "tuple"
        }
      ],
      "stateMutability": "view",
      "type": "function"
    },
    {
      "inputs": [
        {
          "internalType": "bytes32",
          "name": "assetId",
          "type": "bytes32"
        },
        {
          "internalType": "bytes32",
          "name": "attribute",
          "type": "bytes32"
        }
      ],
      "name": "getIntValueForStateAttribute",
      "outputs": [
        {
          "internalType": "int256",
          "name": "",
          "type": "int256"
        }
      ],
      "stateMutability": "view",
      "type": "function"
    },
    {
      "inputs": [
        {
          "internalType": "bytes32",
          "name": "assetId",
          "type": "bytes32"
        },
        {
          "internalType": "bytes32",
          "name": "attribute",
          "type": "bytes32"
        }
      ],
      "name": "getIntValueForTermsAttribute",
      "outputs": [
        {
          "internalType": "int256",
          "name": "",
          "type": "int256"
        }
      ],
      "stateMutability": "view",
      "type": "function"
    },
    {
      "inputs": [
        {
          "internalType": "bytes32",
          "name": "assetId",
          "type": "bytes32"
        }
      ],
      "name": "getNextScheduleIndex",
      "outputs": [
        {
          "internalType": "uint256",
          "name": "",
          "type": "uint256"
        }
      ],
      "stateMutability": "view",
      "type": "function"
    },
    {
      "inputs": [
        {
          "internalType": "bytes32",
          "name": "assetId",
          "type": "bytes32"
        }
      ],
      "name": "getNextScheduledEvent",
      "outputs": [
        {
          "internalType": "bytes32",
          "name": "",
          "type": "bytes32"
        }
      ],
      "stateMutability": "view",
      "type": "function"
    },
    {
      "inputs": [
        {
          "internalType": "bytes32",
          "name": "assetId",
          "type": "bytes32"
        }
      ],
      "name": "getNextUnderlyingEvent",
      "outputs": [
        {
          "internalType": "bytes32",
          "name": "",
          "type": "bytes32"
        }
      ],
      "stateMutability": "view",
      "type": "function"
    },
    {
      "inputs": [
        {
          "internalType": "bytes32",
          "name": "assetId",
          "type": "bytes32"
        }
      ],
      "name": "getOwnership",
      "outputs": [
        {
          "components": [
            {
              "internalType": "address",
              "name": "creatorObligor",
              "type": "address"
            },
            {
              "internalType": "address",
              "name": "creatorBeneficiary",
              "type": "address"
            },
            {
              "internalType": "address",
              "name": "counterpartyObligor",
              "type": "address"
            },
            {
              "internalType": "address",
              "name": "counterpartyBeneficiary",
              "type": "address"
            }
          ],
          "internalType": "struct AssetOwnership",
          "name": "",
          "type": "tuple"
        }
      ],
      "stateMutability": "view",
      "type": "function"
    },
    {
      "inputs": [
        {
          "internalType": "bytes32",
          "name": "assetId",
          "type": "bytes32"
        }
      ],
      "name": "getPendingEvent",
      "outputs": [
        {
          "internalType": "bytes32",
          "name": "",
          "type": "bytes32"
        }
      ],
      "stateMutability": "view",
      "type": "function"
    },
    {
      "inputs": [
        {
          "internalType": "bytes32",
          "name": "assetId",
          "type": "bytes32"
        },
        {
          "internalType": "bytes32",
          "name": "attribute",
          "type": "bytes32"
        }
      ],
      "name": "getPeriodValueForTermsAttribute",
      "outputs": [
        {
          "components": [
            {
              "internalType": "uint256",
              "name": "i",
              "type": "uint256"
            },
            {
              "internalType": "enum P",
              "name": "p",
              "type": "uint8"
            },
            {
              "internalType": "bool",
              "name": "isSet",
              "type": "bool"
            }
          ],
          "internalType": "struct IP",
          "name": "",
          "type": "tuple"
        }
      ],
      "stateMutability": "view",
      "type": "function"
    },
    {
      "inputs": [
        {
          "internalType": "bytes32",
          "name": "assetId",
          "type": "bytes32"
        }
      ],
      "name": "getSchedule",
      "outputs": [
        {
          "internalType": "bytes32[]",
          "name": "",
          "type": "bytes32[]"
        }
      ],
      "stateMutability": "view",
      "type": "function"
    },
    {
      "inputs": [
        {
          "internalType": "bytes32",
          "name": "assetId",
          "type": "bytes32"
        }
      ],
      "name": "getScheduleLength",
      "outputs": [
        {
          "internalType": "uint256",
          "name": "",
          "type": "uint256"
        }
      ],
      "stateMutability": "view",
      "type": "function"
    },
    {
      "inputs": [
        {
          "internalType": "bytes32",
          "name": "assetId",
          "type": "bytes32"
        }
      ],
      "name": "getState",
      "outputs": [
        {
          "components": [
            {
              "internalType": "enum ContractPerformance",
              "name": "contractPerformance",
              "type": "uint8"
            },
            {
              "internalType": "uint256",
              "name": "statusDate",
              "type": "uint256"
            },
            {
              "internalType": "uint256",
              "name": "nonPerformingDate",
              "type": "uint256"
            },
            {
              "internalType": "uint256",
              "name": "maturityDate",
              "type": "uint256"
            },
            {
              "internalType": "uint256",
              "name": "exerciseDate",
              "type": "uint256"
            },
            {
              "internalType": "uint256",
              "name": "terminationDate",
              "type": "uint256"
            },
            {
              "internalType": "uint256",
              "name": "lastCouponFixingDate",
              "type": "uint256"
            },
            {
              "internalType": "uint256",
              "name": "lastDividendFixingDate",
              "type": "uint256"
            },
            {
              "internalType": "int256",
              "name": "notionalPrincipal",
              "type": "int256"
            },
            {
              "internalType": "int256",
              "name": "accruedInterest",
              "type": "int256"
            },
            {
              "internalType": "int256",
              "name": "feeAccrued",
              "type": "int256"
            },
            {
              "internalType": "int256",
              "name": "nominalInterestRate",
              "type": "int256"
            },
            {
              "internalType": "int256",
              "name": "interestScalingMultiplier",
              "type": "int256"
            },
            {
              "internalType": "int256",
              "name": "notionalScalingMultiplier",
              "type": "int256"
            },
            {
              "internalType": "int256",
              "name": "nextPrincipalRedemptionPayment",
              "type": "int256"
            },
            {
              "internalType": "int256",
              "name": "exerciseAmount",
              "type": "int256"
            },
            {
              "internalType": "int256",
              "name": "exerciseQuantity",
              "type": "int256"
            },
            {
              "internalType": "int256",
              "name": "quantity",
              "type": "int256"
            },
            {
              "internalType": "int256",
              "name": "couponAmountFixed",
              "type": "int256"
            },
            {
              "internalType": "int256",
              "name": "marginFactor",
              "type": "int256"
            },
            {
              "internalType": "int256",
              "name": "adjustmentFactor",
              "type": "int256"
            },
            {
              "internalType": "int256",
              "name": "dividendPaymentAmount",
              "type": "int256"
            },
            {
              "internalType": "int256",
              "name": "splitRatio",
              "type": "int256"
            }
          ],
          "internalType": "struct State",
          "name": "",
          "type": "tuple"
        }
      ],
      "stateMutability": "view",
      "type": "function"
    },
    {
      "inputs": [
        {
          "internalType": "bytes32",
          "name": "assetId",
          "type": "bytes32"
        }
      ],
      "name": "getTerms",
      "outputs": [
        {
          "components": [
            {
              "internalType": "enum ContractType",
              "name": "contractType",
              "type": "uint8"
            },
            {
              "internalType": "enum Calendar",
              "name": "calendar",
              "type": "uint8"
            },
            {
              "internalType": "enum ContractRole",
              "name": "contractRole",
              "type": "uint8"
            },
            {
              "internalType": "enum DayCountConvention",
              "name": "dayCountConvention",
              "type": "uint8"
            },
            {
              "internalType": "enum BusinessDayConvention",
              "name": "businessDayConvention",
              "type": "uint8"
            },
            {
              "internalType": "enum EndOfMonthConvention",
              "name": "endOfMonthConvention",
              "type": "uint8"
            },
            {
              "internalType": "enum RedeemableByIssuer",
              "name": "redeemableByIssuer",
              "type": "uint8"
            },
            {
              "internalType": "address",
              "name": "currency",
              "type": "address"
            },
            {
              "internalType": "address",
              "name": "settlementCurrency",
              "type": "address"
            },
            {
              "internalType": "uint256",
              "name": "contractDealDate",
              "type": "uint256"
            },
            {
              "internalType": "uint256",
              "name": "statusDate",
              "type": "uint256"
            },
            {
              "internalType": "uint256",
              "name": "issueDate",
              "type": "uint256"
            },
            {
              "internalType": "uint256",
              "name": "purchaseDate",
              "type": "uint256"
            },
            {
              "internalType": "uint256",
              "name": "cycleAnchorDateOfDividend",
              "type": "uint256"
            },
            {
              "internalType": "int256",
              "name": "nominalPrice",
              "type": "int256"
            },
            {
              "internalType": "int256",
              "name": "notionalPrincipal",
              "type": "int256"
            },
            {
              "internalType": "int256",
              "name": "issuePrice",
              "type": "int256"
            },
            {
              "internalType": "int256",
              "name": "quantity",
              "type": "int256"
            },
            {
              "internalType": "int256",
              "name": "priceAtPurchaseDate",
              "type": "int256"
            },
            {
              "internalType": "int256",
              "name": "redemptionPrice",
              "type": "int256"
            },
            {
              "internalType": "int256",
              "name": "priceAtTerminationDate",
              "type": "int256"
            },
            {
              "components": [
                {
                  "internalType": "uint256",
                  "name": "i",
                  "type": "uint256"
                },
                {
                  "internalType": "enum P",
                  "name": "p",
                  "type": "uint8"
                },
                {
                  "internalType": "bool",
                  "name": "isSet",
                  "type": "bool"
                }
              ],
              "internalType": "struct IP",
              "name": "dividendRecordPeriod",
              "type": "tuple"
            },
            {
              "components": [
                {
                  "internalType": "uint256",
                  "name": "i",
                  "type": "uint256"
                },
                {
                  "internalType": "enum P",
                  "name": "p",
                  "type": "uint8"
                },
                {
                  "internalType": "bool",
                  "name": "isSet",
                  "type": "bool"
                }
              ],
              "internalType": "struct IP",
              "name": "dividendPaymentPeriod",
              "type": "tuple"
            },
            {
              "components": [
                {
                  "internalType": "uint256",
                  "name": "i",
                  "type": "uint256"
                },
                {
                  "internalType": "enum P",
                  "name": "p",
                  "type": "uint8"
                },
                {
                  "internalType": "bool",
                  "name": "isSet",
                  "type": "bool"
                }
              ],
              "internalType": "struct IP",
              "name": "splitSettlementPeriod",
              "type": "tuple"
            },
            {
              "components": [
                {
                  "internalType": "uint256",
                  "name": "i",
                  "type": "uint256"
                },
                {
                  "internalType": "enum P",
                  "name": "p",
                  "type": "uint8"
                },
                {
                  "internalType": "bool",
                  "name": "isSet",
                  "type": "bool"
                }
              ],
              "internalType": "struct IP",
              "name": "redemptionRecordPeriod",
              "type": "tuple"
            },
            {
              "components": [
                {
                  "internalType": "uint256",
                  "name": "i",
                  "type": "uint256"
                },
                {
                  "internalType": "enum P",
                  "name": "p",
                  "type": "uint8"
                },
                {
                  "internalType": "bool",
                  "name": "isSet",
                  "type": "bool"
                }
              ],
              "internalType": "struct IP",
              "name": "redemptionPaymentPeriod",
              "type": "tuple"
            },
            {
              "components": [
                {
                  "internalType": "uint256",
                  "name": "i",
                  "type": "uint256"
                },
                {
                  "internalType": "enum P",
                  "name": "p",
                  "type": "uint8"
                },
                {
                  "internalType": "enum S",
                  "name": "s",
                  "type": "uint8"
                },
                {
                  "internalType": "bool",
                  "name": "isSet",
                  "type": "bool"
                }
              ],
              "internalType": "struct IPS",
              "name": "cycleOfDividend",
              "type": "tuple"
            }
          ],
          "internalType": "struct STKTerms",
          "name": "",
          "type": "tuple"
        }
      ],
      "stateMutability": "view",
      "type": "function"
    },
    {
      "inputs": [
        {
          "internalType": "bytes32",
          "name": "assetId",
          "type": "bytes32"
        },
        {
          "internalType": "bytes32",
          "name": "attribute",
          "type": "bytes32"
        }
      ],
      "name": "getUIntValueForTermsAttribute",
      "outputs": [
        {
          "internalType": "uint256",
          "name": "",
          "type": "uint256"
        }
      ],
      "stateMutability": "view",
      "type": "function"
    },
    {
      "inputs": [
        {
          "internalType": "bytes32",
          "name": "assetId",
          "type": "bytes32"
        },
        {
          "internalType": "bytes32",
          "name": "attribute",
          "type": "bytes32"
        }
      ],
      "name": "getUintValueForStateAttribute",
      "outputs": [
        {
          "internalType": "uint256",
          "name": "",
          "type": "uint256"
        }
      ],
      "stateMutability": "view",
      "type": "function"
    },
    {
      "inputs": [
        {
          "internalType": "bytes32",
          "name": "assetId",
          "type": "bytes32"
        },
        {
          "internalType": "bytes4",
          "name": "methodSignature",
          "type": "bytes4"
        },
        {
          "internalType": "address",
          "name": "account",
          "type": "address"
        }
      ],
      "name": "grantAccess",
      "outputs": [],
      "stateMutability": "nonpayable",
      "type": "function"
    },
    {
      "inputs": [
        {
          "internalType": "bytes32",
          "name": "assetId",
          "type": "bytes32"
        },
        {
          "internalType": "bytes4",
          "name": "methodSignature",
          "type": "bytes4"
        },
        {
          "internalType": "address",
          "name": "account",
          "type": "address"
        }
      ],
      "name": "hasAccess",
      "outputs": [
        {
          "internalType": "bool",
          "name": "",
          "type": "bool"
        }
      ],
      "stateMutability": "view",
      "type": "function"
    },
    {
      "inputs": [
        {
          "internalType": "bytes32",
          "name": "assetId",
          "type": "bytes32"
        },
        {
          "internalType": "address",
          "name": "account",
          "type": "address"
        }
      ],
      "name": "hasRootAccess",
      "outputs": [
        {
          "internalType": "bool",
          "name": "",
          "type": "bool"
        }
      ],
      "stateMutability": "view",
      "type": "function"
    },
    {
      "inputs": [
        {
          "internalType": "bytes32",
          "name": "assetId",
          "type": "bytes32"
        },
        {
          "internalType": "bytes32",
          "name": "_event",
          "type": "bytes32"
        }
      ],
      "name": "isEventSettled",
      "outputs": [
        {
          "internalType": "bool",
          "name": "",
          "type": "bool"
        },
        {
          "internalType": "int256",
          "name": "",
          "type": "int256"
        }
      ],
      "stateMutability": "view",
      "type": "function"
    },
    {
      "inputs": [
        {
          "internalType": "bytes32",
          "name": "assetId",
          "type": "bytes32"
        }
      ],
      "name": "isRegistered",
      "outputs": [
        {
          "internalType": "bool",
          "name": "",
          "type": "bool"
        }
      ],
      "stateMutability": "view",
      "type": "function"
    },
    {
      "inputs": [
        {
          "internalType": "bytes32",
          "name": "assetId",
          "type": "bytes32"
        },
        {
          "internalType": "bytes32",
          "name": "_event",
          "type": "bytes32"
        },
        {
          "internalType": "int256",
          "name": "_payoff",
          "type": "int256"
        }
      ],
      "name": "markEventAsSettled",
      "outputs": [],
      "stateMutability": "nonpayable",
      "type": "function"
    },
    {
      "inputs": [],
      "name": "owner",
      "outputs": [
        {
          "internalType": "address",
          "name": "",
          "type": "address"
        }
      ],
      "stateMutability": "view",
      "type": "function"
    },
    {
      "inputs": [
        {
          "internalType": "bytes32",
          "name": "assetId",
          "type": "bytes32"
        }
      ],
      "name": "popNextScheduledEvent",
      "outputs": [
        {
          "internalType": "bytes32",
          "name": "",
          "type": "bytes32"
        }
      ],
      "stateMutability": "nonpayable",
      "type": "function"
    },
    {
      "inputs": [
        {
          "internalType": "bytes32",
          "name": "assetId",
          "type": "bytes32"
        }
      ],
      "name": "popPendingEvent",
      "outputs": [
        {
          "internalType": "bytes32",
          "name": "",
          "type": "bytes32"
        }
      ],
      "stateMutability": "nonpayable",
      "type": "function"
    },
    {
      "inputs": [
        {
          "internalType": "bytes32",
          "name": "assetId",
          "type": "bytes32"
        },
        {
          "internalType": "bytes32",
          "name": "pendingEvent",
          "type": "bytes32"
        }
      ],
      "name": "pushPendingEvent",
      "outputs": [],
      "stateMutability": "nonpayable",
      "type": "function"
    },
    {
      "inputs": [
        {
          "internalType": "bytes32",
          "name": "assetId",
          "type": "bytes32"
        },
        {
          "components": [
            {
              "internalType": "enum ContractType",
              "name": "contractType",
              "type": "uint8"
            },
            {
              "internalType": "enum Calendar",
              "name": "calendar",
              "type": "uint8"
            },
            {
              "internalType": "enum ContractRole",
              "name": "contractRole",
              "type": "uint8"
            },
            {
              "internalType": "enum DayCountConvention",
              "name": "dayCountConvention",
              "type": "uint8"
            },
            {
              "internalType": "enum BusinessDayConvention",
              "name": "businessDayConvention",
              "type": "uint8"
            },
            {
              "internalType": "enum EndOfMonthConvention",
              "name": "endOfMonthConvention",
              "type": "uint8"
            },
            {
              "internalType": "enum RedeemableByIssuer",
              "name": "redeemableByIssuer",
              "type": "uint8"
            },
            {
              "internalType": "address",
              "name": "currency",
              "type": "address"
            },
            {
              "internalType": "address",
              "name": "settlementCurrency",
              "type": "address"
            },
            {
              "internalType": "uint256",
              "name": "contractDealDate",
              "type": "uint256"
            },
            {
              "internalType": "uint256",
              "name": "statusDate",
              "type": "uint256"
            },
            {
              "internalType": "uint256",
              "name": "issueDate",
              "type": "uint256"
            },
            {
              "internalType": "uint256",
              "name": "purchaseDate",
              "type": "uint256"
            },
            {
              "internalType": "uint256",
              "name": "cycleAnchorDateOfDividend",
              "type": "uint256"
            },
            {
              "internalType": "int256",
              "name": "nominalPrice",
              "type": "int256"
            },
            {
              "internalType": "int256",
              "name": "notionalPrincipal",
              "type": "int256"
            },
            {
              "internalType": "int256",
              "name": "issuePrice",
              "type": "int256"
            },
            {
              "internalType": "int256",
              "name": "quantity",
              "type": "int256"
            },
            {
              "internalType": "int256",
              "name": "priceAtPurchaseDate",
              "type": "int256"
            },
            {
              "internalType": "int256",
              "name": "redemptionPrice",
              "type": "int256"
            },
            {
              "internalType": "int256",
              "name": "priceAtTerminationDate",
              "type": "int256"
            },
            {
              "components": [
                {
                  "internalType": "uint256",
                  "name": "i",
                  "type": "uint256"
                },
                {
                  "internalType": "enum P",
                  "name": "p",
                  "type": "uint8"
                },
                {
                  "internalType": "bool",
                  "name": "isSet",
                  "type": "bool"
                }
              ],
              "internalType": "struct IP",
              "name": "dividendRecordPeriod",
              "type": "tuple"
            },
            {
              "components": [
                {
                  "internalType": "uint256",
                  "name": "i",
                  "type": "uint256"
                },
                {
                  "internalType": "enum P",
                  "name": "p",
                  "type": "uint8"
                },
                {
                  "internalType": "bool",
                  "name": "isSet",
                  "type": "bool"
                }
              ],
              "internalType": "struct IP",
              "name": "dividendPaymentPeriod",
              "type": "tuple"
            },
            {
              "components": [
                {
                  "internalType": "uint256",
                  "name": "i",
                  "type": "uint256"
                },
                {
                  "internalType": "enum P",
                  "name": "p",
                  "type": "uint8"
                },
                {
                  "internalType": "bool",
                  "name": "isSet",
                  "type": "bool"
                }
              ],
              "internalType": "struct IP",
              "name": "splitSettlementPeriod",
              "type": "tuple"
            },
            {
              "components": [
                {
                  "internalType": "uint256",
                  "name": "i",
                  "type": "uint256"
                },
                {
                  "internalType": "enum P",
                  "name": "p",
                  "type": "uint8"
                },
                {
                  "internalType": "bool",
                  "name": "isSet",
                  "type": "bool"
                }
              ],
              "internalType": "struct IP",
              "name": "redemptionRecordPeriod",
              "type": "tuple"
            },
            {
              "components": [
                {
                  "internalType": "uint256",
                  "name": "i",
                  "type": "uint256"
                },
                {
                  "internalType": "enum P",
                  "name": "p",
                  "type": "uint8"
                },
                {
                  "internalType": "bool",
                  "name": "isSet",
                  "type": "bool"
                }
              ],
              "internalType": "struct IP",
              "name": "redemptionPaymentPeriod",
              "type": "tuple"
            },
            {
              "components": [
                {
                  "internalType": "uint256",
                  "name": "i",
                  "type": "uint256"
                },
                {
                  "internalType": "enum P",
                  "name": "p",
                  "type": "uint8"
                },
                {
                  "internalType": "enum S",
                  "name": "s",
                  "type": "uint8"
                },
                {
                  "internalType": "bool",
                  "name": "isSet",
                  "type": "bool"
                }
              ],
              "internalType": "struct IPS",
              "name": "cycleOfDividend",
              "type": "tuple"
            }
          ],
          "internalType": "struct STKTerms",
          "name": "terms",
          "type": "tuple"
        },
        {
          "components": [
            {
              "internalType": "enum ContractPerformance",
              "name": "contractPerformance",
              "type": "uint8"
            },
            {
              "internalType": "uint256",
              "name": "statusDate",
              "type": "uint256"
            },
            {
              "internalType": "uint256",
              "name": "nonPerformingDate",
              "type": "uint256"
            },
            {
              "internalType": "uint256",
              "name": "maturityDate",
              "type": "uint256"
            },
            {
              "internalType": "uint256",
              "name": "exerciseDate",
              "type": "uint256"
            },
            {
              "internalType": "uint256",
              "name": "terminationDate",
              "type": "uint256"
            },
            {
              "internalType": "uint256",
              "name": "lastCouponFixingDate",
              "type": "uint256"
            },
            {
              "internalType": "uint256",
              "name": "lastDividendFixingDate",
              "type": "uint256"
            },
            {
              "internalType": "int256",
              "name": "notionalPrincipal",
              "type": "int256"
            },
            {
              "internalType": "int256",
              "name": "accruedInterest",
              "type": "int256"
            },
            {
              "internalType": "int256",
              "name": "feeAccrued",
              "type": "int256"
            },
            {
              "internalType": "int256",
              "name": "nominalInterestRate",
              "type": "int256"
            },
            {
              "internalType": "int256",
              "name": "interestScalingMultiplier",
              "type": "int256"
            },
            {
              "internalType": "int256",
              "name": "notionalScalingMultiplier",
              "type": "int256"
            },
            {
              "internalType": "int256",
              "name": "nextPrincipalRedemptionPayment",
              "type": "int256"
            },
            {
              "internalType": "int256",
              "name": "exerciseAmount",
              "type": "int256"
            },
            {
              "internalType": "int256",
              "name": "exerciseQuantity",
              "type": "int256"
            },
            {
              "internalType": "int256",
              "name": "quantity",
              "type": "int256"
            },
            {
              "internalType": "int256",
              "name": "couponAmountFixed",
              "type": "int256"
            },
            {
              "internalType": "int256",
              "name": "marginFactor",
              "type": "int256"
            },
            {
              "internalType": "int256",
              "name": "adjustmentFactor",
              "type": "int256"
            },
            {
              "internalType": "int256",
              "name": "dividendPaymentAmount",
              "type": "int256"
            },
            {
              "internalType": "int256",
              "name": "splitRatio",
              "type": "int256"
            }
          ],
          "internalType": "struct State",
          "name": "state",
          "type": "tuple"
        },
        {
          "internalType": "bytes32[]",
          "name": "schedule",
          "type": "bytes32[]"
        },
        {
          "components": [
            {
              "internalType": "address",
              "name": "creatorObligor",
              "type": "address"
            },
            {
              "internalType": "address",
              "name": "creatorBeneficiary",
              "type": "address"
            },
            {
              "internalType": "address",
              "name": "counterpartyObligor",
              "type": "address"
            },
            {
              "internalType": "address",
              "name": "counterpartyBeneficiary",
              "type": "address"
            }
          ],
          "internalType": "struct AssetOwnership",
          "name": "ownership",
          "type": "tuple"
        },
        {
          "internalType": "address",
          "name": "engine",
          "type": "address"
        },
        {
          "internalType": "address",
          "name": "actor",
          "type": "address"
        },
        {
          "internalType": "address",
          "name": "admin",
          "type": "address"
        }
      ],
      "name": "registerAsset",
      "outputs": [],
      "stateMutability": "nonpayable",
      "type": "function"
    },
    {
      "inputs": [],
      "name": "renounceOwnership",
      "outputs": [],
      "stateMutability": "nonpayable",
      "type": "function"
    },
    {
      "inputs": [
        {
          "internalType": "bytes32",
          "name": "assetId",
          "type": "bytes32"
        },
        {
          "internalType": "bytes4",
          "name": "methodSignature",
          "type": "bytes4"
        },
        {
          "internalType": "address",
          "name": "account",
          "type": "address"
        }
      ],
      "name": "revokeAccess",
      "outputs": [],
      "stateMutability": "nonpayable",
      "type": "function"
    },
    {
      "inputs": [
        {
          "internalType": "bytes32",
          "name": "assetId",
          "type": "bytes32"
        },
        {
          "internalType": "address",
          "name": "actor",
          "type": "address"
        }
      ],
      "name": "setActor",
      "outputs": [],
      "stateMutability": "nonpayable",
      "type": "function"
    },
    {
      "inputs": [
        {
          "internalType": "bytes32",
          "name": "assetId",
          "type": "bytes32"
        },
        {
          "internalType": "address",
          "name": "newCounterpartyBeneficiary",
          "type": "address"
        }
      ],
      "name": "setCounterpartyBeneficiary",
      "outputs": [],
      "stateMutability": "nonpayable",
      "type": "function"
    },
    {
      "inputs": [
        {
          "internalType": "bytes32",
          "name": "assetId",
          "type": "bytes32"
        },
        {
          "internalType": "address",
          "name": "newCounterpartyObligor",
          "type": "address"
        }
      ],
      "name": "setCounterpartyObligor",
      "outputs": [],
      "stateMutability": "nonpayable",
      "type": "function"
    },
    {
      "inputs": [
        {
          "internalType": "bytes32",
          "name": "assetId",
          "type": "bytes32"
        },
        {
          "internalType": "address",
          "name": "newCreatorBeneficiary",
          "type": "address"
        }
      ],
      "name": "setCreatorBeneficiary",
      "outputs": [],
      "stateMutability": "nonpayable",
      "type": "function"
    },
    {
      "inputs": [
        {
          "internalType": "bytes32",
          "name": "assetId",
          "type": "bytes32"
        },
        {
          "internalType": "address",
          "name": "newCreatorObligor",
          "type": "address"
        }
      ],
      "name": "setCreatorObligor",
      "outputs": [],
      "stateMutability": "nonpayable",
      "type": "function"
    },
    {
      "inputs": [
        {
          "internalType": "bytes32",
          "name": "assetId",
          "type": "bytes32"
        },
        {
          "internalType": "address",
          "name": "engine",
          "type": "address"
        }
      ],
      "name": "setEngine",
      "outputs": [],
      "stateMutability": "nonpayable",
      "type": "function"
    },
    {
      "inputs": [
        {
          "internalType": "bytes32",
          "name": "assetId",
          "type": "bytes32"
        },
        {
          "internalType": "address",
          "name": "extension",
          "type": "address"
        }
      ],
      "name": "setExtension",
      "outputs": [],
      "stateMutability": "nonpayable",
      "type": "function"
    },
    {
      "inputs": [
        {
          "internalType": "bytes32",
          "name": "assetId",
          "type": "bytes32"
        },
        {
          "components": [
            {
              "internalType": "enum ContractPerformance",
              "name": "contractPerformance",
              "type": "uint8"
            },
            {
              "internalType": "uint256",
              "name": "statusDate",
              "type": "uint256"
            },
            {
              "internalType": "uint256",
              "name": "nonPerformingDate",
              "type": "uint256"
            },
            {
              "internalType": "uint256",
              "name": "maturityDate",
              "type": "uint256"
            },
            {
              "internalType": "uint256",
              "name": "exerciseDate",
              "type": "uint256"
            },
            {
              "internalType": "uint256",
              "name": "terminationDate",
              "type": "uint256"
            },
            {
              "internalType": "uint256",
              "name": "lastCouponFixingDate",
              "type": "uint256"
            },
            {
              "internalType": "uint256",
              "name": "lastDividendFixingDate",
              "type": "uint256"
            },
            {
              "internalType": "int256",
              "name": "notionalPrincipal",
              "type": "int256"
            },
            {
              "internalType": "int256",
              "name": "accruedInterest",
              "type": "int256"
            },
            {
              "internalType": "int256",
              "name": "feeAccrued",
              "type": "int256"
            },
            {
              "internalType": "int256",
              "name": "nominalInterestRate",
              "type": "int256"
            },
            {
              "internalType": "int256",
              "name": "interestScalingMultiplier",
              "type": "int256"
            },
            {
              "internalType": "int256",
              "name": "notionalScalingMultiplier",
              "type": "int256"
            },
            {
              "internalType": "int256",
              "name": "nextPrincipalRedemptionPayment",
              "type": "int256"
            },
            {
              "internalType": "int256",
              "name": "exerciseAmount",
              "type": "int256"
            },
            {
              "internalType": "int256",
              "name": "exerciseQuantity",
              "type": "int256"
            },
            {
              "internalType": "int256",
              "name": "quantity",
              "type": "int256"
            },
            {
              "internalType": "int256",
              "name": "couponAmountFixed",
              "type": "int256"
            },
            {
              "internalType": "int256",
              "name": "marginFactor",
              "type": "int256"
            },
            {
              "internalType": "int256",
              "name": "adjustmentFactor",
              "type": "int256"
            },
            {
              "internalType": "int256",
              "name": "dividendPaymentAmount",
              "type": "int256"
            },
            {
              "internalType": "int256",
              "name": "splitRatio",
              "type": "int256"
            }
          ],
          "internalType": "struct State",
          "name": "state",
          "type": "tuple"
        }
      ],
      "name": "setFinalizedState",
      "outputs": [],
      "stateMutability": "nonpayable",
      "type": "function"
    },
    {
      "inputs": [
        {
          "internalType": "bytes32",
          "name": "assetId",
          "type": "bytes32"
        },
        {
          "components": [
            {
              "internalType": "enum ContractPerformance",
              "name": "contractPerformance",
              "type": "uint8"
            },
            {
              "internalType": "uint256",
              "name": "statusDate",
              "type": "uint256"
            },
            {
              "internalType": "uint256",
              "name": "nonPerformingDate",
              "type": "uint256"
            },
            {
              "internalType": "uint256",
              "name": "maturityDate",
              "type": "uint256"
            },
            {
              "internalType": "uint256",
              "name": "exerciseDate",
              "type": "uint256"
            },
            {
              "internalType": "uint256",
              "name": "terminationDate",
              "type": "uint256"
            },
            {
              "internalType": "uint256",
              "name": "lastCouponFixingDate",
              "type": "uint256"
            },
            {
              "internalType": "uint256",
              "name": "lastDividendFixingDate",
              "type": "uint256"
            },
            {
              "internalType": "int256",
              "name": "notionalPrincipal",
              "type": "int256"
            },
            {
              "internalType": "int256",
              "name": "accruedInterest",
              "type": "int256"
            },
            {
              "internalType": "int256",
              "name": "feeAccrued",
              "type": "int256"
            },
            {
              "internalType": "int256",
              "name": "nominalInterestRate",
              "type": "int256"
            },
            {
              "internalType": "int256",
              "name": "interestScalingMultiplier",
              "type": "int256"
            },
            {
              "internalType": "int256",
              "name": "notionalScalingMultiplier",
              "type": "int256"
            },
            {
              "internalType": "int256",
              "name": "nextPrincipalRedemptionPayment",
              "type": "int256"
            },
            {
              "internalType": "int256",
              "name": "exerciseAmount",
              "type": "int256"
            },
            {
              "internalType": "int256",
              "name": "exerciseQuantity",
              "type": "int256"
            },
            {
              "internalType": "int256",
              "name": "quantity",
              "type": "int256"
            },
            {
              "internalType": "int256",
              "name": "couponAmountFixed",
              "type": "int256"
            },
            {
              "internalType": "int256",
              "name": "marginFactor",
              "type": "int256"
            },
            {
              "internalType": "int256",
              "name": "adjustmentFactor",
              "type": "int256"
            },
            {
              "internalType": "int256",
              "name": "dividendPaymentAmount",
              "type": "int256"
            },
            {
              "internalType": "int256",
              "name": "splitRatio",
              "type": "int256"
            }
          ],
          "internalType": "struct State",
          "name": "state",
          "type": "tuple"
        }
      ],
      "name": "setState",
      "outputs": [],
      "stateMutability": "nonpayable",
      "type": "function"
    },
    {
      "inputs": [
        {
          "internalType": "bytes32",
          "name": "assetId",
          "type": "bytes32"
        },
        {
          "components": [
            {
              "internalType": "enum ContractType",
              "name": "contractType",
              "type": "uint8"
            },
            {
              "internalType": "enum Calendar",
              "name": "calendar",
              "type": "uint8"
            },
            {
              "internalType": "enum ContractRole",
              "name": "contractRole",
              "type": "uint8"
            },
            {
              "internalType": "enum DayCountConvention",
              "name": "dayCountConvention",
              "type": "uint8"
            },
            {
              "internalType": "enum BusinessDayConvention",
              "name": "businessDayConvention",
              "type": "uint8"
            },
            {
              "internalType": "enum EndOfMonthConvention",
              "name": "endOfMonthConvention",
              "type": "uint8"
            },
            {
              "internalType": "enum RedeemableByIssuer",
              "name": "redeemableByIssuer",
              "type": "uint8"
            },
            {
              "internalType": "address",
              "name": "currency",
              "type": "address"
            },
            {
              "internalType": "address",
              "name": "settlementCurrency",
              "type": "address"
            },
            {
              "internalType": "uint256",
              "name": "contractDealDate",
              "type": "uint256"
            },
            {
              "internalType": "uint256",
              "name": "statusDate",
              "type": "uint256"
            },
            {
              "internalType": "uint256",
              "name": "issueDate",
              "type": "uint256"
            },
            {
              "internalType": "uint256",
              "name": "purchaseDate",
              "type": "uint256"
            },
            {
              "internalType": "uint256",
              "name": "cycleAnchorDateOfDividend",
              "type": "uint256"
            },
            {
              "internalType": "int256",
              "name": "nominalPrice",
              "type": "int256"
            },
            {
              "internalType": "int256",
              "name": "notionalPrincipal",
              "type": "int256"
            },
            {
              "internalType": "int256",
              "name": "issuePrice",
              "type": "int256"
            },
            {
              "internalType": "int256",
              "name": "quantity",
              "type": "int256"
            },
            {
              "internalType": "int256",
              "name": "priceAtPurchaseDate",
              "type": "int256"
            },
            {
              "internalType": "int256",
              "name": "redemptionPrice",
              "type": "int256"
            },
            {
              "internalType": "int256",
              "name": "priceAtTerminationDate",
              "type": "int256"
            },
            {
              "components": [
                {
                  "internalType": "uint256",
                  "name": "i",
                  "type": "uint256"
                },
                {
                  "internalType": "enum P",
                  "name": "p",
                  "type": "uint8"
                },
                {
                  "internalType": "bool",
                  "name": "isSet",
                  "type": "bool"
                }
              ],
              "internalType": "struct IP",
              "name": "dividendRecordPeriod",
              "type": "tuple"
            },
            {
              "components": [
                {
                  "internalType": "uint256",
                  "name": "i",
                  "type": "uint256"
                },
                {
                  "internalType": "enum P",
                  "name": "p",
                  "type": "uint8"
                },
                {
                  "internalType": "bool",
                  "name": "isSet",
                  "type": "bool"
                }
              ],
              "internalType": "struct IP",
              "name": "dividendPaymentPeriod",
              "type": "tuple"
            },
            {
              "components": [
                {
                  "internalType": "uint256",
                  "name": "i",
                  "type": "uint256"
                },
                {
                  "internalType": "enum P",
                  "name": "p",
                  "type": "uint8"
                },
                {
                  "internalType": "bool",
                  "name": "isSet",
                  "type": "bool"
                }
              ],
              "internalType": "struct IP",
              "name": "splitSettlementPeriod",
              "type": "tuple"
            },
            {
              "components": [
                {
                  "internalType": "uint256",
                  "name": "i",
                  "type": "uint256"
                },
                {
                  "internalType": "enum P",
                  "name": "p",
                  "type": "uint8"
                },
                {
                  "internalType": "bool",
                  "name": "isSet",
                  "type": "bool"
                }
              ],
              "internalType": "struct IP",
              "name": "redemptionRecordPeriod",
              "type": "tuple"
            },
            {
              "components": [
                {
                  "internalType": "uint256",
                  "name": "i",
                  "type": "uint256"
                },
                {
                  "internalType": "enum P",
                  "name": "p",
                  "type": "uint8"
                },
                {
                  "internalType": "bool",
                  "name": "isSet",
                  "type": "bool"
                }
              ],
              "internalType": "struct IP",
              "name": "redemptionPaymentPeriod",
              "type": "tuple"
            },
            {
              "components": [
                {
                  "internalType": "uint256",
                  "name": "i",
                  "type": "uint256"
                },
                {
                  "internalType": "enum P",
                  "name": "p",
                  "type": "uint8"
                },
                {
                  "internalType": "enum S",
                  "name": "s",
                  "type": "uint8"
                },
                {
                  "internalType": "bool",
                  "name": "isSet",
                  "type": "bool"
                }
              ],
              "internalType": "struct IPS",
              "name": "cycleOfDividend",
              "type": "tuple"
            }
          ],
          "internalType": "struct STKTerms",
          "name": "terms",
          "type": "tuple"
        }
      ],
      "name": "setTerms",
      "outputs": [],
      "stateMutability": "nonpayable",
      "type": "function"
    },
    {
      "inputs": [
        {
          "internalType": "address",
          "name": "newOwner",
          "type": "address"
        }
      ],
      "name": "transferOwnership",
      "outputs": [],
      "stateMutability": "nonpayable",
      "type": "function"
    }
  ],
  "bytecode": "0x60806040523480156200001157600080fd5b5060006200001e6200006e565b600080546001600160a01b0319166001600160a01b0383169081178255604051929350917f8be0079c531659141344cd1fd0a4f28419497f9722a3daafe3b4186f6b6457e0908290a35062000072565b3390565b61538880620000826000396000f3fe608060405234801561001057600080fd5b50600436106103425760003560e01c80638da5cb5b116101b8578063ccfc347e11610104578063e7dc3188116100a2578063ecef55771161007c578063ecef55771461078a578063ee43eda11461079d578063f2fde38b146107b0578063f52f84e1146107c357610342565b8063e7dc318814610751578063e8f7ca3e14610764578063eb0125591461077757610342565b8063d981e773116100de578063d981e773146106f8578063de07a1731461070b578063e05a66e01461071e578063e50e0ef71461073157610342565b8063ccfc347e146106b2578063cf5aed12146106c5578063d51dc3dc146106e557610342565b8063b461dd4f11610171578063bc6a7d761161014b578063bc6a7d7614610659578063bd1f0a6c14610679578063c139626b1461068c578063c3b6e7c21461069f57610342565b8063b461dd4f14610612578063b828204114610625578063ba4d2d281461063857610342565b80638da5cb5b1461059157806394ef7c2c146105a6578063a17b75b5146105b9578063b02ca0c0146105cc578063b0b4888f146105df578063b3c45ebe146105ff57610342565b806339262e87116102925780636be39bda11610230578063725400031161020a578063725400031461053757806375e86ae414610558578063811322fb1461056b578063842962d51461057e57610342565b80636be39bda146104ef5780636fe55baa1461050f578063715018a61461052f57610342565b8063512872f41161026c578063512872f4146104b65780636031a094146104c9578063606aa07e146104dc5780636a899b9b146104dc57610342565b806339262e87146104705780633a60d6fe146104835780633adc277a1461049657610342565b80631717e867116102ff57806328e0f8a9116102d957806328e0f8a9146104245780632ab074b1146104375780633549d08d1461044a57806337462dba1461045d57610342565b80631717e867146103de5780631b126815146103f157806327258b221461041157610342565b806303a81a2a1461034757806309648a9d1461035c5780630c5b75a4146103855780630d62037a146103a55780630d799b85146103b8578063135b9f4d146103cb575b600080fd5b61035a610355366004613fbc565b6107d6565b005b61036f61036a366004613f8c565b6108ab565b60405161037c919061514e565b60405180910390f35b610398610393366004613f8c565b6108d2565b60405161037c919061490d565b61035a6103b3366004613fbc565b610949565b61035a6103c6366004613fbc565b6109ee565b6103986103d9366004613feb565b610aac565b61035a6103ec366004614037565b610b4b565b6104046103ff366004614037565b610c01565b60405161037c91906148f2565b61040461041f366004613f8c565b610c7e565b610398610432366004613f8c565b610c93565b61035a610445366004614084565b610ca8565b61035a610458366004613fbc565b610da8565b61036f61046b366004613f8c565b610e83565b61035a61047e366004614037565b610ea2565b61035a610491366004614197565b610f47565b6104a96104a4366004613f8c565b611007565b60405161037c91906148ae565b61035a6104c4366004613fbc565b611021565b61035a6104d7366004613fbc565b6110e8565b6103986104ea366004613feb565b6111c3565b6105026104fd366004613f8c565b6111db565b60405161037c91906150f6565b61052261051d366004613feb565b611279565b60405161037c91906150e8565b61035a611318565b61054a610545366004613f8c565b6113cc565b60405161037c9291906149d2565b610398610566366004613f8c565b6113f5565b6103986105793660046141bb565b6117c9565b61035a61058c366004614197565b6117d7565b61059961188a565b60405161037c9190614880565b61035a6105b43660046140b1565b611899565b6103986105c7366004613f8c565b6119a8565b6103986105da366004613feb565b6119bd565b6105f26105ed366004613feb565b6119de565b60405161037c91906150da565b61059961060d366004613f8c565b611a7d565b610398610620366004613feb565b611a9c565b610398610633366004613f8c565b611ae2565b61064b610646366004613feb565b611b46565b60405161037c9291906148fd565b61066c610667366004613feb565b611b70565b60405161037c9190615099565b61035a610687366004613fbc565b611ba3565b61059961069a366004613f8c565b611c3b565b6103986106ad366004613f8c565b611c59565b6104046106c0366004613f38565b611d92565b6106d86106d3366004613feb565b611da7565b60405161037c9190615254565b6103986106f3366004613feb565b611dbf565b61035a610706366004613feb565b611e05565b61035a61071936600461400c565b611e74565b61039861072c3660046141d5565b611f10565b61074461073f366004613f8c565b611f2e565b60405161037c9190614e5d565b61035a61075f366004613f38565b611f8c565b610404610772366004613fbc565b61201a565b610599610785366004613feb565b612050565b6106d8610798366004613feb565b6120e6565b6105996107ab366004613f8c565b61217c565b61035a6107be366004613f38565b61219c565b6103986107d1366004613f8c565b6122a6565b6000828152600160208190526040909120015482906001600160a01b03163314806108135750610813816000356001600160e01b03191633610c01565b6108385760405162461bcd60e51b815260040161082f90614b04565b60405180910390fd5b6000838152600160208190526040918290200180546001600160a01b038581166001600160a01b0319831617909255915191169084907f6baefd4565218ab73b43cb6b1019ca3a06161c4fcaef25cd665aacddabc44a209061089d9084908790614894565b60405180910390a250505050565b6108b3613b4c565b60008281526001602052604090206108ca906122bb565b90505b919050565b60008181526001602081905260408220015482906001600160a01b031633148061090e575061090e816000356001600160e01b03191633610c01565b61092a5760405162461bcd60e51b815260040161082f90614b04565b6000838152600160205260408120600701805491905591505b50919050565b610960826000356001600160e01b03191633610c01565b61097c5760405162461bcd60e51b815260040161082f90614da1565b6000828152600160205260409081902060090180546001600160a01b038481166001600160a01b031983161790925591519116907fa7f38588f02421aa73988ed359aee27363c896e7cc3b6e634e4357f7ee408e25906109e190859084908690614916565b60405180910390a1505050565b6000828152600160208190526040909120015482906001600160a01b0316331480610a2b5750610a2b816000356001600160e01b03191633610c01565b610a475760405162461bcd60e51b815260040161082f90614b04565b6000838152600160205260409081902060020180546001600160a01b038581166001600160a01b0319831617909255915191169084907fdaa92ae0693b6616f14ef5db4b7ee053d3234c0d03f7a1885589c6a6c2c75bdb9061089d9084908790614894565b6000828152600160205260408082209051636aa9685760e01b815273__$5a7d02b27c48bf9ebba9d251bae7f9f80a$__91636aa9685791610af291908690600401614e98565b60206040518083038186803b158015610b0a57600080fd5b505af4158015610b1e573d6000803e3d6000fd5b505050506040513d601f19601f82011682018060405250810190610b429190613fa4565b90505b92915050565b610b62836000356001600160e01b03191633610c01565b610b7e5760405162461bcd60e51b815260040161082f90614d52565b60008381526001602081815260408084206001600160e01b031987168552600d0182528084206001600160a01b038616808652925292839020805460ff1916909217909155905184907face25d271ad11ee299595b3021629bae0349e370d7c2eb7c2dced6e4edb4786590610bf49086906149bd565b60405180910390a3505050565b60008381526001602090815260408083206001600160e01b031986168452600d0182528083206001600160a01b038516845290915281205460ff1680610c7457506000848152600160209081526040808320838052600d0182528083206001600160a01b038616845290915290205460ff165b90505b9392505050565b60009081526001602052604090205460ff1690565b60009081526001602052604090206006015490565b6000828152600160208190526040909120015482906001600160a01b0316331480610ce55750610ce5816000356001600160e01b03191633610c01565b610d015760405162461bcd60e51b815260040161082f90614b04565b60008381526001602052604090819020905163c779967760e01b815273__$5a7d02b27c48bf9ebba9d251bae7f9f80a$__9163c779967791610d4891908690600401614ea6565b60006040518083038186803b158015610d6057600080fd5b505af4158015610d74573d6000803e3d6000fd5b50506040518592507fb777acf68d226f3c8ab6f398cfb9a320e6fe8e92f5d2f0b4f69bc8ebab3b70cb9150600090a2505050565b6000828152600160205260409020600c01546001600160a01b031680610de05760405162461bcd60e51b815260040161082f906149ed565b336001600160a01b0382161480610e095750610e09836000356001600160e01b03191633610c01565b610e255760405162461bcd60e51b815260040161082f90614a4a565b60008381526001602052604090819020600c0180546001600160a01b0319166001600160a01b038516179055517f66808241563a07166fd47b523591fa432148706dc0ddd255d49b69e71f1721ce906109e190859084908690614916565b610e8b613b4c565b60008281526001602052604090206108ca90612628565b610eb9836000356001600160e01b03191633610c01565b610ed55760405162461bcd60e51b815260040161082f90614d52565b60008381526001602090815260408083206001600160e01b031986168452600d0182528083206001600160a01b038516808552925291829020805460ff19169055905184907f42b1b0e7392ad606bb4f5b003296aba62f16e43aa9372f1f40c1522fa2655ffa90610bf49086906149bd565b6000828152600160208190526040909120015482906001600160a01b0316331480610f845750610f84816000356001600160e01b03191633610c01565b610fa05760405162461bcd60e51b815260040161082f90614b04565b610fc6610fb236849003840184614464565b6000858152600160205260409020906129c5565b827fad3970329ffaec63d947adc6077368479a4be7f09f2e7ba1b13852f8405b3ec68360200135604051610ffa919061490d565b60405180910390a2505050565b60008181526001602052604090206060906108ca90612d6d565b6000828152600160208190526040909120015482906001600160a01b031633148061105e575061105e816000356001600160e01b03191633610c01565b61107a5760405162461bcd60e51b815260040161082f90614b04565b6000838152600160205260409081902080546001600160a01b03858116610100908102610100600160a81b03198416179093559251919004919091169084907fdaa92ae0693b6616f14ef5db4b7ee053d3234c0d03f7a1885589c6a6c2c75bdb9061089d9084908790614894565b6000828152600160205260409020600a01546001600160a01b0316806111205760405162461bcd60e51b815260040161082f90614cf5565b336001600160a01b03821614806111495750611149836000356001600160e01b03191633610c01565b6111655760405162461bcd60e51b815260040161082f90614bf2565b60008381526001602052604090819020600a0180546001600160a01b0319166001600160a01b038516179055517f66808241563a07166fd47b523591fa432148706dc0ddd255d49b69e71f1721ce906109e190859084908690614916565b6000828152600160205260408120610b429083612e03565b6111e3613bfb565b600082815260016020526040908190209051634dbb847760e01b815273__$5a7d02b27c48bf9ebba9d251bae7f9f80a$__91634dbb847791611228919060040161490d565b6105006040518083038186803b15801561124157600080fd5b505af4158015611255573d6000803e3d6000fd5b505050506040513d601f19601f820116820180604052508101906108ca91906142b2565b611281613cfb565b600083815260016020526040908190209051636eff8f1f60e01b815273__$5a7d02b27c48bf9ebba9d251bae7f9f80a$__91636eff8f1f916112c891908690600401614e98565b60606040518083038186803b1580156112e057600080fd5b505af41580156112f4573d6000803e3d6000fd5b505050506040513d601f19601f82011682018060405250810190610b429190614297565b611320612e19565b6000546001600160a01b03908116911614611382576040805162461bcd60e51b815260206004820181905260248201527f4f776e61626c653a2063616c6c6572206973206e6f7420746865206f776e6572604482015290519081900360640190fd5b600080546040516001600160a01b03909116907f8be0079c531659141344cd1fd0a4f28419497f9722a3daafe3b4186f6b6457e0908390a3600080546001600160a01b0319169055565b6000808060f884901c60218111156113e057fe5b92505067ffffffffffffffff83169050915091565b60006113ff613d1e565b61141f8372636f6e74726163745265666572656e63655f3160681b611b70565b805190915015801590611441575060038160600151600481111561143f57fe5b145b156117c05780516020820151604051631392c59160e11b81526001600160a01b038216906327258b229061147990859060040161490d565b60206040518083038186803b15801561149157600080fd5b505afa1580156114a5573d6000803e3d6000fd5b505050506040513d601f19601f820116820180604052508101906114c99190613f70565b6114e55760405162461bcd60e51b815260040161082f90614df5565b6000611500866b65786572636973654461746560a01b6111c3565b90506000611527877518dc99591a5d115d995b9d151e5c1950dbdd995c995960521b6120e6565b60ff16600581111561153557fe5b90506000836001600160a01b031663cf5aed12866040518263ffffffff1660e01b81526004016115659190614998565b60206040518083038186803b15801561157d57600080fd5b505afa158015611591573d6000803e3d6000fd5b505050506040513d601f19601f820116820180604052508101906115b59190614581565b60ff1660058111156115c357fe5b90506000846001600160a01b031663606aa07e876040518263ffffffff1660e01b81526004016115f39190614975565b60206040518083038186803b15801561160b57600080fd5b505afa15801561161f573d6000803e3d6000fd5b505050506040513d601f19601f820116820180604052508101906116439190613fa4565b9050831561166457611656601a42611f10565b9750505050505050506108cd565b600083600581111561167257fe5b14158015611695575082600581111561168757fe5b82600581111561169357fe5b145b156117b95760018260058111156116a857fe5b14156116b957611656601982611f10565b60028260058111156116c757fe5b1415611771576116d5613cfb565b6040516337f2add560e11b81526001600160a01b03871690636fe55baa90611701908a90600401614935565b60606040518083038186803b15801561171957600080fd5b505afa15801561172d573d6000803e3d6000fd5b505050506040513d601f19601f820116820180604052508101906117519190614297565b9050611762601961072c8385612e1d565b985050505050505050506108cd565b600382600581111561177f57fe5b14156117b95761178d613cfb565b6040516337f2add560e11b81526001600160a01b03871690636fe55baa90611701908a90600401614952565b5050505050505b50600092915050565b60008160218111156108ca57fe5b6000828152600160208190526040909120015482906001600160a01b03163314806118145750611814816000356001600160e01b03191633610c01565b6118305760405162461bcd60e51b815260040161082f90614b04565b61185661184236849003840184614464565b600085815260016020526040902090612f36565b827f0c71209d22d4c70a40140b94deee55f1f54a9353e3d5d5a4ddfb45fcddcf720f8360200135604051610ffa919061490d565b6000546001600160a01b031690565b3360009081526002602052604090205460ff166118c85760405162461bcd60e51b815260040161082f90614b9e565b611926896118db368a90038a018a614464565b88888080602002602001604051908101604052809392919081815260200183836020028082843760009201919091525061191e92505050368990038901896141fe565b878787613302565b60008981526001602052604090819020905163c779967760e01b815273__$5a7d02b27c48bf9ebba9d251bae7f9f80a$__9163c77996779161196d91908c90600401614ea6565b60006040518083038186803b15801561198557600080fd5b505af4158015611999573d6000803e3d6000fd5b50505050505050505050505050565b60009081526001602052604090206005015490565b60009182526001602090815260408084209284526004909201905290205490565b6119e6613d45565b600083815260016020526040908190209051631ef758d160e01b815273__$5a7d02b27c48bf9ebba9d251bae7f9f80a$__91631ef758d191611a2d91908690600401614e98565b60806040518083038186803b158015611a4557600080fd5b505af4158015611a59573d6000803e3d6000fd5b505050506040513d601f19601f82011682018060405250810190610b42919061427c565b600090815260016020819052604090912001546001600160a01b031690565b6000828152600160205260408082209051635fe316eb60e01b815273__$5a7d02b27c48bf9ebba9d251bae7f9f80a$__91635fe316eb91610af291908690600401614e98565b6000818152600160205260408120600581015415611b3257600581015460068201541415611b145750600090506108cd565b600681015460009081526004909101602052604090205490506108cd565b6000611b3d8461347b565b50949350505050565b6000918252600160208181526040808520938552601090930190529120805491015460ff90911691565b611b78613d1e565b6040805160808101825260008082526020820181905290918201908152602001600090529392505050565b611bba826000356001600160e01b03191633610c01565b611bd65760405162461bcd60e51b815260040161082f90614aa7565b60008281526001602052604090819020600b0180546001600160a01b038481166001600160a01b031983161790925591519116907fa7f38588f02421aa73988ed359aee27363c896e7cc3b6e634e4357f7ee408e25906109e190859084908690614916565b6000908152600160205260409020600201546001600160a01b031690565b60008181526001602081905260408220015482906001600160a01b0316331480611c955750611c95816000356001600160e01b03191633610c01565b611cb15760405162461bcd60e51b815260040161082f90614b04565b6000838152600160205260409020600581015415611d0b5760068101546000818152600483016020526040902054600583015490911415611cf85750600092506109439050565b6006909101805460010190559150610943565b600080611d178661347b565b909250905081611d2e575060009350610943915050565b600080611d3a846113cc565b909250905060018315151415611d7e5780600386016000846021811115611d5d57fe5b6021811115611d6857fe5b8152602081019190915260400160002055611d86565b600885018490555b50919695505050505050565b60026020526000908152604090205460ff1681565b6000828152600160205260408120610b4290836136bd565b600082815260016020526040808220905163aadcc0d760e01b815273__$5a7d02b27c48bf9ebba9d251bae7f9f80a$__9163aadcc0d791610af291908690600401614e98565b6000828152600160208190526040909120015482906001600160a01b0316331480611e425750611e42816000356001600160e01b03191633610c01565b611e5e5760405162461bcd60e51b815260040161082f90614b04565b5060009182526001602052604090912060070155565b6000838152600160208190526040909120015483906001600160a01b0316331480611eb15750611eb1816000356001600160e01b03191633610c01565b611ecd5760405162461bcd60e51b815260040161082f90614b04565b50604080518082018252600180825260208083019485526000968752818152838720958752601090950190945293209251835460ff191690151517835551910155565b60008160f8846021811115611f2157fe5b60ff16901b179392505050565b611f36613d66565b50600090815260016020908152604091829020825160808101845260098201546001600160a01b039081168252600a830154811693820193909352600b820154831693810193909352600c015416606082015290565b611f94612e19565b6000546001600160a01b03908116911614611ff6576040805162461bcd60e51b815260206004820181905260248201527f4f776e61626c653a2063616c6c6572206973206e6f7420746865206f776e6572604482015290519081900360640190fd5b6001600160a01b03166000908152600260205260409020805460ff19166001179055565b6000918252600160209081526040808420848052600d0182528084206001600160a01b0393909316845291905290205460ff1690565b6000828152600160205260408082209051630ce3f6e360e41b815273__$5a7d02b27c48bf9ebba9d251bae7f9f80a$__9163ce3f6e309161209691908690600401614e98565b60206040518083038186803b1580156120ae57600080fd5b505af41580156120c2573d6000803e3d6000fd5b505050506040513d601f19601f82011682018060405250810190610b429190613f54565b600082815260016020526040808220905163041cf5fb60e51b815273__$5a7d02b27c48bf9ebba9d251bae7f9f80a$__9163839ebf609161212c91908690600401614e98565b60206040518083038186803b15801561214457600080fd5b505af4158015612158573d6000803e3d6000fd5b505050506040513d601f19601f82011682018060405250810190610b429190614581565b60009081526001602052604090205461010090046001600160a01b031690565b6121a4612e19565b6000546001600160a01b03908116911614612206576040805162461bcd60e51b815260206004820181905260248201527f4f776e61626c653a2063616c6c6572206973206e6f7420746865206f776e6572604482015290519081900360640190fd5b6001600160a01b03811661224b5760405162461bcd60e51b815260040180806020018281038252602681526020018061530c6026913960400191505060405180910390fd5b600080546040516001600160a01b03808516939216917f8be0079c531659141344cd1fd0a4f28419497f9722a3daafe3b4186f6b6457e091a3600080546001600160a01b0319166001600160a01b0392909216919091179055565b60009081526001602052604090206007015490565b6122c3613b4c565b604080516102e08101825272636f6e7472616374506572666f726d616e636560681b6000908152600f85016020529190912054819060f81c600581111561230657fe5b600581111561231157fe5b8152697374617475734461746560b01b6000908152600f8501602081815260408084205482860152706e6f6e506572666f726d696e674461746560781b845282825280842054818601526b6d617475726974794461746560a01b84528282528084205460608601526b65786572636973654461746560a01b84528282528084205460808601526e7465726d696e6174696f6e4461746560881b84528282528084205460a0860152736c617374436f75706f6e466978696e674461746560601b84528282528084205460c0860152756c6173744469766964656e64466978696e674461746560501b84528282528084205460e0860152701b9bdd1a5bdb985b141c9a5b98da5c185b607a1b8452828252808420546101008601526e1858d8dc9d5959125b9d195c995cdd608a1b845282825280842054610120860152691999595058d8dc9d595960b21b845282825280842054610140860152726e6f6d696e616c496e7465726573745261746560681b8452828252808420546101608601527834b73a32b932b9ba29b1b0b634b733a6bab63a34b83634b2b960391b845282825280842054610180860152783737ba34b7b730b629b1b0b634b733a6bab63a34b83634b2b960391b8452828252808420546101a08601527f6e6578745072696e636970616c526564656d7074696f6e5061796d656e7400008452828252808420546101c08601526d195e195c98da5cd9505b5bdd5b9d60921b8452828252808420546101e08601526f65786572636973655175616e7469747960801b845282825280842054610200860152677175616e7469747960c01b8452828252808420546102208601527018dbdd5c1bdb905b5bdd5b9d119a5e1959607a1b8452828252808420546102408601526b36b0b933b4b72330b1ba37b960a11b8452828252808420546102608601526f30b2353ab9ba36b2b73a2330b1ba37b960811b84528282528084205461028086015274191a5d9a59195b9914185e5b595b9d105b5bdd5b9d605a1b8452828252808420546102a08601526973706c6974526174696f60b01b84529190529020546102c0909101529050919050565b612630613b4c565b604080516102e08101825274465f636f6e7472616374506572666f726d616e636560581b6000908152600f85016020529190912054819060f81c600581111561267557fe5b600581111561268057fe5b81526b465f7374617475734461746560a01b6000908152600f850160208181526040808420548286015272465f6e6f6e506572666f726d696e674461746560681b845282825280842054818601526d465f6d617475726974794461746560901b84528282528084205460608601526d465f65786572636973654461746560901b845282825280842054608086015270465f7465726d696e6174696f6e4461746560781b84528282528084205460a086015275465f6c617374436f75706f6e466978696e674461746560501b84528282528084205460c086015277465f6c6173744469766964656e64466978696e674461746560401b84528282528084205460e0860152721197db9bdd1a5bdb985b141c9a5b98da5c185b606a1b845282825280842054610100860152701197d858d8dc9d5959125b9d195c995cdd607a1b8452828252808420546101208601526b1197d999595058d8dc9d595960a21b84528282528084205461014086015274465f6e6f6d696e616c496e7465726573745261746560581b8452828252808420546101608601527f465f696e7465726573745363616c696e674d756c7469706c69657200000000008452828252808420546101808601527f465f6e6f74696f6e616c5363616c696e674d756c7469706c69657200000000008452828252808420546101a08601527f465f6e6578745072696e636970616c526564656d7074696f6e5061796d656e748452828252808420546101c08601526f1197d95e195c98da5cd9505b5bdd5b9d60821b8452828252808420546101e086015271465f65786572636973655175616e7469747960701b84528282528084205461020086015269465f7175616e7469747960b01b845282825280842054610220860152721197d8dbdd5c1bdb905b5bdd5b9d119a5e1959606a1b8452828252808420546102408601526d232fb6b0b933b4b72330b1ba37b960911b84528282528084205461026086015271232fb0b2353ab9ba36b2b73a2330b1ba37b960711b845282825280842054610280860152761197d91a5d9a59195b9914185e5b595b9d105b5bdd5b9d604a1b8452828252808420546102a08601526b465f73706c6974526174696f60a01b84529190529020546102c0909101529050919050565b6129fc8272636f6e7472616374506572666f726d616e636560681b60f8846000015160058111156129f257fe5b60ff16901b613769565b612a1b82697374617475734461746560b01b836020015160001b613769565b612a4182706e6f6e506572666f726d696e674461746560781b836040015160001b613769565b612a62826b6d617475726974794461746560a01b836060015160001b613769565b612a83826b65786572636973654461746560a01b836080015160001b613769565b612aa7826e7465726d696e6174696f6e4461746560881b8360a0015160001b613769565b612ad082736c617374436f75706f6e466978696e674461746560601b8360c0015160001b613769565b612afb82756c6173744469766964656e64466978696e674461746560501b8360e0015160001b613769565b612b2282701b9bdd1a5bdb985b141c9a5b98da5c185b607a1b83610100015160001b613769565b612b47826e1858d8dc9d5959125b9d195c995cdd608a1b83610120015160001b613769565b612b6782691999595058d8dc9d595960b21b83610140015160001b613769565b612b9082726e6f6d696e616c496e7465726573745261746560681b83610160015160001b613769565b612bbf827834b73a32b932b9ba29b1b0b634b733a6bab63a34b83634b2b960391b83610180015160001b613769565b612bee82783737ba34b7b730b629b1b0b634b733a6bab63a34b83634b2b960391b836101a0015160001b613769565b612c21827f6e6578745072696e636970616c526564656d7074696f6e5061796d656e740000836101c0015160001b613769565b612c45826d195e195c98da5cd9505b5bdd5b9d60921b836101e0015160001b613769565b612c6b826f65786572636973655175616e7469747960801b83610200015160001b613769565b612c91826f65786572636973655175616e7469747960801b83610200015160001b613769565b612caf82677175616e7469747960c01b83610220015160001b613769565b612cd6827018dbdd5c1bdb905b5bdd5b9d119a5e1959607a1b83610240015160001b613769565b612cf8826b36b0b933b4b72330b1ba37b960a11b83610260015160001b613769565b612d1e826f30b2353ab9ba36b2b73a2330b1ba37b960811b83610280015160001b613769565b612d498274191a5d9a59195b9914185e5b595b9d105b5bdd5b9d605a1b836102a0015160001b613769565b612d69826973706c6974526174696f60b01b836102c0015160001b613769565b5050565b606080826003016002015467ffffffffffffffff81118015612d8e57600080fd5b50604051908082528060200260200182016040528015612db8578160200160208202803683370190505b50905060005b6005840154811015612dfc5760008181526004850160205260409020548251839083908110612de957fe5b6020908102919091010152600101612dbe565b5092915050565b6000908152600f91909101602052604090205490565b3390565b6000808084602001516005811115612e3157fe5b1415612e4b578351612e4490849061379f565b9050610b42565b600184602001516005811115612e5d57fe5b1415612e7b578351612e4490612e749060076137b4565b849061379f565b600284602001516005811115612e8d57fe5b1415612ea0578351612e4490849061380d565b600384602001516005811115612eb257fe5b1415612ed0578351612e4490612ec99060036137b4565b849061380d565b600484602001516005811115612ee257fe5b1415612ef9578351612e4490612ec99060066137b4565b600584602001516005811115612f0b57fe5b1415612f1e578351612e44908490613889565b60405162461bcd60e51b815260040161082f90614c98565b612f658274465f636f6e7472616374506572666f726d616e636560581b60f8846000015160058111156129f257fe5b612f86826b465f7374617475734461746560a01b836020015160001b613769565b612fae8272465f6e6f6e506572666f726d696e674461746560681b836040015160001b613769565b612fd1826d465f6d617475726974794461746560901b836060015160001b613769565b612ff4826d465f65786572636973654461746560901b836080015160001b613769565b61301a8270465f7465726d696e6174696f6e4461746560781b8360a0015160001b613769565b6130458275465f6c617374436f75706f6e466978696e674461746560501b8360c0015160001b613769565b6130728277465f6c6173744469766964656e64466978696e674461746560401b8360e0015160001b613769565b61309b82721197db9bdd1a5bdb985b141c9a5b98da5c185b606a1b83610100015160001b613769565b6130c282701197d858d8dc9d5959125b9d195c995cdd607a1b83610120015160001b613769565b6130e4826b1197d999595058d8dc9d595960a21b83610140015160001b613769565b61310f8274465f6e6f6d696e616c496e7465726573745261746560581b83610160015160001b613769565b613142827f465f696e7465726573745363616c696e674d756c7469706c696572000000000083610180015160001b613769565b613175827f465f6e6f74696f6e616c5363616c696e674d756c7469706c6965720000000000836101a0015160001b613769565b6131a8827f465f6e6578745072696e636970616c526564656d7074696f6e5061796d656e74836101c0015160001b613769565b6131ce826f1197d95e195c98da5cd9505b5bdd5b9d60821b836101e0015160001b613769565b6131f68271465f65786572636973655175616e7469747960701b83610200015160001b613769565b61321e8271465f65786572636973655175616e7469747960701b83610200015160001b613769565b61323e8269465f7175616e7469747960b01b83610220015160001b613769565b61326782721197d8dbdd5c1bdb905b5bdd5b9d119a5e1959606a1b83610240015160001b613769565b61328b826d232fb6b0b933b4b72330b1ba37b960911b83610260015160001b613769565b6132b38271232fb0b2353ab9ba36b2b73a2330b1ba37b960711b83610280015160001b613769565b6132e082761197d91a5d9a59195b9914185e5b595b9d105b5bdd5b9d604a1b836102a0015160001b613769565b612d69826b465f73706c6974526174696f60a01b836102c0015160001b613769565b6000878152600160205260409020805460ff16156133325760405162461bcd60e51b815260040161082f90614b53565b6001600160a01b03831660009081526002602052604090205460ff16151560011461336f5760405162461bcd60e51b815260040161082f90614c4f565b805485516009830180546001600160a01b03199081166001600160a01b03938416179091556020880151600a8501805483169184169190911790556040880151600b8501805483169184169190911790556060880151600c85018054831691841691909117905560ff199092166001908117610100600160a81b031916610100888416021784558301805490921690851617905561340d81886129c5565b6134178188612f36565b61342181876138b0565b6001600160a01b0382161561343a5761343a8883613918565b7f5e73a3e4a3f69f1056f05ffd00ff11bf3835158ba0ebd5ad3b994065fcd8964688604051613469919061490d565b60405180910390a15050505050505050565b60008181526001602052604081208190613493613bfb565b604051634dbb847760e01b815273__$5a7d02b27c48bf9ebba9d251bae7f9f80a$__90634dbb8477906134ca90859060040161490d565b6105006040518083038186803b1580156134e357600080fd5b505af41580156134f7573d6000803e3d6000fd5b505050506040513d601f19601f8201168201806040525081019061351b91906142b2565b8254600e6000818152600386016020526040808220549051634423b1a560e11b815294955090938493600193859384936135c39361010090046001600160a01b031692638847634a92613573928c9290600401615122565b60206040518083038186803b15801561358b57600080fd5b505afa15801561359f573d6000803e3d6000fd5b505050506040513d601f19601f820116820180604052508101906105459190613fa4565b9150915083600014806135d557508381105b806135f9575080841480156135f957506135ee856117c9565b6135f7836117c9565b105b15613605578093508194505b50508454600886015460405163a6738b1560e01b81526000928392613649926101009092046001600160a01b03169163a6738b1591613573918b9190600401615105565b9150915083600014806136655750801580159061366557508381105b806136945750801580159061367957508084145b80156136945750613689856117c9565b613692836117c9565b105b156136a457809350819450600092505b50506136b08383611f10565b9650945050505050915091565b600072636f6e7472616374506572666f726d616e636560681b82141561370e575072636f6e7472616374506572666f726d616e636560681b6000908152600f8301602052604090205460f81c610b45565b74465f636f6e7472616374506572666f726d616e636560581b821415613761575074465f636f6e7472616374506572666f726d616e636560581b6000908152600f8301602052604090205460f81c610b45565b506000610b45565b6000828152600f840160205260409020548114156137865761379a565b6000828152600f8401602052604090208190555b505050565b620151808102820182811015610b4557600080fd5b6000826137c357506000610b45565b828202828482816137d057fe5b0414610b425760405162461bcd60e51b81526004018080602001828103825260218152602001806153326021913960400191505060405180910390fd5b600080808061382162015180875b0461398f565b600c91880160001981018381049490940196509450925090066001019150600061384b8484613a25565b905080821115613859578091505b6201518087066201518061386e868686613aab565b020194508685101561387f57600080fd5b5050505092915050565b600080808061389b620151808761381b565b918701945092509050600061384b8484613a25565b60005b815181101561379a576000801b8282815181106138cc57fe5b602002602001015114156138df5761379a565b8181815181106138eb57fe5b602090810291909101810151600083815260048601909252604090912055600101600583018190556138b3565b6000828152600160208181526040808420848052600d0182528084206001600160a01b0386168086529252808420805460ff19169093179092559051909184917face25d271ad11ee299595b3021629bae0349e370d7c2eb7c2dced6e4edb4786591613983916149bd565b60405180910390a35050565b60008080836226496581018262023ab1600483020590506004600362023ab18302010590910390600062164b09610fa0600185010205905060046105b58202058303601f019250600061098f84605002816139e657fe5b0590506000605061098f83020585039050600b820560301994909401606402929092018301996002600c90940290910392909201975095509350505050565b60008160011480613a365750816003145b80613a415750816005145b80613a4c5750816007145b80613a575750816008145b80613a62575081600a145b80613a6d575081600c145b15613a7a5750601f610b45565b81600214613a8a5750601e610b45565b613a9383613b27565b613a9e57601c613aa1565b601d5b60ff169392505050565b60006107b2841015613abc57600080fd5b838383600062253d8c600460036064611324600c600d19890105890101050205600c80600d19870105600c02600287030361016f0281613af857fe5b0560046105b5600c600d1989010589016112c0010205617d4b8603010103039050809450505050509392505050565b600060048206158015613b3c57506064820615155b806108ca57505061019090061590565b604080516102e081019091528060008152602001600081526020016000815260200160008152602001600081526020016000815260200160008152602001600081526020016000815260200160008152602001600081526020016000815260200160008152602001600081526020016000815260200160008152602001600081526020016000815260200160008152602001600081526020016000815260200160008152602001600081525090565b604080516103608101909152806000815260200160008152602001600081526020016000815260200160008152602001600081526020016000815260200160006001600160a01b0316815260200160006001600160a01b03168152602001600081526020016000815260200160008152602001600081526020016000815260200160008152602001600081526020016000815260200160008152602001600081526020016000815260200160008152602001613cb5613cfb565b8152602001613cc2613cfb565b8152602001613ccf613cfb565b8152602001613cdc613cfb565b8152602001613ce9613cfb565b8152602001613cf6613d45565b905290565b6040805160608101909152600080825260208201905b8152600060209091015290565b60408051608081018252600080825260208201819052909182019081526020016000613cf6565b60408051608081019091526000808252602082019081526020016000613d11565b60408051608081018252600080825260208201819052918101829052606081019190915290565b80356108cd816152a7565b80516108cd816152a7565b80356108cd816152ca565b80516108cd816152ca565b80356108cd816152d7565b80516108cd816152d7565b80356108cd816152e4565b80356108cd816152f1565b80516108cd816152f1565b80356108cd816152fe565b80516108cd816152fe565b80516108cd816152e4565b8035602281106108cd57600080fd5b600060808284031215610943578081fd5b600060808284031215613e42578081fd5b6040516080810181811067ffffffffffffffff82111715613e5f57fe5b8060405250809150825181526020830151613e79816152e4565b60208201526040830151613e8c816152d7565b60408201526060830151613e9f816152bc565b6060919091015292915050565b600060608284031215613ebd578081fd5b6040516060810181811067ffffffffffffffff82111715613eda57fe5b8060405250809150825181526020830151613ef4816152e4565b60208201526040830151613f07816152bc565b6040919091015292915050565b60006105008284031215610943578081fd5b60006102e08284031215610943578081fd5b600060208284031215613f49578081fd5b8135610b42816152a7565b600060208284031215613f65578081fd5b8151610b42816152a7565b600060208284031215613f81578081fd5b8151610b42816152bc565b600060208284031215613f9d578081fd5b5035919050565b600060208284031215613fb5578081fd5b5051919050565b60008060408385031215613fce578081fd5b823591506020830135613fe0816152a7565b809150509250929050565b60008060408385031215613ffd578182fd5b50508035926020909101359150565b600080600060608486031215614020578081fd5b505081359360208301359350604090920135919050565b60008060006060848603121561404b578081fd5b8335925060208401356001600160e01b031981168114614069578182fd5b91506040840135614079816152a7565b809150509250925092565b6000806105208385031215614097578182fd5b823591506140a88460208501613f14565b90509250929050565b60008060008060008060008060006109008a8c0312156140cf578687fd5b893598506140e08b60208c01613f14565b97506140f08b6105208c01613f26565b96506108008a013567ffffffffffffffff8082111561410d578687fd5b818c0191508c601f830112614120578687fd5b81358181111561412e578788fd5b8d60208083028501011115614141578788fd5b60208301985080975050505061415b8b6108208c01613e20565b935061416a6108a08b01613d8d565b92506141796108c08b01613d8d565b91506141886108e08b01613d8d565b90509295985092959850929598565b60008061030083850312156141aa578182fd5b823591506140a88460208501613f26565b6000602082840312156141cc578081fd5b610b4282613e11565b600080604083850312156141e7578182fd5b6141f083613e11565b946020939093013593505050565b60006080828403121561420f578081fd5b6040516080810181811067ffffffffffffffff8211171561422c57fe5b604052823561423a816152a7565b8152602083013561424a816152a7565b6020820152604083013561425d816152a7565b60408201526060830135614270816152a7565b60608201529392505050565b60006080828403121561428d578081fd5b610b428383613e31565b6000606082840312156142a8578081fd5b610b428383613eac565b600061050082840312156142c4578081fd5b6103606142d081615262565b6142d984613dfb565b81526142e760208501613dc4565b60208201526142f860408501613de5565b604082015261430960608501613e06565b606082015261431a60808501613dae565b608082015261432b60a08501613dc4565b60a082015261433c60c08501613dc4565b60c082015261434d60e08501613d98565b60e0820152610100614360818601613d98565b9082015261012084810151908201526101408085015190820152610160808501519082015261018080850151908201526101a080850151908201526101c080850151908201526101e08085015190820152610200808501519082015261022080850151908201526102408085015190820152610260808501519082015261028080850151908201526102a06143f786828701613eac565b9082015261030061440a86868301613eac565b6102c083015261441c86848701613eac565b6102e0830152614430866103c08701613eac565b90820152614442856104208601613eac565b610320820152614456856104808601613e31565b610340820152949350505050565b60006102e0808385031215614477578182fd5b61448081615262565b905061448b83613dcf565b81526020838101359082015260408084013590820152606080840135908201526080808401359082015260a0808401359082015260c0808401359082015260e08084013590820152610100808401359082015261012080840135908201526101408084013590820152610160808401359082015261018080840135908201526101a080840135908201526101c080840135908201526101e08084013590820152610200808401359082015261022080840135908201526102408084013590820152610260808401359082015261028080840135908201526102a080840135908201526102c0928301359281019290925250919050565b600060208284031215614592578081fd5b815160ff81168114610b42578182fd5b6001600160a01b03169052565b600981106145b957fe5b9052565b6145b981615286565b6145b981615293565b600d81106145b957fe5b601381106145b957fe5b602281106145b957fe5b8035825260208101356145ff816152e4565b61460881615293565b6020830152604081013561461b816152d7565b61462481615286565b60408301526060810135614637816152bc565b8015156060840152505050565b80518252602081015161465681615293565b6020830152604081015161466981615286565b60408301526060908101511515910152565b80358252602081013561468d816152e4565b61469681615293565b602083015260408101356146a9816152bc565b8015156040840152505050565b8051825260208101516146c881615293565b60208301526040908101511515910152565b6146e58282516145d9565b60208101516146f760208401826145bd565b50604081015161470a60408401826145cf565b50606081015161471d60608401826145c6565b50608081015161473060808401826145af565b5060a081015161474360a08401826145bd565b5060c081015161475660c08401826145bd565b5060e081015161476960e08401826145a2565b506101008082015161477d828501826145a2565b505061012081810151908301526101408082015190830152610160808201519083015261018080820151908301526101a080820151908301526101c080820151908301526101e08082015190830152610200808201519083015261022080820151908301526102408082015190830152610260808201519083015261028080820151908301526102a080820151614816828501826146b6565b50506102c081015161030061482d818501836146b6565b6102e083015191506148436103608501836146b6565b82015190506148566103c08401826146b6565b5061032081015161486b6104208401826146b6565b5061034081015161379a610480840182614644565b6001600160a01b0391909116815260200190565b6001600160a01b0392831681529116602082015260400190565b6020808252825182820181905260009190848201906040850190845b818110156148e6578351835292840192918401916001016148ca565b50909695505050505050565b901515815260200190565b9115158252602082015260400190565b90815260200190565b9283526001600160a01b03918216602084015216604082015260600190565b9081526a19dc9858d954195c9a5bd960aa1b602082015260400190565b9081527019195b1a5b9c5d595b98de54195c9a5bd9607a1b602082015260400190565b908152706e6f6e506572666f726d696e674461746560781b602082015260400190565b90815272636f6e7472616374506572666f726d616e636560681b602082015260400190565b6001600160e01b031991909116815260200190565b604081016149e082856145e3565b8260208301529392505050565b6020808252603e908201527f417373657452656769737472792e736574436f756e746572706172747942656e60408201527f65666963696172793a20454e5452595f444f45535f4e4f545f45584953540000606082015260800190565b6020808252603d908201527f417373657452656769737472792e736574436f756e746572706172747942656e60408201527f65666963696172793a20554e415554484f52495a45445f53454e444552000000606082015260800190565b60208082526039908201527f417373657452656769737472792e736574436f756e74657270617274794f626c60408201527f69676f723a20554e415554484f52495a45445f53454e44455200000000000000606082015260800190565b6020808252602f908201527f416363657373436f6e74726f6c2e6973417574686f72697a65643a20554e415560408201526e2a2427a924ad22a22fa9a2a72222a960891b606082015260800190565b6020808252602b908201527f4261736552656769737472792e73657441737365743a2041535345545f414c5260408201526a454144595f45584953545360a81b606082015260800190565b60208082526034908201527f4261736552656769737472792e6f6e6c79417070726f7665644163746f72733a604082015273102aa720aaaa2427a924ad22a22fa9a2a72222a960611b606082015260800190565b60208082526038908201527f417373657452656769737472792e73657443726561746f7242656e656669636960408201527f6172793a20554e415554484f52495a45445f53454e4445520000000000000000606082015260800190565b60208082526029908201527f4261736552656769737472792e73657441737365743a204143544f525f4e4f5460408201526817d054141493d5915160ba1b606082015260800190565b60208082526037908201527f506572696f645574696c732e67657454696d657374616d70506c75735065726960408201527f6f643a204154545249425554455f4e4f545f464f554e44000000000000000000606082015260800190565b60208082526039908201527f417373657452656769737472792e73657443726561746f7242656e656669636960408201527f6172793a20454e5452595f444f45535f4e4f545f455849535400000000000000606082015260800190565b6020808252602f908201527f416363657373436f6e74726f6c2e7265766f6b654163636573733a20554e415560408201526e2a2427a924ad22a22fa9a2a72222a960891b606082015260800190565b60208082526034908201527f417373657452656769737472792e73657443726561746f724f626c69676f723a604082015273102aa720aaaa2427a924ad22a22fa9a2a72222a960611b606082015260800190565b60208082526042908201527f41737365744163746f722e6765744e657874556e6465726c79696e674576656e60408201527f743a20554e4445524c59494e475f41535345545f444f45535f4e4f545f45584960608201526114d560f21b608082015260a00190565b81516001600160a01b039081168252602080840151821690830152604080840151821690830152606092830151169181019190915260800190565b918252602082015260400190565b8281526105208101614ec360208301614ebe85613df0565b6145d9565b614ecf60208401613db9565b614edc60408401826145bd565b50614ee960408401613dda565b614ef660608401826145cf565b50614f0360608401613dcf565b614f1060808401826145c6565b50614f1d60808401613da3565b614f2a60a08401826145af565b50614f3760a08401613db9565b614f4460c08401826145bd565b50614f5160c08401613db9565b614f5e60e08401826145bd565b50614f6b60e08401613d8d565b610100614f7a818501836145a2565b614f85818601613d8d565b915050610120614f97818501836145a2565b6101409150808501358285015250610160818501358185015261018091508085013582850152506101a081850135818501526101c091508085013582850152506101e08185013581850152610200915080850135828501525061022081850135818501526102409150808501358285015250610260818501358185015261028091508085013582850152506102a0818501358185015261503d6102c0850182870161467b565b50506150516103208301610300850161467b565b6150636103808301610360850161467b565b6150756103e083016103c0850161467b565b6150876104408301610420850161467b565b610c776104a0830161048085016145ed565b8151815260208083015190820152604082015160808201906150ba8161529d565b604083015260608301516150cd8161529d565b8060608401525092915050565b60808101610b458284614644565b60608101610b4582846146b6565b6105008101610b4582846146da565b610520810161511482856146da565b826105008301529392505050565b610540810161513182866146da565b836105008301526151466105208301846145e3565b949350505050565b60006102e0820190506151628284516145c6565b6020838101519083015260408084015190830152606080840151908301526080808401519083015260a0808401519083015260c0808401519083015260e08084015190830152610100808401519083015261012080840151908301526101408084015190830152610160808401519083015261018080840151908301526101a080840151908301526101c080840151908301526101e08084015190830152610200808401519083015261022080840151908301526102408084015190830152610260808401519083015261028080840151908301526102a080840151908301526102c092830151929091019190915290565b60ff91909116815260200190565b60405181810167ffffffffffffffff8111828210171561527e57fe5b604052919050565b6002811061529057fe5b50565b6006811061529057fe5b6005811061529057fe5b6001600160a01b038116811461529057600080fd5b801515811461529057600080fd5b6009811061529057600080fd5b6002811061529057600080fd5b6006811061529057600080fd5b600d811061529057600080fd5b6013811061529057600080fdfe4f776e61626c653a206e6577206f776e657220697320746865207a65726f2061646472657373536166654d6174683a206d756c7469706c69636174696f6e206f766572666c6f77a2646970667358221220d6a90bb542ff7d117b393806c41b09cda196f227fec7add718d91184ccd2cea464736f6c63430007040033",
  "linkReferences": {
    "contracts/Core/STK/STKEncoder.sol": {
      "STKEncoder": [
        {
          "length": 20,
          "start": 2891
        },
        {
          "length": 20,
          "start": 3489
        },
        {
          "length": 20,
          "start": 4739
        },
        {
          "length": 20,
          "start": 4897
        },
        {
          "length": 20,
          "start": 6598
        },
        {
          "length": 20,
          "start": 6790
        },
        {
          "length": 20,
          "start": 6971
        },
        {
          "length": 20,
          "start": 7774
        },
        {
          "length": 20,
          "start": 8431
        },
        {
          "length": 20,
          "start": 8581
        },
        {
          "length": 20,
          "start": 13604
        }
      ]
    }
  },
  "deployedLinkReferences": {
    "contracts/Core/STK/STKEncoder.sol": {
      "STKEncoder": [
        {
          "length": 20,
          "start": 2761
        },
        {
          "length": 20,
          "start": 3359
        },
        {
          "length": 20,
          "start": 4609
        },
        {
          "length": 20,
          "start": 4767
        },
        {
          "length": 20,
          "start": 6468
        },
        {
          "length": 20,
          "start": 6660
        },
        {
          "length": 20,
          "start": 6841
        },
        {
          "length": 20,
          "start": 7644
        },
        {
          "length": 20,
          "start": 8301
        },
        {
          "length": 20,
          "start": 8451
        },
        {
          "length": 20,
          "start": 13474
        }
      ]
    }
  }
}