{
  "contracts/Extensions/FDT/CMTA20FDT/RuleMock.sol": {
    "RuleMock": {
      "abi": [
        {
          "inputs": [
            {
              "internalType": "uint8",
              "name": "_restrictionCode",
              "type": "uint8"
            }
          ],
          "name": "canReturnTransferRestrictionCode",
          "outputs": [
            {
              "internalType": "bool",
              "name": "",
              "type": "bool"
            }
          ],
          "stateMutability": "pure",
          "type": "function"
        },
        {
          "inputs": [
            {
              "internalType": "address",
              "name": "",
              "type": "address"
            },
            {
              "internalType": "address",
              "name": "",
              "type": "address"
            },
            {
              "internalType": "uint256",
              "name": "_amount",
              "type": "uint256"
            }
          ],
          "name": "detectTransferRestriction",
          "outputs": [
            {
              "internalType": "uint8",
              "name": "",
              "type": "uint8"
            }
          ],
          "stateMutability": "pure",
          "type": "function"
        },
        {
          "inputs": [
            {
              "internalType": "address",
              "name": "_from",
              "type": "address"
            },
            {
              "internalType": "address",
              "name": "_to",
              "type": "address"
            },
            {
              "internalType": "uint256",
              "name": "_amount",
              "type": "uint256"
            }
          ],
          "name": "isTransferValid",
          "outputs": [
            {
              "internalType": "bool",
              "name": "isValid",
              "type": "bool"
            }
          ],
          "stateMutability": "pure",
          "type": "function"
        },
        {
          "inputs": [
            {
              "internalType": "uint8",
              "name": "_restrictionCode",
              "type": "uint8"
            }
          ],
          "name": "messageForTransferRestriction",
          "outputs": [
            {
              "internalType": "string",
              "name": "",
              "type": "string"
            }
          ],
          "stateMutability": "pure",
          "type": "function"
        }
      ],
      "devdoc": {
        "kind": "dev",
        "methods": {},
        "version": 1
      },
      "evm": {
        "bytecode": {
          "linkReferences": {},
          "object": "608060405234801561001057600080fd5b5061027b806100206000396000f3fe608060405234801561001057600080fd5b506004361061004c5760003560e01c806340ecb7f2146100515780637d045df61461009b5780637f4ab1dd146100bb578063d4ce141514610150575b600080fd5b6100876004803603606081101561006757600080fd5b506001600160a01b0381358116916020810135909116906040013561019c565b604080519115158252519081900360200190f35b610087600480360360208110156100b157600080fd5b503560ff166101b5565b6100db600480360360208110156100d157600080fd5b503560ff166101c1565b6040805160208082528351818301528351919283929083019185019080838360005b838110156101155781810151838201526020016100fd565b50505050905090810190601f1680156101425780820380516001836020036101000a031916815260200191505b509250505060405180910390f35b6101866004803603606081101561016657600080fd5b506001600160a01b03813581169160208101359091169060400135610229565b6040805160ff9092168252519081900360200190f35b60006101a9848484610229565b60ff1615949350505050565b60ff8116600a14919050565b606060ff8216600a146101fa576040518060400160405280600e81526020016d10dbd919481b9bdd08199bdd5b9960921b815250610223565b6040518060400160405280600f81526020016e082dadeeadce840e8dede40d0d2ced608b1b8152505b92915050565b60006014821061023a57600a61023d565b60005b94935050505056fea26469706673582212204b1cb5ac8f8a42228c3772d7eec64c649e5e021992b358d464799dc2cfb2301f64736f6c63430007040033",
          "opcodes": "PUSH1 0x80 PUSH1 0x40 MSTORE CALLVALUE DUP1 ISZERO PUSH2 0x10 JUMPI PUSH1 0x0 DUP1 REVERT JUMPDEST POP PUSH2 0x27B DUP1 PUSH2 0x20 PUSH1 0x0 CODECOPY PUSH1 0x0 RETURN INVALID PUSH1 0x80 PUSH1 0x40 MSTORE CALLVALUE DUP1 ISZERO PUSH2 0x10 JUMPI PUSH1 0x0 DUP1 REVERT JUMPDEST POP PUSH1 0x4 CALLDATASIZE LT PUSH2 0x4C JUMPI PUSH1 0x0 CALLDATALOAD PUSH1 0xE0 SHR DUP1 PUSH4 0x40ECB7F2 EQ PUSH2 0x51 JUMPI DUP1 PUSH4 0x7D045DF6 EQ PUSH2 0x9B JUMPI DUP1 PUSH4 0x7F4AB1DD EQ PUSH2 0xBB JUMPI DUP1 PUSH4 0xD4CE1415 EQ PUSH2 0x150 JUMPI JUMPDEST PUSH1 0x0 DUP1 REVERT JUMPDEST PUSH2 0x87 PUSH1 0x4 DUP1 CALLDATASIZE SUB PUSH1 0x60 DUP2 LT ISZERO PUSH2 0x67 JUMPI PUSH1 0x0 DUP1 REVERT JUMPDEST POP PUSH1 0x1 PUSH1 0x1 PUSH1 0xA0 SHL SUB DUP2 CALLDATALOAD DUP2 AND SWAP2 PUSH1 0x20 DUP2 ADD CALLDATALOAD SWAP1 SWAP2 AND SWAP1 PUSH1 0x40 ADD CALLDATALOAD PUSH2 0x19C JUMP JUMPDEST PUSH1 0x40 DUP1 MLOAD SWAP2 ISZERO ISZERO DUP3 MSTORE MLOAD SWAP1 DUP2 SWAP1 SUB PUSH1 0x20 ADD SWAP1 RETURN JUMPDEST PUSH2 0x87 PUSH1 0x4 DUP1 CALLDATASIZE SUB PUSH1 0x20 DUP2 LT ISZERO PUSH2 0xB1 JUMPI PUSH1 0x0 DUP1 REVERT JUMPDEST POP CALLDATALOAD PUSH1 0xFF AND PUSH2 0x1B5 JUMP JUMPDEST PUSH2 0xDB PUSH1 0x4 DUP1 CALLDATASIZE SUB PUSH1 0x20 DUP2 LT ISZERO PUSH2 0xD1 JUMPI PUSH1 0x0 DUP1 REVERT JUMPDEST POP CALLDATALOAD PUSH1 0xFF AND PUSH2 0x1C1 JUMP JUMPDEST PUSH1 0x40 DUP1 MLOAD PUSH1 0x20 DUP1 DUP3 MSTORE DUP4 MLOAD DUP2 DUP4 ADD MSTORE DUP4 MLOAD SWAP2 SWAP3 DUP4 SWAP3 SWAP1 DUP4 ADD SWAP2 DUP6 ADD SWAP1 DUP1 DUP4 DUP4 PUSH1 0x0 JUMPDEST DUP4 DUP2 LT ISZERO PUSH2 0x115 JUMPI DUP2 DUP2 ADD MLOAD DUP4 DUP3 ADD MSTORE PUSH1 0x20 ADD PUSH2 0xFD JUMP JUMPDEST POP POP POP POP SWAP1 POP SWAP1 DUP2 ADD SWAP1 PUSH1 0x1F AND DUP1 ISZERO PUSH2 0x142 JUMPI DUP1 DUP3 SUB DUP1 MLOAD PUSH1 0x1 DUP4 PUSH1 0x20 SUB PUSH2 0x100 EXP SUB NOT AND DUP2 MSTORE PUSH1 0x20 ADD SWAP2 POP JUMPDEST POP SWAP3 POP POP POP PUSH1 0x40 MLOAD DUP1 SWAP2 SUB SWAP1 RETURN JUMPDEST PUSH2 0x186 PUSH1 0x4 DUP1 CALLDATASIZE SUB PUSH1 0x60 DUP2 LT ISZERO PUSH2 0x166 JUMPI PUSH1 0x0 DUP1 REVERT JUMPDEST POP PUSH1 0x1 PUSH1 0x1 PUSH1 0xA0 SHL SUB DUP2 CALLDATALOAD DUP2 AND SWAP2 PUSH1 0x20 DUP2 ADD CALLDATALOAD SWAP1 SWAP2 AND SWAP1 PUSH1 0x40 ADD CALLDATALOAD PUSH2 0x229 JUMP JUMPDEST PUSH1 0x40 DUP1 MLOAD PUSH1 0xFF SWAP1 SWAP3 AND DUP3 MSTORE MLOAD SWAP1 DUP2 SWAP1 SUB PUSH1 0x20 ADD SWAP1 RETURN JUMPDEST PUSH1 0x0 PUSH2 0x1A9 DUP5 DUP5 DUP5 PUSH2 0x229 JUMP JUMPDEST PUSH1 0xFF AND ISZERO SWAP5 SWAP4 POP POP POP POP JUMP JUMPDEST PUSH1 0xFF DUP2 AND PUSH1 0xA EQ SWAP2 SWAP1 POP JUMP JUMPDEST PUSH1 0x60 PUSH1 0xFF DUP3 AND PUSH1 0xA EQ PUSH2 0x1FA JUMPI PUSH1 0x40 MLOAD DUP1 PUSH1 0x40 ADD PUSH1 0x40 MSTORE DUP1 PUSH1 0xE DUP2 MSTORE PUSH1 0x20 ADD PUSH14 0x10DBD919481B9BDD08199BDD5B99 PUSH1 0x92 SHL DUP2 MSTORE POP PUSH2 0x223 JUMP JUMPDEST PUSH1 0x40 MLOAD DUP1 PUSH1 0x40 ADD PUSH1 0x40 MSTORE DUP1 PUSH1 0xF DUP2 MSTORE PUSH1 0x20 ADD PUSH15 0x82DADEEADCE840E8DEDE40D0D2CED PUSH1 0x8B SHL DUP2 MSTORE POP JUMPDEST SWAP3 SWAP2 POP POP JUMP JUMPDEST PUSH1 0x0 PUSH1 0x14 DUP3 LT PUSH2 0x23A JUMPI PUSH1 0xA PUSH2 0x23D JUMP JUMPDEST PUSH1 0x0 JUMPDEST SWAP5 SWAP4 POP POP POP POP JUMP INVALID LOG2 PUSH5 0x6970667358 0x22 SLT KECCAK256 0x4B SHR 0xB5 0xAC DUP16 DUP11 TIMESTAMP 0x22 DUP13 CALLDATACOPY PUSH19 0xD7EEC64C649E5E021992B358D464799DC2CFB2 ADDRESS 0x1F PUSH5 0x736F6C6343 STOP SMOD DIV STOP CALLER "
        },
        "gasEstimates": {
          "creation": {
            "codeDepositCost": "127000",
            "executionCost": "171",
            "totalCost": "127171"
          },
          "external": {
            "canReturnTransferRestrictionCode(uint8)": "269",
            "detectTransferRestriction(address,address,uint256)": "401",
            "isTransferValid(address,address,uint256)": "391",
            "messageForTransferRestriction(uint8)": "infinite"
          }
        },
        "methodIdentifiers": {
          "canReturnTransferRestrictionCode(uint8)": "7d045df6",
          "detectTransferRestriction(address,address,uint256)": "d4ce1415",
          "isTransferValid(address,address,uint256)": "40ecb7f2",
          "messageForTransferRestriction(uint8)": "7f4ab1dd"
        }
      },
      "storageLayout": {
        "storage": [],
        "types": null
      },
      "userdoc": {
        "kind": "user",
        "methods": {},
        "version": 1
      }
    }
  }
}