{
  "contractName": "APDefinitions",
  "abi": [
    {
      "constant": true,
      "inputs": [],
      "name": "PRECISION",
      "outputs": [
        {
          "name": "",
          "type": "uint256"
        }
      ],
      "payable": false,
      "stateMutability": "view",
      "type": "function"
    }
  ],
  "bytecode": "0x6080604052348015600f57600080fd5b5060928061001e6000396000f3fe6080604052348015600f57600080fd5b50600436106044577c01000000000000000000000000000000000000000000000000000000006000350463aaf5eb6881146049575b600080fd5b604f6061565b60408051918252519081900360200190f35b60128156fea165627a7a72305820dfe30bbf053c9d4eb4094c0af7eeda9eca0964bf3f93be055de954ada6d10e790029",
  "source": "pragma solidity ^0.5.2;\r\n\r\n\r\ncontract APDefinitions {\r\n\r\n\tint256 constant INT256_MIN = int256((uint256(1) << 255));\r\n\tint256 constant INT256_MAX = int256(~((uint256(1) << 255)));\r\n\tuint256 constant UINT256_MIN = 0;\r\n\tuint256 constant UINT256_MAX = ~uint256(0);\r\n\tint256 constant DOUBLE_NULL = INT256_MIN;\r\n\r\n\tuint256 constant public PRECISION = 18;\r\n \r\n\tuint256 constant MAX_CYCLE_SIZE = 16;\r\n\tuint256 constant MAX_EVENT_SCHEDULE_SIZE = 64; // 4x MAX_CYCLE_SIZE for IP, RR, FP and SC\r\n\r\n\t// IPS\r\n\tenum P {D, W, M, Q, H, Y} // P=[D=Days, W=Weeks, M=Months, Q=Quarters, H=Halfyear, Y=Year]\r\n\tenum S {LONG, SHORT} // S=[+=long stub,- short stub, {} if S empty then - for short stub]\r\n\tstruct IPS { \r\n\t\tuint256 i; // I=Integer\r\n\t\tP p; \r\n\t\tS s;\r\n\t\tbool isSet;\r\n\t}\r\n\r\n\tenum EventType {SD, MD, AD, IED, IP, PR, PP, PY, FP, PRD, TD, IPCI, RR, RRY, SC, CD, DV, MR, IPCB, STD, Child}\r\n\tenum Calendar {NULL, NoCalendar, MondayToFriday} // Custom: custom implementation of calendar  // Default: NULL\r\n\tenum BusinessDayConvention {NULL, SCF, SCMF, CSF, CSMF, SCP, SCMP, CSP, CSMP} // Default: NULL\r\n\tenum ClearingHouse {YES, NO} // required ?\r\n\tenum ContractRole {RPA, RPL, LG, ST, RFL, PFL, BUYER, SELLER, GUARANTOR, OBLIGEE} // required ?\r\n\tenum ContractStatus {PF, DL, DQ, DF} // Default: PF\r\n\tenum ContractType {PAM, ANN, NAM, LAM, LAX, CLM, UMP, CSH, STK, COM, SWAPS, SWPPV, FXOUT, CAPFL, FUTUR, OPTNS, CEG, CEC} // required ?\r\n\tenum Currency {USD, EUR, ETH, ERC20} // ISO4217 // required ?\r\n\tenum CyclePointOfInterestPayment {EndOf, BeginningOf} // Default: EndOf\r\n\tenum CyclePointOfRateReset {BeginningOf, EndOf} // Default: BeginningOf\r\n\tenum CycleTriggerOfOptionality {IP, PR, RR}\r\n\tenum DayCountConvention {A_AISDA, A_360, A_365, _30E_360ISDA, _30E_360, _30_360, BUS_252} // required ?\r\n\tenum EndOfMonthConvention {SD, EOM} // Default: SD\r\n\tenum EventLevel {P} // ?\r\n\tenum FeeBasis {A, N} // Default: Null\r\n\tenum InterestCalculationBase {NT, NTIED, NTL} // Default: NT\r\n\tenum MarketObjectCodeOfRateReset {USD_SWP, USD_GOV, CHF_SWP} // Must correspond to defined set of market objects // Default: CUR ?\r\n\tenum ObjectCodeOfPrepaymentModel {IDXY} // ?\r\n\tenum OptionExecutionType {E, B, A} // required ?\r\n\tenum OptionStrikeDriver {FX, IR, PR} // ?\r\n\tenum OptionType {C, P, CP} // required ?\r\n\tenum PenaltyType {O, A, N, I} // Default: 0\r\n\tenum PrepaymentEffect {N, A, M} // Default: N\r\n\tenum ScalingEffect {_000, _0N0, _00M, _0NM, I00, IN0, I0M, INM} // Default: _000 \r\n\tenum Seniority {S, J} // required ?\r\n\tenum Unit {BRL, BSH, GLN, CUU, MWH, PND, STN, TON, TRO} // required ?\r\n\r\n\tstruct ContractState {\r\n\t\tuint256 lastEventTime;\r\n\t\tContractStatus contractStatus;\r\n\t\tint256 timeFromLastEvent; // analytical result\r\n\t\tint256 nominalValue; // analytical result\r\n\t\tint256 nominalAccrued; // analytical result\r\n\t\tint256 feeAccrued; // analytical result\r\n\t\tint256 nominalRate; // analytical result\r\n\t\t// int256 interestCalculationBase;\r\n\t\tint256 interestScalingMultiplier;\r\n\t\tint256 nominalScalingMultiplier;\r\n\t\t// int256 nextPrincipalRedemptionPayment;\r\n\t\t// int256 secondaryNominalValue; // analytical result\r\n\t\t// int256 lastInterestPayment;\r\n\t\t// int256 payoffAtSettlement;\r\n\t\t// int256 variationMargin; // analytical result\r\n\t\tContractRole contractRoleSign;\r\n\t\t// int256 nominalAccruedFix;\r\n\t\t// int256 nominalAccruedFloat;\r\n\t\t// uint8 probabilityOfDefault;\r\n\t}\r\n\r\n\tstruct ContractEvent {\r\n\t\t// uint256 epochOffset;\r\n\t\tuint256 scheduledTime;\r\n\t\tEventType eventType;\r\n\t\tCurrency currency;\r\n\t\tint256 payoff;\r\n\t\tuint256 actualEventTime;\r\n\t}\r\n\r\n\tstruct ProtoEvent {\r\n\t\tuint256 scheduledTime;\r\n\t\tEventType eventType;\r\n\t\tCurrency currency;\r\n\t\tEventType pofType;\r\n\t\tEventType stfType;\r\n\t}\r\n\r\n\tstruct ContractTerms {\r\n\t\tCalendar calendar;\r\n\t\tContractRole contractRole;\r\n\t\tstring legalEntityIdRecordCreator;\r\n\t\tstring legalEntityIdCounterparty;\r\n\t\tDayCountConvention dayCountConvention;\r\n\t\tBusinessDayConvention businessDayConvention;\r\n\t\tEndOfMonthConvention endOfMonthConvention;\r\n\t\tCurrency currency;\r\n\t\tScalingEffect scalingEffect;\r\n\t\tPenaltyType penaltyType;\r\n\t\tFeeBasis feeBasis;\r\n\r\n\t\tuint256 statusDate;\r\n\t\tuint256 initialExchangeDate;\r\n\t\tuint256 maturityDate;\r\n\t\tuint256 terminationDate;\r\n\t\tuint256 purchaseDate;\r\n\t\tuint256 capitalizationEndDate;\r\n\t\tuint256 cycleAnchorDateOfInterestPayment;\r\n\t\tuint256 cycleAnchorDateOfRateReset;\r\n\t\tuint256 cycleAnchorDateOfScalingIndex;\r\n\t\tuint256 cycleAnchorDateOfFee;\r\n\r\n\t\tint256 notionalPrincipal;\r\n\t\tint256 nominalInterestRate;\r\n\t\tint256 feeAccrued;\r\n\t\tint256 accruedInterest;\r\n\t\tint256 rateMultiplier;\r\n\t\tint256 rateSpread;\r\n\t\tint256 feeRate;\r\n\t\tint256 nextResetRate;\r\n\t\tint256 penaltyRate;\r\n\t\tint256 premiumDiscountAtIED;\r\n\t\tint256 priceAtPurchaseDate;\r\n\r\n\t\tIPS cycleOfInterestPayment;\r\n\t\tIPS cycleOfRateReset;\r\n\t\tIPS cycleOfScalingIndex;\r\n\t\tIPS cycleOfFee;\r\n\r\n\t\tint256 lifeCap;\r\n\t\tint256 lifePeriod;\r\n\t\tint256 lifeFloor;\r\n\t\tint256 periodCap;\r\n\t\tint256 periodFloor;\r\n\r\n\t\t// ObjectCodeOfPrepaymentModel objectCodeOfPrepaymentModel;\r\n\t\t// MarketObjectCodeOfRateReset marketObjectCodeOfRateReset;\r\n\t}\r\n\r\n\tstruct AssetOwnership {\r\n\t\taddress recordCreatorObligor;\r\n\t\taddress payable recordCreatorBeneficiary;\r\n\t\taddress counterpartyObligor;\r\n\t\taddress payable counterpartyBeneficiary;\r\n\t}\r\n}",
  "sourcePath": "/Users/johannes/Documents/dev/actus-protocol/ap-monorepo/packages/ap-contracts/contracts/APCore/APDefinitions.sol",
  "compiler": {
    "name": "solc",
    "version": "0.5.2+commit.1df8f40c.Emscripten.clang"
  },
  "schemaVersion": "3.0.1",
  "updatedAt": "2019-03-28T18:25:01.720Z",
  "devdoc": {
    "methods": {}
  },
  "userdoc": {
    "methods": {}
  }
}