{
  "contractName": "APFloatMath",
  "abi": [
    {
      "constant": true,
      "inputs": [],
      "name": "MULTIPLICATOR",
      "outputs": [
        {
          "name": "",
          "type": "uint256"
        }
      ],
      "payable": false,
      "stateMutability": "view",
      "type": "function",
      "signature": "0x0b540720"
    },
    {
      "constant": true,
      "inputs": [],
      "name": "PRECISION",
      "outputs": [
        {
          "name": "",
          "type": "uint256"
        }
      ],
      "payable": false,
      "stateMutability": "view",
      "type": "function",
      "signature": "0xaaf5eb68"
    },
    {
      "constant": true,
      "inputs": [
        {
          "name": "self",
          "type": "int256"
        },
        {
          "name": "b",
          "type": "int256"
        }
      ],
      "name": "floatMult",
      "outputs": [
        {
          "name": "",
          "type": "int256"
        }
      ],
      "payable": false,
      "stateMutability": "pure",
      "type": "function",
      "signature": "0x72446d42"
    },
    {
      "constant": true,
      "inputs": [
        {
          "name": "self",
          "type": "int256"
        },
        {
          "name": "b",
          "type": "int256"
        }
      ],
      "name": "floatDiv",
      "outputs": [
        {
          "name": "",
          "type": "int256"
        }
      ],
      "payable": false,
      "stateMutability": "pure",
      "type": "function",
      "signature": "0x08c8e607"
    }
  ],
  "bytecode": "0x6103d5610030600b82828239805160001a6073146000811461002057610022565bfe5b5030600052607381538281f3fe7300000000000000000000000000000000000000003014608060405260043610610072577c0100000000000000000000000000000000000000000000000000000000600035046308c8e60781146100775780630b540720146100ac57806372446d42146100b4578063aaf5eb68146100d7575b600080fd5b61009a6004803603604081101561008d57600080fd5b50803590602001356100df565b60408051918252519081900360200190f35b61009a610287565b61009a600480360360408110156100ca57600080fd5b5080359060200135610293565b61009a610384565b6000811515610138576040805160e560020a62461bcd02815260206004820152600e60248201527f4449564944454442595f5a45524f000000000000000000000000000000000000604482015290519081900360640190fd5b82151561014757506000610281565b670de0b6b3a764000083810290848281151561015f57fe5b05146101a3576040805160e560020a62461bcd028152602060048201526011602482015260008051602061038a833981519152604482015290519081900360640190fd5b826000191480156101d357507f800000000000000000000000000000000000000000000000000000000000000084145b15610216576040805160e560020a62461bcd028152602060048201526011602482015260008051602061038a833981519152604482015290519081900360640190fd5b6000838281151561022357fe5b05905080151561027d576040805160e560020a62461bcd02815260206004820152601c60248201527f43414e4e4f545f524550524553454e545f4752414e554c415249545900000000604482015290519081900360640190fd5b9150505b92915050565b670de0b6b3a764000081565b60008215806102a0575081155b156102ad57506000610281565b826000191480156102dd57507f800000000000000000000000000000000000000000000000000000000000000082145b15610320576040805160e560020a62461bcd028152602060048201526011602482015260008051602061038a833981519152604482015290519081900360640190fd5b82820282848281151561032f57fe5b0514610373576040805160e560020a62461bcd028152602060048201526011602482015260008051602061038a833981519152604482015290519081900360640190fd5b6000670de0b6b3a764000082610223565b60128156fe4f564552464c4f575f4445544543544544000000000000000000000000000000a165627a7a72305820d7a27a786e6a6b4a0ee8668542197de0d74b8cd172a2ce4c28e977ec579d25e90029",
  "source": "pragma solidity ^0.5.2;\n\n\nlibrary APFloatMath {\n\t\n\tint256 constant private INT256_MIN = -2 ** 255;\n\t\t\n\tuint256 constant public PRECISION = 18;\n\tuint256 constant public MULTIPLICATOR = 10 ** PRECISION;\n\n\t/**\n\t * @dev The product of self and b has to be less than INT256_MAX (~10 ** 76), \n\t * as devision (normalization) is performed after multiplication\n\t * Upper boundary would be (10 ** 58) * (MULTIPLICATOR) == ~10 ** 76\n\t */\n\tfunction floatMult(int256 self, int256 b)\n\t\tpublic\n\t\tpure\n\t\treturns (int256)\n\t{\n\t\tif (self == 0 || b == 0) { return 0; }\n\t\t\n\t\trequire(!(self == -1 && b == INT256_MIN), \"OVERFLOW_DETECTED\");\n\t\tint256 c = self * b;\n\t\trequire(c / self == b, \"OVERFLOW_DETECTED\");\n\n\t\t// normalize (divide by MULTIPLICATOR)\n\t\tint256 d = c / int256(MULTIPLICATOR);\n\t\trequire(d != 0, \"CANNOT_REPRESENT_GRANULARITY\");\n\t\t\n\t\treturn d;\n\t}\n\t\t\t\n\tfunction floatDiv(int256 self, int256 b) \n\t\tpublic\n\t\tpure \n\t\treturns (int256)\n\t{\n\t\trequire(b != 0, \"DIVIDEDBY_ZERO\");\n\n\t\t// normalize (multiply by MULTIPLICATOR)\n\t\tif (self == 0) { return 0; } \n\t\tint256 c = self * int256(MULTIPLICATOR);\n\t\trequire(c / self == int256(MULTIPLICATOR), \"OVERFLOW_DETECTED\");\n\n\t\trequire(!(b == -1 && self == INT256_MIN), \"OVERFLOW_DETECTED\");\n\t\tint256 d = c / b;\n\t\trequire(d != 0, \"CANNOT_REPRESENT_GRANULARITY\");\n\n\t\treturn d;\n\t}\n}",
  "sourcePath": "/Users/johannes/Documents/dev/actus-protocol/ap-monorepo/packages/ap-contracts/contracts/APCore/APFloatMath.sol",
  "compiler": {
    "name": "solc",
    "version": "0.5.2+commit.1df8f40c.Emscripten.clang"
  },
  "schemaVersion": "3.0.1",
  "updatedAt": "2019-03-29T13:25:19.170Z",
  "devdoc": {
    "methods": {
      "floatMult(int256,int256)": {
        "details": "The product of self and b has to be less than INT256_MAX (~10 ** 76),  as devision (normalization) is performed after multiplication Upper boundary would be (10 ** 58) * (MULTIPLICATOR) == ~10 ** 76"
      }
    }
  },
  "userdoc": {
    "methods": {}
  }
}