{
  "contractName": "AssetIssuer",
  "abi": [
    {
      "constant": true,
      "inputs": [],
      "name": "PRECISION",
      "outputs": [
        {
          "name": "",
          "type": "uint256"
        }
      ],
      "payable": false,
      "stateMutability": "view",
      "type": "function",
      "signature": "0xaaf5eb68"
    },
    {
      "constant": false,
      "inputs": [
        {
          "components": [
            {
              "name": "maker",
              "type": "address"
            },
            {
              "name": "taker",
              "type": "address"
            },
            {
              "name": "actor",
              "type": "address"
            },
            {
              "components": [
                {
                  "name": "calendar",
                  "type": "uint8"
                },
                {
                  "name": "contractRole",
                  "type": "uint8"
                },
                {
                  "name": "legalEntityIdRecordCreator",
                  "type": "string"
                },
                {
                  "name": "legalEntityIdCounterparty",
                  "type": "string"
                },
                {
                  "name": "dayCountConvention",
                  "type": "uint8"
                },
                {
                  "name": "businessDayConvention",
                  "type": "uint8"
                },
                {
                  "name": "endOfMonthConvention",
                  "type": "uint8"
                },
                {
                  "name": "currency",
                  "type": "uint8"
                },
                {
                  "name": "scalingEffect",
                  "type": "uint8"
                },
                {
                  "name": "penaltyType",
                  "type": "uint8"
                },
                {
                  "name": "feeBasis",
                  "type": "uint8"
                },
                {
                  "name": "statusDate",
                  "type": "uint256"
                },
                {
                  "name": "initialExchangeDate",
                  "type": "uint256"
                },
                {
                  "name": "maturityDate",
                  "type": "uint256"
                },
                {
                  "name": "terminationDate",
                  "type": "uint256"
                },
                {
                  "name": "purchaseDate",
                  "type": "uint256"
                },
                {
                  "name": "capitalizationEndDate",
                  "type": "uint256"
                },
                {
                  "name": "cycleAnchorDateOfInterestPayment",
                  "type": "uint256"
                },
                {
                  "name": "cycleAnchorDateOfRateReset",
                  "type": "uint256"
                },
                {
                  "name": "cycleAnchorDateOfScalingIndex",
                  "type": "uint256"
                },
                {
                  "name": "cycleAnchorDateOfFee",
                  "type": "uint256"
                },
                {
                  "name": "notionalPrincipal",
                  "type": "int256"
                },
                {
                  "name": "nominalInterestRate",
                  "type": "int256"
                },
                {
                  "name": "feeAccrued",
                  "type": "int256"
                },
                {
                  "name": "accruedInterest",
                  "type": "int256"
                },
                {
                  "name": "rateMultiplier",
                  "type": "int256"
                },
                {
                  "name": "rateSpread",
                  "type": "int256"
                },
                {
                  "name": "feeRate",
                  "type": "int256"
                },
                {
                  "name": "nextResetRate",
                  "type": "int256"
                },
                {
                  "name": "penaltyRate",
                  "type": "int256"
                },
                {
                  "name": "premiumDiscountAtIED",
                  "type": "int256"
                },
                {
                  "name": "priceAtPurchaseDate",
                  "type": "int256"
                },
                {
                  "components": [
                    {
                      "name": "i",
                      "type": "uint256"
                    },
                    {
                      "name": "p",
                      "type": "uint8"
                    },
                    {
                      "name": "s",
                      "type": "uint8"
                    },
                    {
                      "name": "isSet",
                      "type": "bool"
                    }
                  ],
                  "name": "cycleOfInterestPayment",
                  "type": "tuple"
                },
                {
                  "components": [
                    {
                      "name": "i",
                      "type": "uint256"
                    },
                    {
                      "name": "p",
                      "type": "uint8"
                    },
                    {
                      "name": "s",
                      "type": "uint8"
                    },
                    {
                      "name": "isSet",
                      "type": "bool"
                    }
                  ],
                  "name": "cycleOfRateReset",
                  "type": "tuple"
                },
                {
                  "components": [
                    {
                      "name": "i",
                      "type": "uint256"
                    },
                    {
                      "name": "p",
                      "type": "uint8"
                    },
                    {
                      "name": "s",
                      "type": "uint8"
                    },
                    {
                      "name": "isSet",
                      "type": "bool"
                    }
                  ],
                  "name": "cycleOfScalingIndex",
                  "type": "tuple"
                },
                {
                  "components": [
                    {
                      "name": "i",
                      "type": "uint256"
                    },
                    {
                      "name": "p",
                      "type": "uint8"
                    },
                    {
                      "name": "s",
                      "type": "uint8"
                    },
                    {
                      "name": "isSet",
                      "type": "bool"
                    }
                  ],
                  "name": "cycleOfFee",
                  "type": "tuple"
                },
                {
                  "name": "lifeCap",
                  "type": "int256"
                },
                {
                  "name": "lifePeriod",
                  "type": "int256"
                },
                {
                  "name": "lifeFloor",
                  "type": "int256"
                },
                {
                  "name": "periodCap",
                  "type": "int256"
                },
                {
                  "name": "periodFloor",
                  "type": "int256"
                }
              ],
              "name": "terms",
              "type": "tuple"
            },
            {
              "name": "makerCreditEnhancement",
              "type": "address"
            },
            {
              "name": "takerCreditEnhancement",
              "type": "address"
            },
            {
              "name": "salt",
              "type": "uint256"
            }
          ],
          "name": "order",
          "type": "tuple"
        },
        {
          "name": "makerSignature",
          "type": "bytes"
        },
        {
          "name": "takerSignature",
          "type": "bytes"
        }
      ],
      "name": "fillOrder",
      "outputs": [],
      "payable": false,
      "stateMutability": "nonpayable",
      "type": "function",
      "signature": "0x24d4656e"
    }
  ],
  "bytecode": "0x600e6101009081527f41435455532050726f746f636f6c00000000000000000000000000000000000061012052608090815261018060405260016101409081527f31000000000000000000000000000000000000000000000000000000000000006101605260a052600060c0523060e05262000084906401000000006200008d810204565b60005562000192565b6000604051808062001872605291396052019050604051809103902082600001518051906020012083602001518051906020012084604001518560600151604051602001620000e19594939291906200011a565b604051602081830303815290604052805190602001209050919050565b620001098162000170565b82525050565b620001098162000183565b60a081016200012a82886200010f565b6200013960208301876200010f565b6200014860408301866200010f565b6200015760608301856200010f565b620001666080830184620000fe565b9695505050505050565b60006200017d8262000186565b92915050565b90565b600160a060020a031690565b6116d080620001a26000396000f3fe608060405234801561001057600080fd5b5060043610610052577c0100000000000000000000000000000000000000000000000000000000600035046324d4656e8114610057578063aaf5eb681461006c575b600080fd5b61006a610065366004610b90565b61008a565b005b610074610200565b6040516100819190611396565b60405180910390f35b610095838383610205565b15156100bf5760405160e560020a62461bcd0281526004016100b690611355565b60405180910390fd5b600082826040516020016100d4929190611320565b6040516020818303038152906040528051906020012090506100f461055f565b5060408051608081018252855173ffffffffffffffffffffffffffffffffffffffff90811682528651811660208084019190915287018051821683850152518116606080840191909152878401519088015193517f2565cb3f0000000000000000000000000000000000000000000000000000000081529293911691632565cb3f9161018691869186916004016112ea565b602060405180830381600087803b1580156101a057600080fd5b505af11580156101b4573d6000803e3d6000fd5b505050506040513d601f19601f820116820180604052506101d89190810190610b6a565b15156101f95760405160e560020a62461bcd0281526004016100b690611365565b5050505050565b601281565b60008060005461021486610391565b60405160200180807f19010000000000000000000000000000000000000000000000000000000000008152506002018381526020018281526020019250505060405160208183030381529060405280519060200120905060008054610278876103ff565b60405160200180807f190100000000000000000000000000000000000000000000000000000000000081525060020183815260200182815260200192505050604051602081830303815290604052805190602001209050856000015173ffffffffffffffffffffffffffffffffffffffff166102f4838761045c565b73ffffffffffffffffffffffffffffffffffffffff161461032a5760405160e560020a62461bcd0281526004016100b690611345565b856020015173ffffffffffffffffffffffffffffffffffffffff1661034f828661045c565b73ffffffffffffffffffffffffffffffffffffffff16146103855760405160e560020a62461bcd0281526004016100b690611375565b50600195945050505050565b6000604051808061159a6068913960680190506040518091039020826000015183604001516103c3856060015161054c565b85608001518660c001516040516020016103e296959493929190611290565b604051602081830303815290604052805190602001209050919050565b600060405180806116026095913960950190506040518091039020826000015183602001518460400151610436866060015161054c565b86608001518760a001518860c001516040516020016103e2989796959493929190611219565b805160009060411461047057506000610546565b60208201516040830151606084015160001a7f7fffffffffffffffffffffffffffffff5d576e7357a4501ddfe92f46681b20a08211156104b65760009350505050610546565b8060ff16601b141580156104ce57508060ff16601c14155b156104df5760009350505050610546565b6040805160008152602080820180845289905260ff8416828401526060820186905260808201859052915160019260a0808401939192601f1981019281900390910190855afa158015610536573d6000803e3d6000fd5b5050506020604051035193505050505b92915050565b6000816040516020016103e29190611385565b60408051608081018252600080825260208201819052918101829052606081019190915290565b600061059282356113f7565b9392505050565b60006105928235611402565b60006105928251611402565b6000601f820183136105c257600080fd5b81356105d56105d0826113cb565b6113a4565b915080825260208301602083018583830111156105f157600080fd5b6105fc838284611557565b50505092915050565b60006105928235611487565b60006105928235611496565b600061059282356114a5565b600061059282356114b4565b600061059282356114c3565b600061059282356114d2565b600061059282356114e1565b600061059282356114f0565b60006105928235611407565b60006106a0828403121561068457600080fd5b61068f6105206113a4565b9050600061069d8484610611565b82525060206106ae8484830161061d565b602083015250604082013567ffffffffffffffff8111156106ce57600080fd5b6106da848285016105b1565b604083015250606082013567ffffffffffffffff8111156106fa57600080fd5b610706848285016105b1565b606083015250608061071a84828501610635565b60808301525060a061072e84828501610605565b60a08301525060c061074284828501610641565b60c08301525060e061075684828501610629565b60e08301525061010061076b84828501610659565b6101008301525061012061078184828501610629565b6101208301525061014061079784828501610641565b610140830152506101606107ad84828501610665565b610160830152506101806107c384828501610665565b610180830152506101a06107d984828501610665565b6101a0830152506101c06107ef84828501610665565b6101c0830152506101e061080584828501610665565b6101e08301525061020061081b84828501610665565b6102008301525061022061083184828501610665565b6102208301525061024061084784828501610665565b6102408301525061026061085d84828501610665565b6102608301525061028061087384828501610665565b610280830152506102a061088984828501610665565b6102a0830152506102c061089f84828501610665565b6102c0830152506102e06108b584828501610665565b6102e0830152506103006108cb84828501610665565b610300830152506103206108e184828501610665565b610320830152506103406108f784828501610665565b6103408301525061036061090d84828501610665565b6103608301525061038061092384828501610665565b610380830152506103a061093984828501610665565b6103a0830152506103c061094f84828501610665565b6103c0830152506103e061096584828501610665565b6103e08301525061040061097b84828501610a38565b6104008301525061048061099184828501610a38565b610420830152506105006109a784828501610a38565b610440830152506105806109bd84828501610a38565b610460830152506106006109d384828501610665565b610480830152506106206109e984828501610665565b6104a0830152506106406109ff84828501610665565b6104c083015250610660610a1584828501610665565b6104e083015250610680610a2b84828501610665565b6105008301525092915050565b600060808284031215610a4a57600080fd5b610a5460806113a4565b90506000610a628484610665565b8252506020610a738484830161064d565b6020830152506040610a8784828501610641565b6040830152506060610a9b84828501610599565b60608301525092915050565b600060e08284031215610ab957600080fd5b610ac360e06113a4565b90506000610ad18484610586565b8252506020610ae284848301610586565b6020830152506040610af684828501610586565b604083015250606082013567ffffffffffffffff811115610b1657600080fd5b610b2284828501610671565b6060830152506080610b3684828501610586565b60808301525060a0610b4a84828501610586565b60a08301525060c0610b5e84828501610665565b60c08301525092915050565b600060208284031215610b7c57600080fd5b6000610b8884846105a5565b949350505050565b600080600060608486031215610ba557600080fd5b833567ffffffffffffffff811115610bbc57600080fd5b610bc886828701610aa7565b935050602084013567ffffffffffffffff811115610be557600080fd5b610bf1868287016105b1565b925050604084013567ffffffffffffffff811115610c0e57600080fd5b610c1a868287016105b1565b9150509250925092565b610c2d816113f7565b82525050565b610c2d81611402565b610c2d81611407565b6000610c50826113f3565b808452610c64816020860160208601611563565b610c6d8161158f565b9093016020019392505050565b610c2d816114ff565b610c2d8161150a565b610c2d81611515565b610c2d81611520565b610c2d8161152b565b610c2d81611536565b610c2d81611541565b610c2d8161154c565b603c81527f494e56414c49445f4f524445525f5349474e41545552453a205265636f76657260208201527f65642061646472657373206973206e6f7420746865206d616b65722100000000604082015260600190565b603081527f494e56414c49445f5349474e41545552453a204f72646572207369676e61747560208201527f7265732061726520696e76616c69642100000000000000000000000000000000604082015260600190565b602681527f455845435554494f4e5f4552524f523a20496e697469616c697a6174696f6e2060208201527f6661696c65640000000000000000000000000000000000000000000000000000604082015260600190565b603c81527f494e56414c49445f4f524445525f5349474e41545552453a205265636f76657260208201527f65642061646472657373206973206e6f74207468652074616b65722100000000604082015260600190565b80516080830190610e2b8482610c24565b506020820151610e3e6020850182610c24565b506040820151610e516040850182610c24565b506060820151610e646060850182610c24565b50505050565b80516000906106a0840190610e7f8582610c83565b506020830151610e926020860182610c8c565b5060408301518482036040860152610eaa8282610c45565b91505060608301518482036060860152610ec48282610c45565b9150506080830151610ed96080860182610c9e565b5060a0830151610eec60a0860182610c7a565b5060c0830151610eff60c0860182610ca7565b5060e0830151610f1260e0860182610c95565b50610100830151610f27610100860182610cb9565b50610120830151610f3c610120860182610c95565b50610140830151610f51610140860182610ca7565b50610160830151610f66610160860182610c3c565b50610180830151610f7b610180860182610c3c565b506101a0830151610f906101a0860182610c3c565b506101c0830151610fa56101c0860182610c3c565b506101e0830151610fba6101e0860182610c3c565b50610200830151610fcf610200860182610c3c565b50610220830151610fe4610220860182610c3c565b50610240830151610ff9610240860182610c3c565b5061026083015161100e610260860182610c3c565b50610280830151611023610280860182610c3c565b506102a08301516110386102a0860182610c3c565b506102c083015161104d6102c0860182610c3c565b506102e08301516110626102e0860182610c3c565b50610300830151611077610300860182610c3c565b5061032083015161108c610320860182610c3c565b506103408301516110a1610340860182610c3c565b506103608301516110b6610360860182610c3c565b506103808301516110cb610380860182610c3c565b506103a08301516110e06103a0860182610c3c565b506103c08301516110f56103c0860182610c3c565b506103e083015161110a6103e0860182610c3c565b5061040083015161111f6104008601826111cf565b506104208301516111346104808601826111cf565b506104408301516111496105008601826111cf565b5061046083015161115e6105808601826111cf565b50610480830151611173610600860182610c3c565b506104a0830151611188610620860182610c3c565b506104c083015161119d610640860182610c3c565b506104e08301516111b2610660860182610c3c565b506105008301516111c7610680860182610c3c565b509392505050565b805160808301906111e08482610c3c565b5060208201516111f36020850182610cb0565b5060408201516112066040850182610ca7565b506060820151610e646060850182610c33565b6101008101611228828b610c3c565b611235602083018a610c24565b6112426040830189610c24565b61124f6060830188610c24565b61125c6080830187610c3c565b61126960a0830186610c24565b61127660c0830185610c24565b61128360e0830184610c3c565b9998505050505050505050565b60c0810161129e8289610c3c565b6112ab6020830188610c24565b6112b86040830187610c24565b6112c56060830186610c3c565b6112d26080830185610c24565b6112df60a0830184610c3c565b979650505050505050565b60c081016112f88286610c3c565b6113056020830185610e1a565b81810360a08301526113178184610e6a565b95945050505050565b604080825281016113318185610c45565b90508181036020830152610b888184610c45565b6020808252810161054681610cc2565b6020808252810161054681610d18565b6020808252810161054681610d6e565b6020808252810161054681610dc4565b602080825281016105928184610e6a565b602081016105468284610c3c565b60405181810167ffffffffffffffff811182821017156113c357600080fd5b604052919050565b600067ffffffffffffffff8211156113e257600080fd5b506020601f91909101601f19160190565b5190565b60006105468261146e565b151590565b90565b60006009821061141657fe5b5090565b60006003821061141657fe5b6000600a821061141657fe5b60006004821061141657fe5b60006007821061141657fe5b60006002821061141657fe5b60006006821061141657fe5b60006008821061141657fe5b73ffffffffffffffffffffffffffffffffffffffff1690565b60006009821061141657600080fd5b60006003821061141657600080fd5b6000600a821061141657600080fd5b60006004821061141657600080fd5b60006007821061141657600080fd5b60006002821061141657600080fd5b60006006821061141657600080fd5b60006008821061141657600080fd5b60006105468261140a565b60006105468261141a565b600061054682611426565b600061054682611432565b60006105468261143e565b60006105468261144a565b600061054682611456565b600061054682611462565b82818337506000910152565b60005b8381101561157e578181015183820152602001611566565b83811115610e645750506000910152565b601f01601f19169056fe4f726465722861646472657373206d616b65722c61646472657373206163746f722c6279746573333220636f6e74726163745465726d73486173682c61646472657373206d616b6572437265646974456e68616e63656d656e742c75696e743235362073616c74294f726465722861646472657373206d616b65722c616464726573732074616b65722c61646472657373206163746f722c6279746573333220636f6e74726163745465726d73486173682c61646472657373206d616b6572437265646974456e68616e63656d656e742c616464726573732074616b6572437265646974456e68616e63656d656e742c75696e743235362073616c7429a265627a7a72305820142b5800ab39287bf662c88f26ab7b75aa5b8286d3226519205927450611df366c6578706572696d656e74616cf50037454950373132446f6d61696e28737472696e67206e616d652c737472696e672076657273696f6e2c75696e7432353620636861696e49642c6164647265737320766572696679696e67436f6e747261637429",
  "source": "pragma solidity ^0.5.2;\npragma experimental ABIEncoderV2;\n\nimport \"../APCore/APDefinitions.sol\";\nimport \"./VerifyOrder.sol\"; \nimport \"../APExtended/IAssetActor.sol\";\n\n\ncontract AssetIssuer is APDefinitions, VerifyOrder {\n\n\t/**\n\t * issues an asset from an order which was signed by the maker and taker\n\t * @dev verifies both signatures and calls the init code defined in the actor contract\n\t * @param order order for which to issue the asset\n\t * @param makerSignature signature of the maker of the order\n\t * @param takerSignature signature of the taker of the order\n\t */\n\tfunction fillOrder(\n\t\tOrder memory order, \n\t\tbytes memory makerSignature,\n\t\tbytes memory takerSignature\n\t) \n\t\tpublic \n\t{\n\t\trequire(\n\t\t\tassertOrderSignatures(order, makerSignature, takerSignature), \n\t\t\t\"INVALID_SIGNATURE: Order signatures are invalid!\"\n\t\t);\n\n\t\tbytes32 assetId = keccak256(\n\t\t\tabi.encode(makerSignature, takerSignature)\n\t\t);\n\t\tAssetOwnership memory ownership = AssetOwnership(\n\t\t\torder.maker, \n\t\t\torder.maker, \n\t\t\torder.taker, \n\t\t\torder.taker\n\t\t);\n\n\t\trequire(\n\t\t\tIAssetActor(order.actor).initialize(assetId, ownership, order.terms), \n\t\t\t\"EXECUTION_ERROR: Initialization failed\"\n\t\t);\n\t}\n}\n",
  "sourcePath": "/Users/johannes/Documents/dev/actus-protocol/ap-monorepo/packages/ap-contracts/contracts/APIssuance/AssetIssuer.sol",
  "compiler": {
    "name": "solc",
    "version": "0.5.2+commit.1df8f40c.Emscripten.clang"
  },
  "schemaVersion": "3.0.1",
  "updatedAt": "2019-03-29T15:08:57.002Z",
  "devdoc": {
    "methods": {
      "fillOrder((address,address,address,(uint8,uint8,string,string,uint8,uint8,uint8,uint8,uint8,uint8,uint8,uint256,uint256,uint256,uint256,uint256,uint256,uint256,uint256,uint256,uint256,int256,int256,int256,int256,int256,int256,int256,int256,int256,int256,int256,(uint256,uint8,uint8,bool),(uint256,uint8,uint8,bool),(uint256,uint8,uint8,bool),(uint256,uint8,uint8,bool),int256,int256,int256,int256,int256),address,address,uint256),bytes,bytes)": {
        "details": "verifies both signatures and calls the init code defined in the actor contract",
        "params": {
          "makerSignature": "signature of the maker of the order",
          "order": "order for which to issue the asset",
          "takerSignature": "signature of the taker of the order"
        }
      }
    }
  },
  "userdoc": {
    "methods": {
      "fillOrder((address,address,address,(uint8,uint8,string,string,uint8,uint8,uint8,uint8,uint8,uint8,uint8,uint256,uint256,uint256,uint256,uint256,uint256,uint256,uint256,uint256,uint256,int256,int256,int256,int256,int256,int256,int256,int256,int256,int256,int256,(uint256,uint8,uint8,bool),(uint256,uint8,uint8,bool),(uint256,uint8,uint8,bool),(uint256,uint8,uint8,bool),int256,int256,int256,int256,int256),address,address,uint256),bytes,bytes)": {
        "notice": "issues an asset from an order which was signed by the maker and taker"
      }
    }
  }
}