{
  "contractName": "ClaimsTokenMultiExtension",
  "abi": [
    {
      "constant": true,
      "inputs": [],
      "name": "name",
      "outputs": [
        {
          "name": "",
          "type": "string"
        }
      ],
      "payable": false,
      "stateMutability": "view",
      "type": "function"
    },
    {
      "constant": false,
      "inputs": [
        {
          "name": "spender",
          "type": "address"
        },
        {
          "name": "value",
          "type": "uint256"
        }
      ],
      "name": "approve",
      "outputs": [
        {
          "name": "",
          "type": "bool"
        }
      ],
      "payable": false,
      "stateMutability": "nonpayable",
      "type": "function"
    },
    {
      "constant": true,
      "inputs": [],
      "name": "totalSupply",
      "outputs": [
        {
          "name": "",
          "type": "uint256"
        }
      ],
      "payable": false,
      "stateMutability": "view",
      "type": "function"
    },
    {
      "constant": true,
      "inputs": [],
      "name": "totalReceivedFunds",
      "outputs": [
        {
          "name": "",
          "type": "uint256"
        }
      ],
      "payable": false,
      "stateMutability": "view",
      "type": "function"
    },
    {
      "constant": false,
      "inputs": [
        {
          "name": "_from",
          "type": "address"
        },
        {
          "name": "_to",
          "type": "address"
        },
        {
          "name": "_value",
          "type": "uint256"
        }
      ],
      "name": "transferFrom",
      "outputs": [
        {
          "name": "",
          "type": "bool"
        }
      ],
      "payable": false,
      "stateMutability": "nonpayable",
      "type": "function"
    },
    {
      "constant": true,
      "inputs": [],
      "name": "decimals",
      "outputs": [
        {
          "name": "",
          "type": "uint8"
        }
      ],
      "payable": false,
      "stateMutability": "view",
      "type": "function"
    },
    {
      "constant": false,
      "inputs": [
        {
          "name": "spender",
          "type": "address"
        },
        {
          "name": "addedValue",
          "type": "uint256"
        }
      ],
      "name": "increaseAllowance",
      "outputs": [
        {
          "name": "",
          "type": "bool"
        }
      ],
      "payable": false,
      "stateMutability": "nonpayable",
      "type": "function"
    },
    {
      "constant": true,
      "inputs": [
        {
          "name": "",
          "type": "address"
        }
      ],
      "name": "processedFunds",
      "outputs": [
        {
          "name": "",
          "type": "uint256"
        }
      ],
      "payable": false,
      "stateMutability": "view",
      "type": "function"
    },
    {
      "constant": true,
      "inputs": [
        {
          "name": "",
          "type": "address"
        }
      ],
      "name": "claimedFunds",
      "outputs": [
        {
          "name": "",
          "type": "uint256"
        }
      ],
      "payable": false,
      "stateMutability": "view",
      "type": "function"
    },
    {
      "constant": true,
      "inputs": [
        {
          "name": "_forAddress",
          "type": "address"
        }
      ],
      "name": "availableFunds",
      "outputs": [
        {
          "name": "",
          "type": "uint256"
        }
      ],
      "payable": false,
      "stateMutability": "view",
      "type": "function"
    },
    {
      "constant": true,
      "inputs": [],
      "name": "fundsToken",
      "outputs": [
        {
          "name": "",
          "type": "address"
        }
      ],
      "payable": false,
      "stateMutability": "view",
      "type": "function"
    },
    {
      "constant": true,
      "inputs": [
        {
          "name": "owner",
          "type": "address"
        }
      ],
      "name": "balanceOf",
      "outputs": [
        {
          "name": "",
          "type": "uint256"
        }
      ],
      "payable": false,
      "stateMutability": "view",
      "type": "function"
    },
    {
      "constant": true,
      "inputs": [],
      "name": "symbol",
      "outputs": [
        {
          "name": "",
          "type": "string"
        }
      ],
      "payable": false,
      "stateMutability": "view",
      "type": "function"
    },
    {
      "constant": false,
      "inputs": [
        {
          "name": "spender",
          "type": "address"
        },
        {
          "name": "subtractedValue",
          "type": "uint256"
        }
      ],
      "name": "decreaseAllowance",
      "outputs": [
        {
          "name": "",
          "type": "bool"
        }
      ],
      "payable": false,
      "stateMutability": "nonpayable",
      "type": "function"
    },
    {
      "constant": false,
      "inputs": [
        {
          "name": "_to",
          "type": "address"
        },
        {
          "name": "_value",
          "type": "uint256"
        }
      ],
      "name": "transfer",
      "outputs": [
        {
          "name": "",
          "type": "bool"
        }
      ],
      "payable": false,
      "stateMutability": "nonpayable",
      "type": "function"
    },
    {
      "constant": true,
      "inputs": [],
      "name": "receivedFunds",
      "outputs": [
        {
          "name": "",
          "type": "uint256"
        }
      ],
      "payable": false,
      "stateMutability": "view",
      "type": "function"
    },
    {
      "constant": true,
      "inputs": [
        {
          "name": "owner",
          "type": "address"
        },
        {
          "name": "spender",
          "type": "address"
        }
      ],
      "name": "allowance",
      "outputs": [
        {
          "name": "",
          "type": "uint256"
        }
      ],
      "payable": false,
      "stateMutability": "view",
      "type": "function"
    },
    {
      "inputs": [
        {
          "name": "_owner",
          "type": "address"
        },
        {
          "name": "_fundsToken",
          "type": "address"
        }
      ],
      "payable": false,
      "stateMutability": "nonpayable",
      "type": "constructor"
    },
    {
      "payable": true,
      "stateMutability": "payable",
      "type": "fallback"
    },
    {
      "anonymous": false,
      "inputs": [
        {
          "indexed": false,
          "name": "fundsDeposited",
          "type": "uint256"
        }
      ],
      "name": "Deposit",
      "type": "event"
    },
    {
      "anonymous": false,
      "inputs": [
        {
          "indexed": true,
          "name": "from",
          "type": "address"
        },
        {
          "indexed": true,
          "name": "to",
          "type": "address"
        },
        {
          "indexed": false,
          "name": "value",
          "type": "uint256"
        }
      ],
      "name": "Transfer",
      "type": "event"
    },
    {
      "anonymous": false,
      "inputs": [
        {
          "indexed": true,
          "name": "owner",
          "type": "address"
        },
        {
          "indexed": true,
          "name": "spender",
          "type": "address"
        },
        {
          "indexed": false,
          "name": "value",
          "type": "uint256"
        }
      ],
      "name": "Approval",
      "type": "event"
    },
    {
      "constant": false,
      "inputs": [],
      "name": "withdrawFunds",
      "outputs": [],
      "payable": true,
      "stateMutability": "payable",
      "type": "function"
    },
    {
      "constant": false,
      "inputs": [
        {
          "name": "",
          "type": "address"
        },
        {
          "name": "_value",
          "type": "uint256"
        },
        {
          "name": "",
          "type": "bytes"
        }
      ],
      "name": "tokenFallback",
      "outputs": [],
      "payable": false,
      "stateMutability": "nonpayable",
      "type": "function"
    }
  ],
  "bytecode": "0x60806040523480156200001157600080fd5b506040516040806200110c833981018060405260408110156200003357600080fd5b508051602091820151604080518082018252600b81527f436c61696d73546f6b656e000000000000000000000000000000000000000000818601908152825180840190935260038084527f4353540000000000000000000000000000000000000000000000000000000000968401969096528151949593948694929392601292620000be9262000211565b508151620000d490600490602085019062000211565b506005805460ff191660ff92909216919091179055506200010b90508169021e19e0c9bab240000064010000000062000138810204565b50600060065560098054600160a060020a031916600160a060020a039290921691909117905550620002b6565b600160a060020a03821615156200014e57600080fd5b6002546200016b908264010000000062000af7620001f782021704565b600255600160a060020a038216600090815260208190526040902054620001a1908264010000000062000af7620001f782021704565b600160a060020a0383166000818152602081815260408083209490945583518581529351929391927fddf252ad1be2c89b69c2b068fc378daa952ba7f163c4a11628f55a4df523b3ef9281900390910190a35050565b6000828201838110156200020a57600080fd5b9392505050565b828054600181600116156101000203166002900490600052602060002090601f016020900481019282601f106200025457805160ff191683800117855562000284565b8280016001018555821562000284579182015b828111156200028457825182559160200191906001019062000267565b506200029292915062000296565b5090565b620002b391905b808211156200029257600081556001016200029d565b90565b610e4680620002c66000396000f3fe608060405260043610610131576000357c010000000000000000000000000000000000000000000000000000000090048063468ce230116100bd578063a457c2d711610081578063a457c2d714610491578063a9059cbb146104ca578063ab96cc4c14610503578063c0ee0b8a14610518578063dd62ed3e146105e057610131565b8063468ce230146103b25780635d16eb5c146103e557806363f04b151461041857806370a082311461044957806395d89b411461047c57610131565b806323b872dd1161010457806323b872dd146102d057806324600fc314610313578063313ce5671461031b57806339509351146103465780633a4486de1461037f57610131565b806306fdde03146101bd578063095ea7b31461024757806318160ddd14610294578063197aecb1146102bb575b600954600160a060020a0316156101a957604080517f08c379a000000000000000000000000000000000000000000000000000000000815260206004820152601560248201527f494e5354414e5449415445445f574954485f4554480000000000000000000000604482015290519081900360640190fd5b60003411156101bb576101bb3461061b565b005b3480156101c957600080fd5b506101d2610667565b6040805160208082528351818301528351919283929083019185019080838360005b8381101561020c5781810151838201526020016101f4565b50505050905090810190601f1680156102395780820380516001836020036101000a031916815260200191505b509250505060405180910390f35b34801561025357600080fd5b506102806004803603604081101561026a57600080fd5b50600160a060020a0381351690602001356106fd565b604080519115158252519081900360200190f35b3480156102a057600080fd5b506102a9610714565b60408051918252519081900360200190f35b3480156102c757600080fd5b506102a961071a565b3480156102dc57600080fd5b50610280600480360360608110156102f357600080fd5b50600160a060020a03813581169160208101359091169060400135610720565b6101bb610747565b34801561032757600080fd5b50610330610836565b6040805160ff9092168252519081900360200190f35b34801561035257600080fd5b506102806004803603604081101561036957600080fd5b50600160a060020a03813516906020013561083f565b34801561038b57600080fd5b506102a9600480360360208110156103a257600080fd5b5035600160a060020a0316610880565b3480156103be57600080fd5b506102a9600480360360208110156103d557600080fd5b5035600160a060020a0316610892565b3480156103f157600080fd5b506102a96004803603602081101561040857600080fd5b5035600160a060020a03166108a4565b34801561042457600080fd5b5061042d6108d6565b60408051600160a060020a039092168252519081900360200190f35b34801561045557600080fd5b506102a96004803603602081101561046c57600080fd5b5035600160a060020a03166108e5565b34801561048857600080fd5b506101d2610900565b34801561049d57600080fd5b50610280600480360360408110156104b457600080fd5b50600160a060020a038135169060200135610961565b3480156104d657600080fd5b50610280600480360360408110156104ed57600080fd5b50600160a060020a03813516906020013561099d565b34801561050f57600080fd5b506102a96109c2565b34801561052457600080fd5b506101bb6004803603606081101561053b57600080fd5b600160a060020a038235169160208101359181019060608101604082013564010000000081111561056b57600080fd5b82018360208201111561057d57600080fd5b8035906020019184600183028401116401000000008311171561059f57600080fd5b91908080601f0160208091040260200160405190810160405280939291908181526020018383808284376000920191909152509295506109c8945050505050565b3480156105ec57600080fd5b506102a96004803603604081101561060357600080fd5b50600160a060020a0381358116916020013516610acc565b60065461062e908263ffffffff610af716565b6006556040805182815290517f4d6ce1e535dbade1c23defba91e23b8f791ce5edc0cc320257a2b364e4e384269181900360200190a150565b60038054604080516020601f60026000196101006001881615020190951694909404938401819004810282018101909252828152606093909290918301828280156106f35780601f106106c8576101008083540402835291602001916106f3565b820191906000526020600020905b8154815290600101906020018083116106d657829003601f168201915b5050505050905090565b600061070a338484610b09565b5060015b92915050565b60025490565b60065490565b600061072b84610b95565b61073483610b95565b61073f848484610bfb565b949350505050565b6000610751610c4d565b600954909150600160a060020a0316151561079957604051339082156108fc029083906000818181858888f19350505050158015610793573d6000803e3d6000fd5b50610833565b600954604080517fa9059cbb000000000000000000000000000000000000000000000000000000008152336004820152602481018490529051600160a060020a039092169163a9059cbb916044808201926020929091908290030181600087803b15801561080657600080fd5b505af115801561081a573d6000803e3d6000fd5b505050506040513d602081101561083057600080fd5b50505b50565b60055460ff1690565b336000818152600160209081526040808320600160a060020a0387168452909152812054909161070a91859061087b908663ffffffff610af716565b610b09565b60076020526000908152604090205481565b60086020526000908152604090205481565b600160a060020a03811660009081526008602052604081205461070e906108ca84610c80565b9063ffffffff610af716565b600954600160a060020a031681565b600160a060020a031660009081526020819052604090205490565b60048054604080516020601f60026000196101006001881615020190951694909404938401819004810282018101909252828152606093909290918301828280156106f35780601f106106c8576101008083540402835291602001916106f3565b336000818152600160209081526040808320600160a060020a0387168452909152812054909161070a91859061087b908663ffffffff610ce016565b60006109a833610b95565b6109b183610b95565b6109bb8383610cf5565b9392505050565b60065481565b600954600160a060020a03161515610a4157604080517f08c379a000000000000000000000000000000000000000000000000000000000815260206004820152601760248201527f494e5354414e5449415445445f574954485f4552433230000000000000000000604482015290519081900360640190fd5b600954600160a060020a03163314610aba57604080517f08c379a000000000000000000000000000000000000000000000000000000000815260206004820152601360248201527f554e415554484f52495a45445f53454e44455200000000000000000000000000604482015290519081900360640190fd5b6000821115610830576108308261061b565b600160a060020a03918216600090815260016020908152604080832093909416825291909152205490565b6000828201838110156109bb57600080fd5b600160a060020a0382161515610b1e57600080fd5b600160a060020a0383161515610b3357600080fd5b600160a060020a03808416600081815260016020908152604080832094871680845294825291829020859055815185815291517f8c5be1e5ebec7d5bd14f71427d1e84f3dd0314c0f7b2291e5b200ac8c7c3b9259281900390910190a3505050565b6000610ba082610c80565b600654600160a060020a038416600090815260076020908152604080832093909355600890522054909150610bdb908263ffffffff610af716565b600160a060020a0390921660009081526008602052604090209190915550565b6000610c08848484610cfe565b600160a060020a038416600090815260016020908152604080832033808552925290912054610c4391869161087b908663ffffffff610ce016565b5060019392505050565b600080610c59336108a4565b60065433600090815260076020908152604080832093909355600890529081205591505090565b600160a060020a0381166000908152600760205260408120546006548291610cae919063ffffffff610ce016565b90506109bb610cbb610714565b610cd483610cc8876108e5565b9063ffffffff610dcb16565b9063ffffffff610df616565b600082821115610cef57600080fd5b50900390565b600061070a3384845b600160a060020a0382161515610d1357600080fd5b600160a060020a038316600090815260208190526040902054610d3c908263ffffffff610ce016565b600160a060020a038085166000908152602081905260408082209390935590841681522054610d71908263ffffffff610af716565b600160a060020a038084166000818152602081815260409182902094909455805185815290519193928716927fddf252ad1be2c89b69c2b068fc378daa952ba7f163c4a11628f55a4df523b3ef92918290030190a3505050565b6000821515610ddc5750600061070e565b828202828482811515610deb57fe5b04146109bb57600080fd5b6000808211610e0457600080fd5b60008284811515610e1157fe5b0494935050505056fea165627a7a7230582025272d37530de9f2d56271069b43b6f903d99e4db40b733951f5e050d90f8d3c0029",
  "source": "pragma solidity ^0.5.2;\n\nimport \"openzeppelin-solidity/contracts/token/ERC20/IERC20.sol\";\n\nimport \"./IClaimsToken.sol\";\nimport \"./ClaimsToken.sol\";\n\n\ncontract ClaimsTokenMultiExtension is IClaimsToken, ClaimsToken {\n\t\n\t// token that ClaimsToken takes in custodianship \n\tIERC20 public fundsToken;\n\n\n\tmodifier onlyETHInstantiated {\n\t\trequire(address(fundsToken) == address(0), \"INSTANTIATED_WITH_ETH\");\n\t\t_;\n\t}\n\n\tmodifier onlyERC20Instantiated {\n\t\trequire(address(fundsToken) != address(0), \"INSTANTIATED_WITH_ERC20\");\n\t\t_;\n\t}\n\n\tmodifier onlyFundsToken {\n\t\trequire(msg.sender == address(fundsToken), \"UNAUTHORIZED_SENDER\");\n\t\t_;\n\t}\n\n\tconstructor (address _owner, IERC20 _fundsToken) \n\t\tpublic \n\t\tClaimsToken(_owner)\n\t{\n\t\tfundsToken = _fundsToken;\n\t}\n\n\t/**\n\t * @dev Withdraws available funds for user.\n\t */\n\tfunction withdrawFunds() \n\t\texternal \n\t\tpayable \n\t{\n\t\tuint256 withdrawableFunds = _prepareWithdraw();\n\n\t\tif (address(fundsToken) == address(0)) {\n\t\t\tmsg.sender.transfer(withdrawableFunds);\n\t\t} else {\n\t\t\tfundsToken.transfer(msg.sender, withdrawableFunds);\n\t\t}\n\t}\n\n\t/**\n\t * @dev For ERC223.\n\t * Calls _registerFunds(), whereby total received funds (cumulative) gets updated.\n\t * @param _value Amount of tokens\n\t */\n\tfunction tokenFallback (address, uint256 _value, bytes memory) \n\t\tpublic \n\t\tonlyERC20Instantiated\n\t\tonlyFundsToken\n\t{\n\t\tif (_value > 0) {\n\t\t\t_registerFunds(_value);\n\t\t}\n\t}\n\n\t/**\n\t * @dev Calls _registerFunds(), \n\t * whereby total received funds (cumulative) gets updated.\n\t */\n\tfunction () \n\t\texternal \n\t\tpayable \n\t\tonlyETHInstantiated\n\t{\n\t\tif (msg.value > 0) {\n\t\t\t_registerFunds(msg.value);\n\t\t}\n\t}\n}",
  "sourcePath": "/Users/johannes/Documents/dev/actus-protocol/ap-monorepo/packages/ap-contracts/contracts/APTokenization/ClaimsTokenMultiExtension.sol",
  "compiler": {
    "name": "solc",
    "version": "0.5.2+commit.1df8f40c.Emscripten.clang"
  },
  "schemaVersion": "3.0.1",
  "updatedAt": "2019-03-28T18:25:01.746Z",
  "devdoc": {
    "methods": {
      "allowance(address,address)": {
        "details": "Function to check the amount of tokens that an owner allowed to a spender.",
        "params": {
          "owner": "address The address which owns the funds.",
          "spender": "address The address which will spend the funds."
        },
        "return": "A uint256 specifying the amount of tokens still available for the spender."
      },
      "approve(address,uint256)": {
        "details": "Approve the passed address to spend the specified amount of tokens on behalf of msg.sender. Beware that changing an allowance with this method brings the risk that someone may use both the old and the new allowance by unfortunate transaction ordering. One possible solution to mitigate this race condition is to first reduce the spender's allowance to 0 and set the desired value afterwards: https://github.com/ethereum/EIPs/issues/20#issuecomment-263524729",
        "params": {
          "spender": "The address which will spend the funds.",
          "value": "The amount of tokens to be spent."
        }
      },
      "availableFunds(address)": {
        "details": "Returns the amount of funds a given address is able to withdraw currently.",
        "params": {
          "_forAddress": "Address of ClaimsToken holder"
        },
        "return": "A uint256 representing the available funds for a given account"
      },
      "balanceOf(address)": {
        "details": "Gets the balance of the specified address.",
        "params": {
          "owner": "The address to query the balance of."
        },
        "return": "A uint256 representing the amount owned by the passed address."
      },
      "decimals()": {
        "return": "the number of decimals of the token."
      },
      "decreaseAllowance(address,uint256)": {
        "details": "Decrease the amount of tokens that an owner allowed to a spender. approve should be called when _allowed[msg.sender][spender] == 0. To decrement allowed value is better to use this function to avoid 2 calls (and wait until the first transaction is mined) From MonolithDAO Token.sol Emits an Approval event.",
        "params": {
          "spender": "The address which will spend the funds.",
          "subtractedValue": "The amount of tokens to decrease the allowance by."
        }
      },
      "increaseAllowance(address,uint256)": {
        "details": "Increase the amount of tokens that an owner allowed to a spender. approve should be called when _allowed[msg.sender][spender] == 0. To increment allowed value is better to use this function to avoid 2 calls (and wait until the first transaction is mined) From MonolithDAO Token.sol Emits an Approval event.",
        "params": {
          "addedValue": "The amount of tokens to increase the allowance by.",
          "spender": "The address which will spend the funds."
        }
      },
      "name()": {
        "return": "the name of the token."
      },
      "symbol()": {
        "return": "the symbol of the token."
      },
      "tokenFallback(address,uint256,bytes)": {
        "details": "For ERC223. Calls _registerFunds(), whereby total received funds (cumulative) gets updated.",
        "params": {
          "_value": "Amount of tokens"
        }
      },
      "totalReceivedFunds()": {
        "details": "Get cumulative funds received by ClaimsToken.",
        "return": "A uint256 representing the total funds received by ClaimsToken"
      },
      "totalSupply()": {
        "details": "Total number of tokens in existence"
      },
      "transfer(address,uint256)": {
        "details": "Transfer token to a specified address. Claims funds for both parties, whereby the amount of tokens withdrawn  is inherited by the new token owner.",
        "params": {
          "_to": "The address to transfer to",
          "_value": "The amount to be transferred"
        }
      },
      "transferFrom(address,address,uint256)": {
        "details": "Transfer tokens from one address to another. Claims funds for both parties, whereby the amount of tokens withdrawn is inherited by the new token owner.",
        "params": {
          "_from": "address The address which you want to send tokens from",
          "_to": "address The address which you want to transfer to",
          "_value": "uint256 the amount of tokens to be transferred"
        }
      },
      "withdrawFunds()": {
        "details": "Withdraws available funds for user."
      }
    }
  },
  "userdoc": {
    "methods": {}
  }
}