{
  "contractName": "EconomicsRegistry",
  "abi": [
    {
      "constant": true,
      "inputs": [],
      "name": "PRECISION",
      "outputs": [
        {
          "name": "",
          "type": "uint256"
        }
      ],
      "payable": false,
      "stateMutability": "view",
      "type": "function",
      "signature": "0xaaf5eb68"
    },
    {
      "constant": true,
      "inputs": [
        {
          "name": "",
          "type": "bytes32"
        }
      ],
      "name": "economics",
      "outputs": [
        {
          "name": "assetId",
          "type": "bytes32"
        },
        {
          "components": [
            {
              "name": "calendar",
              "type": "uint8"
            },
            {
              "name": "contractRole",
              "type": "uint8"
            },
            {
              "name": "legalEntityIdRecordCreator",
              "type": "string"
            },
            {
              "name": "legalEntityIdCounterparty",
              "type": "string"
            },
            {
              "name": "dayCountConvention",
              "type": "uint8"
            },
            {
              "name": "businessDayConvention",
              "type": "uint8"
            },
            {
              "name": "endOfMonthConvention",
              "type": "uint8"
            },
            {
              "name": "currency",
              "type": "uint8"
            },
            {
              "name": "scalingEffect",
              "type": "uint8"
            },
            {
              "name": "penaltyType",
              "type": "uint8"
            },
            {
              "name": "feeBasis",
              "type": "uint8"
            },
            {
              "name": "statusDate",
              "type": "uint256"
            },
            {
              "name": "initialExchangeDate",
              "type": "uint256"
            },
            {
              "name": "maturityDate",
              "type": "uint256"
            },
            {
              "name": "terminationDate",
              "type": "uint256"
            },
            {
              "name": "purchaseDate",
              "type": "uint256"
            },
            {
              "name": "capitalizationEndDate",
              "type": "uint256"
            },
            {
              "name": "cycleAnchorDateOfInterestPayment",
              "type": "uint256"
            },
            {
              "name": "cycleAnchorDateOfRateReset",
              "type": "uint256"
            },
            {
              "name": "cycleAnchorDateOfScalingIndex",
              "type": "uint256"
            },
            {
              "name": "cycleAnchorDateOfFee",
              "type": "uint256"
            },
            {
              "name": "notionalPrincipal",
              "type": "int256"
            },
            {
              "name": "nominalInterestRate",
              "type": "int256"
            },
            {
              "name": "feeAccrued",
              "type": "int256"
            },
            {
              "name": "accruedInterest",
              "type": "int256"
            },
            {
              "name": "rateMultiplier",
              "type": "int256"
            },
            {
              "name": "rateSpread",
              "type": "int256"
            },
            {
              "name": "feeRate",
              "type": "int256"
            },
            {
              "name": "nextResetRate",
              "type": "int256"
            },
            {
              "name": "penaltyRate",
              "type": "int256"
            },
            {
              "name": "premiumDiscountAtIED",
              "type": "int256"
            },
            {
              "name": "priceAtPurchaseDate",
              "type": "int256"
            },
            {
              "components": [
                {
                  "name": "i",
                  "type": "uint256"
                },
                {
                  "name": "p",
                  "type": "uint8"
                },
                {
                  "name": "s",
                  "type": "uint8"
                },
                {
                  "name": "isSet",
                  "type": "bool"
                }
              ],
              "name": "cycleOfInterestPayment",
              "type": "tuple"
            },
            {
              "components": [
                {
                  "name": "i",
                  "type": "uint256"
                },
                {
                  "name": "p",
                  "type": "uint8"
                },
                {
                  "name": "s",
                  "type": "uint8"
                },
                {
                  "name": "isSet",
                  "type": "bool"
                }
              ],
              "name": "cycleOfRateReset",
              "type": "tuple"
            },
            {
              "components": [
                {
                  "name": "i",
                  "type": "uint256"
                },
                {
                  "name": "p",
                  "type": "uint8"
                },
                {
                  "name": "s",
                  "type": "uint8"
                },
                {
                  "name": "isSet",
                  "type": "bool"
                }
              ],
              "name": "cycleOfScalingIndex",
              "type": "tuple"
            },
            {
              "components": [
                {
                  "name": "i",
                  "type": "uint256"
                },
                {
                  "name": "p",
                  "type": "uint8"
                },
                {
                  "name": "s",
                  "type": "uint8"
                },
                {
                  "name": "isSet",
                  "type": "bool"
                }
              ],
              "name": "cycleOfFee",
              "type": "tuple"
            },
            {
              "name": "lifeCap",
              "type": "int256"
            },
            {
              "name": "lifePeriod",
              "type": "int256"
            },
            {
              "name": "lifeFloor",
              "type": "int256"
            },
            {
              "name": "periodCap",
              "type": "int256"
            },
            {
              "name": "periodFloor",
              "type": "int256"
            }
          ],
          "name": "terms",
          "type": "tuple"
        },
        {
          "components": [
            {
              "name": "lastEventTime",
              "type": "uint256"
            },
            {
              "name": "contractStatus",
              "type": "uint8"
            },
            {
              "name": "timeFromLastEvent",
              "type": "int256"
            },
            {
              "name": "nominalValue",
              "type": "int256"
            },
            {
              "name": "nominalAccrued",
              "type": "int256"
            },
            {
              "name": "feeAccrued",
              "type": "int256"
            },
            {
              "name": "nominalRate",
              "type": "int256"
            },
            {
              "name": "interestScalingMultiplier",
              "type": "int256"
            },
            {
              "name": "nominalScalingMultiplier",
              "type": "int256"
            },
            {
              "name": "contractRoleSign",
              "type": "uint8"
            }
          ],
          "name": "state",
          "type": "tuple"
        },
        {
          "name": "eventId",
          "type": "uint256"
        },
        {
          "name": "actor",
          "type": "address"
        }
      ],
      "payable": false,
      "stateMutability": "view",
      "type": "function",
      "signature": "0xf51728c9"
    },
    {
      "constant": true,
      "inputs": [
        {
          "name": "assetId",
          "type": "bytes32"
        }
      ],
      "name": "getTerms",
      "outputs": [
        {
          "components": [
            {
              "name": "calendar",
              "type": "uint8"
            },
            {
              "name": "contractRole",
              "type": "uint8"
            },
            {
              "name": "legalEntityIdRecordCreator",
              "type": "string"
            },
            {
              "name": "legalEntityIdCounterparty",
              "type": "string"
            },
            {
              "name": "dayCountConvention",
              "type": "uint8"
            },
            {
              "name": "businessDayConvention",
              "type": "uint8"
            },
            {
              "name": "endOfMonthConvention",
              "type": "uint8"
            },
            {
              "name": "currency",
              "type": "uint8"
            },
            {
              "name": "scalingEffect",
              "type": "uint8"
            },
            {
              "name": "penaltyType",
              "type": "uint8"
            },
            {
              "name": "feeBasis",
              "type": "uint8"
            },
            {
              "name": "statusDate",
              "type": "uint256"
            },
            {
              "name": "initialExchangeDate",
              "type": "uint256"
            },
            {
              "name": "maturityDate",
              "type": "uint256"
            },
            {
              "name": "terminationDate",
              "type": "uint256"
            },
            {
              "name": "purchaseDate",
              "type": "uint256"
            },
            {
              "name": "capitalizationEndDate",
              "type": "uint256"
            },
            {
              "name": "cycleAnchorDateOfInterestPayment",
              "type": "uint256"
            },
            {
              "name": "cycleAnchorDateOfRateReset",
              "type": "uint256"
            },
            {
              "name": "cycleAnchorDateOfScalingIndex",
              "type": "uint256"
            },
            {
              "name": "cycleAnchorDateOfFee",
              "type": "uint256"
            },
            {
              "name": "notionalPrincipal",
              "type": "int256"
            },
            {
              "name": "nominalInterestRate",
              "type": "int256"
            },
            {
              "name": "feeAccrued",
              "type": "int256"
            },
            {
              "name": "accruedInterest",
              "type": "int256"
            },
            {
              "name": "rateMultiplier",
              "type": "int256"
            },
            {
              "name": "rateSpread",
              "type": "int256"
            },
            {
              "name": "feeRate",
              "type": "int256"
            },
            {
              "name": "nextResetRate",
              "type": "int256"
            },
            {
              "name": "penaltyRate",
              "type": "int256"
            },
            {
              "name": "premiumDiscountAtIED",
              "type": "int256"
            },
            {
              "name": "priceAtPurchaseDate",
              "type": "int256"
            },
            {
              "components": [
                {
                  "name": "i",
                  "type": "uint256"
                },
                {
                  "name": "p",
                  "type": "uint8"
                },
                {
                  "name": "s",
                  "type": "uint8"
                },
                {
                  "name": "isSet",
                  "type": "bool"
                }
              ],
              "name": "cycleOfInterestPayment",
              "type": "tuple"
            },
            {
              "components": [
                {
                  "name": "i",
                  "type": "uint256"
                },
                {
                  "name": "p",
                  "type": "uint8"
                },
                {
                  "name": "s",
                  "type": "uint8"
                },
                {
                  "name": "isSet",
                  "type": "bool"
                }
              ],
              "name": "cycleOfRateReset",
              "type": "tuple"
            },
            {
              "components": [
                {
                  "name": "i",
                  "type": "uint256"
                },
                {
                  "name": "p",
                  "type": "uint8"
                },
                {
                  "name": "s",
                  "type": "uint8"
                },
                {
                  "name": "isSet",
                  "type": "bool"
                }
              ],
              "name": "cycleOfScalingIndex",
              "type": "tuple"
            },
            {
              "components": [
                {
                  "name": "i",
                  "type": "uint256"
                },
                {
                  "name": "p",
                  "type": "uint8"
                },
                {
                  "name": "s",
                  "type": "uint8"
                },
                {
                  "name": "isSet",
                  "type": "bool"
                }
              ],
              "name": "cycleOfFee",
              "type": "tuple"
            },
            {
              "name": "lifeCap",
              "type": "int256"
            },
            {
              "name": "lifePeriod",
              "type": "int256"
            },
            {
              "name": "lifeFloor",
              "type": "int256"
            },
            {
              "name": "periodCap",
              "type": "int256"
            },
            {
              "name": "periodFloor",
              "type": "int256"
            }
          ],
          "name": "",
          "type": "tuple"
        }
      ],
      "payable": false,
      "stateMutability": "view",
      "type": "function",
      "signature": "0x6be39bda"
    },
    {
      "constant": true,
      "inputs": [
        {
          "name": "assetId",
          "type": "bytes32"
        }
      ],
      "name": "getState",
      "outputs": [
        {
          "components": [
            {
              "name": "lastEventTime",
              "type": "uint256"
            },
            {
              "name": "contractStatus",
              "type": "uint8"
            },
            {
              "name": "timeFromLastEvent",
              "type": "int256"
            },
            {
              "name": "nominalValue",
              "type": "int256"
            },
            {
              "name": "nominalAccrued",
              "type": "int256"
            },
            {
              "name": "feeAccrued",
              "type": "int256"
            },
            {
              "name": "nominalRate",
              "type": "int256"
            },
            {
              "name": "interestScalingMultiplier",
              "type": "int256"
            },
            {
              "name": "nominalScalingMultiplier",
              "type": "int256"
            },
            {
              "name": "contractRoleSign",
              "type": "uint8"
            }
          ],
          "name": "",
          "type": "tuple"
        }
      ],
      "payable": false,
      "stateMutability": "view",
      "type": "function",
      "signature": "0x09648a9d"
    },
    {
      "constant": true,
      "inputs": [
        {
          "name": "assetId",
          "type": "bytes32"
        }
      ],
      "name": "getEventId",
      "outputs": [
        {
          "name": "",
          "type": "uint256"
        }
      ],
      "payable": false,
      "stateMutability": "view",
      "type": "function",
      "signature": "0x0a0c7753"
    },
    {
      "constant": false,
      "inputs": [
        {
          "name": "assetId",
          "type": "bytes32"
        },
        {
          "components": [
            {
              "name": "lastEventTime",
              "type": "uint256"
            },
            {
              "name": "contractStatus",
              "type": "uint8"
            },
            {
              "name": "timeFromLastEvent",
              "type": "int256"
            },
            {
              "name": "nominalValue",
              "type": "int256"
            },
            {
              "name": "nominalAccrued",
              "type": "int256"
            },
            {
              "name": "feeAccrued",
              "type": "int256"
            },
            {
              "name": "nominalRate",
              "type": "int256"
            },
            {
              "name": "interestScalingMultiplier",
              "type": "int256"
            },
            {
              "name": "nominalScalingMultiplier",
              "type": "int256"
            },
            {
              "name": "contractRoleSign",
              "type": "uint8"
            }
          ],
          "name": "state",
          "type": "tuple"
        }
      ],
      "name": "setState",
      "outputs": [],
      "payable": false,
      "stateMutability": "nonpayable",
      "type": "function",
      "signature": "0xfebce91c"
    },
    {
      "constant": false,
      "inputs": [
        {
          "name": "assetId",
          "type": "bytes32"
        },
        {
          "components": [
            {
              "name": "calendar",
              "type": "uint8"
            },
            {
              "name": "contractRole",
              "type": "uint8"
            },
            {
              "name": "legalEntityIdRecordCreator",
              "type": "string"
            },
            {
              "name": "legalEntityIdCounterparty",
              "type": "string"
            },
            {
              "name": "dayCountConvention",
              "type": "uint8"
            },
            {
              "name": "businessDayConvention",
              "type": "uint8"
            },
            {
              "name": "endOfMonthConvention",
              "type": "uint8"
            },
            {
              "name": "currency",
              "type": "uint8"
            },
            {
              "name": "scalingEffect",
              "type": "uint8"
            },
            {
              "name": "penaltyType",
              "type": "uint8"
            },
            {
              "name": "feeBasis",
              "type": "uint8"
            },
            {
              "name": "statusDate",
              "type": "uint256"
            },
            {
              "name": "initialExchangeDate",
              "type": "uint256"
            },
            {
              "name": "maturityDate",
              "type": "uint256"
            },
            {
              "name": "terminationDate",
              "type": "uint256"
            },
            {
              "name": "purchaseDate",
              "type": "uint256"
            },
            {
              "name": "capitalizationEndDate",
              "type": "uint256"
            },
            {
              "name": "cycleAnchorDateOfInterestPayment",
              "type": "uint256"
            },
            {
              "name": "cycleAnchorDateOfRateReset",
              "type": "uint256"
            },
            {
              "name": "cycleAnchorDateOfScalingIndex",
              "type": "uint256"
            },
            {
              "name": "cycleAnchorDateOfFee",
              "type": "uint256"
            },
            {
              "name": "notionalPrincipal",
              "type": "int256"
            },
            {
              "name": "nominalInterestRate",
              "type": "int256"
            },
            {
              "name": "feeAccrued",
              "type": "int256"
            },
            {
              "name": "accruedInterest",
              "type": "int256"
            },
            {
              "name": "rateMultiplier",
              "type": "int256"
            },
            {
              "name": "rateSpread",
              "type": "int256"
            },
            {
              "name": "feeRate",
              "type": "int256"
            },
            {
              "name": "nextResetRate",
              "type": "int256"
            },
            {
              "name": "penaltyRate",
              "type": "int256"
            },
            {
              "name": "premiumDiscountAtIED",
              "type": "int256"
            },
            {
              "name": "priceAtPurchaseDate",
              "type": "int256"
            },
            {
              "components": [
                {
                  "name": "i",
                  "type": "uint256"
                },
                {
                  "name": "p",
                  "type": "uint8"
                },
                {
                  "name": "s",
                  "type": "uint8"
                },
                {
                  "name": "isSet",
                  "type": "bool"
                }
              ],
              "name": "cycleOfInterestPayment",
              "type": "tuple"
            },
            {
              "components": [
                {
                  "name": "i",
                  "type": "uint256"
                },
                {
                  "name": "p",
                  "type": "uint8"
                },
                {
                  "name": "s",
                  "type": "uint8"
                },
                {
                  "name": "isSet",
                  "type": "bool"
                }
              ],
              "name": "cycleOfRateReset",
              "type": "tuple"
            },
            {
              "components": [
                {
                  "name": "i",
                  "type": "uint256"
                },
                {
                  "name": "p",
                  "type": "uint8"
                },
                {
                  "name": "s",
                  "type": "uint8"
                },
                {
                  "name": "isSet",
                  "type": "bool"
                }
              ],
              "name": "cycleOfScalingIndex",
              "type": "tuple"
            },
            {
              "components": [
                {
                  "name": "i",
                  "type": "uint256"
                },
                {
                  "name": "p",
                  "type": "uint8"
                },
                {
                  "name": "s",
                  "type": "uint8"
                },
                {
                  "name": "isSet",
                  "type": "bool"
                }
              ],
              "name": "cycleOfFee",
              "type": "tuple"
            },
            {
              "name": "lifeCap",
              "type": "int256"
            },
            {
              "name": "lifePeriod",
              "type": "int256"
            },
            {
              "name": "lifeFloor",
              "type": "int256"
            },
            {
              "name": "periodCap",
              "type": "int256"
            },
            {
              "name": "periodFloor",
              "type": "int256"
            }
          ],
          "name": "terms",
          "type": "tuple"
        }
      ],
      "name": "setTerms",
      "outputs": [],
      "payable": false,
      "stateMutability": "nonpayable",
      "type": "function",
      "signature": "0x4b799965"
    },
    {
      "constant": false,
      "inputs": [
        {
          "name": "assetId",
          "type": "bytes32"
        },
        {
          "name": "eventId",
          "type": "uint256"
        }
      ],
      "name": "setEventId",
      "outputs": [],
      "payable": false,
      "stateMutability": "nonpayable",
      "type": "function",
      "signature": "0xa84ebffb"
    },
    {
      "constant": false,
      "inputs": [
        {
          "name": "assetId",
          "type": "bytes32"
        },
        {
          "components": [
            {
              "name": "calendar",
              "type": "uint8"
            },
            {
              "name": "contractRole",
              "type": "uint8"
            },
            {
              "name": "legalEntityIdRecordCreator",
              "type": "string"
            },
            {
              "name": "legalEntityIdCounterparty",
              "type": "string"
            },
            {
              "name": "dayCountConvention",
              "type": "uint8"
            },
            {
              "name": "businessDayConvention",
              "type": "uint8"
            },
            {
              "name": "endOfMonthConvention",
              "type": "uint8"
            },
            {
              "name": "currency",
              "type": "uint8"
            },
            {
              "name": "scalingEffect",
              "type": "uint8"
            },
            {
              "name": "penaltyType",
              "type": "uint8"
            },
            {
              "name": "feeBasis",
              "type": "uint8"
            },
            {
              "name": "statusDate",
              "type": "uint256"
            },
            {
              "name": "initialExchangeDate",
              "type": "uint256"
            },
            {
              "name": "maturityDate",
              "type": "uint256"
            },
            {
              "name": "terminationDate",
              "type": "uint256"
            },
            {
              "name": "purchaseDate",
              "type": "uint256"
            },
            {
              "name": "capitalizationEndDate",
              "type": "uint256"
            },
            {
              "name": "cycleAnchorDateOfInterestPayment",
              "type": "uint256"
            },
            {
              "name": "cycleAnchorDateOfRateReset",
              "type": "uint256"
            },
            {
              "name": "cycleAnchorDateOfScalingIndex",
              "type": "uint256"
            },
            {
              "name": "cycleAnchorDateOfFee",
              "type": "uint256"
            },
            {
              "name": "notionalPrincipal",
              "type": "int256"
            },
            {
              "name": "nominalInterestRate",
              "type": "int256"
            },
            {
              "name": "feeAccrued",
              "type": "int256"
            },
            {
              "name": "accruedInterest",
              "type": "int256"
            },
            {
              "name": "rateMultiplier",
              "type": "int256"
            },
            {
              "name": "rateSpread",
              "type": "int256"
            },
            {
              "name": "feeRate",
              "type": "int256"
            },
            {
              "name": "nextResetRate",
              "type": "int256"
            },
            {
              "name": "penaltyRate",
              "type": "int256"
            },
            {
              "name": "premiumDiscountAtIED",
              "type": "int256"
            },
            {
              "name": "priceAtPurchaseDate",
              "type": "int256"
            },
            {
              "components": [
                {
                  "name": "i",
                  "type": "uint256"
                },
                {
                  "name": "p",
                  "type": "uint8"
                },
                {
                  "name": "s",
                  "type": "uint8"
                },
                {
                  "name": "isSet",
                  "type": "bool"
                }
              ],
              "name": "cycleOfInterestPayment",
              "type": "tuple"
            },
            {
              "components": [
                {
                  "name": "i",
                  "type": "uint256"
                },
                {
                  "name": "p",
                  "type": "uint8"
                },
                {
                  "name": "s",
                  "type": "uint8"
                },
                {
                  "name": "isSet",
                  "type": "bool"
                }
              ],
              "name": "cycleOfRateReset",
              "type": "tuple"
            },
            {
              "components": [
                {
                  "name": "i",
                  "type": "uint256"
                },
                {
                  "name": "p",
                  "type": "uint8"
                },
                {
                  "name": "s",
                  "type": "uint8"
                },
                {
                  "name": "isSet",
                  "type": "bool"
                }
              ],
              "name": "cycleOfScalingIndex",
              "type": "tuple"
            },
            {
              "components": [
                {
                  "name": "i",
                  "type": "uint256"
                },
                {
                  "name": "p",
                  "type": "uint8"
                },
                {
                  "name": "s",
                  "type": "uint8"
                },
                {
                  "name": "isSet",
                  "type": "bool"
                }
              ],
              "name": "cycleOfFee",
              "type": "tuple"
            },
            {
              "name": "lifeCap",
              "type": "int256"
            },
            {
              "name": "lifePeriod",
              "type": "int256"
            },
            {
              "name": "lifeFloor",
              "type": "int256"
            },
            {
              "name": "periodCap",
              "type": "int256"
            },
            {
              "name": "periodFloor",
              "type": "int256"
            }
          ],
          "name": "terms",
          "type": "tuple"
        },
        {
          "components": [
            {
              "name": "lastEventTime",
              "type": "uint256"
            },
            {
              "name": "contractStatus",
              "type": "uint8"
            },
            {
              "name": "timeFromLastEvent",
              "type": "int256"
            },
            {
              "name": "nominalValue",
              "type": "int256"
            },
            {
              "name": "nominalAccrued",
              "type": "int256"
            },
            {
              "name": "feeAccrued",
              "type": "int256"
            },
            {
              "name": "nominalRate",
              "type": "int256"
            },
            {
              "name": "interestScalingMultiplier",
              "type": "int256"
            },
            {
              "name": "nominalScalingMultiplier",
              "type": "int256"
            },
            {
              "name": "contractRoleSign",
              "type": "uint8"
            }
          ],
          "name": "state",
          "type": "tuple"
        },
        {
          "name": "actor",
          "type": "address"
        }
      ],
      "name": "registerEconomics",
      "outputs": [],
      "payable": false,
      "stateMutability": "nonpayable",
      "type": "function",
      "signature": "0x013c8421"
    }
  ],
  "bytecode": "0x608060405234801561001057600080fd5b50612dd8806100206000396000f3fe608060405234801561001057600080fd5b50600436106100b0576000357c0100000000000000000000000000000000000000000000000000000000900480636be39bda116100835780636be39bda14610126578063a84ebffb14610146578063aaf5eb6814610159578063f51728c914610161578063febce91c14610185576100b0565b8063013c8421146100b557806309648a9d146100ca5780630a0c7753146100f35780634b79996514610113575b600080fd5b6100c86100c33660046124f4565b610198565b005b6100dd6100d836600461244b565b6107d5565b6040516100ea9190612b8f565b60405180910390f35b61010661010136600461244b565b610899565b6040516100ea9190612baf565b6100c86101213660046124ac565b6108ae565b61013961013436600461244b565b610dd1565b6040516100ea9190612b9e565b6100c861015436600461256f565b6113d2565b610106611426565b61017461016f36600461244b565b61142b565b6040516100ea959493929190612b13565b6100c8610193366004612471565b611aed565b600084815260208190526040902054156101d05760405160e560020a62461bcd0281526004016101c790612b69565b60405180910390fd5b6040805160a0810182528581526020808201868152828401869052600060608401819052600160a060020a038616608085015288815291829052929020815181559151805160018085018054949594909291839160ff19169083600281111561023557fe5b021790555060208201518154829061ff00191661010083600981111561025757fe5b021790555060408201518051610277916001840191602090910190611be2565b5060608201518051610293916002840191602090910190611be2565b50608082015160038201805460ff191660018360068111156102b157fe5b021790555060a082015160038201805461ff0019166101008360088111156102d557fe5b021790555060c082015160038201805462ff00001916620100008360018111156102fb57fe5b021790555060e08201518160030160036101000a81548160ff0219169083600381111561032457fe5b021790555061010082015160038201805464ff00000000191664010000000083600781111561034f57fe5b02179055506101208201518160030160056101000a81548160ff0219169083600381111561037957fe5b021790555061014082015160038201805466ff000000000000191666010000000000008360018111156103a857fe5b0217905550610160820151816004015561018082015181600501556101a082015181600601556101c082015181600701556101e08201518160080155610200820151816009015561022082015181600a015561024082015181600b015561026082015181600c015561028082015181600d01556102a082015181600e01556102c082015181600f01556102e08201518160100155610300820151816011015561032082015181601201556103408201518160130155610360820151816014015561038082015181601501556103a082015181601601556103c082015181601701556103e08201518160180155610400820151816019016000820151816000015560208201518160010160006101000a81548160ff021916908360058111156104cc57fe5b021790555060408201518160010160016101000a81548160ff021916908360018111156104f557fe5b02179055506060919091015160019182018054911515620100000262ff0000199092169190911790556104208301518051601b84019081556020820151601c85018054939492939192909160ff19169083600581111561055157fe5b021790555060408201518160010160016101000a81548160ff0219169083600181111561057a57fe5b02179055506060919091015160019182018054911515620100000262ff0000199092169190911790556104408301518051601d84019081556020820151601e85018054939492939192909160ff1916908360058111156105d657fe5b021790555060408201518160010160016101000a81548160ff021916908360018111156105ff57fe5b02179055506060919091015160019182018054911515620100000262ff0000199092169190911790556104608301518051601f84019081556020808301519085018054939492939192909160ff19169083600581111561065b57fe5b021790555060408201518160010160016101000a81548160ff0219169083600181111561068457fe5b02179055506060919091015160019182018054911515620100000262ff00001990921691909117905561048083015160218301556104a083015160228301556104c083015160238301556104e083015160248301556105009092015160259091015560408301518051602784019081556020820151602885018054939492939192909160ff19169083600381111561071857fe5b021790555060408201518160020155606082015181600301556080820151816004015560a0820151816005015560c0820151816006015560e0820151816007015561010082015181600801556101208201518160090160006101000a81548160ff0219169083600981111561078957fe5b02179055505050606082015160318201556080909101516032909101805473ffffffffffffffffffffffffffffffffffffffff1916600160a060020a0390921691909117905550505050565b6107dd611c60565b60008281526020818152604091829020825161014081019093526027810180548452602890910154909183019060ff16600381111561081857fe5b600381111561082357fe5b815260028201546020820152600382015460408201526004820154606082015260058201546080820152600682015460a0820152600782015460c0820152600882015460e08201526009808301546101009092019160ff169081111561088557fe5b600981111561089057fe5b90525092915050565b60009081526020819052604090206031015490565b6000828152602081905260409020603201548290600160a060020a031633146108ec5760405160e560020a62461bcd0281526004016101c790612b7f565b60008381526020819052604090208251600191820180548593919291839160ff19169083600281111561091b57fe5b021790555060208201518154829061ff00191661010083600981111561093d57fe5b02179055506040820151805161095d916001840191602090910190611be2565b5060608201518051610979916002840191602090910190611be2565b50608082015160038201805460ff1916600183600681111561099757fe5b021790555060a082015160038201805461ff0019166101008360088111156109bb57fe5b021790555060c082015160038201805462ff00001916620100008360018111156109e157fe5b021790555060e08201518160030160036101000a81548160ff02191690836003811115610a0a57fe5b021790555061010082015160038201805464ff000000001916640100000000836007811115610a3557fe5b02179055506101208201518160030160056101000a81548160ff02191690836003811115610a5f57fe5b021790555061014082015160038201805466ff00000000000019166601000000000000836001811115610a8e57fe5b0217905550610160820151816004015561018082015181600501556101a082015181600601556101c082015181600701556101e08201518160080155610200820151816009015561022082015181600a015561024082015181600b015561026082015181600c015561028082015181600d01556102a082015181600e01556102c082015181600f01556102e08201518160100155610300820151816011015561032082015181601201556103408201518160130155610360820151816014015561038082015181601501556103a082015181601601556103c082015181601701556103e08201518160180155610400820151816019016000820151816000015560208201518160010160006101000a81548160ff02191690836005811115610bb257fe5b021790555060408201518160010160016101000a81548160ff02191690836001811115610bdb57fe5b02179055506060919091015160019182018054911515620100000262ff0000199092169190911790556104208301518051601b84019081556020820151601c85018054939492939192909160ff191690836005811115610c3757fe5b021790555060408201518160010160016101000a81548160ff02191690836001811115610c6057fe5b02179055506060919091015160019182018054911515620100000262ff0000199092169190911790556104408301518051601d84019081556020820151601e85018054939492939192909160ff191690836005811115610cbc57fe5b021790555060408201518160010160016101000a81548160ff02191690836001811115610ce557fe5b02179055506060919091015160019182018054911515620100000262ff0000199092169190911790556104608301518051601f84019081556020808301519085018054939492939192909160ff191690836005811115610d4157fe5b021790555060408201518160010160016101000a81548160ff02191690836001811115610d6a57fe5b02179055506060919091015160019091018054911515620100000262ff00001990921691909117905561048082015160218201556104a082015160228201556104c082015160238201556104e0820151602482015561050090910151602590910155505050565b610dd9611cbe565b60008281526020819052604090819020815161052081019092526001018054829060ff166002811115610e0857fe5b6002811115610e1357fe5b81528154602090910190610100900460ff166009811115610e3057fe5b6009811115610e3b57fe5b8152602001600182018054600181600116156101000203166002900480601f016020809104026020016040519081016040528092919081815260200182805460018160011615610100020316600290048015610ed85780601f10610ead57610100808354040283529160200191610ed8565b820191906000526020600020905b815481529060010190602001808311610ebb57829003601f168201915b5050509183525050600282810180546040805160206001841615610100026000190190931694909404601f81018390048302850183019091528084529381019390830182828015610f6a5780601f10610f3f57610100808354040283529160200191610f6a565b820191906000526020600020905b815481529060010190602001808311610f4d57829003601f168201915b5050509183525050600382015460209091019060ff166006811115610f8b57fe5b6006811115610f9657fe5b81526020016003820160019054906101000a900460ff166008811115610fb857fe5b6008811115610fc357fe5b81526020016003820160029054906101000a900460ff166001811115610fe557fe5b6001811115610ff057fe5b81526020016003820160039054906101000a900460ff16600381111561101257fe5b600381111561101d57fe5b81526020016003820160049054906101000a900460ff16600781111561103f57fe5b600781111561104a57fe5b81526020016003820160059054906101000a900460ff16600381111561106c57fe5b600381111561107757fe5b81526020016003820160069054906101000a900460ff16600181111561109957fe5b60018111156110a457fe5b8152602001600482015481526020016005820154815260200160068201548152602001600782015481526020016008820154815260200160098201548152602001600a8201548152602001600b8201548152602001600c8201548152602001600d8201548152602001600e8201548152602001600f82015481526020016010820154815260200160118201548152602001601282015481526020016013820154815260200160148201548152602001601582015481526020016016820154815260200160178201548152602001601882015481526020016019820160806040519081016040529081600082015481526020016001820160009054906101000a900460ff1660058111156111b357fe5b60058111156111be57fe5b81526020016001820160019054906101000a900460ff1660018111156111e057fe5b60018111156111eb57fe5b81526001919091015460ff62010000909104811615156020928301529183526040805160808101909152601b850180548252601c860154948301949193909284019116600581111561123957fe5b600581111561124457fe5b81526020016001820160019054906101000a900460ff16600181111561126657fe5b600181111561127157fe5b81526001919091015460ff62010000909104811615156020928301529183526040805160808101909152601d850180548252601e86015494830194919390928401911660058111156112bf57fe5b60058111156112ca57fe5b81526020016001820160019054906101000a900460ff1660018111156112ec57fe5b60018111156112f757fe5b81526001919091015460ff62010000909104811615156020928301529183526040805160808101909152601f85018054825285830154948301949193909284019116600581111561134457fe5b600581111561134f57fe5b81526020016001820160019054906101000a900460ff16600181111561137157fe5b600181111561137c57fe5b81526001919091015462010000900460ff16151560209182015290825260218301549082015260228201546040820152602382015460608201526024820154608082015260259091015460a09091015292915050565b6000828152602081905260409020603201548290600160a060020a031633146114105760405160e560020a62461bcd0281526004016101c790612b7f565b5060009182526020829052604090912060310155565b601281565b60006020819052908152604090819020805482516105208101909352600182018054919391829060ff16600281111561146057fe5b600281111561146b57fe5b81528154602090910190610100900460ff16600981111561148857fe5b600981111561149357fe5b8152602001600182018054600181600116156101000203166002900480601f0160208091040260200160405190810160405280929190818152602001828054600181600116156101000203166002900480156115305780601f1061150557610100808354040283529160200191611530565b820191906000526020600020905b81548152906001019060200180831161151357829003601f168201915b5050509183525050600282810180546040805160206001841615610100026000190190931694909404601f810183900483028501830190915280845293810193908301828280156115c25780601f10611597576101008083540402835291602001916115c2565b820191906000526020600020905b8154815290600101906020018083116115a557829003601f168201915b5050509183525050600382015460209091019060ff1660068111156115e357fe5b60068111156115ee57fe5b81526020016003820160019054906101000a900460ff16600881111561161057fe5b600881111561161b57fe5b81526020016003820160029054906101000a900460ff16600181111561163d57fe5b600181111561164857fe5b81526020016003820160039054906101000a900460ff16600381111561166a57fe5b600381111561167557fe5b81526020016003820160049054906101000a900460ff16600781111561169757fe5b60078111156116a257fe5b81526020016003820160059054906101000a900460ff1660038111156116c457fe5b60038111156116cf57fe5b81526020016003820160069054906101000a900460ff1660018111156116f157fe5b60018111156116fc57fe5b8152602001600482015481526020016005820154815260200160068201548152602001600782015481526020016008820154815260200160098201548152602001600a8201548152602001600b8201548152602001600c8201548152602001600d8201548152602001600e8201548152602001600f82015481526020016010820154815260200160118201548152602001601282015481526020016013820154815260200160148201548152602001601582015481526020016016820154815260200160178201548152602001601882015481526020016019820160806040519081016040529081600082015481526020016001820160009054906101000a900460ff16600581111561180b57fe5b600581111561181657fe5b81526020016001820160019054906101000a900460ff16600181111561183857fe5b600181111561184357fe5b81526001919091015460ff62010000909104811615156020928301529183526040805160808101909152601b850180548252601c860154948301949193909284019116600581111561189157fe5b600581111561189c57fe5b81526020016001820160019054906101000a900460ff1660018111156118be57fe5b60018111156118c957fe5b81526001919091015460ff62010000909104811615156020928301529183526040805160808101909152601d850180548252601e860154948301949193909284019116600581111561191757fe5b600581111561192257fe5b81526020016001820160019054906101000a900460ff16600181111561194457fe5b600181111561194f57fe5b81526001919091015460ff62010000909104811615156020928301529183526040805160808101909152601f85018054825285830154948301949193909284019116600581111561199c57fe5b60058111156119a757fe5b81526020016001820160019054906101000a900460ff1660018111156119c957fe5b60018111156119d457fe5b81526001919091015460ff62010000909104811615156020928301529183526021840154838201526022840154604080850191909152602385015460608501526024850154608085015260259094015460a09093019290925282516101408101909352602785018054845260288601549495949092840191166003811115611a5857fe5b6003811115611a6357fe5b815260028201546020820152600382015460408201526004820154606082015260058201546080820152600682015460a0820152600782015460c0820152600882015460e08201526009808301546101009092019160ff1690811115611ac557fe5b6009811115611ad057fe5b9052506031820154603290920154909190600160a060020a031685565b6000828152602081905260409020603201548290600160a060020a03163314611b2b5760405160e560020a62461bcd0281526004016101c790612b7f565b6000838152602081815260409091208351602782019081559184015160289091018054859392919060ff19166001836003811115611b6557fe5b021790555060408201518160020155606082015181600301556080820151816004015560a0820151816005015560c0820151816006015560e0820151816007015561010082015181600801556101208201518160090160006101000a81548160ff02191690836009811115611bd657fe5b02179055505050505050565b828054600181600116156101000203166002900490600052602060002090601f016020900481019282601f10611c2357805160ff1916838001178555611c50565b82800160010185558215611c50579182015b82811115611c50578251825591602001919060010190611c35565b50611c5c929150611e03565b5090565b6040805161014081019091526000808252602082019081526020016000815260200160008152602001600081526020016000815260200160008152602001600081526020016000815260200160006009811115611cb957fe5b905290565b604080516106a08101909152806000815260200160008152606060208201819052604082018190520160008152602001600081526020016000815260200160008152602001600081526020016000815260200160008152602001600081526020016000815260200160008152602001600081526020016000815260200160008152602001600081526020016000815260200160008152602001600081526020016000815260200160008152602001600081526020016000815260200160008152602001600081526020016000815260200160008152602001600081526020016000815260200160008152602001611db3611e20565b8152602001611dc0611e20565b8152602001611dcd611e20565b8152602001611dda611e20565b815260200160008152602001600081526020016000815260200160008152602001600081525090565b611e1d91905b80821115611c5c5760008155600101611e09565b90565b604080516080810190915260008082526020820190815260200160008152600060209091015290565b6000611e558235612c10565b9392505050565b6000611e558235612c1b565b6000611e558235611e1d565b6000611e558235612c8c565b6000611e558235612c9b565b6000611e558235612caa565b6000611e558235612cb9565b6000611e558235612cc8565b6000611e558235612cd7565b6000611e558235612ce6565b6000611e558235612cf5565b6000601f82018313611ee557600080fd5b8135611ef8611ef382612be4565b612bbd565b91508082526020830160208301858383011115611f1457600080fd5b611f1f838284612d5c565b50505092915050565b60006101408284031215611f3b57600080fd5b611f46610140612bbd565b90506000611f548484611e68565b8252506020611f6584848301611e98565b6020830152506040611f7984828501611e68565b6040830152506060611f8d84828501611e68565b6060830152506080611fa184828501611e68565b60808301525060a0611fb584828501611e68565b60a08301525060c0611fc984828501611e68565b60c08301525060e0611fdd84828501611e68565b60e083015250610100611ff284828501611e68565b6101008301525061012061200884828501611e8c565b6101208301525092915050565b60006106a0828403121561202857600080fd5b612033610520612bbd565b905060006120418484611e80565b825250602061205284848301611e8c565b602083015250604082013567ffffffffffffffff81111561207257600080fd5b61207e84828501611ed4565b604083015250606082013567ffffffffffffffff81111561209e57600080fd5b6120aa84828501611ed4565b60608301525060806120be84828501611ea4565b60808301525060a06120d284828501611e74565b60a08301525060c06120e684828501611eb0565b60c08301525060e06120fa84828501611e98565b60e08301525061010061210f84828501611ec8565b6101008301525061012061212584828501611e98565b6101208301525061014061213b84828501611eb0565b6101408301525061016061215184828501611e68565b6101608301525061018061216784828501611e68565b610180830152506101a061217d84828501611e68565b6101a0830152506101c061219384828501611e68565b6101c0830152506101e06121a984828501611e68565b6101e0830152506102006121bf84828501611e68565b610200830152506102206121d584828501611e68565b610220830152506102406121eb84828501611e68565b6102408301525061026061220184828501611e68565b6102608301525061028061221784828501611e68565b610280830152506102a061222d84828501611e68565b6102a0830152506102c061224384828501611e68565b6102c0830152506102e061225984828501611e68565b6102e08301525061030061226f84828501611e68565b6103008301525061032061228584828501611e68565b6103208301525061034061229b84828501611e68565b610340830152506103606122b184828501611e68565b610360830152506103806122c784828501611e68565b610380830152506103a06122dd84828501611e68565b6103a0830152506103c06122f384828501611e68565b6103c0830152506103e061230984828501611e68565b6103e08301525061040061231f848285016123dc565b61040083015250610480612335848285016123dc565b6104208301525061050061234b848285016123dc565b61044083015250610580612361848285016123dc565b6104608301525061060061237784828501611e68565b6104808301525061062061238d84828501611e68565b6104a0830152506106406123a384828501611e68565b6104c0830152506106606123b984828501611e68565b6104e0830152506106806123cf84828501611e68565b6105008301525092915050565b6000608082840312156123ee57600080fd5b6123f86080612bbd565b905060006124068484611e68565b825250602061241784848301611ebc565b602083015250604061242b84828501611eb0565b604083015250606061243f84828501611e5c565b60608301525092915050565b60006020828403121561245d57600080fd5b60006124698484611e68565b949350505050565b600080610160838503121561248557600080fd5b60006124918585611e68565b92505060206124a285828601611f28565b9150509250929050565b600080604083850312156124bf57600080fd5b60006124cb8585611e68565b925050602083013567ffffffffffffffff8111156124e857600080fd5b6124a285828601612015565b6000806000806101a0858703121561250b57600080fd5b60006125178787611e68565b945050602085013567ffffffffffffffff81111561253457600080fd5b61254087828801612015565b935050604061255187828801611f28565b92505061018061256387828801611e49565b91505092959194509250565b6000806040838503121561258257600080fd5b600061258e8585611e68565b92505060206124a285828601611e68565b6125a881612c10565b82525050565b6125a881612c1b565b6125a881611e1d565b6125a881612d04565b6125a881612d0f565b6125a881612d1a565b6125a881612d25565b6125a881612d30565b6125a881612d3b565b6125a881612d46565b6125a881612d51565b600061261382612c0c565b808452612627816020860160208601612d68565b61263081612d94565b9093016020019392505050565b601481527f454e5452595f414c52454144595f455849535453000000000000000000000000602082015260400190565b601381527f554e415554484f52495a45445f53454e44455200000000000000000000000000602082015260400190565b80516101408301906126af84826125b7565b5060208201516126c260208501826125db565b5060408201516126d560408501826125b7565b5060608201516126e860608501826125b7565b5060808201516126fb60808501826125b7565b5060a082015161270e60a08501826125b7565b5060c082015161272160c08501826125b7565b5060e082015161273460e08501826125b7565b506101008201516127496101008501826125b7565b5061012082015161275e6101208501826125d2565b50505050565b80516000906106a084019061277985826125c9565b50602083015161278c60208601826125d2565b50604083015184820360408601526127a48282612608565b915050606083015184820360608601526127be8282612608565b91505060808301516127d360808601826125e4565b5060a08301516127e660a08601826125c0565b5060c08301516127f960c08601826125ed565b5060e083015161280c60e08601826125db565b506101008301516128216101008601826125ff565b506101208301516128366101208601826125db565b5061014083015161284b6101408601826125ed565b506101608301516128606101608601826125b7565b506101808301516128756101808601826125b7565b506101a083015161288a6101a08601826125b7565b506101c083015161289f6101c08601826125b7565b506101e08301516128b46101e08601826125b7565b506102008301516128c96102008601826125b7565b506102208301516128de6102208601826125b7565b506102408301516128f36102408601826125b7565b506102608301516129086102608601826125b7565b5061028083015161291d6102808601826125b7565b506102a08301516129326102a08601826125b7565b506102c08301516129476102c08601826125b7565b506102e083015161295c6102e08601826125b7565b506103008301516129716103008601826125b7565b506103208301516129866103208601826125b7565b5061034083015161299b6103408601826125b7565b506103608301516129b06103608601826125b7565b506103808301516129c56103808601826125b7565b506103a08301516129da6103a08601826125b7565b506103c08301516129ef6103c08601826125b7565b506103e0830151612a046103e08601826125b7565b50610400830151612a19610400860182612ac9565b50610420830151612a2e610480860182612ac9565b50610440830151612a43610500860182612ac9565b50610460830151612a58610580860182612ac9565b50610480830151612a6d6106008601826125b7565b506104a0830151612a826106208601826125b7565b506104c0830151612a976106408601826125b7565b506104e0830151612aac6106608601826125b7565b50610500830151612ac16106808601826125b7565b509392505050565b80516080830190612ada84826125b7565b506020820151612aed60208501826125f6565b506040820151612b0060408501826125ed565b50606082015161275e60608501826125ae565b6101c08101612b2282886125b7565b8181036020830152612b348187612764565b9050612b43604083018661269d565b612b516101808301856125b7565b612b5f6101a083018461259f565b9695505050505050565b60208082528101612b798161263d565b92915050565b60208082528101612b798161266d565b6101408101612b79828461269d565b60208082528101611e558184612764565b60208101612b7982846125b7565b60405181810167ffffffffffffffff81118282101715612bdc57600080fd5b604052919050565b600067ffffffffffffffff821115612bfb57600080fd5b506020601f91909101601f19160190565b5190565b6000612b7982612c80565b151590565b600060098210611c5c57fe5b600060038210611c5c57fe5b6000600a8210611c5c57fe5b600060048210611c5c57fe5b600060078210611c5c57fe5b600060028210611c5c57fe5b600060068210611c5c57fe5b600060088210611c5c57fe5b600160a060020a031690565b600060098210611c5c57600080fd5b600060038210611c5c57600080fd5b6000600a8210611c5c57600080fd5b600060048210611c5c57600080fd5b600060078210611c5c57600080fd5b600060028210611c5c57600080fd5b600060068210611c5c57600080fd5b600060088210611c5c57600080fd5b6000612b7982612c20565b6000612b7982612c2c565b6000612b7982612c38565b6000612b7982612c44565b6000612b7982612c50565b6000612b7982612c5c565b6000612b7982612c68565b6000612b7982612c74565b82818337506000910152565b60005b83811015612d83578181015183820152602001612d6b565b8381111561275e5750506000910152565b601f01601f19169056fea265627a7a72305820d919590a379113dcc580f266fdf017602ad5049f04b95a8b3c32d42bc3e0e67a6c6578706572696d656e74616cf50037",
  "source": "pragma solidity ^0.5.2;\npragma experimental ABIEncoderV2;\n\nimport \"../APCore/APDefinitions.sol\";\nimport \"./IEconomicsRegistry.sol\";\n\n\ncontract EconomicsRegistry is APDefinitions, IEconomicsRegistry {\n\n\tstruct Economics {\n\t\tbytes32 assetId;\n\t\tContractTerms terms;\n\t\tContractState state;\n\t\tuint256 eventId;\n\t\taddress actor;\n\t}\n\n\tmapping (bytes32 => Economics) public economics;\n\n\tmodifier onlyDesignatedActor(bytes32 assetId) {\n\t\trequire(economics[assetId].actor == msg.sender, \"UNAUTHORIZED_SENDER\");\n\t\t_;\n\t}\n\n\t/**\n\t * returns the terms of a registered asset\n\t * @param assetId id of the asset\n\t * @return terms of the asset\n\t */\n\tfunction getTerms(bytes32 assetId) external view returns (ContractTerms memory) {\n\t\treturn economics[assetId].terms;\n\t}  \n\n\t/**\n\t * returns the state of a registered asset\n\t * @param assetId id of the asset\n\t * @return state of the asset\n\t */\n\tfunction getState(bytes32 assetId) external view returns (ContractState memory) {\n\t\treturn economics[assetId].state;\n\t}\n\n\t/**\n\t * returns the last event id of a registered asset\n\t * @param assetId id of the asset\n\t * @return last event id\n\t */\n\tfunction getEventId(bytes32 assetId) external view returns (uint256) {\n\t\treturn economics[assetId].eventId;\n\t}\n\n\t/**\n\t * sets next state of a registered asset\n\t * @dev can only be updated by the assets actor\n\t * @param assetId id of the asset\n\t * @param state next state of the asset\n\t */\n\tfunction setState(bytes32 assetId, ContractState memory state) public onlyDesignatedActor (assetId) {\n\t\teconomics[assetId].state = state;\n\t}\n\n\t/**\n\t * sets new terms for a registered asset\n\t * @dev can only be updated by the assets actor\n\t * @param assetId id of the asset\n\t * @param terms new terms of the asset\n\t */\n\tfunction setTerms(bytes32 assetId, ContractTerms memory terms) public onlyDesignatedActor (assetId) {\n\t\teconomics[assetId].terms = terms;\n\t}\n\n\t/**\n\t * sets the last event id for a registered asset\n\t * @dev can only be updated by the assets actor\n\t * @param assetId id of the asset\n\t * @param eventId the last event id\n\t */\n\tfunction setEventId(bytes32 assetId, uint256 eventId) public onlyDesignatedActor (assetId) {\n\t\teconomics[assetId].eventId = eventId;\n\t}\n\n\t/**\n\t * stores the terms and the initial state of an asset and sets the address of \n\t * the actor (address of account which is allowed to update the state)\n\t * @dev can only be called by a whitelisted actor\n\t * @param assetId id of the asset\n\t * @param terms terms of the asset\n\t * @param state initial state of the asset\n\t * @param actor account which is allowed to update the asset state in the future\t \n\t */\n\tfunction registerEconomics(\n\t\tbytes32 assetId,\n\t\tContractTerms memory terms,\n\t\tContractState memory state,\n\t\taddress actor\n\t) \n\t\tpublic \n\t{\n\t\trequire(economics[assetId].assetId == bytes32(0), \"ENTRY_ALREADY_EXISTS\");\n\t\t\n\t\teconomics[assetId] = Economics(\n\t\t\tassetId,\n\t\t\tterms,\n\t\t\tstate,\n\t\t\t0,\n\t\t\tactor\n\t\t);\n\t}\n}\n",
  "sourcePath": "/Users/johannes/Documents/dev/actus-protocol/ap-monorepo/packages/ap-contracts/contracts/APExtended/EconomicsRegistry.sol",
  "compiler": {
    "name": "solc",
    "version": "0.5.2+commit.1df8f40c.Emscripten.clang"
  },
  "schemaVersion": "3.0.1",
  "updatedAt": "2019-03-29T13:25:19.179Z",
  "devdoc": {
    "methods": {
      "getEventId(bytes32)": {
        "params": {
          "assetId": "id of the asset"
        },
        "return": "last event id"
      },
      "getState(bytes32)": {
        "params": {
          "assetId": "id of the asset"
        },
        "return": "state of the asset"
      },
      "getTerms(bytes32)": {
        "params": {
          "assetId": "id of the asset"
        },
        "return": "terms of the asset"
      },
      "registerEconomics(bytes32,(uint8,uint8,string,string,uint8,uint8,uint8,uint8,uint8,uint8,uint8,uint256,uint256,uint256,uint256,uint256,uint256,uint256,uint256,uint256,uint256,int256,int256,int256,int256,int256,int256,int256,int256,int256,int256,int256,(uint256,uint8,uint8,bool),(uint256,uint8,uint8,bool),(uint256,uint8,uint8,bool),(uint256,uint8,uint8,bool),int256,int256,int256,int256,int256),(uint256,uint8,int256,int256,int256,int256,int256,int256,int256,uint8),address)": {
        "details": "can only be called by a whitelisted actor",
        "params": {
          "actor": "account which is allowed to update the asset state in the future\t ",
          "assetId": "id of the asset",
          "state": "initial state of the asset",
          "terms": "terms of the asset"
        }
      },
      "setEventId(bytes32,uint256)": {
        "details": "can only be updated by the assets actor",
        "params": {
          "assetId": "id of the asset",
          "eventId": "the last event id"
        }
      },
      "setState(bytes32,(uint256,uint8,int256,int256,int256,int256,int256,int256,int256,uint8))": {
        "details": "can only be updated by the assets actor",
        "params": {
          "assetId": "id of the asset",
          "state": "next state of the asset"
        }
      },
      "setTerms(bytes32,(uint8,uint8,string,string,uint8,uint8,uint8,uint8,uint8,uint8,uint8,uint256,uint256,uint256,uint256,uint256,uint256,uint256,uint256,uint256,uint256,int256,int256,int256,int256,int256,int256,int256,int256,int256,int256,int256,(uint256,uint8,uint8,bool),(uint256,uint8,uint8,bool),(uint256,uint8,uint8,bool),(uint256,uint8,uint8,bool),int256,int256,int256,int256,int256))": {
        "details": "can only be updated by the assets actor",
        "params": {
          "assetId": "id of the asset",
          "terms": "new terms of the asset"
        }
      }
    }
  },
  "userdoc": {
    "methods": {
      "getEventId(bytes32)": {
        "notice": "returns the last event id of a registered asset"
      },
      "getState(bytes32)": {
        "notice": "returns the state of a registered asset"
      },
      "getTerms(bytes32)": {
        "notice": "returns the terms of a registered asset"
      },
      "registerEconomics(bytes32,(uint8,uint8,string,string,uint8,uint8,uint8,uint8,uint8,uint8,uint8,uint256,uint256,uint256,uint256,uint256,uint256,uint256,uint256,uint256,uint256,int256,int256,int256,int256,int256,int256,int256,int256,int256,int256,int256,(uint256,uint8,uint8,bool),(uint256,uint8,uint8,bool),(uint256,uint8,uint8,bool),(uint256,uint8,uint8,bool),int256,int256,int256,int256,int256),(uint256,uint8,int256,int256,int256,int256,int256,int256,int256,uint8),address)": {
        "notice": "stores the terms and the initial state of an asset and sets the address of  the actor (address of account which is allowed to update the state)"
      },
      "setEventId(bytes32,uint256)": {
        "notice": "sets the last event id for a registered asset"
      },
      "setState(bytes32,(uint256,uint8,int256,int256,int256,int256,int256,int256,int256,uint8))": {
        "notice": "sets next state of a registered asset"
      },
      "setTerms(bytes32,(uint8,uint8,string,string,uint8,uint8,uint8,uint8,uint8,uint8,uint8,uint256,uint256,uint256,uint256,uint256,uint256,uint256,uint256,uint256,uint256,int256,int256,int256,int256,int256,int256,int256,int256,int256,int256,int256,(uint256,uint8,uint8,bool),(uint256,uint8,uint8,bool),(uint256,uint8,uint8,bool),(uint256,uint8,uint8,bool),int256,int256,int256,int256,int256))": {
        "notice": "sets new terms for a registered asset"
      }
    }
  }
}