{
  "contractName": "ERC223SampleToken",
  "abi": [
    {
      "constant": false,
      "inputs": [
        {
          "name": "spender",
          "type": "address"
        },
        {
          "name": "value",
          "type": "uint256"
        }
      ],
      "name": "approve",
      "outputs": [
        {
          "name": "",
          "type": "bool"
        }
      ],
      "payable": false,
      "stateMutability": "nonpayable",
      "type": "function"
    },
    {
      "constant": true,
      "inputs": [],
      "name": "totalSupply",
      "outputs": [
        {
          "name": "",
          "type": "uint256"
        }
      ],
      "payable": false,
      "stateMutability": "view",
      "type": "function"
    },
    {
      "constant": false,
      "inputs": [
        {
          "name": "from",
          "type": "address"
        },
        {
          "name": "to",
          "type": "address"
        },
        {
          "name": "value",
          "type": "uint256"
        }
      ],
      "name": "transferFrom",
      "outputs": [
        {
          "name": "",
          "type": "bool"
        }
      ],
      "payable": false,
      "stateMutability": "nonpayable",
      "type": "function"
    },
    {
      "constant": true,
      "inputs": [],
      "name": "DECIMALS",
      "outputs": [
        {
          "name": "",
          "type": "uint8"
        }
      ],
      "payable": false,
      "stateMutability": "view",
      "type": "function"
    },
    {
      "constant": true,
      "inputs": [],
      "name": "INITIAL_SUPPLY",
      "outputs": [
        {
          "name": "",
          "type": "uint256"
        }
      ],
      "payable": false,
      "stateMutability": "view",
      "type": "function"
    },
    {
      "constant": false,
      "inputs": [
        {
          "name": "spender",
          "type": "address"
        },
        {
          "name": "addedValue",
          "type": "uint256"
        }
      ],
      "name": "increaseAllowance",
      "outputs": [
        {
          "name": "",
          "type": "bool"
        }
      ],
      "payable": false,
      "stateMutability": "nonpayable",
      "type": "function"
    },
    {
      "constant": true,
      "inputs": [
        {
          "name": "owner",
          "type": "address"
        }
      ],
      "name": "balanceOf",
      "outputs": [
        {
          "name": "",
          "type": "uint256"
        }
      ],
      "payable": false,
      "stateMutability": "view",
      "type": "function"
    },
    {
      "constant": false,
      "inputs": [
        {
          "name": "spender",
          "type": "address"
        },
        {
          "name": "subtractedValue",
          "type": "uint256"
        }
      ],
      "name": "decreaseAllowance",
      "outputs": [
        {
          "name": "",
          "type": "bool"
        }
      ],
      "payable": false,
      "stateMutability": "nonpayable",
      "type": "function"
    },
    {
      "constant": true,
      "inputs": [
        {
          "name": "owner",
          "type": "address"
        },
        {
          "name": "spender",
          "type": "address"
        }
      ],
      "name": "allowance",
      "outputs": [
        {
          "name": "",
          "type": "uint256"
        }
      ],
      "payable": false,
      "stateMutability": "view",
      "type": "function"
    },
    {
      "inputs": [],
      "payable": false,
      "stateMutability": "nonpayable",
      "type": "constructor"
    },
    {
      "anonymous": false,
      "inputs": [
        {
          "indexed": true,
          "name": "from",
          "type": "address"
        },
        {
          "indexed": true,
          "name": "to",
          "type": "address"
        },
        {
          "indexed": false,
          "name": "value",
          "type": "uint256"
        }
      ],
      "name": "Transfer",
      "type": "event"
    },
    {
      "anonymous": false,
      "inputs": [
        {
          "indexed": true,
          "name": "owner",
          "type": "address"
        },
        {
          "indexed": true,
          "name": "spender",
          "type": "address"
        },
        {
          "indexed": false,
          "name": "value",
          "type": "uint256"
        }
      ],
      "name": "Approval",
      "type": "event"
    },
    {
      "constant": false,
      "inputs": [
        {
          "name": "_to",
          "type": "address"
        },
        {
          "name": "_value",
          "type": "uint256"
        }
      ],
      "name": "transfer",
      "outputs": [
        {
          "name": "",
          "type": "bool"
        }
      ],
      "payable": false,
      "stateMutability": "nonpayable",
      "type": "function"
    },
    {
      "constant": false,
      "inputs": [
        {
          "name": "_to",
          "type": "address"
        },
        {
          "name": "_value",
          "type": "uint256"
        },
        {
          "name": "_data",
          "type": "bytes"
        }
      ],
      "name": "transfer",
      "outputs": [
        {
          "name": "",
          "type": "bool"
        }
      ],
      "payable": false,
      "stateMutability": "nonpayable",
      "type": "function"
    }
  ],
  "bytecode": "0x608060405234801561001057600080fd5b5061002e3369021e19e0c9bab2400000640100000000610033810204565b610104565b600160a060020a038216151561004857600080fd5b60025461006290826401000000006107e66100eb82021704565b600255600160a060020a03821660009081526020819052604090205461009590826401000000006107e66100eb82021704565b600160a060020a0383166000818152602081815260408083209490945583518581529351929391927fddf252ad1be2c89b69c2b068fc378daa952ba7f163c4a11628f55a4df523b3ef9281900390910190a35050565b6000828201838110156100fd57600080fd5b9392505050565b610838806101136000396000f3fe608060405234801561001057600080fd5b50600436106100c6576000357c010000000000000000000000000000000000000000000000000000000090048063395093511161008e578063395093511461018157806370a08231146101ad578063a457c2d7146101d3578063a9059cbb146101ff578063be45fd621461022b578063dd62ed3e146102e6576100c6565b8063095ea7b3146100cb57806318160ddd1461010b57806323b872dd146101255780632e0f26251461015b5780632ff2e9dc14610179575b600080fd5b6100f7600480360360408110156100e157600080fd5b50600160a060020a038135169060200135610314565b604080519115158252519081900360200190f35b61011361032a565b60408051918252519081900360200190f35b6100f76004803603606081101561013b57600080fd5b50600160a060020a03813581169160208101359091169060400135610330565b610163610387565b6040805160ff9092168252519081900360200190f35b61011361038c565b6100f76004803603604081101561019757600080fd5b50600160a060020a03813516906020013561039a565b610113600480360360208110156101c357600080fd5b5035600160a060020a03166103d6565b6100f7600480360360408110156101e957600080fd5b50600160a060020a0381351690602001356103f1565b6100f76004803603604081101561021557600080fd5b50600160a060020a03813516906020013561042d565b6100f76004803603606081101561024157600080fd5b600160a060020a038235169160208101359181019060608101604082013564010000000081111561027157600080fd5b82018360208201111561028357600080fd5b803590602001918460018302840111640100000000831117156102a557600080fd5b91908080601f01602080910402602001604051908101604052809392919081815260200183838082843760009201919091525092955061053e945050505050565b610113600480360360408110156102fc57600080fd5b50600160a060020a038135811691602001351661064d565b6000610321338484610678565b50600192915050565b60025490565b600061033d848484610704565b600160a060020a03841660009081526001602090815260408083203380855292529091205461037d918691610378908663ffffffff6107d116565b610678565b5060019392505050565b601281565b69021e19e0c9bab240000081565b336000818152600160209081526040808320600160a060020a03871684529091528120549091610321918590610378908663ffffffff6107e616565b600160a060020a031660009081526020819052604090205490565b336000818152600160209081526040808320600160a060020a03871684529091528120549091610321918590610378908663ffffffff6107d116565b6000823b606061043d85856107ff565b506000821115610536576040517fc0ee0b8a0000000000000000000000000000000000000000000000000000000081523360048201818152602483018790526060604484019081528451606485015284518994600160a060020a0386169463c0ee0b8a9490938b93899360840190602085019080838360005b838110156104ce5781810151838201526020016104b6565b50505050905090810190601f1680156104fb5780820380516001836020036101000a031916815260200191505b50945050505050600060405180830381600087803b15801561051c57600080fd5b505af1158015610530573d6000803e3d6000fd5b50505050505b505092915050565b6000833b61054c85856107ff565b506000811115610645576040517fc0ee0b8a0000000000000000000000000000000000000000000000000000000081523360048201818152602483018790526060604484019081528651606485015286518994600160a060020a0386169463c0ee0b8a9490938b938b9360840190602085019080838360005b838110156105dd5781810151838201526020016105c5565b50505050905090810190601f16801561060a5780820380516001836020036101000a031916815260200191505b50945050505050600060405180830381600087803b15801561062b57600080fd5b505af115801561063f573d6000803e3d6000fd5b50505050505b509392505050565b600160a060020a03918216600090815260016020908152604080832093909416825291909152205490565b600160a060020a038216151561068d57600080fd5b600160a060020a03831615156106a257600080fd5b600160a060020a03808416600081815260016020908152604080832094871680845294825291829020859055815185815291517f8c5be1e5ebec7d5bd14f71427d1e84f3dd0314c0f7b2291e5b200ac8c7c3b9259281900390910190a3505050565b600160a060020a038216151561071957600080fd5b600160a060020a038316600090815260208190526040902054610742908263ffffffff6107d116565b600160a060020a038085166000908152602081905260408082209390935590841681522054610777908263ffffffff6107e616565b600160a060020a038084166000818152602081815260409182902094909455805185815290519193928716927fddf252ad1be2c89b69c2b068fc378daa952ba7f163c4a11628f55a4df523b3ef92918290030190a3505050565b6000828211156107e057600080fd5b50900390565b6000828201838110156107f857600080fd5b9392505050565b600061032133848461070456fea165627a7a72305820413f597e70633ba7cb03129f9ac3cbd88fceb9e0215b71459d6fc16872e840ef0029",
  "source": "pragma solidity ^0.5.2;\n\nimport \"openzeppelin-solidity/contracts/token/ERC20/ERC20.sol\";\n\n\ncontract ERC223ReceivingContract { \n  function tokenFallback(address _from, uint _value, bytes memory _data) public;\n}\n\ncontract ERC223SampleToken is ERC20 {\n\n\tuint8 public constant DECIMALS = 18;\n\tuint256 public constant INITIAL_SUPPLY = 10000 * (10 ** uint256(DECIMALS));\n\n\t\n\tconstructor () public {\n\t\t_mint(msg.sender, INITIAL_SUPPLY);\n\t}\n\n\tfunction transfer(address _to, uint256 _value, bytes memory _data) \n\t\tpublic \n\t\treturns (bool)\n\t{\n\t\tuint codeLength;\n\n\t\tassembly { codeLength := extcodesize(_to) }\n\n\t\tsuper.transfer(_to, _value);\n\t\t\n\t\tif(codeLength > 0) {\n\t\t\tERC223ReceivingContract receiver = ERC223ReceivingContract(_to);\n\t\t\treceiver.tokenFallback(msg.sender, _value, _data);\n\t\t}\n\t}\n\t\n\tfunction transfer(address _to, uint256 _value) \n\t\tpublic \n\t\treturns (bool)\n\t{\n\t\tuint codeLength;\n\t\tbytes memory empty;\n\n\t\tassembly { codeLength := extcodesize(_to) }\n\n\t\tsuper.transfer(_to, _value);\n\n\t\tif(codeLength > 0) {\n\t\t\tERC223ReceivingContract receiver = ERC223ReceivingContract(_to);\n\t\t\treceiver.tokenFallback(msg.sender, _value, empty);\n\t\t}\n\t}\n}",
  "sourcePath": "/Users/johannes/Documents/dev/actus-protocol/ap-monorepo/packages/ap-contracts/contracts/APTokenization/ERC223SampleToken.sol",
  "compiler": {
    "name": "solc",
    "version": "0.5.2+commit.1df8f40c.Emscripten.clang"
  },
  "schemaVersion": "3.0.1",
  "updatedAt": "2019-03-28T18:25:01.746Z",
  "devdoc": {
    "methods": {
      "allowance(address,address)": {
        "details": "Function to check the amount of tokens that an owner allowed to a spender.",
        "params": {
          "owner": "address The address which owns the funds.",
          "spender": "address The address which will spend the funds."
        },
        "return": "A uint256 specifying the amount of tokens still available for the spender."
      },
      "approve(address,uint256)": {
        "details": "Approve the passed address to spend the specified amount of tokens on behalf of msg.sender. Beware that changing an allowance with this method brings the risk that someone may use both the old and the new allowance by unfortunate transaction ordering. One possible solution to mitigate this race condition is to first reduce the spender's allowance to 0 and set the desired value afterwards: https://github.com/ethereum/EIPs/issues/20#issuecomment-263524729",
        "params": {
          "spender": "The address which will spend the funds.",
          "value": "The amount of tokens to be spent."
        }
      },
      "balanceOf(address)": {
        "details": "Gets the balance of the specified address.",
        "params": {
          "owner": "The address to query the balance of."
        },
        "return": "A uint256 representing the amount owned by the passed address."
      },
      "decreaseAllowance(address,uint256)": {
        "details": "Decrease the amount of tokens that an owner allowed to a spender. approve should be called when _allowed[msg.sender][spender] == 0. To decrement allowed value is better to use this function to avoid 2 calls (and wait until the first transaction is mined) From MonolithDAO Token.sol Emits an Approval event.",
        "params": {
          "spender": "The address which will spend the funds.",
          "subtractedValue": "The amount of tokens to decrease the allowance by."
        }
      },
      "increaseAllowance(address,uint256)": {
        "details": "Increase the amount of tokens that an owner allowed to a spender. approve should be called when _allowed[msg.sender][spender] == 0. To increment allowed value is better to use this function to avoid 2 calls (and wait until the first transaction is mined) From MonolithDAO Token.sol Emits an Approval event.",
        "params": {
          "addedValue": "The amount of tokens to increase the allowance by.",
          "spender": "The address which will spend the funds."
        }
      },
      "totalSupply()": {
        "details": "Total number of tokens in existence"
      },
      "transferFrom(address,address,uint256)": {
        "details": "Transfer tokens from one address to another. Note that while this function emits an Approval event, this is not required as per the specification, and other compliant implementations may not emit the event.",
        "params": {
          "from": "address The address which you want to send tokens from",
          "to": "address The address which you want to transfer to",
          "value": "uint256 the amount of tokens to be transferred"
        }
      }
    }
  },
  "userdoc": {
    "methods": {}
  }
}