{
  "contractName": "OwnershipRegistry",
  "abi": [
    {
      "constant": true,
      "inputs": [
        {
          "name": "",
          "type": "bytes32"
        }
      ],
      "name": "assetOwnerships",
      "outputs": [
        {
          "name": "recordCreatorObligor",
          "type": "address"
        },
        {
          "name": "recordCreatorBeneficiary",
          "type": "address"
        },
        {
          "name": "counterpartyObligor",
          "type": "address"
        },
        {
          "name": "counterpartyBeneficiary",
          "type": "address"
        }
      ],
      "payable": false,
      "stateMutability": "view",
      "type": "function",
      "signature": "0x4349a554"
    },
    {
      "constant": false,
      "inputs": [],
      "name": "renounceOwnership",
      "outputs": [],
      "payable": false,
      "stateMutability": "nonpayable",
      "type": "function",
      "signature": "0x715018a6"
    },
    {
      "constant": true,
      "inputs": [],
      "name": "owner",
      "outputs": [
        {
          "name": "",
          "type": "address"
        }
      ],
      "payable": false,
      "stateMutability": "view",
      "type": "function",
      "signature": "0x8da5cb5b"
    },
    {
      "constant": true,
      "inputs": [],
      "name": "isOwner",
      "outputs": [
        {
          "name": "",
          "type": "bool"
        }
      ],
      "payable": false,
      "stateMutability": "view",
      "type": "function",
      "signature": "0x8f32d59b"
    },
    {
      "constant": false,
      "inputs": [
        {
          "name": "newOwner",
          "type": "address"
        }
      ],
      "name": "transferOwnership",
      "outputs": [],
      "payable": false,
      "stateMutability": "nonpayable",
      "type": "function",
      "signature": "0xf2fde38b"
    },
    {
      "anonymous": false,
      "inputs": [
        {
          "indexed": true,
          "name": "previousOwner",
          "type": "address"
        },
        {
          "indexed": true,
          "name": "newOwner",
          "type": "address"
        }
      ],
      "name": "OwnershipTransferred",
      "type": "event",
      "signature": "0x8be0079c531659141344cd1fd0a4f28419497f9722a3daafe3b4186f6b6457e0"
    },
    {
      "constant": false,
      "inputs": [
        {
          "name": "assetId",
          "type": "bytes32"
        },
        {
          "name": "recordCreatorObligor",
          "type": "address"
        },
        {
          "name": "recordCreatorBeneficiary",
          "type": "address"
        },
        {
          "name": "counterpartyObligor",
          "type": "address"
        },
        {
          "name": "counterpartyBeneficiary",
          "type": "address"
        }
      ],
      "name": "registerOwnership",
      "outputs": [],
      "payable": false,
      "stateMutability": "nonpayable",
      "type": "function",
      "signature": "0x4daf74ad"
    },
    {
      "constant": false,
      "inputs": [
        {
          "name": "assetId",
          "type": "bytes32"
        },
        {
          "name": "newRecordCreatorBeneficiary",
          "type": "address"
        }
      ],
      "name": "setRecordCreatorBeneficiary",
      "outputs": [],
      "payable": false,
      "stateMutability": "nonpayable",
      "type": "function",
      "signature": "0x31cf489a"
    },
    {
      "constant": false,
      "inputs": [
        {
          "name": "assetId",
          "type": "bytes32"
        },
        {
          "name": "newCounterpartyBeneficiary",
          "type": "address"
        }
      ],
      "name": "setCounterpartyBeneficiary",
      "outputs": [],
      "payable": false,
      "stateMutability": "nonpayable",
      "type": "function",
      "signature": "0x3549d08d"
    },
    {
      "constant": false,
      "inputs": [
        {
          "name": "assetId",
          "type": "bytes32"
        },
        {
          "name": "cashflowId",
          "type": "int8"
        },
        {
          "name": "beneficiary",
          "type": "address"
        }
      ],
      "name": "setBeneficiaryForCashflowId",
      "outputs": [],
      "payable": false,
      "stateMutability": "nonpayable",
      "type": "function",
      "signature": "0x91371611"
    },
    {
      "constant": true,
      "inputs": [
        {
          "name": "assetId",
          "type": "bytes32"
        }
      ],
      "name": "getOwnership",
      "outputs": [
        {
          "name": "",
          "type": "address"
        },
        {
          "name": "",
          "type": "address"
        },
        {
          "name": "",
          "type": "address"
        },
        {
          "name": "",
          "type": "address"
        }
      ],
      "payable": false,
      "stateMutability": "view",
      "type": "function",
      "signature": "0xe50e0ef7"
    },
    {
      "constant": true,
      "inputs": [
        {
          "name": "assetId",
          "type": "bytes32"
        },
        {
          "name": "cashflowId",
          "type": "int8"
        }
      ],
      "name": "getCashflowBeneficiary",
      "outputs": [
        {
          "name": "",
          "type": "address"
        }
      ],
      "payable": false,
      "stateMutability": "view",
      "type": "function",
      "signature": "0xec7d6c02"
    }
  ],
  "bytecode": "0x6080604081905260008054600160a060020a0319163317808255600160a060020a0316917f8be0079c531659141344cd1fd0a4f28419497f9722a3daafe3b4186f6b6457e0908290a36109ee806100576000396000f3fe608060405234801561001057600080fd5b50600436106100c6576000357c0100000000000000000000000000000000000000000000000000000000900480638da5cb5b1161008e5780638da5cb5b146101c25780638f32d59b146101e65780639137161114610202578063e50e0ef714610237578063ec7d6c0214610254578063f2fde38b1461027a576100c6565b806331cf489a146100cb5780633549d08d146100f95780634349a554146101255780634daf74ad14610176578063715018a6146101ba575b600080fd5b6100f7600480360360408110156100e157600080fd5b5080359060200135600160a060020a03166102a0565b005b6100f76004803603604081101561010f57600080fd5b5080359060200135600160a060020a03166103b2565b6101426004803603602081101561013b57600080fd5b50356104c0565b60408051600160a060020a039586168152938516602085015291841683830152909216606082015290519081900360800190f35b6100f7600480360360a081101561018c57600080fd5b50803590600160a060020a0360208201358116916040810135821691606082013581169160800135166104f9565b6100f7610607565b6101ca610671565b60408051600160a060020a039092168252519081900360200190f35b6101ee610680565b604080519115158252519081900360200190f35b6100f76004803603606081101561021857600080fd5b50803590602081013560000b9060400135600160a060020a0316610691565b6101426004803603602081101561024d57600080fd5b50356108a2565b6101ca6004803603604081101561026a57600080fd5b508035906020013560000b6108dc565b6100f76004803603602081101561029057600080fd5b5035600160a060020a0316610906565b60008281526001602081905260409091200154600160a060020a03161515610312576040805160e560020a62461bcd02815260206004820152601460248201527f454e5452595f444f45535f4e4f545f4558495354000000000000000000000000604482015290519081900360640190fd5b60008281526001602081905260409091200154600160a060020a03163314610372576040805160e560020a62461bcd02815260206004820152601360248201526000805160206109a3833981519152604482015290519081900360640190fd5b6000918252600160208190526040909220909101805473ffffffffffffffffffffffffffffffffffffffff1916600160a060020a03909216919091179055565b600082815260016020526040902060030154600160a060020a03161515610423576040805160e560020a62461bcd02815260206004820152601460248201527f454e5452595f444f45535f4e4f545f4558495354000000000000000000000000604482015290519081900360640190fd5b600082815260016020526040902060030154600160a060020a03163314610482576040805160e560020a62461bcd02815260206004820152601360248201526000805160206109a3833981519152604482015290519081900360640190fd5b600091825260016020526040909120600301805473ffffffffffffffffffffffffffffffffffffffff1916600160a060020a03909216919091179055565b60016020819052600091825260409091208054918101546002820154600390920154600160a060020a0393841693918216928216911684565b600085815260016020526040902054600160a060020a031615610566576040805160e560020a62461bcd02815260206004820152601460248201527f454e5452595f414c52454144595f455849535453000000000000000000000000604482015290519081900360640190fd5b60408051608081018252600160a060020a0395861681529385166020808601918252938616858301908152928616606086019081526000978852600194859052919096209351845473ffffffffffffffffffffffffffffffffffffffff199081169187169190911785559551928401805487169386169390931790925551600283018054861691851691909117905551600390910180549093169116179055565b61060f610680565b151561061a57600080fd5b60008054604051600160a060020a03909116907f8be0079c531659141344cd1fd0a4f28419497f9722a3daafe3b4186f6b6457e0908390a36000805473ffffffffffffffffffffffffffffffffffffffff19169055565b600054600160a060020a031690565b600054600160a060020a0316331490565b600082900b15156106ec576040805160e560020a62461bcd02815260206004820152601260248201527f494e56414c49445f43415348464c4f5749440000000000000000000000000000604482015290519081900360640190fd5b600083815260026020908152604080832085840b840b8452909152902054600160a060020a031615156107ee5760008260000b131561078a5760008381526001602081905260409091200154600160a060020a03163314610785576040805160e560020a62461bcd02815260206004820152601360248201526000805160206109a3833981519152604482015290519081900360640190fd5b6107e9565b600083815260016020526040902060030154600160a060020a031633146107e9576040805160e560020a62461bcd02815260206004820152601360248201526000805160206109a3833981519152604482015290519081900360640190fd5b610859565b600083815260026020908152604080832085840b840b8452909152902054600160a060020a03163314610859576040805160e560020a62461bcd02815260206004820152601360248201526000805160206109a3833981519152604482015290519081900360640190fd5b600092835260026020908152604080852093850b850b85529290529120805473ffffffffffffffffffffffffffffffffffffffff1916600160a060020a03909216919091179055565b60009081526001602081905260409091208054918101546002820154600390920154600160a060020a039384169491841693928316921690565b600091825260026020908152604080842092840b840b8452919052902054600160a060020a031690565b61090e610680565b151561091957600080fd5b61092281610925565b50565b600160a060020a038116151561093a57600080fd5b60008054604051600160a060020a03808516939216917f8be0079c531659141344cd1fd0a4f28419497f9722a3daafe3b4186f6b6457e091a36000805473ffffffffffffffffffffffffffffffffffffffff1916600160a060020a039290921691909117905556fe554e415554484f52495a45445f53454e44455200000000000000000000000000a165627a7a723058204535c15357d1a4f9cc4a87af43306b4dfb0455cb1bf915da8eea66d4ab49906f0029",
  "source": "pragma solidity ^0.5.2;\n\nimport \"openzeppelin-solidity/contracts/ownership/Ownable.sol\";\n\nimport \"./IOwnershipRegistry.sol\";\n\n\ncontract OwnershipRegistry is IOwnershipRegistry, Ownable {\n\t\n\tstruct AssetOwnership {\n\t\taddress recordCreatorObligor; // or covenantor\n\t\taddress payable recordCreatorBeneficiary;\n\t\taddress counterpartyObligor;\n\t\taddress payable counterpartyBeneficiary;\n\t}\n\n\t// assetId => AssetOwnership\n\tmapping (bytes32 => AssetOwnership) public assetOwnerships;\n\t// assetId => cashflowId => Ownership\n\tmapping (bytes32 => mapping (int8 => address payable)) cashflowBeneficiaries;\n\n\t/**\n\t * registers the addresses of the owners of an asset\n\t * @param assetId id of the asset\n\t * @param recordCreatorObligor the address of the owner of creator-side payment obligations\n\t * @param recordCreatorBeneficiary the address of the owner of creator-side payment claims\n\t * @param counterpartyObligor the address of the owner of counterparty-side payment obligations\n\t * @param counterpartyBeneficiary the address of the owner of counterparty-side payment claims\n\t */\n\tfunction registerOwnership(\n\t\tbytes32 assetId, \n\t\taddress recordCreatorObligor, \n\t\taddress payable recordCreatorBeneficiary,\n\t\taddress counterpartyObligor, \n\t\taddress payable counterpartyBeneficiary\n\t) \n\t\texternal \n\t{\n\t\trequire(assetOwnerships[assetId].recordCreatorObligor == address(0), \"ENTRY_ALREADY_EXISTS\");\n\t\t\n\t\tassetOwnerships[assetId] = AssetOwnership(\n\t\t\trecordCreatorObligor,\n\t\t\trecordCreatorBeneficiary,\n\t\t\tcounterpartyObligor,\n\t\t\tcounterpartyBeneficiary\n\t\t);\n\t}\n\n\t/**\n\t * update the address of the default beneficiary of cashflows going to the record creator\n\t * @param assetId id of the asset\n\t * @param newRecordCreatorBeneficiary address of the new beneficiary\n\t */\n\tfunction setRecordCreatorBeneficiary(\n\t\tbytes32 assetId, \n\t\taddress payable newRecordCreatorBeneficiary\n\t)\n\t\texternal\n\t{\n\t\trequire(assetOwnerships[assetId].recordCreatorBeneficiary != address(0), \"ENTRY_DOES_NOT_EXIST\");\n\t\trequire(msg.sender == assetOwnerships[assetId].recordCreatorBeneficiary, \"UNAUTHORIZED_SENDER\");\n\n\t\tassetOwnerships[assetId].recordCreatorBeneficiary = newRecordCreatorBeneficiary;\n\t}\n\n\t/**\n\t * update the address of the default beneficiary of cashflows going to the counter party\n\t * @param assetId id of the asset\n\t * @param newCounterpartyBeneficiary address of the new beneficiary\n\t */\n\tfunction setCounterpartyBeneficiary(\n\t\tbytes32 assetId, \n\t\taddress payable newCounterpartyBeneficiary\n\t)\n\t\texternal\n\t{\n\t\trequire(assetOwnerships[assetId].counterpartyBeneficiary != address(0), \"ENTRY_DOES_NOT_EXIST\");\n\t\trequire(msg.sender == assetOwnerships[assetId].counterpartyBeneficiary, \"UNAUTHORIZED_SENDER\");\n\n\t\tassetOwnerships[assetId].counterpartyBeneficiary = newCounterpartyBeneficiary;\n\t}\n\n\t/**\n \t * register the address of the owner of specific claims of the asset\n\t * @param assetId id of the asset\n\t * @param cashflowId id of the specific claims for which to register the owner\n\t * @param beneficiary the address of the owner\n\t */\n\tfunction setBeneficiaryForCashflowId(\n\t\tbytes32 assetId, \n\t\tint8 cashflowId, \n\t\taddress payable beneficiary\n\t) \n\t\texternal \n\t{\n\t\trequire(cashflowId != 0, \"INVALID_CASHFLOWID\");\n\n\t\tif (cashflowBeneficiaries[assetId][cashflowId] == address(0)) {\n\t\t\tif (cashflowId > 0) {\n\t\t\t\trequire(msg.sender == assetOwnerships[assetId].recordCreatorBeneficiary, \"UNAUTHORIZED_SENDER\");\n\t\t\t} else {\n\t\t\t\trequire(msg.sender == assetOwnerships[assetId].counterpartyBeneficiary, \"UNAUTHORIZED_SENDER\");\n\t\t\t}\n\t\t} else {\n\t\t\trequire(msg.sender == cashflowBeneficiaries[assetId][cashflowId], \"UNAUTHORIZED_SENDER\");\n\t\t}\n\n\t\tcashflowBeneficiaries[assetId][cashflowId] = beneficiary;\n\t}\n\t\n\t/**\n \t * retrieve the registered addresses of owners (Creator, Counterparty) of an asset\n\t * @param assetId id of the asset\n\t * @return addresses of all owners of the asset\n\t */\n\tfunction getOwnership(bytes32 assetId) \n\t\texternal \n\t\tview \n\t\treturns (address, address payable, address, address payable) \n\t{\n\t\treturn (\n\t\t\tassetOwnerships[assetId].recordCreatorObligor,\n\t\t\tassetOwnerships[assetId].recordCreatorBeneficiary,\n\t\t\tassetOwnerships[assetId].counterpartyObligor,\n\t\t\tassetOwnerships[assetId].counterpartyBeneficiary\n\t\t);\n\t}\n\t\n\t/**\n\t * retrieve the registered address of the owner of specific future claims from an asset\n\t * @param assetId id of the asset\n\t * @param cashflowId the identifier of the specific claims owned by the registerd address\n\t * @return address of the beneficiary corresponding to the given cashflowId\n\t */\n\tfunction getCashflowBeneficiary(bytes32 assetId, int8 cashflowId) \n\t\texternal \n\t\tview \n\t\treturns (address payable) \n\t{\n\t\treturn cashflowBeneficiaries[assetId][cashflowId];\n\t}\n}\n",
  "sourcePath": "/Users/johannes/Documents/dev/actus-protocol/ap-monorepo/packages/ap-contracts/contracts/APExtended/OwnershipRegistry.sol",
  "compiler": {
    "name": "solc",
    "version": "0.5.2+commit.1df8f40c.Emscripten.clang"
  },
  "schemaVersion": "3.0.1",
  "updatedAt": "2019-03-29T13:25:19.185Z",
  "devdoc": {
    "methods": {
      "getCashflowBeneficiary(bytes32,int8)": {
        "params": {
          "assetId": "id of the asset",
          "cashflowId": "the identifier of the specific claims owned by the registerd address"
        },
        "return": "address of the beneficiary corresponding to the given cashflowId"
      },
      "getOwnership(bytes32)": {
        "params": {
          "assetId": "id of the asset"
        },
        "return": "addresses of all owners of the asset"
      },
      "isOwner()": {
        "return": "true if `msg.sender` is the owner of the contract."
      },
      "owner()": {
        "return": "the address of the owner."
      },
      "registerOwnership(bytes32,address,address,address,address)": {
        "params": {
          "assetId": "id of the asset",
          "counterpartyBeneficiary": "the address of the owner of counterparty-side payment claims",
          "counterpartyObligor": "the address of the owner of counterparty-side payment obligations",
          "recordCreatorBeneficiary": "the address of the owner of creator-side payment claims",
          "recordCreatorObligor": "the address of the owner of creator-side payment obligations"
        }
      },
      "renounceOwnership()": {
        "details": "Allows the current owner to relinquish control of the contract. It will not be possible to call the functions with the `onlyOwner` modifier anymore."
      },
      "setBeneficiaryForCashflowId(bytes32,int8,address)": {
        "params": {
          "assetId": "id of the asset",
          "beneficiary": "the address of the owner",
          "cashflowId": "id of the specific claims for which to register the owner"
        }
      },
      "setCounterpartyBeneficiary(bytes32,address)": {
        "params": {
          "assetId": "id of the asset",
          "newCounterpartyBeneficiary": "address of the new beneficiary"
        }
      },
      "setRecordCreatorBeneficiary(bytes32,address)": {
        "params": {
          "assetId": "id of the asset",
          "newRecordCreatorBeneficiary": "address of the new beneficiary"
        }
      },
      "transferOwnership(address)": {
        "details": "Allows the current owner to transfer control of the contract to a newOwner.",
        "params": {
          "newOwner": "The address to transfer ownership to."
        }
      }
    }
  },
  "userdoc": {
    "methods": {
      "getCashflowBeneficiary(bytes32,int8)": {
        "notice": "retrieve the registered address of the owner of specific future claims from an asset"
      },
      "getOwnership(bytes32)": {
        "notice": "retrieve the registered addresses of owners (Creator, Counterparty) of an asset"
      },
      "registerOwnership(bytes32,address,address,address,address)": {
        "notice": "registers the addresses of the owners of an asset"
      },
      "renounceOwnership()": {
        "notice": "Renouncing ownership will leave the contract without an owner, thereby removing any functionality that is only available to the owner."
      },
      "setBeneficiaryForCashflowId(bytes32,int8,address)": {
        "notice": "register the address of the owner of specific claims of the asset"
      },
      "setCounterpartyBeneficiary(bytes32,address)": {
        "notice": "update the address of the default beneficiary of cashflows going to the counter party"
      },
      "setRecordCreatorBeneficiary(bytes32,address)": {
        "notice": "update the address of the default beneficiary of cashflows going to the record creator"
      }
    }
  }
}