{
  "contractName": "PAMAssetActor",
  "abi": [
    {
      "constant": true,
      "inputs": [],
      "name": "PRECISION",
      "outputs": [
        {
          "name": "",
          "type": "uint256"
        }
      ],
      "payable": false,
      "stateMutability": "view",
      "type": "function",
      "signature": "0xaaf5eb68"
    },
    {
      "inputs": [
        {
          "name": "_ownershipRegistry",
          "type": "address"
        },
        {
          "name": "_economicsRegistry",
          "type": "address"
        },
        {
          "name": "_paymentRegistry",
          "type": "address"
        },
        {
          "name": "_paymentRouter",
          "type": "address"
        },
        {
          "name": "_pamEngine",
          "type": "address"
        }
      ],
      "payable": false,
      "stateMutability": "nonpayable",
      "type": "constructor",
      "signature": "constructor"
    },
    {
      "constant": false,
      "inputs": [
        {
          "name": "assetId",
          "type": "bytes32"
        },
        {
          "name": "timestamp",
          "type": "uint256"
        }
      ],
      "name": "progress",
      "outputs": [
        {
          "name": "",
          "type": "bool"
        }
      ],
      "payable": false,
      "stateMutability": "nonpayable",
      "type": "function",
      "signature": "0x89ebb025"
    },
    {
      "constant": false,
      "inputs": [
        {
          "name": "assetId",
          "type": "bytes32"
        },
        {
          "components": [
            {
              "name": "recordCreatorObligor",
              "type": "address"
            },
            {
              "name": "recordCreatorBeneficiary",
              "type": "address"
            },
            {
              "name": "counterpartyObligor",
              "type": "address"
            },
            {
              "name": "counterpartyBeneficiary",
              "type": "address"
            }
          ],
          "name": "ownership",
          "type": "tuple"
        },
        {
          "components": [
            {
              "name": "calendar",
              "type": "uint8"
            },
            {
              "name": "contractRole",
              "type": "uint8"
            },
            {
              "name": "legalEntityIdRecordCreator",
              "type": "string"
            },
            {
              "name": "legalEntityIdCounterparty",
              "type": "string"
            },
            {
              "name": "dayCountConvention",
              "type": "uint8"
            },
            {
              "name": "businessDayConvention",
              "type": "uint8"
            },
            {
              "name": "endOfMonthConvention",
              "type": "uint8"
            },
            {
              "name": "currency",
              "type": "uint8"
            },
            {
              "name": "scalingEffect",
              "type": "uint8"
            },
            {
              "name": "penaltyType",
              "type": "uint8"
            },
            {
              "name": "feeBasis",
              "type": "uint8"
            },
            {
              "name": "statusDate",
              "type": "uint256"
            },
            {
              "name": "initialExchangeDate",
              "type": "uint256"
            },
            {
              "name": "maturityDate",
              "type": "uint256"
            },
            {
              "name": "terminationDate",
              "type": "uint256"
            },
            {
              "name": "purchaseDate",
              "type": "uint256"
            },
            {
              "name": "capitalizationEndDate",
              "type": "uint256"
            },
            {
              "name": "cycleAnchorDateOfInterestPayment",
              "type": "uint256"
            },
            {
              "name": "cycleAnchorDateOfRateReset",
              "type": "uint256"
            },
            {
              "name": "cycleAnchorDateOfScalingIndex",
              "type": "uint256"
            },
            {
              "name": "cycleAnchorDateOfFee",
              "type": "uint256"
            },
            {
              "name": "notionalPrincipal",
              "type": "int256"
            },
            {
              "name": "nominalInterestRate",
              "type": "int256"
            },
            {
              "name": "feeAccrued",
              "type": "int256"
            },
            {
              "name": "accruedInterest",
              "type": "int256"
            },
            {
              "name": "rateMultiplier",
              "type": "int256"
            },
            {
              "name": "rateSpread",
              "type": "int256"
            },
            {
              "name": "feeRate",
              "type": "int256"
            },
            {
              "name": "nextResetRate",
              "type": "int256"
            },
            {
              "name": "penaltyRate",
              "type": "int256"
            },
            {
              "name": "premiumDiscountAtIED",
              "type": "int256"
            },
            {
              "name": "priceAtPurchaseDate",
              "type": "int256"
            },
            {
              "components": [
                {
                  "name": "i",
                  "type": "uint256"
                },
                {
                  "name": "p",
                  "type": "uint8"
                },
                {
                  "name": "s",
                  "type": "uint8"
                },
                {
                  "name": "isSet",
                  "type": "bool"
                }
              ],
              "name": "cycleOfInterestPayment",
              "type": "tuple"
            },
            {
              "components": [
                {
                  "name": "i",
                  "type": "uint256"
                },
                {
                  "name": "p",
                  "type": "uint8"
                },
                {
                  "name": "s",
                  "type": "uint8"
                },
                {
                  "name": "isSet",
                  "type": "bool"
                }
              ],
              "name": "cycleOfRateReset",
              "type": "tuple"
            },
            {
              "components": [
                {
                  "name": "i",
                  "type": "uint256"
                },
                {
                  "name": "p",
                  "type": "uint8"
                },
                {
                  "name": "s",
                  "type": "uint8"
                },
                {
                  "name": "isSet",
                  "type": "bool"
                }
              ],
              "name": "cycleOfScalingIndex",
              "type": "tuple"
            },
            {
              "components": [
                {
                  "name": "i",
                  "type": "uint256"
                },
                {
                  "name": "p",
                  "type": "uint8"
                },
                {
                  "name": "s",
                  "type": "uint8"
                },
                {
                  "name": "isSet",
                  "type": "bool"
                }
              ],
              "name": "cycleOfFee",
              "type": "tuple"
            },
            {
              "name": "lifeCap",
              "type": "int256"
            },
            {
              "name": "lifePeriod",
              "type": "int256"
            },
            {
              "name": "lifeFloor",
              "type": "int256"
            },
            {
              "name": "periodCap",
              "type": "int256"
            },
            {
              "name": "periodFloor",
              "type": "int256"
            }
          ],
          "name": "terms",
          "type": "tuple"
        }
      ],
      "name": "initialize",
      "outputs": [
        {
          "name": "",
          "type": "bool"
        }
      ],
      "payable": false,
      "stateMutability": "nonpayable",
      "type": "function",
      "signature": "0x2565cb3f"
    }
  ],
  "bytecode": "0x60806040523480156200001157600080fd5b5060405160a080620022588339810180604052620000339190810190620000ab565b60008054600160a060020a0319908116600160a060020a0397881617909155600180548216958716959095179094556002805485169386169390931790925560038054841691851691909117905560048054909216921691909117905562000157565b6000620000a482516200014a565b9392505050565b600080600080600060a08688031215620000c457600080fd5b6000620000d2888862000096565b9550506020620000e58882890162000096565b9450506040620000f88882890162000096565b93505060606200010b8882890162000096565b92505060806200011e8882890162000096565b9150509295509295909350565b600062000138826200013e565b92915050565b600160a060020a031690565b600062000138826200012b565b6120f180620001676000396000f3fe608060405234801561001057600080fd5b506004361061005d577c010000000000000000000000000000000000000000000000000000000060003504632565cb3f811461006257806389ebb0251461008b578063aaf5eb681461009e575b600080fd5b61007561007036600461165d565b6100b3565b6040516100829190611d4c565b60405180910390f35b6100756100993660046116c2565b610277565b6100a66107fb565b6040516100829190611d5a565b60006100bd610800565b600480546040517f32233cf4000000000000000000000000000000000000000000000000000000008152600160a060020a03909116916332233cf49161010591879101611e62565b6101406040518083038186803b15801561011e57600080fd5b505afa158015610132573d6000803e3d6000fd5b505050506040513d601f19601f8201168201806040525061015691908101906116fc565b6000548551602087015160408089015160608a015191517f4daf74ad000000000000000000000000000000000000000000000000000000008152959650600160a060020a0390941694634daf74ad946101b7948c9490939092600401611d68565b600060405180830381600087803b1580156101d157600080fd5b505af11580156101e5573d6000803e3d6000fd5b50506001546040517f013c8421000000000000000000000000000000000000000000000000000000008152600160a060020a03909116925063013c84219150610238908890879086903090600401611dd0565b600060405180830381600087803b15801561025257600080fd5b505af1158015610266573d6000803e3d6000fd5b5050505060019150505b9392505050565b600061028161085e565b6001546040517f6be39bda000000000000000000000000000000000000000000000000000000008152600160a060020a0390911690636be39bda906102ca908790600401611d5a565b60006040518083038186803b1580156102e257600080fd5b505afa1580156102f6573d6000803e3d6000fd5b505050506040513d6000823e601f3d908101601f1916820160405261031e9190810190611755565b9050610328610800565b6001546040517f09648a9d000000000000000000000000000000000000000000000000000000008152600160a060020a03909116906309648a9d90610371908890600401611d5a565b6101406040518083038186803b15801561038a57600080fd5b505afa15801561039e573d6000803e3d6000fd5b505050506040513d601f19601f820116820180604052506103c291908101906116fc565b61016083015190915015156103f55760405160e560020a62461bcd0281526004016103ec90611e42565b60405180910390fd5b805115156104185760405160e560020a62461bcd0281526004016103ec90611e42565b60008160200151600381111561042a57fe5b1461044a5760405160e560020a62461bcd0281526004016103ec90611e52565b6001546040517f0a0c7753000000000000000000000000000000000000000000000000000000008152600091600160a060020a031690630a0c775390610494908990600401611d5a565b60206040518083038186803b1580156104ac57600080fd5b505afa1580156104c0573d6000803e3d6000fd5b505050506040513d601f19601f820116820180604052506104e4919081019061178a565b90506104ee610800565b6104f66109a3565b600480546040517ff6259804000000000000000000000000000000000000000000000000000000008152600160a060020a039091169163f62598049161054291899189918d9101611e73565b6129406040518083038186803b15801561055b57600080fd5b505afa15801561056f573d6000803e3d6000fd5b505050506040513d601f19601f820116820180604052506105939190810190611723565b909250905060005b60408110156106f05760008282604081106105b257fe5b60200201515114156105c3576106f0565b600193909301926000808383604081106105d957fe5b60200201516060015112610601578282604081106105f357fe5b60200201516060015161061b565b82826040811061060d57fe5b602002015160600151600019025b905080151561062a57506106e8565b6002546040517f921a154b0000000000000000000000000000000000000000000000000000000081528291600160a060020a03169063921a154b90610675908e908a90600401611e17565b60206040518083038186803b15801561068d57600080fd5b505afa1580156106a1573d6000803e3d6000fd5b505050506040513d601f19601f820116820180604052506106c5919081019061178a565b10156106e65760405160e560020a62461bcd0281526004016103ec90611e32565b505b60010161059b565b506001546040517ffebce91c000000000000000000000000000000000000000000000000000000008152600160a060020a039091169063febce91c9061073c908b908690600401611db4565b600060405180830381600087803b15801561075657600080fd5b505af115801561076a573d6000803e3d6000fd5b50506001546040517fa84ebffb000000000000000000000000000000000000000000000000000000008152600160a060020a03909116925063a84ebffb91506107b9908b908790600401611e17565b600060405180830381600087803b1580156107d357600080fd5b505af11580156107e7573d6000803e3d6000fd5b505050506001955050505050505b92915050565b601281565b604080516101408101909152600080825260208201908152602001600081526020016000815260200160008152602001600081526020016000815260200160008152602001600081526020016000600981111561085957fe5b905290565b604080516106a081019091528060008152602001600081526060602082018190526040820181905201600081526020016000815260200160008152602001600081526020016000815260200160008152602001600081526020016000815260200160008152602001600081526020016000815260200160008152602001600081526020016000815260200160008152602001600081526020016000815260200160008152602001600081526020016000815260200160008152602001600081526020016000815260200160008152602001600081526020016000815260200160008152602001600081526020016109536109cf565b81526020016109606109cf565b815260200161096d6109cf565b815260200161097a6109cf565b815260200160008152602001600081526020016000815260200160008152602001600081525090565b604080516128008101825290815b6109b96109f8565b8152602001906001900390816109b15790505090565b604080516080810190915260008082526020820190815260200160008152600060209091015290565b6040805160a081019091526000808252602082019081526020016000815260200160008152602001600081525090565b60006102708235611f13565b6000601f82018313610a4557600080fd5b6040610a58610a5382611ec9565b611ea2565b915081838560a0840282011115610a6e57600080fd5b60005b83811015610a9c5781610a848882610ca6565b84525060209092019160a09190910190600101610a71565b5050505092915050565b60006102708235611f1e565b60006102708251611f1e565b60006102708235611f23565b60006102708235611f96565b60006102708251611f96565b60006102708235611fa5565b60006102708251611fa5565b60006102708235611fb4565b60006102708251611fb4565b60006102708251611fc3565b60006102708235611fc3565b60006102708235611fd2565b60006102708251611fd2565b60006102708235611fe1565b60006102708251611fe1565b60006102708251611ff0565b60006102708235611fff565b60006102708251611fff565b6000610270823561200e565b6000610270825161200e565b60006102708251611f23565b6000601f82018313610bb357600080fd5b8135610bc1610a5382611ee7565b91508082526020830160208301858383011115610bdd57600080fd5b610be8838284612075565b50505092915050565b6000601f82018313610c0257600080fd5b8151610c10610a5382611ee7565b91508082526020830160208301858383011115610c2c57600080fd5b610be8838284612081565b600060808284031215610c4957600080fd5b610c536080611ea2565b90506000610c618484610a28565b8252506020610c7284848301610a28565b6020830152506040610c8684828501610a28565b6040830152506060610c9a84828501610a28565b60608301525092915050565b600060a08284031215610cb857600080fd5b610cc260a0611ea2565b90506000610cd08484610b96565b8252506020610ce184848301610b5a565b6020830152506040610cf584828501610b12565b6040830152506060610d0984828501610b96565b6060830152506080610d1d84828501610b96565b60808301525092915050565b60006101408284031215610d3c57600080fd5b610d47610140611ea2565b90506000610d558484610b96565b8252506020610d6684848301610b12565b6020830152506040610d7a84828501610b96565b6040830152506060610d8e84828501610b96565b6060830152506080610da284828501610b96565b60808301525060a0610db684828501610b96565b60a08301525060c0610dca84828501610b96565b60c08301525060e0610dde84828501610b96565b60e083015250610100610df384828501610b96565b61010083015250610120610e0984828501610b06565b6101208301525092915050565b60006106a08284031215610e2957600080fd5b610e34610520611ea2565b90506000610e428484610ae2565b8252506020610e5384848301610afa565b602083015250604082013567ffffffffffffffff811115610e7357600080fd5b610e7f84828501610ba2565b604083015250606082013567ffffffffffffffff811115610e9f57600080fd5b610eab84828501610ba2565b6060830152506080610ebf84828501610b2a565b60808301525060a0610ed384828501610aca565b60a08301525060c0610ee784828501610b42565b60c08301525060e0610efb84828501610b1e565b60e083015250610100610f1084828501610b7e565b61010083015250610120610f2684828501610b1e565b61012083015250610140610f3c84828501610b42565b61014083015250610160610f5284828501610abe565b61016083015250610180610f6884828501610abe565b610180830152506101a0610f7e84828501610abe565b6101a0830152506101c0610f9484828501610abe565b6101c0830152506101e0610faa84828501610abe565b6101e083015250610200610fc084828501610abe565b61020083015250610220610fd684828501610abe565b61022083015250610240610fec84828501610abe565b6102408301525061026061100284828501610abe565b6102608301525061028061101884828501610abe565b610280830152506102a061102e84828501610abe565b6102a0830152506102c061104484828501610abe565b6102c0830152506102e061105a84828501610abe565b6102e08301525061030061107084828501610abe565b6103008301525061032061108684828501610abe565b6103208301525061034061109c84828501610abe565b610340830152506103606110b284828501610abe565b610360830152506103806110c884828501610abe565b610380830152506103a06110de84828501610abe565b6103a0830152506103c06110f484828501610abe565b6103c0830152506103e061110a84828501610abe565b6103e08301525061040061112084828501611597565b6104008301525061048061113684828501611597565b6104208301525061050061114c84828501611597565b6104408301525061058061116284828501611597565b6104608301525061060061117884828501610abe565b6104808301525061062061118e84828501610abe565b6104a0830152506106406111a484828501610abe565b6104c0830152506106606111ba84828501610abe565b6104e0830152506106806111d084828501610abe565b6105008301525092915050565b60006106a082840312156111f057600080fd5b6111fb610520611ea2565b905060006112098484610aee565b825250602061121a84848301610b06565b602083015250604082015167ffffffffffffffff81111561123a57600080fd5b61124684828501610bf1565b604083015250606082015167ffffffffffffffff81111561126657600080fd5b61127284828501610bf1565b606083015250608061128684828501610b36565b60808301525060a061129a84828501610ad6565b60a08301525060c06112ae84828501610b4e565b60c08301525060e06112c284828501610b12565b60e0830152506101006112d784828501610b8a565b610100830152506101206112ed84828501610b12565b6101208301525061014061130384828501610b4e565b6101408301525061016061131984828501610b96565b6101608301525061018061132f84828501610b96565b610180830152506101a061134584828501610b96565b6101a0830152506101c061135b84828501610b96565b6101c0830152506101e061137184828501610b96565b6101e08301525061020061138784828501610b96565b6102008301525061022061139d84828501610b96565b610220830152506102406113b384828501610b96565b610240830152506102606113c984828501610b96565b610260830152506102806113df84828501610b96565b610280830152506102a06113f584828501610b96565b6102a0830152506102c061140b84828501610b96565b6102c0830152506102e061142184828501610b96565b6102e08301525061030061143784828501610b96565b6103008301525061032061144d84828501610b96565b6103208301525061034061146384828501610b96565b6103408301525061036061147984828501610b96565b6103608301525061038061148f84828501610b96565b610380830152506103a06114a584828501610b96565b6103a0830152506103c06114bb84828501610b96565b6103c0830152506103e06114d184828501610b96565b6103e0830152506104006114e7848285016115fa565b610400830152506104806114fd848285016115fa565b61042083015250610500611513848285016115fa565b61044083015250610580611529848285016115fa565b6104608301525061060061153f84828501610b96565b6104808301525061062061155584828501610b96565b6104a08301525061064061156b84828501610b96565b6104c08301525061066061158184828501610b96565b6104e0830152506106806111d084828501610b96565b6000608082840312156115a957600080fd5b6115b36080611ea2565b905060006115c18484610abe565b82525060206115d284848301610b66565b60208301525060406115e684828501610b42565b6040830152506060610c9a84828501610aa6565b60006080828403121561160c57600080fd5b6116166080611ea2565b905060006116248484610b96565b825250602061163584848301610b72565b602083015250604061164984828501610b4e565b6040830152506060610c9a84828501610ab2565b600080600060c0848603121561167257600080fd5b600061167e8686610abe565b935050602061168f86828701610c37565b92505060a084013567ffffffffffffffff8111156116ac57600080fd5b6116b886828701610e16565b9150509250925092565b600080604083850312156116d557600080fd5b60006116e18585610abe565b92505060206116f285828601610abe565b9150509250929050565b6000610140828403121561170f57600080fd5b600061171b8484610d29565b949350505050565b600080612940838503121561173757600080fd5b60006117438585610d29565b9250506101406116f285828601610a34565b60006020828403121561176757600080fd5b815167ffffffffffffffff81111561177e57600080fd5b61171b848285016111dd565b60006020828403121561179c57600080fd5b600061171b8484610b96565b6117b181611f13565b82525050565b6117b181611f1e565b6117b181611f23565b6117b18161201d565b6117b181612028565b6117b181612033565b6117b18161203e565b6117b181612049565b6117b181612054565b6117b18161205f565b6117b18161206a565b600061181c82611f0f565b808452611830816020860160208601612081565b611839816120ad565b9093016020019392505050565b601481527f4f55545354414e44494e475f5041594d454e5453000000000000000000000000602082015260400190565b601481527f454e5452595f444f45535f4e4f545f4558495354000000000000000000000000602082015260400190565b601781527f434f4e54524143545f4e4f545f504552464f524d414e54000000000000000000602082015260400190565b80516101408301906118e884826117c0565b5060208201516118fb60208501826117e4565b50604082015161190e60408501826117c0565b50606082015161192160608501826117c0565b50608082015161193460808501826117c0565b5060a082015161194760a08501826117c0565b5060c082015161195a60c08501826117c0565b5060e082015161196d60e08501826117c0565b506101008201516119826101008501826117c0565b506101208201516119976101208501826117db565b50505050565b80516000906106a08401906119b285826117d2565b5060208301516119c560208601826117db565b50604083015184820360408601526119dd8282611811565b915050606083015184820360608601526119f78282611811565b9150506080830151611a0c60808601826117ed565b5060a0830151611a1f60a08601826117c9565b5060c0830151611a3260c08601826117f6565b5060e0830151611a4560e08601826117e4565b50610100830151611a5a610100860182611808565b50610120830151611a6f6101208601826117e4565b50610140830151611a846101408601826117f6565b50610160830151611a996101608601826117c0565b50610180830151611aae6101808601826117c0565b506101a0830151611ac36101a08601826117c0565b506101c0830151611ad86101c08601826117c0565b506101e0830151611aed6101e08601826117c0565b50610200830151611b026102008601826117c0565b50610220830151611b176102208601826117c0565b50610240830151611b2c6102408601826117c0565b50610260830151611b416102608601826117c0565b50610280830151611b566102808601826117c0565b506102a0830151611b6b6102a08601826117c0565b506102c0830151611b806102c08601826117c0565b506102e0830151611b956102e08601826117c0565b50610300830151611baa6103008601826117c0565b50610320830151611bbf6103208601826117c0565b50610340830151611bd46103408601826117c0565b50610360830151611be96103608601826117c0565b50610380830151611bfe6103808601826117c0565b506103a0830151611c136103a08601826117c0565b506103c0830151611c286103c08601826117c0565b506103e0830151611c3d6103e08601826117c0565b50610400830151611c52610400860182611d02565b50610420830151611c67610480860182611d02565b50610440830151611c7c610500860182611d02565b50610460830151611c91610580860182611d02565b50610480830151611ca66106008601826117c0565b506104a0830151611cbb6106208601826117c0565b506104c0830151611cd06106408601826117c0565b506104e0830151611ce56106608601826117c0565b50610500830151611cfa6106808601826117c0565b509392505050565b80516080830190611d1384826117c0565b506020820151611d2660208501826117ff565b506040820151611d3960408501826117f6565b50606082015161199760608501826117b7565b602081016107f582846117b7565b602081016107f582846117c0565b60a08101611d7682886117c0565b611d8360208301876117a8565b611d9060408301866117a8565b611d9d60608301856117a8565b611daa60808301846117a8565b9695505050505050565b6101608101611dc382856117c0565b61027060208301846118d6565b6101a08101611ddf82876117c0565b8181036020830152611df1818661199d565b9050611e0060408301856118d6565b611e0e6101808301846117a8565b95945050505050565b60408101611e2582856117c0565b61027060208301846117c0565b602080825281016107f581611846565b602080825281016107f581611876565b602080825281016107f5816118a6565b60208082528101610270818461199d565b6101808082528101611e85818661199d565b9050611e9460208301856118d6565b61171b6101608301846117c0565b60405181810167ffffffffffffffff81118282101715611ec157600080fd5b604052919050565b600067ffffffffffffffff821115611ee057600080fd5b5060200290565b600067ffffffffffffffff821115611efe57600080fd5b506020601f91909101601f19160190565b5190565b60006107f582611f8a565b151590565b90565b600060098210611f3257fe5b5090565b600060038210611f3257fe5b6000600a8210611f3257fe5b600060048210611f3257fe5b600060078210611f3257fe5b600060028210611f3257fe5b600060068210611f3257fe5b600060088210611f3257fe5b600160a060020a031690565b600060098210611f3257600080fd5b600060038210611f3257600080fd5b6000600a8210611f3257600080fd5b600060048210611f3257600080fd5b600060078210611f3257600080fd5b600060028210611f3257600080fd5b600060158210611f3257600080fd5b600060068210611f3257600080fd5b600060088210611f3257600080fd5b60006107f582611f26565b60006107f582611f36565b60006107f582611f42565b60006107f582611f4e565b60006107f582611f5a565b60006107f582611f66565b60006107f582611f72565b60006107f582611f7e565b82818337506000910152565b60005b8381101561209c578181015183820152602001612084565b838111156119975750506000910152565b601f01601f19169056fea265627a7a72305820d8b709fe340e40b334506177813a2ccfbdf4fcf4459880c361a3fba4a01c75106c6578706572696d656e74616cf50037",
  "source": "pragma solidity ^0.5.2;\npragma experimental ABIEncoderV2;\n\nimport \"./IAssetActor.sol\";\nimport \"./IOwnershipRegistry.sol\";\nimport \"./IEconomicsRegistry.sol\";\nimport \"./IPaymentRegistry.sol\";\nimport \"./IPaymentRouter.sol\";\n\nimport \"../APCore/APDefinitions.sol\";\nimport \"../APEngines/IPAMEngine.sol\";\n\n\ncontract PAMAssetActor is APDefinitions, IAssetActor {\n\n\tIOwnershipRegistry ownershipRegistry;\n\tIEconomicsRegistry economicsRegistry;\n\tIPaymentRegistry paymentRegistry;\n\tIPaymentRouter paymentRouter;\n\n\tIPAMEngine pamEngine;\n\n\n\tconstructor (\n\t\tIOwnershipRegistry _ownershipRegistry,\n\t\tIEconomicsRegistry _economicsRegistry,\n\t\tIPaymentRegistry _paymentRegistry,\n\t\tIPaymentRouter _paymentRouter,\n\t\tIPAMEngine _pamEngine\n\t) \n\t\tpublic \n\t{\n\t\townershipRegistry = _ownershipRegistry;\n\t\teconomicsRegistry = _economicsRegistry;\n\t\tpaymentRegistry = _paymentRegistry;\n\t\tpaymentRouter = _paymentRouter;\n\t\tpamEngine = _pamEngine;\n\t}\n\n\t/**\n\t * proceeds with the next state of the asset based on the terms, the last state and \n\t * the status of all obligations, that are due to the specified timestamp. If all obligations are fullfilled \n\t * the actor updates the state of the asset in the EconomicsRegistry\n\t * @param assetId id of the asset\n\t * @param timestamp current timestamp\n\t * @return true if state was updated\n\t */\n\tfunction progress(\n\t\tbytes32 assetId,\n\t\tuint256 timestamp\n\t) \n\t\texternal\n\t\treturns (bool)\n\t{\n\t\tContractTerms memory terms = economicsRegistry.getTerms(assetId);\n\t\tContractState memory state = economicsRegistry.getState(assetId);\n\t\t\n\t\trequire(terms.statusDate != uint256(0), \"ENTRY_DOES_NOT_EXIST\");\n\t\trequire(state.lastEventTime != uint256(0), \"ENTRY_DOES_NOT_EXIST\");\n\t\trequire(state.contractStatus == ContractStatus.PF, \"CONTRACT_NOT_PERFORMANT\");\n\n\t\tuint256 eventId = economicsRegistry.getEventId(assetId);\n\n\t\t(\n\t\t\tContractState memory nextState, \n\t\t\tContractEvent[MAX_EVENT_SCHEDULE_SIZE] memory pendingEvents\n\t\t) = pamEngine.computeNextState(terms, state, timestamp);\n\n\t\t\n\t\tfor (uint256 i = 0; i < MAX_EVENT_SCHEDULE_SIZE; i++) {\n\t\t\tif (pendingEvents[i].scheduledTime == uint256(0)) { break; }\n\t\t\teventId += 1;\n\t\t\tuint256 payoff = (pendingEvents[i].payoff < 0) ? \n\t\t\t\tuint256(pendingEvents[i].payoff * -1) : uint256(pendingEvents[i].payoff);\n\t\t\tif (payoff == uint256(0)) { continue; }\n\t\t\trequire(paymentRegistry.getPayoffBalance(assetId, eventId) >= payoff, \"OUTSTANDING_PAYMENTS\");\n\t\t}\n\n\t\t// check for non-payment events ...\n\n\t\teconomicsRegistry.setState(assetId, nextState);\n\t\teconomicsRegistry.setEventId(assetId, eventId);\n\n\t\treturn(true);\n\t}\n\n\t/**\n\t * derives the initial state of the asset from the provided terms and sets the initial state, the terms \n\t * together with the ownership of the asset in the EconomicsRegistry and OwnershipRegistry\n\t * @dev can only be called by the whitelisted account\n\t * @param assetId id of the asset\n\t * @param ownership ownership of the asset\n\t * @param terms terms of the asset\n\t * @return true on success\n\t */\n\tfunction initialize(\n\t\tbytes32 assetId,\n\t\tAssetOwnership memory ownership, \n\t\tContractTerms memory terms\n\t) \n\t\tpublic\n\t\treturns (bool)\n\t{\n\t\tContractState memory initialState = pamEngine.computeInitialState(terms);\n\n\t\townershipRegistry.registerOwnership(\n\t\t\tassetId,\n\t\t\townership.recordCreatorObligor,\n\t\t\townership.recordCreatorBeneficiary,\n\t\t\townership.counterpartyObligor,\n\t\t\townership.counterpartyBeneficiary\n\t\t);\n\n\t\teconomicsRegistry.registerEconomics(\n\t\t\tassetId,\n\t\t\tterms,\n\t\t\tinitialState,\n\t\t\taddress(this)\n\t\t);\n\n\t\treturn(true);\n\t}\n}",
  "sourcePath": "/Users/johannes/Documents/dev/actus-protocol/ap-monorepo/packages/ap-contracts/contracts/APExtended/PAMAssetActor.sol",
  "compiler": {
    "name": "solc",
    "version": "0.5.2+commit.1df8f40c.Emscripten.clang"
  },
  "schemaVersion": "3.0.1",
  "updatedAt": "2019-03-29T15:08:57.025Z",
  "devdoc": {
    "methods": {
      "initialize(bytes32,(address,address,address,address),(uint8,uint8,string,string,uint8,uint8,uint8,uint8,uint8,uint8,uint8,uint256,uint256,uint256,uint256,uint256,uint256,uint256,uint256,uint256,uint256,int256,int256,int256,int256,int256,int256,int256,int256,int256,int256,int256,(uint256,uint8,uint8,bool),(uint256,uint8,uint8,bool),(uint256,uint8,uint8,bool),(uint256,uint8,uint8,bool),int256,int256,int256,int256,int256))": {
        "details": "can only be called by the whitelisted account",
        "params": {
          "assetId": "id of the asset",
          "ownership": "ownership of the asset",
          "terms": "terms of the asset"
        },
        "return": "true on success"
      },
      "progress(bytes32,uint256)": {
        "params": {
          "assetId": "id of the asset",
          "timestamp": "current timestamp"
        },
        "return": "true if state was updated"
      }
    }
  },
  "userdoc": {
    "methods": {
      "initialize(bytes32,(address,address,address,address),(uint8,uint8,string,string,uint8,uint8,uint8,uint8,uint8,uint8,uint8,uint256,uint256,uint256,uint256,uint256,uint256,uint256,uint256,uint256,uint256,int256,int256,int256,int256,int256,int256,int256,int256,int256,int256,int256,(uint256,uint8,uint8,bool),(uint256,uint8,uint8,bool),(uint256,uint8,uint8,bool),(uint256,uint8,uint8,bool),int256,int256,int256,int256,int256))": {
        "notice": "derives the initial state of the asset from the provided terms and sets the initial state, the terms  together with the ownership of the asset in the EconomicsRegistry and OwnershipRegistry"
      },
      "progress(bytes32,uint256)": {
        "notice": "proceeds with the next state of the asset based on the terms, the last state and  the status of all obligations, that are due to the specified timestamp. If all obligations are fullfilled  the actor updates the state of the asset in the EconomicsRegistry"
      }
    }
  }
}