{
  "contractName": "PAMEngine",
  "abi": [
    {
      "constant": true,
      "inputs": [],
      "name": "PRECISION",
      "outputs": [
        {
          "name": "",
          "type": "uint256"
        }
      ],
      "payable": false,
      "stateMutability": "view",
      "type": "function",
      "signature": "0xaaf5eb68"
    },
    {
      "constant": true,
      "inputs": [
        {
          "components": [
            {
              "name": "calendar",
              "type": "uint8"
            },
            {
              "name": "contractRole",
              "type": "uint8"
            },
            {
              "name": "legalEntityIdRecordCreator",
              "type": "string"
            },
            {
              "name": "legalEntityIdCounterparty",
              "type": "string"
            },
            {
              "name": "dayCountConvention",
              "type": "uint8"
            },
            {
              "name": "businessDayConvention",
              "type": "uint8"
            },
            {
              "name": "endOfMonthConvention",
              "type": "uint8"
            },
            {
              "name": "currency",
              "type": "uint8"
            },
            {
              "name": "scalingEffect",
              "type": "uint8"
            },
            {
              "name": "penaltyType",
              "type": "uint8"
            },
            {
              "name": "feeBasis",
              "type": "uint8"
            },
            {
              "name": "statusDate",
              "type": "uint256"
            },
            {
              "name": "initialExchangeDate",
              "type": "uint256"
            },
            {
              "name": "maturityDate",
              "type": "uint256"
            },
            {
              "name": "terminationDate",
              "type": "uint256"
            },
            {
              "name": "purchaseDate",
              "type": "uint256"
            },
            {
              "name": "capitalizationEndDate",
              "type": "uint256"
            },
            {
              "name": "cycleAnchorDateOfInterestPayment",
              "type": "uint256"
            },
            {
              "name": "cycleAnchorDateOfRateReset",
              "type": "uint256"
            },
            {
              "name": "cycleAnchorDateOfScalingIndex",
              "type": "uint256"
            },
            {
              "name": "cycleAnchorDateOfFee",
              "type": "uint256"
            },
            {
              "name": "notionalPrincipal",
              "type": "int256"
            },
            {
              "name": "nominalInterestRate",
              "type": "int256"
            },
            {
              "name": "feeAccrued",
              "type": "int256"
            },
            {
              "name": "accruedInterest",
              "type": "int256"
            },
            {
              "name": "rateMultiplier",
              "type": "int256"
            },
            {
              "name": "rateSpread",
              "type": "int256"
            },
            {
              "name": "feeRate",
              "type": "int256"
            },
            {
              "name": "nextResetRate",
              "type": "int256"
            },
            {
              "name": "penaltyRate",
              "type": "int256"
            },
            {
              "name": "premiumDiscountAtIED",
              "type": "int256"
            },
            {
              "name": "priceAtPurchaseDate",
              "type": "int256"
            },
            {
              "components": [
                {
                  "name": "i",
                  "type": "uint256"
                },
                {
                  "name": "p",
                  "type": "uint8"
                },
                {
                  "name": "s",
                  "type": "uint8"
                },
                {
                  "name": "isSet",
                  "type": "bool"
                }
              ],
              "name": "cycleOfInterestPayment",
              "type": "tuple"
            },
            {
              "components": [
                {
                  "name": "i",
                  "type": "uint256"
                },
                {
                  "name": "p",
                  "type": "uint8"
                },
                {
                  "name": "s",
                  "type": "uint8"
                },
                {
                  "name": "isSet",
                  "type": "bool"
                }
              ],
              "name": "cycleOfRateReset",
              "type": "tuple"
            },
            {
              "components": [
                {
                  "name": "i",
                  "type": "uint256"
                },
                {
                  "name": "p",
                  "type": "uint8"
                },
                {
                  "name": "s",
                  "type": "uint8"
                },
                {
                  "name": "isSet",
                  "type": "bool"
                }
              ],
              "name": "cycleOfScalingIndex",
              "type": "tuple"
            },
            {
              "components": [
                {
                  "name": "i",
                  "type": "uint256"
                },
                {
                  "name": "p",
                  "type": "uint8"
                },
                {
                  "name": "s",
                  "type": "uint8"
                },
                {
                  "name": "isSet",
                  "type": "bool"
                }
              ],
              "name": "cycleOfFee",
              "type": "tuple"
            },
            {
              "name": "lifeCap",
              "type": "int256"
            },
            {
              "name": "lifePeriod",
              "type": "int256"
            },
            {
              "name": "lifeFloor",
              "type": "int256"
            },
            {
              "name": "periodCap",
              "type": "int256"
            },
            {
              "name": "periodFloor",
              "type": "int256"
            }
          ],
          "name": "contractTerms",
          "type": "tuple"
        }
      ],
      "name": "computeInitialState",
      "outputs": [
        {
          "components": [
            {
              "name": "lastEventTime",
              "type": "uint256"
            },
            {
              "name": "contractStatus",
              "type": "uint8"
            },
            {
              "name": "timeFromLastEvent",
              "type": "int256"
            },
            {
              "name": "nominalValue",
              "type": "int256"
            },
            {
              "name": "nominalAccrued",
              "type": "int256"
            },
            {
              "name": "feeAccrued",
              "type": "int256"
            },
            {
              "name": "nominalRate",
              "type": "int256"
            },
            {
              "name": "interestScalingMultiplier",
              "type": "int256"
            },
            {
              "name": "nominalScalingMultiplier",
              "type": "int256"
            },
            {
              "name": "contractRoleSign",
              "type": "uint8"
            }
          ],
          "name": "",
          "type": "tuple"
        }
      ],
      "payable": false,
      "stateMutability": "pure",
      "type": "function",
      "signature": "0x32233cf4"
    },
    {
      "constant": true,
      "inputs": [
        {
          "components": [
            {
              "name": "calendar",
              "type": "uint8"
            },
            {
              "name": "contractRole",
              "type": "uint8"
            },
            {
              "name": "legalEntityIdRecordCreator",
              "type": "string"
            },
            {
              "name": "legalEntityIdCounterparty",
              "type": "string"
            },
            {
              "name": "dayCountConvention",
              "type": "uint8"
            },
            {
              "name": "businessDayConvention",
              "type": "uint8"
            },
            {
              "name": "endOfMonthConvention",
              "type": "uint8"
            },
            {
              "name": "currency",
              "type": "uint8"
            },
            {
              "name": "scalingEffect",
              "type": "uint8"
            },
            {
              "name": "penaltyType",
              "type": "uint8"
            },
            {
              "name": "feeBasis",
              "type": "uint8"
            },
            {
              "name": "statusDate",
              "type": "uint256"
            },
            {
              "name": "initialExchangeDate",
              "type": "uint256"
            },
            {
              "name": "maturityDate",
              "type": "uint256"
            },
            {
              "name": "terminationDate",
              "type": "uint256"
            },
            {
              "name": "purchaseDate",
              "type": "uint256"
            },
            {
              "name": "capitalizationEndDate",
              "type": "uint256"
            },
            {
              "name": "cycleAnchorDateOfInterestPayment",
              "type": "uint256"
            },
            {
              "name": "cycleAnchorDateOfRateReset",
              "type": "uint256"
            },
            {
              "name": "cycleAnchorDateOfScalingIndex",
              "type": "uint256"
            },
            {
              "name": "cycleAnchorDateOfFee",
              "type": "uint256"
            },
            {
              "name": "notionalPrincipal",
              "type": "int256"
            },
            {
              "name": "nominalInterestRate",
              "type": "int256"
            },
            {
              "name": "feeAccrued",
              "type": "int256"
            },
            {
              "name": "accruedInterest",
              "type": "int256"
            },
            {
              "name": "rateMultiplier",
              "type": "int256"
            },
            {
              "name": "rateSpread",
              "type": "int256"
            },
            {
              "name": "feeRate",
              "type": "int256"
            },
            {
              "name": "nextResetRate",
              "type": "int256"
            },
            {
              "name": "penaltyRate",
              "type": "int256"
            },
            {
              "name": "premiumDiscountAtIED",
              "type": "int256"
            },
            {
              "name": "priceAtPurchaseDate",
              "type": "int256"
            },
            {
              "components": [
                {
                  "name": "i",
                  "type": "uint256"
                },
                {
                  "name": "p",
                  "type": "uint8"
                },
                {
                  "name": "s",
                  "type": "uint8"
                },
                {
                  "name": "isSet",
                  "type": "bool"
                }
              ],
              "name": "cycleOfInterestPayment",
              "type": "tuple"
            },
            {
              "components": [
                {
                  "name": "i",
                  "type": "uint256"
                },
                {
                  "name": "p",
                  "type": "uint8"
                },
                {
                  "name": "s",
                  "type": "uint8"
                },
                {
                  "name": "isSet",
                  "type": "bool"
                }
              ],
              "name": "cycleOfRateReset",
              "type": "tuple"
            },
            {
              "components": [
                {
                  "name": "i",
                  "type": "uint256"
                },
                {
                  "name": "p",
                  "type": "uint8"
                },
                {
                  "name": "s",
                  "type": "uint8"
                },
                {
                  "name": "isSet",
                  "type": "bool"
                }
              ],
              "name": "cycleOfScalingIndex",
              "type": "tuple"
            },
            {
              "components": [
                {
                  "name": "i",
                  "type": "uint256"
                },
                {
                  "name": "p",
                  "type": "uint8"
                },
                {
                  "name": "s",
                  "type": "uint8"
                },
                {
                  "name": "isSet",
                  "type": "bool"
                }
              ],
              "name": "cycleOfFee",
              "type": "tuple"
            },
            {
              "name": "lifeCap",
              "type": "int256"
            },
            {
              "name": "lifePeriod",
              "type": "int256"
            },
            {
              "name": "lifeFloor",
              "type": "int256"
            },
            {
              "name": "periodCap",
              "type": "int256"
            },
            {
              "name": "periodFloor",
              "type": "int256"
            }
          ],
          "name": "contractTerms",
          "type": "tuple"
        },
        {
          "components": [
            {
              "name": "lastEventTime",
              "type": "uint256"
            },
            {
              "name": "contractStatus",
              "type": "uint8"
            },
            {
              "name": "timeFromLastEvent",
              "type": "int256"
            },
            {
              "name": "nominalValue",
              "type": "int256"
            },
            {
              "name": "nominalAccrued",
              "type": "int256"
            },
            {
              "name": "feeAccrued",
              "type": "int256"
            },
            {
              "name": "nominalRate",
              "type": "int256"
            },
            {
              "name": "interestScalingMultiplier",
              "type": "int256"
            },
            {
              "name": "nominalScalingMultiplier",
              "type": "int256"
            },
            {
              "name": "contractRoleSign",
              "type": "uint8"
            }
          ],
          "name": "contractState",
          "type": "tuple"
        },
        {
          "name": "timestamp",
          "type": "uint256"
        }
      ],
      "name": "computeNextState",
      "outputs": [
        {
          "components": [
            {
              "name": "lastEventTime",
              "type": "uint256"
            },
            {
              "name": "contractStatus",
              "type": "uint8"
            },
            {
              "name": "timeFromLastEvent",
              "type": "int256"
            },
            {
              "name": "nominalValue",
              "type": "int256"
            },
            {
              "name": "nominalAccrued",
              "type": "int256"
            },
            {
              "name": "feeAccrued",
              "type": "int256"
            },
            {
              "name": "nominalRate",
              "type": "int256"
            },
            {
              "name": "interestScalingMultiplier",
              "type": "int256"
            },
            {
              "name": "nominalScalingMultiplier",
              "type": "int256"
            },
            {
              "name": "contractRoleSign",
              "type": "uint8"
            }
          ],
          "name": "",
          "type": "tuple"
        },
        {
          "components": [
            {
              "name": "scheduledTime",
              "type": "uint256"
            },
            {
              "name": "eventType",
              "type": "uint8"
            },
            {
              "name": "currency",
              "type": "uint8"
            },
            {
              "name": "payoff",
              "type": "int256"
            },
            {
              "name": "actualEventTime",
              "type": "uint256"
            }
          ],
          "name": "",
          "type": "tuple[64]"
        }
      ],
      "payable": false,
      "stateMutability": "pure",
      "type": "function",
      "signature": "0xf6259804"
    },
    {
      "constant": true,
      "inputs": [
        {
          "components": [
            {
              "name": "calendar",
              "type": "uint8"
            },
            {
              "name": "contractRole",
              "type": "uint8"
            },
            {
              "name": "legalEntityIdRecordCreator",
              "type": "string"
            },
            {
              "name": "legalEntityIdCounterparty",
              "type": "string"
            },
            {
              "name": "dayCountConvention",
              "type": "uint8"
            },
            {
              "name": "businessDayConvention",
              "type": "uint8"
            },
            {
              "name": "endOfMonthConvention",
              "type": "uint8"
            },
            {
              "name": "currency",
              "type": "uint8"
            },
            {
              "name": "scalingEffect",
              "type": "uint8"
            },
            {
              "name": "penaltyType",
              "type": "uint8"
            },
            {
              "name": "feeBasis",
              "type": "uint8"
            },
            {
              "name": "statusDate",
              "type": "uint256"
            },
            {
              "name": "initialExchangeDate",
              "type": "uint256"
            },
            {
              "name": "maturityDate",
              "type": "uint256"
            },
            {
              "name": "terminationDate",
              "type": "uint256"
            },
            {
              "name": "purchaseDate",
              "type": "uint256"
            },
            {
              "name": "capitalizationEndDate",
              "type": "uint256"
            },
            {
              "name": "cycleAnchorDateOfInterestPayment",
              "type": "uint256"
            },
            {
              "name": "cycleAnchorDateOfRateReset",
              "type": "uint256"
            },
            {
              "name": "cycleAnchorDateOfScalingIndex",
              "type": "uint256"
            },
            {
              "name": "cycleAnchorDateOfFee",
              "type": "uint256"
            },
            {
              "name": "notionalPrincipal",
              "type": "int256"
            },
            {
              "name": "nominalInterestRate",
              "type": "int256"
            },
            {
              "name": "feeAccrued",
              "type": "int256"
            },
            {
              "name": "accruedInterest",
              "type": "int256"
            },
            {
              "name": "rateMultiplier",
              "type": "int256"
            },
            {
              "name": "rateSpread",
              "type": "int256"
            },
            {
              "name": "feeRate",
              "type": "int256"
            },
            {
              "name": "nextResetRate",
              "type": "int256"
            },
            {
              "name": "penaltyRate",
              "type": "int256"
            },
            {
              "name": "premiumDiscountAtIED",
              "type": "int256"
            },
            {
              "name": "priceAtPurchaseDate",
              "type": "int256"
            },
            {
              "components": [
                {
                  "name": "i",
                  "type": "uint256"
                },
                {
                  "name": "p",
                  "type": "uint8"
                },
                {
                  "name": "s",
                  "type": "uint8"
                },
                {
                  "name": "isSet",
                  "type": "bool"
                }
              ],
              "name": "cycleOfInterestPayment",
              "type": "tuple"
            },
            {
              "components": [
                {
                  "name": "i",
                  "type": "uint256"
                },
                {
                  "name": "p",
                  "type": "uint8"
                },
                {
                  "name": "s",
                  "type": "uint8"
                },
                {
                  "name": "isSet",
                  "type": "bool"
                }
              ],
              "name": "cycleOfRateReset",
              "type": "tuple"
            },
            {
              "components": [
                {
                  "name": "i",
                  "type": "uint256"
                },
                {
                  "name": "p",
                  "type": "uint8"
                },
                {
                  "name": "s",
                  "type": "uint8"
                },
                {
                  "name": "isSet",
                  "type": "bool"
                }
              ],
              "name": "cycleOfScalingIndex",
              "type": "tuple"
            },
            {
              "components": [
                {
                  "name": "i",
                  "type": "uint256"
                },
                {
                  "name": "p",
                  "type": "uint8"
                },
                {
                  "name": "s",
                  "type": "uint8"
                },
                {
                  "name": "isSet",
                  "type": "bool"
                }
              ],
              "name": "cycleOfFee",
              "type": "tuple"
            },
            {
              "name": "lifeCap",
              "type": "int256"
            },
            {
              "name": "lifePeriod",
              "type": "int256"
            },
            {
              "name": "lifeFloor",
              "type": "int256"
            },
            {
              "name": "periodCap",
              "type": "int256"
            },
            {
              "name": "periodFloor",
              "type": "int256"
            }
          ],
          "name": "contractTerms",
          "type": "tuple"
        },
        {
          "components": [
            {
              "name": "lastEventTime",
              "type": "uint256"
            },
            {
              "name": "contractStatus",
              "type": "uint8"
            },
            {
              "name": "timeFromLastEvent",
              "type": "int256"
            },
            {
              "name": "nominalValue",
              "type": "int256"
            },
            {
              "name": "nominalAccrued",
              "type": "int256"
            },
            {
              "name": "feeAccrued",
              "type": "int256"
            },
            {
              "name": "nominalRate",
              "type": "int256"
            },
            {
              "name": "interestScalingMultiplier",
              "type": "int256"
            },
            {
              "name": "nominalScalingMultiplier",
              "type": "int256"
            },
            {
              "name": "contractRoleSign",
              "type": "uint8"
            }
          ],
          "name": "contractState",
          "type": "tuple"
        },
        {
          "components": [
            {
              "name": "scheduledTime",
              "type": "uint256"
            },
            {
              "name": "eventType",
              "type": "uint8"
            },
            {
              "name": "currency",
              "type": "uint8"
            },
            {
              "name": "pofType",
              "type": "uint8"
            },
            {
              "name": "stfType",
              "type": "uint8"
            }
          ],
          "name": "protoEvent",
          "type": "tuple"
        },
        {
          "name": "timestamp",
          "type": "uint256"
        }
      ],
      "name": "computeNextStateForProtoEvent",
      "outputs": [
        {
          "components": [
            {
              "name": "lastEventTime",
              "type": "uint256"
            },
            {
              "name": "contractStatus",
              "type": "uint8"
            },
            {
              "name": "timeFromLastEvent",
              "type": "int256"
            },
            {
              "name": "nominalValue",
              "type": "int256"
            },
            {
              "name": "nominalAccrued",
              "type": "int256"
            },
            {
              "name": "feeAccrued",
              "type": "int256"
            },
            {
              "name": "nominalRate",
              "type": "int256"
            },
            {
              "name": "interestScalingMultiplier",
              "type": "int256"
            },
            {
              "name": "nominalScalingMultiplier",
              "type": "int256"
            },
            {
              "name": "contractRoleSign",
              "type": "uint8"
            }
          ],
          "name": "",
          "type": "tuple"
        },
        {
          "components": [
            {
              "name": "scheduledTime",
              "type": "uint256"
            },
            {
              "name": "eventType",
              "type": "uint8"
            },
            {
              "name": "currency",
              "type": "uint8"
            },
            {
              "name": "payoff",
              "type": "int256"
            },
            {
              "name": "actualEventTime",
              "type": "uint256"
            }
          ],
          "name": "",
          "type": "tuple"
        }
      ],
      "payable": false,
      "stateMutability": "pure",
      "type": "function",
      "signature": "0x38d0c428"
    },
    {
      "constant": true,
      "inputs": [
        {
          "components": [
            {
              "name": "calendar",
              "type": "uint8"
            },
            {
              "name": "contractRole",
              "type": "uint8"
            },
            {
              "name": "legalEntityIdRecordCreator",
              "type": "string"
            },
            {
              "name": "legalEntityIdCounterparty",
              "type": "string"
            },
            {
              "name": "dayCountConvention",
              "type": "uint8"
            },
            {
              "name": "businessDayConvention",
              "type": "uint8"
            },
            {
              "name": "endOfMonthConvention",
              "type": "uint8"
            },
            {
              "name": "currency",
              "type": "uint8"
            },
            {
              "name": "scalingEffect",
              "type": "uint8"
            },
            {
              "name": "penaltyType",
              "type": "uint8"
            },
            {
              "name": "feeBasis",
              "type": "uint8"
            },
            {
              "name": "statusDate",
              "type": "uint256"
            },
            {
              "name": "initialExchangeDate",
              "type": "uint256"
            },
            {
              "name": "maturityDate",
              "type": "uint256"
            },
            {
              "name": "terminationDate",
              "type": "uint256"
            },
            {
              "name": "purchaseDate",
              "type": "uint256"
            },
            {
              "name": "capitalizationEndDate",
              "type": "uint256"
            },
            {
              "name": "cycleAnchorDateOfInterestPayment",
              "type": "uint256"
            },
            {
              "name": "cycleAnchorDateOfRateReset",
              "type": "uint256"
            },
            {
              "name": "cycleAnchorDateOfScalingIndex",
              "type": "uint256"
            },
            {
              "name": "cycleAnchorDateOfFee",
              "type": "uint256"
            },
            {
              "name": "notionalPrincipal",
              "type": "int256"
            },
            {
              "name": "nominalInterestRate",
              "type": "int256"
            },
            {
              "name": "feeAccrued",
              "type": "int256"
            },
            {
              "name": "accruedInterest",
              "type": "int256"
            },
            {
              "name": "rateMultiplier",
              "type": "int256"
            },
            {
              "name": "rateSpread",
              "type": "int256"
            },
            {
              "name": "feeRate",
              "type": "int256"
            },
            {
              "name": "nextResetRate",
              "type": "int256"
            },
            {
              "name": "penaltyRate",
              "type": "int256"
            },
            {
              "name": "premiumDiscountAtIED",
              "type": "int256"
            },
            {
              "name": "priceAtPurchaseDate",
              "type": "int256"
            },
            {
              "components": [
                {
                  "name": "i",
                  "type": "uint256"
                },
                {
                  "name": "p",
                  "type": "uint8"
                },
                {
                  "name": "s",
                  "type": "uint8"
                },
                {
                  "name": "isSet",
                  "type": "bool"
                }
              ],
              "name": "cycleOfInterestPayment",
              "type": "tuple"
            },
            {
              "components": [
                {
                  "name": "i",
                  "type": "uint256"
                },
                {
                  "name": "p",
                  "type": "uint8"
                },
                {
                  "name": "s",
                  "type": "uint8"
                },
                {
                  "name": "isSet",
                  "type": "bool"
                }
              ],
              "name": "cycleOfRateReset",
              "type": "tuple"
            },
            {
              "components": [
                {
                  "name": "i",
                  "type": "uint256"
                },
                {
                  "name": "p",
                  "type": "uint8"
                },
                {
                  "name": "s",
                  "type": "uint8"
                },
                {
                  "name": "isSet",
                  "type": "bool"
                }
              ],
              "name": "cycleOfScalingIndex",
              "type": "tuple"
            },
            {
              "components": [
                {
                  "name": "i",
                  "type": "uint256"
                },
                {
                  "name": "p",
                  "type": "uint8"
                },
                {
                  "name": "s",
                  "type": "uint8"
                },
                {
                  "name": "isSet",
                  "type": "bool"
                }
              ],
              "name": "cycleOfFee",
              "type": "tuple"
            },
            {
              "name": "lifeCap",
              "type": "int256"
            },
            {
              "name": "lifePeriod",
              "type": "int256"
            },
            {
              "name": "lifeFloor",
              "type": "int256"
            },
            {
              "name": "periodCap",
              "type": "int256"
            },
            {
              "name": "periodFloor",
              "type": "int256"
            }
          ],
          "name": "contractTerms",
          "type": "tuple"
        },
        {
          "name": "segmentStart",
          "type": "uint256"
        },
        {
          "name": "segmentEnd",
          "type": "uint256"
        }
      ],
      "name": "computeProtoEventScheduleSegment",
      "outputs": [
        {
          "components": [
            {
              "name": "scheduledTime",
              "type": "uint256"
            },
            {
              "name": "eventType",
              "type": "uint8"
            },
            {
              "name": "currency",
              "type": "uint8"
            },
            {
              "name": "pofType",
              "type": "uint8"
            },
            {
              "name": "stfType",
              "type": "uint8"
            }
          ],
          "name": "",
          "type": "tuple[64]"
        }
      ],
      "payable": false,
      "stateMutability": "pure",
      "type": "function",
      "signature": "0x6bffe2a5"
    }
  ],
  "bytecode": "0x608060405234801561001057600080fd5b50613c92806100206000396000f3fe608060405234801561001057600080fd5b506004361061005a5760e060020a600035046332233cf4811461005f57806338d0c428146100885780636bffe2a5146100a9578063aaf5eb68146100c9578063f6259804146100de575b600080fd5b61007261006d366004613577565b6100ff565b60405161007f9190613ab7565b60405180910390f35b61009b6100963660046135ac565b610121565b60405161007f929190613ae3565b6100bc6100b736600461368d565b6101b9565b60405161007f9190613a32565b6100d16108f4565b60405161007f9190613b00565b6100f16100ec366004613627565b6108f9565b60405161007f929190613ac6565b610107612d9a565b61010f612d9a565b61011883610a83565b9150505b919050565b610129612d9a565b610131612df8565b610139612df8565b60a060405190810160405280866000015181526020018660200151601481111561015f57fe5b81526020018660400151600381111561017457fe5b8152602001610189868a8a8a60600151610b12565b8152602001859052905061019b612d9a565b6101ab85898989608001516114e3565b989197509095505050505050565b6101c1612e28565b6101c9612e28565b6101808501516000906101dd908686612256565b1561022b576040805160a08101909152610180870151815260208101600381526020016002815260200160038152602001600390528261ffff83166040811061022257fe5b60200201526001015b6101e08601511561029457610246866101e001518686612256565b15610294576040805160a081019091526101e0870151815260208101600981526020016002815260200160098152602001600990528261ffff83166040811061028b57fe5b60200201526001015b6102c0860151158015906102c2575061040086015160600151151560011480156102c2575061022086015115155b1561045d576102cf612e54565b6102f2876102200151886101a001518961040001518a60c0015160018b8b61227e565b905060005b60108160ff161015610456578160ff82166010811061031257fe5b6020020151156104495761033a8260ff83166010811061032e57fe5b60200201518888612256565b15156103455761044e565b6102008801511580159061037157506102008801518260ff83166010811061036957fe5b602002015111155b156103df576040805160a08101909152808360ff84166010811061039157fe5b60200201518152602001600b60148111156103a857fe5b815260200160028152602001600b8152602001600b90528461ffff8516604081106103cf57fe5b6020020152600190920191610444565b6040805160a08101909152808360ff8416601081106103fa57fe5b602002015181526020016004601481111561041157fe5b81526020016002815260200160048152602001600490528461ffff85166040811061043857fe5b60200201526001909201915b61044e565b610456565b6001016102f7565b50506104c6565b610200860151156104c6576104788661020001518686612256565b156104c6576040805160a08101909152610200870151815260208101600b815260200160028152602001600b8152602001600b90528261ffff8316604081106104bd57fe5b60200201526001015b61042086015160600151151560011480156104e5575061024086015115155b156105d5576104f2612e54565b610515876102400151886101a001518961042001518a60c0015160008b8b61227e565b905060005b60108160ff1610156105d2578160ff82166010811061053557fe5b6020020151156105c5576105518260ff83166010811061032e57fe5b151561055c576105ca565b6040805160a08101909152808360ff84166010811061057757fe5b60200201518152602001600c601481111561058e57fe5b815260200160028152602001600c8152602001600c90528461ffff8516604081106105b557fe5b60200201526001909201916105ca565b6105d2565b60010161051a565b50505b61046086015160600151151560011480156105f4575061028086015115155b156106e457610601612e54565b610624876102800151886101a001518961046001518a60c0015160018b8b61227e565b905060005b60108160ff1610156106e1578160ff82166010811061064457fe5b6020020151156106d4576106608260ff83166010811061032e57fe5b151561066b576106d9565b6040805160a08101909152808360ff84166010811061068657fe5b602002015181526020016008601481111561069d57fe5b81526020016002815260200160088152602001600890528461ffff8516604081106106c457fe5b60200201526001909201916106d9565b6106e1565b600101610629565b50505b600086610100015160078111156106f757fe5b14158061071557506002866101000151600781111561071257fe5b14155b8015610725575061026086015115155b1561081557610732612e54565b610755876102600151886101a001518961044001518a60c0015160018b8b61227e565b905060005b60108160ff161015610812578160ff82166010811061077557fe5b602002015115610805576107918260ff83166010811061032e57fe5b151561079c5761080a565b6040805160a08101909152808360ff8416601081106107b757fe5b60200201518152602001600e60148111156107ce57fe5b815260200160028152602001600e8152602001600e90528461ffff8516604081106107f557fe5b602002015260019092019161080a565b610812565b60010161075a565b50505b6101c08601511561087e57610830866101c001518686612256565b1561087e576040805160a081019091526101c0870151815260208101600a815260200160028152602001600a8152602001600a90528261ffff83166040811061087557fe5b60200201526001015b61088e866101a001518686612256565b156108dc576040805160a081019091526101a0870151815260208101600581526020016002815260200160058152602001600590528261ffff8316604081106108d357fe5b60200201526001015b6108e9826000603f612442565b5090505b9392505050565b601281565b610901612d9a565b610909612e74565b610911612d9a565b508361091b612e74565b610923612e28565b610932888860000151886101b9565b905060005b60408160ff161015610a75578160ff82166040811061095257fe5b602002015151151561096357610a6d565b60a060405190810160405280838360ff1660408110151561098057fe5b6020020151600001518152602001838360ff1660408110151561099f57fe5b60200201516020015160148111156109b357fe5b81526020018360ff8416604081106109c757fe5b60200201516040015160038111156109db57fe5b8152602001610a178460ff8516604081106109f257fe5b6020020151518c8c8760ff881660408110610a0957fe5b602002015160200151610b12565b81526020018890528360ff831660408110610a2e57fe5b6020020152610a6a8260ff831660408110610a4557fe5b6020020151518a8a8560ff861660408110610a5c57fe5b6020020151602001516114e3565b93505b600101610937565b509197909650945050505050565b610a8b612d9a565b610a93612d9a565b60006020820181905250670de0b6b3a7640000610100820181905260e082015260208301516101208201906009811115610ac957fe5b90816009811115610ad657fe5b90525061016083015181526102a083015160608201526102c083015160c082015261030083015160808201526102e09092015160a08301525090565b60006002826014811115610b2257fe5b1415610b30575060006114db565b600f826014811115610b3e57fe5b1415610b4c575060006114db565b600b826014811115610b5a57fe5b1415610b68575060006114db565b600d826014811115610b7657fe5b1415610b84575060006114db565b600c826014811115610b9257fe5b1415610ba0575060006114db565b600e826014811115610bae57fe5b1415610bbc575060006114db565b6008826014811115610bca57fe5b1415610d6f5760008461014001516001811115610be357fe5b1415610c1557836103600151610bfc8560200151612564565b610c0985602001516125b9565b0260000b0290506114db565b610d57610c2b84600001518787608001516125df565b61036086015160405160e160020a63392236a102815273__APFloatMath___________________________926372446d4292610c6992600401613a41565b60206040518083038186803b158015610c8157600080fd5b505af4158015610c95573d6000803e3d6000fd5b505050506040513d601f19601f82011682018060405250610cb99190810190613559565b606085015160405160e160020a63392236a102815273__APFloatMath___________________________926372446d4292610cf692600401613a41565b60206040518083038186803b158015610d0e57600080fd5b505af4158015610d22573d6000803e3d6000fd5b505050506040513d601f19601f82011682018060405250610d469190810190613559565b60a08501519063ffffffff61266d16565b610d6484602001516125b9565b60000b0290506114db565b6003826014811115610d7d57fe5b1415610dc8576103c08401516102a0850151610d9e9163ffffffff61266d16565b610dab8560200151612564565b610db885602001516125b9565b026000190260000b0290506114db565b6004826014811115610dd657fe5b1415610fae578260e0015173__APFloatMath___________________________6372446d429091610f3e610e1387600001518a8a608001516125df565b60c088015160405160e160020a63392236a102815273__APFloatMath___________________________926372446d4292610e5092600401613a41565b60206040518083038186803b158015610e6857600080fd5b505af4158015610e7c573d6000803e3d6000fd5b505050506040513d601f19601f82011682018060405250610ea09190810190613559565b606088015160405160e160020a63392236a102815273__APFloatMath___________________________926372446d4292610edd92600401613a41565b60206040518083038186803b158015610ef557600080fd5b505af4158015610f09573d6000803e3d6000fd5b505050506040513d601f19601f82011682018060405250610f2d9190810190613559565b60808801519063ffffffff61266d16565b6040518363ffffffff1660e060020a028152600401610f5e929190613a41565b60206040518083038186803b158015610f7657600080fd5b505af4158015610f8a573d6000803e3d6000fd5b505050506040513d601f19601f82011682018060405250610d579190810190613559565b6006826014811115610fbc57fe5b1415610fee578260600151610fd48560200151612564565b610fe185602001516125b9565b50600092506114db915050565b6009826014811115610ffc57fe5b141561115857610d9e61101884600001518787608001516125df565b60c085015160405160e160020a63392236a102815273__APFloatMath___________________________926372446d429261105592600401613a41565b60206040518083038186803b15801561106d57600080fd5b505af4158015611081573d6000803e3d6000fd5b505050506040513d601f19601f820116820180604052506110a59190810190613559565b606085015160405160e160020a63392236a102815273__APFloatMath___________________________926372446d42926110e292600401613a41565b60206040518083038186803b1580156110fa57600080fd5b505af415801561110e573d6000803e3d6000fd5b505050506040513d601f19601f820116820180604052506111329190810190613559565b60808501516103e087015161114c9163ffffffff61266d16565b9063ffffffff61266d16565b600582601481111561116657fe5b14156111af57610100830151606084015160405160e160020a63392236a102815273__APFloatMath___________________________926372446d4292610f5e92600401613a41565b60078260148111156111bd57fe5b14156114b157600184610120015160038111156111d657fe5b14156111ef57836103a00151610bfc8560200151612564565b6002846101200151600381111561120257fe5b14156113435761121b83600001518686608001516125df565b6103a085015160405160e160020a63392236a102815273__APFloatMath___________________________926372446d429261125992600401613a41565b60206040518083038186803b15801561127157600080fd5b505af4158015611285573d6000803e3d6000fd5b505050506040513d601f19601f820116820180604052506112a99190810190613559565b606084015160405160e160020a63392236a102815273__APFloatMath___________________________926372446d42926112e692600401613a41565b60206040518083038186803b1580156112fe57600080fd5b505af4158015611312573d6000803e3d6000fd5b505050506040513d601f19601f820116820180604052506113369190810190613559565b610bfc8560200151612564565b60c0830151600090819081121561135e57818560c001510390505b61137185600001518888608001516125df565b606086015160405160e160020a63392236a102815273__APFloatMath___________________________926372446d42926113ae92600401613a41565b60206040518083038186803b1580156113c657600080fd5b505af41580156113da573d6000803e3d6000fd5b505050506040513d601f19601f820116820180604052506113fe9190810190613559565b60405160e160020a63392236a102815273__APFloatMath___________________________916372446d429161143991908590600401613a41565b60206040518083038186803b15801561145157600080fd5b505af4158015611465573d6000803e3d6000fd5b505050506040513d601f19601f820116820180604052506114899190810190613559565b6114968760200151612564565b6114a387602001516125b9565b0260000b02925050506114db565b600a8260148111156114bf57fe5b14156114db5761133661101884600001518787608001516125df565b949350505050565b6114eb612d9a565b60028260148111156114f957fe5b14156117395761151283600001518686608001516125df565b60408085019190915260c08401516060850151915160e160020a63392236a102815261164f9273__APFloatMath___________________________926372446d42926115619290600401613a41565b60206040518083038186803b15801561157957600080fd5b505af415801561158d573d6000803e3d6000fd5b505050506040513d601f19601f820116820180604052506115b19190810190613559565b604080860151905160e160020a63392236a102815273__APFloatMath___________________________926372446d42926115ee92600401613a41565b60206040518083038186803b15801561160657600080fd5b505af415801561161a573d6000803e3d6000fd5b505050506040513d601f19601f8201168201806040525061163e9190810190613559565b60808501519063ffffffff61266d16565b6080840152610360840151606084015160405160e160020a63392236a102815261172a9273__APFloatMath___________________________926372446d429261169d929190600401613a41565b60206040518083038186803b1580156116b557600080fd5b505af41580156116c9573d6000803e3d6000fd5b505050506040513d601f19601f820116820180604052506116ed9190810190613559565b604080860151905160e160020a63392236a102815273__APFloatMath___________________________926372446d4292610cf692600401613a41565b60a084015250838252816114db565b600f82601481111561174757fe5b14156118135761176083600001518686608001516125df565b60408085019190915260c08401516060850151915160e160020a63392236a10281526117af9273__APFloatMath___________________________926372446d42926115619290600401613a41565b6080840152610360840151606084015160405160e160020a63392236a10281526117fd9273__APFloatMath___________________________926372446d429261169d929190600401613a41565b60a08401525060036020830152838252816114db565b600882601481111561182157fe5b141561189f5761183a83600001518686608001516125df565b60408085019190915260c08401516060850151915160e160020a63392236a10281526118899273__APFloatMath___________________________926372446d42926115619290600401613a41565b608084015250600060a0830152838252816114db565b60038260148111156118ad57fe5b1415611a57576118c683600001518686608001516125df565b60408401526102a084015160208501516118df90612564565b60000b0260608401526102c084015160c0840152848352610220840151158015906119135750836101800151846102200151105b15611a505760c0830151606084015160405160e160020a63392236a102815273__APFloatMath___________________________926372446d429261195a92600401613a41565b60206040518083038186803b15801561197257600080fd5b505af4158015611986573d6000803e3d6000fd5b505050506040513d601f19601f820116820180604052506119aa9190810190613559565b73__APFloatMath___________________________6372446d4290916119da8761022001518989608001516125df565b6040518363ffffffff1660e060020a0281526004016119fa929190613a41565b60206040518083038186803b158015611a1257600080fd5b505af4158015611a26573d6000803e3d6000fd5b505050506040513d601f19601f82011682018060405250611a4a9190810190613559565b60808401525b50816114db565b600b826014811115611a6557fe5b1415611c1057611a7e83600001518686608001516125df565b60408085019190915260c08401516060850151915160e160020a63392236a1028152611bbf9261163e9273__APFloatMath___________________________926372446d4292611ad19291600401613a41565b60206040518083038186803b158015611ae957600080fd5b505af4158015611afd573d6000803e3d6000fd5b505050506040513d601f19601f82011682018060405250611b219190810190613559565b604080870151905160e160020a63392236a102815273__APFloatMath___________________________926372446d4292611b5e92600401613a41565b60206040518083038186803b158015611b7657600080fd5b505af4158015611b8a573d6000803e3d6000fd5b505050506040513d601f19601f82011682018060405250611bae9190810190613559565b60808601519063ffffffff61266d16565b5060006080840152610360840151606084015160405160e160020a63392236a102815261172a9273__APFloatMath___________________________926372446d429261169d929190600401613a41565b6004826014811115611c1e57fe5b1415611c8e57611c3783600001518686608001516125df565b604080850191909152600060808501526103608501516060850151915160e160020a63392236a102815261172a9273__APFloatMath___________________________926372446d429261169d9290600401613a41565b6006826014811115611c9c57fe5b1415611cb55761151283600001518686608001516125df565b6009826014811115611cc357fe5b1415611cdc5761151283600001518686608001516125df565b6005826014811115611cea57fe5b1415611d2e57611d0383600001518686608001516125df565b60408401525060006060830181905260c083018190526080830181905260a0830152838252816114db565b6007826014811115611d3c57fe5b1415611d555761151283600001518686608001516125df565b600d826014811115611d6357fe5b1415611e3357611d7c83600001518686608001516125df565b60408085019190915260c08401516060850151915160e160020a63392236a1028152611dcb9273__APFloatMath___________________________926372446d42926115619290600401613a41565b6080840152610360840151606084015160405160e160020a63392236a1028152611e199273__APFloatMath___________________________926372446d429261169d929190600401613a41565b60a08401525061038083015160c0830152838252816114db565b600c826014811115611e4157fe5b14156120775761034084015160c0840151600090611e6690839063ffffffff6126ab16565b905080866104800151128015611e89575085610500015160001902866104800151125b15611e9a5750610480850151611eb6565b85610500015160001902811215611eb657506105008501516000035b60c0850151611ecb908263ffffffff61266d16565b915081866104800151128015611eea5750856104c00151866104800151125b15611efc578561048001519150611f12565b856104c00151821215611f1257856104c0015191505b611f2585600001518888608001516125df565b60408087019190915260c08601516060870151915160e160020a63392236a10281526120629273__APFloatMath___________________________926372446d4292611f749290600401613a41565b60206040518083038186803b158015611f8c57600080fd5b505af4158015611fa0573d6000803e3d6000fd5b505050506040513d601f19601f82011682018060405250611fc49190810190613559565b604080880151905160e160020a63392236a102815273__APFloatMath___________________________926372446d429261200192600401613a41565b60206040518083038186803b15801561201957600080fd5b505af415801561202d573d6000803e3d6000fd5b505050506040513d601f19601f820116820180604052506120519190810190613559565b60808701519063ffffffff61266d16565b60808601525060c084015250838252816114db565b600e82601481111561208557fe5b141561222f5761209e83600001518686608001516125df565b60408085019190915260c08401516060850151915160e160020a63392236a10281526120ed9273__APFloatMath___________________________926372446d42926115619290600401613a41565b6080840152610360840151606084015160405160e160020a63392236a102815261213b9273__APFloatMath___________________________926372446d429261169d929190600401613a41565b60a08401526004846101000151600781111561215357fe5b148061216f57506005846101000151600781111561216d57fe5b145b8061218a57506006846101000151600781111561218857fe5b145b806121a55750600784610100015160078111156121a357fe5b145b156121b257600060e08401525b600184610100015160078111156121c557fe5b14806121e15750600384610100015160078111156121df57fe5b145b806121fc5750600584610100015160078111156121fa57fe5b145b8061221757506007846101000151600781111561221557fe5b145b156122255760006101008401525b50838252816114db565b600a82601481111561223d57fe5b14156114db57611d0383600001518686608001516125df565b600083831080156122675750838210155b15612274575060016108ed565b5060009392505050565b612286612e54565b61228e612e54565b606087015160009015156122f8576122a78a8686612256565b156122c257898282601081106122b957fe5b60200201526001015b6122cd898686612256565b156122f057600186151514156122f057888282601081106122ea57fe5b60200201525b509050612437565b895b898110156123685761230d818787612256565b1561235757600e821061233e5760405160e560020a62461bcd02815260040161233590613a97565b60405180910390fd5b8083836010811061234b57fe5b60200201526001909101905b61236189826126dd565b90506122fa565b600187151514156123965761237e8a8787612256565b15612396578983836010811061239057fe5b60200201525b6000821180156123c057506123c0836000198401601081106123b457fe5b60200201518787612256565b15612431576000896040015160018111156123d757fe5b1480156123e45750600182115b80156123f05750808a14155b156124315782826010811061240157fe5b60200201518360001984016010811061241657fe5b602002015282826010811061242757fe5b6020020160008152505b50909150505b979650505050505050565b818180821480612450575081155b80612459575080155b1561246557505061255f565b60008560028686030586016040811061247a57fe5b60200201515190505b818313612535575b8086846040811061249857fe5b60200201515110156124af5760019092019161248b565b8582604081106124bb57fe5b6020020151518110156124d457600019909101906124af565b818313612530578582604081106124e757fe5b60200201518684604081106124f857fe5b602002015187856040811061250957fe5b6020020188856040811061251957fe5b602002019190915252600190920191600019909101905b612483565b8185121561254857612548868684612442565b8383121561255b5761255b868486612442565b5050505b505050565b60008082600981111561257357fe5b14156125815750600161011c565b600182600981111561258f57fe5b141561259e575060001961011c565b60405160e560020a62461bcd02815260040161233590613a87565b600060038260038111156125c957fe5b14156125d75750600061011c565b506001919050565b6000838310156126045760405160e560020a62461bcd02815260040161233590613aa7565b600182600681111561261257fe5b14156126295761262284846127ee565b90506108ed565b600282600681111561263757fe5b14156126475761262284846128b6565b600482600681111561265557fe5b1415612665576126228484612922565b5060016108ed565b60008282018183128015906126825750838112155b80612697575060008312801561269757508381125b15156126a257600080fd5b90505b92915050565b60008183038183128015906126c05750838113155b80612697575060008312801561269757508381136126a257600080fd5b60008080846020015160058111156126f157fe5b141561270c57612705838560000151612a80565b90506126a2565b60018460200151600581111561271e57fe5b141561273557612705838560000151600702612a80565b60028460200151600581111561274757fe5b141561275b57612705838560000151612a95565b60038460200151600581111561276d57fe5b141561278457612705838560000151600302612a95565b60048460200151600581111561279657fe5b14156127ad57612705838560000151600602612a95565b6005846020015160058111156127bf57fe5b14156127d357612705838560000151612b0e565b60405160e560020a62461bcd02815260040161233590613a77565b600061281362015180612807848663ffffffff612b3516565b9063ffffffff612b4a16565b6040517f08c8e60700000000000000000000000000000000000000000000000000000000815273__APFloatMath___________________________916308c8e60791612866919061016890600401613a5c565b60206040518083038186803b15801561287e57600080fd5b505af4158015612892573d6000803e3d6000fd5b505050506040513d601f19601f820116820180604052506126a29190810190613559565b60006128cf62015180612807848663ffffffff612b3516565b6040517f08c8e60700000000000000000000000000000000000000000000000000000000815273__APFloatMath___________________________916308c8e60791612866919061016d90600401613a5c565b600080600080600080600061293689612b6e565b97509550935061294588612b6e565b945092509050601f86141561295957601e95505b82601f141561296757601e92505b6000612979848863ffffffff6126ab16565b9050600061298d848863ffffffff6126ab16565b905060006129a1848863ffffffff6126ab16565b90506129cd8361114c6129bb85601e63ffffffff612b8c16565b61114c8561016863ffffffff612b8c16565b6040517f08c8e60700000000000000000000000000000000000000000000000000000000815273__APFloatMath___________________________916308c8e60791612a20919061016890600401613a5c565b60206040518083038186803b158015612a3857600080fd5b505af4158015612a4c573d6000803e3d6000fd5b505050506040513d601f19601f82011682018060405250612a709190810190613559565b9c9b505050505050505050505050565b6201518081028201828110156126a557600080fd5b6000808080612aa962015180875b04612bf1565b600c918801600019018281049390930195509106600101925090506000612ad08484612c89565b905080821115612ade578091505b62015180870662015180612af3868686612d0f565b0201945086851015612b0457600080fd5b5050505092915050565b6000808080612b206201518087612aa3565b9187019450925090506000612ad08484612c89565b600082821115612b4457600080fd5b50900390565b6000808211612b5857600080fd5b60008284811515612b6557fe5b04949350505050565b60008080612b7f6201518085612aa3565b9196909550909350915050565b6000821515612b9d575060006126a5565b82600019148015612bcd57507f800000000000000000000000000000000000000000000000000000000000000082145b15612bd757600080fd5b828202828482811515612be657fe5b05146126a257600080fd5b60008080836226496581018262023ab1600483020590506004600362023ab18302010590910390600062164b09610fa0600185010205905060046105b58202058303601f019250600061098f84605002811515612c4a57fe5b0590506000605061098f83020585039050600b820560301994909401606402929092018301996002600c90940290910392909201975095509350505050565b60008160011480612c9a5750816003145b80612ca55750816005145b80612cb05750816007145b80612cbb5750816008145b80612cc6575081600a145b80612cd1575081600c145b15612cde5750601f6126a5565b60028214612cee5750601e6126a5565b612cf783612d75565b612d0257601c612d05565b601d5b60ff169392505050565b60006107b2841015612d2057600080fd5b506225bad61960046064600c600d1986018190059687016113248101929092056003028390056112c09092016105b502929092059093016001199582029094039490940161016f029390930591909101030190565b600060048206158015612d8a57506064820615155b806126a557505061019090061590565b6040805161014081019091526000808252602082019081526020016000815260200160008152602001600081526020016000815260200160008152602001600081526020016000815260200160006009811115612df357fe5b905290565b6040805160a081019091526000808252602082019081526020016000815260200160008152602001600081525090565b604080516128008101825290815b612e3e612ea0565b815260200190600190039081612e365790505090565b610200604051908101604052806010906020820280388339509192915050565b604080516128008101825290815b612e8a612df8565b815260200190600190039081612e825790505090565b6040805160a0810190915260008082526020820190815260200160008152602001600081526020016000612df3565b60006126a28235613b94565b60006126a28235613b99565b60006126a28235613ba8565b60006126a28235613bb7565b60006126a28235613bc6565b60006126a28235613bd5565b60006126a28235613be4565b60006126a28235613bf3565b60006126a28235613c02565b60006126a28235613c11565b60006126a28235613b5d565b60006126a28251613b5d565b6000601f82018313612f7057600080fd5b8135612f83612f7e82613b35565b613b0e565b91508082526020830160208301858383011115612f9f57600080fd5b612faa838284613c4c565b50505092915050565b60006101408284031215612fc657600080fd5b612fd1610140613b0e565b90506000612fdf8484612f47565b8252506020612ff084848301612eff565b602083015250604061300484828501612f47565b604083015250606061301884828501612f47565b606083015250608061302c84828501612f47565b60808301525060a061304084828501612f47565b60a08301525060c061305484828501612f47565b60c08301525060e061306884828501612f47565b60e08301525061010061307d84828501612f47565b6101008301525061012061309384828501612ef3565b6101208301525092915050565b60006106a082840312156130b357600080fd5b6130be610520613b0e565b905060006130cc8484612ee7565b82525060206130dd84848301612ef3565b602083015250604082013567ffffffffffffffff8111156130fd57600080fd5b61310984828501612f5f565b604083015250606082013567ffffffffffffffff81111561312957600080fd5b61313584828501612f5f565b606083015250608061314984828501612f0b565b60808301525060a061315d84828501612edb565b60a08301525060c061317184828501612f17565b60c08301525060e061318584828501612eff565b60e08301525061010061319a84828501612f3b565b610100830152506101206131b084828501612eff565b610120830152506101406131c684828501612f17565b610140830152506101606131dc84828501612f47565b610160830152506101806131f284828501612f47565b610180830152506101a061320884828501612f47565b6101a0830152506101c061321e84828501612f47565b6101c0830152506101e061323484828501612f47565b6101e08301525061020061324a84828501612f47565b6102008301525061022061326084828501612f47565b6102208301525061024061327684828501612f47565b6102408301525061026061328c84828501612f47565b610260830152506102806132a284828501612f47565b610280830152506102a06132b884828501612f47565b6102a0830152506102c06132ce84828501612f47565b6102c0830152506102e06132e484828501612f47565b6102e0830152506103006132fa84828501612f47565b6103008301525061032061331084828501612f47565b6103208301525061034061332684828501612f47565b6103408301525061036061333c84828501612f47565b6103608301525061038061335284828501612f47565b610380830152506103a061336884828501612f47565b6103a0830152506103c061337e84828501612f47565b6103c0830152506103e061339484828501612f47565b6103e0830152506104006133aa84828501613467565b610400830152506104806133c084828501613467565b610420830152506105006133d684828501613467565b610440830152506105806133ec84828501613467565b6104608301525061060061340284828501612f47565b6104808301525061062061341884828501612f47565b6104a08301525061064061342e84828501612f47565b6104c08301525061066061344484828501612f47565b6104e08301525061068061345a84828501612f47565b6105008301525092915050565b60006080828403121561347957600080fd5b6134836080613b0e565b905060006134918484612f47565b82525060206134a284848301612f2f565b60208301525060406134b684828501612f17565b60408301525060606134ca84828501612ecf565b60608301525092915050565b600060a082840312156134e857600080fd5b6134f260a0613b0e565b905060006135008484612f47565b825250602061351184848301612f23565b602083015250604061352584828501612eff565b604083015250606061353984828501612f23565b606083015250608061354d84828501612f23565b60808301525092915050565b60006020828403121561356b57600080fd5b60006114db8484612f53565b60006020828403121561358957600080fd5b813567ffffffffffffffff8111156135a057600080fd5b6114db848285016130a0565b60008060008061022085870312156135c357600080fd5b843567ffffffffffffffff8111156135da57600080fd5b6135e6878288016130a0565b94505060206135f787828801612fb3565b935050610160613609878288016134d6565b92505061020061361b87828801612f47565b91505092959194509250565b6000806000610180848603121561363d57600080fd5b833567ffffffffffffffff81111561365457600080fd5b613660868287016130a0565b935050602061367186828701612fb3565b92505061016061368386828701612f47565b9150509250925092565b6000806000606084860312156136a257600080fd5b833567ffffffffffffffff8111156136b957600080fd5b6136c5868287016130a0565b93505060206136d686828701612f47565b925050604061368386828701612f47565b6136f081613b60565b6136f982613b5d565b60005b828110156137295761370f8583516138b1565b61371882613b66565b60a0959095019491506001016136fc565b5050505050565b61373981613b60565b61374282613b5d565b60005b82811015613729576137588583516139d5565b61376182613b66565b60a095909501949150600101613745565b61377b81613c20565b82525050565b61377b81613c2b565b61377b81613c36565b61377b81613b5d565b61377b81613c41565b601d81527f556e646566696e65642049505320706172616d6574657220666f722070000000602082015260400190565b602281527f436f6e7472616374526f6c6520617474726962757465206e6f7420646566696e60208201527f6564000000000000000000000000000000000000000000000000000000000000604082015260600190565b601681527f4d41585f4359434c455f53495a45207265616368656400000000000000000000602082015260400190565b602681527f6461746554696d65456e642068617320746f206265203e3d206461746554696d60208201527f65426567696e0000000000000000000000000000000000000000000000000000604082015260600190565b805160a08301906138c28482613793565b5060208201516138d5602085018261378a565b5060408201516138e86040850182613781565b5060608201516138fb6060850182613793565b50608082015161390e6080850182613793565b50505050565b80516101408301906139268482613793565b5060208201516139396020850182613781565b50604082015161394c6040850182613793565b50606082015161395f6060850182613793565b5060808201516139726080850182613793565b5060a082015161398560a0850182613793565b5060c082015161399860c0850182613793565b5060e08201516139ab60e0850182613793565b506101008201516139c0610100850182613793565b5061012082015161390e610120850182613772565b805160a08301906139e68482613793565b5060208201516139f9602085018261378a565b506040820151613a0c6040850182613781565b506060820151613a1f606085018261378a565b50608082015161390e608085018261378a565b61280081016126a58284613730565b60408101613a4f8285613793565b6108ed6020830184613793565b60408101613a6a8285613793565b6108ed602083018461379c565b602080825281016126a5816137a5565b602080825281016126a5816137d5565b602080825281016126a58161382b565b602080825281016126a58161385b565b61014081016126a58284613914565b6129408101613ad58285613914565b6108ed6101408301846136e7565b6101e08101613af28285613914565b6108ed6101408301846138b1565b602081016126a58284613793565b60405181810167ffffffffffffffff81118282101715613b2d57600080fd5b604052919050565b600067ffffffffffffffff821115613b4c57600080fd5b506020601f91909101601f19160190565b90565b50604090565b60200190565b6000600a8210613b7857fe5b5090565b600060048210613b7857fe5b600060158210613b7857fe5b151590565b600060098210613b7857600080fd5b600060038210613b7857600080fd5b6000600a8210613b7857600080fd5b600060048210613b7857600080fd5b600060078210613b7857600080fd5b600060028210613b7857600080fd5b600060158210613b7857600080fd5b600060068210613b7857600080fd5b600060088210613b7857600080fd5b60006126a582613b6c565b60006126a582613b7c565b60006126a582613b88565b60006126a582613b5d565b8281833750600091015256fea265627a7a72305820df9cf0b1ac7031cb22d9e5e9ef08b83a54e6d8c5a33c8112b2e13665c98b02436c6578706572696d656e74616cf50037",
  "source": "pragma solidity ^0.5.2;\npragma experimental ABIEncoderV2;\n\nimport \"openzeppelin-solidity/contracts/drafts/SignedSafeMath.sol\";\n\nimport \"../APCore/APCore.sol\";\nimport \"../APCore/APFloatMath.sol\";\nimport \"./IPAMEngine.sol\";\n\n\n/**\n * @title the stateless component for a PAM contract\n * implements the STF and POF of the Actus standard for a PAM contract \n * @dev all numbers except unix timestamp are represented as multiple of 10 ** 18\n * inputs have to be multiplied by 10 ** 18, outputs have to divided by 10 ** 18\n */\ncontract PAMEngine is APCore, IPAMEngine {\n\n\tusing SignedSafeMath for int;\n\tusing APFloatMath for int;\n\n\t\t\t\n\t/**\n\t * get the initial contract state\n\t * @param contractTerms terms of the contract\n\t * @return initial contract state\n\t */\n\tfunction computeInitialState(ContractTerms memory contractTerms) \n\t\tpublic \n\t\tpure \n\t\treturns (ContractState memory)\n\t{\n\t\tContractState memory contractState = initializeContractState(contractTerms);\n\n\t\treturn (contractState);\n\t}\n\n\t/**\n\t * computes pending events based on the contract state and \n\t * applys them to the contract state and returns the evaluated events and the new contract state\n\t * @dev evaluates all events between the scheduled time of the last executed event and now \n\t * (such that Led < Tev && now >= Tev)\n\t * @param contractTerms terms of the contract\n\t * @param contractState current state of the contract\n\t * @param timestamp current timestamp\n\t * @return the new contract state and the evaluated events\n\t */\n\tfunction computeNextState(\n\t\tContractTerms memory contractTerms, \n\t\tContractState memory contractState, \n\t\tuint256 timestamp\n\t)\n\t\tpublic\n\t\tpure\n\t\treturns (ContractState memory, ContractEvent[MAX_EVENT_SCHEDULE_SIZE] memory)\n\t{\n\t\tContractState memory nextContractState = contractState;\n\t\tContractEvent[MAX_EVENT_SCHEDULE_SIZE] memory nextContractEvents;\n\t\t\n\t\tProtoEvent[MAX_EVENT_SCHEDULE_SIZE] memory pendingProtoEventSchedule = computeProtoEventScheduleSegment(\n\t\t\tcontractTerms,\n\t\t\tcontractState.lastEventTime,\n\t\t\ttimestamp\n\t\t);\n\n\t\tfor (uint8 index = 0; index < MAX_EVENT_SCHEDULE_SIZE; index++) {\n\t\t\tif (pendingProtoEventSchedule[index].scheduledTime == 0) { continue; }\n\t\t\t\n\t\t\tnextContractEvents[index] = ContractEvent(\n\t\t\t\tpendingProtoEventSchedule[index].scheduledTime, \n\t\t\t\tpendingProtoEventSchedule[index].eventType, \n\t\t\t\tpendingProtoEventSchedule[index].currency,\n\t\t\t\tpayoffFunction(\n\t\t\t\t\tpendingProtoEventSchedule[index].scheduledTime, \n\t\t\t\t\tcontractTerms, \n\t\t\t\t\tcontractState, \n\t\t\t\t\tpendingProtoEventSchedule[index].eventType\n\t\t\t\t),\n\t\t\t\ttimestamp\n\t\t\t);\n\n\t\t\tnextContractState = stateTransitionFunction(\n\t\t\t\tpendingProtoEventSchedule[index].scheduledTime, \n\t\t\t\tcontractTerms, \n\t\t\t\tcontractState, \n\t\t\t\tpendingProtoEventSchedule[index].eventType\n\t\t\t);   \n\t\t}\n\n\t\treturn (nextContractState, nextContractEvents);\n\t}\n\n\t/**\n\t * applys a prototype event to the current state of a contract and \n\t * returns the contrat event and the new contract state\n\t * @param contractTerms terms of the contract\n\t * @param contractState current state of the contract\n\t * @param protoEvent prototype event to be evaluated and applied to the contract state\n\t * @param timestamp current timestamp\n\t * @return the new contract state and the evaluated event\n\t */\n\tfunction computeNextStateForProtoEvent(\n\t\tContractTerms memory contractTerms, \n\t\tContractState memory contractState, \n\t\tProtoEvent memory protoEvent,\n\t\tuint256 timestamp\n\t)\n\t\tpublic\n\t\tpure\n\t\treturns (ContractState memory, ContractEvent memory)\n\t{\n\t\tContractEvent memory contractEvent = ContractEvent(\n\t\t\tprotoEvent.scheduledTime,\n\t\t\tprotoEvent.eventType,\n\t\t\tprotoEvent.currency,\n\t\t\tpayoffFunction(timestamp, contractTerms, contractState, protoEvent.pofType), // solium-disable-line \n\t\t\ttimestamp\n\t\t);\n\n\t\tContractState memory nextContractState = stateTransitionFunction(\n\t\t\ttimestamp,\n\t\t\tcontractTerms, \n\t\t\tcontractState,\n\t\t\tprotoEvent.stfType\n\t\t);\n\n\t\treturn (nextContractState, contractEvent);\n\t}\n\n\t/**\n\t * computes a schedule segment of contract events based on the contract terms and the specified period\n\t * @param contractTerms terms of the contract\n\t * @param segmentStart start timestamp of the segment\n\t * @param segmentEnd end timestamp of the segement\n\t * @return event schedule segment\n\t */\n\tfunction computeProtoEventScheduleSegment(\n\t\tContractTerms memory contractTerms, \n\t\tuint256 segmentStart,\n\t\tuint256 segmentEnd\n\t)\n\t\tpublic \n\t\tpure \n\t\treturns (ProtoEvent[MAX_EVENT_SCHEDULE_SIZE] memory)\n\t{\n\t\tProtoEvent[MAX_EVENT_SCHEDULE_SIZE] memory protoEventSchedule;\n\t\tuint16 index = 0;\n\t\n\t\t// initial exchange\n\t\tif (isInPeriod(contractTerms.initialExchangeDate, segmentStart, segmentEnd)) {\n\t\t\tprotoEventSchedule[index] = ProtoEvent(\n\t\t\t\tcontractTerms.initialExchangeDate, \n\t\t\t\tEventType.IED, \n\t\t\t\tCurrency.ETH, \n\t\t\t\tEventType.IED, \n\t\t\t\tEventType.IED\n\t\t\t);\n\t\t\tindex++;\n\t\t}\n\n\t\t// purchase\n\t\tif (contractTerms.purchaseDate != 0) {\n\t\t\tif (isInPeriod(contractTerms.purchaseDate, segmentStart, segmentEnd)) {\n\t\t\t\tprotoEventSchedule[index] = ProtoEvent(\n\t\t\t\t\tcontractTerms.purchaseDate, \n\t\t\t\t\tEventType.PRD, \n\t\t\t\t\tCurrency.ETH, \n\t\t\t\t\tEventType.PRD, \n\t\t\t\t\tEventType.PRD\n\t\t\t\t);\n\t\t\t\tindex++; \n\t\t\t}\n\t\t}\n\n\t\t// interest payment related (e.g. for reoccurring interest payments)\n\t\tif (contractTerms.nominalInterestRate != 0 && (\n\t\t\tcontractTerms.cycleOfInterestPayment.isSet == true && contractTerms.cycleAnchorDateOfInterestPayment != 0)\n\t\t) {\n\t\t\tuint256[MAX_CYCLE_SIZE] memory interestPaymentSchedule = computeDatesFromCycleSegment(\n\t\t\t\tcontractTerms.cycleAnchorDateOfInterestPayment, \n\t\t\t\tcontractTerms.maturityDate,\n\t\t\t\tcontractTerms.cycleOfInterestPayment,\n\t\t\t\tcontractTerms.endOfMonthConvention,\n\t\t\t\ttrue,\n\t\t\t\tsegmentStart,\n\t\t\t\tsegmentEnd\n\t\t\t);\n\t\t\tfor (uint8 i = 0; i < MAX_CYCLE_SIZE; i++) {\n\t\t\t\tif (interestPaymentSchedule[i] != 0) {\n\t\t\t\t\tif (isInPeriod(interestPaymentSchedule[i], segmentStart, segmentEnd) == false) { continue; }\n\t\t\t\t\tif (contractTerms.capitalizationEndDate != 0 && interestPaymentSchedule[i] <= contractTerms.capitalizationEndDate) {\n\t\t\t\t\t\tprotoEventSchedule[index] = ProtoEvent(\n\t\t\t\t\t\t\tinterestPaymentSchedule[i], \n\t\t\t\t\t\t\tEventType.IPCI, \n\t\t\t\t\t\t\tCurrency.ETH, \n\t\t\t\t\t\t\tEventType.IPCI, \n\t\t\t\t\t\t\tEventType.IPCI\n\t\t\t\t\t\t);\n\t\t\t\t\t\tindex++;\n\t\t\t\t\t} else {\n\t\t\t\t\t\tprotoEventSchedule[index] = ProtoEvent(\n\t\t\t\t\t\t\tinterestPaymentSchedule[i], \n\t\t\t\t\t\t\tEventType.IP, \n\t\t\t\t\t\t\tCurrency.ETH, \n\t\t\t\t\t\t\tEventType.IP, \n\t\t\t\t\t\t\tEventType.IP\n\t\t\t\t\t\t);\n\t\t\t\t\t\tindex++;\n\t\t\t\t\t}\n\t\t\t\t} else { break; }\n\t\t\t}\n\t\t} \n\t\t// capitalization end date\n\t\telse if (contractTerms.capitalizationEndDate != 0) { \n\t\t\tif (isInPeriod(contractTerms.capitalizationEndDate, segmentStart, segmentEnd)) {\n\t\t\t\tprotoEventSchedule[index] = ProtoEvent(\n\t\t\t\t\tcontractTerms.capitalizationEndDate, \n\t\t\t\t\tEventType.IPCI, \n\t\t\t\t\tCurrency.ETH, \n\t\t\t\t\tEventType.IPCI, \n\t\t\t\t\tEventType.IPCI\n\t\t\t\t);\n\t\t\t\tindex++;\n\t\t\t}\n\t\t}\n\n\t\t// rate reset\n\t\tif (contractTerms.cycleOfRateReset.isSet == true && contractTerms.cycleAnchorDateOfRateReset != 0) {\n\t\t\tuint256[MAX_CYCLE_SIZE] memory rateResetSchedule = computeDatesFromCycleSegment(\n\t\t\t\tcontractTerms.cycleAnchorDateOfRateReset, \n\t\t\t\tcontractTerms.maturityDate,\n\t\t\t\tcontractTerms.cycleOfRateReset,\n\t\t\t\tcontractTerms.endOfMonthConvention,\n\t\t\t\tfalse,\n\t\t\t\tsegmentStart,\n\t\t\t\tsegmentEnd\n\t\t\t);\n\t\t\tfor (uint8 i = 0; i < MAX_CYCLE_SIZE; i++) {\n\t\t\t\tif (rateResetSchedule[i] != 0) {\n\t\t\t\t\tif (isInPeriod(rateResetSchedule[i], segmentStart, segmentEnd) == false) { continue; }\n\t\t\t\t\tprotoEventSchedule[index] = ProtoEvent(\n\t\t\t\t\t\trateResetSchedule[i], \n\t\t\t\t\t\tEventType.RR, \n\t\t\t\t\t\tCurrency.ETH, \n\t\t\t\t\t\tEventType.RR, \n\t\t\t\t\t\tEventType.RR\n\t\t\t\t\t);\n\t\t\t\t\tindex++;\n\t\t\t\t} else { break; }\n\t\t\t}\n\t\t\t// ... nextRateReset\n\t\t}\n\n\t\t// fees\n\t\tif (contractTerms.cycleOfFee.isSet == true && contractTerms.cycleAnchorDateOfFee != 0) {\n\t\t\tuint256[MAX_CYCLE_SIZE] memory feeSchedule = computeDatesFromCycleSegment(\n\t\t\t\tcontractTerms.cycleAnchorDateOfFee, \n\t\t\t\tcontractTerms.maturityDate,\n\t\t\t\tcontractTerms.cycleOfFee,\n\t\t\t\tcontractTerms.endOfMonthConvention,\n\t\t\t\ttrue,\n\t\t\t\tsegmentStart,\n\t\t\t\tsegmentEnd\n\t\t\t);\n\t\t\tfor (uint8 i = 0; i < MAX_CYCLE_SIZE; i++) {\n\t\t\t\tif (feeSchedule[i] != 0) {\n\t\t\t\t\tif (isInPeriod(feeSchedule[i], segmentStart, segmentEnd) == false) { continue; }\n\t\t\t\t\tprotoEventSchedule[index] = ProtoEvent(\n\t\t\t\t\t\tfeeSchedule[i], \n\t\t\t\t\t\tEventType.FP, \n\t\t\t\t\t\tCurrency.ETH, \n\t\t\t\t\t\tEventType.FP, \n\t\t\t\t\t\tEventType.FP\n\t\t\t\t\t);\n\t\t\t\t\tindex++;\n\t\t\t\t} else { break; }\n\t\t\t}\n\t\t}\n\n\t\t// scaling\n\t\tif ((contractTerms.scalingEffect != ScalingEffect._000 || contractTerms.scalingEffect != ScalingEffect._00M)\n\t\t\t&& contractTerms.cycleAnchorDateOfScalingIndex != 0\n\t\t) {\n\t\t\tuint256[MAX_CYCLE_SIZE] memory scalingSchedule = computeDatesFromCycleSegment(\n\t\t\t\tcontractTerms.cycleAnchorDateOfScalingIndex, \n\t\t\t\tcontractTerms.maturityDate,\n\t\t\t\tcontractTerms.cycleOfScalingIndex,\n\t\t\t\tcontractTerms.endOfMonthConvention,\n\t\t\t\ttrue,\n\t\t\t\tsegmentStart,\n\t\t\t\tsegmentEnd\n\t\t\t);\n\t\t\tfor (uint8 i = 0; i < MAX_CYCLE_SIZE; i++) {\n\t\t\t\tif (scalingSchedule[i] != 0) {\n\t\t\t\t\tif (isInPeriod(scalingSchedule[i], segmentStart, segmentEnd) == false) { continue; }\n\t\t\t\t\tprotoEventSchedule[index] = ProtoEvent(\n\t\t\t\t\t\tscalingSchedule[i], \n\t\t\t\t\t\tEventType.SC, \n\t\t\t\t\t\tCurrency.ETH, \n\t\t\t\t\t\tEventType.SC, \n\t\t\t\t\t\tEventType.SC\n\t\t\t\t\t);\n\t\t\t\t\tindex++;\n\t\t\t\t} else { break; }\n\t\t\t}\n\t\t}\n\n\t\t// termination\n\t\tif (contractTerms.terminationDate != 0) {\n\t\t\tif (isInPeriod(contractTerms.terminationDate, segmentStart, segmentEnd)) {\n\t\t\t\tprotoEventSchedule[index] = ProtoEvent(\n\t\t\t\t\tcontractTerms.terminationDate, \n\t\t\t\t\tEventType.TD, \n\t\t\t\t\tCurrency.ETH, \n\t\t\t\t\tEventType.TD, \n\t\t\t\t\tEventType.TD\n\t\t\t\t);\n\t\t\t\tindex++;\n\t\t\t}\n\t\t}\n\n\t\t// principal redemption\n\t\tif (isInPeriod(contractTerms.maturityDate, segmentStart, segmentEnd)) {\n\t\t\tprotoEventSchedule[index] = ProtoEvent(\n\t\t\t\tcontractTerms.maturityDate, \n\t\t\t\tEventType.PR, \n\t\t\t\tCurrency.ETH, \n\t\t\t\tEventType.PR, \n\t\t\t\tEventType.PR\n\t\t\t);\n\t\t\tindex++; \n\t\t}\n\n\t\tsortProtoEventSchedule(protoEventSchedule, int(0), int(protoEventSchedule.length - 1));\n\n\t\treturn protoEventSchedule;\n\t}\n\n\t/**\n\t * initialize contract state space based on the contract terms\n\t * @dev see initStateSpace()\n\t * @param contractTerms terms of the contract\n\t * @return initial contract state\n\t */\n\tfunction initializeContractState(ContractTerms memory contractTerms) \n\t\tprivate \n\t\tpure\n\t\treturns (ContractState memory)\n\t{ \n\t\tContractState memory contractState;\n\n\t\tcontractState.contractStatus = ContractStatus.PF;\n\t\tcontractState.nominalScalingMultiplier = int256(1 * 10 ** PRECISION);\n\t\tcontractState.interestScalingMultiplier = int256(1 * 10 ** PRECISION);\n\t\tcontractState.contractRoleSign = contractTerms.contractRole;\n\t\tcontractState.lastEventTime = contractTerms.statusDate;\n\t\tcontractState.nominalValue = contractTerms.notionalPrincipal;\n\t\tcontractState.nominalRate = contractTerms.nominalInterestRate;\n\t\tcontractState.nominalAccrued = contractTerms.accruedInterest;\n\t\tcontractState.feeAccrued = contractTerms.feeAccrued;\n\t\t\n\t\treturn contractState;\n\t}\n\n\t/**\n\t * computes the next contract state based on the contract terms, state and the event type\n\t * @param timestamp current timestamp\n\t * @param contractTerms terms of the contract\n\t * @param contractState current state of the contract\n\t * @param eventType event type\n\t * @return next contract state\n\t */\n\tfunction stateTransitionFunction(\n\t\tuint256 timestamp, \n\t\tContractTerms memory contractTerms, \n\t\tContractState memory contractState, \n\t\tEventType eventType\n\t) \n\t\tprivate \n\t\tpure\n\t\treturns (ContractState memory) \n\t{\n\t\tif (eventType == EventType.AD) { \n\t\t\tcontractState.timeFromLastEvent = yearFraction(contractState.lastEventTime, timestamp, contractTerms.dayCountConvention);\n\t\t\tcontractState.nominalAccrued = contractState.nominalAccrued.add(contractState.nominalRate.floatMult(contractState.nominalValue).floatMult(contractState.timeFromLastEvent));\n\t\t\tcontractState.feeAccrued = contractState.feeAccrued.add(contractTerms.feeRate.floatMult(contractState.nominalValue).floatMult(contractState.timeFromLastEvent));\n\t\t\tcontractState.lastEventTime = timestamp;\n\t\t\treturn contractState;\n\t\t}\n\t\tif (eventType == EventType.CD) { \n\t\t\tcontractState.timeFromLastEvent = yearFraction(contractState.lastEventTime, timestamp, contractTerms.dayCountConvention);\n\t\t\tcontractState.nominalAccrued = contractState.nominalAccrued.add(contractState.nominalRate.floatMult(contractState.nominalValue).floatMult(contractState.timeFromLastEvent));\n\t\t\tcontractState.feeAccrued = contractState.feeAccrued.add(contractTerms.feeRate.floatMult(contractState.nominalValue).floatMult(contractState.timeFromLastEvent));\n\t\t\tcontractState.contractStatus = ContractStatus.DF;\n\t\t\tcontractState.lastEventTime = timestamp;\n\t\t\treturn contractState;\n\t\t}\n\t\tif (eventType == EventType.FP) { \n\t\t\tcontractState.timeFromLastEvent = yearFraction(contractState.lastEventTime, timestamp, contractTerms.dayCountConvention);\n\t\t\tcontractState.nominalAccrued = contractState.nominalAccrued.add(contractState.nominalRate.floatMult(contractState.nominalValue).floatMult(contractState.timeFromLastEvent));\n\t\t\tcontractState.feeAccrued = 0;\n\t\t\tcontractState.lastEventTime = timestamp;\n\t\t\treturn contractState;\n\t\t}\n\t\tif (eventType == EventType.IED) { \n\t\t\tcontractState.timeFromLastEvent = yearFraction(contractState.lastEventTime, timestamp, contractTerms.dayCountConvention);\n\t\t\tcontractState.nominalValue = roleSign(contractTerms.contractRole) * contractTerms.notionalPrincipal;\n\t\t\tcontractState.nominalRate = contractTerms.nominalInterestRate;\n\t\t\tcontractState.lastEventTime = timestamp;\n\n\t\t\tif (contractTerms.cycleAnchorDateOfInterestPayment != 0 && \n\t\t\t\tcontractTerms.cycleAnchorDateOfInterestPayment < contractTerms.initialExchangeDate\n\t\t\t) {\n\t\t\t\tcontractState.nominalAccrued = contractState.nominalRate\n\t\t\t\t.floatMult(contractState.nominalValue)\n\t\t\t\t.floatMult(yearFraction(contractTerms.cycleAnchorDateOfInterestPayment, timestamp, contractTerms.dayCountConvention));\n\t\t\t}   \n\t\t\treturn contractState;\n\t\t}\n\t\tif (eventType == EventType.IPCI) { \n\t\t\tcontractState.timeFromLastEvent = yearFraction(contractState.lastEventTime, timestamp, contractTerms.dayCountConvention);\n\t\t\tcontractState.nominalAccrued = contractState.nominalAccrued.add(contractState.nominalAccrued.add(contractState.nominalRate.floatMult(contractState.nominalValue).floatMult(contractState.timeFromLastEvent)));\n\t\t\tcontractState.nominalAccrued = 0;\n\t\t\tcontractState.feeAccrued = contractState.feeAccrued.add(contractTerms.feeRate.floatMult(contractState.nominalValue).floatMult(contractState.timeFromLastEvent));\n\t\t\tcontractState.lastEventTime = timestamp;\n\t\t\treturn contractState;\n\t\t}\n\t\tif (eventType == EventType.IP) { \n\t\t\tcontractState.timeFromLastEvent = yearFraction(contractState.lastEventTime, timestamp, contractTerms.dayCountConvention);\n\t\t\tcontractState.nominalAccrued = 0;\n\t\t\tcontractState.feeAccrued = contractState.feeAccrued.add(contractTerms.feeRate.floatMult(contractState.nominalValue).floatMult(contractState.timeFromLastEvent));\n\t\t\tcontractState.lastEventTime = timestamp;\n\t\t\treturn contractState;\n\t\t}\n\t\tif (eventType == EventType.PP) {\n\t\t\tcontractState.timeFromLastEvent = yearFraction(contractState.lastEventTime, timestamp, contractTerms.dayCountConvention);\n\t\t\tcontractState.nominalAccrued = contractState.nominalAccrued.add(contractState.nominalRate.floatMult(contractState.nominalValue).floatMult(contractState.timeFromLastEvent));\n\t\t\tcontractState.feeAccrued = contractState.feeAccrued.add(contractTerms.feeRate.floatMult(contractState.nominalValue).floatMult(contractState.timeFromLastEvent));\n\t\t\tcontractState.nominalValue -= 0; // riskFactor(contractTerms.objectCodeOfPrepaymentModel, timestamp, contractState, contractTerms) * contractState.nominalValue;\n\t\t\tcontractState.lastEventTime = timestamp;\n\t\t\treturn contractState;\n\t\t}\n\t\tif (eventType == EventType.PRD) {\n\t\t\tcontractState.timeFromLastEvent = yearFraction(contractState.lastEventTime, timestamp, contractTerms.dayCountConvention);\n\t\t\tcontractState.nominalAccrued = contractState.nominalAccrued.add(contractState.nominalRate.floatMult(contractState.nominalValue).floatMult(contractState.timeFromLastEvent));\n\t\t\tcontractState.feeAccrued = contractState.feeAccrued.add(contractTerms.feeRate.floatMult(contractState.nominalValue).floatMult(contractState.timeFromLastEvent));\n\t\t\tcontractState.lastEventTime = timestamp;\n\t\t\treturn contractState;\n\t\t}\n\t\tif (eventType == EventType.PR) {\n\t\t\tcontractState.timeFromLastEvent = yearFraction(contractState.lastEventTime, timestamp, contractTerms.dayCountConvention);\n\t\t\tcontractState.nominalValue = 0;\n\t\t\tcontractState.nominalRate = 0;\n\t\t\tcontractState.nominalAccrued = 0;\n\t\t\tcontractState.feeAccrued = 0;\n\t\t\tcontractState.lastEventTime = timestamp;\n\t\t\treturn contractState;\n\t\t}\n\t\tif (eventType == EventType.PY) {\n\t\t\tcontractState.timeFromLastEvent = yearFraction(contractState.lastEventTime, timestamp, contractTerms.dayCountConvention);\n\t\t\tcontractState.nominalAccrued = contractState.nominalAccrued.add(contractState.nominalRate.floatMult(contractState.nominalValue).floatMult(contractState.timeFromLastEvent));\n\t\t\tcontractState.feeAccrued = contractState.feeAccrued.add(contractTerms.feeRate.floatMult(contractState.nominalValue).floatMult(contractState.timeFromLastEvent));\n\t\t\tcontractState.lastEventTime = timestamp;\n\t\t\treturn contractState;\n\t\t}\n\t\tif (eventType == EventType.RRY) {\n\t\t\tcontractState.timeFromLastEvent = yearFraction(contractState.lastEventTime, timestamp, contractTerms.dayCountConvention);\n\t\t\tcontractState.nominalAccrued = contractState.nominalAccrued.add(contractState.nominalRate.floatMult(contractState.nominalValue).floatMult(contractState.timeFromLastEvent));\n\t\t\tcontractState.feeAccrued = contractState.feeAccrued.add(contractTerms.feeRate.floatMult(contractState.nominalValue).floatMult(contractState.timeFromLastEvent));\n\t\t\tcontractState.nominalRate = contractTerms.nextResetRate;\n\t\t\tcontractState.lastEventTime = timestamp;\n\t\t\treturn contractState;\n\t\t}\n\t\tif (eventType == EventType.RR) {\n\t\t\t// int256 rate = //riskFactor(contractTerms.marketObjectCodeOfRateReset, timestamp, contractState, contractTerms)\n\t\t\t// \t* contractTerms.rateMultiplier + contractTerms.rateSpread;\n\t\t\tint256 rate = contractTerms.rateSpread;\n\t\t\tint256 deltaRate = rate.sub(contractState.nominalRate);\n\t\t\t\n\t\t\t // apply period cap/floor\n\t\t\tif ((contractTerms.lifeCap < deltaRate) && (contractTerms.lifeCap < ((-1) * contractTerms.periodFloor))) {\n\t\t\t\tdeltaRate = contractTerms.lifeCap;\n\t\t\t} else if (deltaRate < ((-1) * contractTerms.periodFloor)) {\n\t\t\t\tdeltaRate = ((-1) * contractTerms.periodFloor);\n\t\t\t}\n\t\t\trate = contractState.nominalRate.add(deltaRate);\n\n\t\t\t// apply life cap/floor\n\t\t\tif (contractTerms.lifeCap < rate && contractTerms.lifeCap < contractTerms.lifeFloor) {\n\t\t\t\trate = contractTerms.lifeCap;\n\t\t\t} else if (rate < contractTerms.lifeFloor) {\n\t\t\t\trate = contractTerms.lifeFloor;\n\t\t\t}\n\n\t\t\tcontractState.timeFromLastEvent = yearFraction(contractState.lastEventTime, timestamp, contractTerms.dayCountConvention);\n\t\t\tcontractState.nominalAccrued = contractState.nominalAccrued.add(contractState.nominalRate.floatMult(contractState.nominalValue).floatMult(contractState.timeFromLastEvent));\n\t\t\tcontractState.nominalRate = rate;\n\t\t\tcontractState.lastEventTime = timestamp;\n\t\t\treturn contractState;\n\t\t}\n\t\tif (eventType == EventType.SC) {\n\t\t\tcontractState.timeFromLastEvent = yearFraction(contractState.lastEventTime, timestamp, contractTerms.dayCountConvention);\n\t\t\tcontractState.nominalAccrued = contractState.nominalAccrued.add(contractState.nominalRate.floatMult(contractState.nominalValue).floatMult(contractState.timeFromLastEvent));\n\t\t\tcontractState.feeAccrued = contractState.feeAccrued.add(contractTerms.feeRate.floatMult(contractState.nominalValue).floatMult(contractState.timeFromLastEvent));\n\t\t\t\n\t\t\tif ((contractTerms.scalingEffect == ScalingEffect.I00) \n\t\t\t\t|| (contractTerms.scalingEffect == ScalingEffect.IN0)\n\t\t\t\t|| (contractTerms.scalingEffect == ScalingEffect.I0M)\n\t\t\t\t|| (contractTerms.scalingEffect == ScalingEffect.INM)\n\t\t\t) {\n\t\t\t\tcontractState.interestScalingMultiplier = 0; // riskFactor(contractTerms.marketObjectCodeOfScalingIndex, timestamp, contractState, contractTerms)\n\t\t\t}\n\t\t\tif ((contractTerms.scalingEffect == ScalingEffect._0N0) \n\t\t\t\t|| (contractTerms.scalingEffect == ScalingEffect._0NM)\n\t\t\t\t|| (contractTerms.scalingEffect == ScalingEffect.IN0)\n\t\t\t\t|| (contractTerms.scalingEffect == ScalingEffect.INM)\n\t\t\t) {\n\t\t\t\tcontractState.nominalScalingMultiplier = 0; // riskFactor(contractTerms.marketObjectCodeOfScalingIndex, timestamp, contractState, contractTerms)\n\t\t\t}\n\n\t\t\tcontractState.lastEventTime = timestamp;\n\t\t\treturn contractState;\n\t\t}\n\t\tif (eventType == EventType.TD) {\n\t\t\tcontractState.timeFromLastEvent = yearFraction(contractState.lastEventTime, timestamp, contractTerms.dayCountConvention);\n\t\t\tcontractState.nominalValue = 0;\n\t\t\tcontractState.nominalRate = 0;\n\t\t\tcontractState.nominalAccrued = 0;\n\t\t\tcontractState.feeAccrued = 0;\n\t\t\tcontractState.lastEventTime = timestamp;\n\t\t\treturn contractState;\n\t\t}\n\t}\n\n\t/**\n\t * calculates the payoff for the current time based on the contract terms, \n\t * state and the event type\n\t * @param timestamp current timestamp\n\t * @param contractTerms terms of the contract\n\t * @param contractState current state of the contract\n\t * @param eventType event type\n\t * @return payoff\n\t */\n\tfunction payoffFunction(\n\t\tuint256 timestamp, \n\t\tContractTerms memory contractTerms, \n\t\tContractState memory contractState, \n\t\tEventType eventType\n\t)\n\t\tprivate\n\t\tpure\n\t\treturns (int256 payoff)\n\t{\n\t\tif (eventType == EventType.AD) { return 0; } \n\t\tif (eventType == EventType.CD) { return 0; }\n\t\tif (eventType == EventType.IPCI) { return 0; }\n\t\tif (eventType == EventType.RRY) { return 0; }\n\t\tif (eventType == EventType.RR) { return 0; }\n\t\tif (eventType == EventType.SC) { return 0; }\n\t\tif (eventType == EventType.FP) { \n\t\t\tif (contractTerms.feeBasis == FeeBasis.A) {\n\t\t\t\treturn (\n\t\t\t\t\tperformanceIndicator(contractState.contractStatus) \n\t\t\t\t\t* roleSign(contractTerms.contractRole) \n\t\t\t\t\t* contractTerms.feeRate\n\t\t\t\t); \n\t\t\t} else {\n\t\t\t\treturn (\n\t\t\t\t\tperformanceIndicator(contractState.contractStatus) \n\t\t\t\t\t* contractState.feeAccrued\n\t\t\t\t\t\t.add(\n\t\t\t\t\t\t\tyearFraction(contractState.lastEventTime, timestamp, contractTerms.dayCountConvention) \n\t\t\t\t\t\t\t.floatMult(contractTerms.feeRate)\n\t\t\t\t\t\t\t.floatMult(contractState.nominalValue)\n\t\t\t\t\t\t)\n\t\t\t\t); \n\t\t\t}\n\t\t}\n\t\tif (eventType == EventType.IED) { \n\t\t\treturn (\n\t\t\t\tperformanceIndicator(contractState.contractStatus) \n\t\t\t\t* roleSign(contractTerms.contractRole) \n\t\t\t\t* (-1) \n\t\t\t\t* contractTerms.notionalPrincipal\n\t\t\t\t\t.add(contractTerms.premiumDiscountAtIED)\n\t\t\t);\n\t\t}\n\t\tif (eventType == EventType.IP) { \n\t\t\treturn (\n\t\t\t\tperformanceIndicator(contractState.contractStatus) \n\t\t\t\t* contractState.interestScalingMultiplier\n\t\t\t\t\t.floatMult(\n\t\t\t\t\t\tcontractState.nominalAccrued \n\t\t\t\t\t\t.add(\n\t\t\t\t\t\t\tyearFraction(contractState.lastEventTime, timestamp, contractTerms.dayCountConvention)\n\t\t\t\t\t\t\t.floatMult(contractState.nominalRate)\n\t\t\t\t\t\t\t.floatMult(contractState.nominalValue)\n\t\t\t\t\t\t)\n\t\t\t\t\t)\n\t\t\t);\n\t\t}\n\t\tif (eventType == EventType.PP) { \n\t\t\treturn (\n\t\t\t\tperformanceIndicator(contractState.contractStatus) \n\t\t\t\t* roleSign(contractTerms.contractRole)\n\t\t\t\t* 0 // riskFactor(timestamp, contractState, contractTerms, contractTerms.objectCodeOfPrepaymentModel)\n\t\t\t\t* contractState.nominalValue\n\t\t\t);\n\t\t}\n\t\tif (eventType == EventType.PRD) { \n\t\t\treturn (\n\t\t\t\tperformanceIndicator(contractState.contractStatus) \n\t\t\t\t* roleSign(contractTerms.contractRole) \n\t\t\t\t* (-1) \n\t\t\t\t* contractTerms.priceAtPurchaseDate\n\t\t\t\t\t.add(contractState.nominalAccrued)\n\t\t\t\t\t.add(\n\t\t\t\t\t\tyearFraction(contractState.lastEventTime, timestamp, contractTerms.dayCountConvention)\n\t\t\t\t\t\t.floatMult(contractState.nominalRate)\n\t\t\t\t\t\t.floatMult(contractState.nominalValue)\n\t\t\t\t\t)\n\t\t\t);\n\t\t}\n\t\tif (eventType == EventType.PR) { \n\t\t\treturn (\n\t\t\t\tperformanceIndicator(contractState.contractStatus) \n\t\t\t\t* contractState.nominalScalingMultiplier\n\t\t\t\t\t.floatMult(contractState.nominalValue)\n\t\t\t);\n\t\t}\n\t\tif (eventType == EventType.PY) { \n\t\t\tif (contractTerms.penaltyType == PenaltyType.A) {\n\t\t\t\treturn (\n\t\t\t\t\tperformanceIndicator(contractState.contractStatus)\n\t\t\t\t\t* roleSign(contractTerms.contractRole)\n\t\t\t\t\t* contractTerms.penaltyRate\n\t\t\t\t);\n\t\t\t} else if (contractTerms.penaltyType == PenaltyType.N) {\n\t\t\t\treturn (\n\t\t\t\t\tperformanceIndicator(contractState.contractStatus)\n\t\t\t\t\t* roleSign(contractTerms.contractRole)\n\t\t\t\t\t* yearFraction(contractState.lastEventTime, timestamp, contractTerms.dayCountConvention)\n\t\t\t\t\t\t.floatMult(contractTerms.penaltyRate)\n\t\t\t\t\t\t.floatMult(contractState.nominalValue)\n\t\t\t\t);\n\t\t\t} else {\n\t\t\t\t// riskFactor(timestamp, contractState, contractTerms, contractTerms.marketObjectCodeOfRateReset);\n\t\t\t\tint256 risk = 0; \n\t\t\t\tint256 param = 0;\n\t\t\t\tif (contractState.nominalRate - risk > 0) { param = contractState.nominalRate - risk; }\n\t\t\t\treturn (\n\t\t\t\t\tperformanceIndicator(contractState.contractStatus)\n\t\t\t\t\t* roleSign(contractTerms.contractRole)\n\t\t\t\t\t* yearFraction(contractState.lastEventTime, timestamp, contractTerms.dayCountConvention)\n\t\t\t\t\t\t.floatMult(contractState.nominalValue)\n\t\t\t\t\t\t.floatMult(param)\n\t\t\t\t);\n\t\t\t}\n\t\t}\n\t\tif (eventType == EventType.TD) { \n\t\t\treturn (\n\t\t\t\tperformanceIndicator(contractState.contractStatus)\n\t\t\t\t* roleSign(contractTerms.contractRole)\n\t\t\t\t* contractTerms.priceAtPurchaseDate\n\t\t\t\t\t.add(contractState.nominalAccrued)\n\t\t\t\t\t.add(\n\t\t\t\t\t\tyearFraction(contractState.lastEventTime, timestamp, contractTerms.dayCountConvention)\n\t\t\t\t\t\t.floatMult(contractState.nominalRate)\n\t\t\t\t\t\t.floatMult(contractState.nominalValue)\n\t\t\t\t\t)\n\t\t\t);\n\t\t}\n\t}\n}\n",
  "sourcePath": "/Users/johannes/Documents/dev/actus-protocol/ap-monorepo/packages/ap-contracts/contracts/APEngines/PAMEngine.sol",
  "compiler": {
    "name": "solc",
    "version": "0.5.2+commit.1df8f40c.Emscripten.clang"
  },
  "schemaVersion": "3.0.1",
  "updatedAt": "2019-03-29T15:08:57.049Z",
  "devdoc": {
    "details": "all numbers except unix timestamp are represented as multiple of 10 ** 18 inputs have to be multiplied by 10 ** 18, outputs have to divided by 10 ** 18",
    "methods": {
      "computeInitialState((uint8,uint8,string,string,uint8,uint8,uint8,uint8,uint8,uint8,uint8,uint256,uint256,uint256,uint256,uint256,uint256,uint256,uint256,uint256,uint256,int256,int256,int256,int256,int256,int256,int256,int256,int256,int256,int256,(uint256,uint8,uint8,bool),(uint256,uint8,uint8,bool),(uint256,uint8,uint8,bool),(uint256,uint8,uint8,bool),int256,int256,int256,int256,int256))": {
        "params": {
          "contractTerms": "terms of the contract"
        },
        "return": "initial contract state"
      },
      "computeNextState((uint8,uint8,string,string,uint8,uint8,uint8,uint8,uint8,uint8,uint8,uint256,uint256,uint256,uint256,uint256,uint256,uint256,uint256,uint256,uint256,int256,int256,int256,int256,int256,int256,int256,int256,int256,int256,int256,(uint256,uint8,uint8,bool),(uint256,uint8,uint8,bool),(uint256,uint8,uint8,bool),(uint256,uint8,uint8,bool),int256,int256,int256,int256,int256),(uint256,uint8,int256,int256,int256,int256,int256,int256,int256,uint8),uint256)": {
        "details": "evaluates all events between the scheduled time of the last executed event and now  (such that Led < Tev && now >= Tev)",
        "params": {
          "contractState": "current state of the contract",
          "contractTerms": "terms of the contract",
          "timestamp": "current timestamp"
        },
        "return": "the new contract state and the evaluated events"
      },
      "computeNextStateForProtoEvent((uint8,uint8,string,string,uint8,uint8,uint8,uint8,uint8,uint8,uint8,uint256,uint256,uint256,uint256,uint256,uint256,uint256,uint256,uint256,uint256,int256,int256,int256,int256,int256,int256,int256,int256,int256,int256,int256,(uint256,uint8,uint8,bool),(uint256,uint8,uint8,bool),(uint256,uint8,uint8,bool),(uint256,uint8,uint8,bool),int256,int256,int256,int256,int256),(uint256,uint8,int256,int256,int256,int256,int256,int256,int256,uint8),(uint256,uint8,uint8,uint8,uint8),uint256)": {
        "params": {
          "contractState": "current state of the contract",
          "contractTerms": "terms of the contract",
          "protoEvent": "prototype event to be evaluated and applied to the contract state",
          "timestamp": "current timestamp"
        },
        "return": "the new contract state and the evaluated event"
      },
      "computeProtoEventScheduleSegment((uint8,uint8,string,string,uint8,uint8,uint8,uint8,uint8,uint8,uint8,uint256,uint256,uint256,uint256,uint256,uint256,uint256,uint256,uint256,uint256,int256,int256,int256,int256,int256,int256,int256,int256,int256,int256,int256,(uint256,uint8,uint8,bool),(uint256,uint8,uint8,bool),(uint256,uint8,uint8,bool),(uint256,uint8,uint8,bool),int256,int256,int256,int256,int256),uint256,uint256)": {
        "params": {
          "contractTerms": "terms of the contract",
          "segmentEnd": "end timestamp of the segement",
          "segmentStart": "start timestamp of the segment"
        },
        "return": "event schedule segment"
      }
    },
    "title": "the stateless component for a PAM contract implements the STF and POF of the Actus standard for a PAM contract "
  },
  "userdoc": {
    "methods": {
      "computeInitialState((uint8,uint8,string,string,uint8,uint8,uint8,uint8,uint8,uint8,uint8,uint256,uint256,uint256,uint256,uint256,uint256,uint256,uint256,uint256,uint256,int256,int256,int256,int256,int256,int256,int256,int256,int256,int256,int256,(uint256,uint8,uint8,bool),(uint256,uint8,uint8,bool),(uint256,uint8,uint8,bool),(uint256,uint8,uint8,bool),int256,int256,int256,int256,int256))": {
        "notice": "get the initial contract state"
      },
      "computeNextState((uint8,uint8,string,string,uint8,uint8,uint8,uint8,uint8,uint8,uint8,uint256,uint256,uint256,uint256,uint256,uint256,uint256,uint256,uint256,uint256,int256,int256,int256,int256,int256,int256,int256,int256,int256,int256,int256,(uint256,uint8,uint8,bool),(uint256,uint8,uint8,bool),(uint256,uint8,uint8,bool),(uint256,uint8,uint8,bool),int256,int256,int256,int256,int256),(uint256,uint8,int256,int256,int256,int256,int256,int256,int256,uint8),uint256)": {
        "notice": "computes pending events based on the contract state and  applys them to the contract state and returns the evaluated events and the new contract state"
      },
      "computeNextStateForProtoEvent((uint8,uint8,string,string,uint8,uint8,uint8,uint8,uint8,uint8,uint8,uint256,uint256,uint256,uint256,uint256,uint256,uint256,uint256,uint256,uint256,int256,int256,int256,int256,int256,int256,int256,int256,int256,int256,int256,(uint256,uint8,uint8,bool),(uint256,uint8,uint8,bool),(uint256,uint8,uint8,bool),(uint256,uint8,uint8,bool),int256,int256,int256,int256,int256),(uint256,uint8,int256,int256,int256,int256,int256,int256,int256,uint8),(uint256,uint8,uint8,uint8,uint8),uint256)": {
        "notice": "applys a prototype event to the current state of a contract and  returns the contrat event and the new contract state"
      },
      "computeProtoEventScheduleSegment((uint8,uint8,string,string,uint8,uint8,uint8,uint8,uint8,uint8,uint8,uint256,uint256,uint256,uint256,uint256,uint256,uint256,uint256,uint256,uint256,int256,int256,int256,int256,int256,int256,int256,int256,int256,int256,int256,(uint256,uint8,uint8,bool),(uint256,uint8,uint8,bool),(uint256,uint8,uint8,bool),(uint256,uint8,uint8,bool),int256,int256,int256,int256,int256),uint256,uint256)": {
        "notice": "computes a schedule segment of contract events based on the contract terms and the specified period"
      }
    }
  }
}