{
  "contractName": "PaymentRegistry",
  "abi": [
    {
      "constant": false,
      "inputs": [],
      "name": "renounceOwnership",
      "outputs": [],
      "payable": false,
      "stateMutability": "nonpayable",
      "type": "function",
      "signature": "0x715018a6"
    },
    {
      "constant": true,
      "inputs": [],
      "name": "owner",
      "outputs": [
        {
          "name": "",
          "type": "address"
        }
      ],
      "payable": false,
      "stateMutability": "view",
      "type": "function",
      "signature": "0x8da5cb5b"
    },
    {
      "constant": true,
      "inputs": [],
      "name": "isOwner",
      "outputs": [
        {
          "name": "",
          "type": "bool"
        }
      ],
      "payable": false,
      "stateMutability": "view",
      "type": "function",
      "signature": "0x8f32d59b"
    },
    {
      "constant": false,
      "inputs": [
        {
          "name": "newOwner",
          "type": "address"
        }
      ],
      "name": "transferOwnership",
      "outputs": [],
      "payable": false,
      "stateMutability": "nonpayable",
      "type": "function",
      "signature": "0xf2fde38b"
    },
    {
      "constant": true,
      "inputs": [],
      "name": "paymentRouter",
      "outputs": [
        {
          "name": "",
          "type": "address"
        }
      ],
      "payable": false,
      "stateMutability": "view",
      "type": "function",
      "signature": "0xff781bbf"
    },
    {
      "anonymous": false,
      "inputs": [
        {
          "indexed": false,
          "name": "",
          "type": "bytes32"
        },
        {
          "indexed": false,
          "name": "",
          "type": "uint256"
        },
        {
          "indexed": false,
          "name": "",
          "type": "uint256"
        }
      ],
      "name": "Paid",
      "type": "event",
      "signature": "0x735fb86ad7257633da1abfe25ab7cc962ebe6d96dd84c31430bf46d9e76b5745"
    },
    {
      "anonymous": false,
      "inputs": [
        {
          "indexed": true,
          "name": "previousOwner",
          "type": "address"
        },
        {
          "indexed": true,
          "name": "newOwner",
          "type": "address"
        }
      ],
      "name": "OwnershipTransferred",
      "type": "event",
      "signature": "0x8be0079c531659141344cd1fd0a4f28419497f9722a3daafe3b4186f6b6457e0"
    },
    {
      "constant": false,
      "inputs": [
        {
          "name": "_paymentRouter",
          "type": "address"
        }
      ],
      "name": "setPaymentRouter",
      "outputs": [],
      "payable": false,
      "stateMutability": "nonpayable",
      "type": "function",
      "signature": "0x8af5631c"
    },
    {
      "constant": false,
      "inputs": [
        {
          "name": "assetId",
          "type": "bytes32"
        },
        {
          "name": "cashflowId",
          "type": "int8"
        },
        {
          "name": "eventId",
          "type": "uint256"
        },
        {
          "name": "token",
          "type": "address"
        },
        {
          "name": "amount",
          "type": "uint256"
        }
      ],
      "name": "registerPayment",
      "outputs": [],
      "payable": true,
      "stateMutability": "payable",
      "type": "function",
      "signature": "0x4c8b0fe7"
    },
    {
      "constant": true,
      "inputs": [
        {
          "name": "assetId",
          "type": "bytes32"
        },
        {
          "name": "eventId",
          "type": "uint256"
        }
      ],
      "name": "getPayoffBalance",
      "outputs": [
        {
          "name": "",
          "type": "uint256"
        }
      ],
      "payable": false,
      "stateMutability": "view",
      "type": "function",
      "signature": "0x921a154b"
    },
    {
      "constant": true,
      "inputs": [
        {
          "name": "assetId",
          "type": "bytes32"
        },
        {
          "name": "eventId",
          "type": "uint256"
        }
      ],
      "name": "getPayoff",
      "outputs": [
        {
          "name": "",
          "type": "int8"
        },
        {
          "name": "",
          "type": "address"
        },
        {
          "name": "",
          "type": "uint256"
        }
      ],
      "payable": false,
      "stateMutability": "view",
      "type": "function",
      "signature": "0x466e63b5"
    }
  ],
  "bytecode": "0x6080604081905260008054600160a060020a0319163317808255600160a060020a0316917f8be0079c531659141344cd1fd0a4f28419497f9722a3daafe3b4186f6b6457e0908290a36106da806100576000396000f3fe6080604052600436106100a3576000357c0100000000000000000000000000000000000000000000000000000000900480638da5cb5b116100765780638da5cb5b1461012a5780638f32d59b1461014c578063921a154b1461016e578063f2fde38b1461019b578063ff781bbf146101bb576100a3565b8063466e63b5146100a85780634c8b0fe7146100e0578063715018a6146100f55780638af5631c1461010a575b600080fd5b3480156100b457600080fd5b506100c86100c3366004610585565b6101d0565b6040516100d793929190610635565b60405180910390f35b6100f36100ee366004610510565b610209565b005b34801561010157600080fd5b506100f3610324565b34801561011657600080fd5b506100f36101253660046104ea565b61038e565b34801561013657600080fd5b5061013f6103d0565b6040516100d79190610619565b34801561015857600080fd5b506101616103df565b6040516100d79190610627565b34801561017a57600080fd5b5061018e610189366004610585565b6103f0565b6040516100d7919061066d565b3480156101a757600080fd5b506100f36101b63660046104ea565b610414565b3480156101c757600080fd5b5061013f610433565b6000918252600260209081526040808420928452919052812080546001909101549181900b92610100909104600160a060020a03169190565b600154600160a060020a03163314610256576040517f08c379a000000000000000000000000000000000000000000000000000000000815260040161024d9061065d565b60405180910390fd5b6000858152600260209081526040808320868452909152812054810b900b15156102fa5760408051606081018252600086810b8252600160a060020a0380861660208085019182528486018781528b8552600282528685208a86529091529483209351845491519092166101000274ffffffffffffffffffffffffffffffffffffffff00199290930b60ff1660ff199091161716178155905160019091015561031d565b600085815260026020908152604080832086845290915290206001018054820190555b5050505050565b61032c6103df565b151561033757600080fd5b60008054604051600160a060020a03909116907f8be0079c531659141344cd1fd0a4f28419497f9722a3daafe3b4186f6b6457e0908390a36000805473ffffffffffffffffffffffffffffffffffffffff19169055565b6103966103df565b15156103a157600080fd5b6001805473ffffffffffffffffffffffffffffffffffffffff1916600160a060020a0392909216919091179055565b600054600160a060020a031690565b600054600160a060020a0316331490565b60008281526002602090815260408083208484529091529020600101545b92915050565b61041c6103df565b151561042757600080fd5b61043081610442565b50565b600154600160a060020a031681565b600160a060020a038116151561045757600080fd5b60008054604051600160a060020a03808516939216917f8be0079c531659141344cd1fd0a4f28419497f9722a3daafe3b4186f6b6457e091a36000805473ffffffffffffffffffffffffffffffffffffffff1916600160a060020a0392909216919091179055565b60006104cb823561067b565b9392505050565b60006104cb823561069d565b60006104cb823561068b565b6000602082840312156104fc57600080fd5b600061050884846104bf565b949350505050565b600080600080600060a0868803121561052857600080fd5b600061053488886104d2565b9550506020610545888289016104de565b9450506040610556888289016104d2565b9350506060610567888289016104bf565b9250506080610578888289016104d2565b9150509295509295909350565b6000806040838503121561059857600080fd5b60006105a485856104d2565b92505060206105b5858286016104d2565b9150509250929050565b6105c88161067b565b82525050565b6105c881610686565b6105c88161068b565b601381527f554e415554484f52495a45445f53454e44455200000000000000000000000000602082015260400190565b6105c88161069d565b6020810161040e82846105bf565b6020810161040e82846105ce565b6060810161064382866105d7565b61065060208301856105bf565b6105086040830184610610565b6020808252810161040e816105e0565b6020810161040e8284610610565b600061040e82610691565b151590565b60000b90565b600160a060020a031690565b9056fea265627a7a72305820d4a1c77867bba60431e67870e604801ad6b868233d15f160ea303a20512f2bb36c6578706572696d656e74616cf50037",
  "source": "pragma solidity ^0.5.2;\npragma experimental ABIEncoderV2;\n\nimport \"openzeppelin-solidity/contracts/ownership/Ownable.sol\";\n\nimport \"./IPaymentRegistry.sol\";\n\n\ncontract PaymentRegistry is IPaymentRegistry, Ownable {\n\t\n\tevent Paid(bytes32, uint256, uint256);\n\n\tstruct Payoff {\n\t\tint8 cashflowId;\n\t\taddress token;\n\t\tuint256 balance;\n\t}\n\n\taddress public paymentRouter;\n\n\t// assetId => eventId => Payoff    \n\tmapping (bytes32 => mapping (uint256 => Payoff)) payoffRegistry;\n\n\n\tmodifier onlyPaymentRouter {\n\t\trequire(msg.sender == paymentRouter, \"UNAUTHORIZED_SENDER\");\n\t\t_;\n\t}\n\n\t/**\n\t * whitelists the address of the payment router for registering payments\n\t * @dev can only be called by the owner of the contract\n\t * @param _paymentRouter address of the payment router\n\t */\n\tfunction setPaymentRouter(address _paymentRouter) external onlyOwner {\n\t\tpaymentRouter = _paymentRouter;\n\t}\n\t\n\t/**\n\t * register a payment made for servicing a claim from a specific financial asset\n\t * @dev can only be called by the whitelisted payment router\n\t * @param assetId id of the asset to which the claim (i.e. eventId) relates\n\t * @param cashflowId id of the claim which is serviced with the payment\n\t * @param eventId id of the specific contractual event which is serviced with the payment\n\t * @param token the address of the token contract from which tokens are transferred with the payment\n\t * @param amount the amount transferred with the payment\n\t */\n\tfunction registerPayment(\n\t\tbytes32 assetId,\n\t\tint8 cashflowId,\n\t\tuint256 eventId,\n\t\taddress token,\n\t\tuint256 amount\n\t) \n\t\texternal \n\t\tpayable\n\t\tonlyPaymentRouter\n\t{\t\t\n\t\tif (payoffRegistry[assetId][eventId].cashflowId == int8(0)) {\n\t\t\tpayoffRegistry[assetId][eventId] = Payoff(\n\t\t\t\tcashflowId,\n\t\t\t\ttoken,\n\t\t\t\tamount\n\t\t\t);\n\t\t} else {\n\t\t\tpayoffRegistry[assetId][eventId].balance += amount;\n\t\t}\n\n\t\t// emit Paid(assetId, eventId, amount);\n\t}\n\n\t/**\n\t * retrieve the total balance (sum over all amounts) paid for servicing a specific claim\n\t * @param assetId id of the asset to which the claim (i.e. eventId) relates\n\t * @param eventId id of the specific contractual event for which the total balance paid should be retrieved\n\t * @return current balance paid off for the given claim\n\t */\n\tfunction getPayoffBalance(bytes32 assetId, uint256 eventId)\n\t\texternal\n\t\tview\n\t\treturns (uint256)\n\t{\n\t\treturn payoffRegistry[assetId][eventId].balance;\n\t}\n\t\n\t/**\n\t * retrieve the full details of amounts paid for servicing a specific claim\n\t * @param assetId id of the asset to which the claim (i.e. eventId) relates\n\t * @param eventId id of the specific contractual event for which the total balance paid should be retrieved\n\t * @return cashflowId, address of the token used to payoff the claim, current balance of the claim\n\t */\t\n\tfunction getPayoff(bytes32 assetId, uint256 eventId)\n\t\texternal\n\t\tview\n\t\treturns (int8, address, uint256)\n\t{\n\t\treturn (\n\t\t\tpayoffRegistry[assetId][eventId].cashflowId, \n\t\t\tpayoffRegistry[assetId][eventId].token,\n\t\t\tpayoffRegistry[assetId][eventId].balance\n\t\t);\n\t}\n}\n",
  "sourcePath": "/Users/johannes/Documents/dev/actus-protocol/ap-monorepo/packages/ap-contracts/contracts/APExtended/PaymentRegistry.sol",
  "compiler": {
    "name": "solc",
    "version": "0.5.2+commit.1df8f40c.Emscripten.clang"
  },
  "schemaVersion": "3.0.1",
  "updatedAt": "2019-03-29T15:08:57.005Z",
  "devdoc": {
    "methods": {
      "getPayoff(bytes32,uint256)": {
        "params": {
          "assetId": "id of the asset to which the claim (i.e. eventId) relates",
          "eventId": "id of the specific contractual event for which the total balance paid should be retrieved"
        },
        "return": "cashflowId, address of the token used to payoff the claim, current balance of the claim"
      },
      "getPayoffBalance(bytes32,uint256)": {
        "params": {
          "assetId": "id of the asset to which the claim (i.e. eventId) relates",
          "eventId": "id of the specific contractual event for which the total balance paid should be retrieved"
        },
        "return": "current balance paid off for the given claim"
      },
      "isOwner()": {
        "return": "true if `msg.sender` is the owner of the contract."
      },
      "owner()": {
        "return": "the address of the owner."
      },
      "registerPayment(bytes32,int8,uint256,address,uint256)": {
        "details": "can only be called by the whitelisted payment router",
        "params": {
          "amount": "the amount transferred with the payment",
          "assetId": "id of the asset to which the claim (i.e. eventId) relates",
          "cashflowId": "id of the claim which is serviced with the payment",
          "eventId": "id of the specific contractual event which is serviced with the payment",
          "token": "the address of the token contract from which tokens are transferred with the payment"
        }
      },
      "renounceOwnership()": {
        "details": "Allows the current owner to relinquish control of the contract. It will not be possible to call the functions with the `onlyOwner` modifier anymore."
      },
      "setPaymentRouter(address)": {
        "details": "can only be called by the owner of the contract",
        "params": {
          "_paymentRouter": "address of the payment router"
        }
      },
      "transferOwnership(address)": {
        "details": "Allows the current owner to transfer control of the contract to a newOwner.",
        "params": {
          "newOwner": "The address to transfer ownership to."
        }
      }
    }
  },
  "userdoc": {
    "methods": {
      "getPayoff(bytes32,uint256)": {
        "notice": "retrieve the full details of amounts paid for servicing a specific claim"
      },
      "getPayoffBalance(bytes32,uint256)": {
        "notice": "retrieve the total balance (sum over all amounts) paid for servicing a specific claim"
      },
      "registerPayment(bytes32,int8,uint256,address,uint256)": {
        "notice": "register a payment made for servicing a claim from a specific financial asset"
      },
      "renounceOwnership()": {
        "notice": "Renouncing ownership will leave the contract without an owner, thereby removing any functionality that is only available to the owner."
      },
      "setPaymentRouter(address)": {
        "notice": "whitelists the address of the payment router for registering payments"
      }
    }
  }
}