{
  "contractName": "PaymentRouter",
  "abi": [
    {
      "constant": true,
      "inputs": [],
      "name": "ownershipRegistry",
      "outputs": [
        {
          "name": "",
          "type": "address"
        }
      ],
      "payable": false,
      "stateMutability": "view",
      "type": "function",
      "signature": "0x522a4fd0"
    },
    {
      "constant": false,
      "inputs": [],
      "name": "renounceOwnership",
      "outputs": [],
      "payable": false,
      "stateMutability": "nonpayable",
      "type": "function",
      "signature": "0x715018a6"
    },
    {
      "constant": true,
      "inputs": [],
      "name": "owner",
      "outputs": [
        {
          "name": "",
          "type": "address"
        }
      ],
      "payable": false,
      "stateMutability": "view",
      "type": "function",
      "signature": "0x8da5cb5b"
    },
    {
      "constant": true,
      "inputs": [],
      "name": "isOwner",
      "outputs": [
        {
          "name": "",
          "type": "bool"
        }
      ],
      "payable": false,
      "stateMutability": "view",
      "type": "function",
      "signature": "0x8f32d59b"
    },
    {
      "constant": true,
      "inputs": [],
      "name": "paymentRegistry",
      "outputs": [
        {
          "name": "",
          "type": "address"
        }
      ],
      "payable": false,
      "stateMutability": "view",
      "type": "function",
      "signature": "0xf13dfb0b"
    },
    {
      "constant": false,
      "inputs": [
        {
          "name": "newOwner",
          "type": "address"
        }
      ],
      "name": "transferOwnership",
      "outputs": [],
      "payable": false,
      "stateMutability": "nonpayable",
      "type": "function",
      "signature": "0xf2fde38b"
    },
    {
      "inputs": [
        {
          "name": "_ownershipRegistry",
          "type": "address"
        },
        {
          "name": "_paymentRegistry",
          "type": "address"
        }
      ],
      "payable": false,
      "stateMutability": "nonpayable",
      "type": "constructor",
      "signature": "constructor"
    },
    {
      "anonymous": false,
      "inputs": [
        {
          "indexed": true,
          "name": "previousOwner",
          "type": "address"
        },
        {
          "indexed": true,
          "name": "newOwner",
          "type": "address"
        }
      ],
      "name": "OwnershipTransferred",
      "type": "event",
      "signature": "0x8be0079c531659141344cd1fd0a4f28419497f9722a3daafe3b4186f6b6457e0"
    },
    {
      "constant": false,
      "inputs": [
        {
          "name": "assetId",
          "type": "bytes32"
        },
        {
          "name": "cashflowId",
          "type": "int8"
        },
        {
          "name": "eventId",
          "type": "uint256"
        },
        {
          "name": "token",
          "type": "address"
        },
        {
          "name": "_amount",
          "type": "uint256"
        }
      ],
      "name": "settlePayment",
      "outputs": [],
      "payable": true,
      "stateMutability": "payable",
      "type": "function",
      "signature": "0x8a7553cd"
    }
  ],
  "bytecode": "0x608060405234801561001057600080fd5b50604051604080610ba2833981018060405261002f91908101906100bc565b60008054600160a060020a0319163317808255604051600160a060020a039190911691907f8be0079c531659141344cd1fd0a4f28419497f9722a3daafe3b4186f6b6457e0908290a360018054600160a060020a03938416600160a060020a0319918216179091556002805492909316911617905561011e565b60006100b58251610113565b9392505050565b600080604083850312156100cf57600080fd5b60006100db85856100a9565b92505060206100ec858286016100a9565b9150509250929050565b600061010182610107565b92915050565b600160a060020a031690565b6000610101826100f6565b610a758061012d6000396000f3fe60806040526004361061008d576000357c0100000000000000000000000000000000000000000000000000000000900480638da5cb5b1161006b5780638da5cb5b146100e75780638f32d59b14610109578063f13dfb0b1461012b578063f2fde38b146101405761008d565b8063522a4fd014610092578063715018a6146100bd5780638a7553cd146100d4575b600080fd5b34801561009e57600080fd5b506100a7610160565b6040516100b491906109c6565b60405180910390f35b3480156100c957600080fd5b506100d261016f565b005b6100d26100e23660046107a0565b6101d9565b3480156100f357600080fd5b506100fc6105cf565b6040516100b49190610907565b34801561011557600080fd5b5061011e6105de565b6040516100b49190610943565b34801561013757600080fd5b506100a76105ef565b34801561014c57600080fd5b506100d261015b3660046106dd565b6105fe565b600154600160a060020a031681565b6101776105de565b151561018257600080fd5b60008054604051600160a060020a03909116907f8be0079c531659141344cd1fd0a4f28419497f9722a3daafe3b4186f6b6457e0908390a36000805473ffffffffffffffffffffffffffffffffffffffff19169055565b84158015906101eb5750600084900b15155b15156102155760405160e560020a62461bcd02815260040161020c906109f4565b60405180910390fd5b6001546040517fec7d6c020000000000000000000000000000000000000000000000000000000081526000918291600160a060020a039091169063ec7d6c0290610265908a908a9060040161095f565b60206040518083038186803b15801561027d57600080fd5b505afa158015610291573d6000803e3d6000fd5b505050506040513d601f19601f820116820180604052506102b59190810190610703565b6001546040517fe50e0ef7000000000000000000000000000000000000000000000000000000008152919250600091829182918291600160a060020a03169063e50e0ef790610308908e90600401610951565b60806040518083038186803b15801561032057600080fd5b505afa158015610334573d6000803e3d6000fd5b505050506040513d601f19601f820116820180604052506103589190810190610721565b9296509094509250905060008a810b13156103b15733600160a060020a038316146103985760405160e560020a62461bcd02815260040161020c906109d4565b600160a060020a03851615156103ac578294505b6103f0565b33600160a060020a038516146103dc5760405160e560020a62461bcd02815260040161020c906109d4565b600160a060020a03851615156103f0578094505b600160a060020a038816151561047f57604051600090600160a060020a0387169034908381818185875af1925050503d806000811461044b576040519150601f19603f3d011682016040523d82523d6000602084013e610450565b606091505b505090508015156104765760405160e560020a62461bcd02815260040161020c906109e4565b3496505061053f565b6040517f23b872dd000000000000000000000000000000000000000000000000000000008152600160a060020a038916906323b872dd906104c890339089908c9060040161091b565b602060405180830381600087803b1580156104e257600080fd5b505af11580156104f6573d6000803e3d6000fd5b505050506040513d601f19601f8201168201806040525061051a9190810190610782565b151561053b5760405160e560020a62461bcd02815260040161020c906109e4565b8695505b6002546040517f4c8b0fe7000000000000000000000000000000000000000000000000000000008152600160a060020a0390911690634c8b0fe790610590908e908e908e908e908d9060040161097a565b600060405180830381600087803b1580156105aa57600080fd5b505af11580156105be573d6000803e3d6000fd5b505050505050505050505050505050565b600054600160a060020a031690565b600054600160a060020a0316331490565b600254600160a060020a031681565b6106066105de565b151561061157600080fd5b61061a8161061d565b50565b600160a060020a038116151561063257600080fd5b60008054604051600160a060020a03808516939216917f8be0079c531659141344cd1fd0a4f28419497f9722a3daafe3b4186f6b6457e091a36000805473ffffffffffffffffffffffffffffffffffffffff1916600160a060020a0392909216919091179055565b60006106a68235610a04565b9392505050565b60006106a68251610a04565b60006106a68251610a0f565b60006106a68235610a14565b60006106a68235610a17565b6000602082840312156106ef57600080fd5b60006106fb848461069a565b949350505050565b60006020828403121561071557600080fd5b60006106fb84846106ad565b6000806000806080858703121561073757600080fd5b600061074387876106ad565b9450506020610754878288016106ad565b9350506040610765878288016106ad565b9250506060610776878288016106ad565b91505092959194509250565b60006020828403121561079457600080fd5b60006106fb84846106b9565b600080600080600060a086880312156107b857600080fd5b60006107c488886106c5565b95505060206107d5888289016106d1565b94505060406107e6888289016106c5565b93505060606107f78882890161069a565b9250506080610808888289016106c5565b9150509295509295909350565b61081e81610a29565b82525050565b61081e81610a04565b61081e81610a0f565b61081e81610a14565b61081e81610a30565b61081e81610a17565b603081527f554e415554484f52495a45445f53454e4445525f4f525f554e4b4e4f574e5f4360208201527f4f4e54524143544f574e45525348495000000000000000000000000000000000604082015260600190565b600f81527f5452414e534645525f4641494c45440000000000000000000000000000000000602082015260400190565b60208082527f494e56414c49445f434f4e545241435449445f4f525f43415348464c4f5749449082015260400190565b602081016109158284610824565b92915050565b606081016109298286610815565b6109366020830185610815565b6106fb6040830184610836565b60208101610915828461082d565b602081016109158284610836565b6040810161096d8285610836565b6106a66020830184610848565b60a081016109888288610836565b6109956020830187610848565b6109a26040830186610836565b6109af6060830185610824565b6109bc6080830184610836565b9695505050505050565b60208101610915828461083f565b6020808252810161091581610851565b60208082528101610915816108a7565b60208082528101610915816108d7565b600061091582610a1d565b151590565b90565b60000b90565b600160a060020a031690565b6000610915825b600061091582610a0456fea265627a7a72305820aa602f02b65818808c94cecea05838b66c97128305b79026276039581909297f6c6578706572696d656e74616cf50037",
  "source": "pragma solidity ^0.5.2;\npragma experimental ABIEncoderV2;\n\nimport \"openzeppelin-solidity/contracts/ownership/Ownable.sol\";\nimport \"openzeppelin-solidity/contracts/token/ERC20/IERC20.sol\";\n\nimport \"./IPaymentRouter.sol\";\nimport \"./IOwnershipRegistry.sol\";\nimport \"./IPaymentRegistry.sol\";\n\n\ncontract PaymentRouter is IPaymentRouter, Ownable {\n\n\tIOwnershipRegistry public ownershipRegistry;\n\tIPaymentRegistry public paymentRegistry;\n\n\tconstructor (\n\t\tIOwnershipRegistry _ownershipRegistry,\n\t\tIPaymentRegistry _paymentRegistry\n\t) \n\t\tpublic \n\t{\n\t\townershipRegistry = IOwnershipRegistry(_ownershipRegistry);\n\t\tpaymentRegistry = IPaymentRegistry(_paymentRegistry);\n\t}\n\n\t/**\n\t * routes a payment to the designated beneficiary and \n\t * registers that the payment was made in the payment registry\n\t * @dev checks if an owner of the specified cashflowId is set, \n\t * if not it sends funds to the default beneficiary\n\t * @param assetId id of the asset which the payment relates to\n\t * @param cashflowId id of the claim ((EventType + 1) * direction of the payment)\n\t * @param eventId id of the event (order in the event schedule)\n\t * @param token address of the token to pay (0x0 if paid in Ether)\n\t * @param _amount payment amount\n\t */\n\tfunction settlePayment(\n\t\tbytes32 assetId,\n\t\tint8 cashflowId,\n\t\tuint256 eventId,\n\t\taddress token,\n\t\tuint256 _amount\n\t) \n\t\texternal \n\t\tpayable\n\t{\n\t\trequire(assetId != bytes32(0) && cashflowId != int8(0), \"INVALID_CONTRACTID_OR_CASHFLOWID\");\n\t\t\n\t\tuint256 amount;\n\t\taddress payable payee = ownershipRegistry.getCashflowBeneficiary(assetId, cashflowId);\n\t\t\n\t\taddress recordCreatorObligor;\n\t\taddress payable recordCreatorBeneficiary;\n\t\taddress counterpartyObligor;\n\t\taddress payable counterpartyBeneficiary;\n\n\t\t(\n\t\t\trecordCreatorObligor, \n\t\t\trecordCreatorBeneficiary, \n\t\t\tcounterpartyObligor, \n\t\t\tcounterpartyBeneficiary\n\t\t) = ownershipRegistry.getOwnership(assetId);\n\t\t\n\t\tif (cashflowId > 0) {\n\t\t\trequire(msg.sender == counterpartyObligor, \"UNAUTHORIZED_SENDER_OR_UNKNOWN_CONTRACTOWNERSHIP\");\n\t\t\tif (payee == address(0)) {\n\t\t\t\tpayee = recordCreatorBeneficiary;\n\t\t\t}\t\n\t\t} else {\n\t\t\trequire(msg.sender == recordCreatorObligor, \"UNAUTHORIZED_SENDER_OR_UNKNOWN_CONTRACTOWNERSHIP\");\n\t\t\tif (payee == address(0)) {\n\t\t\t\tpayee = counterpartyBeneficiary;\n\t\t\t}\n\t\t}\n\t\t\n\t\tif (token == address(0)) {\n\t\t\t(bool result, ) = payee.call.value(msg.value)(\"\"); // solium-disable-line \n\t\t\trequire(result, \"TRANSFER_FAILED\");\n\t\t\tamount = msg.value;\n\t\t} else {\n\t\t\trequire(IERC20(token).transferFrom(msg.sender, payee, _amount), \"TRANSFER_FAILED\");\n\t\t\tamount = _amount;\n\t\t}\n\n\t\tpaymentRegistry.registerPayment(\n\t\t\tassetId,\n\t\t\tcashflowId,\n\t\t\teventId,\n\t\t\ttoken,\n\t\t\tamount\n\t\t);\n\t}\n}\n",
  "sourcePath": "/Users/johannes/Documents/dev/actus-protocol/ap-monorepo/packages/ap-contracts/contracts/APExtended/PaymentRouter.sol",
  "compiler": {
    "name": "solc",
    "version": "0.5.2+commit.1df8f40c.Emscripten.clang"
  },
  "schemaVersion": "3.0.1",
  "updatedAt": "2019-03-29T15:08:57.013Z",
  "devdoc": {
    "methods": {
      "isOwner()": {
        "return": "true if `msg.sender` is the owner of the contract."
      },
      "owner()": {
        "return": "the address of the owner."
      },
      "renounceOwnership()": {
        "details": "Allows the current owner to relinquish control of the contract. It will not be possible to call the functions with the `onlyOwner` modifier anymore."
      },
      "settlePayment(bytes32,int8,uint256,address,uint256)": {
        "details": "checks if an owner of the specified cashflowId is set,  if not it sends funds to the default beneficiary",
        "params": {
          "_amount": "payment amount",
          "assetId": "id of the asset which the payment relates to",
          "cashflowId": "id of the claim ((EventType + 1) * direction of the payment)",
          "eventId": "id of the event (order in the event schedule)",
          "token": "address of the token to pay (0x0 if paid in Ether)"
        }
      },
      "transferOwnership(address)": {
        "details": "Allows the current owner to transfer control of the contract to a newOwner.",
        "params": {
          "newOwner": "The address to transfer ownership to."
        }
      }
    }
  },
  "userdoc": {
    "methods": {
      "renounceOwnership()": {
        "notice": "Renouncing ownership will leave the contract without an owner, thereby removing any functionality that is only available to the owner."
      },
      "settlePayment(bytes32,int8,uint256,address,uint256)": {
        "notice": "routes a payment to the designated beneficiary and  registers that the payment was made in the payment registry"
      }
    }
  }
}