{
  "contractName": "VerifyOrder",
  "abi": [
    {
      "constant": true,
      "inputs": [],
      "name": "PRECISION",
      "outputs": [
        {
          "name": "",
          "type": "uint256"
        }
      ],
      "payable": false,
      "stateMutability": "view",
      "type": "function"
    },
    {
      "inputs": [],
      "payable": false,
      "stateMutability": "nonpayable",
      "type": "constructor"
    }
  ],
  "bytecode": "0x608060405234801561001057600080fd5b506040805160c081018252600e608082019081527f41435455532050726f746f636f6c00000000000000000000000000000000000060a0830152815281518083018352600181527f31000000000000000000000000000000000000000000000000000000000000006020828101919091528201526000918101919091523060608201526100a5906401000000006100ad810204565b60005561019f565b600060405180806102716052913960520190506040518091039020826000015180519060200120836020015180519060200120846040015185606001516040516020016100fe959493929190610133565b604051602081830303815290604052805190602001209050919050565b6101248161017f565b82525050565b61012481610190565b60a08101610141828861012a565b61014e602083018761012a565b61015b604083018661012a565b610168606083018561012a565b610175608083018461011b565b9695505050505050565b600061018a82610193565b92915050565b90565b600160a060020a031690565b60c4806101ad6000396000f3fe6080604052348015600f57600080fd5b50600436106044577c01000000000000000000000000000000000000000000000000000000006000350463aaf5eb6881146049575b600080fd5b604f6063565b604051605a91906075565b60405180910390f35b601281565b606f816087565b82525050565b60208101608182846068565b92915050565b9056fea265627a7a723058200eba8b28b85d7ca533c62f1f5421858b8e39f17e049d2b53b16b9541c8139d366c6578706572696d656e74616cf50037454950373132446f6d61696e28737472696e67206e616d652c737472696e672076657273696f6e2c75696e7432353620636861696e49642c6164647265737320766572696679696e67436f6e747261637429",
  "source": "pragma solidity ^0.5.2;\npragma experimental ABIEncoderV2;\n\nimport \"openzeppelin-solidity/contracts/cryptography/ECDSA.sol\";\n\nimport \"../APCore/APDefinitions.sol\";\n\n\ncontract VerifyOrder is APDefinitions {\n\n\tstruct EIP712Domain {\n\t\tstring  name;\n\t\tstring  version;\n\t\tuint256 chainId;\n\t\taddress verifyingContract;\n\t}\n\n  struct Order {\n    address payable maker;\n    address payable taker;\n    address actor;\n    ContractTerms terms;\n    address makerCreditEnhancement;\n    address takerCreditEnhancement;\n    uint256 salt;\n  }\n\n\tbytes32 constant EIP712DOMAIN_TYPEHASH = keccak256(\n\t\t\"EIP712Domain(string name,string version,uint256 chainId,address verifyingContract)\"\n\t);\n\n\tbytes32 constant UNFILLED_ORDER_TYPEHASH = keccak256(\n\t\t\"Order(address maker,address actor,bytes32 contractTermsHash,address makerCreditEnhancement,uint256 salt)\"\n\t);\n\n\tbytes32 constant FILLED_ORDER_TYPEHASH = keccak256(\n\t\t\"Order(address maker,address taker,address actor,bytes32 contractTermsHash,address makerCreditEnhancement,address takerCreditEnhancement,uint256 salt)\"\n\t);\n\n\tbytes32 DOMAIN_SEPARATOR;\n\n\tconstructor () public {\n\t\tDOMAIN_SEPARATOR = hashEIP712Domain(EIP712Domain({\n\t\t\tname: \"ACTUS Protocol\",\n\t\t\tversion: \"1\",\n\t\t\tchainId: 0,\n\t\t\tverifyingContract: address(this)\n\t\t}));\n\t}\n\n\tfunction hashEIP712Domain(EIP712Domain memory eip712Domain) \n\t\tinternal \n\t\tpure \n\t\treturns (bytes32) \n\t{\n\t\treturn keccak256(abi.encode(\n\t\t\tEIP712DOMAIN_TYPEHASH,\n\t\t\tkeccak256(bytes(eip712Domain.name)),\n\t\t\tkeccak256(bytes(eip712Domain.version)),\n\t\t\teip712Domain.chainId,\n\t\t\teip712Domain.verifyingContract\n\t\t));\n\t}\n\n  function hashTerms(ContractTerms memory terms) \n    internal\n    pure\n    returns (bytes32)\n  {\n    return keccak256(abi.encode(terms));\n  }\n\n\tfunction hashUnfilledOrder(Order memory order)\n\t\tinternal\n\t\tpure\n\t\treturns (bytes32)\n\t{\n\t\treturn keccak256(abi.encode(\n\t\t\tUNFILLED_ORDER_TYPEHASH,\n\t\t\torder.maker,\n\t\t\torder.actor,\n\t\t\thashTerms(order.terms),\n      order.makerCreditEnhancement,\n\t\t\torder.salt\n\t\t));\n\t}\n\n\tfunction hashFilledOrder(Order memory order)\n\t\tinternal\n\t\tpure\n\t\treturns (bytes32)\n\t{\n\t\treturn keccak256(abi.encode(\n\t\t\tFILLED_ORDER_TYPEHASH,\n\t\t\torder.maker,\n\t\t\torder.taker,\n\t\t\torder.actor,\n\t\t\thashTerms(order.terms),\n      order.makerCreditEnhancement,\n      order.takerCreditEnhancement,\n\t\t\torder.salt\n\t\t));\n\t}\n\n\tfunction assertOrderSignatures(\n\t\tOrder memory order,\n\t\tbytes memory makerSignature,\n\t\tbytes memory takerSignature\n\t)\n\t\tinternal \n\t\tview\n    returns (bool)\n\t{\n\t\tbytes32 makerDigest = keccak256(abi.encodePacked(\n\t\t\t\"\\x19\\x01\",\n\t\t\tDOMAIN_SEPARATOR,\n\t\t\thashUnfilledOrder(order)\n\t\t));\n\n\t\tbytes32 takerDigest = keccak256(abi.encodePacked(\n\t\t\t\"\\x19\\x01\",\n\t\t\tDOMAIN_SEPARATOR,\n\t\t\thashFilledOrder(order)\n\t\t));\n\n\t\trequire(ECDSA.recover(makerDigest, makerSignature) == order.maker, \"INVALID_ORDER_SIGNATURE: Recovered address is not the maker!\");\n\t\trequire(ECDSA.recover(takerDigest, takerSignature) == order.taker, \"INVALID_ORDER_SIGNATURE: Recovered address is not the taker!\");\n    \n    return true;\n\t}\n}",
  "sourcePath": "/Users/johannes/Documents/dev/actus-protocol/ap-monorepo/packages/ap-contracts/contracts/APIssuance/VerifyOrder.sol",
  "compiler": {
    "name": "solc",
    "version": "0.5.2+commit.1df8f40c.Emscripten.clang"
  },
  "schemaVersion": "3.0.1",
  "updatedAt": "2019-03-28T18:25:01.739Z",
  "devdoc": {
    "methods": {}
  },
  "userdoc": {
    "methods": {}
  }
}