{
  "_format": "hh-sol-artifact-1",
  "contractName": "EventUtils",
  "sourceName": "contracts/ACTUS/Core/Utils/EventUtils.sol",
  "abi": [
    {
      "inputs": [
        {
          "internalType": "bytes32",
          "name": "_event",
          "type": "bytes32"
        }
      ],
      "name": "decodeEvent",
      "outputs": [
        {
          "internalType": "enum EventType",
          "name": "",
          "type": "uint8"
        },
        {
          "internalType": "uint256",
          "name": "",
          "type": "uint256"
        }
      ],
      "stateMutability": "pure",
      "type": "function"
    },
    {
      "inputs": [
        {
          "internalType": "enum EventType",
          "name": "eventType",
          "type": "uint8"
        },
        {
          "internalType": "uint256",
          "name": "scheduleTime",
          "type": "uint256"
        }
      ],
      "name": "encodeEvent",
      "outputs": [
        {
          "internalType": "bytes32",
          "name": "",
          "type": "bytes32"
        }
      ],
      "stateMutability": "pure",
      "type": "function"
    },
    {
      "inputs": [
        {
          "internalType": "enum EventType",
          "name": "eventType",
          "type": "uint8"
        }
      ],
      "name": "getEpochOffset",
      "outputs": [
        {
          "internalType": "uint256",
          "name": "",
          "type": "uint256"
        }
      ],
      "stateMutability": "pure",
      "type": "function"
    }
  ],
  "bytecode": "0x608060405234801561001057600080fd5b506101c8806100206000396000f3fe608060405234801561001057600080fd5b50600436106100415760003560e01c80637254000314610046578063811322fb14610070578063e05a66e014610090575b600080fd5b61005961005436600461010f565b6100a3565b60405161006792919061017a565b60405180910390f35b61008361007e366004610127565b6100cc565b6040516100679190610171565b61008361009e366004610148565b6100e2565b6000808060f884901c60218111156100b757fe5b92505067ffffffffffffffff83169050915091565b60008160218111156100da57fe5b90505b919050565b60008160f88460218111156100f357fe5b60ff16901b179392505050565b8035602281106100dd57600080fd5b600060208284031215610120578081fd5b5035919050565b600060208284031215610138578081fd5b61014182610100565b9392505050565b6000806040838503121561015a578081fd5b61016383610100565b946020939093013593505050565b90815260200190565b604081016022841061018857fe5b928152602001529056fea264697066735822122080f60e5ee083f4197acb54c64bbf7d5f32e3eb9faf871893cf1c13f0f2ab240c64736f6c63430007040033",
  "linkReferences": {},
  "deployedLinkReferences": {}
}