{
  "_format": "hh-sol-artifact-1",
  "contractName": "PAMRegistry",
  "sourceName": "contracts/Core/PAM/PAMRegistry.sol",
  "abi": [
    {
      "inputs": [],
      "stateMutability": "nonpayable",
      "type": "constructor"
    },
    {
      "anonymous": false,
      "inputs": [
        {
          "indexed": true,
          "internalType": "bytes32",
          "name": "assetId",
          "type": "bytes32"
        },
        {
          "indexed": true,
          "internalType": "address",
          "name": "account",
          "type": "address"
        },
        {
          "indexed": false,
          "internalType": "bytes4",
          "name": "methodSignature",
          "type": "bytes4"
        }
      ],
      "name": "GrantedAccess",
      "type": "event"
    },
    {
      "anonymous": false,
      "inputs": [
        {
          "indexed": true,
          "internalType": "address",
          "name": "previousOwner",
          "type": "address"
        },
        {
          "indexed": true,
          "internalType": "address",
          "name": "newOwner",
          "type": "address"
        }
      ],
      "name": "OwnershipTransferred",
      "type": "event"
    },
    {
      "anonymous": false,
      "inputs": [
        {
          "indexed": false,
          "internalType": "bytes32",
          "name": "assetId",
          "type": "bytes32"
        }
      ],
      "name": "RegisteredAsset",
      "type": "event"
    },
    {
      "anonymous": false,
      "inputs": [
        {
          "indexed": true,
          "internalType": "bytes32",
          "name": "assetId",
          "type": "bytes32"
        },
        {
          "indexed": true,
          "internalType": "address",
          "name": "account",
          "type": "address"
        },
        {
          "indexed": false,
          "internalType": "bytes4",
          "name": "methodSignature",
          "type": "bytes4"
        }
      ],
      "name": "RevokedAccess",
      "type": "event"
    },
    {
      "anonymous": false,
      "inputs": [
        {
          "indexed": true,
          "internalType": "bytes32",
          "name": "assetId",
          "type": "bytes32"
        },
        {
          "indexed": false,
          "internalType": "address",
          "name": "prevActor",
          "type": "address"
        },
        {
          "indexed": false,
          "internalType": "address",
          "name": "newActor",
          "type": "address"
        }
      ],
      "name": "UpdatedActor",
      "type": "event"
    },
    {
      "anonymous": false,
      "inputs": [
        {
          "indexed": false,
          "internalType": "bytes32",
          "name": "assetId",
          "type": "bytes32"
        },
        {
          "indexed": false,
          "internalType": "address",
          "name": "prevBeneficiary",
          "type": "address"
        },
        {
          "indexed": false,
          "internalType": "address",
          "name": "newBeneficiary",
          "type": "address"
        }
      ],
      "name": "UpdatedBeneficiary",
      "type": "event"
    },
    {
      "anonymous": false,
      "inputs": [
        {
          "indexed": true,
          "internalType": "bytes32",
          "name": "assetId",
          "type": "bytes32"
        },
        {
          "indexed": false,
          "internalType": "address",
          "name": "prevEngine",
          "type": "address"
        },
        {
          "indexed": false,
          "internalType": "address",
          "name": "newEngine",
          "type": "address"
        }
      ],
      "name": "UpdatedEngine",
      "type": "event"
    },
    {
      "anonymous": false,
      "inputs": [
        {
          "indexed": true,
          "internalType": "bytes32",
          "name": "assetId",
          "type": "bytes32"
        },
        {
          "indexed": false,
          "internalType": "uint256",
          "name": "statusDate",
          "type": "uint256"
        }
      ],
      "name": "UpdatedFinalizedState",
      "type": "event"
    },
    {
      "anonymous": false,
      "inputs": [
        {
          "indexed": false,
          "internalType": "bytes32",
          "name": "assetId",
          "type": "bytes32"
        },
        {
          "indexed": false,
          "internalType": "address",
          "name": "prevObligor",
          "type": "address"
        },
        {
          "indexed": false,
          "internalType": "address",
          "name": "newObligor",
          "type": "address"
        }
      ],
      "name": "UpdatedObligor",
      "type": "event"
    },
    {
      "anonymous": false,
      "inputs": [
        {
          "indexed": true,
          "internalType": "bytes32",
          "name": "assetId",
          "type": "bytes32"
        },
        {
          "indexed": false,
          "internalType": "uint256",
          "name": "statusDate",
          "type": "uint256"
        }
      ],
      "name": "UpdatedState",
      "type": "event"
    },
    {
      "anonymous": false,
      "inputs": [
        {
          "indexed": true,
          "internalType": "bytes32",
          "name": "assetId",
          "type": "bytes32"
        }
      ],
      "name": "UpdatedTerms",
      "type": "event"
    },
    {
      "inputs": [
        {
          "internalType": "address",
          "name": "actor",
          "type": "address"
        }
      ],
      "name": "approveActor",
      "outputs": [],
      "stateMutability": "nonpayable",
      "type": "function"
    },
    {
      "inputs": [
        {
          "internalType": "address",
          "name": "",
          "type": "address"
        }
      ],
      "name": "approvedActors",
      "outputs": [
        {
          "internalType": "bool",
          "name": "",
          "type": "bool"
        }
      ],
      "stateMutability": "view",
      "type": "function"
    },
    {
      "inputs": [
        {
          "internalType": "bytes32",
          "name": "_event",
          "type": "bytes32"
        }
      ],
      "name": "decodeEvent",
      "outputs": [
        {
          "internalType": "enum EventType",
          "name": "",
          "type": "uint8"
        },
        {
          "internalType": "uint256",
          "name": "",
          "type": "uint256"
        }
      ],
      "stateMutability": "pure",
      "type": "function"
    },
    {
      "inputs": [
        {
          "internalType": "enum EventType",
          "name": "eventType",
          "type": "uint8"
        },
        {
          "internalType": "uint256",
          "name": "scheduleTime",
          "type": "uint256"
        }
      ],
      "name": "encodeEvent",
      "outputs": [
        {
          "internalType": "bytes32",
          "name": "",
          "type": "bytes32"
        }
      ],
      "stateMutability": "pure",
      "type": "function"
    },
    {
      "inputs": [
        {
          "internalType": "bytes32",
          "name": "assetId",
          "type": "bytes32"
        }
      ],
      "name": "getActor",
      "outputs": [
        {
          "internalType": "address",
          "name": "",
          "type": "address"
        }
      ],
      "stateMutability": "view",
      "type": "function"
    },
    {
      "inputs": [
        {
          "internalType": "bytes32",
          "name": "assetId",
          "type": "bytes32"
        },
        {
          "internalType": "bytes32",
          "name": "attribute",
          "type": "bytes32"
        }
      ],
      "name": "getAddressValueForTermsAttribute",
      "outputs": [
        {
          "internalType": "address",
          "name": "",
          "type": "address"
        }
      ],
      "stateMutability": "view",
      "type": "function"
    },
    {
      "inputs": [
        {
          "internalType": "bytes32",
          "name": "assetId",
          "type": "bytes32"
        },
        {
          "internalType": "bytes32",
          "name": "attribute",
          "type": "bytes32"
        }
      ],
      "name": "getBytes32ValueForTermsAttribute",
      "outputs": [
        {
          "internalType": "bytes32",
          "name": "",
          "type": "bytes32"
        }
      ],
      "stateMutability": "view",
      "type": "function"
    },
    {
      "inputs": [
        {
          "internalType": "bytes32",
          "name": "assetId",
          "type": "bytes32"
        },
        {
          "internalType": "bytes32",
          "name": "attribute",
          "type": "bytes32"
        }
      ],
      "name": "getContractReferenceValueForTermsAttribute",
      "outputs": [
        {
          "components": [
            {
              "internalType": "bytes32",
              "name": "object",
              "type": "bytes32"
            },
            {
              "internalType": "bytes32",
              "name": "object2",
              "type": "bytes32"
            },
            {
              "internalType": "enum ContractReferenceType",
              "name": "_type",
              "type": "uint8"
            },
            {
              "internalType": "enum ContractReferenceRole",
              "name": "role",
              "type": "uint8"
            }
          ],
          "internalType": "struct ContractReference",
          "name": "",
          "type": "tuple"
        }
      ],
      "stateMutability": "view",
      "type": "function"
    },
    {
      "inputs": [
        {
          "internalType": "bytes32",
          "name": "assetId",
          "type": "bytes32"
        },
        {
          "internalType": "bytes32",
          "name": "attribute",
          "type": "bytes32"
        }
      ],
      "name": "getCycleValueForTermsAttribute",
      "outputs": [
        {
          "components": [
            {
              "internalType": "uint256",
              "name": "i",
              "type": "uint256"
            },
            {
              "internalType": "enum P",
              "name": "p",
              "type": "uint8"
            },
            {
              "internalType": "enum S",
              "name": "s",
              "type": "uint8"
            },
            {
              "internalType": "bool",
              "name": "isSet",
              "type": "bool"
            }
          ],
          "internalType": "struct IPS",
          "name": "",
          "type": "tuple"
        }
      ],
      "stateMutability": "view",
      "type": "function"
    },
    {
      "inputs": [
        {
          "internalType": "bytes32",
          "name": "assetId",
          "type": "bytes32"
        }
      ],
      "name": "getEngine",
      "outputs": [
        {
          "internalType": "address",
          "name": "",
          "type": "address"
        }
      ],
      "stateMutability": "view",
      "type": "function"
    },
    {
      "inputs": [
        {
          "internalType": "bytes32",
          "name": "assetId",
          "type": "bytes32"
        },
        {
          "internalType": "bytes32",
          "name": "attribute",
          "type": "bytes32"
        }
      ],
      "name": "getEnumValueForStateAttribute",
      "outputs": [
        {
          "internalType": "uint8",
          "name": "",
          "type": "uint8"
        }
      ],
      "stateMutability": "view",
      "type": "function"
    },
    {
      "inputs": [
        {
          "internalType": "bytes32",
          "name": "assetId",
          "type": "bytes32"
        },
        {
          "internalType": "bytes32",
          "name": "attribute",
          "type": "bytes32"
        }
      ],
      "name": "getEnumValueForTermsAttribute",
      "outputs": [
        {
          "internalType": "uint8",
          "name": "",
          "type": "uint8"
        }
      ],
      "stateMutability": "view",
      "type": "function"
    },
    {
      "inputs": [
        {
          "internalType": "enum EventType",
          "name": "eventType",
          "type": "uint8"
        }
      ],
      "name": "getEpochOffset",
      "outputs": [
        {
          "internalType": "uint256",
          "name": "",
          "type": "uint256"
        }
      ],
      "stateMutability": "pure",
      "type": "function"
    },
    {
      "inputs": [
        {
          "internalType": "bytes32",
          "name": "assetId",
          "type": "bytes32"
        },
        {
          "internalType": "uint256",
          "name": "index",
          "type": "uint256"
        }
      ],
      "name": "getEventAtIndex",
      "outputs": [
        {
          "internalType": "bytes32",
          "name": "",
          "type": "bytes32"
        }
      ],
      "stateMutability": "view",
      "type": "function"
    },
    {
      "inputs": [
        {
          "internalType": "bytes32",
          "name": "assetId",
          "type": "bytes32"
        }
      ],
      "name": "getExtension",
      "outputs": [
        {
          "internalType": "address",
          "name": "",
          "type": "address"
        }
      ],
      "stateMutability": "view",
      "type": "function"
    },
    {
      "inputs": [
        {
          "internalType": "bytes32",
          "name": "assetId",
          "type": "bytes32"
        }
      ],
      "name": "getFinalizedState",
      "outputs": [
        {
          "components": [
            {
              "internalType": "enum ContractPerformance",
              "name": "contractPerformance",
              "type": "uint8"
            },
            {
              "internalType": "uint256",
              "name": "statusDate",
              "type": "uint256"
            },
            {
              "internalType": "uint256",
              "name": "nonPerformingDate",
              "type": "uint256"
            },
            {
              "internalType": "uint256",
              "name": "maturityDate",
              "type": "uint256"
            },
            {
              "internalType": "uint256",
              "name": "exerciseDate",
              "type": "uint256"
            },
            {
              "internalType": "uint256",
              "name": "terminationDate",
              "type": "uint256"
            },
            {
              "internalType": "uint256",
              "name": "lastCouponFixingDate",
              "type": "uint256"
            },
            {
              "internalType": "uint256",
              "name": "lastDividendFixingDate",
              "type": "uint256"
            },
            {
              "internalType": "int256",
              "name": "notionalPrincipal",
              "type": "int256"
            },
            {
              "internalType": "int256",
              "name": "accruedInterest",
              "type": "int256"
            },
            {
              "internalType": "int256",
              "name": "feeAccrued",
              "type": "int256"
            },
            {
              "internalType": "int256",
              "name": "nominalInterestRate",
              "type": "int256"
            },
            {
              "internalType": "int256",
              "name": "interestScalingMultiplier",
              "type": "int256"
            },
            {
              "internalType": "int256",
              "name": "notionalScalingMultiplier",
              "type": "int256"
            },
            {
              "internalType": "int256",
              "name": "nextPrincipalRedemptionPayment",
              "type": "int256"
            },
            {
              "internalType": "int256",
              "name": "exerciseAmount",
              "type": "int256"
            },
            {
              "internalType": "int256",
              "name": "exerciseQuantity",
              "type": "int256"
            },
            {
              "internalType": "int256",
              "name": "quantity",
              "type": "int256"
            },
            {
              "internalType": "int256",
              "name": "couponAmountFixed",
              "type": "int256"
            },
            {
              "internalType": "int256",
              "name": "marginFactor",
              "type": "int256"
            },
            {
              "internalType": "int256",
              "name": "adjustmentFactor",
              "type": "int256"
            },
            {
              "internalType": "int256",
              "name": "dividendPaymentAmount",
              "type": "int256"
            },
            {
              "internalType": "int256",
              "name": "splitRatio",
              "type": "int256"
            }
          ],
          "internalType": "struct State",
          "name": "",
          "type": "tuple"
        }
      ],
      "stateMutability": "view",
      "type": "function"
    },
    {
      "inputs": [
        {
          "internalType": "bytes32",
          "name": "assetId",
          "type": "bytes32"
        },
        {
          "internalType": "bytes32",
          "name": "attribute",
          "type": "bytes32"
        }
      ],
      "name": "getIntValueForStateAttribute",
      "outputs": [
        {
          "internalType": "int256",
          "name": "",
          "type": "int256"
        }
      ],
      "stateMutability": "view",
      "type": "function"
    },
    {
      "inputs": [
        {
          "internalType": "bytes32",
          "name": "assetId",
          "type": "bytes32"
        },
        {
          "internalType": "bytes32",
          "name": "attribute",
          "type": "bytes32"
        }
      ],
      "name": "getIntValueForTermsAttribute",
      "outputs": [
        {
          "internalType": "int256",
          "name": "",
          "type": "int256"
        }
      ],
      "stateMutability": "view",
      "type": "function"
    },
    {
      "inputs": [
        {
          "internalType": "bytes32",
          "name": "assetId",
          "type": "bytes32"
        }
      ],
      "name": "getNextScheduleIndex",
      "outputs": [
        {
          "internalType": "uint256",
          "name": "",
          "type": "uint256"
        }
      ],
      "stateMutability": "view",
      "type": "function"
    },
    {
      "inputs": [
        {
          "internalType": "bytes32",
          "name": "assetId",
          "type": "bytes32"
        }
      ],
      "name": "getNextScheduledEvent",
      "outputs": [
        {
          "internalType": "bytes32",
          "name": "",
          "type": "bytes32"
        }
      ],
      "stateMutability": "view",
      "type": "function"
    },
    {
      "inputs": [
        {
          "internalType": "bytes32",
          "name": "assetId",
          "type": "bytes32"
        }
      ],
      "name": "getNextUnderlyingEvent",
      "outputs": [
        {
          "internalType": "bytes32",
          "name": "",
          "type": "bytes32"
        }
      ],
      "stateMutability": "view",
      "type": "function"
    },
    {
      "inputs": [
        {
          "internalType": "bytes32",
          "name": "assetId",
          "type": "bytes32"
        }
      ],
      "name": "getOwnership",
      "outputs": [
        {
          "components": [
            {
              "internalType": "address",
              "name": "creatorObligor",
              "type": "address"
            },
            {
              "internalType": "address",
              "name": "creatorBeneficiary",
              "type": "address"
            },
            {
              "internalType": "address",
              "name": "counterpartyObligor",
              "type": "address"
            },
            {
              "internalType": "address",
              "name": "counterpartyBeneficiary",
              "type": "address"
            }
          ],
          "internalType": "struct AssetOwnership",
          "name": "",
          "type": "tuple"
        }
      ],
      "stateMutability": "view",
      "type": "function"
    },
    {
      "inputs": [
        {
          "internalType": "bytes32",
          "name": "assetId",
          "type": "bytes32"
        }
      ],
      "name": "getPendingEvent",
      "outputs": [
        {
          "internalType": "bytes32",
          "name": "",
          "type": "bytes32"
        }
      ],
      "stateMutability": "view",
      "type": "function"
    },
    {
      "inputs": [
        {
          "internalType": "bytes32",
          "name": "assetId",
          "type": "bytes32"
        },
        {
          "internalType": "bytes32",
          "name": "attribute",
          "type": "bytes32"
        }
      ],
      "name": "getPeriodValueForTermsAttribute",
      "outputs": [
        {
          "components": [
            {
              "internalType": "uint256",
              "name": "i",
              "type": "uint256"
            },
            {
              "internalType": "enum P",
              "name": "p",
              "type": "uint8"
            },
            {
              "internalType": "bool",
              "name": "isSet",
              "type": "bool"
            }
          ],
          "internalType": "struct IP",
          "name": "",
          "type": "tuple"
        }
      ],
      "stateMutability": "view",
      "type": "function"
    },
    {
      "inputs": [
        {
          "internalType": "bytes32",
          "name": "assetId",
          "type": "bytes32"
        }
      ],
      "name": "getSchedule",
      "outputs": [
        {
          "internalType": "bytes32[]",
          "name": "",
          "type": "bytes32[]"
        }
      ],
      "stateMutability": "view",
      "type": "function"
    },
    {
      "inputs": [
        {
          "internalType": "bytes32",
          "name": "assetId",
          "type": "bytes32"
        }
      ],
      "name": "getScheduleLength",
      "outputs": [
        {
          "internalType": "uint256",
          "name": "",
          "type": "uint256"
        }
      ],
      "stateMutability": "view",
      "type": "function"
    },
    {
      "inputs": [
        {
          "internalType": "bytes32",
          "name": "assetId",
          "type": "bytes32"
        }
      ],
      "name": "getState",
      "outputs": [
        {
          "components": [
            {
              "internalType": "enum ContractPerformance",
              "name": "contractPerformance",
              "type": "uint8"
            },
            {
              "internalType": "uint256",
              "name": "statusDate",
              "type": "uint256"
            },
            {
              "internalType": "uint256",
              "name": "nonPerformingDate",
              "type": "uint256"
            },
            {
              "internalType": "uint256",
              "name": "maturityDate",
              "type": "uint256"
            },
            {
              "internalType": "uint256",
              "name": "exerciseDate",
              "type": "uint256"
            },
            {
              "internalType": "uint256",
              "name": "terminationDate",
              "type": "uint256"
            },
            {
              "internalType": "uint256",
              "name": "lastCouponFixingDate",
              "type": "uint256"
            },
            {
              "internalType": "uint256",
              "name": "lastDividendFixingDate",
              "type": "uint256"
            },
            {
              "internalType": "int256",
              "name": "notionalPrincipal",
              "type": "int256"
            },
            {
              "internalType": "int256",
              "name": "accruedInterest",
              "type": "int256"
            },
            {
              "internalType": "int256",
              "name": "feeAccrued",
              "type": "int256"
            },
            {
              "internalType": "int256",
              "name": "nominalInterestRate",
              "type": "int256"
            },
            {
              "internalType": "int256",
              "name": "interestScalingMultiplier",
              "type": "int256"
            },
            {
              "internalType": "int256",
              "name": "notionalScalingMultiplier",
              "type": "int256"
            },
            {
              "internalType": "int256",
              "name": "nextPrincipalRedemptionPayment",
              "type": "int256"
            },
            {
              "internalType": "int256",
              "name": "exerciseAmount",
              "type": "int256"
            },
            {
              "internalType": "int256",
              "name": "exerciseQuantity",
              "type": "int256"
            },
            {
              "internalType": "int256",
              "name": "quantity",
              "type": "int256"
            },
            {
              "internalType": "int256",
              "name": "couponAmountFixed",
              "type": "int256"
            },
            {
              "internalType": "int256",
              "name": "marginFactor",
              "type": "int256"
            },
            {
              "internalType": "int256",
              "name": "adjustmentFactor",
              "type": "int256"
            },
            {
              "internalType": "int256",
              "name": "dividendPaymentAmount",
              "type": "int256"
            },
            {
              "internalType": "int256",
              "name": "splitRatio",
              "type": "int256"
            }
          ],
          "internalType": "struct State",
          "name": "",
          "type": "tuple"
        }
      ],
      "stateMutability": "view",
      "type": "function"
    },
    {
      "inputs": [
        {
          "internalType": "bytes32",
          "name": "assetId",
          "type": "bytes32"
        }
      ],
      "name": "getTerms",
      "outputs": [
        {
          "components": [
            {
              "internalType": "enum ContractType",
              "name": "contractType",
              "type": "uint8"
            },
            {
              "internalType": "enum Calendar",
              "name": "calendar",
              "type": "uint8"
            },
            {
              "internalType": "enum ContractRole",
              "name": "contractRole",
              "type": "uint8"
            },
            {
              "internalType": "enum DayCountConvention",
              "name": "dayCountConvention",
              "type": "uint8"
            },
            {
              "internalType": "enum BusinessDayConvention",
              "name": "businessDayConvention",
              "type": "uint8"
            },
            {
              "internalType": "enum EndOfMonthConvention",
              "name": "endOfMonthConvention",
              "type": "uint8"
            },
            {
              "internalType": "enum ScalingEffect",
              "name": "scalingEffect",
              "type": "uint8"
            },
            {
              "internalType": "enum FeeBasis",
              "name": "feeBasis",
              "type": "uint8"
            },
            {
              "internalType": "address",
              "name": "currency",
              "type": "address"
            },
            {
              "internalType": "address",
              "name": "settlementCurrency",
              "type": "address"
            },
            {
              "internalType": "bytes32",
              "name": "marketObjectCodeRateReset",
              "type": "bytes32"
            },
            {
              "internalType": "uint256",
              "name": "statusDate",
              "type": "uint256"
            },
            {
              "internalType": "uint256",
              "name": "initialExchangeDate",
              "type": "uint256"
            },
            {
              "internalType": "uint256",
              "name": "maturityDate",
              "type": "uint256"
            },
            {
              "internalType": "uint256",
              "name": "issueDate",
              "type": "uint256"
            },
            {
              "internalType": "uint256",
              "name": "purchaseDate",
              "type": "uint256"
            },
            {
              "internalType": "uint256",
              "name": "capitalizationEndDate",
              "type": "uint256"
            },
            {
              "internalType": "uint256",
              "name": "cycleAnchorDateOfInterestPayment",
              "type": "uint256"
            },
            {
              "internalType": "uint256",
              "name": "cycleAnchorDateOfRateReset",
              "type": "uint256"
            },
            {
              "internalType": "uint256",
              "name": "cycleAnchorDateOfScalingIndex",
              "type": "uint256"
            },
            {
              "internalType": "uint256",
              "name": "cycleAnchorDateOfFee",
              "type": "uint256"
            },
            {
              "internalType": "int256",
              "name": "notionalPrincipal",
              "type": "int256"
            },
            {
              "internalType": "int256",
              "name": "nominalInterestRate",
              "type": "int256"
            },
            {
              "internalType": "int256",
              "name": "accruedInterest",
              "type": "int256"
            },
            {
              "internalType": "int256",
              "name": "rateMultiplier",
              "type": "int256"
            },
            {
              "internalType": "int256",
              "name": "rateSpread",
              "type": "int256"
            },
            {
              "internalType": "int256",
              "name": "nextResetRate",
              "type": "int256"
            },
            {
              "internalType": "int256",
              "name": "feeRate",
              "type": "int256"
            },
            {
              "internalType": "int256",
              "name": "feeAccrued",
              "type": "int256"
            },
            {
              "internalType": "int256",
              "name": "premiumDiscountAtIED",
              "type": "int256"
            },
            {
              "internalType": "int256",
              "name": "priceAtPurchaseDate",
              "type": "int256"
            },
            {
              "internalType": "int256",
              "name": "priceAtTerminationDate",
              "type": "int256"
            },
            {
              "internalType": "int256",
              "name": "lifeCap",
              "type": "int256"
            },
            {
              "internalType": "int256",
              "name": "lifeFloor",
              "type": "int256"
            },
            {
              "internalType": "int256",
              "name": "periodCap",
              "type": "int256"
            },
            {
              "internalType": "int256",
              "name": "periodFloor",
              "type": "int256"
            },
            {
              "components": [
                {
                  "internalType": "uint256",
                  "name": "i",
                  "type": "uint256"
                },
                {
                  "internalType": "enum P",
                  "name": "p",
                  "type": "uint8"
                },
                {
                  "internalType": "bool",
                  "name": "isSet",
                  "type": "bool"
                }
              ],
              "internalType": "struct IP",
              "name": "gracePeriod",
              "type": "tuple"
            },
            {
              "components": [
                {
                  "internalType": "uint256",
                  "name": "i",
                  "type": "uint256"
                },
                {
                  "internalType": "enum P",
                  "name": "p",
                  "type": "uint8"
                },
                {
                  "internalType": "bool",
                  "name": "isSet",
                  "type": "bool"
                }
              ],
              "internalType": "struct IP",
              "name": "delinquencyPeriod",
              "type": "tuple"
            },
            {
              "components": [
                {
                  "internalType": "uint256",
                  "name": "i",
                  "type": "uint256"
                },
                {
                  "internalType": "enum P",
                  "name": "p",
                  "type": "uint8"
                },
                {
                  "internalType": "enum S",
                  "name": "s",
                  "type": "uint8"
                },
                {
                  "internalType": "bool",
                  "name": "isSet",
                  "type": "bool"
                }
              ],
              "internalType": "struct IPS",
              "name": "cycleOfInterestPayment",
              "type": "tuple"
            },
            {
              "components": [
                {
                  "internalType": "uint256",
                  "name": "i",
                  "type": "uint256"
                },
                {
                  "internalType": "enum P",
                  "name": "p",
                  "type": "uint8"
                },
                {
                  "internalType": "enum S",
                  "name": "s",
                  "type": "uint8"
                },
                {
                  "internalType": "bool",
                  "name": "isSet",
                  "type": "bool"
                }
              ],
              "internalType": "struct IPS",
              "name": "cycleOfRateReset",
              "type": "tuple"
            },
            {
              "components": [
                {
                  "internalType": "uint256",
                  "name": "i",
                  "type": "uint256"
                },
                {
                  "internalType": "enum P",
                  "name": "p",
                  "type": "uint8"
                },
                {
                  "internalType": "enum S",
                  "name": "s",
                  "type": "uint8"
                },
                {
                  "internalType": "bool",
                  "name": "isSet",
                  "type": "bool"
                }
              ],
              "internalType": "struct IPS",
              "name": "cycleOfScalingIndex",
              "type": "tuple"
            },
            {
              "components": [
                {
                  "internalType": "uint256",
                  "name": "i",
                  "type": "uint256"
                },
                {
                  "internalType": "enum P",
                  "name": "p",
                  "type": "uint8"
                },
                {
                  "internalType": "enum S",
                  "name": "s",
                  "type": "uint8"
                },
                {
                  "internalType": "bool",
                  "name": "isSet",
                  "type": "bool"
                }
              ],
              "internalType": "struct IPS",
              "name": "cycleOfFee",
              "type": "tuple"
            }
          ],
          "internalType": "struct PAMTerms",
          "name": "",
          "type": "tuple"
        }
      ],
      "stateMutability": "view",
      "type": "function"
    },
    {
      "inputs": [
        {
          "internalType": "bytes32",
          "name": "assetId",
          "type": "bytes32"
        },
        {
          "internalType": "bytes32",
          "name": "attribute",
          "type": "bytes32"
        }
      ],
      "name": "getUIntValueForTermsAttribute",
      "outputs": [
        {
          "internalType": "uint256",
          "name": "",
          "type": "uint256"
        }
      ],
      "stateMutability": "view",
      "type": "function"
    },
    {
      "inputs": [
        {
          "internalType": "bytes32",
          "name": "assetId",
          "type": "bytes32"
        },
        {
          "internalType": "bytes32",
          "name": "attribute",
          "type": "bytes32"
        }
      ],
      "name": "getUintValueForStateAttribute",
      "outputs": [
        {
          "internalType": "uint256",
          "name": "",
          "type": "uint256"
        }
      ],
      "stateMutability": "view",
      "type": "function"
    },
    {
      "inputs": [
        {
          "internalType": "bytes32",
          "name": "assetId",
          "type": "bytes32"
        },
        {
          "internalType": "bytes4",
          "name": "methodSignature",
          "type": "bytes4"
        },
        {
          "internalType": "address",
          "name": "account",
          "type": "address"
        }
      ],
      "name": "grantAccess",
      "outputs": [],
      "stateMutability": "nonpayable",
      "type": "function"
    },
    {
      "inputs": [
        {
          "internalType": "bytes32",
          "name": "assetId",
          "type": "bytes32"
        },
        {
          "internalType": "bytes4",
          "name": "methodSignature",
          "type": "bytes4"
        },
        {
          "internalType": "address",
          "name": "account",
          "type": "address"
        }
      ],
      "name": "hasAccess",
      "outputs": [
        {
          "internalType": "bool",
          "name": "",
          "type": "bool"
        }
      ],
      "stateMutability": "view",
      "type": "function"
    },
    {
      "inputs": [
        {
          "internalType": "bytes32",
          "name": "assetId",
          "type": "bytes32"
        },
        {
          "internalType": "address",
          "name": "account",
          "type": "address"
        }
      ],
      "name": "hasRootAccess",
      "outputs": [
        {
          "internalType": "bool",
          "name": "",
          "type": "bool"
        }
      ],
      "stateMutability": "view",
      "type": "function"
    },
    {
      "inputs": [
        {
          "internalType": "bytes32",
          "name": "assetId",
          "type": "bytes32"
        },
        {
          "internalType": "bytes32",
          "name": "_event",
          "type": "bytes32"
        }
      ],
      "name": "isEventSettled",
      "outputs": [
        {
          "internalType": "bool",
          "name": "",
          "type": "bool"
        },
        {
          "internalType": "int256",
          "name": "",
          "type": "int256"
        }
      ],
      "stateMutability": "view",
      "type": "function"
    },
    {
      "inputs": [
        {
          "internalType": "bytes32",
          "name": "assetId",
          "type": "bytes32"
        }
      ],
      "name": "isRegistered",
      "outputs": [
        {
          "internalType": "bool",
          "name": "",
          "type": "bool"
        }
      ],
      "stateMutability": "view",
      "type": "function"
    },
    {
      "inputs": [
        {
          "internalType": "bytes32",
          "name": "assetId",
          "type": "bytes32"
        },
        {
          "internalType": "bytes32",
          "name": "_event",
          "type": "bytes32"
        },
        {
          "internalType": "int256",
          "name": "_payoff",
          "type": "int256"
        }
      ],
      "name": "markEventAsSettled",
      "outputs": [],
      "stateMutability": "nonpayable",
      "type": "function"
    },
    {
      "inputs": [],
      "name": "owner",
      "outputs": [
        {
          "internalType": "address",
          "name": "",
          "type": "address"
        }
      ],
      "stateMutability": "view",
      "type": "function"
    },
    {
      "inputs": [
        {
          "internalType": "bytes32",
          "name": "assetId",
          "type": "bytes32"
        }
      ],
      "name": "popNextScheduledEvent",
      "outputs": [
        {
          "internalType": "bytes32",
          "name": "",
          "type": "bytes32"
        }
      ],
      "stateMutability": "nonpayable",
      "type": "function"
    },
    {
      "inputs": [
        {
          "internalType": "bytes32",
          "name": "assetId",
          "type": "bytes32"
        }
      ],
      "name": "popPendingEvent",
      "outputs": [
        {
          "internalType": "bytes32",
          "name": "",
          "type": "bytes32"
        }
      ],
      "stateMutability": "nonpayable",
      "type": "function"
    },
    {
      "inputs": [
        {
          "internalType": "bytes32",
          "name": "assetId",
          "type": "bytes32"
        },
        {
          "internalType": "bytes32",
          "name": "pendingEvent",
          "type": "bytes32"
        }
      ],
      "name": "pushPendingEvent",
      "outputs": [],
      "stateMutability": "nonpayable",
      "type": "function"
    },
    {
      "inputs": [
        {
          "internalType": "bytes32",
          "name": "assetId",
          "type": "bytes32"
        },
        {
          "components": [
            {
              "internalType": "enum ContractType",
              "name": "contractType",
              "type": "uint8"
            },
            {
              "internalType": "enum Calendar",
              "name": "calendar",
              "type": "uint8"
            },
            {
              "internalType": "enum ContractRole",
              "name": "contractRole",
              "type": "uint8"
            },
            {
              "internalType": "enum DayCountConvention",
              "name": "dayCountConvention",
              "type": "uint8"
            },
            {
              "internalType": "enum BusinessDayConvention",
              "name": "businessDayConvention",
              "type": "uint8"
            },
            {
              "internalType": "enum EndOfMonthConvention",
              "name": "endOfMonthConvention",
              "type": "uint8"
            },
            {
              "internalType": "enum ScalingEffect",
              "name": "scalingEffect",
              "type": "uint8"
            },
            {
              "internalType": "enum FeeBasis",
              "name": "feeBasis",
              "type": "uint8"
            },
            {
              "internalType": "address",
              "name": "currency",
              "type": "address"
            },
            {
              "internalType": "address",
              "name": "settlementCurrency",
              "type": "address"
            },
            {
              "internalType": "bytes32",
              "name": "marketObjectCodeRateReset",
              "type": "bytes32"
            },
            {
              "internalType": "uint256",
              "name": "statusDate",
              "type": "uint256"
            },
            {
              "internalType": "uint256",
              "name": "initialExchangeDate",
              "type": "uint256"
            },
            {
              "internalType": "uint256",
              "name": "maturityDate",
              "type": "uint256"
            },
            {
              "internalType": "uint256",
              "name": "issueDate",
              "type": "uint256"
            },
            {
              "internalType": "uint256",
              "name": "purchaseDate",
              "type": "uint256"
            },
            {
              "internalType": "uint256",
              "name": "capitalizationEndDate",
              "type": "uint256"
            },
            {
              "internalType": "uint256",
              "name": "cycleAnchorDateOfInterestPayment",
              "type": "uint256"
            },
            {
              "internalType": "uint256",
              "name": "cycleAnchorDateOfRateReset",
              "type": "uint256"
            },
            {
              "internalType": "uint256",
              "name": "cycleAnchorDateOfScalingIndex",
              "type": "uint256"
            },
            {
              "internalType": "uint256",
              "name": "cycleAnchorDateOfFee",
              "type": "uint256"
            },
            {
              "internalType": "int256",
              "name": "notionalPrincipal",
              "type": "int256"
            },
            {
              "internalType": "int256",
              "name": "nominalInterestRate",
              "type": "int256"
            },
            {
              "internalType": "int256",
              "name": "accruedInterest",
              "type": "int256"
            },
            {
              "internalType": "int256",
              "name": "rateMultiplier",
              "type": "int256"
            },
            {
              "internalType": "int256",
              "name": "rateSpread",
              "type": "int256"
            },
            {
              "internalType": "int256",
              "name": "nextResetRate",
              "type": "int256"
            },
            {
              "internalType": "int256",
              "name": "feeRate",
              "type": "int256"
            },
            {
              "internalType": "int256",
              "name": "feeAccrued",
              "type": "int256"
            },
            {
              "internalType": "int256",
              "name": "premiumDiscountAtIED",
              "type": "int256"
            },
            {
              "internalType": "int256",
              "name": "priceAtPurchaseDate",
              "type": "int256"
            },
            {
              "internalType": "int256",
              "name": "priceAtTerminationDate",
              "type": "int256"
            },
            {
              "internalType": "int256",
              "name": "lifeCap",
              "type": "int256"
            },
            {
              "internalType": "int256",
              "name": "lifeFloor",
              "type": "int256"
            },
            {
              "internalType": "int256",
              "name": "periodCap",
              "type": "int256"
            },
            {
              "internalType": "int256",
              "name": "periodFloor",
              "type": "int256"
            },
            {
              "components": [
                {
                  "internalType": "uint256",
                  "name": "i",
                  "type": "uint256"
                },
                {
                  "internalType": "enum P",
                  "name": "p",
                  "type": "uint8"
                },
                {
                  "internalType": "bool",
                  "name": "isSet",
                  "type": "bool"
                }
              ],
              "internalType": "struct IP",
              "name": "gracePeriod",
              "type": "tuple"
            },
            {
              "components": [
                {
                  "internalType": "uint256",
                  "name": "i",
                  "type": "uint256"
                },
                {
                  "internalType": "enum P",
                  "name": "p",
                  "type": "uint8"
                },
                {
                  "internalType": "bool",
                  "name": "isSet",
                  "type": "bool"
                }
              ],
              "internalType": "struct IP",
              "name": "delinquencyPeriod",
              "type": "tuple"
            },
            {
              "components": [
                {
                  "internalType": "uint256",
                  "name": "i",
                  "type": "uint256"
                },
                {
                  "internalType": "enum P",
                  "name": "p",
                  "type": "uint8"
                },
                {
                  "internalType": "enum S",
                  "name": "s",
                  "type": "uint8"
                },
                {
                  "internalType": "bool",
                  "name": "isSet",
                  "type": "bool"
                }
              ],
              "internalType": "struct IPS",
              "name": "cycleOfInterestPayment",
              "type": "tuple"
            },
            {
              "components": [
                {
                  "internalType": "uint256",
                  "name": "i",
                  "type": "uint256"
                },
                {
                  "internalType": "enum P",
                  "name": "p",
                  "type": "uint8"
                },
                {
                  "internalType": "enum S",
                  "name": "s",
                  "type": "uint8"
                },
                {
                  "internalType": "bool",
                  "name": "isSet",
                  "type": "bool"
                }
              ],
              "internalType": "struct IPS",
              "name": "cycleOfRateReset",
              "type": "tuple"
            },
            {
              "components": [
                {
                  "internalType": "uint256",
                  "name": "i",
                  "type": "uint256"
                },
                {
                  "internalType": "enum P",
                  "name": "p",
                  "type": "uint8"
                },
                {
                  "internalType": "enum S",
                  "name": "s",
                  "type": "uint8"
                },
                {
                  "internalType": "bool",
                  "name": "isSet",
                  "type": "bool"
                }
              ],
              "internalType": "struct IPS",
              "name": "cycleOfScalingIndex",
              "type": "tuple"
            },
            {
              "components": [
                {
                  "internalType": "uint256",
                  "name": "i",
                  "type": "uint256"
                },
                {
                  "internalType": "enum P",
                  "name": "p",
                  "type": "uint8"
                },
                {
                  "internalType": "enum S",
                  "name": "s",
                  "type": "uint8"
                },
                {
                  "internalType": "bool",
                  "name": "isSet",
                  "type": "bool"
                }
              ],
              "internalType": "struct IPS",
              "name": "cycleOfFee",
              "type": "tuple"
            }
          ],
          "internalType": "struct PAMTerms",
          "name": "terms",
          "type": "tuple"
        },
        {
          "components": [
            {
              "internalType": "enum ContractPerformance",
              "name": "contractPerformance",
              "type": "uint8"
            },
            {
              "internalType": "uint256",
              "name": "statusDate",
              "type": "uint256"
            },
            {
              "internalType": "uint256",
              "name": "nonPerformingDate",
              "type": "uint256"
            },
            {
              "internalType": "uint256",
              "name": "maturityDate",
              "type": "uint256"
            },
            {
              "internalType": "uint256",
              "name": "exerciseDate",
              "type": "uint256"
            },
            {
              "internalType": "uint256",
              "name": "terminationDate",
              "type": "uint256"
            },
            {
              "internalType": "uint256",
              "name": "lastCouponFixingDate",
              "type": "uint256"
            },
            {
              "internalType": "uint256",
              "name": "lastDividendFixingDate",
              "type": "uint256"
            },
            {
              "internalType": "int256",
              "name": "notionalPrincipal",
              "type": "int256"
            },
            {
              "internalType": "int256",
              "name": "accruedInterest",
              "type": "int256"
            },
            {
              "internalType": "int256",
              "name": "feeAccrued",
              "type": "int256"
            },
            {
              "internalType": "int256",
              "name": "nominalInterestRate",
              "type": "int256"
            },
            {
              "internalType": "int256",
              "name": "interestScalingMultiplier",
              "type": "int256"
            },
            {
              "internalType": "int256",
              "name": "notionalScalingMultiplier",
              "type": "int256"
            },
            {
              "internalType": "int256",
              "name": "nextPrincipalRedemptionPayment",
              "type": "int256"
            },
            {
              "internalType": "int256",
              "name": "exerciseAmount",
              "type": "int256"
            },
            {
              "internalType": "int256",
              "name": "exerciseQuantity",
              "type": "int256"
            },
            {
              "internalType": "int256",
              "name": "quantity",
              "type": "int256"
            },
            {
              "internalType": "int256",
              "name": "couponAmountFixed",
              "type": "int256"
            },
            {
              "internalType": "int256",
              "name": "marginFactor",
              "type": "int256"
            },
            {
              "internalType": "int256",
              "name": "adjustmentFactor",
              "type": "int256"
            },
            {
              "internalType": "int256",
              "name": "dividendPaymentAmount",
              "type": "int256"
            },
            {
              "internalType": "int256",
              "name": "splitRatio",
              "type": "int256"
            }
          ],
          "internalType": "struct State",
          "name": "state",
          "type": "tuple"
        },
        {
          "internalType": "bytes32[]",
          "name": "schedule",
          "type": "bytes32[]"
        },
        {
          "components": [
            {
              "internalType": "address",
              "name": "creatorObligor",
              "type": "address"
            },
            {
              "internalType": "address",
              "name": "creatorBeneficiary",
              "type": "address"
            },
            {
              "internalType": "address",
              "name": "counterpartyObligor",
              "type": "address"
            },
            {
              "internalType": "address",
              "name": "counterpartyBeneficiary",
              "type": "address"
            }
          ],
          "internalType": "struct AssetOwnership",
          "name": "ownership",
          "type": "tuple"
        },
        {
          "internalType": "address",
          "name": "engine",
          "type": "address"
        },
        {
          "internalType": "address",
          "name": "actor",
          "type": "address"
        },
        {
          "internalType": "address",
          "name": "admin",
          "type": "address"
        },
        {
          "internalType": "address",
          "name": "extension",
          "type": "address"
        }
      ],
      "name": "registerAsset",
      "outputs": [],
      "stateMutability": "nonpayable",
      "type": "function"
    },
    {
      "inputs": [],
      "name": "renounceOwnership",
      "outputs": [],
      "stateMutability": "nonpayable",
      "type": "function"
    },
    {
      "inputs": [
        {
          "internalType": "bytes32",
          "name": "assetId",
          "type": "bytes32"
        },
        {
          "internalType": "bytes4",
          "name": "methodSignature",
          "type": "bytes4"
        },
        {
          "internalType": "address",
          "name": "account",
          "type": "address"
        }
      ],
      "name": "revokeAccess",
      "outputs": [],
      "stateMutability": "nonpayable",
      "type": "function"
    },
    {
      "inputs": [
        {
          "internalType": "bytes32",
          "name": "assetId",
          "type": "bytes32"
        },
        {
          "internalType": "address",
          "name": "actor",
          "type": "address"
        }
      ],
      "name": "setActor",
      "outputs": [],
      "stateMutability": "nonpayable",
      "type": "function"
    },
    {
      "inputs": [
        {
          "internalType": "bytes32",
          "name": "assetId",
          "type": "bytes32"
        },
        {
          "internalType": "address",
          "name": "newCounterpartyBeneficiary",
          "type": "address"
        }
      ],
      "name": "setCounterpartyBeneficiary",
      "outputs": [],
      "stateMutability": "nonpayable",
      "type": "function"
    },
    {
      "inputs": [
        {
          "internalType": "bytes32",
          "name": "assetId",
          "type": "bytes32"
        },
        {
          "internalType": "address",
          "name": "newCounterpartyObligor",
          "type": "address"
        }
      ],
      "name": "setCounterpartyObligor",
      "outputs": [],
      "stateMutability": "nonpayable",
      "type": "function"
    },
    {
      "inputs": [
        {
          "internalType": "bytes32",
          "name": "assetId",
          "type": "bytes32"
        },
        {
          "internalType": "address",
          "name": "newCreatorBeneficiary",
          "type": "address"
        }
      ],
      "name": "setCreatorBeneficiary",
      "outputs": [],
      "stateMutability": "nonpayable",
      "type": "function"
    },
    {
      "inputs": [
        {
          "internalType": "bytes32",
          "name": "assetId",
          "type": "bytes32"
        },
        {
          "internalType": "address",
          "name": "newCreatorObligor",
          "type": "address"
        }
      ],
      "name": "setCreatorObligor",
      "outputs": [],
      "stateMutability": "nonpayable",
      "type": "function"
    },
    {
      "inputs": [
        {
          "internalType": "bytes32",
          "name": "assetId",
          "type": "bytes32"
        },
        {
          "internalType": "address",
          "name": "engine",
          "type": "address"
        }
      ],
      "name": "setEngine",
      "outputs": [],
      "stateMutability": "nonpayable",
      "type": "function"
    },
    {
      "inputs": [
        {
          "internalType": "bytes32",
          "name": "assetId",
          "type": "bytes32"
        },
        {
          "internalType": "address",
          "name": "extension",
          "type": "address"
        }
      ],
      "name": "setExtension",
      "outputs": [],
      "stateMutability": "nonpayable",
      "type": "function"
    },
    {
      "inputs": [
        {
          "internalType": "bytes32",
          "name": "assetId",
          "type": "bytes32"
        },
        {
          "components": [
            {
              "internalType": "enum ContractPerformance",
              "name": "contractPerformance",
              "type": "uint8"
            },
            {
              "internalType": "uint256",
              "name": "statusDate",
              "type": "uint256"
            },
            {
              "internalType": "uint256",
              "name": "nonPerformingDate",
              "type": "uint256"
            },
            {
              "internalType": "uint256",
              "name": "maturityDate",
              "type": "uint256"
            },
            {
              "internalType": "uint256",
              "name": "exerciseDate",
              "type": "uint256"
            },
            {
              "internalType": "uint256",
              "name": "terminationDate",
              "type": "uint256"
            },
            {
              "internalType": "uint256",
              "name": "lastCouponFixingDate",
              "type": "uint256"
            },
            {
              "internalType": "uint256",
              "name": "lastDividendFixingDate",
              "type": "uint256"
            },
            {
              "internalType": "int256",
              "name": "notionalPrincipal",
              "type": "int256"
            },
            {
              "internalType": "int256",
              "name": "accruedInterest",
              "type": "int256"
            },
            {
              "internalType": "int256",
              "name": "feeAccrued",
              "type": "int256"
            },
            {
              "internalType": "int256",
              "name": "nominalInterestRate",
              "type": "int256"
            },
            {
              "internalType": "int256",
              "name": "interestScalingMultiplier",
              "type": "int256"
            },
            {
              "internalType": "int256",
              "name": "notionalScalingMultiplier",
              "type": "int256"
            },
            {
              "internalType": "int256",
              "name": "nextPrincipalRedemptionPayment",
              "type": "int256"
            },
            {
              "internalType": "int256",
              "name": "exerciseAmount",
              "type": "int256"
            },
            {
              "internalType": "int256",
              "name": "exerciseQuantity",
              "type": "int256"
            },
            {
              "internalType": "int256",
              "name": "quantity",
              "type": "int256"
            },
            {
              "internalType": "int256",
              "name": "couponAmountFixed",
              "type": "int256"
            },
            {
              "internalType": "int256",
              "name": "marginFactor",
              "type": "int256"
            },
            {
              "internalType": "int256",
              "name": "adjustmentFactor",
              "type": "int256"
            },
            {
              "internalType": "int256",
              "name": "dividendPaymentAmount",
              "type": "int256"
            },
            {
              "internalType": "int256",
              "name": "splitRatio",
              "type": "int256"
            }
          ],
          "internalType": "struct State",
          "name": "state",
          "type": "tuple"
        }
      ],
      "name": "setFinalizedState",
      "outputs": [],
      "stateMutability": "nonpayable",
      "type": "function"
    },
    {
      "inputs": [
        {
          "internalType": "bytes32",
          "name": "assetId",
          "type": "bytes32"
        },
        {
          "components": [
            {
              "internalType": "enum ContractPerformance",
              "name": "contractPerformance",
              "type": "uint8"
            },
            {
              "internalType": "uint256",
              "name": "statusDate",
              "type": "uint256"
            },
            {
              "internalType": "uint256",
              "name": "nonPerformingDate",
              "type": "uint256"
            },
            {
              "internalType": "uint256",
              "name": "maturityDate",
              "type": "uint256"
            },
            {
              "internalType": "uint256",
              "name": "exerciseDate",
              "type": "uint256"
            },
            {
              "internalType": "uint256",
              "name": "terminationDate",
              "type": "uint256"
            },
            {
              "internalType": "uint256",
              "name": "lastCouponFixingDate",
              "type": "uint256"
            },
            {
              "internalType": "uint256",
              "name": "lastDividendFixingDate",
              "type": "uint256"
            },
            {
              "internalType": "int256",
              "name": "notionalPrincipal",
              "type": "int256"
            },
            {
              "internalType": "int256",
              "name": "accruedInterest",
              "type": "int256"
            },
            {
              "internalType": "int256",
              "name": "feeAccrued",
              "type": "int256"
            },
            {
              "internalType": "int256",
              "name": "nominalInterestRate",
              "type": "int256"
            },
            {
              "internalType": "int256",
              "name": "interestScalingMultiplier",
              "type": "int256"
            },
            {
              "internalType": "int256",
              "name": "notionalScalingMultiplier",
              "type": "int256"
            },
            {
              "internalType": "int256",
              "name": "nextPrincipalRedemptionPayment",
              "type": "int256"
            },
            {
              "internalType": "int256",
              "name": "exerciseAmount",
              "type": "int256"
            },
            {
              "internalType": "int256",
              "name": "exerciseQuantity",
              "type": "int256"
            },
            {
              "internalType": "int256",
              "name": "quantity",
              "type": "int256"
            },
            {
              "internalType": "int256",
              "name": "couponAmountFixed",
              "type": "int256"
            },
            {
              "internalType": "int256",
              "name": "marginFactor",
              "type": "int256"
            },
            {
              "internalType": "int256",
              "name": "adjustmentFactor",
              "type": "int256"
            },
            {
              "internalType": "int256",
              "name": "dividendPaymentAmount",
              "type": "int256"
            },
            {
              "internalType": "int256",
              "name": "splitRatio",
              "type": "int256"
            }
          ],
          "internalType": "struct State",
          "name": "state",
          "type": "tuple"
        }
      ],
      "name": "setState",
      "outputs": [],
      "stateMutability": "nonpayable",
      "type": "function"
    },
    {
      "inputs": [
        {
          "internalType": "bytes32",
          "name": "assetId",
          "type": "bytes32"
        },
        {
          "components": [
            {
              "internalType": "enum ContractType",
              "name": "contractType",
              "type": "uint8"
            },
            {
              "internalType": "enum Calendar",
              "name": "calendar",
              "type": "uint8"
            },
            {
              "internalType": "enum ContractRole",
              "name": "contractRole",
              "type": "uint8"
            },
            {
              "internalType": "enum DayCountConvention",
              "name": "dayCountConvention",
              "type": "uint8"
            },
            {
              "internalType": "enum BusinessDayConvention",
              "name": "businessDayConvention",
              "type": "uint8"
            },
            {
              "internalType": "enum EndOfMonthConvention",
              "name": "endOfMonthConvention",
              "type": "uint8"
            },
            {
              "internalType": "enum ScalingEffect",
              "name": "scalingEffect",
              "type": "uint8"
            },
            {
              "internalType": "enum FeeBasis",
              "name": "feeBasis",
              "type": "uint8"
            },
            {
              "internalType": "address",
              "name": "currency",
              "type": "address"
            },
            {
              "internalType": "address",
              "name": "settlementCurrency",
              "type": "address"
            },
            {
              "internalType": "bytes32",
              "name": "marketObjectCodeRateReset",
              "type": "bytes32"
            },
            {
              "internalType": "uint256",
              "name": "statusDate",
              "type": "uint256"
            },
            {
              "internalType": "uint256",
              "name": "initialExchangeDate",
              "type": "uint256"
            },
            {
              "internalType": "uint256",
              "name": "maturityDate",
              "type": "uint256"
            },
            {
              "internalType": "uint256",
              "name": "issueDate",
              "type": "uint256"
            },
            {
              "internalType": "uint256",
              "name": "purchaseDate",
              "type": "uint256"
            },
            {
              "internalType": "uint256",
              "name": "capitalizationEndDate",
              "type": "uint256"
            },
            {
              "internalType": "uint256",
              "name": "cycleAnchorDateOfInterestPayment",
              "type": "uint256"
            },
            {
              "internalType": "uint256",
              "name": "cycleAnchorDateOfRateReset",
              "type": "uint256"
            },
            {
              "internalType": "uint256",
              "name": "cycleAnchorDateOfScalingIndex",
              "type": "uint256"
            },
            {
              "internalType": "uint256",
              "name": "cycleAnchorDateOfFee",
              "type": "uint256"
            },
            {
              "internalType": "int256",
              "name": "notionalPrincipal",
              "type": "int256"
            },
            {
              "internalType": "int256",
              "name": "nominalInterestRate",
              "type": "int256"
            },
            {
              "internalType": "int256",
              "name": "accruedInterest",
              "type": "int256"
            },
            {
              "internalType": "int256",
              "name": "rateMultiplier",
              "type": "int256"
            },
            {
              "internalType": "int256",
              "name": "rateSpread",
              "type": "int256"
            },
            {
              "internalType": "int256",
              "name": "nextResetRate",
              "type": "int256"
            },
            {
              "internalType": "int256",
              "name": "feeRate",
              "type": "int256"
            },
            {
              "internalType": "int256",
              "name": "feeAccrued",
              "type": "int256"
            },
            {
              "internalType": "int256",
              "name": "premiumDiscountAtIED",
              "type": "int256"
            },
            {
              "internalType": "int256",
              "name": "priceAtPurchaseDate",
              "type": "int256"
            },
            {
              "internalType": "int256",
              "name": "priceAtTerminationDate",
              "type": "int256"
            },
            {
              "internalType": "int256",
              "name": "lifeCap",
              "type": "int256"
            },
            {
              "internalType": "int256",
              "name": "lifeFloor",
              "type": "int256"
            },
            {
              "internalType": "int256",
              "name": "periodCap",
              "type": "int256"
            },
            {
              "internalType": "int256",
              "name": "periodFloor",
              "type": "int256"
            },
            {
              "components": [
                {
                  "internalType": "uint256",
                  "name": "i",
                  "type": "uint256"
                },
                {
                  "internalType": "enum P",
                  "name": "p",
                  "type": "uint8"
                },
                {
                  "internalType": "bool",
                  "name": "isSet",
                  "type": "bool"
                }
              ],
              "internalType": "struct IP",
              "name": "gracePeriod",
              "type": "tuple"
            },
            {
              "components": [
                {
                  "internalType": "uint256",
                  "name": "i",
                  "type": "uint256"
                },
                {
                  "internalType": "enum P",
                  "name": "p",
                  "type": "uint8"
                },
                {
                  "internalType": "bool",
                  "name": "isSet",
                  "type": "bool"
                }
              ],
              "internalType": "struct IP",
              "name": "delinquencyPeriod",
              "type": "tuple"
            },
            {
              "components": [
                {
                  "internalType": "uint256",
                  "name": "i",
                  "type": "uint256"
                },
                {
                  "internalType": "enum P",
                  "name": "p",
                  "type": "uint8"
                },
                {
                  "internalType": "enum S",
                  "name": "s",
                  "type": "uint8"
                },
                {
                  "internalType": "bool",
                  "name": "isSet",
                  "type": "bool"
                }
              ],
              "internalType": "struct IPS",
              "name": "cycleOfInterestPayment",
              "type": "tuple"
            },
            {
              "components": [
                {
                  "internalType": "uint256",
                  "name": "i",
                  "type": "uint256"
                },
                {
                  "internalType": "enum P",
                  "name": "p",
                  "type": "uint8"
                },
                {
                  "internalType": "enum S",
                  "name": "s",
                  "type": "uint8"
                },
                {
                  "internalType": "bool",
                  "name": "isSet",
                  "type": "bool"
                }
              ],
              "internalType": "struct IPS",
              "name": "cycleOfRateReset",
              "type": "tuple"
            },
            {
              "components": [
                {
                  "internalType": "uint256",
                  "name": "i",
                  "type": "uint256"
                },
                {
                  "internalType": "enum P",
                  "name": "p",
                  "type": "uint8"
                },
                {
                  "internalType": "enum S",
                  "name": "s",
                  "type": "uint8"
                },
                {
                  "internalType": "bool",
                  "name": "isSet",
                  "type": "bool"
                }
              ],
              "internalType": "struct IPS",
              "name": "cycleOfScalingIndex",
              "type": "tuple"
            },
            {
              "components": [
                {
                  "internalType": "uint256",
                  "name": "i",
                  "type": "uint256"
                },
                {
                  "internalType": "enum P",
                  "name": "p",
                  "type": "uint8"
                },
                {
                  "internalType": "enum S",
                  "name": "s",
                  "type": "uint8"
                },
                {
                  "internalType": "bool",
                  "name": "isSet",
                  "type": "bool"
                }
              ],
              "internalType": "struct IPS",
              "name": "cycleOfFee",
              "type": "tuple"
            }
          ],
          "internalType": "struct PAMTerms",
          "name": "terms",
          "type": "tuple"
        }
      ],
      "name": "setTerms",
      "outputs": [],
      "stateMutability": "nonpayable",
      "type": "function"
    },
    {
      "inputs": [
        {
          "internalType": "address",
          "name": "newOwner",
          "type": "address"
        }
      ],
      "name": "transferOwnership",
      "outputs": [],
      "stateMutability": "nonpayable",
      "type": "function"
    }
  ],
  "bytecode": "0x60806040523480156200001157600080fd5b5060006200001e6200006e565b600080546001600160a01b0319166001600160a01b0383169081178255604051929350917f8be0079c531659141344cd1fd0a4f28419497f9722a3daafe3b4186f6b6457e0908290a35062000072565b3390565b61596080620000826000396000f3fe608060405234801561001057600080fd5b50600436106103425760003560e01c806391d9e8e1116101b8578063ccfc347e11610104578063e7dc3188116100a2578063ecef55771161007c578063ecef55771461078a578063ee43eda11461079d578063f2fde38b146107b0578063f52f84e1146107c357610342565b8063e7dc318814610751578063e8f7ca3e14610764578063eb0125591461077757610342565b8063d981e773116100de578063d981e773146106f8578063de07a1731461070b578063e05a66e01461071e578063e50e0ef71461073157610342565b8063ccfc347e146106b2578063cf5aed12146106c5578063d51dc3dc146106e557610342565b8063b461dd4f11610171578063bc6a7d761161014b578063bc6a7d7614610659578063bd1f0a6c14610679578063c139626b1461068c578063c3b6e7c21461069f57610342565b8063b461dd4f14610612578063b828204114610625578063ba4d2d281461063857610342565b806391d9e8e114610593578063a17b75b5146105a6578063afd67232146105b9578063b02ca0c0146105cc578063b0b4888f146105df578063b3c45ebe146105ff57610342565b80633a60d6fe116102925780636fe55baa1161023057806375e86ae41161020a57806375e86ae414610545578063811322fb14610558578063842962d51461056b5780638da5cb5b1461057e57610342565b80636fe55baa146104fc578063715018a61461051c578063725400031461052457610342565b80636031a0941161026c5780636031a094146104b6578063606aa07e146104c95780636a899b9b146104c95780636be39bda146104dc57610342565b80633a60d6fe146104705780633adc277a14610483578063512872f4146104a357610342565b80631717e867116102ff57806328e0f8a9116102d957806328e0f8a9146104245780633549d08d1461043757806337462dba1461044a57806339262e871461045d57610342565b80631717e867146103de5780631b126815146103f157806327258b221461041157610342565b806303a81a2a1461034757806309648a9d1461035c5780630c5b75a4146103855780630d62037a146103a55780630d799b85146103b8578063135b9f4d146103cb575b600080fd5b61035a6103553660046142be565b6107d6565b005b61036f61036a36600461428e565b6108ab565b60405161037c91906156ff565b60405180910390f35b61039861039336600461428e565b6108d2565b60405161037c9190614df2565b61035a6103b33660046142be565b610949565b61035a6103c63660046142be565b6109ee565b6103986103d93660046142ed565b610aac565b61035a6103ec366004614339565b610b4b565b6104046103ff366004614339565b610c01565b60405161037c9190614dd7565b61040461041f36600461428e565b610c7e565b61039861043236600461428e565b610c93565b61035a6104453660046142be565b610ca8565b61036f61045836600461428e565b610d83565b61035a61046b366004614339565b610da2565b61035a61047e3660046144ab565b610e47565b61049661049136600461428e565b610f07565b60405161037c9190614d93565b61035a6104b13660046142be565b610f21565b61035a6104c43660046142be565b610fe8565b6103986104d73660046142ed565b6110c3565b6104ef6104ea36600461428e565b6110db565b60405161037c91906156a7565b61050f61050a3660046142ed565b611179565b60405161037c9190615699565b61035a611218565b61053761053236600461428e565b6112cc565b60405161037c929190614eb7565b61039861055336600461428e565b6112f5565b6103986105663660046144cf565b6116c9565b61035a6105793660046144ab565b6116d7565b61058661178a565b60405161037c9190614d65565b61035a6105a13660046143b3565b611799565b6103986105b436600461428e565b6118aa565b61035a6105c7366004614386565b6118bf565b6103986105da3660046142ed565b6119bf565b6105f26105ed3660046142ed565b6119e0565b60405161037c919061568b565b61058661060d36600461428e565b611a7f565b6103986106203660046142ed565b611a9e565b61039861063336600461428e565b611ae4565b61064b6106463660046142ed565b611b48565b60405161037c929190614de2565b61066c6106673660046142ed565b611b72565b60405161037c919061564a565b61035a6106873660046142be565b611c11565b61058661069a36600461428e565b611ca9565b6103986106ad36600461428e565b611cc7565b6104046106c036600461423a565b611e00565b6106d86106d33660046142ed565b611e15565b60405161037c9190615805565b6103986106f33660046142ed565b611e2d565b61035a6107063660046142ed565b611e73565b61035a61071936600461430e565b611ee2565b61039861072c3660046144e9565b611f7e565b61074461073f36600461428e565b611f9c565b60405161037c9190615342565b61035a61075f36600461423a565b611ffa565b6104046107723660046142be565b612088565b6105866107853660046142ed565b6120be565b6106d86107983660046142ed565b612154565b6105866107ab36600461428e565b6121ea565b61035a6107be36600461423a565b61220a565b6103986107d136600461428e565b612314565b6000828152600160208190526040909120015482906001600160a01b03163314806108135750610813816000356001600160e01b03191633610c01565b6108385760405162461bcd60e51b815260040161082f90614fe9565b60405180910390fd5b6000838152600160208190526040918290200180546001600160a01b038581166001600160a01b0319831617909255915191169084907f6baefd4565218ab73b43cb6b1019ca3a06161c4fcaef25cd665aacddabc44a209061089d9084908790614d79565b60405180910390a250505050565b6108b3613dc1565b60008281526001602052604090206108ca90612329565b90505b919050565b60008181526001602081905260408220015482906001600160a01b031633148061090e575061090e816000356001600160e01b03191633610c01565b61092a5760405162461bcd60e51b815260040161082f90614fe9565b6000838152600160205260408120600701805491905591505b50919050565b610960826000356001600160e01b03191633610c01565b61097c5760405162461bcd60e51b815260040161082f90615286565b6000828152600160205260409081902060090180546001600160a01b038481166001600160a01b031983161790925591519116907fa7f38588f02421aa73988ed359aee27363c896e7cc3b6e634e4357f7ee408e25906109e190859084908690614dfb565b60405180910390a1505050565b6000828152600160208190526040909120015482906001600160a01b0316331480610a2b5750610a2b816000356001600160e01b03191633610c01565b610a475760405162461bcd60e51b815260040161082f90614fe9565b6000838152600160205260409081902060020180546001600160a01b038581166001600160a01b0319831617909255915191169084907fdaa92ae0693b6616f14ef5db4b7ee053d3234c0d03f7a1885589c6a6c2c75bdb9061089d9084908790614d79565b600082815260016020526040808220905163ed7210f360e01b815273__$2fd3b21737d5949893536d14ab59010625$__9163ed7210f391610af29190869060040161537d565b60206040518083038186803b158015610b0a57600080fd5b505af4158015610b1e573d6000803e3d6000fd5b505050506040513d601f19601f82011682018060405250810190610b4291906142a6565b90505b92915050565b610b62836000356001600160e01b03191633610c01565b610b7e5760405162461bcd60e51b815260040161082f90615237565b60008381526001602081815260408084206001600160e01b031987168552600d0182528084206001600160a01b038616808652925292839020805460ff1916909217909155905184907face25d271ad11ee299595b3021629bae0349e370d7c2eb7c2dced6e4edb4786590610bf4908690614ea2565b60405180910390a3505050565b60008381526001602090815260408083206001600160e01b031986168452600d0182528083206001600160a01b038516845290915281205460ff1680610c7457506000848152600160209081526040808320838052600d0182528083206001600160a01b038616845290915290205460ff165b90505b9392505050565b60009081526001602052604090205460ff1690565b60009081526001602052604090206006015490565b6000828152600160205260409020600c01546001600160a01b031680610ce05760405162461bcd60e51b815260040161082f90614ed2565b336001600160a01b0382161480610d095750610d09836000356001600160e01b03191633610c01565b610d255760405162461bcd60e51b815260040161082f90614f2f565b60008381526001602052604090819020600c0180546001600160a01b0319166001600160a01b038516179055517f66808241563a07166fd47b523591fa432148706dc0ddd255d49b69e71f1721ce906109e190859084908690614dfb565b610d8b613dc1565b60008281526001602052604090206108ca90612696565b610db9836000356001600160e01b03191633610c01565b610dd55760405162461bcd60e51b815260040161082f90615237565b60008381526001602090815260408083206001600160e01b031986168452600d0182528083206001600160a01b038516808552925291829020805460ff19169055905184907f42b1b0e7392ad606bb4f5b003296aba62f16e43aa9372f1f40c1522fa2655ffa90610bf4908690614ea2565b6000828152600160208190526040909120015482906001600160a01b0316331480610e845750610e84816000356001600160e01b03191633610c01565b610ea05760405162461bcd60e51b815260040161082f90614fe9565b610ec6610eb236849003840184614886565b600085815260016020526040902090612a33565b827fad3970329ffaec63d947adc6077368479a4be7f09f2e7ba1b13852f8405b3ec68360200135604051610efa9190614df2565b60405180910390a2505050565b60008181526001602052604090206060906108ca90612ddb565b6000828152600160208190526040909120015482906001600160a01b0316331480610f5e5750610f5e816000356001600160e01b03191633610c01565b610f7a5760405162461bcd60e51b815260040161082f90614fe9565b6000838152600160205260409081902080546001600160a01b03858116610100908102610100600160a81b03198416179093559251919004919091169084907fdaa92ae0693b6616f14ef5db4b7ee053d3234c0d03f7a1885589c6a6c2c75bdb9061089d9084908790614d79565b6000828152600160205260409020600a01546001600160a01b0316806110205760405162461bcd60e51b815260040161082f906151da565b336001600160a01b03821614806110495750611049836000356001600160e01b03191633610c01565b6110655760405162461bcd60e51b815260040161082f906150d7565b60008381526001602052604090819020600a0180546001600160a01b0319166001600160a01b038516179055517f66808241563a07166fd47b523591fa432148706dc0ddd255d49b69e71f1721ce906109e190859084908690614dfb565b6000828152600160205260408120610b429083612e71565b6110e3613e70565b60008281526001602052604090819020905163f21917af60e01b815273__$2fd3b21737d5949893536d14ab59010625$__9163f21917af916111289190600401614df2565b6107406040518083038186803b15801561114157600080fd5b505af4158015611155573d6000803e3d6000fd5b505050506040513d601f19601f820116820180604052508101906108ca9190614628565b611181613fdc565b6000838152600160205260409081902090516379e3e37b60e11b815273__$2fd3b21737d5949893536d14ab59010625$__9163f3c7c6f6916111c89190869060040161537d565b60606040518083038186803b1580156111e057600080fd5b505af41580156111f4573d6000803e3d6000fd5b505050506040513d601f19601f82011682018060405250810190610b42919061460d565b611220612e87565b6000546001600160a01b03908116911614611282576040805162461bcd60e51b815260206004820181905260248201527f4f776e61626c653a2063616c6c6572206973206e6f7420746865206f776e6572604482015290519081900360640190fd5b600080546040516001600160a01b03909116907f8be0079c531659141344cd1fd0a4f28419497f9722a3daafe3b4186f6b6457e0908390a3600080546001600160a01b0319169055565b6000808060f884901c60218111156112e057fe5b92505067ffffffffffffffff83169050915091565b60006112ff613fff565b61131f8372636f6e74726163745265666572656e63655f3160681b611b72565b805190915015801590611341575060038160600151600481111561133f57fe5b145b156116c05780516020820151604051631392c59160e11b81526001600160a01b038216906327258b2290611379908590600401614df2565b60206040518083038186803b15801561139157600080fd5b505afa1580156113a5573d6000803e3d6000fd5b505050506040513d601f19601f820116820180604052508101906113c99190614272565b6113e55760405162461bcd60e51b815260040161082f906152da565b6000611400866b65786572636973654461746560a01b6110c3565b90506000611427877518dc99591a5d115d995b9d151e5c1950dbdd995c995960521b612154565b60ff16600581111561143557fe5b90506000836001600160a01b031663cf5aed12866040518263ffffffff1660e01b81526004016114659190614e7d565b60206040518083038186803b15801561147d57600080fd5b505afa158015611491573d6000803e3d6000fd5b505050506040513d601f19601f820116820180604052508101906114b591906149a3565b60ff1660058111156114c357fe5b90506000846001600160a01b031663606aa07e876040518263ffffffff1660e01b81526004016114f39190614e5a565b60206040518083038186803b15801561150b57600080fd5b505afa15801561151f573d6000803e3d6000fd5b505050506040513d601f19601f8201168201806040525081019061154391906142a6565b9050831561156457611556601a42611f7e565b9750505050505050506108cd565b600083600581111561157257fe5b14158015611595575082600581111561158757fe5b82600581111561159357fe5b145b156116b95760018260058111156115a857fe5b14156115b957611556601982611f7e565b60028260058111156115c757fe5b1415611671576115d5613fdc565b6040516337f2add560e11b81526001600160a01b03871690636fe55baa90611601908a90600401614e1a565b60606040518083038186803b15801561161957600080fd5b505afa15801561162d573d6000803e3d6000fd5b505050506040513d601f19601f82011682018060405250810190611651919061460d565b9050611662601961072c8385612e8b565b985050505050505050506108cd565b600382600581111561167f57fe5b14156116b95761168d613fdc565b6040516337f2add560e11b81526001600160a01b03871690636fe55baa90611601908a90600401614e37565b5050505050505b50600092915050565b60008160218111156108ca57fe5b6000828152600160208190526040909120015482906001600160a01b03163314806117145750611714816000356001600160e01b03191633610c01565b6117305760405162461bcd60e51b815260040161082f90614fe9565b61175661174236849003840184614886565b600085815260016020526040902090612fa4565b827f0c71209d22d4c70a40140b94deee55f1f54a9353e3d5d5a4ddfb45fcddcf720f8360200135604051610efa9190614df2565b6000546001600160a01b031690565b3360009081526002602052604090205460ff166117c85760405162461bcd60e51b815260040161082f90615083565b6118278a6117db368b90038b018b614886565b89898080602002602001604051908101604052809392919081815260200183836020028082843760009201919091525061181e92505050368a90038a018a614512565b88888888613370565b60008a815260016020526040908190209051635276dec160e01b815273__$2fd3b21737d5949893536d14ab59010625$__91635276dec19161186e91908d9060040161538b565b60006040518083038186803b15801561188657600080fd5b505af415801561189a573d6000803e3d6000fd5b5050505050505050505050505050565b60009081526001602052604090206005015490565b6000828152600160208190526040909120015482906001600160a01b03163314806118fc57506118fc816000356001600160e01b03191633610c01565b6119185760405162461bcd60e51b815260040161082f90614fe9565b600083815260016020526040908190209051635276dec160e01b815273__$2fd3b21737d5949893536d14ab59010625$__91635276dec19161195f9190869060040161538b565b60006040518083038186803b15801561197757600080fd5b505af415801561198b573d6000803e3d6000fd5b50506040518592507fb777acf68d226f3c8ab6f398cfb9a320e6fe8e92f5d2f0b4f69bc8ebab3b70cb9150600090a2505050565b60009182526001602090815260408084209284526004909201905290205490565b6119e8614026565b600083815260016020526040908190209051630ef392f960e11b815273__$2fd3b21737d5949893536d14ab59010625$__91631de725f291611a2f9190869060040161537d565b60806040518083038186803b158015611a4757600080fd5b505af4158015611a5b573d6000803e3d6000fd5b505050506040513d601f19601f82011682018060405250810190610b4291906145f2565b600090815260016020819052604090912001546001600160a01b031690565b6000828152600160205260408082209051633d548cbb60e11b815273__$2fd3b21737d5949893536d14ab59010625$__91637aa9197691610af29190869060040161537d565b6000818152600160205260408120600581015415611b3457600581015460068201541415611b165750600090506108cd565b600681015460009081526004909101602052604090205490506108cd565b6000611b3f846134f8565b50949350505050565b6000918252600160208181526040808520938552601090930190529120805491015460ff90911691565b611b7a613fff565b60008381526001602052604090819020905163e810f93360e01b815273__$2fd3b21737d5949893536d14ab59010625$__9163e810f93391611bc19190869060040161537d565b60806040518083038186803b158015611bd957600080fd5b505af4158015611bed573d6000803e3d6000fd5b505050506040513d601f19601f82011682018060405250810190610b429190614590565b611c28826000356001600160e01b03191633610c01565b611c445760405162461bcd60e51b815260040161082f90614f8c565b60008281526001602052604090819020600b0180546001600160a01b038481166001600160a01b031983161790925591519116907fa7f38588f02421aa73988ed359aee27363c896e7cc3b6e634e4357f7ee408e25906109e190859084908690614dfb565b6000908152600160205260409020600201546001600160a01b031690565b60008181526001602081905260408220015482906001600160a01b0316331480611d035750611d03816000356001600160e01b03191633610c01565b611d1f5760405162461bcd60e51b815260040161082f90614fe9565b6000838152600160205260409020600581015415611d795760068101546000818152600483016020526040902054600583015490911415611d665750600092506109439050565b6006909101805460010190559150610943565b600080611d85866134f8565b909250905081611d9c575060009350610943915050565b600080611da8846112cc565b909250905060018315151415611dec5780600386016000846021811115611dcb57fe5b6021811115611dd657fe5b8152602081019190915260400160002055611df4565b600885018490555b50919695505050505050565b60026020526000908152604090205460ff1681565b6000828152600160205260408120610b429083613932565b600082815260016020526040808220905163168bf13960e01b815273__$2fd3b21737d5949893536d14ab59010625$__9163168bf13991610af29190869060040161537d565b6000828152600160208190526040909120015482906001600160a01b0316331480611eb05750611eb0816000356001600160e01b03191633610c01565b611ecc5760405162461bcd60e51b815260040161082f90614fe9565b5060009182526001602052604090912060070155565b6000838152600160208190526040909120015483906001600160a01b0316331480611f1f5750611f1f816000356001600160e01b03191633610c01565b611f3b5760405162461bcd60e51b815260040161082f90614fe9565b50604080518082018252600180825260208083019485526000968752818152838720958752601090950190945293209251835460ff191690151517835551910155565b60008160f8846021811115611f8f57fe5b60ff16901b179392505050565b611fa4614047565b50600090815260016020908152604091829020825160808101845260098201546001600160a01b039081168252600a830154811693820193909352600b820154831693810193909352600c015416606082015290565b612002612e87565b6000546001600160a01b03908116911614612064576040805162461bcd60e51b815260206004820181905260248201527f4f776e61626c653a2063616c6c6572206973206e6f7420746865206f776e6572604482015290519081900360640190fd5b6001600160a01b03166000908152600260205260409020805460ff19166001179055565b6000918252600160209081526040808420848052600d0182528084206001600160a01b0393909316845291905290205460ff1690565b6000828152600160205260408082209051631501b33960e21b815273__$2fd3b21737d5949893536d14ab59010625$__91635406cce4916121049190869060040161537d565b60206040518083038186803b15801561211c57600080fd5b505af4158015612130573d6000803e3d6000fd5b505050506040513d601f19601f82011682018060405250810190610b429190614256565b600082815260016020526040808220905163539dda9160e11b815273__$2fd3b21737d5949893536d14ab59010625$__9163a73bb5229161219a9190869060040161537d565b60206040518083038186803b1580156121b257600080fd5b505af41580156121c6573d6000803e3d6000fd5b505050506040513d601f19601f82011682018060405250810190610b4291906149a3565b60009081526001602052604090205461010090046001600160a01b031690565b612212612e87565b6000546001600160a01b03908116911614612274576040805162461bcd60e51b815260206004820181905260248201527f4f776e61626c653a2063616c6c6572206973206e6f7420746865206f776e6572604482015290519081900360640190fd5b6001600160a01b0381166122b95760405162461bcd60e51b81526004018080602001828103825260268152602001806158e46026913960400191505060405180910390fd5b600080546040516001600160a01b03808516939216917f8be0079c531659141344cd1fd0a4f28419497f9722a3daafe3b4186f6b6457e091a3600080546001600160a01b0319166001600160a01b0392909216919091179055565b60009081526001602052604090206007015490565b612331613dc1565b604080516102e08101825272636f6e7472616374506572666f726d616e636560681b6000908152600f85016020529190912054819060f81c600581111561237457fe5b600581111561237f57fe5b8152697374617475734461746560b01b6000908152600f8501602081815260408084205482860152706e6f6e506572666f726d696e674461746560781b845282825280842054818601526b6d617475726974794461746560a01b84528282528084205460608601526b65786572636973654461746560a01b84528282528084205460808601526e7465726d696e6174696f6e4461746560881b84528282528084205460a0860152736c617374436f75706f6e466978696e674461746560601b84528282528084205460c0860152756c6173744469766964656e64466978696e674461746560501b84528282528084205460e0860152701b9bdd1a5bdb985b141c9a5b98da5c185b607a1b8452828252808420546101008601526e1858d8dc9d5959125b9d195c995cdd608a1b845282825280842054610120860152691999595058d8dc9d595960b21b845282825280842054610140860152726e6f6d696e616c496e7465726573745261746560681b8452828252808420546101608601527834b73a32b932b9ba29b1b0b634b733a6bab63a34b83634b2b960391b845282825280842054610180860152783737ba34b7b730b629b1b0b634b733a6bab63a34b83634b2b960391b8452828252808420546101a08601527f6e6578745072696e636970616c526564656d7074696f6e5061796d656e7400008452828252808420546101c08601526d195e195c98da5cd9505b5bdd5b9d60921b8452828252808420546101e08601526f65786572636973655175616e7469747960801b845282825280842054610200860152677175616e7469747960c01b8452828252808420546102208601527018dbdd5c1bdb905b5bdd5b9d119a5e1959607a1b8452828252808420546102408601526b36b0b933b4b72330b1ba37b960a11b8452828252808420546102608601526f30b2353ab9ba36b2b73a2330b1ba37b960811b84528282528084205461028086015274191a5d9a59195b9914185e5b595b9d105b5bdd5b9d605a1b8452828252808420546102a08601526973706c6974526174696f60b01b84529190529020546102c0909101529050919050565b61269e613dc1565b604080516102e08101825274465f636f6e7472616374506572666f726d616e636560581b6000908152600f85016020529190912054819060f81c60058111156126e357fe5b60058111156126ee57fe5b81526b465f7374617475734461746560a01b6000908152600f850160208181526040808420548286015272465f6e6f6e506572666f726d696e674461746560681b845282825280842054818601526d465f6d617475726974794461746560901b84528282528084205460608601526d465f65786572636973654461746560901b845282825280842054608086015270465f7465726d696e6174696f6e4461746560781b84528282528084205460a086015275465f6c617374436f75706f6e466978696e674461746560501b84528282528084205460c086015277465f6c6173744469766964656e64466978696e674461746560401b84528282528084205460e0860152721197db9bdd1a5bdb985b141c9a5b98da5c185b606a1b845282825280842054610100860152701197d858d8dc9d5959125b9d195c995cdd607a1b8452828252808420546101208601526b1197d999595058d8dc9d595960a21b84528282528084205461014086015274465f6e6f6d696e616c496e7465726573745261746560581b8452828252808420546101608601527f465f696e7465726573745363616c696e674d756c7469706c69657200000000008452828252808420546101808601527f465f6e6f74696f6e616c5363616c696e674d756c7469706c69657200000000008452828252808420546101a08601527f465f6e6578745072696e636970616c526564656d7074696f6e5061796d656e748452828252808420546101c08601526f1197d95e195c98da5cd9505b5bdd5b9d60821b8452828252808420546101e086015271465f65786572636973655175616e7469747960701b84528282528084205461020086015269465f7175616e7469747960b01b845282825280842054610220860152721197d8dbdd5c1bdb905b5bdd5b9d119a5e1959606a1b8452828252808420546102408601526d232fb6b0b933b4b72330b1ba37b960911b84528282528084205461026086015271232fb0b2353ab9ba36b2b73a2330b1ba37b960711b845282825280842054610280860152761197d91a5d9a59195b9914185e5b595b9d105b5bdd5b9d604a1b8452828252808420546102a08601526b465f73706c6974526174696f60a01b84529190529020546102c0909101529050919050565b612a6a8272636f6e7472616374506572666f726d616e636560681b60f884600001516005811115612a6057fe5b60ff16901b6139de565b612a8982697374617475734461746560b01b836020015160001b6139de565b612aaf82706e6f6e506572666f726d696e674461746560781b836040015160001b6139de565b612ad0826b6d617475726974794461746560a01b836060015160001b6139de565b612af1826b65786572636973654461746560a01b836080015160001b6139de565b612b15826e7465726d696e6174696f6e4461746560881b8360a0015160001b6139de565b612b3e82736c617374436f75706f6e466978696e674461746560601b8360c0015160001b6139de565b612b6982756c6173744469766964656e64466978696e674461746560501b8360e0015160001b6139de565b612b9082701b9bdd1a5bdb985b141c9a5b98da5c185b607a1b83610100015160001b6139de565b612bb5826e1858d8dc9d5959125b9d195c995cdd608a1b83610120015160001b6139de565b612bd582691999595058d8dc9d595960b21b83610140015160001b6139de565b612bfe82726e6f6d696e616c496e7465726573745261746560681b83610160015160001b6139de565b612c2d827834b73a32b932b9ba29b1b0b634b733a6bab63a34b83634b2b960391b83610180015160001b6139de565b612c5c82783737ba34b7b730b629b1b0b634b733a6bab63a34b83634b2b960391b836101a0015160001b6139de565b612c8f827f6e6578745072696e636970616c526564656d7074696f6e5061796d656e740000836101c0015160001b6139de565b612cb3826d195e195c98da5cd9505b5bdd5b9d60921b836101e0015160001b6139de565b612cd9826f65786572636973655175616e7469747960801b83610200015160001b6139de565b612cff826f65786572636973655175616e7469747960801b83610200015160001b6139de565b612d1d82677175616e7469747960c01b83610220015160001b6139de565b612d44827018dbdd5c1bdb905b5bdd5b9d119a5e1959607a1b83610240015160001b6139de565b612d66826b36b0b933b4b72330b1ba37b960a11b83610260015160001b6139de565b612d8c826f30b2353ab9ba36b2b73a2330b1ba37b960811b83610280015160001b6139de565b612db78274191a5d9a59195b9914185e5b595b9d105b5bdd5b9d605a1b836102a0015160001b6139de565b612dd7826973706c6974526174696f60b01b836102c0015160001b6139de565b5050565b606080826003016002015467ffffffffffffffff81118015612dfc57600080fd5b50604051908082528060200260200182016040528015612e26578160200160208202803683370190505b50905060005b6005840154811015612e6a5760008181526004850160205260409020548251839083908110612e5757fe5b6020908102919091010152600101612e2c565b5092915050565b6000908152600f91909101602052604090205490565b3390565b6000808084602001516005811115612e9f57fe5b1415612eb9578351612eb2908490613a14565b9050610b42565b600184602001516005811115612ecb57fe5b1415612ee9578351612eb290612ee2906007613a29565b8490613a14565b600284602001516005811115612efb57fe5b1415612f0e578351612eb2908490613a82565b600384602001516005811115612f2057fe5b1415612f3e578351612eb290612f37906003613a29565b8490613a82565b600484602001516005811115612f5057fe5b1415612f67578351612eb290612f37906006613a29565b600584602001516005811115612f7957fe5b1415612f8c578351612eb2908490613afe565b60405162461bcd60e51b815260040161082f9061517d565b612fd38274465f636f6e7472616374506572666f726d616e636560581b60f884600001516005811115612a6057fe5b612ff4826b465f7374617475734461746560a01b836020015160001b6139de565b61301c8272465f6e6f6e506572666f726d696e674461746560681b836040015160001b6139de565b61303f826d465f6d617475726974794461746560901b836060015160001b6139de565b613062826d465f65786572636973654461746560901b836080015160001b6139de565b6130888270465f7465726d696e6174696f6e4461746560781b8360a0015160001b6139de565b6130b38275465f6c617374436f75706f6e466978696e674461746560501b8360c0015160001b6139de565b6130e08277465f6c6173744469766964656e64466978696e674461746560401b8360e0015160001b6139de565b61310982721197db9bdd1a5bdb985b141c9a5b98da5c185b606a1b83610100015160001b6139de565b61313082701197d858d8dc9d5959125b9d195c995cdd607a1b83610120015160001b6139de565b613152826b1197d999595058d8dc9d595960a21b83610140015160001b6139de565b61317d8274465f6e6f6d696e616c496e7465726573745261746560581b83610160015160001b6139de565b6131b0827f465f696e7465726573745363616c696e674d756c7469706c696572000000000083610180015160001b6139de565b6131e3827f465f6e6f74696f6e616c5363616c696e674d756c7469706c6965720000000000836101a0015160001b6139de565b613216827f465f6e6578745072696e636970616c526564656d7074696f6e5061796d656e74836101c0015160001b6139de565b61323c826f1197d95e195c98da5cd9505b5bdd5b9d60821b836101e0015160001b6139de565b6132648271465f65786572636973655175616e7469747960701b83610200015160001b6139de565b61328c8271465f65786572636973655175616e7469747960701b83610200015160001b6139de565b6132ac8269465f7175616e7469747960b01b83610220015160001b6139de565b6132d582721197d8dbdd5c1bdb905b5bdd5b9d119a5e1959606a1b83610240015160001b6139de565b6132f9826d232fb6b0b933b4b72330b1ba37b960911b83610260015160001b6139de565b6133218271232fb0b2353ab9ba36b2b73a2330b1ba37b960711b83610280015160001b6139de565b61334e82761197d91a5d9a59195b9914185e5b595b9d105b5bdd5b9d604a1b836102a0015160001b6139de565b612dd7826b465f73706c6974526174696f60a01b836102c0015160001b6139de565b6000888152600160205260409020805460ff16156133a05760405162461bcd60e51b815260040161082f90615038565b6001600160a01b03841660009081526002602052604090205460ff1615156001146133dd5760405162461bcd60e51b815260040161082f90615134565b805486516009830180546001600160a01b03199081166001600160a01b03938416179091556020890151600a8501805483169184169190911790556040890151600b8501805483169184169190911790556060890151600c85018054831691841691909117905560ff199092166001908117610100600160a81b031916610100898416021784558301805483168783161790556002830180549092169084161790556134898189612a33565b6134938189612fa4565b61349d8188613b25565b6001600160a01b038316156134b6576134b68984613b8d565b7f5e73a3e4a3f69f1056f05ffd00ff11bf3835158ba0ebd5ad3b994065fcd89646896040516134e59190614df2565b60405180910390a1505050505050505050565b60008181526001602052604081208190613510613e70565b60405163f21917af60e01b815273__$2fd3b21737d5949893536d14ab59010625$__9063f21917af90613547908590600401614df2565b6107406040518083038186803b15801561356057600080fd5b505af4158015613574573d6000803e3d6000fd5b505050506040513d601f19601f820116820180604052508101906135989190614628565b8254600a600081815260038601602052604080822054905163d716291f60e01b815294955090938493600193859384936136409361010090046001600160a01b03169263d716291f926135f0928c92906004016156d3565b60206040518083038186803b15801561360857600080fd5b505afa15801561361c573d6000803e3d6000fd5b505050506040513d601f19601f8201168201806040525081019061053291906142a6565b91509150836000148061365257508381105b8061367657508084148015613676575061366b856116c9565b613674836116c9565b105b15613682578093508194505b50508454600b600081815260038801602052604080822054905163d716291f60e01b8152919384936136d3936101009092046001600160a01b03169263d716291f926135f0928c92916004016156d3565b9150915083600014806136ef575080158015906136ef57508381105b8061371e5750801580159061370357508084145b801561371e5750613713856116c9565b61371c836116c9565b105b1561372a578093508194505b505084546005600081815260038801602052604080822054905163d716291f60e01b81529193849361377b936101009092046001600160a01b03169263d716291f926135f0928c92916004016156d3565b9150915083600014806137975750801580159061379757508381105b806137c6575080158015906137ab57508084145b80156137c657506137bb856116c9565b6137c4836116c9565b105b156137d2578093508194505b50508454601b600081815260038801602052604080822054905163d716291f60e01b815291938493613823936101009092046001600160a01b03169263d716291f926135f0928c92916004016156d3565b91509150836000148061383f5750801580159061383f57508381105b8061386e5750801580159061385357508084145b801561386e5750613863856116c9565b61386c836116c9565b105b1561387a578093508194505b505084546008860154604051635f94928560e11b815260009283926138be926101009092046001600160a01b03169163bf29250a916135f0918b91906004016156b6565b9150915083600014806138da575080158015906138da57508381105b80613909575080158015906138ee57508084145b801561390957506138fe856116c9565b613907836116c9565b105b1561391957809350819450600092505b50506139258383611f7e565b9650945050505050915091565b600072636f6e7472616374506572666f726d616e636560681b821415613983575072636f6e7472616374506572666f726d616e636560681b6000908152600f8301602052604090205460f81c610b45565b74465f636f6e7472616374506572666f726d616e636560581b8214156139d6575074465f636f6e7472616374506572666f726d616e636560581b6000908152600f8301602052604090205460f81c610b45565b506000610b45565b6000828152600f840160205260409020548114156139fb57613a0f565b6000828152600f8401602052604090208190555b505050565b620151808102820182811015610b4557600080fd5b600082613a3857506000610b45565b82820282848281613a4557fe5b0414610b425760405162461bcd60e51b815260040180806020018281038252602181526020018061590a6021913960400191505060405180910390fd5b6000808080613a9662015180875b04613c04565b600c918801600019810183810494909401965094509250900660010191506000613ac08484613c9a565b905080821115613ace578091505b62015180870662015180613ae3868686613d20565b0201945086851015613af457600080fd5b5050505092915050565b6000808080613b106201518087613a90565b9187019450925090506000613ac08484613c9a565b60005b8151811015613a0f576000801b828281518110613b4157fe5b60200260200101511415613b5457613a0f565b818181518110613b6057fe5b60209081029190910181015160008381526004860190925260409091205560010160058301819055613b28565b6000828152600160208181526040808420848052600d0182528084206001600160a01b0386168086529252808420805460ff19169093179092559051909184917face25d271ad11ee299595b3021629bae0349e370d7c2eb7c2dced6e4edb4786591613bf891614ea2565b60405180910390a35050565b60008080836226496581018262023ab1600483020590506004600362023ab18302010590910390600062164b09610fa0600185010205905060046105b58202058303601f019250600061098f8460500281613c5b57fe5b0590506000605061098f83020585039050600b820560301994909401606402929092018301996002600c90940290910392909201975095509350505050565b60008160011480613cab5750816003145b80613cb65750816005145b80613cc15750816007145b80613ccc5750816008145b80613cd7575081600a145b80613ce2575081600c145b15613cef5750601f610b45565b81600214613cff5750601e610b45565b613d0883613d9c565b613d1357601c613d16565b601d5b60ff169392505050565b60006107b2841015613d3157600080fd5b838383600062253d8c600460036064611324600c600d19890105890101050205600c80600d19870105600c02600287030361016f0281613d6d57fe5b0560046105b5600c600d1989010589016112c0010205617d4b8603010103039050809450505050509392505050565b600060048206158015613db157506064820615155b806108ca57505061019090061590565b604080516102e081019091528060008152602001600081526020016000815260200160008152602001600081526020016000815260200160008152602001600081526020016000815260200160008152602001600081526020016000815260200160008152602001600081526020016000815260200160008152602001600081526020016000815260200160008152602001600081526020016000815260200160008152602001600081525090565b60408051610540810190915280600081526020016000815260200160008152602001600081526020016000815260200160008152602001600081526020016000815260200160006001600160a01b0316815260200160006001600160a01b031681526020016000801916815260200160008152602001600081526020016000815260200160008152602001600081526020016000815260200160008152602001600081526020016000815260200160008152602001600081526020016000815260200160008152602001600081526020016000815260200160008152602001600081526020016000815260200160008152602001600081526020016000815260200160008152602001600081526020016000815260200160008152602001613f96613fdc565b8152602001613fa3613fdc565b8152602001613fb0614026565b8152602001613fbd614026565b8152602001613fca614026565b8152602001613fd7614026565b905290565b6040805160608101909152600080825260208201905b8152600060209091015290565b60408051608081018252600080825260208201819052909182019081526020016000613fd7565b60408051608081019091526000808252602082019081526020016000613ff2565b60408051608081018252600080825260208201819052918101829052606081019190915290565b80356108cd81615858565b80516108cd81615858565b80356108cd8161587b565b80516108cd8161587b565b80356108cd81615888565b80516108cd81615888565b80356108cd81615895565b80356108cd816158af565b80516108cd816158af565b80356108cd816158bc565b80516108cd816158bc565b80356108cd816158c9565b80516108cd816158c9565b8035602281106108cd57600080fd5b80356108cd816158d6565b80516108cd816158d6565b600060808284031215610943578081fd5b600060808284031215614144578081fd5b6040516080810181811067ffffffffffffffff8211171561416157fe5b806040525080915082518152602083015161417b81615895565b6020820152604083015161418e81615888565b604082015260608301516141a18161586d565b6060919091015292915050565b6000606082840312156141bf578081fd5b6040516060810181811067ffffffffffffffff821117156141dc57fe5b80604052508091508251815260208301516141f681615895565b602082015260408301516142098161586d565b6040919091015292915050565b60006107408284031215610943578081fd5b60006102e08284031215610943578081fd5b60006020828403121561424b578081fd5b8135610b4281615858565b600060208284031215614267578081fd5b8151610b4281615858565b600060208284031215614283578081fd5b8151610b428161586d565b60006020828403121561429f578081fd5b5035919050565b6000602082840312156142b7578081fd5b5051919050565b600080604083850312156142d0578081fd5b8235915060208301356142e281615858565b809150509250929050565b600080604083850312156142ff578182fd5b50508035926020909101359150565b600080600060608486031215614322578081fd5b505081359360208301359350604090920135919050565b60008060006060848603121561434d578081fd5b8335925060208401356001600160e01b03198116811461436b578182fd5b9150604084013561437b81615858565b809150509250925092565b6000806107608385031215614399578182fd5b823591506143aa8460208501614216565b90509250929050565b600080600080600080600080600080610b608b8d0312156143d2578788fd5b8a3599506143e38c60208d01614216565b98506143f38c6107608d01614228565b9750610a408b013567ffffffffffffffff80821115614410578788fd5b818d0191508d601f830112614423578788fd5b813581811115614431578889fd5b8e60208083028501011115614444578889fd5b60208301995080985050505061445e8c610a608d01614122565b945061446d610ae08c0161406e565b935061447c610b008c0161406e565b925061448b610b208c0161406e565b915061449a610b408c0161406e565b90509295989b9194979a5092959850565b60008061030083850312156144be578182fd5b823591506143aa8460208501614228565b6000602082840312156144e0578081fd5b610b42826140fd565b600080604083850312156144fb578182fd5b614504836140fd565b946020939093013593505050565b600060808284031215614523578081fd5b6040516080810181811067ffffffffffffffff8211171561454057fe5b604052823561454e81615858565b8152602083013561455e81615858565b6020820152604083013561457181615858565b6040820152606083013561458481615858565b60608201529392505050565b6000608082840312156145a1578081fd5b6040516080810181811067ffffffffffffffff821117156145be57fe5b8060405250825181526020830151602082015260408301516145df816158a2565b60408201526060830151614584816158a2565b600060808284031215614603578081fd5b610b428383614133565b60006060828403121561461e578081fd5b610b4283836141ae565b6000610740828403121561463a578081fd5b61054061464681615813565b61464f846140dc565b815261465d602085016140a5565b602082015261466e604085016140c6565b604082015261467f606085016140f2565b60608201526146906080850161408f565b60808201526146a160a085016140a5565b60a08201526146b260c08501614117565b60c08201526146c360e085016140a5565b60e08201526101006146d6818601614079565b908201526101206146e8858201614079565b908201526101408481015190820152610160808501519082015261018080850151908201526101a080850151908201526101c080850151908201526101e08085015190820152610200808501519082015261022080850151908201526102408085015190820152610260808501519082015261028080850151908201526102a080850151908201526102c080850151908201526102e08085015190820152610300808501519082015261032080850151908201526103408085015190820152610360808501519082015261038080850151908201526103a080850151908201526103c080850151908201526103e080850151908201526104008085015190820152610420808501519082015261044080850151908201526104608085015190820152610480614819868287016141ae565b908201526104e061482c868683016141ae565b6104a083015261483e86848701614133565b6104c0830152614852866105c08701614133565b90820152614864856106408601614133565b610500820152614878856106c08601614133565b610520820152949350505050565b60006102e0808385031215614899578182fd5b6148a281615813565b90506148ad836140b0565b81526020838101359082015260408084013590820152606080840135908201526080808401359082015260a0808401359082015260c0808401359082015260e08084013590820152610100808401359082015261012080840135908201526101408084013590820152610160808401359082015261018080840135908201526101a080840135908201526101c080840135908201526101e08084013590820152610200808401359082015261022080840135908201526102408084013590820152610260808401359082015261028080840135908201526102a080840135908201526102c0928301359281019290925250919050565b6000602082840312156149b4578081fd5b815160ff81168114610b42578182fd5b6001600160a01b03169052565b600981106149db57fe5b9052565b6149db81615837565b6149db81615844565b600d81106149db57fe5b601481106149db57fe5b600b81106149db57fe5b602281106149db57fe5b600481106149db57fe5b803582526020810135614a3581615895565b614a3e81615844565b60208301526040810135614a5181615888565b614a5a81615837565b60408301526060810135614a6d8161586d565b8015156060840152505050565b805182526020810151614a8c81615844565b60208301526040810151614a9f81615837565b60408301526060908101511515910152565b803582526020810135614ac381615895565b614acc81615844565b60208301526040810135614adf8161586d565b8015156040840152505050565b805182526020810151614afe81615844565b60208301526040908101511515910152565b614b1b8282516149fb565b6020810151614b2d60208401826149df565b506040810151614b4060408401826149f1565b506060810151614b536060840182614a05565b506080810151614b6660808401826149d1565b5060a0810151614b7960a08401826149df565b5060c0810151614b8c60c0840182614a19565b5060e0810151614b9f60e08401826149df565b5061010080820151614bb3828501826149c4565b505061012080820151614bc8828501826149c4565b50506101408181015190830152610160808201519083015261018080820151908301526101a080820151908301526101c080820151908301526101e08082015190830152610200808201519083015261022080820151908301526102408082015190830152610260808201519083015261028080820151908301526102a080820151908301526102c080820151908301526102e08082015190830152610300808201519083015261032080820151908301526103408082015190830152610360808201519083015261038080820151908301526103a080820151908301526103c080820151908301526103e08082015190830152610400808201519083015261042080820151908301526104408082015190830152610460808201519083015261048080820151614cfb82850182614aec565b50506104a08101516104e0614d1281850183614aec565b6104c08301519150614d28610540850183614a7a565b8201519050614d3b6105c0840182614a7a565b50610500810151614d50610640840182614a7a565b50610520810151613a0f6106c0840182614a7a565b6001600160a01b0391909116815260200190565b6001600160a01b0392831681529116602082015260400190565b6020808252825182820181905260009190848201906040850190845b81811015614dcb57835183529284019291840191600101614daf565b50909695505050505050565b901515815260200190565b9115158252602082015260400190565b90815260200190565b9283526001600160a01b03918216602084015216604082015260600190565b9081526a19dc9858d954195c9a5bd960aa1b602082015260400190565b9081527019195b1a5b9c5d595b98de54195c9a5bd9607a1b602082015260400190565b908152706e6f6e506572666f726d696e674461746560781b602082015260400190565b90815272636f6e7472616374506572666f726d616e636560681b602082015260400190565b6001600160e01b031991909116815260200190565b60408101614ec58285614a0f565b8260208301529392505050565b6020808252603e908201527f417373657452656769737472792e736574436f756e746572706172747942656e60408201527f65666963696172793a20454e5452595f444f45535f4e4f545f45584953540000606082015260800190565b6020808252603d908201527f417373657452656769737472792e736574436f756e746572706172747942656e60408201527f65666963696172793a20554e415554484f52495a45445f53454e444552000000606082015260800190565b60208082526039908201527f417373657452656769737472792e736574436f756e74657270617274794f626c60408201527f69676f723a20554e415554484f52495a45445f53454e44455200000000000000606082015260800190565b6020808252602f908201527f416363657373436f6e74726f6c2e6973417574686f72697a65643a20554e415560408201526e2a2427a924ad22a22fa9a2a72222a960891b606082015260800190565b6020808252602b908201527f4261736552656769737472792e73657441737365743a2041535345545f414c5260408201526a454144595f45584953545360a81b606082015260800190565b60208082526034908201527f4261736552656769737472792e6f6e6c79417070726f7665644163746f72733a604082015273102aa720aaaa2427a924ad22a22fa9a2a72222a960611b606082015260800190565b60208082526038908201527f417373657452656769737472792e73657443726561746f7242656e656669636960408201527f6172793a20554e415554484f52495a45445f53454e4445520000000000000000606082015260800190565b60208082526029908201527f4261736552656769737472792e73657441737365743a204143544f525f4e4f5460408201526817d054141493d5915160ba1b606082015260800190565b60208082526037908201527f506572696f645574696c732e67657454696d657374616d70506c75735065726960408201527f6f643a204154545249425554455f4e4f545f464f554e44000000000000000000606082015260800190565b60208082526039908201527f417373657452656769737472792e73657443726561746f7242656e656669636960408201527f6172793a20454e5452595f444f45535f4e4f545f455849535400000000000000606082015260800190565b6020808252602f908201527f416363657373436f6e74726f6c2e7265766f6b654163636573733a20554e415560408201526e2a2427a924ad22a22fa9a2a72222a960891b606082015260800190565b60208082526034908201527f417373657452656769737472792e73657443726561746f724f626c69676f723a604082015273102aa720aaaa2427a924ad22a22fa9a2a72222a960611b606082015260800190565b60208082526042908201527f41737365744163746f722e6765744e657874556e6465726c79696e674576656e60408201527f743a20554e4445524c59494e475f41535345545f444f45535f4e4f545f45584960608201526114d560f21b608082015260a00190565b81516001600160a01b039081168252602080840151821690830152604080840151821690830152606092830151169181019190915260800190565b918252602082015260400190565b82815261076081016153a8602083016153a3856140d1565b6149fb565b6153b46020840161409a565b6153c160408401826149df565b506153ce604084016140bb565b6153db60608401826149f1565b506153e8606084016140e7565b6153f56080840182614a05565b5061540260808401614084565b61540f60a08401826149d1565b5061541c60a0840161409a565b61542960c08401826149df565b5061543660c0840161410c565b61544360e0840182614a19565b5061545060e0840161409a565b61010061545f818501836149df565b61546a81860161406e565b91505061012061547c818501836149c4565b61548781860161406e565b915050610140615499818501836149c4565b610160915080850135828501525061018081850135818501526101a091508085013582850152506101c081850135818501526101e09150808501358285015250610200818501358185015261022091508085013582850152506102408185013581850152610260915080850135828501525061028081850135818501526102a091508085013582850152506102c081850135818501526102e09150808501358285015250610300818501358185015261032091508085013582850152506103408185013581850152610360915080850135828501525061038081850135818501526103a091508085013582850152506103c081850135818501526103e09150808501358285015250610400818501358185015261042091508085013582850152506104408185013581850152610460915080850135828501525061048081850135818501526155ee6104a08501828701614ab1565b505061560261050083016104e08501614ab1565b61561461056083016105408501614a23565b6156266105e083016105c08501614a23565b61563861066083016106408501614a23565b610c776106e083016106c08501614a23565b81518152602080830151908201526040820151608082019061566b8161584e565b6040830152606083015161567e8161584e565b8060608401525092915050565b60808101610b458284614a7a565b60608101610b458284614aec565b6107408101610b458284614b10565b61076081016156c58285614b10565b826107408301529392505050565b61078081016156e28286614b10565b836107408301526156f7610760830184614a0f565b949350505050565b60006102e0820190506157138284516149e8565b6020838101519083015260408084015190830152606080840151908301526080808401519083015260a0808401519083015260c0808401519083015260e08084015190830152610100808401519083015261012080840151908301526101408084015190830152610160808401519083015261018080840151908301526101a080840151908301526101c080840151908301526101e08084015190830152610200808401519083015261022080840151908301526102408084015190830152610260808401519083015261028080840151908301526102a080840151908301526102c092830151929091019190915290565b60ff91909116815260200190565b60405181810167ffffffffffffffff8111828210171561582f57fe5b604052919050565b6002811061584157fe5b50565b6006811061584157fe5b6005811061584157fe5b6001600160a01b038116811461584157600080fd5b801515811461584157600080fd5b6009811061584157600080fd5b6002811061584157600080fd5b6006811061584157600080fd5b6005811061584157600080fd5b600d811061584157600080fd5b6014811061584157600080fd5b600b811061584157600080fd5b6004811061584157600080fdfe4f776e61626c653a206e6577206f776e657220697320746865207a65726f2061646472657373536166654d6174683a206d756c7469706c69636174696f6e206f766572666c6f77a2646970667358221220d4fa1a4461eca30944502d3c72006405cc9e1fb9c2d14e752f25d5d437b54dda64736f6c63430007040033",
  "linkReferences": {
    "contracts/Core/PAM/PAMEncoder.sol": {
      "PAMEncoder": [
        {
          "length": 20,
          "start": 2891
        },
        {
          "length": 20,
          "start": 4483
        },
        {
          "length": 20,
          "start": 4641
        },
        {
          "length": 20,
          "start": 6343
        },
        {
          "length": 20,
          "start": 6584
        },
        {
          "length": 20,
          "start": 6792
        },
        {
          "length": 20,
          "start": 6973
        },
        {
          "length": 20,
          "start": 7194
        },
        {
          "length": 20,
          "start": 7884
        },
        {
          "length": 20,
          "start": 8541
        },
        {
          "length": 20,
          "start": 8691
        },
        {
          "length": 20,
          "start": 13729
        }
      ]
    }
  },
  "deployedLinkReferences": {
    "contracts/Core/PAM/PAMEncoder.sol": {
      "PAMEncoder": [
        {
          "length": 20,
          "start": 2761
        },
        {
          "length": 20,
          "start": 4353
        },
        {
          "length": 20,
          "start": 4511
        },
        {
          "length": 20,
          "start": 6213
        },
        {
          "length": 20,
          "start": 6454
        },
        {
          "length": 20,
          "start": 6662
        },
        {
          "length": 20,
          "start": 6843
        },
        {
          "length": 20,
          "start": 7064
        },
        {
          "length": 20,
          "start": 7754
        },
        {
          "length": 20,
          "start": 8411
        },
        {
          "length": 20,
          "start": 8561
        },
        {
          "length": 20,
          "start": 13599
        }
      ]
    }
  }
}