{
  "_format": "hh-sol-artifact-1",
  "contractName": "CEGActor",
  "sourceName": "contracts/Core/CEG/CEGActor.sol",
  "abi": [
    {
      "inputs": [
        {
          "internalType": "contract IAssetRegistry",
          "name": "assetRegistry",
          "type": "address"
        },
        {
          "internalType": "contract IOracleProxy",
          "name": "defaultOracleProxy",
          "type": "address"
        }
      ],
      "stateMutability": "nonpayable",
      "type": "constructor"
    },
    {
      "anonymous": false,
      "inputs": [
        {
          "indexed": true,
          "internalType": "bytes32",
          "name": "assetId",
          "type": "bytes32"
        },
        {
          "indexed": false,
          "internalType": "enum ContractType",
          "name": "contractType",
          "type": "uint8"
        },
        {
          "indexed": false,
          "internalType": "address",
          "name": "creator",
          "type": "address"
        },
        {
          "indexed": false,
          "internalType": "address",
          "name": "counterparty",
          "type": "address"
        }
      ],
      "name": "InitializedAsset",
      "type": "event"
    },
    {
      "anonymous": false,
      "inputs": [
        {
          "indexed": true,
          "internalType": "address",
          "name": "previousOwner",
          "type": "address"
        },
        {
          "indexed": true,
          "internalType": "address",
          "name": "newOwner",
          "type": "address"
        }
      ],
      "name": "OwnershipTransferred",
      "type": "event"
    },
    {
      "anonymous": false,
      "inputs": [
        {
          "indexed": true,
          "internalType": "bytes32",
          "name": "assetId",
          "type": "bytes32"
        },
        {
          "indexed": false,
          "internalType": "enum EventType",
          "name": "eventType",
          "type": "uint8"
        },
        {
          "indexed": false,
          "internalType": "uint256",
          "name": "scheduleTime",
          "type": "uint256"
        },
        {
          "indexed": false,
          "internalType": "int256",
          "name": "payoff",
          "type": "int256"
        }
      ],
      "name": "ProgressedAsset",
      "type": "event"
    },
    {
      "anonymous": false,
      "inputs": [
        {
          "indexed": true,
          "internalType": "bytes32",
          "name": "assetId",
          "type": "bytes32"
        },
        {
          "indexed": false,
          "internalType": "bytes32",
          "name": "statusMessage",
          "type": "bytes32"
        }
      ],
      "name": "Status",
      "type": "event"
    },
    {
      "inputs": [],
      "name": "assetRegistry",
      "outputs": [
        {
          "internalType": "contract IAssetRegistry",
          "name": "",
          "type": "address"
        }
      ],
      "stateMutability": "view",
      "type": "function"
    },
    {
      "inputs": [
        {
          "internalType": "bytes32",
          "name": "object",
          "type": "bytes32"
        }
      ],
      "name": "decodeCollateralObject",
      "outputs": [
        {
          "internalType": "address",
          "name": "",
          "type": "address"
        },
        {
          "internalType": "uint256",
          "name": "",
          "type": "uint256"
        }
      ],
      "stateMutability": "pure",
      "type": "function"
    },
    {
      "inputs": [
        {
          "internalType": "bytes32",
          "name": "_event",
          "type": "bytes32"
        }
      ],
      "name": "decodeEvent",
      "outputs": [
        {
          "internalType": "enum EventType",
          "name": "",
          "type": "uint8"
        },
        {
          "internalType": "uint256",
          "name": "",
          "type": "uint256"
        }
      ],
      "stateMutability": "pure",
      "type": "function"
    },
    {
      "inputs": [],
      "name": "defaultOracleProxy",
      "outputs": [
        {
          "internalType": "contract IOracleProxy",
          "name": "",
          "type": "address"
        }
      ],
      "stateMutability": "view",
      "type": "function"
    },
    {
      "inputs": [
        {
          "internalType": "address",
          "name": "collateralToken",
          "type": "address"
        },
        {
          "internalType": "uint256",
          "name": "collateralAmount",
          "type": "uint256"
        }
      ],
      "name": "encodeCollateralAsObject",
      "outputs": [
        {
          "internalType": "bytes32",
          "name": "",
          "type": "bytes32"
        }
      ],
      "stateMutability": "pure",
      "type": "function"
    },
    {
      "inputs": [
        {
          "internalType": "enum EventType",
          "name": "eventType",
          "type": "uint8"
        },
        {
          "internalType": "uint256",
          "name": "scheduleTime",
          "type": "uint256"
        }
      ],
      "name": "encodeEvent",
      "outputs": [
        {
          "internalType": "bytes32",
          "name": "",
          "type": "bytes32"
        }
      ],
      "stateMutability": "pure",
      "type": "function"
    },
    {
      "inputs": [
        {
          "internalType": "enum EventType",
          "name": "eventType",
          "type": "uint8"
        }
      ],
      "name": "getEpochOffset",
      "outputs": [
        {
          "internalType": "uint256",
          "name": "",
          "type": "uint256"
        }
      ],
      "stateMutability": "pure",
      "type": "function"
    },
    {
      "inputs": [
        {
          "components": [
            {
              "internalType": "enum ContractType",
              "name": "contractType",
              "type": "uint8"
            },
            {
              "internalType": "enum Calendar",
              "name": "calendar",
              "type": "uint8"
            },
            {
              "internalType": "enum ContractRole",
              "name": "contractRole",
              "type": "uint8"
            },
            {
              "internalType": "enum DayCountConvention",
              "name": "dayCountConvention",
              "type": "uint8"
            },
            {
              "internalType": "enum BusinessDayConvention",
              "name": "businessDayConvention",
              "type": "uint8"
            },
            {
              "internalType": "enum EndOfMonthConvention",
              "name": "endOfMonthConvention",
              "type": "uint8"
            },
            {
              "internalType": "enum FeeBasis",
              "name": "feeBasis",
              "type": "uint8"
            },
            {
              "internalType": "enum ContractPerformance",
              "name": "creditEventTypeCovered",
              "type": "uint8"
            },
            {
              "internalType": "address",
              "name": "currency",
              "type": "address"
            },
            {
              "internalType": "address",
              "name": "settlementCurrency",
              "type": "address"
            },
            {
              "internalType": "uint256",
              "name": "statusDate",
              "type": "uint256"
            },
            {
              "internalType": "uint256",
              "name": "maturityDate",
              "type": "uint256"
            },
            {
              "internalType": "uint256",
              "name": "purchaseDate",
              "type": "uint256"
            },
            {
              "internalType": "uint256",
              "name": "cycleAnchorDateOfFee",
              "type": "uint256"
            },
            {
              "internalType": "int256",
              "name": "notionalPrincipal",
              "type": "int256"
            },
            {
              "internalType": "int256",
              "name": "feeAccrued",
              "type": "int256"
            },
            {
              "internalType": "int256",
              "name": "feeRate",
              "type": "int256"
            },
            {
              "internalType": "int256",
              "name": "priceAtPurchaseDate",
              "type": "int256"
            },
            {
              "internalType": "int256",
              "name": "coverageOfCreditEnhancement",
              "type": "int256"
            },
            {
              "components": [
                {
                  "internalType": "uint256",
                  "name": "i",
                  "type": "uint256"
                },
                {
                  "internalType": "enum P",
                  "name": "p",
                  "type": "uint8"
                },
                {
                  "internalType": "bool",
                  "name": "isSet",
                  "type": "bool"
                }
              ],
              "internalType": "struct IP",
              "name": "gracePeriod",
              "type": "tuple"
            },
            {
              "components": [
                {
                  "internalType": "uint256",
                  "name": "i",
                  "type": "uint256"
                },
                {
                  "internalType": "enum P",
                  "name": "p",
                  "type": "uint8"
                },
                {
                  "internalType": "bool",
                  "name": "isSet",
                  "type": "bool"
                }
              ],
              "internalType": "struct IP",
              "name": "delinquencyPeriod",
              "type": "tuple"
            },
            {
              "components": [
                {
                  "internalType": "uint256",
                  "name": "i",
                  "type": "uint256"
                },
                {
                  "internalType": "enum P",
                  "name": "p",
                  "type": "uint8"
                },
                {
                  "internalType": "enum S",
                  "name": "s",
                  "type": "uint8"
                },
                {
                  "internalType": "bool",
                  "name": "isSet",
                  "type": "bool"
                }
              ],
              "internalType": "struct IPS",
              "name": "cycleOfFee",
              "type": "tuple"
            },
            {
              "components": [
                {
                  "internalType": "bytes32",
                  "name": "object",
                  "type": "bytes32"
                },
                {
                  "internalType": "bytes32",
                  "name": "object2",
                  "type": "bytes32"
                },
                {
                  "internalType": "enum ContractReferenceType",
                  "name": "_type",
                  "type": "uint8"
                },
                {
                  "internalType": "enum ContractReferenceRole",
                  "name": "role",
                  "type": "uint8"
                }
              ],
              "internalType": "struct ContractReference",
              "name": "contractReference_1",
              "type": "tuple"
            },
            {
              "components": [
                {
                  "internalType": "bytes32",
                  "name": "object",
                  "type": "bytes32"
                },
                {
                  "internalType": "bytes32",
                  "name": "object2",
                  "type": "bytes32"
                },
                {
                  "internalType": "enum ContractReferenceType",
                  "name": "_type",
                  "type": "uint8"
                },
                {
                  "internalType": "enum ContractReferenceRole",
                  "name": "role",
                  "type": "uint8"
                }
              ],
              "internalType": "struct ContractReference",
              "name": "contractReference_2",
              "type": "tuple"
            }
          ],
          "internalType": "struct CEGTerms",
          "name": "terms",
          "type": "tuple"
        },
        {
          "internalType": "bytes32[]",
          "name": "schedule",
          "type": "bytes32[]"
        },
        {
          "components": [
            {
              "internalType": "address",
              "name": "creatorObligor",
              "type": "address"
            },
            {
              "internalType": "address",
              "name": "creatorBeneficiary",
              "type": "address"
            },
            {
              "internalType": "address",
              "name": "counterpartyObligor",
              "type": "address"
            },
            {
              "internalType": "address",
              "name": "counterpartyBeneficiary",
              "type": "address"
            }
          ],
          "internalType": "struct AssetOwnership",
          "name": "ownership",
          "type": "tuple"
        },
        {
          "internalType": "address",
          "name": "engine",
          "type": "address"
        },
        {
          "internalType": "address",
          "name": "admin",
          "type": "address"
        }
      ],
      "name": "initialize",
      "outputs": [],
      "stateMutability": "nonpayable",
      "type": "function"
    },
    {
      "inputs": [],
      "name": "owner",
      "outputs": [
        {
          "internalType": "address",
          "name": "",
          "type": "address"
        }
      ],
      "stateMutability": "view",
      "type": "function"
    },
    {
      "inputs": [
        {
          "internalType": "bytes32",
          "name": "assetId",
          "type": "bytes32"
        }
      ],
      "name": "progress",
      "outputs": [],
      "stateMutability": "nonpayable",
      "type": "function"
    },
    {
      "inputs": [
        {
          "internalType": "bytes32",
          "name": "assetId",
          "type": "bytes32"
        },
        {
          "internalType": "bytes32",
          "name": "_event",
          "type": "bytes32"
        }
      ],
      "name": "progressWith",
      "outputs": [],
      "stateMutability": "nonpayable",
      "type": "function"
    },
    {
      "inputs": [],
      "name": "renounceOwnership",
      "outputs": [],
      "stateMutability": "nonpayable",
      "type": "function"
    },
    {
      "inputs": [
        {
          "internalType": "uint256",
          "name": "timestamp",
          "type": "uint256"
        },
        {
          "internalType": "enum BusinessDayConvention",
          "name": "convention",
          "type": "uint8"
        },
        {
          "internalType": "enum Calendar",
          "name": "calendar",
          "type": "uint8"
        },
        {
          "internalType": "uint256",
          "name": "maturityDate",
          "type": "uint256"
        }
      ],
      "name": "shiftCalcTime",
      "outputs": [
        {
          "internalType": "uint256",
          "name": "",
          "type": "uint256"
        }
      ],
      "stateMutability": "pure",
      "type": "function"
    },
    {
      "inputs": [
        {
          "internalType": "uint256",
          "name": "timestamp",
          "type": "uint256"
        },
        {
          "internalType": "enum BusinessDayConvention",
          "name": "convention",
          "type": "uint8"
        },
        {
          "internalType": "enum Calendar",
          "name": "calendar",
          "type": "uint8"
        },
        {
          "internalType": "uint256",
          "name": "maturityDate",
          "type": "uint256"
        }
      ],
      "name": "shiftEventTime",
      "outputs": [
        {
          "internalType": "uint256",
          "name": "",
          "type": "uint256"
        }
      ],
      "stateMutability": "pure",
      "type": "function"
    },
    {
      "inputs": [
        {
          "internalType": "address",
          "name": "newOwner",
          "type": "address"
        }
      ],
      "name": "transferOwnership",
      "outputs": [],
      "stateMutability": "nonpayable",
      "type": "function"
    }
  ],
  "bytecode": "0x60806040523480156200001157600080fd5b5060405162003c1938038062003c198339810160408190526200003491620000c9565b8181600062000042620000c5565b600080546001600160a01b0319166001600160a01b0383169081178255604051929350917f8be0079c531659141344cd1fd0a4f28419497f9722a3daafe3b4186f6b6457e0908290a35060018055600280546001600160a01b039384166001600160a01b0319918216179091556003805492909316911617905550620001209050565b3390565b60008060408385031215620000dc578182fd5b8251620000e98162000107565b6020840151909250620000fc8162000107565b809150509250929050565b6001600160a01b03811681146200011d57600080fd5b50565b613ae980620001306000396000f3fe608060405234801561001057600080fd5b50600436106100f55760003560e01c8063811322fb11610097578063e05a66e011610066578063e05a66e0146101e0578063e726d680146101f3578063f2fde38b14610206578063f5586e0514610219576100f5565b8063811322fb146101a85780638da5cb5b146101bb578063979d7e86146101d057806398172dd8146101d8576100f5565b80636b6ba664116100d35780636b6ba66414610159578063715018a61461016c57806372540003146101745780637aebd2a814610195576100f5565b806322acdaf5146100fa578063645a26bd1461010f5780636778e0e914610139575b600080fd5b61010d61010836600461282d565b61022c565b005b61012261011d3660046126c2565b6104b7565b604051610130929190613123565b60405180910390f35b61014c61014736600461267b565b6104d0565b604051610130919061313c565b61010d6101673660046126f2565b6104fb565b61010d6107a7565b6101876101823660046126c2565b61085b565b6040516101309291906133bf565b61010d6101a33660046126c2565b610884565b61014c6101b636600461274b565b610c05565b6101c3610c1b565b60405161013091906130d1565b6101c3610c2a565b6101c3610c39565b61014c6101ee366004612765565b610c48565b61014c610201366004612bb2565b610c66565b61010d610214366004612643565b610dbb565b61014c610227366004612bb2565b610ec5565b6001600160a01b038216158015906102bf57506010826001600160a01b031663cb2ef6f76040518163ffffffff1660e01b815260040160206040518083038186803b15801561027a57600080fd5b505afa15801561028e573d6000803e3d6000fd5b505050506040513d601f19601f820116820180604052508101906102b2919061272f565b60138111156102bd57fe5b145b6102e45760405162461bcd60e51b81526004016102db906133f9565b60405180910390fd5b600086426040516020016102f99291906137ef565b60408051601f1981840301815291905280516020909101209050600361032761042089016104008a01612713565b600481111561033257fe5b141561035a576103a087013561035a5760405162461bcd60e51b81526004016102db90613456565b610362612215565b60405163790f7d6160e11b81526001600160a01b0385169063f21efac29061038e908b906004016137e0565b6102e06040518083038186803b1580156103a757600080fd5b505afa1580156103bb573d6000803e3d6000fd5b505050506040513d601f19601f820116820180604052508101906103df9190612a95565b6002546040516308b0142560e21b81529192506001600160a01b0316906322c05094906104209085908c9086908d908d908d908d9030908e9060040161328a565b600060405180830381600087803b15801561043a57600080fd5b505af115801561044e573d6000803e3d6000fd5b508492507fc5df678b84aa92f5f59981df8c9997b366d886de25771c5f753015c2e14e907a9150601090506104866020890189612643565b61049660608a0160408b01612643565b6040516104a59392919061338f565b60405180910390a25050505050505050565b606081901c6bffffffffffffffffffffffff8216915091565b6bffffffffffffffffffffffff19606083901b166bffffffffffffffffffffffff8216175b92915050565b60025460405163747be51f60e11b81526001600160a01b039091169063e8f7ca3e9061052d9085903390600401613145565b602060405180830381600087803b15801561054757600080fd5b505af115801561055b573d6000803e3d6000fd5b505050506040513d601f19601f8201168201806040525081019061057f91906126a6565b61059b5760405162461bcd60e51b81526004016102db90613600565b60025460405163f52f84e160e01b81526000916001600160a01b03169063f52f84e1906105cc90869060040161313c565b60206040518083038186803b1580156105e457600080fd5b505afa1580156105f8573d6000803e3d6000fd5b505050506040513d601f19601f8201168201806040525081019061061c91906126da565b146106395760405162461bcd60e51b81526004016102db90613744565b600254604051631d7a1ab960e21b81526000916001600160a01b0316906375e86ae49061066a90869060040161313c565b60206040518083038186803b15801561068257600080fd5b505afa158015610696573d6000803e3d6000fd5b505050506040513d601f19601f820116820180604052508101906106ba91906126da565b146106d75760405162461bcd60e51b81526004016102db906135b2565b60025460405163b828204160e01b815260009161075e916001600160a01b039091169063b82820419061070e90879060040161313c565b60206040518083038186803b15801561072657600080fd5b505afa15801561073a573d6000803e3d6000fd5b505050506040513d601f19601f8201168201806040525081019061018291906126da565b915050600061076c8361085b565b91505081158061077b57508181105b6107975760405162461bcd60e51b81526004016102db906134b3565b6107a18484610f39565b50505050565b6107af611543565b6000546001600160a01b03908116911614610811576040805162461bcd60e51b815260206004820181905260248201527f4f776e61626c653a2063616c6c6572206973206e6f7420746865206f776e6572604482015290519081900360640190fd5b600080546040516001600160a01b03909116907f8be0079c531659141344cd1fd0a4f28419497f9722a3daafe3b4186f6b6457e0908390a3600080546001600160a01b0319169055565b6000808060f884901c602181111561086f57fe5b92505067ffffffffffffffff83169050915091565b600254604051631392c59160e11b81526001600160a01b03909116906327258b22906108b490849060040161313c565b60206040518083038186803b1580156108cc57600080fd5b505afa1580156108e0573d6000803e3d6000fd5b505050506040513d601f19601f8201168201806040525081019061090491906126a6565b6109205760405162461bcd60e51b81526004016102db9061364b565b60025460405163c139626b60e01b81526000916001600160a01b03169063c139626b9061095190859060040161313c565b60206040518083038186803b15801561096957600080fd5b505afa15801561097d573d6000803e3d6000fd5b505050506040513d601f19601f820116820180604052508101906109a1919061265f565b600254604051630316dd6960e21b81529192506000916001600160a01b0390911690630c5b75a4906109d790869060040161313c565b602060405180830381600087803b1580156109f157600080fd5b505af1158015610a05573d6000803e3d6000fd5b505050506040513d601f19601f82011682018060405250810190610a2991906126da565b905080610ab357600254604051631d7a1ab960e21b81526001600160a01b03909116906375e86ae490610a6090869060040161313c565b60206040518083038186803b158015610a7857600080fd5b505afa158015610a8c573d6000803e3d6000fd5b505050506040513d601f19601f82011682018060405250810190610ab091906126da565b90505b80158015610ac957506001600160a01b03821615155b15610b4f5760405163019ad70360e41b81526001600160a01b038316906319ad703090610afa90869060040161313c565b602060405180830381600087803b158015610b1457600080fd5b505af1158015610b28573d6000803e3d6000fd5b505050506040513d601f19601f82011682018060405250810190610b4c91906126da565b90505b80610bd9576002546040516361db73e160e11b81526001600160a01b039091169063c3b6e7c290610b8490869060040161313c565b602060405180830381600087803b158015610b9e57600080fd5b505af1158015610bb2573d6000803e3d6000fd5b505050506040513d601f19601f82011682018060405250810190610bd691906126da565b90505b80610bf65760405162461bcd60e51b81526004016102db9061351c565b610c008382610f39565b505050565b6000816021811115610c1357fe5b90505b919050565b6000546001600160a01b031690565b6002546001600160a01b031681565b6003546001600160a01b031681565b60008160f8846021811115610c5957fe5b60ff16901b179392505050565b600081851415610c77575083610db3565b6001846008811115610c8557fe5b1480610c9c57506003846008811115610c9a57fe5b145b15610cb257610cab8584611547565b9050610db3565b6002846008811115610cc057fe5b1480610cd757506004846008811115610cd557fe5b145b15610d1b576000610ce88685611547565b9050610cf3866115a3565b610cfc826115a3565b1415610d09579050610db3565b610d1386856115bb565b915050610db3565b6005846008811115610d2957fe5b1480610d4057506007846008811115610d3e57fe5b145b15610d4f57610cab85846115bb565b6006846008811115610d5d57fe5b1480610d7457506008846008811115610d7257fe5b145b15610db0576000610d8586856115bb565b9050610d90866115a3565b610d99826115a3565b1415610da6579050610db3565b610d138685611547565b50835b949350505050565b610dc3611543565b6000546001600160a01b03908116911614610e25576040805162461bcd60e51b815260206004820181905260248201527f4f776e61626c653a2063616c6c6572206973206e6f7420746865206f776e6572604482015290519081900360640190fd5b6001600160a01b038116610e6a5760405162461bcd60e51b8152600401808060200182810382526026815260200180613a8e6026913960400191505060405180910390fd5b600080546040516001600160a01b03808516939216917f8be0079c531659141344cd1fd0a4f28419497f9722a3daafe3b4186f6b6457e091a3600080546001600160a01b0319166001600160a01b0392909216919091179055565b60006003846008811115610ed557fe5b1480610eec57506004846008811115610eea57fe5b145b80610f0257506007846008811115610f0057fe5b145b80610f1857506008846008811115610f1657fe5b145b15610f24575083610db3565b610f3085858585610c66565b95945050505050565b60026001541415610f91576040805162461bcd60e51b815260206004820152601f60248201527f5265656e7472616e637947756172643a207265656e7472616e742063616c6c00604482015290519081900360640190fd5b6002600155610f9e612215565b6002546040516309648a9d60e01b81526001600160a01b03909116906309648a9d90610fce90869060040161313c565b6102e06040518083038186803b158015610fe757600080fd5b505afa158015610ffb573d6000803e3d6000fd5b505050506040513d601f19601f8201168201806040525081019061101f9190612a95565b905060008151600581111561103057fe5b1480611048575060018151600581111561104657fe5b145b8061105f575060028151600581111561105d57fe5b145b61107b5760405162461bcd60e51b81526004016102db9061378f565b60008151600581111561108a57fe5b1461111357600254604051631ba316dd60e11b81526001600160a01b03909116906337462dba906110bf90869060040161313c565b6102e06040518083038186803b1580156110d857600080fd5b505afa1580156110ec573d6000803e3d6000fd5b505050506040513d601f19601f820116820180604052508101906111109190612a95565b90505b60008061111f8461085b565b60025460405163ecef557760e01b815292945090925042916112c99184916001600160a01b039091169063ecef55779061115d908b906004016131e3565b60206040518083038186803b15801561117557600080fd5b505afa158015611189573d6000803e3d6000fd5b505050506040513d601f19601f820116820180604052508101906111ad9190612bf9565b60ff1660088111156111bb57fe5b60025460405163ecef557760e01b81526001600160a01b039091169063ecef5577906111eb908c9060040161324b565b60206040518083038186803b15801561120357600080fd5b505afa158015611217573d6000803e3d6000fd5b505050506040513d601f19601f8201168201806040525081019061123b9190612bf9565b60ff16600181111561124957fe5b60025460405163135b9f4d60e01b81526001600160a01b039091169063135b9f4d90611279908d9060040161320a565b60206040518083038186803b15801561129157600080fd5b505afa1580156112a5573d6000803e3d6000fd5b505050506040513d601f19601f8201168201806040525081019061020191906126da565b11156112e75760405162461bcd60e51b81526004016102db906136f0565b6112ef612215565b60006112fc878688611609565b91509150600061130d88888461188f565b9050806114115760008651600581111561132357fe5b141561138e5760025460405163842962d560e01b81526001600160a01b039091169063842962d59061135b908b908a9060040161337a565b600060405180830381600087803b15801561137557600080fd5b505af1158015611389573d6000803e3d6000fd5b505050505b60025460405163d981e77360e01b81526001600160a01b039091169063d981e773906113c0908b908b9060040161315c565b600060405180830381600087803b1580156113da57600080fd5b505af11580156113ee573d6000803e3d6000fd5b5050505060006113ff600186610c48565b905061140c898583611609565b509350505b600254604051631d306b7f60e11b81526001600160a01b0390911690633a60d6fe90611443908b90879060040161337a565b600060405180830381600087803b15801561145d57600080fd5b505af1158015611471573d6000803e3d6000fd5b50505050801515600114156114e75760025460405163de07a17360e01b81526001600160a01b039091169063de07a173906114b4908b908b90879060040161316a565b600060405180830381600087803b1580156114ce57600080fd5b505af11580156114e2573d6000803e3d6000fd5b505050505b877fd255be8589971f117e0e4377177282fb7cce66e378bfb1b7eafddd05e4f181e960018315151461151a57600161151c565b865b868560405161152d939291906133da565b60405180910390a2505060018055505050505050565b3390565b6000600182600181111561155757fe5b141561159c5761156683611cc5565b6006141561158057611579836002611cd8565b90506104f5565b61158983611cc5565b6007141561159c57611579836001611cd8565b5090919050565b60006115b3620151808304611ced565b509392505050565b600060018260018111156115cb57fe5b141561159c576115da83611cc5565b600614156115ed57611579836001611d83565b6115f683611cc5565b6007141561159c57611579836002611d83565b611611612215565b60025460405163ee43eda160e01b815260009182916001600160a01b039091169063ee43eda19061164690899060040161313c565b60206040518083038186803b15801561165e57600080fd5b505afa158015611672573d6000803e3d6000fd5b505050506040513d601f19601f82011682018060405250810190611696919061265f565b90506116a06122c4565b6002546040516335f1cded60e11b81526001600160a01b0390911690636be39bda906116d0908a9060040161313c565b6104a06040518083038186803b1580156116e957600080fd5b505afa1580156116fd573d6000803e3d6000fd5b505050506040513d601f19601f8201168201806040525081019061172191906128eb565b905060008061172f8761085b565b915091506000846001600160a01b03166380f38af7858b8b61176a8f896117658a8d608001518e602001518f6101600151610ec5565b611d98565b6040518563ffffffff1660e01b8152600401611789949392919061380c565b60206040518083038186803b1580156117a157600080fd5b505afa1580156117b5573d6000803e3d6000fd5b505050506040513d601f19601f820116820180604052508101906117d991906126da565b9050846001600160a01b031663a9460b9e858b8b6118108f8961180b8a8d608001518e602001518f6101600151610ec5565b611fc0565b6040518563ffffffff1660e01b815260040161182f949392919061380c565b6102e06040518083038186803b15801561184857600080fd5b505afa15801561185c573d6000803e3d6000fd5b505050506040513d601f19601f820116820180604052508101906118809190612a95565b9a909950975050505050505050565b6000831580159061189f57508215155b6118bb5760405162461bcd60e51b81526004016102db90613693565b816118c857506001611cbe565b60025460405163eb01255960e01b81526000916001600160a01b03169063eb012559906118f99088906004016131a5565b60206040518083038186803b15801561191157600080fd5b505afa158015611925573d6000803e3d6000fd5b505050506040513d601f19601f82011682018060405250810190611949919061265f565b90506119536123a9565b600254604051635e353ebb60e11b81526001600160a01b039091169063bc6a7d7690611983908990600401613180565b60806040518083038186803b15801561199b57600080fd5b505afa1580156119af573d6000803e3d6000fd5b505050506040513d601f19601f820116820180604052508101906119d39190612a7a565b90506004816060015160048111156119e757fe5b14156119fc5780516119f8906104b7565b5091505b611a046123d0565b60025460405163e50e0ef760e01b81526001600160a01b039091169063e50e0ef790611a34908a9060040161313c565b60806040518083038186803b158015611a4c57600080fd5b505afa158015611a60573d6000803e3d6000fd5b505050506040513d601f19601f82011682018060405250810190611a8491906127af565b90506000806000871315611ab3575060408201516001600160a01b038216611aae57826020015191505b611acc565b5081516001600160a01b038216611acc57826060015191505b6000808813611adf578760001902611ae1565b875b905080866001600160a01b031663dd62ed3e84306040518363ffffffff1660e01b8152600401611b129291906130e5565b60206040518083038186803b158015611b2a57600080fd5b505afa158015611b3e573d6000803e3d6000fd5b505050506040513d601f19601f82011682018060405250810190611b6291906126da565b1080611be957506040516370a0823160e01b815281906001600160a01b038816906370a0823190611b979086906004016130d1565b60206040518083038186803b158015611baf57600080fd5b505afa158015611bc3573d6000803e3d6000fd5b505050506040513d601f19601f82011682018060405250810190611be791906126da565b105b15611c3357897f4f269a19b64cfff0bdee7fd3cdaec44e1fe38ce2ff55d3009a89fac6ecbe9f2c604051611c1c906134fe565b60405180910390a260009650505050505050611cbe565b6040516323b872dd60e01b81526001600160a01b038716906323b872dd90611c63908590879086906004016130ff565b602060405180830381600087803b158015611c7d57600080fd5b505af1158015611c91573d6000803e3d6000fd5b505050506040513d601f19601f82011682018060405250810190611cb591906126a6565b96505050505050505b9392505050565b6007620151809091046003010660010190565b6201518081028201828110156104f557600080fd5b60008080836226496581018262023ab1600483020590506004600362023ab18302010590910390600062164b09610fa0600185010205905060046105b58202058303601f019250600061098f8460500281611d4457fe5b0590506000605061098f83020585039050600b820560301994909401606402929092018301996002600c90940290910392909201975095509350505050565b6201518081028203828111156104f557600080fd5b60025460405163eb01255960e01b81526060916000916001600160a01b039091169063eb01255990611dce9088906004016131a5565b60206040518083038186803b158015611de657600080fd5b505afa158015611dfa573d6000803e3d6000fd5b505050506040513d601f19601f82011682018060405250810190611e1e919061265f565b60025460405163eb01255960e01b81529192506000916001600160a01b039091169063eb01255990611e549089906004016131bf565b60206040518083038186803b158015611e6c57600080fd5b505afa158015611e80573d6000803e3d6000fd5b505050506040513d601f19601f82011682018060405250810190611ea4919061265f565b9050806001600160a01b0316826001600160a01b031614611fa75760035460405160009182916001600160a01b03909116906308a4ec1090611eec90879087906020016130e5565b60405160208183030381529060405280519060200120886040518363ffffffff1660e01b8152600401611f2092919061315c565b604080518083038186803b158015611f3757600080fd5b505afa158015611f4b573d6000803e3d6000fd5b505050506040513d601f19601f82011682018060405250810190611f6f9190612780565b915091508015611fa45781604051602001611f8a919061313c565b604051602081830303815290604052945050505050611cbe565b50505b5050604080516000815260208101909152949350505050565b60606001836021811115611fd057fe5b1415611ffd5742604051602001611fe7919061313c565b6040516020818303038152906040529050611cbe565b601983602181111561200b57fe5b14156121fe576120196123a9565b600254604051635e353ebb60e11b81526001600160a01b039091169063bc6a7d7690612049908890600401613265565b60806040518083038186803b15801561206157600080fd5b505afa158015612075573d6000803e3d6000fd5b505050506040513d601f19601f820116820180604052508101906120999190612a7a565b90506003816060015160048111156120ad57fe5b14156121fc5780516020820151604051631392c59160e11b81526001600160a01b038216906327258b22906120e690859060040161313c565b60206040518083038186803b1580156120fe57600080fd5b505afa158015612112573d6000803e3d6000fd5b505050506040513d601f19601f8201168201806040525081019061213691906126a6565b15156001146121575760405162461bcd60e51b81526004016102db9061355d565b604051636a899b9b60e01b81526001600160a01b03821690636a899b9b90612183908590600401613228565b60206040518083038186803b15801561219b57600080fd5b505afa1580156121af573d6000803e3d6000fd5b505050506040513d601f19601f820116820180604052508101906121d391906126da565b6040516020016121e3919061313c565b6040516020818303038152906040529350505050611cbe565b505b505060408051600081526020810190915292915050565b604080516102e081019091528060008152602001600081526020016000815260200160008152602001600081526020016000815260200160008152602001600081526020016000815260200160008152602001600081526020016000815260200160008152602001600081526020016000815260200160008152602001600081526020016000815260200160008152602001600081526020016000815260200160008152602001600081525090565b60408051610300810190915280600081526020016000815260200160008152602001600081526020016000815260200160008152602001600081526020016000815260200160006001600160a01b0316815260200160006001600160a01b031681526020016000815260200160008152602001600081526020016000815260200160008152602001600081526020016000815260200160008152602001600081526020016123706123f7565b815260200161237d6123f7565b815260200161238a61241a565b81526020016123976123a9565b81526020016123a46123a9565b905290565b604080516080810182526000808252602082018190529091820190815260200160006123a4565b60408051608081018252600080825260208201819052918101829052606081019190915290565b6040805160608101909152600080825260208201905b8152600060209091015290565b6040805160808101909152600080825260208201908152602001600061240d565b8035610c1681613a0f565b8051610c1681613a0f565b8035610c1681613a32565b8051610c1681613a32565b8035610c1681613a3f565b8051610c1681613a3f565b8035610c1681613a4c565b8051610c1681613a4c565b8035610c1681613a66565b8051610c1681613a66565b8035610c1681613a73565b8051610c1681613a73565b8035610c1681613a80565b8051610c1681613a80565b803560228110610c1657600080fd5b6000608082840312156124f5578081fd5b50919050565b60006080828403121561250c578081fd5b6040516080810181811067ffffffffffffffff8211171561252957fe5b80604052508091508251815260208301516020820152604083015161254d81613a59565b6040820152606083015161256081613a59565b6060919091015292915050565b60006080828403121561257e578081fd5b6040516080810181811067ffffffffffffffff8211171561259b57fe5b80604052508091508251815260208301516125b581613a4c565b602082015260408301516125c881613a3f565b6040820152606083015161256081613a24565b6000606082840312156125ec578081fd5b6040516060810181811067ffffffffffffffff8211171561260957fe5b806040525080915082518152602083015161262381613a4c565b6020820152604083015161263681613a24565b6040919091015292915050565b600060208284031215612654578081fd5b8135611cbe81613a0f565b600060208284031215612670578081fd5b8151611cbe81613a0f565b6000806040838503121561268d578081fd5b823561269881613a0f565b946020939093013593505050565b6000602082840312156126b7578081fd5b8151611cbe81613a24565b6000602082840312156126d3578081fd5b5035919050565b6000602082840312156126eb578081fd5b5051919050565b60008060408385031215612704578182fd5b50508035926020909101359150565b600060208284031215612724578081fd5b8135611cbe81613a59565b600060208284031215612740578081fd5b8151611cbe81613a73565b60006020828403121561275c578081fd5b611cbe826124d5565b60008060408385031215612777578182fd5b612698836124d5565b60008060408385031215612792578182fd5b8251915060208301516127a481613a24565b809150509250929050565b6000608082840312156127c0578081fd5b6040516080810181811067ffffffffffffffff821117156127dd57fe5b60405282516127eb81613a0f565b815260208301516127fb81613a0f565b6020820152604083015161280e81613a0f565b6040820152606083015161282181613a0f565b60608201529392505050565b600080600080600080868803610580811215612847578283fd5b6104a080821215612856578384fd5b889750870135905067ffffffffffffffff80821115612873578384fd5b818901915089601f830112612886578384fd5b813581811115612894578485fd5b8a602080830285010111156128a7578485fd5b6020830197508096505050506128c1886104c089016124e4565b92506128d0610540880161243b565b91506128df610560880161243b565b90509295509295509295565b60006104a082840312156128fd578081fd5b6129086103006139ca565b612911836124b4565b815261291f60208401612472565b60208201526129306040840161249e565b6040820152612941606084016124ca565b60608201526129526080840161245c565b608082015261296360a08401612472565b60a082015261297460c08401612472565b60c082015261298560e08401612488565b60e0820152610100612998818501612446565b908201526101206129aa848201612446565b908201526101408381015190820152610160808401519082015261018080840151908201526101a080840151908201526101c080840151908201526101e08084015190820152610200808401519082015261022080840151908201526102408084015190820152610260612a20858286016125db565b908201526102c0612a33858583016125db565b610280830152612a4785610320860161256d565b6102a0830152612a5b856103a086016124fb565b90820152612a6d8461042085016124fb565b6102e08201529392505050565b600060808284031215612a8b578081fd5b611cbe83836124fb565b60006102e0808385031215612aa8578182fd5b612ab1816139ca565b9050612abc83612488565b81526020838101519082015260408084015190820152606080840151908201526080808401519082015260a0808401519082015260c0808401519082015260e08084015190820152610100808401519082015261012080840151908201526101408084015190820152610160808401519082015261018080840151908201526101a080840151908201526101c080840151908201526101e08084015190820152610200808401519082015261022080840151908201526102408084015190820152610260808401519082015261028080840151908201526102a080840151908201526102c0928301519281019290925250919050565b60008060008060808587031215612bc7578182fd5b843593506020850135612bd981613a32565b92506040850135612be981613a3f565b9396929550929360600135925050565b600060208284031215612c0a578081fd5b815160ff81168114611cbe578182fd5b6001600160a01b03169052565b60008151808452815b81811015612c4c57602081850181015186830182015201612c30565b81811115612c5d5782602083870101525b50601f01601f19169290920160200192915050565b60098110612c7c57fe5b9052565b612c7c816139ee565b612c7c816139fb565b600d8110612c7c57fe5b60148110612c7c57fe5b600b8110612c7c57fe5b60228110612c7c57fe5b612ccc82612cc7836124a9565b612c9c565b612cd860208201612467565b612ce56020840182612c80565b50612cf260408201612493565b612cff6040840182612c92565b50612d0c606082016124bf565b612d196060840182612ca6565b50612d2660808201612451565b612d336080840182612c72565b50612d4060a08201612467565b612d4d60a0840182612c80565b50612d5a60c08201612467565b612d6760c0840182612c80565b50612d7460e0820161247d565b612d8160e0840182612c89565b50610100612d9081830161243b565b612d9c82850182612c1a565b5050610120612dac81830161243b565b612db882850182612c1a565b50506101408181013590830152610160808201359083015261018080820135908301526101a080820135908301526101c080820135908301526101e08082013590830152610200808201359083015261022080820135908301526102408082013590830152610260612e2e818401828401612f7b565b506102c0612e40818401828401612f7b565b50610320612e52818401828401612eed565b506103a0612e64818401828401612e72565b50610420610c008184018284015b80358252602081013560208301526040810135612e8e81613a59565b612e9781613a05565b60408301526060810135612eaa81613a59565b612eb381613a05565b806060840152505050565b80518252602081015160208301526040810151612eda81613a05565b60408301526060810151612eb381613a05565b803582526020810135612eff81613a4c565b612f08816139fb565b60208301526040810135612f1b81613a3f565b612f24816139ee565b60408301526060810135612f3781613a24565b8015156060840152505050565b805182526020810151612f56816139fb565b60208301526040810151612f69816139ee565b60408301526060908101511515910152565b803582526020810135612f8d81613a4c565b612f96816139fb565b60208301526040810135612fa981613a24565b8015156040840152505050565b805182526020810151612fc8816139fb565b60208301526040908101511515910152565b612fe5828251612c89565b6020818101519083015260408082015190830152606080820151908301526080808201519083015260a0808201519083015260c0808201519083015260e08082015190830152610100808201519083015261012080820151908301526101408082015190830152610160808201519083015261018080820151908301526101a080820151908301526101c080820151908301526101e08082015190830152610200808201519083015261022080820151908301526102408082015190830152610260808201519083015261028080820151908301526102a080820151908301526102c090810151910152565b6001600160a01b0391909116815260200190565b6001600160a01b0392831681529116602082015260400190565b6001600160a01b039384168152919092166020820152604081019190915260600190565b6001600160a01b03929092168252602082015260400190565b90815260200190565b9182526001600160a01b0316602082015260400190565b918252602082015260400190565b9283526020830191909152604082015260600190565b9081527231b7b73a3930b1ba2932b332b932b731b2af9960691b602082015260400190565b9081526763757272656e637960c01b602082015260400190565b90815271736574746c656d656e7443757272656e637960701b602082015260400190565b90815274313ab9b4b732b9b9a230bca1b7b73b32b73a34b7b760591b602082015260400190565b9081526b6d617475726974794461746560a01b602082015260400190565b908152701b9bdd1a5bdb985b141c9a5b98da5c185b607a1b602082015260400190565b9081526731b0b632b73230b960c11b602082015260400190565b90815272636f6e74726163745265666572656e63655f3160681b602082015260400190565b60006108a08b835261329f602084018c612cba565b6132ad6104c084018b612fda565b6107a0830181905282018790526108c06001600160fb1b038811156132d0578182fd5b60208802808a8386013783010190815285356132eb81613a0f565b6001600160a01b039081166107c084015260208701359061330b82613a0f565b9081166107e084015260408701359061332382613a0f565b90811661080084015260608701359061333b82613a0f565b16610820830152613350610840830186612c1a565b61335e610860830185612c1a565b61336c610880830184612c1a565b9a9950505050505050505050565b8281526103008101611cbe6020830184612fda565b6060810161339d8286612c9c565b6001600160a01b03938416602083015291909216604090920191909152919050565b604081016133cd8285612cb0565b8260208301529392505050565b606081016133e88286612cb0565b602082019390935260400152919050565b60208082526038908201527f414e4e4163746f722e696e697469616c697a653a20434f4e54524143545f545960408201527f50455f4f465f454e47494e455f554e535550504f525445440000000000000000606082015260800190565b60208082526038908201527f4345474143746f722e696e697469616c697a653a20494e56414c49445f434f4e60408201527f54524143545f5245464552454e43455f315f4f424a4543540000000000000000606082015260800190565b6020808252602b908201527f426173654163746f722e70726f6772657373576974683a20464f554e445f454160408201526a149312515497d15591539560aa1b606082015260800190565b71494e53554646494349454e545f46554e445360701b815260200190565b60208082526021908201527f426173654163746f722e70726f67726573733a204e4f5f4e4558545f4556454e6040820152601560fa1b606082015260800190565b60208082526035908201527f426173654163746f722e67657445787465726e616c44617461466f725354463a604082015274081054d4d15517d113d154d7d393d517d1561254d5605a1b606082015260800190565b6020808252602e908201527f426173654163746f722e70726f6772657373576974683a20464f554e445f554e60408201526d1111549316525391d7d15591539560921b606082015260800190565b6020808252602b908201527f426173654163746f722e70726f6772657373576974683a20554e415554484f5260408201526a24ad22a22fa9a2a72222a960a91b606082015260800190565b60208082526028908201527f426173654163746f722e70726f67726573733a2041535345545f444f45535f4e60408201526713d517d1561254d560c21b606082015260800190565b6020808252603b908201527f426173654163746f722e736574746c655061796f6666466f724576656e743a2060408201527f494e56414c49445f46554e4354494f4e5f504152414d45544552530000000000606082015260800190565b60208082526034908201527f426173654163746f722e70726f636573734576656e743a204e4558545f455645604082015273139517d393d517d6515517d4d0d211511553115160621b606082015260800190565b6020808252602b908201527f426173654163746f722e70726f6772657373576974683a20464f554e445f504560408201526a1391125391d7d15591539560aa1b606082015260800190565b60208082526031908201527f426173654163746f722e70726f636573734576656e743a2041535345545f524560408201527041434845445f46494e414c5f535441544560781b606082015260800190565b6104a081016104f58284612cba565b6104c081016137fe8285612cba565b826104a08301529392505050565b60006107c061381c838851612c9c565b602087015161382e6020850182612c80565b5060408701516138416040850182612c92565b5060608701516138546060850182612ca6565b5060808701516138676080850182612c72565b5060a087015161387a60a0850182612c80565b5060c087015161388d60c0850182612c80565b5060e08701516138a060e0850182612c89565b50610100808801516138b482860182612c1a565b5050610120808801516138c982860182612c1a565b50506101408781015190840152610160808801519084015261018080880151908401526101a080880151908401526101c080880151908401526101e080880151908401526102008088015190840152610220808801519084015261024080880151908401526102608088015161394182860182612fb6565b50506102808701516102c061395881860183612fb6565b6102a0890151915061396e610320860183612f44565b88015190506139816103a0850182612ebe565b506102e0870151613996610420850182612ebe565b506139a56104a0840187612fda565b84610780840152806107a08401526139bf81840185612c27565b979650505050505050565b60405181810167ffffffffffffffff811182821017156139e657fe5b604052919050565b600281106139f857fe5b50565b600681106139f857fe5b600581106139f857fe5b6001600160a01b03811681146139f857600080fd5b80151581146139f857600080fd5b600981106139f857600080fd5b600281106139f857600080fd5b600681106139f857600080fd5b600581106139f857600080fd5b600d81106139f857600080fd5b601481106139f857600080fd5b600b81106139f857600080fdfe4f776e61626c653a206e6577206f776e657220697320746865207a65726f2061646472657373a264697066735822122010273bfc8fe3e3540e13b9dad3d23d0538a21701299ec9803754acc9222c5e2a64736f6c63430007040033",
  "linkReferences": {},
  "deployedLinkReferences": {}
}