{
  "_format": "hh-sol-artifact-1",
  "contractName": "CEGActor",
  "sourceName": "contracts/Core/CEG/CEGActor.sol",
  "abi": [
    {
      "inputs": [
        {
          "internalType": "contract IAssetRegistry",
          "name": "assetRegistry",
          "type": "address"
        },
        {
          "internalType": "contract IOracleProxy",
          "name": "defaultOracleProxy",
          "type": "address"
        }
      ],
      "stateMutability": "nonpayable",
      "type": "constructor"
    },
    {
      "anonymous": false,
      "inputs": [
        {
          "indexed": true,
          "internalType": "bytes32",
          "name": "assetId",
          "type": "bytes32"
        },
        {
          "indexed": false,
          "internalType": "enum ContractType",
          "name": "contractType",
          "type": "uint8"
        },
        {
          "indexed": false,
          "internalType": "address",
          "name": "creator",
          "type": "address"
        },
        {
          "indexed": false,
          "internalType": "address",
          "name": "counterparty",
          "type": "address"
        }
      ],
      "name": "InitializedAsset",
      "type": "event"
    },
    {
      "anonymous": false,
      "inputs": [
        {
          "indexed": true,
          "internalType": "address",
          "name": "previousOwner",
          "type": "address"
        },
        {
          "indexed": true,
          "internalType": "address",
          "name": "newOwner",
          "type": "address"
        }
      ],
      "name": "OwnershipTransferred",
      "type": "event"
    },
    {
      "anonymous": false,
      "inputs": [
        {
          "indexed": true,
          "internalType": "bytes32",
          "name": "assetId",
          "type": "bytes32"
        },
        {
          "indexed": false,
          "internalType": "enum EventType",
          "name": "eventType",
          "type": "uint8"
        },
        {
          "indexed": false,
          "internalType": "uint256",
          "name": "scheduleTime",
          "type": "uint256"
        },
        {
          "indexed": false,
          "internalType": "int256",
          "name": "payoff",
          "type": "int256"
        }
      ],
      "name": "ProgressedAsset",
      "type": "event"
    },
    {
      "anonymous": false,
      "inputs": [
        {
          "indexed": true,
          "internalType": "bytes32",
          "name": "assetId",
          "type": "bytes32"
        },
        {
          "indexed": false,
          "internalType": "bytes32",
          "name": "statusMessage",
          "type": "bytes32"
        }
      ],
      "name": "Status",
      "type": "event"
    },
    {
      "inputs": [],
      "name": "assetRegistry",
      "outputs": [
        {
          "internalType": "contract IAssetRegistry",
          "name": "",
          "type": "address"
        }
      ],
      "stateMutability": "view",
      "type": "function"
    },
    {
      "inputs": [
        {
          "internalType": "bytes32",
          "name": "object",
          "type": "bytes32"
        }
      ],
      "name": "decodeCollateralObject",
      "outputs": [
        {
          "internalType": "address",
          "name": "",
          "type": "address"
        },
        {
          "internalType": "uint256",
          "name": "",
          "type": "uint256"
        }
      ],
      "stateMutability": "pure",
      "type": "function"
    },
    {
      "inputs": [
        {
          "internalType": "bytes32",
          "name": "_event",
          "type": "bytes32"
        }
      ],
      "name": "decodeEvent",
      "outputs": [
        {
          "internalType": "enum EventType",
          "name": "",
          "type": "uint8"
        },
        {
          "internalType": "uint256",
          "name": "",
          "type": "uint256"
        }
      ],
      "stateMutability": "pure",
      "type": "function"
    },
    {
      "inputs": [],
      "name": "defaultOracleProxy",
      "outputs": [
        {
          "internalType": "contract IOracleProxy",
          "name": "",
          "type": "address"
        }
      ],
      "stateMutability": "view",
      "type": "function"
    },
    {
      "inputs": [
        {
          "internalType": "address",
          "name": "collateralToken",
          "type": "address"
        },
        {
          "internalType": "uint256",
          "name": "collateralAmount",
          "type": "uint256"
        }
      ],
      "name": "encodeCollateralAsObject",
      "outputs": [
        {
          "internalType": "bytes32",
          "name": "",
          "type": "bytes32"
        }
      ],
      "stateMutability": "pure",
      "type": "function"
    },
    {
      "inputs": [
        {
          "internalType": "enum EventType",
          "name": "eventType",
          "type": "uint8"
        },
        {
          "internalType": "uint256",
          "name": "scheduleTime",
          "type": "uint256"
        }
      ],
      "name": "encodeEvent",
      "outputs": [
        {
          "internalType": "bytes32",
          "name": "",
          "type": "bytes32"
        }
      ],
      "stateMutability": "pure",
      "type": "function"
    },
    {
      "inputs": [
        {
          "internalType": "enum EventType",
          "name": "eventType",
          "type": "uint8"
        }
      ],
      "name": "getEpochOffset",
      "outputs": [
        {
          "internalType": "uint256",
          "name": "",
          "type": "uint256"
        }
      ],
      "stateMutability": "pure",
      "type": "function"
    },
    {
      "inputs": [
        {
          "components": [
            {
              "internalType": "enum ContractType",
              "name": "contractType",
              "type": "uint8"
            },
            {
              "internalType": "enum Calendar",
              "name": "calendar",
              "type": "uint8"
            },
            {
              "internalType": "enum ContractRole",
              "name": "contractRole",
              "type": "uint8"
            },
            {
              "internalType": "enum DayCountConvention",
              "name": "dayCountConvention",
              "type": "uint8"
            },
            {
              "internalType": "enum BusinessDayConvention",
              "name": "businessDayConvention",
              "type": "uint8"
            },
            {
              "internalType": "enum EndOfMonthConvention",
              "name": "endOfMonthConvention",
              "type": "uint8"
            },
            {
              "internalType": "enum FeeBasis",
              "name": "feeBasis",
              "type": "uint8"
            },
            {
              "internalType": "enum ContractPerformance",
              "name": "creditEventTypeCovered",
              "type": "uint8"
            },
            {
              "internalType": "address",
              "name": "currency",
              "type": "address"
            },
            {
              "internalType": "address",
              "name": "settlementCurrency",
              "type": "address"
            },
            {
              "internalType": "uint256",
              "name": "statusDate",
              "type": "uint256"
            },
            {
              "internalType": "uint256",
              "name": "maturityDate",
              "type": "uint256"
            },
            {
              "internalType": "uint256",
              "name": "purchaseDate",
              "type": "uint256"
            },
            {
              "internalType": "uint256",
              "name": "cycleAnchorDateOfFee",
              "type": "uint256"
            },
            {
              "internalType": "int256",
              "name": "notionalPrincipal",
              "type": "int256"
            },
            {
              "internalType": "int256",
              "name": "feeAccrued",
              "type": "int256"
            },
            {
              "internalType": "int256",
              "name": "feeRate",
              "type": "int256"
            },
            {
              "internalType": "int256",
              "name": "priceAtPurchaseDate",
              "type": "int256"
            },
            {
              "internalType": "int256",
              "name": "coverageOfCreditEnhancement",
              "type": "int256"
            },
            {
              "components": [
                {
                  "internalType": "uint256",
                  "name": "i",
                  "type": "uint256"
                },
                {
                  "internalType": "enum P",
                  "name": "p",
                  "type": "uint8"
                },
                {
                  "internalType": "bool",
                  "name": "isSet",
                  "type": "bool"
                }
              ],
              "internalType": "struct IP",
              "name": "gracePeriod",
              "type": "tuple"
            },
            {
              "components": [
                {
                  "internalType": "uint256",
                  "name": "i",
                  "type": "uint256"
                },
                {
                  "internalType": "enum P",
                  "name": "p",
                  "type": "uint8"
                },
                {
                  "internalType": "bool",
                  "name": "isSet",
                  "type": "bool"
                }
              ],
              "internalType": "struct IP",
              "name": "delinquencyPeriod",
              "type": "tuple"
            },
            {
              "components": [
                {
                  "internalType": "uint256",
                  "name": "i",
                  "type": "uint256"
                },
                {
                  "internalType": "enum P",
                  "name": "p",
                  "type": "uint8"
                },
                {
                  "internalType": "enum S",
                  "name": "s",
                  "type": "uint8"
                },
                {
                  "internalType": "bool",
                  "name": "isSet",
                  "type": "bool"
                }
              ],
              "internalType": "struct IPS",
              "name": "cycleOfFee",
              "type": "tuple"
            },
            {
              "components": [
                {
                  "internalType": "bytes32",
                  "name": "object",
                  "type": "bytes32"
                },
                {
                  "internalType": "bytes32",
                  "name": "object2",
                  "type": "bytes32"
                },
                {
                  "internalType": "enum ContractReferenceType",
                  "name": "_type",
                  "type": "uint8"
                },
                {
                  "internalType": "enum ContractReferenceRole",
                  "name": "role",
                  "type": "uint8"
                }
              ],
              "internalType": "struct ContractReference",
              "name": "contractReference_1",
              "type": "tuple"
            },
            {
              "components": [
                {
                  "internalType": "bytes32",
                  "name": "object",
                  "type": "bytes32"
                },
                {
                  "internalType": "bytes32",
                  "name": "object2",
                  "type": "bytes32"
                },
                {
                  "internalType": "enum ContractReferenceType",
                  "name": "_type",
                  "type": "uint8"
                },
                {
                  "internalType": "enum ContractReferenceRole",
                  "name": "role",
                  "type": "uint8"
                }
              ],
              "internalType": "struct ContractReference",
              "name": "contractReference_2",
              "type": "tuple"
            }
          ],
          "internalType": "struct CEGTerms",
          "name": "terms",
          "type": "tuple"
        },
        {
          "internalType": "bytes32[]",
          "name": "schedule",
          "type": "bytes32[]"
        },
        {
          "components": [
            {
              "internalType": "address",
              "name": "creatorObligor",
              "type": "address"
            },
            {
              "internalType": "address",
              "name": "creatorBeneficiary",
              "type": "address"
            },
            {
              "internalType": "address",
              "name": "counterpartyObligor",
              "type": "address"
            },
            {
              "internalType": "address",
              "name": "counterpartyBeneficiary",
              "type": "address"
            }
          ],
          "internalType": "struct AssetOwnership",
          "name": "ownership",
          "type": "tuple"
        },
        {
          "internalType": "address",
          "name": "engine",
          "type": "address"
        },
        {
          "internalType": "address",
          "name": "admin",
          "type": "address"
        },
        {
          "internalType": "address",
          "name": "extension",
          "type": "address"
        }
      ],
      "name": "initialize",
      "outputs": [],
      "stateMutability": "nonpayable",
      "type": "function"
    },
    {
      "inputs": [],
      "name": "owner",
      "outputs": [
        {
          "internalType": "address",
          "name": "",
          "type": "address"
        }
      ],
      "stateMutability": "view",
      "type": "function"
    },
    {
      "inputs": [
        {
          "internalType": "bytes32",
          "name": "assetId",
          "type": "bytes32"
        }
      ],
      "name": "progress",
      "outputs": [],
      "stateMutability": "nonpayable",
      "type": "function"
    },
    {
      "inputs": [
        {
          "internalType": "bytes32",
          "name": "assetId",
          "type": "bytes32"
        },
        {
          "internalType": "bytes32",
          "name": "_event",
          "type": "bytes32"
        }
      ],
      "name": "progressWith",
      "outputs": [],
      "stateMutability": "nonpayable",
      "type": "function"
    },
    {
      "inputs": [],
      "name": "renounceOwnership",
      "outputs": [],
      "stateMutability": "nonpayable",
      "type": "function"
    },
    {
      "inputs": [
        {
          "internalType": "uint256",
          "name": "timestamp",
          "type": "uint256"
        },
        {
          "internalType": "enum BusinessDayConvention",
          "name": "convention",
          "type": "uint8"
        },
        {
          "internalType": "enum Calendar",
          "name": "calendar",
          "type": "uint8"
        },
        {
          "internalType": "uint256",
          "name": "maturityDate",
          "type": "uint256"
        }
      ],
      "name": "shiftCalcTime",
      "outputs": [
        {
          "internalType": "uint256",
          "name": "",
          "type": "uint256"
        }
      ],
      "stateMutability": "pure",
      "type": "function"
    },
    {
      "inputs": [
        {
          "internalType": "uint256",
          "name": "timestamp",
          "type": "uint256"
        },
        {
          "internalType": "enum BusinessDayConvention",
          "name": "convention",
          "type": "uint8"
        },
        {
          "internalType": "enum Calendar",
          "name": "calendar",
          "type": "uint8"
        },
        {
          "internalType": "uint256",
          "name": "maturityDate",
          "type": "uint256"
        }
      ],
      "name": "shiftEventTime",
      "outputs": [
        {
          "internalType": "uint256",
          "name": "",
          "type": "uint256"
        }
      ],
      "stateMutability": "pure",
      "type": "function"
    },
    {
      "inputs": [
        {
          "internalType": "address",
          "name": "newOwner",
          "type": "address"
        }
      ],
      "name": "transferOwnership",
      "outputs": [],
      "stateMutability": "nonpayable",
      "type": "function"
    }
  ],
  "bytecode": "0x60806040523480156200001157600080fd5b5060405162003c3e38038062003c3e8339810160408190526200003491620000c9565b8181600062000042620000c5565b600080546001600160a01b0319166001600160a01b0383169081178255604051929350917f8be0079c531659141344cd1fd0a4f28419497f9722a3daafe3b4186f6b6457e0908290a35060018055600280546001600160a01b039384166001600160a01b0319918216179091556003805492909316911617905550620001209050565b3390565b60008060408385031215620000dc578182fd5b8251620000e98162000107565b6020840151909250620000fc8162000107565b809150509250929050565b6001600160a01b03811681146200011d57600080fd5b50565b613b0e80620001306000396000f3fe608060405234801561001057600080fd5b50600436106100f55760003560e01c80638da5cb5b11610097578063e38a4b6b11610066578063e38a4b6b146101e0578063e726d680146101f3578063f2fde38b14610206578063f5586e0514610219576100f5565b80638da5cb5b146101a8578063979d7e86146101bd57806398172dd8146101c5578063e05a66e0146101cd576100f5565b8063715018a6116100d3578063715018a61461015957806372540003146101615780637aebd2a814610182578063811322fb14610195576100f5565b8063645a26bd146100fa5780636778e0e9146101245780636b6ba66414610144575b600080fd5b61010d6101083660046126c5565b61022c565b60405161011b929190613139565b60405180910390f35b61013761013236600461267e565b610245565b60405161011b9190613152565b6101576101523660046126f5565b610270565b005b610157610525565b61017461016f3660046126c5565b6105d9565b60405161011b9291906133e4565b6101576101903660046126c5565b610602565b6101376101a336600461274e565b610983565b6101b0610999565b60405161011b91906130e7565b6101b06109a8565b6101b06109b7565b6101376101db366004612768565b6109c6565b6101576101ee366004612830565b6109e4565b610137610201366004612bc8565b610c69565b610157610214366004612646565b610dbe565b610137610227366004612bc8565b610ec8565b606081901c6bffffffffffffffffffffffff8216915091565b6bffffffffffffffffffffffff19606083901b166bffffffffffffffffffffffff8216175b92915050565b60025460405163747be51f60e11b81526001600160a01b039091169063e8f7ca3e906102a2908590339060040161315b565b602060405180830381600087803b1580156102bc57600080fd5b505af11580156102d0573d6000803e3d6000fd5b505050506040513d601f19601f820116820180604052508101906102f491906126a9565b6103195760405162461bcd60e51b815260040161031090613625565b60405180910390fd5b60025460405163f52f84e160e01b81526000916001600160a01b03169063f52f84e19061034a908690600401613152565b60206040518083038186803b15801561036257600080fd5b505afa158015610376573d6000803e3d6000fd5b505050506040513d601f19601f8201168201806040525081019061039a91906126dd565b146103b75760405162461bcd60e51b815260040161031090613769565b600254604051631d7a1ab960e21b81526000916001600160a01b0316906375e86ae4906103e8908690600401613152565b60206040518083038186803b15801561040057600080fd5b505afa158015610414573d6000803e3d6000fd5b505050506040513d601f19601f8201168201806040525081019061043891906126dd565b146104555760405162461bcd60e51b8152600401610310906135d7565b60025460405163b828204160e01b81526000916104dc916001600160a01b039091169063b82820419061048c908790600401613152565b60206040518083038186803b1580156104a457600080fd5b505afa1580156104b8573d6000803e3d6000fd5b505050506040513d601f19601f8201168201806040525081019061016f91906126dd565b91505060006104ea836105d9565b9150508115806104f957508181105b6105155760405162461bcd60e51b8152600401610310906134d8565b61051f8484610f3c565b50505050565b61052d611546565b6000546001600160a01b0390811691161461058f576040805162461bcd60e51b815260206004820181905260248201527f4f776e61626c653a2063616c6c6572206973206e6f7420746865206f776e6572604482015290519081900360640190fd5b600080546040516001600160a01b03909116907f8be0079c531659141344cd1fd0a4f28419497f9722a3daafe3b4186f6b6457e0908390a3600080546001600160a01b0319169055565b6000808060f884901c60218111156105ed57fe5b92505067ffffffffffffffff83169050915091565b600254604051631392c59160e11b81526001600160a01b03909116906327258b2290610632908490600401613152565b60206040518083038186803b15801561064a57600080fd5b505afa15801561065e573d6000803e3d6000fd5b505050506040513d601f19601f8201168201806040525081019061068291906126a9565b61069e5760405162461bcd60e51b815260040161031090613670565b60025460405163c139626b60e01b81526000916001600160a01b03169063c139626b906106cf908590600401613152565b60206040518083038186803b1580156106e757600080fd5b505afa1580156106fb573d6000803e3d6000fd5b505050506040513d601f19601f8201168201806040525081019061071f9190612662565b600254604051630316dd6960e21b81529192506000916001600160a01b0390911690630c5b75a490610755908690600401613152565b602060405180830381600087803b15801561076f57600080fd5b505af1158015610783573d6000803e3d6000fd5b505050506040513d601f19601f820116820180604052508101906107a791906126dd565b90508061083157600254604051631d7a1ab960e21b81526001600160a01b03909116906375e86ae4906107de908690600401613152565b60206040518083038186803b1580156107f657600080fd5b505afa15801561080a573d6000803e3d6000fd5b505050506040513d601f19601f8201168201806040525081019061082e91906126dd565b90505b8015801561084757506001600160a01b03821615155b156108cd5760405163019ad70360e41b81526001600160a01b038316906319ad703090610878908690600401613152565b602060405180830381600087803b15801561089257600080fd5b505af11580156108a6573d6000803e3d6000fd5b505050506040513d601f19601f820116820180604052508101906108ca91906126dd565b90505b80610957576002546040516361db73e160e11b81526001600160a01b039091169063c3b6e7c290610902908690600401613152565b602060405180830381600087803b15801561091c57600080fd5b505af1158015610930573d6000803e3d6000fd5b505050506040513d601f19601f8201168201806040525081019061095491906126dd565b90505b806109745760405162461bcd60e51b815260040161031090613541565b61097e8382610f3c565b505050565b600081602181111561099157fe5b90505b919050565b6000546001600160a01b031690565b6002546001600160a01b031681565b6003546001600160a01b031681565b60008160f88460218111156109d757fe5b60ff16901b179392505050565b6001600160a01b03831615801590610a7757506010836001600160a01b031663cb2ef6f76040518163ffffffff1660e01b815260040160206040518083038186803b158015610a3257600080fd5b505afa158015610a46573d6000803e3d6000fd5b505050506040513d601f19601f82011682018060405250810190610a6a9190612732565b6013811115610a7557fe5b145b610a935760405162461bcd60e51b81526004016103109061341e565b60008742604051602001610aa8929190613814565b60408051601f19818403018152919052805160209091012090506003610ad66104208a016104008b01612716565b6004811115610ae157fe5b1415610b09576103a0880135610b095760405162461bcd60e51b81526004016103109061347b565b610b11612218565b60405163790f7d6160e11b81526001600160a01b0386169063f21efac290610b3d908c90600401613805565b6102e06040518083038186803b158015610b5657600080fd5b505afa158015610b6a573d6000803e3d6000fd5b505050506040513d601f19601f82011682018060405250810190610b8e9190612aab565b600254604051631859fa9f60e11b81529192506001600160a01b0316906330b3f53e90610bd19085908d9086908e908e908e908e9030908f908f906004016132a0565b600060405180830381600087803b158015610beb57600080fd5b505af1158015610bff573d6000803e3d6000fd5b508492507fc5df678b84aa92f5f59981df8c9997b366d886de25771c5f753015c2e14e907a915060109050610c3760208a018a612646565b610c4760608b0160408c01612646565b604051610c56939291906133b4565b60405180910390a2505050505050505050565b600081851415610c7a575083610db6565b6001846008811115610c8857fe5b1480610c9f57506003846008811115610c9d57fe5b145b15610cb557610cae858461154a565b9050610db6565b6002846008811115610cc357fe5b1480610cda57506004846008811115610cd857fe5b145b15610d1e576000610ceb868561154a565b9050610cf6866115a6565b610cff826115a6565b1415610d0c579050610db6565b610d1686856115be565b915050610db6565b6005846008811115610d2c57fe5b1480610d4357506007846008811115610d4157fe5b145b15610d5257610cae85846115be565b6006846008811115610d6057fe5b1480610d7757506008846008811115610d7557fe5b145b15610db3576000610d8886856115be565b9050610d93866115a6565b610d9c826115a6565b1415610da9579050610db6565b610d16868561154a565b50835b949350505050565b610dc6611546565b6000546001600160a01b03908116911614610e28576040805162461bcd60e51b815260206004820181905260248201527f4f776e61626c653a2063616c6c6572206973206e6f7420746865206f776e6572604482015290519081900360640190fd5b6001600160a01b038116610e6d5760405162461bcd60e51b8152600401808060200182810382526026815260200180613ab36026913960400191505060405180910390fd5b600080546040516001600160a01b03808516939216917f8be0079c531659141344cd1fd0a4f28419497f9722a3daafe3b4186f6b6457e091a3600080546001600160a01b0319166001600160a01b0392909216919091179055565b60006003846008811115610ed857fe5b1480610eef57506004846008811115610eed57fe5b145b80610f0557506007846008811115610f0357fe5b145b80610f1b57506008846008811115610f1957fe5b145b15610f27575083610db6565b610f3385858585610c69565b95945050505050565b60026001541415610f94576040805162461bcd60e51b815260206004820152601f60248201527f5265656e7472616e637947756172643a207265656e7472616e742063616c6c00604482015290519081900360640190fd5b6002600155610fa1612218565b6002546040516309648a9d60e01b81526001600160a01b03909116906309648a9d90610fd1908690600401613152565b6102e06040518083038186803b158015610fea57600080fd5b505afa158015610ffe573d6000803e3d6000fd5b505050506040513d601f19601f820116820180604052508101906110229190612aab565b905060008151600581111561103357fe5b148061104b575060018151600581111561104957fe5b145b80611062575060028151600581111561106057fe5b145b61107e5760405162461bcd60e51b8152600401610310906137b4565b60008151600581111561108d57fe5b1461111657600254604051631ba316dd60e11b81526001600160a01b03909116906337462dba906110c2908690600401613152565b6102e06040518083038186803b1580156110db57600080fd5b505afa1580156110ef573d6000803e3d6000fd5b505050506040513d601f19601f820116820180604052508101906111139190612aab565b90505b600080611122846105d9565b60025460405163ecef557760e01b815292945090925042916112cc9184916001600160a01b039091169063ecef557790611160908b906004016131f9565b60206040518083038186803b15801561117857600080fd5b505afa15801561118c573d6000803e3d6000fd5b505050506040513d601f19601f820116820180604052508101906111b09190612c0f565b60ff1660088111156111be57fe5b60025460405163ecef557760e01b81526001600160a01b039091169063ecef5577906111ee908c90600401613261565b60206040518083038186803b15801561120657600080fd5b505afa15801561121a573d6000803e3d6000fd5b505050506040513d601f19601f8201168201806040525081019061123e9190612c0f565b60ff16600181111561124c57fe5b60025460405163135b9f4d60e01b81526001600160a01b039091169063135b9f4d9061127c908d90600401613220565b60206040518083038186803b15801561129457600080fd5b505afa1580156112a8573d6000803e3d6000fd5b505050506040513d601f19601f8201168201806040525081019061020191906126dd565b11156112ea5760405162461bcd60e51b815260040161031090613715565b6112f2612218565b60006112ff87868861160c565b915091506000611310888884611892565b9050806114145760008651600581111561132657fe5b14156113915760025460405163842962d560e01b81526001600160a01b039091169063842962d59061135e908b908a9060040161339f565b600060405180830381600087803b15801561137857600080fd5b505af115801561138c573d6000803e3d6000fd5b505050505b60025460405163d981e77360e01b81526001600160a01b039091169063d981e773906113c3908b908b90600401613172565b600060405180830381600087803b1580156113dd57600080fd5b505af11580156113f1573d6000803e3d6000fd5b5050505060006114026001866109c6565b905061140f89858361160c565b509350505b600254604051631d306b7f60e11b81526001600160a01b0390911690633a60d6fe90611446908b90879060040161339f565b600060405180830381600087803b15801561146057600080fd5b505af1158015611474573d6000803e3d6000fd5b50505050801515600114156114ea5760025460405163de07a17360e01b81526001600160a01b039091169063de07a173906114b7908b908b908790600401613180565b600060405180830381600087803b1580156114d157600080fd5b505af11580156114e5573d6000803e3d6000fd5b505050505b877fd255be8589971f117e0e4377177282fb7cce66e378bfb1b7eafddd05e4f181e960018315151461151d57600161151f565b865b8685604051611530939291906133ff565b60405180910390a2505060018055505050505050565b3390565b6000600182600181111561155a57fe5b141561159f5761156983611cc8565b600614156115835761157c836002611cdb565b905061026a565b61158c83611cc8565b6007141561159f5761157c836001611cdb565b5090919050565b60006115b6620151808304611cf0565b509392505050565b600060018260018111156115ce57fe5b141561159f576115dd83611cc8565b600614156115f05761157c836001611d86565b6115f983611cc8565b6007141561159f5761157c836002611d86565b611614612218565b60025460405163ee43eda160e01b815260009182916001600160a01b039091169063ee43eda190611649908990600401613152565b60206040518083038186803b15801561166157600080fd5b505afa158015611675573d6000803e3d6000fd5b505050506040513d601f19601f820116820180604052508101906116999190612662565b90506116a36122c7565b6002546040516335f1cded60e11b81526001600160a01b0390911690636be39bda906116d3908a90600401613152565b6104a06040518083038186803b1580156116ec57600080fd5b505afa158015611700573d6000803e3d6000fd5b505050506040513d601f19601f820116820180604052508101906117249190612901565b9050600080611732876105d9565b915091506000846001600160a01b03166380f38af7858b8b61176d8f896117688a8d608001518e602001518f6101600151610ec8565b611d9b565b6040518563ffffffff1660e01b815260040161178c9493929190613831565b60206040518083038186803b1580156117a457600080fd5b505afa1580156117b8573d6000803e3d6000fd5b505050506040513d601f19601f820116820180604052508101906117dc91906126dd565b9050846001600160a01b031663a9460b9e858b8b6118138f8961180e8a8d608001518e602001518f6101600151610ec8565b611fc3565b6040518563ffffffff1660e01b81526004016118329493929190613831565b6102e06040518083038186803b15801561184b57600080fd5b505afa15801561185f573d6000803e3d6000fd5b505050506040513d601f19601f820116820180604052508101906118839190612aab565b9a909950975050505050505050565b600083158015906118a257508215155b6118be5760405162461bcd60e51b8152600401610310906136b8565b816118cb57506001611cc1565b60025460405163eb01255960e01b81526000916001600160a01b03169063eb012559906118fc9088906004016131bb565b60206040518083038186803b15801561191457600080fd5b505afa158015611928573d6000803e3d6000fd5b505050506040513d601f19601f8201168201806040525081019061194c9190612662565b90506119566123ac565b600254604051635e353ebb60e11b81526001600160a01b039091169063bc6a7d7690611986908990600401613196565b60806040518083038186803b15801561199e57600080fd5b505afa1580156119b2573d6000803e3d6000fd5b505050506040513d601f19601f820116820180604052508101906119d69190612a90565b90506004816060015160048111156119ea57fe5b14156119ff5780516119fb9061022c565b5091505b611a076123d3565b60025460405163e50e0ef760e01b81526001600160a01b039091169063e50e0ef790611a37908a90600401613152565b60806040518083038186803b158015611a4f57600080fd5b505afa158015611a63573d6000803e3d6000fd5b505050506040513d601f19601f82011682018060405250810190611a8791906127b2565b90506000806000871315611ab6575060408201516001600160a01b038216611ab157826020015191505b611acf565b5081516001600160a01b038216611acf57826060015191505b6000808813611ae2578760001902611ae4565b875b905080866001600160a01b031663dd62ed3e84306040518363ffffffff1660e01b8152600401611b159291906130fb565b60206040518083038186803b158015611b2d57600080fd5b505afa158015611b41573d6000803e3d6000fd5b505050506040513d601f19601f82011682018060405250810190611b6591906126dd565b1080611bec57506040516370a0823160e01b815281906001600160a01b038816906370a0823190611b9a9086906004016130e7565b60206040518083038186803b158015611bb257600080fd5b505afa158015611bc6573d6000803e3d6000fd5b505050506040513d601f19601f82011682018060405250810190611bea91906126dd565b105b15611c3657897f4f269a19b64cfff0bdee7fd3cdaec44e1fe38ce2ff55d3009a89fac6ecbe9f2c604051611c1f90613523565b60405180910390a260009650505050505050611cc1565b6040516323b872dd60e01b81526001600160a01b038716906323b872dd90611c6690859087908690600401613115565b602060405180830381600087803b158015611c8057600080fd5b505af1158015611c94573d6000803e3d6000fd5b505050506040513d601f19601f82011682018060405250810190611cb891906126a9565b96505050505050505b9392505050565b6007620151809091046003010660010190565b62015180810282018281101561026a57600080fd5b60008080836226496581018262023ab1600483020590506004600362023ab18302010590910390600062164b09610fa0600185010205905060046105b58202058303601f019250600061098f8460500281611d4757fe5b0590506000605061098f83020585039050600b820560301994909401606402929092018301996002600c90940290910392909201975095509350505050565b62015180810282038281111561026a57600080fd5b60025460405163eb01255960e01b81526060916000916001600160a01b039091169063eb01255990611dd19088906004016131bb565b60206040518083038186803b158015611de957600080fd5b505afa158015611dfd573d6000803e3d6000fd5b505050506040513d601f19601f82011682018060405250810190611e219190612662565b60025460405163eb01255960e01b81529192506000916001600160a01b039091169063eb01255990611e579089906004016131d5565b60206040518083038186803b158015611e6f57600080fd5b505afa158015611e83573d6000803e3d6000fd5b505050506040513d601f19601f82011682018060405250810190611ea79190612662565b9050806001600160a01b0316826001600160a01b031614611faa5760035460405160009182916001600160a01b03909116906308a4ec1090611eef90879087906020016130fb565b60405160208183030381529060405280519060200120886040518363ffffffff1660e01b8152600401611f23929190613172565b604080518083038186803b158015611f3a57600080fd5b505afa158015611f4e573d6000803e3d6000fd5b505050506040513d601f19601f82011682018060405250810190611f729190612783565b915091508015611fa75781604051602001611f8d9190613152565b604051602081830303815290604052945050505050611cc1565b50505b5050604080516000815260208101909152949350505050565b60606001836021811115611fd357fe5b14156120005742604051602001611fea9190613152565b6040516020818303038152906040529050611cc1565b601983602181111561200e57fe5b14156122015761201c6123ac565b600254604051635e353ebb60e11b81526001600160a01b039091169063bc6a7d769061204c90889060040161327b565b60806040518083038186803b15801561206457600080fd5b505afa158015612078573d6000803e3d6000fd5b505050506040513d601f19601f8201168201806040525081019061209c9190612a90565b90506003816060015160048111156120b057fe5b14156121ff5780516020820151604051631392c59160e11b81526001600160a01b038216906327258b22906120e9908590600401613152565b60206040518083038186803b15801561210157600080fd5b505afa158015612115573d6000803e3d6000fd5b505050506040513d601f19601f8201168201806040525081019061213991906126a9565b151560011461215a5760405162461bcd60e51b815260040161031090613582565b604051636a899b9b60e01b81526001600160a01b03821690636a899b9b9061218690859060040161323e565b60206040518083038186803b15801561219e57600080fd5b505afa1580156121b2573d6000803e3d6000fd5b505050506040513d601f19601f820116820180604052508101906121d691906126dd565b6040516020016121e69190613152565b6040516020818303038152906040529350505050611cc1565b505b505060408051600081526020810190915292915050565b604080516102e081019091528060008152602001600081526020016000815260200160008152602001600081526020016000815260200160008152602001600081526020016000815260200160008152602001600081526020016000815260200160008152602001600081526020016000815260200160008152602001600081526020016000815260200160008152602001600081526020016000815260200160008152602001600081525090565b60408051610300810190915280600081526020016000815260200160008152602001600081526020016000815260200160008152602001600081526020016000815260200160006001600160a01b0316815260200160006001600160a01b031681526020016000815260200160008152602001600081526020016000815260200160008152602001600081526020016000815260200160008152602001600081526020016123736123fa565b81526020016123806123fa565b815260200161238d61241d565b815260200161239a6123ac565b81526020016123a76123ac565b905290565b604080516080810182526000808252602082018190529091820190815260200160006123a7565b60408051608081018252600080825260208201819052918101829052606081019190915290565b6040805160608101909152600080825260208201905b8152600060209091015290565b60408051608081019091526000808252602082019081526020016000612410565b803561099481613a34565b805161099481613a34565b803561099481613a57565b805161099481613a57565b803561099481613a64565b805161099481613a64565b803561099481613a71565b805161099481613a71565b803561099481613a8b565b805161099481613a8b565b803561099481613a98565b805161099481613a98565b803561099481613aa5565b805161099481613aa5565b80356022811061099457600080fd5b6000608082840312156124f8578081fd5b50919050565b60006080828403121561250f578081fd5b6040516080810181811067ffffffffffffffff8211171561252c57fe5b80604052508091508251815260208301516020820152604083015161255081613a7e565b6040820152606083015161256381613a7e565b6060919091015292915050565b600060808284031215612581578081fd5b6040516080810181811067ffffffffffffffff8211171561259e57fe5b80604052508091508251815260208301516125b881613a71565b602082015260408301516125cb81613a64565b6040820152606083015161256381613a49565b6000606082840312156125ef578081fd5b6040516060810181811067ffffffffffffffff8211171561260c57fe5b806040525080915082518152602083015161262681613a71565b6020820152604083015161263981613a49565b6040919091015292915050565b600060208284031215612657578081fd5b8135611cc181613a34565b600060208284031215612673578081fd5b8151611cc181613a34565b60008060408385031215612690578081fd5b823561269b81613a34565b946020939093013593505050565b6000602082840312156126ba578081fd5b8151611cc181613a49565b6000602082840312156126d6578081fd5b5035919050565b6000602082840312156126ee578081fd5b5051919050565b60008060408385031215612707578182fd5b50508035926020909101359150565b600060208284031215612727578081fd5b8135611cc181613a7e565b600060208284031215612743578081fd5b8151611cc181613a98565b60006020828403121561275f578081fd5b611cc1826124d8565b6000806040838503121561277a578182fd5b61269b836124d8565b60008060408385031215612795578182fd5b8251915060208301516127a781613a49565b809150509250929050565b6000608082840312156127c3578081fd5b6040516080810181811067ffffffffffffffff821117156127e057fe5b60405282516127ee81613a34565b815260208301516127fe81613a34565b6020820152604083015161281181613a34565b6040820152606083015161282481613a34565b60608201529392505050565b60008060008060008060008789036105a081121561284c578384fd5b6104a08082121561285b578485fd5b899850880135905067ffffffffffffffff80821115612878578485fd5b818a0191508a601f83011261288b578485fd5b813581811115612899578586fd5b8b602080830285010111156128ac578586fd5b6020830198508097505050506128c6896104c08a016124e7565b93506128d5610540890161243e565b92506128e4610560890161243e565b91506128f3610580890161243e565b905092959891949750929550565b60006104a08284031215612913578081fd5b61291e6103006139ef565b612927836124b7565b815261293560208401612475565b6020820152612946604084016124a1565b6040820152612957606084016124cd565b60608201526129686080840161245f565b608082015261297960a08401612475565b60a082015261298a60c08401612475565b60c082015261299b60e0840161248b565b60e08201526101006129ae818501612449565b908201526101206129c0848201612449565b908201526101408381015190820152610160808401519082015261018080840151908201526101a080840151908201526101c080840151908201526101e08084015190820152610200808401519082015261022080840151908201526102408084015190820152610260612a36858286016125de565b908201526102c0612a49858583016125de565b610280830152612a5d856103208601612570565b6102a0830152612a71856103a086016124fe565b90820152612a838461042085016124fe565b6102e08201529392505050565b600060808284031215612aa1578081fd5b611cc183836124fe565b60006102e0808385031215612abe578182fd5b612ac7816139ef565b9050612ad28361248b565b81526020838101519082015260408084015190820152606080840151908201526080808401519082015260a0808401519082015260c0808401519082015260e08084015190820152610100808401519082015261012080840151908201526101408084015190820152610160808401519082015261018080840151908201526101a080840151908201526101c080840151908201526101e08084015190820152610200808401519082015261022080840151908201526102408084015190820152610260808401519082015261028080840151908201526102a080840151908201526102c0928301519281019290925250919050565b60008060008060808587031215612bdd578182fd5b843593506020850135612bef81613a57565b92506040850135612bff81613a64565b9396929550929360600135925050565b600060208284031215612c20578081fd5b815160ff81168114611cc1578182fd5b6001600160a01b03169052565b60008151808452815b81811015612c6257602081850181015186830182015201612c46565b81811115612c735782602083870101525b50601f01601f19169290920160200192915050565b60098110612c9257fe5b9052565b612c9281613a13565b612c9281613a20565b600d8110612c9257fe5b60148110612c9257fe5b600b8110612c9257fe5b60228110612c9257fe5b612ce282612cdd836124ac565b612cb2565b612cee6020820161246a565b612cfb6020840182612c96565b50612d0860408201612496565b612d156040840182612ca8565b50612d22606082016124c2565b612d2f6060840182612cbc565b50612d3c60808201612454565b612d496080840182612c88565b50612d5660a0820161246a565b612d6360a0840182612c96565b50612d7060c0820161246a565b612d7d60c0840182612c96565b50612d8a60e08201612480565b612d9760e0840182612c9f565b50610100612da681830161243e565b612db282850182612c30565b5050610120612dc281830161243e565b612dce82850182612c30565b50506101408181013590830152610160808201359083015261018080820135908301526101a080820135908301526101c080820135908301526101e08082013590830152610200808201359083015261022080820135908301526102408082013590830152610260612e44818401828401612f91565b506102c0612e56818401828401612f91565b50610320612e68818401828401612f03565b506103a0612e7a818401828401612e88565b5061042061097e8184018284015b80358252602081013560208301526040810135612ea481613a7e565b612ead81613a2a565b60408301526060810135612ec081613a7e565b612ec981613a2a565b806060840152505050565b80518252602081015160208301526040810151612ef081613a2a565b60408301526060810151612ec981613a2a565b803582526020810135612f1581613a71565b612f1e81613a20565b60208301526040810135612f3181613a64565b612f3a81613a13565b60408301526060810135612f4d81613a49565b8015156060840152505050565b805182526020810151612f6c81613a20565b60208301526040810151612f7f81613a13565b60408301526060908101511515910152565b803582526020810135612fa381613a71565b612fac81613a20565b60208301526040810135612fbf81613a49565b8015156040840152505050565b805182526020810151612fde81613a20565b60208301526040908101511515910152565b612ffb828251612c9f565b6020818101519083015260408082015190830152606080820151908301526080808201519083015260a0808201519083015260c0808201519083015260e08082015190830152610100808201519083015261012080820151908301526101408082015190830152610160808201519083015261018080820151908301526101a080820151908301526101c080820151908301526101e08082015190830152610200808201519083015261022080820151908301526102408082015190830152610260808201519083015261028080820151908301526102a080820151908301526102c090810151910152565b6001600160a01b0391909116815260200190565b6001600160a01b0392831681529116602082015260400190565b6001600160a01b039384168152919092166020820152604081019190915260600190565b6001600160a01b03929092168252602082015260400190565b90815260200190565b9182526001600160a01b0316602082015260400190565b918252602082015260400190565b9283526020830191909152604082015260600190565b9081527231b7b73a3930b1ba2932b332b932b731b2af9960691b602082015260400190565b9081526763757272656e637960c01b602082015260400190565b90815271736574746c656d656e7443757272656e637960701b602082015260400190565b90815274313ab9b4b732b9b9a230bca1b7b73b32b73a34b7b760591b602082015260400190565b9081526b6d617475726974794461746560a01b602082015260400190565b908152701b9bdd1a5bdb985b141c9a5b98da5c185b607a1b602082015260400190565b9081526731b0b632b73230b960c11b602082015260400190565b90815272636f6e74726163745265666572656e63655f3160681b602082015260400190565b60006108c08c83526132b5602084018d612cd0565b6132c36104c084018c612ff0565b6107a0830181905282018890526108e06001600160fb1b038911156132e6578182fd5b60208902808b83860137830101908152863561330181613a34565b6001600160a01b039081166107c084015260208801359061332182613a34565b9081166107e084015260408801359061333982613a34565b90811661080084015260608801359061335182613a34565b16610820830152613366610840830187612c30565b613374610860830186612c30565b613382610880830185612c30565b6133906108a0830184612c30565b9b9a5050505050505050505050565b8281526103008101611cc16020830184612ff0565b606081016133c28286612cb2565b6001600160a01b03938416602083015291909216604090920191909152919050565b604081016133f28285612cc6565b8260208301529392505050565b6060810161340d8286612cc6565b602082019390935260400152919050565b60208082526038908201527f414e4e4163746f722e696e697469616c697a653a20434f4e54524143545f545960408201527f50455f4f465f454e47494e455f554e535550504f525445440000000000000000606082015260800190565b60208082526038908201527f4345474143746f722e696e697469616c697a653a20494e56414c49445f434f4e60408201527f54524143545f5245464552454e43455f315f4f424a4543540000000000000000606082015260800190565b6020808252602b908201527f426173654163746f722e70726f6772657373576974683a20464f554e445f454160408201526a149312515497d15591539560aa1b606082015260800190565b71494e53554646494349454e545f46554e445360701b815260200190565b60208082526021908201527f426173654163746f722e70726f67726573733a204e4f5f4e4558545f4556454e6040820152601560fa1b606082015260800190565b60208082526035908201527f426173654163746f722e67657445787465726e616c44617461466f725354463a604082015274081054d4d15517d113d154d7d393d517d1561254d5605a1b606082015260800190565b6020808252602e908201527f426173654163746f722e70726f6772657373576974683a20464f554e445f554e60408201526d1111549316525391d7d15591539560921b606082015260800190565b6020808252602b908201527f426173654163746f722e70726f6772657373576974683a20554e415554484f5260408201526a24ad22a22fa9a2a72222a960a91b606082015260800190565b60208082526028908201527f426173654163746f722e70726f67726573733a2041535345545f444f45535f4e60408201526713d517d1561254d560c21b606082015260800190565b6020808252603b908201527f426173654163746f722e736574746c655061796f6666466f724576656e743a2060408201527f494e56414c49445f46554e4354494f4e5f504152414d45544552530000000000606082015260800190565b60208082526034908201527f426173654163746f722e70726f636573734576656e743a204e4558545f455645604082015273139517d393d517d6515517d4d0d211511553115160621b606082015260800190565b6020808252602b908201527f426173654163746f722e70726f6772657373576974683a20464f554e445f504560408201526a1391125391d7d15591539560aa1b606082015260800190565b60208082526031908201527f426173654163746f722e70726f636573734576656e743a2041535345545f524560408201527041434845445f46494e414c5f535441544560781b606082015260800190565b6104a0810161026a8284612cd0565b6104c081016138238285612cd0565b826104a08301529392505050565b60006107c0613841838851612cb2565b60208701516138536020850182612c96565b5060408701516138666040850182612ca8565b5060608701516138796060850182612cbc565b50608087015161388c6080850182612c88565b5060a087015161389f60a0850182612c96565b5060c08701516138b260c0850182612c96565b5060e08701516138c560e0850182612c9f565b50610100808801516138d982860182612c30565b5050610120808801516138ee82860182612c30565b50506101408781015190840152610160808801519084015261018080880151908401526101a080880151908401526101c080880151908401526101e080880151908401526102008088015190840152610220808801519084015261024080880151908401526102608088015161396682860182612fcc565b50506102808701516102c061397d81860183612fcc565b6102a08901519150613993610320860183612f5a565b88015190506139a66103a0850182612ed4565b506102e08701516139bb610420850182612ed4565b506139ca6104a0840187612ff0565b84610780840152806107a08401526139e481840185612c3d565b979650505050505050565b60405181810167ffffffffffffffff81118282101715613a0b57fe5b604052919050565b60028110613a1d57fe5b50565b60068110613a1d57fe5b60058110613a1d57fe5b6001600160a01b0381168114613a1d57600080fd5b8015158114613a1d57600080fd5b60098110613a1d57600080fd5b60028110613a1d57600080fd5b60068110613a1d57600080fd5b60058110613a1d57600080fd5b600d8110613a1d57600080fd5b60148110613a1d57600080fd5b600b8110613a1d57600080fdfe4f776e61626c653a206e6577206f776e657220697320746865207a65726f2061646472657373a264697066735822122051e72bac105609b62d5f91dbad799af6376e3d24fc50f913b1ff8b28686cc43664736f6c63430007040033",
  "linkReferences": {},
  "deployedLinkReferences": {}
}