{
  "_format": "hh-sol-artifact-1",
  "contractName": "TestCECPOF",
  "sourceName": "contracts/ACTUS/test/CEC/TestCECPOF.sol",
  "abi": [
    {
      "inputs": [],
      "name": "MAX_CYCLE_SIZE",
      "outputs": [
        {
          "internalType": "uint256",
          "name": "",
          "type": "uint256"
        }
      ],
      "stateMutability": "view",
      "type": "function"
    },
    {
      "inputs": [],
      "name": "MAX_EVENT_SCHEDULE_SIZE",
      "outputs": [
        {
          "internalType": "uint256",
          "name": "",
          "type": "uint256"
        }
      ],
      "stateMutability": "view",
      "type": "function"
    },
    {
      "inputs": [],
      "name": "ONE_POINT_ZERO",
      "outputs": [
        {
          "internalType": "int256",
          "name": "",
          "type": "int256"
        }
      ],
      "stateMutability": "view",
      "type": "function"
    },
    {
      "inputs": [],
      "name": "PRECISION",
      "outputs": [
        {
          "internalType": "uint256",
          "name": "",
          "type": "uint256"
        }
      ],
      "stateMutability": "view",
      "type": "function"
    },
    {
      "inputs": [
        {
          "components": [
            {
              "internalType": "enum ContractType",
              "name": "contractType",
              "type": "uint8"
            },
            {
              "internalType": "enum Calendar",
              "name": "calendar",
              "type": "uint8"
            },
            {
              "internalType": "enum ContractRole",
              "name": "contractRole",
              "type": "uint8"
            },
            {
              "internalType": "enum DayCountConvention",
              "name": "dayCountConvention",
              "type": "uint8"
            },
            {
              "internalType": "enum BusinessDayConvention",
              "name": "businessDayConvention",
              "type": "uint8"
            },
            {
              "internalType": "enum EndOfMonthConvention",
              "name": "endOfMonthConvention",
              "type": "uint8"
            },
            {
              "internalType": "enum ContractPerformance",
              "name": "creditEventTypeCovered",
              "type": "uint8"
            },
            {
              "internalType": "enum FeeBasis",
              "name": "feeBasis",
              "type": "uint8"
            },
            {
              "internalType": "uint256",
              "name": "statusDate",
              "type": "uint256"
            },
            {
              "internalType": "uint256",
              "name": "maturityDate",
              "type": "uint256"
            },
            {
              "internalType": "int256",
              "name": "notionalPrincipal",
              "type": "int256"
            },
            {
              "internalType": "int256",
              "name": "feeRate",
              "type": "int256"
            },
            {
              "internalType": "int256",
              "name": "coverageOfCreditEnhancement",
              "type": "int256"
            },
            {
              "components": [
                {
                  "internalType": "bytes32",
                  "name": "object",
                  "type": "bytes32"
                },
                {
                  "internalType": "bytes32",
                  "name": "object2",
                  "type": "bytes32"
                },
                {
                  "internalType": "enum ContractReferenceType",
                  "name": "_type",
                  "type": "uint8"
                },
                {
                  "internalType": "enum ContractReferenceRole",
                  "name": "role",
                  "type": "uint8"
                }
              ],
              "internalType": "struct ContractReference",
              "name": "contractReference_1",
              "type": "tuple"
            },
            {
              "components": [
                {
                  "internalType": "bytes32",
                  "name": "object",
                  "type": "bytes32"
                },
                {
                  "internalType": "bytes32",
                  "name": "object2",
                  "type": "bytes32"
                },
                {
                  "internalType": "enum ContractReferenceType",
                  "name": "_type",
                  "type": "uint8"
                },
                {
                  "internalType": "enum ContractReferenceRole",
                  "name": "role",
                  "type": "uint8"
                }
              ],
              "internalType": "struct ContractReference",
              "name": "contractReference_2",
              "type": "tuple"
            }
          ],
          "internalType": "struct CECTerms",
          "name": "terms",
          "type": "tuple"
        },
        {
          "components": [
            {
              "internalType": "enum ContractPerformance",
              "name": "contractPerformance",
              "type": "uint8"
            },
            {
              "internalType": "uint256",
              "name": "statusDate",
              "type": "uint256"
            },
            {
              "internalType": "uint256",
              "name": "nonPerformingDate",
              "type": "uint256"
            },
            {
              "internalType": "uint256",
              "name": "maturityDate",
              "type": "uint256"
            },
            {
              "internalType": "uint256",
              "name": "exerciseDate",
              "type": "uint256"
            },
            {
              "internalType": "uint256",
              "name": "terminationDate",
              "type": "uint256"
            },
            {
              "internalType": "uint256",
              "name": "lastCouponFixingDate",
              "type": "uint256"
            },
            {
              "internalType": "uint256",
              "name": "lastDividendFixingDate",
              "type": "uint256"
            },
            {
              "internalType": "int256",
              "name": "notionalPrincipal",
              "type": "int256"
            },
            {
              "internalType": "int256",
              "name": "accruedInterest",
              "type": "int256"
            },
            {
              "internalType": "int256",
              "name": "feeAccrued",
              "type": "int256"
            },
            {
              "internalType": "int256",
              "name": "nominalInterestRate",
              "type": "int256"
            },
            {
              "internalType": "int256",
              "name": "interestScalingMultiplier",
              "type": "int256"
            },
            {
              "internalType": "int256",
              "name": "notionalScalingMultiplier",
              "type": "int256"
            },
            {
              "internalType": "int256",
              "name": "nextPrincipalRedemptionPayment",
              "type": "int256"
            },
            {
              "internalType": "int256",
              "name": "exerciseAmount",
              "type": "int256"
            },
            {
              "internalType": "int256",
              "name": "exerciseQuantity",
              "type": "int256"
            },
            {
              "internalType": "int256",
              "name": "quantity",
              "type": "int256"
            },
            {
              "internalType": "int256",
              "name": "couponAmountFixed",
              "type": "int256"
            },
            {
              "internalType": "int256",
              "name": "marginFactor",
              "type": "int256"
            },
            {
              "internalType": "int256",
              "name": "adjustmentFactor",
              "type": "int256"
            },
            {
              "internalType": "int256",
              "name": "dividendPaymentAmount",
              "type": "int256"
            },
            {
              "internalType": "int256",
              "name": "splitRatio",
              "type": "int256"
            }
          ],
          "internalType": "struct State",
          "name": "state",
          "type": "tuple"
        },
        {
          "internalType": "uint256",
          "name": "scheduleTime",
          "type": "uint256"
        },
        {
          "internalType": "bytes32",
          "name": "externalData",
          "type": "bytes32"
        }
      ],
      "name": "_POF_CEC_ST",
      "outputs": [
        {
          "internalType": "int256",
          "name": "",
          "type": "int256"
        }
      ],
      "stateMutability": "pure",
      "type": "function"
    },
    {
      "inputs": [
        {
          "internalType": "enum EndOfMonthConvention",
          "name": "eomc",
          "type": "uint8"
        },
        {
          "internalType": "uint256",
          "name": "startTime",
          "type": "uint256"
        },
        {
          "components": [
            {
              "internalType": "uint256",
              "name": "i",
              "type": "uint256"
            },
            {
              "internalType": "enum P",
              "name": "p",
              "type": "uint8"
            },
            {
              "internalType": "enum S",
              "name": "s",
              "type": "uint8"
            },
            {
              "internalType": "bool",
              "name": "isSet",
              "type": "bool"
            }
          ],
          "internalType": "struct IPS",
          "name": "cycle",
          "type": "tuple"
        }
      ],
      "name": "adjustEndOfMonthConvention",
      "outputs": [
        {
          "internalType": "enum EndOfMonthConvention",
          "name": "",
          "type": "uint8"
        }
      ],
      "stateMutability": "pure",
      "type": "function"
    },
    {
      "inputs": [
        {
          "internalType": "bytes32",
          "name": "_event",
          "type": "bytes32"
        },
        {
          "internalType": "enum BusinessDayConvention",
          "name": "bdc",
          "type": "uint8"
        },
        {
          "internalType": "enum Calendar",
          "name": "calendar",
          "type": "uint8"
        },
        {
          "internalType": "uint256",
          "name": "maturityDate",
          "type": "uint256"
        }
      ],
      "name": "computeEventTimeForEvent",
      "outputs": [
        {
          "internalType": "uint256",
          "name": "",
          "type": "uint256"
        }
      ],
      "stateMutability": "pure",
      "type": "function"
    },
    {
      "inputs": [
        {
          "internalType": "bytes32",
          "name": "_event",
          "type": "bytes32"
        }
      ],
      "name": "decodeEvent",
      "outputs": [
        {
          "internalType": "enum EventType",
          "name": "",
          "type": "uint8"
        },
        {
          "internalType": "uint256",
          "name": "",
          "type": "uint256"
        }
      ],
      "stateMutability": "pure",
      "type": "function"
    },
    {
      "inputs": [
        {
          "internalType": "enum EventType",
          "name": "eventType",
          "type": "uint8"
        },
        {
          "internalType": "uint256",
          "name": "scheduleTime",
          "type": "uint256"
        }
      ],
      "name": "encodeEvent",
      "outputs": [
        {
          "internalType": "bytes32",
          "name": "",
          "type": "bytes32"
        }
      ],
      "stateMutability": "pure",
      "type": "function"
    },
    {
      "inputs": [
        {
          "internalType": "enum EventType",
          "name": "eventType",
          "type": "uint8"
        }
      ],
      "name": "getEpochOffset",
      "outputs": [
        {
          "internalType": "uint256",
          "name": "",
          "type": "uint256"
        }
      ],
      "stateMutability": "pure",
      "type": "function"
    },
    {
      "inputs": [
        {
          "internalType": "uint256",
          "name": "timestamp",
          "type": "uint256"
        },
        {
          "internalType": "enum BusinessDayConvention",
          "name": "convention",
          "type": "uint8"
        },
        {
          "internalType": "enum Calendar",
          "name": "calendar",
          "type": "uint8"
        },
        {
          "internalType": "uint256",
          "name": "maturityDate",
          "type": "uint256"
        }
      ],
      "name": "shiftCalcTime",
      "outputs": [
        {
          "internalType": "uint256",
          "name": "",
          "type": "uint256"
        }
      ],
      "stateMutability": "pure",
      "type": "function"
    },
    {
      "inputs": [
        {
          "internalType": "uint256",
          "name": "timestamp",
          "type": "uint256"
        },
        {
          "internalType": "enum BusinessDayConvention",
          "name": "convention",
          "type": "uint8"
        },
        {
          "internalType": "enum Calendar",
          "name": "calendar",
          "type": "uint8"
        },
        {
          "internalType": "uint256",
          "name": "maturityDate",
          "type": "uint256"
        }
      ],
      "name": "shiftEventTime",
      "outputs": [
        {
          "internalType": "uint256",
          "name": "",
          "type": "uint256"
        }
      ],
      "stateMutability": "pure",
      "type": "function"
    }
  ],
  "bytecode": "0x608060405234801561001057600080fd5b50610d91806100206000396000f3fe608060405234801561001057600080fd5b50600436106100b45760003560e01c8063b2180b4311610071578063b2180b4314610146578063c40c5a9814610159578063e05a66e014610161578063e726d68014610174578063edc0465f14610159578063f5586e0514610187576100b4565b8063179331f3146100b95780631a2e165d146100e25780636f37e55b14610102578063725400031461010a578063811322fb1461012b578063aaf5eb681461013e575b600080fd5b6100cc6100c7366004610a0d565b61019a565b6040516100d99190610c55565b60405180910390f35b6100f56100f03660046109c8565b61026a565b6040516100d99190610c4c565b6100f5610291565b61011d6101183660046109b0565b61029d565b6040516100d9929190610c69565b6100f5610139366004610ab8565b6102c6565b6100f56102dc565b6100f5610154366004610afb565b6102e1565b6100f56102f8565b6100f561016f366004610ad2565b6102fd565b6100f5610182366004610c37565b61031d565b6100f5610195366004610c37565b610470565b600060018460018111156101aa57fe5b1415610226576101b9836104db565b6101c2846104fd565b14801561021157506002826020015160058111156101dc57fe5b14806101f757506003826020015160058111156101f557fe5b145b80610211575060048260200151600581111561020f57fe5b145b1561021e57506001610263565b506000610263565b600084600181111561023457fe5b141561024257506000610263565b60405162461bcd60e51b815260040161025a90610c81565b60405180910390fd5b9392505050565b6000806102768661029d565b9150506102858186868661031d565b9150505b949350505050565b670de0b6b3a764000081565b6000808060f884901c60218111156102b157fe5b92505067ffffffffffffffff83169050915091565b60008160218111156102d457fe5b90505b919050565b601281565b60006102ef8585858561050c565b95945050505050565b607881565b60008160f884602181111561030e57fe5b60ff16901b1790505b92915050565b60008185141561032e575083610289565b600184600881111561033c57fe5b14806103535750600384600881111561035157fe5b145b1561036957610362858461052b565b9050610289565b600284600881111561037757fe5b148061038e5750600484600881111561038c57fe5b145b156103d257600061039f868561052b565b90506103aa86610587565b6103b382610587565b14156103c0579050610289565b6103ca868561059e565b915050610289565b60058460088111156103e057fe5b14806103f7575060078460088111156103f557fe5b145b1561040657610362858461059e565b600684600881111561041457fe5b148061042b5750600884600881111561042957fe5b145b1561046757600061043c868561059e565b905061044786610587565b61045082610587565b141561045d579050610289565b6103ca868561052b565b50929392505050565b6000600384600881111561048057fe5b14806104975750600484600881111561049557fe5b145b806104ad575060078460088111156104ab57fe5b145b806104c3575060088460088111156104c157fe5b145b156104cf575083610289565b6102ef8585858561031d565b600080806104ee62015180855b046105ec565b50915091506102898282610682565b600061028962015180836104e8565b60006102ef846101400151856101e0015161070890919063ffffffff16565b6000600182600181111561053b57fe5b14156105805761054a8361076d565b600614156105645761055d836002610780565b9050610317565b61056d8361076d565b600714156105805761055d836001610780565b5090919050565b600061059662015180836104e8565b509392505050565b600060018260018111156105ae57fe5b1415610580576105bd8361076d565b600614156105d05761055d836001610795565b6105d98361076d565b600714156105805761055d836002610795565b60008080836226496581018262023ab1600483020590506004600362023ab18302010590910390600062164b09610fa0600185010205905060046105b58202058303601f019250600061098f846050028161064357fe5b0590506000605061098f83020585039050600b820560301994909401606402929092018301996002600c90940290910392909201975095509350505050565b600081600114806106935750816003145b8061069e5750816005145b806106a95750816007145b806106b45750816008145b806106bf575081600a145b806106ca575081600c145b156106d75750601f610317565b816002146106e75750601e610317565b6106f0836107aa565b6106fb57601c6106fe565b601d5b60ff169392505050565b600082820181831280159061071d5750838112155b80610732575060008312801561073257508381125b6102635760405162461bcd60e51b8152600401808060200182810382526021815260200180610d3b6021913960400191505060405180910390fd5b6007620151809091046003010660010190565b62015180810282018281101561031757600080fd5b62015180810282038281111561031757600080fd5b6000600482061580156107bf57506064820615155b806102d457505061019090061590565b8035600981106102d757600080fd5b80356102d781610d10565b80356102d781610d20565b8035600d81106102d757600080fd5b8035601381106102d757600080fd5b8035602281106102d757600080fd5b600060808284031215610832578081fd5b6040516080810181811067ffffffffffffffff8211171561084f57fe5b80604052508091508235815260208301356020820152604083013561087381610d2d565b6040820152606083013561088681610d2d565b6060919091015292915050565b60006102e08083850312156108a6578182fd5b6108af81610cec565b9150506108bb826107e9565b81526020828101359082015260408083013590820152606080830135908201526080808301359082015260a0808301359082015260c0808301359082015260e08083013590820152610100808301359082015261012080830135908201526101408083013590820152610160808301359082015261018080830135908201526101a080830135908201526101c080830135908201526101e08083013590820152610200808301359082015261022080830135908201526102408083013590820152610260808301359082015261028080830135908201526102a080830135908201526102c09182013591810191909152919050565b6000602082840312156109c1578081fd5b5035919050565b600080600080608085870312156109dd578283fd5b843593506109ed602086016107cf565b925060408501356109fd81610d10565b9396929550929360600135925050565b600080600083850360c0811215610a22578182fd5b8435610a2d81610d10565b9350602085013592506080603f1982011215610a47578182fd5b506040516080810181811067ffffffffffffffff82111715610a6557fe5b604090815285013581526060850135610a7d81610d20565b60208201526080850135610a9081610d10565b604082015260a08501358015158114610aa7578283fd5b606082015292959194509192509050565b600060208284031215610ac9578081fd5b61026382610812565b60008060408385031215610ae4578182fd5b610aed83610812565b946020939093013593505050565b6000806000808486036105c0811215610b12578283fd5b6102a080821215610b21578384fd5b610b2c6101e0610cec565b9150610b3787610803565b8252610b45602088016107de565b6020830152610b56604088016107f4565b6040830152610b67606088016107e9565b6060830152610b78608088016107cf565b6080830152610b8960a088016107de565b60a0830152610b9a60c088016107e9565b60c0830152610bab60e088016107de565b60e0830152610100878101359083015261012080880135908301526101408088013590830152610160808801359083015261018080880135908301526101a0610bf689828a01610821565b90830152610c08886102208901610821565b6101c0830152819550610c1d88828901610893565b9598959750505050610580840135936105a0013592915050565b600080600080608085870312156109dd578182fd5b90815260200190565b6020810160028310610c6357fe5b91905290565b6040810160228410610c7757fe5b9281526020015290565b60208082526045908201527f456e644f664d6f6e7468436f6e76656e74696f6e2e61646a757374456e644f6660408201527f4d6f6e7468436f6e76656e74696f6e3a204154545249425554455f4e4f545f4660608201526427aaa7221760d91b608082015260a00190565b60405181810167ffffffffffffffff81118282101715610d0857fe5b604052919050565b60028110610d1d57600080fd5b50565b60068110610d1d57600080fd5b60058110610d1d57600080fdfe5369676e6564536166654d6174683a206164646974696f6e206f766572666c6f77a2646970667358221220311fcc263eeafc8a360089cdf400aa5226266ae24c9015e4f8e4cd58be1892ab64736f6c63430007040033",
  "linkReferences": {},
  "deployedLinkReferences": {}
}