{
  "abi": [
    {
      "anonymous": false,
      "inputs": [
        {
          "indexed": true,
          "internalType": "address",
          "name": "owner",
          "type": "address"
        },
        {
          "indexed": true,
          "internalType": "address",
          "name": "spender",
          "type": "address"
        },
        {
          "indexed": false,
          "internalType": "uint256",
          "name": "value",
          "type": "uint256"
        }
      ],
      "name": "Approval",
      "type": "event"
    },
    {
      "anonymous": false,
      "inputs": [
        {
          "indexed": true,
          "internalType": "uint256",
          "name": "checkpointId",
          "type": "uint256"
        }
      ],
      "name": "CheckpointCreated",
      "type": "event"
    },
    {
      "anonymous": false,
      "inputs": [
        {
          "indexed": true,
          "internalType": "address",
          "name": "previousOwner",
          "type": "address"
        },
        {
          "indexed": true,
          "internalType": "address",
          "name": "newOwner",
          "type": "address"
        }
      ],
      "name": "OwnershipTransferred",
      "type": "event"
    },
    {
      "anonymous": false,
      "inputs": [
        {
          "indexed": true,
          "internalType": "address",
          "name": "from",
          "type": "address"
        },
        {
          "indexed": true,
          "internalType": "address",
          "name": "to",
          "type": "address"
        },
        {
          "indexed": false,
          "internalType": "uint256",
          "name": "value",
          "type": "uint256"
        }
      ],
      "name": "Transfer",
      "type": "event"
    },
    {
      "inputs": [
        {
          "internalType": "address",
          "name": "owner",
          "type": "address"
        },
        {
          "internalType": "address",
          "name": "spender",
          "type": "address"
        }
      ],
      "name": "allowance",
      "outputs": [
        {
          "internalType": "uint256",
          "name": "",
          "type": "uint256"
        }
      ],
      "stateMutability": "view",
      "type": "function"
    },
    {
      "inputs": [
        {
          "internalType": "address",
          "name": "spender",
          "type": "address"
        },
        {
          "internalType": "uint256",
          "name": "amount",
          "type": "uint256"
        }
      ],
      "name": "approve",
      "outputs": [
        {
          "internalType": "bool",
          "name": "",
          "type": "bool"
        }
      ],
      "stateMutability": "nonpayable",
      "type": "function"
    },
    {
      "inputs": [],
      "name": "assetId",
      "outputs": [
        {
          "internalType": "bytes32",
          "name": "",
          "type": "bytes32"
        }
      ],
      "stateMutability": "view",
      "type": "function"
    },
    {
      "inputs": [],
      "name": "assetRegistry",
      "outputs": [
        {
          "internalType": "contract IAssetRegistry",
          "name": "",
          "type": "address"
        }
      ],
      "stateMutability": "view",
      "type": "function"
    },
    {
      "inputs": [
        {
          "internalType": "address",
          "name": "account",
          "type": "address"
        }
      ],
      "name": "balanceOf",
      "outputs": [
        {
          "internalType": "uint256",
          "name": "",
          "type": "uint256"
        }
      ],
      "stateMutability": "view",
      "type": "function"
    },
    {
      "inputs": [
        {
          "internalType": "address",
          "name": "holder",
          "type": "address"
        },
        {
          "internalType": "uint256",
          "name": "timestamp",
          "type": "uint256"
        }
      ],
      "name": "balanceOfAt",
      "outputs": [
        {
          "internalType": "uint256",
          "name": "",
          "type": "uint256"
        }
      ],
      "stateMutability": "view",
      "type": "function"
    },
    {
      "inputs": [
        {
          "internalType": "address",
          "name": "payee",
          "type": "address"
        },
        {
          "internalType": "bytes32",
          "name": "depositId",
          "type": "bytes32"
        }
      ],
      "name": "calculateClaimOnDeposit",
      "outputs": [
        {
          "internalType": "uint256",
          "name": "",
          "type": "uint256"
        }
      ],
      "stateMutability": "view",
      "type": "function"
    },
    {
      "inputs": [
        {
          "internalType": "bytes32",
          "name": "_event",
          "type": "bytes32"
        }
      ],
      "name": "cancelRegistrationForRedemption",
      "outputs": [],
      "stateMutability": "nonpayable",
      "type": "function"
    },
    {
      "inputs": [
        {
          "internalType": "bytes32",
          "name": "depositId",
          "type": "bytes32"
        }
      ],
      "name": "claimDeposit",
      "outputs": [],
      "stateMutability": "nonpayable",
      "type": "function"
    },
    {
      "inputs": [
        {
          "internalType": "bytes32",
          "name": "depositId",
          "type": "bytes32"
        },
        {
          "internalType": "uint256",
          "name": "scheduledFor",
          "type": "uint256"
        },
        {
          "internalType": "uint256",
          "name": "signalingCutoff",
          "type": "uint256"
        },
        {
          "internalType": "bool",
          "name": "onlySignaled",
          "type": "bool"
        },
        {
          "internalType": "address",
          "name": "token",
          "type": "address"
        }
      ],
      "name": "createDeposit",
      "outputs": [],
      "stateMutability": "nonpayable",
      "type": "function"
    },
    {
      "inputs": [
        {
          "internalType": "bytes32",
          "name": "_event",
          "type": "bytes32"
        }
      ],
      "name": "createDepositForEvent",
      "outputs": [],
      "stateMutability": "nonpayable",
      "type": "function"
    },
    {
      "inputs": [],
      "name": "dataRegistry",
      "outputs": [
        {
          "internalType": "contract DataRegistry",
          "name": "",
          "type": "address"
        }
      ],
      "stateMutability": "view",
      "type": "function"
    },
    {
      "inputs": [],
      "name": "decimals",
      "outputs": [
        {
          "internalType": "uint8",
          "name": "",
          "type": "uint8"
        }
      ],
      "stateMutability": "view",
      "type": "function"
    },
    {
      "inputs": [
        {
          "internalType": "bytes32",
          "name": "_event",
          "type": "bytes32"
        }
      ],
      "name": "decodeEvent",
      "outputs": [
        {
          "internalType": "enum EventType",
          "name": "",
          "type": "uint8"
        },
        {
          "internalType": "uint256",
          "name": "",
          "type": "uint256"
        }
      ],
      "stateMutability": "pure",
      "type": "function"
    },
    {
      "inputs": [
        {
          "internalType": "address",
          "name": "spender",
          "type": "address"
        },
        {
          "internalType": "uint256",
          "name": "subtractedValue",
          "type": "uint256"
        }
      ],
      "name": "decreaseAllowance",
      "outputs": [
        {
          "internalType": "bool",
          "name": "",
          "type": "bool"
        }
      ],
      "stateMutability": "nonpayable",
      "type": "function"
    },
    {
      "inputs": [
        {
          "internalType": "bytes32",
          "name": "",
          "type": "bytes32"
        }
      ],
      "name": "deposits",
      "outputs": [
        {
          "internalType": "uint256",
          "name": "scheduledFor",
          "type": "uint256"
        },
        {
          "internalType": "uint256",
          "name": "signalingCutoff",
          "type": "uint256"
        },
        {
          "internalType": "uint256",
          "name": "amount",
          "type": "uint256"
        },
        {
          "internalType": "uint256",
          "name": "claimedAmount",
          "type": "uint256"
        },
        {
          "internalType": "uint256",
          "name": "totalAmountSignaled",
          "type": "uint256"
        },
        {
          "internalType": "address",
          "name": "token",
          "type": "address"
        },
        {
          "internalType": "bool",
          "name": "onlySignaled",
          "type": "bool"
        }
      ],
      "stateMutability": "view",
      "type": "function"
    },
    {
      "inputs": [
        {
          "internalType": "enum EventType",
          "name": "eventType",
          "type": "uint8"
        },
        {
          "internalType": "uint256",
          "name": "scheduleTime",
          "type": "uint256"
        }
      ],
      "name": "encodeEvent",
      "outputs": [
        {
          "internalType": "bytes32",
          "name": "",
          "type": "bytes32"
        }
      ],
      "stateMutability": "pure",
      "type": "function"
    },
    {
      "inputs": [
        {
          "internalType": "bytes32",
          "name": "_event",
          "type": "bytes32"
        }
      ],
      "name": "fetchDepositAmountForEvent",
      "outputs": [],
      "stateMutability": "nonpayable",
      "type": "function"
    },
    {
      "inputs": [
        {
          "internalType": "bytes32",
          "name": "depositId",
          "type": "bytes32"
        }
      ],
      "name": "getDeposit",
      "outputs": [
        {
          "internalType": "uint256",
          "name": "scheduledFor",
          "type": "uint256"
        },
        {
          "internalType": "uint256",
          "name": "amount",
          "type": "uint256"
        },
        {
          "internalType": "uint256",
          "name": "claimedAmount",
          "type": "uint256"
        },
        {
          "internalType": "uint256",
          "name": "totalAmountSignaled",
          "type": "uint256"
        },
        {
          "internalType": "bool",
          "name": "onlySignaled",
          "type": "bool"
        },
        {
          "internalType": "address",
          "name": "token",
          "type": "address"
        }
      ],
      "stateMutability": "view",
      "type": "function"
    },
    {
      "inputs": [
        {
          "internalType": "enum EventType",
          "name": "eventType",
          "type": "uint8"
        }
      ],
      "name": "getEpochOffset",
      "outputs": [
        {
          "internalType": "uint256",
          "name": "",
          "type": "uint256"
        }
      ],
      "stateMutability": "pure",
      "type": "function"
    },
    {
      "inputs": [
        {
          "internalType": "uint256",
          "name": "checkpointId",
          "type": "uint256"
        },
        {
          "internalType": "uint256",
          "name": "start",
          "type": "uint256"
        },
        {
          "internalType": "uint256",
          "name": "end",
          "type": "uint256"
        }
      ],
      "name": "getHolderSubsetAt",
      "outputs": [
        {
          "internalType": "address[]",
          "name": "",
          "type": "address[]"
        }
      ],
      "stateMutability": "view",
      "type": "function"
    },
    {
      "inputs": [
        {
          "internalType": "uint256",
          "name": "checkpointId",
          "type": "uint256"
        }
      ],
      "name": "getHoldersAt",
      "outputs": [
        {
          "internalType": "address[]",
          "name": "",
          "type": "address[]"
        }
      ],
      "stateMutability": "view",
      "type": "function"
    },
    {
      "inputs": [],
      "name": "getNumberOfHolders",
      "outputs": [
        {
          "internalType": "uint256",
          "name": "",
          "type": "uint256"
        }
      ],
      "stateMutability": "view",
      "type": "function"
    },
    {
      "inputs": [
        {
          "internalType": "address",
          "name": "holder",
          "type": "address"
        },
        {
          "internalType": "bytes32",
          "name": "depositId",
          "type": "bytes32"
        }
      ],
      "name": "hasClaimedDeposit",
      "outputs": [
        {
          "internalType": "bool",
          "name": "",
          "type": "bool"
        }
      ],
      "stateMutability": "view",
      "type": "function"
    },
    {
      "inputs": [],
      "name": "holderCount",
      "outputs": [
        {
          "internalType": "uint256",
          "name": "",
          "type": "uint256"
        }
      ],
      "stateMutability": "view",
      "type": "function"
    },
    {
      "inputs": [
        {
          "internalType": "address",
          "name": "spender",
          "type": "address"
        },
        {
          "internalType": "uint256",
          "name": "addedValue",
          "type": "uint256"
        }
      ],
      "name": "increaseAllowance",
      "outputs": [
        {
          "internalType": "bool",
          "name": "",
          "type": "bool"
        }
      ],
      "stateMutability": "nonpayable",
      "type": "function"
    },
    {
      "inputs": [
        {
          "internalType": "string",
          "name": "name",
          "type": "string"
        },
        {
          "internalType": "string",
          "name": "symbol",
          "type": "string"
        }
      ],
      "name": "initialize",
      "outputs": [],
      "stateMutability": "nonpayable",
      "type": "function"
    },
    {
      "inputs": [
        {
          "internalType": "contract IAssetRegistry",
          "name": "_assetRegistry",
          "type": "address"
        },
        {
          "internalType": "contract DataRegistry",
          "name": "_dataRegistry",
          "type": "address"
        },
        {
          "internalType": "bytes32",
          "name": "_marketObjectCode",
          "type": "bytes32"
        },
        {
          "internalType": "address",
          "name": "owner",
          "type": "address"
        }
      ],
      "name": "initialize",
      "outputs": [],
      "stateMutability": "nonpayable",
      "type": "function"
    },
    {
      "inputs": [],
      "name": "marketObjectCode",
      "outputs": [
        {
          "internalType": "bytes32",
          "name": "",
          "type": "bytes32"
        }
      ],
      "stateMutability": "view",
      "type": "function"
    },
    {
      "inputs": [
        {
          "internalType": "address",
          "name": "account",
          "type": "address"
        },
        {
          "internalType": "uint256",
          "name": "amount",
          "type": "uint256"
        }
      ],
      "name": "mint",
      "outputs": [
        {
          "internalType": "bool",
          "name": "",
          "type": "bool"
        }
      ],
      "stateMutability": "nonpayable",
      "type": "function"
    },
    {
      "inputs": [],
      "name": "name",
      "outputs": [
        {
          "internalType": "string",
          "name": "",
          "type": "string"
        }
      ],
      "stateMutability": "view",
      "type": "function"
    },
    {
      "inputs": [],
      "name": "owner",
      "outputs": [
        {
          "internalType": "address",
          "name": "",
          "type": "address"
        }
      ],
      "stateMutability": "view",
      "type": "function"
    },
    {
      "inputs": [
        {
          "internalType": "bytes32",
          "name": "depositId",
          "type": "bytes32"
        },
        {
          "internalType": "address payable[]",
          "name": "payees",
          "type": "address[]"
        }
      ],
      "name": "pushFundsToAddresses",
      "outputs": [],
      "stateMutability": "nonpayable",
      "type": "function"
    },
    {
      "inputs": [
        {
          "internalType": "bytes32",
          "name": "_event",
          "type": "bytes32"
        },
        {
          "internalType": "uint256",
          "name": "amount",
          "type": "uint256"
        }
      ],
      "name": "registerForRedemption",
      "outputs": [],
      "stateMutability": "nonpayable",
      "type": "function"
    },
    {
      "inputs": [],
      "name": "renounceOwnership",
      "outputs": [],
      "stateMutability": "nonpayable",
      "type": "function"
    },
    {
      "inputs": [
        {
          "internalType": "bytes32",
          "name": "_assetId",
          "type": "bytes32"
        }
      ],
      "name": "setAssetId",
      "outputs": [],
      "stateMutability": "nonpayable",
      "type": "function"
    },
    {
      "inputs": [
        {
          "internalType": "uint256",
          "name": "timestamp",
          "type": "uint256"
        },
        {
          "internalType": "enum BusinessDayConvention",
          "name": "convention",
          "type": "uint8"
        },
        {
          "internalType": "enum Calendar",
          "name": "calendar",
          "type": "uint8"
        },
        {
          "internalType": "uint256",
          "name": "maturityDate",
          "type": "uint256"
        }
      ],
      "name": "shiftCalcTime",
      "outputs": [
        {
          "internalType": "uint256",
          "name": "",
          "type": "uint256"
        }
      ],
      "stateMutability": "pure",
      "type": "function"
    },
    {
      "inputs": [
        {
          "internalType": "uint256",
          "name": "timestamp",
          "type": "uint256"
        },
        {
          "internalType": "enum BusinessDayConvention",
          "name": "convention",
          "type": "uint8"
        },
        {
          "internalType": "enum Calendar",
          "name": "calendar",
          "type": "uint8"
        },
        {
          "internalType": "uint256",
          "name": "maturityDate",
          "type": "uint256"
        }
      ],
      "name": "shiftEventTime",
      "outputs": [
        {
          "internalType": "uint256",
          "name": "",
          "type": "uint256"
        }
      ],
      "stateMutability": "pure",
      "type": "function"
    },
    {
      "inputs": [
        {
          "internalType": "bytes32",
          "name": "depositId",
          "type": "bytes32"
        },
        {
          "internalType": "uint256",
          "name": "signalAmount",
          "type": "uint256"
        }
      ],
      "name": "signalAmountForDeposit",
      "outputs": [],
      "stateMutability": "nonpayable",
      "type": "function"
    },
    {
      "inputs": [],
      "name": "symbol",
      "outputs": [
        {
          "internalType": "string",
          "name": "",
          "type": "string"
        }
      ],
      "stateMutability": "view",
      "type": "function"
    },
    {
      "inputs": [
        {
          "internalType": "address",
          "name": "",
          "type": "address"
        }
      ],
      "name": "totalAmountSignaledByHolder",
      "outputs": [
        {
          "internalType": "uint256",
          "name": "",
          "type": "uint256"
        }
      ],
      "stateMutability": "view",
      "type": "function"
    },
    {
      "inputs": [],
      "name": "totalSupply",
      "outputs": [
        {
          "internalType": "uint256",
          "name": "",
          "type": "uint256"
        }
      ],
      "stateMutability": "view",
      "type": "function"
    },
    {
      "inputs": [
        {
          "internalType": "uint256",
          "name": "timestamp",
          "type": "uint256"
        }
      ],
      "name": "totalSupplyAt",
      "outputs": [
        {
          "internalType": "uint256",
          "name": "",
          "type": "uint256"
        }
      ],
      "stateMutability": "view",
      "type": "function"
    },
    {
      "inputs": [
        {
          "internalType": "address",
          "name": "recipient",
          "type": "address"
        },
        {
          "internalType": "uint256",
          "name": "amount",
          "type": "uint256"
        }
      ],
      "name": "transfer",
      "outputs": [
        {
          "internalType": "bool",
          "name": "",
          "type": "bool"
        }
      ],
      "stateMutability": "nonpayable",
      "type": "function"
    },
    {
      "inputs": [
        {
          "internalType": "address",
          "name": "sender",
          "type": "address"
        },
        {
          "internalType": "address",
          "name": "recipient",
          "type": "address"
        },
        {
          "internalType": "uint256",
          "name": "amount",
          "type": "uint256"
        }
      ],
      "name": "transferFrom",
      "outputs": [
        {
          "internalType": "bool",
          "name": "",
          "type": "bool"
        }
      ],
      "stateMutability": "nonpayable",
      "type": "function"
    },
    {
      "inputs": [
        {
          "internalType": "address",
          "name": "newOwner",
          "type": "address"
        }
      ],
      "name": "transferOwnership",
      "outputs": [],
      "stateMutability": "nonpayable",
      "type": "function"
    },
    {
      "inputs": [
        {
          "internalType": "bytes32",
          "name": "depositId",
          "type": "bytes32"
        },
        {
          "internalType": "uint256",
          "name": "amount",
          "type": "uint256"
        }
      ],
      "name": "updateDepositAmount",
      "outputs": [],
      "stateMutability": "nonpayable",
      "type": "function"
    }
  ],
  "address": "0xB22d93Ff58d7d30431E12f1C0Acc78faa32A33EB",
  "args": [],
  "solcInputHash": "0xc62fa96d4e48ea4a757361e251673623657a8dc49ad728bc296d1f4b1cb38ca9",
  "bytecode": "0x608060405234801561001057600080fd5b50614b7a806100206000396000f3fe608060405234801561001057600080fd5b50600436106102955760003560e01c8063715018a611610167578063a31ee5b0116100ce578063dd62ed3e11610087578063dd62ed3e146105ad578063e05a66e0146105c0578063e726d680146105d3578063ec15b9ca146105e6578063f2fde38b146105f9578063f5586e051461060c57610295565b8063a31ee5b014610546578063a39c1d6b14610559578063a457c2d714610561578063a9059cbb14610574578063a999b73f14610587578063c20662c31461059a57610295565b8063811322fb11610120578063811322fb146104e85780638da5cb5b146104fb5780638e17e4a31461051057806395d89b4114610523578063979d7e861461052b578063981b24d01461053357610295565b8063715018a61461046c578063725400031461047457806376fa0e46146104955780637a22402c146104a85780637a86983f146104bb5780637bb7a8b9146104e057610295565b8063313ce5671161020b57806344de240a116101c457806344de240a146104055780634cd88b761461040d5780634ee2cd7e14610420578063520fdd22146104335780635e5858891461044657806370a082311461045957610295565b8063313ce5671461037157806331801925146103865780633564f613146103a657806339509351146103b95780633d4dff7b146103cc57806340c10f19146103f257610295565b80631cb54d491161025d5780631cb54d491461030a5780632069daeb1461031d57806323b872dd1461033057806326158a8b146103435780632839a18414610356578063308feec31461036957610295565b806303952a7a1461029a57806306fdde03146102af578063095ea7b3146102cd57806318160ddd146102ed5780631aab9a9f14610302575b600080fd5b6102ad6102a8366004613b9b565b61061f565b005b6102b761084a565b6040516102c49190613fab565b60405180910390f35b6102e06102db366004613a58565b6108e1565b6040516102c49190613e77565b6102f56108ff565b6040516102c49190613e82565b6102f5610905565b6102ad610318366004613b9b565b61090b565b6102ad61032b366004613acc565b610d19565b6102e061033e366004613a18565b610ee7565b6102ad610351366004613acc565b610f74565b6102f56103643660046139a8565b610fd0565b6102f5610fe2565b610379610fe8565b6040516102c49190614a2a565b610399610394366004613db1565b610ff1565b6040516102c49190613e2a565b6102ad6103b4366004613bbc565b611208565b6102e06103c7366004613a58565b611279565b6103df6103da366004613acc565b6112cd565b6040516102c497969594939291906149ef565b6102e0610400366004613a58565b611317565b6102f5611358565b6102ad61041b366004613cb4565b61135f565b6102f561042e366004613a58565b6113ee565b610399610441366004613acc565b611417565b6102ad610454366004613acc565b6115cb565b6102f56104673660046139a8565b611619565b6102ad611634565b610487610482366004613acc565b6116b3565b6040516102c4929190613f93565b6102e06104a3366004613a58565b6116dc565b6102f56104b6366004613a58565b61170a565b6104ce6104c9366004613acc565b6117f0565b6040516102c4969594939291906149bc565b6102f5611834565b6102f56104f6366004613c63565b61183b565b610503611849565b6040516102c49190613dfd565b6102ad61051e366004613acc565b611858565b6102b7611aa6565b610503611b07565b6102f5610541366004613acc565b611b17565b6102ad610554366004613c11565b611b24565b610503611cb2565b6102e061056f366004613a58565b611cc2565b6102e0610582366004613a58565b611d30565b6102ad610595366004613b9b565b611d44565b6102ad6105a8366004613ae4565b611d99565b6102f56105bb3660046139e0565b611e1b565b6102f56105ce366004613c7f565b611e46565b6102f56105e1366004613d64565b611e64565b6102ad6105f4366004613acc565b611fb9565b6102ad6106073660046139a8565b612238565b6102f561061a366004613d64565b6122ef565b600082815260a66020526040902080546106545760405162461bcd60e51b815260040161064b906144d2565b60405180910390fd5b6005810154600160a01b900460ff1615156001146106845760405162461bcd60e51b815260040161064b90614041565b428160010154116106a75760405162461bcd60e51b815260040161064b9061483a565b6106b133426113ee565b33600090815260a7602052604090205411156106df5760405162461bcd60e51b815260040161064b90614877565b816107265733600090815260078201602090815260408083205460a7909252909120546107119163ffffffff61235a16565b33600090815260a760205260409020556107f2565b33600090815260078201602052604090205482101561079a57336000908152600782016020526040812054610761908463ffffffff61235a16565b33600090815260a76020526040902054909150610784908263ffffffff61235a16565b33600090815260a76020526040902055506107f2565b3360009081526007820160205260408120546107bd90849063ffffffff61235a16565b33600090815260a760205260409020549091506107e0908263ffffffff61239c16565b33600090815260a76020526040902055505b33600090815260078201602052604090205460048201546108189163ffffffff61235a16565b6004820181905561082f908363ffffffff61239c16565b60048201553360009081526007909101602052604090205550565b60688054604080516020601f60026000196101006001881615020190951694909404938401819004810282018101909252828152606093909290918301828280156108d65780601f106108ab576101008083540402835291602001916108d6565b820191906000526020600020905b8154815290600101906020018083116108b957829003601f168201915b505050505090505b90565b60006108f56108ee6123c1565b84846123c5565b5060015b92915050565b60675490565b609b5481565b60b25460ff1661092d5760405162461bcd60e51b815260040161064b906148c2565b60b2805460ff191690556101165461011954604051631392c59160e11b81526001600160a01b03909216916327258b229161096a91600401613e82565b60206040518083038186803b15801561098257600080fd5b505afa158015610996573d6000803e3d6000fd5b505050506040513d601f19601f820116820180604052508101906109ba9190613a83565b15156001146109db5760405162461bcd60e51b815260040161064b90614400565b6109e5828261061f565b600082815260a6602052604080822061011654610119549251636a899b9b60e01b81529193926001600160a01b0390911691636a899b9b91610a2991600401613f49565b60206040518083038186803b158015610a4157600080fd5b505afa158015610a55573d6000803e3d6000fd5b505050506040513d601f19601f82011682018060405250810190610a799190613c9c565b90506000610a8a8360000154611b17565b90506000610aa582856004015461247990919063ffffffff16565b90506000610ab9828563ffffffff61253516565b90506000610ac6886116b3565b5090506000610c9560135b836021811115610add57fe5b1415610aed578760010154610af0565b87545b610116546101195460405163ecef557760e01b81526001600160a01b039092169163ecef557791610b2391600401613f04565b60206040518083038186803b158015610b3b57600080fd5b505afa158015610b4f573d6000803e3d6000fd5b505050506040513d601f19601f82011682018060405250810190610b739190613ddc565b60ff166008811115610b8157fe5b610116546101195460405163ecef557760e01b81526001600160a01b039092169163ecef557791610bb491600401613f63565b60206040518083038186803b158015610bcc57600080fd5b505afa158015610be0573d6000803e3d6000fd5b505050506040513d601f19601f82011682018060405250810190610c049190613ddc565b60ff166001811115610c1257fe5b610116546101195460405163135b9f4d60e01b81526001600160a01b039092169163135b9f4d91610c4591600401613f2b565b60206040518083038186803b158015610c5d57600080fd5b505afa158015610c71573d6000803e3d6000fd5b505050506040513d601f19601f8201168201806040525081019061061a9190613c9c565b610117546101185460405163d38db86d60e01b81529293506001600160a01b039091169163d38db86d91610ccf9185908890600401613f7d565b600060405180830381600087803b158015610ce957600080fd5b505af1158015610cfd573d6000803e3d6000fd5b505060b2805460ff191660011790555050505050505050505050565b60b25460ff16610d3b5760405162461bcd60e51b815260040161064b906148c2565b60b2805460ff19169055600080610d51836116b3565b610116546101195492945090925060009182916001600160a01b03169063ba4d2d28906013876021811115610d8257fe5b1415610e215761011654610119546040516337f2add560e11b8152610e1c926015926105ce926001600160a01b0390921691636fe55baa91610dc691600401613e99565b60606040518083038186803b158015610dde57600080fd5b505afa158015610df2573d6000803e3d6000fd5b505050506040513d601f19601f82011682018060405250810190610e169190613d15565b896125d3565b610e23565b875b6040518363ffffffff1660e01b8152600401610e40929190613e8b565b604080518083038186803b158015610e5757600080fd5b505afa158015610e6b573d6000803e3d6000fd5b505050506040513d601f19601f82011682018060405250810190610e8f9190613a9f565b9092509050600182151514610eb65760405162461bcd60e51b815260040161064b906140c9565b610ed3856000831215610ecd578260001902610595565b82611d44565b505060b2805460ff19166001179055505050565b6000610ef484848461271c565b610f6a84610f006123c1565b610f6585604051806060016040528060288152602001614af8602891396001600160a01b038a16600090815260666020526040812090610f3e6123c1565b6001600160a01b03168152602081019190915260400160002054919063ffffffff61275d16565b6123c5565b5060019392505050565b610f7c6123c1565b60e4546001600160a01b03908116911614610fa95760405162461bcd60e51b815260040161064b906145a8565b6101195415610fca5760405162461bcd60e51b815260040161064b90614564565b61011955565b60a76020526000908152604090205481565b60995490565b606a5460ff1690565b6099546060908083106110065783900361100e565b506001838303015b60608167ffffffffffffffff8111801561102757600080fd5b50604051908082528060200260200182016040528015611051578160200160208202803683370190505b50905060005b828110156110b85760998682018154811061106e57fe5b9060005260206000200160009054906101000a90046001600160a01b031682828151811061109857fe5b6001600160a01b0390921660209283029190910190910152600101611057565b506000805b825181101561112d5760006110e58483815181106110d757fe5b60200260200101518a6113ee565b11156110f657600190910190611125565b600083828151811061110457fe5b60200260200101906001600160a01b031690816001600160a01b0316815250505b6001016110bd565b60608267ffffffffffffffff8111801561114657600080fd5b50604051908082528060200260200182016040528015611170578160200160208202803683370190505b50905060009250600091505b83518210156111fc5760006001600160a01b031684838151811061119c57fe5b60200260200101516001600160a01b0316146111f1578382815181106111be57fe5b60200260200101518184815181106111d257fe5b6001600160a01b03909216602092830291909101909101526001909201915b60019091019061117c565b98975050505050505050565b600085815260a6602052604090208054156112355760405162461bcd60e51b815260040161064b90614315565b93845560018401929092556005909201805460ff60a01b1916600160a01b93151593909302929092176001600160a01b0319166001600160a01b0390911617905550565b60006108f56112866123c1565b84610f6585606660006112976123c1565b6001600160a01b03908116825260208083019390935260409182016000908120918c16815292529020549063ffffffff61239c16565b60a66020526000908152604090208054600182015460028301546003840154600485015460059095015493949293919290916001600160a01b03811690600160a01b900460ff1687565b60006113216123c1565b60e4546001600160a01b0390811691161461134e5760405162461bcd60e51b815260040161064b906145a8565b6108f58383612789565b6101195481565b600054610100900460ff1680611378575061137861279f565b80611386575060005460ff16155b6113a25760405162461bcd60e51b815260040161064b906145dd565b600054610100900460ff161580156113cd576000805460ff1961ff0019909116610100171660011790555b6113d783836127a5565b80156113e9576000805461ff00191690555b505050565b6001600160a01b03821660009081526098602052604081206114109083612825565b9392505050565b60606000806060609980548060200260200160405190810160405280929190818152602001828054801561147457602002820191906000526020600020905b81546001600160a01b03168152600190910190602001808311611456575b50505050509050600091505b80518210156114f35760006114a882848151811061149a57fe5b6020026020010151876113ee565b11156114b9576001909201916114e8565b60008183815181106114c757fe5b60200260200101906001600160a01b031690816001600160a01b0316815250505b600190910190611480565b60608367ffffffffffffffff8111801561150c57600080fd5b50604051908082528060200260200182016040528015611536578160200160208202803683370190505b50905060009350600092505b81518310156115c25760006001600160a01b031682848151811061156257fe5b60200260200101516001600160a01b0316146115b75781838151811061158457fe5b602002602001015181858151811061159857fe5b6001600160a01b03909216602092830291909101909101526001909301925b600190920191611542565b95945050505050565b600081815260a660209081526040808320338452600681019092529091205460ff161561160a5760405162461bcd60e51b815260040161064b90614362565b611615338284612951565b5050565b6001600160a01b031660009081526065602052604090205490565b61163c6123c1565b60e4546001600160a01b039081169116146116695760405162461bcd60e51b815260040161064b906145a8565b60e4546040516000916001600160a01b0316907f8be0079c531659141344cd1fd0a4f28419497f9722a3daafe3b4186f6b6457e0908390a360e480546001600160a01b0319169055565b6000808060f884901c60218111156116c757fe5b92505067ffffffffffffffff83169050915091565b600090815260a6602090815260408083206001600160a01b0394909416835260069093019052205460ff1690565b600081815260a6602090815260408083206001600160a01b03861684526006810190925282205460ff16156117435760009150506108f9565b60006117528260000154611b17565b6005830154909150600090600160a01b900460ff1661177e576117798684600001546113ee565b61179a565b6001600160a01b03861660009081526007840160205260409020545b905060006117e58460050160149054906101000a900460ff166117bd57836117c3565b84600401545b60028601546117d990859063ffffffff6129c016565b9063ffffffff6129fa16565b979650505050505050565b600090815260a6602052604090208054600282015460038301546004840154600590940154929491939092909160ff600160a01b830416916001600160a01b031690565b6101185481565b60008160218111156108f957fe5b60e4546001600160a01b031690565b60b25460ff1661187a5760405162461bcd60e51b815260040161064b906148c2565b60b2805460ff191690556101165461011954604051631392c59160e11b81526001600160a01b03909216916327258b22916118b791600401613e82565b60206040518083038186803b1580156118cf57600080fd5b505afa1580156118e3573d6000803e3d6000fd5b505050506040513d601f19601f820116820180604052508101906119079190613a83565b15156001146119285760405162461bcd60e51b815260040161064b906146bf565b61193381600061061f565b600081815260a6602052604080822061011654610119549251636a899b9b60e01b81529193926001600160a01b0390911691636a899b9b9161197791600401613f49565b60206040518083038186803b15801561198f57600080fd5b505afa1580156119a3573d6000803e3d6000fd5b505050506040513d601f19601f820116820180604052508101906119c79190613c9c565b905060006119d88360000154611b17565b905060006119f382856004015461247990919063ffffffff16565b90506000611a07828563ffffffff61253516565b90506000611a14876116b3565b5090506000611a236013610ad1565b610117546101185460405163d38db86d60e01b81529293506001600160a01b039091169163d38db86d91611a5d9185908890600401613f7d565b600060405180830381600087803b158015611a7757600080fd5b505af1158015611a8b573d6000803e3d6000fd5b505060b2805460ff1916600117905550505050505050505050565b60698054604080516020601f60026000196101006001881615020190951694909404938401819004810282018101909252828152606093909290918301828280156108d65780601f106108ab576101008083540402835291602001916108d6565b610116546001600160a01b031681565b60006108f9609783612825565b600054610100900460ff1680611b3d5750611b3d61279f565b80611b4b575060005460ff16155b611b675760405162461bcd60e51b815260040161064b906145dd565b600054610100900460ff16158015611b92576000805460ff1961ff0019909116610100171660011790555b611ba4856001600160a01b0316612a3c565b611bc05760405162461bcd60e51b815260040161064b90614177565b611bd2846001600160a01b0316612a3c565b611bee5760405162461bcd60e51b815260040161064b90614084565b611c486040518060400160405280601c81526020017f496e766573746d656e7420436572746966696361746520546f6b656e00000000815250604051806040016040528060038152602001621250d560ea1b81525061135f565b611c50612a75565b611c58612b08565b611c6182612238565b61011680546001600160a01b038088166001600160a01b0319928316179092556101178054928716929091169190911790556101188390558015611cab576000805461ff00191690555b5050505050565b610117546001600160a01b031681565b60006108f5611ccf6123c1565b84610f6585604051806060016040528060258152602001614b206025913960666000611cf96123c1565b6001600160a01b03908116825260208083019390935260409182016000908120918d1681529252902054919063ffffffff61275d16565b60006108f5611d3d6123c1565b848461271c565b600082815260a6602052604090208054611d705760405162461bcd60e51b815260040161064b9061462b565b600281015415611d925760405162461bcd60e51b815260040161064b9061411a565b6002015550565b600082815260a660205260408120905b8251811015611e1557816006016000848381518110611dc457fe5b6020908102919091018101516001600160a01b031682528101919091526040016000205460ff16611e0d57611e0d838281518110611dfe57fe5b60200260200101518386612951565b600101611da9565b50505050565b6001600160a01b03918216600090815260666020908152604080832093909416825291909152205490565b60008160f8846021811115611e5757fe5b60ff16901b179392505050565b600081851415611e75575083611fb1565b6001846008811115611e8357fe5b1480611e9a57506003846008811115611e9857fe5b145b15611eb057611ea98584612b7e565b9050611fb1565b6002846008811115611ebe57fe5b1480611ed557506004846008811115611ed357fe5b145b15611f19576000611ee68685612b7e565b9050611ef186612bda565b611efa82612bda565b1415611f07579050611fb1565b611f118685612bf3565b915050611fb1565b6005846008811115611f2757fe5b1480611f3e57506007846008811115611f3c57fe5b145b15611f4d57611ea98584612bf3565b6006846008811115611f5b57fe5b1480611f7257506008846008811115611f7057fe5b145b15611fae576000611f838685612bf3565b9050611f8e86612bda565b611f9782612bda565b1415611fa4579050611fb1565b611f118685612b7e565b50835b949350505050565b60b25460ff16611fdb5760405162461bcd60e51b815260040161064b906148c2565b60b2805460ff191690556101165461011954604051631392c59160e11b81526001600160a01b03909216916327258b229161201891600401613e82565b60206040518083038186803b15801561203057600080fd5b505afa158015612044573d6000803e3d6000fd5b505050506040513d601f19601f820116820180604052508101906120689190613a83565b15156001146120895760405162461bcd60e51b815260040161064b906146bf565b600080612095836116b3565b909250905060198260218111156120a857fe5b141580156120c2575060158260218111156120bf57fe5b14155b6120de5760405162461bcd60e51b815260040161064b90614516565b610116546101195460405163eb01255960e01b81526000926001600160a01b03169163eb012559916121139190600401613ebb565b60206040518083038186803b15801561212b57600080fd5b505afa15801561213f573d6000803e3d6000fd5b505050506040513d601f19601f8201168201806040525081019061216391906139c4565b90506122258483601386602181111561217857fe5b14612184576000612210565b61011654610119546040516337f2add560e11b8152612210926001600160a01b031691636fe55baa916121ba9190600401613ed5565b60606040518083038186803b1580156121d257600080fd5b505afa1580156121e6573d6000803e3d6000fd5b505050506040513d601f19601f8201168201806040525081019061220a9190613d15565b866125d3565b601387602181111561221e57fe5b1485611208565b505060b2805460ff191660011790555050565b6122406123c1565b60e4546001600160a01b0390811691161461226d5760405162461bcd60e51b815260040161064b906145a8565b6001600160a01b0381166122935760405162461bcd60e51b815260040161064b906141bd565b60e4546040516001600160a01b038084169216907f8be0079c531659141344cd1fd0a4f28419497f9722a3daafe3b4186f6b6457e090600090a360e480546001600160a01b0319166001600160a01b0392909216919091179055565b600060038460088111156122ff57fe5b14806123165750600484600881111561231457fe5b145b8061232c5750600784600881111561232a57fe5b145b806123425750600884600881111561234057fe5b145b1561234e575083611fb1565b6115c285858585611e64565b600061141083836040518060400160405280601e81526020017f536166654d6174683a207375627472616374696f6e206f766572666c6f77000081525061275d565b6000828201838110156114105760405162461bcd60e51b815260040161064b90614245565b3390565b6001600160a01b0383166123eb5760405162461bcd60e51b815260040161064b906147f6565b6001600160a01b0382166124115760405162461bcd60e51b815260040161064b90614203565b6001600160a01b0380841660008181526066602090815260408083209487168084529490915290819020849055517f8c5be1e5ebec7d5bd14f71427d1e84f3dd0314c0f7b2291e5b200ac8c7c3b9259061246c908590613e82565b60405180910390a3505050565b6000816124985760405162461bcd60e51b815260040161064b90614941565b826124a5575060006108f9565b670de0b6b3a7640000838102908482816124bb57fe5b05146124d95760405162461bcd60e51b815260040161064b90614753565b826000191480156124ed5750600160ff1b84145b1561250a5760405162461bcd60e51b815260040161064b90614753565b600083828161251557fe5b05905080611fb15760405162461bcd60e51b815260040161064b906143af565b6000821580612542575081155b1561254f575060006108f9565b826000191480156125635750600160ff1b82145b156125805760405162461bcd60e51b815260040161064b906142ce565b8282028284828161258d57fe5b05146125ab5760405162461bcd60e51b815260040161064b906142ce565b670de0b6b3a7640000810580611fb15760405162461bcd60e51b815260040161064b9061427c565b60008080846020015160058111156125e757fe5b141561260757835161260090849063ffffffff612c4116565b9050611410565b60018460200151600581111561261957fe5b14156126435783516126009061263690600763ffffffff6129c016565b849063ffffffff612c4116565b60028460200151600581111561265557fe5b141561266e57835161260090849063ffffffff612c5616565b60038460200151600581111561268057fe5b14156126aa5783516126009061269d90600363ffffffff6129c016565b849063ffffffff612c5616565b6004846020015160058111156126bc57fe5b14156126d95783516126009061269d90600663ffffffff6129c016565b6005846020015160058111156126eb57fe5b141561270457835161260090849063ffffffff612cd016565b60405162461bcd60e51b815260040161064b90614799565b6001600160a01b038316600090815260a76020526040902054156127525760405162461bcd60e51b815260040161064b90614490565b6113e9838383612cf7565b600081848411156127815760405162461bcd60e51b815260040161064b9190613fab565b505050900390565b6127938282612d0d565b61161560008383612dd9565b303b1590565b600054610100900460ff16806127be57506127be61279f565b806127cc575060005460ff16155b6127e85760405162461bcd60e51b815260040161064b906145dd565b600054610100900460ff16158015612813576000805460ff1961ff0019909116610100171660011790555b61281b612dfe565b6113d78383612e7f565b8154600090612836575060006108f9565b82548390600019810190811061284857fe5b60009182526020909120600290910201546001600160801b031682106128935782548390600019810190811061287a57fe5b90600052602060002090600202016001015490506108f9565b826000815481106128a057fe5b60009182526020909120600290910201546001600160801b03168210156128c9575060006108f9565b8254600090600019015b818111156129295760006002600183850101049050848682815481106128f557fe5b60009182526020909120600290910201546001600160801b03161161291c57809250612923565b6001810391505b506128d3565b84828154811061293557fe5b9060005260206000209060020201600101549250505092915050565b6005820154600160a01b900460ff161515600114801561298a57506001600160a01b038316600090815260078301602052604090205415155b156129b5576001600160a01b03831660009081526007830160205260409020546129b5908490612f38565b6113e9838383612f4e565b6000826129cf575060006108f9565b828202828482816129dc57fe5b04146114105760405162461bcd60e51b815260040161064b9061444f565b600061141083836040518060400160405280601a81526020017f536166654d6174683a206469766973696f6e206279207a65726f0000000000008152506130c0565b6000813f7fc5d2460186f7233c927e7db2dcc703c0e500b653ca82273b7bfad8045d85a470818114801590611fb1575050151592915050565b600054610100900460ff1680612a8e5750612a8e61279f565b80612a9c575060005460ff16155b612ab85760405162461bcd60e51b815260040161064b906145dd565b600054610100900460ff16158015612ae3576000805460ff1961ff0019909116610100171660011790555b612aeb612dfe565b612af36130f7565b8015612b05576000805461ff00191690555b50565b600054610100900460ff1680612b215750612b2161279f565b80612b2f575060005460ff16155b612b4b5760405162461bcd60e51b815260040161064b906145dd565b600054610100900460ff16158015612b76576000805460ff1961ff0019909116610100171660011790555b612af36131d1565b60006001826001811115612b8e57fe5b1415612bd357612b9d83613260565b60061415612bb757612bb0836002612c41565b90506108f9565b612bc083613260565b60071415612bd357612bb0836001612c41565b5090919050565b6000612beb62015180835b04613273565b509392505050565b60006001826001811115612c0357fe5b1415612bd357612c1283613260565b60061415612c2557612bb0836001613309565b612c2e83613260565b60071415612bd357612bb0836002613309565b6201518081028201828110156108f957600080fd5b6000808080612c686201518087612be5565b600c918801600019810183810494909401965094509250900660010191506000612c92848461331e565b905080821115612ca0578091505b62015180870662015180612cb58686866133a4565b0201945086851015612cc657600080fd5b5050505092915050565b6000808080612ce26201518087612be5565b9187019450925090506000612c92848461331e565b612d02838383613420565b6113e9838383612dd9565b6001600160a01b038216612d335760405162461bcd60e51b815260040161064b90614985565b612d3f600083836113e9565b606754612d52908263ffffffff61239c16565b6067556001600160a01b038216600090815260656020526040902054612d7e908263ffffffff61239c16565b6001600160a01b0383166000818152606560205260408082209390935591519091907fddf252ad1be2c89b69c2b068fc378daa952ba7f163c4a11628f55a4df523b3ef90612dcd908590613e82565b60405180910390a35050565b612de4838383613541565b612dec613640565b612df583613654565b6113e982613654565b600054610100900460ff1680612e175750612e1761279f565b80612e25575060005460ff16155b612e415760405162461bcd60e51b815260040161064b906145dd565b600054610100900460ff16158015612af3576000805460ff1961ff0019909116610100171660011790558015612b05576000805461ff001916905550565b600054610100900460ff1680612e985750612e9861279f565b80612ea6575060005460ff16155b612ec25760405162461bcd60e51b815260040161064b906145dd565b600054610100900460ff16158015612eed576000805460ff1961ff0019909116610100171660011790555b8251612f0090606890602086019061389c565b508151612f1490606990602085019061389c565b50606a805460ff1916601217905580156113e9576000805461ff0019169055505050565b612f428282613679565b61161582600083612dd9565b60b25460ff16612f705760405162461bcd60e51b815260040161064b906148c2565b60b2805460ff191690556000612f86848361170a565b6001600160a01b03851660009081526006850160205260409020805460ff191660011790556003840154909150612fc490829063ffffffff61239c16565b60038401556001600160a01b038416600090815260078401602090815260408083205460a790925290912054612fff9163ffffffff61235a16565b6001600160a01b038516600090815260a76020526040902055801561222557600583015460405163a9059cbb60e01b81526001600160a01b039091169063a9059cbb906130529087908590600401613e11565b602060405180830381600087803b15801561306c57600080fd5b505af1158015613080573d6000803e3d6000fd5b505050506040513d601f19601f820116820180604052508101906130a49190613a83565b6122255760405162461bcd60e51b815260040161064b906148f9565b600081836130e15760405162461bcd60e51b815260040161064b9190613fab565b5060008385816130ed57fe5b0495945050505050565b600054610100900460ff1680613110575061311061279f565b8061311e575060005460ff16155b61313a5760405162461bcd60e51b815260040161064b906145dd565b600054610100900460ff16158015613165576000805460ff1961ff0019909116610100171660011790555b600061316f6123c1565b60e480546001600160a01b0319166001600160a01b038316908117909155604051919250906000907f8be0079c531659141344cd1fd0a4f28419497f9722a3daafe3b4186f6b6457e0908290a3508015612b05576000805461ff001916905550565b600054610100900460ff16806131ea57506131ea61279f565b806131f8575060005460ff16155b6132145760405162461bcd60e51b815260040161064b906145dd565b600054610100900460ff1615801561323f576000805460ff1961ff0019909116610100171660011790555b60b2805460ff191660011790558015612b05576000805461ff001916905550565b6007620151809091046003010660010190565b60008080836226496581018262023ab1600483020590506004600362023ab18302010590910390600062164b09610fa0600185010205905060046105b58202058303601f019250600061098f84605002816132ca57fe5b0590506000605061098f83020585039050600b820560301994909401606402929092018301996002600c90940290910392909201975095509350505050565b6201518081028203828111156108f957600080fd5b6000816001148061332f5750816003145b8061333a5750816005145b806133455750816007145b806133505750816008145b8061335b575081600a145b80613366575081600c145b156133735750601f6108f9565b816002146133835750601e6108f9565b61338c8361375b565b61339757601c61339a565b601d5b60ff169392505050565b60006107b28410156133b557600080fd5b838383600062253d8c600460036064611324600c600d19890105890101050205600c80600d19870105600c02600287030361016f02816133f157fe5b0560046105b5600c600d1989010589016112c0010205617d4b8603010103039050809450505050509392505050565b6001600160a01b0383166134465760405162461bcd60e51b815260040161064b9061470e565b6001600160a01b03821661346c5760405162461bcd60e51b815260040161064b90613ffe565b6134778383836113e9565b6134ba81604051806060016040528060268152602001614ad2602691396001600160a01b038616600090815260656020526040902054919063ffffffff61275d16565b6001600160a01b0380851660009081526065602052604080822093909355908416815220546134ef908263ffffffff61239c16565b6001600160a01b0380841660008181526065602052604090819020939093559151908516907fddf252ad1be2c89b69c2b068fc378daa952ba7f163c4a11628f55a4df523b3ef9061246c908590613e82565b80158061355f5750816001600160a01b0316836001600160a01b0316145b15613569576113e9565b61357282611619565b15801561358757506001600160a01b03821615155b1561361457609b546135a090600163ffffffff61239c16565b609b556135ac82613780565b613614576099805460018082019092557f72a152ddfb8e864297c917af52ea6c1c68aead0fee1a62673fcc7e0c94979d000180546001600160a01b0319166001600160a01b0385169081179091556000908152609a60205260409020805460ff191690911790555b61361d83611619565b8114156113e957609b5461363890600163ffffffff61235a16565b609b55505050565b613652609761364d6108ff565b61379e565b565b6001600160a01b0381166000908152609860205260409020612b059061364d83611619565b6001600160a01b03821661369f5760405162461bcd60e51b815260040161064b9061467e565b6136ab826000836113e9565b6136ee81604051806060016040528060228152602001614a90602291396001600160a01b038516600090815260656020526040902054919063ffffffff61275d16565b6001600160a01b03831660009081526065602052604090205560675461371a908263ffffffff61235a16565b6067556040516000906001600160a01b038416907fddf252ad1be2c89b69c2b068fc378daa952ba7f163c4a11628f55a4df523b3ef90612dcd908590613e82565b60006004820615801561377057506064820615155b806108f957505061019090061590565b6001600160a01b03166000908152609a602052604090205460ff1690565b815415806137d657508154829060001981019081106137b957fe5b60009182526020909120600290910201546001600160801b031642115b1561386c57604080518082018252426001600160801b039081168252602080830185815286546001808201895560008981529384209551600290920290950180546fffffffffffffffffffffffffffffffff1916919094161783555191909201558354915160001992909201917f76735e462dae5480c552f970568dc60e35cc3c4c06eb818f77bbb357593bf7fa9190a2611615565b81546000908390600019810190811061388157fe5b60009182526020909120600160029092020101829055505050565b828054600181600116156101000203166002900490600052602060002090601f016020900481019282601f106138dd57805160ff191683800117855561390a565b8280016001018555821561390a579182015b8281111561390a5782518255916020019190600101906138ef565b5061391692915061391a565b5090565b6108de91905b808211156139165760008155600101613920565b80356108f981614a5f565b600082601f83011261394f578081fd5b813567ffffffffffffffff811115613965578182fd5b613978601f8201601f1916602001614a38565b915080825283602082850101111561398f57600080fd5b8060208401602084013760009082016020015292915050565b6000602082840312156139b9578081fd5b813561141081614a5f565b6000602082840312156139d5578081fd5b815161141081614a5f565b600080604083850312156139f2578081fd5b82356139fd81614a5f565b91506020830135613a0d81614a5f565b809150509250929050565b600080600060608486031215613a2c578081fd5b8335613a3781614a5f565b92506020840135613a4781614a5f565b929592945050506040919091013590565b60008060408385031215613a6a578182fd5b8235613a7581614a5f565b946020939093013593505050565b600060208284031215613a94578081fd5b815161141081614a74565b60008060408385031215613ab1578182fd5b8251613abc81614a74565b6020939093015192949293505050565b600060208284031215613add578081fd5b5035919050565b60008060408385031215613af6578182fd5b8235915060208084013567ffffffffffffffff80821115613b15578384fd5b81860187601f820112613b26578485fd5b8035925081831115613b36578485fd5b8383029150613b46848301614a38565b8381528481019082860184840187018b1015613b60578788fd5b8794505b85851015613b8a57613b768b82613934565b835260019490940193918601918601613b64565b508096505050505050509250929050565b60008060408385031215613bad578182fd5b50508035926020909101359150565b600080600080600060a08688031215613bd3578283fd5b8535945060208601359350604086013592506060860135613bf381614a74565b91506080860135613c0381614a5f565b809150509295509295909350565b60008060008060808587031215613c26578182fd5b8435613c3181614a5f565b93506020850135613c4181614a5f565b9250604085013591506060850135613c5881614a5f565b939692955090935050565b600060208284031215613c74578081fd5b813561141081614a82565b60008060408385031215613c91578182fd5b8235613a7581614a82565b600060208284031215613cad578081fd5b5051919050565b60008060408385031215613cc6578182fd5b823567ffffffffffffffff80821115613cdd578384fd5b613ce98683870161393f565b93506020850135915080821115613cfe578283fd5b50613d0b8582860161393f565b9150509250929050565b600060608284031215613d26578081fd5b613d306060614a38565b82518152602083015160068110613d45578283fd5b60208201526040830151613d5881614a74565b60408201529392505050565b60008060008060808587031215613d79578182fd5b84359350602085013560098110613d8e578283fd5b9250604085013560028110613da1578283fd5b9396929550929360600135925050565b600080600060608486031215613dc5578081fd5b505081359360208301359350604090920135919050565b600060208284031215613ded578081fd5b815160ff81168114611410578182fd5b6001600160a01b0391909116815260200190565b6001600160a01b03929092168252602082015260400190565b6020808252825182820181905260009190848201906040850190845b81811015613e6b5783516001600160a01b031683529284019291840191600101613e46565b50909695505050505050565b901515815260200190565b90815260200190565b918252602082015260400190565b9081526f1cd95d1d1b195b595b9d14195c9a5bd960821b602082015260400190565b9081526763757272656e637960c01b602082015260400190565b9081527f726564656d7074696f6e4578657263697365506572696f640000000000000000602082015260400190565b90815274313ab9b4b732b9b9a230bca1b7b73b32b73a34b7b760591b602082015260400190565b9081526b6d617475726974794461746560a01b602082015260400190565b908152677175616e7469747960c01b602082015260400190565b9081526731b0b632b73230b960c11b602082015260400190565b9283526020830191909152604082015260600190565b6040810160228410613fa157fe5b9281526020015290565b6000602080835283518082850152825b81811015613fd757858101830151858201604001528201613fbb565b81811115613fe85783604083870101525b50601f01601f1916929092016040019392505050565b60208082526023908201527f45524332303a207472616e7366657220746f20746865207a65726f206164647260408201526265737360e81b606082015260800190565b6020808252603590820152600080516020614ab283398151915260408201527414d251d39053125391d7d393d517d1539050931151605a1b606082015260800190565b60208082526025908201527f4943542e696e697469616c697a653a20494e56414c49445f444154415f524547604082015264495354525960d81b606082015260800190565b60208082526031908201527f4943542e66657463684465706f736974416d6f756e74466f724576656e743a206040820152701393d517d6515517d1115413d4d2551151607a1b606082015260800190565b60208082526037908201527f4465706f7369742e7570646174654465706f736974416d6f756e743a2044455060408201527f4f5349545f414d4f554e545f414c52454144595f534554000000000000000000606082015260800190565b60208082526026908201527f4943542e696e697469616c697a653a20494e56414c49445f41535345545f524560408201526547495354525960d01b606082015260800190565b60208082526026908201527f4f776e61626c653a206e6577206f776e657220697320746865207a65726f206160408201526564647265737360d01b606082015260800190565b60208082526022908201527f45524332303a20617070726f766520746f20746865207a65726f206164647265604082015261737360f01b606082015260800190565b6020808252601b908201527f536166654d6174683a206164646974696f6e206f766572666c6f770000000000604082015260600190565b60208082526032908201527f5369676e65644d6174682e666c6f61744d756c743a2043414e4e4f545f524550604082015271524553454e545f4752414e554c415249545960701b606082015260800190565b60208082526027908201527f5369676e65644d6174682e666c6f61744d756c743a204f564552464c4f575f4460408201526611551150d5115160ca1b606082015260800190565b6020808252602d908201527f4465706f7369742e6372656174654465706f7369743a204445504f5349545f4160408201526c4c52454144595f45584953545360981b606082015260800190565b6020808252602d908201527f4465706f7369742e636c61696d4465706f7369743a204445504f5349545f414c60408201526c149150511657d0d31052535151609a1b606082015260800190565b60208082526031908201527f5369676e65644d6174682e666c6f61744469763a2043414e4e4f545f524550526040820152704553454e545f4752414e554c415249545960781b606082015260800190565b6020808252602f908201527f4943542e7265676973746572466f72526564656d7074696f6e3a20415353455460408201526e17d113d154d7d393d517d1561254d5608a1b606082015260800190565b60208082526021908201527f536166654d6174683a206d756c7469706c69636174696f6e206f766572666c6f6040820152607760f81b606082015260800190565b60208082526022908201527f4943542e5f7472616e736665723a20484f4c4445525f49535f5349474e414c496040820152614e4760f01b606082015260800190565b6020808252603690820152600080516020614ab283398151915260408201527511115413d4d25517d113d154d7d393d517d1561254d560521b606082015260800190565b6020808252602e908201527f4943542e6372656174654465706f736974466f724576656e743a20464f52424960408201526d4444454e5f4556454e5f5459504560901b606082015260800190565b60208082526024908201527f4943542e736574417373657449643a2041535345545f49445f414c524541445960408201526317d4d15560e21b606082015260800190565b6020808252818101527f4f776e61626c653a2063616c6c6572206973206e6f7420746865206f776e6572604082015260600190565b6020808252602e908201527f436f6e747261637420696e7374616e63652068617320616c726561647920626560408201526d195b881a5b9a5d1a585b1a5e995960921b606082015260800190565b60208082526033908201527f4465706f7369742e7570646174654465706f736974416d6f756e743a2044455060408201527213d4d25517d113d154d7d393d517d1561254d5606a1b606082015260800190565b60208082526021908201527f45524332303a206275726e2066726f6d20746865207a65726f206164647265736040820152607360f81b606082015260800190565b6020808252602f908201527f4943542e6372656174654465706f736974466f724576656e743a20415353455460408201526e17d113d154d7d393d517d1561254d5608a1b606082015260800190565b60208082526025908201527f45524332303a207472616e736665722066726f6d20746865207a65726f206164604082015264647265737360d81b606082015260800190565b60208082526026908201527f5369676e65644d6174682e666c6f61744469763a204f564552464c4f575f4445604082015265151150d5115160d21b606082015260800190565b60208082526037908201527f506572696f645574696c732e67657454696d657374616d70506c75735065726960408201527f6f643a204154545249425554455f4e4f545f464f554e44000000000000000000606082015260800190565b60208082526024908201527f45524332303a20617070726f76652066726f6d20746865207a65726f206164646040820152637265737360e01b606082015260800190565b6020808252602f90820152600080516020614ab283398151915260408201526e14d251d39053125391d7d153911151608a1b606082015260800190565b6020808252603d90820152600080516020614ab283398151915260408201527f5349474e414c5f414d4f554e545f455843454544535f42414c414e4345000000606082015260800190565b6020808252601f908201527f5265656e7472616e637947756172643a207265656e7472616e742063616c6c00604082015260600190565b60208082526028908201527f4465706f7369742e7472616e736665724465706f7369743a205452414e5346456040820152671497d1905253115160c21b606082015260800190565b60208082526024908201527f5369676e65644d6174682e666c6f61744469763a20444956494445445f42595f6040820152635a45524f60e01b606082015260800190565b6020808252601f908201527f45524332303a206d696e7420746f20746865207a65726f206164647265737300604082015260600190565b958652602086019490945260408501929092526060840152151560808301526001600160a01b031660a082015260c00190565b96875260208701959095526040860193909352606085019190915260808401526001600160a01b031660a0830152151560c082015260e00190565b60ff91909116815260200190565b60405181810167ffffffffffffffff81118282101715614a5757600080fd5b604052919050565b6001600160a01b0381168114612b0557600080fd5b8015158114612b0557600080fd5b60228110612b0557600080fdfe45524332303a206275726e20616d6f756e7420657863656564732062616c616e63654465706f7369742e7369676e616c416d6f756e74466f724465706f7369743a2045524332303a207472616e7366657220616d6f756e7420657863656564732062616c616e636545524332303a207472616e7366657220616d6f756e74206578636565647320616c6c6f77616e636545524332303a2064656372656173656420616c6c6f77616e63652062656c6f77207a65726fa26469706673582212202706135d0dcbd71b1af37f916faef0f6c9d6a761cca76f1ffdeb3def1c73d2d564736f6c634300060b0033",
  "devdoc": {
    "kind": "dev",
    "methods": {
      "allowance(address,address)": {
        "details": "See {IERC20-allowance}."
      },
      "approve(address,uint256)": {
        "details": "See {IERC20-approve}. Requirements: - `spender` cannot be the zero address."
      },
      "balanceOf(address)": {
        "details": "See {IERC20-balanceOf}."
      },
      "balanceOfAt(address,uint256)": {
        "params": {
          "holder": "Holder to query balance for",
          "timestamp": "Timestamp of the balance checkpoint"
        }
      },
      "calculateClaimOnDeposit(address,bytes32)": {
        "params": {
          "depositId": "Id of the deposit",
          "payee": "Address of holder"
        },
        "returns": {
          "_0": "withdrawable amount"
        }
      },
      "cancelRegistrationForRedemption(bytes32)": {
        "params": {
          "_event": "encoded redemption to cancel the registration for"
        }
      },
      "claimDeposit(bytes32)": {
        "params": {
          "depositId": "Id of the deposit"
        }
      },
      "decimals()": {
        "details": "Returns the number of decimals used to get its user representation. For example, if `decimals` equals `2`, a balance of `505` tokens should be displayed to a user as `5,05` (`505 / 10 ** 2`). Tokens usually opt for a value of 18, imitating the relationship between Ether and Wei. This is the value {ERC20} uses, unless {_setupDecimals} is called. NOTE: This information is only used for _display_ purposes: it in no way affects any of the arithmetic of the contract, including {IERC20-balanceOf} and {IERC20-transfer}."
      },
      "decreaseAllowance(address,uint256)": {
        "details": "Atomically decreases the allowance granted to `spender` by the caller. This is an alternative to {approve} that can be used as a mitigation for problems described in {IERC20-approve}. Emits an {Approval} event indicating the updated allowance. Requirements: - `spender` cannot be the zero address. - `spender` must have allowance for the caller of at least `subtractedValue`."
      },
      "getDeposit(bytes32)": {
        "returns": {
          "amount": "amount",
          "claimedAmount": "claimedAmount",
          "onlySignaled": "onlySignaled",
          "scheduledFor": "scheduledFor",
          "token": "token",
          "totalAmountSignaled": "totalAmountSignaled"
        }
      },
      "getHoldersAt(uint256)": {
        "params": {
          "checkpointId": "Checkpoint id at which holder list is to be populated"
        },
        "returns": {
          "_0": "list of holders"
        }
      },
      "hasClaimedDeposit(address,bytes32)": {
        "params": {
          "depositId": "Id of the deposit"
        },
        "returns": {
          "_0": "bool whether the address has claimed"
        }
      },
      "increaseAllowance(address,uint256)": {
        "details": "Atomically increases the allowance granted to `spender` by the caller. This is an alternative to {approve} that can be used as a mitigation for problems described in {IERC20-approve}. Emits an {Approval} event indicating the updated allowance. Requirements: - `spender` cannot be the zero address."
      },
      "initialize(address,address,bytes32,address)": {
        "details": "\"constructor\" to be called on deployment"
      },
      "initialize(string,string)": {
        "details": "\"constructor\" to be called on deployment"
      },
      "name()": {
        "details": "Returns the name of the token."
      },
      "owner()": {
        "details": "Returns the address of the current owner."
      },
      "pushFundsToAddresses(bytes32,address[])": {
        "params": {
          "depositId": "Id of the deposit",
          "payees": "Addresses to which to push the funds"
        }
      },
      "registerForRedemption(bytes32,uint256)": {
        "params": {
          "_event": "encoded redemption to register for",
          "amount": "amount of tokens to redeem"
        }
      },
      "renounceOwnership()": {
        "details": "Leaves the contract without owner. It will not be possible to call `onlyOwner` functions anymore. Can only be called by the current owner. NOTE: Renouncing ownership will leave the contract without an owner, thereby removing any functionality that is only available to the owner."
      },
      "symbol()": {
        "details": "Returns the symbol of the token, usually a shorter version of the name."
      },
      "totalSupply()": {
        "details": "See {IERC20-totalSupply}."
      },
      "totalSupplyAt(uint256)": {
        "params": {
          "timestamp": "Timestamp of the totalSupply checkpoint"
        },
        "returns": {
          "_0": "uint256"
        }
      },
      "transfer(address,uint256)": {
        "details": "See {IERC20-transfer}. Requirements: - `recipient` cannot be the zero address. - the caller must have a balance of at least `amount`."
      },
      "transferFrom(address,address,uint256)": {
        "details": "See {IERC20-transferFrom}. Emits an {Approval} event indicating the updated allowance. This is not required by the EIP. See the note at the beginning of {ERC20}; Requirements: - `sender` and `recipient` cannot be the zero address. - `sender` must have a balance of at least `amount`. - the caller must have allowance for ``sender``'s tokens of at least `amount`."
      },
      "transferOwnership(address)": {
        "details": "Transfers ownership of the contract to a new account (`newOwner`). Can only be called by the current owner."
      }
    },
    "version": 1
  },
  "userdoc": {
    "kind": "user",
    "methods": {
      "balanceOfAt(address,uint256)": {
        "notice": "Queries the balances of a holder at a specific timestamp"
      },
      "calculateClaimOnDeposit(address,bytes32)": {
        "notice": "Calculate claimable amount of a deposit for a given address"
      },
      "claimDeposit(bytes32)": {
        "notice": "Withdraws the holders share of funds of the deposit"
      },
      "getDeposit(bytes32)": {
        "notice": "Returns params of a deposit"
      },
      "getEpochOffset(uint8)": {
        "notice": "Returns the epoch offset for a given event type to determine the correct order of events if multiple events have the same timestamp"
      },
      "getHoldersAt(uint256)": {
        "notice": "returns an array of holders with non zero balance at a given checkpoint"
      },
      "hasClaimedDeposit(address,bytes32)": {
        "notice": "Checks whether an address has withdrawn funds for a deposit"
      },
      "initialize(address,address,bytes32,address)": {
        "notice": "Initialize a new instance storage"
      },
      "initialize(string,string)": {
        "notice": "Initialize a new instance storage"
      },
      "pushFundsToAddresses(bytes32,address[])": {
        "notice": "Issuer can push funds to provided addresses"
      },
      "shiftCalcTime(uint256,uint8,uint8,uint256)": {
        "notice": "Used in POFs and STFs for DCFs. No shifting is applied if a Calc/Shift instead of Shift/Calc BDC is provided."
      },
      "totalSupplyAt(uint256)": {
        "notice": "Queries totalSupply at a specific timestamp"
      }
    },
    "version": 1
  },
  "storageLayout": {
    "storage": [
      {
        "astId": 50,
        "contract": "contracts/Extensions/ICT/ProxySafeICT.sol:ProxySafeICT",
        "label": "initialized",
        "offset": 0,
        "slot": "0",
        "type": "t_bool"
      },
      {
        "astId": 53,
        "contract": "contracts/Extensions/ICT/ProxySafeICT.sol:ProxySafeICT",
        "label": "initializing",
        "offset": 1,
        "slot": "0",
        "type": "t_bool"
      },
      {
        "astId": 118,
        "contract": "contracts/Extensions/ICT/ProxySafeICT.sol:ProxySafeICT",
        "label": "______gap",
        "offset": 0,
        "slot": "1",
        "type": "t_array(t_uint256)50_storage"
      },
      {
        "astId": 43,
        "contract": "contracts/Extensions/ICT/ProxySafeICT.sol:ProxySafeICT",
        "label": "__gap",
        "offset": 0,
        "slot": "51",
        "type": "t_array(t_uint256)50_storage"
      },
      {
        "astId": 469,
        "contract": "contracts/Extensions/ICT/ProxySafeICT.sol:ProxySafeICT",
        "label": "_balances",
        "offset": 0,
        "slot": "101",
        "type": "t_mapping(t_address,t_uint256)"
      },
      {
        "astId": 475,
        "contract": "contracts/Extensions/ICT/ProxySafeICT.sol:ProxySafeICT",
        "label": "_allowances",
        "offset": 0,
        "slot": "102",
        "type": "t_mapping(t_address,t_mapping(t_address,t_uint256))"
      },
      {
        "astId": 477,
        "contract": "contracts/Extensions/ICT/ProxySafeICT.sol:ProxySafeICT",
        "label": "_totalSupply",
        "offset": 0,
        "slot": "103",
        "type": "t_uint256"
      },
      {
        "astId": 479,
        "contract": "contracts/Extensions/ICT/ProxySafeICT.sol:ProxySafeICT",
        "label": "_name",
        "offset": 0,
        "slot": "104",
        "type": "t_string_storage"
      },
      {
        "astId": 481,
        "contract": "contracts/Extensions/ICT/ProxySafeICT.sol:ProxySafeICT",
        "label": "_symbol",
        "offset": 0,
        "slot": "105",
        "type": "t_string_storage"
      },
      {
        "astId": 483,
        "contract": "contracts/Extensions/ICT/ProxySafeICT.sol:ProxySafeICT",
        "label": "_decimals",
        "offset": 0,
        "slot": "106",
        "type": "t_uint8"
      },
      {
        "astId": 978,
        "contract": "contracts/Extensions/ICT/ProxySafeICT.sol:ProxySafeICT",
        "label": "__gap",
        "offset": 0,
        "slot": "107",
        "type": "t_array(t_uint256)44_storage"
      },
      {
        "astId": 42753,
        "contract": "contracts/Extensions/ICT/ProxySafeICT.sol:ProxySafeICT",
        "label": "checkpointTotalSupply",
        "offset": 0,
        "slot": "151",
        "type": "t_array(t_struct(Checkpoint)42185_storage)dyn_storage"
      },
      {
        "astId": 42758,
        "contract": "contracts/Extensions/ICT/ProxySafeICT.sol:ProxySafeICT",
        "label": "checkpointBalances",
        "offset": 0,
        "slot": "152",
        "type": "t_mapping(t_address,t_array(t_struct(Checkpoint)42185_storage)dyn_storage)"
      },
      {
        "astId": 42761,
        "contract": "contracts/Extensions/ICT/ProxySafeICT.sol:ProxySafeICT",
        "label": "holders",
        "offset": 0,
        "slot": "153",
        "type": "t_array(t_address)dyn_storage"
      },
      {
        "astId": 42765,
        "contract": "contracts/Extensions/ICT/ProxySafeICT.sol:ProxySafeICT",
        "label": "holderExists",
        "offset": 0,
        "slot": "154",
        "type": "t_mapping(t_address,t_bool)"
      },
      {
        "astId": 42767,
        "contract": "contracts/Extensions/ICT/ProxySafeICT.sol:ProxySafeICT",
        "label": "holderCount",
        "offset": 0,
        "slot": "155",
        "type": "t_uint256"
      },
      {
        "astId": 42771,
        "contract": "contracts/Extensions/ICT/ProxySafeICT.sol:ProxySafeICT",
        "label": "__gap",
        "offset": 0,
        "slot": "156",
        "type": "t_array(t_uint256)10_storage"
      },
      {
        "astId": 43372,
        "contract": "contracts/Extensions/ICT/ProxySafeICT.sol:ProxySafeICT",
        "label": "deposits",
        "offset": 0,
        "slot": "166",
        "type": "t_mapping(t_bytes32,t_struct(Deposit)43368_storage)"
      },
      {
        "astId": 43376,
        "contract": "contracts/Extensions/ICT/ProxySafeICT.sol:ProxySafeICT",
        "label": "totalAmountSignaledByHolder",
        "offset": 0,
        "slot": "167",
        "type": "t_mapping(t_address,t_uint256)"
      },
      {
        "astId": 43380,
        "contract": "contracts/Extensions/ICT/ProxySafeICT.sol:ProxySafeICT",
        "label": "__gap",
        "offset": 0,
        "slot": "168",
        "type": "t_array(t_uint256)10_storage"
      },
      {
        "astId": 1240,
        "contract": "contracts/Extensions/ICT/ProxySafeICT.sol:ProxySafeICT",
        "label": "_notEntered",
        "offset": 0,
        "slot": "178",
        "type": "t_bool"
      },
      {
        "astId": 1281,
        "contract": "contracts/Extensions/ICT/ProxySafeICT.sol:ProxySafeICT",
        "label": "__gap",
        "offset": 0,
        "slot": "179",
        "type": "t_array(t_uint256)49_storage"
      },
      {
        "astId": 130,
        "contract": "contracts/Extensions/ICT/ProxySafeICT.sol:ProxySafeICT",
        "label": "_owner",
        "offset": 0,
        "slot": "228",
        "type": "t_address"
      },
      {
        "astId": 248,
        "contract": "contracts/Extensions/ICT/ProxySafeICT.sol:ProxySafeICT",
        "label": "__gap",
        "offset": 0,
        "slot": "229",
        "type": "t_array(t_uint256)49_storage"
      },
      {
        "astId": 43528,
        "contract": "contracts/Extensions/ICT/ProxySafeICT.sol:ProxySafeICT",
        "label": "assetRegistry",
        "offset": 0,
        "slot": "278",
        "type": "t_contract(IAssetRegistry)22197"
      },
      {
        "astId": 43530,
        "contract": "contracts/Extensions/ICT/ProxySafeICT.sol:ProxySafeICT",
        "label": "dataRegistry",
        "offset": 0,
        "slot": "279",
        "type": "t_contract(DataRegistry)25507"
      },
      {
        "astId": 43532,
        "contract": "contracts/Extensions/ICT/ProxySafeICT.sol:ProxySafeICT",
        "label": "marketObjectCode",
        "offset": 0,
        "slot": "280",
        "type": "t_bytes32"
      },
      {
        "astId": 43534,
        "contract": "contracts/Extensions/ICT/ProxySafeICT.sol:ProxySafeICT",
        "label": "assetId",
        "offset": 0,
        "slot": "281",
        "type": "t_bytes32"
      },
      {
        "astId": 43538,
        "contract": "contracts/Extensions/ICT/ProxySafeICT.sol:ProxySafeICT",
        "label": "__gap",
        "offset": 0,
        "slot": "282",
        "type": "t_array(t_uint256)10_storage"
      }
    ],
    "types": {
      "t_address": {
        "encoding": "inplace",
        "label": "address",
        "numberOfBytes": "20"
      },
      "t_array(t_address)dyn_storage": {
        "base": "t_address",
        "encoding": "dynamic_array",
        "label": "address[]",
        "numberOfBytes": "32"
      },
      "t_array(t_struct(Checkpoint)42185_storage)dyn_storage": {
        "base": "t_struct(Checkpoint)42185_storage",
        "encoding": "dynamic_array",
        "label": "struct CheckpointStorage.Checkpoint[]",
        "numberOfBytes": "32"
      },
      "t_array(t_uint256)10_storage": {
        "base": "t_uint256",
        "encoding": "inplace",
        "label": "uint256[10]",
        "numberOfBytes": "320"
      },
      "t_array(t_uint256)44_storage": {
        "base": "t_uint256",
        "encoding": "inplace",
        "label": "uint256[44]",
        "numberOfBytes": "1408"
      },
      "t_array(t_uint256)49_storage": {
        "base": "t_uint256",
        "encoding": "inplace",
        "label": "uint256[49]",
        "numberOfBytes": "1568"
      },
      "t_array(t_uint256)50_storage": {
        "base": "t_uint256",
        "encoding": "inplace",
        "label": "uint256[50]",
        "numberOfBytes": "1600"
      },
      "t_bool": {
        "encoding": "inplace",
        "label": "bool",
        "numberOfBytes": "1"
      },
      "t_bytes32": {
        "encoding": "inplace",
        "label": "bytes32",
        "numberOfBytes": "32"
      },
      "t_contract(DataRegistry)25507": {
        "encoding": "inplace",
        "label": "contract DataRegistry",
        "numberOfBytes": "20"
      },
      "t_contract(IAssetRegistry)22197": {
        "encoding": "inplace",
        "label": "contract IAssetRegistry",
        "numberOfBytes": "20"
      },
      "t_mapping(t_address,t_array(t_struct(Checkpoint)42185_storage)dyn_storage)": {
        "encoding": "mapping",
        "key": "t_address",
        "label": "mapping(address => struct CheckpointStorage.Checkpoint[])",
        "numberOfBytes": "32",
        "value": "t_array(t_struct(Checkpoint)42185_storage)dyn_storage"
      },
      "t_mapping(t_address,t_bool)": {
        "encoding": "mapping",
        "key": "t_address",
        "label": "mapping(address => bool)",
        "numberOfBytes": "32",
        "value": "t_bool"
      },
      "t_mapping(t_address,t_mapping(t_address,t_uint256))": {
        "encoding": "mapping",
        "key": "t_address",
        "label": "mapping(address => mapping(address => uint256))",
        "numberOfBytes": "32",
        "value": "t_mapping(t_address,t_uint256)"
      },
      "t_mapping(t_address,t_uint256)": {
        "encoding": "mapping",
        "key": "t_address",
        "label": "mapping(address => uint256)",
        "numberOfBytes": "32",
        "value": "t_uint256"
      },
      "t_mapping(t_bytes32,t_struct(Deposit)43368_storage)": {
        "encoding": "mapping",
        "key": "t_bytes32",
        "label": "mapping(bytes32 => struct DepositAllocaterStorage.Deposit)",
        "numberOfBytes": "32",
        "value": "t_struct(Deposit)43368_storage"
      },
      "t_string_storage": {
        "encoding": "bytes",
        "label": "string",
        "numberOfBytes": "32"
      },
      "t_struct(Checkpoint)42185_storage": {
        "encoding": "inplace",
        "label": "struct CheckpointStorage.Checkpoint",
        "members": [
          {
            "astId": 42182,
            "contract": "contracts/Extensions/ICT/ProxySafeICT.sol:ProxySafeICT",
            "label": "timestamp",
            "offset": 0,
            "slot": "0",
            "type": "t_uint128"
          },
          {
            "astId": 42184,
            "contract": "contracts/Extensions/ICT/ProxySafeICT.sol:ProxySafeICT",
            "label": "value",
            "offset": 0,
            "slot": "1",
            "type": "t_uint256"
          }
        ],
        "numberOfBytes": "64"
      },
      "t_struct(Deposit)43368_storage": {
        "encoding": "inplace",
        "label": "struct DepositAllocaterStorage.Deposit",
        "members": [
          {
            "astId": 43347,
            "contract": "contracts/Extensions/ICT/ProxySafeICT.sol:ProxySafeICT",
            "label": "scheduledFor",
            "offset": 0,
            "slot": "0",
            "type": "t_uint256"
          },
          {
            "astId": 43349,
            "contract": "contracts/Extensions/ICT/ProxySafeICT.sol:ProxySafeICT",
            "label": "signalingCutoff",
            "offset": 0,
            "slot": "1",
            "type": "t_uint256"
          },
          {
            "astId": 43351,
            "contract": "contracts/Extensions/ICT/ProxySafeICT.sol:ProxySafeICT",
            "label": "amount",
            "offset": 0,
            "slot": "2",
            "type": "t_uint256"
          },
          {
            "astId": 43353,
            "contract": "contracts/Extensions/ICT/ProxySafeICT.sol:ProxySafeICT",
            "label": "claimedAmount",
            "offset": 0,
            "slot": "3",
            "type": "t_uint256"
          },
          {
            "astId": 43355,
            "contract": "contracts/Extensions/ICT/ProxySafeICT.sol:ProxySafeICT",
            "label": "totalAmountSignaled",
            "offset": 0,
            "slot": "4",
            "type": "t_uint256"
          },
          {
            "astId": 43357,
            "contract": "contracts/Extensions/ICT/ProxySafeICT.sol:ProxySafeICT",
            "label": "token",
            "offset": 0,
            "slot": "5",
            "type": "t_address"
          },
          {
            "astId": 43359,
            "contract": "contracts/Extensions/ICT/ProxySafeICT.sol:ProxySafeICT",
            "label": "onlySignaled",
            "offset": 20,
            "slot": "5",
            "type": "t_bool"
          },
          {
            "astId": 43363,
            "contract": "contracts/Extensions/ICT/ProxySafeICT.sol:ProxySafeICT",
            "label": "claimed",
            "offset": 0,
            "slot": "6",
            "type": "t_mapping(t_address,t_bool)"
          },
          {
            "astId": 43367,
            "contract": "contracts/Extensions/ICT/ProxySafeICT.sol:ProxySafeICT",
            "label": "signaledAmounts",
            "offset": 0,
            "slot": "7",
            "type": "t_mapping(t_address,t_uint256)"
          }
        ],
        "numberOfBytes": "256"
      },
      "t_uint128": {
        "encoding": "inplace",
        "label": "uint128",
        "numberOfBytes": "16"
      },
      "t_uint256": {
        "encoding": "inplace",
        "label": "uint256",
        "numberOfBytes": "32"
      },
      "t_uint8": {
        "encoding": "inplace",
        "label": "uint8",
        "numberOfBytes": "1"
      }
    }
  },
  "gasEstimates": {
    "creation": {
      "codeDepositCost": "3864400",
      "executionCost": "4387",
      "totalCost": "3868787"
    },
    "external": {
      "allowance(address,address)": "infinite",
      "approve(address,uint256)": "22669",
      "assetId()": "1073",
      "assetRegistry()": "1203",
      "balanceOf(address)": "1419",
      "balanceOfAt(address,uint256)": "infinite",
      "calculateClaimOnDeposit(address,bytes32)": "infinite",
      "cancelRegistrationForRedemption(bytes32)": "infinite",
      "claimDeposit(bytes32)": "infinite",
      "createDeposit(bytes32,uint256,uint256,bool,address)": "infinite",
      "createDepositForEvent(bytes32)": "infinite",
      "dataRegistry()": "1137",
      "decimals()": "1092",
      "decodeEvent(bytes32)": "484",
      "decreaseAllowance(address,uint256)": "infinite",
      "deposits(bytes32)": "5586",
      "encodeEvent(uint8,uint256)": "508",
      "fetchDepositAmountForEvent(bytes32)": "infinite",
      "getDeposit(bytes32)": "4747",
      "getEpochOffset(uint8)": "443",
      "getHolderSubsetAt(uint256,uint256,uint256)": "infinite",
      "getHoldersAt(uint256)": "infinite",
      "getNumberOfHolders()": "1184",
      "hasClaimedDeposit(address,bytes32)": "1471",
      "holderCount()": "1163",
      "increaseAllowance(address,uint256)": "infinite",
      "initialize(address,address,bytes32,address)": "infinite",
      "initialize(string,string)": "infinite",
      "marketObjectCode()": "1184",
      "mint(address,uint256)": "infinite",
      "name()": "infinite",
      "owner()": "1137",
      "pushFundsToAddresses(bytes32,address[])": "infinite",
      "registerForRedemption(bytes32,uint256)": "infinite",
      "renounceOwnership()": "24247",
      "setAssetId(bytes32)": "22035",
      "shiftCalcTime(uint256,uint8,uint8,uint256)": "infinite",
      "shiftEventTime(uint256,uint8,uint8,uint256)": "infinite",
      "signalAmountForDeposit(bytes32,uint256)": "infinite",
      "symbol()": "infinite",
      "totalAmountSignaledByHolder(address)": "1380",
      "totalSupply()": "1141",
      "totalSupplyAt(uint256)": "infinite",
      "transfer(address,uint256)": "infinite",
      "transferFrom(address,address,uint256)": "infinite",
      "transferOwnership(address)": "24565",
      "updateDepositAmount(bytes32,uint256)": "22097"
    },
    "internal": {
      "_transfer(address,address,uint256)": "infinite",
      "transferDeposit(address,struct DepositAllocaterStorage.Deposit storage pointer,bytes32)": "infinite"
    }
  }
}