{
  "_format": "hh-sol-artifact-1",
  "contractName": "CECActor",
  "sourceName": "contracts/Core/CEC/CECActor.sol",
  "abi": [
    {
      "inputs": [
        {
          "internalType": "contract IAssetRegistry",
          "name": "assetRegistry",
          "type": "address"
        },
        {
          "internalType": "contract IOracleProxy",
          "name": "defaultOracleProxy",
          "type": "address"
        }
      ],
      "stateMutability": "nonpayable",
      "type": "constructor"
    },
    {
      "anonymous": false,
      "inputs": [
        {
          "indexed": true,
          "internalType": "bytes32",
          "name": "assetId",
          "type": "bytes32"
        },
        {
          "indexed": false,
          "internalType": "enum ContractType",
          "name": "contractType",
          "type": "uint8"
        },
        {
          "indexed": false,
          "internalType": "address",
          "name": "creator",
          "type": "address"
        },
        {
          "indexed": false,
          "internalType": "address",
          "name": "counterparty",
          "type": "address"
        }
      ],
      "name": "InitializedAsset",
      "type": "event"
    },
    {
      "anonymous": false,
      "inputs": [
        {
          "indexed": true,
          "internalType": "address",
          "name": "previousOwner",
          "type": "address"
        },
        {
          "indexed": true,
          "internalType": "address",
          "name": "newOwner",
          "type": "address"
        }
      ],
      "name": "OwnershipTransferred",
      "type": "event"
    },
    {
      "anonymous": false,
      "inputs": [
        {
          "indexed": true,
          "internalType": "bytes32",
          "name": "assetId",
          "type": "bytes32"
        },
        {
          "indexed": false,
          "internalType": "enum EventType",
          "name": "eventType",
          "type": "uint8"
        },
        {
          "indexed": false,
          "internalType": "uint256",
          "name": "scheduleTime",
          "type": "uint256"
        },
        {
          "indexed": false,
          "internalType": "int256",
          "name": "payoff",
          "type": "int256"
        }
      ],
      "name": "ProgressedAsset",
      "type": "event"
    },
    {
      "anonymous": false,
      "inputs": [
        {
          "indexed": true,
          "internalType": "bytes32",
          "name": "assetId",
          "type": "bytes32"
        },
        {
          "indexed": false,
          "internalType": "bytes32",
          "name": "statusMessage",
          "type": "bytes32"
        }
      ],
      "name": "Status",
      "type": "event"
    },
    {
      "inputs": [],
      "name": "assetRegistry",
      "outputs": [
        {
          "internalType": "contract IAssetRegistry",
          "name": "",
          "type": "address"
        }
      ],
      "stateMutability": "view",
      "type": "function"
    },
    {
      "inputs": [
        {
          "internalType": "bytes32",
          "name": "object",
          "type": "bytes32"
        }
      ],
      "name": "decodeCollateralObject",
      "outputs": [
        {
          "internalType": "address",
          "name": "",
          "type": "address"
        },
        {
          "internalType": "uint256",
          "name": "",
          "type": "uint256"
        }
      ],
      "stateMutability": "pure",
      "type": "function"
    },
    {
      "inputs": [
        {
          "internalType": "bytes32",
          "name": "_event",
          "type": "bytes32"
        }
      ],
      "name": "decodeEvent",
      "outputs": [
        {
          "internalType": "enum EventType",
          "name": "",
          "type": "uint8"
        },
        {
          "internalType": "uint256",
          "name": "",
          "type": "uint256"
        }
      ],
      "stateMutability": "pure",
      "type": "function"
    },
    {
      "inputs": [],
      "name": "defaultOracleProxy",
      "outputs": [
        {
          "internalType": "contract IOracleProxy",
          "name": "",
          "type": "address"
        }
      ],
      "stateMutability": "view",
      "type": "function"
    },
    {
      "inputs": [
        {
          "internalType": "address",
          "name": "collateralToken",
          "type": "address"
        },
        {
          "internalType": "uint256",
          "name": "collateralAmount",
          "type": "uint256"
        }
      ],
      "name": "encodeCollateralAsObject",
      "outputs": [
        {
          "internalType": "bytes32",
          "name": "",
          "type": "bytes32"
        }
      ],
      "stateMutability": "pure",
      "type": "function"
    },
    {
      "inputs": [
        {
          "internalType": "enum EventType",
          "name": "eventType",
          "type": "uint8"
        },
        {
          "internalType": "uint256",
          "name": "scheduleTime",
          "type": "uint256"
        }
      ],
      "name": "encodeEvent",
      "outputs": [
        {
          "internalType": "bytes32",
          "name": "",
          "type": "bytes32"
        }
      ],
      "stateMutability": "pure",
      "type": "function"
    },
    {
      "inputs": [
        {
          "internalType": "enum EventType",
          "name": "eventType",
          "type": "uint8"
        }
      ],
      "name": "getEpochOffset",
      "outputs": [
        {
          "internalType": "uint256",
          "name": "",
          "type": "uint256"
        }
      ],
      "stateMutability": "pure",
      "type": "function"
    },
    {
      "inputs": [
        {
          "components": [
            {
              "internalType": "enum ContractType",
              "name": "contractType",
              "type": "uint8"
            },
            {
              "internalType": "enum Calendar",
              "name": "calendar",
              "type": "uint8"
            },
            {
              "internalType": "enum ContractRole",
              "name": "contractRole",
              "type": "uint8"
            },
            {
              "internalType": "enum DayCountConvention",
              "name": "dayCountConvention",
              "type": "uint8"
            },
            {
              "internalType": "enum BusinessDayConvention",
              "name": "businessDayConvention",
              "type": "uint8"
            },
            {
              "internalType": "enum EndOfMonthConvention",
              "name": "endOfMonthConvention",
              "type": "uint8"
            },
            {
              "internalType": "enum ContractPerformance",
              "name": "creditEventTypeCovered",
              "type": "uint8"
            },
            {
              "internalType": "enum FeeBasis",
              "name": "feeBasis",
              "type": "uint8"
            },
            {
              "internalType": "uint256",
              "name": "statusDate",
              "type": "uint256"
            },
            {
              "internalType": "uint256",
              "name": "maturityDate",
              "type": "uint256"
            },
            {
              "internalType": "int256",
              "name": "notionalPrincipal",
              "type": "int256"
            },
            {
              "internalType": "int256",
              "name": "feeRate",
              "type": "int256"
            },
            {
              "internalType": "int256",
              "name": "coverageOfCreditEnhancement",
              "type": "int256"
            },
            {
              "components": [
                {
                  "internalType": "bytes32",
                  "name": "object",
                  "type": "bytes32"
                },
                {
                  "internalType": "bytes32",
                  "name": "object2",
                  "type": "bytes32"
                },
                {
                  "internalType": "enum ContractReferenceType",
                  "name": "_type",
                  "type": "uint8"
                },
                {
                  "internalType": "enum ContractReferenceRole",
                  "name": "role",
                  "type": "uint8"
                }
              ],
              "internalType": "struct ContractReference",
              "name": "contractReference_1",
              "type": "tuple"
            },
            {
              "components": [
                {
                  "internalType": "bytes32",
                  "name": "object",
                  "type": "bytes32"
                },
                {
                  "internalType": "bytes32",
                  "name": "object2",
                  "type": "bytes32"
                },
                {
                  "internalType": "enum ContractReferenceType",
                  "name": "_type",
                  "type": "uint8"
                },
                {
                  "internalType": "enum ContractReferenceRole",
                  "name": "role",
                  "type": "uint8"
                }
              ],
              "internalType": "struct ContractReference",
              "name": "contractReference_2",
              "type": "tuple"
            }
          ],
          "internalType": "struct CECTerms",
          "name": "terms",
          "type": "tuple"
        },
        {
          "internalType": "bytes32[]",
          "name": "schedule",
          "type": "bytes32[]"
        },
        {
          "internalType": "address",
          "name": "engine",
          "type": "address"
        },
        {
          "internalType": "address",
          "name": "admin",
          "type": "address"
        },
        {
          "internalType": "address",
          "name": "custodian",
          "type": "address"
        },
        {
          "internalType": "address",
          "name": "underlyingRegistry",
          "type": "address"
        }
      ],
      "name": "initialize",
      "outputs": [],
      "stateMutability": "nonpayable",
      "type": "function"
    },
    {
      "inputs": [],
      "name": "owner",
      "outputs": [
        {
          "internalType": "address",
          "name": "",
          "type": "address"
        }
      ],
      "stateMutability": "view",
      "type": "function"
    },
    {
      "inputs": [
        {
          "internalType": "bytes32",
          "name": "assetId",
          "type": "bytes32"
        }
      ],
      "name": "progress",
      "outputs": [],
      "stateMutability": "nonpayable",
      "type": "function"
    },
    {
      "inputs": [
        {
          "internalType": "bytes32",
          "name": "assetId",
          "type": "bytes32"
        },
        {
          "internalType": "bytes32",
          "name": "_event",
          "type": "bytes32"
        }
      ],
      "name": "progressWith",
      "outputs": [],
      "stateMutability": "nonpayable",
      "type": "function"
    },
    {
      "inputs": [],
      "name": "renounceOwnership",
      "outputs": [],
      "stateMutability": "nonpayable",
      "type": "function"
    },
    {
      "inputs": [
        {
          "internalType": "uint256",
          "name": "timestamp",
          "type": "uint256"
        },
        {
          "internalType": "enum BusinessDayConvention",
          "name": "convention",
          "type": "uint8"
        },
        {
          "internalType": "enum Calendar",
          "name": "calendar",
          "type": "uint8"
        },
        {
          "internalType": "uint256",
          "name": "maturityDate",
          "type": "uint256"
        }
      ],
      "name": "shiftCalcTime",
      "outputs": [
        {
          "internalType": "uint256",
          "name": "",
          "type": "uint256"
        }
      ],
      "stateMutability": "pure",
      "type": "function"
    },
    {
      "inputs": [
        {
          "internalType": "uint256",
          "name": "timestamp",
          "type": "uint256"
        },
        {
          "internalType": "enum BusinessDayConvention",
          "name": "convention",
          "type": "uint8"
        },
        {
          "internalType": "enum Calendar",
          "name": "calendar",
          "type": "uint8"
        },
        {
          "internalType": "uint256",
          "name": "maturityDate",
          "type": "uint256"
        }
      ],
      "name": "shiftEventTime",
      "outputs": [
        {
          "internalType": "uint256",
          "name": "",
          "type": "uint256"
        }
      ],
      "stateMutability": "pure",
      "type": "function"
    },
    {
      "inputs": [
        {
          "internalType": "address",
          "name": "newOwner",
          "type": "address"
        }
      ],
      "name": "transferOwnership",
      "outputs": [],
      "stateMutability": "nonpayable",
      "type": "function"
    }
  ],
  "bytecode": "0x60806040523480156200001157600080fd5b506040516200398b3803806200398b8339810160408190526200003491620000c5565b8181600062000042620000c1565b600080546001600160a01b0319166001600160a01b0383169081178255604051929350917f8be0079c531659141344cd1fd0a4f28419497f9722a3daafe3b4186f6b6457e0908290a350600180546001600160a01b039384166001600160a01b03199182161790915560028054929093169116179055506200011c9050565b3390565b60008060408385031215620000d8578182fd5b8251620000e58162000103565b6020840151909250620000f88162000103565b809150509250929050565b6001600160a01b03811681146200011957600080fd5b50565b61385f806200012c6000396000f3fe608060405234801561001057600080fd5b50600436106100f55760003560e01c80638da5cb5b11610097578063e05a66e011610066578063e05a66e0146101e0578063e726d680146101f3578063f2fde38b14610206578063f5586e0514610219576100f5565b80638da5cb5b146101a8578063979d7e86146101bd57806398172dd8146101c5578063d56a1ddf146101cd576100f5565b8063715018a6116100d3578063715018a61461015957806372540003146101615780637aebd2a814610182578063811322fb14610195576100f5565b8063645a26bd146100fa5780636778e0e9146101245780636b6ba66414610144575b600080fd5b61010d61010836600461265d565b61022c565b60405161011b929190612eb2565b60405180910390f35b610137610132366004612618565b610245565b60405161011b9190612ecb565b61015761015236600461268d565b610270565b005b610157610525565b61017461016f36600461265d565b6105d9565b60405161011b929190613133565b61015761019036600461265d565b610602565b6101376101a3366004612702565b610860565b6101b0610876565b60405161011b9190612e60565b6101b0610885565b6101b0610894565b6101576101db3660046127e0565b6108a3565b6101376101ee36600461271c565b610e7f565b610137610201366004612aec565b610e9d565b6101576102143660046125e0565b610ff2565b610137610227366004612aec565b6110fc565b606081901c6bffffffffffffffffffffffff8216915091565b6bffffffffffffffffffffffff19606083901b166bffffffffffffffffffffffff8216175b92915050565b60015460405163747be51f60e11b81526001600160a01b039091169063e8f7ca3e906102a29085903390600401612ed4565b602060405180830381600087803b1580156102bc57600080fd5b505af11580156102d0573d6000803e3d6000fd5b505050506040513d601f19601f820116820180604052508101906102f49190612643565b6103195760405162461bcd60e51b8152600401610310906133bf565b60405180910390fd5b60015460405163f52f84e160e01b81526000916001600160a01b03169063f52f84e19061034a908690600401612ecb565b60206040518083038186803b15801561036257600080fd5b505afa158015610376573d6000803e3d6000fd5b505050506040513d601f19601f8201168201806040525081019061039a9190612675565b146103b75760405162461bcd60e51b815260040161031090613503565b600154604051631d7a1ab960e21b81526000916001600160a01b0316906375e86ae4906103e8908690600401612ecb565b60206040518083038186803b15801561040057600080fd5b505afa158015610414573d6000803e3d6000fd5b505050506040513d601f19601f820116820180604052508101906104389190612675565b146104555760405162461bcd60e51b815260040161031090613371565b60015460405163b828204160e01b81526000916104dc916001600160a01b039091169063b82820419061048c908790600401612ecb565b60206040518083038186803b1580156104a457600080fd5b505afa1580156104b8573d6000803e3d6000fd5b505050506040513d601f19601f8201168201806040525081019061016f9190612675565b91505060006104ea836105d9565b9150508115806104f957508181105b6105155760405162461bcd60e51b8152600401610310906131ca565b61051f8484611170565b50505050565b61052d611719565b6000546001600160a01b0390811691161461058f576040805162461bcd60e51b815260206004820181905260248201527f4f776e61626c653a2063616c6c6572206973206e6f7420746865206f776e6572604482015290519081900360640190fd5b600080546040516001600160a01b03909116907f8be0079c531659141344cd1fd0a4f28419497f9722a3daafe3b4186f6b6457e0908390a3600080546001600160a01b0319169055565b6000808060f884901c60218111156105ed57fe5b92505067ffffffffffffffff83169050915091565b600154604051631392c59160e11b81526001600160a01b03909116906327258b2290610632908490600401612ecb565b60206040518083038186803b15801561064a57600080fd5b505afa15801561065e573d6000803e3d6000fd5b505050506040513d601f19601f820116820180604052508101906106829190612643565b61069e5760405162461bcd60e51b81526004016103109061340a565b600154604051630316dd6960e21b81526000916001600160a01b031690630c5b75a4906106cf908590600401612ecb565b602060405180830381600087803b1580156106e957600080fd5b505af11580156106fd573d6000803e3d6000fd5b505050506040513d601f19601f820116820180604052508101906107219190612675565b9050806107ab57600154604051631d7a1ab960e21b81526001600160a01b03909116906375e86ae490610758908590600401612ecb565b60206040518083038186803b15801561077057600080fd5b505afa158015610784573d6000803e3d6000fd5b505050506040513d601f19601f820116820180604052508101906107a89190612675565b90505b80610835576001546040516361db73e160e11b81526001600160a01b039091169063c3b6e7c2906107e0908590600401612ecb565b602060405180830381600087803b1580156107fa57600080fd5b505af115801561080e573d6000803e3d6000fd5b505050506040513d601f19601f820116820180604052508101906108329190612675565b90505b806108525760405162461bcd60e51b815260040161031090613233565b61085c8282611170565b5050565b600081602181111561086e57fe5b90505b919050565b6000546001600160a01b031690565b6001546001600160a01b031681565b6002546001600160a01b031681565b6001600160a01b0384161580159061093657506011846001600160a01b031663cb2ef6f76040518163ffffffff1660e01b815260040160206040518083038186803b1580156108f157600080fd5b505afa158015610905573d6000803e3d6000fd5b505050506040513d601f19601f8201168201806040525081019061092991906126e6565b601281111561093457fe5b145b6109525760405162461bcd60e51b81526004016103109061316d565b60008742604051602001610967929190613636565b604051602081830303815290604052805190602001209050610987612357565b600361099b6102208b016102008c016126ae565b60048111156109a657fe5b14156109ce576101a08901356109ce5760405162461bcd60e51b8152600401610310906132bf565b60046109e26102a08b016102808c016126ae565b60048111156109ed57fe5b1415610d2457610220890135610a155760405162461bcd60e51b81526004016103109061354e565b888442604051602001610a2a9392919061360b565b60408051601f1981840301815290829052805160209091012060015463ecef557760e01b83529093506101a08b0135916000916001600160a01b03169063ecef557790610a7b908590600401612f34565b60206040518083038186803b158015610a9357600080fd5b505afa158015610aa7573d6000803e3d6000fd5b505050506040513d601f19601f82011682018060405250810190610acb9190612b33565b60ff16600c811115610ad957fe5b9050610ae3612357565b60405163e50e0ef760e01b81526001600160a01b0387169063e50e0ef790610b0f908690600401612ecb565b60806040518083038186803b158015610b2757600080fd5b505afa158015610b3b573d6000803e3d6000fd5b505050506040513d601f19601f82011682018060405250810190610b5f9190612762565b90506006610b7360608e0160408f016126ca565b600c811115610b7e57fe5b148015610b965750600082600c811115610b9457fe5b145b15610bf357604051806080016040528082600001516001600160a01b0316815260200182602001516001600160a01b03168152602001886001600160a01b0316815260200182606001516001600160a01b03168152509350610c9d565b6007610c0560608e0160408f016126ca565b600c811115610c1057fe5b148015610c285750600182600c811115610c2657fe5b145b15610c85576040518060800160405280886001600160a01b0316815260200182602001516001600160a01b0316815260200182604001516001600160a01b0316815260200182606001516001600160a01b03168152509350610c9d565b60405162461bcd60e51b815260040161031090613274565b866001600160a01b031663f1acef64868e876040518463ffffffff1660e01b8152600401610ccd93929190613037565b602060405180830381600087803b158015610ce757600080fd5b505af1158015610cfb573d6000803e3d6000fd5b505050506040513d601f19601f82011682018060405250810190610d1f9190612643565b505050505b610d2c61237e565b604051632630a7a960e21b81526001600160a01b038816906398c29ea490610d58908d906004016135fc565b6102e06040518083038186803b158015610d7157600080fd5b505afa158015610d85573d6000803e3d6000fd5b505050506040513d601f19601f82011682018060405250810190610da991906129cf565b9050600160009054906101000a90046001600160a01b03166001600160a01b031663b28da666848c848d8d888e308f6040518a63ffffffff1660e01b8152600401610dfc9998979695949392919061305a565b600060405180830381600087803b158015610e1657600080fd5b505af1158015610e2a573d6000803e3d6000fd5b50505050827fc5df678b84aa92f5f59981df8c9997b366d886de25771c5f753015c2e14e907a601184600001518560400151604051610e6b93929190613103565b60405180910390a250505050505050505050565b60008160f8846021811115610e9057fe5b60ff16901b179392505050565b600081851415610eae575083610fea565b6001846008811115610ebc57fe5b1480610ed357506003846008811115610ed157fe5b145b15610ee957610ee2858461171d565b9050610fea565b6002846008811115610ef757fe5b1480610f0e57506004846008811115610f0c57fe5b145b15610f52576000610f1f868561171d565b9050610f2a86611779565b610f3382611779565b1415610f40579050610fea565b610f4a8685611791565b915050610fea565b6005846008811115610f6057fe5b1480610f7757506007846008811115610f7557fe5b145b15610f8657610ee28584611791565b6006846008811115610f9457fe5b1480610fab57506008846008811115610fa957fe5b145b15610fe7576000610fbc8685611791565b9050610fc786611779565b610fd082611779565b1415610fdd579050610fea565b610f4a868561171d565b50835b949350505050565b610ffa611719565b6000546001600160a01b0390811691161461105c576040805162461bcd60e51b815260206004820181905260248201527f4f776e61626c653a2063616c6c6572206973206e6f7420746865206f776e6572604482015290519081900360640190fd5b6001600160a01b0381166110a15760405162461bcd60e51b81526004018080602001828103825260268152602001806138046026913960400191505060405180910390fd5b600080546040516001600160a01b03808516939216917f8be0079c531659141344cd1fd0a4f28419497f9722a3daafe3b4186f6b6457e091a3600080546001600160a01b0319166001600160a01b0392909216919091179055565b6000600384600881111561110c57fe5b14806111235750600484600881111561112157fe5b145b806111395750600784600881111561113757fe5b145b8061114f5750600884600881111561114d57fe5b145b1561115b575083610fea565b61116785858585610e9d565b95945050505050565b61117861237e565b6001546040516309648a9d60e01b81526001600160a01b03909116906309648a9d906111a8908690600401612ecb565b6102e06040518083038186803b1580156111c157600080fd5b505afa1580156111d5573d6000803e3d6000fd5b505050506040513d601f19601f820116820180604052508101906111f991906129cf565b905060008151600581111561120a57fe5b1480611222575060018151600581111561122057fe5b145b80611239575060028151600581111561123757fe5b145b6112555760405162461bcd60e51b8152600401610310906135ab565b60008151600581111561126457fe5b146112ed57600154604051631ba316dd60e11b81526001600160a01b03909116906337462dba90611299908690600401612ecb565b6102e06040518083038186803b1580156112b257600080fd5b505afa1580156112c6573d6000803e3d6000fd5b505050506040513d601f19601f820116820180604052508101906112ea91906129cf565b90505b6000806112f9846105d9565b60015460405163ecef557760e01b815292945090925042916114a39184916001600160a01b039091169063ecef557790611337908b90600401612f90565b60206040518083038186803b15801561134f57600080fd5b505afa158015611363573d6000803e3d6000fd5b505050506040513d601f19601f820116820180604052508101906113879190612b33565b60ff16600881111561139557fe5b60015460405163ecef557760e01b81526001600160a01b039091169063ecef5577906113c5908c90600401612ff8565b60206040518083038186803b1580156113dd57600080fd5b505afa1580156113f1573d6000803e3d6000fd5b505050506040513d601f19601f820116820180604052508101906114159190612b33565b60ff16600181111561142357fe5b60015460405163135b9f4d60e01b81526001600160a01b039091169063135b9f4d90611453908d90600401612fb7565b60206040518083038186803b15801561146b57600080fd5b505afa15801561147f573d6000803e3d6000fd5b505050506040513d601f19601f820116820180604052508101906102019190612675565b11156114c15760405162461bcd60e51b8152600401610310906134af565b6114c961237e565b60006114d68786886117df565b9150915060006114e7888884611a65565b9050806115eb576000865160058111156114fd57fe5b14156115685760015460405163842962d560e01b81526001600160a01b039091169063842962d590611535908b908a906004016130ee565b600060405180830381600087803b15801561154f57600080fd5b505af1158015611563573d6000803e3d6000fd5b505050505b60015460405163d981e77360e01b81526001600160a01b039091169063d981e7739061159a908b908b90600401612eeb565b600060405180830381600087803b1580156115b457600080fd5b505af11580156115c8573d6000803e3d6000fd5b5050505060006115d9600186610e7f565b90506115e68985836117df565b509350505b600154604051631d306b7f60e11b81526001600160a01b0390911690633a60d6fe9061161d908b9087906004016130ee565b600060405180830381600087803b15801561163757600080fd5b505af115801561164b573d6000803e3d6000fd5b50505050801515600114156116c15760015460405163de07a17360e01b81526001600160a01b039091169063de07a1739061168e908b908b908790600401612ef9565b600060405180830381600087803b1580156116a857600080fd5b505af11580156116bc573d6000803e3d6000fd5b505050505b877fd255be8589971f117e0e4377177282fb7cce66e378bfb1b7eafddd05e4f181e96001831515146116f45760016116f6565b865b86856040516117079392919061314e565b60405180910390a25050505050505050565b3390565b6000600182600181111561172d57fe5b14156117725761173c83611e9b565b600614156117565761174f836002611eae565b905061026a565b61175f83611e9b565b600714156117725761174f836001611eae565b5090919050565b6000611789620151808304611ec3565b509392505050565b600060018260018111156117a157fe5b1415611772576117b083611e9b565b600614156117c35761174f836001611f59565b6117cc83611e9b565b600714156117725761174f836002611f59565b6117e761237e565b60015460405163ee43eda160e01b815260009182916001600160a01b039091169063ee43eda19061181c908990600401612ecb565b60206040518083038186803b15801561183457600080fd5b505afa158015611848573d6000803e3d6000fd5b505050506040513d601f19601f8201168201806040525081019061186c91906125fc565b905061187661242d565b6001546040516335f1cded60e11b81526001600160a01b0390911690636be39bda906118a6908a90600401612ecb565b6102a06040518083038186803b1580156118bf57600080fd5b505afa1580156118d3573d6000803e3d6000fd5b505050506040513d601f19601f820116820180604052508101906118f791906128b0565b9050600080611905876105d9565b915091506000846001600160a01b03166379e7d631858b8b6119408f8961193b8a8d608001518e602001518f61012001516110fc565b611f6e565b6040518563ffffffff1660e01b815260040161195f9493929190613653565b60206040518083038186803b15801561197757600080fd5b505afa15801561198b573d6000803e3d6000fd5b505050506040513d601f19601f820116820180604052508101906119af9190612675565b9050846001600160a01b031663b5aa5a63858b8b6119e68f896119e18a8d608001518e602001518f61012001516110fc565b612168565b6040518563ffffffff1660e01b8152600401611a059493929190613653565b6102e06040518083038186803b158015611a1e57600080fd5b505afa158015611a32573d6000803e3d6000fd5b505050506040513d601f19601f82011682018060405250810190611a5691906129cf565b9a909950975050505050505050565b60008315801590611a7557508215155b611a915760405162461bcd60e51b815260040161031090613452565b81611a9e57506001611e94565b60015460405163eb01255960e01b81526000916001600160a01b03169063eb01255990611acf908890600401612f52565b60206040518083038186803b158015611ae757600080fd5b505afa158015611afb573d6000803e3d6000fd5b505050506040513d601f19601f82011682018060405250810190611b1f91906125fc565b9050611b296124af565b600154604051635e353ebb60e11b81526001600160a01b039091169063bc6a7d7690611b59908990600401612f0f565b60806040518083038186803b158015611b7157600080fd5b505afa158015611b85573d6000803e3d6000fd5b505050506040513d601f19601f82011682018060405250810190611ba991906129b4565b9050600481606001516004811115611bbd57fe5b1415611bd2578051611bce9061022c565b5091505b611bda612357565b60015460405163e50e0ef760e01b81526001600160a01b039091169063e50e0ef790611c0a908a90600401612ecb565b60806040518083038186803b158015611c2257600080fd5b505afa158015611c36573d6000803e3d6000fd5b505050506040513d601f19601f82011682018060405250810190611c5a9190612762565b90506000806000871315611c89575060408201516001600160a01b038216611c8457826020015191505b611ca2565b5081516001600160a01b038216611ca257826060015191505b6000808813611cb5578760001902611cb7565b875b905080866001600160a01b031663dd62ed3e84306040518363ffffffff1660e01b8152600401611ce8929190612e74565b60206040518083038186803b158015611d0057600080fd5b505afa158015611d14573d6000803e3d6000fd5b505050506040513d601f19601f82011682018060405250810190611d389190612675565b1080611dbf57506040516370a0823160e01b815281906001600160a01b038816906370a0823190611d6d908690600401612e60565b60206040518083038186803b158015611d8557600080fd5b505afa158015611d99573d6000803e3d6000fd5b505050506040513d601f19601f82011682018060405250810190611dbd9190612675565b105b15611e0957897f4f269a19b64cfff0bdee7fd3cdaec44e1fe38ce2ff55d3009a89fac6ecbe9f2c604051611df290613215565b60405180910390a260009650505050505050611e94565b6040516323b872dd60e01b81526001600160a01b038716906323b872dd90611e3990859087908690600401612e8e565b602060405180830381600087803b158015611e5357600080fd5b505af1158015611e67573d6000803e3d6000fd5b505050506040513d601f19601f82011682018060405250810190611e8b9190612643565b96505050505050505b9392505050565b6007620151809091046003010660010190565b62015180810282018281101561026a57600080fd5b60008080836226496581018262023ab1600483020590506004600362023ab18302010590910390600062164b09610fa0600185010205905060046105b58202058303601f019250600061098f8460500281611f1a57fe5b0590506000605061098f83020585039050600b820560301994909401606402929092018301996002600c90940290910392909201975095509350505050565b62015180810282038281111561026a57600080fd5b60015460405163eb01255960e01b815260009182916001600160a01b039091169063eb01255990611fa3908890600401612f52565b60206040518083038186803b158015611fbb57600080fd5b505afa158015611fcf573d6000803e3d6000fd5b505050506040513d601f19601f82011682018060405250810190611ff391906125fc565b60015460405163eb01255960e01b81529192506000916001600160a01b039091169063eb01255990612029908990600401612f6c565b60206040518083038186803b15801561204157600080fd5b505afa158015612055573d6000803e3d6000fd5b505050506040513d601f19601f8201168201806040525081019061207991906125fc565b9050806001600160a01b0316826001600160a01b03161461215c5760025460405160009182916001600160a01b03909116906308a4ec10906120c19087908790602001612e74565b60405160208183030381529060405280519060200120886040518363ffffffff1660e01b81526004016120f5929190612eeb565b604080518083038186803b15801561210c57600080fd5b505afa158015612120573d6000803e3d6000fd5b505050506040513d601f19601f820116820180604052508101906121449190612737565b91509150801561215957509250611e94915050565b50505b50600095945050505050565b6000601983602181111561217857fe5b141561234d576121866124af565b600154604051635e353ebb60e11b81526001600160a01b039091169063bc6a7d76906121b6908890600401613012565b60806040518083038186803b1580156121ce57600080fd5b505afa1580156121e2573d6000803e3d6000fd5b505050506040513d601f19601f8201168201806040525081019061220691906129b4565b905060038160600151600481111561221a57fe5b141561234b5780516020820151604051631392c59160e11b81526001600160a01b038216906327258b2290612253908590600401612ecb565b60206040518083038186803b15801561226b57600080fd5b505afa15801561227f573d6000803e3d6000fd5b505050506040513d601f19601f820116820180604052508101906122a39190612643565b15156001146122c45760405162461bcd60e51b81526004016103109061331c565b604051636a899b9b60e01b81526001600160a01b03821690636a899b9b906122f0908590600401612fd5565b60206040518083038186803b15801561230857600080fd5b505afa15801561231c573d6000803e3d6000fd5b505050506040513d601f19601f820116820180604052508101906123409190612675565b9350611e9492505050565b505b5060009392505050565b60408051608081018252600080825260208201819052918101829052606081019190915290565b604080516102e081019091528060008152602001600081526020016000815260200160008152602001600081526020016000815260200160008152602001600081526020016000815260200160008152602001600081526020016000815260200160008152602001600081526020016000815260200160008152602001600081526020016000815260200160008152602001600081526020016000815260200160008152602001600081525090565b604080516101e08101909152806000815260200160008152602001600081526020016000815260200160008152602001600081526020016000815260200160008152602001600081526020016000815260200160008152602001600081526020016000815260200161249d6124af565b81526020016124aa6124af565b905290565b604080516080810182526000808252602082018190529091820190815260200160006124aa565b8035610871816137a0565b8051801515811461087157600080fd5b8035610871816137b5565b8051610871816137b5565b8035610871816137c2565b8051610871816137c2565b8035610871816137cf565b8051610871816137cf565b8035610871816137e9565b8051610871816137e9565b8035610871816137f6565b8051610871816137f6565b80356022811061087157600080fd5b60006080828403121561257f578081fd5b6040516080810181811067ffffffffffffffff8211171561259c57fe5b8060405250809150825181526020830151602082015260408301516125c0816137dc565b604082015260608301516125d3816137dc565b6060919091015292915050565b6000602082840312156125f1578081fd5b8135611e94816137a0565b60006020828403121561260d578081fd5b8151611e94816137a0565b6000806040838503121561262a578081fd5b8235612635816137a0565b946020939093013593505050565b600060208284031215612654578081fd5b611e94826124e1565b60006020828403121561266e578081fd5b5035919050565b600060208284031215612686578081fd5b5051919050565b6000806040838503121561269f578182fd5b50508035926020909101359150565b6000602082840312156126bf578081fd5b8135611e94816137dc565b6000602082840312156126db578081fd5b8135611e94816137e9565b6000602082840312156126f7578081fd5b8151611e94816137f6565b600060208284031215612713578081fd5b611e948261255f565b6000806040838503121561272e578182fd5b6126358361255f565b60008060408385031215612749578182fd5b82519150612759602084016124e1565b90509250929050565b600060808284031215612773578081fd5b6040516080810181811067ffffffffffffffff8211171561279057fe5b604052825161279e816137a0565b815260208301516127ae816137a0565b602082015260408301516127c1816137a0565b604082015260608301516127d4816137a0565b60608201529392505050565b60008060008060008060008789036103408112156127fc578384fd5b6102a08082121561280b578485fd5b899850880135905067ffffffffffffffff80821115612828578485fd5b818a0191508a601f83011261283b578485fd5b813581811115612849578586fd5b8b6020808302850101111561285c578586fd5b6020830198508097505050506128756102c089016124d6565b93506128846102e089016124d6565b925061289361030089016124d6565b91506128a261032089016124d6565b905092959891949750929550565b60006102a082840312156128c2578081fd5b6128cd6101e061376f565b6128d683612554565b81526128e460208401612512565b60208201526128f56040840161253e565b604082015261290660608401612528565b6060820152612917608084016124fc565b608082015261292860a08401612512565b60a082015261293960c08401612528565b60c082015261294a60e08401612512565b60e0820152610100838101519082015261012080840151908201526101408084015190820152610160808401519082015261018080840151908201526101a06129958582860161256e565b908201526129a784610220850161256e565b6101c08201529392505050565b6000608082840312156129c5578081fd5b611e94838361256e565b60006102e08083850312156129e2578182fd5b6129eb8161376f565b90506129f683612528565b81526020838101519082015260408084015190820152606080840151908201526080808401519082015260a0808401519082015260c0808401519082015260e08084015190820152610100808401519082015261012080840151908201526101408084015190820152610160808401519082015261018080840151908201526101a080840151908201526101c080840151908201526101e08084015190820152610200808401519082015261022080840151908201526102408084015190820152610260808401519082015261028080840151908201526102a080840151908201526102c0928301519281019290925250919050565b60008060008060808587031215612b01578182fd5b843593506020850135612b13816137b5565b92506040850135612b23816137c2565b9396929550929360600135925050565b600060208284031215612b44578081fd5b815160ff81168114611e94578182fd5b60098110612b5e57fe5b9052565b60028110612b5e57fe5b60068110612b5e57fe5b600d8110612b5e57fe5b60138110612b5e57fe5b60228110612b5e57fe5b80516001600160a01b03908116835260208083015182169084015260408083015182169084015260609182015116910152565b612bd982612bd483612549565b612b80565b612be560208201612507565b612bf26020840182612b62565b50612bff60408201612533565b612c0c6040840182612b76565b50612c196060820161251d565b612c266060840182612b6c565b50612c33608082016124f1565b612c406080840182612b54565b50612c4d60a08201612507565b612c5a60a0840182612b62565b50612c6760c0820161251d565b612c7460c0840182612b6c565b50612c8160e08201612507565b612c8e60e0840182612b62565b50610100818101359083015261012080820135908301526101408082013590830152610160808201359083015261018080820135908301526101a0612cd7818401828401612cee565b50610220612ce9818401828401612cee565b505050565b80358252602081013560208301526040810135612d0a816137dc565b612d1381613793565b60408301526060810135612d26816137dc565b612d2f81613793565b806060840152505050565b80518252602081015160208301526040810151612d5681613793565b60408301526060810151612d2f81613793565b612d74828251612b6c565b6020818101519083015260408082015190830152606080820151908301526080808201519083015260a0808201519083015260c0808201519083015260e08082015190830152610100808201519083015261012080820151908301526101408082015190830152610160808201519083015261018080820151908301526101a080820151908301526101c080820151908301526101e08082015190830152610200808201519083015261022080820151908301526102408082015190830152610260808201519083015261028080820151908301526102a080820151908301526102c090810151910152565b6001600160a01b0391909116815260200190565b6001600160a01b0392831681529116602082015260400190565b6001600160a01b039384168152919092166020820152604081019190915260600190565b6001600160a01b03929092168252602082015260400190565b90815260200190565b9182526001600160a01b0316602082015260400190565b918252602082015260400190565b9283526020830191909152604082015260600190565b9081527231b7b73a3930b1ba2932b332b932b731b2af9960691b602082015260400190565b9081526b636f6e7472616374526f6c6560a01b602082015260400190565b9081526763757272656e637960c01b602082015260400190565b90815271736574746c656d656e7443757272656e637960701b602082015260400190565b90815274313ab9b4b732b9b9a230bca1b7b73b32b73a34b7b760591b602082015260400190565b9081526b6d617475726974794461746560a01b602082015260400190565b908152701b9bdd1a5bdb985b141c9a5b98da5c185b607a1b602082015260400190565b9081526731b0b632b73230b960c11b602082015260400190565b90815272636f6e74726163745265666572656e63655f3160681b602082015260400190565b838152610340810161304c6020830185612bc7565b610fea6102c0830184612b94565b60006106a08b835261306f602084018c612bc7565b61307d6102c084018b612d69565b6105a0830181905282018790526106c06001600160fb1b038811156130a0578182fd5b60208802808a838601378301019081526130be6105c0830187612b94565b6001600160a01b039485166106408301529284166106608201529216610680909201919091529695505050505050565b8281526103008101611e946020830184612d69565b606081016131118286612b80565b6001600160a01b03938416602083015291909216604090920191909152919050565b604081016131418285612b8a565b8260208301529392505050565b6060810161315c8286612b8a565b602082019390935260400152919050565b60208082526038908201527f414e4e4163746f722e696e697469616c697a653a20434f4e54524143545f545960408201527f50455f4f465f454e47494e455f554e535550504f525445440000000000000000606082015260800190565b6020808252602b908201527f426173654163746f722e70726f6772657373576974683a20464f554e445f454160408201526a149312515497d15591539560aa1b606082015260800190565b71494e53554646494349454e545f46554e445360701b815260200190565b60208082526021908201527f426173654163746f722e70726f67726573733a204e4f5f4e4558545f4556454e6040820152601560fa1b606082015260800190565b6020808252602b908201527f4345434163746f722e696e697469616c697a653a20494e56414c49445f434f4e60408201526a54524143545f524f4c455360a81b606082015260800190565b60208082526038908201527f4345434163746f722e696e697469616c697a653a20494e56414c49445f434f4e60408201527f54524143545f5245464552454e43455f315f4f424a4543540000000000000000606082015260800190565b60208082526035908201527f426173654163746f722e67657445787465726e616c44617461466f725354463a604082015274081054d4d15517d113d154d7d393d517d1561254d5605a1b606082015260800190565b6020808252602e908201527f426173654163746f722e70726f6772657373576974683a20464f554e445f554e60408201526d1111549316525391d7d15591539560921b606082015260800190565b6020808252602b908201527f426173654163746f722e70726f6772657373576974683a20554e415554484f5260408201526a24ad22a22fa9a2a72222a960a91b606082015260800190565b60208082526028908201527f426173654163746f722e70726f67726573733a2041535345545f444f45535f4e60408201526713d517d1561254d560c21b606082015260800190565b6020808252603b908201527f426173654163746f722e736574746c655061796f6666466f724576656e743a2060408201527f494e56414c49445f46554e4354494f4e5f504152414d45544552530000000000606082015260800190565b60208082526034908201527f426173654163746f722e70726f636573734576656e743a204e4558545f455645604082015273139517d393d517d6515517d4d0d211511553115160621b606082015260800190565b6020808252602b908201527f426173654163746f722e70726f6772657373576974683a20464f554e445f504560408201526a1391125391d7d15591539560aa1b606082015260800190565b60208082526038908201527f4345434163746f722e696e697469616c697a653a20494e56414c49445f434f4e60408201527f54524143545f5245464552454e43455f325f4f424a4543540000000000000000606082015260800190565b60208082526031908201527f426173654163746f722e70726f636573734576656e743a2041535345545f524560408201527041434845445f46494e414c5f535441544560781b606082015260800190565b6102a0810161026a8284612bc7565b6102e0810161361a8286612bc7565b6001600160a01b03939093166102a08201526102c00152919050565b6102c081016136458285612bc7565b826102a08301529392505050565b60006105c082019050613667828751612b80565b60208601516136796020840182612b62565b50604086015161368c6040840182612b76565b50606086015161369f6060840182612b6c565b5060808601516136b26080840182612b54565b5060a08601516136c560a0840182612b62565b5060c08601516136d860c0840182612b6c565b5060e08601516136eb60e0840182612b62565b50610100868101519083015261012080870151908301526101408087015190830152610160808701519083015261018080870151908301526101a08087015161373682850182612d3a565b50506101c086015161374c610220840182612d3a565b5061375b6102a0830186612d69565b6105808201939093526105a0015292915050565b60405181810167ffffffffffffffff8111828210171561378b57fe5b604052919050565b6005811061379d57fe5b50565b6001600160a01b038116811461379d57600080fd5b6009811061379d57600080fd5b6002811061379d57600080fd5b6006811061379d57600080fd5b6005811061379d57600080fd5b600d811061379d57600080fd5b6013811061379d57600080fdfe4f776e61626c653a206e6577206f776e657220697320746865207a65726f2061646472657373a2646970667358221220cab866755ac56d76b7fbabb74b70fa8e91709a69c289fbae1ae7688f70ec219164736f6c63430007040033",
  "linkReferences": {},
  "deployedLinkReferences": {}
}