{
  "_format": "hh-sol-artifact-1",
  "contractName": "CECActor",
  "sourceName": "contracts/Core/CEC/CECActor.sol",
  "abi": [
    {
      "inputs": [
        {
          "internalType": "contract IAssetRegistry",
          "name": "assetRegistry",
          "type": "address"
        },
        {
          "internalType": "contract IOracleProxy",
          "name": "defaultOracleProxy",
          "type": "address"
        }
      ],
      "stateMutability": "nonpayable",
      "type": "constructor"
    },
    {
      "anonymous": false,
      "inputs": [
        {
          "indexed": true,
          "internalType": "bytes32",
          "name": "assetId",
          "type": "bytes32"
        },
        {
          "indexed": false,
          "internalType": "enum ContractType",
          "name": "contractType",
          "type": "uint8"
        },
        {
          "indexed": false,
          "internalType": "address",
          "name": "creator",
          "type": "address"
        },
        {
          "indexed": false,
          "internalType": "address",
          "name": "counterparty",
          "type": "address"
        }
      ],
      "name": "InitializedAsset",
      "type": "event"
    },
    {
      "anonymous": false,
      "inputs": [
        {
          "indexed": true,
          "internalType": "address",
          "name": "previousOwner",
          "type": "address"
        },
        {
          "indexed": true,
          "internalType": "address",
          "name": "newOwner",
          "type": "address"
        }
      ],
      "name": "OwnershipTransferred",
      "type": "event"
    },
    {
      "anonymous": false,
      "inputs": [
        {
          "indexed": true,
          "internalType": "bytes32",
          "name": "assetId",
          "type": "bytes32"
        },
        {
          "indexed": false,
          "internalType": "enum EventType",
          "name": "eventType",
          "type": "uint8"
        },
        {
          "indexed": false,
          "internalType": "uint256",
          "name": "scheduleTime",
          "type": "uint256"
        },
        {
          "indexed": false,
          "internalType": "int256",
          "name": "payoff",
          "type": "int256"
        }
      ],
      "name": "ProgressedAsset",
      "type": "event"
    },
    {
      "anonymous": false,
      "inputs": [
        {
          "indexed": true,
          "internalType": "bytes32",
          "name": "assetId",
          "type": "bytes32"
        },
        {
          "indexed": false,
          "internalType": "bytes32",
          "name": "statusMessage",
          "type": "bytes32"
        }
      ],
      "name": "Status",
      "type": "event"
    },
    {
      "inputs": [],
      "name": "assetRegistry",
      "outputs": [
        {
          "internalType": "contract IAssetRegistry",
          "name": "",
          "type": "address"
        }
      ],
      "stateMutability": "view",
      "type": "function"
    },
    {
      "inputs": [
        {
          "internalType": "bytes32",
          "name": "object",
          "type": "bytes32"
        }
      ],
      "name": "decodeCollateralObject",
      "outputs": [
        {
          "internalType": "address",
          "name": "",
          "type": "address"
        },
        {
          "internalType": "uint256",
          "name": "",
          "type": "uint256"
        }
      ],
      "stateMutability": "pure",
      "type": "function"
    },
    {
      "inputs": [
        {
          "internalType": "bytes32",
          "name": "_event",
          "type": "bytes32"
        }
      ],
      "name": "decodeEvent",
      "outputs": [
        {
          "internalType": "enum EventType",
          "name": "",
          "type": "uint8"
        },
        {
          "internalType": "uint256",
          "name": "",
          "type": "uint256"
        }
      ],
      "stateMutability": "pure",
      "type": "function"
    },
    {
      "inputs": [],
      "name": "defaultOracleProxy",
      "outputs": [
        {
          "internalType": "contract IOracleProxy",
          "name": "",
          "type": "address"
        }
      ],
      "stateMutability": "view",
      "type": "function"
    },
    {
      "inputs": [
        {
          "internalType": "address",
          "name": "collateralToken",
          "type": "address"
        },
        {
          "internalType": "uint256",
          "name": "collateralAmount",
          "type": "uint256"
        }
      ],
      "name": "encodeCollateralAsObject",
      "outputs": [
        {
          "internalType": "bytes32",
          "name": "",
          "type": "bytes32"
        }
      ],
      "stateMutability": "pure",
      "type": "function"
    },
    {
      "inputs": [
        {
          "internalType": "enum EventType",
          "name": "eventType",
          "type": "uint8"
        },
        {
          "internalType": "uint256",
          "name": "scheduleTime",
          "type": "uint256"
        }
      ],
      "name": "encodeEvent",
      "outputs": [
        {
          "internalType": "bytes32",
          "name": "",
          "type": "bytes32"
        }
      ],
      "stateMutability": "pure",
      "type": "function"
    },
    {
      "inputs": [
        {
          "internalType": "enum EventType",
          "name": "eventType",
          "type": "uint8"
        }
      ],
      "name": "getEpochOffset",
      "outputs": [
        {
          "internalType": "uint256",
          "name": "",
          "type": "uint256"
        }
      ],
      "stateMutability": "pure",
      "type": "function"
    },
    {
      "inputs": [
        {
          "components": [
            {
              "internalType": "enum ContractType",
              "name": "contractType",
              "type": "uint8"
            },
            {
              "internalType": "enum Calendar",
              "name": "calendar",
              "type": "uint8"
            },
            {
              "internalType": "enum ContractRole",
              "name": "contractRole",
              "type": "uint8"
            },
            {
              "internalType": "enum DayCountConvention",
              "name": "dayCountConvention",
              "type": "uint8"
            },
            {
              "internalType": "enum BusinessDayConvention",
              "name": "businessDayConvention",
              "type": "uint8"
            },
            {
              "internalType": "enum EndOfMonthConvention",
              "name": "endOfMonthConvention",
              "type": "uint8"
            },
            {
              "internalType": "enum ContractPerformance",
              "name": "creditEventTypeCovered",
              "type": "uint8"
            },
            {
              "internalType": "enum FeeBasis",
              "name": "feeBasis",
              "type": "uint8"
            },
            {
              "internalType": "uint256",
              "name": "statusDate",
              "type": "uint256"
            },
            {
              "internalType": "uint256",
              "name": "maturityDate",
              "type": "uint256"
            },
            {
              "internalType": "int256",
              "name": "notionalPrincipal",
              "type": "int256"
            },
            {
              "internalType": "int256",
              "name": "feeRate",
              "type": "int256"
            },
            {
              "internalType": "int256",
              "name": "coverageOfCreditEnhancement",
              "type": "int256"
            },
            {
              "components": [
                {
                  "internalType": "bytes32",
                  "name": "object",
                  "type": "bytes32"
                },
                {
                  "internalType": "bytes32",
                  "name": "object2",
                  "type": "bytes32"
                },
                {
                  "internalType": "enum ContractReferenceType",
                  "name": "_type",
                  "type": "uint8"
                },
                {
                  "internalType": "enum ContractReferenceRole",
                  "name": "role",
                  "type": "uint8"
                }
              ],
              "internalType": "struct ContractReference",
              "name": "contractReference_1",
              "type": "tuple"
            },
            {
              "components": [
                {
                  "internalType": "bytes32",
                  "name": "object",
                  "type": "bytes32"
                },
                {
                  "internalType": "bytes32",
                  "name": "object2",
                  "type": "bytes32"
                },
                {
                  "internalType": "enum ContractReferenceType",
                  "name": "_type",
                  "type": "uint8"
                },
                {
                  "internalType": "enum ContractReferenceRole",
                  "name": "role",
                  "type": "uint8"
                }
              ],
              "internalType": "struct ContractReference",
              "name": "contractReference_2",
              "type": "tuple"
            }
          ],
          "internalType": "struct CECTerms",
          "name": "terms",
          "type": "tuple"
        },
        {
          "internalType": "bytes32[]",
          "name": "schedule",
          "type": "bytes32[]"
        },
        {
          "internalType": "address",
          "name": "engine",
          "type": "address"
        },
        {
          "internalType": "address",
          "name": "admin",
          "type": "address"
        },
        {
          "internalType": "address",
          "name": "custodian",
          "type": "address"
        },
        {
          "internalType": "address",
          "name": "underlyingRegistry",
          "type": "address"
        }
      ],
      "name": "initialize",
      "outputs": [],
      "stateMutability": "nonpayable",
      "type": "function"
    },
    {
      "inputs": [],
      "name": "owner",
      "outputs": [
        {
          "internalType": "address",
          "name": "",
          "type": "address"
        }
      ],
      "stateMutability": "view",
      "type": "function"
    },
    {
      "inputs": [
        {
          "internalType": "bytes32",
          "name": "assetId",
          "type": "bytes32"
        }
      ],
      "name": "progress",
      "outputs": [],
      "stateMutability": "nonpayable",
      "type": "function"
    },
    {
      "inputs": [
        {
          "internalType": "bytes32",
          "name": "assetId",
          "type": "bytes32"
        },
        {
          "internalType": "bytes32",
          "name": "_event",
          "type": "bytes32"
        }
      ],
      "name": "progressWith",
      "outputs": [],
      "stateMutability": "nonpayable",
      "type": "function"
    },
    {
      "inputs": [],
      "name": "renounceOwnership",
      "outputs": [],
      "stateMutability": "nonpayable",
      "type": "function"
    },
    {
      "inputs": [
        {
          "internalType": "uint256",
          "name": "timestamp",
          "type": "uint256"
        },
        {
          "internalType": "enum BusinessDayConvention",
          "name": "convention",
          "type": "uint8"
        },
        {
          "internalType": "enum Calendar",
          "name": "calendar",
          "type": "uint8"
        },
        {
          "internalType": "uint256",
          "name": "maturityDate",
          "type": "uint256"
        }
      ],
      "name": "shiftCalcTime",
      "outputs": [
        {
          "internalType": "uint256",
          "name": "",
          "type": "uint256"
        }
      ],
      "stateMutability": "pure",
      "type": "function"
    },
    {
      "inputs": [
        {
          "internalType": "uint256",
          "name": "timestamp",
          "type": "uint256"
        },
        {
          "internalType": "enum BusinessDayConvention",
          "name": "convention",
          "type": "uint8"
        },
        {
          "internalType": "enum Calendar",
          "name": "calendar",
          "type": "uint8"
        },
        {
          "internalType": "uint256",
          "name": "maturityDate",
          "type": "uint256"
        }
      ],
      "name": "shiftEventTime",
      "outputs": [
        {
          "internalType": "uint256",
          "name": "",
          "type": "uint256"
        }
      ],
      "stateMutability": "pure",
      "type": "function"
    },
    {
      "inputs": [
        {
          "internalType": "address",
          "name": "newOwner",
          "type": "address"
        }
      ],
      "name": "transferOwnership",
      "outputs": [],
      "stateMutability": "nonpayable",
      "type": "function"
    }
  ],
  "bytecode": "0x60806040523480156200001157600080fd5b5060405162003b0a38038062003b0a8339810160408190526200003491620000c9565b8181600062000042620000c5565b600080546001600160a01b0319166001600160a01b0383169081178255604051929350917f8be0079c531659141344cd1fd0a4f28419497f9722a3daafe3b4186f6b6457e0908290a35060018055600280546001600160a01b039384166001600160a01b0319918216179091556003805492909316911617905550620001209050565b3390565b60008060408385031215620000dc578182fd5b8251620000e98162000107565b6020840151909250620000fc8162000107565b809150509250929050565b6001600160a01b03811681146200011d57600080fd5b50565b6139da80620001306000396000f3fe608060405234801561001057600080fd5b50600436106100f55760003560e01c80638da5cb5b11610097578063e05a66e011610066578063e05a66e0146101e0578063e726d680146101f3578063f2fde38b14610206578063f5586e0514610219576100f5565b80638da5cb5b146101a8578063979d7e86146101bd57806398172dd8146101c5578063d56a1ddf146101cd576100f5565b8063715018a6116100d3578063715018a61461015957806372540003146101615780637aebd2a814610182578063811322fb14610195576100f5565b8063645a26bd146100fa5780636778e0e9146101245780636b6ba66414610144575b600080fd5b61010d6101083660046127e1565b61022c565b60405161011b92919061302d565b60405180910390f35b61013761013236600461279c565b610245565b60405161011b9190613046565b610157610152366004612811565b610270565b005b610157610525565b61017461016f3660046127e1565b6105d9565b60405161011b9291906132ae565b6101576101903660046127e1565b610602565b6101376101a3366004612886565b610983565b6101b0610999565b60405161011b9190612fdb565b6101b06109a8565b6101b06109b7565b6101576101db366004612964565b6109c6565b6101376101ee3660046128a0565b610fa2565b610137610201366004612c70565b610fc0565b610157610214366004612764565b611115565b610137610227366004612c70565b61121f565b606081901c6bffffffffffffffffffffffff8216915091565b6bffffffffffffffffffffffff19606083901b166bffffffffffffffffffffffff8216175b92915050565b60025460405163747be51f60e11b81526001600160a01b039091169063e8f7ca3e906102a2908590339060040161304f565b602060405180830381600087803b1580156102bc57600080fd5b505af11580156102d0573d6000803e3d6000fd5b505050506040513d601f19601f820116820180604052508101906102f491906127c7565b6103195760405162461bcd60e51b81526004016103109061353a565b60405180910390fd5b60025460405163f52f84e160e01b81526000916001600160a01b03169063f52f84e19061034a908690600401613046565b60206040518083038186803b15801561036257600080fd5b505afa158015610376573d6000803e3d6000fd5b505050506040513d601f19601f8201168201806040525081019061039a91906127f9565b146103b75760405162461bcd60e51b81526004016103109061367e565b600254604051631d7a1ab960e21b81526000916001600160a01b0316906375e86ae4906103e8908690600401613046565b60206040518083038186803b15801561040057600080fd5b505afa158015610414573d6000803e3d6000fd5b505050506040513d601f19601f8201168201806040525081019061043891906127f9565b146104555760405162461bcd60e51b8152600401610310906134ec565b60025460405163b828204160e01b81526000916104dc916001600160a01b039091169063b82820419061048c908790600401613046565b60206040518083038186803b1580156104a457600080fd5b505afa1580156104b8573d6000803e3d6000fd5b505050506040513d601f19601f8201168201806040525081019061016f91906127f9565b91505060006104ea836105d9565b9150508115806104f957508181105b6105155760405162461bcd60e51b815260040161031090613345565b61051f8484611293565b50505050565b61052d61189d565b6000546001600160a01b0390811691161461058f576040805162461bcd60e51b815260206004820181905260248201527f4f776e61626c653a2063616c6c6572206973206e6f7420746865206f776e6572604482015290519081900360640190fd5b600080546040516001600160a01b03909116907f8be0079c531659141344cd1fd0a4f28419497f9722a3daafe3b4186f6b6457e0908390a3600080546001600160a01b0319169055565b6000808060f884901c60218111156105ed57fe5b92505067ffffffffffffffff83169050915091565b600254604051631392c59160e11b81526001600160a01b03909116906327258b2290610632908490600401613046565b60206040518083038186803b15801561064a57600080fd5b505afa15801561065e573d6000803e3d6000fd5b505050506040513d601f19601f8201168201806040525081019061068291906127c7565b61069e5760405162461bcd60e51b815260040161031090613585565b60025460405163c139626b60e01b81526000916001600160a01b03169063c139626b906106cf908590600401613046565b60206040518083038186803b1580156106e757600080fd5b505afa1580156106fb573d6000803e3d6000fd5b505050506040513d601f19601f8201168201806040525081019061071f9190612780565b600254604051630316dd6960e21b81529192506000916001600160a01b0390911690630c5b75a490610755908690600401613046565b602060405180830381600087803b15801561076f57600080fd5b505af1158015610783573d6000803e3d6000fd5b505050506040513d601f19601f820116820180604052508101906107a791906127f9565b90508061083157600254604051631d7a1ab960e21b81526001600160a01b03909116906375e86ae4906107de908690600401613046565b60206040518083038186803b1580156107f657600080fd5b505afa15801561080a573d6000803e3d6000fd5b505050506040513d601f19601f8201168201806040525081019061082e91906127f9565b90505b8015801561084757506001600160a01b03821615155b156108cd5760405163019ad70360e41b81526001600160a01b038316906319ad703090610878908690600401613046565b602060405180830381600087803b15801561089257600080fd5b505af11580156108a6573d6000803e3d6000fd5b505050506040513d601f19601f820116820180604052508101906108ca91906127f9565b90505b80610957576002546040516361db73e160e11b81526001600160a01b039091169063c3b6e7c290610902908690600401613046565b602060405180830381600087803b15801561091c57600080fd5b505af1158015610930573d6000803e3d6000fd5b505050506040513d601f19601f8201168201806040525081019061095491906127f9565b90505b806109745760405162461bcd60e51b8152600401610310906133ae565b61097e8382611293565b505050565b600081602181111561099157fe5b90505b919050565b6000546001600160a01b031690565b6002546001600160a01b031681565b6003546001600160a01b031681565b6001600160a01b03841615801590610a5957506011846001600160a01b031663cb2ef6f76040518163ffffffff1660e01b815260040160206040518083038186803b158015610a1457600080fd5b505afa158015610a28573d6000803e3d6000fd5b505050506040513d601f19601f82011682018060405250810190610a4c919061286a565b6012811115610a5757fe5b145b610a755760405162461bcd60e51b8152600401610310906132e8565b60008742604051602001610a8a9291906137b1565b604051602081830303815290604052805190602001209050610aaa6124db565b6003610abe6102208b016102008c01612832565b6004811115610ac957fe5b1415610af1576101a0890135610af15760405162461bcd60e51b81526004016103109061343a565b6004610b056102a08b016102808c01612832565b6004811115610b1057fe5b1415610e4757610220890135610b385760405162461bcd60e51b8152600401610310906136c9565b888442604051602001610b4d93929190613786565b60408051601f1981840301815290829052805160209091012060025463ecef557760e01b83529093506101a08b0135916000916001600160a01b03169063ecef557790610b9e9085906004016130af565b60206040518083038186803b158015610bb657600080fd5b505afa158015610bca573d6000803e3d6000fd5b505050506040513d601f19601f82011682018060405250810190610bee9190612cb7565b60ff16600c811115610bfc57fe5b9050610c066124db565b60405163e50e0ef760e01b81526001600160a01b0387169063e50e0ef790610c32908690600401613046565b60806040518083038186803b158015610c4a57600080fd5b505afa158015610c5e573d6000803e3d6000fd5b505050506040513d601f19601f82011682018060405250810190610c8291906128e6565b90506006610c9660608e0160408f0161284e565b600c811115610ca157fe5b148015610cb95750600082600c811115610cb757fe5b145b15610d1657604051806080016040528082600001516001600160a01b0316815260200182602001516001600160a01b03168152602001886001600160a01b0316815260200182606001516001600160a01b03168152509350610dc0565b6007610d2860608e0160408f0161284e565b600c811115610d3357fe5b148015610d4b5750600182600c811115610d4957fe5b145b15610da8576040518060800160405280886001600160a01b0316815260200182602001516001600160a01b0316815260200182604001516001600160a01b0316815260200182606001516001600160a01b03168152509350610dc0565b60405162461bcd60e51b8152600401610310906133ef565b866001600160a01b031663f1acef64868e876040518463ffffffff1660e01b8152600401610df0939291906131b2565b602060405180830381600087803b158015610e0a57600080fd5b505af1158015610e1e573d6000803e3d6000fd5b505050506040513d601f19601f82011682018060405250810190610e4291906127c7565b505050505b610e4f612502565b604051632630a7a960e21b81526001600160a01b038816906398c29ea490610e7b908d90600401613777565b6102e06040518083038186803b158015610e9457600080fd5b505afa158015610ea8573d6000803e3d6000fd5b505050506040513d601f19601f82011682018060405250810190610ecc9190612b53565b9050600260009054906101000a90046001600160a01b03166001600160a01b031663b28da666848c848d8d888e308f6040518a63ffffffff1660e01b8152600401610f1f999897969594939291906131d5565b600060405180830381600087803b158015610f3957600080fd5b505af1158015610f4d573d6000803e3d6000fd5b50505050827fc5df678b84aa92f5f59981df8c9997b366d886de25771c5f753015c2e14e907a601184600001518560400151604051610f8e9392919061327e565b60405180910390a250505050505050505050565b60008160f8846021811115610fb357fe5b60ff16901b179392505050565b600081851415610fd157508361110d565b6001846008811115610fdf57fe5b1480610ff657506003846008811115610ff457fe5b145b1561100c5761100585846118a1565b905061110d565b600284600881111561101a57fe5b14806110315750600484600881111561102f57fe5b145b1561107557600061104286856118a1565b905061104d866118fd565b611056826118fd565b141561106357905061110d565b61106d8685611915565b91505061110d565b600584600881111561108357fe5b148061109a5750600784600881111561109857fe5b145b156110a9576110058584611915565b60068460088111156110b757fe5b14806110ce575060088460088111156110cc57fe5b145b1561110a5760006110df8685611915565b90506110ea866118fd565b6110f3826118fd565b141561110057905061110d565b61106d86856118a1565b50835b949350505050565b61111d61189d565b6000546001600160a01b0390811691161461117f576040805162461bcd60e51b815260206004820181905260248201527f4f776e61626c653a2063616c6c6572206973206e6f7420746865206f776e6572604482015290519081900360640190fd5b6001600160a01b0381166111c45760405162461bcd60e51b815260040180806020018281038252602681526020018061397f6026913960400191505060405180910390fd5b600080546040516001600160a01b03808516939216917f8be0079c531659141344cd1fd0a4f28419497f9722a3daafe3b4186f6b6457e091a3600080546001600160a01b0319166001600160a01b0392909216919091179055565b6000600384600881111561122f57fe5b14806112465750600484600881111561124457fe5b145b8061125c5750600784600881111561125a57fe5b145b806112725750600884600881111561127057fe5b145b1561127e57508361110d565b61128a85858585610fc0565b95945050505050565b600260015414156112eb576040805162461bcd60e51b815260206004820152601f60248201527f5265656e7472616e637947756172643a207265656e7472616e742063616c6c00604482015290519081900360640190fd5b60026001556112f8612502565b6002546040516309648a9d60e01b81526001600160a01b03909116906309648a9d90611328908690600401613046565b6102e06040518083038186803b15801561134157600080fd5b505afa158015611355573d6000803e3d6000fd5b505050506040513d601f19601f820116820180604052508101906113799190612b53565b905060008151600581111561138a57fe5b14806113a257506001815160058111156113a057fe5b145b806113b957506002815160058111156113b757fe5b145b6113d55760405162461bcd60e51b815260040161031090613726565b6000815160058111156113e457fe5b1461146d57600254604051631ba316dd60e11b81526001600160a01b03909116906337462dba90611419908690600401613046565b6102e06040518083038186803b15801561143257600080fd5b505afa158015611446573d6000803e3d6000fd5b505050506040513d601f19601f8201168201806040525081019061146a9190612b53565b90505b600080611479846105d9565b60025460405163ecef557760e01b815292945090925042916116239184916001600160a01b039091169063ecef5577906114b7908b9060040161310b565b60206040518083038186803b1580156114cf57600080fd5b505afa1580156114e3573d6000803e3d6000fd5b505050506040513d601f19601f820116820180604052508101906115079190612cb7565b60ff16600881111561151557fe5b60025460405163ecef557760e01b81526001600160a01b039091169063ecef557790611545908c90600401613173565b60206040518083038186803b15801561155d57600080fd5b505afa158015611571573d6000803e3d6000fd5b505050506040513d601f19601f820116820180604052508101906115959190612cb7565b60ff1660018111156115a357fe5b60025460405163135b9f4d60e01b81526001600160a01b039091169063135b9f4d906115d3908d90600401613132565b60206040518083038186803b1580156115eb57600080fd5b505afa1580156115ff573d6000803e3d6000fd5b505050506040513d601f19601f8201168201806040525081019061020191906127f9565b11156116415760405162461bcd60e51b81526004016103109061362a565b611649612502565b6000611656878688611963565b915091506000611667888884611be9565b90508061176b5760008651600581111561167d57fe5b14156116e85760025460405163842962d560e01b81526001600160a01b039091169063842962d5906116b5908b908a90600401613269565b600060405180830381600087803b1580156116cf57600080fd5b505af11580156116e3573d6000803e3d6000fd5b505050505b60025460405163d981e77360e01b81526001600160a01b039091169063d981e7739061171a908b908b90600401613066565b600060405180830381600087803b15801561173457600080fd5b505af1158015611748573d6000803e3d6000fd5b505050506000611759600186610fa2565b9050611766898583611963565b509350505b600254604051631d306b7f60e11b81526001600160a01b0390911690633a60d6fe9061179d908b908790600401613269565b600060405180830381600087803b1580156117b757600080fd5b505af11580156117cb573d6000803e3d6000fd5b50505050801515600114156118415760025460405163de07a17360e01b81526001600160a01b039091169063de07a1739061180e908b908b908790600401613074565b600060405180830381600087803b15801561182857600080fd5b505af115801561183c573d6000803e3d6000fd5b505050505b877fd255be8589971f117e0e4377177282fb7cce66e378bfb1b7eafddd05e4f181e9600183151514611874576001611876565b865b8685604051611887939291906132c9565b60405180910390a2505060018055505050505050565b3390565b600060018260018111156118b157fe5b14156118f6576118c08361201f565b600614156118da576118d3836002612032565b905061026a565b6118e38361201f565b600714156118f6576118d3836001612032565b5090919050565b600061190d620151808304612047565b509392505050565b6000600182600181111561192557fe5b14156118f6576119348361201f565b60061415611947576118d38360016120dd565b6119508361201f565b600714156118f6576118d38360026120dd565b61196b612502565b60025460405163ee43eda160e01b815260009182916001600160a01b039091169063ee43eda1906119a0908990600401613046565b60206040518083038186803b1580156119b857600080fd5b505afa1580156119cc573d6000803e3d6000fd5b505050506040513d601f19601f820116820180604052508101906119f09190612780565b90506119fa6125b1565b6002546040516335f1cded60e11b81526001600160a01b0390911690636be39bda90611a2a908a90600401613046565b6102a06040518083038186803b158015611a4357600080fd5b505afa158015611a57573d6000803e3d6000fd5b505050506040513d601f19601f82011682018060405250810190611a7b9190612a34565b9050600080611a89876105d9565b915091506000846001600160a01b03166379e7d631858b8b611ac48f89611abf8a8d608001518e602001518f610120015161121f565b6120f2565b6040518563ffffffff1660e01b8152600401611ae394939291906137ce565b60206040518083038186803b158015611afb57600080fd5b505afa158015611b0f573d6000803e3d6000fd5b505050506040513d601f19601f82011682018060405250810190611b3391906127f9565b9050846001600160a01b031663b5aa5a63858b8b611b6a8f89611b658a8d608001518e602001518f610120015161121f565b6122ec565b6040518563ffffffff1660e01b8152600401611b8994939291906137ce565b6102e06040518083038186803b158015611ba257600080fd5b505afa158015611bb6573d6000803e3d6000fd5b505050506040513d601f19601f82011682018060405250810190611bda9190612b53565b9a909950975050505050505050565b60008315801590611bf957508215155b611c155760405162461bcd60e51b8152600401610310906135cd565b81611c2257506001612018565b60025460405163eb01255960e01b81526000916001600160a01b03169063eb01255990611c539088906004016130cd565b60206040518083038186803b158015611c6b57600080fd5b505afa158015611c7f573d6000803e3d6000fd5b505050506040513d601f19601f82011682018060405250810190611ca39190612780565b9050611cad612633565b600254604051635e353ebb60e11b81526001600160a01b039091169063bc6a7d7690611cdd90899060040161308a565b60806040518083038186803b158015611cf557600080fd5b505afa158015611d09573d6000803e3d6000fd5b505050506040513d601f19601f82011682018060405250810190611d2d9190612b38565b9050600481606001516004811115611d4157fe5b1415611d56578051611d529061022c565b5091505b611d5e6124db565b60025460405163e50e0ef760e01b81526001600160a01b039091169063e50e0ef790611d8e908a90600401613046565b60806040518083038186803b158015611da657600080fd5b505afa158015611dba573d6000803e3d6000fd5b505050506040513d601f19601f82011682018060405250810190611dde91906128e6565b90506000806000871315611e0d575060408201516001600160a01b038216611e0857826020015191505b611e26565b5081516001600160a01b038216611e2657826060015191505b6000808813611e39578760001902611e3b565b875b905080866001600160a01b031663dd62ed3e84306040518363ffffffff1660e01b8152600401611e6c929190612fef565b60206040518083038186803b158015611e8457600080fd5b505afa158015611e98573d6000803e3d6000fd5b505050506040513d601f19601f82011682018060405250810190611ebc91906127f9565b1080611f4357506040516370a0823160e01b815281906001600160a01b038816906370a0823190611ef1908690600401612fdb565b60206040518083038186803b158015611f0957600080fd5b505afa158015611f1d573d6000803e3d6000fd5b505050506040513d601f19601f82011682018060405250810190611f4191906127f9565b105b15611f8d57897f4f269a19b64cfff0bdee7fd3cdaec44e1fe38ce2ff55d3009a89fac6ecbe9f2c604051611f7690613390565b60405180910390a260009650505050505050612018565b6040516323b872dd60e01b81526001600160a01b038716906323b872dd90611fbd90859087908690600401613009565b602060405180830381600087803b158015611fd757600080fd5b505af1158015611feb573d6000803e3d6000fd5b505050506040513d601f19601f8201168201806040525081019061200f91906127c7565b96505050505050505b9392505050565b6007620151809091046003010660010190565b62015180810282018281101561026a57600080fd5b60008080836226496581018262023ab1600483020590506004600362023ab18302010590910390600062164b09610fa0600185010205905060046105b58202058303601f019250600061098f846050028161209e57fe5b0590506000605061098f83020585039050600b820560301994909401606402929092018301996002600c90940290910392909201975095509350505050565b62015180810282038281111561026a57600080fd5b60025460405163eb01255960e01b815260009182916001600160a01b039091169063eb012559906121279088906004016130cd565b60206040518083038186803b15801561213f57600080fd5b505afa158015612153573d6000803e3d6000fd5b505050506040513d601f19601f820116820180604052508101906121779190612780565b60025460405163eb01255960e01b81529192506000916001600160a01b039091169063eb012559906121ad9089906004016130e7565b60206040518083038186803b1580156121c557600080fd5b505afa1580156121d9573d6000803e3d6000fd5b505050506040513d601f19601f820116820180604052508101906121fd9190612780565b9050806001600160a01b0316826001600160a01b0316146122e05760035460405160009182916001600160a01b03909116906308a4ec10906122459087908790602001612fef565b60405160208183030381529060405280519060200120886040518363ffffffff1660e01b8152600401612279929190613066565b604080518083038186803b15801561229057600080fd5b505afa1580156122a4573d6000803e3d6000fd5b505050506040513d601f19601f820116820180604052508101906122c891906128bb565b9150915080156122dd57509250612018915050565b50505b50600095945050505050565b600060198360218111156122fc57fe5b14156124d15761230a612633565b600254604051635e353ebb60e11b81526001600160a01b039091169063bc6a7d769061233a90889060040161318d565b60806040518083038186803b15801561235257600080fd5b505afa158015612366573d6000803e3d6000fd5b505050506040513d601f19601f8201168201806040525081019061238a9190612b38565b905060038160600151600481111561239e57fe5b14156124cf5780516020820151604051631392c59160e11b81526001600160a01b038216906327258b22906123d7908590600401613046565b60206040518083038186803b1580156123ef57600080fd5b505afa158015612403573d6000803e3d6000fd5b505050506040513d601f19601f8201168201806040525081019061242791906127c7565b15156001146124485760405162461bcd60e51b815260040161031090613497565b604051636a899b9b60e01b81526001600160a01b03821690636a899b9b90612474908590600401613150565b60206040518083038186803b15801561248c57600080fd5b505afa1580156124a0573d6000803e3d6000fd5b505050506040513d601f19601f820116820180604052508101906124c491906127f9565b935061201892505050565b505b5060009392505050565b60408051608081018252600080825260208201819052918101829052606081019190915290565b604080516102e081019091528060008152602001600081526020016000815260200160008152602001600081526020016000815260200160008152602001600081526020016000815260200160008152602001600081526020016000815260200160008152602001600081526020016000815260200160008152602001600081526020016000815260200160008152602001600081526020016000815260200160008152602001600081525090565b604080516101e081019091528060008152602001600081526020016000815260200160008152602001600081526020016000815260200160008152602001600081526020016000815260200160008152602001600081526020016000815260200160008152602001612621612633565b815260200161262e612633565b905290565b6040805160808101825260008082526020820181905290918201908152602001600061262e565b80356109948161391b565b8051801515811461099457600080fd5b803561099481613930565b805161099481613930565b80356109948161393d565b80516109948161393d565b80356109948161394a565b80516109948161394a565b803561099481613964565b805161099481613964565b803561099481613971565b805161099481613971565b80356022811061099457600080fd5b600060808284031215612703578081fd5b6040516080810181811067ffffffffffffffff8211171561272057fe5b80604052508091508251815260208301516020820152604083015161274481613957565b6040820152606083015161275781613957565b6060919091015292915050565b600060208284031215612775578081fd5b81356120188161391b565b600060208284031215612791578081fd5b81516120188161391b565b600080604083850312156127ae578081fd5b82356127b98161391b565b946020939093013593505050565b6000602082840312156127d8578081fd5b61201882612665565b6000602082840312156127f2578081fd5b5035919050565b60006020828403121561280a578081fd5b5051919050565b60008060408385031215612823578182fd5b50508035926020909101359150565b600060208284031215612843578081fd5b813561201881613957565b60006020828403121561285f578081fd5b813561201881613964565b60006020828403121561287b578081fd5b815161201881613971565b600060208284031215612897578081fd5b612018826126e3565b600080604083850312156128b2578182fd5b6127b9836126e3565b600080604083850312156128cd578182fd5b825191506128dd60208401612665565b90509250929050565b6000608082840312156128f7578081fd5b6040516080810181811067ffffffffffffffff8211171561291457fe5b60405282516129228161391b565b815260208301516129328161391b565b602082015260408301516129458161391b565b604082015260608301516129588161391b565b60608201529392505050565b6000806000806000806000878903610340811215612980578384fd5b6102a08082121561298f578485fd5b899850880135905067ffffffffffffffff808211156129ac578485fd5b818a0191508a601f8301126129bf578485fd5b8135818111156129cd578586fd5b8b602080830285010111156129e0578586fd5b6020830198508097505050506129f96102c0890161265a565b9350612a086102e0890161265a565b9250612a17610300890161265a565b9150612a26610320890161265a565b905092959891949750929550565b60006102a08284031215612a46578081fd5b612a516101e06138ea565b612a5a836126d8565b8152612a6860208401612696565b6020820152612a79604084016126c2565b6040820152612a8a606084016126ac565b6060820152612a9b60808401612680565b6080820152612aac60a08401612696565b60a0820152612abd60c084016126ac565b60c0820152612ace60e08401612696565b60e0820152610100838101519082015261012080840151908201526101408084015190820152610160808401519082015261018080840151908201526101a0612b19858286016126f2565b90820152612b2b8461022085016126f2565b6101c08201529392505050565b600060808284031215612b49578081fd5b61201883836126f2565b60006102e0808385031215612b66578182fd5b612b6f816138ea565b9050612b7a836126ac565b81526020838101519082015260408084015190820152606080840151908201526080808401519082015260a0808401519082015260c0808401519082015260e08084015190820152610100808401519082015261012080840151908201526101408084015190820152610160808401519082015261018080840151908201526101a080840151908201526101c080840151908201526101e08084015190820152610200808401519082015261022080840151908201526102408084015190820152610260808401519082015261028080840151908201526102a080840151908201526102c0928301519281019290925250919050565b60008060008060808587031215612c85578182fd5b843593506020850135612c9781613930565b92506040850135612ca78161393d565b9396929550929360600135925050565b600060208284031215612cc8578081fd5b815160ff81168114612018578182fd5b60098110612ce257fe5b9052565b60028110612ce257fe5b60068110612ce257fe5b600d8110612ce257fe5b60138110612ce257fe5b60228110612ce257fe5b80516001600160a01b03908116835260208083015182169084015260408083015182169084015260609182015116910152565b612d5d82612d58836126cd565b612d04565b612d696020820161268b565b612d766020840182612ce6565b50612d83604082016126b7565b612d906040840182612cfa565b50612d9d606082016126a1565b612daa6060840182612cf0565b50612db760808201612675565b612dc46080840182612cd8565b50612dd160a0820161268b565b612dde60a0840182612ce6565b50612deb60c082016126a1565b612df860c0840182612cf0565b50612e0560e0820161268b565b612e1260e0840182612ce6565b50610100818101359083015261012080820135908301526101408082013590830152610160808201359083015261018080820135908301526101a0612e5b818401828401612e69565b5061022061097e8184018284015b80358252602081013560208301526040810135612e8581613957565b612e8e8161390e565b60408301526060810135612ea181613957565b612eaa8161390e565b806060840152505050565b80518252602081015160208301526040810151612ed18161390e565b60408301526060810151612eaa8161390e565b612eef828251612cf0565b6020818101519083015260408082015190830152606080820151908301526080808201519083015260a0808201519083015260c0808201519083015260e08082015190830152610100808201519083015261012080820151908301526101408082015190830152610160808201519083015261018080820151908301526101a080820151908301526101c080820151908301526101e08082015190830152610200808201519083015261022080820151908301526102408082015190830152610260808201519083015261028080820151908301526102a080820151908301526102c090810151910152565b6001600160a01b0391909116815260200190565b6001600160a01b0392831681529116602082015260400190565b6001600160a01b039384168152919092166020820152604081019190915260600190565b6001600160a01b03929092168252602082015260400190565b90815260200190565b9182526001600160a01b0316602082015260400190565b918252602082015260400190565b9283526020830191909152604082015260600190565b9081527231b7b73a3930b1ba2932b332b932b731b2af9960691b602082015260400190565b9081526b636f6e7472616374526f6c6560a01b602082015260400190565b9081526763757272656e637960c01b602082015260400190565b90815271736574746c656d656e7443757272656e637960701b602082015260400190565b90815274313ab9b4b732b9b9a230bca1b7b73b32b73a34b7b760591b602082015260400190565b9081526b6d617475726974794461746560a01b602082015260400190565b908152701b9bdd1a5bdb985b141c9a5b98da5c185b607a1b602082015260400190565b9081526731b0b632b73230b960c11b602082015260400190565b90815272636f6e74726163745265666572656e63655f3160681b602082015260400190565b83815261034081016131c76020830185612d4b565b61110d6102c0830184612d18565b60006106a08b83526131ea602084018c612d4b565b6131f86102c084018b612ee4565b6105a0830181905282018790526106c06001600160fb1b0388111561321b578182fd5b60208802808a838601378301019081526132396105c0830187612d18565b6001600160a01b039485166106408301529284166106608201529216610680909201919091529695505050505050565b82815261030081016120186020830184612ee4565b6060810161328c8286612d04565b6001600160a01b03938416602083015291909216604090920191909152919050565b604081016132bc8285612d0e565b8260208301529392505050565b606081016132d78286612d0e565b602082019390935260400152919050565b60208082526038908201527f414e4e4163746f722e696e697469616c697a653a20434f4e54524143545f545960408201527f50455f4f465f454e47494e455f554e535550504f525445440000000000000000606082015260800190565b6020808252602b908201527f426173654163746f722e70726f6772657373576974683a20464f554e445f454160408201526a149312515497d15591539560aa1b606082015260800190565b71494e53554646494349454e545f46554e445360701b815260200190565b60208082526021908201527f426173654163746f722e70726f67726573733a204e4f5f4e4558545f4556454e6040820152601560fa1b606082015260800190565b6020808252602b908201527f4345434163746f722e696e697469616c697a653a20494e56414c49445f434f4e60408201526a54524143545f524f4c455360a81b606082015260800190565b60208082526038908201527f4345434163746f722e696e697469616c697a653a20494e56414c49445f434f4e60408201527f54524143545f5245464552454e43455f315f4f424a4543540000000000000000606082015260800190565b60208082526035908201527f426173654163746f722e67657445787465726e616c44617461466f725354463a604082015274081054d4d15517d113d154d7d393d517d1561254d5605a1b606082015260800190565b6020808252602e908201527f426173654163746f722e70726f6772657373576974683a20464f554e445f554e60408201526d1111549316525391d7d15591539560921b606082015260800190565b6020808252602b908201527f426173654163746f722e70726f6772657373576974683a20554e415554484f5260408201526a24ad22a22fa9a2a72222a960a91b606082015260800190565b60208082526028908201527f426173654163746f722e70726f67726573733a2041535345545f444f45535f4e60408201526713d517d1561254d560c21b606082015260800190565b6020808252603b908201527f426173654163746f722e736574746c655061796f6666466f724576656e743a2060408201527f494e56414c49445f46554e4354494f4e5f504152414d45544552530000000000606082015260800190565b60208082526034908201527f426173654163746f722e70726f636573734576656e743a204e4558545f455645604082015273139517d393d517d6515517d4d0d211511553115160621b606082015260800190565b6020808252602b908201527f426173654163746f722e70726f6772657373576974683a20464f554e445f504560408201526a1391125391d7d15591539560aa1b606082015260800190565b60208082526038908201527f4345434163746f722e696e697469616c697a653a20494e56414c49445f434f4e60408201527f54524143545f5245464552454e43455f325f4f424a4543540000000000000000606082015260800190565b60208082526031908201527f426173654163746f722e70726f636573734576656e743a2041535345545f524560408201527041434845445f46494e414c5f535441544560781b606082015260800190565b6102a0810161026a8284612d4b565b6102e081016137958286612d4b565b6001600160a01b03939093166102a08201526102c00152919050565b6102c081016137c08285612d4b565b826102a08301529392505050565b60006105c0820190506137e2828751612d04565b60208601516137f46020840182612ce6565b5060408601516138076040840182612cfa565b50606086015161381a6060840182612cf0565b50608086015161382d6080840182612cd8565b5060a086015161384060a0840182612ce6565b5060c086015161385360c0840182612cf0565b5060e086015161386660e0840182612ce6565b50610100868101519083015261012080870151908301526101408087015190830152610160808701519083015261018080870151908301526101a0808701516138b182850182612eb5565b50506101c08601516138c7610220840182612eb5565b506138d66102a0830186612ee4565b6105808201939093526105a0015292915050565b60405181810167ffffffffffffffff8111828210171561390657fe5b604052919050565b6005811061391857fe5b50565b6001600160a01b038116811461391857600080fd5b6009811061391857600080fd5b6002811061391857600080fd5b6006811061391857600080fd5b6005811061391857600080fd5b600d811061391857600080fd5b6013811061391857600080fdfe4f776e61626c653a206e6577206f776e657220697320746865207a65726f2061646472657373a2646970667358221220a7514287ae2be9ff0c6673cf0353fb660ca7aada951e172150fe7771cb0d73e164736f6c63430007040033",
  "linkReferences": {},
  "deployedLinkReferences": {}
}