{
  "_format": "hh-sol-artifact-1",
  "contractName": "OpenOracleView",
  "sourceName": "contracts/Core/Base/OracleProxy/CompoundProxy/OpenOracleView.sol",
  "abi": [
    {
      "inputs": [
        {
          "internalType": "contract OpenOracleData",
          "name": "data_",
          "type": "address"
        },
        {
          "internalType": "address[]",
          "name": "sources_",
          "type": "address[]"
        }
      ],
      "stateMutability": "nonpayable",
      "type": "constructor"
    },
    {
      "inputs": [],
      "name": "priceData",
      "outputs": [
        {
          "internalType": "contract OpenOracleData",
          "name": "",
          "type": "address"
        }
      ],
      "stateMutability": "view",
      "type": "function"
    },
    {
      "inputs": [
        {
          "internalType": "uint256",
          "name": "",
          "type": "uint256"
        }
      ],
      "name": "sources",
      "outputs": [
        {
          "internalType": "address",
          "name": "",
          "type": "address"
        }
      ],
      "stateMutability": "view",
      "type": "function"
    }
  ],
  "bytecode": "0x608060405234801561001057600080fd5b506040516102bb3803806102bb8339818101604052604081101561003357600080fd5b81516020830180516040519294929383019291908464010000000082111561005a57600080fd5b90830190602082018581111561006f57600080fd5b825186602082028301116401000000008211171561008c57600080fd5b82525081516020918201928201910280838360005b838110156100b95781810151838201526020016100a1565b50505050905001604052505050600081511161011c576040805162461bcd60e51b815260206004820152601c60248201527f4d75737420696e697469616c697a65207769746820736f757263657300000000604482015290519081900360640190fd5b600080546001600160a01b0319166001600160a01b038416179055805161014a906001906020840190610152565b5050506101cc565b8280548282559060005260206000209081019282156101a7579160200282015b828111156101a757825182546001600160a01b0319166001600160a01b03909116178255602090920191600190910190610172565b506101b39291506101b7565b5090565b5b808211156101b357600081556001016101b8565b60e1806101da6000396000f3fe6080604052348015600f57600080fd5b506004361060325760003560e01c8063a3663d37146037578063e61a5fe414606d575b600080fd5b605160048036036020811015604b57600080fd5b50356073565b604080516001600160a01b039092168252519081900360200190f35b6051609c565b60018181548110608257600080fd5b6000918252602090912001546001600160a01b0316905081565b6000546001600160a01b03168156fea2646970667358221220dee455e7a91a87a4905aa6cf6ca191b9da768714bb5239ced3c26cd63c858d6d64736f6c63430007040033",
  "linkReferences": {},
  "deployedLinkReferences": {}
}