{
  "_format": "hh-sol-artifact-1",
  "contractName": "UniswapConfig",
  "sourceName": "contracts/Core/Base/OracleProxy/CompoundProxy/Uniswap/UniswapConfig.sol",
  "abi": [
    {
      "inputs": [
        {
          "components": [
            {
              "internalType": "address",
              "name": "cToken",
              "type": "address"
            },
            {
              "internalType": "address",
              "name": "underlying",
              "type": "address"
            },
            {
              "internalType": "bytes32",
              "name": "symbolHash",
              "type": "bytes32"
            },
            {
              "internalType": "uint256",
              "name": "baseUnit",
              "type": "uint256"
            },
            {
              "internalType": "enum UniswapConfig.PriceSource",
              "name": "priceSource",
              "type": "uint8"
            },
            {
              "internalType": "uint256",
              "name": "fixedPrice",
              "type": "uint256"
            },
            {
              "internalType": "address",
              "name": "uniswapMarket",
              "type": "address"
            },
            {
              "internalType": "bool",
              "name": "isUniswapReversed",
              "type": "bool"
            }
          ],
          "internalType": "struct UniswapConfig.TokenConfig[]",
          "name": "configs",
          "type": "tuple[]"
        }
      ],
      "stateMutability": "nonpayable",
      "type": "constructor"
    },
    {
      "inputs": [
        {
          "internalType": "uint256",
          "name": "i",
          "type": "uint256"
        }
      ],
      "name": "getTokenConfig",
      "outputs": [
        {
          "components": [
            {
              "internalType": "address",
              "name": "cToken",
              "type": "address"
            },
            {
              "internalType": "address",
              "name": "underlying",
              "type": "address"
            },
            {
              "internalType": "bytes32",
              "name": "symbolHash",
              "type": "bytes32"
            },
            {
              "internalType": "uint256",
              "name": "baseUnit",
              "type": "uint256"
            },
            {
              "internalType": "enum UniswapConfig.PriceSource",
              "name": "priceSource",
              "type": "uint8"
            },
            {
              "internalType": "uint256",
              "name": "fixedPrice",
              "type": "uint256"
            },
            {
              "internalType": "address",
              "name": "uniswapMarket",
              "type": "address"
            },
            {
              "internalType": "bool",
              "name": "isUniswapReversed",
              "type": "bool"
            }
          ],
          "internalType": "struct UniswapConfig.TokenConfig",
          "name": "",
          "type": "tuple"
        }
      ],
      "stateMutability": "view",
      "type": "function"
    },
    {
      "inputs": [
        {
          "internalType": "address",
          "name": "cToken",
          "type": "address"
        }
      ],
      "name": "getTokenConfigByCToken",
      "outputs": [
        {
          "components": [
            {
              "internalType": "address",
              "name": "cToken",
              "type": "address"
            },
            {
              "internalType": "address",
              "name": "underlying",
              "type": "address"
            },
            {
              "internalType": "bytes32",
              "name": "symbolHash",
              "type": "bytes32"
            },
            {
              "internalType": "uint256",
              "name": "baseUnit",
              "type": "uint256"
            },
            {
              "internalType": "enum UniswapConfig.PriceSource",
              "name": "priceSource",
              "type": "uint8"
            },
            {
              "internalType": "uint256",
              "name": "fixedPrice",
              "type": "uint256"
            },
            {
              "internalType": "address",
              "name": "uniswapMarket",
              "type": "address"
            },
            {
              "internalType": "bool",
              "name": "isUniswapReversed",
              "type": "bool"
            }
          ],
          "internalType": "struct UniswapConfig.TokenConfig",
          "name": "",
          "type": "tuple"
        }
      ],
      "stateMutability": "view",
      "type": "function"
    },
    {
      "inputs": [
        {
          "internalType": "string",
          "name": "symbol",
          "type": "string"
        }
      ],
      "name": "getTokenConfigBySymbol",
      "outputs": [
        {
          "components": [
            {
              "internalType": "address",
              "name": "cToken",
              "type": "address"
            },
            {
              "internalType": "address",
              "name": "underlying",
              "type": "address"
            },
            {
              "internalType": "bytes32",
              "name": "symbolHash",
              "type": "bytes32"
            },
            {
              "internalType": "uint256",
              "name": "baseUnit",
              "type": "uint256"
            },
            {
              "internalType": "enum UniswapConfig.PriceSource",
              "name": "priceSource",
              "type": "uint8"
            },
            {
              "internalType": "uint256",
              "name": "fixedPrice",
              "type": "uint256"
            },
            {
              "internalType": "address",
              "name": "uniswapMarket",
              "type": "address"
            },
            {
              "internalType": "bool",
              "name": "isUniswapReversed",
              "type": "bool"
            }
          ],
          "internalType": "struct UniswapConfig.TokenConfig",
          "name": "",
          "type": "tuple"
        }
      ],
      "stateMutability": "view",
      "type": "function"
    },
    {
      "inputs": [
        {
          "internalType": "bytes32",
          "name": "symbolHash",
          "type": "bytes32"
        }
      ],
      "name": "getTokenConfigBySymbolHash",
      "outputs": [
        {
          "components": [
            {
              "internalType": "address",
              "name": "cToken",
              "type": "address"
            },
            {
              "internalType": "address",
              "name": "underlying",
              "type": "address"
            },
            {
              "internalType": "bytes32",
              "name": "symbolHash",
              "type": "bytes32"
            },
            {
              "internalType": "uint256",
              "name": "baseUnit",
              "type": "uint256"
            },
            {
              "internalType": "enum UniswapConfig.PriceSource",
              "name": "priceSource",
              "type": "uint8"
            },
            {
              "internalType": "uint256",
              "name": "fixedPrice",
              "type": "uint256"
            },
            {
              "internalType": "address",
              "name": "uniswapMarket",
              "type": "address"
            },
            {
              "internalType": "bool",
              "name": "isUniswapReversed",
              "type": "bool"
            }
          ],
          "internalType": "struct UniswapConfig.TokenConfig",
          "name": "",
          "type": "tuple"
        }
      ],
      "stateMutability": "view",
      "type": "function"
    },
    {
      "inputs": [
        {
          "internalType": "address",
          "name": "underlying",
          "type": "address"
        }
      ],
      "name": "getTokenConfigByUnderlying",
      "outputs": [
        {
          "components": [
            {
              "internalType": "address",
              "name": "cToken",
              "type": "address"
            },
            {
              "internalType": "address",
              "name": "underlying",
              "type": "address"
            },
            {
              "internalType": "bytes32",
              "name": "symbolHash",
              "type": "bytes32"
            },
            {
              "internalType": "uint256",
              "name": "baseUnit",
              "type": "uint256"
            },
            {
              "internalType": "enum UniswapConfig.PriceSource",
              "name": "priceSource",
              "type": "uint8"
            },
            {
              "internalType": "uint256",
              "name": "fixedPrice",
              "type": "uint256"
            },
            {
              "internalType": "address",
              "name": "uniswapMarket",
              "type": "address"
            },
            {
              "internalType": "bool",
              "name": "isUniswapReversed",
              "type": "bool"
            }
          ],
          "internalType": "struct UniswapConfig.TokenConfig",
          "name": "",
          "type": "tuple"
        }
      ],
      "stateMutability": "view",
      "type": "function"
    },
    {
      "inputs": [],
      "name": "maxTokens",
      "outputs": [
        {
          "internalType": "uint256",
          "name": "",
          "type": "uint256"
        }
      ],
      "stateMutability": "view",
      "type": "function"
    },
    {
      "inputs": [],
      "name": "numTokens",
      "outputs": [
        {
          "internalType": "uint256",
          "name": "",
          "type": "uint256"
        }
      ],
      "stateMutability": "view",
      "type": "function"
    }
  ],
  "bytecode": "0x611ea06040523480156200001257600080fd5b50604051620071f3380380620071f3833981016040819052620000359162001e22565b601e81511115620000635760405162461bcd60e51b81526004016200005a9062001edb565b60405180910390fd5b80516080526200007581600062001c6e565b5160601b6001600160601b03191660a0526200009381600162001c6e565b5160601b6001600160601b03191660c052620000b181600262001c6e565b5160601b6001600160601b03191660e052620000cf81600362001c6e565b5160601b6001600160601b03191661010052620000ee81600462001c6e565b5160601b6001600160601b031916610120526200010d81600562001c6e565b5160601b6001600160601b031916610140526200012c81600662001c6e565b5160601b6001600160601b031916610160526200014b81600762001c6e565b5160601b6001600160601b031916610180526200016a81600862001c6e565b5160601b6001600160601b0319166101a0526200018981600962001c6e565b5160601b6001600160601b0319166101c052620001a881600a62001c6e565b5160601b6001600160601b0319166101e052620001c781600b62001c6e565b5160601b6001600160601b03191661020052620001e681600c62001c6e565b5160601b6001600160601b031916610220526200020581600d62001c6e565b5160601b6001600160601b031916610240526200022481600e62001c6e565b5160601b6001600160601b031916610260526200024381600f62001c6e565b5160601b6001600160601b031916610280526200026281601062001c6e565b5160601b6001600160601b0319166102a0526200028181601162001c6e565b5160601b6001600160601b0319166102c052620002a081601262001c6e565b5160601b6001600160601b0319166102e052620002bf81601362001c6e565b5160601b6001600160601b03191661030052620002de81601462001c6e565b5160601b6001600160601b03191661032052620002fd81601562001c6e565b5160601b6001600160601b031916610340526200031c81601662001c6e565b5160601b6001600160601b031916610360526200033b81601762001c6e565b5160601b6001600160601b031916610380526200035a81601862001c6e565b5160601b6001600160601b0319166103a0526200037981601962001c6e565b5160601b6001600160601b0319166103c0526200039881601a62001c6e565b5160601b6001600160601b0319166103e052620003b781601b62001c6e565b5160601b6001600160601b03191661040052620003d681601c62001c6e565b5160601b6001600160601b03191661042052620003f581601d62001c6e565b5160601b6001600160601b031916610440526200041481600062001c6e565b6020015160601b6001600160601b031916610460526200043681600162001c6e565b6020015160601b6001600160601b031916610480526200045881600262001c6e565b6020015160601b6001600160601b0319166104a0526200047a81600362001c6e565b6020015160601b6001600160601b0319166104c0526200049c81600462001c6e565b6020015160601b6001600160601b0319166104e052620004be81600562001c6e565b6020015160601b6001600160601b03191661050052620004e081600662001c6e565b6020015160601b6001600160601b031916610520526200050281600762001c6e565b6020015160601b6001600160601b031916610540526200052481600862001c6e565b6020015160601b6001600160601b031916610560526200054681600962001c6e565b6020015160601b6001600160601b031916610580526200056881600a62001c6e565b6020015160601b6001600160601b0319166105a0526200058a81600b62001c6e565b6020015160601b6001600160601b0319166105c052620005ac81600c62001c6e565b6020015160601b6001600160601b0319166105e052620005ce81600d62001c6e565b6020015160601b6001600160601b03191661060052620005f081600e62001c6e565b6020015160601b6001600160601b031916610620526200061281600f62001c6e565b6020015160601b6001600160601b031916610640526200063481601062001c6e565b6020015160601b6001600160601b031916610660526200065681601162001c6e565b6020015160601b6001600160601b031916610680526200067881601262001c6e565b6020015160601b6001600160601b0319166106a0526200069a81601362001c6e565b6020015160601b6001600160601b0319166106c052620006bc81601462001c6e565b6020015160601b6001600160601b0319166106e052620006de81601562001c6e565b6020015160601b6001600160601b031916610700526200070081601662001c6e565b6020015160601b6001600160601b031916610720526200072281601762001c6e565b6020015160601b6001600160601b031916610740526200074481601862001c6e565b6020015160601b6001600160601b031916610760526200076681601962001c6e565b6020015160601b6001600160601b031916610780526200078881601a62001c6e565b6020015160601b6001600160601b0319166107a052620007aa81601b62001c6e565b6020015160601b6001600160601b0319166107c052620007cc81601c62001c6e565b6020015160601b6001600160601b0319166107e052620007ee81601d62001c6e565b6020015160601b6001600160601b031916610800526200081081600062001c6e565b60400151610820526200082581600162001c6e565b60400151610840526200083a81600262001c6e565b60400151610860526200084f81600362001c6e565b60400151610880526200086481600462001c6e565b604001516108a0526200087981600562001c6e565b604001516108c0526200088e81600662001c6e565b604001516108e052620008a381600762001c6e565b6040015161090052620008b881600862001c6e565b6040015161092052620008cd81600962001c6e565b6040015161094052620008e281600a62001c6e565b6040015161096052620008f781600b62001c6e565b60400151610980526200090c81600c62001c6e565b604001516109a0526200092181600d62001c6e565b604001516109c0526200093681600e62001c6e565b604001516109e0526200094b81600f62001c6e565b60400151610a00526200096081601062001c6e565b60400151610a20526200097581601162001c6e565b60400151610a40526200098a81601262001c6e565b60400151610a60526200099f81601362001c6e565b60400151610a8052620009b481601462001c6e565b60400151610aa052620009c981601562001c6e565b60400151610ac052620009de81601662001c6e565b60400151610ae052620009f381601762001c6e565b60400151610b005262000a0881601862001c6e565b60400151610b205262000a1d81601962001c6e565b60400151610b405262000a3281601a62001c6e565b60400151610b605262000a4781601b62001c6e565b60400151610b805262000a5c81601c62001c6e565b60400151610ba05262000a7181601d62001c6e565b60400151610bc05262000a8681600062001c6e565b60600151610be05262000a9b81600162001c6e565b60600151610c005262000ab081600262001c6e565b60600151610c205262000ac581600362001c6e565b60600151610c405262000ada81600462001c6e565b60600151610c605262000aef81600562001c6e565b60600151610c805262000b0481600662001c6e565b60600151610ca05262000b1981600762001c6e565b60600151610cc05262000b2e81600862001c6e565b60600151610ce05262000b4381600962001c6e565b60600151610d005262000b5881600a62001c6e565b60600151610d205262000b6d81600b62001c6e565b60600151610d405262000b8281600c62001c6e565b60600151610d605262000b9781600d62001c6e565b60600151610d805262000bac81600e62001c6e565b60600151610da05262000bc181600f62001c6e565b60600151610dc05262000bd681601062001c6e565b60600151610de05262000beb81601162001c6e565b60600151610e005262000c0081601262001c6e565b60600151610e205262000c1581601362001c6e565b60600151610e405262000c2a81601462001c6e565b60600151610e605262000c3f81601562001c6e565b60600151610e805262000c5481601662001c6e565b60600151610ea05262000c6981601762001c6e565b60600151610ec05262000c7e81601862001c6e565b60600151610ee05262000c9381601962001c6e565b60600151610f005262000ca881601a62001c6e565b60600151610f205262000cbd81601b62001c6e565b60600151610f405262000cd281601c62001c6e565b60600151610f605262000ce781601d62001c6e565b60600151610f805262000cfc81600062001c6e565b60800151600281111562000d0c57fe5b610fa081600281111562000d1c57fe5b60f81b90525062000d2f81600162001c6e565b60800151600281111562000d3f57fe5b610fc081600281111562000d4f57fe5b60f81b90525062000d6281600262001c6e565b60800151600281111562000d7257fe5b610fe081600281111562000d8257fe5b60f81b90525062000d9581600362001c6e565b60800151600281111562000da557fe5b61100081600281111562000db557fe5b60f81b90525062000dc881600462001c6e565b60800151600281111562000dd857fe5b61102081600281111562000de857fe5b60f81b90525062000dfb81600562001c6e565b60800151600281111562000e0b57fe5b61104081600281111562000e1b57fe5b60f81b90525062000e2e81600662001c6e565b60800151600281111562000e3e57fe5b61106081600281111562000e4e57fe5b60f81b90525062000e6181600762001c6e565b60800151600281111562000e7157fe5b61108081600281111562000e8157fe5b60f81b90525062000e9481600862001c6e565b60800151600281111562000ea457fe5b6110a081600281111562000eb457fe5b60f81b90525062000ec781600962001c6e565b60800151600281111562000ed757fe5b6110c081600281111562000ee757fe5b60f81b90525062000efa81600a62001c6e565b60800151600281111562000f0a57fe5b6110e081600281111562000f1a57fe5b60f81b90525062000f2d81600b62001c6e565b60800151600281111562000f3d57fe5b61110081600281111562000f4d57fe5b60f81b90525062000f6081600c62001c6e565b60800151600281111562000f7057fe5b61112081600281111562000f8057fe5b60f81b90525062000f9381600d62001c6e565b60800151600281111562000fa357fe5b61114081600281111562000fb357fe5b60f81b90525062000fc681600e62001c6e565b60800151600281111562000fd657fe5b61116081600281111562000fe657fe5b60f81b90525062000ff981600f62001c6e565b6080015160028111156200100957fe5b6111808160028111156200101957fe5b60f81b9052506200102c81601062001c6e565b6080015160028111156200103c57fe5b6111a08160028111156200104c57fe5b60f81b9052506200105f81601162001c6e565b6080015160028111156200106f57fe5b6111c08160028111156200107f57fe5b60f81b9052506200109281601262001c6e565b608001516002811115620010a257fe5b6111e0816002811115620010b257fe5b60f81b905250620010c581601362001c6e565b608001516002811115620010d557fe5b611200816002811115620010e557fe5b60f81b905250620010f881601462001c6e565b6080015160028111156200110857fe5b6112208160028111156200111857fe5b60f81b9052506200112b81601562001c6e565b6080015160028111156200113b57fe5b6112408160028111156200114b57fe5b60f81b9052506200115e81601662001c6e565b6080015160028111156200116e57fe5b6112608160028111156200117e57fe5b60f81b9052506200119181601762001c6e565b608001516002811115620011a157fe5b611280816002811115620011b157fe5b60f81b905250620011c481601862001c6e565b608001516002811115620011d457fe5b6112a0816002811115620011e457fe5b60f81b905250620011f781601962001c6e565b6080015160028111156200120757fe5b6112c08160028111156200121757fe5b60f81b9052506200122a81601a62001c6e565b6080015160028111156200123a57fe5b6112e08160028111156200124a57fe5b60f81b9052506200125d81601b62001c6e565b6080015160028111156200126d57fe5b6113008160028111156200127d57fe5b60f81b9052506200129081601c62001c6e565b608001516002811115620012a057fe5b611320816002811115620012b057fe5b60f81b905250620012c381601d62001c6e565b608001516002811115620012d357fe5b611340816002811115620012e357fe5b60f81b905250620012f681600062001c6e565b60a00151611360526200130b81600162001c6e565b60a00151611380526200132081600262001c6e565b60a001516113a0526200133581600362001c6e565b60a001516113c0526200134a81600462001c6e565b60a001516113e0526200135f81600562001c6e565b60a00151611400526200137481600662001c6e565b60a00151611420526200138981600762001c6e565b60a00151611440526200139e81600862001c6e565b60a0015161146052620013b381600962001c6e565b60a0015161148052620013c881600a62001c6e565b60a001516114a052620013dd81600b62001c6e565b60a001516114c052620013f281600c62001c6e565b60a001516114e0526200140781600d62001c6e565b60a00151611500526200141c81600e62001c6e565b60a00151611520526200143181600f62001c6e565b60a00151611540526200144681601062001c6e565b60a00151611560526200145b81601162001c6e565b60a00151611580526200147081601262001c6e565b60a001516115a0526200148581601362001c6e565b60a001516115c0526200149a81601462001c6e565b60a001516115e052620014af81601562001c6e565b60a0015161160052620014c481601662001c6e565b60a0015161162052620014d981601762001c6e565b60a0015161164052620014ee81601862001c6e565b60a00151611660526200150381601962001c6e565b60a00151611680526200151881601a62001c6e565b60a001516116a0526200152d81601b62001c6e565b60a001516116c0526200154281601c62001c6e565b60a001516116e0526200155781601d62001c6e565b60a00151611700526200156c81600062001c6e565b60c0015160601b6001600160601b031916611720526200158e81600162001c6e565b60c0015160601b6001600160601b03191661174052620015b081600262001c6e565b60c0015160601b6001600160601b03191661176052620015d281600362001c6e565b60c0015160601b6001600160601b03191661178052620015f481600462001c6e565b60c0015160601b6001600160601b0319166117a0526200161681600562001c6e565b60c0015160601b6001600160601b0319166117c0526200163881600662001c6e565b60c0015160601b6001600160601b0319166117e0526200165a81600762001c6e565b60c0015160601b6001600160601b031916611800526200167c81600862001c6e565b60c0015160601b6001600160601b031916611820526200169e81600962001c6e565b60c0015160601b6001600160601b03191661184052620016c081600a62001c6e565b60c0015160601b6001600160601b03191661186052620016e281600b62001c6e565b60c0015160601b6001600160601b031916611880526200170481600c62001c6e565b60c0015160601b6001600160601b0319166118a0526200172681600d62001c6e565b60c0015160601b6001600160601b0319166118c0526200174881600e62001c6e565b60c0015160601b6001600160601b0319166118e0526200176a81600f62001c6e565b60c0015160601b6001600160601b031916611900526200178c81601062001c6e565b60c0015160601b6001600160601b03191661192052620017ae81601162001c6e565b60c0015160601b6001600160601b03191661194052620017d081601262001c6e565b60c0015160601b6001600160601b03191661196052620017f281601362001c6e565b60c0015160601b6001600160601b031916611980526200181481601462001c6e565b60c0015160601b6001600160601b0319166119a0526200183681601562001c6e565b60c0015160601b6001600160601b0319166119c0526200185881601662001c6e565b60c0015160601b6001600160601b0319166119e0526200187a81601762001c6e565b60c0015160601b6001600160601b031916611a00526200189c81601862001c6e565b60c0015160601b6001600160601b031916611a2052620018be81601962001c6e565b60c0015160601b6001600160601b031916611a4052620018e081601a62001c6e565b60c0015160601b6001600160601b031916611a60526200190281601b62001c6e565b60c0015160601b6001600160601b031916611a80526200192481601c62001c6e565b60c0015160601b6001600160601b031916611aa0526200194681601d62001c6e565b60c0015160601b6001600160601b031916611ac0526200196881600062001c6e565b60e00151151560f81b611ae0526200198281600162001c6e565b60e00151151560f81b611b00526200199c81600262001c6e565b60e00151151560f81b611b2052620019b681600362001c6e565b60e00151151560f81b611b4052620019d081600462001c6e565b60e00151151560f81b611b6052620019ea81600562001c6e565b60e00151151560f81b611b805262001a0481600662001c6e565b60e00151151560f81b611ba05262001a1e81600762001c6e565b60e00151151560f81b611bc05262001a3881600862001c6e565b60e00151151560f81b611be05262001a5281600962001c6e565b60e00151151560f81b611c005262001a6c81600a62001c6e565b60e00151151560f81b611c205262001a8681600b62001c6e565b60e00151151560f81b611c405262001aa081600c62001c6e565b60e00151151560f81b611c605262001aba81600d62001c6e565b60e00151151560f81b611c805262001ad481600e62001c6e565b60e00151151560f81b611ca05262001aee81600f62001c6e565b60e00151151560f81b611cc05262001b0881601062001c6e565b60e00151151560f81b611ce05262001b2281601162001c6e565b60e00151151560f81b611d005262001b3c81601262001c6e565b60e00151151560f81b611d205262001b5681601362001c6e565b60e00151151560f81b611d405262001b7081601462001c6e565b60e00151151560f81b611d605262001b8a81601562001c6e565b60e00151151560f81b611d805262001ba481601662001c6e565b60e00151151560f81b611da05262001bbe81601762001c6e565b60e00151151560f81b611dc05262001bd881601862001c6e565b60e00151151560f81b611de05262001bf281601962001c6e565b60e00151151560f81b611e005262001c0c81601a62001c6e565b60e00151151560f81b611e205262001c2681601b62001c6e565b60e00151151560f81b611e405262001c4081601c62001c6e565b60e00151151560f81b611e605262001c5a81601d62001c6e565b60e00151151560f81b611e80525062001f29565b62001c7862001ce8565b825182101562001c9f5782828151811062001c8f57fe5b6020026020010151905062001ce2565b506040805161010081018252600080825260208201819052918101829052606081018290526080810182905260a0810182905260c0810182905260e08101919091525b92915050565b60408051610100810182526000808252602082018190529181018290526060810182905290608082019081526000602082018190526040820181905260609091015290565b80516001600160a01b038116811462001d4557600080fd5b919050565b8051801515811462001d4557600080fd5b80516003811062001d4557600080fd5b600061010080838503121562001d7f578182fd5b604051908101906001600160401b038211818310171562001d9c57fe5b8160405280925062001dae8462001d2d565b815262001dbe6020850162001d2d565b6020820152604084015160408201526060840151606082015262001de56080850162001d5b565b608082015260a084015160a082015262001e0260c0850162001d2d565b60c082015262001e1560e0850162001d4a565b60e0820152505092915050565b6000602080838503121562001e35578182fd5b82516001600160401b038082111562001e4c578384fd5b818501915085601f83011262001e60578384fd5b81518181111562001e6d57fe5b62001e7c848583020162001f05565b8181528481019250838501610100808402860187018a101562001e9d578788fd5b8795505b8386101562001ecd5762001eb68a8362001d6b565b855260019590950194938601939081019062001ea1565b509098975050505050505050565b60208082526010908201526f746f6f206d616e7920636f6e6669677360801b604082015260600190565b6040518181016001600160401b038111828210171562001f2157fe5b604052919050565b60805160a05160601c60c05160601c60e05160601c6101005160601c6101205160601c6101405160601c6101605160601c6101805160601c6101a05160601c6101c05160601c6101e05160601c6102005160601c6102205160601c6102405160601c6102605160601c6102805160601c6102a05160601c6102c05160601c6102e05160601c6103005160601c6103205160601c6103405160601c6103605160601c6103805160601c6103a05160601c6103c05160601c6103e05160601c6104005160601c6104205160601c6104405160601c6104605160601c6104805160601c6104a05160601c6104c05160601c6104e05160601c6105005160601c6105205160601c6105405160601c6105605160601c6105805160601c6105a05160601c6105c05160601c6105e05160601c6106005160601c6106205160601c6106405160601c6106605160601c6106805160601c6106a05160601c6106c05160601c6106e05160601c6107005160601c6107205160601c6107405160601c6107605160601c6107805160601c6107a05160601c6107c05160601c6107e05160601c6108005160601c610820516108405161086051610880516108a0516108c0516108e05161090051610920516109405161096051610980516109a0516109c0516109e051610a0051610a2051610a4051610a6051610a8051610aa051610ac051610ae051610b0051610b2051610b4051610b6051610b8051610ba051610bc051610be051610c0051610c2051610c4051610c6051610c8051610ca051610cc051610ce051610d0051610d2051610d4051610d6051610d8051610da051610dc051610de051610e0051610e2051610e4051610e6051610e8051610ea051610ec051610ee051610f0051610f2051610f4051610f6051610f8051610fa05160f81c610fc05160f81c610fe05160f81c6110005160f81c6110205160f81c6110405160f81c6110605160f81c6110805160f81c6110a05160f81c6110c05160f81c6110e05160f81c6111005160f81c6111205160f81c6111405160f81c6111605160f81c6111805160f81c6111a05160f81c6111c05160f81c6111e05160f81c6112005160f81c6112205160f81c6112405160f81c6112605160f81c6112805160f81c6112a05160f81c6112c05160f81c6112e05160f81c6113005160f81c6113205160f81c6113405160f81c61136051611380516113a0516113c0516113e05161140051611420516114405161146051611480516114a0516114c0516114e05161150051611520516115405161156051611580516115a0516115c0516115e05161160051611620516116405161166051611680516116a0516116c0516116e051611700516117205160601c6117405160601c6117605160601c6117805160601c6117a05160601c6117c05160601c6117e05160601c6118005160601c6118205160601c6118405160601c6118605160601c6118805160601c6118a05160601c6118c05160601c6118e05160601c6119005160601c6119205160601c6119405160601c6119605160601c6119805160601c6119a05160601c6119c05160601c6119e05160601c611a005160601c611a205160601c611a405160601c611a605160601c611a805160601c611aa05160601c611ac05160601c611ae05160f81c611b005160f81c611b205160f81c611b405160f81c611b605160f81c611b805160f81c611ba05160f81c611bc05160f81c611be05160f81c611c005160f81c611c205160f81c611c405160f81c611c605160f81c611c805160f81c611ca05160f81c611cc05160f81c611ce05160f81c611d005160f81c611d205160f81c611d405160f81c611d605160f81c611d805160f81c611da05160f81c611dc05160f81c611de05160f81c611e005160f81c611e205160f81c611e405160f81c611e605160f81c611e805160f81c6145c962002c2a60003980612d2d525080612bbb525080612a495250806128d75250806127655250806125f352508061248152508061230f52508061219d52508061202b525080611eb9525080611d47525080611bd5525080611a635250806118f152508061177f52508061160d52508061149b5250806113295250806111b7525080611045525080610ed3525080610d61525080610bef525080610a7d52508061090b5250806107995250806106275250806104b5525080610343525080612cfe525080612b8c525080612a1a5250806128a85250806127365250806125c45250806124525250806122e052508061216e525080611ffc525080611e8a525080611d18525080611ba6525080611a345250806118c25250806117505250806115de52508061146c5250806112fa525080611188525080611016525080610ea4525080610d32525080610bc0525080610a4e5250806108dc52508061076a5250806105f8525080610486525080610314525080612cd8525080612b665250806129f452508061288252508061271052508061259e52508061242c5250806122ba525080612148525080611fd6525080611e64525080611cf2525080611b80525080611a0e52508061189c52508061172a5250806115b85250806114465250806112d4525080611162525080610ff0525080610e7e525080610d0c525080610b9a525080610a285250806108b65250806107445250806105d25250806104605250806102ee525080612ca7525080612b355250806129c35250806128515250806126df52508061256d5250806123fb525080612289525080612117525080611fa5525080611e33525080611cc1525080611b4f5250806119dd52508061186b5250806116f95250806115875250806114155250806112a3525080611131525080610fbf525080610e4d525080610cdb525080610b695250806109f75250806108855250806107135250806105a152508061042f5250806102bd525080612c81525080612b0f52508061299d52508061282b5250806126b95250806125475250806123d55250806122635250806120f1525080611f7f525080611e0d525080611c9b525080611b295250806119b75250806118455250806116d35250806115615250806113ef52508061127d52508061110b525080610f99525080610e27525080610cb5525080610b435250806109d152508061085f5250806106ed52508061057b525080610409525080610297525080612c5b5280613397525080612ae952806133675250806129775280613337525080612805528061330752508061269352806132d752508061252152806132a75250806123af528061327752508061223d52806132475250806120cb5280613217525080611f5952806131e7525080611de752806131b7525080611c755280613187525080611b035280613157525080611991528061312752508061181f52806130f75250806116ad52806130c752508061153b52806130975250806113c9528061306752508061125752806130375250806110e55280613007525080610f735280612fd7525080610e015280612fa7525080610c8f5280612f77525080610b1d5280612f475250806109ab5280612f175250806108395280612ee75250806106c75280612eb75250806105555280612e875250806103e35280612e575250806102715280612e27525080612c2c5280613b4c525080612aba5280613b0a5250806129485280613ac85250806127d65280613a865250806126645280613a445250806124f25280613a0252508061238052806139c052508061220e528061397e52508061209c528061393c525080611f2a52806138fa525080611db852806138b8525080611c465280613876525080611ad4528061383452508061196252806137f25250806117f052806137b052508061167e528061376e52508061150c528061372c52508061139a52806136ea52508061122852806136a85250806110b65280613666525080610f445280613624525080610dd252806135e2525080610c6052806135a0525080610aee528061355e52508061097c528061351c52508061080a52806134da525080610698528061349852508061052652806134565250806103b4528061341452508061024252806133d2525080612bfd528061430a525080612a8b52806142c852508061291952806142865250806127a7528061424452508061263552806142025250806124c352806141c0525080612351528061417e5250806121df528061413c52508061206d52806140fa525080611efb52806140b8525080611d895280614076525080611c175280614034525080611aa55280613ff25250806119335280613fb05250806117c15280613f6e52508061164f5280613f2c5250806114dd5280613eea52508061136b5280613ea85250806111f95280613e665250806110875280613e24525080610f155280613de2525080610da35280613da0525080610c315280613d5e525080610abf5280613d1c52508061094d5280613cda5250806107db5280613c985250806106695280613c565250806104f75280613c145250806103855280613bd25250806102135280613b905250806101c35280612d5a52506145c96000f3fe608060405234801561001057600080fd5b506004361061007d5760003560e01c80638a0038881161005b5780638a003888146100d15780638e499bcf146100e45780639f599631146100f9578063e83157421461010c5761007d565b80631a12520414610082578063276c2cba146100ab5780634da21942146100be575b600080fd5b6100956100903660046143c7565b610114565b6040516100a291906144f0565b60405180910390f35b6100956100b93660046143df565b610169565b6100956100cc36600461438f565b6101a6565b6100956100df3660046143c7565b6101b9565b6100ec612d58565b6040516100a29190614572565b61009561010736600461438f565b612d7c565b6100ec612e1e565b61011c61434a565b600061012783612e23565b905060001981146101435761013b816101b9565b915050610164565b60405162461bcd60e51b815260040161015b906144c0565b60405180910390fd5b919050565b61017161434a565b6101a0826040516020016101859190614487565b60405160208183030381529060405280519060200120610114565b92915050565b6101ae61434a565b6000610127836133ce565b6101c161434a565b7f000000000000000000000000000000000000000000000000000000000000000082106102005760405162461bcd60e51b815260040161015b906144c0565b8161036e576040518061010001604052807f00000000000000000000000000000000000000000000000000000000000000006001600160a01b031681526020017f00000000000000000000000000000000000000000000000000000000000000006001600160a01b031681526020017f000000000000000000000000000000000000000000000000000000000000000081526020017f000000000000000000000000000000000000000000000000000000000000000081526020017f000000000000000000000000000000000000000000000000000000000000000060028111156102e757fe5b81526020017f000000000000000000000000000000000000000000000000000000000000000081526020017f00000000000000000000000000000000000000000000000000000000000000006001600160a01b031681526020017f000000000000000000000000000000000000000000000000000000000000000015158152509050610164565b81600114156104e0576040518061010001604052807f00000000000000000000000000000000000000000000000000000000000000006001600160a01b031681526020017f00000000000000000000000000000000000000000000000000000000000000006001600160a01b031681526020017f000000000000000000000000000000000000000000000000000000000000000081526020017f000000000000000000000000000000000000000000000000000000000000000081526020017f0000000000000000000000000000000000000000000000000000000000000000600281111561045957fe5b81526020017f000000000000000000000000000000000000000000000000000000000000000081526020017f00000000000000000000000000000000000000000000000000000000000000006001600160a01b031681526020017f000000000000000000000000000000000000000000000000000000000000000015158152509050610164565b8160021415610652576040518061010001604052807f00000000000000000000000000000000000000000000000000000000000000006001600160a01b031681526020017f00000000000000000000000000000000000000000000000000000000000000006001600160a01b031681526020017f000000000000000000000000000000000000000000000000000000000000000081526020017f000000000000000000000000000000000000000000000000000000000000000081526020017f000000000000000000000000000000000000000000000000000000000000000060028111156105cb57fe5b81526020017f000000000000000000000000000000000000000000000000000000000000000081526020017f00000000000000000000000000000000000000000000000000000000000000006001600160a01b031681526020017f000000000000000000000000000000000000000000000000000000000000000015158152509050610164565b81600314156107c4576040518061010001604052807f00000000000000000000000000000000000000000000000000000000000000006001600160a01b031681526020017f00000000000000000000000000000000000000000000000000000000000000006001600160a01b031681526020017f000000000000000000000000000000000000000000000000000000000000000081526020017f000000000000000000000000000000000000000000000000000000000000000081526020017f0000000000000000000000000000000000000000000000000000000000000000600281111561073d57fe5b81526020017f000000000000000000000000000000000000000000000000000000000000000081526020017f00000000000000000000000000000000000000000000000000000000000000006001600160a01b031681526020017f000000000000000000000000000000000000000000000000000000000000000015158152509050610164565b8160041415610936576040518061010001604052807f00000000000000000000000000000000000000000000000000000000000000006001600160a01b031681526020017f00000000000000000000000000000000000000000000000000000000000000006001600160a01b031681526020017f000000000000000000000000000000000000000000000000000000000000000081526020017f000000000000000000000000000000000000000000000000000000000000000081526020017f000000000000000000000000000000000000000000000000000000000000000060028111156108af57fe5b81526020017f000000000000000000000000000000000000000000000000000000000000000081526020017f00000000000000000000000000000000000000000000000000000000000000006001600160a01b031681526020017f000000000000000000000000000000000000000000000000000000000000000015158152509050610164565b8160051415610aa8576040518061010001604052807f00000000000000000000000000000000000000000000000000000000000000006001600160a01b031681526020017f00000000000000000000000000000000000000000000000000000000000000006001600160a01b031681526020017f000000000000000000000000000000000000000000000000000000000000000081526020017f000000000000000000000000000000000000000000000000000000000000000081526020017f00000000000000000000000000000000000000000000000000000000000000006002811115610a2157fe5b81526020017f000000000000000000000000000000000000000000000000000000000000000081526020017f00000000000000000000000000000000000000000000000000000000000000006001600160a01b031681526020017f000000000000000000000000000000000000000000000000000000000000000015158152509050610164565b8160061415610c1a576040518061010001604052807f00000000000000000000000000000000000000000000000000000000000000006001600160a01b031681526020017f00000000000000000000000000000000000000000000000000000000000000006001600160a01b031681526020017f000000000000000000000000000000000000000000000000000000000000000081526020017f000000000000000000000000000000000000000000000000000000000000000081526020017f00000000000000000000000000000000000000000000000000000000000000006002811115610b9357fe5b81526020017f000000000000000000000000000000000000000000000000000000000000000081526020017f00000000000000000000000000000000000000000000000000000000000000006001600160a01b031681526020017f000000000000000000000000000000000000000000000000000000000000000015158152509050610164565b8160071415610d8c576040518061010001604052807f00000000000000000000000000000000000000000000000000000000000000006001600160a01b031681526020017f00000000000000000000000000000000000000000000000000000000000000006001600160a01b031681526020017f000000000000000000000000000000000000000000000000000000000000000081526020017f000000000000000000000000000000000000000000000000000000000000000081526020017f00000000000000000000000000000000000000000000000000000000000000006002811115610d0557fe5b81526020017f000000000000000000000000000000000000000000000000000000000000000081526020017f00000000000000000000000000000000000000000000000000000000000000006001600160a01b031681526020017f000000000000000000000000000000000000000000000000000000000000000015158152509050610164565b8160081415610efe576040518061010001604052807f00000000000000000000000000000000000000000000000000000000000000006001600160a01b031681526020017f00000000000000000000000000000000000000000000000000000000000000006001600160a01b031681526020017f000000000000000000000000000000000000000000000000000000000000000081526020017f000000000000000000000000000000000000000000000000000000000000000081526020017f00000000000000000000000000000000000000000000000000000000000000006002811115610e7757fe5b81526020017f000000000000000000000000000000000000000000000000000000000000000081526020017f00000000000000000000000000000000000000000000000000000000000000006001600160a01b031681526020017f000000000000000000000000000000000000000000000000000000000000000015158152509050610164565b8160091415611070576040518061010001604052807f00000000000000000000000000000000000000000000000000000000000000006001600160a01b031681526020017f00000000000000000000000000000000000000000000000000000000000000006001600160a01b031681526020017f000000000000000000000000000000000000000000000000000000000000000081526020017f000000000000000000000000000000000000000000000000000000000000000081526020017f00000000000000000000000000000000000000000000000000000000000000006002811115610fe957fe5b81526020017f000000000000000000000000000000000000000000000000000000000000000081526020017f00000000000000000000000000000000000000000000000000000000000000006001600160a01b031681526020017f000000000000000000000000000000000000000000000000000000000000000015158152509050610164565b81600a14156111e2576040518061010001604052807f00000000000000000000000000000000000000000000000000000000000000006001600160a01b031681526020017f00000000000000000000000000000000000000000000000000000000000000006001600160a01b031681526020017f000000000000000000000000000000000000000000000000000000000000000081526020017f000000000000000000000000000000000000000000000000000000000000000081526020017f0000000000000000000000000000000000000000000000000000000000000000600281111561115b57fe5b81526020017f000000000000000000000000000000000000000000000000000000000000000081526020017f00000000000000000000000000000000000000000000000000000000000000006001600160a01b031681526020017f000000000000000000000000000000000000000000000000000000000000000015158152509050610164565b81600b1415611354576040518061010001604052807f00000000000000000000000000000000000000000000000000000000000000006001600160a01b031681526020017f00000000000000000000000000000000000000000000000000000000000000006001600160a01b031681526020017f000000000000000000000000000000000000000000000000000000000000000081526020017f000000000000000000000000000000000000000000000000000000000000000081526020017f000000000000000000000000000000000000000000000000000000000000000060028111156112cd57fe5b81526020017f000000000000000000000000000000000000000000000000000000000000000081526020017f00000000000000000000000000000000000000000000000000000000000000006001600160a01b031681526020017f000000000000000000000000000000000000000000000000000000000000000015158152509050610164565b81600c14156114c6576040518061010001604052807f00000000000000000000000000000000000000000000000000000000000000006001600160a01b031681526020017f00000000000000000000000000000000000000000000000000000000000000006001600160a01b031681526020017f000000000000000000000000000000000000000000000000000000000000000081526020017f000000000000000000000000000000000000000000000000000000000000000081526020017f0000000000000000000000000000000000000000000000000000000000000000600281111561143f57fe5b81526020017f000000000000000000000000000000000000000000000000000000000000000081526020017f00000000000000000000000000000000000000000000000000000000000000006001600160a01b031681526020017f000000000000000000000000000000000000000000000000000000000000000015158152509050610164565b81600d1415611638576040518061010001604052807f00000000000000000000000000000000000000000000000000000000000000006001600160a01b031681526020017f00000000000000000000000000000000000000000000000000000000000000006001600160a01b031681526020017f000000000000000000000000000000000000000000000000000000000000000081526020017f000000000000000000000000000000000000000000000000000000000000000081526020017f000000000000000000000000000000000000000000000000000000000000000060028111156115b157fe5b81526020017f000000000000000000000000000000000000000000000000000000000000000081526020017f00000000000000000000000000000000000000000000000000000000000000006001600160a01b031681526020017f000000000000000000000000000000000000000000000000000000000000000015158152509050610164565b81600e14156117aa576040518061010001604052807f00000000000000000000000000000000000000000000000000000000000000006001600160a01b031681526020017f00000000000000000000000000000000000000000000000000000000000000006001600160a01b031681526020017f000000000000000000000000000000000000000000000000000000000000000081526020017f000000000000000000000000000000000000000000000000000000000000000081526020017f0000000000000000000000000000000000000000000000000000000000000000600281111561172357fe5b81526020017f000000000000000000000000000000000000000000000000000000000000000081526020017f00000000000000000000000000000000000000000000000000000000000000006001600160a01b031681526020017f000000000000000000000000000000000000000000000000000000000000000015158152509050610164565b81600f141561191c576040518061010001604052807f00000000000000000000000000000000000000000000000000000000000000006001600160a01b031681526020017f00000000000000000000000000000000000000000000000000000000000000006001600160a01b031681526020017f000000000000000000000000000000000000000000000000000000000000000081526020017f000000000000000000000000000000000000000000000000000000000000000081526020017f0000000000000000000000000000000000000000000000000000000000000000600281111561189557fe5b81526020017f000000000000000000000000000000000000000000000000000000000000000081526020017f00000000000000000000000000000000000000000000000000000000000000006001600160a01b031681526020017f000000000000000000000000000000000000000000000000000000000000000015158152509050610164565b8160101415611a8e576040518061010001604052807f00000000000000000000000000000000000000000000000000000000000000006001600160a01b031681526020017f00000000000000000000000000000000000000000000000000000000000000006001600160a01b031681526020017f000000000000000000000000000000000000000000000000000000000000000081526020017f000000000000000000000000000000000000000000000000000000000000000081526020017f00000000000000000000000000000000000000000000000000000000000000006002811115611a0757fe5b81526020017f000000000000000000000000000000000000000000000000000000000000000081526020017f00000000000000000000000000000000000000000000000000000000000000006001600160a01b031681526020017f000000000000000000000000000000000000000000000000000000000000000015158152509050610164565b8160111415611c00576040518061010001604052807f00000000000000000000000000000000000000000000000000000000000000006001600160a01b031681526020017f00000000000000000000000000000000000000000000000000000000000000006001600160a01b031681526020017f000000000000000000000000000000000000000000000000000000000000000081526020017f000000000000000000000000000000000000000000000000000000000000000081526020017f00000000000000000000000000000000000000000000000000000000000000006002811115611b7957fe5b81526020017f000000000000000000000000000000000000000000000000000000000000000081526020017f00000000000000000000000000000000000000000000000000000000000000006001600160a01b031681526020017f000000000000000000000000000000000000000000000000000000000000000015158152509050610164565b8160121415611d72576040518061010001604052807f00000000000000000000000000000000000000000000000000000000000000006001600160a01b031681526020017f00000000000000000000000000000000000000000000000000000000000000006001600160a01b031681526020017f000000000000000000000000000000000000000000000000000000000000000081526020017f000000000000000000000000000000000000000000000000000000000000000081526020017f00000000000000000000000000000000000000000000000000000000000000006002811115611ceb57fe5b81526020017f000000000000000000000000000000000000000000000000000000000000000081526020017f00000000000000000000000000000000000000000000000000000000000000006001600160a01b031681526020017f000000000000000000000000000000000000000000000000000000000000000015158152509050610164565b8160131415611ee4576040518061010001604052807f00000000000000000000000000000000000000000000000000000000000000006001600160a01b031681526020017f00000000000000000000000000000000000000000000000000000000000000006001600160a01b031681526020017f000000000000000000000000000000000000000000000000000000000000000081526020017f000000000000000000000000000000000000000000000000000000000000000081526020017f00000000000000000000000000000000000000000000000000000000000000006002811115611e5d57fe5b81526020017f000000000000000000000000000000000000000000000000000000000000000081526020017f00000000000000000000000000000000000000000000000000000000000000006001600160a01b031681526020017f000000000000000000000000000000000000000000000000000000000000000015158152509050610164565b8160141415612056576040518061010001604052807f00000000000000000000000000000000000000000000000000000000000000006001600160a01b031681526020017f00000000000000000000000000000000000000000000000000000000000000006001600160a01b031681526020017f000000000000000000000000000000000000000000000000000000000000000081526020017f000000000000000000000000000000000000000000000000000000000000000081526020017f00000000000000000000000000000000000000000000000000000000000000006002811115611fcf57fe5b81526020017f000000000000000000000000000000000000000000000000000000000000000081526020017f00000000000000000000000000000000000000000000000000000000000000006001600160a01b031681526020017f000000000000000000000000000000000000000000000000000000000000000015158152509050610164565b81601514156121c8576040518061010001604052807f00000000000000000000000000000000000000000000000000000000000000006001600160a01b031681526020017f00000000000000000000000000000000000000000000000000000000000000006001600160a01b031681526020017f000000000000000000000000000000000000000000000000000000000000000081526020017f000000000000000000000000000000000000000000000000000000000000000081526020017f0000000000000000000000000000000000000000000000000000000000000000600281111561214157fe5b81526020017f000000000000000000000000000000000000000000000000000000000000000081526020017f00000000000000000000000000000000000000000000000000000000000000006001600160a01b031681526020017f000000000000000000000000000000000000000000000000000000000000000015158152509050610164565b816016141561233a576040518061010001604052807f00000000000000000000000000000000000000000000000000000000000000006001600160a01b031681526020017f00000000000000000000000000000000000000000000000000000000000000006001600160a01b031681526020017f000000000000000000000000000000000000000000000000000000000000000081526020017f000000000000000000000000000000000000000000000000000000000000000081526020017f000000000000000000000000000000000000000000000000000000000000000060028111156122b357fe5b81526020017f000000000000000000000000000000000000000000000000000000000000000081526020017f00000000000000000000000000000000000000000000000000000000000000006001600160a01b031681526020017f000000000000000000000000000000000000000000000000000000000000000015158152509050610164565b81601714156124ac576040518061010001604052807f00000000000000000000000000000000000000000000000000000000000000006001600160a01b031681526020017f00000000000000000000000000000000000000000000000000000000000000006001600160a01b031681526020017f000000000000000000000000000000000000000000000000000000000000000081526020017f000000000000000000000000000000000000000000000000000000000000000081526020017f0000000000000000000000000000000000000000000000000000000000000000600281111561242557fe5b81526020017f000000000000000000000000000000000000000000000000000000000000000081526020017f00000000000000000000000000000000000000000000000000000000000000006001600160a01b031681526020017f000000000000000000000000000000000000000000000000000000000000000015158152509050610164565b816018141561261e576040518061010001604052807f00000000000000000000000000000000000000000000000000000000000000006001600160a01b031681526020017f00000000000000000000000000000000000000000000000000000000000000006001600160a01b031681526020017f000000000000000000000000000000000000000000000000000000000000000081526020017f000000000000000000000000000000000000000000000000000000000000000081526020017f0000000000000000000000000000000000000000000000000000000000000000600281111561259757fe5b81526020017f000000000000000000000000000000000000000000000000000000000000000081526020017f00000000000000000000000000000000000000000000000000000000000000006001600160a01b031681526020017f000000000000000000000000000000000000000000000000000000000000000015158152509050610164565b8160191415612790576040518061010001604052807f00000000000000000000000000000000000000000000000000000000000000006001600160a01b031681526020017f00000000000000000000000000000000000000000000000000000000000000006001600160a01b031681526020017f000000000000000000000000000000000000000000000000000000000000000081526020017f000000000000000000000000000000000000000000000000000000000000000081526020017f0000000000000000000000000000000000000000000000000000000000000000600281111561270957fe5b81526020017f000000000000000000000000000000000000000000000000000000000000000081526020017f00000000000000000000000000000000000000000000000000000000000000006001600160a01b031681526020017f000000000000000000000000000000000000000000000000000000000000000015158152509050610164565b81601a1415612902576040518061010001604052807f00000000000000000000000000000000000000000000000000000000000000006001600160a01b031681526020017f00000000000000000000000000000000000000000000000000000000000000006001600160a01b031681526020017f000000000000000000000000000000000000000000000000000000000000000081526020017f000000000000000000000000000000000000000000000000000000000000000081526020017f0000000000000000000000000000000000000000000000000000000000000000600281111561287b57fe5b81526020017f000000000000000000000000000000000000000000000000000000000000000081526020017f00000000000000000000000000000000000000000000000000000000000000006001600160a01b031681526020017f000000000000000000000000000000000000000000000000000000000000000015158152509050610164565b81601b1415612a74576040518061010001604052807f00000000000000000000000000000000000000000000000000000000000000006001600160a01b031681526020017f00000000000000000000000000000000000000000000000000000000000000006001600160a01b031681526020017f000000000000000000000000000000000000000000000000000000000000000081526020017f000000000000000000000000000000000000000000000000000000000000000081526020017f000000000000000000000000000000000000000000000000000000000000000060028111156129ed57fe5b81526020017f000000000000000000000000000000000000000000000000000000000000000081526020017f00000000000000000000000000000000000000000000000000000000000000006001600160a01b031681526020017f000000000000000000000000000000000000000000000000000000000000000015158152509050610164565b81601c1415612be6576040518061010001604052807f00000000000000000000000000000000000000000000000000000000000000006001600160a01b031681526020017f00000000000000000000000000000000000000000000000000000000000000006001600160a01b031681526020017f000000000000000000000000000000000000000000000000000000000000000081526020017f000000000000000000000000000000000000000000000000000000000000000081526020017f00000000000000000000000000000000000000000000000000000000000000006002811115612b5f57fe5b81526020017f000000000000000000000000000000000000000000000000000000000000000081526020017f00000000000000000000000000000000000000000000000000000000000000006001600160a01b031681526020017f000000000000000000000000000000000000000000000000000000000000000015158152509050610164565b81601d1415610164576040518061010001604052807f00000000000000000000000000000000000000000000000000000000000000006001600160a01b031681526020017f00000000000000000000000000000000000000000000000000000000000000006001600160a01b031681526020017f000000000000000000000000000000000000000000000000000000000000000081526020017f000000000000000000000000000000000000000000000000000000000000000081526020017f00000000000000000000000000000000000000000000000000000000000000006002811115612cd157fe5b81526020017f000000000000000000000000000000000000000000000000000000000000000081526020017f00000000000000000000000000000000000000000000000000000000000000006001600160a01b031681526020017f000000000000000000000000000000000000000000000000000000000000000015158152509050610164565b7f000000000000000000000000000000000000000000000000000000000000000081565b612d8461434a565b6000612d8f83613b8c565b90506000198114612da35761013b816101b9565b612e17836001600160a01b0316636f307dc36040518163ffffffff1660e01b815260040160206040518083038186803b158015612ddf57600080fd5b505afa158015612df3573d6000803e3d6000fd5b505050506040513d601f19601f820116820180604052508101906100cc91906143ab565b9392505050565b601e81565b60007f0000000000000000000000000000000000000000000000000000000000000000821415612e5557506000610164565b7f0000000000000000000000000000000000000000000000000000000000000000821415612e8557506001610164565b7f0000000000000000000000000000000000000000000000000000000000000000821415612eb557506002610164565b7f0000000000000000000000000000000000000000000000000000000000000000821415612ee557506003610164565b7f0000000000000000000000000000000000000000000000000000000000000000821415612f1557506004610164565b7f0000000000000000000000000000000000000000000000000000000000000000821415612f4557506005610164565b7f0000000000000000000000000000000000000000000000000000000000000000821415612f7557506006610164565b7f0000000000000000000000000000000000000000000000000000000000000000821415612fa557506007610164565b7f0000000000000000000000000000000000000000000000000000000000000000821415612fd557506008610164565b7f000000000000000000000000000000000000000000000000000000000000000082141561300557506009610164565b7f00000000000000000000000000000000000000000000000000000000000000008214156130355750600a610164565b7f00000000000000000000000000000000000000000000000000000000000000008214156130655750600b610164565b7f00000000000000000000000000000000000000000000000000000000000000008214156130955750600c610164565b7f00000000000000000000000000000000000000000000000000000000000000008214156130c55750600d610164565b7f00000000000000000000000000000000000000000000000000000000000000008214156130f55750600e610164565b7f00000000000000000000000000000000000000000000000000000000000000008214156131255750600f610164565b7f000000000000000000000000000000000000000000000000000000000000000082141561315557506010610164565b7f000000000000000000000000000000000000000000000000000000000000000082141561318557506011610164565b7f00000000000000000000000000000000000000000000000000000000000000008214156131b557506012610164565b7f00000000000000000000000000000000000000000000000000000000000000008214156131e557506013610164565b7f000000000000000000000000000000000000000000000000000000000000000082141561321557506014610164565b7f000000000000000000000000000000000000000000000000000000000000000082141561324557506015610164565b7f000000000000000000000000000000000000000000000000000000000000000082141561327557506016610164565b7f00000000000000000000000000000000000000000000000000000000000000008214156132a557506017610164565b7f00000000000000000000000000000000000000000000000000000000000000008214156132d557506018610164565b7f000000000000000000000000000000000000000000000000000000000000000082141561330557506019610164565b7f00000000000000000000000000000000000000000000000000000000000000008214156133355750601a610164565b7f00000000000000000000000000000000000000000000000000000000000000008214156133655750601b610164565b7f00000000000000000000000000000000000000000000000000000000000000008214156133955750601c610164565b7f00000000000000000000000000000000000000000000000000000000000000008214156133c55750601d610164565b50600019919050565b60007f00000000000000000000000000000000000000000000000000000000000000006001600160a01b0316826001600160a01b0316141561341257506000610164565b7f00000000000000000000000000000000000000000000000000000000000000006001600160a01b0316826001600160a01b0316141561345457506001610164565b7f00000000000000000000000000000000000000000000000000000000000000006001600160a01b0316826001600160a01b0316141561349657506002610164565b7f00000000000000000000000000000000000000000000000000000000000000006001600160a01b0316826001600160a01b031614156134d857506003610164565b7f00000000000000000000000000000000000000000000000000000000000000006001600160a01b0316826001600160a01b0316141561351a57506004610164565b7f00000000000000000000000000000000000000000000000000000000000000006001600160a01b0316826001600160a01b0316141561355c57506005610164565b7f00000000000000000000000000000000000000000000000000000000000000006001600160a01b0316826001600160a01b0316141561359e57506006610164565b7f00000000000000000000000000000000000000000000000000000000000000006001600160a01b0316826001600160a01b031614156135e057506007610164565b7f00000000000000000000000000000000000000000000000000000000000000006001600160a01b0316826001600160a01b0316141561362257506008610164565b7f00000000000000000000000000000000000000000000000000000000000000006001600160a01b0316826001600160a01b0316141561366457506009610164565b7f00000000000000000000000000000000000000000000000000000000000000006001600160a01b0316826001600160a01b031614156136a65750600a610164565b7f00000000000000000000000000000000000000000000000000000000000000006001600160a01b0316826001600160a01b031614156136e85750600b610164565b7f00000000000000000000000000000000000000000000000000000000000000006001600160a01b0316826001600160a01b0316141561372a5750600c610164565b7f00000000000000000000000000000000000000000000000000000000000000006001600160a01b0316826001600160a01b0316141561376c5750600d610164565b7f00000000000000000000000000000000000000000000000000000000000000006001600160a01b0316826001600160a01b031614156137ae5750600e610164565b7f00000000000000000000000000000000000000000000000000000000000000006001600160a01b0316826001600160a01b031614156137f05750600f610164565b7f00000000000000000000000000000000000000000000000000000000000000006001600160a01b0316826001600160a01b0316141561383257506010610164565b7f00000000000000000000000000000000000000000000000000000000000000006001600160a01b0316826001600160a01b0316141561387457506011610164565b7f00000000000000000000000000000000000000000000000000000000000000006001600160a01b0316826001600160a01b031614156138b657506012610164565b7f00000000000000000000000000000000000000000000000000000000000000006001600160a01b0316826001600160a01b031614156138f857506013610164565b7f00000000000000000000000000000000000000000000000000000000000000006001600160a01b0316826001600160a01b0316141561393a57506014610164565b7f00000000000000000000000000000000000000000000000000000000000000006001600160a01b0316826001600160a01b0316141561397c57506015610164565b7f00000000000000000000000000000000000000000000000000000000000000006001600160a01b0316826001600160a01b031614156139be57506016610164565b7f00000000000000000000000000000000000000000000000000000000000000006001600160a01b0316826001600160a01b03161415613a0057506017610164565b7f00000000000000000000000000000000000000000000000000000000000000006001600160a01b0316826001600160a01b03161415613a4257506018610164565b7f00000000000000000000000000000000000000000000000000000000000000006001600160a01b0316826001600160a01b03161415613a8457506019610164565b7f00000000000000000000000000000000000000000000000000000000000000006001600160a01b0316826001600160a01b03161415613ac65750601a610164565b7f00000000000000000000000000000000000000000000000000000000000000006001600160a01b0316826001600160a01b03161415613b085750601b610164565b7f00000000000000000000000000000000000000000000000000000000000000006001600160a01b0316826001600160a01b03161415613b4a5750601c610164565b7f00000000000000000000000000000000000000000000000000000000000000006001600160a01b0316826001600160a01b031614156133c55750601d610164565b60007f00000000000000000000000000000000000000000000000000000000000000006001600160a01b0316826001600160a01b03161415613bd057506000610164565b7f00000000000000000000000000000000000000000000000000000000000000006001600160a01b0316826001600160a01b03161415613c1257506001610164565b7f00000000000000000000000000000000000000000000000000000000000000006001600160a01b0316826001600160a01b03161415613c5457506002610164565b7f00000000000000000000000000000000000000000000000000000000000000006001600160a01b0316826001600160a01b03161415613c9657506003610164565b7f00000000000000000000000000000000000000000000000000000000000000006001600160a01b0316826001600160a01b03161415613cd857506004610164565b7f00000000000000000000000000000000000000000000000000000000000000006001600160a01b0316826001600160a01b03161415613d1a57506005610164565b7f00000000000000000000000000000000000000000000000000000000000000006001600160a01b0316826001600160a01b03161415613d5c57506006610164565b7f00000000000000000000000000000000000000000000000000000000000000006001600160a01b0316826001600160a01b03161415613d9e57506007610164565b7f00000000000000000000000000000000000000000000000000000000000000006001600160a01b0316826001600160a01b03161415613de057506008610164565b7f00000000000000000000000000000000000000000000000000000000000000006001600160a01b0316826001600160a01b03161415613e2257506009610164565b7f00000000000000000000000000000000000000000000000000000000000000006001600160a01b0316826001600160a01b03161415613e645750600a610164565b7f00000000000000000000000000000000000000000000000000000000000000006001600160a01b0316826001600160a01b03161415613ea65750600b610164565b7f00000000000000000000000000000000000000000000000000000000000000006001600160a01b0316826001600160a01b03161415613ee85750600c610164565b7f00000000000000000000000000000000000000000000000000000000000000006001600160a01b0316826001600160a01b03161415613f2a5750600d610164565b7f00000000000000000000000000000000000000000000000000000000000000006001600160a01b0316826001600160a01b03161415613f6c5750600e610164565b7f00000000000000000000000000000000000000000000000000000000000000006001600160a01b0316826001600160a01b03161415613fae5750600f610164565b7f00000000000000000000000000000000000000000000000000000000000000006001600160a01b0316826001600160a01b03161415613ff057506010610164565b7f00000000000000000000000000000000000000000000000000000000000000006001600160a01b0316826001600160a01b0316141561403257506011610164565b7f00000000000000000000000000000000000000000000000000000000000000006001600160a01b0316826001600160a01b0316141561407457506012610164565b7f00000000000000000000000000000000000000000000000000000000000000006001600160a01b0316826001600160a01b031614156140b657506013610164565b7f00000000000000000000000000000000000000000000000000000000000000006001600160a01b0316826001600160a01b031614156140f857506014610164565b7f00000000000000000000000000000000000000000000000000000000000000006001600160a01b0316826001600160a01b0316141561413a57506015610164565b7f00000000000000000000000000000000000000000000000000000000000000006001600160a01b0316826001600160a01b0316141561417c57506016610164565b7f00000000000000000000000000000000000000000000000000000000000000006001600160a01b0316826001600160a01b031614156141be57506017610164565b7f00000000000000000000000000000000000000000000000000000000000000006001600160a01b0316826001600160a01b0316141561420057506018610164565b7f00000000000000000000000000000000000000000000000000000000000000006001600160a01b0316826001600160a01b0316141561424257506019610164565b7f00000000000000000000000000000000000000000000000000000000000000006001600160a01b0316826001600160a01b031614156142845750601a610164565b7f00000000000000000000000000000000000000000000000000000000000000006001600160a01b0316826001600160a01b031614156142c65750601b610164565b7f00000000000000000000000000000000000000000000000000000000000000006001600160a01b0316826001600160a01b031614156143085750601c610164565b7f00000000000000000000000000000000000000000000000000000000000000006001600160a01b0316826001600160a01b031614156133c55750601d610164565b60408051610100810182526000808252602082018190529181018290526060810182905290608082019081526000602082018190526040820181905260609091015290565b6000602082840312156143a0578081fd5b8135612e178161457b565b6000602082840312156143bc578081fd5b8151612e178161457b565b6000602082840312156143d8578081fd5b5035919050565b600060208083850312156143f1578182fd5b823567ffffffffffffffff80821115614408578384fd5b818501915085601f83011261441b578384fd5b81358181111561442757fe5b604051601f8201601f191681018501838111828210171561444457fe5b604052818152838201850188101561445a578586fd5b818585018683013790810190930193909352509392505050565b6001600160a01b03169052565b15159052565b60008251815b818110156144a7576020818601810151858301520161448d565b818111156144b55782828501525b509190910192915050565b6020808252601690820152751d1bdad95b8818dbdb999a59c81b9bdd08199bdd5b9960521b604082015260600190565b81516001600160a01b03908116825260208084015190911690820152604080830151908201526060808301519082015260808201516101008201906003811061453557fe5b8060808401525060a083015160a083015260c083015161455860c0840182614474565b5060e083015161456b60e0840182614481565b5092915050565b90815260200190565b6001600160a01b038116811461459057600080fd5b5056fea264697066735822122047f8655198607a41272ac3c13c2d601d4daca504fce16e9e7f70839c86160c4764736f6c63430007040033",
  "linkReferences": {},
  "deployedLinkReferences": {}
}