{
  "_format": "hh-sol-artifact-1",
  "contractName": "AccessControl",
  "sourceName": "contracts/Core/Base/AssetRegistry/AccessControl/AccessControl.sol",
  "abi": [
    {
      "anonymous": false,
      "inputs": [
        {
          "indexed": true,
          "internalType": "bytes32",
          "name": "assetId",
          "type": "bytes32"
        },
        {
          "indexed": true,
          "internalType": "address",
          "name": "account",
          "type": "address"
        },
        {
          "indexed": false,
          "internalType": "bytes4",
          "name": "methodSignature",
          "type": "bytes4"
        }
      ],
      "name": "GrantedAccess",
      "type": "event"
    },
    {
      "anonymous": false,
      "inputs": [
        {
          "indexed": true,
          "internalType": "bytes32",
          "name": "assetId",
          "type": "bytes32"
        },
        {
          "indexed": true,
          "internalType": "address",
          "name": "account",
          "type": "address"
        },
        {
          "indexed": false,
          "internalType": "bytes4",
          "name": "methodSignature",
          "type": "bytes4"
        }
      ],
      "name": "RevokedAccess",
      "type": "event"
    },
    {
      "inputs": [
        {
          "internalType": "bytes32",
          "name": "assetId",
          "type": "bytes32"
        },
        {
          "internalType": "bytes4",
          "name": "methodSignature",
          "type": "bytes4"
        },
        {
          "internalType": "address",
          "name": "account",
          "type": "address"
        }
      ],
      "name": "grantAccess",
      "outputs": [],
      "stateMutability": "nonpayable",
      "type": "function"
    },
    {
      "inputs": [
        {
          "internalType": "bytes32",
          "name": "assetId",
          "type": "bytes32"
        },
        {
          "internalType": "bytes4",
          "name": "methodSignature",
          "type": "bytes4"
        },
        {
          "internalType": "address",
          "name": "account",
          "type": "address"
        }
      ],
      "name": "hasAccess",
      "outputs": [
        {
          "internalType": "bool",
          "name": "",
          "type": "bool"
        }
      ],
      "stateMutability": "view",
      "type": "function"
    },
    {
      "inputs": [
        {
          "internalType": "bytes32",
          "name": "assetId",
          "type": "bytes32"
        },
        {
          "internalType": "address",
          "name": "account",
          "type": "address"
        }
      ],
      "name": "hasRootAccess",
      "outputs": [
        {
          "internalType": "bool",
          "name": "",
          "type": "bool"
        }
      ],
      "stateMutability": "view",
      "type": "function"
    },
    {
      "inputs": [
        {
          "internalType": "bytes32",
          "name": "assetId",
          "type": "bytes32"
        },
        {
          "internalType": "bytes4",
          "name": "methodSignature",
          "type": "bytes4"
        },
        {
          "internalType": "address",
          "name": "account",
          "type": "address"
        }
      ],
      "name": "revokeAccess",
      "outputs": [],
      "stateMutability": "nonpayable",
      "type": "function"
    }
  ],
  "bytecode": "0x608060405234801561001057600080fd5b506103f4806100206000396000f3fe608060405234801561001057600080fd5b506004361061004c5760003560e01c80631717e867146100515780631b1268151461006657806339262e871461008f578063e8f7ca3e146100a2575b600080fd5b61006461005f366004610306565b6100b5565b005b610079610074366004610306565b610171565b604051610086919061034f565b60405180910390f35b61006461009d366004610306565b6101e8565b6100796100b03660046102db565b61028b565b6100cc836000356001600160e01b03191633610171565b6100f15760405162461bcd60e51b81526004016100e89061036f565b60405180910390fd5b6000838152602081815260408083206001600160e01b031986168452600d0182528083206001600160a01b038516808552925291829020805460ff19166001179055905184907face25d271ad11ee299595b3021629bae0349e370d7c2eb7c2dced6e4edb478659061016490869061035a565b60405180910390a3505050565b6000838152602081815260408083206001600160e01b031986168452600d0182528083206001600160a01b038516845290915281205460ff16806101e05750600084815260208181526040808320838052600d0182528083206001600160a01b038616845290915290205460ff165b949350505050565b6101ff836000356001600160e01b03191633610171565b61021b5760405162461bcd60e51b81526004016100e89061036f565b6000838152602081815260408083206001600160e01b031986168452600d0182528083206001600160a01b038516808552925291829020805460ff19169055905184907f42b1b0e7392ad606bb4f5b003296aba62f16e43aa9372f1f40c1522fa2655ffa9061016490869061035a565b600091825260208281526040808420848052600d0182528084206001600160a01b0393909316845291905290205460ff1690565b80356001600160a01b03811681146102d657600080fd5b919050565b600080604083850312156102ed578182fd5b823591506102fd602084016102bf565b90509250929050565b60008060006060848603121561031a578081fd5b8335925060208401356001600160e01b031981168114610338578182fd5b9150610346604085016102bf565b90509250925092565b901515815260200190565b6001600160e01b031991909116815260200190565b6020808252602f908201527f416363657373436f6e74726f6c2e7265766f6b654163636573733a20554e415560408201526e2a2427a924ad22a22fa9a2a72222a960891b60608201526080019056fea264697066735822122079160b26e24881b3d9b6d2f78662b9ca919b7f523404ff44081b271ae2912c9064736f6c63430007040033",
  "linkReferences": {},
  "deployedLinkReferences": {}
}