{
  "abi": [
    {
      "inputs": [
        {
          "internalType": "contract IAssetRegistry",
          "name": "assetRegistry",
          "type": "address"
        },
        {
          "internalType": "contract IDataRegistry",
          "name": "dataRegistry",
          "type": "address"
        }
      ],
      "stateMutability": "nonpayable",
      "type": "constructor"
    },
    {
      "anonymous": false,
      "inputs": [
        {
          "indexed": true,
          "internalType": "bytes32",
          "name": "assetId",
          "type": "bytes32"
        },
        {
          "indexed": false,
          "internalType": "enum ContractType",
          "name": "contractType",
          "type": "uint8"
        },
        {
          "indexed": false,
          "internalType": "address",
          "name": "creator",
          "type": "address"
        },
        {
          "indexed": false,
          "internalType": "address",
          "name": "counterparty",
          "type": "address"
        }
      ],
      "name": "InitializedAsset",
      "type": "event"
    },
    {
      "anonymous": false,
      "inputs": [
        {
          "indexed": true,
          "internalType": "address",
          "name": "previousOwner",
          "type": "address"
        },
        {
          "indexed": true,
          "internalType": "address",
          "name": "newOwner",
          "type": "address"
        }
      ],
      "name": "OwnershipTransferred",
      "type": "event"
    },
    {
      "anonymous": false,
      "inputs": [
        {
          "indexed": true,
          "internalType": "bytes32",
          "name": "assetId",
          "type": "bytes32"
        },
        {
          "indexed": false,
          "internalType": "enum EventType",
          "name": "eventType",
          "type": "uint8"
        },
        {
          "indexed": false,
          "internalType": "uint256",
          "name": "scheduleTime",
          "type": "uint256"
        },
        {
          "indexed": false,
          "internalType": "int256",
          "name": "payoff",
          "type": "int256"
        }
      ],
      "name": "ProgressedAsset",
      "type": "event"
    },
    {
      "anonymous": false,
      "inputs": [
        {
          "indexed": true,
          "internalType": "bytes32",
          "name": "assetId",
          "type": "bytes32"
        },
        {
          "indexed": false,
          "internalType": "bytes32",
          "name": "statusMessage",
          "type": "bytes32"
        }
      ],
      "name": "Status",
      "type": "event"
    },
    {
      "inputs": [],
      "name": "assetRegistry",
      "outputs": [
        {
          "internalType": "contract IAssetRegistry",
          "name": "",
          "type": "address"
        }
      ],
      "stateMutability": "view",
      "type": "function"
    },
    {
      "inputs": [],
      "name": "dataRegistry",
      "outputs": [
        {
          "internalType": "contract IDataRegistry",
          "name": "",
          "type": "address"
        }
      ],
      "stateMutability": "view",
      "type": "function"
    },
    {
      "inputs": [
        {
          "internalType": "bytes32",
          "name": "object",
          "type": "bytes32"
        }
      ],
      "name": "decodeCollateralObject",
      "outputs": [
        {
          "internalType": "address",
          "name": "",
          "type": "address"
        },
        {
          "internalType": "uint256",
          "name": "",
          "type": "uint256"
        }
      ],
      "stateMutability": "pure",
      "type": "function"
    },
    {
      "inputs": [
        {
          "internalType": "bytes32",
          "name": "_event",
          "type": "bytes32"
        }
      ],
      "name": "decodeEvent",
      "outputs": [
        {
          "internalType": "enum EventType",
          "name": "",
          "type": "uint8"
        },
        {
          "internalType": "uint256",
          "name": "",
          "type": "uint256"
        }
      ],
      "stateMutability": "pure",
      "type": "function"
    },
    {
      "inputs": [
        {
          "internalType": "address",
          "name": "collateralToken",
          "type": "address"
        },
        {
          "internalType": "uint256",
          "name": "collateralAmount",
          "type": "uint256"
        }
      ],
      "name": "encodeCollateralAsObject",
      "outputs": [
        {
          "internalType": "bytes32",
          "name": "",
          "type": "bytes32"
        }
      ],
      "stateMutability": "pure",
      "type": "function"
    },
    {
      "inputs": [
        {
          "internalType": "enum EventType",
          "name": "eventType",
          "type": "uint8"
        },
        {
          "internalType": "uint256",
          "name": "scheduleTime",
          "type": "uint256"
        }
      ],
      "name": "encodeEvent",
      "outputs": [
        {
          "internalType": "bytes32",
          "name": "",
          "type": "bytes32"
        }
      ],
      "stateMutability": "pure",
      "type": "function"
    },
    {
      "inputs": [
        {
          "internalType": "enum EventType",
          "name": "eventType",
          "type": "uint8"
        }
      ],
      "name": "getEpochOffset",
      "outputs": [
        {
          "internalType": "uint256",
          "name": "",
          "type": "uint256"
        }
      ],
      "stateMutability": "pure",
      "type": "function"
    },
    {
      "inputs": [
        {
          "components": [
            {
              "internalType": "enum ContractType",
              "name": "contractType",
              "type": "uint8"
            },
            {
              "internalType": "enum Calendar",
              "name": "calendar",
              "type": "uint8"
            },
            {
              "internalType": "enum ContractRole",
              "name": "contractRole",
              "type": "uint8"
            },
            {
              "internalType": "enum DayCountConvention",
              "name": "dayCountConvention",
              "type": "uint8"
            },
            {
              "internalType": "enum BusinessDayConvention",
              "name": "businessDayConvention",
              "type": "uint8"
            },
            {
              "internalType": "enum EndOfMonthConvention",
              "name": "endOfMonthConvention",
              "type": "uint8"
            },
            {
              "internalType": "enum RedeemableByIssuer",
              "name": "redeemableByIssuer",
              "type": "uint8"
            },
            {
              "internalType": "address",
              "name": "currency",
              "type": "address"
            },
            {
              "internalType": "address",
              "name": "settlementCurrency",
              "type": "address"
            },
            {
              "internalType": "uint256",
              "name": "contractDealDate",
              "type": "uint256"
            },
            {
              "internalType": "uint256",
              "name": "statusDate",
              "type": "uint256"
            },
            {
              "internalType": "uint256",
              "name": "issueDate",
              "type": "uint256"
            },
            {
              "internalType": "uint256",
              "name": "purchaseDate",
              "type": "uint256"
            },
            {
              "internalType": "uint256",
              "name": "cycleAnchorDateOfDividend",
              "type": "uint256"
            },
            {
              "internalType": "int256",
              "name": "nominalPrice",
              "type": "int256"
            },
            {
              "internalType": "int256",
              "name": "notionalPrincipal",
              "type": "int256"
            },
            {
              "internalType": "int256",
              "name": "issuePrice",
              "type": "int256"
            },
            {
              "internalType": "int256",
              "name": "quantity",
              "type": "int256"
            },
            {
              "internalType": "int256",
              "name": "priceAtPurchaseDate",
              "type": "int256"
            },
            {
              "internalType": "int256",
              "name": "redemptionPrice",
              "type": "int256"
            },
            {
              "components": [
                {
                  "internalType": "uint256",
                  "name": "i",
                  "type": "uint256"
                },
                {
                  "internalType": "enum P",
                  "name": "p",
                  "type": "uint8"
                },
                {
                  "internalType": "bool",
                  "name": "isSet",
                  "type": "bool"
                }
              ],
              "internalType": "struct IP",
              "name": "dividendRecordPeriod",
              "type": "tuple"
            },
            {
              "components": [
                {
                  "internalType": "uint256",
                  "name": "i",
                  "type": "uint256"
                },
                {
                  "internalType": "enum P",
                  "name": "p",
                  "type": "uint8"
                },
                {
                  "internalType": "bool",
                  "name": "isSet",
                  "type": "bool"
                }
              ],
              "internalType": "struct IP",
              "name": "dividendPaymentPeriod",
              "type": "tuple"
            },
            {
              "components": [
                {
                  "internalType": "uint256",
                  "name": "i",
                  "type": "uint256"
                },
                {
                  "internalType": "enum P",
                  "name": "p",
                  "type": "uint8"
                },
                {
                  "internalType": "bool",
                  "name": "isSet",
                  "type": "bool"
                }
              ],
              "internalType": "struct IP",
              "name": "splitSettlementPeriod",
              "type": "tuple"
            },
            {
              "components": [
                {
                  "internalType": "uint256",
                  "name": "i",
                  "type": "uint256"
                },
                {
                  "internalType": "enum P",
                  "name": "p",
                  "type": "uint8"
                },
                {
                  "internalType": "bool",
                  "name": "isSet",
                  "type": "bool"
                }
              ],
              "internalType": "struct IP",
              "name": "redemptionRecordPeriod",
              "type": "tuple"
            },
            {
              "components": [
                {
                  "internalType": "uint256",
                  "name": "i",
                  "type": "uint256"
                },
                {
                  "internalType": "enum P",
                  "name": "p",
                  "type": "uint8"
                },
                {
                  "internalType": "bool",
                  "name": "isSet",
                  "type": "bool"
                }
              ],
              "internalType": "struct IP",
              "name": "redemptionPaymentPeriod",
              "type": "tuple"
            },
            {
              "components": [
                {
                  "internalType": "uint256",
                  "name": "i",
                  "type": "uint256"
                },
                {
                  "internalType": "enum P",
                  "name": "p",
                  "type": "uint8"
                },
                {
                  "internalType": "enum S",
                  "name": "s",
                  "type": "uint8"
                },
                {
                  "internalType": "bool",
                  "name": "isSet",
                  "type": "bool"
                }
              ],
              "internalType": "struct IPS",
              "name": "cycleOfDividend",
              "type": "tuple"
            }
          ],
          "internalType": "struct STKTerms",
          "name": "terms",
          "type": "tuple"
        },
        {
          "internalType": "bytes32[]",
          "name": "schedule",
          "type": "bytes32[]"
        },
        {
          "components": [
            {
              "internalType": "address",
              "name": "creatorObligor",
              "type": "address"
            },
            {
              "internalType": "address",
              "name": "creatorBeneficiary",
              "type": "address"
            },
            {
              "internalType": "address",
              "name": "counterpartyObligor",
              "type": "address"
            },
            {
              "internalType": "address",
              "name": "counterpartyBeneficiary",
              "type": "address"
            }
          ],
          "internalType": "struct AssetOwnership",
          "name": "ownership",
          "type": "tuple"
        },
        {
          "internalType": "address",
          "name": "engine",
          "type": "address"
        },
        {
          "internalType": "address",
          "name": "admin",
          "type": "address"
        }
      ],
      "name": "initialize",
      "outputs": [],
      "stateMutability": "nonpayable",
      "type": "function"
    },
    {
      "inputs": [],
      "name": "owner",
      "outputs": [
        {
          "internalType": "address",
          "name": "",
          "type": "address"
        }
      ],
      "stateMutability": "view",
      "type": "function"
    },
    {
      "inputs": [
        {
          "internalType": "bytes32",
          "name": "assetId",
          "type": "bytes32"
        }
      ],
      "name": "progress",
      "outputs": [],
      "stateMutability": "nonpayable",
      "type": "function"
    },
    {
      "inputs": [
        {
          "internalType": "bytes32",
          "name": "assetId",
          "type": "bytes32"
        },
        {
          "internalType": "bytes32",
          "name": "_event",
          "type": "bytes32"
        }
      ],
      "name": "progressWith",
      "outputs": [],
      "stateMutability": "nonpayable",
      "type": "function"
    },
    {
      "inputs": [],
      "name": "renounceOwnership",
      "outputs": [],
      "stateMutability": "nonpayable",
      "type": "function"
    },
    {
      "inputs": [
        {
          "internalType": "uint256",
          "name": "timestamp",
          "type": "uint256"
        },
        {
          "internalType": "enum BusinessDayConvention",
          "name": "convention",
          "type": "uint8"
        },
        {
          "internalType": "enum Calendar",
          "name": "calendar",
          "type": "uint8"
        },
        {
          "internalType": "uint256",
          "name": "maturityDate",
          "type": "uint256"
        }
      ],
      "name": "shiftCalcTime",
      "outputs": [
        {
          "internalType": "uint256",
          "name": "",
          "type": "uint256"
        }
      ],
      "stateMutability": "pure",
      "type": "function"
    },
    {
      "inputs": [
        {
          "internalType": "uint256",
          "name": "timestamp",
          "type": "uint256"
        },
        {
          "internalType": "enum BusinessDayConvention",
          "name": "convention",
          "type": "uint8"
        },
        {
          "internalType": "enum Calendar",
          "name": "calendar",
          "type": "uint8"
        },
        {
          "internalType": "uint256",
          "name": "maturityDate",
          "type": "uint256"
        }
      ],
      "name": "shiftEventTime",
      "outputs": [
        {
          "internalType": "uint256",
          "name": "",
          "type": "uint256"
        }
      ],
      "stateMutability": "pure",
      "type": "function"
    },
    {
      "inputs": [
        {
          "internalType": "address",
          "name": "newOwner",
          "type": "address"
        }
      ],
      "name": "transferOwnership",
      "outputs": [],
      "stateMutability": "nonpayable",
      "type": "function"
    }
  ],
  "address": "0xe66ae359099180077E5882280cD8dD83b365909D",
  "args": [
    "0x718530f02F144c671524cCF2AC4Fb2C7B1258087",
    "0x527Af5F767502FfBFB721b5F4F13559cd12bFa7e"
  ],
  "solcInputHash": "0xc62fa96d4e48ea4a757361e251673623657a8dc49ad728bc296d1f4b1cb38ca9",
  "bytecode": "0x60806040523480156200001157600080fd5b5060405162004066380380620040668339810160408190526200003491620000ce565b818160006200004b6001600160e01b03620000ca16565b600080546001600160a01b0319166001600160a01b0383169081178255604051929350917f8be0079c531659141344cd1fd0a4f28419497f9722a3daafe3b4186f6b6457e0908290a350600180546001600160a01b039384166001600160a01b0319918216179091556002805492909316911617905550620001259050565b3390565b60008060408385031215620000e1578182fd5b8251620000ee816200010c565b602084015190925062000101816200010c565b809150509250929050565b6001600160a01b03811681146200012257600080fd5b50565b613f3180620001356000396000f3fe608060405234801561001057600080fd5b50600436106100f55760003560e01c80638da5cb5b11610097578063e05a66e011610066578063e05a66e0146101e0578063e726d680146101f3578063f2fde38b14610206578063f5586e0514610219576100f5565b80638da5cb5b146101a8578063979d7e86146101bd578063a39c1d6b146101c5578063ad2eb511146101cd576100f5565b8063715018a6116100d3578063715018a61461015957806372540003146101615780637aebd2a814610182578063811322fb14610195576100f5565b8063645a26bd146100fa5780636778e0e9146101245780636b6ba66414610144575b600080fd5b61010d610108366004612a2e565b61022c565b60405161011b9291906133f7565b60405180910390f35b6101376101323660046129e7565b610245565b60405161011b9190613410565b610157610152366004612a5e565b610270565b005b610157610525565b61017461016f366004612a2e565b6105a4565b60405161011b9291906136da565b610157610190366004612a2e565b6105cd565b6101376101a3366004612a9b565b61082b565b6101b0610841565b60405161011b91906133a5565b6101b0610850565b6101b061085f565b6101576101db366004612bb5565b61086e565b6101376101ee366004612ab7565b610aa7565b610137610201366004612f41565b610ac5565b6101576102143660046129af565b610c1a565b610137610227366004612f41565b610cd0565b606081901c6bffffffffffffffffffffffff8216915091565b6bffffffffffffffffffffffff19606083901b166bffffffffffffffffffffffff8216175b92915050565b60015460405163747be51f60e11b81526001600160a01b039091169063e8f7ca3e906102a29085903390600401613419565b602060405180830381600087803b1580156102bc57600080fd5b505af11580156102d0573d6000803e3d6000fd5b505050506040513d601f19601f820116820180604052508101906102f49190612a12565b6103195760405162461bcd60e51b815260040161031090613906565b60405180910390fd5b60015460405163f52f84e160e01b81526000916001600160a01b03169063f52f84e19061034a908690600401613410565b60206040518083038186803b15801561036257600080fd5b505afa158015610376573d6000803e3d6000fd5b505050506040513d601f19601f8201168201806040525081019061039a9190612a46565b146103b75760405162461bcd60e51b815260040161031090613b16565b600154604051631d7a1ab960e21b81526000916001600160a01b0316906375e86ae4906103e8908690600401613410565b60206040518083038186803b15801561040057600080fd5b505afa158015610414573d6000803e3d6000fd5b505050506040513d601f19601f820116820180604052508101906104389190612a46565b146104555760405162461bcd60e51b81526004016103109061385b565b60015460405163b828204160e01b81526000916104dc916001600160a01b039091169063b82820419061048c908790600401613410565b60206040518083038186803b1580156104a457600080fd5b505afa1580156104b8573d6000803e3d6000fd5b505050506040513d601f19601f8201168201806040525081019061016f9190612a46565b91505060006104ea836105a4565b9150508115806104f957508181105b6105155760405162461bcd60e51b815260040161031090613716565b61051f8484610d44565b50505050565b61052d6112db565b6000546001600160a01b0390811691161461055a5760405162461bcd60e51b815260040161031090613a47565b600080546040516001600160a01b03909116907f8be0079c531659141344cd1fd0a4f28419497f9722a3daafe3b4186f6b6457e0908390a3600080546001600160a01b0319169055565b6000808060f884901c60218111156105b857fe5b92505067ffffffffffffffff83169050915091565b600154604051631392c59160e11b81526001600160a01b03909116906327258b22906105fd908490600401613410565b60206040518083038186803b15801561061557600080fd5b505afa158015610629573d6000803e3d6000fd5b505050506040513d601f19601f8201168201806040525081019061064d9190612a12565b6106695760405162461bcd60e51b815260040161031090613951565b600154604051630316dd6960e21b81526000916001600160a01b031690630c5b75a49061069a908590600401613410565b602060405180830381600087803b1580156106b457600080fd5b505af11580156106c8573d6000803e3d6000fd5b505050506040513d601f19601f820116820180604052508101906106ec9190612a46565b90508061077657600154604051631d7a1ab960e21b81526001600160a01b03909116906375e86ae490610723908590600401613410565b60206040518083038186803b15801561073b57600080fd5b505afa15801561074f573d6000803e3d6000fd5b505050506040513d601f19601f820116820180604052508101906107739190612a46565b90505b80610800576001546040516361db73e160e11b81526001600160a01b039091169063c3b6e7c2906107ab908590600401613410565b602060405180830381600087803b1580156107c557600080fd5b505af11580156107d9573d6000803e3d6000fd5b505050506040513d601f19601f820116820180604052508101906107fd9190612a46565b90505b8061081d5760405162461bcd60e51b8152600401610310906137c5565b6108278282610d44565b5050565b600081602181111561083957fe5b90505b919050565b6000546001600160a01b031690565b6001546001600160a01b031681565b6002546001600160a01b031681565b6001600160a01b0382161580159061090157506008826001600160a01b031663cb2ef6f76040518163ffffffff1660e01b815260040160206040518083038186803b1580156108bc57600080fd5b505afa1580156108d0573d6000803e3d6000fd5b505050506040513d601f19601f820116820180604052508101906108f49190612a7f565b60128111156108ff57fe5b145b61091d5760405162461bcd60e51b8152600401610310906138a9565b60008642604051602001610932929190613c05565b604051602081830303815290604052805190602001209050610952612659565b604051634535f43160e01b81526001600160a01b03851690634535f4319061097e908b90600401613bf6565b6102e06040518083038186803b15801561099757600080fd5b505afa1580156109ab573d6000803e3d6000fd5b505050506040513d601f19601f820116820180604052508101906109cf9190612e23565b600154604051636b8c6ca760e01b81529192506001600160a01b031690636b8c6ca790610a109085908c9086908d908d908d908d9030908e906004016135a8565b600060405180830381600087803b158015610a2a57600080fd5b505af1158015610a3e573d6000803e3d6000fd5b508492507fc5df678b84aa92f5f59981df8c9997b366d886de25771c5f753015c2e14e907a915060089050610a7660208901896129af565b610a8660608a0160408b016129af565b604051610a95939291906136af565b60405180910390a25050505050505050565b60008160f8846021811115610ab857fe5b60ff16901b179392505050565b600081851415610ad6575083610c12565b6001846008811115610ae457fe5b1480610afb57506003846008811115610af957fe5b145b15610b1157610b0a85846112df565b9050610c12565b6002846008811115610b1f57fe5b1480610b3657506004846008811115610b3457fe5b145b15610b7a576000610b4786856112df565b9050610b528661133b565b610b5b8261133b565b1415610b68579050610c12565b610b728685611353565b915050610c12565b6005846008811115610b8857fe5b1480610b9f57506007846008811115610b9d57fe5b145b15610bae57610b0a8584611353565b6006846008811115610bbc57fe5b1480610bd357506008846008811115610bd157fe5b145b15610c0f576000610be48685611353565b9050610bef8661133b565b610bf88261133b565b1415610c05579050610c12565b610b7286856112df565b50835b949350505050565b610c226112db565b6000546001600160a01b03908116911614610c4f5760405162461bcd60e51b815260040161031090613a47565b6001600160a01b038116610c755760405162461bcd60e51b815260040161031090613761565b600080546040516001600160a01b03808516939216917f8be0079c531659141344cd1fd0a4f28419497f9722a3daafe3b4186f6b6457e091a3600080546001600160a01b0319166001600160a01b0392909216919091179055565b60006003846008811115610ce057fe5b1480610cf757506004846008811115610cf557fe5b145b80610d0d57506007846008811115610d0b57fe5b145b80610d2357506008846008811115610d2157fe5b145b15610d2f575083610c12565b610d3b85858585610ac5565b95945050505050565b610d4c612659565b6001546040516309648a9d60e01b81526001600160a01b03909116906309648a9d90610d7c908690600401613410565b6102e06040518083038186803b158015610d9557600080fd5b505afa158015610da9573d6000803e3d6000fd5b505050506040513d601f19601f82011682018060405250810190610dcd9190612e23565b9050600081516005811115610dde57fe5b1480610df65750600181516005811115610df457fe5b145b80610e0d5750600281516005811115610e0b57fe5b145b610e295760405162461bcd60e51b815260040161031090613b61565b600081516005811115610e3857fe5b14610ec157600154604051631ba316dd60e11b81526001600160a01b03909116906337462dba90610e6d908690600401613410565b6102e06040518083038186803b158015610e8657600080fd5b505afa158015610e9a573d6000803e3d6000fd5b505050506040513d601f19601f82011682018060405250810190610ebe9190612e23565b90505b600080610ecd846105a4565b60015460405163ecef557760e01b815292945090925042916110779184916001600160a01b039091169063ecef557790610f0b908b90600401613501565b60206040518083038186803b158015610f2357600080fd5b505afa158015610f37573d6000803e3d6000fd5b505050506040513d601f19601f82011682018060405250810190610f5b9190612f88565b60ff166008811115610f6957fe5b60015460405163ecef557760e01b81526001600160a01b039091169063ecef557790610f99908c90600401613569565b60206040518083038186803b158015610fb157600080fd5b505afa158015610fc5573d6000803e3d6000fd5b505050506040513d601f19601f82011682018060405250810190610fe99190612f88565b60ff166001811115610ff757fe5b60015460405163135b9f4d60e01b81526001600160a01b039091169063135b9f4d90611027908d90600401613528565b60206040518083038186803b15801561103f57600080fd5b505afa158015611053573d6000803e3d6000fd5b505050506040513d601f19601f820116820180604052508101906102019190612a46565b11156110955760405162461bcd60e51b815260040161031090613ac2565b61109d612659565b60006110aa8786886113a1565b9150915060006110bb88888461161f565b9050806111bf576000865160058111156110d157fe5b141561113c5760015460405163842962d560e01b81526001600160a01b039091169063842962d590611109908b908a9060040161369a565b600060405180830381600087803b15801561112357600080fd5b505af1158015611137573d6000803e3d6000fd5b505050505b60015460405163d981e77360e01b81526001600160a01b039091169063d981e7739061116e908b908b90600401613430565b600060405180830381600087803b15801561118857600080fd5b505af115801561119c573d6000803e3d6000fd5b5050505060006111ad600186610aa7565b90506111ba8985836113a1565b509350505b600154604051631d306b7f60e11b81526001600160a01b0390911690633a60d6fe906111f1908b90879060040161369a565b600060405180830381600087803b15801561120b57600080fd5b505af115801561121f573d6000803e3d6000fd5b50505050801515600114156112955760015460405163de07a17360e01b81526001600160a01b039091169063de07a17390611262908b908b90879060040161343e565b600060405180830381600087803b15801561127c57600080fd5b505af1158015611290573d6000803e3d6000fd5b505050505b877fd255be8589971f117e0e4377177282fb7cce66e378bfb1b7eafddd05e4f181e96001831515146112c85760016112ca565b865b8685604051610a95939291906136f6565b3390565b600060018260018111156112ef57fe5b1415611334576112fe83611a55565b6006141561131857611311836002611a68565b905061026a565b61132183611a55565b6007141561133457611311836001611a68565b5090919050565b600061134b620151808304611a7d565b509392505050565b6000600182600181111561136357fe5b14156113345761137283611a55565b6006141561138557611311836001611b13565b61138e83611a55565b6007141561133457611311836002611b13565b6113a9612659565b60015460405163ee43eda160e01b815260009182916001600160a01b039091169063ee43eda1906113de908990600401613410565b60206040518083038186803b1580156113f657600080fd5b505afa15801561140a573d6000803e3d6000fd5b505050506040513d601f19601f8201168201806040525081019061142e91906129cb565b9050611438612708565b6001546040516335f1cded60e11b81526001600160a01b0390911690636be39bda90611468908a90600401613410565b6104e06040518083038186803b15801561148157600080fd5b505afa158015611495573d6000803e3d6000fd5b505050506040513d601f19601f820116820180604052508101906114b99190612c73565b90506000806114c7876105a4565b915091506000846001600160a01b03166334dfdd0c858b8b6114fe8f896114f98a8d608001518e602001516000610cd0565b611b28565b6040518563ffffffff1660e01b815260040161151d9493929190613c22565b60206040518083038186803b15801561153557600080fd5b505afa158015611549573d6000803e3d6000fd5b505050506040513d601f19601f8201168201806040525081019061156d9190612a46565b9050846001600160a01b031663851afc7d858b8b6115a08f8961159b8a8d608001518e602001516000610cd0565b611d1f565b6040518563ffffffff1660e01b81526004016115bf9493929190613c22565b6102e06040518083038186803b1580156115d857600080fd5b505afa1580156115ec573d6000803e3d6000fd5b505050506040513d601f19601f820116820180604052508101906116109190612e23565b9a909950975050505050505050565b6000831580159061162f57508215155b61164b5760405162461bcd60e51b8152600401610310906139ea565b8161165857506001611a4e565b60015460405163eb01255960e01b81526000916001600160a01b03169063eb01255990611689908890600401613479565b60206040518083038186803b1580156116a157600080fd5b505afa1580156116b5573d6000803e3d6000fd5b505050506040513d601f19601f820116820180604052508101906116d991906129cb565b90506116e3612801565b600154604051635e353ebb60e11b81526001600160a01b039091169063bc6a7d7690611713908990600401613454565b60806040518083038186803b15801561172b57600080fd5b505afa15801561173f573d6000803e3d6000fd5b505050506040513d601f19601f820116820180604052508101906117639190612b6b565b905060048160600151600481111561177757fe5b141561178c5780516117889061022c565b5091505b611794612828565b60015460405163e50e0ef760e01b81526001600160a01b039091169063e50e0ef7906117c4908a90600401613410565b60806040518083038186803b1580156117dc57600080fd5b505afa1580156117f0573d6000803e3d6000fd5b505050506040513d601f19601f820116820180604052508101906118149190612b03565b90506000806000871315611843575060408201516001600160a01b03821661183e57826020015191505b61185c565b5081516001600160a01b03821661185c57826060015191505b600080881361186f578760001902611871565b875b905080866001600160a01b031663dd62ed3e84306040518363ffffffff1660e01b81526004016118a29291906133b9565b60206040518083038186803b1580156118ba57600080fd5b505afa1580156118ce573d6000803e3d6000fd5b505050506040513d601f19601f820116820180604052508101906118f29190612a46565b108061197957506040516370a0823160e01b815281906001600160a01b038816906370a08231906119279086906004016133a5565b60206040518083038186803b15801561193f57600080fd5b505afa158015611953573d6000803e3d6000fd5b505050506040513d601f19601f820116820180604052508101906119779190612a46565b105b156119c357897f4f269a19b64cfff0bdee7fd3cdaec44e1fe38ce2ff55d3009a89fac6ecbe9f2c6040516119ac906137a7565b60405180910390a260009650505050505050611a4e565b6040516323b872dd60e01b81526001600160a01b038716906323b872dd906119f3908590879086906004016133d3565b602060405180830381600087803b158015611a0d57600080fd5b505af1158015611a21573d6000803e3d6000fd5b505050506040513d601f19601f82011682018060405250810190611a459190612a12565b96505050505050505b9392505050565b6007620151809091046003010660010190565b62015180810282018281101561026a57600080fd5b60008080836226496581018262023ab1600483020590506004600362023ab18302010590910390600062164b09610fa0600185010205905060046105b58202058303601f019250600061098f8460500281611ad457fe5b0590506000605061098f83020585039050600b820560301994909401606402929092018301996002600c90940290910392909201975095509350505050565b62015180810282038281111561026a57600080fd5b60015460405163eb01255960e01b815260009182916001600160a01b039091169063eb01255990611b5d908890600401613479565b60206040518083038186803b158015611b7557600080fd5b505afa158015611b89573d6000803e3d6000fd5b505050506040513d601f19601f82011682018060405250810190611bad91906129cb565b60015460405163eb01255960e01b81529192506000916001600160a01b039091169063eb01255990611be39089906004016134dd565b60206040518083038186803b158015611bfb57600080fd5b505afa158015611c0f573d6000803e3d6000fd5b505050506040513d601f19601f82011682018060405250810190611c3391906129cb565b9050806001600160a01b0316826001600160a01b031614611d165760025460405160009182916001600160a01b03909116906308a4ec1090611c7b90879087906020016133b9565b60405160208183030381529060405280519060200120886040518363ffffffff1660e01b8152600401611caf929190613430565b604080518083038186803b158015611cc657600080fd5b505afa158015611cda573d6000803e3d6000fd5b505050506040513d601f19601f82011682018060405250810190611cfe9190612ad4565b915091508015611d1357509250611a4e915050565b50505b50509392505050565b6000600e836021811115611d2f57fe5b1415611dd857600254604051628a4ec160e41b815260009182916001600160a01b03909116906308a4ec1090611d6e9060018a01908890600401613430565b604080518083038186803b158015611d8557600080fd5b505afa158015611d99573d6000803e3d6000fd5b505050506040513d601f19601f82011682018060405250810190611dbd9190612ad4565b9150915080611dcd576000611dcf565b815b92505050611a4e565b6016836021811115611de657fe5b1415611e93576002805460009182916001600160a01b0316906308a4ec10905b6040516001600160e01b031960e084901b168152611e2b918a01908890600401613430565b604080518083038186803b158015611e4257600080fd5b505afa158015611e56573d6000803e3d6000fd5b505050506040513d601f19601f82011682018060405250810190611e7a9190612ad4565b915091508015611e8c57509050611a4e565b5050611ed6565b6013836021811115611ea157fe5b1415611ec45760025460009081906001600160a01b03166308a4ec106003611e06565b611ecf848484611ee0565b9050611a4e565b5060009392505050565b6000600d836021811115611ef057fe5b1415611fa65760025460015460405163354770f760e21b815260009283926001600160a01b03918216926308a4ec10929091169063d51dc3dc90611f38908b906004016134ae565b60206040518083038186803b158015611f5057600080fd5b505afa158015611f64573d6000803e3d6000fd5b505050506040513d601f19601f82011682018060405250810190611f889190612a46565b866040518363ffffffff1660e01b8152600401611e2b929190613430565b6001836021811115611fb457fe5b1415611fc1575042611a4e565b6019836021811115611fcf57fe5b141561230257611fdd612801565b600154604051635e353ebb60e11b81526001600160a01b039091169063bc6a7d769061200d908890600401613583565b60806040518083038186803b15801561202557600080fd5b505afa158015612039573d6000803e3d6000fd5b505050506040513d601f19601f8201168201806040525081019061205d9190612b6b565b905060038160600151600481111561207157fe5b14156121a25780516020820151604051631392c59160e11b81526001600160a01b038216906327258b22906120aa908590600401613410565b60206040518083038186803b1580156120c257600080fd5b505afa1580156120d6573d6000803e3d6000fd5b505050506040513d601f19601f820116820180604052508101906120fa9190612a12565b151560011461211b5760405162461bcd60e51b815260040161031090613806565b604051636a899b9b60e01b81526001600160a01b03821690636a899b9b90612147908590600401613546565b60206040518083038186803b15801561215f57600080fd5b505afa158015612173573d6000803e3d6000fd5b505050506040513d601f19601f820116820180604052508101906121979190612a46565b9350611a4e92505050565b6121aa612801565b600154604051635e353ebb60e11b81526001600160a01b039091169063bc6a7d76906121da908990600401613454565b60806040518083038186803b1580156121f257600080fd5b505afa158015612206573d6000803e3d6000fd5b505050506040513d601f19601f8201168201806040525081019061222a9190612b6b565b905060028160400151600481111561223e57fe5b14801561225a575060008160600151600481111561225857fe5b145b15611e8c576002548151604051628a4ec160e41b815260009283926001600160a01b03909116916308a4ec1091612295918a90600401613430565b604080518083038186803b1580156122ac57600080fd5b505afa1580156122c0573d6000803e3d6000fd5b505050506040513d601f19601f820116820180604052508101906122e49190612ad4565b9150915080156122f957509250611a4e915050565b50505050611ed6565b601383602181111561231057fe5b1415611ed65761231e612801565b600154604051635e353ebb60e11b81526001600160a01b039091169063bc6a7d769061234e908890600401613583565b60806040518083038186803b15801561236657600080fd5b505afa15801561237a573d6000803e3d6000fd5b505050506040513d601f19601f8201168201806040525081019061239e9190612b6b565b90506002816040015160048111156123b257fe5b1480156123ce57506000816060015160048111156123cc57fe5b145b15612593576002548151604051628a4ec160e41b815260009283926001600160a01b03909116916308a4ec1091612409918990600401613430565b604080518083038186803b15801561242057600080fd5b505afa158015612434573d6000803e3d6000fd5b505050506040513d601f19601f820116820180604052508101906124589190612ad4565b600254855160015460405163135b9f4d60e01b815294965092945060009384936001600160a01b03938416936308a4ec10939291169063135b9f4d906124a2908f90600401613493565b60206040518083038186803b1580156124ba57600080fd5b505afa1580156124ce573d6000803e3d6000fd5b505050506040513d601f19601f820116820180604052508101906124f29190612a46565b6040518363ffffffff1660e01b815260040161250f929190613430565b604080518083038186803b15801561252657600080fd5b505afa15801561253a573d6000803e3d6000fd5b505050506040513d601f19601f8201168201806040525081019061255e9190612ad4565b9150915082801561256c5750805b1561258e57612581848363ffffffff61259d16565b9550611a4e945050505050565b505050505b5060009050611a4e565b6000816125bc5760405162461bcd60e51b815260040161031090613bb2565b826125c95750600061026a565b670de0b6b3a7640000838102908482816125df57fe5b05146125fd5760405162461bcd60e51b815260040161031090613a7c565b826000191480156126115750600160ff1b84145b1561262e5760405162461bcd60e51b815260040161031090613a7c565b600083828161263957fe5b05905080610c125760405162461bcd60e51b815260040161031090613999565b604080516102e081019091528060008152602001600081526020016000815260200160008152602001600081526020016000815260200160008152602001600081526020016000815260200160008152602001600081526020016000815260200160008152602001600081526020016000815260200160008152602001600081526020016000815260200160008152602001600081526020016000815260200160008152602001600081525090565b604080516103408101909152806000815260200160008152602001600081526020016000815260200160008152602001600081526020016000815260200160006001600160a01b0316815260200160006001600160a01b0316815260200160008152602001600081526020016000815260200160008152602001600081526020016000815260200160008152602001600081526020016000815260200160008152602001600081526020016127bb61284f565b81526020016127c861284f565b81526020016127d561284f565b81526020016127e261284f565b81526020016127ef61284f565b81526020016127fc612872565b905290565b604080516080810182526000808252602082018190529091820190815260200160006127fc565b60408051608081018252600080825260208201819052918101829052606081019190915290565b6040805160608101909152600080825260208201905b8152600060209091015290565b60408051608081019091526000808252602082019081526020016000612865565b803561026a81613e7d565b805161026a81613e7d565b805161026a81613ea0565b805161026a81613ead565b805161026a81613eba565b805161026a81613ed4565b803561026a81613ee1565b805161026a81613ee1565b6000608082840312156128fc578081fd5b50919050565b600060808284031215612913578081fd5b61291d6080613de9565b905081518152602082015161293181613eba565b6020820152604082015161294481613ead565b6040820152606082015161295781613e92565b606082015292915050565b600060608284031215612973578081fd5b61297d6060613de9565b905081518152602082015161299181613eba565b602082015260408201516129a481613e92565b604082015292915050565b6000602082840312156129c0578081fd5b8135611a4e81613e7d565b6000602082840312156129dc578081fd5b8151611a4e81613e7d565b600080604083850312156129f9578081fd5b8235612a0481613e7d565b946020939093013593505050565b600060208284031215612a23578081fd5b8151611a4e81613e92565b600060208284031215612a3f578081fd5b5035919050565b600060208284031215612a57578081fd5b5051919050565b60008060408385031215612a70578182fd5b50508035926020909101359150565b600060208284031215612a90578081fd5b8151611a4e81613ee1565b600060208284031215612aac578081fd5b8135611a4e81613eee565b60008060408385031215612ac9578182fd5b8235612a0481613eee565b60008060408385031215612ae6578182fd5b825191506020830151612af881613e92565b809150509250929050565b600060808284031215612b14578081fd5b612b1e6080613de9565b8251612b2981613e7d565b81526020830151612b3981613e7d565b60208201526040830151612b4c81613e7d565b60408201526060830151612b5f81613e7d565b60608201529392505050565b600060808284031215612b7c578081fd5b612b866080613de9565b82518152602083015160208201526040830151612ba281613ec7565b60408201526060830151612b5f81613ec7565b6000806000806000808688036105c0811215612bcf578283fd5b6104e080821215612bde578384fd5b889750870135905067ffffffffffffffff80821115612bfb578384fd5b8189018a601f820112612c0c578485fd5b8035925081831115612c1c578485fd5b8a60208085028301011115612c2f578485fd5b6020019650909450612c4790508861050089016128eb565b9250612c57886105808901612893565b9150612c67886105a08901612893565b90509295509295509295565b60006104e08284031215612c85578081fd5b610340612c9181613de9565b612c9b85856128e0565b8152612caa85602086016128b4565b6020820152612cbc85604086016128ca565b6040820152612cce85606086016128bf565b6060820152612ce085608086016128a9565b6080820152612cf28560a086016128b4565b60a0820152612d048560c086016128b4565b60c0820152612d168560e0860161289e565b60e0820152610100612d2a8682870161289e565b9082015261012084810151908201526101408085015190820152610160808501519082015261018080850151908201526101a080850151908201526101c080850151908201526101e080850151908201526102008085015190820152610220808501519082015261024080850151908201526102608085015190820152610280612db686828701612962565b908201526102e0612dc986868301612962565b6102a0830152612ddb86848701612962565b6102c0830152612def866103a08701612962565b90820152612e01856104008601612962565b610300820152612e15856104608601612902565b610320820152949350505050565b60006102e0808385031215612e36578182fd5b612e3f81613de9565b612e4985856128bf565b81526020848101519082015260408085015190820152606080850151908201526080808501519082015260a0808501519082015260c0808501519082015260e08085015190820152610100808501519082015261012080850151908201526101408085015190820152610160808501519082015261018080850151908201526101a080850151908201526101c080850151908201526101e08085015190820152610200808501519082015261022080850151908201526102408085015190820152610260808501519082015261028080850151908201526102a080850151908201526102c09384015193810193909352509092915050565b60008060008060808587031215612f56578182fd5b843593506020850135612f6881613ea0565b92506040850135612f7881613ead565b9396929550929360600135925050565b600060208284031215612f99578081fd5b815160ff81168114611a4e578182fd5b6001600160a01b03169052565b60098110612fc057fe5b9052565b612fc081613e5c565b612fc081613e69565b600d8110612fc057fe5b612fc081613e73565b803582526020810135612ffb81613eba565b61300481613e69565b6020830152604081013561301781613ead565b61302081613e5c565b6040830152606081013561303381613e92565b8015156060840152505050565b80518252602081015161305281613e69565b6020830152604081015161306581613e5c565b60408301526060908101511515910152565b80358252602081013561308981613eba565b61309281613e69565b602083015260408101356130a581613e92565b8015156040840152505050565b8051825260208101516130c481613e69565b60208301526040908101511515910152565b602081016130ed836130e883856128d5565b612fe0565b6130f78183613e2a565b6131046020850182612fc4565b50506131136040820182613e37565b6131206040840182612fd6565b5061312e6060820182613e44565b61313b6060840182612fcd565b506131496080820182613e1d565b6131566080840182612fb6565b5061316460a0820182613e2a565b61317160a0840182612fc4565b5061317f60c0820182613e2a565b61318c60c0840182612fc4565b5061319a60e0820182613e10565b6131a760e0840182612fa9565b506101006131b781830183613e10565b6131c382850182612fa9565b505061012081810135908301526101408082013590830152610160808201359083015261018080820135908301526101a080820135908301526101c080820135908301526101e08082013590830152610200808201359083015261022080820135908301526102408082013590830152610260808201359083015261028061324f818401828401613077565b506102e0613261818401828401613077565b50610340613273818401828401613077565b506103a0613285818401828401613077565b50610400613297818401828401613077565b506104606132a9818401828401612fe9565b505050565b6132b9828251612fcd565b6020818101519083015260408082015190830152606080820151908301526080808201519083015260a0808201519083015260c0808201519083015260e08082015190830152610100808201519083015261012080820151908301526101408082015190830152610160808201519083015261018080820151908301526101a080820151908301526101c080820151908301526101e08082015190830152610200808201519083015261022080820151908301526102408082015190830152610260808201519083015261028080820151908301526102a080820151908301526102c090810151910152565b6001600160a01b0391909116815260200190565b6001600160a01b0392831681529116602082015260400190565b6001600160a01b039384168152919092166020820152604081019190915260600190565b6001600160a01b03929092168252602082015260400190565b90815260200190565b9182526001600160a01b0316602082015260400190565b918252602082015260400190565b9283526020830191909152604082015260600190565b9081527231b7b73a3930b1ba2932b332b932b731b2af9960691b602082015260400190565b9081526763757272656e637960c01b602082015260400190565b9081526869737375654461746560b81b602082015260400190565b9081527f6d61726b65744f626a656374436f646552617465526573657400000000000000602082015260400190565b90815271736574746c656d656e7443757272656e637960701b602082015260400190565b90815274313ab9b4b732b9b9a230bca1b7b73b32b73a34b7b760591b602082015260400190565b9081526b6d617475726974794461746560a01b602082015260400190565b908152701b9bdd1a5bdb985b141c9a5b98da5c185b607a1b602082015260400190565b9081526731b0b632b73230b960c11b602082015260400190565b90815272636f6e74726163745265666572656e63655f3160681b602082015260400190565b60006108e08b83526135bd602084018c6130d6565b6135cb61050084018b6132ae565b6107e0830181905282018790526109006001600160fb1b038811156135ee578182fd5b60208802808a83860137830101908152853561360981613e7d565b6001600160a01b0390811661080084015260408701908061362d8360208b01612893565b1661082085015260608801816136438285612893565b166108408601528161365860808b0183612893565b16610860860152505050613670610880830186612fa9565b61367e6108a0830185612fa9565b61368c6108c0830184612fa9565b9a9950505050505050505050565b8281526103008101611a4e60208301846132ae565b606081016136bc85613e73565b9381526001600160a01b039283166020820152911660409091015290565b604081016136e784613e51565b82528260208301529392505050565b6060810161370385613e51565b8252602082019390935260400152919050565b6020808252602b908201527f426173654163746f722e70726f6772657373576974683a20464f554e445f454160408201526a149312515497d15591539560aa1b606082015260800190565b60208082526026908201527f4f776e61626c653a206e6577206f776e657220697320746865207a65726f206160408201526564647265737360d01b606082015260800190565b71494e53554646494349454e545f46554e445360701b815260200190565b60208082526021908201527f426173654163746f722e70726f67726573733a204e4f5f4e4558545f4556454e6040820152601560fa1b606082015260800190565b60208082526035908201527f426173654163746f722e67657445787465726e616c44617461466f725354463a604082015274081054d4d15517d113d154d7d393d517d1561254d5605a1b606082015260800190565b6020808252602e908201527f426173654163746f722e70726f6772657373576974683a20464f554e445f554e60408201526d1111549316525391d7d15591539560921b606082015260800190565b60208082526038908201527f53544b4163746f722e696e697469616c697a653a20434f4e54524143545f545960408201527f50455f4f465f454e47494e455f554e535550504f525445440000000000000000606082015260800190565b6020808252602b908201527f426173654163746f722e70726f6772657373576974683a20554e415554484f5260408201526a24ad22a22fa9a2a72222a960a91b606082015260800190565b60208082526028908201527f426173654163746f722e70726f67726573733a2041535345545f444f45535f4e60408201526713d517d1561254d560c21b606082015260800190565b60208082526031908201527f5369676e65644d6174682e666c6f61744469763a2043414e4e4f545f524550526040820152704553454e545f4752414e554c415249545960781b606082015260800190565b6020808252603b908201527f426173654163746f722e736574746c655061796f6666466f724576656e743a2060408201527f494e56414c49445f46554e4354494f4e5f504152414d45544552530000000000606082015260800190565b6020808252818101527f4f776e61626c653a2063616c6c6572206973206e6f7420746865206f776e6572604082015260600190565b60208082526026908201527f5369676e65644d6174682e666c6f61744469763a204f564552464c4f575f4445604082015265151150d5115160d21b606082015260800190565b60208082526034908201527f426173654163746f722e70726f636573734576656e743a204e4558545f455645604082015273139517d393d517d6515517d4d0d211511553115160621b606082015260800190565b6020808252602b908201527f426173654163746f722e70726f6772657373576974683a20464f554e445f504560408201526a1391125391d7d15591539560aa1b606082015260800190565b60208082526031908201527f426173654163746f722e70726f636573734576656e743a2041535345545f524560408201527041434845445f46494e414c5f535441544560781b606082015260800190565b60208082526024908201527f5369676e65644d6174682e666c6f61744469763a20444956494445445f42595f6040820152635a45524f60e01b606082015260800190565b6104e0810161026a82846130d6565b6105008101613c1482856130d6565b826104e08301529392505050565b600061080082019050613c36828751612fe0565b6020860151613c486020840182612fc4565b506040860151613c5b6040840182612fd6565b506060860151613c6e6060840182612fcd565b506080860151613c816080840182612fb6565b5060a0860151613c9460a0840182612fc4565b5060c0860151613ca760c0840182612fc4565b5060e0860151613cba60e0840182612fa9565b5061010080870151613cce82850182612fa9565b505061012086810151908301526101408087015190830152610160808701519083015261018080870151908301526101a080870151908301526101c080870151908301526101e08087015190830152610200808701519083015261022080870151908301526102408087015190830152610260808701519083015261028080870151613d5c828501826130b2565b50506102a08601516102e0613d73818501836130b2565b6102c08801519150613d896103408501836130b2565b8701519050613d9c6103a08401826130b2565b50610300860151613db16104008401826130b2565b50610320860151613dc6610460840182613040565b50613dd56104e08301866132ae565b6107c08201939093526107e0015292915050565b60405181810167ffffffffffffffff81118282101715613e0857600080fd5b604052919050565b60008235611a4e81613e7d565b60008235611a4e81613ea0565b60008235611a4e81613ead565b60008235611a4e81613ed4565b60008235611a4e81613eba565b806022811061083c57fe5b60028110613e6657fe5b50565b60068110613e6657fe5b60138110613e6657fe5b6001600160a01b0381168114613e6657600080fd5b8015158114613e6657600080fd5b60098110613e6657600080fd5b60028110613e6657600080fd5b60068110613e6657600080fd5b60058110613e6657600080fd5b600d8110613e6657600080fd5b60138110613e6657600080fd5b60228110613e6657600080fdfea26469706673582212204bfd35667e110ef04bd166ed56d026ca3483c43ed309e9c00efd2ae99679345d64736f6c634300060b0033",
  "devdoc": {
    "kind": "dev",
    "methods": {
      "initialize((uint8,uint8,uint8,uint8,uint8,uint8,uint8,address,address,uint256,uint256,uint256,uint256,uint256,int256,int256,int256,int256,int256,int256,(uint256,uint8,bool),(uint256,uint8,bool),(uint256,uint8,bool),(uint256,uint8,bool),(uint256,uint8,bool),(uint256,uint8,uint8,bool)),bytes32[],(address,address,address,address),address,address)": {
        "params": {
          "admin": "address of the admin of the asset (optional)",
          "engine": "address of the ACTUS engine used for the spec. ContractType",
          "ownership": "ownership of the asset",
          "schedule": "schedule of the asset",
          "terms": "asset specific terms"
        }
      },
      "owner()": {
        "details": "Returns the address of the current owner."
      },
      "progress(bytes32)": {
        "details": "Emits ProgressedAsset if the state of the asset was updated.",
        "params": {
          "assetId": "id of the asset"
        }
      },
      "progressWith(bytes32,bytes32)": {
        "details": "Emits ProgressedAsset if the state of the asset was updated.",
        "params": {
          "_event": "the unscheduled event",
          "assetId": "id of the asset"
        }
      },
      "renounceOwnership()": {
        "details": "Leaves the contract without owner. It will not be possible to call `onlyOwner` functions anymore. Can only be called by the current owner. NOTE: Renouncing ownership will leave the contract without an owner, thereby removing any functionality that is only available to the owner."
      },
      "transferOwnership(address)": {
        "details": "Transfers ownership of the contract to a new account (`newOwner`). Can only be called by the current owner."
      }
    },
    "title": "STKActor",
    "version": 1
  },
  "userdoc": {
    "kind": "user",
    "methods": {
      "getEpochOffset(uint8)": {
        "notice": "Returns the epoch offset for a given event type to determine the correct order of events if multiple events have the same timestamp"
      },
      "initialize((uint8,uint8,uint8,uint8,uint8,uint8,uint8,address,address,uint256,uint256,uint256,uint256,uint256,int256,int256,int256,int256,int256,int256,(uint256,uint8,bool),(uint256,uint8,bool),(uint256,uint8,bool),(uint256,uint8,bool),(uint256,uint8,bool),(uint256,uint8,uint8,bool)),bytes32[],(address,address,address,address),address,address)": {
        "notice": "Derives initial state of the asset terms and stores together with terms, schedule, ownership, engine, admin of the asset in the contract types specific AssetRegistry."
      },
      "progress(bytes32)": {
        "notice": "Proceeds with the next state of the asset based on the terms, the last state, market object data and the settlement status of current obligation, derived from either a prev. pending event, an event generated based on the current state of an underlying asset or the assets schedule."
      },
      "progressWith(bytes32,bytes32)": {
        "notice": "Proceeds with the next state of the asset based on the terms, the last state, market object data and the settlement status of current obligation, derived from a provided (unscheduled) event Reverts if the provided event violates the order of events."
      },
      "shiftCalcTime(uint256,uint8,uint8,uint256)": {
        "notice": "Used in POFs and STFs for DCFs. No shifting is applied if a Calc/Shift instead of Shift/Calc BDC is provided."
      }
    },
    "notice": "TODO",
    "version": 1
  },
  "storageLayout": {
    "storage": [
      {
        "astId": 46102,
        "contract": "contracts/Core/STK/STKActor.sol:STKActor",
        "label": "_owner",
        "offset": 0,
        "slot": "0",
        "type": "t_address"
      },
      {
        "astId": 20722,
        "contract": "contracts/Core/STK/STKActor.sol:STKActor",
        "label": "assetRegistry",
        "offset": 0,
        "slot": "1",
        "type": "t_contract(IAssetRegistry)22197"
      },
      {
        "astId": 20724,
        "contract": "contracts/Core/STK/STKActor.sol:STKActor",
        "label": "dataRegistry",
        "offset": 0,
        "slot": "2",
        "type": "t_contract(IDataRegistry)25585"
      }
    ],
    "types": {
      "t_address": {
        "encoding": "inplace",
        "label": "address",
        "numberOfBytes": "20"
      },
      "t_contract(IAssetRegistry)22197": {
        "encoding": "inplace",
        "label": "contract IAssetRegistry",
        "numberOfBytes": "20"
      },
      "t_contract(IDataRegistry)25585": {
        "encoding": "inplace",
        "label": "contract IDataRegistry",
        "numberOfBytes": "20"
      }
    }
  },
  "gasEstimates": {
    "creation": {
      "codeDepositCost": "3235400",
      "executionCost": "infinite",
      "totalCost": "infinite"
    },
    "external": {
      "assetRegistry()": "1115",
      "dataRegistry()": "1137",
      "decodeCollateralObject(bytes32)": "394",
      "decodeEvent(bytes32)": "511",
      "encodeCollateralAsObject(address,uint256)": "485",
      "encodeEvent(uint8,uint256)": "464",
      "getEpochOffset(uint8)": "491",
      "initialize((uint8,uint8,uint8,uint8,uint8,uint8,uint8,address,address,uint256,uint256,uint256,uint256,uint256,int256,int256,int256,int256,int256,int256,(uint256,uint8,bool),(uint256,uint8,bool),(uint256,uint8,bool),(uint256,uint8,bool),(uint256,uint8,bool),(uint256,uint8,uint8,bool)),bytes32[],(address,address,address,address),address,address)": "infinite",
      "owner()": "1093",
      "progress(bytes32)": "infinite",
      "progressWith(bytes32,bytes32)": "infinite",
      "renounceOwnership()": "24227",
      "shiftCalcTime(uint256,uint8,uint8,uint256)": "infinite",
      "shiftEventTime(uint256,uint8,uint8,uint256)": "infinite",
      "transferOwnership(address)": "24499"
    },
    "internal": {
      "_getExternalDataForSTF(bytes32,enum EventType,uint256)": "infinite",
      "computeStateAndPayoffForEvent(bytes32,struct State memory,bytes32)": "infinite"
    }
  }
}