{
  "abi": [
    {
      "inputs": [],
      "stateMutability": "nonpayable",
      "type": "constructor"
    },
    {
      "anonymous": false,
      "inputs": [
        {
          "indexed": true,
          "internalType": "address",
          "name": "owner",
          "type": "address"
        },
        {
          "indexed": true,
          "internalType": "address",
          "name": "spender",
          "type": "address"
        },
        {
          "indexed": false,
          "internalType": "uint256",
          "name": "value",
          "type": "uint256"
        }
      ],
      "name": "Approval",
      "type": "event"
    },
    {
      "anonymous": false,
      "inputs": [
        {
          "indexed": true,
          "internalType": "address",
          "name": "previousOwner",
          "type": "address"
        },
        {
          "indexed": true,
          "internalType": "address",
          "name": "newOwner",
          "type": "address"
        }
      ],
      "name": "OwnershipTransferred",
      "type": "event"
    },
    {
      "anonymous": false,
      "inputs": [
        {
          "indexed": true,
          "internalType": "address",
          "name": "from",
          "type": "address"
        },
        {
          "indexed": true,
          "internalType": "address",
          "name": "to",
          "type": "address"
        },
        {
          "indexed": false,
          "internalType": "uint256",
          "name": "value",
          "type": "uint256"
        }
      ],
      "name": "Transfer",
      "type": "event"
    },
    {
      "stateMutability": "payable",
      "type": "fallback"
    },
    {
      "inputs": [
        {
          "internalType": "address",
          "name": "owner",
          "type": "address"
        },
        {
          "internalType": "address",
          "name": "spender",
          "type": "address"
        }
      ],
      "name": "allowance",
      "outputs": [
        {
          "internalType": "uint256",
          "name": "",
          "type": "uint256"
        }
      ],
      "stateMutability": "view",
      "type": "function"
    },
    {
      "inputs": [
        {
          "internalType": "address",
          "name": "spender",
          "type": "address"
        },
        {
          "internalType": "uint256",
          "name": "amount",
          "type": "uint256"
        }
      ],
      "name": "approve",
      "outputs": [
        {
          "internalType": "bool",
          "name": "",
          "type": "bool"
        }
      ],
      "stateMutability": "nonpayable",
      "type": "function"
    },
    {
      "inputs": [
        {
          "internalType": "address",
          "name": "spender",
          "type": "address"
        },
        {
          "internalType": "uint256",
          "name": "tokens",
          "type": "uint256"
        },
        {
          "internalType": "bytes",
          "name": "data",
          "type": "bytes"
        }
      ],
      "name": "approveAndCall",
      "outputs": [
        {
          "internalType": "bool",
          "name": "success",
          "type": "bool"
        }
      ],
      "stateMutability": "nonpayable",
      "type": "function"
    },
    {
      "inputs": [
        {
          "internalType": "address",
          "name": "account",
          "type": "address"
        }
      ],
      "name": "balanceOf",
      "outputs": [
        {
          "internalType": "uint256",
          "name": "",
          "type": "uint256"
        }
      ],
      "stateMutability": "view",
      "type": "function"
    },
    {
      "inputs": [],
      "name": "decimals",
      "outputs": [
        {
          "internalType": "uint8",
          "name": "",
          "type": "uint8"
        }
      ],
      "stateMutability": "view",
      "type": "function"
    },
    {
      "inputs": [
        {
          "internalType": "address",
          "name": "spender",
          "type": "address"
        },
        {
          "internalType": "uint256",
          "name": "subtractedValue",
          "type": "uint256"
        }
      ],
      "name": "decreaseAllowance",
      "outputs": [
        {
          "internalType": "bool",
          "name": "",
          "type": "bool"
        }
      ],
      "stateMutability": "nonpayable",
      "type": "function"
    },
    {
      "inputs": [
        {
          "internalType": "address",
          "name": "receiver",
          "type": "address"
        },
        {
          "internalType": "uint256",
          "name": "tokens",
          "type": "uint256"
        }
      ],
      "name": "drip",
      "outputs": [],
      "stateMutability": "nonpayable",
      "type": "function"
    },
    {
      "inputs": [
        {
          "internalType": "address",
          "name": "spender",
          "type": "address"
        },
        {
          "internalType": "uint256",
          "name": "addedValue",
          "type": "uint256"
        }
      ],
      "name": "increaseAllowance",
      "outputs": [
        {
          "internalType": "bool",
          "name": "",
          "type": "bool"
        }
      ],
      "stateMutability": "nonpayable",
      "type": "function"
    },
    {
      "inputs": [],
      "name": "name",
      "outputs": [
        {
          "internalType": "string",
          "name": "",
          "type": "string"
        }
      ],
      "stateMutability": "view",
      "type": "function"
    },
    {
      "inputs": [],
      "name": "owner",
      "outputs": [
        {
          "internalType": "address",
          "name": "",
          "type": "address"
        }
      ],
      "stateMutability": "view",
      "type": "function"
    },
    {
      "inputs": [],
      "name": "renounceOwnership",
      "outputs": [],
      "stateMutability": "nonpayable",
      "type": "function"
    },
    {
      "inputs": [],
      "name": "symbol",
      "outputs": [
        {
          "internalType": "string",
          "name": "",
          "type": "string"
        }
      ],
      "stateMutability": "view",
      "type": "function"
    },
    {
      "inputs": [],
      "name": "totalSupply",
      "outputs": [
        {
          "internalType": "uint256",
          "name": "",
          "type": "uint256"
        }
      ],
      "stateMutability": "view",
      "type": "function"
    },
    {
      "inputs": [
        {
          "internalType": "address",
          "name": "recipient",
          "type": "address"
        },
        {
          "internalType": "uint256",
          "name": "amount",
          "type": "uint256"
        }
      ],
      "name": "transfer",
      "outputs": [
        {
          "internalType": "bool",
          "name": "",
          "type": "bool"
        }
      ],
      "stateMutability": "nonpayable",
      "type": "function"
    },
    {
      "inputs": [
        {
          "internalType": "address",
          "name": "tokenAddress",
          "type": "address"
        },
        {
          "internalType": "uint256",
          "name": "tokens",
          "type": "uint256"
        }
      ],
      "name": "transferAnyERC20Token",
      "outputs": [
        {
          "internalType": "bool",
          "name": "success",
          "type": "bool"
        }
      ],
      "stateMutability": "nonpayable",
      "type": "function"
    },
    {
      "inputs": [
        {
          "internalType": "address",
          "name": "sender",
          "type": "address"
        },
        {
          "internalType": "address",
          "name": "recipient",
          "type": "address"
        },
        {
          "internalType": "uint256",
          "name": "amount",
          "type": "uint256"
        }
      ],
      "name": "transferFrom",
      "outputs": [
        {
          "internalType": "bool",
          "name": "",
          "type": "bool"
        }
      ],
      "stateMutability": "nonpayable",
      "type": "function"
    },
    {
      "inputs": [
        {
          "internalType": "address",
          "name": "newOwner",
          "type": "address"
        }
      ],
      "name": "transferOwnership",
      "outputs": [],
      "stateMutability": "nonpayable",
      "type": "function"
    }
  ],
  "address": "0x7Ad8F74b3079530e614D43cB27DCC1eAb8976576",
  "args": [],
  "solcInputHash": "0xe40753d84969ab002a3b0fcbd761f0bf860f92748da1e9866a9555de534b73dd",
  "bytecode": "0x60806040523480156200001157600080fd5b50604080518082018252600581526414d513135560da1b60208083019182528351808501909452601084526f29b2ba3a3632b6b2b73a102a37b5b2b760811b9084015281519192916200006791600391620002a3565b5080516200007d906004906020840190620002a3565b50506005805460ff19166012179055506000620000a26001600160e01b036200011f16565b60058054610100600160a81b0319166101006001600160a01b03841690810291909117909155604051919250906000907f8be0079c531659141344cd1fd0a4f28419497f9722a3daafe3b4186f6b6457e0908290a35069d3c21bcecceda10000006200011833826001600160e01b036200012416565b5062000345565b335b90565b6001600160a01b03821662000180576040805162461bcd60e51b815260206004820152601f60248201527f45524332303a206d696e7420746f20746865207a65726f206164647265737300604482015290519081900360640190fd5b62000197600083836001600160e01b036200023c16565b620001b3816002546200024160201b62000d5b1790919060201c565b6002556001600160a01b03821660009081526020818152604090912054620001e691839062000d5b62000241821b17901c565b6001600160a01b0383166000818152602081815260408083209490945583518581529351929391927fddf252ad1be2c89b69c2b068fc378daa952ba7f163c4a11628f55a4df523b3ef9281900390910190a35050565b505050565b6000828201838110156200029c576040805162461bcd60e51b815260206004820152601b60248201527f536166654d6174683a206164646974696f6e206f766572666c6f770000000000604482015290519081900360640190fd5b9392505050565b828054600181600116156101000203166002900490600052602060002090601f016020900481019282601f10620002e657805160ff191683800117855562000316565b8280016001018555821562000316579182015b8281111562000316578251825591602001919060010190620002f9565b506200032492915062000328565b5090565b6200012191905b808211156200032457600081556001016200032f565b61120c80620003556000396000f3fe6080604052600436106100fe5760003560e01c80638da5cb5b11610095578063a9059cbb11610064578063a9059cbb146103ec578063cae9ca5114610425578063dc39d06d146104ed578063dd62ed3e14610526578063f2fde38b14610561576100fe565b80638da5cb5b1461033457806395d89b41146103655780639e353a1e1461037a578063a457c2d7146103b3576100fe565b8063313ce567116100d1578063313ce5671461028857806339509351146102b357806370a08231146102ec578063715018a61461031f576100fe565b806306fdde0314610147578063095ea7b3146101d157806318160ddd1461021e57806323b872dd14610245575b61011133683635c9adc5dea00000610594565b34156101455760405133903480156108fc02916000818181858888f19350505050158015610143573d6000803e3d6000fd5b505b005b34801561015357600080fd5b5061015c610690565b6040805160208082528351818301528351919283929083019185019080838360005b8381101561019657818101518382015260200161017e565b50505050905090810190601f1680156101c35780820380516001836020036101000a031916815260200191505b509250505060405180910390f35b3480156101dd57600080fd5b5061020a600480360360408110156101f457600080fd5b506001600160a01b038135169060200135610726565b604080519115158252519081900360200190f35b34801561022a57600080fd5b50610233610743565b60408051918252519081900360200190f35b34801561025157600080fd5b5061020a6004803603606081101561026857600080fd5b506001600160a01b03813581169160208101359091169060400135610749565b34801561029457600080fd5b5061029d6107d6565b6040805160ff9092168252519081900360200190f35b3480156102bf57600080fd5b5061020a600480360360408110156102d657600080fd5b506001600160a01b0381351690602001356107df565b3480156102f857600080fd5b506102336004803603602081101561030f57600080fd5b50356001600160a01b0316610833565b34801561032b57600080fd5b5061014561084e565b34801561034057600080fd5b5061034961090d565b604080516001600160a01b039092168252519081900360200190f35b34801561037157600080fd5b5061015c610921565b34801561038657600080fd5b506101456004803603604081101561039d57600080fd5b506001600160a01b038135169060200135610982565b3480156103bf57600080fd5b5061020a600480360360408110156103d657600080fd5b506001600160a01b038135169060200135610990565b3480156103f857600080fd5b5061020a6004803603604081101561040f57600080fd5b506001600160a01b0381351690602001356109fe565b34801561043157600080fd5b5061020a6004803603606081101561044857600080fd5b6001600160a01b038235169160208101359181019060608101604082013564010000000081111561047857600080fd5b82018360208201111561048a57600080fd5b803590602001918460018302840111640100000000831117156104ac57600080fd5b91908080601f016020809104026020016040519081016040528093929190818152602001838380828437600092019190915250929550610a12945050505050565b3480156104f957600080fd5b5061020a6004803603604081101561051057600080fd5b506001600160a01b038135169060200135610b0a565b34801561053257600080fd5b506102336004803603604081101561054957600080fd5b506001600160a01b0381358116916020013516610c15565b34801561056d57600080fd5b506101456004803603602081101561058457600080fd5b50356001600160a01b0316610c40565b6001600160a01b0382166105ef576040805162461bcd60e51b815260206004820152601f60248201527f45524332303a206d696e7420746f20746865207a65726f206164647265737300604482015290519081900360640190fd5b6105fb60008383610dbc565b60025461060e908263ffffffff610d5b16565b6002556001600160a01b03821660009081526020819052604090205461063a908263ffffffff610d5b16565b6001600160a01b0383166000818152602081815260408083209490945583518581529351929391927fddf252ad1be2c89b69c2b068fc378daa952ba7f163c4a11628f55a4df523b3ef9281900390910190a35050565b60038054604080516020601f600260001961010060018816150201909516949094049384018190048102820181019092528281526060939092909183018282801561071c5780601f106106f15761010080835404028352916020019161071c565b820191906000526020600020905b8154815290600101906020018083116106ff57829003601f168201915b5050505050905090565b600061073a610733610dc1565b8484610dc5565b50600192915050565b60025490565b6000610756848484610eb1565b6107cc84610762610dc1565b6107c785604051806060016040528060288152602001611141602891396001600160a01b038a166000908152600160205260408120906107a0610dc1565b6001600160a01b03168152602081019190915260400160002054919063ffffffff61101816565b610dc5565b5060019392505050565b60055460ff1690565b600061073a6107ec610dc1565b846107c785600160006107fd610dc1565b6001600160a01b03908116825260208083019390935260409182016000908120918c16815292529020549063ffffffff610d5b16565b6001600160a01b031660009081526020819052604090205490565b610856610dc1565b60055461010090046001600160a01b039081169116146108bd576040805162461bcd60e51b815260206004820181905260248201527f4f776e61626c653a2063616c6c6572206973206e6f7420746865206f776e6572604482015290519081900360640190fd5b60055460405160009161010090046001600160a01b0316907f8be0079c531659141344cd1fd0a4f28419497f9722a3daafe3b4186f6b6457e0908390a360058054610100600160a81b0319169055565b60055461010090046001600160a01b031690565b60048054604080516020601f600260001961010060018816150201909516949094049384018190048102820181019092528281526060939092909183018282801561071c5780601f106106f15761010080835404028352916020019161071c565b61098c8282610594565b5050565b600061073a61099d610dc1565b846107c7856040518060600160405280602581526020016111b260259139600160006109c7610dc1565b6001600160a01b03908116825260208083019390935260409182016000908120918d1681529252902054919063ffffffff61101816565b600061073a610a0b610dc1565b8484610eb1565b6000610a1f338585610dc5565b604051638f4ffcb160e01b815233600482018181526024830186905230604484018190526080606485019081528651608486015286516001600160a01b038a1695638f4ffcb195948a94938a939192909160a490910190602085019080838360005b83811015610a99578181015183820152602001610a81565b50505050905090810190601f168015610ac65780820380516001836020036101000a031916815260200191505b5095505050505050600060405180830381600087803b158015610ae857600080fd5b505af1158015610afc573d6000803e3d6000fd5b506001979650505050505050565b6000610b14610dc1565b60055461010090046001600160a01b03908116911614610b7b576040805162461bcd60e51b815260206004820181905260248201527f4f776e61626c653a2063616c6c6572206973206e6f7420746865206f776e6572604482015290519081900360640190fd5b826001600160a01b031663a9059cbb610b9261090d565b846040518363ffffffff1660e01b815260040180836001600160a01b03166001600160a01b0316815260200182815260200192505050602060405180830381600087803b158015610be257600080fd5b505af1158015610bf6573d6000803e3d6000fd5b505050506040513d6020811015610c0c57600080fd5b50519392505050565b6001600160a01b03918216600090815260016020908152604080832093909416825291909152205490565b610c48610dc1565b60055461010090046001600160a01b03908116911614610caf576040805162461bcd60e51b815260206004820181905260248201527f4f776e61626c653a2063616c6c6572206973206e6f7420746865206f776e6572604482015290519081900360640190fd5b6001600160a01b038116610cf45760405162461bcd60e51b81526004018080602001828103825260268152602001806110d36026913960400191505060405180910390fd5b6005546040516001600160a01b0380841692610100900416907f8be0079c531659141344cd1fd0a4f28419497f9722a3daafe3b4186f6b6457e090600090a3600580546001600160a01b0390921661010002610100600160a81b0319909216919091179055565b600082820183811015610db5576040805162461bcd60e51b815260206004820152601b60248201527f536166654d6174683a206164646974696f6e206f766572666c6f770000000000604482015290519081900360640190fd5b9392505050565b505050565b3390565b6001600160a01b038316610e0a5760405162461bcd60e51b815260040180806020018281038252602481526020018061118e6024913960400191505060405180910390fd5b6001600160a01b038216610e4f5760405162461bcd60e51b81526004018080602001828103825260228152602001806110f96022913960400191505060405180910390fd5b6001600160a01b03808416600081815260016020908152604080832094871680845294825291829020859055815185815291517f8c5be1e5ebec7d5bd14f71427d1e84f3dd0314c0f7b2291e5b200ac8c7c3b9259281900390910190a3505050565b6001600160a01b038316610ef65760405162461bcd60e51b81526004018080602001828103825260258152602001806111696025913960400191505060405180910390fd5b6001600160a01b038216610f3b5760405162461bcd60e51b81526004018080602001828103825260238152602001806110b06023913960400191505060405180910390fd5b610f46838383610dbc565b610f898160405180606001604052806026815260200161111b602691396001600160a01b038616600090815260208190526040902054919063ffffffff61101816565b6001600160a01b038085166000908152602081905260408082209390935590841681522054610fbe908263ffffffff610d5b16565b6001600160a01b038084166000818152602081815260409182902094909455805185815290519193928716927fddf252ad1be2c89b69c2b068fc378daa952ba7f163c4a11628f55a4df523b3ef92918290030190a3505050565b600081848411156110a75760405162461bcd60e51b81526004018080602001828103825283818151815260200191508051906020019080838360005b8381101561106c578181015183820152602001611054565b50505050905090810190601f1680156110995780820380516001836020036101000a031916815260200191505b509250505060405180910390fd5b50505090039056fe45524332303a207472616e7366657220746f20746865207a65726f20616464726573734f776e61626c653a206e6577206f776e657220697320746865207a65726f206164647265737345524332303a20617070726f766520746f20746865207a65726f206164647265737345524332303a207472616e7366657220616d6f756e7420657863656564732062616c616e636545524332303a207472616e7366657220616d6f756e74206578636565647320616c6c6f77616e636545524332303a207472616e736665722066726f6d20746865207a65726f206164647265737345524332303a20617070726f76652066726f6d20746865207a65726f206164647265737345524332303a2064656372656173656420616c6c6f77616e63652062656c6f77207a65726fa2646970667358221220b7c811535d61ed5d1746a964ecbde6c356d2becc5825f32e6b2b3cd859408bb364736f6c634300060b0033",
  "devdoc": {
    "kind": "dev",
    "methods": {
      "allowance(address,address)": {
        "details": "See {IERC20-allowance}."
      },
      "approve(address,uint256)": {
        "details": "See {IERC20-approve}. Requirements: - `spender` cannot be the zero address."
      },
      "balanceOf(address)": {
        "details": "See {IERC20-balanceOf}."
      },
      "decimals()": {
        "details": "Returns the number of decimals used to get its user representation. For example, if `decimals` equals `2`, a balance of `505` tokens should be displayed to a user as `5,05` (`505 / 10 ** 2`). Tokens usually opt for a value of 18, imitating the relationship between Ether and Wei. This is the value {ERC20} uses, unless {_setupDecimals} is called. NOTE: This information is only used for _display_ purposes: it in no way affects any of the arithmetic of the contract, including {IERC20-balanceOf} and {IERC20-transfer}."
      },
      "decreaseAllowance(address,uint256)": {
        "details": "Atomically decreases the allowance granted to `spender` by the caller. This is an alternative to {approve} that can be used as a mitigation for problems described in {IERC20-approve}. Emits an {Approval} event indicating the updated allowance. Requirements: - `spender` cannot be the zero address. - `spender` must have allowance for the caller of at least `subtractedValue`."
      },
      "increaseAllowance(address,uint256)": {
        "details": "Atomically increases the allowance granted to `spender` by the caller. This is an alternative to {approve} that can be used as a mitigation for problems described in {IERC20-approve}. Emits an {Approval} event indicating the updated allowance. Requirements: - `spender` cannot be the zero address."
      },
      "name()": {
        "details": "Returns the name of the token."
      },
      "owner()": {
        "details": "Returns the address of the current owner."
      },
      "renounceOwnership()": {
        "details": "Leaves the contract without owner. It will not be possible to call `onlyOwner` functions anymore. Can only be called by the current owner. NOTE: Renouncing ownership will leave the contract without an owner, thereby removing any functionality that is only available to the owner."
      },
      "symbol()": {
        "details": "Returns the symbol of the token, usually a shorter version of the name."
      },
      "totalSupply()": {
        "details": "See {IERC20-totalSupply}."
      },
      "transfer(address,uint256)": {
        "details": "See {IERC20-transfer}. Requirements: - `recipient` cannot be the zero address. - the caller must have a balance of at least `amount`."
      },
      "transferFrom(address,address,uint256)": {
        "details": "See {IERC20-transferFrom}. Emits an {Approval} event indicating the updated allowance. This is not required by the EIP. See the note at the beginning of {ERC20}; Requirements: - `sender` and `recipient` cannot be the zero address. - `sender` must have a balance of at least `amount`. - the caller must have allowance for ``sender``'s tokens of at least `amount`."
      },
      "transferOwnership(address)": {
        "details": "Transfers ownership of the contract to a new account (`newOwner`). Can only be called by the current owner."
      }
    },
    "version": 1
  },
  "userdoc": {
    "kind": "user",
    "methods": {},
    "version": 1
  },
  "storageLayout": {
    "storage": [
      {
        "astId": 38960,
        "contract": "contracts/SettlementToken.sol:SettlementToken",
        "label": "_balances",
        "offset": 0,
        "slot": "0",
        "type": "t_mapping(t_address,t_uint256)"
      },
      {
        "astId": 38966,
        "contract": "contracts/SettlementToken.sol:SettlementToken",
        "label": "_allowances",
        "offset": 0,
        "slot": "1",
        "type": "t_mapping(t_address,t_mapping(t_address,t_uint256))"
      },
      {
        "astId": 38968,
        "contract": "contracts/SettlementToken.sol:SettlementToken",
        "label": "_totalSupply",
        "offset": 0,
        "slot": "2",
        "type": "t_uint256"
      },
      {
        "astId": 38970,
        "contract": "contracts/SettlementToken.sol:SettlementToken",
        "label": "_name",
        "offset": 0,
        "slot": "3",
        "type": "t_string_storage"
      },
      {
        "astId": 38972,
        "contract": "contracts/SettlementToken.sol:SettlementToken",
        "label": "_symbol",
        "offset": 0,
        "slot": "4",
        "type": "t_string_storage"
      },
      {
        "astId": 38974,
        "contract": "contracts/SettlementToken.sol:SettlementToken",
        "label": "_decimals",
        "offset": 0,
        "slot": "5",
        "type": "t_uint8"
      },
      {
        "astId": 38463,
        "contract": "contracts/SettlementToken.sol:SettlementToken",
        "label": "_owner",
        "offset": 1,
        "slot": "5",
        "type": "t_address"
      }
    ],
    "types": {
      "t_address": {
        "encoding": "inplace",
        "label": "address",
        "numberOfBytes": "20"
      },
      "t_mapping(t_address,t_mapping(t_address,t_uint256))": {
        "encoding": "mapping",
        "key": "t_address",
        "label": "mapping(address => mapping(address => uint256))",
        "numberOfBytes": "32",
        "value": "t_mapping(t_address,t_uint256)"
      },
      "t_mapping(t_address,t_uint256)": {
        "encoding": "mapping",
        "key": "t_address",
        "label": "mapping(address => uint256)",
        "numberOfBytes": "32",
        "value": "t_uint256"
      },
      "t_string_storage": {
        "encoding": "bytes",
        "label": "string",
        "numberOfBytes": "32"
      },
      "t_uint256": {
        "encoding": "inplace",
        "label": "uint256",
        "numberOfBytes": "32"
      },
      "t_uint8": {
        "encoding": "inplace",
        "label": "uint8",
        "numberOfBytes": "1"
      }
    }
  },
  "gasEstimates": {
    "creation": {
      "codeDepositCost": "924000",
      "executionCost": "infinite",
      "totalCost": "infinite"
    },
    "external": {
      "": "infinite",
      "allowance(address,address)": "1338",
      "approve(address,uint256)": "infinite",
      "approveAndCall(address,uint256,bytes)": "infinite",
      "balanceOf(address)": "1212",
      "decimals()": "1036",
      "decreaseAllowance(address,uint256)": "infinite",
      "drip(address,uint256)": "infinite",
      "increaseAllowance(address,uint256)": "infinite",
      "name()": "infinite",
      "owner()": "1071",
      "renounceOwnership()": "24312",
      "symbol()": "infinite",
      "totalSupply()": "1066",
      "transfer(address,uint256)": "infinite",
      "transferAnyERC20Token(address,uint256)": "infinite",
      "transferFrom(address,address,uint256)": "infinite",
      "transferOwnership(address)": "infinite"
    }
  }
}