{
  "_format": "hh-sol-artifact-1",
  "contractName": "CEGPOF",
  "sourceName": "contracts/ACTUS/Engines/CEG/CEGPOF.sol",
  "abi": [
    {
      "inputs": [],
      "name": "MAX_CYCLE_SIZE",
      "outputs": [
        {
          "internalType": "uint256",
          "name": "",
          "type": "uint256"
        }
      ],
      "stateMutability": "view",
      "type": "function"
    },
    {
      "inputs": [],
      "name": "MAX_EVENT_SCHEDULE_SIZE",
      "outputs": [
        {
          "internalType": "uint256",
          "name": "",
          "type": "uint256"
        }
      ],
      "stateMutability": "view",
      "type": "function"
    },
    {
      "inputs": [],
      "name": "ONE_POINT_ZERO",
      "outputs": [
        {
          "internalType": "int256",
          "name": "",
          "type": "int256"
        }
      ],
      "stateMutability": "view",
      "type": "function"
    },
    {
      "inputs": [],
      "name": "PRECISION",
      "outputs": [
        {
          "internalType": "uint256",
          "name": "",
          "type": "uint256"
        }
      ],
      "stateMutability": "view",
      "type": "function"
    },
    {
      "inputs": [
        {
          "internalType": "enum EndOfMonthConvention",
          "name": "eomc",
          "type": "uint8"
        },
        {
          "internalType": "uint256",
          "name": "startTime",
          "type": "uint256"
        },
        {
          "components": [
            {
              "internalType": "uint256",
              "name": "i",
              "type": "uint256"
            },
            {
              "internalType": "enum P",
              "name": "p",
              "type": "uint8"
            },
            {
              "internalType": "enum S",
              "name": "s",
              "type": "uint8"
            },
            {
              "internalType": "bool",
              "name": "isSet",
              "type": "bool"
            }
          ],
          "internalType": "struct IPS",
          "name": "cycle",
          "type": "tuple"
        }
      ],
      "name": "adjustEndOfMonthConvention",
      "outputs": [
        {
          "internalType": "enum EndOfMonthConvention",
          "name": "",
          "type": "uint8"
        }
      ],
      "stateMutability": "pure",
      "type": "function"
    },
    {
      "inputs": [
        {
          "internalType": "bytes32",
          "name": "_event",
          "type": "bytes32"
        },
        {
          "internalType": "enum BusinessDayConvention",
          "name": "bdc",
          "type": "uint8"
        },
        {
          "internalType": "enum Calendar",
          "name": "calendar",
          "type": "uint8"
        },
        {
          "internalType": "uint256",
          "name": "maturityDate",
          "type": "uint256"
        }
      ],
      "name": "computeEventTimeForEvent",
      "outputs": [
        {
          "internalType": "uint256",
          "name": "",
          "type": "uint256"
        }
      ],
      "stateMutability": "pure",
      "type": "function"
    },
    {
      "inputs": [
        {
          "internalType": "bytes32",
          "name": "_event",
          "type": "bytes32"
        }
      ],
      "name": "decodeEvent",
      "outputs": [
        {
          "internalType": "enum EventType",
          "name": "",
          "type": "uint8"
        },
        {
          "internalType": "uint256",
          "name": "",
          "type": "uint256"
        }
      ],
      "stateMutability": "pure",
      "type": "function"
    },
    {
      "inputs": [
        {
          "internalType": "enum EventType",
          "name": "eventType",
          "type": "uint8"
        },
        {
          "internalType": "uint256",
          "name": "scheduleTime",
          "type": "uint256"
        }
      ],
      "name": "encodeEvent",
      "outputs": [
        {
          "internalType": "bytes32",
          "name": "",
          "type": "bytes32"
        }
      ],
      "stateMutability": "pure",
      "type": "function"
    },
    {
      "inputs": [
        {
          "internalType": "enum EventType",
          "name": "eventType",
          "type": "uint8"
        }
      ],
      "name": "getEpochOffset",
      "outputs": [
        {
          "internalType": "uint256",
          "name": "",
          "type": "uint256"
        }
      ],
      "stateMutability": "pure",
      "type": "function"
    },
    {
      "inputs": [
        {
          "internalType": "uint256",
          "name": "timestamp",
          "type": "uint256"
        },
        {
          "internalType": "enum BusinessDayConvention",
          "name": "convention",
          "type": "uint8"
        },
        {
          "internalType": "enum Calendar",
          "name": "calendar",
          "type": "uint8"
        },
        {
          "internalType": "uint256",
          "name": "maturityDate",
          "type": "uint256"
        }
      ],
      "name": "shiftCalcTime",
      "outputs": [
        {
          "internalType": "uint256",
          "name": "",
          "type": "uint256"
        }
      ],
      "stateMutability": "pure",
      "type": "function"
    },
    {
      "inputs": [
        {
          "internalType": "uint256",
          "name": "timestamp",
          "type": "uint256"
        },
        {
          "internalType": "enum BusinessDayConvention",
          "name": "convention",
          "type": "uint8"
        },
        {
          "internalType": "enum Calendar",
          "name": "calendar",
          "type": "uint8"
        },
        {
          "internalType": "uint256",
          "name": "maturityDate",
          "type": "uint256"
        }
      ],
      "name": "shiftEventTime",
      "outputs": [
        {
          "internalType": "uint256",
          "name": "",
          "type": "uint256"
        }
      ],
      "stateMutability": "pure",
      "type": "function"
    }
  ],
  "bytecode": "0x608060405234801561001057600080fd5b5061098f806100206000396000f3fe608060405234801561001057600080fd5b50600436106100a95760003560e01c8063aaf5eb6811610071578063aaf5eb6814610133578063c40c5a981461013b578063e05a66e014610143578063e726d68014610156578063edc0465f1461013b578063f5586e0514610169576100a9565b8063179331f3146100ae5780631a2e165d146100d75780636f37e55b146100f757806372540003146100ff578063811322fb14610120575b600080fd5b6100c16100bc3660046107aa565b61017c565b6040516100ce91906108b2565b60405180910390f35b6100ea6100e5366004610765565b61024c565b6040516100ce91906108a9565b6100ea610273565b61011261010d36600461074d565b61027f565b6040516100ce9291906108c6565b6100ea61012e366004610851565b6102a8565b6100ea6102be565b6100ea6102c3565b6100ea61015136600461086b565b6102c8565b6100ea610164366004610894565b6102e8565b6100ea610177366004610894565b61043b565b6000600184600181111561018c57fe5b14156102085761019b836104af565b6101a4846104d1565b1480156101f357506002826020015160058111156101be57fe5b14806101d957506003826020015160058111156101d757fe5b145b806101f357506004826020015160058111156101f157fe5b145b1561020057506001610245565b506000610245565b600084600181111561021657fe5b141561022457506000610245565b60405162461bcd60e51b815260040161023c906108de565b60405180910390fd5b9392505050565b6000806102588661027f565b915050610267818686866102e8565b9150505b949350505050565b670de0b6b3a764000081565b6000808060f884901c602181111561029357fe5b92505067ffffffffffffffff83169050915091565b60008160218111156102b657fe5b90505b919050565b601281565b607881565b60008160f88460218111156102d957fe5b60ff16901b1790505b92915050565b6000818514156102f957508361026b565b600184600881111561030757fe5b148061031e5750600384600881111561031c57fe5b145b156103345761032d85846104e0565b905061026b565b600284600881111561034257fe5b14806103595750600484600881111561035757fe5b145b1561039d57600061036a86856104e0565b90506103758661053c565b61037e8261053c565b141561038b57905061026b565b6103958685610553565b91505061026b565b60058460088111156103ab57fe5b14806103c2575060078460088111156103c057fe5b145b156103d15761032d8584610553565b60068460088111156103df57fe5b14806103f6575060088460088111156103f457fe5b145b156104325760006104078685610553565b90506104128661053c565b61041b8261053c565b141561042857905061026b565b61039586856104e0565b50929392505050565b6000600384600881111561044b57fe5b14806104625750600484600881111561046057fe5b145b806104785750600784600881111561047657fe5b145b8061048e5750600884600881111561048c57fe5b145b1561049a57508361026b565b6104a6858585856102e8565b95945050505050565b600080806104c262015180855b046105a1565b509150915061026b8282610637565b600061026b62015180836104bc565b600060018260018111156104f057fe5b1415610535576104ff836106bd565b60061415610519576105128360026106d0565b90506102e2565b610522836106bd565b60071415610535576105128360016106d0565b5090919050565b600061054b62015180836104bc565b509392505050565b6000600182600181111561056357fe5b141561053557610572836106bd565b60061415610585576105128360016106e5565b61058e836106bd565b60071415610535576105128360026106e5565b60008080836226496581018262023ab1600483020590506004600362023ab18302010590910390600062164b09610fa0600185010205905060046105b58202058303601f019250600061098f84605002816105f857fe5b0590506000605061098f83020585039050600b820560301994909401606402929092018301996002600c90940290910392909201975095509350505050565b600081600114806106485750816003145b806106535750816005145b8061065e5750816007145b806106695750816008145b80610674575081600a145b8061067f575081600c145b1561068c5750601f6102e2565b8160021461069c5750601e6102e2565b6106a5836106fa565b6106b057601c6106b3565b601d5b60ff169392505050565b6007620151809091046003010660010190565b6201518081028201828110156102e257600080fd5b6201518081028203828111156102e257600080fd5b60006004820615801561070f57506064820615155b806102b657505061019090061590565b803580151581146102b957600080fd5b8035600981106102b957600080fd5b8035602281106102b957600080fd5b60006020828403121561075e578081fd5b5035919050565b6000806000806080858703121561077a578283fd5b8435935061078a6020860161072f565b9250604085013561079a81610949565b9396929550929360600135925050565b600080600083850360c08112156107bf578384fd5b84356107ca81610949565b9350602085013592506080603f19820112156107e4578182fd5b506040516080810181811067ffffffffffffffff8211171561080257fe5b6040908152850135815260608501356006811061081d578283fd5b6020820152608085013561083081610949565b604082015261084160a0860161071f565b6060820152809150509250925092565b600060208284031215610862578081fd5b6102458261073e565b6000806040838503121561087d578182fd5b6108868361073e565b946020939093013593505050565b6000806000806080858703121561077a578384fd5b90815260200190565b60208101600283106108c057fe5b91905290565b60408101602284106108d457fe5b9281526020015290565b60208082526045908201527f456e644f664d6f6e7468436f6e76656e74696f6e2e61646a757374456e644f6660408201527f4d6f6e7468436f6e76656e74696f6e3a204154545249425554455f4e4f545f4660608201526427aaa7221760d91b608082015260a00190565b6002811061095657600080fd5b5056fea26469706673582212207d098a10714c996ebc8e333aaa9f86784720b60e33b3d3ad61131fd631ad1ec564736f6c63430007040033",
  "linkReferences": {},
  "deployedLinkReferences": {}
}